{
  "_format": "hh-sol-artifact-1",
  "contractName": "OptimismSequencerProxy",
  "sourceName": "contracts/proxy/OptimismSequencerProxy.sol",
  "abi": [
    {
      "anonymous": false,
      "inputs": [
        {
          "indexed": true,
          "internalType": "bytes32",
          "name": "role",
          "type": "bytes32"
        },
        {
          "indexed": true,
          "internalType": "bytes32",
          "name": "previousAdminRole",
          "type": "bytes32"
        },
        {
          "indexed": true,
          "internalType": "bytes32",
          "name": "newAdminRole",
          "type": "bytes32"
        }
      ],
      "name": "RoleAdminChanged",
      "type": "event"
    },
    {
      "anonymous": false,
      "inputs": [
        {
          "indexed": true,
          "internalType": "bytes32",
          "name": "role",
          "type": "bytes32"
        },
        {
          "indexed": true,
          "internalType": "address",
          "name": "account",
          "type": "address"
        },
        {
          "indexed": true,
          "internalType": "address",
          "name": "sender",
          "type": "address"
        }
      ],
      "name": "RoleGranted",
      "type": "event"
    },
    {
      "anonymous": false,
      "inputs": [
        {
          "indexed": true,
          "internalType": "bytes32",
          "name": "role",
          "type": "bytes32"
        },
        {
          "indexed": true,
          "internalType": "address",
          "name": "account",
          "type": "address"
        },
        {
          "indexed": true,
          "internalType": "address",
          "name": "sender",
          "type": "address"
        }
      ],
      "name": "RoleRevoked",
      "type": "event"
    },
    {
      "anonymous": false,
      "inputs": [
        {
          "indexed": true,
          "internalType": "address",
          "name": "impl",
          "type": "address"
        },
        {
          "indexed": false,
          "internalType": "bool",
          "name": "alive",
          "type": "bool"
        }
      ],
      "name": "SetAliveImplementation",
      "type": "event"
    },
    {
      "anonymous": false,
      "inputs": [
        {
          "indexed": true,
          "internalType": "bytes4",
          "name": "selector",
          "type": "bytes4"
        },
        {
          "indexed": true,
          "internalType": "address",
          "name": "impl",
          "type": "address"
        }
      ],
      "name": "SetSelectorImplementation",
      "type": "event"
    },
    {
      "anonymous": false,
      "inputs": [
        {
          "indexed": true,
          "internalType": "address",
          "name": "implementation",
          "type": "address"
        }
      ],
      "name": "Upgraded",
      "type": "event"
    },
    {
      "stateMutability": "payable",
      "type": "fallback"
    },
    {
      "inputs": [],
      "name": "ADMIN_ROLE",
      "outputs": [
        {
          "internalType": "bytes32",
          "name": "",
          "type": "bytes32"
        }
      ],
      "stateMutability": "view",
      "type": "function"
    },
    {
      "inputs": [],
      "name": "DEFAULT_ADMIN_ROLE",
      "outputs": [
        {
          "internalType": "bytes32",
          "name": "",
          "type": "bytes32"
        }
      ],
      "stateMutability": "view",
      "type": "function"
    },
    {
      "inputs": [],
      "name": "POLICY_ROLE",
      "outputs": [
        {
          "internalType": "bytes32",
          "name": "",
          "type": "bytes32"
        }
      ],
      "stateMutability": "view",
      "type": "function"
    },
    {
      "inputs": [
        {
          "internalType": "address",
          "name": "account",
          "type": "address"
        }
      ],
      "name": "addAdmin",
      "outputs": [],
      "stateMutability": "nonpayable",
      "type": "function"
    },
    {
      "inputs": [
        {
          "internalType": "address",
          "name": "",
          "type": "address"
        }
      ],
      "name": "aliveImplementation",
      "outputs": [
        {
          "internalType": "bool",
          "name": "",
          "type": "bool"
        }
      ],
      "stateMutability": "view",
      "type": "function"
    },
    {
      "inputs": [
        {
          "internalType": "bytes32",
          "name": "role",
          "type": "bytes32"
        }
      ],
      "name": "getRoleAdmin",
      "outputs": [
        {
          "internalType": "bytes32",
          "name": "",
          "type": "bytes32"
        }
      ],
      "stateMutability": "view",
      "type": "function"
    },
    {
      "inputs": [
        {
          "internalType": "bytes4",
          "name": "_selector",
          "type": "bytes4"
        }
      ],
      "name": "getSelectorImplementation2",
      "outputs": [
        {
          "internalType": "address",
          "name": "impl",
          "type": "address"
        }
      ],
      "stateMutability": "view",
      "type": "function"
    },
    {
      "inputs": [
        {
          "internalType": "bytes32",
          "name": "role",
          "type": "bytes32"
        },
        {
          "internalType": "address",
          "name": "account",
          "type": "address"
        }
      ],
      "name": "grantRole",
      "outputs": [],
      "stateMutability": "nonpayable",
      "type": "function"
    },
    {
      "inputs": [
        {
          "internalType": "bytes32",
          "name": "role",
          "type": "bytes32"
        },
        {
          "internalType": "address",
          "name": "account",
          "type": "address"
        }
      ],
      "name": "hasRole",
      "outputs": [
        {
          "internalType": "bool",
          "name": "",
          "type": "bool"
        }
      ],
      "stateMutability": "view",
      "type": "function"
    },
    {
      "inputs": [],
      "name": "implementation",
      "outputs": [
        {
          "internalType": "address",
          "name": "",
          "type": "address"
        }
      ],
      "stateMutability": "view",
      "type": "function"
    },
    {
      "inputs": [
        {
          "internalType": "uint256",
          "name": "_index",
          "type": "uint256"
        }
      ],
      "name": "implementation2",
      "outputs": [
        {
          "internalType": "address",
          "name": "",
          "type": "address"
        }
      ],
      "stateMutability": "view",
      "type": "function"
    },
    {
      "inputs": [
        {
          "internalType": "address",
          "name": "_ton",
          "type": "address"
        },
        {
          "internalType": "address",
          "name": "_seigManagerV2",
          "type": "address"
        },
        {
          "internalType": "address",
          "name": "_layer2Manager",
          "type": "address"
        }
      ],
      "name": "initialize",
      "outputs": [],
      "stateMutability": "nonpayable",
      "type": "function"
    },
    {
      "inputs": [
        {
          "internalType": "address",
          "name": "account",
          "type": "address"
        }
      ],
      "name": "isAdmin",
      "outputs": [
        {
          "internalType": "bool",
          "name": "",
          "type": "bool"
        }
      ],
      "stateMutability": "view",
      "type": "function"
    },
    {
      "inputs": [],
      "name": "layer2Manager",
      "outputs": [
        {
          "internalType": "address",
          "name": "",
          "type": "address"
        }
      ],
      "stateMutability": "view",
      "type": "function"
    },
    {
      "inputs": [
        {
          "internalType": "uint32",
          "name": "",
          "type": "uint32"
        }
      ],
      "name": "layerInfo",
      "outputs": [
        {
          "internalType": "bytes",
          "name": "",
          "type": "bytes"
        }
      ],
      "stateMutability": "view",
      "type": "function"
    },
    {
      "inputs": [
        {
          "internalType": "uint32",
          "name": "",
          "type": "uint32"
        }
      ],
      "name": "layerStakedLton",
      "outputs": [
        {
          "internalType": "uint256",
          "name": "",
          "type": "uint256"
        }
      ],
      "stateMutability": "view",
      "type": "function"
    },
    {
      "inputs": [
        {
          "internalType": "uint32",
          "name": "",
          "type": "uint32"
        },
        {
          "internalType": "address",
          "name": "",
          "type": "address"
        }
      ],
      "name": "layerStakes",
      "outputs": [
        {
          "internalType": "uint256",
          "name": "stakePrincipal",
          "type": "uint256"
        },
        {
          "internalType": "uint256",
          "name": "bondPrincipal",
          "type": "uint256"
        },
        {
          "internalType": "uint256",
          "name": "stakelton",
          "type": "uint256"
        },
        {
          "internalType": "uint256",
          "name": "bondlton",
          "type": "uint256"
        },
        {
          "internalType": "bool",
          "name": "stake",
          "type": "bool"
        },
        {
          "internalType": "uint16",
          "name": "fwFee",
          "type": "uint16"
        }
      ],
      "stateMutability": "view",
      "type": "function"
    },
    {
      "inputs": [],
      "name": "pauseProxy",
      "outputs": [
        {
          "internalType": "bool",
          "name": "",
          "type": "bool"
        }
      ],
      "stateMutability": "view",
      "type": "function"
    },
    {
      "inputs": [
        {
          "internalType": "uint32",
          "name": "",
          "type": "uint32"
        },
        {
          "internalType": "address",
          "name": "",
          "type": "address"
        }
      ],
      "name": "pendingUnstaked",
      "outputs": [
        {
          "internalType": "uint256",
          "name": "",
          "type": "uint256"
        }
      ],
      "stateMutability": "view",
      "type": "function"
    },
    {
      "inputs": [
        {
          "internalType": "address",
          "name": "",
          "type": "address"
        }
      ],
      "name": "pendingUnstakedAccount",
      "outputs": [
        {
          "internalType": "uint256",
          "name": "",
          "type": "uint256"
        }
      ],
      "stateMutability": "view",
      "type": "function"
    },
    {
      "inputs": [
        {
          "internalType": "uint32",
          "name": "",
          "type": "uint32"
        }
      ],
      "name": "pendingUnstakedLayer2",
      "outputs": [
        {
          "internalType": "uint256",
          "name": "",
          "type": "uint256"
        }
      ],
      "stateMutability": "view",
      "type": "function"
    },
    {
      "inputs": [
        {
          "internalType": "uint256",
          "name": "",
          "type": "uint256"
        }
      ],
      "name": "proxyImplementation",
      "outputs": [
        {
          "internalType": "address",
          "name": "",
          "type": "address"
        }
      ],
      "stateMutability": "view",
      "type": "function"
    },
    {
      "inputs": [
        {
          "internalType": "address",
          "name": "account",
          "type": "address"
        }
      ],
      "name": "removeAdmin",
      "outputs": [],
      "stateMutability": "nonpayable",
      "type": "function"
    },
    {
      "inputs": [
        {
          "internalType": "bytes32",
          "name": "role",
          "type": "bytes32"
        },
        {
          "internalType": "address",
          "name": "account",
          "type": "address"
        }
      ],
      "name": "renounceRole",
      "outputs": [],
      "stateMutability": "nonpayable",
      "type": "function"
    },
    {
      "inputs": [
        {
          "internalType": "bytes32",
          "name": "role",
          "type": "bytes32"
        },
        {
          "internalType": "address",
          "name": "account",
          "type": "address"
        }
      ],
      "name": "revokeRole",
      "outputs": [],
      "stateMutability": "nonpayable",
      "type": "function"
    },
    {
      "inputs": [],
      "name": "seigManagerV2",
      "outputs": [
        {
          "internalType": "address",
          "name": "",
          "type": "address"
        }
      ],
      "stateMutability": "view",
      "type": "function"
    },
    {
      "inputs": [
        {
          "internalType": "bytes4",
          "name": "",
          "type": "bytes4"
        }
      ],
      "name": "selectorImplementation",
      "outputs": [
        {
          "internalType": "address",
          "name": "",
          "type": "address"
        }
      ],
      "stateMutability": "view",
      "type": "function"
    },
    {
      "inputs": [
        {
          "internalType": "address",
          "name": "newImplementation",
          "type": "address"
        },
        {
          "internalType": "bool",
          "name": "_alive",
          "type": "bool"
        }
      ],
      "name": "setAliveImplementation2",
      "outputs": [],
      "stateMutability": "nonpayable",
      "type": "function"
    },
    {
      "inputs": [
        {
          "internalType": "address",
          "name": "newImplementation",
          "type": "address"
        },
        {
          "internalType": "uint256",
          "name": "_index",
          "type": "uint256"
        },
        {
          "internalType": "bool",
          "name": "_alive",
          "type": "bool"
        }
      ],
      "name": "setImplementation2",
      "outputs": [],
      "stateMutability": "nonpayable",
      "type": "function"
    },
    {
      "inputs": [
        {
          "internalType": "bool",
          "name": "_pause",
          "type": "bool"
        }
      ],
      "name": "setProxyPause",
      "outputs": [],
      "stateMutability": "nonpayable",
      "type": "function"
    },
    {
      "inputs": [
        {
          "internalType": "bytes4[]",
          "name": "_selectors",
          "type": "bytes4[]"
        },
        {
          "internalType": "address",
          "name": "_imp",
          "type": "address"
        }
      ],
      "name": "setSelectorImplementations2",
      "outputs": [],
      "stateMutability": "nonpayable",
      "type": "function"
    },
    {
      "inputs": [
        {
          "internalType": "uint256",
          "name": "",
          "type": "uint256"
        }
      ],
      "name": "stakeAccountList",
      "outputs": [
        {
          "internalType": "address",
          "name": "",
          "type": "address"
        }
      ],
      "stateMutability": "view",
      "type": "function"
    },
    {
      "inputs": [
        {
          "internalType": "bytes4",
          "name": "interfaceId",
          "type": "bytes4"
        }
      ],
      "name": "supportsInterface",
      "outputs": [
        {
          "internalType": "bool",
          "name": "",
          "type": "bool"
        }
      ],
      "stateMutability": "view",
      "type": "function"
    },
    {
      "inputs": [],
      "name": "ton",
      "outputs": [
        {
          "internalType": "address",
          "name": "",
          "type": "address"
        }
      ],
      "stateMutability": "view",
      "type": "function"
    },
    {
      "inputs": [],
      "name": "totalStakedLton",
      "outputs": [
        {
          "internalType": "uint256",
          "name": "",
          "type": "uint256"
        }
      ],
      "stateMutability": "view",
      "type": "function"
    },
    {
      "inputs": [
        {
          "internalType": "address",
          "name": "newAdmin",
          "type": "address"
        }
      ],
      "name": "transferAdmin",
      "outputs": [],
      "stateMutability": "nonpayable",
      "type": "function"
    },
    {
      "inputs": [
        {
          "internalType": "address",
          "name": "impl",
          "type": "address"
        }
      ],
      "name": "upgradeTo",
      "outputs": [],
      "stateMutability": "nonpayable",
      "type": "function"
    },
    {
      "inputs": [
        {
          "internalType": "uint32",
          "name": "",
          "type": "uint32"
        },
        {
          "internalType": "address",
          "name": "",
          "type": "address"
        }
      ],
      "name": "withdrawalRequestIndex",
      "outputs": [
        {
          "internalType": "uint256",
          "name": "",
          "type": "uint256"
        }
      ],
      "stateMutability": "view",
      "type": "function"
    },
    {
      "inputs": [
        {
          "internalType": "uint32",
          "name": "",
          "type": "uint32"
        },
        {
          "internalType": "address",
          "name": "",
          "type": "address"
        },
        {
          "internalType": "uint256",
          "name": "",
          "type": "uint256"
        }
      ],
      "name": "withdrawalRequests",
      "outputs": [
        {
          "internalType": "uint32",
          "name": "withdrawableBlockNumber",
          "type": "uint32"
        },
        {
          "internalType": "uint128",
          "name": "amount",
          "type": "uint128"
        },
        {
          "internalType": "bool",
          "name": "processed",
          "type": "bool"
        }
      ],
      "stateMutability": "view",
      "type": "function"
    },
    {
      "stateMutability": "payable",
      "type": "receive"
    }
  ],
  "bytecode": "0x60806040526006805460ff191660011790553480156200001e57600080fd5b506200003a600080516020620022178339815191528062000068565b620000556000805160206200221783398151915233620000b3565b62000062600033620000b3565b62000163565b600082815260208190526040808220600101805490849055905190918391839186917fbd79b86ffe0ab8e8776151514217cd7cacd52c909f66475c3af44e129f0b00ff9190a4505050565b620000bf8282620000c3565b5050565b6000828152602081815260408083206001600160a01b038516845290915290205460ff16620000bf576000828152602081815260408083206001600160a01b03851684529091529020805460ff191660011790556200011f3390565b6001600160a01b0316816001600160a01b0316837f2f8788117e7eff1d82e926ec794901d17c78024a50270940304540a733656f0d60405160405180910390a45050565b6120a480620001736000396000f3fe6080604052600436106102a45760003560e01c8063704802751161016e57806391d14854116100cb578063b9cab9711161007f578063cc48b94711610064578063cc48b9471461096d578063d547741f14610992578063ec110d45146109b2576102f6565b8063b9cab97114610920578063c0c53b8b1461094d576102f6565b8063a0b2a913116100b0578063a0b2a913146108a8578063a217fddf146108d5578063b911135f146108ea576102f6565b806391d14854146107ce5780639c656e2614610812576102f6565b80637cb00d25116101225780637cf1587c116101075780637cf1587c146107565780638b8f4a651461078e5780638d4fdb40146107ae576102f6565b80637cb00d25146107165780637cd5f66314610736576102f6565b806373469a7a1161015357806373469a7a146106a257806375829def146106c257806375b238fc146106e2576102f6565b8063704802751461065557806370619cf914610675576102f6565b80634a5df50f1161021c5780635cc797d8116101d057806363a8fd89116101b557806363a8fd89146105b9578063659ab820146105d35780636d1ef10314610600576102f6565b80635cc797d8146105615780635e2cfe4514610581576102f6565b806350d2a2761161020157806350d2a276146104b5578063550d01a3146104eb5780635c60da1b1461051b576102f6565b80634a5df50f1461047f5780634e1a264d1461049f576102f6565b8063248a9ca3116102735780632f2ff15d116102585780632f2ff15d1461041f57806336568abe1461043f5780633659cfe61461045f576102f6565b8063248a9ca3146103cf57806324d7806c146103ff576102f6565b806301ffc9a71461030057806316b5d5bd146103355780631785f53c1461036d578063229852461461038d576102f6565b366102f65760405162461bcd60e51b815260206004820152601460248201527f63616e6e6f74207265636569766520457468657200000000000000000000000060448201526064015b60405180910390fd5b6102fe6109d2565b005b34801561030c57600080fd5b5061032061031b366004611c41565b610a7b565b60405190151581526020015b60405180910390f35b34801561034157600080fd5b50600854610355906001600160a01b031681565b6040516001600160a01b03909116815260200161032c565b34801561037957600080fd5b506102fe610388366004611c82565b610aad565b34801561039957600080fd5b506103c17ffb5864e8ff833c3cb2d2d08505e82ff02a43554c74a35d4f5a64e8526127831181565b60405190815260200161032c565b3480156103db57600080fd5b506103c16103ea366004611c9d565b60009081526020819052604090206001015490565b34801561040b57600080fd5b5061032061041a366004611c82565b610b28565b34801561042b57600080fd5b506102fe61043a366004611cb6565b610b68565b34801561044b57600080fd5b506102fe61045a366004611cb6565b610b8d565b34801561046b57600080fd5b506102fe61047a366004611c82565b610c19565b34801561048b57600080fd5b506102fe61049a366004611ce2565b610d72565b3480156104ab57600080fd5b506103c160095481565b3480156104c157600080fd5b506103556104d0366004611c41565b6004602052600090815260409020546001600160a01b031681565b3480156104f757600080fd5b50610320610506366004611c82565b60036020526000908152604090205460ff1681565b34801561052757600080fd5b506000805260026020527fac33ff75c19e70fe83507db0d683fd3465c996598dc972688b7ace676c89077b546001600160a01b0316610355565b34801561056d57600080fd5b506102fe61057c366004611d76565b611012565b34801561058d57600080fd5b506103c161059c366004611db4565b600e60209081526000928352604080842090915290825290205481565b3480156105c557600080fd5b506001546103209060ff1681565b3480156105df57600080fd5b506105f36105ee366004611dde565b61106a565b60405161032c9190611e49565b34801561060c57600080fd5b5061062061061b366004611e5c565b611104565b6040805163ffffffff90941684526fffffffffffffffffffffffffffffffff909216602084015215159082015260600161032c565b34801561066157600080fd5b506102fe610670366004611c82565b61117d565b34801561068157600080fd5b506103c1610690366004611dde565b600a6020526000908152604090205481565b3480156106ae57600080fd5b50600754610355906001600160a01b031681565b3480156106ce57600080fd5b506102fe6106dd366004611c82565b6111f5565b3480156106ee57600080fd5b506103c17fdf8b4c520ffe197c5343c6f5aec59570151ef9a492f2c624fd45ddde6135ec4281565b34801561072257600080fd5b506102fe610731366004611e98565b611345565b34801561074257600080fd5b506102fe610751366004611eb3565b6113a6565b34801561076257600080fd5b506103c1610771366004611db4565b600d60209081526000928352604080842090915290825290205481565b34801561079a57600080fd5b506103556107a9366004611c9d565b6113ff565b3480156107ba57600080fd5b506103556107c9366004611c41565b61141c565b3480156107da57600080fd5b506103206107e9366004611cb6565b6000918252602082815260408084206001600160a01b0393909316845291905290205460ff1690565b34801561081e57600080fd5b5061087561082d366004611db4565b600b602090815260009283526040808420909152908252902080546001820154600283015460038401546004909401549293919290919060ff811690610100900461ffff1686565b6040805196875260208701959095529385019290925260608401521515608083015261ffff1660a082015260c00161032c565b3480156108b457600080fd5b506103c16108c3366004611c82565b60106020526000908152604090205481565b3480156108e157600080fd5b506103c1600081565b3480156108f657600080fd5b50610355610905366004611c9d565b6002602052600090815260409020546001600160a01b031681565b34801561092c57600080fd5b506103c161093b366004611dde565b600f6020526000908152604090205481565b34801561095957600080fd5b506102fe610968366004611ee6565b611518565b34801561097957600080fd5b506006546103559061010090046001600160a01b031681565b34801561099e57600080fd5b506102fe6109ad366004611cb6565b6116f8565b3480156109be57600080fd5b506103556109cd366004611c9d565b61171d565b60006109e96000356001600160e01b03191661141c565b90506001600160a01b03811615801590610a06575060015460ff16155b610a525760405162461bcd60e51b815260206004820152601d60248201527f50726f78793a20696d706c204f522070726f78792069732066616c736500000060448201526064016102ed565b3660008037600080366000845af43d6000803e808015610a71573d6000f35b3d6000fd5b505050565b6001600160e01b0319811660009081526005602052604081205460ff1680610aa75750610aa782611747565b92915050565b610ab633610b28565b610afb5760405162461bcd60e51b8152602060048201526022602482015260008051602061207883398151915260448201526134b760f11b60648201526084016102ed565b610b257fdf8b4c520ffe197c5343c6f5aec59570151ef9a492f2c624fd45ddde6135ec4282610b8d565b50565b6001600160a01b03811660009081527f5cbfc8ee58ca47855df7bcf648dd304ddb6b932f9b87878bdf6318d7ec7ee5b7602052604081205460ff16610aa7565b600082815260208190526040902060010154610b838161177c565b610a768383611786565b6001600160a01b0381163314610c0b5760405162461bcd60e51b815260206004820152602f60248201527f416363657373436f6e74726f6c3a2063616e206f6e6c792072656e6f756e636560448201527f20726f6c657320666f722073656c66000000000000000000000000000000000060648201526084016102ed565b610c158282611824565b5050565b610c2233610b28565b610c675760405162461bcd60e51b8152602060048201526022602482015260008051602061207883398151915260448201526134b760f11b60648201526084016102ed565b6001600160a01b038116610cbd5760405162461bcd60e51b815260206004820152600d60248201527f696e707574206973207a65726f0000000000000000000000000000000000000060448201526064016102ed565b6000805260026020527fac33ff75c19e70fe83507db0d683fd3465c996598dc972688b7ace676c89077b546001600160a01b03828116911603610d2e5760405162461bcd60e51b815260206004820152600960248201526839b0b6b29030b2323960b91b60448201526064016102ed565b610d3b81600060016118a3565b6040516001600160a01b038216907fbc7cd75a20ee27fd9adebab32041f755214dbc6bffa90cc0225b39da2e5c2d3b90600090a250565b610d7b33610b28565b610dc05760405162461bcd60e51b8152602060048201526022602482015260008051602061207883398151915260448201526134b760f11b60648201526084016102ed565b81610e0d5760405162461bcd60e51b815260206004820181905260248201527f50726f78793a205f73656c6563746f727327732073697a65206973207a65726f60448201526064016102ed565b6001600160a01b03811660009081526003602052604090205460ff16610e755760405162461bcd60e51b815260206004820152601860248201527f50726f78793a205f696d70206973206e6f7420616c697665000000000000000060448201526064016102ed565b60005b8281101561100c57816001600160a01b031660046000868685818110610ea057610ea0611f20565b9050602002016020810190610eb59190611c41565b6001600160e01b03191681526020810191909152604001600020546001600160a01b031603610f265760405162461bcd60e51b815260206004820152601d60248201527f4c69717569646974795661756c7450726f78793a2073616d6520696d7000000060448201526064016102ed565b8160046000868685818110610f3d57610f3d611f20565b9050602002016020810190610f529190611c41565b6001600160e01b0319168152602081019190915260400160002080546001600160a01b0319166001600160a01b039283161790558216848483818110610f9a57610f9a611f20565b9050602002016020810190610faf9190611c41565b7bffffffffffffffffffffffffffffffffffffffffffffffffffffffff19167f14ebc1c32aa68f4d766e89f3e546cee249f7df25183fc10ab1568d91c2ce9b7b60405160405180910390a38061100481611f4c565b915050610e78565b50505050565b61101b33610b28565b6110605760405162461bcd60e51b8152602060048201526022602482015260008051602061207883398151915260448201526134b760f11b60648201526084016102ed565b610c15828261192e565b6011602052600090815260409020805461108390611f65565b80601f01602080910402602001604051908101604052809291908181526020018280546110af90611f65565b80156110fc5780601f106110d1576101008083540402835291602001916110fc565b820191906000526020600020905b8154815290600101906020018083116110df57829003601f168201915b505050505081565b600c602052826000526040600020602052816000526040600020818154811061112c57600080fd5b60009182526020909120015463ffffffff8116935064010000000081046fffffffffffffffffffffffffffffffff16925074010000000000000000000000000000000000000000900460ff16905083565b61118633610b28565b6111cb5760405162461bcd60e51b8152602060048201526022602482015260008051602061207883398151915260448201526134b760f11b60648201526084016102ed565b610b257fdf8b4c520ffe197c5343c6f5aec59570151ef9a492f2c624fd45ddde6135ec4282610b68565b6111fe33610b28565b6112435760405162461bcd60e51b8152602060048201526022602482015260008051602061207883398151915260448201526134b760f11b60648201526084016102ed565b6001600160a01b0381166112995760405162461bcd60e51b815260206004820152601860248201527f41636365737369626c653a207a65726f2061646472657373000000000000000060448201526064016102ed565b6001600160a01b03811633036112f15760405162461bcd60e51b815260206004820152601660248201527f41636365737369626c653a2073616d652061646d696e0000000000000000000060448201526064016102ed565b61131b7fdf8b4c520ffe197c5343c6f5aec59570151ef9a492f2c624fd45ddde6135ec4282610b68565b610b257fdf8b4c520ffe197c5343c6f5aec59570151ef9a492f2c624fd45ddde6135ec4233610b8d565b61134e33610b28565b6113935760405162461bcd60e51b8152602060048201526022602482015260008051602061207883398151915260448201526134b760f11b60648201526084016102ed565b6001805460ff1916911515919091179055565b6113af33610b28565b6113f45760405162461bcd60e51b8152602060048201526022602482015260008051602061207883398151915260448201526134b760f11b60648201526084016102ed565b610a768383836118a3565b6000818152600260205260408120546001600160a01b0316610aa7565b6001600160e01b031981166000908152600460205260408120546001600160a01b031661147c5750506000805260026020527fac33ff75c19e70fe83507db0d683fd3465c996598dc972688b7ace676c89077b546001600160a01b031690565b6001600160e01b031982166000908152600460209081526040808320546001600160a01b03168352600390915290205460ff16156114da57506001600160e01b0319166000908152600460205260409020546001600160a01b031690565b50506000805260026020527fac33ff75c19e70fe83507db0d683fd3465c996598dc972688b7ace676c89077b546001600160a01b031690565b919050565b61152133610b28565b6115665760405162461bcd60e51b8152602060048201526022602482015260008051602061207883398151915260448201526134b760f11b60648201526084016102ed565b826001600160a01b0381166115a25760405162461bcd60e51b81526020600482015260026024820152612d1960f11b60448201526064016102ed565b826001600160a01b0381166115de5760405162461bcd60e51b81526020600482015260026024820152612d1960f11b60448201526064016102ed565b826001600160a01b03811661161a5760405162461bcd60e51b81526020600482015260026024820152612d1960f11b60448201526064016102ed565b60065461010090046001600160a01b0316156116785760405162461bcd60e51b815260206004820152601260248201527f616c726561647920696e697469616c697a65000000000000000000000000000060448201526064016102ed565b600780546001600160a01b038088166001600160a01b031992831617909255600680548984166101000274ffffffffffffffffffffffffffffffffffffffff001990911617905560088054928716929091169190911790556116e0632139e50b60e11b61198d565b6116f06301ffc9a760e01b61198d565b505050505050565b6000828152602081905260409020600101546117138161177c565b610a768383611824565b6012818154811061172d57600080fd5b6000918252602090912001546001600160a01b0316905081565b60006001600160e01b03198216637965db0b60e01b1480610aa757506301ffc9a760e01b6001600160e01b0319831614610aa7565b610b258133611a0c565b6000828152602081815260408083206001600160a01b038516845290915290205460ff16610c15576000828152602081815260408083206001600160a01b03851684529091529020805460ff191660011790556117e03390565b6001600160a01b0316816001600160a01b0316837f2f8788117e7eff1d82e926ec794901d17c78024a50270940304540a733656f0d60405160405180910390a45050565b6000828152602081815260408083206001600160a01b038516845290915290205460ff1615610c15576000828152602081815260408083206001600160a01b0385168085529252808320805460ff1916905551339285917ff6391f5c32d9c69d2a47ea670b442974b53935d1edc7fd64eb21e047a839171b9190a45050565b6001600160a01b0383163b6118fa5760405162461bcd60e51b815260206004820152601b60248201527f50726f78793a206e6f7420636f6e74726163742061646472657373000000000060448201526064016102ed565b801561192857600082815260026020526040902080546001600160a01b0319166001600160a01b0385161790555b610a7683825b6001600160a01b038216600081815260036020908152604091829020805460ff191685151590811790915591519182527f72558d9bfba4210f9ef095c782589484151f6d90f7a81bb3cb9b33efc695d324910160405180910390a25050565b6001600160e01b031980821690036119e75760405162461bcd60e51b815260206004820152601c60248201527f4552433136353a20696e76616c696420696e746572666163652069640000000060448201526064016102ed565b6001600160e01b0319166000908152600560205260409020805460ff19166001179055565b6000828152602081815260408083206001600160a01b038516845290915290205460ff16610c1557611a3d81611a7f565b611a48836020611a91565b604051602001611a59929190611f9f565b60408051601f198184030181529082905262461bcd60e51b82526102ed91600401611e49565b6060610aa76001600160a01b03831660145b60606000611aa0836002612020565b611aab906002612037565b67ffffffffffffffff811115611ac357611ac361204a565b6040519080825280601f01601f191660200182016040528015611aed576020820181803683370190505b509050600360fc1b81600081518110611b0857611b08611f20565b60200101906001600160f81b031916908160001a905350600f60fb1b81600181518110611b3757611b37611f20565b60200101906001600160f81b031916908160001a9053506000611b5b846002612020565b611b66906001612037565b90505b6001811115611beb577f303132333435363738396162636465660000000000000000000000000000000085600f1660108110611ba757611ba7611f20565b1a60f81b828281518110611bbd57611bbd611f20565b60200101906001600160f81b031916908160001a90535060049490941c93611be481612060565b9050611b69565b508315611c3a5760405162461bcd60e51b815260206004820181905260248201527f537472696e67733a20686578206c656e67746820696e73756666696369656e7460448201526064016102ed565b9392505050565b600060208284031215611c5357600080fd5b81356001600160e01b031981168114611c3a57600080fd5b80356001600160a01b038116811461151357600080fd5b600060208284031215611c9457600080fd5b611c3a82611c6b565b600060208284031215611caf57600080fd5b5035919050565b60008060408385031215611cc957600080fd5b82359150611cd960208401611c6b565b90509250929050565b600080600060408486031215611cf757600080fd5b833567ffffffffffffffff80821115611d0f57600080fd5b818601915086601f830112611d2357600080fd5b813581811115611d3257600080fd5b8760208260051b8501011115611d4757600080fd5b602092830195509350611d5d9186019050611c6b565b90509250925092565b8035801515811461151357600080fd5b60008060408385031215611d8957600080fd5b611d9283611c6b565b9150611cd960208401611d66565b803563ffffffff8116811461151357600080fd5b60008060408385031215611dc757600080fd5b611dd083611da0565b9150611cd960208401611c6b565b600060208284031215611df057600080fd5b611c3a82611da0565b60005b83811015611e14578181015183820152602001611dfc565b50506000910152565b60008151808452611e35816020860160208601611df9565b601f01601f19169290920160200192915050565b602081526000611c3a6020830184611e1d565b600080600060608486031215611e7157600080fd5b611e7a84611da0565b9250611e8860208501611c6b565b9150604084013590509250925092565b600060208284031215611eaa57600080fd5b611c3a82611d66565b600080600060608486031215611ec857600080fd5b611ed184611c6b565b925060208401359150611d5d60408501611d66565b600080600060608486031215611efb57600080fd5b611f0484611c6b565b9250611f1260208501611c6b565b9150611d5d60408501611c6b565b634e487b7160e01b600052603260045260246000fd5b634e487b7160e01b600052601160045260246000fd5b600060018201611f5e57611f5e611f36565b5060010190565b600181811c90821680611f7957607f821691505b602082108103611f9957634e487b7160e01b600052602260045260246000fd5b50919050565b7f416363657373436f6e74726f6c3a206163636f756e7420000000000000000000815260008351611fd7816017850160208801611df9565b7f206973206d697373696e6720726f6c65200000000000000000000000000000006017918401918201528351612014816028840160208801611df9565b01602801949350505050565b8082028115828204841417610aa757610aa7611f36565b80820180821115610aa757610aa7611f36565b634e487b7160e01b600052604160045260246000fd5b60008161206f5761206f611f36565b50600019019056fe41636365737369626c653a2043616c6c6572206973206e6f7420616e2061646da164736f6c6343000812000adf8b4c520ffe197c5343c6f5aec59570151ef9a492f2c624fd45ddde6135ec42",
  "linkReferences": {},
  "deployedLinkReferences": {}
}