{
  "_format": "hh-sol-artifact-1",
  "contractName": "OptimismSequencerProxy",
  "sourceName": "contracts/proxy/OptimismSequencerProxy.sol",
  "abi": [
    {
      "anonymous": false,
      "inputs": [
        {
          "indexed": true,
          "internalType": "bytes32",
          "name": "role",
          "type": "bytes32"
        },
        {
          "indexed": true,
          "internalType": "bytes32",
          "name": "previousAdminRole",
          "type": "bytes32"
        },
        {
          "indexed": true,
          "internalType": "bytes32",
          "name": "newAdminRole",
          "type": "bytes32"
        }
      ],
      "name": "RoleAdminChanged",
      "type": "event"
    },
    {
      "anonymous": false,
      "inputs": [
        {
          "indexed": true,
          "internalType": "bytes32",
          "name": "role",
          "type": "bytes32"
        },
        {
          "indexed": true,
          "internalType": "address",
          "name": "account",
          "type": "address"
        },
        {
          "indexed": true,
          "internalType": "address",
          "name": "sender",
          "type": "address"
        }
      ],
      "name": "RoleGranted",
      "type": "event"
    },
    {
      "anonymous": false,
      "inputs": [
        {
          "indexed": true,
          "internalType": "bytes32",
          "name": "role",
          "type": "bytes32"
        },
        {
          "indexed": true,
          "internalType": "address",
          "name": "account",
          "type": "address"
        },
        {
          "indexed": true,
          "internalType": "address",
          "name": "sender",
          "type": "address"
        }
      ],
      "name": "RoleRevoked",
      "type": "event"
    },
    {
      "anonymous": false,
      "inputs": [
        {
          "indexed": true,
          "internalType": "address",
          "name": "impl",
          "type": "address"
        },
        {
          "indexed": false,
          "internalType": "bool",
          "name": "alive",
          "type": "bool"
        }
      ],
      "name": "SetAliveImplementation",
      "type": "event"
    },
    {
      "anonymous": false,
      "inputs": [
        {
          "indexed": true,
          "internalType": "bytes4",
          "name": "selector",
          "type": "bytes4"
        },
        {
          "indexed": true,
          "internalType": "address",
          "name": "impl",
          "type": "address"
        }
      ],
      "name": "SetSelectorImplementation",
      "type": "event"
    },
    {
      "anonymous": false,
      "inputs": [
        {
          "indexed": true,
          "internalType": "address",
          "name": "implementation",
          "type": "address"
        }
      ],
      "name": "Upgraded",
      "type": "event"
    },
    {
      "stateMutability": "payable",
      "type": "fallback"
    },
    {
      "inputs": [],
      "name": "ADMIN_ROLE",
      "outputs": [
        {
          "internalType": "bytes32",
          "name": "",
          "type": "bytes32"
        }
      ],
      "stateMutability": "view",
      "type": "function"
    },
    {
      "inputs": [],
      "name": "DEFAULT_ADMIN_ROLE",
      "outputs": [
        {
          "internalType": "bytes32",
          "name": "",
          "type": "bytes32"
        }
      ],
      "stateMutability": "view",
      "type": "function"
    },
    {
      "inputs": [],
      "name": "POLICY_ROLE",
      "outputs": [
        {
          "internalType": "bytes32",
          "name": "",
          "type": "bytes32"
        }
      ],
      "stateMutability": "view",
      "type": "function"
    },
    {
      "inputs": [
        {
          "internalType": "address",
          "name": "account",
          "type": "address"
        }
      ],
      "name": "addAdmin",
      "outputs": [],
      "stateMutability": "nonpayable",
      "type": "function"
    },
    {
      "inputs": [
        {
          "internalType": "address",
          "name": "",
          "type": "address"
        }
      ],
      "name": "aliveImplementation",
      "outputs": [
        {
          "internalType": "bool",
          "name": "",
          "type": "bool"
        }
      ],
      "stateMutability": "view",
      "type": "function"
    },
    {
      "inputs": [],
      "name": "fwReceipt",
      "outputs": [
        {
          "internalType": "address",
          "name": "",
          "type": "address"
        }
      ],
      "stateMutability": "view",
      "type": "function"
    },
    {
      "inputs": [
        {
          "internalType": "bytes32",
          "name": "role",
          "type": "bytes32"
        }
      ],
      "name": "getRoleAdmin",
      "outputs": [
        {
          "internalType": "bytes32",
          "name": "",
          "type": "bytes32"
        }
      ],
      "stateMutability": "view",
      "type": "function"
    },
    {
      "inputs": [
        {
          "internalType": "bytes4",
          "name": "_selector",
          "type": "bytes4"
        }
      ],
      "name": "getSelectorImplementation2",
      "outputs": [
        {
          "internalType": "address",
          "name": "impl",
          "type": "address"
        }
      ],
      "stateMutability": "view",
      "type": "function"
    },
    {
      "inputs": [
        {
          "internalType": "bytes32",
          "name": "role",
          "type": "bytes32"
        },
        {
          "internalType": "address",
          "name": "account",
          "type": "address"
        }
      ],
      "name": "grantRole",
      "outputs": [],
      "stateMutability": "nonpayable",
      "type": "function"
    },
    {
      "inputs": [
        {
          "internalType": "bytes32",
          "name": "role",
          "type": "bytes32"
        },
        {
          "internalType": "address",
          "name": "account",
          "type": "address"
        }
      ],
      "name": "hasRole",
      "outputs": [
        {
          "internalType": "bool",
          "name": "",
          "type": "bool"
        }
      ],
      "stateMutability": "view",
      "type": "function"
    },
    {
      "inputs": [],
      "name": "implementation",
      "outputs": [
        {
          "internalType": "address",
          "name": "",
          "type": "address"
        }
      ],
      "stateMutability": "view",
      "type": "function"
    },
    {
      "inputs": [
        {
          "internalType": "uint256",
          "name": "_index",
          "type": "uint256"
        }
      ],
      "name": "implementation2",
      "outputs": [
        {
          "internalType": "address",
          "name": "",
          "type": "address"
        }
      ],
      "stateMutability": "view",
      "type": "function"
    },
    {
      "inputs": [
        {
          "internalType": "address",
          "name": "_ton",
          "type": "address"
        },
        {
          "internalType": "address",
          "name": "_seigManagerV2",
          "type": "address"
        },
        {
          "internalType": "address",
          "name": "_layer2Manager",
          "type": "address"
        },
        {
          "internalType": "address",
          "name": "_fwReceipt",
          "type": "address"
        }
      ],
      "name": "initialize",
      "outputs": [],
      "stateMutability": "nonpayable",
      "type": "function"
    },
    {
      "inputs": [
        {
          "internalType": "address",
          "name": "account",
          "type": "address"
        }
      ],
      "name": "isAdmin",
      "outputs": [
        {
          "internalType": "bool",
          "name": "",
          "type": "bool"
        }
      ],
      "stateMutability": "view",
      "type": "function"
    },
    {
      "inputs": [],
      "name": "layer2Manager",
      "outputs": [
        {
          "internalType": "address",
          "name": "",
          "type": "address"
        }
      ],
      "stateMutability": "view",
      "type": "function"
    },
    {
      "inputs": [
        {
          "internalType": "uint32",
          "name": "",
          "type": "uint32"
        }
      ],
      "name": "layerInfo",
      "outputs": [
        {
          "internalType": "bytes",
          "name": "",
          "type": "bytes"
        }
      ],
      "stateMutability": "view",
      "type": "function"
    },
    {
      "inputs": [
        {
          "internalType": "uint32",
          "name": "",
          "type": "uint32"
        }
      ],
      "name": "layerStakedLton",
      "outputs": [
        {
          "internalType": "uint256",
          "name": "",
          "type": "uint256"
        }
      ],
      "stateMutability": "view",
      "type": "function"
    },
    {
      "inputs": [
        {
          "internalType": "uint32",
          "name": "",
          "type": "uint32"
        },
        {
          "internalType": "address",
          "name": "",
          "type": "address"
        }
      ],
      "name": "layerStakes",
      "outputs": [
        {
          "internalType": "uint256",
          "name": "stakePrincipal",
          "type": "uint256"
        },
        {
          "internalType": "uint256",
          "name": "bondPrincipal",
          "type": "uint256"
        },
        {
          "internalType": "uint256",
          "name": "stakelton",
          "type": "uint256"
        },
        {
          "internalType": "bool",
          "name": "stake",
          "type": "bool"
        }
      ],
      "stateMutability": "view",
      "type": "function"
    },
    {
      "inputs": [],
      "name": "pauseProxy",
      "outputs": [
        {
          "internalType": "bool",
          "name": "",
          "type": "bool"
        }
      ],
      "stateMutability": "view",
      "type": "function"
    },
    {
      "inputs": [
        {
          "internalType": "uint32",
          "name": "",
          "type": "uint32"
        },
        {
          "internalType": "address",
          "name": "",
          "type": "address"
        }
      ],
      "name": "pendingUnstaked",
      "outputs": [
        {
          "internalType": "uint256",
          "name": "",
          "type": "uint256"
        }
      ],
      "stateMutability": "view",
      "type": "function"
    },
    {
      "inputs": [
        {
          "internalType": "address",
          "name": "",
          "type": "address"
        }
      ],
      "name": "pendingUnstakedAccount",
      "outputs": [
        {
          "internalType": "uint256",
          "name": "",
          "type": "uint256"
        }
      ],
      "stateMutability": "view",
      "type": "function"
    },
    {
      "inputs": [
        {
          "internalType": "uint32",
          "name": "",
          "type": "uint32"
        }
      ],
      "name": "pendingUnstakedLayer2",
      "outputs": [
        {
          "internalType": "uint256",
          "name": "",
          "type": "uint256"
        }
      ],
      "stateMutability": "view",
      "type": "function"
    },
    {
      "inputs": [
        {
          "internalType": "uint256",
          "name": "",
          "type": "uint256"
        }
      ],
      "name": "proxyImplementation",
      "outputs": [
        {
          "internalType": "address",
          "name": "",
          "type": "address"
        }
      ],
      "stateMutability": "view",
      "type": "function"
    },
    {
      "inputs": [
        {
          "internalType": "address",
          "name": "account",
          "type": "address"
        }
      ],
      "name": "removeAdmin",
      "outputs": [],
      "stateMutability": "nonpayable",
      "type": "function"
    },
    {
      "inputs": [
        {
          "internalType": "bytes32",
          "name": "role",
          "type": "bytes32"
        },
        {
          "internalType": "address",
          "name": "account",
          "type": "address"
        }
      ],
      "name": "renounceRole",
      "outputs": [],
      "stateMutability": "nonpayable",
      "type": "function"
    },
    {
      "inputs": [
        {
          "internalType": "bytes32",
          "name": "role",
          "type": "bytes32"
        },
        {
          "internalType": "address",
          "name": "account",
          "type": "address"
        }
      ],
      "name": "revokeRole",
      "outputs": [],
      "stateMutability": "nonpayable",
      "type": "function"
    },
    {
      "inputs": [],
      "name": "seigManagerV2",
      "outputs": [
        {
          "internalType": "address",
          "name": "",
          "type": "address"
        }
      ],
      "stateMutability": "view",
      "type": "function"
    },
    {
      "inputs": [
        {
          "internalType": "bytes4",
          "name": "",
          "type": "bytes4"
        }
      ],
      "name": "selectorImplementation",
      "outputs": [
        {
          "internalType": "address",
          "name": "",
          "type": "address"
        }
      ],
      "stateMutability": "view",
      "type": "function"
    },
    {
      "inputs": [
        {
          "internalType": "address",
          "name": "newImplementation",
          "type": "address"
        },
        {
          "internalType": "bool",
          "name": "_alive",
          "type": "bool"
        }
      ],
      "name": "setAliveImplementation2",
      "outputs": [],
      "stateMutability": "nonpayable",
      "type": "function"
    },
    {
      "inputs": [
        {
          "internalType": "address",
          "name": "newImplementation",
          "type": "address"
        },
        {
          "internalType": "uint256",
          "name": "_index",
          "type": "uint256"
        },
        {
          "internalType": "bool",
          "name": "_alive",
          "type": "bool"
        }
      ],
      "name": "setImplementation2",
      "outputs": [],
      "stateMutability": "nonpayable",
      "type": "function"
    },
    {
      "inputs": [
        {
          "internalType": "bool",
          "name": "_pause",
          "type": "bool"
        }
      ],
      "name": "setProxyPause",
      "outputs": [],
      "stateMutability": "nonpayable",
      "type": "function"
    },
    {
      "inputs": [
        {
          "internalType": "bytes4[]",
          "name": "_selectors",
          "type": "bytes4[]"
        },
        {
          "internalType": "address",
          "name": "_imp",
          "type": "address"
        }
      ],
      "name": "setSelectorImplementations2",
      "outputs": [],
      "stateMutability": "nonpayable",
      "type": "function"
    },
    {
      "inputs": [
        {
          "internalType": "uint256",
          "name": "",
          "type": "uint256"
        }
      ],
      "name": "stakeAccountList",
      "outputs": [
        {
          "internalType": "address",
          "name": "",
          "type": "address"
        }
      ],
      "stateMutability": "view",
      "type": "function"
    },
    {
      "inputs": [
        {
          "internalType": "bytes4",
          "name": "interfaceId",
          "type": "bytes4"
        }
      ],
      "name": "supportsInterface",
      "outputs": [
        {
          "internalType": "bool",
          "name": "",
          "type": "bool"
        }
      ],
      "stateMutability": "view",
      "type": "function"
    },
    {
      "inputs": [],
      "name": "ton",
      "outputs": [
        {
          "internalType": "address",
          "name": "",
          "type": "address"
        }
      ],
      "stateMutability": "view",
      "type": "function"
    },
    {
      "inputs": [],
      "name": "totalStakedLton",
      "outputs": [
        {
          "internalType": "uint256",
          "name": "",
          "type": "uint256"
        }
      ],
      "stateMutability": "view",
      "type": "function"
    },
    {
      "inputs": [
        {
          "internalType": "address",
          "name": "newAdmin",
          "type": "address"
        }
      ],
      "name": "transferAdmin",
      "outputs": [],
      "stateMutability": "nonpayable",
      "type": "function"
    },
    {
      "inputs": [
        {
          "internalType": "address",
          "name": "impl",
          "type": "address"
        }
      ],
      "name": "upgradeTo",
      "outputs": [],
      "stateMutability": "nonpayable",
      "type": "function"
    },
    {
      "inputs": [
        {
          "internalType": "uint32",
          "name": "",
          "type": "uint32"
        },
        {
          "internalType": "address",
          "name": "",
          "type": "address"
        }
      ],
      "name": "withdrawalRequestIndex",
      "outputs": [
        {
          "internalType": "uint256",
          "name": "",
          "type": "uint256"
        }
      ],
      "stateMutability": "view",
      "type": "function"
    },
    {
      "inputs": [
        {
          "internalType": "uint32",
          "name": "",
          "type": "uint32"
        },
        {
          "internalType": "address",
          "name": "",
          "type": "address"
        },
        {
          "internalType": "uint256",
          "name": "",
          "type": "uint256"
        }
      ],
      "name": "withdrawalRequests",
      "outputs": [
        {
          "internalType": "uint32",
          "name": "withdrawableBlockNumber",
          "type": "uint32"
        },
        {
          "internalType": "uint128",
          "name": "amount",
          "type": "uint128"
        },
        {
          "internalType": "bool",
          "name": "processed",
          "type": "bool"
        }
      ],
      "stateMutability": "view",
      "type": "function"
    },
    {
      "stateMutability": "payable",
      "type": "receive"
    }
  ],
  "bytecode": "0x60806040526006805460ff191660011790553480156200001e57600080fd5b506200003a600080516020620022928339815191528062000068565b620000556000805160206200229283398151915233620000b3565b62000062600033620000b3565b62000163565b600082815260208190526040808220600101805490849055905190918391839186917fbd79b86ffe0ab8e8776151514217cd7cacd52c909f66475c3af44e129f0b00ff9190a4505050565b620000bf8282620000c3565b5050565b6000828152602081815260408083206001600160a01b038516845290915290205460ff16620000bf576000828152602081815260408083206001600160a01b03851684529091529020805460ff191660011790556200011f3390565b6001600160a01b0316816001600160a01b0316837f2f8788117e7eff1d82e926ec794901d17c78024a50270940304540a733656f0d60405160405180910390a45050565b61211f80620001736000396000f3fe6080604052600436106102bf5760003560e01c806370619cf91161016e5780639c656e26116100cb578063cc48b9471161007f578063d547741f11610064578063d547741f14610989578063ec110d45146109a9578063f8c8765e146109c957610311565b8063cc48b94714610944578063d07918f11461096957610311565b8063a217fddf116100b0578063a217fddf146108cc578063b911135f146108e1578063b9cab9711461091757610311565b80639c656e261461082d578063a0b2a9131461089f57610311565b80637cd5f663116101225780638b8f4a65116101075780638b8f4a65146107a95780638d4fdb40146107c957806391d14854146107e957610311565b80637cd5f663146107515780637cf1587c1461077157610311565b806375829def1161015357806375829def146106dd57806375b238fc146106fd5780637cb00d251461073157610311565b806370619cf91461069057806373469a7a146106bd57610311565b80634e1a264d1161021c5780635e2cfe45116101d0578063659ab820116101b5578063659ab820146105ee5780636d1ef1031461061b578063704802751461067057610311565b80635e2cfe451461059c57806363a8fd89146105d457610311565b8063550d01a311610201578063550d01a3146105065780635c60da1b146105365780635cc797d81461057c57610311565b80634e1a264d146104ba57806350d2a276146104d057610311565b806324d7806c1161027357806336568abe1161025857806336568abe1461045a5780633659cfe61461047a5780634a5df50f1461049a57610311565b806324d7806c1461041a5780632f2ff15d1461043a57610311565b80631785f53c116102a45780631785f53c1461038857806322985246146103a8578063248a9ca3146103ea57610311565b806301ffc9a71461031b57806316b5d5bd1461035057610311565b366103115760405162461bcd60e51b815260206004820152601460248201527f63616e6e6f74207265636569766520457468657200000000000000000000000060448201526064015b60405180910390fd5b6103196109e9565b005b34801561032757600080fd5b5061033b610336366004611ca2565b610a92565b60405190151581526020015b60405180910390f35b34801561035c57600080fd5b50600854610370906001600160a01b031681565b6040516001600160a01b039091168152602001610347565b34801561039457600080fd5b506103196103a3366004611ce3565b610ac4565b3480156103b457600080fd5b506103dc7ffb5864e8ff833c3cb2d2d08505e82ff02a43554c74a35d4f5a64e8526127831181565b604051908152602001610347565b3480156103f657600080fd5b506103dc610405366004611cfe565b60009081526020819052604090206001015490565b34801561042657600080fd5b5061033b610435366004611ce3565b610b3f565b34801561044657600080fd5b50610319610455366004611d17565b610b7f565b34801561046657600080fd5b50610319610475366004611d17565b610ba4565b34801561048657600080fd5b50610319610495366004611ce3565b610c30565b3480156104a657600080fd5b506103196104b5366004611d43565b610d89565b3480156104c657600080fd5b506103dc600a5481565b3480156104dc57600080fd5b506103706104eb366004611ca2565b6004602052600090815260409020546001600160a01b031681565b34801561051257600080fd5b5061033b610521366004611ce3565b60036020526000908152604090205460ff1681565b34801561054257600080fd5b506000805260026020527fac33ff75c19e70fe83507db0d683fd3465c996598dc972688b7ace676c89077b546001600160a01b0316610370565b34801561058857600080fd5b50610319610597366004611dd7565b611029565b3480156105a857600080fd5b506103dc6105b7366004611e15565b600f60209081526000928352604080842090915290825290205481565b3480156105e057600080fd5b5060015461033b9060ff1681565b3480156105fa57600080fd5b5061060e610609366004611e3f565b611081565b6040516103479190611eaa565b34801561062757600080fd5b5061063b610636366004611ebd565b61111b565b6040805163ffffffff90941684526fffffffffffffffffffffffffffffffff9092166020840152151590820152606001610347565b34801561067c57600080fd5b5061031961068b366004611ce3565b611194565b34801561069c57600080fd5b506103dc6106ab366004611e3f565b600b6020526000908152604090205481565b3480156106c957600080fd5b50600754610370906001600160a01b031681565b3480156106e957600080fd5b506103196106f8366004611ce3565b61120c565b34801561070957600080fd5b506103dc7fdf8b4c520ffe197c5343c6f5aec59570151ef9a492f2c624fd45ddde6135ec4281565b34801561073d57600080fd5b5061031961074c366004611ef9565b61135c565b34801561075d57600080fd5b5061031961076c366004611f14565b6113bd565b34801561077d57600080fd5b506103dc61078c366004611e15565b600e60209081526000928352604080842090915290825290205481565b3480156107b557600080fd5b506103706107c4366004611cfe565b611416565b3480156107d557600080fd5b506103706107e4366004611ca2565b611433565b3480156107f557600080fd5b5061033b610804366004611d17565b6000918252602082815260408084206001600160a01b0393909316845291905290205460ff1690565b34801561083957600080fd5b5061087d610848366004611e15565b600c60209081526000928352604080842090915290825290208054600182015460028301546003909301549192909160ff1684565b6040805194855260208501939093529183015215156060820152608001610347565b3480156108ab57600080fd5b506103dc6108ba366004611ce3565b60116020526000908152604090205481565b3480156108d857600080fd5b506103dc600081565b3480156108ed57600080fd5b506103706108fc366004611cfe565b6002602052600090815260409020546001600160a01b031681565b34801561092357600080fd5b506103dc610932366004611e3f565b60106020526000908152604090205481565b34801561095057600080fd5b506006546103709061010090046001600160a01b031681565b34801561097557600080fd5b50600954610370906001600160a01b031681565b34801561099557600080fd5b506103196109a4366004611d17565b61152f565b3480156109b557600080fd5b506103706109c4366004611cfe565b611554565b3480156109d557600080fd5b506103196109e4366004611f47565b61157e565b6000610a006000356001600160e01b031916611433565b90506001600160a01b03811615801590610a1d575060015460ff16155b610a695760405162461bcd60e51b815260206004820152601d60248201527f50726f78793a20696d706c204f522070726f78792069732066616c73650000006044820152606401610308565b3660008037600080366000845af43d6000803e808015610a88573d6000f35b3d6000fd5b505050565b6001600160e01b0319811660009081526005602052604081205460ff1680610abe5750610abe826117a8565b92915050565b610acd33610b3f565b610b125760405162461bcd60e51b815260206004820152602260248201526000805160206120f383398151915260448201526134b760f11b6064820152608401610308565b610b3c7fdf8b4c520ffe197c5343c6f5aec59570151ef9a492f2c624fd45ddde6135ec4282610ba4565b50565b6001600160a01b03811660009081527f5cbfc8ee58ca47855df7bcf648dd304ddb6b932f9b87878bdf6318d7ec7ee5b7602052604081205460ff16610abe565b600082815260208190526040902060010154610b9a816117dd565b610a8d83836117e7565b6001600160a01b0381163314610c225760405162461bcd60e51b815260206004820152602f60248201527f416363657373436f6e74726f6c3a2063616e206f6e6c792072656e6f756e636560448201527f20726f6c657320666f722073656c6600000000000000000000000000000000006064820152608401610308565b610c2c8282611885565b5050565b610c3933610b3f565b610c7e5760405162461bcd60e51b815260206004820152602260248201526000805160206120f383398151915260448201526134b760f11b6064820152608401610308565b6001600160a01b038116610cd45760405162461bcd60e51b815260206004820152600d60248201527f696e707574206973207a65726f000000000000000000000000000000000000006044820152606401610308565b6000805260026020527fac33ff75c19e70fe83507db0d683fd3465c996598dc972688b7ace676c89077b546001600160a01b03828116911603610d455760405162461bcd60e51b815260206004820152600960248201526839b0b6b29030b2323960b91b6044820152606401610308565b610d528160006001611904565b6040516001600160a01b038216907fbc7cd75a20ee27fd9adebab32041f755214dbc6bffa90cc0225b39da2e5c2d3b90600090a250565b610d9233610b3f565b610dd75760405162461bcd60e51b815260206004820152602260248201526000805160206120f383398151915260448201526134b760f11b6064820152608401610308565b81610e245760405162461bcd60e51b815260206004820181905260248201527f50726f78793a205f73656c6563746f727327732073697a65206973207a65726f6044820152606401610308565b6001600160a01b03811660009081526003602052604090205460ff16610e8c5760405162461bcd60e51b815260206004820152601860248201527f50726f78793a205f696d70206973206e6f7420616c69766500000000000000006044820152606401610308565b60005b8281101561102357816001600160a01b031660046000868685818110610eb757610eb7611f9b565b9050602002016020810190610ecc9190611ca2565b6001600160e01b03191681526020810191909152604001600020546001600160a01b031603610f3d5760405162461bcd60e51b815260206004820152601d60248201527f4c69717569646974795661756c7450726f78793a2073616d6520696d700000006044820152606401610308565b8160046000868685818110610f5457610f54611f9b565b9050602002016020810190610f699190611ca2565b6001600160e01b0319168152602081019190915260400160002080546001600160a01b0319166001600160a01b039283161790558216848483818110610fb157610fb1611f9b565b9050602002016020810190610fc69190611ca2565b7bffffffffffffffffffffffffffffffffffffffffffffffffffffffff19167f14ebc1c32aa68f4d766e89f3e546cee249f7df25183fc10ab1568d91c2ce9b7b60405160405180910390a38061101b81611fc7565b915050610e8f565b50505050565b61103233610b3f565b6110775760405162461bcd60e51b815260206004820152602260248201526000805160206120f383398151915260448201526134b760f11b6064820152608401610308565b610c2c828261198f565b6012602052600090815260409020805461109a90611fe0565b80601f01602080910402602001604051908101604052809291908181526020018280546110c690611fe0565b80156111135780601f106110e857610100808354040283529160200191611113565b820191906000526020600020905b8154815290600101906020018083116110f657829003601f168201915b505050505081565b600d602052826000526040600020602052816000526040600020818154811061114357600080fd5b60009182526020909120015463ffffffff8116935064010000000081046fffffffffffffffffffffffffffffffff16925074010000000000000000000000000000000000000000900460ff16905083565b61119d33610b3f565b6111e25760405162461bcd60e51b815260206004820152602260248201526000805160206120f383398151915260448201526134b760f11b6064820152608401610308565b610b3c7fdf8b4c520ffe197c5343c6f5aec59570151ef9a492f2c624fd45ddde6135ec4282610b7f565b61121533610b3f565b61125a5760405162461bcd60e51b815260206004820152602260248201526000805160206120f383398151915260448201526134b760f11b6064820152608401610308565b6001600160a01b0381166112b05760405162461bcd60e51b815260206004820152601860248201527f41636365737369626c653a207a65726f206164647265737300000000000000006044820152606401610308565b6001600160a01b03811633036113085760405162461bcd60e51b815260206004820152601660248201527f41636365737369626c653a2073616d652061646d696e000000000000000000006044820152606401610308565b6113327fdf8b4c520ffe197c5343c6f5aec59570151ef9a492f2c624fd45ddde6135ec4282610b7f565b610b3c7fdf8b4c520ffe197c5343c6f5aec59570151ef9a492f2c624fd45ddde6135ec4233610ba4565b61136533610b3f565b6113aa5760405162461bcd60e51b815260206004820152602260248201526000805160206120f383398151915260448201526134b760f11b6064820152608401610308565b6001805460ff1916911515919091179055565b6113c633610b3f565b61140b5760405162461bcd60e51b815260206004820152602260248201526000805160206120f383398151915260448201526134b760f11b6064820152608401610308565b610a8d838383611904565b6000818152600260205260408120546001600160a01b0316610abe565b6001600160e01b031981166000908152600460205260408120546001600160a01b03166114935750506000805260026020527fac33ff75c19e70fe83507db0d683fd3465c996598dc972688b7ace676c89077b546001600160a01b031690565b6001600160e01b031982166000908152600460209081526040808320546001600160a01b03168352600390915290205460ff16156114f157506001600160e01b0319166000908152600460205260409020546001600160a01b031690565b50506000805260026020527fac33ff75c19e70fe83507db0d683fd3465c996598dc972688b7ace676c89077b546001600160a01b031690565b919050565b60008281526020819052604090206001015461154a816117dd565b610a8d8383611885565b6013818154811061156457600080fd5b6000918252602090912001546001600160a01b0316905081565b61158733610b3f565b6115cc5760405162461bcd60e51b815260206004820152602260248201526000805160206120f383398151915260448201526134b760f11b6064820152608401610308565b836001600160a01b0381166116085760405162461bcd60e51b81526020600482015260026024820152612d1960f11b6044820152606401610308565b836001600160a01b0381166116445760405162461bcd60e51b81526020600482015260026024820152612d1960f11b6044820152606401610308565b836001600160a01b0381166116805760405162461bcd60e51b81526020600482015260026024820152612d1960f11b6044820152606401610308565b836001600160a01b0381166116bc5760405162461bcd60e51b81526020600482015260026024820152612d1960f11b6044820152606401610308565b60065461010090046001600160a01b03161561171a5760405162461bcd60e51b815260206004820152601260248201527f616c726561647920696e697469616c697a6500000000000000000000000000006044820152606401610308565b600780546001600160a01b03199081166001600160a01b038a8116919091179092556006805474ffffffffffffffffffffffffffffffffffffffff0019166101008c8516021790556008805482168984161790556009805490911691871691909117905561178e632139e50b60e11b6119ee565b61179e6301ffc9a760e01b6119ee565b5050505050505050565b60006001600160e01b03198216637965db0b60e01b1480610abe57506301ffc9a760e01b6001600160e01b0319831614610abe565b610b3c8133611a6d565b6000828152602081815260408083206001600160a01b038516845290915290205460ff16610c2c576000828152602081815260408083206001600160a01b03851684529091529020805460ff191660011790556118413390565b6001600160a01b0316816001600160a01b0316837f2f8788117e7eff1d82e926ec794901d17c78024a50270940304540a733656f0d60405160405180910390a45050565b6000828152602081815260408083206001600160a01b038516845290915290205460ff1615610c2c576000828152602081815260408083206001600160a01b0385168085529252808320805460ff1916905551339285917ff6391f5c32d9c69d2a47ea670b442974b53935d1edc7fd64eb21e047a839171b9190a45050565b6001600160a01b0383163b61195b5760405162461bcd60e51b815260206004820152601b60248201527f50726f78793a206e6f7420636f6e7472616374206164647265737300000000006044820152606401610308565b801561198957600082815260026020526040902080546001600160a01b0319166001600160a01b0385161790555b610a8d83825b6001600160a01b038216600081815260036020908152604091829020805460ff191685151590811790915591519182527f72558d9bfba4210f9ef095c782589484151f6d90f7a81bb3cb9b33efc695d324910160405180910390a25050565b6001600160e01b03198082169003611a485760405162461bcd60e51b815260206004820152601c60248201527f4552433136353a20696e76616c696420696e74657266616365206964000000006044820152606401610308565b6001600160e01b0319166000908152600560205260409020805460ff19166001179055565b6000828152602081815260408083206001600160a01b038516845290915290205460ff16610c2c57611a9e81611ae0565b611aa9836020611af2565b604051602001611aba92919061201a565b60408051601f198184030181529082905262461bcd60e51b825261030891600401611eaa565b6060610abe6001600160a01b03831660145b60606000611b0183600261209b565b611b0c9060026120b2565b67ffffffffffffffff811115611b2457611b246120c5565b6040519080825280601f01601f191660200182016040528015611b4e576020820181803683370190505b509050600360fc1b81600081518110611b6957611b69611f9b565b60200101906001600160f81b031916908160001a905350600f60fb1b81600181518110611b9857611b98611f9b565b60200101906001600160f81b031916908160001a9053506000611bbc84600261209b565b611bc79060016120b2565b90505b6001811115611c4c577f303132333435363738396162636465660000000000000000000000000000000085600f1660108110611c0857611c08611f9b565b1a60f81b828281518110611c1e57611c1e611f9b565b60200101906001600160f81b031916908160001a90535060049490941c93611c45816120db565b9050611bca565b508315611c9b5760405162461bcd60e51b815260206004820181905260248201527f537472696e67733a20686578206c656e67746820696e73756666696369656e746044820152606401610308565b9392505050565b600060208284031215611cb457600080fd5b81356001600160e01b031981168114611c9b57600080fd5b80356001600160a01b038116811461152a57600080fd5b600060208284031215611cf557600080fd5b611c9b82611ccc565b600060208284031215611d1057600080fd5b5035919050565b60008060408385031215611d2a57600080fd5b82359150611d3a60208401611ccc565b90509250929050565b600080600060408486031215611d5857600080fd5b833567ffffffffffffffff80821115611d7057600080fd5b818601915086601f830112611d8457600080fd5b813581811115611d9357600080fd5b8760208260051b8501011115611da857600080fd5b602092830195509350611dbe9186019050611ccc565b90509250925092565b8035801515811461152a57600080fd5b60008060408385031215611dea57600080fd5b611df383611ccc565b9150611d3a60208401611dc7565b803563ffffffff8116811461152a57600080fd5b60008060408385031215611e2857600080fd5b611e3183611e01565b9150611d3a60208401611ccc565b600060208284031215611e5157600080fd5b611c9b82611e01565b60005b83811015611e75578181015183820152602001611e5d565b50506000910152565b60008151808452611e96816020860160208601611e5a565b601f01601f19169290920160200192915050565b602081526000611c9b6020830184611e7e565b600080600060608486031215611ed257600080fd5b611edb84611e01565b9250611ee960208501611ccc565b9150604084013590509250925092565b600060208284031215611f0b57600080fd5b611c9b82611dc7565b600080600060608486031215611f2957600080fd5b611f3284611ccc565b925060208401359150611dbe60408501611dc7565b60008060008060808587031215611f5d57600080fd5b611f6685611ccc565b9350611f7460208601611ccc565b9250611f8260408601611ccc565b9150611f9060608601611ccc565b905092959194509250565b634e487b7160e01b600052603260045260246000fd5b634e487b7160e01b600052601160045260246000fd5b600060018201611fd957611fd9611fb1565b5060010190565b600181811c90821680611ff457607f821691505b60208210810361201457634e487b7160e01b600052602260045260246000fd5b50919050565b7f416363657373436f6e74726f6c3a206163636f756e7420000000000000000000815260008351612052816017850160208801611e5a565b7f206973206d697373696e6720726f6c6520000000000000000000000000000000601791840191820152835161208f816028840160208801611e5a565b01602801949350505050565b8082028115828204841417610abe57610abe611fb1565b80820180821115610abe57610abe611fb1565b634e487b7160e01b600052604160045260246000fd5b6000816120ea576120ea611fb1565b50600019019056fe41636365737369626c653a2043616c6c6572206973206e6f7420616e2061646da164736f6c6343000812000adf8b4c520ffe197c5343c6f5aec59570151ef9a492f2c624fd45ddde6135ec42",
  "linkReferences": {},
  "deployedLinkReferences": {}
}