{
  "_format": "hh-sol-artifact-1",
  "contractName": "Layer2ManagerProxy",
  "sourceName": "contracts/proxy/Layer2ManagerProxy.sol",
  "abi": [
    {
      "anonymous": false,
      "inputs": [
        {
          "indexed": true,
          "internalType": "bytes32",
          "name": "role",
          "type": "bytes32"
        },
        {
          "indexed": true,
          "internalType": "bytes32",
          "name": "previousAdminRole",
          "type": "bytes32"
        },
        {
          "indexed": true,
          "internalType": "bytes32",
          "name": "newAdminRole",
          "type": "bytes32"
        }
      ],
      "name": "RoleAdminChanged",
      "type": "event"
    },
    {
      "anonymous": false,
      "inputs": [
        {
          "indexed": true,
          "internalType": "bytes32",
          "name": "role",
          "type": "bytes32"
        },
        {
          "indexed": true,
          "internalType": "address",
          "name": "account",
          "type": "address"
        },
        {
          "indexed": true,
          "internalType": "address",
          "name": "sender",
          "type": "address"
        }
      ],
      "name": "RoleGranted",
      "type": "event"
    },
    {
      "anonymous": false,
      "inputs": [
        {
          "indexed": true,
          "internalType": "bytes32",
          "name": "role",
          "type": "bytes32"
        },
        {
          "indexed": true,
          "internalType": "address",
          "name": "account",
          "type": "address"
        },
        {
          "indexed": true,
          "internalType": "address",
          "name": "sender",
          "type": "address"
        }
      ],
      "name": "RoleRevoked",
      "type": "event"
    },
    {
      "anonymous": false,
      "inputs": [
        {
          "indexed": true,
          "internalType": "address",
          "name": "impl",
          "type": "address"
        },
        {
          "indexed": false,
          "internalType": "bool",
          "name": "alive",
          "type": "bool"
        }
      ],
      "name": "SetAliveImplementation",
      "type": "event"
    },
    {
      "anonymous": false,
      "inputs": [
        {
          "indexed": true,
          "internalType": "bytes4",
          "name": "selector",
          "type": "bytes4"
        },
        {
          "indexed": true,
          "internalType": "address",
          "name": "impl",
          "type": "address"
        }
      ],
      "name": "SetSelectorImplementation",
      "type": "event"
    },
    {
      "anonymous": false,
      "inputs": [
        {
          "indexed": true,
          "internalType": "address",
          "name": "implementation",
          "type": "address"
        }
      ],
      "name": "Upgraded",
      "type": "event"
    },
    {
      "stateMutability": "payable",
      "type": "fallback"
    },
    {
      "inputs": [],
      "name": "ADMIN_ROLE",
      "outputs": [
        {
          "internalType": "bytes32",
          "name": "",
          "type": "bytes32"
        }
      ],
      "stateMutability": "view",
      "type": "function"
    },
    {
      "inputs": [],
      "name": "DEFAULT_ADMIN_ROLE",
      "outputs": [
        {
          "internalType": "bytes32",
          "name": "",
          "type": "bytes32"
        }
      ],
      "stateMutability": "view",
      "type": "function"
    },
    {
      "inputs": [],
      "name": "POLICY_ROLE",
      "outputs": [
        {
          "internalType": "bytes32",
          "name": "",
          "type": "bytes32"
        }
      ],
      "stateMutability": "view",
      "type": "function"
    },
    {
      "inputs": [
        {
          "internalType": "address",
          "name": "account",
          "type": "address"
        }
      ],
      "name": "addAdmin",
      "outputs": [],
      "stateMutability": "nonpayable",
      "type": "function"
    },
    {
      "inputs": [
        {
          "internalType": "address",
          "name": "",
          "type": "address"
        }
      ],
      "name": "aliveImplementation",
      "outputs": [
        {
          "internalType": "bool",
          "name": "",
          "type": "bool"
        }
      ],
      "stateMutability": "view",
      "type": "function"
    },
    {
      "inputs": [],
      "name": "candidate",
      "outputs": [
        {
          "internalType": "address",
          "name": "",
          "type": "address"
        }
      ],
      "stateMutability": "view",
      "type": "function"
    },
    {
      "inputs": [
        {
          "internalType": "uint32",
          "name": "",
          "type": "uint32"
        }
      ],
      "name": "candidateNames",
      "outputs": [
        {
          "internalType": "bytes32",
          "name": "",
          "type": "bytes32"
        }
      ],
      "stateMutability": "view",
      "type": "function"
    },
    {
      "inputs": [
        {
          "internalType": "uint256",
          "name": "",
          "type": "uint256"
        }
      ],
      "name": "candidatesIndexes",
      "outputs": [
        {
          "internalType": "uint32",
          "name": "",
          "type": "uint32"
        }
      ],
      "stateMutability": "view",
      "type": "function"
    },
    {
      "inputs": [],
      "name": "delayBlocksForWithdraw",
      "outputs": [
        {
          "internalType": "uint256",
          "name": "",
          "type": "uint256"
        }
      ],
      "stateMutability": "view",
      "type": "function"
    },
    {
      "inputs": [
        {
          "internalType": "bytes32",
          "name": "role",
          "type": "bytes32"
        }
      ],
      "name": "getRoleAdmin",
      "outputs": [
        {
          "internalType": "bytes32",
          "name": "",
          "type": "bytes32"
        }
      ],
      "stateMutability": "view",
      "type": "function"
    },
    {
      "inputs": [
        {
          "internalType": "bytes4",
          "name": "_selector",
          "type": "bytes4"
        }
      ],
      "name": "getSelectorImplementation2",
      "outputs": [
        {
          "internalType": "address",
          "name": "impl",
          "type": "address"
        }
      ],
      "stateMutability": "view",
      "type": "function"
    },
    {
      "inputs": [
        {
          "internalType": "bytes32",
          "name": "role",
          "type": "bytes32"
        },
        {
          "internalType": "address",
          "name": "account",
          "type": "address"
        }
      ],
      "name": "grantRole",
      "outputs": [],
      "stateMutability": "nonpayable",
      "type": "function"
    },
    {
      "inputs": [
        {
          "internalType": "bytes32",
          "name": "role",
          "type": "bytes32"
        },
        {
          "internalType": "address",
          "name": "account",
          "type": "address"
        }
      ],
      "name": "hasRole",
      "outputs": [
        {
          "internalType": "bool",
          "name": "",
          "type": "bool"
        }
      ],
      "stateMutability": "view",
      "type": "function"
    },
    {
      "inputs": [
        {
          "internalType": "uint32",
          "name": "",
          "type": "uint32"
        }
      ],
      "name": "holdings",
      "outputs": [
        {
          "internalType": "uint256",
          "name": "securityDeposit",
          "type": "uint256"
        },
        {
          "internalType": "uint256",
          "name": "seigs",
          "type": "uint256"
        }
      ],
      "stateMutability": "view",
      "type": "function"
    },
    {
      "inputs": [],
      "name": "implementation",
      "outputs": [
        {
          "internalType": "address",
          "name": "",
          "type": "address"
        }
      ],
      "stateMutability": "view",
      "type": "function"
    },
    {
      "inputs": [
        {
          "internalType": "uint256",
          "name": "_index",
          "type": "uint256"
        }
      ],
      "name": "implementation2",
      "outputs": [
        {
          "internalType": "address",
          "name": "",
          "type": "address"
        }
      ],
      "stateMutability": "view",
      "type": "function"
    },
    {
      "inputs": [],
      "name": "indexCandidates",
      "outputs": [
        {
          "internalType": "uint32",
          "name": "",
          "type": "uint32"
        }
      ],
      "stateMutability": "view",
      "type": "function"
    },
    {
      "inputs": [],
      "name": "indexOperators",
      "outputs": [
        {
          "internalType": "uint32",
          "name": "",
          "type": "uint32"
        }
      ],
      "stateMutability": "view",
      "type": "function"
    },
    {
      "inputs": [
        {
          "internalType": "address",
          "name": "_ton",
          "type": "address"
        },
        {
          "internalType": "address",
          "name": "_seigManagerV2",
          "type": "address"
        },
        {
          "internalType": "address",
          "name": "_optimismL2Operator",
          "type": "address"
        },
        {
          "internalType": "address",
          "name": "_candidate",
          "type": "address"
        },
        {
          "internalType": "uint256",
          "name": "_minimumDepositForL2Operator",
          "type": "uint256"
        },
        {
          "internalType": "uint256",
          "name": "_minimumDepositForCandidate",
          "type": "uint256"
        },
        {
          "internalType": "uint32",
          "name": "_delayBlocksForWithdraw",
          "type": "uint32"
        }
      ],
      "name": "initialize",
      "outputs": [],
      "stateMutability": "nonpayable",
      "type": "function"
    },
    {
      "inputs": [
        {
          "internalType": "address",
          "name": "account",
          "type": "address"
        }
      ],
      "name": "isAdmin",
      "outputs": [
        {
          "internalType": "bool",
          "name": "",
          "type": "bool"
        }
      ],
      "stateMutability": "view",
      "type": "function"
    },
    {
      "inputs": [
        {
          "internalType": "bytes32",
          "name": "",
          "type": "bytes32"
        }
      ],
      "name": "layerKeys",
      "outputs": [
        {
          "internalType": "bool",
          "name": "",
          "type": "bool"
        }
      ],
      "stateMutability": "view",
      "type": "function"
    },
    {
      "inputs": [],
      "name": "maxLayer2Count",
      "outputs": [
        {
          "internalType": "uint256",
          "name": "",
          "type": "uint256"
        }
      ],
      "stateMutability": "view",
      "type": "function"
    },
    {
      "inputs": [],
      "name": "minimumDepositForCandidate",
      "outputs": [
        {
          "internalType": "uint256",
          "name": "",
          "type": "uint256"
        }
      ],
      "stateMutability": "view",
      "type": "function"
    },
    {
      "inputs": [],
      "name": "minimumDepositForL2Operator",
      "outputs": [
        {
          "internalType": "uint256",
          "name": "",
          "type": "uint256"
        }
      ],
      "stateMutability": "view",
      "type": "function"
    },
    {
      "inputs": [],
      "name": "optimismL2Operator",
      "outputs": [
        {
          "internalType": "address",
          "name": "",
          "type": "address"
        }
      ],
      "stateMutability": "view",
      "type": "function"
    },
    {
      "inputs": [
        {
          "internalType": "uint256",
          "name": "",
          "type": "uint256"
        }
      ],
      "name": "optimismL2OperatorIndexes",
      "outputs": [
        {
          "internalType": "uint32",
          "name": "",
          "type": "uint32"
        }
      ],
      "stateMutability": "view",
      "type": "function"
    },
    {
      "inputs": [
        {
          "internalType": "uint32",
          "name": "",
          "type": "uint32"
        }
      ],
      "name": "optimismL2OperatorNames",
      "outputs": [
        {
          "internalType": "bytes32",
          "name": "",
          "type": "bytes32"
        }
      ],
      "stateMutability": "view",
      "type": "function"
    },
    {
      "inputs": [],
      "name": "pauseProxy",
      "outputs": [
        {
          "internalType": "bool",
          "name": "",
          "type": "bool"
        }
      ],
      "stateMutability": "view",
      "type": "function"
    },
    {
      "inputs": [
        {
          "internalType": "uint256",
          "name": "",
          "type": "uint256"
        }
      ],
      "name": "proxyImplementation",
      "outputs": [
        {
          "internalType": "address",
          "name": "",
          "type": "address"
        }
      ],
      "stateMutability": "view",
      "type": "function"
    },
    {
      "inputs": [],
      "name": "ratioSecurityDepositOfTvl",
      "outputs": [
        {
          "internalType": "uint16",
          "name": "",
          "type": "uint16"
        }
      ],
      "stateMutability": "view",
      "type": "function"
    },
    {
      "inputs": [
        {
          "internalType": "address",
          "name": "account",
          "type": "address"
        }
      ],
      "name": "removeAdmin",
      "outputs": [],
      "stateMutability": "nonpayable",
      "type": "function"
    },
    {
      "inputs": [
        {
          "internalType": "bytes32",
          "name": "role",
          "type": "bytes32"
        },
        {
          "internalType": "address",
          "name": "account",
          "type": "address"
        }
      ],
      "name": "renounceRole",
      "outputs": [],
      "stateMutability": "nonpayable",
      "type": "function"
    },
    {
      "inputs": [
        {
          "internalType": "bytes32",
          "name": "role",
          "type": "bytes32"
        },
        {
          "internalType": "address",
          "name": "account",
          "type": "address"
        }
      ],
      "name": "revokeRole",
      "outputs": [],
      "stateMutability": "nonpayable",
      "type": "function"
    },
    {
      "inputs": [],
      "name": "seigManagerV2",
      "outputs": [
        {
          "internalType": "address",
          "name": "",
          "type": "address"
        }
      ],
      "stateMutability": "view",
      "type": "function"
    },
    {
      "inputs": [
        {
          "internalType": "bytes4",
          "name": "",
          "type": "bytes4"
        }
      ],
      "name": "selectorImplementation",
      "outputs": [
        {
          "internalType": "address",
          "name": "",
          "type": "address"
        }
      ],
      "stateMutability": "view",
      "type": "function"
    },
    {
      "inputs": [
        {
          "internalType": "address",
          "name": "newImplementation",
          "type": "address"
        },
        {
          "internalType": "bool",
          "name": "_alive",
          "type": "bool"
        }
      ],
      "name": "setAliveImplementation2",
      "outputs": [],
      "stateMutability": "nonpayable",
      "type": "function"
    },
    {
      "inputs": [
        {
          "internalType": "address",
          "name": "newImplementation",
          "type": "address"
        },
        {
          "internalType": "uint256",
          "name": "_index",
          "type": "uint256"
        },
        {
          "internalType": "bool",
          "name": "_alive",
          "type": "bool"
        }
      ],
      "name": "setImplementation2",
      "outputs": [],
      "stateMutability": "nonpayable",
      "type": "function"
    },
    {
      "inputs": [
        {
          "internalType": "bool",
          "name": "_pause",
          "type": "bool"
        }
      ],
      "name": "setProxyPause",
      "outputs": [],
      "stateMutability": "nonpayable",
      "type": "function"
    },
    {
      "inputs": [
        {
          "internalType": "bytes4[]",
          "name": "_selectors",
          "type": "bytes4[]"
        },
        {
          "internalType": "address",
          "name": "_imp",
          "type": "address"
        }
      ],
      "name": "setSelectorImplementations2",
      "outputs": [],
      "stateMutability": "nonpayable",
      "type": "function"
    },
    {
      "inputs": [
        {
          "internalType": "bytes4",
          "name": "interfaceId",
          "type": "bytes4"
        }
      ],
      "name": "supportsInterface",
      "outputs": [
        {
          "internalType": "bool",
          "name": "",
          "type": "bool"
        }
      ],
      "stateMutability": "view",
      "type": "function"
    },
    {
      "inputs": [],
      "name": "ton",
      "outputs": [
        {
          "internalType": "contract IERC20",
          "name": "",
          "type": "address"
        }
      ],
      "stateMutability": "view",
      "type": "function"
    },
    {
      "inputs": [],
      "name": "totalSecurityDeposit",
      "outputs": [
        {
          "internalType": "uint256",
          "name": "",
          "type": "uint256"
        }
      ],
      "stateMutability": "view",
      "type": "function"
    },
    {
      "inputs": [],
      "name": "totalSeigs",
      "outputs": [
        {
          "internalType": "uint256",
          "name": "",
          "type": "uint256"
        }
      ],
      "stateMutability": "view",
      "type": "function"
    },
    {
      "inputs": [
        {
          "internalType": "address",
          "name": "newAdmin",
          "type": "address"
        }
      ],
      "name": "transferAdmin",
      "outputs": [],
      "stateMutability": "nonpayable",
      "type": "function"
    },
    {
      "inputs": [
        {
          "internalType": "address",
          "name": "impl",
          "type": "address"
        }
      ],
      "name": "upgradeTo",
      "outputs": [],
      "stateMutability": "nonpayable",
      "type": "function"
    },
    {
      "stateMutability": "payable",
      "type": "receive"
    }
  ],
  "bytecode": "0x60806040526015805460ff60501b19166a01000000000000000000001790553480156200002b57600080fd5b5062000047600080516020620020c58339815191528062000075565b62000062600080516020620020c583398151915233620000c0565b6200006f600033620000c0565b62000170565b600082815260208190526040808220600101805490849055905190918391839186917fbd79b86ffe0ab8e8776151514217cd7cacd52c909f66475c3af44e129f0b00ff9190a4505050565b620000cc8282620000d0565b5050565b6000828152602081815260408083206001600160a01b038516845290915290205460ff16620000cc576000828152602081815260408083206001600160a01b03851684529091529020805460ff191660011790556200012c3390565b6001600160a01b0316816001600160a01b0316837f2f8788117e7eff1d82e926ec794901d17c78024a50270940304540a733656f0d60405160405180910390a45050565b611f4580620001806000396000f3fe6080604052600436106102f65760003560e01c8063704802751161018f578063a217fddf116100e1578063d37c6d691161008a578063e0ef2a7f11610064578063e0ef2a7f146109b2578063e257569f146109e2578063ec558b1614610a0257610348565b8063d37c6d691461094f578063d48ddf0414610965578063d547741f1461099257610348565b8063c14241b9116100bb578063c14241b9146108df578063caef64e614610919578063cc48b9471461092f57610348565b8063a217fddf1461087e578063a4dd8b7d14610893578063b911135f146108a957610348565b80637cb00d25116101435780638d4fdb401161011d5780638d4fdb40146107ed57806391d148541461080d5780639e7ea8421461085157610348565b80637cb00d251461078d5780637cd5f663146107ad5780638b8f4a65146107cd57610348565b8063734b264111610174578063734b26411461071957806375829def1461073957806375b238fc1461075957610348565b806370480275146106d957806373469a7a146106f957610348565b8063499ad9da116102485780635b1f335f116101fc57806363a8fd89116101d657806363a8fd891461068257806366f0d6af1461069c5780636c8381f8146106b957610348565b80635b1f335f146106065780635c60da1b1461061c5780635cc797d81461066257610348565b806350d2a2761161022d57806350d2a27614610563578063550d01a3146105b157806357bc1df0146105e157610348565b8063499ad9da1461052d5780634a5df50f1461054357610348565b8063248a9ca3116102aa57806336568abe1161028457806336568abe146104b85780633659cfe6146104d85780633bd0c19f146104f857610348565b8063248a9ca31461044857806324d7806c146104785780632f2ff15d1461049857610348565b806304196138116102db57806304196138146103ab5780631785f53c146103f4578063229852461461041457610348565b806301ffc9a71461035257806303b90d1a1461038757610348565b366103485760405162461bcd60e51b815260206004820152601460248201527f63616e6e6f74207265636569766520457468657200000000000000000000000060448201526064015b60405180910390fd5b610350610a22565b005b34801561035e57600080fd5b5061037261036d366004611b50565b610acb565b60405190151581526020015b60405180910390f35b34801561039357600080fd5b5061039d60095481565b60405190815260200161037e565b3480156103b757600080fd5b506103df6103c6366004611b8e565b6012602052600090815260409020805460019091015482565b6040805192835260208301919091520161037e565b34801561040057600080fd5b5061035061040f366004611bc0565b610b02565b34801561042057600080fd5b5061039d7ffb5864e8ff833c3cb2d2d08505e82ff02a43554c74a35d4f5a64e8526127831181565b34801561045457600080fd5b5061039d610463366004611bdb565b60009081526020819052604090206001015490565b34801561048457600080fd5b50610372610493366004611bc0565b610b7d565b3480156104a457600080fd5b506103506104b3366004611bf4565b610bbd565b3480156104c457600080fd5b506103506104d3366004611bf4565b610be2565b3480156104e457600080fd5b506103506104f3366004611bc0565b610c6e565b34801561050457600080fd5b50610518610513366004611bdb565b610dc7565b60405163ffffffff909116815260200161037e565b34801561053957600080fd5b5061039d600e5481565b34801561054f57600080fd5b5061035061055e366004611c20565b610e01565b34801561056f57600080fd5b5061059961057e366004611b50565b6004602052600090815260409020546001600160a01b031681565b6040516001600160a01b03909116815260200161037e565b3480156105bd57600080fd5b506103726105cc366004611bc0565b60036020526000908152604090205460ff1681565b3480156105ed57600080fd5b5060155461051890640100000000900463ffffffff1681565b34801561061257600080fd5b5061039d600d5481565b34801561062857600080fd5b506000805260026020527fac33ff75c19e70fe83507db0d683fd3465c996598dc972688b7ace676c89077b546001600160a01b0316610599565b34801561066e57600080fd5b5061035061067d366004611cb4565b6110a1565b34801561068e57600080fd5b506001546103729060ff1681565b3480156106a857600080fd5b506015546105189063ffffffff1681565b3480156106c557600080fd5b50600854610599906001600160a01b031681565b3480156106e557600080fd5b506103506106f4366004611bc0565b6110f9565b34801561070557600080fd5b50600654610599906001600160a01b031681565b34801561072557600080fd5b50610350610734366004611cde565b611171565b34801561074557600080fd5b50610350610754366004611bc0565b6113b2565b34801561076557600080fd5b5061039d7fdf8b4c520ffe197c5343c6f5aec59570151ef9a492f2c624fd45ddde6135ec4281565b34801561079957600080fd5b506103506107a8366004611d56565b611502565b3480156107b957600080fd5b506103506107c8366004611d71565b611563565b3480156107d957600080fd5b506105996107e8366004611bdb565b6115bc565b3480156107f957600080fd5b50610599610808366004611b50565b6115d9565b34801561081957600080fd5b50610372610828366004611bf4565b6000918252602082815260408084206001600160a01b0393909316845291905290205460ff1690565b34801561085d57600080fd5b5061039d61086c366004611b8e565b60106020526000908152604090205481565b34801561088a57600080fd5b5061039d600081565b34801561089f57600080fd5b5061039d600a5481565b3480156108b557600080fd5b506105996108c4366004611bdb565b6002602052600090815260409020546001600160a01b031681565b3480156108eb57600080fd5b506015546109069068010000000000000000900461ffff1681565b60405161ffff909116815260200161037e565b34801561092557600080fd5b5061039d600b5481565b34801561093b57600080fd5b50600554610599906001600160a01b031681565b34801561095b57600080fd5b5061039d600c5481565b34801561097157600080fd5b5061039d610980366004611b8e565b60116020526000908152604090205481565b34801561099e57600080fd5b506103506109ad366004611bf4565b6116d5565b3480156109be57600080fd5b506103726109cd366004611bdb565b60136020526000908152604090205460ff1681565b3480156109ee57600080fd5b506105186109fd366004611bdb565b6116fa565b348015610a0e57600080fd5b50600754610599906001600160a01b031681565b6000610a396000356001600160e01b0319166115d9565b90506001600160a01b03811615801590610a56575060015460ff16155b610aa25760405162461bcd60e51b815260206004820152601d60248201527f50726f78793a20696d706c204f522070726f78792069732066616c7365000000604482015260640161033f565b3660008037600080366000845af43d6000803e808015610ac1573d6000f35b3d6000fd5b505050565b60006001600160e01b03198216637965db0b60e01b1480610afc57506301ffc9a760e01b6001600160e01b03198316145b92915050565b610b0b33610b7d565b610b505760405162461bcd60e51b81526020600482015260226024820152600080516020611f1983398151915260448201526134b760f11b606482015260840161033f565b610b7a7fdf8b4c520ffe197c5343c6f5aec59570151ef9a492f2c624fd45ddde6135ec4282610be2565b50565b6001600160a01b03811660009081527f5cbfc8ee58ca47855df7bcf648dd304ddb6b932f9b87878bdf6318d7ec7ee5b7602052604081205460ff16610afc565b600082815260208190526040902060010154610bd88161170a565b610ac68383611714565b6001600160a01b0381163314610c605760405162461bcd60e51b815260206004820152602f60248201527f416363657373436f6e74726f6c3a2063616e206f6e6c792072656e6f756e636560448201527f20726f6c657320666f722073656c660000000000000000000000000000000000606482015260840161033f565b610c6a82826117b2565b5050565b610c7733610b7d565b610cbc5760405162461bcd60e51b81526020600482015260226024820152600080516020611f1983398151915260448201526134b760f11b606482015260840161033f565b6001600160a01b038116610d125760405162461bcd60e51b815260206004820152600d60248201527f696e707574206973207a65726f00000000000000000000000000000000000000604482015260640161033f565b6000805260026020527fac33ff75c19e70fe83507db0d683fd3465c996598dc972688b7ace676c89077b546001600160a01b03828116911603610d835760405162461bcd60e51b815260206004820152600960248201526839b0b6b29030b2323960b91b604482015260640161033f565b610d908160006001611831565b6040516001600160a01b038216907fbc7cd75a20ee27fd9adebab32041f755214dbc6bffa90cc0225b39da2e5c2d3b90600090a250565b60148181548110610dd757600080fd5b9060005260206000209060089182820401919006600402915054906101000a900463ffffffff1681565b610e0a33610b7d565b610e4f5760405162461bcd60e51b81526020600482015260226024820152600080516020611f1983398151915260448201526134b760f11b606482015260840161033f565b81610e9c5760405162461bcd60e51b815260206004820181905260248201527f50726f78793a205f73656c6563746f727327732073697a65206973207a65726f604482015260640161033f565b6001600160a01b03811660009081526003602052604090205460ff16610f045760405162461bcd60e51b815260206004820152601860248201527f50726f78793a205f696d70206973206e6f7420616c6976650000000000000000604482015260640161033f565b60005b8281101561109b57816001600160a01b031660046000868685818110610f2f57610f2f611da4565b9050602002016020810190610f449190611b50565b6001600160e01b03191681526020810191909152604001600020546001600160a01b031603610fb55760405162461bcd60e51b815260206004820152601d60248201527f4c69717569646974795661756c7450726f78793a2073616d6520696d70000000604482015260640161033f565b8160046000868685818110610fcc57610fcc611da4565b9050602002016020810190610fe19190611b50565b6001600160e01b0319168152602081019190915260400160002080546001600160a01b0319166001600160a01b03928316179055821684848381811061102957611029611da4565b905060200201602081019061103e9190611b50565b7bffffffffffffffffffffffffffffffffffffffffffffffffffffffff19167f14ebc1c32aa68f4d766e89f3e546cee249f7df25183fc10ab1568d91c2ce9b7b60405160405180910390a38061109381611dd0565b915050610f07565b50505050565b6110aa33610b7d565b6110ef5760405162461bcd60e51b81526020600482015260226024820152600080516020611f1983398151915260448201526134b760f11b606482015260840161033f565b610c6a82826118bc565b61110233610b7d565b6111475760405162461bcd60e51b81526020600482015260226024820152600080516020611f1983398151915260448201526134b760f11b606482015260840161033f565b610b7a7fdf8b4c520ffe197c5343c6f5aec59570151ef9a492f2c624fd45ddde6135ec4282610bbd565b61117a33610b7d565b6111bf5760405162461bcd60e51b81526020600482015260226024820152600080516020611f1983398151915260448201526134b760f11b606482015260840161033f565b866001600160a01b0381166111fb5760405162461bcd60e51b81526020600482015260026024820152612d1960f11b604482015260640161033f565b866001600160a01b0381166112375760405162461bcd60e51b81526020600482015260026024820152612d1960f11b604482015260640161033f565b866001600160a01b0381166112735760405162461bcd60e51b81526020600482015260026024820152612d1960f11b604482015260640161033f565b866001600160a01b0381166112af5760405162461bcd60e51b81526020600482015260026024820152612d1960f11b604482015260640161033f565b8463ffffffff16806000036112eb5760405162461bcd60e51b81526020600482015260026024820152615a3160f01b604482015260640161033f565b6005546001600160a01b0316156113445760405162461bcd60e51b815260206004820152601260248201527f616c726561647920696e697469616c697a650000000000000000000000000000604482015260640161033f565b5050600580546001600160a01b03199081166001600160a01b039c8d161782556006805482169b8d169b909b17909a55600780548b16998c16999099179098555050600880549097169490971693909317909455600955600a9290925563ffffffff909116600b55600c5550565b6113bb33610b7d565b6114005760405162461bcd60e51b81526020600482015260226024820152600080516020611f1983398151915260448201526134b760f11b606482015260840161033f565b6001600160a01b0381166114565760405162461bcd60e51b815260206004820152601860248201527f41636365737369626c653a207a65726f20616464726573730000000000000000604482015260640161033f565b6001600160a01b03811633036114ae5760405162461bcd60e51b815260206004820152601660248201527f41636365737369626c653a2073616d652061646d696e00000000000000000000604482015260640161033f565b6114d87fdf8b4c520ffe197c5343c6f5aec59570151ef9a492f2c624fd45ddde6135ec4282610bbd565b610b7a7fdf8b4c520ffe197c5343c6f5aec59570151ef9a492f2c624fd45ddde6135ec4233610be2565b61150b33610b7d565b6115505760405162461bcd60e51b81526020600482015260226024820152600080516020611f1983398151915260448201526134b760f11b606482015260840161033f565b6001805460ff1916911515919091179055565b61156c33610b7d565b6115b15760405162461bcd60e51b81526020600482015260226024820152600080516020611f1983398151915260448201526134b760f11b606482015260840161033f565b610ac6838383611831565b6000818152600260205260408120546001600160a01b0316610afc565b6001600160e01b031981166000908152600460205260408120546001600160a01b03166116395750506000805260026020527fac33ff75c19e70fe83507db0d683fd3465c996598dc972688b7ace676c89077b546001600160a01b031690565b6001600160e01b031982166000908152600460209081526040808320546001600160a01b03168352600390915290205460ff161561169757506001600160e01b0319166000908152600460205260409020546001600160a01b031690565b50506000805260026020527fac33ff75c19e70fe83507db0d683fd3465c996598dc972688b7ace676c89077b546001600160a01b031690565b919050565b6000828152602081905260409020600101546116f08161170a565b610ac683836117b2565b600f8181548110610dd757600080fd5b610b7a813361191b565b6000828152602081815260408083206001600160a01b038516845290915290205460ff16610c6a576000828152602081815260408083206001600160a01b03851684529091529020805460ff1916600117905561176e3390565b6001600160a01b0316816001600160a01b0316837f2f8788117e7eff1d82e926ec794901d17c78024a50270940304540a733656f0d60405160405180910390a45050565b6000828152602081815260408083206001600160a01b038516845290915290205460ff1615610c6a576000828152602081815260408083206001600160a01b0385168085529252808320805460ff1916905551339285917ff6391f5c32d9c69d2a47ea670b442974b53935d1edc7fd64eb21e047a839171b9190a45050565b6001600160a01b0383163b6118885760405162461bcd60e51b815260206004820152601b60248201527f50726f78793a206e6f7420636f6e747261637420616464726573730000000000604482015260640161033f565b80156118b657600082815260026020526040902080546001600160a01b0319166001600160a01b0385161790555b610ac683825b6001600160a01b038216600081815260036020908152604091829020805460ff191685151590811790915591519182527f72558d9bfba4210f9ef095c782589484151f6d90f7a81bb3cb9b33efc695d324910160405180910390a25050565b6000828152602081815260408083206001600160a01b038516845290915290205460ff16610c6a5761194c8161198e565b6119578360206119a0565b604051602001611968929190611e0d565b60408051601f198184030181529082905262461bcd60e51b825261033f91600401611e8e565b6060610afc6001600160a01b03831660145b606060006119af836002611ec1565b6119ba906002611ed8565b67ffffffffffffffff8111156119d2576119d2611eeb565b6040519080825280601f01601f1916602001820160405280156119fc576020820181803683370190505b509050600360fc1b81600081518110611a1757611a17611da4565b60200101906001600160f81b031916908160001a905350600f60fb1b81600181518110611a4657611a46611da4565b60200101906001600160f81b031916908160001a9053506000611a6a846002611ec1565b611a75906001611ed8565b90505b6001811115611afa577f303132333435363738396162636465660000000000000000000000000000000085600f1660108110611ab657611ab6611da4565b1a60f81b828281518110611acc57611acc611da4565b60200101906001600160f81b031916908160001a90535060049490941c93611af381611f01565b9050611a78565b508315611b495760405162461bcd60e51b815260206004820181905260248201527f537472696e67733a20686578206c656e67746820696e73756666696369656e74604482015260640161033f565b9392505050565b600060208284031215611b6257600080fd5b81356001600160e01b031981168114611b4957600080fd5b803563ffffffff811681146116d057600080fd5b600060208284031215611ba057600080fd5b611b4982611b7a565b80356001600160a01b03811681146116d057600080fd5b600060208284031215611bd257600080fd5b611b4982611ba9565b600060208284031215611bed57600080fd5b5035919050565b60008060408385031215611c0757600080fd5b82359150611c1760208401611ba9565b90509250929050565b600080600060408486031215611c3557600080fd5b833567ffffffffffffffff80821115611c4d57600080fd5b818601915086601f830112611c6157600080fd5b813581811115611c7057600080fd5b8760208260051b8501011115611c8557600080fd5b602092830195509350611c9b9186019050611ba9565b90509250925092565b803580151581146116d057600080fd5b60008060408385031215611cc757600080fd5b611cd083611ba9565b9150611c1760208401611ca4565b600080600080600080600060e0888a031215611cf957600080fd5b611d0288611ba9565b9650611d1060208901611ba9565b9550611d1e60408901611ba9565b9450611d2c60608901611ba9565b93506080880135925060a08801359150611d4860c08901611b7a565b905092959891949750929550565b600060208284031215611d6857600080fd5b611b4982611ca4565b600080600060608486031215611d8657600080fd5b611d8f84611ba9565b925060208401359150611c9b60408501611ca4565b634e487b7160e01b600052603260045260246000fd5b634e487b7160e01b600052601160045260246000fd5b600060018201611de257611de2611dba565b5060010190565b60005b83811015611e04578181015183820152602001611dec565b50506000910152565b7f416363657373436f6e74726f6c3a206163636f756e7420000000000000000000815260008351611e45816017850160208801611de9565b7f206973206d697373696e6720726f6c65200000000000000000000000000000006017918401918201528351611e82816028840160208801611de9565b01602801949350505050565b6020815260008251806020840152611ead816040850160208701611de9565b601f01601f19169190910160400192915050565b8082028115828204841417610afc57610afc611dba565b80820180821115610afc57610afc611dba565b634e487b7160e01b600052604160045260246000fd5b600081611f1057611f10611dba565b50600019019056fe41636365737369626c653a2043616c6c6572206973206e6f7420616e2061646da164736f6c6343000812000adf8b4c520ffe197c5343c6f5aec59570151ef9a492f2c624fd45ddde6135ec42",
  "linkReferences": {},
  "deployedLinkReferences": {}
}