{
  "_format": "hh-sol-artifact-1",
  "contractName": "Layer2ManagerProxy",
  "sourceName": "contracts/proxy/Layer2ManagerProxy.sol",
  "abi": [
    {
      "anonymous": false,
      "inputs": [
        {
          "indexed": true,
          "internalType": "bytes32",
          "name": "role",
          "type": "bytes32"
        },
        {
          "indexed": true,
          "internalType": "bytes32",
          "name": "previousAdminRole",
          "type": "bytes32"
        },
        {
          "indexed": true,
          "internalType": "bytes32",
          "name": "newAdminRole",
          "type": "bytes32"
        }
      ],
      "name": "RoleAdminChanged",
      "type": "event"
    },
    {
      "anonymous": false,
      "inputs": [
        {
          "indexed": true,
          "internalType": "bytes32",
          "name": "role",
          "type": "bytes32"
        },
        {
          "indexed": true,
          "internalType": "address",
          "name": "account",
          "type": "address"
        },
        {
          "indexed": true,
          "internalType": "address",
          "name": "sender",
          "type": "address"
        }
      ],
      "name": "RoleGranted",
      "type": "event"
    },
    {
      "anonymous": false,
      "inputs": [
        {
          "indexed": true,
          "internalType": "bytes32",
          "name": "role",
          "type": "bytes32"
        },
        {
          "indexed": true,
          "internalType": "address",
          "name": "account",
          "type": "address"
        },
        {
          "indexed": true,
          "internalType": "address",
          "name": "sender",
          "type": "address"
        }
      ],
      "name": "RoleRevoked",
      "type": "event"
    },
    {
      "anonymous": false,
      "inputs": [
        {
          "indexed": true,
          "internalType": "address",
          "name": "impl",
          "type": "address"
        },
        {
          "indexed": false,
          "internalType": "bool",
          "name": "alive",
          "type": "bool"
        }
      ],
      "name": "SetAliveImplementation",
      "type": "event"
    },
    {
      "anonymous": false,
      "inputs": [
        {
          "indexed": true,
          "internalType": "bytes4",
          "name": "selector",
          "type": "bytes4"
        },
        {
          "indexed": true,
          "internalType": "address",
          "name": "impl",
          "type": "address"
        }
      ],
      "name": "SetSelectorImplementation",
      "type": "event"
    },
    {
      "anonymous": false,
      "inputs": [
        {
          "indexed": true,
          "internalType": "address",
          "name": "implementation",
          "type": "address"
        }
      ],
      "name": "Upgraded",
      "type": "event"
    },
    {
      "stateMutability": "payable",
      "type": "fallback"
    },
    {
      "inputs": [],
      "name": "ADMIN_ROLE",
      "outputs": [
        {
          "internalType": "bytes32",
          "name": "",
          "type": "bytes32"
        }
      ],
      "stateMutability": "view",
      "type": "function"
    },
    {
      "inputs": [],
      "name": "DEFAULT_ADMIN_ROLE",
      "outputs": [
        {
          "internalType": "bytes32",
          "name": "",
          "type": "bytes32"
        }
      ],
      "stateMutability": "view",
      "type": "function"
    },
    {
      "inputs": [],
      "name": "POLICY_ROLE",
      "outputs": [
        {
          "internalType": "bytes32",
          "name": "",
          "type": "bytes32"
        }
      ],
      "stateMutability": "view",
      "type": "function"
    },
    {
      "inputs": [
        {
          "internalType": "address",
          "name": "account",
          "type": "address"
        }
      ],
      "name": "addAdmin",
      "outputs": [],
      "stateMutability": "nonpayable",
      "type": "function"
    },
    {
      "inputs": [
        {
          "internalType": "address",
          "name": "",
          "type": "address"
        }
      ],
      "name": "aliveImplementation",
      "outputs": [
        {
          "internalType": "bool",
          "name": "",
          "type": "bool"
        }
      ],
      "stateMutability": "view",
      "type": "function"
    },
    {
      "inputs": [],
      "name": "candidate",
      "outputs": [
        {
          "internalType": "address",
          "name": "",
          "type": "address"
        }
      ],
      "stateMutability": "view",
      "type": "function"
    },
    {
      "inputs": [
        {
          "internalType": "uint32",
          "name": "",
          "type": "uint32"
        }
      ],
      "name": "candidateNames",
      "outputs": [
        {
          "internalType": "bytes32",
          "name": "",
          "type": "bytes32"
        }
      ],
      "stateMutability": "view",
      "type": "function"
    },
    {
      "inputs": [
        {
          "internalType": "uint256",
          "name": "",
          "type": "uint256"
        }
      ],
      "name": "candidatesIndexes",
      "outputs": [
        {
          "internalType": "uint32",
          "name": "",
          "type": "uint32"
        }
      ],
      "stateMutability": "view",
      "type": "function"
    },
    {
      "inputs": [],
      "name": "delayBlocksForWithdraw",
      "outputs": [
        {
          "internalType": "uint256",
          "name": "",
          "type": "uint256"
        }
      ],
      "stateMutability": "view",
      "type": "function"
    },
    {
      "inputs": [
        {
          "internalType": "bytes32",
          "name": "role",
          "type": "bytes32"
        }
      ],
      "name": "getRoleAdmin",
      "outputs": [
        {
          "internalType": "bytes32",
          "name": "",
          "type": "bytes32"
        }
      ],
      "stateMutability": "view",
      "type": "function"
    },
    {
      "inputs": [
        {
          "internalType": "bytes4",
          "name": "_selector",
          "type": "bytes4"
        }
      ],
      "name": "getSelectorImplementation2",
      "outputs": [
        {
          "internalType": "address",
          "name": "impl",
          "type": "address"
        }
      ],
      "stateMutability": "view",
      "type": "function"
    },
    {
      "inputs": [
        {
          "internalType": "bytes32",
          "name": "role",
          "type": "bytes32"
        },
        {
          "internalType": "address",
          "name": "account",
          "type": "address"
        }
      ],
      "name": "grantRole",
      "outputs": [],
      "stateMutability": "nonpayable",
      "type": "function"
    },
    {
      "inputs": [
        {
          "internalType": "bytes32",
          "name": "role",
          "type": "bytes32"
        },
        {
          "internalType": "address",
          "name": "account",
          "type": "address"
        }
      ],
      "name": "hasRole",
      "outputs": [
        {
          "internalType": "bool",
          "name": "",
          "type": "bool"
        }
      ],
      "stateMutability": "view",
      "type": "function"
    },
    {
      "inputs": [
        {
          "internalType": "uint32",
          "name": "",
          "type": "uint32"
        }
      ],
      "name": "holdings",
      "outputs": [
        {
          "internalType": "uint256",
          "name": "securityDeposit",
          "type": "uint256"
        },
        {
          "internalType": "uint256",
          "name": "seigs",
          "type": "uint256"
        }
      ],
      "stateMutability": "view",
      "type": "function"
    },
    {
      "inputs": [],
      "name": "implementation",
      "outputs": [
        {
          "internalType": "address",
          "name": "",
          "type": "address"
        }
      ],
      "stateMutability": "view",
      "type": "function"
    },
    {
      "inputs": [
        {
          "internalType": "uint256",
          "name": "_index",
          "type": "uint256"
        }
      ],
      "name": "implementation2",
      "outputs": [
        {
          "internalType": "address",
          "name": "",
          "type": "address"
        }
      ],
      "stateMutability": "view",
      "type": "function"
    },
    {
      "inputs": [],
      "name": "indexCandidates",
      "outputs": [
        {
          "internalType": "uint32",
          "name": "",
          "type": "uint32"
        }
      ],
      "stateMutability": "view",
      "type": "function"
    },
    {
      "inputs": [],
      "name": "indexSequencers",
      "outputs": [
        {
          "internalType": "uint32",
          "name": "",
          "type": "uint32"
        }
      ],
      "stateMutability": "view",
      "type": "function"
    },
    {
      "inputs": [
        {
          "internalType": "address",
          "name": "_ton",
          "type": "address"
        },
        {
          "internalType": "address",
          "name": "_seigManagerV2",
          "type": "address"
        },
        {
          "internalType": "address",
          "name": "_optimismSequencer",
          "type": "address"
        },
        {
          "internalType": "address",
          "name": "_candidate",
          "type": "address"
        },
        {
          "internalType": "uint256",
          "name": "_minimumDepositForSequencer",
          "type": "uint256"
        },
        {
          "internalType": "uint256",
          "name": "_minimumDepositForCandidate",
          "type": "uint256"
        },
        {
          "internalType": "uint32",
          "name": "_delayBlocksForWithdraw",
          "type": "uint32"
        }
      ],
      "name": "initialize",
      "outputs": [],
      "stateMutability": "nonpayable",
      "type": "function"
    },
    {
      "inputs": [
        {
          "internalType": "address",
          "name": "account",
          "type": "address"
        }
      ],
      "name": "isAdmin",
      "outputs": [
        {
          "internalType": "bool",
          "name": "",
          "type": "bool"
        }
      ],
      "stateMutability": "view",
      "type": "function"
    },
    {
      "inputs": [
        {
          "internalType": "bytes32",
          "name": "",
          "type": "bytes32"
        }
      ],
      "name": "layerKeys",
      "outputs": [
        {
          "internalType": "bool",
          "name": "",
          "type": "bool"
        }
      ],
      "stateMutability": "view",
      "type": "function"
    },
    {
      "inputs": [],
      "name": "maxLayer2Count",
      "outputs": [
        {
          "internalType": "uint256",
          "name": "",
          "type": "uint256"
        }
      ],
      "stateMutability": "view",
      "type": "function"
    },
    {
      "inputs": [],
      "name": "minimumDepositForCandidate",
      "outputs": [
        {
          "internalType": "uint256",
          "name": "",
          "type": "uint256"
        }
      ],
      "stateMutability": "view",
      "type": "function"
    },
    {
      "inputs": [],
      "name": "minimumDepositForSequencer",
      "outputs": [
        {
          "internalType": "uint256",
          "name": "",
          "type": "uint256"
        }
      ],
      "stateMutability": "view",
      "type": "function"
    },
    {
      "inputs": [],
      "name": "optimismSequencer",
      "outputs": [
        {
          "internalType": "address",
          "name": "",
          "type": "address"
        }
      ],
      "stateMutability": "view",
      "type": "function"
    },
    {
      "inputs": [
        {
          "internalType": "uint256",
          "name": "",
          "type": "uint256"
        }
      ],
      "name": "optimismSequencerIndexes",
      "outputs": [
        {
          "internalType": "uint32",
          "name": "",
          "type": "uint32"
        }
      ],
      "stateMutability": "view",
      "type": "function"
    },
    {
      "inputs": [
        {
          "internalType": "uint32",
          "name": "",
          "type": "uint32"
        }
      ],
      "name": "optimismSequencerNames",
      "outputs": [
        {
          "internalType": "bytes32",
          "name": "",
          "type": "bytes32"
        }
      ],
      "stateMutability": "view",
      "type": "function"
    },
    {
      "inputs": [],
      "name": "pauseProxy",
      "outputs": [
        {
          "internalType": "bool",
          "name": "",
          "type": "bool"
        }
      ],
      "stateMutability": "view",
      "type": "function"
    },
    {
      "inputs": [
        {
          "internalType": "uint256",
          "name": "",
          "type": "uint256"
        }
      ],
      "name": "proxyImplementation",
      "outputs": [
        {
          "internalType": "address",
          "name": "",
          "type": "address"
        }
      ],
      "stateMutability": "view",
      "type": "function"
    },
    {
      "inputs": [],
      "name": "ratioSecurityDepositOfTvl",
      "outputs": [
        {
          "internalType": "uint16",
          "name": "",
          "type": "uint16"
        }
      ],
      "stateMutability": "view",
      "type": "function"
    },
    {
      "inputs": [
        {
          "internalType": "address",
          "name": "account",
          "type": "address"
        }
      ],
      "name": "removeAdmin",
      "outputs": [],
      "stateMutability": "nonpayable",
      "type": "function"
    },
    {
      "inputs": [
        {
          "internalType": "bytes32",
          "name": "role",
          "type": "bytes32"
        },
        {
          "internalType": "address",
          "name": "account",
          "type": "address"
        }
      ],
      "name": "renounceRole",
      "outputs": [],
      "stateMutability": "nonpayable",
      "type": "function"
    },
    {
      "inputs": [
        {
          "internalType": "bytes32",
          "name": "role",
          "type": "bytes32"
        },
        {
          "internalType": "address",
          "name": "account",
          "type": "address"
        }
      ],
      "name": "revokeRole",
      "outputs": [],
      "stateMutability": "nonpayable",
      "type": "function"
    },
    {
      "inputs": [],
      "name": "seigManagerV2",
      "outputs": [
        {
          "internalType": "address",
          "name": "",
          "type": "address"
        }
      ],
      "stateMutability": "view",
      "type": "function"
    },
    {
      "inputs": [
        {
          "internalType": "bytes4",
          "name": "",
          "type": "bytes4"
        }
      ],
      "name": "selectorImplementation",
      "outputs": [
        {
          "internalType": "address",
          "name": "",
          "type": "address"
        }
      ],
      "stateMutability": "view",
      "type": "function"
    },
    {
      "inputs": [
        {
          "internalType": "address",
          "name": "newImplementation",
          "type": "address"
        },
        {
          "internalType": "bool",
          "name": "_alive",
          "type": "bool"
        }
      ],
      "name": "setAliveImplementation2",
      "outputs": [],
      "stateMutability": "nonpayable",
      "type": "function"
    },
    {
      "inputs": [
        {
          "internalType": "address",
          "name": "newImplementation",
          "type": "address"
        },
        {
          "internalType": "uint256",
          "name": "_index",
          "type": "uint256"
        },
        {
          "internalType": "bool",
          "name": "_alive",
          "type": "bool"
        }
      ],
      "name": "setImplementation2",
      "outputs": [],
      "stateMutability": "nonpayable",
      "type": "function"
    },
    {
      "inputs": [
        {
          "internalType": "bool",
          "name": "_pause",
          "type": "bool"
        }
      ],
      "name": "setProxyPause",
      "outputs": [],
      "stateMutability": "nonpayable",
      "type": "function"
    },
    {
      "inputs": [
        {
          "internalType": "bytes4[]",
          "name": "_selectors",
          "type": "bytes4[]"
        },
        {
          "internalType": "address",
          "name": "_imp",
          "type": "address"
        }
      ],
      "name": "setSelectorImplementations2",
      "outputs": [],
      "stateMutability": "nonpayable",
      "type": "function"
    },
    {
      "inputs": [
        {
          "internalType": "bytes4",
          "name": "interfaceId",
          "type": "bytes4"
        }
      ],
      "name": "supportsInterface",
      "outputs": [
        {
          "internalType": "bool",
          "name": "",
          "type": "bool"
        }
      ],
      "stateMutability": "view",
      "type": "function"
    },
    {
      "inputs": [],
      "name": "ton",
      "outputs": [
        {
          "internalType": "contract IERC20",
          "name": "",
          "type": "address"
        }
      ],
      "stateMutability": "view",
      "type": "function"
    },
    {
      "inputs": [],
      "name": "totalSecurityDeposit",
      "outputs": [
        {
          "internalType": "uint256",
          "name": "",
          "type": "uint256"
        }
      ],
      "stateMutability": "view",
      "type": "function"
    },
    {
      "inputs": [],
      "name": "totalSeigs",
      "outputs": [
        {
          "internalType": "uint256",
          "name": "",
          "type": "uint256"
        }
      ],
      "stateMutability": "view",
      "type": "function"
    },
    {
      "inputs": [
        {
          "internalType": "address",
          "name": "newAdmin",
          "type": "address"
        }
      ],
      "name": "transferAdmin",
      "outputs": [],
      "stateMutability": "nonpayable",
      "type": "function"
    },
    {
      "inputs": [
        {
          "internalType": "address",
          "name": "impl",
          "type": "address"
        }
      ],
      "name": "upgradeTo",
      "outputs": [],
      "stateMutability": "nonpayable",
      "type": "function"
    },
    {
      "stateMutability": "payable",
      "type": "receive"
    }
  ],
  "bytecode": "0x60806040526015805460ff60501b19166a01000000000000000000001790553480156200002b57600080fd5b5062000047600080516020620020c58339815191528062000075565b62000062600080516020620020c583398151915233620000c0565b6200006f600033620000c0565b62000170565b600082815260208190526040808220600101805490849055905190918391839186917fbd79b86ffe0ab8e8776151514217cd7cacd52c909f66475c3af44e129f0b00ff9190a4505050565b620000cc8282620000d0565b5050565b6000828152602081815260408083206001600160a01b038516845290915290205460ff16620000cc576000828152602081815260408083206001600160a01b03851684529091529020805460ff191660011790556200012c3390565b6001600160a01b0316816001600160a01b0316837f2f8788117e7eff1d82e926ec794901d17c78024a50270940304540a733656f0d60405160405180910390a45050565b611f4580620001806000396000f3fe6080604052600436106102f65760003560e01c8063704802751161018f578063a217fddf116100e1578063d37c6d691161008a578063da0dc13511610064578063da0dc135146109bc578063e0ef2a7f146109dc578063f71bf33a14610a0c57610348565b8063d37c6d6914610959578063d48ddf041461096f578063d547741f1461099c57610348565b8063c14241b9116100bb578063c14241b9146108e9578063caef64e614610923578063cc48b9471461093957610348565b8063a217fddf14610888578063a4dd8b7d1461089d578063b911135f146108b357610348565b80637cb00d25116101435780638d4fdb401161011d5780638d4fdb40146108075780638d5d8e551461082757806391d148541461084457610348565b80637cb00d25146107a75780637cd5f663146107c75780638b8f4a65146107e757610348565b8063734b264111610174578063734b26411461073357806375829def1461075357806375b238fc1461077357610348565b806370480275146106f357806373469a7a1461071357610348565b806346551ece1161024857806357bc1df0116101fc5780635cc797d8116101d65780635cc797d81461069957806363a8fd89146106b95780636c8381f8146106d357610348565b806357bc1df0146106185780635b1f335f1461063d5780635c60da1b1461065357610348565b80634a5df50f1161022d5780634a5df50f1461057a57806350d2a2761461059a578063550d01a3146105e857610348565b806346551ece14610537578063499ad9da1461056457610348565b806324d7806c116102aa5780633659cfe6116102845780633659cfe6146104c25780633bd0c19f146104e25780634339da1c1461051757610348565b806324d7806c146104625780632f2ff15d1461048257806336568abe146104a257610348565b80631785f53c116102db5780631785f53c146103d057806322985246146103f0578063248a9ca31461043257610348565b806301ffc9a714610352578063041961381461038757610348565b366103485760405162461bcd60e51b815260206004820152601460248201527f63616e6e6f74207265636569766520457468657200000000000000000000000060448201526064015b60405180910390fd5b610350610a22565b005b34801561035e57600080fd5b5061037261036d366004611b50565b610acb565b60405190151581526020015b60405180910390f35b34801561039357600080fd5b506103bb6103a2366004611b8e565b6012602052600090815260409020805460019091015482565b6040805192835260208301919091520161037e565b3480156103dc57600080fd5b506103506103eb366004611bc0565b610b02565b3480156103fc57600080fd5b506104247ffb5864e8ff833c3cb2d2d08505e82ff02a43554c74a35d4f5a64e8526127831181565b60405190815260200161037e565b34801561043e57600080fd5b5061042461044d366004611bdb565b60009081526020819052604090206001015490565b34801561046e57600080fd5b5061037261047d366004611bc0565b610b7d565b34801561048e57600080fd5b5061035061049d366004611bf4565b610bbd565b3480156104ae57600080fd5b506103506104bd366004611bf4565b610be2565b3480156104ce57600080fd5b506103506104dd366004611bc0565b610c6e565b3480156104ee57600080fd5b506105026104fd366004611bdb565b610dc7565b60405163ffffffff909116815260200161037e565b34801561052357600080fd5b50610502610532366004611bdb565b610e01565b34801561054357600080fd5b50610424610552366004611b8e565b60106020526000908152604090205481565b34801561057057600080fd5b50610424600e5481565b34801561058657600080fd5b50610350610595366004611c20565b610e11565b3480156105a657600080fd5b506105d06105b5366004611b50565b6004602052600090815260409020546001600160a01b031681565b6040516001600160a01b03909116815260200161037e565b3480156105f457600080fd5b50610372610603366004611bc0565b60036020526000908152604090205460ff1681565b34801561062457600080fd5b5060155461050290640100000000900463ffffffff1681565b34801561064957600080fd5b50610424600d5481565b34801561065f57600080fd5b506000805260026020527fac33ff75c19e70fe83507db0d683fd3465c996598dc972688b7ace676c89077b546001600160a01b03166105d0565b3480156106a557600080fd5b506103506106b4366004611cb4565b6110b1565b3480156106c557600080fd5b506001546103729060ff1681565b3480156106df57600080fd5b506008546105d0906001600160a01b031681565b3480156106ff57600080fd5b5061035061070e366004611bc0565b611109565b34801561071f57600080fd5b506006546105d0906001600160a01b031681565b34801561073f57600080fd5b5061035061074e366004611cde565b611181565b34801561075f57600080fd5b5061035061076e366004611bc0565b6113c2565b34801561077f57600080fd5b506104247fdf8b4c520ffe197c5343c6f5aec59570151ef9a492f2c624fd45ddde6135ec4281565b3480156107b357600080fd5b506103506107c2366004611d56565b611512565b3480156107d357600080fd5b506103506107e2366004611d71565b611573565b3480156107f357600080fd5b506105d0610802366004611bdb565b6115cc565b34801561081357600080fd5b506105d0610822366004611b50565b6115e9565b34801561083357600080fd5b506015546105029063ffffffff1681565b34801561085057600080fd5b5061037261085f366004611bf4565b6000918252602082815260408084206001600160a01b0393909316845291905290205460ff1690565b34801561089457600080fd5b50610424600081565b3480156108a957600080fd5b50610424600a5481565b3480156108bf57600080fd5b506105d06108ce366004611bdb565b6002602052600090815260409020546001600160a01b031681565b3480156108f557600080fd5b506015546109109068010000000000000000900461ffff1681565b60405161ffff909116815260200161037e565b34801561092f57600080fd5b50610424600b5481565b34801561094557600080fd5b506005546105d0906001600160a01b031681565b34801561096557600080fd5b50610424600c5481565b34801561097b57600080fd5b5061042461098a366004611b8e565b60116020526000908152604090205481565b3480156109a857600080fd5b506103506109b7366004611bf4565b6116e5565b3480156109c857600080fd5b506007546105d0906001600160a01b031681565b3480156109e857600080fd5b506103726109f7366004611bdb565b60136020526000908152604090205460ff1681565b348015610a1857600080fd5b5061042460095481565b6000610a396000356001600160e01b0319166115e9565b90506001600160a01b03811615801590610a56575060015460ff16155b610aa25760405162461bcd60e51b815260206004820152601d60248201527f50726f78793a20696d706c204f522070726f78792069732066616c7365000000604482015260640161033f565b3660008037600080366000845af43d6000803e808015610ac1573d6000f35b3d6000fd5b505050565b60006001600160e01b03198216637965db0b60e01b1480610afc57506301ffc9a760e01b6001600160e01b03198316145b92915050565b610b0b33610b7d565b610b505760405162461bcd60e51b81526020600482015260226024820152600080516020611f1983398151915260448201526134b760f11b606482015260840161033f565b610b7a7fdf8b4c520ffe197c5343c6f5aec59570151ef9a492f2c624fd45ddde6135ec4282610be2565b50565b6001600160a01b03811660009081527f5cbfc8ee58ca47855df7bcf648dd304ddb6b932f9b87878bdf6318d7ec7ee5b7602052604081205460ff16610afc565b600082815260208190526040902060010154610bd88161170a565b610ac68383611714565b6001600160a01b0381163314610c605760405162461bcd60e51b815260206004820152602f60248201527f416363657373436f6e74726f6c3a2063616e206f6e6c792072656e6f756e636560448201527f20726f6c657320666f722073656c660000000000000000000000000000000000606482015260840161033f565b610c6a82826117b2565b5050565b610c7733610b7d565b610cbc5760405162461bcd60e51b81526020600482015260226024820152600080516020611f1983398151915260448201526134b760f11b606482015260840161033f565b6001600160a01b038116610d125760405162461bcd60e51b815260206004820152600d60248201527f696e707574206973207a65726f00000000000000000000000000000000000000604482015260640161033f565b6000805260026020527fac33ff75c19e70fe83507db0d683fd3465c996598dc972688b7ace676c89077b546001600160a01b03828116911603610d835760405162461bcd60e51b815260206004820152600960248201526839b0b6b29030b2323960b91b604482015260640161033f565b610d908160006001611831565b6040516001600160a01b038216907fbc7cd75a20ee27fd9adebab32041f755214dbc6bffa90cc0225b39da2e5c2d3b90600090a250565b60148181548110610dd757600080fd5b9060005260206000209060089182820401919006600402915054906101000a900463ffffffff1681565b600f8181548110610dd757600080fd5b610e1a33610b7d565b610e5f5760405162461bcd60e51b81526020600482015260226024820152600080516020611f1983398151915260448201526134b760f11b606482015260840161033f565b81610eac5760405162461bcd60e51b815260206004820181905260248201527f50726f78793a205f73656c6563746f727327732073697a65206973207a65726f604482015260640161033f565b6001600160a01b03811660009081526003602052604090205460ff16610f145760405162461bcd60e51b815260206004820152601860248201527f50726f78793a205f696d70206973206e6f7420616c6976650000000000000000604482015260640161033f565b60005b828110156110ab57816001600160a01b031660046000868685818110610f3f57610f3f611da4565b9050602002016020810190610f549190611b50565b6001600160e01b03191681526020810191909152604001600020546001600160a01b031603610fc55760405162461bcd60e51b815260206004820152601d60248201527f4c69717569646974795661756c7450726f78793a2073616d6520696d70000000604482015260640161033f565b8160046000868685818110610fdc57610fdc611da4565b9050602002016020810190610ff19190611b50565b6001600160e01b0319168152602081019190915260400160002080546001600160a01b0319166001600160a01b03928316179055821684848381811061103957611039611da4565b905060200201602081019061104e9190611b50565b7bffffffffffffffffffffffffffffffffffffffffffffffffffffffff19167f14ebc1c32aa68f4d766e89f3e546cee249f7df25183fc10ab1568d91c2ce9b7b60405160405180910390a3806110a381611dd0565b915050610f17565b50505050565b6110ba33610b7d565b6110ff5760405162461bcd60e51b81526020600482015260226024820152600080516020611f1983398151915260448201526134b760f11b606482015260840161033f565b610c6a82826118bc565b61111233610b7d565b6111575760405162461bcd60e51b81526020600482015260226024820152600080516020611f1983398151915260448201526134b760f11b606482015260840161033f565b610b7a7fdf8b4c520ffe197c5343c6f5aec59570151ef9a492f2c624fd45ddde6135ec4282610bbd565b61118a33610b7d565b6111cf5760405162461bcd60e51b81526020600482015260226024820152600080516020611f1983398151915260448201526134b760f11b606482015260840161033f565b866001600160a01b03811661120b5760405162461bcd60e51b81526020600482015260026024820152612d1960f11b604482015260640161033f565b866001600160a01b0381166112475760405162461bcd60e51b81526020600482015260026024820152612d1960f11b604482015260640161033f565b866001600160a01b0381166112835760405162461bcd60e51b81526020600482015260026024820152612d1960f11b604482015260640161033f565b866001600160a01b0381166112bf5760405162461bcd60e51b81526020600482015260026024820152612d1960f11b604482015260640161033f565b8463ffffffff16806000036112fb5760405162461bcd60e51b81526020600482015260026024820152615a3160f01b604482015260640161033f565b6005546001600160a01b0316156113545760405162461bcd60e51b815260206004820152601260248201527f616c726561647920696e697469616c697a650000000000000000000000000000604482015260640161033f565b5050600580546001600160a01b03199081166001600160a01b039c8d161782556006805482169b8d169b909b17909a55600780548b16998c16999099179098555050600880549097169490971693909317909455600955600a9290925563ffffffff909116600b55600c5550565b6113cb33610b7d565b6114105760405162461bcd60e51b81526020600482015260226024820152600080516020611f1983398151915260448201526134b760f11b606482015260840161033f565b6001600160a01b0381166114665760405162461bcd60e51b815260206004820152601860248201527f41636365737369626c653a207a65726f20616464726573730000000000000000604482015260640161033f565b6001600160a01b03811633036114be5760405162461bcd60e51b815260206004820152601660248201527f41636365737369626c653a2073616d652061646d696e00000000000000000000604482015260640161033f565b6114e87fdf8b4c520ffe197c5343c6f5aec59570151ef9a492f2c624fd45ddde6135ec4282610bbd565b610b7a7fdf8b4c520ffe197c5343c6f5aec59570151ef9a492f2c624fd45ddde6135ec4233610be2565b61151b33610b7d565b6115605760405162461bcd60e51b81526020600482015260226024820152600080516020611f1983398151915260448201526134b760f11b606482015260840161033f565b6001805460ff1916911515919091179055565b61157c33610b7d565b6115c15760405162461bcd60e51b81526020600482015260226024820152600080516020611f1983398151915260448201526134b760f11b606482015260840161033f565b610ac6838383611831565b6000818152600260205260408120546001600160a01b0316610afc565b6001600160e01b031981166000908152600460205260408120546001600160a01b03166116495750506000805260026020527fac33ff75c19e70fe83507db0d683fd3465c996598dc972688b7ace676c89077b546001600160a01b031690565b6001600160e01b031982166000908152600460209081526040808320546001600160a01b03168352600390915290205460ff16156116a757506001600160e01b0319166000908152600460205260409020546001600160a01b031690565b50506000805260026020527fac33ff75c19e70fe83507db0d683fd3465c996598dc972688b7ace676c89077b546001600160a01b031690565b919050565b6000828152602081905260409020600101546117008161170a565b610ac683836117b2565b610b7a813361191b565b6000828152602081815260408083206001600160a01b038516845290915290205460ff16610c6a576000828152602081815260408083206001600160a01b03851684529091529020805460ff1916600117905561176e3390565b6001600160a01b0316816001600160a01b0316837f2f8788117e7eff1d82e926ec794901d17c78024a50270940304540a733656f0d60405160405180910390a45050565b6000828152602081815260408083206001600160a01b038516845290915290205460ff1615610c6a576000828152602081815260408083206001600160a01b0385168085529252808320805460ff1916905551339285917ff6391f5c32d9c69d2a47ea670b442974b53935d1edc7fd64eb21e047a839171b9190a45050565b6001600160a01b0383163b6118885760405162461bcd60e51b815260206004820152601b60248201527f50726f78793a206e6f7420636f6e747261637420616464726573730000000000604482015260640161033f565b80156118b657600082815260026020526040902080546001600160a01b0319166001600160a01b0385161790555b610ac683825b6001600160a01b038216600081815260036020908152604091829020805460ff191685151590811790915591519182527f72558d9bfba4210f9ef095c782589484151f6d90f7a81bb3cb9b33efc695d324910160405180910390a25050565b6000828152602081815260408083206001600160a01b038516845290915290205460ff16610c6a5761194c8161198e565b6119578360206119a0565b604051602001611968929190611e0d565b60408051601f198184030181529082905262461bcd60e51b825261033f91600401611e8e565b6060610afc6001600160a01b03831660145b606060006119af836002611ec1565b6119ba906002611ed8565b67ffffffffffffffff8111156119d2576119d2611eeb565b6040519080825280601f01601f1916602001820160405280156119fc576020820181803683370190505b509050600360fc1b81600081518110611a1757611a17611da4565b60200101906001600160f81b031916908160001a905350600f60fb1b81600181518110611a4657611a46611da4565b60200101906001600160f81b031916908160001a9053506000611a6a846002611ec1565b611a75906001611ed8565b90505b6001811115611afa577f303132333435363738396162636465660000000000000000000000000000000085600f1660108110611ab657611ab6611da4565b1a60f81b828281518110611acc57611acc611da4565b60200101906001600160f81b031916908160001a90535060049490941c93611af381611f01565b9050611a78565b508315611b495760405162461bcd60e51b815260206004820181905260248201527f537472696e67733a20686578206c656e67746820696e73756666696369656e74604482015260640161033f565b9392505050565b600060208284031215611b6257600080fd5b81356001600160e01b031981168114611b4957600080fd5b803563ffffffff811681146116e057600080fd5b600060208284031215611ba057600080fd5b611b4982611b7a565b80356001600160a01b03811681146116e057600080fd5b600060208284031215611bd257600080fd5b611b4982611ba9565b600060208284031215611bed57600080fd5b5035919050565b60008060408385031215611c0757600080fd5b82359150611c1760208401611ba9565b90509250929050565b600080600060408486031215611c3557600080fd5b833567ffffffffffffffff80821115611c4d57600080fd5b818601915086601f830112611c6157600080fd5b813581811115611c7057600080fd5b8760208260051b8501011115611c8557600080fd5b602092830195509350611c9b9186019050611ba9565b90509250925092565b803580151581146116e057600080fd5b60008060408385031215611cc757600080fd5b611cd083611ba9565b9150611c1760208401611ca4565b600080600080600080600060e0888a031215611cf957600080fd5b611d0288611ba9565b9650611d1060208901611ba9565b9550611d1e60408901611ba9565b9450611d2c60608901611ba9565b93506080880135925060a08801359150611d4860c08901611b7a565b905092959891949750929550565b600060208284031215611d6857600080fd5b611b4982611ca4565b600080600060608486031215611d8657600080fd5b611d8f84611ba9565b925060208401359150611c9b60408501611ca4565b634e487b7160e01b600052603260045260246000fd5b634e487b7160e01b600052601160045260246000fd5b600060018201611de257611de2611dba565b5060010190565b60005b83811015611e04578181015183820152602001611dec565b50506000910152565b7f416363657373436f6e74726f6c3a206163636f756e7420000000000000000000815260008351611e45816017850160208801611de9565b7f206973206d697373696e6720726f6c65200000000000000000000000000000006017918401918201528351611e82816028840160208801611de9565b01602801949350505050565b6020815260008251806020840152611ead816040850160208701611de9565b601f01601f19169190910160400192915050565b8082028115828204841417610afc57610afc611dba565b80820180821115610afc57610afc611dba565b634e487b7160e01b600052604160045260246000fd5b600081611f1057611f10611dba565b50600019019056fe41636365737369626c653a2043616c6c6572206973206e6f7420616e2061646da164736f6c6343000812000adf8b4c520ffe197c5343c6f5aec59570151ef9a492f2c624fd45ddde6135ec42",
  "linkReferences": {},
  "deployedLinkReferences": {}
}