{
  "_format": "hh-sol-artifact-1",
  "contractName": "LibFastWithdraw",
  "sourceName": "contracts/libraries/LibFastWithdraw.sol",
  "abi": [
    {
      "inputs": [
        {
          "internalType": "bytes",
          "name": "data",
          "type": "bytes"
        }
      ],
      "name": "decodeLiquidities",
      "outputs": [
        {
          "components": [
            {
              "internalType": "address",
              "name": "provider",
              "type": "address"
            },
            {
              "internalType": "uint256",
              "name": "amount",
              "type": "uint256"
            },
            {
              "internalType": "bool",
              "name": "isCandidate",
              "type": "bool"
            },
            {
              "internalType": "uint32",
              "name": "indexNo",
              "type": "uint32"
            }
          ],
          "internalType": "struct LibFastWithdraw.Liquidity[]",
          "name": "_liquidities",
          "type": "tuple[]"
        }
      ],
      "stateMutability": "view",
      "type": "function"
    },
    {
      "inputs": [
        {
          "internalType": "bytes",
          "name": "data",
          "type": "bytes"
        }
      ],
      "name": "decodeLiquidity",
      "outputs": [
        {
          "components": [
            {
              "internalType": "address",
              "name": "provider",
              "type": "address"
            },
            {
              "internalType": "uint256",
              "name": "amount",
              "type": "uint256"
            },
            {
              "internalType": "bool",
              "name": "isCandidate",
              "type": "bool"
            },
            {
              "internalType": "uint32",
              "name": "indexNo",
              "type": "uint32"
            }
          ],
          "internalType": "struct LibFastWithdraw.Liquidity",
          "name": "_liq",
          "type": "tuple"
        }
      ],
      "stateMutability": "view",
      "type": "function"
    },
    {
      "inputs": [
        {
          "components": [
            {
              "internalType": "address",
              "name": "provider",
              "type": "address"
            },
            {
              "internalType": "uint256",
              "name": "amount",
              "type": "uint256"
            },
            {
              "internalType": "bool",
              "name": "isCandidate",
              "type": "bool"
            },
            {
              "internalType": "uint32",
              "name": "indexNo",
              "type": "uint32"
            }
          ],
          "internalType": "struct LibFastWithdraw.Liquidity[]",
          "name": "_datas",
          "type": "tuple[]"
        }
      ],
      "name": "encodeLiquidities",
      "outputs": [
        {
          "internalType": "bytes",
          "name": "data",
          "type": "bytes"
        }
      ],
      "stateMutability": "view",
      "type": "function"
    },
    {
      "inputs": [
        {
          "components": [
            {
              "internalType": "address",
              "name": "provider",
              "type": "address"
            },
            {
              "internalType": "uint256",
              "name": "amount",
              "type": "uint256"
            },
            {
              "internalType": "bool",
              "name": "isCandidate",
              "type": "bool"
            },
            {
              "internalType": "uint32",
              "name": "indexNo",
              "type": "uint32"
            }
          ],
          "internalType": "struct LibFastWithdraw.Liquidity",
          "name": "_data",
          "type": "tuple"
        }
      ],
      "name": "encodeLiquidity",
      "outputs": [
        {
          "internalType": "bytes",
          "name": "data",
          "type": "bytes"
        }
      ],
      "stateMutability": "view",
      "type": "function"
    },
    {
      "inputs": [
        {
          "internalType": "bytes",
          "name": "fwReceiptBytes",
          "type": "bytes"
        }
      ],
      "name": "parseFwReceiptBytes",
      "outputs": [
        {
          "internalType": "uint8",
          "name": "status",
          "type": "uint8"
        },
        {
          "internalType": "uint8",
          "name": "version",
          "type": "uint8"
        },
        {
          "internalType": "address",
          "name": "l2ton",
          "type": "address"
        },
        {
          "internalType": "address",
          "name": "requestor",
          "type": "address"
        },
        {
          "internalType": "address",
          "name": "fwReceipt",
          "type": "address"
        },
        {
          "internalType": "uint256",
          "name": "fwamount",
          "type": "uint256"
        },
        {
          "internalType": "uint16",
          "name": "feeRates",
          "type": "uint16"
        },
        {
          "internalType": "uint32",
          "name": "deadline",
          "type": "uint32"
        },
        {
          "internalType": "uint32",
          "name": "layerIndex",
          "type": "uint32"
        }
      ],
      "stateMutability": "pure",
      "type": "function"
    },
    {
      "inputs": [
        {
          "internalType": "bytes",
          "name": "data",
          "type": "bytes"
        }
      ],
      "name": "parseL1BridgeFinalizeERC20Withdrawal",
      "outputs": [
        {
          "internalType": "uint8",
          "name": "status",
          "type": "uint8"
        },
        {
          "components": [
            {
              "internalType": "address",
              "name": "l1ton",
              "type": "address"
            },
            {
              "internalType": "address",
              "name": "l2ton",
              "type": "address"
            },
            {
              "internalType": "address",
              "name": "requestor",
              "type": "address"
            },
            {
              "internalType": "address",
              "name": "fwReceipt",
              "type": "address"
            },
            {
              "internalType": "uint256",
              "name": "amount",
              "type": "uint256"
            },
            {
              "internalType": "uint16",
              "name": "feeRates",
              "type": "uint16"
            },
            {
              "internalType": "uint32",
              "name": "deadline",
              "type": "uint32"
            },
            {
              "internalType": "uint32",
              "name": "layerIndex",
              "type": "uint32"
            }
          ],
          "internalType": "struct LibFastWithdraw.Request",
          "name": "_request",
          "type": "tuple"
        }
      ],
      "stateMutability": "pure",
      "type": "function"
    }
  ],
  "bytecode": "0x61126e61003a600b82828239805160001a60731461002d57634e487b7160e01b600052600060045260246000fd5b30600052607381538281f3fe730000000000000000000000000000000000000000301460806040526004361061007c5760003560e01c80636fa792b51161005a5780636fa792b514610141578063cd2e65d814610162578063d35daf6e1461018257600080fd5b80632d7ba4b414610081578063597bd119146100aa5780636340878a14610121575b600080fd5b61009461008f366004610d14565b610195565b6040516100a19190610deb565b60405180910390f35b6100bd6100b8366004610e46565b610201565b6040805160ff9a8b1681529990981660208a01526001600160a01b0396871697890197909752938516606088015293909116608086015260a085015261ffff90911660c084015263ffffffff90811660e084015216610100820152610120016100a1565b61013461012f366004610e46565b610298565b6040516100a19190610ec6565b61015461014f366004610e46565b61038e565b6040516100a1929190610f46565b610175610170366004610e46565b6105dc565b6040516100a19190610fe6565b610094610190366004611022565b61067e565b606060005b82518110156101fb57816101c68483815181106101b9576101b9611045565b602002602001015161067e565b6040516020016101d792919061105b565b604051602081830303815290604052915080806101f3906110a0565b91505061019a565b50919050565b600080600080600080600080600060678a511015610222576010985061028b565b61022d8a60006106f9565b975061023a8a60016107c4565b96506102478a60156107c4565b95506102548a60296107c4565b94506102618a603d610884565b935061026e8a605d610944565b925061027b8a605f610a04565b91506102888a6063610a04565b90505b9193959799909294969850565b606060396102a76001826110b9565b835111156101fb5760008184516102be91906110cc565b90508067ffffffffffffffff8111156102d9576102d9610c27565b60405190808252806020026020018201604052801561032b57816020015b6040805160808101825260008082526020808301829052928201819052606082015282526000199092019101816102f75790505b50925060005b8181101561038657600061034584836110ee565b9050610355610170878387610ac4565b85838151811061036757610367611045565b602002602001018190525050808061037e906110a0565b915050610331565b505050919050565b6040805161010081018252600080825260208201819052918101829052606081018290526080810182905260a0810182905260c0810182905260e081018290526101c4835110156103e35760105b9150915091565b63a9f9e67560e01b6103f88460006004610ac4565b61040190611105565b6001600160e01b031916146104175760116103dc565b60008060008060008061043a6004808b5161043291906110b9565b8b9190610ac4565b80602001905181019061044d9190611185565b9550955095509550955095508160000361046b5760085b97506105d1565b6001600160a01b038416610480576009610464565b6001600160a01b038316158061049d57506001600160a01b038516155b806104af57506001600160a01b038616155b156104bb57600d610464565b60c4815110156104cc576010610464565b63ed1e963160e01b6104e18260006004610ac4565b6104ea90611105565b6001600160e01b03191614610500576011610464565b60ff88166105d1576000806000806000806000806105446105316004808c5161052991906110b9565b8c9190610ac4565b8060200190518101906100b89190611219565b9850985098509850985098509850509750879f506040518061010001604052808f6001600160a01b031681526020018e6001600160a01b031681526020018d6001600160a01b03168152602001866001600160a01b031681526020018581526020018461ffff1681526020018363ffffffff1681526020018263ffffffff168152509e5050505050505050505b505050505050915091565b604080516080810182526000808252602082018190529181018290526060810191909152603882511115610679576040805160808101909152806106218460006107c4565b6001600160a01b0316815260200161063a846014610884565b815260200161064a8460346106f9565b60ff161561065957600161065c565b60005b1515815260200161066e846035610a04565b63ffffffff16905290505b919050565b606081600001518260200151836040015184606001516040516020016106e3949392919060609490941b6bffffffffffffffffffffffff191684526014840192909252151560f81b603483015260e01b6001600160e01b031916603582015260390190565b6040516020818303038152906040529050919050565b60008161070781600161124e565b101561075a5760405162461bcd60e51b815260206004820152601060248201527f746f55696e74385f6f766572666c6f770000000000000000000000000000000060448201526064015b60405180910390fd5b61076582600161124e565b835110156107b55760405162461bcd60e51b815260206004820152601360248201527f746f55696e74385f6f75744f66426f756e6473000000000000000000000000006044820152606401610751565b50818101600101515b92915050565b6000816107d281601461124e565b10156108205760405162461bcd60e51b815260206004820152601260248201527f746f416464726573735f6f766572666c6f7700000000000000000000000000006044820152606401610751565b61082b82601461124e565b8351101561087b5760405162461bcd60e51b815260206004820152601560248201527f746f416464726573735f6f75744f66426f756e647300000000000000000000006044820152606401610751565b50016014015190565b60008161089281602061124e565b10156108e05760405162461bcd60e51b815260206004820152601260248201527f746f55696e743235365f6f766572666c6f7700000000000000000000000000006044820152606401610751565b6108eb82602061124e565b8351101561093b5760405162461bcd60e51b815260206004820152601560248201527f746f55696e743235365f6f75744f66426f756e647300000000000000000000006044820152606401610751565b50016020015190565b60008161095281600261124e565b10156109a05760405162461bcd60e51b815260206004820152601160248201527f746f55696e7431365f6f766572666c6f770000000000000000000000000000006044820152606401610751565b6109ab82600261124e565b835110156109fb5760405162461bcd60e51b815260206004820152601460248201527f746f55696e7431365f6f75744f66426f756e64730000000000000000000000006044820152606401610751565b50016002015190565b600081610a1281600461124e565b1015610a605760405162461bcd60e51b815260206004820152601160248201527f746f55696e7433325f6f766572666c6f770000000000000000000000000000006044820152606401610751565b610a6b82600461124e565b83511015610abb5760405162461bcd60e51b815260206004820152601460248201527f746f55696e7433325f6f75744f66426f756e64730000000000000000000000006044820152606401610751565b50016004015190565b606081610ad281601f61124e565b1015610b115760405162461bcd60e51b815260206004820152600e60248201526d736c6963655f6f766572666c6f7760901b6044820152606401610751565b82610b1c838261124e565b1015610b5b5760405162461bcd60e51b815260206004820152600e60248201526d736c6963655f6f766572666c6f7760901b6044820152606401610751565b610b65828461124e565b84511015610bb55760405162461bcd60e51b815260206004820152601160248201527f736c6963655f6f75744f66426f756e64730000000000000000000000000000006044820152606401610751565b606082158015610bd45760405191506000825260208201604052610c1e565b6040519150601f8416801560200281840101858101878315602002848b0101015b81831015610c0d578051835260209283019201610bf5565b5050858452601f01601f1916604052505b50949350505050565b634e487b7160e01b600052604160045260246000fd5b604051601f8201601f1916810167ffffffffffffffff81118282101715610c6657610c66610c27565b604052919050565b6001600160a01b0381168114610c8357600080fd5b50565b600060808284031215610c9857600080fd5b6040516080810181811067ffffffffffffffff82111715610cbb57610cbb610c27565b6040529050808235610ccc81610c6e565b81526020838101359082015260408301358015158114610ceb57600080fd5b6040820152606083013563ffffffff81168114610d0757600080fd5b6060919091015292915050565b60006020808385031215610d2757600080fd5b823567ffffffffffffffff80821115610d3f57600080fd5b818501915085601f830112610d5357600080fd5b813581811115610d6557610d65610c27565b610d73848260051b01610c3d565b818152848101925060079190911b830184019087821115610d9357600080fd5b928401925b81841015610dbc57610daa8885610c86565b83528483019250608084019350610d98565b979650505050505050565b60005b83811015610de2578181015183820152602001610dca565b50506000910152565b6020815260008251806020840152610e0a816040850160208701610dc7565b601f01601f19169190910160400192915050565b600067ffffffffffffffff821115610e3857610e38610c27565b50601f01601f191660200190565b600060208284031215610e5857600080fd5b813567ffffffffffffffff811115610e6f57600080fd5b8201601f81018413610e8057600080fd5b8035610e93610e8e82610e1e565b610c3d565b818152856020838501011115610ea857600080fd5b81602084016020830137600091810160200191909152949350505050565b6020808252825182820181905260009190848201906040850190845b81811015610f3a57610f278385516001600160a01b0381511682526020810151602083015260408101511515604083015263ffffffff60608201511660608301525050565b9284019260809290920191600101610ee2565b50909695505050505050565b60006101208201905060ff841682526001600160a01b03808451166020840152806020850151166040840152806040850151166060840152506060830151610f9960808401826001600160a01b03169052565b50608083015160a083015260a0830151610fb960c084018261ffff169052565b5060c083015163ffffffff811660e08401525060e083015163ffffffff8116610100840152509392505050565b81516001600160a01b031681526020808301519082015260408083015115159082015260608083015163ffffffff1690820152608081016107be565b60006080828403121561103457600080fd5b61103e8383610c86565b9392505050565b634e487b7160e01b600052603260045260246000fd5b6000835161106d818460208801610dc7565b835190830190611081818360208801610dc7565b01949350505050565b634e487b7160e01b600052601160045260246000fd5b6000600182016110b2576110b261108a565b5060010190565b818103818111156107be576107be61108a565b6000826110e957634e487b7160e01b600052601260045260246000fd5b500490565b80820281158282048414176107be576107be61108a565b805160208201516001600160e01b031980821692919060048310156103865760049290920360031b82901b161692915050565b600082601f83011261114957600080fd5b8151611157610e8e82610e1e565b81815284602083860101111561116c57600080fd5b61117d826020830160208701610dc7565b949350505050565b60008060008060008060c0878903121561119e57600080fd5b86516111a981610c6e565b60208801519096506111ba81610c6e565b60408801519095506111cb81610c6e565b60608801519094506111dc81610c6e565b608088015160a0890151919450925067ffffffffffffffff81111561120057600080fd5b61120c89828a01611138565b9150509295509295509295565b60006020828403121561122b57600080fd5b815167ffffffffffffffff81111561124257600080fd5b61117d84828501611138565b808201808211156107be576107be61108a56fea164736f6c6343000812000a",
  "linkReferences": {},
  "deployedLinkReferences": {}
}