{
  "_format": "hh-sol-artifact-1",
  "contractName": "LibFastWithdraw",
  "sourceName": "contracts/libraries/LibFastWithdraw.sol",
  "abi": [
    {
      "inputs": [
        {
          "internalType": "bytes",
          "name": "data",
          "type": "bytes"
        }
      ],
      "name": "decodeLiquidities",
      "outputs": [
        {
          "components": [
            {
              "internalType": "address",
              "name": "provider",
              "type": "address"
            },
            {
              "internalType": "uint256",
              "name": "amount",
              "type": "uint256"
            },
            {
              "internalType": "bool",
              "name": "isCandidate",
              "type": "bool"
            },
            {
              "internalType": "uint32",
              "name": "indexNo",
              "type": "uint32"
            }
          ],
          "internalType": "struct LibFastWithdraw.Liquidity[]",
          "name": "_liquidities",
          "type": "tuple[]"
        }
      ],
      "stateMutability": "pure",
      "type": "function"
    },
    {
      "inputs": [
        {
          "internalType": "bytes",
          "name": "data",
          "type": "bytes"
        }
      ],
      "name": "decodeLiquidity",
      "outputs": [
        {
          "components": [
            {
              "internalType": "address",
              "name": "provider",
              "type": "address"
            },
            {
              "internalType": "uint256",
              "name": "amount",
              "type": "uint256"
            },
            {
              "internalType": "bool",
              "name": "isCandidate",
              "type": "bool"
            },
            {
              "internalType": "uint32",
              "name": "indexNo",
              "type": "uint32"
            }
          ],
          "internalType": "struct LibFastWithdraw.Liquidity",
          "name": "_liq",
          "type": "tuple"
        }
      ],
      "stateMutability": "pure",
      "type": "function"
    },
    {
      "inputs": [
        {
          "components": [
            {
              "internalType": "address",
              "name": "provider",
              "type": "address"
            },
            {
              "internalType": "uint256",
              "name": "amount",
              "type": "uint256"
            },
            {
              "internalType": "bool",
              "name": "isCandidate",
              "type": "bool"
            },
            {
              "internalType": "uint32",
              "name": "indexNo",
              "type": "uint32"
            }
          ],
          "internalType": "struct LibFastWithdraw.Liquidity[]",
          "name": "_datas",
          "type": "tuple[]"
        }
      ],
      "name": "encodeLiquidities",
      "outputs": [
        {
          "internalType": "bytes",
          "name": "data",
          "type": "bytes"
        }
      ],
      "stateMutability": "pure",
      "type": "function"
    },
    {
      "inputs": [
        {
          "components": [
            {
              "internalType": "address",
              "name": "provider",
              "type": "address"
            },
            {
              "internalType": "uint256",
              "name": "amount",
              "type": "uint256"
            },
            {
              "internalType": "bool",
              "name": "isCandidate",
              "type": "bool"
            },
            {
              "internalType": "uint32",
              "name": "indexNo",
              "type": "uint32"
            }
          ],
          "internalType": "struct LibFastWithdraw.Liquidity",
          "name": "_data",
          "type": "tuple"
        }
      ],
      "name": "encodeLiquidity",
      "outputs": [
        {
          "internalType": "bytes",
          "name": "data",
          "type": "bytes"
        }
      ],
      "stateMutability": "pure",
      "type": "function"
    },
    {
      "inputs": [
        {
          "internalType": "bytes",
          "name": "data",
          "type": "bytes"
        }
      ],
      "name": "totalLiquidity",
      "outputs": [
        {
          "internalType": "uint256",
          "name": "amount",
          "type": "uint256"
        }
      ],
      "stateMutability": "pure",
      "type": "function"
    }
  ],
  "bytecode": "0x610cb861003a600b82828239805160001a60731461002d57634e487b7160e01b600052600060045260246000fd5b30600052607381538281f3fe73000000000000000000000000000000000000000030146080604052600436106100715760003560e01c80636340878a1161005a5780636340878a146100c0578063cd2e65d8146100e0578063d35daf6e1461010057600080fd5b80632d7ba4b41461007657806348cbe2af1461009f575b600080fd5b61008961008436600461095a565b610113565b6040516100969190610a31565b60405180910390f35b6100b26100ad366004610a64565b61017f565b604051908152602001610096565b6100d36100ce366004610a64565b6101e0565b6040516100969190610af9565b6100f36100ee366004610a64565b6102ce565b6040516100969190610b79565b61008961010e366004610bb5565b610370565b606060005b8251811015610179578161014484838151811061013757610137610bd8565b6020026020010151610370565b604051602001610155929190610bee565b6040516020818303038152906040529150808061017190610c33565b915050610118565b50919050565b60008061018b836101e0565b805190915060005b818110156101d8578281815181106101ad576101ad610bd8565b602002602001015160200151846101c49190610c4c565b9350806101d081610c33565b915050610193565b505050919050565b606060396101ef600182610c5f565b835111156101795760008184516102069190610c72565b90508067ffffffffffffffff81111561022157610221610871565b60405190808252806020026020018201604052801561027357816020015b60408051608081018252600080825260208083018290529282018190526060820152825260001990920191018161023f5790505b50925060005b818110156101d857600061028d8483610c94565b905061029d6100ee878387610403565b8583815181106102af576102af610bd8565b60200260200101819052505080806102c690610c33565b915050610279565b60408051608081018252600080825260208201819052918101829052606081019190915260388251111561036b5760408051608081019091528061031384600061056b565b6001600160a01b0316815260200161032c84601461062b565b815260200161033c8460346106f1565b60ff161561034b57600161034e565b60005b151581526020016103608460356107b1565b63ffffffff16905290505b919050565b606081600001518260200151836040015184606001516040516020016103ed949392919060609490941b6bffffffffffffffffffffffff191684526014840192909252151560f81b603483015260e01b7fffffffff0000000000000000000000000000000000000000000000000000000016603582015260390190565b6040516020818303038152906040529050919050565b60608161041181601f610c4c565b10156104555760405162461bcd60e51b815260206004820152600e60248201526d736c6963655f6f766572666c6f7760901b60448201526064015b60405180910390fd5b826104608382610c4c565b101561049f5760405162461bcd60e51b815260206004820152600e60248201526d736c6963655f6f766572666c6f7760901b604482015260640161044c565b6104a98284610c4c565b845110156104f95760405162461bcd60e51b815260206004820152601160248201527f736c6963655f6f75744f66426f756e6473000000000000000000000000000000604482015260640161044c565b6060821580156105185760405191506000825260208201604052610562565b6040519150601f8416801560200281840101858101878315602002848b0101015b81831015610551578051835260209283019201610539565b5050858452601f01601f1916604052505b50949350505050565b600081610579816014610c4c565b10156105c75760405162461bcd60e51b815260206004820152601260248201527f746f416464726573735f6f766572666c6f770000000000000000000000000000604482015260640161044c565b6105d2826014610c4c565b835110156106225760405162461bcd60e51b815260206004820152601560248201527f746f416464726573735f6f75744f66426f756e64730000000000000000000000604482015260640161044c565b50016014015190565b600081610639816020610c4c565b10156106875760405162461bcd60e51b815260206004820152601260248201527f746f55696e743235365f6f766572666c6f770000000000000000000000000000604482015260640161044c565b610692826020610c4c565b835110156106e25760405162461bcd60e51b815260206004820152601560248201527f746f55696e743235365f6f75744f66426f756e64730000000000000000000000604482015260640161044c565b50818101602001515b92915050565b6000816106ff816001610c4c565b101561074d5760405162461bcd60e51b815260206004820152601060248201527f746f55696e74385f6f766572666c6f7700000000000000000000000000000000604482015260640161044c565b610758826001610c4c565b835110156107a85760405162461bcd60e51b815260206004820152601360248201527f746f55696e74385f6f75744f66426f756e647300000000000000000000000000604482015260640161044c565b50016001015190565b6000816107bf816004610c4c565b101561080d5760405162461bcd60e51b815260206004820152601160248201527f746f55696e7433325f6f766572666c6f77000000000000000000000000000000604482015260640161044c565b610818826004610c4c565b835110156108685760405162461bcd60e51b815260206004820152601460248201527f746f55696e7433325f6f75744f66426f756e6473000000000000000000000000604482015260640161044c565b50016004015190565b634e487b7160e01b600052604160045260246000fd5b604051601f8201601f1916810167ffffffffffffffff811182821017156108b0576108b0610871565b604052919050565b803563ffffffff8116811461036b57600080fd5b6000608082840312156108de57600080fd5b6040516080810181811067ffffffffffffffff8211171561090157610901610871565b60405290508082356001600160a01b038116811461091e57600080fd5b8152602083810135908201526040830135801515811461093d57600080fd5b604082015261094e606084016108b8565b60608201525092915050565b6000602080838503121561096d57600080fd5b823567ffffffffffffffff8082111561098557600080fd5b818501915085601f83011261099957600080fd5b8135818111156109ab576109ab610871565b6109b9848260051b01610887565b818152848101925060079190911b8301840190878211156109d957600080fd5b928401925b81841015610a02576109f088856108cc565b835284830192506080840193506109de565b979650505050505050565b60005b83811015610a28578181015183820152602001610a10565b50506000910152565b6020815260008251806020840152610a50816040850160208701610a0d565b601f01601f19169190910160400192915050565b60006020808385031215610a7757600080fd5b823567ffffffffffffffff80821115610a8f57600080fd5b818501915085601f830112610aa357600080fd5b813581811115610ab557610ab5610871565b610ac7601f8201601f19168501610887565b91508082528684828501011115610add57600080fd5b8084840185840137600090820190930192909252509392505050565b6020808252825182820181905260009190848201906040850190845b81811015610b6d57610b5a8385516001600160a01b0381511682526020810151602083015260408101511515604083015263ffffffff60608201511660608301525050565b9284019260809290920191600101610b15565b50909695505050505050565b81516001600160a01b031681526020808301519082015260408083015115159082015260608083015163ffffffff1690820152608081016106eb565b600060808284031215610bc757600080fd5b610bd183836108cc565b9392505050565b634e487b7160e01b600052603260045260246000fd5b60008351610c00818460208801610a0d565b835190830190610c14818360208801610a0d565b01949350505050565b634e487b7160e01b600052601160045260246000fd5b600060018201610c4557610c45610c1d565b5060010190565b808201808211156106eb576106eb610c1d565b818103818111156106eb576106eb610c1d565b600082610c8f57634e487b7160e01b600052601260045260246000fd5b500490565b80820281158282048414176106eb576106eb610c1d56fea164736f6c6343000812000a",
  "linkReferences": {},
  "deployedLinkReferences": {}
}