{
  "_format": "hh-sol-artifact-1",
  "contractName": "LibFastWithdraw",
  "sourceName": "contracts/libraries/LibFastWithdraw.sol",
  "abi": [
    {
      "inputs": [
        {
          "internalType": "bytes",
          "name": "data",
          "type": "bytes"
        }
      ],
      "name": "decodeLiquidities",
      "outputs": [
        {
          "components": [
            {
              "internalType": "address",
              "name": "provider",
              "type": "address"
            },
            {
              "internalType": "uint256",
              "name": "amount",
              "type": "uint256"
            },
            {
              "internalType": "bool",
              "name": "isCandidate",
              "type": "bool"
            },
            {
              "internalType": "uint32",
              "name": "indexNo",
              "type": "uint32"
            }
          ],
          "internalType": "struct LibFastWithdraw.Liquidity[]",
          "name": "_liquidities",
          "type": "tuple[]"
        }
      ],
      "stateMutability": "pure",
      "type": "function"
    },
    {
      "inputs": [
        {
          "internalType": "bytes",
          "name": "data",
          "type": "bytes"
        }
      ],
      "name": "decodeLiquidity",
      "outputs": [
        {
          "components": [
            {
              "internalType": "address",
              "name": "provider",
              "type": "address"
            },
            {
              "internalType": "uint256",
              "name": "amount",
              "type": "uint256"
            },
            {
              "internalType": "bool",
              "name": "isCandidate",
              "type": "bool"
            },
            {
              "internalType": "uint32",
              "name": "indexNo",
              "type": "uint32"
            }
          ],
          "internalType": "struct LibFastWithdraw.Liquidity",
          "name": "_liq",
          "type": "tuple"
        }
      ],
      "stateMutability": "pure",
      "type": "function"
    },
    {
      "inputs": [
        {
          "components": [
            {
              "internalType": "address",
              "name": "provider",
              "type": "address"
            },
            {
              "internalType": "uint256",
              "name": "amount",
              "type": "uint256"
            },
            {
              "internalType": "bool",
              "name": "isCandidate",
              "type": "bool"
            },
            {
              "internalType": "uint32",
              "name": "indexNo",
              "type": "uint32"
            }
          ],
          "internalType": "struct LibFastWithdraw.Liquidity[]",
          "name": "_datas",
          "type": "tuple[]"
        }
      ],
      "name": "encodeLiquidities",
      "outputs": [
        {
          "internalType": "bytes",
          "name": "data",
          "type": "bytes"
        }
      ],
      "stateMutability": "pure",
      "type": "function"
    },
    {
      "inputs": [
        {
          "components": [
            {
              "internalType": "address",
              "name": "provider",
              "type": "address"
            },
            {
              "internalType": "uint256",
              "name": "amount",
              "type": "uint256"
            },
            {
              "internalType": "bool",
              "name": "isCandidate",
              "type": "bool"
            },
            {
              "internalType": "uint32",
              "name": "indexNo",
              "type": "uint32"
            }
          ],
          "internalType": "struct LibFastWithdraw.Liquidity",
          "name": "_data",
          "type": "tuple"
        }
      ],
      "name": "encodeLiquidity",
      "outputs": [
        {
          "internalType": "bytes",
          "name": "data",
          "type": "bytes"
        }
      ],
      "stateMutability": "pure",
      "type": "function"
    },
    {
      "inputs": [
        {
          "internalType": "bytes",
          "name": "fwReceiptBytes",
          "type": "bytes"
        }
      ],
      "name": "parseFwReceiptBytes",
      "outputs": [
        {
          "internalType": "uint8",
          "name": "status",
          "type": "uint8"
        },
        {
          "internalType": "uint8",
          "name": "version",
          "type": "uint8"
        },
        {
          "internalType": "address",
          "name": "l2ton",
          "type": "address"
        },
        {
          "internalType": "address",
          "name": "requestor",
          "type": "address"
        },
        {
          "internalType": "address",
          "name": "fwReceipt",
          "type": "address"
        },
        {
          "internalType": "uint256",
          "name": "fwamount",
          "type": "uint256"
        },
        {
          "internalType": "uint16",
          "name": "feeRates",
          "type": "uint16"
        },
        {
          "internalType": "uint32",
          "name": "deadline",
          "type": "uint32"
        },
        {
          "internalType": "uint32",
          "name": "layerIndex",
          "type": "uint32"
        }
      ],
      "stateMutability": "pure",
      "type": "function"
    },
    {
      "inputs": [
        {
          "internalType": "bytes",
          "name": "data",
          "type": "bytes"
        }
      ],
      "name": "parseRelayMessage",
      "outputs": [
        {
          "internalType": "uint8",
          "name": "",
          "type": "uint8"
        },
        {
          "components": [
            {
              "internalType": "address",
              "name": "l1ton",
              "type": "address"
            },
            {
              "internalType": "address",
              "name": "l2ton",
              "type": "address"
            },
            {
              "internalType": "address",
              "name": "requestor",
              "type": "address"
            },
            {
              "internalType": "address",
              "name": "fwReceipt",
              "type": "address"
            },
            {
              "internalType": "uint256",
              "name": "amount",
              "type": "uint256"
            },
            {
              "internalType": "uint16",
              "name": "feeRates",
              "type": "uint16"
            },
            {
              "internalType": "uint32",
              "name": "deadline",
              "type": "uint32"
            },
            {
              "internalType": "uint32",
              "name": "layerIndex",
              "type": "uint32"
            }
          ],
          "internalType": "struct LibFastWithdraw.Request",
          "name": "",
          "type": "tuple"
        },
        {
          "internalType": "address",
          "name": "",
          "type": "address"
        },
        {
          "internalType": "address",
          "name": "",
          "type": "address"
        }
      ],
      "stateMutability": "pure",
      "type": "function"
    },
    {
      "inputs": [
        {
          "internalType": "bytes",
          "name": "data",
          "type": "bytes"
        }
      ],
      "name": "totalLiquidity",
      "outputs": [
        {
          "internalType": "uint256",
          "name": "amount",
          "type": "uint256"
        }
      ],
      "stateMutability": "pure",
      "type": "function"
    }
  ],
  "bytecode": "0x61141461003a600b82828239805160001a60731461002d57634e487b7160e01b600052600060045260246000fd5b30600052607381538281f3fe73000000000000000000000000000000000000000030146080604052600436106100875760003560e01c80636340878a116100655780636340878a1461014d578063cd2e65d81461016d578063d35daf6e1461018d578063e358ed12146101a057600080fd5b80632d7ba4b41461008c57806348cbe2af146100b5578063597bd119146100d6575b600080fd5b61009f61009a366004610e2c565b6101c3565b6040516100ac9190610f03565b60405180910390f35b6100c86100c3366004610f5e565b61022f565b6040519081526020016100ac565b6100e96100e4366004610f5e565b610290565b6040805160ff9a8b1681529990981660208a01526001600160a01b0396871697890197909752938516606088015293909116608086015260a085015261ffff90911660c084015263ffffffff90811660e084015216610100820152610120016100ac565b61016061015b366004610f5e565b610327565b6040516100ac9190610fde565b61018061017b366004610f5e565b610415565b6040516100ac919061105e565b61009f61019b36600461109a565b6104b7565b6101b36101ae366004610f5e565b610532565b6040516100ac94939291906110bd565b606060005b825181101561022957816101f48483815181106101e7576101e761117f565b60200260200101516104b7565b604051602001610205929190611195565b60405160208183030381529060405291508080610221906111da565b9150506101c8565b50919050565b60008061023b83610327565b805190915060005b818110156102885782818151811061025d5761025d61117f565b6020026020010151602001518461027491906111f3565b935080610280816111da565b915050610243565b505050919050565b600080600080600080600080600060678a5110156102b1576010985061031a565b6102bc8a6000610811565b97506102c98a60016108dc565b96506102d68a60156108dc565b95506102e38a60296108dc565b94506102f08a603d61099c565b93506102fd8a605d610a5c565b925061030a8a605f610b1c565b91506103178a6063610b1c565b90505b9193959799909294969850565b60606039610336600182611206565b8351111561022957600081845161034d9190611219565b90508067ffffffffffffffff81111561036857610368610d3f565b6040519080825280602002602001820160405280156103ba57816020015b6040805160808101825260008082526020808301829052928201819052606082015282526000199092019101816103865790505b50925060005b818110156102885760006103d4848361123b565b90506103e461017b878387610bdc565b8583815181106103f6576103f661117f565b602002602001018190525050808061040d906111da565b9150506103c0565b6040805160808101825260008082526020820181905291810182905260608101919091526038825111156104b25760408051608081019091528061045a8460006108dc565b6001600160a01b0316815260200161047384601461099c565b8152602001610483846034610811565b60ff1615610492576001610495565b60005b151581526020016104a7846035610b1c565b63ffffffff16905290505b919050565b6060816000015182602001518360400151846060015160405160200161051c949392919060609490941b6bffffffffffffffffffffffff191684526014840192909252151560f81b603483015260e01b6001600160e01b031916603582015260390190565b6040516020818303038152906040529050919050565b6040805161010081018252600080825260208201819052918101829052606081018290526080810182905260a0810182905260c0810182905260e081018290526040805161010081018252600080825260208201819052918101829052606081018290526080810182905260a0810182905260c0810182905260e081018290528451829182918291829161012b11156105cf5760105b9350610802565b63cbd4ece960e01b6105e48a60006004610bdc565b6105ed90611252565b6001600160e01b031916146106035760116105c8565b604080516000815260208101909152895161062e90600490610626908290611206565b8c9190610bdc565b80602001905181019061064191906112d2565b5080935081955082965050505060008060008060008061067160048089516106699190611206565b899190610bdc565b806020019051810190610684919061133e565b955095509550955095509550816000036106a25760085b9a506107fa565b6001600160a01b0384166106b757600961069b565b6001600160a01b03831615806106d457506001600160a01b038516155b806106e657506001600160a01b038616155b156106f257600d61069b565b60678151101561070357601061069b565b63ed1e963160e01b6107188260006004610bdc565b61072190611252565b6001600160e01b0319161461073757601161069b565b60ff8b166107fa57600080600080610775610762600480885161075a9190611206565b889190610bdc565b8060200190518101906100e491906113d2565b98509850985050505050509350839e506040518061010001604052808b6001600160a01b031681526020018a6001600160a01b03168152602001896001600160a01b03168152602001886001600160a01b031681526020018781526020018461ffff1681526020018363ffffffff1681526020018263ffffffff168152509b50505050505b505050505050505b92989297509095509350915050565b60008161081f8160016111f3565b10156108725760405162461bcd60e51b815260206004820152601060248201527f746f55696e74385f6f766572666c6f770000000000000000000000000000000060448201526064015b60405180910390fd5b61087d8260016111f3565b835110156108cd5760405162461bcd60e51b815260206004820152601360248201527f746f55696e74385f6f75744f66426f756e6473000000000000000000000000006044820152606401610869565b50818101600101515b92915050565b6000816108ea8160146111f3565b10156109385760405162461bcd60e51b815260206004820152601260248201527f746f416464726573735f6f766572666c6f7700000000000000000000000000006044820152606401610869565b6109438260146111f3565b835110156109935760405162461bcd60e51b815260206004820152601560248201527f746f416464726573735f6f75744f66426f756e647300000000000000000000006044820152606401610869565b50016014015190565b6000816109aa8160206111f3565b10156109f85760405162461bcd60e51b815260206004820152601260248201527f746f55696e743235365f6f766572666c6f7700000000000000000000000000006044820152606401610869565b610a038260206111f3565b83511015610a535760405162461bcd60e51b815260206004820152601560248201527f746f55696e743235365f6f75744f66426f756e647300000000000000000000006044820152606401610869565b50016020015190565b600081610a6a8160026111f3565b1015610ab85760405162461bcd60e51b815260206004820152601160248201527f746f55696e7431365f6f766572666c6f770000000000000000000000000000006044820152606401610869565b610ac38260026111f3565b83511015610b135760405162461bcd60e51b815260206004820152601460248201527f746f55696e7431365f6f75744f66426f756e64730000000000000000000000006044820152606401610869565b50016002015190565b600081610b2a8160046111f3565b1015610b785760405162461bcd60e51b815260206004820152601160248201527f746f55696e7433325f6f766572666c6f770000000000000000000000000000006044820152606401610869565b610b838260046111f3565b83511015610bd35760405162461bcd60e51b815260206004820152601460248201527f746f55696e7433325f6f75744f66426f756e64730000000000000000000000006044820152606401610869565b50016004015190565b606081610bea81601f6111f3565b1015610c295760405162461bcd60e51b815260206004820152600e60248201526d736c6963655f6f766572666c6f7760901b6044820152606401610869565b82610c3483826111f3565b1015610c735760405162461bcd60e51b815260206004820152600e60248201526d736c6963655f6f766572666c6f7760901b6044820152606401610869565b610c7d82846111f3565b84511015610ccd5760405162461bcd60e51b815260206004820152601160248201527f736c6963655f6f75744f66426f756e64730000000000000000000000000000006044820152606401610869565b606082158015610cec5760405191506000825260208201604052610d36565b6040519150601f8416801560200281840101858101878315602002848b0101015b81831015610d25578051835260209283019201610d0d565b5050858452601f01601f1916604052505b50949350505050565b634e487b7160e01b600052604160045260246000fd5b604051601f8201601f1916810167ffffffffffffffff81118282101715610d7e57610d7e610d3f565b604052919050565b6001600160a01b0381168114610d9b57600080fd5b50565b600060808284031215610db057600080fd5b6040516080810181811067ffffffffffffffff82111715610dd357610dd3610d3f565b6040529050808235610de481610d86565b81526020838101359082015260408301358015158114610e0357600080fd5b6040820152606083013563ffffffff81168114610e1f57600080fd5b6060919091015292915050565b60006020808385031215610e3f57600080fd5b823567ffffffffffffffff80821115610e5757600080fd5b818501915085601f830112610e6b57600080fd5b813581811115610e7d57610e7d610d3f565b610e8b848260051b01610d55565b818152848101925060079190911b830184019087821115610eab57600080fd5b928401925b81841015610ed457610ec28885610d9e565b83528483019250608084019350610eb0565b979650505050505050565b60005b83811015610efa578181015183820152602001610ee2565b50506000910152565b6020815260008251806020840152610f22816040850160208701610edf565b601f01601f19169190910160400192915050565b600067ffffffffffffffff821115610f5057610f50610d3f565b50601f01601f191660200190565b600060208284031215610f7057600080fd5b813567ffffffffffffffff811115610f8757600080fd5b8201601f81018413610f9857600080fd5b8035610fab610fa682610f36565b610d55565b818152856020838501011115610fc057600080fd5b81602084016020830137600091810160200191909152949350505050565b6020808252825182820181905260009190848201906040850190845b818110156110525761103f8385516001600160a01b0381511682526020810151602083015260408101511515604083015263ffffffff60608201511660608301525050565b9284019260809290920191600101610ffa565b50909695505050505050565b81516001600160a01b031681526020808301519082015260408083015115159082015260608083015163ffffffff1690820152608081016108d6565b6000608082840312156110ac57600080fd5b6110b68383610d9e565b9392505050565b60006101608201905060ff861682526001600160a01b0380865116602084015280602087015116604084015280604087015116606084015250606085015161111060808401826001600160a01b03169052565b50608085015160a083015260a085015161113060c084018261ffff169052565b5060c085015163ffffffff811660e08401525060e085015163ffffffff8116610100840152506001600160a01b0384166101208301526001600160a01b03831661014083015295945050505050565b634e487b7160e01b600052603260045260246000fd5b600083516111a7818460208801610edf565b8351908301906111bb818360208801610edf565b01949350505050565b634e487b7160e01b600052601160045260246000fd5b6000600182016111ec576111ec6111c4565b5060010190565b808201808211156108d6576108d66111c4565b818103818111156108d6576108d66111c4565b60008261123657634e487b7160e01b600052601260045260246000fd5b500490565b80820281158282048414176108d6576108d66111c4565b805160208201516001600160e01b031980821692919060048310156102885760049290920360031b82901b161692915050565b600082601f83011261129657600080fd5b81516112a4610fa682610f36565b8181528460208386010111156112b957600080fd5b6112ca826020830160208701610edf565b949350505050565b600080600080608085870312156112e857600080fd5b84516112f381610d86565b602086015190945061130481610d86565b604086015190935067ffffffffffffffff81111561132157600080fd5b61132d87828801611285565b606096909601519497939650505050565b60008060008060008060c0878903121561135757600080fd5b865161136281610d86565b602088015190965061137381610d86565b604088015190955061138481610d86565b606088015190945061139581610d86565b608088015160a0890151919450925067ffffffffffffffff8111156113b957600080fd5b6113c589828a01611285565b9150509295509295509295565b6000602082840312156113e457600080fd5b815167ffffffffffffffff8111156113fb57600080fd5b6112ca8482850161128556fea164736f6c6343000812000a",
  "linkReferences": {},
  "deployedLinkReferences": {}
}