{
  "_format": "hh-sol-artifact-1",
  "contractName": "LibFastWithdraw",
  "sourceName": "contracts/libraries/LibFastWithdraw.sol",
  "abi": [
    {
      "inputs": [
        {
          "internalType": "bytes",
          "name": "data",
          "type": "bytes"
        }
      ],
      "name": "parseTx",
      "outputs": [
        {
          "components": [
            {
              "internalType": "address",
              "name": "requestor",
              "type": "address"
            },
            {
              "internalType": "uint256",
              "name": "amount",
              "type": "uint256"
            },
            {
              "internalType": "uint16",
              "name": "feeRates",
              "type": "uint16"
            },
            {
              "internalType": "uint32",
              "name": "deadline",
              "type": "uint32"
            },
            {
              "internalType": "uint32",
              "name": "layerIndex",
              "type": "uint32"
            }
          ],
          "internalType": "struct LibFastWithdraw.Request",
          "name": "info",
          "type": "tuple"
        }
      ],
      "stateMutability": "pure",
      "type": "function"
    }
  ],
  "bytecode": "0x61074661003a600b82828239805160001a60731461002d57634e487b7160e01b600052600060045260246000fd5b30600052607381538281f3fe73000000000000000000000000000000000000000030146080604052600436106100355760003560e01c8063536461bc1461003a575b600080fd5b61004d610048366004610630565b6100be565b6040516100b59190600060a08201905073ffffffffffffffffffffffffffffffffffffffff83511682526020830151602083015261ffff6040840151166040830152606083015163ffffffff8082166060850152806080860151166080850152505092915050565b60405180910390f35b6040805160a081018252600080825260208201819052918101829052606081018290526080810191909152815163dddddddd60e01b90604110801561012b57506001600160e01b0319811661011684600060046101b4565b61011f906106e1565b6001600160e01b031916145b156101ae576040805160a081019091528061014785600461031c565b73ffffffffffffffffffffffffffffffffffffffff16815260200161016d8560186103f2565b815260200161017d8560386104b2565b61ffff16815260200161019185603a610566565b61ffff1681526020016101a585603e610566565b61ffff16905291505b50919050565b6060816101c281601f610718565b10156102065760405162461bcd60e51b815260206004820152600e60248201526d736c6963655f6f766572666c6f7760901b60448201526064015b60405180910390fd5b826102118382610718565b10156102505760405162461bcd60e51b815260206004820152600e60248201526d736c6963655f6f766572666c6f7760901b60448201526064016101fd565b61025a8284610718565b845110156102aa5760405162461bcd60e51b815260206004820152601160248201527f736c6963655f6f75744f66426f756e647300000000000000000000000000000060448201526064016101fd565b6060821580156102c95760405191506000825260208201604052610313565b6040519150601f8416801560200281840101858101878315602002848b0101015b818310156103025780518352602092830192016102ea565b5050858452601f01601f1916604052505b50949350505050565b60008161032a816014610718565b10156103785760405162461bcd60e51b815260206004820152601260248201527f746f416464726573735f6f766572666c6f77000000000000000000000000000060448201526064016101fd565b610383826014610718565b835110156103d35760405162461bcd60e51b815260206004820152601560248201527f746f416464726573735f6f75744f66426f756e6473000000000000000000000060448201526064016101fd565b50818101602001516c0100000000000000000000000090045b92915050565b600081610400816020610718565b101561044e5760405162461bcd60e51b815260206004820152601260248201527f746f55696e743235365f6f766572666c6f77000000000000000000000000000060448201526064016101fd565b610459826020610718565b835110156104a95760405162461bcd60e51b815260206004820152601560248201527f746f55696e743235365f6f75744f66426f756e6473000000000000000000000060448201526064016101fd565b50016020015190565b6000816104c0816002610718565b10156105025760405162461bcd60e51b8152602060048201526011602482015270746f55696e7431365f6f766572666c6f7760781b60448201526064016101fd565b61050d826002610718565b8351101561055d5760405162461bcd60e51b815260206004820152601460248201527f746f55696e7431365f6f75744f66426f756e647300000000000000000000000060448201526064016101fd565b50016002015190565b600081610574816004610718565b10156105b65760405162461bcd60e51b8152602060048201526011602482015270746f55696e7431365f6f766572666c6f7760781b60448201526064016101fd565b6105c1826004610718565b835110156106115760405162461bcd60e51b815260206004820152601460248201527f746f55696e7431365f6f75744f66426f756e647300000000000000000000000060448201526064016101fd565b50016004015190565b634e487b7160e01b600052604160045260246000fd5b60006020828403121561064257600080fd5b813567ffffffffffffffff8082111561065a57600080fd5b818401915084601f83011261066e57600080fd5b8135818111156106805761068061061a565b604051601f8201601f19908116603f011681019083821181831017156106a8576106a861061a565b816040528281528760208487010111156106c157600080fd5b826020860160208301376000928101602001929092525095945050505050565b805160208201516001600160e01b031980821692919060048310156107105780818460040360031b1b83161693505b505050919050565b808201808211156103ec57634e487b7160e01b600052601160045260246000fdfea164736f6c6343000812000a",
  "linkReferences": {},
  "deployedLinkReferences": {}
}