{
  "_format": "hh-sol-artifact-1",
  "contractName": "LibOperator",
  "sourceName": "contracts/libraries/LibOperator.sol",
  "abi": [
    {
      "inputs": [
        {
          "internalType": "address",
          "name": "operator",
          "type": "address"
        },
        {
          "internalType": "uint32",
          "name": "sequencerIndex",
          "type": "uint32"
        }
      ],
      "name": "getKey",
      "outputs": [
        {
          "internalType": "bytes32",
          "name": "key_",
          "type": "bytes32"
        }
      ],
      "stateMutability": "pure",
      "type": "function"
    }
  ],
  "bytecode": "0x61012e61003a600b82828239805160001a60731461002d57634e487b7160e01b600052600060045260246000fd5b30600052607381538281f3fe73000000000000000000000000000000000000000030146080604052600436106100355760003560e01c8063ef8d7d7c1461003a575b600080fd5b6100b46100483660046100c6565b6040516bffffffffffffffffffffffff19606084901b1660208201527fffffffff0000000000000000000000000000000000000000000000000000000060e083901b16603482015260009060380160405160208183030381529060405280519060200120905092915050565b60405190815260200160405180910390f35b600080604083850312156100d957600080fd5b823573ffffffffffffffffffffffffffffffffffffffff811681146100fd57600080fd5b9150602083013563ffffffff8116811461011657600080fd5b80915050925092905056fea164736f6c6343000812000a",
  "linkReferences": {},
  "deployedLinkReferences": {}
}