{
  "_format": "hh-sol-artifact-1",
  "contractName": "LibOperator",
  "sourceName": "contracts/libraries/LibOperator.sol",
  "abi": [
    {
      "inputs": [
        {
          "internalType": "address",
          "name": "addressManager",
          "type": "address"
        },
        {
          "internalType": "address",
          "name": "l1Messenger",
          "type": "address"
        },
        {
          "internalType": "address",
          "name": "l1Bridge",
          "type": "address"
        },
        {
          "internalType": "address",
          "name": "l2ton",
          "type": "address"
        }
      ],
      "name": "getKey",
      "outputs": [
        {
          "internalType": "bytes32",
          "name": "key_",
          "type": "bytes32"
        }
      ],
      "stateMutability": "pure",
      "type": "function"
    },
    {
      "inputs": [
        {
          "internalType": "address",
          "name": "operator",
          "type": "address"
        },
        {
          "internalType": "uint32",
          "name": "sequencerIndex",
          "type": "uint32"
        }
      ],
      "name": "getKey",
      "outputs": [
        {
          "internalType": "bytes32",
          "name": "key_",
          "type": "bytes32"
        }
      ],
      "stateMutability": "pure",
      "type": "function"
    },
    {
      "inputs": [
        {
          "internalType": "bytes",
          "name": "data",
          "type": "bytes"
        }
      ],
      "name": "parseKey",
      "outputs": [
        {
          "components": [
            {
              "internalType": "address",
              "name": "operator",
              "type": "address"
            },
            {
              "internalType": "uint32",
              "name": "sequencerIndex",
              "type": "uint32"
            },
            {
              "internalType": "uint16",
              "name": "commission",
              "type": "uint16"
            }
          ],
          "internalType": "struct LibOperator.Info",
          "name": "info",
          "type": "tuple"
        }
      ],
      "stateMutability": "pure",
      "type": "function"
    }
  ],
  "bytecode": "0x6105ef61003a600b82828239805160001a60731461002d57634e487b7160e01b600052600060045260246000fd5b30600052607381538281f3fe730000000000000000000000000000000000000000301460806040526004361061004b5760003560e01c806361b2a1bc14610050578063cd13ec871461009d578063ef8d7d7c14610119575b600080fd5b61006361005e366004610465565b610193565b6040805182516001600160a01b0316815260208084015163ffffffff16908201529181015161ffff16908201526060015b60405180910390f35b61010b6100ab36600461052d565b6040516bffffffffffffffffffffffff19606086811b8216602084015285811b8216603484015284811b8216604884015283901b16605c820152600090607001604051602081830303815290604052805190602001209050949350505050565b604051908152602001610094565b61010b610127366004610581565b6040516bffffffffffffffffffffffff19606084901b1660208201527fffffffff0000000000000000000000000000000000000000000000000000000060e083901b16603482015260009060380160405160208183030381529060405280519060200120905092915050565b6040805160608101825260008082526020820181905291810191909152601982511115610207576040805160608101909152806101d184600061020c565b6001600160a01b031681526020016101ea8460146102e7565b61ffff1681526020016101fe84601861039b565b61ffff16905290505b919050565b60008161021a8160146105c1565b101561026d5760405162461bcd60e51b815260206004820152601260248201527f746f416464726573735f6f766572666c6f77000000000000000000000000000060448201526064015b60405180910390fd5b6102788260146105c1565b835110156102c85760405162461bcd60e51b815260206004820152601560248201527f746f416464726573735f6f75744f66426f756e647300000000000000000000006044820152606401610264565b50818101602001516c0100000000000000000000000090045b92915050565b6000816102f58160046105c1565b10156103375760405162461bcd60e51b8152602060048201526011602482015270746f55696e7431365f6f766572666c6f7760781b6044820152606401610264565b6103428260046105c1565b835110156103925760405162461bcd60e51b815260206004820152601460248201527f746f55696e7431365f6f75744f66426f756e64730000000000000000000000006044820152606401610264565b50016004015190565b6000816103a98160026105c1565b10156103eb5760405162461bcd60e51b8152602060048201526011602482015270746f55696e7431365f6f766572666c6f7760781b6044820152606401610264565b6103f68260026105c1565b835110156104465760405162461bcd60e51b815260206004820152601460248201527f746f55696e7431365f6f75744f66426f756e64730000000000000000000000006044820152606401610264565b50016002015190565b634e487b7160e01b600052604160045260246000fd5b60006020828403121561047757600080fd5b813567ffffffffffffffff8082111561048f57600080fd5b818401915084601f8301126104a357600080fd5b8135818111156104b5576104b561044f565b604051601f8201601f19908116603f011681019083821181831017156104dd576104dd61044f565b816040528281528760208487010111156104f657600080fd5b826020860160208301376000928101602001929092525095945050505050565b80356001600160a01b038116811461020757600080fd5b6000806000806080858703121561054357600080fd5b61054c85610516565b935061055a60208601610516565b925061056860408601610516565b915061057660608601610516565b905092959194509250565b6000806040838503121561059457600080fd5b61059d83610516565b9150602083013563ffffffff811681146105b657600080fd5b809150509250929050565b808201808211156102e157634e487b7160e01b600052601160045260246000fdfea164736f6c6343000812000a",
  "linkReferences": {},
  "deployedLinkReferences": {}
}