{
  "_format": "hh-sol-artifact-1",
  "contractName": "LibOperator",
  "sourceName": "contracts/libraries/LibOperator.sol",
  "abi": [
    {
      "inputs": [
        {
          "internalType": "address",
          "name": "operator",
          "type": "address"
        },
        {
          "internalType": "uint32",
          "name": "sequencerIndex",
          "type": "uint32"
        }
      ],
      "name": "getKey",
      "outputs": [
        {
          "internalType": "bytes32",
          "name": "key_",
          "type": "bytes32"
        }
      ],
      "stateMutability": "pure",
      "type": "function"
    },
    {
      "inputs": [
        {
          "internalType": "bytes",
          "name": "data",
          "type": "bytes"
        }
      ],
      "name": "parseKey",
      "outputs": [
        {
          "components": [
            {
              "internalType": "address",
              "name": "operator",
              "type": "address"
            },
            {
              "internalType": "uint32",
              "name": "sequencerIndex",
              "type": "uint32"
            },
            {
              "internalType": "uint16",
              "name": "commission",
              "type": "uint16"
            }
          ],
          "internalType": "struct LibOperator.Info",
          "name": "info",
          "type": "tuple"
        }
      ],
      "stateMutability": "pure",
      "type": "function"
    }
  ],
  "bytecode": "0x61052c61003a600b82828239805160001a60731461002d57634e487b7160e01b600052600060045260246000fd5b30600052607381538281f3fe73000000000000000000000000000000000000000030146080604052600436106100405760003560e01c806361b2a1bc14610045578063ef8d7d7c14610092575b600080fd5b6100586100533660046103ff565b61011a565b6040805182516001600160a01b0316815260208084015163ffffffff16908201529181015161ffff16908201526060015b60405180910390f35b61010c6100a03660046104b0565b6040516bffffffffffffffffffffffff19606084901b1660208201527fffffffff0000000000000000000000000000000000000000000000000000000060e083901b16603482015260009060380160405160208183030381529060405280519060200120905092915050565b604051908152602001610089565b60408051606081018252600080825260208201819052918101919091526019825111156101995760408051606081019091528061015884600061019e565b6001600160a01b03168152602001610171846014610263565b63ffffffff16815260200161019060188561032990919063ffffffff16565b61ffff16905290505b919050565b6000816101ac8160146104fe565b10156101ff5760405162461bcd60e51b815260206004820152601260248201527f746f416464726573735f6f766572666c6f77000000000000000000000000000060448201526064015b60405180910390fd5b61020a8260146104fe565b8351101561025a5760405162461bcd60e51b815260206004820152601560248201527f746f416464726573735f6f75744f66426f756e6473000000000000000000000060448201526064016101f6565b50016014015190565b6000816102718160046104fe565b10156102bf5760405162461bcd60e51b815260206004820152601160248201527f746f55696e7433325f6f766572666c6f7700000000000000000000000000000060448201526064016101f6565b6102ca8260046104fe565b8351101561031a5760405162461bcd60e51b815260206004820152601460248201527f746f55696e7433325f6f75744f66426f756e647300000000000000000000000060448201526064016101f6565b50818101600401515b92915050565b6000816103378160026104fe565b10156103855760405162461bcd60e51b815260206004820152601160248201527f746f55696e7431365f6f766572666c6f7700000000000000000000000000000060448201526064016101f6565b6103908260026104fe565b835110156103e05760405162461bcd60e51b815260206004820152601460248201527f746f55696e7431365f6f75744f66426f756e647300000000000000000000000060448201526064016101f6565b50016002015190565b634e487b7160e01b600052604160045260246000fd5b60006020828403121561041157600080fd5b813567ffffffffffffffff8082111561042957600080fd5b818401915084601f83011261043d57600080fd5b81358181111561044f5761044f6103e9565b604051601f8201601f19908116603f01168101908382118183101715610477576104776103e9565b8160405282815287602084870101111561049057600080fd5b826020860160208301376000928101602001929092525095945050505050565b600080604083850312156104c357600080fd5b82356001600160a01b03811681146104da57600080fd5b9150602083013563ffffffff811681146104f357600080fd5b809150509250929050565b8082018082111561032357634e487b7160e01b600052601160045260246000fdfea164736f6c6343000812000a",
  "linkReferences": {},
  "deployedLinkReferences": {}
}