{
  "_format": "hh-sol-artifact-1",
  "contractName": "LibOperator",
  "sourceName": "contracts/libraries/LibOperator.sol",
  "abi": [
    {
      "inputs": [
        {
          "internalType": "address",
          "name": "addressManager",
          "type": "address"
        },
        {
          "internalType": "address",
          "name": "l1Messenger",
          "type": "address"
        },
        {
          "internalType": "address",
          "name": "l1Bridge",
          "type": "address"
        },
        {
          "internalType": "address",
          "name": "l2ton",
          "type": "address"
        }
      ],
      "name": "getKey",
      "outputs": [
        {
          "internalType": "bytes32",
          "name": "key_",
          "type": "bytes32"
        }
      ],
      "stateMutability": "pure",
      "type": "function"
    },
    {
      "inputs": [
        {
          "internalType": "address",
          "name": "operator",
          "type": "address"
        },
        {
          "internalType": "uint32",
          "name": "sequencerIndex",
          "type": "uint32"
        }
      ],
      "name": "getKey",
      "outputs": [
        {
          "internalType": "bytes32",
          "name": "key_",
          "type": "bytes32"
        }
      ],
      "stateMutability": "pure",
      "type": "function"
    },
    {
      "inputs": [
        {
          "internalType": "bytes",
          "name": "data",
          "type": "bytes"
        }
      ],
      "name": "parseKey",
      "outputs": [
        {
          "components": [
            {
              "internalType": "address",
              "name": "operator",
              "type": "address"
            },
            {
              "internalType": "uint32",
              "name": "sequencerIndex",
              "type": "uint32"
            },
            {
              "internalType": "uint16",
              "name": "commission",
              "type": "uint16"
            }
          ],
          "internalType": "struct LibOperator.Info",
          "name": "info",
          "type": "tuple"
        }
      ],
      "stateMutability": "pure",
      "type": "function"
    }
  ],
  "bytecode": "0x61060261003a600b82828239805160001a60731461002d57634e487b7160e01b600052600060045260246000fd5b30600052607381538281f3fe730000000000000000000000000000000000000000301460806040526004361061004b5760003560e01c806361b2a1bc14610050578063cd13ec871461009d578063ef8d7d7c14610119575b600080fd5b61006361005e366004610478565b610193565b6040805182516001600160a01b0316815260208084015163ffffffff16908201529181015161ffff16908201526060015b60405180910390f35b61010b6100ab366004610540565b6040516bffffffffffffffffffffffff19606086811b8216602084015285811b8216603484015284811b8216604884015283901b16605c820152600090607001604051602081830303815290604052805190602001209050949350505050565b604051908152602001610094565b61010b610127366004610594565b6040516bffffffffffffffffffffffff19606084901b1660208201527fffffffff0000000000000000000000000000000000000000000000000000000060e083901b16603482015260009060380160405160208183030381529060405280519060200120905092915050565b6040805160608101825260008082526020820181905291810191909152601982511115610212576040805160608101909152806101d1846000610217565b6001600160a01b031681526020016101ea8460146102dc565b63ffffffff1681526020016102096018856103a290919063ffffffff16565b61ffff16905290505b919050565b6000816102258160146105d4565b10156102785760405162461bcd60e51b815260206004820152601260248201527f746f416464726573735f6f766572666c6f77000000000000000000000000000060448201526064015b60405180910390fd5b6102838260146105d4565b835110156102d35760405162461bcd60e51b815260206004820152601560248201527f746f416464726573735f6f75744f66426f756e64730000000000000000000000604482015260640161026f565b50016014015190565b6000816102ea8160046105d4565b10156103385760405162461bcd60e51b815260206004820152601160248201527f746f55696e7433325f6f766572666c6f77000000000000000000000000000000604482015260640161026f565b6103438260046105d4565b835110156103935760405162461bcd60e51b815260206004820152601460248201527f746f55696e7433325f6f75744f66426f756e6473000000000000000000000000604482015260640161026f565b50818101600401515b92915050565b6000816103b08160026105d4565b10156103fe5760405162461bcd60e51b815260206004820152601160248201527f746f55696e7431365f6f766572666c6f77000000000000000000000000000000604482015260640161026f565b6104098260026105d4565b835110156104595760405162461bcd60e51b815260206004820152601460248201527f746f55696e7431365f6f75744f66426f756e6473000000000000000000000000604482015260640161026f565b50016002015190565b634e487b7160e01b600052604160045260246000fd5b60006020828403121561048a57600080fd5b813567ffffffffffffffff808211156104a257600080fd5b818401915084601f8301126104b657600080fd5b8135818111156104c8576104c8610462565b604051601f8201601f19908116603f011681019083821181831017156104f0576104f0610462565b8160405282815287602084870101111561050957600080fd5b826020860160208301376000928101602001929092525095945050505050565b80356001600160a01b038116811461021257600080fd5b6000806000806080858703121561055657600080fd5b61055f85610529565b935061056d60208601610529565b925061057b60408601610529565b915061058960608601610529565b905092959194509250565b600080604083850312156105a757600080fd5b6105b083610529565b9150602083013563ffffffff811681146105c957600080fd5b809150509250929050565b8082018082111561039c57634e487b7160e01b600052601160045260246000fdfea164736f6c6343000812000a",
  "linkReferences": {},
  "deployedLinkReferences": {}
}