{
  "_format": "hh-sol-artifact-1",
  "contractName": "BytesParserLib",
  "sourceName": "contracts/libraries/BytesParserLib.sol",
  "abi": [
    {
      "inputs": [
        {
          "internalType": "address",
          "name": "a",
          "type": "address"
        }
      ],
      "name": "convertAddressToBytes",
      "outputs": [
        {
          "internalType": "bytes",
          "name": "aaa",
          "type": "bytes"
        }
      ],
      "stateMutability": "pure",
      "type": "function"
    }
  ],
  "bytecode": "0x60f5610039600b82828239805160001a60731461002c57634e487b7160e01b600052600060045260246000fd5b30600052607381538281f3fe730000000000000000000000000000000000000000301460806040526004361060335760003560e01c8063461f94a4146038575b600080fd5b604d60433660046061565b6020015160601c90565b60405160589190609c565b60405180910390f35b600060208284031215607257600080fd5b813573ffffffffffffffffffffffffffffffffffffffff81168114609557600080fd5b9392505050565b600060208083528351808285015260005b8181101560c75785810183015185820160400152820160ad565b506000604082860101526040601f19601f830116850101925050509291505056fea164736f6c6343000812000a",
  "linkReferences": {},
  "deployedLinkReferences": {}
}