{
  "_format": "hh-sol-artifact-1",
  "contractName": "StakingStorage",
  "sourceName": "contracts/storages/StakingStorage.sol",
  "abi": [
    {
      "inputs": [],
      "name": "fwReceipt",
      "outputs": [
        {
          "internalType": "address",
          "name": "",
          "type": "address"
        }
      ],
      "stateMutability": "view",
      "type": "function"
    },
    {
      "inputs": [],
      "name": "layer2Manager",
      "outputs": [
        {
          "internalType": "address",
          "name": "",
          "type": "address"
        }
      ],
      "stateMutability": "view",
      "type": "function"
    },
    {
      "inputs": [
        {
          "internalType": "uint32",
          "name": "",
          "type": "uint32"
        }
      ],
      "name": "layerInfo",
      "outputs": [
        {
          "internalType": "bytes",
          "name": "",
          "type": "bytes"
        }
      ],
      "stateMutability": "view",
      "type": "function"
    },
    {
      "inputs": [
        {
          "internalType": "uint32",
          "name": "",
          "type": "uint32"
        }
      ],
      "name": "layerStakedLton",
      "outputs": [
        {
          "internalType": "uint256",
          "name": "",
          "type": "uint256"
        }
      ],
      "stateMutability": "view",
      "type": "function"
    },
    {
      "inputs": [
        {
          "internalType": "uint32",
          "name": "",
          "type": "uint32"
        },
        {
          "internalType": "address",
          "name": "",
          "type": "address"
        }
      ],
      "name": "layerStakes",
      "outputs": [
        {
          "internalType": "uint256",
          "name": "stakePrincipal",
          "type": "uint256"
        },
        {
          "internalType": "uint256",
          "name": "bondPrincipal",
          "type": "uint256"
        },
        {
          "internalType": "uint256",
          "name": "stakelton",
          "type": "uint256"
        },
        {
          "internalType": "uint256",
          "name": "bondlton",
          "type": "uint256"
        },
        {
          "internalType": "bool",
          "name": "stake",
          "type": "bool"
        },
        {
          "internalType": "uint16",
          "name": "fwFee",
          "type": "uint16"
        }
      ],
      "stateMutability": "view",
      "type": "function"
    },
    {
      "inputs": [
        {
          "internalType": "uint32",
          "name": "",
          "type": "uint32"
        },
        {
          "internalType": "address",
          "name": "",
          "type": "address"
        }
      ],
      "name": "pendingUnstaked",
      "outputs": [
        {
          "internalType": "uint256",
          "name": "",
          "type": "uint256"
        }
      ],
      "stateMutability": "view",
      "type": "function"
    },
    {
      "inputs": [
        {
          "internalType": "address",
          "name": "",
          "type": "address"
        }
      ],
      "name": "pendingUnstakedAccount",
      "outputs": [
        {
          "internalType": "uint256",
          "name": "",
          "type": "uint256"
        }
      ],
      "stateMutability": "view",
      "type": "function"
    },
    {
      "inputs": [
        {
          "internalType": "uint32",
          "name": "",
          "type": "uint32"
        }
      ],
      "name": "pendingUnstakedLayer2",
      "outputs": [
        {
          "internalType": "uint256",
          "name": "",
          "type": "uint256"
        }
      ],
      "stateMutability": "view",
      "type": "function"
    },
    {
      "inputs": [],
      "name": "seigManagerV2",
      "outputs": [
        {
          "internalType": "address",
          "name": "",
          "type": "address"
        }
      ],
      "stateMutability": "view",
      "type": "function"
    },
    {
      "inputs": [
        {
          "internalType": "uint256",
          "name": "",
          "type": "uint256"
        }
      ],
      "name": "stakeAccountList",
      "outputs": [
        {
          "internalType": "address",
          "name": "",
          "type": "address"
        }
      ],
      "stateMutability": "view",
      "type": "function"
    },
    {
      "inputs": [],
      "name": "ton",
      "outputs": [
        {
          "internalType": "address",
          "name": "",
          "type": "address"
        }
      ],
      "stateMutability": "view",
      "type": "function"
    },
    {
      "inputs": [],
      "name": "totalStakedLton",
      "outputs": [
        {
          "internalType": "uint256",
          "name": "",
          "type": "uint256"
        }
      ],
      "stateMutability": "view",
      "type": "function"
    },
    {
      "inputs": [
        {
          "internalType": "uint32",
          "name": "",
          "type": "uint32"
        },
        {
          "internalType": "address",
          "name": "",
          "type": "address"
        }
      ],
      "name": "withdrawalRequestIndex",
      "outputs": [
        {
          "internalType": "uint256",
          "name": "",
          "type": "uint256"
        }
      ],
      "stateMutability": "view",
      "type": "function"
    },
    {
      "inputs": [
        {
          "internalType": "uint32",
          "name": "",
          "type": "uint32"
        },
        {
          "internalType": "address",
          "name": "",
          "type": "address"
        },
        {
          "internalType": "uint256",
          "name": "",
          "type": "uint256"
        }
      ],
      "name": "withdrawalRequests",
      "outputs": [
        {
          "internalType": "uint32",
          "name": "withdrawableBlockNumber",
          "type": "uint32"
        },
        {
          "internalType": "uint128",
          "name": "amount",
          "type": "uint128"
        },
        {
          "internalType": "bool",
          "name": "processed",
          "type": "bool"
        }
      ],
      "stateMutability": "view",
      "type": "function"
    }
  ],
  "bytecode": "0x60806040526001805460ff19168117905534801561001c57600080fd5b506105f58061002c6000396000f3fe608060405234801561001057600080fd5b50600436106100ea5760003560e01c80637cf1587c1161008c578063b9cab97111610066578063b9cab971146102d0578063cc48b947146102f0578063d07918f114610308578063ec110d451461031b57600080fd5b80637cf1587c146101fc5780639c656e2614610227578063a0b2a913146102b057600080fd5b8063659ab820116100c8578063659ab820146101615780636d1ef1031461018157806370619cf9146101c957806373469a7a146101e957600080fd5b806316b5d5bd146100ef5780634e1a264d1461011f5780635e2cfe4514610136575b600080fd5b600354610102906001600160a01b031681565b6040516001600160a01b0390911681526020015b60405180910390f35b61012860045481565b604051908152602001610116565b61012861014436600461049b565b600960209081526000928352604080842090915290825290205481565b61017461016f3660046104ce565b61032e565b60405161011691906104f0565b61019461018f36600461053e565b6103c8565b6040805163ffffffff90941684526fffffffffffffffffffffffffffffffff9092166020840152151590820152606001610116565b6101286101d73660046104ce565b60056020526000908152604090205481565b600254610102906001600160a01b031681565b61012861020a36600461049b565b600860209081526000928352604080842090915290825290205481565b61027d61023536600461049b565b6006602090815260009283526040808420909152908252902080546001820154600283015460038401546004909401549293919290919060ff811690610100900461ffff1686565b6040805196875260208701959095529385019290925260608401521515608083015261ffff1660a082015260c001610116565b6101286102be36600461057a565b600b6020526000908152604090205481565b6101286102de3660046104ce565b600a6020526000908152604090205481565b6001546101029061010090046001600160a01b031681565b600e54610102906001600160a01b031681565b610102610329366004610595565b610441565b600c6020526000908152604090208054610347906105ae565b80601f0160208091040260200160405190810160405280929190818152602001828054610373906105ae565b80156103c05780601f10610395576101008083540402835291602001916103c0565b820191906000526020600020905b8154815290600101906020018083116103a357829003601f168201915b505050505081565b600760205282600052604060002060205281600052604060002081815481106103f057600080fd5b60009182526020909120015463ffffffff8116935064010000000081046fffffffffffffffffffffffffffffffff16925074010000000000000000000000000000000000000000900460ff16905083565b600d818154811061045157600080fd5b6000918252602090912001546001600160a01b0316905081565b803563ffffffff8116811461047f57600080fd5b919050565b80356001600160a01b038116811461047f57600080fd5b600080604083850312156104ae57600080fd5b6104b78361046b565b91506104c560208401610484565b90509250929050565b6000602082840312156104e057600080fd5b6104e98261046b565b9392505050565b600060208083528351808285015260005b8181101561051d57858101830151858201604001528201610501565b506000604082860101526040601f19601f8301168501019250505092915050565b60008060006060848603121561055357600080fd5b61055c8461046b565b925061056a60208501610484565b9150604084013590509250925092565b60006020828403121561058c57600080fd5b6104e982610484565b6000602082840312156105a757600080fd5b5035919050565b600181811c908216806105c257607f821691505b6020821081036105e257634e487b7160e01b600052602260045260246000fd5b5091905056fea164736f6c6343000812000a",
  "linkReferences": {},
  "deployedLinkReferences": {}
}