{
  "_format": "hh-sol-artifact-1",
  "contractName": "StakingStorage",
  "sourceName": "contracts/storages/StakingStorage.sol",
  "abi": [
    {
      "inputs": [],
      "name": "fwReceipt",
      "outputs": [
        {
          "internalType": "address",
          "name": "",
          "type": "address"
        }
      ],
      "stateMutability": "view",
      "type": "function"
    },
    {
      "inputs": [],
      "name": "layer2Manager",
      "outputs": [
        {
          "internalType": "address",
          "name": "",
          "type": "address"
        }
      ],
      "stateMutability": "view",
      "type": "function"
    },
    {
      "inputs": [
        {
          "internalType": "uint32",
          "name": "",
          "type": "uint32"
        }
      ],
      "name": "layerInfo",
      "outputs": [
        {
          "internalType": "bytes",
          "name": "",
          "type": "bytes"
        }
      ],
      "stateMutability": "view",
      "type": "function"
    },
    {
      "inputs": [
        {
          "internalType": "uint32",
          "name": "",
          "type": "uint32"
        }
      ],
      "name": "layerStakedLwton",
      "outputs": [
        {
          "internalType": "uint256",
          "name": "",
          "type": "uint256"
        }
      ],
      "stateMutability": "view",
      "type": "function"
    },
    {
      "inputs": [
        {
          "internalType": "uint32",
          "name": "",
          "type": "uint32"
        },
        {
          "internalType": "address",
          "name": "",
          "type": "address"
        }
      ],
      "name": "layerStakes",
      "outputs": [
        {
          "internalType": "uint256",
          "name": "stakePrincipal",
          "type": "uint256"
        },
        {
          "internalType": "uint256",
          "name": "stakelwton",
          "type": "uint256"
        },
        {
          "internalType": "bool",
          "name": "stake",
          "type": "bool"
        }
      ],
      "stateMutability": "view",
      "type": "function"
    },
    {
      "inputs": [
        {
          "internalType": "uint32",
          "name": "",
          "type": "uint32"
        },
        {
          "internalType": "address",
          "name": "",
          "type": "address"
        }
      ],
      "name": "pendingUnstaked",
      "outputs": [
        {
          "internalType": "uint256",
          "name": "",
          "type": "uint256"
        }
      ],
      "stateMutability": "view",
      "type": "function"
    },
    {
      "inputs": [
        {
          "internalType": "address",
          "name": "",
          "type": "address"
        }
      ],
      "name": "pendingUnstakedAccount",
      "outputs": [
        {
          "internalType": "uint256",
          "name": "",
          "type": "uint256"
        }
      ],
      "stateMutability": "view",
      "type": "function"
    },
    {
      "inputs": [
        {
          "internalType": "uint32",
          "name": "",
          "type": "uint32"
        }
      ],
      "name": "pendingUnstakedLayer2",
      "outputs": [
        {
          "internalType": "uint256",
          "name": "",
          "type": "uint256"
        }
      ],
      "stateMutability": "view",
      "type": "function"
    },
    {
      "inputs": [],
      "name": "seigManagerV2",
      "outputs": [
        {
          "internalType": "address",
          "name": "",
          "type": "address"
        }
      ],
      "stateMutability": "view",
      "type": "function"
    },
    {
      "inputs": [
        {
          "internalType": "uint256",
          "name": "",
          "type": "uint256"
        }
      ],
      "name": "stakeAccountList",
      "outputs": [
        {
          "internalType": "address",
          "name": "",
          "type": "address"
        }
      ],
      "stateMutability": "view",
      "type": "function"
    },
    {
      "inputs": [
        {
          "internalType": "uint32",
          "name": "",
          "type": "uint32"
        },
        {
          "internalType": "address",
          "name": "",
          "type": "address"
        }
      ],
      "name": "withdrawalRequestIndex",
      "outputs": [
        {
          "internalType": "uint256",
          "name": "",
          "type": "uint256"
        }
      ],
      "stateMutability": "view",
      "type": "function"
    },
    {
      "inputs": [
        {
          "internalType": "uint32",
          "name": "",
          "type": "uint32"
        },
        {
          "internalType": "address",
          "name": "",
          "type": "address"
        },
        {
          "internalType": "uint256",
          "name": "",
          "type": "uint256"
        }
      ],
      "name": "withdrawalRequests",
      "outputs": [
        {
          "internalType": "uint32",
          "name": "withdrawableBlockNumber",
          "type": "uint32"
        },
        {
          "internalType": "uint128",
          "name": "amount",
          "type": "uint128"
        },
        {
          "internalType": "bool",
          "name": "processed",
          "type": "bool"
        }
      ],
      "stateMutability": "view",
      "type": "function"
    },
    {
      "inputs": [],
      "name": "wton",
      "outputs": [
        {
          "internalType": "address",
          "name": "",
          "type": "address"
        }
      ],
      "stateMutability": "view",
      "type": "function"
    }
  ],
  "bytecode": "0x60806040526001805460ff19168117905534801561001c57600080fd5b506105b28061002c6000396000f3fe608060405234801561001057600080fd5b50600436106100df5760003560e01c80637cf1587c1161008c578063a0b2a91311610066578063a0b2a91314610285578063b9cab971146102a5578063d07918f1146102c5578063ec110d45146102d857600080fd5b80637cf1587c146101e85780638d62d949146102135780639c656e261461022b57600080fd5b8063659ab820116100bd578063659ab8201461016d5780636d1ef1031461018d57806373469a7a146101d557600080fd5b806316b5d5bd146100e45780634c69a65f146101145780635e2cfe4514610142575b600080fd5b6003546100f7906001600160a01b031681565b6040516001600160a01b0390911681526020015b60405180910390f35b610134610122366004610441565b60086020526000908152604090205481565b60405190815260200161010b565b61013461015036600461047a565b600e60209081526000928352604080842090915290825290205481565b61018061017b366004610441565b6102eb565b60405161010b91906104ad565b6101a061019b3660046104fb565b610385565b6040805163ffffffff90941684526fffffffffffffffffffffffffffffffff909216602084015215159082015260600161010b565b6002546100f7906001600160a01b031681565b6101346101f636600461047a565b600d60209081526000928352604080842090915290825290205481565b6001546100f79061010090046001600160a01b031681565b61026861023936600461047a565b600a60209081526000928352604080842090915290825290208054600182015460029092015490919060ff1683565b60408051938452602084019290925215159082015260600161010b565b610134610293366004610537565b60106020526000908152604090205481565b6101346102b3366004610441565b600f6020526000908152604090205481565b6004546100f7906001600160a01b031681565b6100f76102e6366004610552565b6103fe565b601160205260009081526040902080546103049061056b565b80601f01602080910402602001604051908101604052809291908181526020018280546103309061056b565b801561037d5780601f106103525761010080835404028352916020019161037d565b820191906000526020600020905b81548152906001019060200180831161036057829003601f168201915b505050505081565b600c60205282600052604060002060205281600052604060002081815481106103ad57600080fd5b60009182526020909120015463ffffffff8116935064010000000081046fffffffffffffffffffffffffffffffff16925074010000000000000000000000000000000000000000900460ff16905083565b6012818154811061040e57600080fd5b6000918252602090912001546001600160a01b0316905081565b803563ffffffff8116811461043c57600080fd5b919050565b60006020828403121561045357600080fd5b61045c82610428565b9392505050565b80356001600160a01b038116811461043c57600080fd5b6000806040838503121561048d57600080fd5b61049683610428565b91506104a460208401610463565b90509250929050565b600060208083528351808285015260005b818110156104da578581018301518582016040015282016104be565b506000604082860101526040601f19601f8301168501019250505092915050565b60008060006060848603121561051057600080fd5b61051984610428565b925061052760208501610463565b9150604084013590509250925092565b60006020828403121561054957600080fd5b61045c82610463565b60006020828403121561056457600080fd5b5035919050565b600181811c9082168061057f57607f821691505b60208210810361059f57634e487b7160e01b600052602260045260246000fd5b5091905056fea164736f6c6343000812000a",
  "linkReferences": {},
  "deployedLinkReferences": {}
}