{
  "_format": "hh-sol-artifact-1",
  "contractName": "LibCommon",
  "sourceName": "contracts/libraries/LibCommon.sol",
  "abi": [
    {
      "inputs": [
        {
          "internalType": "uint256",
          "name": "a",
          "type": "uint256"
        },
        {
          "internalType": "uint256",
          "name": "b",
          "type": "uint256"
        }
      ],
      "name": "assemblyHash",
      "outputs": [
        {
          "internalType": "bytes32",
          "name": "hashedVal",
          "type": "bytes32"
        }
      ],
      "stateMutability": "pure",
      "type": "function"
    }
  ],
  "bytecode": "0x6092610039600b82828239805160001a60731461002c57634e487b7160e01b600052600060045260246000fd5b30600052607381538281f3fe730000000000000000000000000000000000000000301460806040526004361060335760003560e01c8063ddb1de26146038575b600080fd5b605260433660046064565b60009182526020526040902090565b60405190815260200160405180910390f35b60008060408385031215607657600080fd5b5050803592602090910135915056fea164736f6c6343000812000a",
  "linkReferences": {},
  "deployedLinkReferences": {}
}