{
  "_format": "hh-sol-artifact-1",
  "contractName": "SeigManagerV2",
  "sourceName": "contracts/SeigManagerV2.sol",
  "abi": [
    {
      "inputs": [],
      "stateMutability": "nonpayable",
      "type": "constructor"
    },
    {
      "anonymous": false,
      "inputs": [
        {
          "indexed": false,
          "internalType": "address",
          "name": "caller",
          "type": "address"
        },
        {
          "indexed": false,
          "internalType": "address",
          "name": "to",
          "type": "address"
        },
        {
          "indexed": false,
          "internalType": "uint256",
          "name": "amount",
          "type": "uint256"
        }
      ],
      "name": "Claimed",
      "type": "event"
    },
    {
      "anonymous": false,
      "inputs": [
        {
          "indexed": true,
          "internalType": "bytes32",
          "name": "role",
          "type": "bytes32"
        },
        {
          "indexed": true,
          "internalType": "bytes32",
          "name": "previousAdminRole",
          "type": "bytes32"
        },
        {
          "indexed": true,
          "internalType": "bytes32",
          "name": "newAdminRole",
          "type": "bytes32"
        }
      ],
      "name": "RoleAdminChanged",
      "type": "event"
    },
    {
      "anonymous": false,
      "inputs": [
        {
          "indexed": true,
          "internalType": "bytes32",
          "name": "role",
          "type": "bytes32"
        },
        {
          "indexed": true,
          "internalType": "address",
          "name": "account",
          "type": "address"
        },
        {
          "indexed": true,
          "internalType": "address",
          "name": "sender",
          "type": "address"
        }
      ],
      "name": "RoleGranted",
      "type": "event"
    },
    {
      "anonymous": false,
      "inputs": [
        {
          "indexed": true,
          "internalType": "bytes32",
          "name": "role",
          "type": "bytes32"
        },
        {
          "indexed": true,
          "internalType": "address",
          "name": "account",
          "type": "address"
        },
        {
          "indexed": true,
          "internalType": "address",
          "name": "sender",
          "type": "address"
        }
      ],
      "name": "RoleRevoked",
      "type": "event"
    },
    {
      "anonymous": false,
      "inputs": [
        {
          "indexed": false,
          "internalType": "uint256",
          "name": "id",
          "type": "uint256"
        },
        {
          "indexed": false,
          "internalType": "uint256",
          "name": "snapshotTime",
          "type": "uint256"
        }
      ],
      "name": "Snapshot",
      "type": "event"
    },
    {
      "anonymous": false,
      "inputs": [
        {
          "indexed": false,
          "internalType": "uint256",
          "name": "lastSeigBlock_",
          "type": "uint256"
        },
        {
          "indexed": false,
          "internalType": "uint256",
          "name": "increaseSeig_",
          "type": "uint256"
        },
        {
          "indexed": false,
          "internalType": "uint256",
          "name": "totalSupplyOfTon_",
          "type": "uint256"
        },
        {
          "indexed": false,
          "internalType": "uint256[4]",
          "name": "amount_",
          "type": "uint256[4]"
        },
        {
          "indexed": false,
          "internalType": "uint256",
          "name": "prevIndex_",
          "type": "uint256"
        },
        {
          "indexed": false,
          "internalType": "uint256",
          "name": "index_",
          "type": "uint256"
        }
      ],
      "name": "UpdatedSeigniorage",
      "type": "event"
    },
    {
      "inputs": [],
      "name": "ADMIN_ROLE",
      "outputs": [
        {
          "internalType": "bytes32",
          "name": "",
          "type": "bytes32"
        }
      ],
      "stateMutability": "view",
      "type": "function"
    },
    {
      "inputs": [],
      "name": "DEFAULT_ADMIN_ROLE",
      "outputs": [
        {
          "internalType": "bytes32",
          "name": "",
          "type": "bytes32"
        }
      ],
      "stateMutability": "view",
      "type": "function"
    },
    {
      "inputs": [],
      "name": "POLICY_ROLE",
      "outputs": [
        {
          "internalType": "bytes32",
          "name": "",
          "type": "bytes32"
        }
      ],
      "stateMutability": "view",
      "type": "function"
    },
    {
      "inputs": [
        {
          "internalType": "address",
          "name": "account",
          "type": "address"
        }
      ],
      "name": "addAdmin",
      "outputs": [],
      "stateMutability": "nonpayable",
      "type": "function"
    },
    {
      "inputs": [
        {
          "internalType": "address",
          "name": "",
          "type": "address"
        }
      ],
      "name": "aliveImplementation",
      "outputs": [
        {
          "internalType": "bool",
          "name": "",
          "type": "bool"
        }
      ],
      "stateMutability": "view",
      "type": "function"
    },
    {
      "inputs": [
        {
          "internalType": "uint256",
          "name": "curIndex",
          "type": "uint256"
        },
        {
          "internalType": "uint256",
          "name": "curTotal",
          "type": "uint256"
        },
        {
          "internalType": "uint256",
          "name": "increaseAmount",
          "type": "uint256"
        }
      ],
      "name": "calculateIndex",
      "outputs": [
        {
          "internalType": "uint256",
          "name": "nextIndex",
          "type": "uint256"
        }
      ],
      "stateMutability": "pure",
      "type": "function"
    },
    {
      "inputs": [],
      "name": "candidate",
      "outputs": [
        {
          "internalType": "address",
          "name": "",
          "type": "address"
        }
      ],
      "stateMutability": "view",
      "type": "function"
    },
    {
      "inputs": [
        {
          "internalType": "address",
          "name": "_to",
          "type": "address"
        },
        {
          "internalType": "uint256",
          "name": "_amount",
          "type": "uint256"
        }
      ],
      "name": "claim",
      "outputs": [],
      "stateMutability": "nonpayable",
      "type": "function"
    },
    {
      "inputs": [],
      "name": "dao",
      "outputs": [
        {
          "internalType": "address",
          "name": "",
          "type": "address"
        }
      ],
      "stateMutability": "view",
      "type": "function"
    },
    {
      "inputs": [],
      "name": "getCurrentBlockNumber",
      "outputs": [
        {
          "internalType": "uint256",
          "name": "",
          "type": "uint256"
        }
      ],
      "stateMutability": "view",
      "type": "function"
    },
    {
      "inputs": [],
      "name": "getCurrentSnapshotId",
      "outputs": [
        {
          "internalType": "uint256",
          "name": "",
          "type": "uint256"
        }
      ],
      "stateMutability": "view",
      "type": "function"
    },
    {
      "inputs": [
        {
          "internalType": "uint256",
          "name": "lton",
          "type": "uint256"
        }
      ],
      "name": "getLtonToTon",
      "outputs": [
        {
          "internalType": "uint256",
          "name": "amount",
          "type": "uint256"
        }
      ],
      "stateMutability": "view",
      "type": "function"
    },
    {
      "inputs": [
        {
          "internalType": "uint256",
          "name": "lton",
          "type": "uint256"
        },
        {
          "internalType": "uint256",
          "name": "_snapshotId",
          "type": "uint256"
        }
      ],
      "name": "getLtonToTonAt",
      "outputs": [
        {
          "internalType": "uint256",
          "name": "amount",
          "type": "uint256"
        }
      ],
      "stateMutability": "view",
      "type": "function"
    },
    {
      "inputs": [
        {
          "internalType": "bytes32",
          "name": "role",
          "type": "bytes32"
        }
      ],
      "name": "getRoleAdmin",
      "outputs": [
        {
          "internalType": "bytes32",
          "name": "",
          "type": "bytes32"
        }
      ],
      "stateMutability": "view",
      "type": "function"
    },
    {
      "inputs": [],
      "name": "getSnapshotTime",
      "outputs": [
        {
          "internalType": "uint32[]",
          "name": "",
          "type": "uint32[]"
        }
      ],
      "stateMutability": "view",
      "type": "function"
    },
    {
      "inputs": [
        {
          "internalType": "uint256",
          "name": "_amount",
          "type": "uint256"
        }
      ],
      "name": "getTonToLton",
      "outputs": [
        {
          "internalType": "uint256",
          "name": "amount",
          "type": "uint256"
        }
      ],
      "stateMutability": "view",
      "type": "function"
    },
    {
      "inputs": [
        {
          "internalType": "uint256",
          "name": "_amount",
          "type": "uint256"
        },
        {
          "internalType": "uint256",
          "name": "_snapshotId",
          "type": "uint256"
        }
      ],
      "name": "getTonToLtonAt",
      "outputs": [
        {
          "internalType": "uint256",
          "name": "amount",
          "type": "uint256"
        }
      ],
      "stateMutability": "view",
      "type": "function"
    },
    {
      "inputs": [],
      "name": "getTotalLton",
      "outputs": [
        {
          "internalType": "uint256",
          "name": "amount",
          "type": "uint256"
        }
      ],
      "stateMutability": "view",
      "type": "function"
    },
    {
      "inputs": [
        {
          "internalType": "uint256",
          "name": "_snapshotId",
          "type": "uint256"
        }
      ],
      "name": "getTotalLtonAt",
      "outputs": [
        {
          "internalType": "uint256",
          "name": "amount",
          "type": "uint256"
        }
      ],
      "stateMutability": "view",
      "type": "function"
    },
    {
      "inputs": [
        {
          "internalType": "bytes32",
          "name": "role",
          "type": "bytes32"
        },
        {
          "internalType": "address",
          "name": "account",
          "type": "address"
        }
      ],
      "name": "grantRole",
      "outputs": [],
      "stateMutability": "nonpayable",
      "type": "function"
    },
    {
      "inputs": [
        {
          "internalType": "bytes32",
          "name": "role",
          "type": "bytes32"
        },
        {
          "internalType": "address",
          "name": "account",
          "type": "address"
        }
      ],
      "name": "hasRole",
      "outputs": [
        {
          "internalType": "bool",
          "name": "",
          "type": "bool"
        }
      ],
      "stateMutability": "view",
      "type": "function"
    },
    {
      "inputs": [],
      "name": "indexLton",
      "outputs": [
        {
          "internalType": "uint256",
          "name": "",
          "type": "uint256"
        }
      ],
      "stateMutability": "view",
      "type": "function"
    },
    {
      "inputs": [
        {
          "internalType": "uint256",
          "name": "snapshotId",
          "type": "uint256"
        }
      ],
      "name": "indexLtonAt",
      "outputs": [
        {
          "internalType": "uint256",
          "name": "",
          "type": "uint256"
        }
      ],
      "stateMutability": "view",
      "type": "function"
    },
    {
      "inputs": [
        {
          "internalType": "uint256",
          "name": "snapshotId",
          "type": "uint256"
        }
      ],
      "name": "indexLtonAtSnapshot",
      "outputs": [
        {
          "internalType": "bool",
          "name": "snapshotted",
          "type": "bool"
        },
        {
          "internalType": "uint256",
          "name": "value",
          "type": "uint256"
        }
      ],
      "stateMutability": "view",
      "type": "function"
    },
    {
      "inputs": [
        {
          "internalType": "address",
          "name": "account",
          "type": "address"
        }
      ],
      "name": "isAdmin",
      "outputs": [
        {
          "internalType": "bool",
          "name": "",
          "type": "bool"
        }
      ],
      "stateMutability": "view",
      "type": "function"
    },
    {
      "inputs": [],
      "name": "lastSeigBlock",
      "outputs": [
        {
          "internalType": "uint256",
          "name": "",
          "type": "uint256"
        }
      ],
      "stateMutability": "view",
      "type": "function"
    },
    {
      "inputs": [],
      "name": "layer2Manager",
      "outputs": [
        {
          "internalType": "address",
          "name": "",
          "type": "address"
        }
      ],
      "stateMutability": "view",
      "type": "function"
    },
    {
      "inputs": [],
      "name": "minimumBlocksForUpdateSeig",
      "outputs": [
        {
          "internalType": "uint32",
          "name": "",
          "type": "uint32"
        }
      ],
      "stateMutability": "view",
      "type": "function"
    },
    {
      "inputs": [],
      "name": "mintableSeigsAmount",
      "outputs": [
        {
          "internalType": "uint256",
          "name": "amount",
          "type": "uint256"
        }
      ],
      "stateMutability": "view",
      "type": "function"
    },
    {
      "inputs": [],
      "name": "optimismSequencer",
      "outputs": [
        {
          "internalType": "address",
          "name": "",
          "type": "address"
        }
      ],
      "stateMutability": "view",
      "type": "function"
    },
    {
      "inputs": [],
      "name": "pauseProxy",
      "outputs": [
        {
          "internalType": "bool",
          "name": "",
          "type": "bool"
        }
      ],
      "stateMutability": "view",
      "type": "function"
    },
    {
      "inputs": [
        {
          "internalType": "uint256",
          "name": "",
          "type": "uint256"
        }
      ],
      "name": "proxyImplementation",
      "outputs": [
        {
          "internalType": "address",
          "name": "",
          "type": "address"
        }
      ],
      "stateMutability": "view",
      "type": "function"
    },
    {
      "inputs": [],
      "name": "ratesDao",
      "outputs": [
        {
          "internalType": "uint16",
          "name": "",
          "type": "uint16"
        }
      ],
      "stateMutability": "view",
      "type": "function"
    },
    {
      "inputs": [],
      "name": "ratesStosHolders",
      "outputs": [
        {
          "internalType": "uint16",
          "name": "",
          "type": "uint16"
        }
      ],
      "stateMutability": "view",
      "type": "function"
    },
    {
      "inputs": [],
      "name": "ratesTonStakers",
      "outputs": [
        {
          "internalType": "uint16",
          "name": "",
          "type": "uint16"
        }
      ],
      "stateMutability": "view",
      "type": "function"
    },
    {
      "inputs": [],
      "name": "ratesUnits",
      "outputs": [
        {
          "internalType": "uint16",
          "name": "",
          "type": "uint16"
        }
      ],
      "stateMutability": "view",
      "type": "function"
    },
    {
      "inputs": [
        {
          "internalType": "address",
          "name": "account",
          "type": "address"
        }
      ],
      "name": "removeAdmin",
      "outputs": [],
      "stateMutability": "nonpayable",
      "type": "function"
    },
    {
      "inputs": [
        {
          "internalType": "bytes32",
          "name": "role",
          "type": "bytes32"
        },
        {
          "internalType": "address",
          "name": "account",
          "type": "address"
        }
      ],
      "name": "renounceRole",
      "outputs": [],
      "stateMutability": "nonpayable",
      "type": "function"
    },
    {
      "inputs": [
        {
          "internalType": "bytes32",
          "name": "role",
          "type": "bytes32"
        },
        {
          "internalType": "address",
          "name": "account",
          "type": "address"
        }
      ],
      "name": "revokeRole",
      "outputs": [],
      "stateMutability": "nonpayable",
      "type": "function"
    },
    {
      "inputs": [],
      "name": "runUpdateSeigniorage",
      "outputs": [
        {
          "internalType": "bool",
          "name": "res",
          "type": "bool"
        }
      ],
      "stateMutability": "nonpayable",
      "type": "function"
    },
    {
      "inputs": [],
      "name": "seigManagerV1",
      "outputs": [
        {
          "internalType": "address",
          "name": "",
          "type": "address"
        }
      ],
      "stateMutability": "view",
      "type": "function"
    },
    {
      "inputs": [],
      "name": "seigPerBlock",
      "outputs": [
        {
          "internalType": "uint256",
          "name": "",
          "type": "uint256"
        }
      ],
      "stateMutability": "view",
      "type": "function"
    },
    {
      "inputs": [
        {
          "internalType": "bytes4",
          "name": "",
          "type": "bytes4"
        }
      ],
      "name": "selectorImplementation",
      "outputs": [
        {
          "internalType": "address",
          "name": "",
          "type": "address"
        }
      ],
      "stateMutability": "view",
      "type": "function"
    },
    {
      "inputs": [
        {
          "internalType": "address",
          "name": "_dao",
          "type": "address"
        },
        {
          "internalType": "address",
          "name": "_stosDistribute",
          "type": "address"
        }
      ],
      "name": "setAddress",
      "outputs": [],
      "stateMutability": "nonpayable",
      "type": "function"
    },
    {
      "inputs": [
        {
          "internalType": "uint16",
          "name": "_ratesDao",
          "type": "uint16"
        },
        {
          "internalType": "uint16",
          "name": "_ratesStosHolders",
          "type": "uint16"
        },
        {
          "internalType": "uint16",
          "name": "_ratesTonStakers",
          "type": "uint16"
        },
        {
          "internalType": "uint16",
          "name": "_ratesUnits",
          "type": "uint16"
        }
      ],
      "name": "setDividendRates",
      "outputs": [],
      "stateMutability": "nonpayable",
      "type": "function"
    },
    {
      "inputs": [
        {
          "internalType": "uint256",
          "name": "_lastSeigBlock",
          "type": "uint256"
        }
      ],
      "name": "setLastSeigBlock",
      "outputs": [],
      "stateMutability": "nonpayable",
      "type": "function"
    },
    {
      "inputs": [
        {
          "internalType": "uint32",
          "name": "_minimumBlocksForUpdateSeig",
          "type": "uint32"
        }
      ],
      "name": "setMinimumBlocksForUpdateSeig",
      "outputs": [],
      "stateMutability": "nonpayable",
      "type": "function"
    },
    {
      "inputs": [
        {
          "internalType": "uint256",
          "name": "_seigPerBlock",
          "type": "uint256"
        }
      ],
      "name": "setSeigPerBlock",
      "outputs": [],
      "stateMutability": "nonpayable",
      "type": "function"
    },
    {
      "inputs": [],
      "name": "snapshot",
      "outputs": [
        {
          "internalType": "uint256",
          "name": "",
          "type": "uint256"
        }
      ],
      "stateMutability": "nonpayable",
      "type": "function"
    },
    {
      "inputs": [
        {
          "internalType": "uint256",
          "name": "",
          "type": "uint256"
        }
      ],
      "name": "snapshotTime",
      "outputs": [
        {
          "internalType": "uint32",
          "name": "",
          "type": "uint32"
        }
      ],
      "stateMutability": "view",
      "type": "function"
    },
    {
      "inputs": [],
      "name": "startBlock",
      "outputs": [
        {
          "internalType": "uint256",
          "name": "",
          "type": "uint256"
        }
      ],
      "stateMutability": "view",
      "type": "function"
    },
    {
      "inputs": [],
      "name": "stosDistribute",
      "outputs": [
        {
          "internalType": "address",
          "name": "",
          "type": "address"
        }
      ],
      "stateMutability": "view",
      "type": "function"
    },
    {
      "inputs": [
        {
          "internalType": "bytes4",
          "name": "interfaceId",
          "type": "bytes4"
        }
      ],
      "name": "supportsInterface",
      "outputs": [
        {
          "internalType": "bool",
          "name": "",
          "type": "bool"
        }
      ],
      "stateMutability": "view",
      "type": "function"
    },
    {
      "inputs": [],
      "name": "ton",
      "outputs": [
        {
          "internalType": "contract IERC20",
          "name": "",
          "type": "address"
        }
      ],
      "stateMutability": "view",
      "type": "function"
    },
    {
      "inputs": [],
      "name": "tot",
      "outputs": [
        {
          "internalType": "address",
          "name": "",
          "type": "address"
        }
      ],
      "stateMutability": "view",
      "type": "function"
    },
    {
      "inputs": [],
      "name": "totalSupplyTON",
      "outputs": [
        {
          "internalType": "uint256",
          "name": "amount",
          "type": "uint256"
        }
      ],
      "stateMutability": "view",
      "type": "function"
    },
    {
      "inputs": [
        {
          "internalType": "address",
          "name": "newAdmin",
          "type": "address"
        }
      ],
      "name": "transferAdmin",
      "outputs": [],
      "stateMutability": "nonpayable",
      "type": "function"
    },
    {
      "inputs": [],
      "name": "updateSeigniorage",
      "outputs": [
        {
          "internalType": "bool",
          "name": "res",
          "type": "bool"
        }
      ],
      "stateMutability": "nonpayable",
      "type": "function"
    },
    {
      "inputs": [],
      "name": "wton",
      "outputs": [
        {
          "internalType": "address",
          "name": "",
          "type": "address"
        }
      ],
      "stateMutability": "view",
      "type": "function"
    }
  ],
  "bytecode": "0x60806040526011805460ff60601b19166c0100000000000000000000000017905534801561002c57600080fd5b50612b248061003c6000396000f3fe608060405234801561001057600080fd5b50600436106103995760003560e01c80636c8381f8116101e9578063a217fddf1161010f578063d547741f116100ad578063f1ae4e9f1161007c578063f1ae4e9f14610849578063f285c90f14610857578063f35c89e81461086a578063fb7d324d1461087357600080fd5b8063d547741f14610808578063da0dc1351461081b578063daec65de1461082e578063f0bbcde91461083657600080fd5b8063b911135f116100e9578063b911135f146107a6578063cc48b947146107cf578063cdf68009146107e2578063ceeff097146107f557600080fd5b8063a217fddf14610783578063aad3ec961461078b578063b413b37a1461079e57600080fd5b8063865e64a1116101875780638df40b2c116101565780638df40b2c1461071e57806391d14854146107315780639711715a14610768578063a16d6aa71461077057600080fd5b8063865e64a1146106d95780638b95087b146106e15780638d62d949146106f65780638de73e1d1461070957600080fd5b806375829def116101c357806375829def1461068457806375b238fc1461069757806375c6ee8e146106be578063764a7856146106d157600080fd5b80636c8381f8146106585780636fd902e11461066b578063704802751461067157600080fd5b806336568abe116102ce57806350d2a2761161026c5780635f40a3491161023b5780635f40a3491461061c57806363a3a2f51461062557806363a8fd89146106385780636a2fb1f51461064557600080fd5b806350d2a276146105c05780635439ad86146105e9578063550d01a3146105f1578063558e43761461061457600080fd5b80633ddc8996116102a85780633ddc89961461057a5780634162169f1461058d57806348cd4cb1146105a05780634ab6b462146105a957600080fd5b806336568abe1461054c578063386f419b1461055f5780633b58524d1461056757600080fd5b806323c66ea61161033b57806324d7806c1161031557806324d7806c146104e657806325dea4b0146104f95780632f2ff15d1461050f578063350ce2a81461052257600080fd5b806323c66ea614610489578063247e55451461049c578063248a9ca3146104c357600080fd5b80631785f53c116103775780631785f53c146104125780631c1d3a63146104275780631dc0f9bb1461043a578063229852461461046257600080fd5b806301ffc9a71461039e5780630528464a146103c657806316b5d5bd146103e7575b600080fd5b6103b16103ac36600461267e565b610886565b60405190151581526020015b60405180910390f35b6103d96103d43660046126a8565b6108bd565b6040519081526020016103bd565b600b546103fa906001600160a01b031681565b6040516001600160a01b0390911681526020016103bd565b6104256104203660046126eb565b610902565b005b6103d9610435366004612706565b610982565b61044d610448366004612728565b6109af565b60405163ffffffff90911681526020016103bd565b6103d97ffb5864e8ff833c3cb2d2d08505e82ff02a43554c74a35d4f5a64e8526127831181565b610425610497366004612753565b6109e9565b6011546104b09062010000900461ffff1681565b60405161ffff90911681526020016103bd565b6103d96104d1366004612728565b60009081526020819052604090206001015490565b6103b16104f43660046126eb565b610be3565b6011546104b090640100000000900461ffff1681565b61042561051d3660046127a7565b610c23565b610535610530366004612728565b610c4d565b6040805192151583526020830191909152016103bd565b61042561055a3660046127a7565b610c64565b6103b1610cf0565b6104256105753660046127d3565b611072565b6103d9610588366004612728565b61115b565b6007546103fa906001600160a01b031681565b6103d960105481565b60115461044d90600160401b900463ffffffff1681565b6103fa6105ce36600461267e565b6004602052600090815260409020546001600160a01b031681565b6012546103d9565b6103b16105ff3660046126eb565b60036020526000908152604090205460ff1681565b6013546103d9565b6103d9600e5481565b6009546103fa906001600160a01b031681565b6001546103b19060ff1681565b6103d9610653366004612728565b611186565b600d546103fa906001600160a01b031681565b436103d9565b61042561067f3660046126eb565b6111b2565b6104256106923660046126eb565b61122a565b6103d97fdf8b4c520ffe197c5343c6f5aec59570151ef9a492f2c624fd45ddde6135ec4281565b6103d96106cc366004612728565b61137a565b6103b161145f565b6103d9611496565b6011546104b090600160301b900461ffff1681565b6006546103fa906001600160a01b031681565b610711611604565b6040516103bd91906127fd565b6103d961072c366004612706565b611688565b6103b161073f3660046127a7565b6000918252602082815260408084206001600160a01b0393909316845291905290205460ff1690565b6103d96116ac565b600a546103fa906001600160a01b031681565b6103d9600081565b610425610799366004612847565b6116b6565b6103d961184b565b6103fa6107b4366004612728565b6002602052600090815260409020546001600160a01b031681565b6005546103fa906001600160a01b031681565b6103d96107f0366004612728565b611930565b610425610803366004612728565b611954565b6104256108163660046127a7565b611a27565b600c546103fa906001600160a01b031681565b6103d9611a4c565b610425610844366004612728565b611a82565b6011546104b09061ffff1681565b610425610865366004612871565b611b0f565b6103d9600f5481565b6008546103fa906001600160a01b031681565b60006001600160e01b03198216637965db0b60e01b14806108b757506301ffc9a760e01b6001600160e01b03198316145b92915050565b600082158015906108cd57508115155b156108f857826108dd83826128ad565b6108e790866128c0565b6108f191906128d7565b90506108fb565b50825b9392505050565b61090b33610be3565b6109555760405162461bcd60e51b81526020600482015260226024820152600080516020612af883398151915260448201526134b760f11b60648201526084015b60405180910390fd5b61097f7fdf8b4c520ffe197c5343c6f5aec59570151ef9a492f2c624fd45ddde6135ec4282610c64565b50565b600082156108b7576109938261115b565b6109a584670de0b6b3a76400006128c0565b6108fb91906128d7565b601681815481106109bf57600080fd5b9060005260206000209060089182820401919006600402915054906101000a900463ffffffff1681565b6109f233610be3565b610a375760405162461bcd60e51b81526020600482015260226024820152600080516020612af883398151915260448201526134b760f11b606482015260840161094c565b60115461ffff8581166201000090920416148015610a65575060115461ffff84811664010000000090920416145b8015610a79575060115461ffff8381169116145b8015610a94575060115461ffff828116600160301b90920416145b15610aca5760405162461bcd60e51b815260040161094c9060208082526004908201526373616d6560e01b604082015260600190565b8061ffff16600003610b1e5760405162461bcd60e51b815260206004820152601060248201527f77726f6e67207261746573556e69747300000000000000000000000000000000604482015260640161094c565b61ffff811682610b2e85876128f9565b610b3891906128f9565b61ffff1614610b895760405162461bcd60e51b815260206004820152601560248201527f73756d206f6620726174696f2069732077726f6e670000000000000000000000604482015260640161094c565b6011805461ffff928316600160301b0267ffff00000000ffff199584166401000000000265ffff000000001997851662010000029790971665ffffffff000019909216919091179590951793909316911617919091179055565b6001600160a01b03811660009081527f5cbfc8ee58ca47855df7bcf648dd304ddb6b932f9b87878bdf6318d7ec7ee5b7602052604081205460ff166108b7565b600082815260208190526040902060010154610c3e81611bd2565b610c488383611bdc565b505050565b600080610c5b836014611c7a565b91509150915091565b6001600160a01b0381163314610ce25760405162461bcd60e51b815260206004820152602f60248201527f416363657373436f6e74726f6c3a2063616e206f6e6c792072656e6f756e636560448201527f20726f6c657320666f722073656c660000000000000000000000000000000000606482015260840161094c565b610cec8282611d9f565b5050565b6011546000906c01000000000000000000000000900460ff16610d3e5760405162461bcd60e51b815260040161094c906020808252600490820152636c6f636b60e01b604082015260600190565b601180546cff000000000000000000000000191690556010546000819003610d8d5760405162461bcd60e51b81526020600482015260026024820152615a3160f01b604482015260640161094c565b43600f54108015610d9f5750600f5415155b15611045576000600e54600f54610db34390565b610dbd919061291b565b610dc791906128c0565b90506000610dd361184b565b90506000806000806000610de78787611e1e565b601354949950929750909550935091508615801590610e0557508415155b15610e2157610e1d81610e1789611930565b876108bd565b6013555b8715610e9e576005546040516340c10f1960e01b8152306004820152602481018a90526001600160a01b03909116906340c10f19906044016020604051808303816000875af1158015610e78573d6000803e3d6000fd5b505050506040513d601f19601f82011682018060405250810190610e9c919061292e565b505b8315610f5f57600b54604051631c28332160e01b8152600481018690526001600160a01b0390911690631c283321906024016020604051808303816000875af1158015610eef573d6000803e3d6000fd5b505050506040513d601f19601f82011682018060405250810190610f13919061292e565b610f5f5760405162461bcd60e51b815260206004820152600d60248201527f4641494c20616464536569677300000000000000000000000000000000000000604482015260640161094c565b8215801590610f7857506007546001600160a01b031615155b15610f9a57600754600554610f9a916001600160a01b03918216911685611ff6565b8115801590610fb357506008546001600160a01b031615155b15610fd557600854600554610fd5916001600160a01b03918216911684611ff6565b43600f81905560408051608081018252878152602081018790528082018690526060810185905260135491517f491f3ec7b57b7cee9dca882bac5fdf6a618591245c3f05770e80a9618475c621936110349390928d928c928891612950565b60405180910390a150505050505050505b6001915050601180546cff00000000000000000000000019166c0100000000000000000000000017905590565b61107b33610be3565b6110c05760405162461bcd60e51b81526020600482015260226024820152600080516020612af883398151915260448201526134b760f11b606482015260840161094c565b6007546001600160a01b0383811691161480156110ea57506008546001600160a01b038281169116145b156111205760405162461bcd60e51b815260040161094c9060208082526004908201526373616d6560e01b604082015260600190565b600780546001600160a01b0393841673ffffffffffffffffffffffffffffffffffffffff199182161790915560088054929093169116179055565b600080600061116b846014611c7a565b915091508161117c5760135461117e565b805b949350505050565b600081156111ad576013546111a383670de0b6b3a76400006128c0565b6108b791906128d7565b919050565b6111bb33610be3565b6112005760405162461bcd60e51b81526020600482015260226024820152600080516020612af883398151915260448201526134b760f11b606482015260840161094c565b61097f7fdf8b4c520ffe197c5343c6f5aec59570151ef9a492f2c624fd45ddde6135ec4282610c23565b61123333610be3565b6112785760405162461bcd60e51b81526020600482015260226024820152600080516020612af883398151915260448201526134b760f11b606482015260840161094c565b6001600160a01b0381166112ce5760405162461bcd60e51b815260206004820152601860248201527f41636365737369626c653a207a65726f20616464726573730000000000000000604482015260640161094c565b6001600160a01b03811633036113265760405162461bcd60e51b815260206004820152601660248201527f41636365737369626c653a2073616d652061646d696e00000000000000000000604482015260640161094c565b6113507fdf8b4c520ffe197c5343c6f5aec59570151ef9a492f2c624fd45ddde6135ec4282610c23565b61097f7fdf8b4c520ffe197c5343c6f5aec59570151ef9a492f2c624fd45ddde6135ec4233610c64565b600d54604051633ae3774760e11b8152600481018390526000916001600160a01b0316906375c6ee8e90602401602060405180830381865afa1580156113c4573d6000803e3d6000fd5b505050506040513d601f19601f820116820180604052508101906113e891906129a7565b600c54604051633ae3774760e11b8152600481018590526001600160a01b03909116906375c6ee8e90602401602060405180830381865afa158015611431573d6000803e3d6000fd5b505050506040513d601f19601f8201168201806040525081019061145591906129a7565b6108b791906128ad565b600043601154600f5461147f91600160401b900463ffffffff16906128ad565b10156114905761148d610cf0565b90505b50600190565b600a54604080516318160ddd60e01b815290516000926001600160a01b0316916318160ddd9160048083019260209291908290030181865afa1580156114e0573d6000803e3d6000fd5b505050506040513d601f19601f8201168201806040525081019061150491906129a7565b6005546006546040516370a0823160e01b81526001600160a01b0391821660048201529116906370a0823190602401602060405180830381865afa158015611550573d6000803e3d6000fd5b505050506040513d601f19601f8201168201806040525081019061157491906129a7565b600560009054906101000a90046001600160a01b03166001600160a01b03166318160ddd6040518163ffffffff1660e01b8152600401602060405180830381865afa1580156115c7573d6000803e3d6000fd5b505050506040513d601f19601f820116820180604052508101906115eb91906129a7565b6115f591906128ad565b6115ff91906128ad565b905090565b6060601680548060200260200160405190810160405280929190818152602001828054801561167e57602002820191906000526020600020906000905b82829054906101000a900463ffffffff1663ffffffff16815260200190600401906020826003010492830192600103820291508084116116415790505b5050505050905090565b600082156108b757670de0b6b3a76400006116a28361115b565b6109a590856128c0565b60006115ff612126565b331515806116ce5750600b546001600160a01b031633145b806116e35750600c546001600160a01b031633145b806116f85750600d546001600160a01b031633145b61172c5760405162461bcd60e51b8152602060048201526005602482015264534d5f453160d81b604482015260640161094c565b6005546040516370a0823160e01b81523060048201526001600160a01b03909116906370a0823190602401602060405180830381865afa158015611774573d6000803e3d6000fd5b505050506040513d601f19601f8201168201806040525081019061179891906129a7565b8111156117e75760405162461bcd60e51b815260206004820152601860248201527f696e73756666696369656e7420544f4e2062616c616e63650000000000000000604482015260640161094c565b6005546117fe906001600160a01b03168383611ff6565b604080513381526001600160a01b03841660208201529081018290527ff7a40077ff7a04c7e61f6f26fb13774259ddf1b6bce9ecf26a8276cdd39926839060600160405180910390a15050565b600d5460408051635a09d9bd60e11b815290516000926001600160a01b03169163b413b37a9160048083019260209291908290030181865afa158015611895573d6000803e3d6000fd5b505050506040513d601f19601f820116820180604052508101906118b991906129a7565b600c60009054906101000a90046001600160a01b03166001600160a01b031663b413b37a6040518163ffffffff1660e01b8152600401602060405180830381865afa15801561190c573d6000803e3d6000fd5b505050506040513d601f19601f820116820180604052508101906115f591906129a7565b600081156111ad57670de0b6b3a764000061194a60135490565b6111a390846128c0565b61195d33610be3565b6119a25760405162461bcd60e51b81526020600482015260226024820152600080516020612af883398151915260448201526134b760f11b606482015260840161094c565b80806000036119d85760405162461bcd60e51b81526020600482015260026024820152615a3160f01b604482015260640161094c565b81600f5403611a125760405162461bcd60e51b815260040161094c9060208082526004908201526373616d6560e01b604082015260600190565b600f829055601054600003610cec5750601055565b600082815260208190526040902060010154611a4281611bd2565b610c488383611d9f565b600043600f54108015611a605750600f5415155b15611a7f57600e54600f54611a75904361291b565b6115ff91906128c0565b90565b611a8b33610be3565b611ad05760405162461bcd60e51b81526020600482015260226024820152600080516020612af883398151915260448201526134b760f11b606482015260840161094c565b80600e5403611b0a5760405162461bcd60e51b815260040161094c9060208082526004908201526373616d6560e01b604082015260600190565b600e55565b611b1833610be3565b611b5d5760405162461bcd60e51b81526020600482015260226024820152600080516020612af883398151915260448201526134b760f11b606482015260840161094c565b60115463ffffffff808316600160401b9092041603611ba75760405162461bcd60e51b815260040161094c9060208082526004908201526373616d6560e01b604082015260600190565b6011805463ffffffff909216600160401b026bffffffff000000000000000019909216919091179055565b61097f81336122b0565b6000828152602081815260408083206001600160a01b038516845290915290205460ff16610cec576000828152602081815260408083206001600160a01b03851684529091529020805460ff19166001179055611c363390565b6001600160a01b0316816001600160a01b0316837f2f8788117e7eff1d82e926ec794901d17c78024a50270940304540a733656f0d60405160405180910390a45050565b600080611c8660125490565b841115611cd55760405162461bcd60e51b815260206004820152601860248201527f536e617073686f743a206e6f6e6578697374656e742069640000000000000000604482015260640161094c565b825415801590611d0e575082548390611cf09060019061291b565b81548110611d0057611d006129c0565b906000526020600020015484115b15611d4c578254600090600180860191611d28919061291b565b81548110611d3857611d386129c0565b906000526020600020015491509150611d98565b6000611d588486612323565b84549091508103611d70576000809250925050611d98565b6001846001018281548110611d8757611d876129c0565b906000526020600020015492509250505b9250929050565b6000828152602081815260408083206001600160a01b038516845290915290205460ff1615610cec576000828152602081815260408083206001600160a01b0385168085529252808320805460ff1916905551339285917ff6391f5c32d9c69d2a47ea670b442974b53935d1edc7fd64eb21e047a839171b9190a45050565b6000806000806000611e2e611496565b94508415611fec578515611e5d5784611e4687611930565b611e5090896128c0565b611e5a91906128d7565b93505b600b546040805163e12a621960e01b815290516000926001600160a01b03169163e12a62199160048083019260209291908290030181865afa158015611ea7573d6000803e3d6000fd5b505050506040513d601f19601f82011682018060405250810190611ecb91906129a7565b90508015611eeb5785611ede828a6128c0565b611ee891906128d7565b93505b600084611ef8878b61291b565b611f02919061291b565b9050600081118015611f205750601154600160301b900461ffff1615155b15611fe95760115461ffff1615611f635760115461ffff600160301b8204811691611f4c9116836128c0565b611f5691906128d7565b611f6090876128ad565b95505b60115462010000900461ffff1615611fa45760115461ffff600160301b8204811691611f97916201000090910416836128c0565b611fa191906128d7565b93505b601154640100000000900461ffff1615611fe95760115461ffff600160301b8204811691611fdc9164010000000090910416836128c0565b611fe691906128d7565b92505b50505b9295509295909350565b604080516001600160a01b038481166024830152604480830185905283518084039091018152606490920183526020820180517bffffffffffffffffffffffffffffffffffffffffffffffffffffffff1663a9059cbb60e01b179052915160009283929087169161206791906129fa565b6000604051808303816000865af19150503d80600081146120a4576040519150601f19603f3d011682016040523d82523d6000602084013e6120a9565b606091505b50915091508180156120d35750805115806120d35750808060200190518101906120d3919061292e565b61211f5760405162461bcd60e51b815260206004820152600f60248201527f5452414e534645525f4641494c45440000000000000000000000000000000000604482015260640161094c565b5050505050565b60165460009081036121eb576016805460018082019092557fd833147d7dc355ba459fc788f669e58cfaf9dc25ddcd0702e87d69c7b51242896008820401805460079092166004026101000a63ffffffff021990911690556014805480830190915560007fce6d7b5282bd9a3661ae061feed1dbda4e52ab073b1f9285be6e155d9c38d4ec9091018190556015805492830181559052670de0b6b3a76400007f55f448fdea98c4d29eb340757ef0a66cd03dbb9538908a6a81d96026b71ec475909101555b601680546001808201835560009283527fd833147d7dc355ba459fc788f669e58cfaf9dc25ddcd0702e87d69c7b51242896008830401805460079093166004026101000a63ffffffff81810219909416429094160292909217909155601280549192909161225a9084906128ad565b9250508190555061226e6014601354612433565b601254604080519182524260208301527f492fbd8cfdd942203e99f6bc74253a1e1f5791b0644612279e778349f353b198910160405180910390a15060125490565b6000828152602081815260408083206001600160a01b038516845290915290205460ff16610cec576122e18161247e565b6122ec836020612490565b6040516020016122fd929190612a16565b60408051601f198184030181529082905262461bcd60e51b825261094c91600401612a97565b81546000908103612336575060006108b7565b825483906123469060019061291b565b81548110612356576123566129c0565b9060005260206000200154821061237c5782546123759060019061291b565b90506108b7565b8260008154811061238f5761238f6129c0565b90600052602060002001548210156123a9575060006108b7565b825460009081906123bc9060019061291b565b90505b8181111561242b57600060026123d584846128ad565b6123e09060016128ad565b6123ea91906128d7565b9050848682815481106123ff576123ff6129c0565b90600052602060002001541161241757809250612425565b61242260018261291b565b91505b506123bf565b509392505050565b600061243e60125490565b90508061244a84612639565b1015610c48578254600180820185556000858152602080822090930193909355938401805494850181558252902090910155565b60606108b76001600160a01b03831660145b6060600061249f8360026128c0565b6124aa9060026128ad565b67ffffffffffffffff8111156124c2576124c2612aca565b6040519080825280601f01601f1916602001820160405280156124ec576020820181803683370190505b509050600360fc1b81600081518110612507576125076129c0565b60200101906001600160f81b031916908160001a905350600f60fb1b81600181518110612536576125366129c0565b60200101906001600160f81b031916908160001a905350600061255a8460026128c0565b6125659060016128ad565b90505b60018111156125ea577f303132333435363738396162636465660000000000000000000000000000000085600f16601081106125a6576125a66129c0565b1a60f81b8282815181106125bc576125bc6129c0565b60200101906001600160f81b031916908160001a90535060049490941c936125e381612ae0565b9050612568565b5083156108fb5760405162461bcd60e51b815260206004820181905260248201527f537472696e67733a20686578206c656e67746820696e73756666696369656e74604482015260640161094c565b8054600090810361264c57506000919050565b8154829061265c9060019061291b565b8154811061266c5761266c6129c0565b90600052602060002001549050919050565b60006020828403121561269057600080fd5b81356001600160e01b0319811681146108fb57600080fd5b6000806000606084860312156126bd57600080fd5b505081359360208301359350604090920135919050565b80356001600160a01b03811681146111ad57600080fd5b6000602082840312156126fd57600080fd5b6108fb826126d4565b6000806040838503121561271957600080fd5b50508035926020909101359150565b60006020828403121561273a57600080fd5b5035919050565b803561ffff811681146111ad57600080fd5b6000806000806080858703121561276957600080fd5b61277285612741565b935061278060208601612741565b925061278e60408601612741565b915061279c60608601612741565b905092959194509250565b600080604083850312156127ba57600080fd5b823591506127ca602084016126d4565b90509250929050565b600080604083850312156127e657600080fd5b6127ef836126d4565b91506127ca602084016126d4565b6020808252825182820181905260009190848201906040850190845b8181101561283b57835163ffffffff1683529284019291840191600101612819565b50909695505050505050565b6000806040838503121561285a57600080fd5b612863836126d4565b946020939093013593505050565b60006020828403121561288357600080fd5b813563ffffffff811681146108fb57600080fd5b634e487b7160e01b600052601160045260246000fd5b808201808211156108b7576108b7612897565b80820281158282048414176108b7576108b7612897565b6000826128f457634e487b7160e01b600052601260045260246000fd5b500490565b61ffff81811683821601908082111561291457612914612897565b5092915050565b818103818111156108b7576108b7612897565b60006020828403121561294057600080fd5b815180151581146108fb57600080fd5b60006101208201905087825260208781840152866040840152606083018660005b600481101561298e57815183529183019190830190600101612971565b5050505060e08201939093526101000152949350505050565b6000602082840312156129b957600080fd5b5051919050565b634e487b7160e01b600052603260045260246000fd5b60005b838110156129f15781810151838201526020016129d9565b50506000910152565b60008251612a0c8184602087016129d6565b9190910192915050565b7f416363657373436f6e74726f6c3a206163636f756e7420000000000000000000815260008351612a4e8160178501602088016129d6565b7f206973206d697373696e6720726f6c65200000000000000000000000000000006017918401918201528351612a8b8160288401602088016129d6565b01602801949350505050565b6020815260008251806020840152612ab68160408501602087016129d6565b601f01601f19169190910160400192915050565b634e487b7160e01b600052604160045260246000fd5b600081612aef57612aef612897565b50600019019056fe41636365737369626c653a2043616c6c6572206973206e6f7420616e2061646da164736f6c6343000812000a",
  "linkReferences": {},
  "deployedLinkReferences": {}
}