{
  "_format": "hh-sol-artifact-1",
  "contractName": "SeigManagerV2",
  "sourceName": "contracts/SeigManagerV2.sol",
  "abi": [
    {
      "inputs": [],
      "stateMutability": "nonpayable",
      "type": "constructor"
    },
    {
      "anonymous": false,
      "inputs": [
        {
          "indexed": false,
          "internalType": "address",
          "name": "caller",
          "type": "address"
        },
        {
          "indexed": false,
          "internalType": "address",
          "name": "to",
          "type": "address"
        },
        {
          "indexed": false,
          "internalType": "uint256",
          "name": "amount",
          "type": "uint256"
        }
      ],
      "name": "Claimed",
      "type": "event"
    },
    {
      "anonymous": false,
      "inputs": [
        {
          "indexed": true,
          "internalType": "bytes32",
          "name": "role",
          "type": "bytes32"
        },
        {
          "indexed": true,
          "internalType": "bytes32",
          "name": "previousAdminRole",
          "type": "bytes32"
        },
        {
          "indexed": true,
          "internalType": "bytes32",
          "name": "newAdminRole",
          "type": "bytes32"
        }
      ],
      "name": "RoleAdminChanged",
      "type": "event"
    },
    {
      "anonymous": false,
      "inputs": [
        {
          "indexed": true,
          "internalType": "bytes32",
          "name": "role",
          "type": "bytes32"
        },
        {
          "indexed": true,
          "internalType": "address",
          "name": "account",
          "type": "address"
        },
        {
          "indexed": true,
          "internalType": "address",
          "name": "sender",
          "type": "address"
        }
      ],
      "name": "RoleGranted",
      "type": "event"
    },
    {
      "anonymous": false,
      "inputs": [
        {
          "indexed": true,
          "internalType": "bytes32",
          "name": "role",
          "type": "bytes32"
        },
        {
          "indexed": true,
          "internalType": "address",
          "name": "account",
          "type": "address"
        },
        {
          "indexed": true,
          "internalType": "address",
          "name": "sender",
          "type": "address"
        }
      ],
      "name": "RoleRevoked",
      "type": "event"
    },
    {
      "anonymous": false,
      "inputs": [
        {
          "indexed": false,
          "internalType": "uint256",
          "name": "lastSeigBlock_",
          "type": "uint256"
        },
        {
          "indexed": false,
          "internalType": "uint256",
          "name": "increaseSeig_",
          "type": "uint256"
        },
        {
          "indexed": false,
          "internalType": "uint256",
          "name": "totalSupplyOfTon_",
          "type": "uint256"
        },
        {
          "indexed": false,
          "internalType": "uint256[4]",
          "name": "amount_",
          "type": "uint256[4]"
        },
        {
          "indexed": false,
          "internalType": "uint256",
          "name": "prevIndex_",
          "type": "uint256"
        },
        {
          "indexed": false,
          "internalType": "uint256",
          "name": "index_",
          "type": "uint256"
        }
      ],
      "name": "UpdatedSeigniorage",
      "type": "event"
    },
    {
      "inputs": [],
      "name": "ADMIN_ROLE",
      "outputs": [
        {
          "internalType": "bytes32",
          "name": "",
          "type": "bytes32"
        }
      ],
      "stateMutability": "view",
      "type": "function"
    },
    {
      "inputs": [],
      "name": "DEFAULT_ADMIN_ROLE",
      "outputs": [
        {
          "internalType": "bytes32",
          "name": "",
          "type": "bytes32"
        }
      ],
      "stateMutability": "view",
      "type": "function"
    },
    {
      "inputs": [],
      "name": "POLICY_ROLE",
      "outputs": [
        {
          "internalType": "bytes32",
          "name": "",
          "type": "bytes32"
        }
      ],
      "stateMutability": "view",
      "type": "function"
    },
    {
      "inputs": [
        {
          "internalType": "address",
          "name": "account",
          "type": "address"
        }
      ],
      "name": "addAdmin",
      "outputs": [],
      "stateMutability": "nonpayable",
      "type": "function"
    },
    {
      "inputs": [
        {
          "internalType": "address",
          "name": "",
          "type": "address"
        }
      ],
      "name": "aliveImplementation",
      "outputs": [
        {
          "internalType": "bool",
          "name": "",
          "type": "bool"
        }
      ],
      "stateMutability": "view",
      "type": "function"
    },
    {
      "inputs": [
        {
          "internalType": "uint256",
          "name": "curIndex",
          "type": "uint256"
        },
        {
          "internalType": "uint256",
          "name": "curTotal",
          "type": "uint256"
        },
        {
          "internalType": "uint256",
          "name": "increaseAmount",
          "type": "uint256"
        }
      ],
      "name": "calculateIndex",
      "outputs": [
        {
          "internalType": "uint256",
          "name": "nextIndex",
          "type": "uint256"
        }
      ],
      "stateMutability": "pure",
      "type": "function"
    },
    {
      "inputs": [],
      "name": "candidate",
      "outputs": [
        {
          "internalType": "address",
          "name": "",
          "type": "address"
        }
      ],
      "stateMutability": "view",
      "type": "function"
    },
    {
      "inputs": [
        {
          "internalType": "address",
          "name": "_to",
          "type": "address"
        },
        {
          "internalType": "uint256",
          "name": "_amount",
          "type": "uint256"
        }
      ],
      "name": "claim",
      "outputs": [],
      "stateMutability": "nonpayable",
      "type": "function"
    },
    {
      "inputs": [],
      "name": "dao",
      "outputs": [
        {
          "internalType": "address",
          "name": "",
          "type": "address"
        }
      ],
      "stateMutability": "view",
      "type": "function"
    },
    {
      "inputs": [],
      "name": "getCurrentBlockNumber",
      "outputs": [
        {
          "internalType": "uint256",
          "name": "",
          "type": "uint256"
        }
      ],
      "stateMutability": "view",
      "type": "function"
    },
    {
      "inputs": [
        {
          "internalType": "uint256",
          "name": "lton",
          "type": "uint256"
        }
      ],
      "name": "getLtonToTon",
      "outputs": [
        {
          "internalType": "uint256",
          "name": "amount",
          "type": "uint256"
        }
      ],
      "stateMutability": "view",
      "type": "function"
    },
    {
      "inputs": [
        {
          "internalType": "bytes32",
          "name": "role",
          "type": "bytes32"
        }
      ],
      "name": "getRoleAdmin",
      "outputs": [
        {
          "internalType": "bytes32",
          "name": "",
          "type": "bytes32"
        }
      ],
      "stateMutability": "view",
      "type": "function"
    },
    {
      "inputs": [
        {
          "internalType": "uint256",
          "name": "_amount",
          "type": "uint256"
        }
      ],
      "name": "getTonToLton",
      "outputs": [
        {
          "internalType": "uint256",
          "name": "amount",
          "type": "uint256"
        }
      ],
      "stateMutability": "view",
      "type": "function"
    },
    {
      "inputs": [],
      "name": "getTotalLton",
      "outputs": [
        {
          "internalType": "uint256",
          "name": "amount",
          "type": "uint256"
        }
      ],
      "stateMutability": "view",
      "type": "function"
    },
    {
      "inputs": [
        {
          "internalType": "bytes32",
          "name": "role",
          "type": "bytes32"
        },
        {
          "internalType": "address",
          "name": "account",
          "type": "address"
        }
      ],
      "name": "grantRole",
      "outputs": [],
      "stateMutability": "nonpayable",
      "type": "function"
    },
    {
      "inputs": [
        {
          "internalType": "bytes32",
          "name": "role",
          "type": "bytes32"
        },
        {
          "internalType": "address",
          "name": "account",
          "type": "address"
        }
      ],
      "name": "hasRole",
      "outputs": [
        {
          "internalType": "bool",
          "name": "",
          "type": "bool"
        }
      ],
      "stateMutability": "view",
      "type": "function"
    },
    {
      "inputs": [],
      "name": "indexLton",
      "outputs": [
        {
          "internalType": "uint256",
          "name": "",
          "type": "uint256"
        }
      ],
      "stateMutability": "view",
      "type": "function"
    },
    {
      "inputs": [
        {
          "internalType": "address",
          "name": "account",
          "type": "address"
        }
      ],
      "name": "isAdmin",
      "outputs": [
        {
          "internalType": "bool",
          "name": "",
          "type": "bool"
        }
      ],
      "stateMutability": "view",
      "type": "function"
    },
    {
      "inputs": [],
      "name": "lastSeigBlock",
      "outputs": [
        {
          "internalType": "uint256",
          "name": "",
          "type": "uint256"
        }
      ],
      "stateMutability": "view",
      "type": "function"
    },
    {
      "inputs": [],
      "name": "layer2Manager",
      "outputs": [
        {
          "internalType": "address",
          "name": "",
          "type": "address"
        }
      ],
      "stateMutability": "view",
      "type": "function"
    },
    {
      "inputs": [],
      "name": "minimumBlocksForUpdateSeig",
      "outputs": [
        {
          "internalType": "uint32",
          "name": "",
          "type": "uint32"
        }
      ],
      "stateMutability": "view",
      "type": "function"
    },
    {
      "inputs": [],
      "name": "mintableSeigsAmount",
      "outputs": [
        {
          "internalType": "uint256",
          "name": "amount",
          "type": "uint256"
        }
      ],
      "stateMutability": "view",
      "type": "function"
    },
    {
      "inputs": [],
      "name": "optimismSequencer",
      "outputs": [
        {
          "internalType": "address",
          "name": "",
          "type": "address"
        }
      ],
      "stateMutability": "view",
      "type": "function"
    },
    {
      "inputs": [],
      "name": "pauseProxy",
      "outputs": [
        {
          "internalType": "bool",
          "name": "",
          "type": "bool"
        }
      ],
      "stateMutability": "view",
      "type": "function"
    },
    {
      "inputs": [
        {
          "internalType": "uint256",
          "name": "",
          "type": "uint256"
        }
      ],
      "name": "proxyImplementation",
      "outputs": [
        {
          "internalType": "address",
          "name": "",
          "type": "address"
        }
      ],
      "stateMutability": "view",
      "type": "function"
    },
    {
      "inputs": [],
      "name": "ratesDao",
      "outputs": [
        {
          "internalType": "uint16",
          "name": "",
          "type": "uint16"
        }
      ],
      "stateMutability": "view",
      "type": "function"
    },
    {
      "inputs": [],
      "name": "ratesStosHolders",
      "outputs": [
        {
          "internalType": "uint16",
          "name": "",
          "type": "uint16"
        }
      ],
      "stateMutability": "view",
      "type": "function"
    },
    {
      "inputs": [],
      "name": "ratesTonStakers",
      "outputs": [
        {
          "internalType": "uint16",
          "name": "",
          "type": "uint16"
        }
      ],
      "stateMutability": "view",
      "type": "function"
    },
    {
      "inputs": [],
      "name": "ratesUnits",
      "outputs": [
        {
          "internalType": "uint16",
          "name": "",
          "type": "uint16"
        }
      ],
      "stateMutability": "view",
      "type": "function"
    },
    {
      "inputs": [
        {
          "internalType": "address",
          "name": "account",
          "type": "address"
        }
      ],
      "name": "removeAdmin",
      "outputs": [],
      "stateMutability": "nonpayable",
      "type": "function"
    },
    {
      "inputs": [
        {
          "internalType": "bytes32",
          "name": "role",
          "type": "bytes32"
        },
        {
          "internalType": "address",
          "name": "account",
          "type": "address"
        }
      ],
      "name": "renounceRole",
      "outputs": [],
      "stateMutability": "nonpayable",
      "type": "function"
    },
    {
      "inputs": [
        {
          "internalType": "bytes32",
          "name": "role",
          "type": "bytes32"
        },
        {
          "internalType": "address",
          "name": "account",
          "type": "address"
        }
      ],
      "name": "revokeRole",
      "outputs": [],
      "stateMutability": "nonpayable",
      "type": "function"
    },
    {
      "inputs": [],
      "name": "runUpdateSeigniorage",
      "outputs": [
        {
          "internalType": "bool",
          "name": "res",
          "type": "bool"
        }
      ],
      "stateMutability": "nonpayable",
      "type": "function"
    },
    {
      "inputs": [],
      "name": "seigManagerV1",
      "outputs": [
        {
          "internalType": "address",
          "name": "",
          "type": "address"
        }
      ],
      "stateMutability": "view",
      "type": "function"
    },
    {
      "inputs": [],
      "name": "seigPerBlock",
      "outputs": [
        {
          "internalType": "uint256",
          "name": "",
          "type": "uint256"
        }
      ],
      "stateMutability": "view",
      "type": "function"
    },
    {
      "inputs": [
        {
          "internalType": "bytes4",
          "name": "",
          "type": "bytes4"
        }
      ],
      "name": "selectorImplementation",
      "outputs": [
        {
          "internalType": "address",
          "name": "",
          "type": "address"
        }
      ],
      "stateMutability": "view",
      "type": "function"
    },
    {
      "inputs": [
        {
          "internalType": "address",
          "name": "_dao",
          "type": "address"
        },
        {
          "internalType": "address",
          "name": "_stosDistribute",
          "type": "address"
        }
      ],
      "name": "setAddress",
      "outputs": [],
      "stateMutability": "nonpayable",
      "type": "function"
    },
    {
      "inputs": [
        {
          "internalType": "uint16",
          "name": "_ratesDao",
          "type": "uint16"
        },
        {
          "internalType": "uint16",
          "name": "_ratesStosHolders",
          "type": "uint16"
        },
        {
          "internalType": "uint16",
          "name": "_ratesTonStakers",
          "type": "uint16"
        },
        {
          "internalType": "uint16",
          "name": "_ratesUnits",
          "type": "uint16"
        }
      ],
      "name": "setDividendRates",
      "outputs": [],
      "stateMutability": "nonpayable",
      "type": "function"
    },
    {
      "inputs": [
        {
          "internalType": "uint256",
          "name": "_lastSeigBlock",
          "type": "uint256"
        }
      ],
      "name": "setLastSeigBlock",
      "outputs": [],
      "stateMutability": "nonpayable",
      "type": "function"
    },
    {
      "inputs": [
        {
          "internalType": "uint32",
          "name": "_minimumBlocksForUpdateSeig",
          "type": "uint32"
        }
      ],
      "name": "setMinimumBlocksForUpdateSeig",
      "outputs": [],
      "stateMutability": "nonpayable",
      "type": "function"
    },
    {
      "inputs": [
        {
          "internalType": "uint256",
          "name": "_seigPerBlock",
          "type": "uint256"
        }
      ],
      "name": "setSeigPerBlock",
      "outputs": [],
      "stateMutability": "nonpayable",
      "type": "function"
    },
    {
      "inputs": [],
      "name": "startBlock",
      "outputs": [
        {
          "internalType": "uint256",
          "name": "",
          "type": "uint256"
        }
      ],
      "stateMutability": "view",
      "type": "function"
    },
    {
      "inputs": [],
      "name": "stosDistribute",
      "outputs": [
        {
          "internalType": "address",
          "name": "",
          "type": "address"
        }
      ],
      "stateMutability": "view",
      "type": "function"
    },
    {
      "inputs": [
        {
          "internalType": "bytes4",
          "name": "interfaceId",
          "type": "bytes4"
        }
      ],
      "name": "supportsInterface",
      "outputs": [
        {
          "internalType": "bool",
          "name": "",
          "type": "bool"
        }
      ],
      "stateMutability": "view",
      "type": "function"
    },
    {
      "inputs": [],
      "name": "ton",
      "outputs": [
        {
          "internalType": "contract IERC20",
          "name": "",
          "type": "address"
        }
      ],
      "stateMutability": "view",
      "type": "function"
    },
    {
      "inputs": [],
      "name": "tot",
      "outputs": [
        {
          "internalType": "address",
          "name": "",
          "type": "address"
        }
      ],
      "stateMutability": "view",
      "type": "function"
    },
    {
      "inputs": [],
      "name": "totalSupplyTON",
      "outputs": [
        {
          "internalType": "uint256",
          "name": "amount",
          "type": "uint256"
        }
      ],
      "stateMutability": "view",
      "type": "function"
    },
    {
      "inputs": [
        {
          "internalType": "address",
          "name": "newAdmin",
          "type": "address"
        }
      ],
      "name": "transferAdmin",
      "outputs": [],
      "stateMutability": "nonpayable",
      "type": "function"
    },
    {
      "inputs": [],
      "name": "updateSeigniorage",
      "outputs": [
        {
          "internalType": "bool",
          "name": "res",
          "type": "bool"
        }
      ],
      "stateMutability": "nonpayable",
      "type": "function"
    },
    {
      "inputs": [],
      "name": "wton",
      "outputs": [
        {
          "internalType": "address",
          "name": "",
          "type": "address"
        }
      ],
      "stateMutability": "view",
      "type": "function"
    }
  ],
  "bytecode": "0x60806040526012805460ff60601b19166c0100000000000000000000000017905534801561002c57600080fd5b506123168061003c6000396000f3fe608060405234801561001057600080fd5b50600436106103365760003560e01c80636fd902e1116101b2578063b413b37a116100f9578063da0dc135116100a2578063f1ae4e9f1161007c578063f1ae4e9f14610739578063f285c90f14610747578063f35c89e81461075a578063fb7d324d1461076357600080fd5b8063da0dc1351461070b578063daec65de1461071e578063f0bbcde91461072657600080fd5b8063cdf68009116100d3578063cdf68009146106d2578063ceeff097146106e5578063d547741f146106f857600080fd5b8063b413b37a1461068e578063b911135f14610696578063cc48b947146106bf57600080fd5b80638b95087b1161015b578063a16d6aa711610135578063a16d6aa714610660578063a217fddf14610673578063aad3ec961461067b57600080fd5b80638b95087b146106015780638d62d9491461061657806391d148541461062957600080fd5b806375b238fc1161018c57806375b238fc146105ca578063764a7856146105f1578063865e64a1146105f957600080fd5b80636fd902e11461059e57806370480275146105a457806375829def146105b757600080fd5b8063386f419b11610281578063550d01a31161022a57806363a3a2f51161020457806363a3a2f51461055857806363a8fd891461056b5780636a2fb1f5146105785780636c8381f81461058b57600080fd5b8063550d01a314610523578063558e4376146105465780635f40a3491461054f57600080fd5b806348cd4cb11161025b57806348cd4cb1146104c55780634ab6b462146104ce57806350d2a276146104fa57600080fd5b8063386f419b146104975780633b58524d1461049f5780634162169f146104b257600080fd5b8063247e5545116102e357806325dea4b0116102bd57806325dea4b01461045b5780632f2ff15d1461047157806336568abe1461048457600080fd5b8063247e5545146103fe578063248a9ca31461042557806324d7806c1461044857600080fd5b80631785f53c116103145780631785f53c146103af57806322985246146103c457806323c66ea6146103eb57600080fd5b806301ffc9a71461033b5780630528464a1461036357806316b5d5bd14610384575b600080fd5b61034e610349366004611edc565b610776565b60405190151581526020015b60405180910390f35b610376610371366004611f06565b6107ad565b60405190815260200161035a565b600b54610397906001600160a01b031681565b6040516001600160a01b03909116815260200161035a565b6103c26103bd366004611f49565b6107f2565b005b6103767ffb5864e8ff833c3cb2d2d08505e82ff02a43554c74a35d4f5a64e8526127831181565b6103c26103f9366004611f76565b610872565b6012546104129062010000900461ffff1681565b60405161ffff909116815260200161035a565b610376610433366004611fca565b60009081526020819052604090206001015490565b61034e610456366004611f49565b610a6c565b60125461041290640100000000900461ffff1681565b6103c261047f366004611fe3565b610aac565b6103c2610492366004611fe3565b610ad6565b61034e610b62565b6103c26104ad36600461200f565b610ee6565b600754610397906001600160a01b031681565b61037660105481565b6012546104e590600160401b900463ffffffff1681565b60405163ffffffff909116815260200161035a565b610397610508366004611edc565b6004602052600090815260409020546001600160a01b031681565b61034e610531366004611f49565b60036020526000908152604090205460ff1681565b61037660115481565b610376600e5481565b600954610397906001600160a01b031681565b60015461034e9060ff1681565b610376610586366004611fca565b610fcf565b600d54610397906001600160a01b031681565b43610376565b6103c26105b2366004611f49565b610ffb565b6103c26105c5366004611f49565b611073565b6103767fdf8b4c520ffe197c5343c6f5aec59570151ef9a492f2c624fd45ddde6135ec4281565b61034e6111c3565b6103766111fa565b60125461041290600160301b900461ffff1681565b600654610397906001600160a01b031681565b61034e610637366004611fe3565b6000918252602082815260408084206001600160a01b0393909316845291905290205460ff1690565b600a54610397906001600160a01b031681565b610376600081565b6103c2610689366004612039565b611368565b6103766114fd565b6103976106a4366004611fca565b6002602052600090815260409020546001600160a01b031681565b600554610397906001600160a01b031681565b6103766106e0366004611fca565b6115e2565b6103c26106f3366004611fca565b611601565b6103c2610706366004611fe3565b6116d4565b600c54610397906001600160a01b031681565b6103766116f9565b6103c2610734366004611fca565b61172f565b6012546104129061ffff1681565b6103c2610755366004612063565b6117bc565b610376600f5481565b600854610397906001600160a01b031681565b60006001600160e01b03198216637965db0b60e01b14806107a757506301ffc9a760e01b6001600160e01b03198316145b92915050565b600082158015906107bd57508115155b156107e857826107cd838261209f565b6107d790866120b2565b6107e191906120c9565b90506107eb565b50825b9392505050565b6107fb33610a6c565b6108455760405162461bcd60e51b815260206004820152602260248201526000805160206122ea83398151915260448201526134b760f11b60648201526084015b60405180910390fd5b61086f7fdf8b4c520ffe197c5343c6f5aec59570151ef9a492f2c624fd45ddde6135ec4282610ad6565b50565b61087b33610a6c565b6108c05760405162461bcd60e51b815260206004820152602260248201526000805160206122ea83398151915260448201526134b760f11b606482015260840161083c565b60125461ffff85811662010000909204161480156108ee575060125461ffff84811664010000000090920416145b8015610902575060125461ffff8381169116145b801561091d575060125461ffff828116600160301b90920416145b156109535760405162461bcd60e51b815260040161083c9060208082526004908201526373616d6560e01b604082015260600190565b8061ffff166000036109a75760405162461bcd60e51b815260206004820152601060248201527f77726f6e67207261746573556e69747300000000000000000000000000000000604482015260640161083c565b61ffff8116826109b785876120eb565b6109c191906120eb565b61ffff1614610a125760405162461bcd60e51b815260206004820152601560248201527f73756d206f6620726174696f2069732077726f6e670000000000000000000000604482015260640161083c565b6012805461ffff928316600160301b0267ffff00000000ffff199584166401000000000265ffff000000001997851662010000029790971665ffffffff000019909216919091179590951793909316911617919091179055565b6001600160a01b03811660009081527f5cbfc8ee58ca47855df7bcf648dd304ddb6b932f9b87878bdf6318d7ec7ee5b7602052604081205460ff166107a7565b600082815260208190526040902060010154610ac78161187f565b610ad18383611889565b505050565b6001600160a01b0381163314610b545760405162461bcd60e51b815260206004820152602f60248201527f416363657373436f6e74726f6c3a2063616e206f6e6c792072656e6f756e636560448201527f20726f6c657320666f722073656c660000000000000000000000000000000000606482015260840161083c565b610b5e8282611927565b5050565b6012546000906c01000000000000000000000000900460ff16610bb05760405162461bcd60e51b815260040161083c906020808252600490820152636c6f636b60e01b604082015260600190565b601280546cff000000000000000000000000191690556010546000819003610bff5760405162461bcd60e51b81526020600482015260026024820152615a3160f01b604482015260640161083c565b43600f54108015610c115750600f5415155b15610eb9576000600e54600f54610c254390565b610c2f919061210d565b610c3991906120b2565b90506000610c456114fd565b90506000806000806000610c5987876119a6565b601154949950929750909550935091508615801590610c7757508415155b15610c9557610c91601154610c8b896115e2565b876107ad565b6011555b8715610d12576005546040516340c10f1960e01b8152306004820152602481018a90526001600160a01b03909116906340c10f19906044016020604051808303816000875af1158015610cec573d6000803e3d6000fd5b505050506040513d601f19601f82011682018060405250810190610d109190612120565b505b8315610dd357600b54604051631c28332160e01b8152600481018690526001600160a01b0390911690631c283321906024016020604051808303816000875af1158015610d63573d6000803e3d6000fd5b505050506040513d601f19601f82011682018060405250810190610d879190612120565b610dd35760405162461bcd60e51b815260206004820152600d60248201527f4641494c20616464536569677300000000000000000000000000000000000000604482015260640161083c565b8215801590610dec57506007546001600160a01b031615155b15610e0e57600754600554610e0e916001600160a01b03918216911685611b7e565b8115801590610e2757506008546001600160a01b031615155b15610e4957600854600554610e49916001600160a01b03918216911684611b7e565b43600f81905560408051608081018252878152602081018790528082018690526060810185905260115491517f491f3ec7b57b7cee9dca882bac5fdf6a618591245c3f05770e80a9618475c62193610ea89390928d928c928891612142565b60405180910390a150505050505050505b6001915050601280546cff00000000000000000000000019166c0100000000000000000000000017905590565b610eef33610a6c565b610f345760405162461bcd60e51b815260206004820152602260248201526000805160206122ea83398151915260448201526134b760f11b606482015260840161083c565b6007546001600160a01b038381169116148015610f5e57506008546001600160a01b038281169116145b15610f945760405162461bcd60e51b815260040161083c9060208082526004908201526373616d6560e01b604082015260600190565b600780546001600160a01b0393841673ffffffffffffffffffffffffffffffffffffffff199182161790915560088054929093169116179055565b60008115610ff657601154610fec83670de0b6b3a76400006120b2565b6107a791906120c9565b919050565b61100433610a6c565b6110495760405162461bcd60e51b815260206004820152602260248201526000805160206122ea83398151915260448201526134b760f11b606482015260840161083c565b61086f7fdf8b4c520ffe197c5343c6f5aec59570151ef9a492f2c624fd45ddde6135ec4282610aac565b61107c33610a6c565b6110c15760405162461bcd60e51b815260206004820152602260248201526000805160206122ea83398151915260448201526134b760f11b606482015260840161083c565b6001600160a01b0381166111175760405162461bcd60e51b815260206004820152601860248201527f41636365737369626c653a207a65726f20616464726573730000000000000000604482015260640161083c565b6001600160a01b038116330361116f5760405162461bcd60e51b815260206004820152601660248201527f41636365737369626c653a2073616d652061646d696e00000000000000000000604482015260640161083c565b6111997fdf8b4c520ffe197c5343c6f5aec59570151ef9a492f2c624fd45ddde6135ec4282610aac565b61086f7fdf8b4c520ffe197c5343c6f5aec59570151ef9a492f2c624fd45ddde6135ec4233610ad6565b600043601254600f546111e391600160401b900463ffffffff169061209f565b10156111f4576111f1610b62565b90505b50600190565b600a54604080516318160ddd60e01b815290516000926001600160a01b0316916318160ddd9160048083019260209291908290030181865afa158015611244573d6000803e3d6000fd5b505050506040513d601f19601f820116820180604052508101906112689190612199565b6005546006546040516370a0823160e01b81526001600160a01b0391821660048201529116906370a0823190602401602060405180830381865afa1580156112b4573d6000803e3d6000fd5b505050506040513d601f19601f820116820180604052508101906112d89190612199565b600560009054906101000a90046001600160a01b03166001600160a01b03166318160ddd6040518163ffffffff1660e01b8152600401602060405180830381865afa15801561132b573d6000803e3d6000fd5b505050506040513d601f19601f8201168201806040525081019061134f9190612199565b611359919061209f565b611363919061209f565b905090565b331515806113805750600b546001600160a01b031633145b806113955750600c546001600160a01b031633145b806113aa5750600d546001600160a01b031633145b6113de5760405162461bcd60e51b8152602060048201526005602482015264534d5f453160d81b604482015260640161083c565b6005546040516370a0823160e01b81523060048201526001600160a01b03909116906370a0823190602401602060405180830381865afa158015611426573d6000803e3d6000fd5b505050506040513d601f19601f8201168201806040525081019061144a9190612199565b8111156114995760405162461bcd60e51b815260206004820152601860248201527f696e73756666696369656e7420544f4e2062616c616e63650000000000000000604482015260640161083c565b6005546114b0906001600160a01b03168383611b7e565b604080513381526001600160a01b03841660208201529081018290527ff7a40077ff7a04c7e61f6f26fb13774259ddf1b6bce9ecf26a8276cdd39926839060600160405180910390a15050565b600d5460408051635a09d9bd60e11b815290516000926001600160a01b03169163b413b37a9160048083019260209291908290030181865afa158015611547573d6000803e3d6000fd5b505050506040513d601f19601f8201168201806040525081019061156b9190612199565b600c60009054906101000a90046001600160a01b03166001600160a01b031663b413b37a6040518163ffffffff1660e01b8152600401602060405180830381865afa1580156115be573d6000803e3d6000fd5b505050506040513d601f19601f820116820180604052508101906113599190612199565b60008115610ff657670de0b6b3a764000060115483610fec91906120b2565b61160a33610a6c565b61164f5760405162461bcd60e51b815260206004820152602260248201526000805160206122ea83398151915260448201526134b760f11b606482015260840161083c565b80806000036116855760405162461bcd60e51b81526020600482015260026024820152615a3160f01b604482015260640161083c565b81600f54036116bf5760405162461bcd60e51b815260040161083c9060208082526004908201526373616d6560e01b604082015260600190565b600f829055601054600003610b5e5750601055565b6000828152602081905260409020600101546116ef8161187f565b610ad18383611927565b600043600f5410801561170d5750600f5415155b1561172c57600e54600f54611722904361210d565b61136391906120b2565b90565b61173833610a6c565b61177d5760405162461bcd60e51b815260206004820152602260248201526000805160206122ea83398151915260448201526134b760f11b606482015260840161083c565b80600e54036117b75760405162461bcd60e51b815260040161083c9060208082526004908201526373616d6560e01b604082015260600190565b600e55565b6117c533610a6c565b61180a5760405162461bcd60e51b815260206004820152602260248201526000805160206122ea83398151915260448201526134b760f11b606482015260840161083c565b60125463ffffffff808316600160401b90920416036118545760405162461bcd60e51b815260040161083c9060208082526004908201526373616d6560e01b604082015260600190565b6012805463ffffffff909216600160401b026bffffffff000000000000000019909216919091179055565b61086f8133611cae565b6000828152602081815260408083206001600160a01b038516845290915290205460ff16610b5e576000828152602081815260408083206001600160a01b03851684529091529020805460ff191660011790556118e33390565b6001600160a01b0316816001600160a01b0316837f2f8788117e7eff1d82e926ec794901d17c78024a50270940304540a733656f0d60405160405180910390a45050565b6000828152602081815260408083206001600160a01b038516845290915290205460ff1615610b5e576000828152602081815260408083206001600160a01b0385168085529252808320805460ff1916905551339285917ff6391f5c32d9c69d2a47ea670b442974b53935d1edc7fd64eb21e047a839171b9190a45050565b60008060008060006119b66111fa565b94508415611b745785156119e557846119ce876115e2565b6119d890896120b2565b6119e291906120c9565b93505b600b546040805163e12a621960e01b815290516000926001600160a01b03169163e12a62199160048083019260209291908290030181865afa158015611a2f573d6000803e3d6000fd5b505050506040513d601f19601f82011682018060405250810190611a539190612199565b90508015611a735785611a66828a6120b2565b611a7091906120c9565b93505b600084611a80878b61210d565b611a8a919061210d565b9050600081118015611aa85750601254600160301b900461ffff1615155b15611b715760125461ffff1615611aeb5760125461ffff600160301b8204811691611ad49116836120b2565b611ade91906120c9565b611ae8908761209f565b95505b60125462010000900461ffff1615611b2c5760125461ffff600160301b8204811691611b1f916201000090910416836120b2565b611b2991906120c9565b93505b601254640100000000900461ffff1615611b715760125461ffff600160301b8204811691611b649164010000000090910416836120b2565b611b6e91906120c9565b92505b50505b9295509295909350565b604080516001600160a01b038481166024830152604480830185905283518084039091018152606490920183526020820180517bffffffffffffffffffffffffffffffffffffffffffffffffffffffff1663a9059cbb60e01b1790529151600092839290871691611bef91906121d6565b6000604051808303816000865af19150503d8060008114611c2c576040519150601f19603f3d011682016040523d82523d6000602084013e611c31565b606091505b5091509150818015611c5b575080511580611c5b575080806020019051810190611c5b9190612120565b611ca75760405162461bcd60e51b815260206004820152600f60248201527f5452414e534645525f4641494c45440000000000000000000000000000000000604482015260640161083c565b5050505050565b6000828152602081815260408083206001600160a01b038516845290915290205460ff16610b5e57611cdf81611d21565b611cea836020611d33565b604051602001611cfb9291906121f2565b60408051601f198184030181529082905262461bcd60e51b825261083c91600401612273565b60606107a76001600160a01b03831660145b60606000611d428360026120b2565b611d4d90600261209f565b67ffffffffffffffff811115611d6557611d656122a6565b6040519080825280601f01601f191660200182016040528015611d8f576020820181803683370190505b509050600360fc1b81600081518110611daa57611daa6122bc565b60200101906001600160f81b031916908160001a905350600f60fb1b81600181518110611dd957611dd96122bc565b60200101906001600160f81b031916908160001a9053506000611dfd8460026120b2565b611e0890600161209f565b90505b6001811115611e8d577f303132333435363738396162636465660000000000000000000000000000000085600f1660108110611e4957611e496122bc565b1a60f81b828281518110611e5f57611e5f6122bc565b60200101906001600160f81b031916908160001a90535060049490941c93611e86816122d2565b9050611e0b565b5083156107eb5760405162461bcd60e51b815260206004820181905260248201527f537472696e67733a20686578206c656e67746820696e73756666696369656e74604482015260640161083c565b600060208284031215611eee57600080fd5b81356001600160e01b0319811681146107eb57600080fd5b600080600060608486031215611f1b57600080fd5b505081359360208301359350604090920135919050565b80356001600160a01b0381168114610ff657600080fd5b600060208284031215611f5b57600080fd5b6107eb82611f32565b803561ffff81168114610ff657600080fd5b60008060008060808587031215611f8c57600080fd5b611f9585611f64565b9350611fa360208601611f64565b9250611fb160408601611f64565b9150611fbf60608601611f64565b905092959194509250565b600060208284031215611fdc57600080fd5b5035919050565b60008060408385031215611ff657600080fd5b8235915061200660208401611f32565b90509250929050565b6000806040838503121561202257600080fd5b61202b83611f32565b915061200660208401611f32565b6000806040838503121561204c57600080fd5b61205583611f32565b946020939093013593505050565b60006020828403121561207557600080fd5b813563ffffffff811681146107eb57600080fd5b634e487b7160e01b600052601160045260246000fd5b808201808211156107a7576107a7612089565b80820281158282048414176107a7576107a7612089565b6000826120e657634e487b7160e01b600052601260045260246000fd5b500490565b61ffff81811683821601908082111561210657612106612089565b5092915050565b818103818111156107a7576107a7612089565b60006020828403121561213257600080fd5b815180151581146107eb57600080fd5b60006101208201905087825260208781840152866040840152606083018660005b600481101561218057815183529183019190830190600101612163565b5050505060e08201939093526101000152949350505050565b6000602082840312156121ab57600080fd5b5051919050565b60005b838110156121cd5781810151838201526020016121b5565b50506000910152565b600082516121e88184602087016121b2565b9190910192915050565b7f416363657373436f6e74726f6c3a206163636f756e742000000000000000000081526000835161222a8160178501602088016121b2565b7f206973206d697373696e6720726f6c652000000000000000000000000000000060179184019182015283516122678160288401602088016121b2565b01602801949350505050565b60208152600082518060208401526122928160408501602087016121b2565b601f01601f19169190910160400192915050565b634e487b7160e01b600052604160045260246000fd5b634e487b7160e01b600052603260045260246000fd5b6000816122e1576122e1612089565b50600019019056fe41636365737369626c653a2043616c6c6572206973206e6f7420616e2061646da164736f6c6343000812000a",
  "linkReferences": {},
  "deployedLinkReferences": {}
}