{
  "_format": "hh-sol-artifact-1",
  "contractName": "SeigManagerV2",
  "sourceName": "contracts/SeigManagerV2.sol",
  "abi": [
    {
      "inputs": [],
      "stateMutability": "nonpayable",
      "type": "constructor"
    },
    {
      "anonymous": false,
      "inputs": [
        {
          "indexed": false,
          "internalType": "address",
          "name": "caller",
          "type": "address"
        },
        {
          "indexed": false,
          "internalType": "address",
          "name": "to",
          "type": "address"
        },
        {
          "indexed": false,
          "internalType": "uint256",
          "name": "amount",
          "type": "uint256"
        }
      ],
      "name": "Claimed",
      "type": "event"
    },
    {
      "anonymous": false,
      "inputs": [
        {
          "indexed": true,
          "internalType": "bytes32",
          "name": "role",
          "type": "bytes32"
        },
        {
          "indexed": true,
          "internalType": "bytes32",
          "name": "previousAdminRole",
          "type": "bytes32"
        },
        {
          "indexed": true,
          "internalType": "bytes32",
          "name": "newAdminRole",
          "type": "bytes32"
        }
      ],
      "name": "RoleAdminChanged",
      "type": "event"
    },
    {
      "anonymous": false,
      "inputs": [
        {
          "indexed": true,
          "internalType": "bytes32",
          "name": "role",
          "type": "bytes32"
        },
        {
          "indexed": true,
          "internalType": "address",
          "name": "account",
          "type": "address"
        },
        {
          "indexed": true,
          "internalType": "address",
          "name": "sender",
          "type": "address"
        }
      ],
      "name": "RoleGranted",
      "type": "event"
    },
    {
      "anonymous": false,
      "inputs": [
        {
          "indexed": true,
          "internalType": "bytes32",
          "name": "role",
          "type": "bytes32"
        },
        {
          "indexed": true,
          "internalType": "address",
          "name": "account",
          "type": "address"
        },
        {
          "indexed": true,
          "internalType": "address",
          "name": "sender",
          "type": "address"
        }
      ],
      "name": "RoleRevoked",
      "type": "event"
    },
    {
      "anonymous": false,
      "inputs": [
        {
          "indexed": false,
          "internalType": "uint256",
          "name": "id",
          "type": "uint256"
        },
        {
          "indexed": false,
          "internalType": "uint256",
          "name": "snapshotTime",
          "type": "uint256"
        }
      ],
      "name": "Snapshot",
      "type": "event"
    },
    {
      "anonymous": false,
      "inputs": [
        {
          "indexed": false,
          "internalType": "uint256",
          "name": "lastSeigBlock_",
          "type": "uint256"
        },
        {
          "indexed": false,
          "internalType": "uint256",
          "name": "increaseSeig_",
          "type": "uint256"
        },
        {
          "indexed": false,
          "internalType": "uint256",
          "name": "totalSupplyOfWton_",
          "type": "uint256"
        },
        {
          "indexed": false,
          "internalType": "uint256[4]",
          "name": "amount_",
          "type": "uint256[4]"
        },
        {
          "indexed": false,
          "internalType": "uint256",
          "name": "prevIndex_",
          "type": "uint256"
        },
        {
          "indexed": false,
          "internalType": "uint256",
          "name": "index_",
          "type": "uint256"
        }
      ],
      "name": "UpdatedSeigniorage",
      "type": "event"
    },
    {
      "inputs": [],
      "name": "ADMIN_ROLE",
      "outputs": [
        {
          "internalType": "bytes32",
          "name": "",
          "type": "bytes32"
        }
      ],
      "stateMutability": "view",
      "type": "function"
    },
    {
      "inputs": [],
      "name": "DEFAULT_ADMIN_ROLE",
      "outputs": [
        {
          "internalType": "bytes32",
          "name": "",
          "type": "bytes32"
        }
      ],
      "stateMutability": "view",
      "type": "function"
    },
    {
      "inputs": [],
      "name": "POLICY_ROLE",
      "outputs": [
        {
          "internalType": "bytes32",
          "name": "",
          "type": "bytes32"
        }
      ],
      "stateMutability": "view",
      "type": "function"
    },
    {
      "inputs": [
        {
          "internalType": "address",
          "name": "account",
          "type": "address"
        }
      ],
      "name": "addAdmin",
      "outputs": [],
      "stateMutability": "nonpayable",
      "type": "function"
    },
    {
      "inputs": [
        {
          "internalType": "address",
          "name": "",
          "type": "address"
        }
      ],
      "name": "aliveImplementation",
      "outputs": [
        {
          "internalType": "bool",
          "name": "",
          "type": "bool"
        }
      ],
      "stateMutability": "view",
      "type": "function"
    },
    {
      "inputs": [
        {
          "internalType": "uint256",
          "name": "curIndex",
          "type": "uint256"
        },
        {
          "internalType": "uint256",
          "name": "curTotal",
          "type": "uint256"
        },
        {
          "internalType": "uint256",
          "name": "increaseAmount",
          "type": "uint256"
        }
      ],
      "name": "calculateIndex",
      "outputs": [
        {
          "internalType": "uint256",
          "name": "nextIndex",
          "type": "uint256"
        }
      ],
      "stateMutability": "pure",
      "type": "function"
    },
    {
      "inputs": [],
      "name": "candidate",
      "outputs": [
        {
          "internalType": "address",
          "name": "",
          "type": "address"
        }
      ],
      "stateMutability": "view",
      "type": "function"
    },
    {
      "inputs": [
        {
          "internalType": "address",
          "name": "_to",
          "type": "address"
        },
        {
          "internalType": "uint256",
          "name": "_amount",
          "type": "uint256"
        }
      ],
      "name": "claim",
      "outputs": [],
      "stateMutability": "nonpayable",
      "type": "function"
    },
    {
      "inputs": [],
      "name": "dao",
      "outputs": [
        {
          "internalType": "address",
          "name": "",
          "type": "address"
        }
      ],
      "stateMutability": "view",
      "type": "function"
    },
    {
      "inputs": [],
      "name": "getCurrentBlockNumber",
      "outputs": [
        {
          "internalType": "uint256",
          "name": "",
          "type": "uint256"
        }
      ],
      "stateMutability": "view",
      "type": "function"
    },
    {
      "inputs": [],
      "name": "getCurrentSnapshotId",
      "outputs": [
        {
          "internalType": "uint256",
          "name": "",
          "type": "uint256"
        }
      ],
      "stateMutability": "view",
      "type": "function"
    },
    {
      "inputs": [
        {
          "internalType": "uint256",
          "name": "lton",
          "type": "uint256"
        }
      ],
      "name": "getLwtonToWton",
      "outputs": [
        {
          "internalType": "uint256",
          "name": "amount",
          "type": "uint256"
        }
      ],
      "stateMutability": "view",
      "type": "function"
    },
    {
      "inputs": [
        {
          "internalType": "uint256",
          "name": "lton",
          "type": "uint256"
        },
        {
          "internalType": "uint256",
          "name": "_snapshotId",
          "type": "uint256"
        }
      ],
      "name": "getLwtonToWtonAt",
      "outputs": [
        {
          "internalType": "uint256",
          "name": "amount",
          "type": "uint256"
        }
      ],
      "stateMutability": "view",
      "type": "function"
    },
    {
      "inputs": [
        {
          "internalType": "bytes32",
          "name": "role",
          "type": "bytes32"
        }
      ],
      "name": "getRoleAdmin",
      "outputs": [
        {
          "internalType": "bytes32",
          "name": "",
          "type": "bytes32"
        }
      ],
      "stateMutability": "view",
      "type": "function"
    },
    {
      "inputs": [],
      "name": "getSnapshotTime",
      "outputs": [
        {
          "internalType": "uint32[]",
          "name": "",
          "type": "uint32[]"
        }
      ],
      "stateMutability": "view",
      "type": "function"
    },
    {
      "inputs": [],
      "name": "getTotalLwton",
      "outputs": [
        {
          "internalType": "uint256",
          "name": "amount",
          "type": "uint256"
        }
      ],
      "stateMutability": "view",
      "type": "function"
    },
    {
      "inputs": [
        {
          "internalType": "uint256",
          "name": "_snapshotId",
          "type": "uint256"
        }
      ],
      "name": "getTotalLwtonAt",
      "outputs": [
        {
          "internalType": "uint256",
          "name": "amount",
          "type": "uint256"
        }
      ],
      "stateMutability": "view",
      "type": "function"
    },
    {
      "inputs": [
        {
          "internalType": "uint256",
          "name": "_amount",
          "type": "uint256"
        }
      ],
      "name": "getWtonToLwton",
      "outputs": [
        {
          "internalType": "uint256",
          "name": "amount",
          "type": "uint256"
        }
      ],
      "stateMutability": "view",
      "type": "function"
    },
    {
      "inputs": [
        {
          "internalType": "uint256",
          "name": "_amount",
          "type": "uint256"
        },
        {
          "internalType": "uint256",
          "name": "_snapshotId",
          "type": "uint256"
        }
      ],
      "name": "getWtonToLwtonAt",
      "outputs": [
        {
          "internalType": "uint256",
          "name": "amount",
          "type": "uint256"
        }
      ],
      "stateMutability": "view",
      "type": "function"
    },
    {
      "inputs": [
        {
          "internalType": "bytes32",
          "name": "role",
          "type": "bytes32"
        },
        {
          "internalType": "address",
          "name": "account",
          "type": "address"
        }
      ],
      "name": "grantRole",
      "outputs": [],
      "stateMutability": "nonpayable",
      "type": "function"
    },
    {
      "inputs": [
        {
          "internalType": "bytes32",
          "name": "role",
          "type": "bytes32"
        },
        {
          "internalType": "address",
          "name": "account",
          "type": "address"
        }
      ],
      "name": "hasRole",
      "outputs": [
        {
          "internalType": "bool",
          "name": "",
          "type": "bool"
        }
      ],
      "stateMutability": "view",
      "type": "function"
    },
    {
      "inputs": [],
      "name": "indexLwton",
      "outputs": [
        {
          "internalType": "uint256",
          "name": "",
          "type": "uint256"
        }
      ],
      "stateMutability": "view",
      "type": "function"
    },
    {
      "inputs": [
        {
          "internalType": "uint256",
          "name": "snapshotId",
          "type": "uint256"
        }
      ],
      "name": "indexLwtonAt",
      "outputs": [
        {
          "internalType": "uint256",
          "name": "",
          "type": "uint256"
        }
      ],
      "stateMutability": "view",
      "type": "function"
    },
    {
      "inputs": [
        {
          "internalType": "uint256",
          "name": "snapshotId",
          "type": "uint256"
        }
      ],
      "name": "indexLwtonAtSnapshot",
      "outputs": [
        {
          "internalType": "bool",
          "name": "snapshotted",
          "type": "bool"
        },
        {
          "internalType": "uint256",
          "name": "value",
          "type": "uint256"
        }
      ],
      "stateMutability": "view",
      "type": "function"
    },
    {
      "inputs": [
        {
          "internalType": "address",
          "name": "account",
          "type": "address"
        }
      ],
      "name": "isAdmin",
      "outputs": [
        {
          "internalType": "bool",
          "name": "",
          "type": "bool"
        }
      ],
      "stateMutability": "view",
      "type": "function"
    },
    {
      "inputs": [],
      "name": "lastSeigBlock",
      "outputs": [
        {
          "internalType": "uint256",
          "name": "",
          "type": "uint256"
        }
      ],
      "stateMutability": "view",
      "type": "function"
    },
    {
      "inputs": [],
      "name": "layer2Manager",
      "outputs": [
        {
          "internalType": "address",
          "name": "",
          "type": "address"
        }
      ],
      "stateMutability": "view",
      "type": "function"
    },
    {
      "inputs": [],
      "name": "minimumBlocksForUpdateSeig",
      "outputs": [
        {
          "internalType": "uint32",
          "name": "",
          "type": "uint32"
        }
      ],
      "stateMutability": "view",
      "type": "function"
    },
    {
      "inputs": [],
      "name": "mintableSeigsAmount",
      "outputs": [
        {
          "internalType": "uint256",
          "name": "amount",
          "type": "uint256"
        }
      ],
      "stateMutability": "view",
      "type": "function"
    },
    {
      "inputs": [],
      "name": "optimismSequencer",
      "outputs": [
        {
          "internalType": "address",
          "name": "",
          "type": "address"
        }
      ],
      "stateMutability": "view",
      "type": "function"
    },
    {
      "inputs": [],
      "name": "pauseProxy",
      "outputs": [
        {
          "internalType": "bool",
          "name": "",
          "type": "bool"
        }
      ],
      "stateMutability": "view",
      "type": "function"
    },
    {
      "inputs": [
        {
          "internalType": "uint256",
          "name": "",
          "type": "uint256"
        }
      ],
      "name": "proxyImplementation",
      "outputs": [
        {
          "internalType": "address",
          "name": "",
          "type": "address"
        }
      ],
      "stateMutability": "view",
      "type": "function"
    },
    {
      "inputs": [],
      "name": "ratesDao",
      "outputs": [
        {
          "internalType": "uint16",
          "name": "",
          "type": "uint16"
        }
      ],
      "stateMutability": "view",
      "type": "function"
    },
    {
      "inputs": [],
      "name": "ratesStosHolders",
      "outputs": [
        {
          "internalType": "uint16",
          "name": "",
          "type": "uint16"
        }
      ],
      "stateMutability": "view",
      "type": "function"
    },
    {
      "inputs": [],
      "name": "ratesTonStakers",
      "outputs": [
        {
          "internalType": "uint16",
          "name": "",
          "type": "uint16"
        }
      ],
      "stateMutability": "view",
      "type": "function"
    },
    {
      "inputs": [],
      "name": "ratesUnits",
      "outputs": [
        {
          "internalType": "uint16",
          "name": "",
          "type": "uint16"
        }
      ],
      "stateMutability": "view",
      "type": "function"
    },
    {
      "inputs": [
        {
          "internalType": "address",
          "name": "account",
          "type": "address"
        }
      ],
      "name": "removeAdmin",
      "outputs": [],
      "stateMutability": "nonpayable",
      "type": "function"
    },
    {
      "inputs": [
        {
          "internalType": "bytes32",
          "name": "role",
          "type": "bytes32"
        },
        {
          "internalType": "address",
          "name": "account",
          "type": "address"
        }
      ],
      "name": "renounceRole",
      "outputs": [],
      "stateMutability": "nonpayable",
      "type": "function"
    },
    {
      "inputs": [
        {
          "internalType": "bytes32",
          "name": "role",
          "type": "bytes32"
        },
        {
          "internalType": "address",
          "name": "account",
          "type": "address"
        }
      ],
      "name": "revokeRole",
      "outputs": [],
      "stateMutability": "nonpayable",
      "type": "function"
    },
    {
      "inputs": [],
      "name": "runUpdateSeigniorage",
      "outputs": [
        {
          "internalType": "bool",
          "name": "res",
          "type": "bool"
        }
      ],
      "stateMutability": "nonpayable",
      "type": "function"
    },
    {
      "inputs": [],
      "name": "seigManagerV1",
      "outputs": [
        {
          "internalType": "address",
          "name": "",
          "type": "address"
        }
      ],
      "stateMutability": "view",
      "type": "function"
    },
    {
      "inputs": [],
      "name": "seigPerBlock",
      "outputs": [
        {
          "internalType": "uint256",
          "name": "",
          "type": "uint256"
        }
      ],
      "stateMutability": "view",
      "type": "function"
    },
    {
      "inputs": [
        {
          "internalType": "bytes4",
          "name": "",
          "type": "bytes4"
        }
      ],
      "name": "selectorImplementation",
      "outputs": [
        {
          "internalType": "address",
          "name": "",
          "type": "address"
        }
      ],
      "stateMutability": "view",
      "type": "function"
    },
    {
      "inputs": [
        {
          "internalType": "address",
          "name": "_dao",
          "type": "address"
        },
        {
          "internalType": "address",
          "name": "_stosDistribute",
          "type": "address"
        }
      ],
      "name": "setAddress",
      "outputs": [],
      "stateMutability": "nonpayable",
      "type": "function"
    },
    {
      "inputs": [
        {
          "internalType": "uint16",
          "name": "_ratesDao",
          "type": "uint16"
        },
        {
          "internalType": "uint16",
          "name": "_ratesStosHolders",
          "type": "uint16"
        },
        {
          "internalType": "uint16",
          "name": "_ratesTonStakers",
          "type": "uint16"
        },
        {
          "internalType": "uint16",
          "name": "_ratesUnits",
          "type": "uint16"
        }
      ],
      "name": "setDividendRates",
      "outputs": [],
      "stateMutability": "nonpayable",
      "type": "function"
    },
    {
      "inputs": [
        {
          "internalType": "uint256",
          "name": "_lastSeigBlock",
          "type": "uint256"
        }
      ],
      "name": "setLastSeigBlock",
      "outputs": [],
      "stateMutability": "nonpayable",
      "type": "function"
    },
    {
      "inputs": [
        {
          "internalType": "uint32",
          "name": "_minimumBlocksForUpdateSeig",
          "type": "uint32"
        }
      ],
      "name": "setMinimumBlocksForUpdateSeig",
      "outputs": [],
      "stateMutability": "nonpayable",
      "type": "function"
    },
    {
      "inputs": [
        {
          "internalType": "uint256",
          "name": "_seigPerBlock",
          "type": "uint256"
        }
      ],
      "name": "setSeigPerBlock",
      "outputs": [],
      "stateMutability": "nonpayable",
      "type": "function"
    },
    {
      "inputs": [],
      "name": "snapshot",
      "outputs": [
        {
          "internalType": "uint256",
          "name": "",
          "type": "uint256"
        }
      ],
      "stateMutability": "nonpayable",
      "type": "function"
    },
    {
      "inputs": [
        {
          "internalType": "uint256",
          "name": "",
          "type": "uint256"
        }
      ],
      "name": "snapshotTime",
      "outputs": [
        {
          "internalType": "uint32",
          "name": "",
          "type": "uint32"
        }
      ],
      "stateMutability": "view",
      "type": "function"
    },
    {
      "inputs": [],
      "name": "startBlock",
      "outputs": [
        {
          "internalType": "uint256",
          "name": "",
          "type": "uint256"
        }
      ],
      "stateMutability": "view",
      "type": "function"
    },
    {
      "inputs": [],
      "name": "stosDistribute",
      "outputs": [
        {
          "internalType": "address",
          "name": "",
          "type": "address"
        }
      ],
      "stateMutability": "view",
      "type": "function"
    },
    {
      "inputs": [
        {
          "internalType": "bytes4",
          "name": "interfaceId",
          "type": "bytes4"
        }
      ],
      "name": "supportsInterface",
      "outputs": [
        {
          "internalType": "bool",
          "name": "",
          "type": "bool"
        }
      ],
      "stateMutability": "view",
      "type": "function"
    },
    {
      "inputs": [],
      "name": "ton",
      "outputs": [
        {
          "internalType": "address",
          "name": "",
          "type": "address"
        }
      ],
      "stateMutability": "view",
      "type": "function"
    },
    {
      "inputs": [],
      "name": "tot",
      "outputs": [
        {
          "internalType": "address",
          "name": "",
          "type": "address"
        }
      ],
      "stateMutability": "view",
      "type": "function"
    },
    {
      "inputs": [],
      "name": "totalSupplyTONinWTON",
      "outputs": [
        {
          "internalType": "uint256",
          "name": "amount",
          "type": "uint256"
        }
      ],
      "stateMutability": "view",
      "type": "function"
    },
    {
      "inputs": [
        {
          "internalType": "address",
          "name": "newAdmin",
          "type": "address"
        }
      ],
      "name": "transferAdmin",
      "outputs": [],
      "stateMutability": "nonpayable",
      "type": "function"
    },
    {
      "inputs": [],
      "name": "updateSeigniorage",
      "outputs": [
        {
          "internalType": "bool",
          "name": "res",
          "type": "bool"
        }
      ],
      "stateMutability": "nonpayable",
      "type": "function"
    },
    {
      "inputs": [],
      "name": "wton",
      "outputs": [
        {
          "internalType": "contract IERC20",
          "name": "",
          "type": "address"
        }
      ],
      "stateMutability": "view",
      "type": "function"
    }
  ],
  "bytecode": "0x60806040526011805460ff60601b19166c0100000000000000000000000017905534801561002c57600080fd5b50612b658061003c6000396000f3fe608060405234801561001057600080fd5b50600436106103995760003560e01c806363a8fd89116101e9578063a217fddf1161010f578063daec65de116100ad578063f1ae4e9f1161007c578063f1ae4e9f14610849578063f285c90f14610857578063f35c89e81461086a578063fb7d324d1461087357600080fd5b8063daec65de14610813578063dd1da2b01461081b578063dddfb61f1461082e578063f0bbcde91461083657600080fd5b8063cc48b947116100e9578063cc48b947146107c7578063ceeff097146107da578063d547741f146107ed578063da0dc1351461080057600080fd5b8063a217fddf14610783578063aad3ec961461078b578063b911135f1461079e57600080fd5b8063764a78561161018757806391d148541161015657806391d14854146107295780639711715a146107605780639b0f048814610768578063a16d6aa71461077057600080fd5b8063764a7856146106e45780638b95087b146106ec5780638d62d949146107015780638de73e1d1461071457600080fd5b806370480275116101c3578063704802751461068457806370f0f9ae1461069757806375829def146106aa57806375b238fc146106bd57600080fd5b806363a8fd891461065e5780636c8381f81461066b5780636fd902e11461067e57600080fd5b8063319b097a116102ce5780634ab6b4621161026c5780635439ad861161023b5780635439ad8614610617578063550d01a31461061f5780635f40a3491461064257806363a3a2f51461064b57600080fd5b80634ab6b4621461059a5780634ae72f4a146105b15780634f4aa482146105c457806350d2a276146105ee57600080fd5b80633b58524d116102a85780633b58524d146105585780634162169f1461056b578063418431641461057e57806348cd4cb11461059157600080fd5b8063319b097a1461052a57806336568abe1461053d578063386f419b1461055057600080fd5b806323c66ea61161033b57806324d7806c1161031557806324d7806c146104e657806325dea4b0146104f9578063275be97d1461050f5780632f2ff15d1461051757600080fd5b806323c66ea614610489578063247e55451461049c578063248a9ca3146104c357600080fd5b806316b5d5bd1161037757806316b5d5bd146103fa5780631785f53c146104255780631dc0f9bb1461043a578063229852461461046257600080fd5b806301792de11461039e57806301ffc9a7146103c45780630528464a146103e7575b600080fd5b6103b16103ac3660046126bf565b610886565b6040519081526020015b60405180910390f35b6103d76103d23660046126e1565b6108c1565b60405190151581526020016103bb565b6103b16103f536600461270b565b6108f6565b600b5461040d906001600160a01b031681565b6040516001600160a01b0390911681526020016103bb565b61043861043336600461274e565b61093b565b005b61044d610448366004612769565b6109bb565b60405163ffffffff90911681526020016103bb565b6103b17ffb5864e8ff833c3cb2d2d08505e82ff02a43554c74a35d4f5a64e8526127831181565b610438610497366004612794565b6109f5565b6011546104b09062010000900461ffff1681565b60405161ffff90911681526020016103bb565b6103b16104d1366004612769565b60009081526020819052604090206001015490565b6103d76104f436600461274e565b610bef565b6011546104b090640100000000900461ffff1681565b6103b1610c2f565b6104386105253660046127e8565b610d23565b6103b1610538366004612769565b610d4d565b61043861054b3660046127e8565b610e32565b6103d7610ebe565b610438610566366004612814565b611240565b60075461040d906001600160a01b031681565b6103b161058c3660046126bf565b611329565b6103b160105481565b60115461044d90600160401b900463ffffffff1681565b6103b16105bf366004612769565b611350565b6105d76105d2366004612769565b611387565b6040805192151583526020830191909152016103bb565b61040d6105fc3660046126e1565b6004602052600090815260409020546001600160a01b031681565b6012546103b1565b6103d761062d36600461274e565b60036020526000908152604090205460ff1681565b6103b1600e5481565b60095461040d906001600160a01b031681565b6001546103d79060ff1681565b600d5461040d906001600160a01b031681565b436103b1565b61043861069236600461274e565b61139e565b6103b16106a5366004612769565b611416565b6104386106b836600461274e565b611441565b6103b17fdf8b4c520ffe197c5343c6f5aec59570151ef9a492f2c624fd45ddde6135ec4281565b6103d7611591565b6011546104b090600160301b900461ffff1681565b60055461040d906001600160a01b031681565b61071c6115c8565b6040516103bb919061283e565b6103d76107373660046127e8565b6000918252602082815260408084206001600160a01b0393909316845291905290205460ff1690565b6103b161164c565b6103b1611656565b600a5461040d906001600160a01b031681565b6103b1600081565b610438610799366004612888565b6117d1565b61040d6107ac366004612769565b6002602052600090815260409020546001600160a01b031681565b60065461040d906001600160a01b031681565b6104386107e8366004612769565b611966565b6104386107fb3660046127e8565b611a39565b600c5461040d906001600160a01b031681565b6103b1611a5e565b6103b1610829366004612769565b611a94565b6013546103b1565b610438610844366004612769565b611ab5565b6011546104b09061ffff1681565b6104386108653660046128b2565b611b42565b6103b1600f5481565b60085461040d906001600160a01b031681565b600082156108bb576b033b2e3c9fd0803ce80000006108a483611416565b6108ae90856128ee565b6108b89190612905565b90505b92915050565b60006001600160e01b03198216637965db0b60e01b14806108bb57506301ffc9a760e01b6001600160e01b03198316146108bb565b6000821580159061090657508115155b1561093157826109168382612927565b61092090866128ee565b61092a9190612905565b9050610934565b50825b9392505050565b61094433610bef565b61098e5760405162461bcd60e51b81526020600482015260226024820152600080516020612b3983398151915260448201526134b760f11b60648201526084015b60405180910390fd5b6109b87fdf8b4c520ffe197c5343c6f5aec59570151ef9a492f2c624fd45ddde6135ec4282610e32565b50565b601681815481106109cb57600080fd5b9060005260206000209060089182820401919006600402915054906101000a900463ffffffff1681565b6109fe33610bef565b610a435760405162461bcd60e51b81526020600482015260226024820152600080516020612b3983398151915260448201526134b760f11b6064820152608401610985565b60115461ffff8581166201000090920416148015610a71575060115461ffff84811664010000000090920416145b8015610a85575060115461ffff8381169116145b8015610aa0575060115461ffff828116600160301b90920416145b15610ad65760405162461bcd60e51b81526004016109859060208082526004908201526373616d6560e01b604082015260600190565b8061ffff16600003610b2a5760405162461bcd60e51b815260206004820152601060248201527f77726f6e67207261746573556e697473000000000000000000000000000000006044820152606401610985565b61ffff811682610b3a858761293a565b610b44919061293a565b61ffff1614610b955760405162461bcd60e51b815260206004820152601560248201527f73756d206f6620726174696f2069732077726f6e6700000000000000000000006044820152606401610985565b6011805461ffff928316600160301b0267ffff00000000ffff199584166401000000000265ffff000000001997851662010000029790971665ffffffff000019909216919091179590951793909316911617919091179055565b6001600160a01b03811660009081527f5cbfc8ee58ca47855df7bcf648dd304ddb6b932f9b87878bdf6318d7ec7ee5b7602052604081205460ff166108bb565b600d546040805163275be97d60e01b815290516000926001600160a01b03169163275be97d9160048083019260209291908290030181865afa158015610c79573d6000803e3d6000fd5b505050506040513d601f19601f82011682018060405250810190610c9d919061295c565b600c60009054906101000a90046001600160a01b03166001600160a01b031663275be97d6040518163ffffffff1660e01b8152600401602060405180830381865afa158015610cf0573d6000803e3d6000fd5b505050506040513d601f19601f82011682018060405250810190610d14919061295c565b610d1e9190612927565b905090565b600082815260208190526040902060010154610d3e81611c05565b610d488383611c0f565b505050565b600d546040516318cd84bd60e11b8152600481018390526000916001600160a01b03169063319b097a90602401602060405180830381865afa158015610d97573d6000803e3d6000fd5b505050506040513d601f19601f82011682018060405250810190610dbb919061295c565b600c546040516318cd84bd60e11b8152600481018590526001600160a01b039091169063319b097a90602401602060405180830381865afa158015610e04573d6000803e3d6000fd5b505050506040513d601f19601f82011682018060405250810190610e28919061295c565b6108bb9190612927565b6001600160a01b0381163314610eb05760405162461bcd60e51b815260206004820152602f60248201527f416363657373436f6e74726f6c3a2063616e206f6e6c792072656e6f756e636560448201527f20726f6c657320666f722073656c6600000000000000000000000000000000006064820152608401610985565b610eba8282611cad565b5050565b6011546000906c01000000000000000000000000900460ff16610f0c5760405162461bcd60e51b8152600401610985906020808252600490820152636c6f636b60e01b604082015260600190565b601180546cff000000000000000000000000191690556010546000819003610f5b5760405162461bcd60e51b81526020600482015260026024820152615a3160f01b6044820152606401610985565b43600f54108015610f6d5750600f5415155b15611213576000600e54600f54610f814390565b610f8b9190612975565b610f9591906128ee565b90506000610fa1610c2f565b90506000806000806000610fb58787611d2c565b601354949950929750909550935091508615801590610fd357508415155b15610fef57610feb81610fe589611350565b876108f6565b6013555b871561106c576005546040516340c10f1960e01b8152306004820152602481018a90526001600160a01b03909116906340c10f19906044016020604051808303816000875af1158015611046573d6000803e3d6000fd5b505050506040513d601f19601f8201168201806040525081019061106a9190612988565b505b831561112d57600b54604051631c28332160e01b8152600481018690526001600160a01b0390911690631c283321906024016020604051808303816000875af11580156110bd573d6000803e3d6000fd5b505050506040513d601f19601f820116820180604052508101906110e19190612988565b61112d5760405162461bcd60e51b815260206004820152600d60248201527f4641494c206164645365696773000000000000000000000000000000000000006044820152606401610985565b821580159061114657506007546001600160a01b031615155b1561116857600754600554611168916001600160a01b03918216911685611f12565b811580159061118157506008546001600160a01b031615155b156111a3576008546005546111a3916001600160a01b03918216911684611f12565b43600f81905560408051608081018252878152602081018790528082018690526060810185905260135491517f491f3ec7b57b7cee9dca882bac5fdf6a618591245c3f05770e80a9618475c621936112029390928d928c9288916129aa565b60405180910390a150505050505050505b6001915050601180546cff00000000000000000000000019166c0100000000000000000000000017905590565b61124933610bef565b61128e5760405162461bcd60e51b81526020600482015260226024820152600080516020612b3983398151915260448201526134b760f11b6064820152608401610985565b6007546001600160a01b0383811691161480156112b857506008546001600160a01b038281169116145b156112ee5760405162461bcd60e51b81526004016109859060208082526004908201526373616d6560e01b604082015260600190565b600780546001600160a01b0393841673ffffffffffffffffffffffffffffffffffffffff199182161790915560088054929093169116179055565b600082156108bb5761133a82611416565b6108ae846b033b2e3c9fd0803ce80000006128ee565b60008115611382576b033b2e3c9fd0803ce800000061136e60135490565b61137890846128ee565b6108bb9190612905565b919050565b600080611395836014612042565b91509150915091565b6113a733610bef565b6113ec5760405162461bcd60e51b81526020600482015260226024820152600080516020612b3983398151915260448201526134b760f11b6064820152608401610985565b6109b87fdf8b4c520ffe197c5343c6f5aec59570151ef9a492f2c624fd45ddde6135ec4282610d23565b6000806000611426846014612042565b915091508161143757601354611439565b805b949350505050565b61144a33610bef565b61148f5760405162461bcd60e51b81526020600482015260226024820152600080516020612b3983398151915260448201526134b760f11b6064820152608401610985565b6001600160a01b0381166114e55760405162461bcd60e51b815260206004820152601860248201527f41636365737369626c653a207a65726f206164647265737300000000000000006044820152606401610985565b6001600160a01b038116330361153d5760405162461bcd60e51b815260206004820152601660248201527f41636365737369626c653a2073616d652061646d696e000000000000000000006044820152606401610985565b6115677fdf8b4c520ffe197c5343c6f5aec59570151ef9a492f2c624fd45ddde6135ec4282610d23565b6109b87fdf8b4c520ffe197c5343c6f5aec59570151ef9a492f2c624fd45ddde6135ec4233610e32565b600043601154600f546115b191600160401b900463ffffffff1690612927565b10156115c2576115bf610ebe565b90505b50600190565b6060601680548060200260200160405190810160405280929190818152602001828054801561164257602002820191906000526020600020906000905b82829054906101000a900463ffffffff1663ffffffff16815260200190600401906020826003010492830192600103820291508084116116055790505b5050505050905090565b6000610d1e612167565b600a54604080516318160ddd60e01b815290516000926001600160a01b0316916318160ddd9160048083019260209291908290030181865afa1580156116a0573d6000803e3d6000fd5b505050506040513d601f19601f820116820180604052508101906116c4919061295c565b6006546005546040516370a0823160e01b81526001600160a01b0391821660048201529116906370a0823190602401602060405180830381865afa158015611710573d6000803e3d6000fd5b505050506040513d601f19601f82011682018060405250810190611734919061295c565b61174290633b9aca006128ee565b600660009054906101000a90046001600160a01b03166001600160a01b03166318160ddd6040518163ffffffff1660e01b8152600401602060405180830381865afa158015611795573d6000803e3d6000fd5b505050506040513d601f19601f820116820180604052508101906117b9919061295c565b6117c790633b9aca006128ee565b610d149190612927565b331515806117e95750600b546001600160a01b031633145b806117fe5750600c546001600160a01b031633145b806118135750600d546001600160a01b031633145b6118475760405162461bcd60e51b8152602060048201526005602482015264534d5f453160d81b6044820152606401610985565b6005546040516370a0823160e01b81523060048201526001600160a01b03909116906370a0823190602401602060405180830381865afa15801561188f573d6000803e3d6000fd5b505050506040513d601f19601f820116820180604052508101906118b3919061295c565b8111156119025760405162461bcd60e51b815260206004820152601860248201527f696e73756666696369656e7420544f4e2062616c616e636500000000000000006044820152606401610985565b600554611919906001600160a01b03168383611f12565b604080513381526001600160a01b03841660208201529081018290527ff7a40077ff7a04c7e61f6f26fb13774259ddf1b6bce9ecf26a8276cdd39926839060600160405180910390a15050565b61196f33610bef565b6119b45760405162461bcd60e51b81526020600482015260226024820152600080516020612b3983398151915260448201526134b760f11b6064820152608401610985565b80806000036119ea5760405162461bcd60e51b81526020600482015260026024820152615a3160f01b6044820152606401610985565b81600f5403611a245760405162461bcd60e51b81526004016109859060208082526004908201526373616d6560e01b604082015260600190565b600f829055601054600003610eba5750601055565b600082815260208190526040902060010154611a5481611c05565b610d488383611cad565b600043600f54108015611a725750600f5415155b15611a9157600e54600f54611a879043612975565b610d1e91906128ee565b90565b6000811561138257601354611378836b033b2e3c9fd0803ce80000006128ee565b611abe33610bef565b611b035760405162461bcd60e51b81526020600482015260226024820152600080516020612b3983398151915260448201526134b760f11b6064820152608401610985565b80600e5403611b3d5760405162461bcd60e51b81526004016109859060208082526004908201526373616d6560e01b604082015260600190565b600e55565b611b4b33610bef565b611b905760405162461bcd60e51b81526020600482015260226024820152600080516020612b3983398151915260448201526134b760f11b6064820152608401610985565b60115463ffffffff808316600160401b9092041603611bda5760405162461bcd60e51b81526004016109859060208082526004908201526373616d6560e01b604082015260600190565b6011805463ffffffff909216600160401b026bffffffff000000000000000019909216919091179055565b6109b881336122f1565b6000828152602081815260408083206001600160a01b038516845290915290205460ff16610eba576000828152602081815260408083206001600160a01b03851684529091529020805460ff19166001179055611c693390565b6001600160a01b0316816001600160a01b0316837f2f8788117e7eff1d82e926ec794901d17c78024a50270940304540a733656f0d60405160405180910390a45050565b6000828152602081815260408083206001600160a01b038516845290915290205460ff1615610eba576000828152602081815260408083206001600160a01b0385168085529252808320805460ff1916905551339285917ff6391f5c32d9c69d2a47ea670b442974b53935d1edc7fd64eb21e047a839171b9190a45050565b6000806000806000611d3c611656565b94508415611f08578515611d6b5784611d5487611350565b611d5e90896128ee565b611d689190612905565b93505b600b546040805163e12a621960e01b815290516000926001600160a01b03169163e12a62199160048083019260209291908290030181865afa158015611db5573d6000803e3d6000fd5b505050506040513d601f19601f82011682018060405250810190611dd9919061295c565b90508015611e075785611df0633b9aca0083612905565b611dfa908a6128ee565b611e049190612905565b93505b600084611e14878b612975565b611e1e9190612975565b9050600081118015611e3c5750601154600160301b900461ffff1615155b15611f055760115461ffff1615611e7f5760115461ffff600160301b8204811691611e689116836128ee565b611e729190612905565b611e7c9087612927565b95505b60115462010000900461ffff1615611ec05760115461ffff600160301b8204811691611eb3916201000090910416836128ee565b611ebd9190612905565b93505b601154640100000000900461ffff1615611f055760115461ffff600160301b8204811691611ef89164010000000090910416836128ee565b611f029190612905565b92505b50505b9295509295909350565b604080516001600160a01b038481166024830152604480830185905283518084039091018152606490920183526020820180517bffffffffffffffffffffffffffffffffffffffffffffffffffffffff1663a9059cbb60e01b1790529151600092839290871691611f839190612a25565b6000604051808303816000865af19150503d8060008114611fc0576040519150601f19603f3d011682016040523d82523d6000602084013e611fc5565b606091505b5091509150818015611fef575080511580611fef575080806020019051810190611fef9190612988565b61203b5760405162461bcd60e51b815260206004820152600f60248201527f5452414e534645525f4641494c454400000000000000000000000000000000006044820152606401610985565b5050505050565b60008061204e60125490565b84111561209d5760405162461bcd60e51b815260206004820152601860248201527f536e617073686f743a206e6f6e6578697374656e7420696400000000000000006044820152606401610985565b8254158015906120d65750825483906120b890600190612975565b815481106120c8576120c8612a41565b906000526020600020015484115b156121145782546000906001808601916120f09190612975565b8154811061210057612100612a41565b906000526020600020015491509150612160565b60006121208486612364565b84549091508103612138576000809250925050612160565b600184600101828154811061214f5761214f612a41565b906000526020600020015492509250505b9250929050565b601654600090810361222c576016805460018082019092557fd833147d7dc355ba459fc788f669e58cfaf9dc25ddcd0702e87d69c7b51242896008820401805460079092166004026101000a63ffffffff021990911690556014805480830190915560007fce6d7b5282bd9a3661ae061feed1dbda4e52ab073b1f9285be6e155d9c38d4ec9091018190556015805492830181559052670de0b6b3a76400007f55f448fdea98c4d29eb340757ef0a66cd03dbb9538908a6a81d96026b71ec475909101555b601680546001808201835560009283527fd833147d7dc355ba459fc788f669e58cfaf9dc25ddcd0702e87d69c7b51242896008830401805460079093166004026101000a63ffffffff81810219909416429094160292909217909155601280549192909161229b908490612927565b925050819055506122af6014601354612474565b601254604080519182524260208301527f492fbd8cfdd942203e99f6bc74253a1e1f5791b0644612279e778349f353b198910160405180910390a15060125490565b6000828152602081815260408083206001600160a01b038516845290915290205460ff16610eba57612322816124bf565b61232d8360206124d1565b60405160200161233e929190612a57565b60408051601f198184030181529082905262461bcd60e51b825261098591600401612ad8565b81546000908103612377575060006108bb565b8254839061238790600190612975565b8154811061239757612397612a41565b906000526020600020015482106123bd5782546123b690600190612975565b90506108bb565b826000815481106123d0576123d0612a41565b90600052602060002001548210156123ea575060006108bb565b825460009081906123fd90600190612975565b90505b8181111561246c57600060026124168484612927565b612421906001612927565b61242b9190612905565b90508486828154811061244057612440612a41565b90600052602060002001541161245857809250612466565b612463600182612975565b91505b50612400565b509392505050565b600061247f60125490565b90508061248b8461267a565b1015610d48578254600180820185556000858152602080822090930193909355938401805494850181558252902090910155565b60606108bb6001600160a01b03831660145b606060006124e08360026128ee565b6124eb906002612927565b67ffffffffffffffff81111561250357612503612b0b565b6040519080825280601f01601f19166020018201604052801561252d576020820181803683370190505b509050600360fc1b8160008151811061254857612548612a41565b60200101906001600160f81b031916908160001a905350600f60fb1b8160018151811061257757612577612a41565b60200101906001600160f81b031916908160001a905350600061259b8460026128ee565b6125a6906001612927565b90505b600181111561262b577f303132333435363738396162636465660000000000000000000000000000000085600f16601081106125e7576125e7612a41565b1a60f81b8282815181106125fd576125fd612a41565b60200101906001600160f81b031916908160001a90535060049490941c9361262481612b21565b90506125a9565b5083156108b85760405162461bcd60e51b815260206004820181905260248201527f537472696e67733a20686578206c656e67746820696e73756666696369656e746044820152606401610985565b8054600090810361268d57506000919050565b8154829061269d90600190612975565b815481106126ad576126ad612a41565b90600052602060002001549050919050565b600080604083850312156126d257600080fd5b50508035926020909101359150565b6000602082840312156126f357600080fd5b81356001600160e01b0319811681146108b857600080fd5b60008060006060848603121561272057600080fd5b505081359360208301359350604090920135919050565b80356001600160a01b038116811461138257600080fd5b60006020828403121561276057600080fd5b6108b882612737565b60006020828403121561277b57600080fd5b5035919050565b803561ffff8116811461138257600080fd5b600080600080608085870312156127aa57600080fd5b6127b385612782565b93506127c160208601612782565b92506127cf60408601612782565b91506127dd60608601612782565b905092959194509250565b600080604083850312156127fb57600080fd5b8235915061280b60208401612737565b90509250929050565b6000806040838503121561282757600080fd5b61283083612737565b915061280b60208401612737565b6020808252825182820181905260009190848201906040850190845b8181101561287c57835163ffffffff168352928401929184019160010161285a565b50909695505050505050565b6000806040838503121561289b57600080fd5b6128a483612737565b946020939093013593505050565b6000602082840312156128c457600080fd5b813563ffffffff811681146108b857600080fd5b634e487b7160e01b600052601160045260246000fd5b80820281158282048414176108bb576108bb6128d8565b60008261292257634e487b7160e01b600052601260045260246000fd5b500490565b808201808211156108bb576108bb6128d8565b61ffff818116838216019080821115612955576129556128d8565b5092915050565b60006020828403121561296e57600080fd5b5051919050565b818103818111156108bb576108bb6128d8565b60006020828403121561299a57600080fd5b815180151581146108b857600080fd5b60006101208201905087825260208781840152866040840152606083018660005b60048110156129e8578151835291830191908301906001016129cb565b5050505060e08201939093526101000152949350505050565b60005b83811015612a1c578181015183820152602001612a04565b50506000910152565b60008251612a37818460208701612a01565b9190910192915050565b634e487b7160e01b600052603260045260246000fd5b7f416363657373436f6e74726f6c3a206163636f756e7420000000000000000000815260008351612a8f816017850160208801612a01565b7f206973206d697373696e6720726f6c65200000000000000000000000000000006017918401918201528351612acc816028840160208801612a01565b01602801949350505050565b6020815260008251806020840152612af7816040850160208701612a01565b601f01601f19169190910160400192915050565b634e487b7160e01b600052604160045260246000fd5b600081612b3057612b306128d8565b50600019019056fe41636365737369626c653a2043616c6c6572206973206e6f7420616e2061646da164736f6c6343000812000a",
  "linkReferences": {},
  "deployedLinkReferences": {}
}