{
  "_format": "hh-sol-artifact-1",
  "contractName": "SeigManagerV2",
  "sourceName": "contracts/SeigManagerV2.sol",
  "abi": [
    {
      "inputs": [],
      "stateMutability": "nonpayable",
      "type": "constructor"
    },
    {
      "anonymous": false,
      "inputs": [
        {
          "indexed": false,
          "internalType": "address",
          "name": "caller",
          "type": "address"
        },
        {
          "indexed": false,
          "internalType": "address",
          "name": "to",
          "type": "address"
        },
        {
          "indexed": false,
          "internalType": "uint256",
          "name": "amount",
          "type": "uint256"
        }
      ],
      "name": "Claimed",
      "type": "event"
    },
    {
      "anonymous": false,
      "inputs": [
        {
          "indexed": true,
          "internalType": "bytes32",
          "name": "role",
          "type": "bytes32"
        },
        {
          "indexed": true,
          "internalType": "bytes32",
          "name": "previousAdminRole",
          "type": "bytes32"
        },
        {
          "indexed": true,
          "internalType": "bytes32",
          "name": "newAdminRole",
          "type": "bytes32"
        }
      ],
      "name": "RoleAdminChanged",
      "type": "event"
    },
    {
      "anonymous": false,
      "inputs": [
        {
          "indexed": true,
          "internalType": "bytes32",
          "name": "role",
          "type": "bytes32"
        },
        {
          "indexed": true,
          "internalType": "address",
          "name": "account",
          "type": "address"
        },
        {
          "indexed": true,
          "internalType": "address",
          "name": "sender",
          "type": "address"
        }
      ],
      "name": "RoleGranted",
      "type": "event"
    },
    {
      "anonymous": false,
      "inputs": [
        {
          "indexed": true,
          "internalType": "bytes32",
          "name": "role",
          "type": "bytes32"
        },
        {
          "indexed": true,
          "internalType": "address",
          "name": "account",
          "type": "address"
        },
        {
          "indexed": true,
          "internalType": "address",
          "name": "sender",
          "type": "address"
        }
      ],
      "name": "RoleRevoked",
      "type": "event"
    },
    {
      "anonymous": false,
      "inputs": [
        {
          "indexed": false,
          "internalType": "uint256",
          "name": "id",
          "type": "uint256"
        },
        {
          "indexed": false,
          "internalType": "uint256",
          "name": "currentTime",
          "type": "uint256"
        }
      ],
      "name": "Snapshot",
      "type": "event"
    },
    {
      "anonymous": false,
      "inputs": [
        {
          "indexed": false,
          "internalType": "uint256",
          "name": "lastSeigBlock_",
          "type": "uint256"
        },
        {
          "indexed": false,
          "internalType": "uint256",
          "name": "increaseSeig_",
          "type": "uint256"
        },
        {
          "indexed": false,
          "internalType": "uint256",
          "name": "totalSupplyOfTon_",
          "type": "uint256"
        },
        {
          "indexed": false,
          "internalType": "uint256[4]",
          "name": "amount_",
          "type": "uint256[4]"
        },
        {
          "indexed": false,
          "internalType": "uint256",
          "name": "prevIndex_",
          "type": "uint256"
        },
        {
          "indexed": false,
          "internalType": "uint256",
          "name": "index_",
          "type": "uint256"
        }
      ],
      "name": "UpdatedSeigniorage",
      "type": "event"
    },
    {
      "inputs": [],
      "name": "ADMIN_ROLE",
      "outputs": [
        {
          "internalType": "bytes32",
          "name": "",
          "type": "bytes32"
        }
      ],
      "stateMutability": "view",
      "type": "function"
    },
    {
      "inputs": [],
      "name": "DEFAULT_ADMIN_ROLE",
      "outputs": [
        {
          "internalType": "bytes32",
          "name": "",
          "type": "bytes32"
        }
      ],
      "stateMutability": "view",
      "type": "function"
    },
    {
      "inputs": [],
      "name": "POLICY_ROLE",
      "outputs": [
        {
          "internalType": "bytes32",
          "name": "",
          "type": "bytes32"
        }
      ],
      "stateMutability": "view",
      "type": "function"
    },
    {
      "inputs": [
        {
          "internalType": "address",
          "name": "account",
          "type": "address"
        }
      ],
      "name": "addAdmin",
      "outputs": [],
      "stateMutability": "nonpayable",
      "type": "function"
    },
    {
      "inputs": [
        {
          "internalType": "address",
          "name": "",
          "type": "address"
        }
      ],
      "name": "aliveImplementation",
      "outputs": [
        {
          "internalType": "bool",
          "name": "",
          "type": "bool"
        }
      ],
      "stateMutability": "view",
      "type": "function"
    },
    {
      "inputs": [
        {
          "internalType": "uint256",
          "name": "curIndex",
          "type": "uint256"
        },
        {
          "internalType": "uint256",
          "name": "curTotal",
          "type": "uint256"
        },
        {
          "internalType": "uint256",
          "name": "increaseAmount",
          "type": "uint256"
        }
      ],
      "name": "calculateIndex",
      "outputs": [
        {
          "internalType": "uint256",
          "name": "nextIndex",
          "type": "uint256"
        }
      ],
      "stateMutability": "pure",
      "type": "function"
    },
    {
      "inputs": [],
      "name": "candidate",
      "outputs": [
        {
          "internalType": "address",
          "name": "",
          "type": "address"
        }
      ],
      "stateMutability": "view",
      "type": "function"
    },
    {
      "inputs": [
        {
          "internalType": "address",
          "name": "_to",
          "type": "address"
        },
        {
          "internalType": "uint256",
          "name": "_amount",
          "type": "uint256"
        }
      ],
      "name": "claim",
      "outputs": [],
      "stateMutability": "nonpayable",
      "type": "function"
    },
    {
      "inputs": [],
      "name": "dao",
      "outputs": [
        {
          "internalType": "address",
          "name": "",
          "type": "address"
        }
      ],
      "stateMutability": "view",
      "type": "function"
    },
    {
      "inputs": [],
      "name": "getCurrentBlockNumber",
      "outputs": [
        {
          "internalType": "uint256",
          "name": "",
          "type": "uint256"
        }
      ],
      "stateMutability": "view",
      "type": "function"
    },
    {
      "inputs": [],
      "name": "getCurrentSnapshotId",
      "outputs": [
        {
          "internalType": "uint256",
          "name": "",
          "type": "uint256"
        }
      ],
      "stateMutability": "view",
      "type": "function"
    },
    {
      "inputs": [
        {
          "internalType": "uint256",
          "name": "lton",
          "type": "uint256"
        }
      ],
      "name": "getLtonToTon",
      "outputs": [
        {
          "internalType": "uint256",
          "name": "amount",
          "type": "uint256"
        }
      ],
      "stateMutability": "view",
      "type": "function"
    },
    {
      "inputs": [
        {
          "internalType": "uint256",
          "name": "lton",
          "type": "uint256"
        },
        {
          "internalType": "uint256",
          "name": "_snapshotId",
          "type": "uint256"
        }
      ],
      "name": "getLtonToTonAt",
      "outputs": [
        {
          "internalType": "uint256",
          "name": "amount",
          "type": "uint256"
        }
      ],
      "stateMutability": "view",
      "type": "function"
    },
    {
      "inputs": [
        {
          "internalType": "bytes32",
          "name": "role",
          "type": "bytes32"
        }
      ],
      "name": "getRoleAdmin",
      "outputs": [
        {
          "internalType": "bytes32",
          "name": "",
          "type": "bytes32"
        }
      ],
      "stateMutability": "view",
      "type": "function"
    },
    {
      "inputs": [],
      "name": "getSnapshotTime",
      "outputs": [
        {
          "internalType": "uint32[]",
          "name": "",
          "type": "uint32[]"
        }
      ],
      "stateMutability": "view",
      "type": "function"
    },
    {
      "inputs": [
        {
          "internalType": "uint256",
          "name": "_amount",
          "type": "uint256"
        }
      ],
      "name": "getTonToLton",
      "outputs": [
        {
          "internalType": "uint256",
          "name": "amount",
          "type": "uint256"
        }
      ],
      "stateMutability": "view",
      "type": "function"
    },
    {
      "inputs": [
        {
          "internalType": "uint256",
          "name": "_amount",
          "type": "uint256"
        },
        {
          "internalType": "uint256",
          "name": "_snapshotId",
          "type": "uint256"
        }
      ],
      "name": "getTonToLtonAt",
      "outputs": [
        {
          "internalType": "uint256",
          "name": "amount",
          "type": "uint256"
        }
      ],
      "stateMutability": "view",
      "type": "function"
    },
    {
      "inputs": [],
      "name": "getTotalLton",
      "outputs": [
        {
          "internalType": "uint256",
          "name": "amount",
          "type": "uint256"
        }
      ],
      "stateMutability": "view",
      "type": "function"
    },
    {
      "inputs": [
        {
          "internalType": "bytes32",
          "name": "role",
          "type": "bytes32"
        },
        {
          "internalType": "address",
          "name": "account",
          "type": "address"
        }
      ],
      "name": "grantRole",
      "outputs": [],
      "stateMutability": "nonpayable",
      "type": "function"
    },
    {
      "inputs": [
        {
          "internalType": "bytes32",
          "name": "role",
          "type": "bytes32"
        },
        {
          "internalType": "address",
          "name": "account",
          "type": "address"
        }
      ],
      "name": "hasRole",
      "outputs": [
        {
          "internalType": "bool",
          "name": "",
          "type": "bool"
        }
      ],
      "stateMutability": "view",
      "type": "function"
    },
    {
      "inputs": [],
      "name": "indexLton",
      "outputs": [
        {
          "internalType": "uint256",
          "name": "",
          "type": "uint256"
        }
      ],
      "stateMutability": "view",
      "type": "function"
    },
    {
      "inputs": [
        {
          "internalType": "uint256",
          "name": "snapshotId",
          "type": "uint256"
        }
      ],
      "name": "indexLtonAt",
      "outputs": [
        {
          "internalType": "uint256",
          "name": "",
          "type": "uint256"
        }
      ],
      "stateMutability": "view",
      "type": "function"
    },
    {
      "inputs": [
        {
          "internalType": "uint256",
          "name": "snapshotId",
          "type": "uint256"
        }
      ],
      "name": "indexLtonAtSnapshot",
      "outputs": [
        {
          "internalType": "bool",
          "name": "snapshotted",
          "type": "bool"
        },
        {
          "internalType": "uint256",
          "name": "value",
          "type": "uint256"
        }
      ],
      "stateMutability": "view",
      "type": "function"
    },
    {
      "inputs": [
        {
          "internalType": "address",
          "name": "account",
          "type": "address"
        }
      ],
      "name": "isAdmin",
      "outputs": [
        {
          "internalType": "bool",
          "name": "",
          "type": "bool"
        }
      ],
      "stateMutability": "view",
      "type": "function"
    },
    {
      "inputs": [],
      "name": "lastSeigBlock",
      "outputs": [
        {
          "internalType": "uint256",
          "name": "",
          "type": "uint256"
        }
      ],
      "stateMutability": "view",
      "type": "function"
    },
    {
      "inputs": [],
      "name": "layer2Manager",
      "outputs": [
        {
          "internalType": "address",
          "name": "",
          "type": "address"
        }
      ],
      "stateMutability": "view",
      "type": "function"
    },
    {
      "inputs": [],
      "name": "minimumBlocksForUpdateSeig",
      "outputs": [
        {
          "internalType": "uint32",
          "name": "",
          "type": "uint32"
        }
      ],
      "stateMutability": "view",
      "type": "function"
    },
    {
      "inputs": [],
      "name": "mintableSeigsAmount",
      "outputs": [
        {
          "internalType": "uint256",
          "name": "amount",
          "type": "uint256"
        }
      ],
      "stateMutability": "view",
      "type": "function"
    },
    {
      "inputs": [],
      "name": "optimismSequencer",
      "outputs": [
        {
          "internalType": "address",
          "name": "",
          "type": "address"
        }
      ],
      "stateMutability": "view",
      "type": "function"
    },
    {
      "inputs": [],
      "name": "pauseProxy",
      "outputs": [
        {
          "internalType": "bool",
          "name": "",
          "type": "bool"
        }
      ],
      "stateMutability": "view",
      "type": "function"
    },
    {
      "inputs": [
        {
          "internalType": "uint256",
          "name": "",
          "type": "uint256"
        }
      ],
      "name": "proxyImplementation",
      "outputs": [
        {
          "internalType": "address",
          "name": "",
          "type": "address"
        }
      ],
      "stateMutability": "view",
      "type": "function"
    },
    {
      "inputs": [],
      "name": "ratesDao",
      "outputs": [
        {
          "internalType": "uint16",
          "name": "",
          "type": "uint16"
        }
      ],
      "stateMutability": "view",
      "type": "function"
    },
    {
      "inputs": [],
      "name": "ratesStosHolders",
      "outputs": [
        {
          "internalType": "uint16",
          "name": "",
          "type": "uint16"
        }
      ],
      "stateMutability": "view",
      "type": "function"
    },
    {
      "inputs": [],
      "name": "ratesTonStakers",
      "outputs": [
        {
          "internalType": "uint16",
          "name": "",
          "type": "uint16"
        }
      ],
      "stateMutability": "view",
      "type": "function"
    },
    {
      "inputs": [],
      "name": "ratesUnits",
      "outputs": [
        {
          "internalType": "uint16",
          "name": "",
          "type": "uint16"
        }
      ],
      "stateMutability": "view",
      "type": "function"
    },
    {
      "inputs": [
        {
          "internalType": "address",
          "name": "account",
          "type": "address"
        }
      ],
      "name": "removeAdmin",
      "outputs": [],
      "stateMutability": "nonpayable",
      "type": "function"
    },
    {
      "inputs": [
        {
          "internalType": "bytes32",
          "name": "role",
          "type": "bytes32"
        },
        {
          "internalType": "address",
          "name": "account",
          "type": "address"
        }
      ],
      "name": "renounceRole",
      "outputs": [],
      "stateMutability": "nonpayable",
      "type": "function"
    },
    {
      "inputs": [
        {
          "internalType": "bytes32",
          "name": "role",
          "type": "bytes32"
        },
        {
          "internalType": "address",
          "name": "account",
          "type": "address"
        }
      ],
      "name": "revokeRole",
      "outputs": [],
      "stateMutability": "nonpayable",
      "type": "function"
    },
    {
      "inputs": [],
      "name": "runUpdateSeigniorage",
      "outputs": [
        {
          "internalType": "bool",
          "name": "res",
          "type": "bool"
        }
      ],
      "stateMutability": "nonpayable",
      "type": "function"
    },
    {
      "inputs": [],
      "name": "seigManagerV1",
      "outputs": [
        {
          "internalType": "address",
          "name": "",
          "type": "address"
        }
      ],
      "stateMutability": "view",
      "type": "function"
    },
    {
      "inputs": [],
      "name": "seigPerBlock",
      "outputs": [
        {
          "internalType": "uint256",
          "name": "",
          "type": "uint256"
        }
      ],
      "stateMutability": "view",
      "type": "function"
    },
    {
      "inputs": [
        {
          "internalType": "bytes4",
          "name": "",
          "type": "bytes4"
        }
      ],
      "name": "selectorImplementation",
      "outputs": [
        {
          "internalType": "address",
          "name": "",
          "type": "address"
        }
      ],
      "stateMutability": "view",
      "type": "function"
    },
    {
      "inputs": [
        {
          "internalType": "address",
          "name": "_dao",
          "type": "address"
        },
        {
          "internalType": "address",
          "name": "_stosDistribute",
          "type": "address"
        }
      ],
      "name": "setAddress",
      "outputs": [],
      "stateMutability": "nonpayable",
      "type": "function"
    },
    {
      "inputs": [
        {
          "internalType": "uint16",
          "name": "_ratesDao",
          "type": "uint16"
        },
        {
          "internalType": "uint16",
          "name": "_ratesStosHolders",
          "type": "uint16"
        },
        {
          "internalType": "uint16",
          "name": "_ratesTonStakers",
          "type": "uint16"
        },
        {
          "internalType": "uint16",
          "name": "_ratesUnits",
          "type": "uint16"
        }
      ],
      "name": "setDividendRates",
      "outputs": [],
      "stateMutability": "nonpayable",
      "type": "function"
    },
    {
      "inputs": [
        {
          "internalType": "uint256",
          "name": "_lastSeigBlock",
          "type": "uint256"
        }
      ],
      "name": "setLastSeigBlock",
      "outputs": [],
      "stateMutability": "nonpayable",
      "type": "function"
    },
    {
      "inputs": [
        {
          "internalType": "uint32",
          "name": "_minimumBlocksForUpdateSeig",
          "type": "uint32"
        }
      ],
      "name": "setMinimumBlocksForUpdateSeig",
      "outputs": [],
      "stateMutability": "nonpayable",
      "type": "function"
    },
    {
      "inputs": [
        {
          "internalType": "uint256",
          "name": "_seigPerBlock",
          "type": "uint256"
        }
      ],
      "name": "setSeigPerBlock",
      "outputs": [],
      "stateMutability": "nonpayable",
      "type": "function"
    },
    {
      "inputs": [],
      "name": "snapshot",
      "outputs": [
        {
          "internalType": "uint256",
          "name": "",
          "type": "uint256"
        }
      ],
      "stateMutability": "nonpayable",
      "type": "function"
    },
    {
      "inputs": [
        {
          "internalType": "uint256",
          "name": "",
          "type": "uint256"
        }
      ],
      "name": "snapshotTime",
      "outputs": [
        {
          "internalType": "uint32",
          "name": "",
          "type": "uint32"
        }
      ],
      "stateMutability": "view",
      "type": "function"
    },
    {
      "inputs": [],
      "name": "startBlock",
      "outputs": [
        {
          "internalType": "uint256",
          "name": "",
          "type": "uint256"
        }
      ],
      "stateMutability": "view",
      "type": "function"
    },
    {
      "inputs": [],
      "name": "stosDistribute",
      "outputs": [
        {
          "internalType": "address",
          "name": "",
          "type": "address"
        }
      ],
      "stateMutability": "view",
      "type": "function"
    },
    {
      "inputs": [
        {
          "internalType": "bytes4",
          "name": "interfaceId",
          "type": "bytes4"
        }
      ],
      "name": "supportsInterface",
      "outputs": [
        {
          "internalType": "bool",
          "name": "",
          "type": "bool"
        }
      ],
      "stateMutability": "view",
      "type": "function"
    },
    {
      "inputs": [],
      "name": "ton",
      "outputs": [
        {
          "internalType": "contract IERC20",
          "name": "",
          "type": "address"
        }
      ],
      "stateMutability": "view",
      "type": "function"
    },
    {
      "inputs": [],
      "name": "tot",
      "outputs": [
        {
          "internalType": "address",
          "name": "",
          "type": "address"
        }
      ],
      "stateMutability": "view",
      "type": "function"
    },
    {
      "inputs": [],
      "name": "totalSupplyTON",
      "outputs": [
        {
          "internalType": "uint256",
          "name": "amount",
          "type": "uint256"
        }
      ],
      "stateMutability": "view",
      "type": "function"
    },
    {
      "inputs": [
        {
          "internalType": "address",
          "name": "newAdmin",
          "type": "address"
        }
      ],
      "name": "transferAdmin",
      "outputs": [],
      "stateMutability": "nonpayable",
      "type": "function"
    },
    {
      "inputs": [],
      "name": "updateSeigniorage",
      "outputs": [
        {
          "internalType": "bool",
          "name": "res",
          "type": "bool"
        }
      ],
      "stateMutability": "nonpayable",
      "type": "function"
    },
    {
      "inputs": [],
      "name": "wton",
      "outputs": [
        {
          "internalType": "address",
          "name": "",
          "type": "address"
        }
      ],
      "stateMutability": "view",
      "type": "function"
    }
  ],
  "bytecode": "0x60806040526011805460ff60601b19166c0100000000000000000000000017905534801561002c57600080fd5b50612a218061003c6000396000f3fe608060405234801561001057600080fd5b506004361061038e5760003560e01c80636c8381f8116101de578063a217fddf1161010f578063d547741f116100ad578063f1ae4e9f1161007c578063f1ae4e9f1461082b578063f285c90f14610839578063f35c89e81461084c578063fb7d324d1461085557600080fd5b8063d547741f146107ea578063da0dc135146107fd578063daec65de14610810578063f0bbcde91461081857600080fd5b8063b911135f116100e9578063b911135f14610788578063cc48b947146107b1578063cdf68009146107c4578063ceeff097146107d757600080fd5b8063a217fddf14610765578063aad3ec961461076d578063b413b37a1461078057600080fd5b80638b95087b1161017c5780638df40b2c116101565780638df40b2c1461070057806391d14854146107135780639711715a1461074a578063a16d6aa71461075257600080fd5b80638b95087b146106c35780638d62d949146106d85780638de73e1d146106eb57600080fd5b806375829def116101b857806375829def1461067957806375b238fc1461068c578063764a7856146106b3578063865e64a1146106bb57600080fd5b80636c8381f81461064d5780636fd902e114610660578063704802751461066657600080fd5b806336568abe116102c357806350d2a276116102615780635f40a349116102305780635f40a3491461061157806363a3a2f51461061a57806363a8fd891461062d5780636a2fb1f51461063a57600080fd5b806350d2a276146105b55780635439ad86146105de578063550d01a3146105e6578063558e43761461060957600080fd5b80633ddc89961161029d5780633ddc89961461056f5780634162169f1461058257806348cd4cb1146105955780634ab6b4621461059e57600080fd5b806336568abe14610541578063386f419b146105545780633b58524d1461055c57600080fd5b806323c66ea61161033057806324d7806c1161030a57806324d7806c146104db57806325dea4b0146104ee5780632f2ff15d14610504578063350ce2a81461051757600080fd5b806323c66ea61461047e578063247e554514610491578063248a9ca3146104b857600080fd5b80631785f53c1161036c5780631785f53c146104075780631c1d3a631461041c5780631dc0f9bb1461042f578063229852461461045757600080fd5b806301ffc9a7146103935780630528464a146103bb57806316b5d5bd146103dc575b600080fd5b6103a66103a136600461257b565b610868565b60405190151581526020015b60405180910390f35b6103ce6103c93660046125a5565b61089f565b6040519081526020016103b2565b600b546103ef906001600160a01b031681565b6040516001600160a01b0390911681526020016103b2565b61041a6104153660046125e8565b6108e4565b005b6103ce61042a366004612603565b610964565b61044261043d366004612625565b610991565b60405163ffffffff90911681526020016103b2565b6103ce7ffb5864e8ff833c3cb2d2d08505e82ff02a43554c74a35d4f5a64e8526127831181565b61041a61048c366004612650565b6109cb565b6011546104a59062010000900461ffff1681565b60405161ffff90911681526020016103b2565b6103ce6104c6366004612625565b60009081526020819052604090206001015490565b6103a66104e93660046125e8565b610bc5565b6011546104a590640100000000900461ffff1681565b61041a6105123660046126a4565b610c05565b61052a610525366004612625565b610c2f565b6040805192151583526020830191909152016103b2565b61041a61054f3660046126a4565b610c46565b6103a6610cd2565b61041a61056a3660046126d0565b611054565b6103ce61057d366004612625565b61113d565b6007546103ef906001600160a01b031681565b6103ce60105481565b60115461044290600160401b900463ffffffff1681565b6103ef6105c336600461257b565b6004602052600090815260409020546001600160a01b031681565b6012546103ce565b6103a66105f43660046125e8565b60036020526000908152604090205460ff1681565b6013546103ce565b6103ce600e5481565b6009546103ef906001600160a01b031681565b6001546103a69060ff1681565b6103ce610648366004612625565b611168565b600d546103ef906001600160a01b031681565b436103ce565b61041a6106743660046125e8565b611194565b61041a6106873660046125e8565b61120c565b6103ce7fdf8b4c520ffe197c5343c6f5aec59570151ef9a492f2c624fd45ddde6135ec4281565b6103a661135c565b6103ce611393565b6011546104a590600160301b900461ffff1681565b6006546103ef906001600160a01b031681565b6106f3611501565b6040516103b291906126fa565b6103ce61070e366004612603565b611585565b6103a66107213660046126a4565b6000918252602082815260408084206001600160a01b0393909316845291905290205460ff1690565b6103ce6115a9565b600a546103ef906001600160a01b031681565b6103ce600081565b61041a61077b366004612744565b6115b3565b6103ce611748565b6103ef610796366004612625565b6002602052600090815260409020546001600160a01b031681565b6005546103ef906001600160a01b031681565b6103ce6107d2366004612625565b61182d565b61041a6107e5366004612625565b611851565b61041a6107f83660046126a4565b611924565b600c546103ef906001600160a01b031681565b6103ce611949565b61041a610826366004612625565b61197f565b6011546104a59061ffff1681565b61041a61084736600461276e565b611a0c565b6103ce600f5481565b6008546103ef906001600160a01b031681565b60006001600160e01b03198216637965db0b60e01b148061089957506301ffc9a760e01b6001600160e01b03198316145b92915050565b600082158015906108af57508115155b156108da57826108bf83826127aa565b6108c990866127bd565b6108d391906127d4565b90506108dd565b50825b9392505050565b6108ed33610bc5565b6109375760405162461bcd60e51b815260206004820152602260248201526000805160206129f583398151915260448201526134b760f11b60648201526084015b60405180910390fd5b6109617fdf8b4c520ffe197c5343c6f5aec59570151ef9a492f2c624fd45ddde6135ec4282610c46565b50565b60008215610899576109758261113d565b61098784670de0b6b3a76400006127bd565b6108dd91906127d4565b601681815481106109a157600080fd5b9060005260206000209060089182820401919006600402915054906101000a900463ffffffff1681565b6109d433610bc5565b610a195760405162461bcd60e51b815260206004820152602260248201526000805160206129f583398151915260448201526134b760f11b606482015260840161092e565b60115461ffff8581166201000090920416148015610a47575060115461ffff84811664010000000090920416145b8015610a5b575060115461ffff8381169116145b8015610a76575060115461ffff828116600160301b90920416145b15610aac5760405162461bcd60e51b815260040161092e9060208082526004908201526373616d6560e01b604082015260600190565b8061ffff16600003610b005760405162461bcd60e51b815260206004820152601060248201527f77726f6e67207261746573556e69747300000000000000000000000000000000604482015260640161092e565b61ffff811682610b1085876127f6565b610b1a91906127f6565b61ffff1614610b6b5760405162461bcd60e51b815260206004820152601560248201527f73756d206f6620726174696f2069732077726f6e670000000000000000000000604482015260640161092e565b6011805461ffff928316600160301b0267ffff00000000ffff199584166401000000000265ffff000000001997851662010000029790971665ffffffff000019909216919091179590951793909316911617919091179055565b6001600160a01b03811660009081527f5cbfc8ee58ca47855df7bcf648dd304ddb6b932f9b87878bdf6318d7ec7ee5b7602052604081205460ff16610899565b600082815260208190526040902060010154610c2081611acf565b610c2a8383611ad9565b505050565b600080610c3d836014611b77565b91509150915091565b6001600160a01b0381163314610cc45760405162461bcd60e51b815260206004820152602f60248201527f416363657373436f6e74726f6c3a2063616e206f6e6c792072656e6f756e636560448201527f20726f6c657320666f722073656c660000000000000000000000000000000000606482015260840161092e565b610cce8282611c9c565b5050565b6011546000906c01000000000000000000000000900460ff16610d205760405162461bcd60e51b815260040161092e906020808252600490820152636c6f636b60e01b604082015260600190565b601180546cff000000000000000000000000191690556010546000819003610d6f5760405162461bcd60e51b81526020600482015260026024820152615a3160f01b604482015260640161092e565b43600f54108015610d815750600f5415155b15611027576000600e54600f54610d954390565b610d9f9190612818565b610da991906127bd565b90506000610db5611748565b90506000806000806000610dc98787611d1b565b601354949950929750909550935091508615801590610de757508415155b15610e0357610dff81610df98961182d565b8761089f565b6013555b8715610e80576005546040516340c10f1960e01b8152306004820152602481018a90526001600160a01b03909116906340c10f19906044016020604051808303816000875af1158015610e5a573d6000803e3d6000fd5b505050506040513d601f19601f82011682018060405250810190610e7e919061282b565b505b8315610f4157600b54604051631c28332160e01b8152600481018690526001600160a01b0390911690631c283321906024016020604051808303816000875af1158015610ed1573d6000803e3d6000fd5b505050506040513d601f19601f82011682018060405250810190610ef5919061282b565b610f415760405162461bcd60e51b815260206004820152600d60248201527f4641494c20616464536569677300000000000000000000000000000000000000604482015260640161092e565b8215801590610f5a57506007546001600160a01b031615155b15610f7c57600754600554610f7c916001600160a01b03918216911685611ef3565b8115801590610f9557506008546001600160a01b031615155b15610fb757600854600554610fb7916001600160a01b03918216911684611ef3565b43600f81905560408051608081018252878152602081018790528082018690526060810185905260135491517f491f3ec7b57b7cee9dca882bac5fdf6a618591245c3f05770e80a9618475c621936110169390928d928c92889161284d565b60405180910390a150505050505050505b6001915050601180546cff00000000000000000000000019166c0100000000000000000000000017905590565b61105d33610bc5565b6110a25760405162461bcd60e51b815260206004820152602260248201526000805160206129f583398151915260448201526134b760f11b606482015260840161092e565b6007546001600160a01b0383811691161480156110cc57506008546001600160a01b038281169116145b156111025760405162461bcd60e51b815260040161092e9060208082526004908201526373616d6560e01b604082015260600190565b600780546001600160a01b0393841673ffffffffffffffffffffffffffffffffffffffff199182161790915560088054929093169116179055565b600080600061114d846014611b77565b915091508161115e57601354611160565b805b949350505050565b6000811561118f5760135461118583670de0b6b3a76400006127bd565b61089991906127d4565b919050565b61119d33610bc5565b6111e25760405162461bcd60e51b815260206004820152602260248201526000805160206129f583398151915260448201526134b760f11b606482015260840161092e565b6109617fdf8b4c520ffe197c5343c6f5aec59570151ef9a492f2c624fd45ddde6135ec4282610c05565b61121533610bc5565b61125a5760405162461bcd60e51b815260206004820152602260248201526000805160206129f583398151915260448201526134b760f11b606482015260840161092e565b6001600160a01b0381166112b05760405162461bcd60e51b815260206004820152601860248201527f41636365737369626c653a207a65726f20616464726573730000000000000000604482015260640161092e565b6001600160a01b03811633036113085760405162461bcd60e51b815260206004820152601660248201527f41636365737369626c653a2073616d652061646d696e00000000000000000000604482015260640161092e565b6113327fdf8b4c520ffe197c5343c6f5aec59570151ef9a492f2c624fd45ddde6135ec4282610c05565b6109617fdf8b4c520ffe197c5343c6f5aec59570151ef9a492f2c624fd45ddde6135ec4233610c46565b600043601154600f5461137c91600160401b900463ffffffff16906127aa565b101561138d5761138a610cd2565b90505b50600190565b600a54604080516318160ddd60e01b815290516000926001600160a01b0316916318160ddd9160048083019260209291908290030181865afa1580156113dd573d6000803e3d6000fd5b505050506040513d601f19601f8201168201806040525081019061140191906128a4565b6005546006546040516370a0823160e01b81526001600160a01b0391821660048201529116906370a0823190602401602060405180830381865afa15801561144d573d6000803e3d6000fd5b505050506040513d601f19601f8201168201806040525081019061147191906128a4565b600560009054906101000a90046001600160a01b03166001600160a01b03166318160ddd6040518163ffffffff1660e01b8152600401602060405180830381865afa1580156114c4573d6000803e3d6000fd5b505050506040513d601f19601f820116820180604052508101906114e891906128a4565b6114f291906127aa565b6114fc91906127aa565b905090565b6060601680548060200260200160405190810160405280929190818152602001828054801561157b57602002820191906000526020600020906000905b82829054906101000a900463ffffffff1663ffffffff168152602001906004019060208260030104928301926001038202915080841161153e5790505b5050505050905090565b6000821561089957670de0b6b3a764000061159f8361113d565b61098790856127bd565b60006114fc612023565b331515806115cb5750600b546001600160a01b031633145b806115e05750600c546001600160a01b031633145b806115f55750600d546001600160a01b031633145b6116295760405162461bcd60e51b8152602060048201526005602482015264534d5f453160d81b604482015260640161092e565b6005546040516370a0823160e01b81523060048201526001600160a01b03909116906370a0823190602401602060405180830381865afa158015611671573d6000803e3d6000fd5b505050506040513d601f19601f8201168201806040525081019061169591906128a4565b8111156116e45760405162461bcd60e51b815260206004820152601860248201527f696e73756666696369656e7420544f4e2062616c616e63650000000000000000604482015260640161092e565b6005546116fb906001600160a01b03168383611ef3565b604080513381526001600160a01b03841660208201529081018290527ff7a40077ff7a04c7e61f6f26fb13774259ddf1b6bce9ecf26a8276cdd39926839060600160405180910390a15050565b600d5460408051635a09d9bd60e11b815290516000926001600160a01b03169163b413b37a9160048083019260209291908290030181865afa158015611792573d6000803e3d6000fd5b505050506040513d601f19601f820116820180604052508101906117b691906128a4565b600c60009054906101000a90046001600160a01b03166001600160a01b031663b413b37a6040518163ffffffff1660e01b8152600401602060405180830381865afa158015611809573d6000803e3d6000fd5b505050506040513d601f19601f820116820180604052508101906114f291906128a4565b6000811561118f57670de0b6b3a764000061184760135490565b61118590846127bd565b61185a33610bc5565b61189f5760405162461bcd60e51b815260206004820152602260248201526000805160206129f583398151915260448201526134b760f11b606482015260840161092e565b80806000036118d55760405162461bcd60e51b81526020600482015260026024820152615a3160f01b604482015260640161092e565b81600f540361190f5760405162461bcd60e51b815260040161092e9060208082526004908201526373616d6560e01b604082015260600190565b600f829055601054600003610cce5750601055565b60008281526020819052604090206001015461193f81611acf565b610c2a8383611c9c565b600043600f5410801561195d5750600f5415155b1561197c57600e54600f546119729043612818565b6114fc91906127bd565b90565b61198833610bc5565b6119cd5760405162461bcd60e51b815260206004820152602260248201526000805160206129f583398151915260448201526134b760f11b606482015260840161092e565b80600e5403611a075760405162461bcd60e51b815260040161092e9060208082526004908201526373616d6560e01b604082015260600190565b600e55565b611a1533610bc5565b611a5a5760405162461bcd60e51b815260206004820152602260248201526000805160206129f583398151915260448201526134b760f11b606482015260840161092e565b60115463ffffffff808316600160401b9092041603611aa45760405162461bcd60e51b815260040161092e9060208082526004908201526373616d6560e01b604082015260600190565b6011805463ffffffff909216600160401b026bffffffff000000000000000019909216919091179055565b61096181336121ad565b6000828152602081815260408083206001600160a01b038516845290915290205460ff16610cce576000828152602081815260408083206001600160a01b03851684529091529020805460ff19166001179055611b333390565b6001600160a01b0316816001600160a01b0316837f2f8788117e7eff1d82e926ec794901d17c78024a50270940304540a733656f0d60405160405180910390a45050565b600080611b8360125490565b841115611bd25760405162461bcd60e51b815260206004820152601860248201527f536e617073686f743a206e6f6e6578697374656e742069640000000000000000604482015260640161092e565b825415801590611c0b575082548390611bed90600190612818565b81548110611bfd57611bfd6128bd565b906000526020600020015484115b15611c49578254600090600180860191611c259190612818565b81548110611c3557611c356128bd565b906000526020600020015491509150611c95565b6000611c558486612220565b84549091508103611c6d576000809250925050611c95565b6001846001018281548110611c8457611c846128bd565b906000526020600020015492509250505b9250929050565b6000828152602081815260408083206001600160a01b038516845290915290205460ff1615610cce576000828152602081815260408083206001600160a01b0385168085529252808320805460ff1916905551339285917ff6391f5c32d9c69d2a47ea670b442974b53935d1edc7fd64eb21e047a839171b9190a45050565b6000806000806000611d2b611393565b94508415611ee9578515611d5a5784611d438761182d565b611d4d90896127bd565b611d5791906127d4565b93505b600b546040805163e12a621960e01b815290516000926001600160a01b03169163e12a62199160048083019260209291908290030181865afa158015611da4573d6000803e3d6000fd5b505050506040513d601f19601f82011682018060405250810190611dc891906128a4565b90508015611de85785611ddb828a6127bd565b611de591906127d4565b93505b600084611df5878b612818565b611dff9190612818565b9050600081118015611e1d5750601154600160301b900461ffff1615155b15611ee65760115461ffff1615611e605760115461ffff600160301b8204811691611e499116836127bd565b611e5391906127d4565b611e5d90876127aa565b95505b60115462010000900461ffff1615611ea15760115461ffff600160301b8204811691611e94916201000090910416836127bd565b611e9e91906127d4565b93505b601154640100000000900461ffff1615611ee65760115461ffff600160301b8204811691611ed99164010000000090910416836127bd565b611ee391906127d4565b92505b50505b9295509295909350565b604080516001600160a01b038481166024830152604480830185905283518084039091018152606490920183526020820180517bffffffffffffffffffffffffffffffffffffffffffffffffffffffff1663a9059cbb60e01b1790529151600092839290871691611f6491906128f7565b6000604051808303816000865af19150503d8060008114611fa1576040519150601f19603f3d011682016040523d82523d6000602084013e611fa6565b606091505b5091509150818015611fd0575080511580611fd0575080806020019051810190611fd0919061282b565b61201c5760405162461bcd60e51b815260206004820152600f60248201527f5452414e534645525f4641494c45440000000000000000000000000000000000604482015260640161092e565b5050505050565b60165460009081036120e8576016805460018082019092557fd833147d7dc355ba459fc788f669e58cfaf9dc25ddcd0702e87d69c7b51242896008820401805460079092166004026101000a63ffffffff021990911690556014805480830190915560007fce6d7b5282bd9a3661ae061feed1dbda4e52ab073b1f9285be6e155d9c38d4ec9091018190556015805492830181559052670de0b6b3a76400007f55f448fdea98c4d29eb340757ef0a66cd03dbb9538908a6a81d96026b71ec475909101555b601680546001808201835560009283527fd833147d7dc355ba459fc788f669e58cfaf9dc25ddcd0702e87d69c7b51242896008830401805460079093166004026101000a63ffffffff8181021990941642909416029290921790915560128054919290916121579084906127aa565b9250508190555061216b6014601354612330565b601254604080519182524260208301527f492fbd8cfdd942203e99f6bc74253a1e1f5791b0644612279e778349f353b198910160405180910390a15060125490565b6000828152602081815260408083206001600160a01b038516845290915290205460ff16610cce576121de8161237b565b6121e983602061238d565b6040516020016121fa929190612913565b60408051601f198184030181529082905262461bcd60e51b825261092e91600401612994565b8154600090810361223357506000610899565b8254839061224390600190612818565b81548110612253576122536128bd565b9060005260206000200154821061227957825461227290600190612818565b9050610899565b8260008154811061228c5761228c6128bd565b90600052602060002001548210156122a657506000610899565b825460009081906122b990600190612818565b90505b8181111561232857600060026122d284846127aa565b6122dd9060016127aa565b6122e791906127d4565b9050848682815481106122fc576122fc6128bd565b90600052602060002001541161231457809250612322565b61231f600182612818565b91505b506122bc565b509392505050565b600061233b60125490565b90508061234784612536565b1015610c2a578254600180820185556000858152602080822090930193909355938401805494850181558252902090910155565b60606108996001600160a01b03831660145b6060600061239c8360026127bd565b6123a79060026127aa565b67ffffffffffffffff8111156123bf576123bf6129c7565b6040519080825280601f01601f1916602001820160405280156123e9576020820181803683370190505b509050600360fc1b81600081518110612404576124046128bd565b60200101906001600160f81b031916908160001a905350600f60fb1b81600181518110612433576124336128bd565b60200101906001600160f81b031916908160001a90535060006124578460026127bd565b6124629060016127aa565b90505b60018111156124e7577f303132333435363738396162636465660000000000000000000000000000000085600f16601081106124a3576124a36128bd565b1a60f81b8282815181106124b9576124b96128bd565b60200101906001600160f81b031916908160001a90535060049490941c936124e0816129dd565b9050612465565b5083156108dd5760405162461bcd60e51b815260206004820181905260248201527f537472696e67733a20686578206c656e67746820696e73756666696369656e74604482015260640161092e565b8054600090810361254957506000919050565b8154829061255990600190612818565b81548110612569576125696128bd565b90600052602060002001549050919050565b60006020828403121561258d57600080fd5b81356001600160e01b0319811681146108dd57600080fd5b6000806000606084860312156125ba57600080fd5b505081359360208301359350604090920135919050565b80356001600160a01b038116811461118f57600080fd5b6000602082840312156125fa57600080fd5b6108dd826125d1565b6000806040838503121561261657600080fd5b50508035926020909101359150565b60006020828403121561263757600080fd5b5035919050565b803561ffff8116811461118f57600080fd5b6000806000806080858703121561266657600080fd5b61266f8561263e565b935061267d6020860161263e565b925061268b6040860161263e565b91506126996060860161263e565b905092959194509250565b600080604083850312156126b757600080fd5b823591506126c7602084016125d1565b90509250929050565b600080604083850312156126e357600080fd5b6126ec836125d1565b91506126c7602084016125d1565b6020808252825182820181905260009190848201906040850190845b8181101561273857835163ffffffff1683529284019291840191600101612716565b50909695505050505050565b6000806040838503121561275757600080fd5b612760836125d1565b946020939093013593505050565b60006020828403121561278057600080fd5b813563ffffffff811681146108dd57600080fd5b634e487b7160e01b600052601160045260246000fd5b8082018082111561089957610899612794565b808202811582820484141761089957610899612794565b6000826127f157634e487b7160e01b600052601260045260246000fd5b500490565b61ffff81811683821601908082111561281157612811612794565b5092915050565b8181038181111561089957610899612794565b60006020828403121561283d57600080fd5b815180151581146108dd57600080fd5b60006101208201905087825260208781840152866040840152606083018660005b600481101561288b5781518352918301919083019060010161286e565b5050505060e08201939093526101000152949350505050565b6000602082840312156128b657600080fd5b5051919050565b634e487b7160e01b600052603260045260246000fd5b60005b838110156128ee5781810151838201526020016128d6565b50506000910152565b600082516129098184602087016128d3565b9190910192915050565b7f416363657373436f6e74726f6c3a206163636f756e742000000000000000000081526000835161294b8160178501602088016128d3565b7f206973206d697373696e6720726f6c652000000000000000000000000000000060179184019182015283516129888160288401602088016128d3565b01602801949350505050565b60208152600082518060208401526129b38160408501602087016128d3565b601f01601f19169190910160400192915050565b634e487b7160e01b600052604160045260246000fd5b6000816129ec576129ec612794565b50600019019056fe41636365737369626c653a2043616c6c6572206973206e6f7420616e2061646da164736f6c6343000812000a",
  "linkReferences": {},
  "deployedLinkReferences": {}
}