{
  "_format": "hh-sol-artifact-1",
  "contractName": "SeigManagerV2",
  "sourceName": "contracts/SeigManagerV2.sol",
  "abi": [
    {
      "inputs": [],
      "stateMutability": "nonpayable",
      "type": "constructor"
    },
    {
      "anonymous": false,
      "inputs": [
        {
          "indexed": false,
          "internalType": "address",
          "name": "caller",
          "type": "address"
        },
        {
          "indexed": false,
          "internalType": "address",
          "name": "to",
          "type": "address"
        },
        {
          "indexed": false,
          "internalType": "uint256",
          "name": "amount",
          "type": "uint256"
        }
      ],
      "name": "ClaimedOperator",
      "type": "event"
    },
    {
      "anonymous": false,
      "inputs": [
        {
          "indexed": false,
          "internalType": "address",
          "name": "caller",
          "type": "address"
        },
        {
          "indexed": false,
          "internalType": "address",
          "name": "to",
          "type": "address"
        },
        {
          "indexed": false,
          "internalType": "uint256",
          "name": "amount",
          "type": "uint256"
        }
      ],
      "name": "ClaimedStaker",
      "type": "event"
    },
    {
      "anonymous": false,
      "inputs": [
        {
          "indexed": true,
          "internalType": "bytes32",
          "name": "role",
          "type": "bytes32"
        },
        {
          "indexed": true,
          "internalType": "bytes32",
          "name": "previousAdminRole",
          "type": "bytes32"
        },
        {
          "indexed": true,
          "internalType": "bytes32",
          "name": "newAdminRole",
          "type": "bytes32"
        }
      ],
      "name": "RoleAdminChanged",
      "type": "event"
    },
    {
      "anonymous": false,
      "inputs": [
        {
          "indexed": true,
          "internalType": "bytes32",
          "name": "role",
          "type": "bytes32"
        },
        {
          "indexed": true,
          "internalType": "address",
          "name": "account",
          "type": "address"
        },
        {
          "indexed": true,
          "internalType": "address",
          "name": "sender",
          "type": "address"
        }
      ],
      "name": "RoleGranted",
      "type": "event"
    },
    {
      "anonymous": false,
      "inputs": [
        {
          "indexed": true,
          "internalType": "bytes32",
          "name": "role",
          "type": "bytes32"
        },
        {
          "indexed": true,
          "internalType": "address",
          "name": "account",
          "type": "address"
        },
        {
          "indexed": true,
          "internalType": "address",
          "name": "sender",
          "type": "address"
        }
      ],
      "name": "RoleRevoked",
      "type": "event"
    },
    {
      "anonymous": false,
      "inputs": [
        {
          "indexed": false,
          "internalType": "uint256",
          "name": "id",
          "type": "uint256"
        },
        {
          "indexed": false,
          "internalType": "uint256",
          "name": "snapshotTime",
          "type": "uint256"
        }
      ],
      "name": "Snapshot",
      "type": "event"
    },
    {
      "anonymous": false,
      "inputs": [
        {
          "indexed": false,
          "internalType": "uint256",
          "name": "lastSeigBlock_",
          "type": "uint256"
        },
        {
          "indexed": false,
          "internalType": "uint256",
          "name": "increaseSeig_",
          "type": "uint256"
        },
        {
          "indexed": false,
          "internalType": "uint256",
          "name": "totalSupplyOfTon_",
          "type": "uint256"
        },
        {
          "indexed": false,
          "internalType": "uint256[2]",
          "name": "amount_",
          "type": "uint256[2]"
        },
        {
          "indexed": false,
          "internalType": "uint256",
          "name": "prevIndex_",
          "type": "uint256"
        },
        {
          "indexed": false,
          "internalType": "uint256",
          "name": "index_",
          "type": "uint256"
        }
      ],
      "name": "UpdatedSeigniorage",
      "type": "event"
    },
    {
      "inputs": [],
      "name": "ADMIN_ROLE",
      "outputs": [
        {
          "internalType": "bytes32",
          "name": "",
          "type": "bytes32"
        }
      ],
      "stateMutability": "view",
      "type": "function"
    },
    {
      "inputs": [],
      "name": "DEFAULT_ADMIN_ROLE",
      "outputs": [
        {
          "internalType": "bytes32",
          "name": "",
          "type": "bytes32"
        }
      ],
      "stateMutability": "view",
      "type": "function"
    },
    {
      "inputs": [],
      "name": "POLICY_ROLE",
      "outputs": [
        {
          "internalType": "bytes32",
          "name": "",
          "type": "bytes32"
        }
      ],
      "stateMutability": "view",
      "type": "function"
    },
    {
      "inputs": [
        {
          "internalType": "address",
          "name": "account",
          "type": "address"
        }
      ],
      "name": "addAdmin",
      "outputs": [],
      "stateMutability": "nonpayable",
      "type": "function"
    },
    {
      "inputs": [
        {
          "internalType": "address",
          "name": "",
          "type": "address"
        }
      ],
      "name": "aliveImplementation",
      "outputs": [
        {
          "internalType": "bool",
          "name": "",
          "type": "bool"
        }
      ],
      "stateMutability": "view",
      "type": "function"
    },
    {
      "inputs": [
        {
          "internalType": "uint256",
          "name": "curIndex",
          "type": "uint256"
        },
        {
          "internalType": "uint256",
          "name": "curTotal",
          "type": "uint256"
        },
        {
          "internalType": "uint256",
          "name": "increaseAmount",
          "type": "uint256"
        }
      ],
      "name": "calculateIndex",
      "outputs": [
        {
          "internalType": "uint256",
          "name": "nextIndex",
          "type": "uint256"
        }
      ],
      "stateMutability": "pure",
      "type": "function"
    },
    {
      "inputs": [],
      "name": "candidate",
      "outputs": [
        {
          "internalType": "address",
          "name": "",
          "type": "address"
        }
      ],
      "stateMutability": "view",
      "type": "function"
    },
    {
      "inputs": [
        {
          "internalType": "address",
          "name": "_to",
          "type": "address"
        },
        {
          "internalType": "uint256",
          "name": "_amount",
          "type": "uint256"
        }
      ],
      "name": "claimOperator",
      "outputs": [],
      "stateMutability": "nonpayable",
      "type": "function"
    },
    {
      "inputs": [
        {
          "internalType": "address",
          "name": "_to",
          "type": "address"
        },
        {
          "internalType": "uint256",
          "name": "_amount",
          "type": "uint256"
        }
      ],
      "name": "claimStaker",
      "outputs": [],
      "stateMutability": "nonpayable",
      "type": "function"
    },
    {
      "inputs": [],
      "name": "claimedSeigsOfIndexLton",
      "outputs": [
        {
          "internalType": "uint256",
          "name": "",
          "type": "uint256"
        }
      ],
      "stateMutability": "view",
      "type": "function"
    },
    {
      "inputs": [],
      "name": "claimedSeigsOfOperators",
      "outputs": [
        {
          "internalType": "uint256",
          "name": "",
          "type": "uint256"
        }
      ],
      "stateMutability": "view",
      "type": "function"
    },
    {
      "inputs": [],
      "name": "cumulativeSeigsOfIndexLton",
      "outputs": [
        {
          "internalType": "uint256",
          "name": "",
          "type": "uint256"
        }
      ],
      "stateMutability": "view",
      "type": "function"
    },
    {
      "inputs": [],
      "name": "cumulativeSeigsOfOperators",
      "outputs": [
        {
          "internalType": "uint256",
          "name": "",
          "type": "uint256"
        }
      ],
      "stateMutability": "view",
      "type": "function"
    },
    {
      "inputs": [],
      "name": "dao",
      "outputs": [
        {
          "internalType": "address",
          "name": "",
          "type": "address"
        }
      ],
      "stateMutability": "view",
      "type": "function"
    },
    {
      "inputs": [],
      "name": "getCurrentBlockNumber",
      "outputs": [
        {
          "internalType": "uint256",
          "name": "",
          "type": "uint256"
        }
      ],
      "stateMutability": "view",
      "type": "function"
    },
    {
      "inputs": [],
      "name": "getCurrentSnapshotId",
      "outputs": [
        {
          "internalType": "uint256",
          "name": "",
          "type": "uint256"
        }
      ],
      "stateMutability": "view",
      "type": "function"
    },
    {
      "inputs": [
        {
          "internalType": "uint256",
          "name": "lton",
          "type": "uint256"
        }
      ],
      "name": "getLtonToTon",
      "outputs": [
        {
          "internalType": "uint256",
          "name": "amount",
          "type": "uint256"
        }
      ],
      "stateMutability": "view",
      "type": "function"
    },
    {
      "inputs": [
        {
          "internalType": "uint256",
          "name": "lton",
          "type": "uint256"
        },
        {
          "internalType": "uint256",
          "name": "_snapshotId",
          "type": "uint256"
        }
      ],
      "name": "getLtonToTonAt",
      "outputs": [
        {
          "internalType": "uint256",
          "name": "amount",
          "type": "uint256"
        }
      ],
      "stateMutability": "view",
      "type": "function"
    },
    {
      "inputs": [
        {
          "internalType": "bytes32",
          "name": "role",
          "type": "bytes32"
        }
      ],
      "name": "getRoleAdmin",
      "outputs": [
        {
          "internalType": "bytes32",
          "name": "",
          "type": "bytes32"
        }
      ],
      "stateMutability": "view",
      "type": "function"
    },
    {
      "inputs": [],
      "name": "getSnapshotTime",
      "outputs": [
        {
          "internalType": "uint32[]",
          "name": "",
          "type": "uint32[]"
        }
      ],
      "stateMutability": "view",
      "type": "function"
    },
    {
      "inputs": [
        {
          "internalType": "uint256",
          "name": "_amount",
          "type": "uint256"
        }
      ],
      "name": "getTonToLton",
      "outputs": [
        {
          "internalType": "uint256",
          "name": "amount",
          "type": "uint256"
        }
      ],
      "stateMutability": "view",
      "type": "function"
    },
    {
      "inputs": [
        {
          "internalType": "uint256",
          "name": "_amount",
          "type": "uint256"
        },
        {
          "internalType": "uint256",
          "name": "_snapshotId",
          "type": "uint256"
        }
      ],
      "name": "getTonToLtonAt",
      "outputs": [
        {
          "internalType": "uint256",
          "name": "amount",
          "type": "uint256"
        }
      ],
      "stateMutability": "view",
      "type": "function"
    },
    {
      "inputs": [],
      "name": "getTotalLton",
      "outputs": [
        {
          "internalType": "uint256",
          "name": "amount",
          "type": "uint256"
        }
      ],
      "stateMutability": "view",
      "type": "function"
    },
    {
      "inputs": [
        {
          "internalType": "uint256",
          "name": "_snapshotId",
          "type": "uint256"
        }
      ],
      "name": "getTotalLtonAt",
      "outputs": [
        {
          "internalType": "uint256",
          "name": "amount",
          "type": "uint256"
        }
      ],
      "stateMutability": "view",
      "type": "function"
    },
    {
      "inputs": [
        {
          "internalType": "bytes32",
          "name": "role",
          "type": "bytes32"
        },
        {
          "internalType": "address",
          "name": "account",
          "type": "address"
        }
      ],
      "name": "grantRole",
      "outputs": [],
      "stateMutability": "nonpayable",
      "type": "function"
    },
    {
      "inputs": [
        {
          "internalType": "bytes32",
          "name": "role",
          "type": "bytes32"
        },
        {
          "internalType": "address",
          "name": "account",
          "type": "address"
        }
      ],
      "name": "hasRole",
      "outputs": [
        {
          "internalType": "bool",
          "name": "",
          "type": "bool"
        }
      ],
      "stateMutability": "view",
      "type": "function"
    },
    {
      "inputs": [],
      "name": "indexLton",
      "outputs": [
        {
          "internalType": "uint256",
          "name": "",
          "type": "uint256"
        }
      ],
      "stateMutability": "view",
      "type": "function"
    },
    {
      "inputs": [
        {
          "internalType": "uint256",
          "name": "snapshotId",
          "type": "uint256"
        }
      ],
      "name": "indexLtonAt",
      "outputs": [
        {
          "internalType": "uint256",
          "name": "",
          "type": "uint256"
        }
      ],
      "stateMutability": "view",
      "type": "function"
    },
    {
      "inputs": [
        {
          "internalType": "uint256",
          "name": "snapshotId",
          "type": "uint256"
        }
      ],
      "name": "indexLtonAtSnapshot",
      "outputs": [
        {
          "internalType": "bool",
          "name": "snapshotted",
          "type": "bool"
        },
        {
          "internalType": "uint256",
          "name": "value",
          "type": "uint256"
        }
      ],
      "stateMutability": "view",
      "type": "function"
    },
    {
      "inputs": [
        {
          "internalType": "address",
          "name": "account",
          "type": "address"
        }
      ],
      "name": "isAdmin",
      "outputs": [
        {
          "internalType": "bool",
          "name": "",
          "type": "bool"
        }
      ],
      "stateMutability": "view",
      "type": "function"
    },
    {
      "inputs": [],
      "name": "lastSeigBlock",
      "outputs": [
        {
          "internalType": "uint256",
          "name": "",
          "type": "uint256"
        }
      ],
      "stateMutability": "view",
      "type": "function"
    },
    {
      "inputs": [],
      "name": "layer2Manager",
      "outputs": [
        {
          "internalType": "address",
          "name": "",
          "type": "address"
        }
      ],
      "stateMutability": "view",
      "type": "function"
    },
    {
      "inputs": [],
      "name": "minimumBlocksForUpdateSeig",
      "outputs": [
        {
          "internalType": "uint32",
          "name": "",
          "type": "uint32"
        }
      ],
      "stateMutability": "view",
      "type": "function"
    },
    {
      "inputs": [],
      "name": "mintableSeigsAmount",
      "outputs": [
        {
          "internalType": "uint256",
          "name": "amount",
          "type": "uint256"
        }
      ],
      "stateMutability": "view",
      "type": "function"
    },
    {
      "inputs": [],
      "name": "optimismL2Operator",
      "outputs": [
        {
          "internalType": "address",
          "name": "",
          "type": "address"
        }
      ],
      "stateMutability": "view",
      "type": "function"
    },
    {
      "inputs": [],
      "name": "pauseProxy",
      "outputs": [
        {
          "internalType": "bool",
          "name": "",
          "type": "bool"
        }
      ],
      "stateMutability": "view",
      "type": "function"
    },
    {
      "inputs": [
        {
          "internalType": "uint256",
          "name": "",
          "type": "uint256"
        }
      ],
      "name": "proxyImplementation",
      "outputs": [
        {
          "internalType": "address",
          "name": "",
          "type": "address"
        }
      ],
      "stateMutability": "view",
      "type": "function"
    },
    {
      "inputs": [
        {
          "internalType": "address",
          "name": "account",
          "type": "address"
        }
      ],
      "name": "removeAdmin",
      "outputs": [],
      "stateMutability": "nonpayable",
      "type": "function"
    },
    {
      "inputs": [
        {
          "internalType": "bytes32",
          "name": "role",
          "type": "bytes32"
        },
        {
          "internalType": "address",
          "name": "account",
          "type": "address"
        }
      ],
      "name": "renounceRole",
      "outputs": [],
      "stateMutability": "nonpayable",
      "type": "function"
    },
    {
      "inputs": [
        {
          "internalType": "bytes32",
          "name": "role",
          "type": "bytes32"
        },
        {
          "internalType": "address",
          "name": "account",
          "type": "address"
        }
      ],
      "name": "revokeRole",
      "outputs": [],
      "stateMutability": "nonpayable",
      "type": "function"
    },
    {
      "inputs": [],
      "name": "runUpdateSeigniorage",
      "outputs": [
        {
          "internalType": "bool",
          "name": "res",
          "type": "bool"
        }
      ],
      "stateMutability": "nonpayable",
      "type": "function"
    },
    {
      "inputs": [],
      "name": "seigManagerV1",
      "outputs": [
        {
          "internalType": "address",
          "name": "",
          "type": "address"
        }
      ],
      "stateMutability": "view",
      "type": "function"
    },
    {
      "inputs": [],
      "name": "seigPerBlock",
      "outputs": [
        {
          "internalType": "uint256",
          "name": "",
          "type": "uint256"
        }
      ],
      "stateMutability": "view",
      "type": "function"
    },
    {
      "inputs": [
        {
          "internalType": "bytes4",
          "name": "",
          "type": "bytes4"
        }
      ],
      "name": "selectorImplementation",
      "outputs": [
        {
          "internalType": "address",
          "name": "",
          "type": "address"
        }
      ],
      "stateMutability": "view",
      "type": "function"
    },
    {
      "inputs": [
        {
          "internalType": "address",
          "name": "_dao",
          "type": "address"
        }
      ],
      "name": "setDao",
      "outputs": [],
      "stateMutability": "nonpayable",
      "type": "function"
    },
    {
      "inputs": [
        {
          "internalType": "uint256",
          "name": "_lastSeigBlock",
          "type": "uint256"
        }
      ],
      "name": "setLastSeigBlock",
      "outputs": [],
      "stateMutability": "nonpayable",
      "type": "function"
    },
    {
      "inputs": [
        {
          "internalType": "uint32",
          "name": "_minimumBlocksForUpdateSeig",
          "type": "uint32"
        }
      ],
      "name": "setMinimumBlocksForUpdateSeig",
      "outputs": [],
      "stateMutability": "nonpayable",
      "type": "function"
    },
    {
      "inputs": [
        {
          "internalType": "uint256",
          "name": "_seigPerBlock",
          "type": "uint256"
        }
      ],
      "name": "setSeigPerBlock",
      "outputs": [],
      "stateMutability": "nonpayable",
      "type": "function"
    },
    {
      "inputs": [],
      "name": "snapshot",
      "outputs": [
        {
          "internalType": "uint256",
          "name": "",
          "type": "uint256"
        }
      ],
      "stateMutability": "nonpayable",
      "type": "function"
    },
    {
      "inputs": [
        {
          "internalType": "uint256",
          "name": "",
          "type": "uint256"
        }
      ],
      "name": "snapshotTime",
      "outputs": [
        {
          "internalType": "uint32",
          "name": "",
          "type": "uint32"
        }
      ],
      "stateMutability": "view",
      "type": "function"
    },
    {
      "inputs": [],
      "name": "startBlock",
      "outputs": [
        {
          "internalType": "uint256",
          "name": "",
          "type": "uint256"
        }
      ],
      "stateMutability": "view",
      "type": "function"
    },
    {
      "inputs": [
        {
          "internalType": "bytes4",
          "name": "interfaceId",
          "type": "bytes4"
        }
      ],
      "name": "supportsInterface",
      "outputs": [
        {
          "internalType": "bool",
          "name": "",
          "type": "bool"
        }
      ],
      "stateMutability": "view",
      "type": "function"
    },
    {
      "inputs": [],
      "name": "ton",
      "outputs": [
        {
          "internalType": "contract IERC20",
          "name": "",
          "type": "address"
        }
      ],
      "stateMutability": "view",
      "type": "function"
    },
    {
      "inputs": [],
      "name": "tot",
      "outputs": [
        {
          "internalType": "address",
          "name": "",
          "type": "address"
        }
      ],
      "stateMutability": "view",
      "type": "function"
    },
    {
      "inputs": [],
      "name": "totalSupplyTON",
      "outputs": [
        {
          "internalType": "uint256",
          "name": "amount",
          "type": "uint256"
        }
      ],
      "stateMutability": "view",
      "type": "function"
    },
    {
      "inputs": [
        {
          "internalType": "address",
          "name": "newAdmin",
          "type": "address"
        }
      ],
      "name": "transferAdmin",
      "outputs": [],
      "stateMutability": "nonpayable",
      "type": "function"
    },
    {
      "inputs": [],
      "name": "updateSeigniorage",
      "outputs": [
        {
          "internalType": "bool",
          "name": "res",
          "type": "bool"
        }
      ],
      "stateMutability": "nonpayable",
      "type": "function"
    },
    {
      "inputs": [],
      "name": "wton",
      "outputs": [
        {
          "internalType": "address",
          "name": "",
          "type": "address"
        }
      ],
      "stateMutability": "view",
      "type": "function"
    }
  ],
  "bytecode": "0x60806040526015805460ff1916600117905534801561001d57600080fd5b50612ae78061002d6000396000f3fe608060405234801561001057600080fd5b506004361061038e5760003560e01c80636c8381f8116101de578063a16d6aa71161010f578063d547741f116100ad578063f0bbcde91161007c578063f0bbcde9146107ed578063f2854fc414610800578063f285c90f14610809578063f35c89e81461081c57600080fd5b8063d547741f146107ac578063daec65de146107bf578063e7d9456c146107c7578063ec558b16146107da57600080fd5b8063b911135f116100e9578063b911135f1461074a578063cc48b94714610773578063cdf6800914610786578063ceeff0971461079957600080fd5b8063a16d6aa714610727578063a217fddf1461073a578063b413b37a1461074257600080fd5b8063764a78561161017c5780638de73e1d116101565780638de73e1d146106c05780638df40b2c146106d557806391d14854146106e85780639711715a1461071f57600080fd5b8063764a78561461069d578063865e64a1146106a55780638d62d949146106ad57600080fd5b806370480275116101b8578063704802751461063d57806375829def1461065057806375b238fc1461066357806375c6ee8e1461068a57600080fd5b80636c8381f81461061b5780636fab0d4f1461062e5780636fd902e11461063757600080fd5b80634162169f116102c3578063558e43761161026157806363a3a2f51161023057806363a3a2f5146105d557806363a8fd89146105e85780636637b882146105f55780636a2fb1f51461060857600080fd5b8063558e4376146105b25780635c7f252c146105ba5780635f40a349146105c35780636342661b146105cc57600080fd5b80634ab6b4621161029d5780634ab6b4621461054e57806350d2a2761461055e5780635439ad8614610587578063550d01a31461058f57600080fd5b80634162169f1461051f578063419e4dd31461053257806348cd4cb11461054557600080fd5b8063248a9ca311610330578063350ce2a81161030a578063350ce2a8146104c757806336568abe146104f1578063386f419b146105045780633ddc89961461050c57600080fd5b8063248a9ca31461047e57806324d7806c146104a15780632f2ff15d146104b457600080fd5b80631785f53c1161036c5780631785f53c146104075780631c1d3a631461041c5780631dc0f9bb1461042f578063229852461461045757600080fd5b806301ffc9a7146103935780630528464a146103bb57806316b5d5bd146103dc575b600080fd5b6103a66103a13660046126df565b610825565b60405190151581526020015b60405180910390f35b6103ce6103c9366004612709565b61085c565b6040519081526020016103b2565b600a546103ef906001600160a01b031681565b6040516001600160a01b0390911681526020016103b2565b61041a61041536600461274c565b6108a1565b005b6103ce61042a366004612767565b610933565b61044261043d366004612789565b610960565b60405163ffffffff90911681526020016103b2565b6103ce7ffb5864e8ff833c3cb2d2d08505e82ff02a43554c74a35d4f5a64e8526127831181565b6103ce61048c366004612789565b60009081526020819052604090206001015490565b6103a66104af36600461274c565b61099a565b61041a6104c23660046127a2565b6109da565b6104da6104d5366004612789565b610a04565b6040805192151583526020830191909152016103b2565b61041a6104ff3660046127a2565b610a1b565b6103a6610aa7565b6103ce61051a366004612789565b610d19565b6007546103ef906001600160a01b031681565b61041a6105403660046127ce565b610d44565b6103ce600f5481565b6010546104429063ffffffff1681565b6103ef61056c3660046126df565b6004602052600090815260409020546001600160a01b031681565b6016546103ce565b6103a661059d36600461274c565b60036020526000908152604090205460ff1681565b6017546103ce565b6103ce60125481565b6103ce600d5481565b6103ce60115481565b6008546103ef906001600160a01b031681565b6001546103a69060ff1681565b61041a61060336600461274c565b610ebc565b6103ce610616366004612789565b610f91565b600c546103ef906001600160a01b031681565b6103ce60135481565b436103ce565b61041a61064b36600461274c565b610fbd565b61041a61065e36600461274c565b611047565b6103ce7fdf8b4c520ffe197c5343c6f5aec59570151ef9a492f2c624fd45ddde6135ec4281565b6103ce610698366004612789565b6111a9565b6103a661128e565b6103ce6112be565b6006546103ef906001600160a01b031681565b6106c861143e565b6040516103b291906127f8565b6103ce6106e3366004612767565b6114c2565b6103a66106f63660046127a2565b6000918252602082815260408084206001600160a01b0393909316845291905290205460ff1690565b6103ce6114e6565b6009546103ef906001600160a01b031681565b6103ce600081565b6103ce6114f0565b6103ef610758366004612789565b6002602052600090815260409020546001600160a01b031681565b6005546103ef906001600160a01b031681565b6103ce610794366004612789565b6115df565b61041a6107a7366004612789565b611603565b61041a6107ba3660046127a2565b6116e8565b6103ce61170d565b61041a6107d53660046127ce565b611743565b600b546103ef906001600160a01b031681565b61041a6107fb366004612789565b6118d4565b6103ce60145481565b61041a610817366004612842565b611973565b6103ce600e5481565b60006001600160e01b03198216637965db0b60e01b148061085657506301ffc9a760e01b6001600160e01b03198316145b92915050565b6000821580159061086c57508115155b15610897578261087c838261287e565b6108869086612891565b61089091906128a8565b905061089a565b50825b9392505050565b6108aa3361099a565b6109065760405162461bcd60e51b815260206004820152602260248201527f41636365737369626c653a2043616c6c6572206973206e6f7420616e2061646d60448201526134b760f11b60648201526084015b60405180910390fd5b6109307fdf8b4c520ffe197c5343c6f5aec59570151ef9a492f2c624fd45ddde6135ec4282610a1b565b50565b600082156108565761094482610d19565b61095684670de0b6b3a7640000612891565b61089a91906128a8565b601a818154811061097057600080fd5b9060005260206000209060089182820401919006600402915054906101000a900463ffffffff1681565b6001600160a01b03811660009081527f5cbfc8ee58ca47855df7bcf648dd304ddb6b932f9b87878bdf6318d7ec7ee5b7602052604081205460ff16610856565b6000828152602081905260409020600101546109f581611a32565b6109ff8383611a3c565b505050565b600080610a12836018611ada565b91509150915091565b6001600160a01b0381163314610a995760405162461bcd60e51b815260206004820152602f60248201527f416363657373436f6e74726f6c3a2063616e206f6e6c792072656e6f756e636560448201527f20726f6c657320666f722073656c66000000000000000000000000000000000060648201526084016108fd565b610aa38282611bff565b5050565b60155460009060ff16610ae55760405162461bcd60e51b81526004016108fd906020808252600490820152636c6f636b60e01b604082015260600190565b6015805460ff19169055600f546000819003610b285760405162461bcd60e51b81526020600482015260026024820152615a3160f01b60448201526064016108fd565b43600e54108015610b3a5750600e5415155b15610d04576000600d54600e54610b4e4390565b610b5891906128ca565b610b629190612891565b90506000610b6e6114f0565b90506000806000610b7f8585611c7e565b60175492955090935091508415801590610b9857508215155b15610bcc578260116000828254610baf919061287e565b90915550610bc8905081610bc2876115df565b8561085c565b6017555b8115610ca4578160126000828254610be4919061287e565b9091555050600a54604051631c28332160e01b8152600481018490526001600160a01b0390911690631c283321906024016020604051808303816000875af1158015610c34573d6000803e3d6000fd5b505050506040513d601f19601f82011682018060405250810190610c5891906128dd565b610ca45760405162461bcd60e51b815260206004820152600d60248201527f4641494c2061646453656967730000000000000000000000000000000000000060448201526064016108fd565b43600e8190556040805180820182528581526020810185905260175491517f4e1ee4f65d6912221ed7496b1a14398ad65cb918f60399d7143e61625630169893610cf59390928b928a9288916128ff565b60405180910390a15050505050505b60019150506015805460ff1916600117905590565b6000806000610d29846018611ada565b9150915081610d3a57601754610d3c565b805b949350505050565b600a546001600160a01b03163314610d9e5760405162461bcd60e51b815260206004820152601860248201527f63616c6c6572206e6f74206c61796572324d616e61676572000000000000000060448201526064016108fd565b601454601254610dae91906128ca565b811115610df05760405162461bcd60e51b815260206004820152601060248201526f34b739bab33334b1b4b2b73a102a27a760811b60448201526064016108fd565b8060146000828254610e02919061287e565b909155505060075460405163419e4dd360e01b81526001600160a01b038481166004830152602482018490529091169063419e4dd390604401600060405180830381600087803b158015610e5557600080fd5b505af1158015610e69573d6000803e3d6000fd5b5050604080513381526001600160a01b03861660208201529081018490527fda0a4c52943060f27f35ba933b920a870ed102de80ab9c926791f0785e230557925060600190505b60405180910390a15050565b610ec53361099a565b610f1c5760405162461bcd60e51b815260206004820152602260248201527f41636365737369626c653a2043616c6c6572206973206e6f7420616e2061646d60448201526134b760f11b60648201526084016108fd565b6007546001600160a01b03808316911603610f625760405162461bcd60e51b81526004016108fd9060208082526004908201526373616d6560e01b604082015260600190565b6007805473ffffffffffffffffffffffffffffffffffffffff19166001600160a01b0392909216919091179055565b60008115610fb857601754610fae83670de0b6b3a7640000612891565b61085691906128a8565b919050565b610fc63361099a565b61101d5760405162461bcd60e51b815260206004820152602260248201527f41636365737369626c653a2043616c6c6572206973206e6f7420616e2061646d60448201526134b760f11b60648201526084016108fd565b6109307fdf8b4c520ffe197c5343c6f5aec59570151ef9a492f2c624fd45ddde6135ec42826109da565b6110503361099a565b6110a75760405162461bcd60e51b815260206004820152602260248201527f41636365737369626c653a2043616c6c6572206973206e6f7420616e2061646d60448201526134b760f11b60648201526084016108fd565b6001600160a01b0381166110fd5760405162461bcd60e51b815260206004820152601860248201527f41636365737369626c653a207a65726f2061646472657373000000000000000060448201526064016108fd565b6001600160a01b03811633036111555760405162461bcd60e51b815260206004820152601660248201527f41636365737369626c653a2073616d652061646d696e0000000000000000000060448201526064016108fd565b61117f7fdf8b4c520ffe197c5343c6f5aec59570151ef9a492f2c624fd45ddde6135ec42826109da565b6109307fdf8b4c520ffe197c5343c6f5aec59570151ef9a492f2c624fd45ddde6135ec4233610a1b565b600c54604051633ae3774760e11b8152600481018390526000916001600160a01b0316906375c6ee8e90602401602060405180830381865afa1580156111f3573d6000803e3d6000fd5b505050506040513d601f19601f820116820180604052508101906112179190612954565b600b54604051633ae3774760e11b8152600481018590526001600160a01b03909116906375c6ee8e90602401602060405180830381865afa158015611260573d6000803e3d6000fd5b505050506040513d601f19601f820116820180604052508101906112849190612954565b610856919061287e565b600043601054600e546112a79163ffffffff169061287e565b10156112b8576112b5610aa7565b90505b50600190565b6005546006546040516370a0823160e01b81526001600160a01b03918216600482015260009291909116906370a0823190602401602060405180830381865afa15801561130f573d6000803e3d6000fd5b505050506040513d601f19601f820116820180604052508101906113339190612954565b600954604080516318160ddd60e01b81529051633b9aca00926001600160a01b0316916318160ddd9160048083019260209291908290030181865afa158015611380573d6000803e3d6000fd5b505050506040513d601f19601f820116820180604052508101906113a49190612954565b6113ae91906128a8565b600560009054906101000a90046001600160a01b03166001600160a01b03166318160ddd6040518163ffffffff1660e01b8152600401602060405180830381865afa158015611401573d6000803e3d6000fd5b505050506040513d601f19601f820116820180604052508101906114259190612954565b61142f919061287e565b61143991906128ca565b905090565b6060601a8054806020026020016040519081016040528092919081815260200182805480156114b857602002820191906000526020600020906000905b82829054906101000a900463ffffffff1663ffffffff168152602001906004019060208260030104928301926001038202915080841161147b5790505b5050505050905090565b6000821561085657670de0b6b3a76400006114dc83610d19565b6109569085612891565b600061143961210c565b600c5460408051635a09d9bd60e11b815290516000926001600160a01b03169163b413b37a9160048083019260209291908290030181865afa15801561153a573d6000803e3d6000fd5b505050506040513d601f19601f8201168201806040525081019061155e9190612954565b600b60009054906101000a90046001600160a01b03166001600160a01b031663b413b37a6040518163ffffffff1660e01b8152600401602060405180830381865afa1580156115b1573d6000803e3d6000fd5b505050506040513d601f19601f820116820180604052508101906115d59190612954565b611439919061287e565b60008115610fb857670de0b6b3a76400006115f960175490565b610fae9084612891565b61160c3361099a565b6116635760405162461bcd60e51b815260206004820152602260248201527f41636365737369626c653a2043616c6c6572206973206e6f7420616e2061646d60448201526134b760f11b60648201526084016108fd565b80806000036116995760405162461bcd60e51b81526020600482015260026024820152615a3160f01b60448201526064016108fd565b81600e54036116d35760405162461bcd60e51b81526004016108fd9060208082526004908201526373616d6560e01b604082015260600190565b600e829055600f54600003610aa35750600f55565b60008281526020819052604090206001015461170381611a32565b6109ff8383611bff565b600043600e541080156117215750600e5415155b1561174057600d54600e5461173690436128ca565b6114399190612891565b90565b600b546001600160a01b03163314806117665750600c546001600160a01b031633145b6117be5760405162461bcd60e51b815260206004820152602360248201527f63616c6c6572206973206e6f74206f70657261746f72206f722063616e64696460448201526261746560e81b60648201526084016108fd565b6013546011546117ce91906128ca565b8111156118105760405162461bcd60e51b815260206004820152601060248201526f34b739bab33334b1b4b2b73a102a27a760811b60448201526064016108fd565b8060136000828254611822919061287e565b90915550506007546040516339f6515b60e21b81526001600160a01b038481166004830152602482018490529091169063e7d9456c90604401600060405180830381600087803b15801561187557600080fd5b505af1158015611889573d6000803e3d6000fd5b5050604080513381526001600160a01b03861660208201529081018490527fa6ad3b9eafc55fbe802d55703dd2a07e6cad98e7372ffc8023b00133b705e83192506060019050610eb0565b6118dd3361099a565b6119345760405162461bcd60e51b815260206004820152602260248201527f41636365737369626c653a2043616c6c6572206973206e6f7420616e2061646d60448201526134b760f11b60648201526084016108fd565b80600d540361196e5760405162461bcd60e51b81526004016108fd9060208082526004908201526373616d6560e01b604082015260600190565b600d55565b61197c3361099a565b6119d35760405162461bcd60e51b815260206004820152602260248201527f41636365737369626c653a2043616c6c6572206973206e6f7420616e2061646d60448201526134b760f11b60648201526084016108fd565b60105463ffffffff808316911603611a165760405162461bcd60e51b81526004016108fd9060208082526004908201526373616d6560e01b604082015260600190565b6010805463ffffffff191663ffffffff92909216919091179055565b6109308133612296565b6000828152602081815260408083206001600160a01b038516845290915290205460ff16610aa3576000828152602081815260408083206001600160a01b03851684529091529020805460ff19166001179055611a963390565b6001600160a01b0316816001600160a01b0316837f2f8788117e7eff1d82e926ec794901d17c78024a50270940304540a733656f0d60405160405180910390a45050565b600080611ae660165490565b841115611b355760405162461bcd60e51b815260206004820152601860248201527f536e617073686f743a206e6f6e6578697374656e74206964000000000000000060448201526064016108fd565b825415801590611b6e575082548390611b50906001906128ca565b81548110611b6057611b6061296d565b906000526020600020015484115b15611bac578254600090600180860191611b8891906128ca565b81548110611b9857611b9861296d565b906000526020600020015491509150611bf8565b6000611bb88486612309565b84549091508103611bd0576000809250925050611bf8565b6001846001018281548110611be757611be761296d565b906000526020600020015492509250505b9250929050565b6000828152602081815260408083206001600160a01b038516845290915290205460ff1615610aa3576000828152602081815260408083206001600160a01b0385168085529252808320805460ff1916905551339285917ff6391f5c32d9c69d2a47ea670b442974b53935d1edc7fd64eb21e047a839171b9190a45050565b6000806000611c8b6112be565b92506000600860009054906101000a90046001600160a01b03166001600160a01b03166325374a9a6040518163ffffffff1660e01b8152600401602060405180830381865afa158015611ce2573d6000803e3d6000fd5b505050506040513d601f19601f82011682018060405250810190611d069190612954565b90506000633b9aca00600960009054906101000a90046001600160a01b03166001600160a01b03166318160ddd6040518163ffffffff1660e01b8152600401602060405180830381865afa158015611d62573d6000803e3d6000fd5b505050506040513d601f19601f82011682018060405250810190611d869190612954565b611d9091906128a8565b90506000611d9d876115df565b90506000611dab828461287e565b9050611dec6040518060400160405280601381526020017f746f74616c537570706c794f66546f6e2025730000000000000000000000000081525088612419565b611e2b6040518060400160405280601081526020017f746f74616c5374616b656456312025730000000000000000000000000000000081525084612419565b611e6a6040518060400160405280601081526020017f746f74616c5374616b656456322025730000000000000000000000000000000081525083612419565b611ea96040518060400160405280600e81526020017f746f74616c5374616b656420257300000000000000000000000000000000000081525082612419565b86156121015760405163b510f67960e01b815260048101889052602481018590526044810184905260648101839052600090819073__$95ac973c5c24589de30daf3e4b10924154$__9063b510f679906084016040805180830381865af4158015611f18573d6000803e3d6000fd5b505050506040513d601f19601f82011682018060405250810190611f3c9190612983565b91509150611f7f6040518060400160405280601781526020017f5365696752617465466f7256315374616b65727320257300000000000000000081525083612419565b611fbe6040518060400160405280601781526020017f5365696752617465466f7256325374616b65727320257300000000000000000081525082612419565b8915801590611fcc57508015155b15611ff157670de0b6b3a7640000611fe4828d612891565b611fee91906128a8565b97505b6120306040518060400160405280601181526020017f616d6f756e744f667374616b657220257300000000000000000000000000000081525089612419565b600a546040805163e12a621960e01b815290516000926001600160a01b03169163e12a62199160048083019260209291908290030181865afa15801561207a573d6000803e3d6000fd5b505050506040513d601f19601f8201168201806040525081019061209e9190612954565b905080156120be57896120b1828e612891565b6120bb91906128a8565b97505b6120fd6040518060400160405280601581526020017f616d6f756e744f664c324f70657261746f72202573000000000000000000000081525089612419565b5050505b505050509250925092565b601a5460009081036121d157601a805460018082019092557f057c384a7d1c54f3a1b2e5e67b2617b8224fdfd1ea7234eea573a6ff665ff63e6008820401805460079092166004026101000a63ffffffff021990911690556018805480830190915560007fb13d2d76d1f4b7be834882e410b3e3a8afaf69f83600ae24db354391d2378d2e9091018190556019805492830181559052670de0b6b3a76400007f944998273e477b495144fb8794c914197f3ccb46be2900f4698fd0ef743c9695909101555b601a80546001808201835560009283527f057c384a7d1c54f3a1b2e5e67b2617b8224fdfd1ea7234eea573a6ff665ff63e6008830401805460079093166004026101000a63ffffffff81810219909416429094160292909217909155601680549192909161224090849061287e565b925050819055506122546018601754612473565b601654604080519182524260208301527f492fbd8cfdd942203e99f6bc74253a1e1f5791b0644612279e778349f353b198910160405180910390a15060165490565b6000828152602081815260408083206001600160a01b038516845290915290205460ff16610aa3576122c7816124be565b6122d28360206124d0565b6040516020016122e39291906129cb565b60408051601f198184030181529082905262461bcd60e51b82526108fd91600401612a78565b8154600090810361231c57506000610856565b8254839061232c906001906128ca565b8154811061233c5761233c61296d565b9060005260206000200154821061236257825461235b906001906128ca565b9050610856565b826000815481106123755761237561296d565b906000526020600020015482101561238f57506000610856565b825460009081906123a2906001906128ca565b90505b8181111561241157600060026123bb848461287e565b6123c690600161287e565b6123d091906128a8565b9050848682815481106123e5576123e561296d565b9060005260206000200154116123fd5780925061240b565b6124086001826128ca565b91505b506123a5565b509392505050565b610aa3828260405160240161242f929190612a8b565b60408051601f198184030181529190526020810180517bffffffffffffffffffffffffffffffffffffffffffffffffffffffff16632d839cb360e21b179052612679565b600061247e60165490565b90508061248a8461269a565b10156109ff578254600180820185556000858152602080822090930193909355938401805494850181558252902090910155565b60606108566001600160a01b03831660145b606060006124df836002612891565b6124ea90600261287e565b67ffffffffffffffff81111561250257612502612aad565b6040519080825280601f01601f19166020018201604052801561252c576020820181803683370190505b509050600360fc1b816000815181106125475761254761296d565b60200101906001600160f81b031916908160001a905350600f60fb1b816001815181106125765761257661296d565b60200101906001600160f81b031916908160001a905350600061259a846002612891565b6125a590600161287e565b90505b600181111561262a577f303132333435363738396162636465660000000000000000000000000000000085600f16601081106125e6576125e661296d565b1a60f81b8282815181106125fc576125fc61296d565b60200101906001600160f81b031916908160001a90535060049490941c9361262381612ac3565b90506125a8565b50831561089a5760405162461bcd60e51b815260206004820181905260248201527f537472696e67733a20686578206c656e67746820696e73756666696369656e7460448201526064016108fd565b80516a636f6e736f6c652e6c6f67602083016000808483855afa5050505050565b805460009081036126ad57506000919050565b815482906126bd906001906128ca565b815481106126cd576126cd61296d565b90600052602060002001549050919050565b6000602082840312156126f157600080fd5b81356001600160e01b03198116811461089a57600080fd5b60008060006060848603121561271e57600080fd5b505081359360208301359350604090920135919050565b80356001600160a01b0381168114610fb857600080fd5b60006020828403121561275e57600080fd5b61089a82612735565b6000806040838503121561277a57600080fd5b50508035926020909101359150565b60006020828403121561279b57600080fd5b5035919050565b600080604083850312156127b557600080fd5b823591506127c560208401612735565b90509250929050565b600080604083850312156127e157600080fd5b6127ea83612735565b946020939093013593505050565b6020808252825182820181905260009190848201906040850190845b8181101561283657835163ffffffff1683529284019291840191600101612814565b50909695505050505050565b60006020828403121561285457600080fd5b813563ffffffff8116811461089a57600080fd5b634e487b7160e01b600052601160045260246000fd5b8082018082111561085657610856612868565b808202811582820484141761085657610856612868565b6000826128c557634e487b7160e01b600052601260045260246000fd5b500490565b8181038181111561085657610856612868565b6000602082840312156128ef57600080fd5b8151801515811461089a57600080fd5b600060e08201905087825260208781840152866040840152606083018660005b600281101561293c5781518352918301919083019060010161291f565b5050505060a082019390935260c00152949350505050565b60006020828403121561296657600080fd5b5051919050565b634e487b7160e01b600052603260045260246000fd5b6000806040838503121561299657600080fd5b505080516020909101519092909150565b60005b838110156129c25781810151838201526020016129aa565b50506000910152565b7f416363657373436f6e74726f6c3a206163636f756e7420000000000000000000815260008351612a038160178501602088016129a7565b7f206973206d697373696e6720726f6c65200000000000000000000000000000006017918401918201528351612a408160288401602088016129a7565b01602801949350505050565b60008151808452612a648160208601602086016129a7565b601f01601f19169290920160200192915050565b60208152600061089a6020830184612a4c565b604081526000612a9e6040830185612a4c565b90508260208301529392505050565b634e487b7160e01b600052604160045260246000fd5b600081612ad257612ad2612868565b50600019019056fea164736f6c6343000812000a",
  "linkReferences": {
    "contracts/libraries/LibSeigManager.sol": {
      "LibSeigManager": [
        {
          "length": 20,
          "start": 7948
        }
      ]
    }
  },
  "deployedLinkReferences": {
    "contracts/libraries/LibSeigManager.sol": {
      "LibSeigManager": [
        {
          "length": 20,
          "start": 7903
        }
      ]
    }
  }
}