{
  "_format": "hh-sol-artifact-1",
  "contractName": "SeigManagerV2",
  "sourceName": "contracts/SeigManagerV2.sol",
  "abi": [
    {
      "inputs": [],
      "stateMutability": "nonpayable",
      "type": "constructor"
    },
    {
      "anonymous": false,
      "inputs": [
        {
          "indexed": false,
          "internalType": "address",
          "name": "caller",
          "type": "address"
        },
        {
          "indexed": false,
          "internalType": "address",
          "name": "to",
          "type": "address"
        },
        {
          "indexed": false,
          "internalType": "uint256",
          "name": "amount",
          "type": "uint256"
        }
      ],
      "name": "Claimed",
      "type": "event"
    },
    {
      "anonymous": false,
      "inputs": [
        {
          "indexed": true,
          "internalType": "bytes32",
          "name": "role",
          "type": "bytes32"
        },
        {
          "indexed": true,
          "internalType": "bytes32",
          "name": "previousAdminRole",
          "type": "bytes32"
        },
        {
          "indexed": true,
          "internalType": "bytes32",
          "name": "newAdminRole",
          "type": "bytes32"
        }
      ],
      "name": "RoleAdminChanged",
      "type": "event"
    },
    {
      "anonymous": false,
      "inputs": [
        {
          "indexed": true,
          "internalType": "bytes32",
          "name": "role",
          "type": "bytes32"
        },
        {
          "indexed": true,
          "internalType": "address",
          "name": "account",
          "type": "address"
        },
        {
          "indexed": true,
          "internalType": "address",
          "name": "sender",
          "type": "address"
        }
      ],
      "name": "RoleGranted",
      "type": "event"
    },
    {
      "anonymous": false,
      "inputs": [
        {
          "indexed": true,
          "internalType": "bytes32",
          "name": "role",
          "type": "bytes32"
        },
        {
          "indexed": true,
          "internalType": "address",
          "name": "account",
          "type": "address"
        },
        {
          "indexed": true,
          "internalType": "address",
          "name": "sender",
          "type": "address"
        }
      ],
      "name": "RoleRevoked",
      "type": "event"
    },
    {
      "anonymous": false,
      "inputs": [
        {
          "indexed": false,
          "internalType": "uint256",
          "name": "id",
          "type": "uint256"
        },
        {
          "indexed": false,
          "internalType": "uint256",
          "name": "snapshotTime",
          "type": "uint256"
        }
      ],
      "name": "Snapshot",
      "type": "event"
    },
    {
      "anonymous": false,
      "inputs": [
        {
          "indexed": false,
          "internalType": "uint256",
          "name": "lastSeigBlock_",
          "type": "uint256"
        },
        {
          "indexed": false,
          "internalType": "uint256",
          "name": "increaseSeig_",
          "type": "uint256"
        },
        {
          "indexed": false,
          "internalType": "uint256",
          "name": "totalSupplyOfTon_",
          "type": "uint256"
        },
        {
          "indexed": false,
          "internalType": "uint256[2]",
          "name": "amount_",
          "type": "uint256[2]"
        },
        {
          "indexed": false,
          "internalType": "uint256",
          "name": "prevIndex_",
          "type": "uint256"
        },
        {
          "indexed": false,
          "internalType": "uint256",
          "name": "index_",
          "type": "uint256"
        }
      ],
      "name": "UpdatedSeigniorage",
      "type": "event"
    },
    {
      "inputs": [],
      "name": "ADMIN_ROLE",
      "outputs": [
        {
          "internalType": "bytes32",
          "name": "",
          "type": "bytes32"
        }
      ],
      "stateMutability": "view",
      "type": "function"
    },
    {
      "inputs": [],
      "name": "DEFAULT_ADMIN_ROLE",
      "outputs": [
        {
          "internalType": "bytes32",
          "name": "",
          "type": "bytes32"
        }
      ],
      "stateMutability": "view",
      "type": "function"
    },
    {
      "inputs": [],
      "name": "POLICY_ROLE",
      "outputs": [
        {
          "internalType": "bytes32",
          "name": "",
          "type": "bytes32"
        }
      ],
      "stateMutability": "view",
      "type": "function"
    },
    {
      "inputs": [
        {
          "internalType": "address",
          "name": "account",
          "type": "address"
        }
      ],
      "name": "addAdmin",
      "outputs": [],
      "stateMutability": "nonpayable",
      "type": "function"
    },
    {
      "inputs": [
        {
          "internalType": "address",
          "name": "",
          "type": "address"
        }
      ],
      "name": "aliveImplementation",
      "outputs": [
        {
          "internalType": "bool",
          "name": "",
          "type": "bool"
        }
      ],
      "stateMutability": "view",
      "type": "function"
    },
    {
      "inputs": [
        {
          "internalType": "uint256",
          "name": "curIndex",
          "type": "uint256"
        },
        {
          "internalType": "uint256",
          "name": "curTotal",
          "type": "uint256"
        },
        {
          "internalType": "uint256",
          "name": "increaseAmount",
          "type": "uint256"
        }
      ],
      "name": "calculateIndex",
      "outputs": [
        {
          "internalType": "uint256",
          "name": "nextIndex",
          "type": "uint256"
        }
      ],
      "stateMutability": "pure",
      "type": "function"
    },
    {
      "inputs": [],
      "name": "candidate",
      "outputs": [
        {
          "internalType": "address",
          "name": "",
          "type": "address"
        }
      ],
      "stateMutability": "view",
      "type": "function"
    },
    {
      "inputs": [
        {
          "internalType": "address",
          "name": "_to",
          "type": "address"
        },
        {
          "internalType": "uint256",
          "name": "_amount",
          "type": "uint256"
        }
      ],
      "name": "claim",
      "outputs": [],
      "stateMutability": "nonpayable",
      "type": "function"
    },
    {
      "inputs": [],
      "name": "dao",
      "outputs": [
        {
          "internalType": "address",
          "name": "",
          "type": "address"
        }
      ],
      "stateMutability": "view",
      "type": "function"
    },
    {
      "inputs": [],
      "name": "getCurrentBlockNumber",
      "outputs": [
        {
          "internalType": "uint256",
          "name": "",
          "type": "uint256"
        }
      ],
      "stateMutability": "view",
      "type": "function"
    },
    {
      "inputs": [],
      "name": "getCurrentSnapshotId",
      "outputs": [
        {
          "internalType": "uint256",
          "name": "",
          "type": "uint256"
        }
      ],
      "stateMutability": "view",
      "type": "function"
    },
    {
      "inputs": [
        {
          "internalType": "uint256",
          "name": "lton",
          "type": "uint256"
        }
      ],
      "name": "getLtonToTon",
      "outputs": [
        {
          "internalType": "uint256",
          "name": "amount",
          "type": "uint256"
        }
      ],
      "stateMutability": "view",
      "type": "function"
    },
    {
      "inputs": [
        {
          "internalType": "uint256",
          "name": "lton",
          "type": "uint256"
        },
        {
          "internalType": "uint256",
          "name": "_snapshotId",
          "type": "uint256"
        }
      ],
      "name": "getLtonToTonAt",
      "outputs": [
        {
          "internalType": "uint256",
          "name": "amount",
          "type": "uint256"
        }
      ],
      "stateMutability": "view",
      "type": "function"
    },
    {
      "inputs": [
        {
          "internalType": "bytes32",
          "name": "role",
          "type": "bytes32"
        }
      ],
      "name": "getRoleAdmin",
      "outputs": [
        {
          "internalType": "bytes32",
          "name": "",
          "type": "bytes32"
        }
      ],
      "stateMutability": "view",
      "type": "function"
    },
    {
      "inputs": [],
      "name": "getSnapshotTime",
      "outputs": [
        {
          "internalType": "uint32[]",
          "name": "",
          "type": "uint32[]"
        }
      ],
      "stateMutability": "view",
      "type": "function"
    },
    {
      "inputs": [
        {
          "internalType": "uint256",
          "name": "_amount",
          "type": "uint256"
        }
      ],
      "name": "getTonToLton",
      "outputs": [
        {
          "internalType": "uint256",
          "name": "amount",
          "type": "uint256"
        }
      ],
      "stateMutability": "view",
      "type": "function"
    },
    {
      "inputs": [
        {
          "internalType": "uint256",
          "name": "_amount",
          "type": "uint256"
        },
        {
          "internalType": "uint256",
          "name": "_snapshotId",
          "type": "uint256"
        }
      ],
      "name": "getTonToLtonAt",
      "outputs": [
        {
          "internalType": "uint256",
          "name": "amount",
          "type": "uint256"
        }
      ],
      "stateMutability": "view",
      "type": "function"
    },
    {
      "inputs": [],
      "name": "getTotalLton",
      "outputs": [
        {
          "internalType": "uint256",
          "name": "amount",
          "type": "uint256"
        }
      ],
      "stateMutability": "view",
      "type": "function"
    },
    {
      "inputs": [
        {
          "internalType": "uint256",
          "name": "_snapshotId",
          "type": "uint256"
        }
      ],
      "name": "getTotalLtonAt",
      "outputs": [
        {
          "internalType": "uint256",
          "name": "amount",
          "type": "uint256"
        }
      ],
      "stateMutability": "view",
      "type": "function"
    },
    {
      "inputs": [
        {
          "internalType": "bytes32",
          "name": "role",
          "type": "bytes32"
        },
        {
          "internalType": "address",
          "name": "account",
          "type": "address"
        }
      ],
      "name": "grantRole",
      "outputs": [],
      "stateMutability": "nonpayable",
      "type": "function"
    },
    {
      "inputs": [
        {
          "internalType": "bytes32",
          "name": "role",
          "type": "bytes32"
        },
        {
          "internalType": "address",
          "name": "account",
          "type": "address"
        }
      ],
      "name": "hasRole",
      "outputs": [
        {
          "internalType": "bool",
          "name": "",
          "type": "bool"
        }
      ],
      "stateMutability": "view",
      "type": "function"
    },
    {
      "inputs": [],
      "name": "indexLton",
      "outputs": [
        {
          "internalType": "uint256",
          "name": "",
          "type": "uint256"
        }
      ],
      "stateMutability": "view",
      "type": "function"
    },
    {
      "inputs": [
        {
          "internalType": "uint256",
          "name": "snapshotId",
          "type": "uint256"
        }
      ],
      "name": "indexLtonAt",
      "outputs": [
        {
          "internalType": "uint256",
          "name": "",
          "type": "uint256"
        }
      ],
      "stateMutability": "view",
      "type": "function"
    },
    {
      "inputs": [
        {
          "internalType": "uint256",
          "name": "snapshotId",
          "type": "uint256"
        }
      ],
      "name": "indexLtonAtSnapshot",
      "outputs": [
        {
          "internalType": "bool",
          "name": "snapshotted",
          "type": "bool"
        },
        {
          "internalType": "uint256",
          "name": "value",
          "type": "uint256"
        }
      ],
      "stateMutability": "view",
      "type": "function"
    },
    {
      "inputs": [
        {
          "internalType": "address",
          "name": "account",
          "type": "address"
        }
      ],
      "name": "isAdmin",
      "outputs": [
        {
          "internalType": "bool",
          "name": "",
          "type": "bool"
        }
      ],
      "stateMutability": "view",
      "type": "function"
    },
    {
      "inputs": [],
      "name": "lastSeigBlock",
      "outputs": [
        {
          "internalType": "uint256",
          "name": "",
          "type": "uint256"
        }
      ],
      "stateMutability": "view",
      "type": "function"
    },
    {
      "inputs": [],
      "name": "layer2Manager",
      "outputs": [
        {
          "internalType": "address",
          "name": "",
          "type": "address"
        }
      ],
      "stateMutability": "view",
      "type": "function"
    },
    {
      "inputs": [],
      "name": "minimumBlocksForUpdateSeig",
      "outputs": [
        {
          "internalType": "uint32",
          "name": "",
          "type": "uint32"
        }
      ],
      "stateMutability": "view",
      "type": "function"
    },
    {
      "inputs": [],
      "name": "mintableSeigsAmount",
      "outputs": [
        {
          "internalType": "uint256",
          "name": "amount",
          "type": "uint256"
        }
      ],
      "stateMutability": "view",
      "type": "function"
    },
    {
      "inputs": [],
      "name": "optimismL2Operator",
      "outputs": [
        {
          "internalType": "address",
          "name": "",
          "type": "address"
        }
      ],
      "stateMutability": "view",
      "type": "function"
    },
    {
      "inputs": [],
      "name": "pauseProxy",
      "outputs": [
        {
          "internalType": "bool",
          "name": "",
          "type": "bool"
        }
      ],
      "stateMutability": "view",
      "type": "function"
    },
    {
      "inputs": [
        {
          "internalType": "uint256",
          "name": "",
          "type": "uint256"
        }
      ],
      "name": "proxyImplementation",
      "outputs": [
        {
          "internalType": "address",
          "name": "",
          "type": "address"
        }
      ],
      "stateMutability": "view",
      "type": "function"
    },
    {
      "inputs": [],
      "name": "ratesDao",
      "outputs": [
        {
          "internalType": "uint16",
          "name": "",
          "type": "uint16"
        }
      ],
      "stateMutability": "view",
      "type": "function"
    },
    {
      "inputs": [],
      "name": "ratesStosHolders",
      "outputs": [
        {
          "internalType": "uint16",
          "name": "",
          "type": "uint16"
        }
      ],
      "stateMutability": "view",
      "type": "function"
    },
    {
      "inputs": [],
      "name": "ratesTonStakers",
      "outputs": [
        {
          "internalType": "uint16",
          "name": "",
          "type": "uint16"
        }
      ],
      "stateMutability": "view",
      "type": "function"
    },
    {
      "inputs": [],
      "name": "ratesUnits",
      "outputs": [
        {
          "internalType": "uint16",
          "name": "",
          "type": "uint16"
        }
      ],
      "stateMutability": "view",
      "type": "function"
    },
    {
      "inputs": [
        {
          "internalType": "address",
          "name": "account",
          "type": "address"
        }
      ],
      "name": "removeAdmin",
      "outputs": [],
      "stateMutability": "nonpayable",
      "type": "function"
    },
    {
      "inputs": [
        {
          "internalType": "bytes32",
          "name": "role",
          "type": "bytes32"
        },
        {
          "internalType": "address",
          "name": "account",
          "type": "address"
        }
      ],
      "name": "renounceRole",
      "outputs": [],
      "stateMutability": "nonpayable",
      "type": "function"
    },
    {
      "inputs": [
        {
          "internalType": "bytes32",
          "name": "role",
          "type": "bytes32"
        },
        {
          "internalType": "address",
          "name": "account",
          "type": "address"
        }
      ],
      "name": "revokeRole",
      "outputs": [],
      "stateMutability": "nonpayable",
      "type": "function"
    },
    {
      "inputs": [],
      "name": "runUpdateSeigniorage",
      "outputs": [
        {
          "internalType": "bool",
          "name": "res",
          "type": "bool"
        }
      ],
      "stateMutability": "nonpayable",
      "type": "function"
    },
    {
      "inputs": [],
      "name": "seigManagerV1",
      "outputs": [
        {
          "internalType": "address",
          "name": "",
          "type": "address"
        }
      ],
      "stateMutability": "view",
      "type": "function"
    },
    {
      "inputs": [],
      "name": "seigPerBlock",
      "outputs": [
        {
          "internalType": "uint256",
          "name": "",
          "type": "uint256"
        }
      ],
      "stateMutability": "view",
      "type": "function"
    },
    {
      "inputs": [
        {
          "internalType": "bytes4",
          "name": "",
          "type": "bytes4"
        }
      ],
      "name": "selectorImplementation",
      "outputs": [
        {
          "internalType": "address",
          "name": "",
          "type": "address"
        }
      ],
      "stateMutability": "view",
      "type": "function"
    },
    {
      "inputs": [
        {
          "internalType": "address",
          "name": "_dao",
          "type": "address"
        },
        {
          "internalType": "address",
          "name": "_stosDistribute",
          "type": "address"
        }
      ],
      "name": "setAddress",
      "outputs": [],
      "stateMutability": "nonpayable",
      "type": "function"
    },
    {
      "inputs": [
        {
          "internalType": "uint16",
          "name": "_ratesDao",
          "type": "uint16"
        },
        {
          "internalType": "uint16",
          "name": "_ratesStosHolders",
          "type": "uint16"
        },
        {
          "internalType": "uint16",
          "name": "_ratesTonStakers",
          "type": "uint16"
        },
        {
          "internalType": "uint16",
          "name": "_ratesUnits",
          "type": "uint16"
        }
      ],
      "name": "setDividendRates",
      "outputs": [],
      "stateMutability": "nonpayable",
      "type": "function"
    },
    {
      "inputs": [
        {
          "internalType": "uint256",
          "name": "_lastSeigBlock",
          "type": "uint256"
        }
      ],
      "name": "setLastSeigBlock",
      "outputs": [],
      "stateMutability": "nonpayable",
      "type": "function"
    },
    {
      "inputs": [
        {
          "internalType": "uint32",
          "name": "_minimumBlocksForUpdateSeig",
          "type": "uint32"
        }
      ],
      "name": "setMinimumBlocksForUpdateSeig",
      "outputs": [],
      "stateMutability": "nonpayable",
      "type": "function"
    },
    {
      "inputs": [
        {
          "internalType": "uint256",
          "name": "_seigPerBlock",
          "type": "uint256"
        }
      ],
      "name": "setSeigPerBlock",
      "outputs": [],
      "stateMutability": "nonpayable",
      "type": "function"
    },
    {
      "inputs": [],
      "name": "snapshot",
      "outputs": [
        {
          "internalType": "uint256",
          "name": "",
          "type": "uint256"
        }
      ],
      "stateMutability": "nonpayable",
      "type": "function"
    },
    {
      "inputs": [
        {
          "internalType": "uint256",
          "name": "",
          "type": "uint256"
        }
      ],
      "name": "snapshotTime",
      "outputs": [
        {
          "internalType": "uint32",
          "name": "",
          "type": "uint32"
        }
      ],
      "stateMutability": "view",
      "type": "function"
    },
    {
      "inputs": [],
      "name": "startBlock",
      "outputs": [
        {
          "internalType": "uint256",
          "name": "",
          "type": "uint256"
        }
      ],
      "stateMutability": "view",
      "type": "function"
    },
    {
      "inputs": [],
      "name": "stosDistribute",
      "outputs": [
        {
          "internalType": "address",
          "name": "",
          "type": "address"
        }
      ],
      "stateMutability": "view",
      "type": "function"
    },
    {
      "inputs": [
        {
          "internalType": "bytes4",
          "name": "interfaceId",
          "type": "bytes4"
        }
      ],
      "name": "supportsInterface",
      "outputs": [
        {
          "internalType": "bool",
          "name": "",
          "type": "bool"
        }
      ],
      "stateMutability": "view",
      "type": "function"
    },
    {
      "inputs": [],
      "name": "ton",
      "outputs": [
        {
          "internalType": "contract IERC20",
          "name": "",
          "type": "address"
        }
      ],
      "stateMutability": "view",
      "type": "function"
    },
    {
      "inputs": [],
      "name": "tot",
      "outputs": [
        {
          "internalType": "address",
          "name": "",
          "type": "address"
        }
      ],
      "stateMutability": "view",
      "type": "function"
    },
    {
      "inputs": [],
      "name": "totalSupplyTON",
      "outputs": [
        {
          "internalType": "uint256",
          "name": "amount",
          "type": "uint256"
        }
      ],
      "stateMutability": "view",
      "type": "function"
    },
    {
      "inputs": [
        {
          "internalType": "address",
          "name": "newAdmin",
          "type": "address"
        }
      ],
      "name": "transferAdmin",
      "outputs": [],
      "stateMutability": "nonpayable",
      "type": "function"
    },
    {
      "inputs": [],
      "name": "updateSeigniorage",
      "outputs": [
        {
          "internalType": "bool",
          "name": "res",
          "type": "bool"
        }
      ],
      "stateMutability": "nonpayable",
      "type": "function"
    },
    {
      "inputs": [],
      "name": "wton",
      "outputs": [
        {
          "internalType": "address",
          "name": "",
          "type": "address"
        }
      ],
      "stateMutability": "view",
      "type": "function"
    }
  ],
  "bytecode": "0x60806040526011805460ff60601b19166c0100000000000000000000000017905534801561002c57600080fd5b50612d568061003c6000396000f3fe608060405234801561001057600080fd5b50600436106103995760003560e01c80636c8381f8116101e9578063a217fddf1161010f578063d547741f116100ad578063f1ae4e9f1161007c578063f1ae4e9f1461084c578063f285c90f1461085a578063f35c89e81461086d578063fb7d324d1461087657600080fd5b8063d547741f1461080b578063daec65de1461081e578063ec558b1614610826578063f0bbcde91461083957600080fd5b8063b911135f116100e9578063b911135f146107a9578063cc48b947146107d2578063cdf68009146107e5578063ceeff097146107f857600080fd5b8063a217fddf14610786578063aad3ec961461078e578063b413b37a146107a157600080fd5b8063865e64a1116101875780638df40b2c116101565780638df40b2c1461072157806391d14854146107345780639711715a1461076b578063a16d6aa71461077357600080fd5b8063865e64a1146106d95780638b95087b146106e15780638d62d949146106f95780638de73e1d1461070c57600080fd5b806375829def116101c357806375829def1461068457806375b238fc1461069757806375c6ee8e146106be578063764a7856146106d157600080fd5b80636c8381f8146106585780636fd902e11461066b578063704802751461067157600080fd5b806336568abe116102ce57806350d2a2761161026c5780635f40a3491161023b5780635f40a3491461061c57806363a3a2f51461062557806363a8fd89146106385780636a2fb1f51461064557600080fd5b806350d2a276146105c05780635439ad86146105e9578063550d01a3146105f1578063558e43761461061457600080fd5b80633ddc8996116102a85780633ddc89961461057a5780634162169f1461058d57806348cd4cb1146105a05780634ab6b462146105a957600080fd5b806336568abe1461054c578063386f419b1461055f5780633b58524d1461056757600080fd5b806323c66ea61161033b57806324d7806c1161031557806324d7806c146104e657806325dea4b0146104f95780632f2ff15d1461050f578063350ce2a81461052257600080fd5b806323c66ea614610489578063247e55451461049c578063248a9ca3146104c357600080fd5b80631785f53c116103775780631785f53c146104125780631c1d3a63146104275780631dc0f9bb1461043a578063229852461461046257600080fd5b806301ffc9a71461039e5780630528464a146103c657806316b5d5bd146103e7575b600080fd5b6103b16103ac366004612860565b610889565b60405190151581526020015b60405180910390f35b6103d96103d436600461288a565b6108c0565b6040519081526020016103bd565b600b546103fa906001600160a01b031681565b6040516001600160a01b0390911681526020016103bd565b6104256104203660046128cd565b610905565b005b6103d96104353660046128e8565b610985565b61044d61044836600461290a565b6109b2565b60405163ffffffff90911681526020016103bd565b6103d97ffb5864e8ff833c3cb2d2d08505e82ff02a43554c74a35d4f5a64e8526127831181565b610425610497366004612935565b6109ec565b6011546104b09062010000900461ffff1681565b60405161ffff90911681526020016103bd565b6103d96104d136600461290a565b60009081526020819052604090206001015490565b6103b16104f43660046128cd565b610bec565b6011546104b090640100000000900461ffff1681565b61042561051d366004612989565b610c2c565b61053561053036600461290a565b610c56565b6040805192151583526020830191909152016103bd565b61042561055a366004612989565b610c6d565b6103b1610cf9565b6104256105753660046129b5565b610f70565b6103d961058836600461290a565b611059565b6007546103fa906001600160a01b031681565b6103d960105481565b60115461044d90600160401b900463ffffffff1681565b6103fa6105ce366004612860565b6004602052600090815260409020546001600160a01b031681565b6012546103d9565b6103b16105ff3660046128cd565b60036020526000908152604090205460ff1681565b6013546103d9565b6103d9600e5481565b6009546103fa906001600160a01b031681565b6001546103b19060ff1681565b6103d961065336600461290a565b611084565b600d546103fa906001600160a01b031681565b436103d9565b61042561067f3660046128cd565b6110b0565b6104256106923660046128cd565b611128565b6103d97fdf8b4c520ffe197c5343c6f5aec59570151ef9a492f2c624fd45ddde6135ec4281565b6103d96106cc36600461290a565b611278565b6103b161135d565b6103d9611394565b6011546104b0906601000000000000900461ffff1681565b6006546103fa906001600160a01b031681565b610714611514565b6040516103bd91906129df565b6103d961072f3660046128e8565b611598565b6103b1610742366004612989565b6000918252602082815260408084206001600160a01b0393909316845291905290205460ff1690565b6103d96115bc565b600a546103fa906001600160a01b031681565b6103d9600081565b61042561079c366004612a29565b6115c6565b6103d961175b565b6103fa6107b736600461290a565b6002602052600090815260409020546001600160a01b031681565b6005546103fa906001600160a01b031681565b6103d96107f336600461290a565b61184a565b61042561080636600461290a565b61186e565b610425610819366004612989565b611941565b6103d9611966565b600c546103fa906001600160a01b031681565b61042561084736600461290a565b61199c565b6011546104b09061ffff1681565b610425610868366004612a53565b611a29565b6103d9600f5481565b6008546103fa906001600160a01b031681565b60006001600160e01b03198216637965db0b60e01b14806108ba57506301ffc9a760e01b6001600160e01b03198316145b92915050565b600082158015906108d057508115155b156108fb57826108e08382612a8f565b6108ea9086612aa2565b6108f49190612ab9565b90506108fe565b50825b9392505050565b61090e33610bec565b6109585760405162461bcd60e51b81526020600482015260226024820152600080516020612d2a83398151915260448201526134b760f11b60648201526084015b60405180910390fd5b6109827fdf8b4c520ffe197c5343c6f5aec59570151ef9a492f2c624fd45ddde6135ec4282610c6d565b50565b600082156108ba5761099682611059565b6109a884670de0b6b3a7640000612aa2565b6108fe9190612ab9565b601681815481106109c257600080fd5b9060005260206000209060089182820401919006600402915054906101000a900463ffffffff1681565b6109f533610bec565b610a3a5760405162461bcd60e51b81526020600482015260226024820152600080516020612d2a83398151915260448201526134b760f11b606482015260840161094f565b60115461ffff8581166201000090920416148015610a68575060115461ffff84811664010000000090920416145b8015610a7c575060115461ffff8381169116145b8015610a9a575060115461ffff828116660100000000000090920416145b15610ad05760405162461bcd60e51b815260040161094f9060208082526004908201526373616d6560e01b604082015260600190565b8061ffff16600003610b245760405162461bcd60e51b815260206004820152601060248201527f77726f6e67207261746573556e69747300000000000000000000000000000000604482015260640161094f565b61ffff811682610b348587612adb565b610b3e9190612adb565b61ffff1614610b8f5760405162461bcd60e51b815260206004820152601560248201527f73756d206f6620726174696f2069732077726f6e670000000000000000000000604482015260640161094f565b6011805461ffff92831666010000000000000267ffff00000000ffff199584166401000000000265ffff000000001997851662010000029790971665ffffffff000019909216919091179590951793909316911617919091179055565b6001600160a01b03811660009081527f5cbfc8ee58ca47855df7bcf648dd304ddb6b932f9b87878bdf6318d7ec7ee5b7602052604081205460ff166108ba565b600082815260208190526040902060010154610c4781611aec565b610c518383611af6565b505050565b600080610c64836014611b94565b91509150915091565b6001600160a01b0381163314610ceb5760405162461bcd60e51b815260206004820152602f60248201527f416363657373436f6e74726f6c3a2063616e206f6e6c792072656e6f756e636560448201527f20726f6c657320666f722073656c660000000000000000000000000000000000606482015260840161094f565b610cf58282611cb9565b5050565b6011546000906c01000000000000000000000000900460ff16610d475760405162461bcd60e51b815260040161094f906020808252600490820152636c6f636b60e01b604082015260600190565b601180546cff000000000000000000000000191690556010546000819003610d965760405162461bcd60e51b81526020600482015260026024820152615a3160f01b604482015260640161094f565b43600f54108015610da85750600f5415155b15610f43576000600e54600f54610dbc4390565b610dc69190612afd565b610dd09190612aa2565b90506000610ddc61175b565b90506000806000610ded8585611d38565b60135492955090935091508415801590610e0657508215155b15610e2257610e1e81610e188761184a565b856108c0565b6013555b8115610ee357600b54604051631c28332160e01b8152600481018490526001600160a01b0390911690631c283321906024016020604051808303816000875af1158015610e73573d6000803e3d6000fd5b505050506040513d601f19601f82011682018060405250810190610e979190612b10565b610ee35760405162461bcd60e51b815260206004820152600d60248201527f4641494c20616464536569677300000000000000000000000000000000000000604482015260640161094f565b43600f8190556040805180820182528581526020810185905260135491517f4e1ee4f65d6912221ed7496b1a14398ad65cb918f60399d7143e61625630169893610f349390928b928a928891612b32565b60405180910390a15050505050505b6001915050601180546cff00000000000000000000000019166c0100000000000000000000000017905590565b610f7933610bec565b610fbe5760405162461bcd60e51b81526020600482015260226024820152600080516020612d2a83398151915260448201526134b760f11b606482015260840161094f565b6007546001600160a01b038381169116148015610fe857506008546001600160a01b038281169116145b1561101e5760405162461bcd60e51b815260040161094f9060208082526004908201526373616d6560e01b604082015260600190565b600780546001600160a01b0393841673ffffffffffffffffffffffffffffffffffffffff199182161790915560088054929093169116179055565b6000806000611069846014611b94565b915091508161107a5760135461107c565b805b949350505050565b600081156110ab576013546110a183670de0b6b3a7640000612aa2565b6108ba9190612ab9565b919050565b6110b933610bec565b6110fe5760405162461bcd60e51b81526020600482015260226024820152600080516020612d2a83398151915260448201526134b760f11b606482015260840161094f565b6109827fdf8b4c520ffe197c5343c6f5aec59570151ef9a492f2c624fd45ddde6135ec4282610c2c565b61113133610bec565b6111765760405162461bcd60e51b81526020600482015260226024820152600080516020612d2a83398151915260448201526134b760f11b606482015260840161094f565b6001600160a01b0381166111cc5760405162461bcd60e51b815260206004820152601860248201527f41636365737369626c653a207a65726f20616464726573730000000000000000604482015260640161094f565b6001600160a01b03811633036112245760405162461bcd60e51b815260206004820152601660248201527f41636365737369626c653a2073616d652061646d696e00000000000000000000604482015260640161094f565b61124e7fdf8b4c520ffe197c5343c6f5aec59570151ef9a492f2c624fd45ddde6135ec4282610c2c565b6109827fdf8b4c520ffe197c5343c6f5aec59570151ef9a492f2c624fd45ddde6135ec4233610c6d565b600d54604051633ae3774760e11b8152600481018390526000916001600160a01b0316906375c6ee8e90602401602060405180830381865afa1580156112c2573d6000803e3d6000fd5b505050506040513d601f19601f820116820180604052508101906112e69190612b87565b600c54604051633ae3774760e11b8152600481018590526001600160a01b03909116906375c6ee8e90602401602060405180830381865afa15801561132f573d6000803e3d6000fd5b505050506040513d601f19601f820116820180604052508101906113539190612b87565b6108ba9190612a8f565b600043601154600f5461137d91600160401b900463ffffffff1690612a8f565b101561138e5761138b610cf9565b90505b50600190565b6005546006546040516370a0823160e01b81526001600160a01b03918216600482015260009291909116906370a0823190602401602060405180830381865afa1580156113e5573d6000803e3d6000fd5b505050506040513d601f19601f820116820180604052508101906114099190612b87565b600a54604080516318160ddd60e01b81529051633b9aca00926001600160a01b0316916318160ddd9160048083019260209291908290030181865afa158015611456573d6000803e3d6000fd5b505050506040513d601f19601f8201168201806040525081019061147a9190612b87565b6114849190612ab9565b600560009054906101000a90046001600160a01b03166001600160a01b03166318160ddd6040518163ffffffff1660e01b8152600401602060405180830381865afa1580156114d7573d6000803e3d6000fd5b505050506040513d601f19601f820116820180604052508101906114fb9190612b87565b6115059190612a8f565b61150f9190612afd565b905090565b6060601680548060200260200160405190810160405280929190818152602001828054801561158e57602002820191906000526020600020906000905b82829054906101000a900463ffffffff1663ffffffff16815260200190600401906020826003010492830192600103820291508084116115515790505b5050505050905090565b600082156108ba57670de0b6b3a76400006115b283611059565b6109a89085612aa2565b600061150f612187565b331515806115de5750600b546001600160a01b031633145b806115f35750600c546001600160a01b031633145b806116085750600d546001600160a01b031633145b61163c5760405162461bcd60e51b8152602060048201526005602482015264534d5f453160d81b604482015260640161094f565b6005546040516370a0823160e01b81523060048201526001600160a01b03909116906370a0823190602401602060405180830381865afa158015611684573d6000803e3d6000fd5b505050506040513d601f19601f820116820180604052508101906116a89190612b87565b8111156116f75760405162461bcd60e51b815260206004820152601860248201527f696e73756666696369656e7420544f4e2062616c616e63650000000000000000604482015260640161094f565b60055461170e906001600160a01b03168383612311565b604080513381526001600160a01b03841660208201529081018290527ff7a40077ff7a04c7e61f6f26fb13774259ddf1b6bce9ecf26a8276cdd39926839060600160405180910390a15050565b600d5460408051635a09d9bd60e11b815290516000926001600160a01b03169163b413b37a9160048083019260209291908290030181865afa1580156117a5573d6000803e3d6000fd5b505050506040513d601f19601f820116820180604052508101906117c99190612b87565b600c60009054906101000a90046001600160a01b03166001600160a01b031663b413b37a6040518163ffffffff1660e01b8152600401602060405180830381865afa15801561181c573d6000803e3d6000fd5b505050506040513d601f19601f820116820180604052508101906118409190612b87565b61150f9190612a8f565b600081156110ab57670de0b6b3a764000061186460135490565b6110a19084612aa2565b61187733610bec565b6118bc5760405162461bcd60e51b81526020600482015260226024820152600080516020612d2a83398151915260448201526134b760f11b606482015260840161094f565b80806000036118f25760405162461bcd60e51b81526020600482015260026024820152615a3160f01b604482015260640161094f565b81600f540361192c5760405162461bcd60e51b815260040161094f9060208082526004908201526373616d6560e01b604082015260600190565b600f829055601054600003610cf55750601055565b60008281526020819052604090206001015461195c81611aec565b610c518383611cb9565b600043600f5410801561197a5750600f5415155b1561199957600e54600f5461198f9043612afd565b61150f9190612aa2565b90565b6119a533610bec565b6119ea5760405162461bcd60e51b81526020600482015260226024820152600080516020612d2a83398151915260448201526134b760f11b606482015260840161094f565b80600e5403611a245760405162461bcd60e51b815260040161094f9060208082526004908201526373616d6560e01b604082015260600190565b600e55565b611a3233610bec565b611a775760405162461bcd60e51b81526020600482015260226024820152600080516020612d2a83398151915260448201526134b760f11b606482015260840161094f565b60115463ffffffff808316600160401b9092041603611ac15760405162461bcd60e51b815260040161094f9060208082526004908201526373616d6560e01b604082015260600190565b6011805463ffffffff909216600160401b026bffffffff000000000000000019909216919091179055565b610982813361242c565b6000828152602081815260408083206001600160a01b038516845290915290205460ff16610cf5576000828152602081815260408083206001600160a01b03851684529091529020805460ff19166001179055611b503390565b6001600160a01b0316816001600160a01b0316837f2f8788117e7eff1d82e926ec794901d17c78024a50270940304540a733656f0d60405160405180910390a45050565b600080611ba060125490565b841115611bef5760405162461bcd60e51b815260206004820152601860248201527f536e617073686f743a206e6f6e6578697374656e742069640000000000000000604482015260640161094f565b825415801590611c28575082548390611c0a90600190612afd565b81548110611c1a57611c1a612ba0565b906000526020600020015484115b15611c66578254600090600180860191611c429190612afd565b81548110611c5257611c52612ba0565b906000526020600020015491509150611cb2565b6000611c72848661249f565b84549091508103611c8a576000809250925050611cb2565b6001846001018281548110611ca157611ca1612ba0565b906000526020600020015492509250505b9250929050565b6000828152602081815260408083206001600160a01b038516845290915290205460ff1615610cf5576000828152602081815260408083206001600160a01b0385168085529252808320805460ff1916905551339285917ff6391f5c32d9c69d2a47ea670b442974b53935d1edc7fd64eb21e047a839171b9190a45050565b6000806000611d45611394565b92506000600960009054906101000a90046001600160a01b03166001600160a01b03166325374a9a6040518163ffffffff1660e01b8152600401602060405180830381865afa158015611d9c573d6000803e3d6000fd5b505050506040513d601f19601f82011682018060405250810190611dc09190612b87565b90506000633b9aca00600a60009054906101000a90046001600160a01b03166001600160a01b03166318160ddd6040518163ffffffff1660e01b8152600401602060405180830381865afa158015611e1c573d6000803e3d6000fd5b505050506040513d601f19601f82011682018060405250810190611e409190612b87565b611e4a9190612ab9565b90506000611e578761184a565b90506000611e658284612a8f565b9050611ea66040518060400160405280601381526020017f746f74616c537570706c794f66546f6e20257300000000000000000000000000815250886125af565b611ee56040518060400160405280601081526020017f746f74616c5374616b6564563120257300000000000000000000000000000000815250846125af565b611f246040518060400160405280601081526020017f746f74616c5374616b6564563220257300000000000000000000000000000000815250836125af565b611f636040518060400160405280600e81526020017f746f74616c5374616b6564202573000000000000000000000000000000000000815250826125af565b861561217c5760405163b510f67960e01b815260048101889052602481018590526044810184905260648101839052600090819073__$95ac973c5c24589de30daf3e4b10924154$__9063b510f679906084016040805180830381865af4158015611fd2573d6000803e3d6000fd5b505050506040513d601f19601f82011682018060405250810190611ff69190612bb6565b915091506120396040518060400160405280601781526020017f5365696752617465466f7256315374616b657273202573000000000000000000815250836125af565b891580159061204757508015155b1561206c57670de0b6b3a764000061205f828d612aa2565b6120699190612ab9565b97505b6120ab6040518060400160405280601181526020017f616d6f756e744f667374616b6572202573000000000000000000000000000000815250896125af565b600b546040805163e12a621960e01b815290516000926001600160a01b03169163e12a62199160048083019260209291908290030181865afa1580156120f5573d6000803e3d6000fd5b505050506040513d601f19601f820116820180604052508101906121199190612b87565b90508015612139578961212c828e612aa2565b6121369190612ab9565b97505b6121786040518060400160405280601581526020017f616d6f756e744f664c324f70657261746f722025730000000000000000000000815250896125af565b5050505b505050509250925092565b601654600090810361224c576016805460018082019092557fd833147d7dc355ba459fc788f669e58cfaf9dc25ddcd0702e87d69c7b51242896008820401805460079092166004026101000a63ffffffff021990911690556014805480830190915560007fce6d7b5282bd9a3661ae061feed1dbda4e52ab073b1f9285be6e155d9c38d4ec9091018190556015805492830181559052670de0b6b3a76400007f55f448fdea98c4d29eb340757ef0a66cd03dbb9538908a6a81d96026b71ec475909101555b601680546001808201835560009283527fd833147d7dc355ba459fc788f669e58cfaf9dc25ddcd0702e87d69c7b51242896008830401805460079093166004026101000a63ffffffff8181021990941642909416029290921790915560128054919290916122bb908490612a8f565b925050819055506122cf60146013546125f4565b601254604080519182524260208301527f492fbd8cfdd942203e99f6bc74253a1e1f5791b0644612279e778349f353b198910160405180910390a15060125490565b604080516001600160a01b038481166024830152604480830185905283518084039091018152606490920183526020820180516001600160e01b031663a9059cbb60e01b179052915160009283929087169161236d9190612bfe565b6000604051808303816000865af19150503d80600081146123aa576040519150601f19603f3d011682016040523d82523d6000602084013e6123af565b606091505b50915091508180156123d95750805115806123d95750808060200190518101906123d99190612b10565b6124255760405162461bcd60e51b815260206004820152600f60248201527f5452414e534645525f4641494c45440000000000000000000000000000000000604482015260640161094f565b5050505050565b6000828152602081815260408083206001600160a01b038516845290915290205460ff16610cf55761245d8161263f565b612468836020612651565b604051602001612479929190612c1a565b60408051601f198184030181529082905262461bcd60e51b825261094f91600401612cc7565b815460009081036124b2575060006108ba565b825483906124c290600190612afd565b815481106124d2576124d2612ba0565b906000526020600020015482106124f85782546124f190600190612afd565b90506108ba565b8260008154811061250b5761250b612ba0565b9060005260206000200154821015612525575060006108ba565b8254600090819061253890600190612afd565b90505b818111156125a757600060026125518484612a8f565b61255c906001612a8f565b6125669190612ab9565b90508486828154811061257b5761257b612ba0565b906000526020600020015411612593578092506125a1565b61259e600182612afd565b91505b5061253b565b509392505050565b610cf582826040516024016125c5929190612cda565b60408051601f198184030181529190526020810180516001600160e01b0316632d839cb360e21b1790526127fa565b60006125ff60125490565b90508061260b8461281b565b1015610c51578254600180820185556000858152602080822090930193909355938401805494850181558252902090910155565b60606108ba6001600160a01b03831660145b60606000612660836002612aa2565b61266b906002612a8f565b67ffffffffffffffff81111561268357612683612cfc565b6040519080825280601f01601f1916602001820160405280156126ad576020820181803683370190505b509050600360fc1b816000815181106126c8576126c8612ba0565b60200101906001600160f81b031916908160001a905350600f60fb1b816001815181106126f7576126f7612ba0565b60200101906001600160f81b031916908160001a905350600061271b846002612aa2565b612726906001612a8f565b90505b60018111156127ab577f303132333435363738396162636465660000000000000000000000000000000085600f166010811061276757612767612ba0565b1a60f81b82828151811061277d5761277d612ba0565b60200101906001600160f81b031916908160001a90535060049490941c936127a481612d12565b9050612729565b5083156108fe5760405162461bcd60e51b815260206004820181905260248201527f537472696e67733a20686578206c656e67746820696e73756666696369656e74604482015260640161094f565b80516a636f6e736f6c652e6c6f67602083016000808483855afa5050505050565b8054600090810361282e57506000919050565b8154829061283e90600190612afd565b8154811061284e5761284e612ba0565b90600052602060002001549050919050565b60006020828403121561287257600080fd5b81356001600160e01b0319811681146108fe57600080fd5b60008060006060848603121561289f57600080fd5b505081359360208301359350604090920135919050565b80356001600160a01b03811681146110ab57600080fd5b6000602082840312156128df57600080fd5b6108fe826128b6565b600080604083850312156128fb57600080fd5b50508035926020909101359150565b60006020828403121561291c57600080fd5b5035919050565b803561ffff811681146110ab57600080fd5b6000806000806080858703121561294b57600080fd5b61295485612923565b935061296260208601612923565b925061297060408601612923565b915061297e60608601612923565b905092959194509250565b6000806040838503121561299c57600080fd5b823591506129ac602084016128b6565b90509250929050565b600080604083850312156129c857600080fd5b6129d1836128b6565b91506129ac602084016128b6565b6020808252825182820181905260009190848201906040850190845b81811015612a1d57835163ffffffff16835292840192918401916001016129fb565b50909695505050505050565b60008060408385031215612a3c57600080fd5b612a45836128b6565b946020939093013593505050565b600060208284031215612a6557600080fd5b813563ffffffff811681146108fe57600080fd5b634e487b7160e01b600052601160045260246000fd5b808201808211156108ba576108ba612a79565b80820281158282048414176108ba576108ba612a79565b600082612ad657634e487b7160e01b600052601260045260246000fd5b500490565b61ffff818116838216019080821115612af657612af6612a79565b5092915050565b818103818111156108ba576108ba612a79565b600060208284031215612b2257600080fd5b815180151581146108fe57600080fd5b600060e08201905087825260208781840152866040840152606083018660005b6002811015612b6f57815183529183019190830190600101612b52565b5050505060a082019390935260c00152949350505050565b600060208284031215612b9957600080fd5b5051919050565b634e487b7160e01b600052603260045260246000fd5b60008060408385031215612bc957600080fd5b505080516020909101519092909150565b60005b83811015612bf5578181015183820152602001612bdd565b50506000910152565b60008251612c10818460208701612bda565b9190910192915050565b7f416363657373436f6e74726f6c3a206163636f756e7420000000000000000000815260008351612c52816017850160208801612bda565b7f206973206d697373696e6720726f6c65200000000000000000000000000000006017918401918201528351612c8f816028840160208801612bda565b01602801949350505050565b60008151808452612cb3816020860160208601612bda565b601f01601f19169290920160200192915050565b6020815260006108fe6020830184612c9b565b604081526000612ced6040830185612c9b565b90508260208301529392505050565b634e487b7160e01b600052604160045260246000fd5b600081612d2157612d21612a79565b50600019019056fe41636365737369626c653a2043616c6c6572206973206e6f7420616e2061646da164736f6c6343000812000a",
  "linkReferences": {
    "contracts/libraries/LibSeigManager.sol": {
      "LibSeigManager": [
        {
          "length": 20,
          "start": 8149
        }
      ]
    }
  },
  "deployedLinkReferences": {
    "contracts/libraries/LibSeigManager.sol": {
      "LibSeigManager": [
        {
          "length": 20,
          "start": 8089
        }
      ]
    }
  }
}