{
  "_format": "hh-sol-artifact-1",
  "contractName": "FwReceiptInitialize",
  "sourceName": "contracts/fixInitialize/FwReceiptInitialize.sol",
  "abi": [
    {
      "inputs": [],
      "stateMutability": "nonpayable",
      "type": "constructor"
    },
    {
      "anonymous": false,
      "inputs": [
        {
          "indexed": true,
          "internalType": "bytes32",
          "name": "role",
          "type": "bytes32"
        },
        {
          "indexed": true,
          "internalType": "bytes32",
          "name": "previousAdminRole",
          "type": "bytes32"
        },
        {
          "indexed": true,
          "internalType": "bytes32",
          "name": "newAdminRole",
          "type": "bytes32"
        }
      ],
      "name": "RoleAdminChanged",
      "type": "event"
    },
    {
      "anonymous": false,
      "inputs": [
        {
          "indexed": true,
          "internalType": "bytes32",
          "name": "role",
          "type": "bytes32"
        },
        {
          "indexed": true,
          "internalType": "address",
          "name": "account",
          "type": "address"
        },
        {
          "indexed": true,
          "internalType": "address",
          "name": "sender",
          "type": "address"
        }
      ],
      "name": "RoleGranted",
      "type": "event"
    },
    {
      "anonymous": false,
      "inputs": [
        {
          "indexed": true,
          "internalType": "bytes32",
          "name": "role",
          "type": "bytes32"
        },
        {
          "indexed": true,
          "internalType": "address",
          "name": "account",
          "type": "address"
        },
        {
          "indexed": true,
          "internalType": "address",
          "name": "sender",
          "type": "address"
        }
      ],
      "name": "RoleRevoked",
      "type": "event"
    },
    {
      "inputs": [],
      "name": "ADMIN_ROLE",
      "outputs": [
        {
          "internalType": "bytes32",
          "name": "",
          "type": "bytes32"
        }
      ],
      "stateMutability": "view",
      "type": "function"
    },
    {
      "inputs": [],
      "name": "DEFAULT_ADMIN_ROLE",
      "outputs": [
        {
          "internalType": "bytes32",
          "name": "",
          "type": "bytes32"
        }
      ],
      "stateMutability": "view",
      "type": "function"
    },
    {
      "inputs": [],
      "name": "POLICY_ROLE",
      "outputs": [
        {
          "internalType": "bytes32",
          "name": "",
          "type": "bytes32"
        }
      ],
      "stateMutability": "view",
      "type": "function"
    },
    {
      "inputs": [
        {
          "internalType": "address",
          "name": "account",
          "type": "address"
        }
      ],
      "name": "addAdmin",
      "outputs": [],
      "stateMutability": "nonpayable",
      "type": "function"
    },
    {
      "inputs": [
        {
          "internalType": "address",
          "name": "",
          "type": "address"
        }
      ],
      "name": "aliveImplementation",
      "outputs": [
        {
          "internalType": "bool",
          "name": "",
          "type": "bool"
        }
      ],
      "stateMutability": "view",
      "type": "function"
    },
    {
      "inputs": [],
      "name": "candidate",
      "outputs": [
        {
          "internalType": "address",
          "name": "",
          "type": "address"
        }
      ],
      "stateMutability": "view",
      "type": "function"
    },
    {
      "inputs": [
        {
          "internalType": "address",
          "name": "_ton",
          "type": "address"
        },
        {
          "internalType": "address",
          "name": "_seigManagerV2",
          "type": "address"
        },
        {
          "internalType": "address",
          "name": "_optimismSequencer",
          "type": "address"
        },
        {
          "internalType": "address",
          "name": "_candidate",
          "type": "address"
        }
      ],
      "name": "fixInitialize",
      "outputs": [],
      "stateMutability": "nonpayable",
      "type": "function"
    },
    {
      "inputs": [
        {
          "internalType": "bytes32",
          "name": "role",
          "type": "bytes32"
        }
      ],
      "name": "getRoleAdmin",
      "outputs": [
        {
          "internalType": "bytes32",
          "name": "",
          "type": "bytes32"
        }
      ],
      "stateMutability": "view",
      "type": "function"
    },
    {
      "inputs": [
        {
          "internalType": "bytes32",
          "name": "role",
          "type": "bytes32"
        },
        {
          "internalType": "address",
          "name": "account",
          "type": "address"
        }
      ],
      "name": "grantRole",
      "outputs": [],
      "stateMutability": "nonpayable",
      "type": "function"
    },
    {
      "inputs": [
        {
          "internalType": "bytes32",
          "name": "role",
          "type": "bytes32"
        },
        {
          "internalType": "address",
          "name": "account",
          "type": "address"
        }
      ],
      "name": "hasRole",
      "outputs": [
        {
          "internalType": "bool",
          "name": "",
          "type": "bool"
        }
      ],
      "stateMutability": "view",
      "type": "function"
    },
    {
      "inputs": [
        {
          "internalType": "address",
          "name": "account",
          "type": "address"
        }
      ],
      "name": "isAdmin",
      "outputs": [
        {
          "internalType": "bool",
          "name": "",
          "type": "bool"
        }
      ],
      "stateMutability": "view",
      "type": "function"
    },
    {
      "inputs": [
        {
          "internalType": "bytes32",
          "name": "",
          "type": "bytes32"
        }
      ],
      "name": "messages",
      "outputs": [
        {
          "internalType": "uint8",
          "name": "status",
          "type": "uint8"
        },
        {
          "internalType": "bytes",
          "name": "data",
          "type": "bytes"
        },
        {
          "internalType": "bytes",
          "name": "liquidities",
          "type": "bytes"
        }
      ],
      "stateMutability": "view",
      "type": "function"
    },
    {
      "inputs": [],
      "name": "optimismSequencer",
      "outputs": [
        {
          "internalType": "address",
          "name": "",
          "type": "address"
        }
      ],
      "stateMutability": "view",
      "type": "function"
    },
    {
      "inputs": [],
      "name": "pauseProxy",
      "outputs": [
        {
          "internalType": "bool",
          "name": "",
          "type": "bool"
        }
      ],
      "stateMutability": "view",
      "type": "function"
    },
    {
      "inputs": [
        {
          "internalType": "uint256",
          "name": "",
          "type": "uint256"
        }
      ],
      "name": "proxyImplementation",
      "outputs": [
        {
          "internalType": "address",
          "name": "",
          "type": "address"
        }
      ],
      "stateMutability": "view",
      "type": "function"
    },
    {
      "inputs": [
        {
          "internalType": "address",
          "name": "account",
          "type": "address"
        }
      ],
      "name": "removeAdmin",
      "outputs": [],
      "stateMutability": "nonpayable",
      "type": "function"
    },
    {
      "inputs": [
        {
          "internalType": "bytes32",
          "name": "role",
          "type": "bytes32"
        },
        {
          "internalType": "address",
          "name": "account",
          "type": "address"
        }
      ],
      "name": "renounceRole",
      "outputs": [],
      "stateMutability": "nonpayable",
      "type": "function"
    },
    {
      "inputs": [
        {
          "internalType": "bytes32",
          "name": "role",
          "type": "bytes32"
        },
        {
          "internalType": "address",
          "name": "account",
          "type": "address"
        }
      ],
      "name": "revokeRole",
      "outputs": [],
      "stateMutability": "nonpayable",
      "type": "function"
    },
    {
      "inputs": [],
      "name": "seigManagerV2",
      "outputs": [
        {
          "internalType": "address",
          "name": "",
          "type": "address"
        }
      ],
      "stateMutability": "view",
      "type": "function"
    },
    {
      "inputs": [
        {
          "internalType": "bytes4",
          "name": "",
          "type": "bytes4"
        }
      ],
      "name": "selectorImplementation",
      "outputs": [
        {
          "internalType": "address",
          "name": "",
          "type": "address"
        }
      ],
      "stateMutability": "view",
      "type": "function"
    },
    {
      "inputs": [
        {
          "internalType": "bytes4",
          "name": "interfaceId",
          "type": "bytes4"
        }
      ],
      "name": "supportsInterface",
      "outputs": [
        {
          "internalType": "bool",
          "name": "",
          "type": "bool"
        }
      ],
      "stateMutability": "view",
      "type": "function"
    },
    {
      "inputs": [],
      "name": "ton",
      "outputs": [
        {
          "internalType": "address",
          "name": "",
          "type": "address"
        }
      ],
      "stateMutability": "view",
      "type": "function"
    },
    {
      "inputs": [
        {
          "internalType": "address",
          "name": "newAdmin",
          "type": "address"
        }
      ],
      "name": "transferAdmin",
      "outputs": [],
      "stateMutability": "nonpayable",
      "type": "function"
    }
  ],
  "bytecode": "0x6080604052600d805460ff1916600117905534801561001d57600080fd5b5061110e8061002d6000396000f3fe608060405234801561001057600080fd5b506004361061018d5760003560e01c80636c8381f8116100e3578063a217fddf1161008c578063d547741f11610066578063d547741f146103e1578063da0dc135146103f4578063e25131741461040757600080fd5b8063a217fddf1461039d578063b911135f146103a5578063cc48b947146103ce57600080fd5b806375829def116100bd57806375829def1461032c57806375b238fc1461033f57806391d148541461036657600080fd5b80636c8381f8146102f3578063704802751461030657806373469a7a1461031957600080fd5b80632bbd59ca1161014557806350d2a2761161011f57806350d2a27614610282578063550d01a3146102c357806363a8fd89146102e657600080fd5b80632bbd59ca1461023a5780632f2ff15d1461025c57806336568abe1461026f57600080fd5b8063229852461161017657806322985246146101cf578063248a9ca31461020457806324d7806c1461022757600080fd5b806301ffc9a7146101925780631785f53c146101ba575b600080fd5b6101a56101a0366004610e2e565b61041a565b60405190151581526020015b60405180910390f35b6101cd6101c8366004610e74565b610451565b005b6101f67ffb5864e8ff833c3cb2d2d08505e82ff02a43554c74a35d4f5a64e8526127831181565b6040519081526020016101b1565b6101f6610212366004610e8f565b60009081526020819052604090206001015490565b6101a5610235366004610e74565b6104e3565b61024d610248366004610e8f565b610523565b6040516101b193929190610ef8565b6101cd61026a366004610f30565b61065a565b6101cd61027d366004610f30565b610684565b6102ab610290366004610e2e565b6004602052600090815260409020546001600160a01b031681565b6040516001600160a01b0390911681526020016101b1565b6101a56102d1366004610e74565b60036020526000908152604090205460ff1681565b6001546101a59060ff1681565b6008546102ab906001600160a01b031681565b6101cd610314366004610e74565b610710565b6006546102ab906001600160a01b031681565b6101cd61033a366004610e74565b61079a565b6101f67fdf8b4c520ffe197c5343c6f5aec59570151ef9a492f2c624fd45ddde6135ec4281565b6101a5610374366004610f30565b6000918252602082815260408084206001600160a01b0393909316845291905290205460ff1690565b6101f6600081565b6102ab6103b3366004610e8f565b6002602052600090815260409020546001600160a01b031681565b6005546102ab906001600160a01b031681565b6101cd6103ef366004610f30565b6108fc565b6007546102ab906001600160a01b031681565b6101cd610415366004610f5c565b610921565b60006001600160e01b03198216637965db0b60e01b148061044b57506301ffc9a760e01b6001600160e01b03198316145b92915050565b61045a336104e3565b6104b65760405162461bcd60e51b815260206004820152602260248201527f41636365737369626c653a2043616c6c6572206973206e6f7420616e2061646d60448201526134b760f11b60648201526084015b60405180910390fd5b6104e07fdf8b4c520ffe197c5343c6f5aec59570151ef9a492f2c624fd45ddde6135ec4282610684565b50565b6001600160a01b03811660009081527f5cbfc8ee58ca47855df7bcf648dd304ddb6b932f9b87878bdf6318d7ec7ee5b7602052604081205460ff1661044b565b6009602052600090815260409020805460018201805460ff909216929161054990610fb0565b80601f016020809104026020016040519081016040528092919081815260200182805461057590610fb0565b80156105c25780601f10610597576101008083540402835291602001916105c2565b820191906000526020600020905b8154815290600101906020018083116105a557829003601f168201915b5050505050908060020180546105d790610fb0565b80601f016020809104026020016040519081016040528092919081815260200182805461060390610fb0565b80156106505780601f1061062557610100808354040283529160200191610650565b820191906000526020600020905b81548152906001019060200180831161063357829003601f168201915b5050505050905083565b60008281526020819052604090206001015461067581610ad2565b61067f8383610adc565b505050565b6001600160a01b03811633146107025760405162461bcd60e51b815260206004820152602f60248201527f416363657373436f6e74726f6c3a2063616e206f6e6c792072656e6f756e636560448201527f20726f6c657320666f722073656c66000000000000000000000000000000000060648201526084016104ad565b61070c8282610b7a565b5050565b610719336104e3565b6107705760405162461bcd60e51b815260206004820152602260248201527f41636365737369626c653a2043616c6c6572206973206e6f7420616e2061646d60448201526134b760f11b60648201526084016104ad565b6104e07fdf8b4c520ffe197c5343c6f5aec59570151ef9a492f2c624fd45ddde6135ec428261065a565b6107a3336104e3565b6107fa5760405162461bcd60e51b815260206004820152602260248201527f41636365737369626c653a2043616c6c6572206973206e6f7420616e2061646d60448201526134b760f11b60648201526084016104ad565b6001600160a01b0381166108505760405162461bcd60e51b815260206004820152601860248201527f41636365737369626c653a207a65726f2061646472657373000000000000000060448201526064016104ad565b6001600160a01b03811633036108a85760405162461bcd60e51b815260206004820152601660248201527f41636365737369626c653a2073616d652061646d696e0000000000000000000060448201526064016104ad565b6108d27fdf8b4c520ffe197c5343c6f5aec59570151ef9a492f2c624fd45ddde6135ec428261065a565b6104e07fdf8b4c520ffe197c5343c6f5aec59570151ef9a492f2c624fd45ddde6135ec4233610684565b60008281526020819052604090206001015461091781610ad2565b61067f8383610b7a565b61092a336104e3565b6109815760405162461bcd60e51b815260206004820152602260248201527f41636365737369626c653a2043616c6c6572206973206e6f7420616e2061646d60448201526134b760f11b60648201526084016104ad565b836001600160a01b0381166109bd5760405162461bcd60e51b81526020600482015260026024820152612d1960f11b60448201526064016104ad565b836001600160a01b0381166109f95760405162461bcd60e51b81526020600482015260026024820152612d1960f11b60448201526064016104ad565b836001600160a01b038116610a355760405162461bcd60e51b81526020600482015260026024820152612d1960f11b60448201526064016104ad565b836001600160a01b038116610a715760405162461bcd60e51b81526020600482015260026024820152612d1960f11b60448201526064016104ad565b5050600580546001600160a01b0397881673ffffffffffffffffffffffffffffffffffffffff199182161790915560068054968816968216969096179095555050600780549285169284169290921790915560088054919093169116179055565b6104e08133610bf9565b6000828152602081815260408083206001600160a01b038516845290915290205460ff1661070c576000828152602081815260408083206001600160a01b03851684529091529020805460ff19166001179055610b363390565b6001600160a01b0316816001600160a01b0316837f2f8788117e7eff1d82e926ec794901d17c78024a50270940304540a733656f0d60405160405180910390a45050565b6000828152602081815260408083206001600160a01b038516845290915290205460ff161561070c576000828152602081815260408083206001600160a01b0385168085529252808320805460ff1916905551339285917ff6391f5c32d9c69d2a47ea670b442974b53935d1edc7fd64eb21e047a839171b9190a45050565b6000828152602081815260408083206001600160a01b038516845290915290205460ff1661070c57610c2a81610c6c565b610c35836020610c7e565b604051602001610c46929190610fea565b60408051601f198184030181529082905262461bcd60e51b82526104ad9160040161106b565b606061044b6001600160a01b03831660145b60606000610c8d836002611094565b610c989060026110ab565b67ffffffffffffffff811115610cb057610cb06110be565b6040519080825280601f01601f191660200182016040528015610cda576020820181803683370190505b509050600360fc1b81600081518110610cf557610cf56110d4565b60200101906001600160f81b031916908160001a905350600f60fb1b81600181518110610d2457610d246110d4565b60200101906001600160f81b031916908160001a9053506000610d48846002611094565b610d539060016110ab565b90505b6001811115610dd8577f303132333435363738396162636465660000000000000000000000000000000085600f1660108110610d9457610d946110d4565b1a60f81b828281518110610daa57610daa6110d4565b60200101906001600160f81b031916908160001a90535060049490941c93610dd1816110ea565b9050610d56565b508315610e275760405162461bcd60e51b815260206004820181905260248201527f537472696e67733a20686578206c656e67746820696e73756666696369656e7460448201526064016104ad565b9392505050565b600060208284031215610e4057600080fd5b81356001600160e01b031981168114610e2757600080fd5b80356001600160a01b0381168114610e6f57600080fd5b919050565b600060208284031215610e8657600080fd5b610e2782610e58565b600060208284031215610ea157600080fd5b5035919050565b60005b83811015610ec3578181015183820152602001610eab565b50506000910152565b60008151808452610ee4816020860160208601610ea8565b601f01601f19169290920160200192915050565b60ff84168152606060208201526000610f146060830185610ecc565b8281036040840152610f268185610ecc565b9695505050505050565b60008060408385031215610f4357600080fd5b82359150610f5360208401610e58565b90509250929050565b60008060008060808587031215610f7257600080fd5b610f7b85610e58565b9350610f8960208601610e58565b9250610f9760408601610e58565b9150610fa560608601610e58565b905092959194509250565b600181811c90821680610fc457607f821691505b602082108103610fe457634e487b7160e01b600052602260045260246000fd5b50919050565b7f416363657373436f6e74726f6c3a206163636f756e7420000000000000000000815260008351611022816017850160208801610ea8565b7f206973206d697373696e6720726f6c6520000000000000000000000000000000601791840191820152835161105f816028840160208801610ea8565b01602801949350505050565b602081526000610e276020830184610ecc565b634e487b7160e01b600052601160045260246000fd5b808202811582820484141761044b5761044b61107e565b8082018082111561044b5761044b61107e565b634e487b7160e01b600052604160045260246000fd5b634e487b7160e01b600052603260045260246000fd5b6000816110f9576110f961107e565b50600019019056fea164736f6c6343000812000a",
  "linkReferences": {},
  "deployedLinkReferences": {}
}