{
  "_format": "hh-sol-artifact-1",
  "contractName": "OptimismSequencerInitialize",
  "sourceName": "contracts/fixInitialize/OptimismSequencerInitialize.sol",
  "abi": [
    {
      "inputs": [],
      "stateMutability": "nonpayable",
      "type": "constructor"
    },
    {
      "anonymous": false,
      "inputs": [
        {
          "indexed": true,
          "internalType": "bytes32",
          "name": "role",
          "type": "bytes32"
        },
        {
          "indexed": true,
          "internalType": "bytes32",
          "name": "previousAdminRole",
          "type": "bytes32"
        },
        {
          "indexed": true,
          "internalType": "bytes32",
          "name": "newAdminRole",
          "type": "bytes32"
        }
      ],
      "name": "RoleAdminChanged",
      "type": "event"
    },
    {
      "anonymous": false,
      "inputs": [
        {
          "indexed": true,
          "internalType": "bytes32",
          "name": "role",
          "type": "bytes32"
        },
        {
          "indexed": true,
          "internalType": "address",
          "name": "account",
          "type": "address"
        },
        {
          "indexed": true,
          "internalType": "address",
          "name": "sender",
          "type": "address"
        }
      ],
      "name": "RoleGranted",
      "type": "event"
    },
    {
      "anonymous": false,
      "inputs": [
        {
          "indexed": true,
          "internalType": "bytes32",
          "name": "role",
          "type": "bytes32"
        },
        {
          "indexed": true,
          "internalType": "address",
          "name": "account",
          "type": "address"
        },
        {
          "indexed": true,
          "internalType": "address",
          "name": "sender",
          "type": "address"
        }
      ],
      "name": "RoleRevoked",
      "type": "event"
    },
    {
      "inputs": [],
      "name": "ADMIN_ROLE",
      "outputs": [
        {
          "internalType": "bytes32",
          "name": "",
          "type": "bytes32"
        }
      ],
      "stateMutability": "view",
      "type": "function"
    },
    {
      "inputs": [],
      "name": "DEFAULT_ADMIN_ROLE",
      "outputs": [
        {
          "internalType": "bytes32",
          "name": "",
          "type": "bytes32"
        }
      ],
      "stateMutability": "view",
      "type": "function"
    },
    {
      "inputs": [],
      "name": "POLICY_ROLE",
      "outputs": [
        {
          "internalType": "bytes32",
          "name": "",
          "type": "bytes32"
        }
      ],
      "stateMutability": "view",
      "type": "function"
    },
    {
      "inputs": [
        {
          "internalType": "address",
          "name": "account",
          "type": "address"
        }
      ],
      "name": "addAdmin",
      "outputs": [],
      "stateMutability": "nonpayable",
      "type": "function"
    },
    {
      "inputs": [
        {
          "internalType": "address",
          "name": "",
          "type": "address"
        }
      ],
      "name": "aliveImplementation",
      "outputs": [
        {
          "internalType": "bool",
          "name": "",
          "type": "bool"
        }
      ],
      "stateMutability": "view",
      "type": "function"
    },
    {
      "inputs": [
        {
          "internalType": "address",
          "name": "_ton",
          "type": "address"
        },
        {
          "internalType": "address",
          "name": "_seigManagerV2",
          "type": "address"
        },
        {
          "internalType": "address",
          "name": "_layer2Manager",
          "type": "address"
        },
        {
          "internalType": "address",
          "name": "_fwReceipt",
          "type": "address"
        }
      ],
      "name": "fixInitialize",
      "outputs": [],
      "stateMutability": "nonpayable",
      "type": "function"
    },
    {
      "inputs": [],
      "name": "fwReceipt",
      "outputs": [
        {
          "internalType": "address",
          "name": "",
          "type": "address"
        }
      ],
      "stateMutability": "view",
      "type": "function"
    },
    {
      "inputs": [
        {
          "internalType": "bytes32",
          "name": "role",
          "type": "bytes32"
        }
      ],
      "name": "getRoleAdmin",
      "outputs": [
        {
          "internalType": "bytes32",
          "name": "",
          "type": "bytes32"
        }
      ],
      "stateMutability": "view",
      "type": "function"
    },
    {
      "inputs": [
        {
          "internalType": "bytes32",
          "name": "role",
          "type": "bytes32"
        },
        {
          "internalType": "address",
          "name": "account",
          "type": "address"
        }
      ],
      "name": "grantRole",
      "outputs": [],
      "stateMutability": "nonpayable",
      "type": "function"
    },
    {
      "inputs": [
        {
          "internalType": "bytes32",
          "name": "role",
          "type": "bytes32"
        },
        {
          "internalType": "address",
          "name": "account",
          "type": "address"
        }
      ],
      "name": "hasRole",
      "outputs": [
        {
          "internalType": "bool",
          "name": "",
          "type": "bool"
        }
      ],
      "stateMutability": "view",
      "type": "function"
    },
    {
      "inputs": [
        {
          "internalType": "address",
          "name": "account",
          "type": "address"
        }
      ],
      "name": "isAdmin",
      "outputs": [
        {
          "internalType": "bool",
          "name": "",
          "type": "bool"
        }
      ],
      "stateMutability": "view",
      "type": "function"
    },
    {
      "inputs": [],
      "name": "layer2Manager",
      "outputs": [
        {
          "internalType": "address",
          "name": "",
          "type": "address"
        }
      ],
      "stateMutability": "view",
      "type": "function"
    },
    {
      "inputs": [
        {
          "internalType": "uint32",
          "name": "",
          "type": "uint32"
        }
      ],
      "name": "layerInfo",
      "outputs": [
        {
          "internalType": "bytes",
          "name": "",
          "type": "bytes"
        }
      ],
      "stateMutability": "view",
      "type": "function"
    },
    {
      "inputs": [
        {
          "internalType": "uint32",
          "name": "",
          "type": "uint32"
        }
      ],
      "name": "layerStakedLton",
      "outputs": [
        {
          "internalType": "uint256",
          "name": "",
          "type": "uint256"
        }
      ],
      "stateMutability": "view",
      "type": "function"
    },
    {
      "inputs": [
        {
          "internalType": "uint32",
          "name": "",
          "type": "uint32"
        },
        {
          "internalType": "address",
          "name": "",
          "type": "address"
        }
      ],
      "name": "layerStakes",
      "outputs": [
        {
          "internalType": "uint256",
          "name": "stakePrincipal",
          "type": "uint256"
        },
        {
          "internalType": "uint256",
          "name": "stakelton",
          "type": "uint256"
        },
        {
          "internalType": "bool",
          "name": "stake",
          "type": "bool"
        }
      ],
      "stateMutability": "view",
      "type": "function"
    },
    {
      "inputs": [],
      "name": "pauseProxy",
      "outputs": [
        {
          "internalType": "bool",
          "name": "",
          "type": "bool"
        }
      ],
      "stateMutability": "view",
      "type": "function"
    },
    {
      "inputs": [
        {
          "internalType": "uint32",
          "name": "",
          "type": "uint32"
        },
        {
          "internalType": "address",
          "name": "",
          "type": "address"
        }
      ],
      "name": "pendingUnstaked",
      "outputs": [
        {
          "internalType": "uint256",
          "name": "",
          "type": "uint256"
        }
      ],
      "stateMutability": "view",
      "type": "function"
    },
    {
      "inputs": [
        {
          "internalType": "address",
          "name": "",
          "type": "address"
        }
      ],
      "name": "pendingUnstakedAccount",
      "outputs": [
        {
          "internalType": "uint256",
          "name": "",
          "type": "uint256"
        }
      ],
      "stateMutability": "view",
      "type": "function"
    },
    {
      "inputs": [
        {
          "internalType": "uint32",
          "name": "",
          "type": "uint32"
        }
      ],
      "name": "pendingUnstakedLayer2",
      "outputs": [
        {
          "internalType": "uint256",
          "name": "",
          "type": "uint256"
        }
      ],
      "stateMutability": "view",
      "type": "function"
    },
    {
      "inputs": [
        {
          "internalType": "uint256",
          "name": "",
          "type": "uint256"
        }
      ],
      "name": "proxyImplementation",
      "outputs": [
        {
          "internalType": "address",
          "name": "",
          "type": "address"
        }
      ],
      "stateMutability": "view",
      "type": "function"
    },
    {
      "inputs": [
        {
          "internalType": "address",
          "name": "account",
          "type": "address"
        }
      ],
      "name": "removeAdmin",
      "outputs": [],
      "stateMutability": "nonpayable",
      "type": "function"
    },
    {
      "inputs": [
        {
          "internalType": "bytes32",
          "name": "role",
          "type": "bytes32"
        },
        {
          "internalType": "address",
          "name": "account",
          "type": "address"
        }
      ],
      "name": "renounceRole",
      "outputs": [],
      "stateMutability": "nonpayable",
      "type": "function"
    },
    {
      "inputs": [
        {
          "internalType": "bytes32",
          "name": "role",
          "type": "bytes32"
        },
        {
          "internalType": "address",
          "name": "account",
          "type": "address"
        }
      ],
      "name": "revokeRole",
      "outputs": [],
      "stateMutability": "nonpayable",
      "type": "function"
    },
    {
      "inputs": [],
      "name": "seigManagerV2",
      "outputs": [
        {
          "internalType": "address",
          "name": "",
          "type": "address"
        }
      ],
      "stateMutability": "view",
      "type": "function"
    },
    {
      "inputs": [
        {
          "internalType": "bytes4",
          "name": "",
          "type": "bytes4"
        }
      ],
      "name": "selectorImplementation",
      "outputs": [
        {
          "internalType": "address",
          "name": "",
          "type": "address"
        }
      ],
      "stateMutability": "view",
      "type": "function"
    },
    {
      "inputs": [
        {
          "internalType": "uint256",
          "name": "",
          "type": "uint256"
        }
      ],
      "name": "stakeAccountList",
      "outputs": [
        {
          "internalType": "address",
          "name": "",
          "type": "address"
        }
      ],
      "stateMutability": "view",
      "type": "function"
    },
    {
      "inputs": [
        {
          "internalType": "bytes4",
          "name": "interfaceId",
          "type": "bytes4"
        }
      ],
      "name": "supportsInterface",
      "outputs": [
        {
          "internalType": "bool",
          "name": "",
          "type": "bool"
        }
      ],
      "stateMutability": "view",
      "type": "function"
    },
    {
      "inputs": [],
      "name": "ton",
      "outputs": [
        {
          "internalType": "address",
          "name": "",
          "type": "address"
        }
      ],
      "stateMutability": "view",
      "type": "function"
    },
    {
      "inputs": [
        {
          "internalType": "address",
          "name": "newAdmin",
          "type": "address"
        }
      ],
      "name": "transferAdmin",
      "outputs": [],
      "stateMutability": "nonpayable",
      "type": "function"
    },
    {
      "inputs": [
        {
          "internalType": "uint32",
          "name": "",
          "type": "uint32"
        },
        {
          "internalType": "address",
          "name": "",
          "type": "address"
        }
      ],
      "name": "withdrawalRequestIndex",
      "outputs": [
        {
          "internalType": "uint256",
          "name": "",
          "type": "uint256"
        }
      ],
      "stateMutability": "view",
      "type": "function"
    },
    {
      "inputs": [
        {
          "internalType": "uint32",
          "name": "",
          "type": "uint32"
        },
        {
          "internalType": "address",
          "name": "",
          "type": "address"
        },
        {
          "internalType": "uint256",
          "name": "",
          "type": "uint256"
        }
      ],
      "name": "withdrawalRequests",
      "outputs": [
        {
          "internalType": "uint32",
          "name": "withdrawableBlockNumber",
          "type": "uint32"
        },
        {
          "internalType": "uint128",
          "name": "amount",
          "type": "uint128"
        },
        {
          "internalType": "bool",
          "name": "processed",
          "type": "bool"
        }
      ],
      "stateMutability": "view",
      "type": "function"
    }
  ],
  "bytecode": "0x60806040526006805460ff1916600117905534801561001d57600080fd5b506113518061002d6000396000f3fe608060405234801561001057600080fd5b50600436106101e55760003560e01c806370619cf91161010f578063a217fddf116100a2578063d07918f111610071578063d07918f114610594578063d547741f146105a7578063e2513174146105ba578063ec110d45146105cd57600080fd5b8063a217fddf1461052b578063b911135f14610533578063b9cab9711461055c578063cc48b9471461057c57600080fd5b80637cf1587c116100de5780637cf1587c1461044f57806391d148541461047a5780639c656e26146104b1578063a0b2a9131461050b57600080fd5b806370619cf9146103e257806373469a7a1461040257806375829def1461041557806375b238fc1461042857600080fd5b806336568abe1161018757806363a8fd891161015657806363a8fd891461035a578063659ab820146103675780636d1ef1031461038757806370480275146103cf57600080fd5b806336568abe146102d057806350d2a276146102e3578063550d01a31461030c5780635e2cfe451461032f57600080fd5b806322985246116101c35780632298524614610252578063248a9ca31461028757806324d7806c146102aa5780632f2ff15d146102bd57600080fd5b806301ffc9a7146101ea57806316b5d5bd146102125780631785f53c1461023d575b600080fd5b6101fd6101f8366004611014565b6105e0565b60405190151581526020015b60405180910390f35b600854610225906001600160a01b031681565b6040516001600160a01b039091168152602001610209565b61025061024b36600461105a565b610617565b005b6102797ffb5864e8ff833c3cb2d2d08505e82ff02a43554c74a35d4f5a64e8526127831181565b604051908152602001610209565b610279610295366004611075565b60009081526020819052604090206001015490565b6101fd6102b836600461105a565b6106a9565b6102506102cb36600461108e565b6106e9565b6102506102de36600461108e565b610713565b6102256102f1366004611014565b6004602052600090815260409020546001600160a01b031681565b6101fd61031a36600461105a565b60036020526000908152604090205460ff1681565b61027961033d3660046110ce565b601360209081526000928352604080842090915290825290205481565b6001546101fd9060ff1681565b61037a6103753660046110f8565b61079f565b6040516102099190611163565b61039a610395366004611176565b610839565b6040805163ffffffff90941684526fffffffffffffffffffffffffffffffff9092166020840152151590820152606001610209565b6102506103dd36600461105a565b6108b2565b6102796103f03660046110f8565b600d6020526000908152604090205481565b600754610225906001600160a01b031681565b61025061042336600461105a565b61093c565b6102797fdf8b4c520ffe197c5343c6f5aec59570151ef9a492f2c624fd45ddde6135ec4281565b61027961045d3660046110ce565b601260209081526000928352604080842090915290825290205481565b6101fd61048836600461108e565b6000918252602082815260408084206001600160a01b0393909316845291905290205460ff1690565b6104ee6104bf3660046110ce565b600f60209081526000928352604080842090915290825290208054600182015460029092015490919060ff1683565b604080519384526020840192909252151590820152606001610209565b61027961051936600461105a565b60156020526000908152604090205481565b610279600081565b610225610541366004611075565b6002602052600090815260409020546001600160a01b031681565b61027961056a3660046110f8565b60146020526000908152604090205481565b6006546102259061010090046001600160a01b031681565b600954610225906001600160a01b031681565b6102506105b536600461108e565b610a9e565b6102506105c83660046111b2565b610ac3565b6102256105db366004611075565b610c8e565b60006001600160e01b03198216637965db0b60e01b148061061157506301ffc9a760e01b6001600160e01b03198316145b92915050565b610620336106a9565b61067c5760405162461bcd60e51b815260206004820152602260248201527f41636365737369626c653a2043616c6c6572206973206e6f7420616e2061646d60448201526134b760f11b60648201526084015b60405180910390fd5b6106a67fdf8b4c520ffe197c5343c6f5aec59570151ef9a492f2c624fd45ddde6135ec4282610713565b50565b6001600160a01b03811660009081527f5cbfc8ee58ca47855df7bcf648dd304ddb6b932f9b87878bdf6318d7ec7ee5b7602052604081205460ff16610611565b60008281526020819052604090206001015461070481610cb8565b61070e8383610cc2565b505050565b6001600160a01b03811633146107915760405162461bcd60e51b815260206004820152602f60248201527f416363657373436f6e74726f6c3a2063616e206f6e6c792072656e6f756e636560448201527f20726f6c657320666f722073656c6600000000000000000000000000000000006064820152608401610673565b61079b8282610d60565b5050565b601660205260009081526040902080546107b890611206565b80601f01602080910402602001604051908101604052809291908181526020018280546107e490611206565b80156108315780601f1061080657610100808354040283529160200191610831565b820191906000526020600020905b81548152906001019060200180831161081457829003601f168201915b505050505081565b6011602052826000526040600020602052816000526040600020818154811061086157600080fd5b60009182526020909120015463ffffffff8116935064010000000081046fffffffffffffffffffffffffffffffff16925074010000000000000000000000000000000000000000900460ff16905083565b6108bb336106a9565b6109125760405162461bcd60e51b815260206004820152602260248201527f41636365737369626c653a2043616c6c6572206973206e6f7420616e2061646d60448201526134b760f11b6064820152608401610673565b6106a67fdf8b4c520ffe197c5343c6f5aec59570151ef9a492f2c624fd45ddde6135ec42826106e9565b610945336106a9565b61099c5760405162461bcd60e51b815260206004820152602260248201527f41636365737369626c653a2043616c6c6572206973206e6f7420616e2061646d60448201526134b760f11b6064820152608401610673565b6001600160a01b0381166109f25760405162461bcd60e51b815260206004820152601860248201527f41636365737369626c653a207a65726f206164647265737300000000000000006044820152606401610673565b6001600160a01b0381163303610a4a5760405162461bcd60e51b815260206004820152601660248201527f41636365737369626c653a2073616d652061646d696e000000000000000000006044820152606401610673565b610a747fdf8b4c520ffe197c5343c6f5aec59570151ef9a492f2c624fd45ddde6135ec42826106e9565b6106a67fdf8b4c520ffe197c5343c6f5aec59570151ef9a492f2c624fd45ddde6135ec4233610713565b600082815260208190526040902060010154610ab981610cb8565b61070e8383610d60565b610acc336106a9565b610b235760405162461bcd60e51b815260206004820152602260248201527f41636365737369626c653a2043616c6c6572206973206e6f7420616e2061646d60448201526134b760f11b6064820152608401610673565b836001600160a01b038116610b5f5760405162461bcd60e51b81526020600482015260026024820152612d1960f11b6044820152606401610673565b836001600160a01b038116610b9b5760405162461bcd60e51b81526020600482015260026024820152612d1960f11b6044820152606401610673565b836001600160a01b038116610bd75760405162461bcd60e51b81526020600482015260026024820152612d1960f11b6044820152606401610673565b836001600160a01b038116610c135760405162461bcd60e51b81526020600482015260026024820152612d1960f11b6044820152606401610673565b50506007805473ffffffffffffffffffffffffffffffffffffffff199081166001600160a01b03978816179091556006805474ffffffffffffffffffffffffffffffffffffffff0019166101009888169890980297909717909655505060088054851692841692909217909155600980549093169116179055565b60178181548110610c9e57600080fd5b6000918252602090912001546001600160a01b0316905081565b6106a68133610ddf565b6000828152602081815260408083206001600160a01b038516845290915290205460ff1661079b576000828152602081815260408083206001600160a01b03851684529091529020805460ff19166001179055610d1c3390565b6001600160a01b0316816001600160a01b0316837f2f8788117e7eff1d82e926ec794901d17c78024a50270940304540a733656f0d60405160405180910390a45050565b6000828152602081815260408083206001600160a01b038516845290915290205460ff161561079b576000828152602081815260408083206001600160a01b0385168085529252808320805460ff1916905551339285917ff6391f5c32d9c69d2a47ea670b442974b53935d1edc7fd64eb21e047a839171b9190a45050565b6000828152602081815260408083206001600160a01b038516845290915290205460ff1661079b57610e1081610e52565b610e1b836020610e64565b604051602001610e2c929190611240565b60408051601f198184030181529082905262461bcd60e51b825261067391600401611163565b60606106116001600160a01b03831660145b60606000610e738360026112d7565b610e7e9060026112ee565b67ffffffffffffffff811115610e9657610e96611301565b6040519080825280601f01601f191660200182016040528015610ec0576020820181803683370190505b509050600360fc1b81600081518110610edb57610edb611317565b60200101906001600160f81b031916908160001a905350600f60fb1b81600181518110610f0a57610f0a611317565b60200101906001600160f81b031916908160001a9053506000610f2e8460026112d7565b610f399060016112ee565b90505b6001811115610fbe577f303132333435363738396162636465660000000000000000000000000000000085600f1660108110610f7a57610f7a611317565b1a60f81b828281518110610f9057610f90611317565b60200101906001600160f81b031916908160001a90535060049490941c93610fb78161132d565b9050610f3c565b50831561100d5760405162461bcd60e51b815260206004820181905260248201527f537472696e67733a20686578206c656e67746820696e73756666696369656e746044820152606401610673565b9392505050565b60006020828403121561102657600080fd5b81356001600160e01b03198116811461100d57600080fd5b80356001600160a01b038116811461105557600080fd5b919050565b60006020828403121561106c57600080fd5b61100d8261103e565b60006020828403121561108757600080fd5b5035919050565b600080604083850312156110a157600080fd5b823591506110b16020840161103e565b90509250929050565b803563ffffffff8116811461105557600080fd5b600080604083850312156110e157600080fd5b6110ea836110ba565b91506110b16020840161103e565b60006020828403121561110a57600080fd5b61100d826110ba565b60005b8381101561112e578181015183820152602001611116565b50506000910152565b6000815180845261114f816020860160208601611113565b601f01601f19169290920160200192915050565b60208152600061100d6020830184611137565b60008060006060848603121561118b57600080fd5b611194846110ba565b92506111a26020850161103e565b9150604084013590509250925092565b600080600080608085870312156111c857600080fd5b6111d18561103e565b93506111df6020860161103e565b92506111ed6040860161103e565b91506111fb6060860161103e565b905092959194509250565b600181811c9082168061121a57607f821691505b60208210810361123a57634e487b7160e01b600052602260045260246000fd5b50919050565b7f416363657373436f6e74726f6c3a206163636f756e7420000000000000000000815260008351611278816017850160208801611113565b7f206973206d697373696e6720726f6c652000000000000000000000000000000060179184019182015283516112b5816028840160208801611113565b01602801949350505050565b634e487b7160e01b600052601160045260246000fd5b8082028115828204841417610611576106116112c1565b80820180821115610611576106116112c1565b634e487b7160e01b600052604160045260246000fd5b634e487b7160e01b600052603260045260246000fd5b60008161133c5761133c6112c1565b50600019019056fea164736f6c6343000812000a",
  "linkReferences": {},
  "deployedLinkReferences": {}
}