{
  "_format": "hh-sol-artifact-1",
  "contractName": "OptimismSequencer",
  "sourceName": "contracts/OptimismSequencer.sol",
  "abi": [
    {
      "inputs": [],
      "stateMutability": "nonpayable",
      "type": "constructor"
    },
    {
      "anonymous": false,
      "inputs": [
        {
          "indexed": false,
          "internalType": "uint32",
          "name": "layerIndex",
          "type": "uint32"
        },
        {
          "indexed": false,
          "internalType": "address",
          "name": "from",
          "type": "address"
        },
        {
          "indexed": false,
          "internalType": "address",
          "name": "to",
          "type": "address"
        },
        {
          "indexed": false,
          "internalType": "uint256",
          "name": "amount",
          "type": "uint256"
        }
      ],
      "name": "FastWithdrawalClaim",
      "type": "event"
    },
    {
      "anonymous": false,
      "inputs": [
        {
          "indexed": false,
          "internalType": "uint32",
          "name": "layerIndex",
          "type": "uint32"
        },
        {
          "indexed": false,
          "internalType": "address",
          "name": "staker",
          "type": "address"
        },
        {
          "indexed": false,
          "internalType": "uint256",
          "name": "amount",
          "type": "uint256"
        },
        {
          "indexed": false,
          "internalType": "uint256",
          "name": "lton",
          "type": "uint256"
        }
      ],
      "name": "FastWithdrawalStaked",
      "type": "event"
    },
    {
      "anonymous": false,
      "inputs": [
        {
          "indexed": false,
          "internalType": "uint32",
          "name": "_index",
          "type": "uint32"
        },
        {
          "indexed": false,
          "internalType": "address",
          "name": "sender",
          "type": "address"
        },
        {
          "indexed": false,
          "internalType": "uint256",
          "name": "amount",
          "type": "uint256"
        },
        {
          "indexed": false,
          "internalType": "uint256",
          "name": "lton",
          "type": "uint256"
        }
      ],
      "name": "Restaked",
      "type": "event"
    },
    {
      "anonymous": false,
      "inputs": [
        {
          "indexed": true,
          "internalType": "bytes32",
          "name": "role",
          "type": "bytes32"
        },
        {
          "indexed": true,
          "internalType": "bytes32",
          "name": "previousAdminRole",
          "type": "bytes32"
        },
        {
          "indexed": true,
          "internalType": "bytes32",
          "name": "newAdminRole",
          "type": "bytes32"
        }
      ],
      "name": "RoleAdminChanged",
      "type": "event"
    },
    {
      "anonymous": false,
      "inputs": [
        {
          "indexed": true,
          "internalType": "bytes32",
          "name": "role",
          "type": "bytes32"
        },
        {
          "indexed": true,
          "internalType": "address",
          "name": "account",
          "type": "address"
        },
        {
          "indexed": true,
          "internalType": "address",
          "name": "sender",
          "type": "address"
        }
      ],
      "name": "RoleGranted",
      "type": "event"
    },
    {
      "anonymous": false,
      "inputs": [
        {
          "indexed": true,
          "internalType": "bytes32",
          "name": "role",
          "type": "bytes32"
        },
        {
          "indexed": true,
          "internalType": "address",
          "name": "account",
          "type": "address"
        },
        {
          "indexed": true,
          "internalType": "address",
          "name": "sender",
          "type": "address"
        }
      ],
      "name": "RoleRevoked",
      "type": "event"
    },
    {
      "anonymous": false,
      "inputs": [
        {
          "indexed": false,
          "internalType": "uint32",
          "name": "_index",
          "type": "uint32"
        },
        {
          "indexed": false,
          "internalType": "address",
          "name": "sender",
          "type": "address"
        },
        {
          "indexed": false,
          "internalType": "uint256",
          "name": "amount",
          "type": "uint256"
        },
        {
          "indexed": false,
          "internalType": "uint256",
          "name": "lton",
          "type": "uint256"
        },
        {
          "indexed": false,
          "internalType": "address",
          "name": "commissionTo",
          "type": "address"
        },
        {
          "indexed": false,
          "internalType": "uint16",
          "name": "commission",
          "type": "uint16"
        }
      ],
      "name": "Staked",
      "type": "event"
    },
    {
      "anonymous": false,
      "inputs": [
        {
          "indexed": false,
          "internalType": "uint32",
          "name": "_index",
          "type": "uint32"
        },
        {
          "indexed": false,
          "internalType": "address",
          "name": "sender",
          "type": "address"
        },
        {
          "indexed": false,
          "internalType": "uint256",
          "name": "amount",
          "type": "uint256"
        },
        {
          "indexed": false,
          "internalType": "uint256",
          "name": "lton",
          "type": "uint256"
        }
      ],
      "name": "Unstaked",
      "type": "event"
    },
    {
      "anonymous": false,
      "inputs": [
        {
          "indexed": false,
          "internalType": "uint32",
          "name": "_index",
          "type": "uint32"
        },
        {
          "indexed": false,
          "internalType": "address",
          "name": "sender",
          "type": "address"
        },
        {
          "indexed": false,
          "internalType": "uint256",
          "name": "amount",
          "type": "uint256"
        }
      ],
      "name": "Withdrawal",
      "type": "event"
    },
    {
      "inputs": [],
      "name": "ADMIN_ROLE",
      "outputs": [
        {
          "internalType": "bytes32",
          "name": "",
          "type": "bytes32"
        }
      ],
      "stateMutability": "view",
      "type": "function"
    },
    {
      "inputs": [],
      "name": "DEFAULT_ADMIN_ROLE",
      "outputs": [
        {
          "internalType": "bytes32",
          "name": "",
          "type": "bytes32"
        }
      ],
      "stateMutability": "view",
      "type": "function"
    },
    {
      "inputs": [
        {
          "internalType": "address",
          "name": "addressManager",
          "type": "address"
        }
      ],
      "name": "L1CrossDomainMessenger",
      "outputs": [
        {
          "internalType": "address",
          "name": "account_",
          "type": "address"
        }
      ],
      "stateMutability": "view",
      "type": "function"
    },
    {
      "inputs": [
        {
          "internalType": "address",
          "name": "addressManager",
          "type": "address"
        }
      ],
      "name": "L1StandardBridge",
      "outputs": [
        {
          "internalType": "address",
          "name": "account_",
          "type": "address"
        }
      ],
      "stateMutability": "view",
      "type": "function"
    },
    {
      "inputs": [],
      "name": "POLICY_ROLE",
      "outputs": [
        {
          "internalType": "bytes32",
          "name": "",
          "type": "bytes32"
        }
      ],
      "stateMutability": "view",
      "type": "function"
    },
    {
      "inputs": [
        {
          "internalType": "address",
          "name": "account",
          "type": "address"
        }
      ],
      "name": "addAdmin",
      "outputs": [],
      "stateMutability": "nonpayable",
      "type": "function"
    },
    {
      "inputs": [
        {
          "internalType": "address",
          "name": "",
          "type": "address"
        }
      ],
      "name": "aliveImplementation",
      "outputs": [
        {
          "internalType": "bool",
          "name": "",
          "type": "bool"
        }
      ],
      "stateMutability": "view",
      "type": "function"
    },
    {
      "inputs": [
        {
          "internalType": "uint32",
          "name": "layerIndex",
          "type": "uint32"
        },
        {
          "internalType": "address",
          "name": "account",
          "type": "address"
        }
      ],
      "name": "amountOfPendings",
      "outputs": [
        {
          "internalType": "uint256",
          "name": "amount",
          "type": "uint256"
        },
        {
          "internalType": "uint32",
          "name": "startIndex",
          "type": "uint32"
        },
        {
          "internalType": "uint32",
          "name": "len",
          "type": "uint32"
        },
        {
          "internalType": "uint32",
          "name": "nextWithdrawableBlockNumber",
          "type": "uint32"
        }
      ],
      "stateMutability": "view",
      "type": "function"
    },
    {
      "inputs": [
        {
          "internalType": "uint32",
          "name": "_index",
          "type": "uint32"
        },
        {
          "internalType": "address",
          "name": "account",
          "type": "address"
        }
      ],
      "name": "availableWithdraw",
      "outputs": [
        {
          "internalType": "uint256",
          "name": "amount",
          "type": "uint256"
        },
        {
          "internalType": "uint32",
          "name": "startIndex",
          "type": "uint32"
        },
        {
          "internalType": "uint32",
          "name": "len",
          "type": "uint32"
        }
      ],
      "stateMutability": "view",
      "type": "function"
    },
    {
      "inputs": [
        {
          "internalType": "uint32",
          "name": "_index",
          "type": "uint32"
        },
        {
          "internalType": "address",
          "name": "account",
          "type": "address"
        }
      ],
      "name": "balanceOf",
      "outputs": [
        {
          "internalType": "uint256",
          "name": "amount",
          "type": "uint256"
        }
      ],
      "stateMutability": "view",
      "type": "function"
    },
    {
      "inputs": [
        {
          "internalType": "uint32",
          "name": "_index",
          "type": "uint32"
        },
        {
          "internalType": "address",
          "name": "account",
          "type": "address"
        }
      ],
      "name": "balanceOfLton",
      "outputs": [
        {
          "internalType": "uint256",
          "name": "amount",
          "type": "uint256"
        }
      ],
      "stateMutability": "view",
      "type": "function"
    },
    {
      "inputs": [
        {
          "internalType": "uint32",
          "name": "_index",
          "type": "uint32"
        }
      ],
      "name": "balanceOfLton",
      "outputs": [
        {
          "internalType": "uint256",
          "name": "amount",
          "type": "uint256"
        }
      ],
      "stateMutability": "view",
      "type": "function"
    },
    {
      "inputs": [
        {
          "internalType": "uint32",
          "name": "_index",
          "type": "uint32"
        }
      ],
      "name": "bridges",
      "outputs": [
        {
          "internalType": "address",
          "name": "",
          "type": "address"
        },
        {
          "internalType": "address",
          "name": "",
          "type": "address"
        }
      ],
      "stateMutability": "view",
      "type": "function"
    },
    {
      "inputs": [
        {
          "internalType": "uint32",
          "name": "_index",
          "type": "uint32"
        },
        {
          "internalType": "bytes",
          "name": "_layerInfo",
          "type": "bytes"
        }
      ],
      "name": "create",
      "outputs": [
        {
          "internalType": "bool",
          "name": "",
          "type": "bool"
        }
      ],
      "stateMutability": "nonpayable",
      "type": "function"
    },
    {
      "inputs": [
        {
          "internalType": "uint32",
          "name": "_index",
          "type": "uint32"
        }
      ],
      "name": "existedIndex",
      "outputs": [
        {
          "internalType": "bool",
          "name": "",
          "type": "bool"
        }
      ],
      "stateMutability": "view",
      "type": "function"
    },
    {
      "inputs": [
        {
          "internalType": "uint32",
          "name": "layerIndex",
          "type": "uint32"
        },
        {
          "internalType": "address",
          "name": "from",
          "type": "address"
        },
        {
          "internalType": "address",
          "name": "to",
          "type": "address"
        },
        {
          "internalType": "uint256",
          "name": "amount",
          "type": "uint256"
        }
      ],
      "name": "fastWithdrawClaim",
      "outputs": [
        {
          "internalType": "bool",
          "name": "",
          "type": "bool"
        }
      ],
      "stateMutability": "nonpayable",
      "type": "function"
    },
    {
      "inputs": [
        {
          "internalType": "uint32",
          "name": "layerIndex",
          "type": "uint32"
        },
        {
          "internalType": "address",
          "name": "staker",
          "type": "address"
        },
        {
          "internalType": "uint256",
          "name": "_amount",
          "type": "uint256"
        }
      ],
      "name": "fastWithdrawStake",
      "outputs": [
        {
          "internalType": "bool",
          "name": "",
          "type": "bool"
        }
      ],
      "stateMutability": "nonpayable",
      "type": "function"
    },
    {
      "inputs": [],
      "name": "fwReceipt",
      "outputs": [
        {
          "internalType": "address",
          "name": "",
          "type": "address"
        }
      ],
      "stateMutability": "view",
      "type": "function"
    },
    {
      "inputs": [
        {
          "internalType": "uint32",
          "name": "_index",
          "type": "uint32"
        }
      ],
      "name": "getLayerInfo",
      "outputs": [
        {
          "components": [
            {
              "internalType": "address",
              "name": "addressManager",
              "type": "address"
            },
            {
              "internalType": "address",
              "name": "l1Bridge",
              "type": "address"
            },
            {
              "internalType": "address",
              "name": "l2Bridge",
              "type": "address"
            },
            {
              "internalType": "address",
              "name": "l2ton",
              "type": "address"
            }
          ],
          "internalType": "struct LibOptimism.Info",
          "name": "_layerInfo",
          "type": "tuple"
        }
      ],
      "stateMutability": "view",
      "type": "function"
    },
    {
      "inputs": [
        {
          "internalType": "uint32",
          "name": "_index",
          "type": "uint32"
        }
      ],
      "name": "getLayerKey",
      "outputs": [
        {
          "internalType": "bytes32",
          "name": "layerKey_",
          "type": "bytes32"
        }
      ],
      "stateMutability": "view",
      "type": "function"
    },
    {
      "inputs": [
        {
          "internalType": "uint32",
          "name": "_index",
          "type": "uint32"
        },
        {
          "internalType": "address",
          "name": "account",
          "type": "address"
        }
      ],
      "name": "getLayerStakes",
      "outputs": [
        {
          "components": [
            {
              "internalType": "uint256",
              "name": "stakePrincipal",
              "type": "uint256"
            },
            {
              "internalType": "uint256",
              "name": "bondPrincipal",
              "type": "uint256"
            },
            {
              "internalType": "uint256",
              "name": "stakelton",
              "type": "uint256"
            },
            {
              "internalType": "bool",
              "name": "stake",
              "type": "bool"
            }
          ],
          "internalType": "struct LibStake.StakeInfo",
          "name": "info",
          "type": "tuple"
        }
      ],
      "stateMutability": "view",
      "type": "function"
    },
    {
      "inputs": [
        {
          "internalType": "uint32",
          "name": "_index",
          "type": "uint32"
        },
        {
          "internalType": "address",
          "name": "account",
          "type": "address"
        }
      ],
      "name": "getPendingUnstakedAmount",
      "outputs": [
        {
          "internalType": "uint256",
          "name": "",
          "type": "uint256"
        }
      ],
      "stateMutability": "view",
      "type": "function"
    },
    {
      "inputs": [
        {
          "internalType": "bytes32",
          "name": "role",
          "type": "bytes32"
        }
      ],
      "name": "getRoleAdmin",
      "outputs": [
        {
          "internalType": "bytes32",
          "name": "",
          "type": "bytes32"
        }
      ],
      "stateMutability": "view",
      "type": "function"
    },
    {
      "inputs": [],
      "name": "getStakeAccountList",
      "outputs": [
        {
          "internalType": "address[]",
          "name": "",
          "type": "address[]"
        }
      ],
      "stateMutability": "view",
      "type": "function"
    },
    {
      "inputs": [],
      "name": "getTotalLton",
      "outputs": [
        {
          "internalType": "uint256",
          "name": "",
          "type": "uint256"
        }
      ],
      "stateMutability": "view",
      "type": "function"
    },
    {
      "inputs": [
        {
          "internalType": "uint32",
          "name": "_index",
          "type": "uint32"
        }
      ],
      "name": "getTvl",
      "outputs": [
        {
          "internalType": "uint256",
          "name": "amount",
          "type": "uint256"
        }
      ],
      "stateMutability": "view",
      "type": "function"
    },
    {
      "inputs": [
        {
          "internalType": "address",
          "name": "l1Bridge",
          "type": "address"
        },
        {
          "internalType": "address",
          "name": "l2ton",
          "type": "address"
        }
      ],
      "name": "getTvl",
      "outputs": [
        {
          "internalType": "uint256",
          "name": "amount",
          "type": "uint256"
        }
      ],
      "stateMutability": "view",
      "type": "function"
    },
    {
      "inputs": [
        {
          "internalType": "bytes32",
          "name": "role",
          "type": "bytes32"
        },
        {
          "internalType": "address",
          "name": "account",
          "type": "address"
        }
      ],
      "name": "grantRole",
      "outputs": [],
      "stateMutability": "nonpayable",
      "type": "function"
    },
    {
      "inputs": [
        {
          "internalType": "bytes32",
          "name": "role",
          "type": "bytes32"
        },
        {
          "internalType": "address",
          "name": "account",
          "type": "address"
        }
      ],
      "name": "hasRole",
      "outputs": [
        {
          "internalType": "bool",
          "name": "",
          "type": "bool"
        }
      ],
      "stateMutability": "view",
      "type": "function"
    },
    {
      "inputs": [
        {
          "internalType": "address",
          "name": "account",
          "type": "address"
        }
      ],
      "name": "isAdmin",
      "outputs": [
        {
          "internalType": "bool",
          "name": "",
          "type": "bool"
        }
      ],
      "stateMutability": "view",
      "type": "function"
    },
    {
      "inputs": [
        {
          "internalType": "uint32",
          "name": "_index",
          "type": "uint32"
        }
      ],
      "name": "layer2Deposits",
      "outputs": [
        {
          "internalType": "uint256",
          "name": "amount",
          "type": "uint256"
        }
      ],
      "stateMutability": "view",
      "type": "function"
    },
    {
      "inputs": [],
      "name": "layer2Manager",
      "outputs": [
        {
          "internalType": "address",
          "name": "",
          "type": "address"
        }
      ],
      "stateMutability": "view",
      "type": "function"
    },
    {
      "inputs": [
        {
          "internalType": "uint32",
          "name": "",
          "type": "uint32"
        }
      ],
      "name": "layerInfo",
      "outputs": [
        {
          "internalType": "bytes",
          "name": "",
          "type": "bytes"
        }
      ],
      "stateMutability": "view",
      "type": "function"
    },
    {
      "inputs": [
        {
          "internalType": "uint32",
          "name": "",
          "type": "uint32"
        }
      ],
      "name": "layerStakedLton",
      "outputs": [
        {
          "internalType": "uint256",
          "name": "",
          "type": "uint256"
        }
      ],
      "stateMutability": "view",
      "type": "function"
    },
    {
      "inputs": [
        {
          "internalType": "uint32",
          "name": "",
          "type": "uint32"
        },
        {
          "internalType": "address",
          "name": "",
          "type": "address"
        }
      ],
      "name": "layerStakes",
      "outputs": [
        {
          "internalType": "uint256",
          "name": "stakePrincipal",
          "type": "uint256"
        },
        {
          "internalType": "uint256",
          "name": "bondPrincipal",
          "type": "uint256"
        },
        {
          "internalType": "uint256",
          "name": "stakelton",
          "type": "uint256"
        },
        {
          "internalType": "bool",
          "name": "stake",
          "type": "bool"
        }
      ],
      "stateMutability": "view",
      "type": "function"
    },
    {
      "inputs": [
        {
          "internalType": "uint32",
          "name": "layerIndex",
          "type": "uint32"
        },
        {
          "internalType": "address",
          "name": "account",
          "type": "address"
        }
      ],
      "name": "numberOfPendings",
      "outputs": [
        {
          "internalType": "uint256",
          "name": "totalRequests",
          "type": "uint256"
        },
        {
          "internalType": "uint256",
          "name": "withdrawIndex",
          "type": "uint256"
        },
        {
          "internalType": "uint256",
          "name": "pendingLength",
          "type": "uint256"
        }
      ],
      "stateMutability": "view",
      "type": "function"
    },
    {
      "inputs": [
        {
          "internalType": "address",
          "name": "sender",
          "type": "address"
        },
        {
          "internalType": "address",
          "name": "spender",
          "type": "address"
        },
        {
          "internalType": "uint256",
          "name": "amount",
          "type": "uint256"
        },
        {
          "internalType": "bytes",
          "name": "data",
          "type": "bytes"
        }
      ],
      "name": "onApprove",
      "outputs": [
        {
          "internalType": "bool",
          "name": "",
          "type": "bool"
        }
      ],
      "stateMutability": "nonpayable",
      "type": "function"
    },
    {
      "inputs": [],
      "name": "pauseProxy",
      "outputs": [
        {
          "internalType": "bool",
          "name": "",
          "type": "bool"
        }
      ],
      "stateMutability": "view",
      "type": "function"
    },
    {
      "inputs": [
        {
          "internalType": "uint32",
          "name": "",
          "type": "uint32"
        },
        {
          "internalType": "address",
          "name": "",
          "type": "address"
        }
      ],
      "name": "pendingUnstaked",
      "outputs": [
        {
          "internalType": "uint256",
          "name": "",
          "type": "uint256"
        }
      ],
      "stateMutability": "view",
      "type": "function"
    },
    {
      "inputs": [
        {
          "internalType": "address",
          "name": "",
          "type": "address"
        }
      ],
      "name": "pendingUnstakedAccount",
      "outputs": [
        {
          "internalType": "uint256",
          "name": "",
          "type": "uint256"
        }
      ],
      "stateMutability": "view",
      "type": "function"
    },
    {
      "inputs": [
        {
          "internalType": "uint32",
          "name": "",
          "type": "uint32"
        }
      ],
      "name": "pendingUnstakedLayer2",
      "outputs": [
        {
          "internalType": "uint256",
          "name": "",
          "type": "uint256"
        }
      ],
      "stateMutability": "view",
      "type": "function"
    },
    {
      "inputs": [
        {
          "internalType": "uint256",
          "name": "",
          "type": "uint256"
        }
      ],
      "name": "proxyImplementation",
      "outputs": [
        {
          "internalType": "address",
          "name": "",
          "type": "address"
        }
      ],
      "stateMutability": "view",
      "type": "function"
    },
    {
      "inputs": [
        {
          "internalType": "address",
          "name": "account",
          "type": "address"
        }
      ],
      "name": "removeAdmin",
      "outputs": [],
      "stateMutability": "nonpayable",
      "type": "function"
    },
    {
      "inputs": [
        {
          "internalType": "bytes32",
          "name": "role",
          "type": "bytes32"
        },
        {
          "internalType": "address",
          "name": "account",
          "type": "address"
        }
      ],
      "name": "renounceRole",
      "outputs": [],
      "stateMutability": "nonpayable",
      "type": "function"
    },
    {
      "inputs": [
        {
          "internalType": "uint32",
          "name": "_index",
          "type": "uint32"
        }
      ],
      "name": "restake",
      "outputs": [],
      "stateMutability": "nonpayable",
      "type": "function"
    },
    {
      "inputs": [
        {
          "internalType": "uint32",
          "name": "_index",
          "type": "uint32"
        },
        {
          "internalType": "uint256",
          "name": "n",
          "type": "uint256"
        }
      ],
      "name": "restakeMulti",
      "outputs": [],
      "stateMutability": "nonpayable",
      "type": "function"
    },
    {
      "inputs": [
        {
          "internalType": "bytes32",
          "name": "role",
          "type": "bytes32"
        },
        {
          "internalType": "address",
          "name": "account",
          "type": "address"
        }
      ],
      "name": "revokeRole",
      "outputs": [],
      "stateMutability": "nonpayable",
      "type": "function"
    },
    {
      "inputs": [],
      "name": "seigManagerV2",
      "outputs": [
        {
          "internalType": "address",
          "name": "",
          "type": "address"
        }
      ],
      "stateMutability": "view",
      "type": "function"
    },
    {
      "inputs": [
        {
          "internalType": "bytes4",
          "name": "",
          "type": "bytes4"
        }
      ],
      "name": "selectorImplementation",
      "outputs": [
        {
          "internalType": "address",
          "name": "",
          "type": "address"
        }
      ],
      "stateMutability": "view",
      "type": "function"
    },
    {
      "inputs": [
        {
          "internalType": "address",
          "name": "addressManager",
          "type": "address"
        }
      ],
      "name": "sequencer",
      "outputs": [
        {
          "internalType": "address",
          "name": "sequencer_",
          "type": "address"
        }
      ],
      "stateMutability": "view",
      "type": "function"
    },
    {
      "inputs": [
        {
          "internalType": "uint32",
          "name": "_index",
          "type": "uint32"
        }
      ],
      "name": "sequencer",
      "outputs": [
        {
          "internalType": "address",
          "name": "sequencer_",
          "type": "address"
        }
      ],
      "stateMutability": "view",
      "type": "function"
    },
    {
      "inputs": [
        {
          "internalType": "uint32",
          "name": "_index",
          "type": "uint32"
        },
        {
          "internalType": "uint256",
          "name": "amount",
          "type": "uint256"
        }
      ],
      "name": "stake",
      "outputs": [],
      "stateMutability": "nonpayable",
      "type": "function"
    },
    {
      "inputs": [
        {
          "internalType": "uint256",
          "name": "",
          "type": "uint256"
        }
      ],
      "name": "stakeAccountList",
      "outputs": [
        {
          "internalType": "address",
          "name": "",
          "type": "address"
        }
      ],
      "stateMutability": "view",
      "type": "function"
    },
    {
      "inputs": [
        {
          "internalType": "bytes4",
          "name": "interfaceId",
          "type": "bytes4"
        }
      ],
      "name": "supportsInterface",
      "outputs": [
        {
          "internalType": "bool",
          "name": "",
          "type": "bool"
        }
      ],
      "stateMutability": "view",
      "type": "function"
    },
    {
      "inputs": [],
      "name": "ton",
      "outputs": [
        {
          "internalType": "address",
          "name": "",
          "type": "address"
        }
      ],
      "stateMutability": "view",
      "type": "function"
    },
    {
      "inputs": [],
      "name": "totalLayer2Deposits",
      "outputs": [
        {
          "internalType": "uint256",
          "name": "amount",
          "type": "uint256"
        }
      ],
      "stateMutability": "view",
      "type": "function"
    },
    {
      "inputs": [],
      "name": "totalStakeAccountList",
      "outputs": [
        {
          "internalType": "uint256",
          "name": "",
          "type": "uint256"
        }
      ],
      "stateMutability": "view",
      "type": "function"
    },
    {
      "inputs": [],
      "name": "totalStakedLton",
      "outputs": [
        {
          "internalType": "uint256",
          "name": "",
          "type": "uint256"
        }
      ],
      "stateMutability": "view",
      "type": "function"
    },
    {
      "inputs": [
        {
          "internalType": "address",
          "name": "newAdmin",
          "type": "address"
        }
      ],
      "name": "transferAdmin",
      "outputs": [],
      "stateMutability": "nonpayable",
      "type": "function"
    },
    {
      "inputs": [
        {
          "internalType": "uint32",
          "name": "_index",
          "type": "uint32"
        },
        {
          "internalType": "uint256",
          "name": "lton_",
          "type": "uint256"
        }
      ],
      "name": "unstake",
      "outputs": [],
      "stateMutability": "nonpayable",
      "type": "function"
    },
    {
      "inputs": [
        {
          "internalType": "uint32",
          "name": "_index",
          "type": "uint32"
        }
      ],
      "name": "withdraw",
      "outputs": [],
      "stateMutability": "nonpayable",
      "type": "function"
    },
    {
      "inputs": [
        {
          "internalType": "uint32",
          "name": "",
          "type": "uint32"
        },
        {
          "internalType": "address",
          "name": "",
          "type": "address"
        }
      ],
      "name": "withdrawalRequestIndex",
      "outputs": [
        {
          "internalType": "uint256",
          "name": "",
          "type": "uint256"
        }
      ],
      "stateMutability": "view",
      "type": "function"
    },
    {
      "inputs": [
        {
          "internalType": "uint32",
          "name": "",
          "type": "uint32"
        },
        {
          "internalType": "address",
          "name": "",
          "type": "address"
        },
        {
          "internalType": "uint256",
          "name": "",
          "type": "uint256"
        }
      ],
      "name": "withdrawalRequests",
      "outputs": [
        {
          "internalType": "uint32",
          "name": "withdrawableBlockNumber",
          "type": "uint32"
        },
        {
          "internalType": "uint128",
          "name": "amount",
          "type": "uint128"
        },
        {
          "internalType": "bool",
          "name": "processed",
          "type": "bool"
        }
      ],
      "stateMutability": "view",
      "type": "function"
    }
  ],
  "bytecode": "0x60806040526006805460ff1916600117905534801561001d57600080fd5b506146b48061002d6000396000f3fe608060405234801561001057600080fd5b50600436106103c55760003560e01c806375829def116101ff578063a0b2a9131161011a578063b969fbef116100ad578063d547741f1161007c578063d547741f14610b49578063df2b429014610b5c578063ec110d4514610b6f578063edcc217714610b8257600080fd5b8063b969fbef14610af6578063b9cab97114610afe578063cc48b94714610b1e578063d07918f114610b3657600080fd5b8063aa9224cd116100e9578063aa9224cd14610a84578063b413b37a14610a97578063b6a2f99d14610a9f578063b911135f14610acd57600080fd5b8063a0b2a91314610a36578063a217fddf14610a56578063a2dc9e0214610a5e578063a4c735ef14610a7157600080fd5b80638c71762d1161019257806391d148541161016157806391d148541461097457806394c89b2c146109ab5780639c2f614f146109be5780639c656e26146109d157600080fd5b80638c71762d146108db5780638d1f3d0a146109105780638d99e1ca146109235780638ddd87fe1461093657600080fd5b80637d211a1c116101ce5780637d211a1c146108395780637ec6840f1461084c5780638afec9fc1461085f5780638c6f1b391461088557600080fd5b806375829def146107c157806375b238fc146107d45780637c356816146107fb5780637cf1587c1461080e57600080fd5b806346bcdb49116102ef57806360254e33116102825780637048027511610251578063704802751461076857806370619cf91461077b57806373469a7a1461079b578063744a3561146107ae57600080fd5b806360254e33146106e957806363a8fd89146106fc578063659ab820146107095780636d1ef1031461072957600080fd5b8063550d01a3116102be578063550d01a3146106185780635d0c7b2b1461063b5780635e2cfe451461064e5780635f1b989e1461067957600080fd5b806346bcdb49146105c95780634de131ca146105d15780634e1a264d146105e657806350d2a276146105ef57600080fd5b80631f760d01116103675780632f2ff15d116103365780632f2ff15d1461057d57806336568abe1461059057806341e5dbe8146105a35780634273ca16146105b657600080fd5b80631f760d01146104e15780632298524614610520578063248a9ca31461054757806324d7806c1461056a57600080fd5b8063118e29d1116103a3578063118e29d11461044657806316b5d5bd1461045b5780631785f53c146104865780631ed944951461049957600080fd5b80630116cc65146103ca57806301ffc9a7146103f05780630b8931cb14610413575b600080fd5b6103dd6103d8366004613e15565b610b95565b6040519081526020015b60405180910390f35b6104036103fe366004613e30565b610bc6565b60405190151581526020016103e7565b610426610421366004613e15565b610bfd565b604080516001600160a01b039384168152929091166020830152016103e7565b610459610454366004613e15565b610ca3565b005b60085461046e906001600160a01b031681565b6040516001600160a01b0390911681526020016103e7565b610459610494366004613e6f565b610d18565b6104ac6104a7366004613e8c565b610da5565b6040516103e7919081518152602080830151908201526040808301519082015260609182015115159181019190915260800190565b6104f46104ef366004613e8c565b610e37565b6040805194855263ffffffff9384166020860152918316918401919091521660608201526080016103e7565b6103dd7ffb5864e8ff833c3cb2d2d08505e82ff02a43554c74a35d4f5a64e8526127831181565b6103dd610555366004613ec3565b60009081526020819052604090206001015490565b610403610578366004613e6f565b610f75565b61045961058b366004613edc565b610fb5565b61045961059e366004613edc565b610fdf565b6103dd6105b1366004613e15565b611067565b6104036105c4366004613f01565b611140565b6013546103dd565b6105d9611297565b6040516103e79190613fa0565b6103dd600a5481565b61046e6105fd366004613e30565b6004602052600090815260409020546001600160a01b031681565b610403610626366004613e6f565b60036020526000908152604090205460ff1681565b61046e610649366004613e6f565b6112f9565b6103dd61065c366004613e8c565b600f60209081526000928352604080842090915290825290205481565b6103dd610687366004613e8c565b63ffffffff9091166000908152600c602090815260408083206001600160a01b0390941683529281529082902082516080810184528154815260018201549281019290925260028101549282018390526003015460ff16151560609091015290565b6104036106f7366004613fed565b6113c0565b6001546104039060ff1681565b61071c610717366004613e15565b611582565b6040516103e7919061407c565b61073c610737366004613fed565b61161c565b6040805163ffffffff90941684526001600160801b0390921660208401521515908201526060016103e7565b610459610776366004613e6f565b61167b565b6103dd610789366004613e15565b600b6020526000908152604090205481565b60075461046e906001600160a01b031681565b6104596107bc36600461408f565b611705565b6104596107cf366004613e6f565b611770565b6103dd7fdf8b4c520ffe197c5343c6f5aec59570151ef9a492f2c624fd45ddde6135ec4281565b6104036108093660046140b9565b6118d2565b6103dd61081c366004613e8c565b600e60209081526000928352604080842090915290825290205481565b610403610847366004613e15565b611b66565b61045961085a36600461408f565b611c24565b6103dd61086d366004613e15565b63ffffffff166000908152600b602052604090205490565b610898610893366004613e15565b611c7d565b6040516103e7919081516001600160a01b039081168252602080840151821690830152604080840151821690830152606092830151169181019190915260800190565b6108ee6108e9366004613e8c565b611d28565b6040805193845263ffffffff92831660208501529116908201526060016103e7565b61046e61091e366004613e15565b611e65565b6103dd610931366004613e15565b612015565b6103dd610944366004613e8c565b63ffffffff82166000908152600f602090815260408083206001600160a01b038516845290915290205492915050565b610403610982366004613edc565b6000918252602082815260408084206001600160a01b0393909316845291905290205460ff1690565b6103dd6109b9366004613e8c565b612088565b6104596109cc36600461408f565b61215b565b610a146109df366004613e8c565b600c60209081526000928352604080842090915290825290208054600182015460028301546003909301549192909160ff1684565b60408051948552602085019390935291830152151560608201526080016103e7565b6103dd610a44366004613e6f565b60116020526000908152604090205481565b6103dd600081565b61046e610a6c366004613e6f565b6121e5565b61046e610a7f366004613e6f565b612257565b610459610a92366004613e15565b6122b4565b600a546103dd565b610ab2610aad366004613e8c565b6126c9565b604080519384526020840192909252908201526060016103e7565b61046e610adb366004613ec3565b6002602052600090815260409020546001600160a01b031681565b6103dd612724565b6103dd610b0c366004613e15565b60106020526000908152604090205481565b60065461046e9061010090046001600160a01b031681565b60095461046e906001600160a01b031681565b610459610b57366004613edc565b612797565b610403610b6a36600461414f565b6127bc565b61046e610b7d366004613ec3565b612902565b6103dd610b903660046141f5565b61292c565b63ffffffff81166000908152601260205260408082209051610bb79190614247565b60405180910390209050919050565b60006001600160e01b03198216637965db0b60e01b1480610bf757506301ffc9a760e01b6001600160e01b03198316145b92915050565b63ffffffff8116600090815260126020526040808220905163186ca86f60e21b81528291829173__$35081dc60fc26376aafbbba403b8b17c43$__916361b2a1bc91610c4c91906004016142bd565b608060405180830381865af4158015610c69573d6000803e3d6000fd5b505050506040513d601f19601f82011682018060405250810190610c8d9190614348565b9050806020015181604001519250925050915091565b63ffffffff81166000908152600e602090815260408083203380855292529091205490610cd49083908360016129df565b610d145760405162461bcd60e51b815260206004820152600c60248201526b534c5f455f52455354414b4560a01b60448201526064015b60405180910390fd5b5050565b610d2133610f75565b610d785760405162461bcd60e51b815260206004820152602260248201527f41636365737369626c653a2043616c6c6572206973206e6f7420616e2061646d60448201526134b760f11b6064820152608401610d0b565b610da27fdf8b4c520ffe197c5343c6f5aec59570151ef9a492f2c624fd45ddde6135ec4282610fdf565b50565b610dd260405180608001604052806000815260200160008152602001600081526020016000151581525090565b5063ffffffff9091166000908152600c602090815260408083206001600160a01b0390941683529281529082902082516080810184528154815260018201549281019290925260028101549282019290925260039091015460ff161515606082015290565b63ffffffff8083166000818152600d602090815260408083206001600160a01b03871680855290835281842054948452600e835281842090845290915281205490929091839182919084165b81811015610f6a5763ffffffff88166000908152600d602090815260408083206001600160a01b038b1684529091528120805483908110610ec657610ec66143cd565b6000918252602080832060408051606081018252939091015463ffffffff8116845264010000000081046001600160801b031692840192909252600160a01b90910460ff1615159082018190529092509003610f57578363ffffffff16600003610f2f57805193505b6020810151610f47906001600160801b0316886143f9565b9650610f5460018661440c565b94505b5080610f6281614430565b915050610e83565b505092959194509250565b6001600160a01b03811660009081527f5cbfc8ee58ca47855df7bcf648dd304ddb6b932f9b87878bdf6318d7ec7ee5b7602052604081205460ff16610bf7565b600082815260208190526040902060010154610fd081612e8c565b610fda8383612e96565b505050565b6001600160a01b038116331461105d5760405162461bcd60e51b815260206004820152602f60248201527f416363657373436f6e74726f6c3a2063616e206f6e6c792072656e6f756e636560448201527f20726f6c657320666f722073656c6600000000000000000000000000000000006064820152608401610d0b565b610d148282612f34565b60008061107383611c7d565b905061108281600001516121e5565b60065460608301516040516347b00fb360e11b81526001600160a01b03610100909304831660048201529082166024820152911690638f601f6690604401602060405180830381865afa9250505080156110f9575060408051601f3d908101601f191682019092526110f691810190614449565b60015b611137573d808015611127576040519150601f19603f3d011682016040523d82523d6000602084013e61112c565b606091505b50600092505061113a565b91505b50919050565b60065460009061010090046001600160a01b031633146111875760405162461bcd60e51b8152602060048201526002602482015261454160f01b6044820152606401610d0b565b6111ce610847600085858080601f0160208091040260200160405190810160405280939291908181526020018383808284376000920191909152509293925050612fb39050565b6112115760405162461bcd60e51b81526020600482015260146024820152733737b716b932b3b4b9ba32b932b2103630bcb2b960611b6044820152606401610d0b565b6000611257600085858080601f0160208091040260200160405190810160405280939291908181526020018383808284376000920191909152509293925050612fb39050565b9050841561127c5760065461127c9061010090046001600160a01b0316883088613073565b61128a818887600080613197565b5060019695505050505050565b606060138054806020026020016040519081016040528092919081815260200182805480156112ef57602002820191906000526020600020905b81546001600160a01b031681526001909101906020018083116112d1575b5050505050905090565b60405163bf40fac160e01b815260206004820152600d60248201526c27ab26afa9b2b8bab2b731b2b960991b60448201526000906001600160a01b0383169063bf40fac1906064015b602060405180830381865afa92505050801561137b575060408051601f3d908101601f1916820190925261137891810190614462565b60015b6113b8573d8080156113a9576040519150601f19603f3d011682016040523d82523d6000602084013e6113ae565b606091505b5060009392505050565b90505b919050565b6009546000906001600160a01b0316331461140d5760405162461bcd60e51b815260206004820152600d60248201526c232bafa1a0a62622a92fa2a92960991b6044820152606401610d0b565b600754604051636a2fb1f560e01b8152600481018490526000916001600160a01b031690636a2fb1f590602401602060405180830381865afa158015611457573d6000803e3d6000fd5b505050506040513d601f19601f8201168201806040525081019061147b9190614449565b63ffffffff86166000908152600b60205260408120805492935083929091906114a59084906143f9565b9250508190555080600a60008282546114be91906143f9565b909155505063ffffffff85166000908152600c602090815260408083206001600160a01b038816845290915281208054909185918391906115009084906143f9565b925050819055508181600201600082825461151b91906143f9565b90915550506040805163ffffffff881681526001600160a01b0387166020820152908101859052606081018390527fd5f2b548f2958cb2c0fb52f3e60e93ae5d5bece5191c580d1912068409ab92479060800160405180910390a150600195945050505050565b6012602052600090815260409020805461159b90614213565b80601f01602080910402602001604051908101604052809291908181526020018280546115c790614213565b80156116145780601f106115e957610100808354040283529160200191611614565b820191906000526020600020905b8154815290600101906020018083116115f757829003601f168201915b505050505081565b600d602052826000526040600020602052816000526040600020818154811061164457600080fd5b60009182526020909120015463ffffffff8116935064010000000081046001600160801b03169250600160a01b900460ff16905083565b61168433610f75565b6116db5760405162461bcd60e51b815260206004820152602260248201527f41636365737369626c653a2043616c6c6572206973206e6f7420616e2061646d60448201526134b760f11b6064820152608401610d0b565b610da27fdf8b4c520ffe197c5343c6f5aec59570151ef9a492f2c624fd45ddde6135ec4282610fb5565b63ffffffff82166000908152600e60209081526040808320338085529252909120549061173590849083856129df565b610fda5760405162461bcd60e51b815260206004820152600c60248201526b534c5f455f52455354414b4560a01b6044820152606401610d0b565b61177933610f75565b6117d05760405162461bcd60e51b815260206004820152602260248201527f41636365737369626c653a2043616c6c6572206973206e6f7420616e2061646d60448201526134b760f11b6064820152608401610d0b565b6001600160a01b0381166118265760405162461bcd60e51b815260206004820152601860248201527f41636365737369626c653a207a65726f206164647265737300000000000000006044820152606401610d0b565b6001600160a01b038116330361187e5760405162461bcd60e51b815260206004820152601660248201527f41636365737369626c653a2073616d652061646d696e000000000000000000006044820152606401610d0b565b6118a87fdf8b4c520ffe197c5343c6f5aec59570151ef9a492f2c624fd45ddde6135ec4282610fb5565b610da27fdf8b4c520ffe197c5343c6f5aec59570151ef9a492f2c624fd45ddde6135ec4233610fdf565b60065460009060ff166119105760405162461bcd60e51b8152600401610d0b906020808252600490820152636c6f636b60e01b604082015260600190565b6006805460ff191690556009546001600160a01b031633146119645760405162461bcd60e51b815260206004820152600d60248201526c232bafa1a0a62622a92fa2a92960991b6044820152606401610d0b565b8161196f8686612088565b10156119bd5760405162461bcd60e51b815260206004820152601960248201527f6c697175696469747920697320696e73756666696369656e74000000000000006044820152606401610d0b565b6006546040516370a0823160e01b815230600482015260009161010090046001600160a01b0316906370a0823190602401602060405180830381865afa158015611a0b573d6000803e3d6000fd5b505050506040513d601f19601f82011682018060405250810190611a2f9190614449565b905082811015611ada578015611a5b57600654611a5b9061010090046001600160a01b0316858361358b565b6007546001600160a01b031663aad3ec9685611a77848761447f565b6040516001600160e01b031960e085901b1681526001600160a01b0390921660048301526024820152604401600060405180830381600087803b158015611abd57600080fd5b505af1158015611ad1573d6000803e3d6000fd5b50505050611af6565b600654611af69061010090046001600160a01b0316858561358b565b6040805163ffffffff881681526001600160a01b0387811660208301528616818301526060810185905290517f1300548f98fb4f42be29e3431413715ef6ef84ba22e8eb7717bfb05164cfdd9f9181900360800190a160019150506006805460ff19166001179055949350505050565b60085460405163370f791d60e11b815263ffffffff831660048201526000916001600160a01b031690636e1ef23a90602401602060405180830381865afa158015611bb5573d6000803e3d6000fd5b505050506040513d601f19601f82011682018060405250810190611bd99190614492565b611c1c5760405162461bcd60e51b81526020600482015260146024820152733737b716b932b3b4b9ba32b932b2103630bcb2b960611b6044820152606401610d0b565b506001919050565b611c2d82611b66565b611c705760405162461bcd60e51b81526020600482015260146024820152733737b716b932b3b4b9ba32b932b2103630bcb2b960611b6044820152606401610d0b565b610d1482826000806136a6565b60408051608081018252600080825260208083018290528284018290526060830182905263ffffffff8516825260129052829020915163186ca86f60e21b8152909173__$35081dc60fc26376aafbbba403b8b17c43$__916361b2a1bc91611ce7916004016142bd565b608060405180830381865af4158015611d04573d6000803e3d6000fd5b505050506040513d601f19601f82011682018060405250810190610bf79190614348565b63ffffffff8083166000818152600d602090815260408083206001600160a01b03871680855290835281842054948452600e835281842090845290915281205490929091839183165b81811015611e5c5763ffffffff87166000908152600d602090815260408083206001600160a01b038a1684529091528120805483908110611db457611db46143cd565b600091825260209182902060408051606081018252929091015463ffffffff811680845264010000000082046001600160801b031694840194909452600160a01b900460ff16151590820152915043118015611e1257506040810151155b15611e43576020810151611e2f906001600160801b0316876143f9565b9550611e3c60018561440c565b9350611e49565b50611e5c565b5080611e5481614430565b915050611d71565b50509250925092565b63ffffffff811660009081526012602052604080822090516379a0c08760e11b8152829173__$35081dc60fc26376aafbbba403b8b17c43$__9163f341810e91611eb1916004016142bd565b602060405180830381865af4158015611ece573d6000803e3d6000fd5b505050506040513d601f19601f82011682018060405250810190611ef29190614462565b90506001600160a01b038116611f0b5750600092915050565b63ffffffff83166000908152601260205260409081902090516379a0c08760e11b815273__$35081dc60fc26376aafbbba403b8b17c43$__9163f341810e91611f5791906004016142bd565b602060405180830381865af4158015611f74573d6000803e3d6000fd5b505050506040513d601f19601f82011682018060405250810190611f989190614462565b60405163bf40fac160e01b815260206004820152600d60248201526c27ab26afa9b2b8bab2b731b2b960991b60448201526001600160a01b03919091169063bf40fac190606401602060405180830381865afa9250505080156110f9575060408051601f3d908101601f191682019092526110f691810190614462565b6008546040516346ccf0e560e11b815263ffffffff831660048201526000916001600160a01b031690638d99e1ca90602401602060405180830381865afa158015612064573d6000803e3d6000fd5b505050506040513d601f19601f82011682018060405250810190610bf79190614449565b60075463ffffffff83166000908152600c602090815260408083206001600160a01b03868116855290835281842082516080810184528154815260018201549481019490945260028101549284018390526003015460ff1615156060909301929092529192169063cdf68009906040518263ffffffff1660e01b815260040161211391815260200190565b602060405180830381865afa158015612130573d6000803e3d6000fd5b505050506040513d601f19601f820116820180604052508101906121549190614449565b9392505050565b600954604051630265991f60e61b81526000600482015263ffffffff84166024820152336044820152610d1491849184916001600160a01b03169063996647c090606401602060405180830381865afa1580156121bc573d6000803e3d6000fd5b505050506040513d601f19601f820116820180604052508101906121e09190614449565b6136d6565b60006001600160a01b0382166121fd57506000919050565b60405163bf40fac160e01b815260206004820152601b60248201527f50726f78795f5f4f564d5f4c315374616e64617264427269646765000000000060448201526001600160a01b0383169063bf40fac190606401611342565b60405163bf40fac160e01b815260206004820152601a60248201527f4f564d5f4c3143726f7373446f6d61696e4d657373656e67657200000000000060448201526000906001600160a01b0383169063bf40fac190606401611342565b60065460ff166122ef5760405162461bcd60e51b8152600401610d0b906020808252600490820152636c6f636b60e01b604082015260600190565b6006805460ff1916905563ffffffff81166000818152600d602090815260408083203380855290835281842054948452600e83528184208185529092528220549092919081905b838110156124085763ffffffff86166000908152600d602090815260408083206001600160a01b03891684529091528120805483908110612379576123796143cd565b600091825260209091200180549091504363ffffffff9091161080156123a857508054600160a01b900460ff16155b156123ef57805460ff60a01b1916600160a01b178082556123db906001600160801b0364010000000090910416846143f9565b9250836123e781614430565b9450506123f5565b50612408565b508061240081614430565b915050612336565b50600081116124595760405162461bcd60e51b815260206004820181905260248201527f7a65726f20617661696c61626c65207769746864726177616c20616d6f756e746044820152606401610d0b565b63ffffffff85166000908152600e602090815260408083206001600160a01b0388168452909152812080548492906124929084906143f9565b909155505063ffffffff85166000908152600f602090815260408083206001600160a01b0388168452909152812080548392906124d090849061447f565b909155505063ffffffff8516600090815260106020526040812080548392906124fa90849061447f565b90915550506001600160a01b0384166000908152601160205260408120805483929061252790849061447f565b90915550506006546040516370a0823160e01b815230600482015260009161010090046001600160a01b0316906370a0823190602401602060405180830381865afa15801561257a573d6000803e3d6000fd5b505050506040513d601f19601f8201168201806040525081019061259e9190614449565b9050818110156126495780156125ca576006546125ca9061010090046001600160a01b0316868361358b565b6007546001600160a01b031663aad3ec96866125e6848661447f565b6040516001600160e01b031960e085901b1681526001600160a01b0390921660048301526024820152604401600060405180830381600087803b15801561262c57600080fd5b505af1158015612640573d6000803e3d6000fd5b50505050612665565b6006546126659061010090046001600160a01b0316868461358b565b6040805163ffffffff881681526001600160a01b03871660208201529081018390527f2d6eb139d2002caa088da5527d9d62f2f23bdf4504f5559a112535c436c6ee599060600160405180910390a150506006805460ff1916600117905550505050565b63ffffffff82166000818152600d602090815260408083206001600160a01b03861680855290835281842054948452600e83528184209084529091528120549081831061271d5761271a828461447f565b90505b9250925092565b6008546040805163b969fbef60e01b815290516000926001600160a01b03169163b969fbef9160048083019260209291908290030181865afa15801561276e573d6000803e3d6000fd5b505050506040513d601f19601f820116820180604052508101906127929190614449565b905090565b6000828152602081905260409020600101546127b281612e8c565b610fda8383612f34565b6008546000906001600160a01b031633146128195760405162461bcd60e51b815260206004820152601160248201527f6e6f74204c61796572324d616e616765720000000000000000000000000000006044820152606401610d0b565b815160501461286a5760405162461bcd60e51b815260206004820152600f60248201527f77726f6e67206c61796572496e666f00000000000000000000000000000000006044820152606401610d0b565b63ffffffff83166000908152601260205260409020805461288a90614213565b1590506128d95760405162461bcd60e51b815260206004820152600f60248201527f616c7265616479206372656174656400000000000000000000000000000000006044820152606401610d0b565b63ffffffff831660009081526012602052604090206128f883826144fa565b5060019392505050565b6013818154811061291257600080fd5b6000918252602090912001546001600160a01b0316905081565b6006546040516347b00fb360e11b81526001600160a01b03610100909204821660048201528282166024820152600091841690638f601f6690604401602060405180830381865afa9250505080156129a1575060408051601f3d908101601f1916820190925261299e91810190614449565b60015b612154573d8080156129cf576040519150601f19603f3d011682016040523d82523d6000602084013e6129d4565b606091505b506000915050610bf7565b60065460009060ff16612a1d5760405162461bcd60e51b8152600401610d0b906020808252600490820152636c6f636b60e01b604082015260600190565b6006805460ff1916905563ffffffff85166000908152600d602090815260408083206001600160a01b038816845290915281205480612a8b5760405162461bcd60e51b815260206004820152600a6024820152696e6f20756e7374616b6560b01b6044820152606401610d0b565b83612a96868361447f565b1015612ae45760405162461bcd60e51b815260206004820152601860248201527f6e2065786365656473206e756d206f662070656e64696e6700000000000000006044820152606401610d0b565b6000612af085876143f9565b90505b80861015612be65763ffffffff88166000908152600d602090815260408083206001600160a01b038b1684529091528120805488908110612b3657612b366143cd565b6000918252602090912001805490915064010000000081046001600160801b031690600160a01b900460ff1615612baf5760405162461bcd60e51b815260206004820152601260248201527f616c7265616479207769746864726177616c00000000000000000000000000006044820152606401610d0b565b8015612bc257612bbf81866143f9565b94505b50805460ff60a01b1916600160a01b17905585612bde81614430565b965050612af3565b60008311612c365760405162461bcd60e51b815260206004820152601760248201527f6e6f2076616c69642072657374616b6520616d6f756e740000000000000000006044820152606401610d0b565b600754604051636a2fb1f560e01b8152600481018590526000916001600160a01b031690636a2fb1f590602401602060405180830381865afa158015612c80573d6000803e3d6000fd5b505050506040513d601f19601f82011682018060405250810190612ca49190614449565b63ffffffff8a166000908152600c602090815260408083206001600160a01b038d168452909152812080549293509186918391612ce29084906143f9565b9250508190555081816002016000828254612cfd91906143f9565b909155505063ffffffff8a166000908152600b602052604081208054849290612d279084906143f9565b9250508190555081600a6000828254612d4091906143f9565b909155505063ffffffff8a166000908152600f602090815260408083206001600160a01b038d16845290915281208054879290612d7e90849061447f565b909155505063ffffffff8a1660009081526010602052604081208054879290612da890849061447f565b90915550506001600160a01b03891660009081526011602052604081208054879290612dd590849061447f565b909155505063ffffffff8a166000908152600e602090815260408083206001600160a01b038d16845290915281208054899290612e139084906143f9565b90915550506040805163ffffffff8c1681526001600160a01b038b166020820152908101869052606081018390527f34981dc0486069d2abbaddbc42e10b97cb24e4bce60ee4457e1d5062dfc0b4299060800160405180910390a16001955050505050506006805460ff19166001179055949350505050565b610da28133613bd3565b6000828152602081815260408083206001600160a01b038516845290915290205460ff16610d14576000828152602081815260408083206001600160a01b03851684529091529020805460ff19166001179055612ef03390565b6001600160a01b0316816001600160a01b0316837f2f8788117e7eff1d82e926ec794901d17c78024a50270940304540a733656f0d60405160405180910390a45050565b6000828152602081815260408083206001600160a01b038516845290915290205460ff1615610d14576000828152602081815260408083206001600160a01b0385168085529252808320805460ff1916905551339285917ff6391f5c32d9c69d2a47ea670b442974b53935d1edc7fd64eb21e047a839171b9190a45050565b600081612fc18160046143f9565b101561300f5760405162461bcd60e51b815260206004820152601160248201527f746f55696e7433325f6f766572666c6f770000000000000000000000000000006044820152606401610d0b565b61301a8260046143f9565b8351101561306a5760405162461bcd60e51b815260206004820152601460248201527f746f55696e7433325f6f75744f66426f756e64730000000000000000000000006044820152606401610d0b565b50016004015190565b604080516001600160a01b0385811660248301528481166044830152606480830185905283518084039091018152608490920183526020820180516001600160e01b03166323b872dd60e01b17905291516000928392908816916130d791906145ba565b6000604051808303816000865af19150503d8060008114613114576040519150601f19603f3d011682016040523d82523d6000602084013e613119565b606091505b50915091508180156131435750805115806131435750808060200190518101906131439190614492565b61318f5760405162461bcd60e51b815260206004820152601460248201527f5452414e534645525f46524f4d5f4641494c45440000000000000000000000006044820152606401610d0b565b505050505050565b60065460ff166131d25760405162461bcd60e51b8152600401610d0b906020808252600490820152636c6f636b60e01b604082015260600190565b6006805460ff191690558260008190036132135760405162461bcd60e51b81526020600482015260026024820152615a3160f01b6044820152606401610d0b565b600754604051636a2fb1f560e01b8152600481018690526000916001600160a01b031690636a2fb1f590602401602060405180830381865afa15801561325d573d6000803e3d6000fd5b505050506040513d601f19601f820116820180604052508101906132819190614449565b63ffffffff88166000908152600b60205260408120805492935083929091906132ab9084906143f9565b9250508190555080600a60008282546132c491906143f9565b909155505063ffffffff87166000908152600c602090815260408083206001600160a01b038a1684529091529020600381015460ff1661336657600381018054600160ff1990911681179091556013805491820181556000527f66de8ffda797e3de9c05e8fc57b3bf0ec28a930d40b0d285d93c06501cf6a09001805473ffffffffffffffffffffffffffffffffffffffff19166001600160a01b0389161790555b600061ffff85161580159061338357506001600160a01b03861615155b801561339457506127108561ffff16105b156134d7576127106133aa61ffff8716856145d6565b6133b491906145ed565b90506133c0818461447f565b60075460405163cdf6800960e01b8152600481018390529194506000916001600160a01b039091169063cdf6800990602401602060405180830381865afa15801561340f573d6000803e3d6000fd5b505050506040513d601f19601f820116820180604052508101906134339190614449565b90508083600001600082825461344991906143f9565b925050819055508383600201600082825461346491906143f9565b909155505063ffffffff8a166000908152600c602090815260408083206001600160a01b038b168452909152902061349c828a61447f565b8160000160008282546134af91906143f9565b92505081905550828160020160008282546134ca91906143f9565b9091555061350c92505050565b868260000160008282546134eb91906143f9565b925050819055508282600201600082825461350691906143f9565b90915550505b6040805163ffffffff8b1681526001600160a01b038a811660208301528183018a9052606082018690528816608082015261ffff871660a082015290517f318dab784577ac2e7d86f88c3f2a80520b447b822b8a756158648e0f917d16a09181900360c00190a150506006805460ff1916600117905550505050505050565b604080516001600160a01b038481166024830152604480830185905283518084039091018152606490920183526020820180516001600160e01b031663a9059cbb60e01b17905291516000928392908716916135e791906145ba565b6000604051808303816000865af19150503d8060008114613624576040519150601f19603f3d011682016040523d82523d6000602084013e613629565b606091505b50915091508180156136535750805115806136535750808060200190518101906136539190614492565b61369f5760405162461bcd60e51b815260206004820152600f60248201527f5452414e534645525f4641494c454400000000000000000000000000000000006044820152606401610d0b565b5050505050565b6006546136c39061010090046001600160a01b0316333086613073565b6136d08433858585613197565b50505050565b60065460ff166137115760405162461bcd60e51b8152600401610d0b906020808252600490820152636c6f636b60e01b604082015260600190565b6006805460ff191690558160008190036137525760405162461bcd60e51b81526020600482015260026024820152615a3160f01b6044820152606401610d0b565b60075460405163cdf6800960e01b81526004810185905233916000916001600160a01b039091169063cdf6800990602401602060405180830381865afa1580156137a0573d6000803e3d6000fd5b505050506040513d601f19601f820116820180604052508101906137c49190614449565b63ffffffff87166000908152600c602090815260408083206001600160a01b0387168452909152902090915084156138c5576002810154600754604051636a2fb1f560e01b8152600481018890526001600160a01b0390911690636a2fb1f590602401602060405180830381865afa158015613844573d6000803e3d6000fd5b505050506040513d601f19601f820116820180604052508101906138689190614449565b61387290886143f9565b11156138c05760405162461bcd60e51b815260206004820152600d60248201527f756e7374616b655f6572725f31000000000000000000000000000000000000006044820152606401610d0b565b613919565b80600201548611156139195760405162461bcd60e51b815260206004820152600d60248201527f756e7374616b655f6572725f32000000000000000000000000000000000000006044820152606401610d0b565b8581600201600082825461392d919061447f565b90915550508054821115613944576000815561395e565b81816000016000828254613958919061447f565b90915550505b63ffffffff87166000908152600b60205260408120805488929061398390849061447f565b9250508190555085600a600082825461399c919061447f565b909155505060085460408051636577b27360e11b815290516000926001600160a01b03169163caef64e69160048083019260209291908290030181865afa1580156139eb573d6000803e3d6000fd5b505050506040513d601f19601f82011682018060405250810190613a0f9190614449565b63ffffffff89166000908152600d602090815260408083206001600160a01b03891684529091529081902081516060810190925291925080613a5184436143f9565b63ffffffff90811682526001600160801b0380881660208085019190915260006040948501819052865460018101885596815281812086519701805487840151978701511515600160a01b0260ff60a01b19989095166401000000000273ffffffffffffffffffffffffffffffffffffffff19909116988616989098179790971795909516919091179094558b168252600f83528082206001600160a01b03881683529092529081208054859290613b0a9084906143f9565b909155505063ffffffff881660009081526010602052604081208054859290613b349084906143f9565b90915550506001600160a01b03841660009081526011602052604081208054859290613b619084906143f9565b90915550506040805163ffffffff8a1681526001600160a01b0386166020820152908101849052606081018890527f869a01319d83bb921803a22e3e95d0cb8b08e708d3fb144e2c25a563bf8650d39060800160405180910390a150506006805460ff19166001179055505050505050565b6000828152602081815260408083206001600160a01b038516845290915290205460ff16610d1457613c0481613c46565b613c0f836020613c58565b604051602001613c2092919061460f565b60408051601f198184030181529082905262461bcd60e51b8252610d0b9160040161407c565b6060610bf76001600160a01b03831660145b60606000613c678360026145d6565b613c729060026143f9565b67ffffffffffffffff811115613c8a57613c8a614108565b6040519080825280601f01601f191660200182016040528015613cb4576020820181803683370190505b509050600360fc1b81600081518110613ccf57613ccf6143cd565b60200101906001600160f81b031916908160001a905350600f60fb1b81600181518110613cfe57613cfe6143cd565b60200101906001600160f81b031916908160001a9053506000613d228460026145d6565b613d2d9060016143f9565b90505b6001811115613db2577f303132333435363738396162636465660000000000000000000000000000000085600f1660108110613d6e57613d6e6143cd565b1a60f81b828281518110613d8457613d846143cd565b60200101906001600160f81b031916908160001a90535060049490941c93613dab81614690565b9050613d30565b5083156121545760405162461bcd60e51b815260206004820181905260248201527f537472696e67733a20686578206c656e67746820696e73756666696369656e746044820152606401610d0b565b803563ffffffff811681146113bb57600080fd5b600060208284031215613e2757600080fd5b61215482613e01565b600060208284031215613e4257600080fd5b81356001600160e01b03198116811461215457600080fd5b6001600160a01b0381168114610da257600080fd5b600060208284031215613e8157600080fd5b813561215481613e5a565b60008060408385031215613e9f57600080fd5b613ea883613e01565b91506020830135613eb881613e5a565b809150509250929050565b600060208284031215613ed557600080fd5b5035919050565b60008060408385031215613eef57600080fd5b823591506020830135613eb881613e5a565b600080600080600060808688031215613f1957600080fd5b8535613f2481613e5a565b94506020860135613f3481613e5a565b935060408601359250606086013567ffffffffffffffff80821115613f5857600080fd5b818801915088601f830112613f6c57600080fd5b813581811115613f7b57600080fd5b896020828501011115613f8d57600080fd5b9699959850939650602001949392505050565b6020808252825182820181905260009190848201906040850190845b81811015613fe15783516001600160a01b031683529284019291840191600101613fbc565b50909695505050505050565b60008060006060848603121561400257600080fd5b61400b84613e01565b9250602084013561401b81613e5a565b929592945050506040919091013590565b60005b8381101561404757818101518382015260200161402f565b50506000910152565b6000815180845261406881602086016020860161402c565b601f01601f19169290920160200192915050565b6020815260006121546020830184614050565b600080604083850312156140a257600080fd5b6140ab83613e01565b946020939093013593505050565b600080600080608085870312156140cf57600080fd5b6140d885613e01565b935060208501356140e881613e5a565b925060408501356140f881613e5a565b9396929550929360600135925050565b634e487b7160e01b600052604160045260246000fd5b604051601f8201601f1916810167ffffffffffffffff8111828210171561414757614147614108565b604052919050565b6000806040838503121561416257600080fd5b61416b83613e01565b915060208084013567ffffffffffffffff8082111561418957600080fd5b818601915086601f83011261419d57600080fd5b8135818111156141af576141af614108565b6141c1601f8201601f1916850161411e565b915080825287848285010111156141d757600080fd5b80848401858401376000848284010152508093505050509250929050565b6000806040838503121561420857600080fd5b8235613ea881613e5a565b600181811c9082168061422757607f821691505b60208210810361113a57634e487b7160e01b600052602260045260246000fd5b600080835461425581614213565b6001828116801561426d5760018114614282576142b1565b60ff19841687528215158302870194506142b1565b8760005260208060002060005b858110156142a85781548a82015290840190820161428f565b50505082870194505b50929695505050505050565b60006020808352600084546142d181614213565b808487015260406001808416600081146142f2576001811461430c5761433a565b60ff1985168984015283151560051b89018301955061433a565b896000528660002060005b858110156143325781548b8201860152908301908801614317565b8a0184019650505b509398975050505050505050565b60006080828403121561435a57600080fd5b6040516080810181811067ffffffffffffffff8211171561437d5761437d614108565b604052825161438b81613e5a565b8152602083015161439b81613e5a565b602082015260408301516143ae81613e5a565b604082015260608301516143c181613e5a565b60608201529392505050565b634e487b7160e01b600052603260045260246000fd5b634e487b7160e01b600052601160045260246000fd5b80820180821115610bf757610bf76143e3565b63ffffffff818116838216019080821115614429576144296143e3565b5092915050565b600060018201614442576144426143e3565b5060010190565b60006020828403121561445b57600080fd5b5051919050565b60006020828403121561447457600080fd5b815161215481613e5a565b81810381811115610bf757610bf76143e3565b6000602082840312156144a457600080fd5b8151801515811461215457600080fd5b601f821115610fda57600081815260208120601f850160051c810160208610156144db5750805b601f850160051c820191505b8181101561318f578281556001016144e7565b815167ffffffffffffffff81111561451457614514614108565b614528816145228454614213565b846144b4565b602080601f83116001811461455d57600084156145455750858301515b600019600386901b1c1916600185901b17855561318f565b600085815260208120601f198616915b8281101561458c5788860151825594840194600190910190840161456d565b50858210156145aa5787850151600019600388901b60f8161c191681555b5050505050600190811b01905550565b600082516145cc81846020870161402c565b9190910192915050565b8082028115828204841417610bf757610bf76143e3565b60008261460a57634e487b7160e01b600052601260045260246000fd5b500490565b7f416363657373436f6e74726f6c3a206163636f756e742000000000000000000081526000835161464781601785016020880161402c565b7f206973206d697373696e6720726f6c6520000000000000000000000000000000601791840191820152835161468481602884016020880161402c565b01602801949350505050565b60008161469f5761469f6143e3565b50600019019056fea164736f6c6343000812000a",
  "linkReferences": {
    "contracts/libraries/LibOptimism.sol": {
      "LibOptimism": [
        {
          "length": 20,
          "start": 3154
        },
        {
          "length": 20,
          "start": 7406
        },
        {
          "length": 20,
          "start": 7864
        },
        {
          "length": 20,
          "start": 8029
        }
      ]
    }
  },
  "deployedLinkReferences": {
    "contracts/libraries/LibOptimism.sol": {
      "LibOptimism": [
        {
          "length": 20,
          "start": 3109
        },
        {
          "length": 20,
          "start": 7361
        },
        {
          "length": 20,
          "start": 7819
        },
        {
          "length": 20,
          "start": 7984
        }
      ]
    }
  }
}