{
  "_format": "hh-sol-artifact-1",
  "contractName": "OptimismSequencer",
  "sourceName": "contracts/OptimismSequencer.sol",
  "abi": [
    {
      "inputs": [],
      "stateMutability": "nonpayable",
      "type": "constructor"
    },
    {
      "anonymous": false,
      "inputs": [
        {
          "indexed": false,
          "internalType": "uint32",
          "name": "layerIndex",
          "type": "uint32"
        },
        {
          "indexed": false,
          "internalType": "address",
          "name": "sender",
          "type": "address"
        },
        {
          "indexed": false,
          "internalType": "uint256",
          "name": "amount",
          "type": "uint256"
        },
        {
          "indexed": false,
          "internalType": "uint256",
          "name": "lton",
          "type": "uint256"
        }
      ],
      "name": "Restaked",
      "type": "event"
    },
    {
      "anonymous": false,
      "inputs": [
        {
          "indexed": true,
          "internalType": "bytes32",
          "name": "role",
          "type": "bytes32"
        },
        {
          "indexed": true,
          "internalType": "bytes32",
          "name": "previousAdminRole",
          "type": "bytes32"
        },
        {
          "indexed": true,
          "internalType": "bytes32",
          "name": "newAdminRole",
          "type": "bytes32"
        }
      ],
      "name": "RoleAdminChanged",
      "type": "event"
    },
    {
      "anonymous": false,
      "inputs": [
        {
          "indexed": true,
          "internalType": "bytes32",
          "name": "role",
          "type": "bytes32"
        },
        {
          "indexed": true,
          "internalType": "address",
          "name": "account",
          "type": "address"
        },
        {
          "indexed": true,
          "internalType": "address",
          "name": "sender",
          "type": "address"
        }
      ],
      "name": "RoleGranted",
      "type": "event"
    },
    {
      "anonymous": false,
      "inputs": [
        {
          "indexed": true,
          "internalType": "bytes32",
          "name": "role",
          "type": "bytes32"
        },
        {
          "indexed": true,
          "internalType": "address",
          "name": "account",
          "type": "address"
        },
        {
          "indexed": true,
          "internalType": "address",
          "name": "sender",
          "type": "address"
        }
      ],
      "name": "RoleRevoked",
      "type": "event"
    },
    {
      "anonymous": false,
      "inputs": [
        {
          "indexed": false,
          "internalType": "uint32",
          "name": "layerIndex",
          "type": "uint32"
        },
        {
          "indexed": false,
          "internalType": "address",
          "name": "sender",
          "type": "address"
        },
        {
          "indexed": false,
          "internalType": "uint256",
          "name": "amount",
          "type": "uint256"
        },
        {
          "indexed": false,
          "internalType": "uint256",
          "name": "lton",
          "type": "uint256"
        }
      ],
      "name": "Staked",
      "type": "event"
    },
    {
      "anonymous": false,
      "inputs": [
        {
          "indexed": false,
          "internalType": "uint32",
          "name": "layerIndex",
          "type": "uint32"
        },
        {
          "indexed": false,
          "internalType": "address",
          "name": "sender",
          "type": "address"
        },
        {
          "indexed": false,
          "internalType": "uint256",
          "name": "amount",
          "type": "uint256"
        },
        {
          "indexed": false,
          "internalType": "uint256",
          "name": "lton",
          "type": "uint256"
        }
      ],
      "name": "Unstaked",
      "type": "event"
    },
    {
      "anonymous": false,
      "inputs": [
        {
          "indexed": false,
          "internalType": "uint32",
          "name": "layerIndex",
          "type": "uint32"
        },
        {
          "indexed": false,
          "internalType": "address",
          "name": "sender",
          "type": "address"
        },
        {
          "indexed": false,
          "internalType": "uint256",
          "name": "amount",
          "type": "uint256"
        }
      ],
      "name": "Withdrawal",
      "type": "event"
    },
    {
      "inputs": [],
      "name": "ADMIN_ROLE",
      "outputs": [
        {
          "internalType": "bytes32",
          "name": "",
          "type": "bytes32"
        }
      ],
      "stateMutability": "view",
      "type": "function"
    },
    {
      "inputs": [],
      "name": "DEFAULT_ADMIN_ROLE",
      "outputs": [
        {
          "internalType": "bytes32",
          "name": "",
          "type": "bytes32"
        }
      ],
      "stateMutability": "view",
      "type": "function"
    },
    {
      "inputs": [],
      "name": "POLICY_ROLE",
      "outputs": [
        {
          "internalType": "bytes32",
          "name": "",
          "type": "bytes32"
        }
      ],
      "stateMutability": "view",
      "type": "function"
    },
    {
      "inputs": [
        {
          "internalType": "uint32",
          "name": "",
          "type": "uint32"
        },
        {
          "internalType": "address",
          "name": "",
          "type": "address"
        }
      ],
      "name": "_pendingUnstaked",
      "outputs": [
        {
          "internalType": "uint256",
          "name": "",
          "type": "uint256"
        }
      ],
      "stateMutability": "view",
      "type": "function"
    },
    {
      "inputs": [
        {
          "internalType": "address",
          "name": "",
          "type": "address"
        }
      ],
      "name": "_pendingUnstakedAccount",
      "outputs": [
        {
          "internalType": "uint256",
          "name": "",
          "type": "uint256"
        }
      ],
      "stateMutability": "view",
      "type": "function"
    },
    {
      "inputs": [
        {
          "internalType": "uint32",
          "name": "",
          "type": "uint32"
        }
      ],
      "name": "_pendingUnstakedLayer2",
      "outputs": [
        {
          "internalType": "uint256",
          "name": "",
          "type": "uint256"
        }
      ],
      "stateMutability": "view",
      "type": "function"
    },
    {
      "inputs": [
        {
          "internalType": "address",
          "name": "account",
          "type": "address"
        }
      ],
      "name": "addAdmin",
      "outputs": [],
      "stateMutability": "nonpayable",
      "type": "function"
    },
    {
      "inputs": [
        {
          "internalType": "address",
          "name": "",
          "type": "address"
        }
      ],
      "name": "aliveImplementation",
      "outputs": [
        {
          "internalType": "bool",
          "name": "",
          "type": "bool"
        }
      ],
      "stateMutability": "view",
      "type": "function"
    },
    {
      "inputs": [
        {
          "internalType": "uint32",
          "name": "layerIndex",
          "type": "uint32"
        },
        {
          "internalType": "address",
          "name": "account",
          "type": "address"
        }
      ],
      "name": "amountOfPendings",
      "outputs": [
        {
          "internalType": "uint256",
          "name": "amount",
          "type": "uint256"
        },
        {
          "internalType": "uint32",
          "name": "startIndex",
          "type": "uint32"
        },
        {
          "internalType": "uint32",
          "name": "len",
          "type": "uint32"
        },
        {
          "internalType": "uint32",
          "name": "nextWithdrawableBlockNumber",
          "type": "uint32"
        }
      ],
      "stateMutability": "view",
      "type": "function"
    },
    {
      "inputs": [
        {
          "internalType": "uint32",
          "name": "_index",
          "type": "uint32"
        },
        {
          "internalType": "address",
          "name": "account",
          "type": "address"
        }
      ],
      "name": "availableWithdraw",
      "outputs": [
        {
          "internalType": "uint256",
          "name": "amount",
          "type": "uint256"
        },
        {
          "internalType": "uint32",
          "name": "startIndex",
          "type": "uint32"
        },
        {
          "internalType": "uint32",
          "name": "len",
          "type": "uint32"
        }
      ],
      "stateMutability": "view",
      "type": "function"
    },
    {
      "inputs": [
        {
          "internalType": "uint32",
          "name": "_index",
          "type": "uint32"
        },
        {
          "internalType": "address",
          "name": "account",
          "type": "address"
        }
      ],
      "name": "balanceOf",
      "outputs": [
        {
          "internalType": "uint256",
          "name": "amount",
          "type": "uint256"
        }
      ],
      "stateMutability": "view",
      "type": "function"
    },
    {
      "inputs": [
        {
          "internalType": "uint32",
          "name": "_index",
          "type": "uint32"
        },
        {
          "internalType": "address",
          "name": "account",
          "type": "address"
        }
      ],
      "name": "balanceOfLton",
      "outputs": [
        {
          "internalType": "uint256",
          "name": "amount",
          "type": "uint256"
        }
      ],
      "stateMutability": "view",
      "type": "function"
    },
    {
      "inputs": [
        {
          "internalType": "uint32",
          "name": "_index",
          "type": "uint32"
        }
      ],
      "name": "balanceOfLton",
      "outputs": [
        {
          "internalType": "uint256",
          "name": "amount",
          "type": "uint256"
        }
      ],
      "stateMutability": "view",
      "type": "function"
    },
    {
      "inputs": [
        {
          "internalType": "uint32",
          "name": "_index",
          "type": "uint32"
        },
        {
          "internalType": "bytes",
          "name": "_layerInfo",
          "type": "bytes"
        }
      ],
      "name": "create",
      "outputs": [
        {
          "internalType": "bool",
          "name": "",
          "type": "bool"
        }
      ],
      "stateMutability": "nonpayable",
      "type": "function"
    },
    {
      "inputs": [
        {
          "internalType": "uint32",
          "name": "_index",
          "type": "uint32"
        }
      ],
      "name": "existedIndex",
      "outputs": [
        {
          "internalType": "bool",
          "name": "",
          "type": "bool"
        }
      ],
      "stateMutability": "view",
      "type": "function"
    },
    {
      "inputs": [
        {
          "internalType": "uint32",
          "name": "_index",
          "type": "uint32"
        }
      ],
      "name": "getLayerInfo",
      "outputs": [
        {
          "components": [
            {
              "internalType": "address",
              "name": "addressManager",
              "type": "address"
            },
            {
              "internalType": "address",
              "name": "l1Messenger",
              "type": "address"
            },
            {
              "internalType": "address",
              "name": "l1Bridge",
              "type": "address"
            },
            {
              "internalType": "address",
              "name": "l2ton",
              "type": "address"
            }
          ],
          "internalType": "struct LibOptimism.Info",
          "name": "_layerInfo",
          "type": "tuple"
        }
      ],
      "stateMutability": "view",
      "type": "function"
    },
    {
      "inputs": [
        {
          "internalType": "uint32",
          "name": "_index",
          "type": "uint32"
        }
      ],
      "name": "getLayerKey",
      "outputs": [
        {
          "internalType": "bytes32",
          "name": "layerKey_",
          "type": "bytes32"
        }
      ],
      "stateMutability": "view",
      "type": "function"
    },
    {
      "inputs": [
        {
          "internalType": "uint32",
          "name": "_index",
          "type": "uint32"
        },
        {
          "internalType": "address",
          "name": "account",
          "type": "address"
        }
      ],
      "name": "getLayerStakes",
      "outputs": [
        {
          "components": [
            {
              "internalType": "uint256",
              "name": "stakePrincipal",
              "type": "uint256"
            },
            {
              "internalType": "uint256",
              "name": "bondPrincipal",
              "type": "uint256"
            },
            {
              "internalType": "uint256",
              "name": "stakelton",
              "type": "uint256"
            },
            {
              "internalType": "uint256",
              "name": "bondlton",
              "type": "uint256"
            },
            {
              "internalType": "bool",
              "name": "stake",
              "type": "bool"
            },
            {
              "internalType": "uint16",
              "name": "fwFee",
              "type": "uint16"
            }
          ],
          "internalType": "struct LibStake.StakeInfo",
          "name": "info",
          "type": "tuple"
        }
      ],
      "stateMutability": "view",
      "type": "function"
    },
    {
      "inputs": [
        {
          "internalType": "bytes32",
          "name": "role",
          "type": "bytes32"
        }
      ],
      "name": "getRoleAdmin",
      "outputs": [
        {
          "internalType": "bytes32",
          "name": "",
          "type": "bytes32"
        }
      ],
      "stateMutability": "view",
      "type": "function"
    },
    {
      "inputs": [],
      "name": "getTotalLton",
      "outputs": [
        {
          "internalType": "uint256",
          "name": "",
          "type": "uint256"
        }
      ],
      "stateMutability": "view",
      "type": "function"
    },
    {
      "inputs": [
        {
          "internalType": "uint32",
          "name": "_index",
          "type": "uint32"
        }
      ],
      "name": "getTvl",
      "outputs": [
        {
          "internalType": "uint256",
          "name": "amount",
          "type": "uint256"
        }
      ],
      "stateMutability": "view",
      "type": "function"
    },
    {
      "inputs": [
        {
          "internalType": "bytes32",
          "name": "role",
          "type": "bytes32"
        },
        {
          "internalType": "address",
          "name": "account",
          "type": "address"
        }
      ],
      "name": "grantRole",
      "outputs": [],
      "stateMutability": "nonpayable",
      "type": "function"
    },
    {
      "inputs": [
        {
          "internalType": "bytes32",
          "name": "role",
          "type": "bytes32"
        },
        {
          "internalType": "address",
          "name": "account",
          "type": "address"
        }
      ],
      "name": "hasRole",
      "outputs": [
        {
          "internalType": "bool",
          "name": "",
          "type": "bool"
        }
      ],
      "stateMutability": "view",
      "type": "function"
    },
    {
      "inputs": [
        {
          "internalType": "address",
          "name": "account",
          "type": "address"
        }
      ],
      "name": "isAdmin",
      "outputs": [
        {
          "internalType": "bool",
          "name": "",
          "type": "bool"
        }
      ],
      "stateMutability": "view",
      "type": "function"
    },
    {
      "inputs": [
        {
          "internalType": "uint32",
          "name": "_index",
          "type": "uint32"
        }
      ],
      "name": "layer2Deposits",
      "outputs": [
        {
          "internalType": "uint256",
          "name": "amount",
          "type": "uint256"
        }
      ],
      "stateMutability": "view",
      "type": "function"
    },
    {
      "inputs": [],
      "name": "layer2Manager",
      "outputs": [
        {
          "internalType": "address",
          "name": "",
          "type": "address"
        }
      ],
      "stateMutability": "view",
      "type": "function"
    },
    {
      "inputs": [
        {
          "internalType": "uint32",
          "name": "",
          "type": "uint32"
        }
      ],
      "name": "layerInfo",
      "outputs": [
        {
          "internalType": "bytes",
          "name": "",
          "type": "bytes"
        }
      ],
      "stateMutability": "view",
      "type": "function"
    },
    {
      "inputs": [
        {
          "internalType": "uint32",
          "name": "",
          "type": "uint32"
        }
      ],
      "name": "layerStakedLton",
      "outputs": [
        {
          "internalType": "uint256",
          "name": "",
          "type": "uint256"
        }
      ],
      "stateMutability": "view",
      "type": "function"
    },
    {
      "inputs": [
        {
          "internalType": "uint32",
          "name": "",
          "type": "uint32"
        },
        {
          "internalType": "address",
          "name": "",
          "type": "address"
        }
      ],
      "name": "layerStakes",
      "outputs": [
        {
          "internalType": "uint256",
          "name": "stakePrincipal",
          "type": "uint256"
        },
        {
          "internalType": "uint256",
          "name": "bondPrincipal",
          "type": "uint256"
        },
        {
          "internalType": "uint256",
          "name": "stakelton",
          "type": "uint256"
        },
        {
          "internalType": "uint256",
          "name": "bondlton",
          "type": "uint256"
        },
        {
          "internalType": "bool",
          "name": "stake",
          "type": "bool"
        },
        {
          "internalType": "uint16",
          "name": "fwFee",
          "type": "uint16"
        }
      ],
      "stateMutability": "view",
      "type": "function"
    },
    {
      "inputs": [
        {
          "internalType": "uint32",
          "name": "layerIndex",
          "type": "uint32"
        },
        {
          "internalType": "address",
          "name": "account",
          "type": "address"
        }
      ],
      "name": "numberOfPendings",
      "outputs": [
        {
          "internalType": "uint256",
          "name": "totalRequests",
          "type": "uint256"
        },
        {
          "internalType": "uint256",
          "name": "withdrawIndex",
          "type": "uint256"
        },
        {
          "internalType": "uint256",
          "name": "pendingLength",
          "type": "uint256"
        }
      ],
      "stateMutability": "view",
      "type": "function"
    },
    {
      "inputs": [
        {
          "internalType": "address",
          "name": "sender",
          "type": "address"
        },
        {
          "internalType": "address",
          "name": "spender",
          "type": "address"
        },
        {
          "internalType": "uint256",
          "name": "amount",
          "type": "uint256"
        },
        {
          "internalType": "bytes",
          "name": "data",
          "type": "bytes"
        }
      ],
      "name": "onApprove",
      "outputs": [
        {
          "internalType": "bool",
          "name": "",
          "type": "bool"
        }
      ],
      "stateMutability": "nonpayable",
      "type": "function"
    },
    {
      "inputs": [],
      "name": "pauseProxy",
      "outputs": [
        {
          "internalType": "bool",
          "name": "",
          "type": "bool"
        }
      ],
      "stateMutability": "view",
      "type": "function"
    },
    {
      "inputs": [
        {
          "internalType": "uint256",
          "name": "",
          "type": "uint256"
        }
      ],
      "name": "proxyImplementation",
      "outputs": [
        {
          "internalType": "address",
          "name": "",
          "type": "address"
        }
      ],
      "stateMutability": "view",
      "type": "function"
    },
    {
      "inputs": [
        {
          "internalType": "address",
          "name": "account",
          "type": "address"
        }
      ],
      "name": "removeAdmin",
      "outputs": [],
      "stateMutability": "nonpayable",
      "type": "function"
    },
    {
      "inputs": [
        {
          "internalType": "bytes32",
          "name": "role",
          "type": "bytes32"
        },
        {
          "internalType": "address",
          "name": "account",
          "type": "address"
        }
      ],
      "name": "renounceRole",
      "outputs": [],
      "stateMutability": "nonpayable",
      "type": "function"
    },
    {
      "inputs": [
        {
          "internalType": "uint32",
          "name": "_index",
          "type": "uint32"
        }
      ],
      "name": "restake",
      "outputs": [],
      "stateMutability": "nonpayable",
      "type": "function"
    },
    {
      "inputs": [
        {
          "internalType": "uint32",
          "name": "_index",
          "type": "uint32"
        },
        {
          "internalType": "uint256",
          "name": "n",
          "type": "uint256"
        }
      ],
      "name": "restakeMulti",
      "outputs": [],
      "stateMutability": "nonpayable",
      "type": "function"
    },
    {
      "inputs": [
        {
          "internalType": "bytes32",
          "name": "role",
          "type": "bytes32"
        },
        {
          "internalType": "address",
          "name": "account",
          "type": "address"
        }
      ],
      "name": "revokeRole",
      "outputs": [],
      "stateMutability": "nonpayable",
      "type": "function"
    },
    {
      "inputs": [],
      "name": "seigManagerV2",
      "outputs": [
        {
          "internalType": "address",
          "name": "",
          "type": "address"
        }
      ],
      "stateMutability": "view",
      "type": "function"
    },
    {
      "inputs": [
        {
          "internalType": "bytes4",
          "name": "",
          "type": "bytes4"
        }
      ],
      "name": "selectorImplementation",
      "outputs": [
        {
          "internalType": "address",
          "name": "",
          "type": "address"
        }
      ],
      "stateMutability": "view",
      "type": "function"
    },
    {
      "inputs": [
        {
          "internalType": "uint32",
          "name": "_index",
          "type": "uint32"
        }
      ],
      "name": "sequencer",
      "outputs": [
        {
          "internalType": "address",
          "name": "sequencer_",
          "type": "address"
        }
      ],
      "stateMutability": "view",
      "type": "function"
    },
    {
      "inputs": [
        {
          "internalType": "uint32",
          "name": "_index",
          "type": "uint32"
        },
        {
          "internalType": "uint256",
          "name": "amount",
          "type": "uint256"
        }
      ],
      "name": "stake",
      "outputs": [],
      "stateMutability": "nonpayable",
      "type": "function"
    },
    {
      "inputs": [
        {
          "internalType": "uint256",
          "name": "",
          "type": "uint256"
        }
      ],
      "name": "stakeAccountList",
      "outputs": [
        {
          "internalType": "address",
          "name": "",
          "type": "address"
        }
      ],
      "stateMutability": "view",
      "type": "function"
    },
    {
      "inputs": [
        {
          "internalType": "bytes4",
          "name": "interfaceId",
          "type": "bytes4"
        }
      ],
      "name": "supportsInterface",
      "outputs": [
        {
          "internalType": "bool",
          "name": "",
          "type": "bool"
        }
      ],
      "stateMutability": "view",
      "type": "function"
    },
    {
      "inputs": [],
      "name": "ton",
      "outputs": [
        {
          "internalType": "address",
          "name": "",
          "type": "address"
        }
      ],
      "stateMutability": "view",
      "type": "function"
    },
    {
      "inputs": [],
      "name": "totalLayer2Deposits",
      "outputs": [
        {
          "internalType": "uint256",
          "name": "amount",
          "type": "uint256"
        }
      ],
      "stateMutability": "view",
      "type": "function"
    },
    {
      "inputs": [],
      "name": "totalStakeAccountList",
      "outputs": [
        {
          "internalType": "uint256",
          "name": "",
          "type": "uint256"
        }
      ],
      "stateMutability": "view",
      "type": "function"
    },
    {
      "inputs": [],
      "name": "totalStakedLton",
      "outputs": [
        {
          "internalType": "uint256",
          "name": "",
          "type": "uint256"
        }
      ],
      "stateMutability": "view",
      "type": "function"
    },
    {
      "inputs": [
        {
          "internalType": "address",
          "name": "newAdmin",
          "type": "address"
        }
      ],
      "name": "transferAdmin",
      "outputs": [],
      "stateMutability": "nonpayable",
      "type": "function"
    },
    {
      "inputs": [],
      "name": "u",
      "outputs": [
        {
          "internalType": "bool",
          "name": "",
          "type": "bool"
        }
      ],
      "stateMutability": "view",
      "type": "function"
    },
    {
      "inputs": [
        {
          "internalType": "uint32",
          "name": "_index",
          "type": "uint32"
        },
        {
          "internalType": "uint256",
          "name": "lton_",
          "type": "uint256"
        }
      ],
      "name": "unstake",
      "outputs": [],
      "stateMutability": "nonpayable",
      "type": "function"
    },
    {
      "inputs": [
        {
          "internalType": "uint32",
          "name": "_index",
          "type": "uint32"
        }
      ],
      "name": "withdraw",
      "outputs": [],
      "stateMutability": "nonpayable",
      "type": "function"
    },
    {
      "inputs": [
        {
          "internalType": "uint32",
          "name": "",
          "type": "uint32"
        },
        {
          "internalType": "address",
          "name": "",
          "type": "address"
        }
      ],
      "name": "withdrawalRequestIndex",
      "outputs": [
        {
          "internalType": "uint256",
          "name": "",
          "type": "uint256"
        }
      ],
      "stateMutability": "view",
      "type": "function"
    },
    {
      "inputs": [
        {
          "internalType": "uint32",
          "name": "",
          "type": "uint32"
        },
        {
          "internalType": "address",
          "name": "",
          "type": "address"
        },
        {
          "internalType": "uint256",
          "name": "",
          "type": "uint256"
        }
      ],
      "name": "withdrawalRequests",
      "outputs": [
        {
          "internalType": "uint32",
          "name": "withdrawableBlockNumber",
          "type": "uint32"
        },
        {
          "internalType": "uint128",
          "name": "amount",
          "type": "uint128"
        },
        {
          "internalType": "bool",
          "name": "processed",
          "type": "bool"
        }
      ],
      "stateMutability": "view",
      "type": "function"
    }
  ],
  "bytecode": "0x60806040526006805460ff1916600117905534801561001d57600080fd5b50613c148061002d6000396000f3fe608060405234801561001057600080fd5b50600436106103625760003560e01c806375829def116101c85780639c2f614f11610104578063b969fbef116100a2578063cc48b9471161007c578063cc48b94714610a43578063d547741f14610a5c578063df2b429014610a6f578063ec110d4514610a8257600080fd5b8063b969fbef14610a09578063c5dd399314610a11578063c6a898c514610a3157600080fd5b8063aa9224cd116100de578063aa9224cd14610997578063b413b37a146109aa578063b6a2f99d146109b2578063b911135f146109e057600080fd5b80639c2f614f146108f35780639c656e2614610906578063a217fddf1461098f57600080fd5b80638c6f1b39116101715780638d99e1ca1161014b5780638d99e1ca1461087657806391d148541461088957806394c89b2c146108c057806397911970146108d357600080fd5b80638c6f1b39146107d85780638c71762d1461082e5780638d1f3d0a1461086357600080fd5b80637d211a1c116101a25780637d211a1c1461078c5780637ec6840f1461079f5780638afec9fc146107b257600080fd5b806375829def1461072757806375b238fc1461073a5780637cf1587c1461076157600080fd5b806341e5dbe8116102a257806363a8fd8911610240578063704802751161021a57806370480275146106ce57806370619cf9146106e157806373469a7a14610701578063744a35611461071457600080fd5b806363a8fd8914610662578063659ab8201461066f5780636d1ef1031461068f57600080fd5b80634e1a264d1161027c5780634e1a264d1461058357806350d2a2761461058c578063550d01a3146105b55780635f1b989e146105d857600080fd5b806341e5dbe8146105555780634273ca161461056857806346bcdb491461057b57600080fd5b80631ed944951161030f578063248a9ca3116102e9578063248a9ca3146104f957806324d7806c1461051c5780632f2ff15d1461052f57806336568abe1461054257600080fd5b80631ed944951461042e5780631f760d011461049357806322985246146104d257600080fd5b8063118e29d111610340578063118e29d1146103db57806316b5d5bd146103f05780631785f53c1461041b57600080fd5b80630116cc651461036757806301ffc9a71461038d578063064fe966146103b0575b600080fd5b61037a6103753660046135ec565b610a95565b6040519081526020015b60405180910390f35b6103a061039b366004613607565b610b48565b6040519015158152602001610384565b61037a6103be366004613646565b600e60209081526000928352604080842090915290825290205481565b6103ee6103e93660046135ec565b610b7f565b005b600854610403906001600160a01b031681565b6040516001600160a01b039091168152602001610384565b6103ee61042936600461367d565b610cab565b61044161043c366004613646565b610d38565b6040516103849190600060c0820190508251825260208301516020830152604083015160408301526060830151606083015260808301511515608083015261ffff60a08401511660a083015292915050565b6104a66104a1366004613646565b610df6565b6040805194855263ffffffff938416602086015291831691840191909152166060820152608001610384565b61037a7ffb5864e8ff833c3cb2d2d08505e82ff02a43554c74a35d4f5a64e8526127831181565b61037a61050736600461369a565b60009081526020819052604090206001015490565b6103a061052a36600461367d565b610f34565b6103ee61053d3660046136b3565b610f74565b6103ee6105503660046136b3565b610f9e565b61037a6105633660046135ec565b611026565b6103a06105763660046136d8565b6110f9565b60125461037a565b61037a60095481565b61040361059a366004613607565b6004602052600090815260409020546001600160a01b031681565b6103a06105c336600461367d565b60036020526000908152604090205460ff1681565b61037a6105e6366004613646565b63ffffffff9091166000908152600b602090815260408083206001600160a01b03909416835292815290829020825160c081018452815481526001820154928101929092526002810154928201839052600381015460608301526004015460ff81161515608083015261ffff6101009091041660a09091015290565b6001546103a09060ff1681565b61068261067d3660046135ec565b6111a5565b60405161038491906137c7565b6106a261069d3660046137da565b61123f565b6040805163ffffffff90941684526001600160801b039092166020840152151590820152606001610384565b6103ee6106dc36600461367d565b61129e565b61037a6106ef3660046135ec565b600a6020526000908152604090205481565b600754610403906001600160a01b031681565b6103ee610722366004613819565b611328565b6103ee61073536600461367d565b61144a565b61037a7fdf8b4c520ffe197c5343c6f5aec59570151ef9a492f2c624fd45ddde6135ec4281565b61037a61076f366004613646565b600d60209081526000928352604080842090915290825290205481565b6103a061079a3660046135ec565b6115ac565b6103ee6107ad366004613819565b61166a565b61037a6107c03660046135ec565b63ffffffff166000908152600a602052604090205490565b6107eb6107e63660046135ec565b6116c0565b604051610384919081516001600160a01b039081168252602080840151821690830152604080840151821690830152606092830151169181019190915260800190565b61084161083c366004613646565b611802565b6040805193845263ffffffff9283166020850152911690820152606001610384565b6104036108713660046135ec565b61193f565b61037a6108843660046135ec565b611a83565b6103a06108973660046136b3565b6000918252602082815260408084206001600160a01b0393909316845291905290205460ff1690565b61037a6108ce366004613646565b611af6565b61037a6108e136600461367d565b60106020526000908152604090205481565b6103ee610901366004613819565b611be2565b61095c610914366004613646565b600b602090815260009283526040808420909152908252902080546001820154600283015460038401546004909401549293919290919060ff811690610100900461ffff1686565b6040805196875260208701959095529385019290925260608401521515608083015261ffff1660a082015260c001610384565b61037a600081565b6103ee6109a53660046135ec565b611bec565b60095461037a565b6109c56109c0366004613646565b612005565b60408051938452602084019290925290820152606001610384565b6104036109ee36600461369a565b6002602052600090815260409020546001600160a01b031681565b61037a612060565b61037a610a1f3660046135ec565b600f6020526000908152604090205481565b6006546103a090610100900460ff1681565b600654610403906201000090046001600160a01b031681565b6103ee610a6a3660046136b3565b6120d3565b6103a0610a7d366004613859565b6120f8565b610403610a9036600461369a565b61223e565b63ffffffff811660009081526011602052604081208054829190610ab89061391b565b80601f0160208091040260200160405190810160405280929190818152602001828054610ae49061391b565b8015610b315780601f10610b0657610100808354040283529160200191610b31565b820191906000526020600020905b815481529060010190602001808311610b1457829003601f168201915b505050505090508080519060200120915050919050565b60006001600160e01b03198216637965db0b60e01b1480610b7957506301ffc9a760e01b6001600160e01b03198316145b92915050565b600760009054906101000a90046001600160a01b03166001600160a01b031663764a78566040518163ffffffff1660e01b81526004016020604051808303816000875af1158015610bd4573d6000803e3d6000fd5b505050506040513d601f19601f82011682018060405250810190610bf8919061394f565b610c3b5760405162461bcd60e51b815260206004820152600f60248201526e6661696c207570646174655365696760881b60448201526064015b60405180910390fd5b63ffffffff81166000908152600d602090815260408083203380855292529091205490610c6c908390836001612268565b610ca75760405162461bcd60e51b815260206004820152600c60248201526b534c5f455f52455354414b4560a01b6044820152606401610c32565b5050565b610cb433610f34565b610d0b5760405162461bcd60e51b815260206004820152602260248201527f41636365737369626c653a2043616c6c6572206973206e6f7420616e2061646d60448201526134b760f11b6064820152608401610c32565b610d357fdf8b4c520ffe197c5343c6f5aec59570151ef9a492f2c624fd45ddde6135ec4282610f9e565b50565b610d776040518060c0016040528060008152602001600081526020016000815260200160008152602001600015158152602001600061ffff1681525090565b5063ffffffff9091166000908152600b602090815260408083206001600160a01b03909416835292815290829020825160c081018452815481526001820154928101929092526002810154928201929092526003820154606082015260049091015460ff81161515608083015261ffff6101009091041660a082015290565b63ffffffff8083166000818152600c602090815260408083206001600160a01b03871680855290835281842054948452600d835281842090845290915281205490929091839182919084165b81811015610f295763ffffffff88166000908152600c602090815260408083206001600160a01b038b1684529091528120805483908110610e8557610e85613971565b6000918252602080832060408051606081018252939091015463ffffffff8116845264010000000081046001600160801b031692840192909252600160a01b90910460ff1615159082018190529092509003610f16578363ffffffff16600003610eee57805193505b6020810151610f06906001600160801b03168861399d565b9650610f136001866139b0565b94505b5080610f21816139d4565b915050610e42565b505092959194509250565b6001600160a01b03811660009081527f5cbfc8ee58ca47855df7bcf648dd304ddb6b932f9b87878bdf6318d7ec7ee5b7602052604081205460ff16610b79565b600082815260208190526040902060010154610f8f81612715565b610f99838361271f565b505050565b6001600160a01b038116331461101c5760405162461bcd60e51b815260206004820152602f60248201527f416363657373436f6e74726f6c3a2063616e206f6e6c792072656e6f756e636560448201527f20726f6c657320666f722073656c6600000000000000000000000000000000006064820152608401610c32565b610ca782826127bd565b600080611032836116c0565b604080820151600654606084015192516347b00fb360e11b8152620100009091046001600160a01b03908116600483015292831660248201529293501690638f601f6690604401602060405180830381865afa9250505080156110b2575060408051601f3d908101601f191682019092526110af918101906139ed565b60015b6110f0573d8080156110e0576040519150601f19603f3d011682016040523d82523d6000602084013e6110e5565b606091505b5060009250506110f3565b91505b50919050565b600061114b611142600085858080601f016020809104026020016040519081016040528093929190818152602001838380828437600092019190915250929392505061283c9050565b61ffff166115ac565b61118e5760405162461bcd60e51b81526020600482015260146024820152733737b716b932b3b4b9ba32b932b2103630bcb2b960611b6044820152606401610c32565b61119b86868686866128fc565b9695505050505050565b601160205260009081526040902080546111be9061391b565b80601f01602080910402602001604051908101604052809291908181526020018280546111ea9061391b565b80156112375780601f1061120c57610100808354040283529160200191611237565b820191906000526020600020905b81548152906001019060200180831161121a57829003601f168201915b505050505081565b600c602052826000526040600020602052816000526040600020818154811061126757600080fd5b60009182526020909120015463ffffffff8116935064010000000081046001600160801b03169250600160a01b900460ff16905083565b6112a733610f34565b6112fe5760405162461bcd60e51b815260206004820152602260248201527f41636365737369626c653a2043616c6c6572206973206e6f7420616e2061646d60448201526134b760f11b6064820152608401610c32565b610d357fdf8b4c520ffe197c5343c6f5aec59570151ef9a492f2c624fd45ddde6135ec4282610f74565b600760009054906101000a90046001600160a01b03166001600160a01b031663764a78566040518163ffffffff1660e01b81526004016020604051808303816000875af115801561137d573d6000803e3d6000fd5b505050506040513d601f19601f820116820180604052508101906113a1919061394f565b6113df5760405162461bcd60e51b815260206004820152600f60248201526e6661696c207570646174655365696760881b6044820152606401610c32565b63ffffffff82166000908152600d60209081526040808320338085529252909120549061140f9084908385612268565b610f995760405162461bcd60e51b815260206004820152600c60248201526b534c5f455f52455354414b4560a01b6044820152606401610c32565b61145333610f34565b6114aa5760405162461bcd60e51b815260206004820152602260248201527f41636365737369626c653a2043616c6c6572206973206e6f7420616e2061646d60448201526134b760f11b6064820152608401610c32565b6001600160a01b0381166115005760405162461bcd60e51b815260206004820152601860248201527f41636365737369626c653a207a65726f206164647265737300000000000000006044820152606401610c32565b6001600160a01b03811633036115585760405162461bcd60e51b815260206004820152601660248201527f41636365737369626c653a2073616d652061646d696e000000000000000000006044820152606401610c32565b6115827fdf8b4c520ffe197c5343c6f5aec59570151ef9a492f2c624fd45ddde6135ec4282610f74565b610d357fdf8b4c520ffe197c5343c6f5aec59570151ef9a492f2c624fd45ddde6135ec4233610f9e565b60085460405163370f791d60e11b815263ffffffff831660048201526000916001600160a01b031690636e1ef23a90602401602060405180830381865afa1580156115fb573d6000803e3d6000fd5b505050506040513d601f19601f8201168201806040525081019061161f919061394f565b6116625760405162461bcd60e51b81526020600482015260146024820152733737b716b932b3b4b9ba32b932b2103630bcb2b960611b6044820152606401610c32565b506001919050565b611673826115ac565b6116b65760405162461bcd60e51b81526020600482015260146024820152733737b716b932b3b4b9ba32b932b2103630bcb2b960611b6044820152606401610c32565b610ca782826129c9565b60408051608081018252600080825260208201819052918101829052606081019190915263ffffffff8216600090815260116020526040812080546117049061391b565b80601f01602080910402602001604051908101604052809291908181526020018280546117309061391b565b801561177d5780601f106117525761010080835404028352916020019161177d565b820191906000526020600020905b81548152906001019060200180831161176057829003601f168201915b50505050509050604f815111156110f3576040805160808101909152806117a5836000612a30565b6001600160a01b031681526020016117be836014612a30565b6001600160a01b031681526020016117d7836028612a30565b6001600160a01b031681526020016117f083603c612a30565b6001600160a01b031690529392505050565b63ffffffff8083166000818152600c602090815260408083206001600160a01b03871680855290835281842054948452600d835281842090845290915281205490929091839183165b818110156119365763ffffffff87166000908152600c602090815260408083206001600160a01b038a168452909152812080548390811061188e5761188e613971565b600091825260209182902060408051606081018252929091015463ffffffff811680845264010000000082046001600160801b031694840194909452600160a01b900460ff161515908201529150431180156118ec57506040810151155b1561191d576020810151611909906001600160801b03168761399d565b95506119166001856139b0565b9350611923565b50611936565b508061192e816139d4565b91505061184b565b50509250925092565b63ffffffff8116600090815260116020526040812080548291906119629061391b565b80601f016020809104026020016040519081016040528092919081815260200182805461198e9061391b565b80156119db5780601f106119b0576101008083540402835291602001916119db565b820191906000526020600020905b8154815290600101906020018083116119be57829003601f168201915b505050505090506119f6600082612a3090919063ffffffff16565b60405163bf40fac160e01b815260206004820152600d60248201527f4f564d5f53657175656e6365720000000000000000000000000000000000000060448201526001600160a01b03919091169063bf40fac190606401602060405180830381865afa9250505080156110b2575060408051601f3d908101601f191682019092526110af91810190613a06565b6008546040516346ccf0e560e11b815263ffffffff831660048201526000916001600160a01b031690638d99e1ca90602401602060405180830381865afa158015611ad2573d6000803e3d6000fd5b505050506040513d601f19601f82011682018060405250810190610b7991906139ed565b60075463ffffffff83166000908152600b602090815260408083206001600160a01b038681168552908352818420825160c081018452815481526001820154948101949094526002810154928401839052600381015460608501526004015460ff811615156080850152610100900461ffff1660a0909301929092529192169063cdf68009906040518263ffffffff1660e01b8152600401611b9a91815260200190565b602060405180830381865afa158015611bb7573d6000803e3d6000fd5b505050506040513d601f19601f82011682018060405250810190611bdb91906139ed565b9392505050565b610ca78282612b00565b60065460ff16611c275760405162461bcd60e51b8152600401610c32906020808252600490820152636c6f636b60e01b604082015260600190565b6006805460ff1916905563ffffffff81166000818152600c602090815260408083203380855290835281842054948452600d83528184208185529092528220549092919081905b83811015611d405763ffffffff86166000908152600c602090815260408083206001600160a01b03891684529091528120805483908110611cb157611cb1613971565b600091825260209091200180549091504363ffffffff909116108015611ce057508054600160a01b900460ff16155b15611d2757805460ff60a01b1916600160a01b17808255611d13906001600160801b03640100000000909104168461399d565b925083611d1f816139d4565b945050611d2d565b50611d40565b5080611d38816139d4565b915050611c6e565b5060008111611d915760405162461bcd60e51b815260206004820181905260248201527f7a65726f20617661696c61626c65207769746864726177616c20616d6f756e746044820152606401610c32565b63ffffffff85166000908152600d602090815260408083206001600160a01b038816845290915281208054849290611dca90849061399d565b909155505063ffffffff85166000908152600e602090815260408083206001600160a01b038816845290915281208054839290611e08908490613a23565b909155505063ffffffff85166000908152600f602052604081208054839290611e32908490613a23565b90915550506001600160a01b03841660009081526010602052604081208054839290611e5f908490613a23565b90915550506006546040516370a0823160e01b81523060048201526000916201000090046001600160a01b0316906370a0823190602401602060405180830381865afa158015611eb3573d6000803e3d6000fd5b505050506040513d601f19601f82011682018060405250810190611ed791906139ed565b905081811015611f83578015611f0457600654611f04906201000090046001600160a01b03168683612f11565b6007546001600160a01b031663aad3ec9686611f208486613a23565b6040516001600160e01b031960e085901b1681526001600160a01b0390921660048301526024820152604401600060405180830381600087803b158015611f6657600080fd5b505af1158015611f7a573d6000803e3d6000fd5b50505050611fa0565b600654611fa0906201000090046001600160a01b03168684612f11565b6040805163ffffffff881681526001600160a01b03871660208201529081018390527f2d6eb139d2002caa088da5527d9d62f2f23bdf4504f5559a112535c436c6ee59906060015b60405180910390a150506006805460ff1916600117905550505050565b63ffffffff82166000818152600c602090815260408083206001600160a01b03861680855290835281842054948452600d835281842090845290915281205490818310612059576120568284613a23565b90505b9250925092565b6008546040805163b969fbef60e01b815290516000926001600160a01b03169163b969fbef9160048083019260209291908290030181865afa1580156120aa573d6000803e3d6000fd5b505050506040513d601f19601f820116820180604052508101906120ce91906139ed565b905090565b6000828152602081905260409020600101546120ee81612715565b610f9983836127bd565b6008546000906001600160a01b031633146121555760405162461bcd60e51b815260206004820152601160248201527f6e6f74204c61796572324d616e616765720000000000000000000000000000006044820152606401610c32565b81516050146121a65760405162461bcd60e51b815260206004820152600f60248201527f77726f6e67206c61796572496e666f00000000000000000000000000000000006044820152606401610c32565b63ffffffff8316600090815260116020526040902080546121c69061391b565b1590506122155760405162461bcd60e51b815260206004820152600f60248201527f616c7265616479206372656174656400000000000000000000000000000000006044820152606401610c32565b63ffffffff831660009081526011602052604090206122348382613a7c565b5060019392505050565b6012818154811061224e57600080fd5b6000918252602090912001546001600160a01b0316905081565b60065460009060ff166122a65760405162461bcd60e51b8152600401610c32906020808252600490820152636c6f636b60e01b604082015260600190565b6006805460ff1916905563ffffffff85166000908152600c602090815260408083206001600160a01b0388168452909152812054806123145760405162461bcd60e51b815260206004820152600a6024820152696e6f20756e7374616b6560b01b6044820152606401610c32565b8361231f8683613a23565b101561236d5760405162461bcd60e51b815260206004820152601860248201527f6e2065786365656473206e756d206f662070656e64696e6700000000000000006044820152606401610c32565b6000612379858761399d565b90505b8086101561246f5763ffffffff88166000908152600c602090815260408083206001600160a01b038b16845290915281208054889081106123bf576123bf613971565b6000918252602090912001805490915064010000000081046001600160801b031690600160a01b900460ff16156124385760405162461bcd60e51b815260206004820152601260248201527f616c7265616479207769746864726177616c00000000000000000000000000006044820152606401610c32565b801561244b57612448818661399d565b94505b50805460ff60a01b1916600160a01b17905585612467816139d4565b96505061237c565b600083116124bf5760405162461bcd60e51b815260206004820152601760248201527f6e6f2076616c69642072657374616b6520616d6f756e740000000000000000006044820152606401610c32565b600754604051636a2fb1f560e01b8152600481018590526000916001600160a01b031690636a2fb1f590602401602060405180830381865afa158015612509573d6000803e3d6000fd5b505050506040513d601f19601f8201168201806040525081019061252d91906139ed565b63ffffffff8a166000908152600b602090815260408083206001600160a01b038d16845290915281208054929350918691839161256b90849061399d565b9250508190555081816002016000828254612586919061399d565b909155505063ffffffff8a166000908152600a6020526040812080548492906125b090849061399d565b9250508190555081600960008282546125c9919061399d565b909155505063ffffffff8a166000908152600e602090815260408083206001600160a01b038d16845290915281208054879290612607908490613a23565b909155505063ffffffff8a166000908152600f602052604081208054879290612631908490613a23565b90915550506001600160a01b0389166000908152601060205260408120805487929061265e908490613a23565b909155505063ffffffff8a166000908152600d602090815260408083206001600160a01b038d1684529091528120805489929061269c90849061399d565b90915550506040805163ffffffff8c1681526001600160a01b038b166020820152908101869052606081018390527f34981dc0486069d2abbaddbc42e10b97cb24e4bce60ee4457e1d5062dfc0b4299060800160405180910390a16001955050505050506006805460ff19166001179055949350505050565b610d35813361302c565b6000828152602081815260408083206001600160a01b038516845290915290205460ff16610ca7576000828152602081815260408083206001600160a01b03851684529091529020805460ff191660011790556127793390565b6001600160a01b0316816001600160a01b0316837f2f8788117e7eff1d82e926ec794901d17c78024a50270940304540a733656f0d60405160405180910390a45050565b6000828152602081815260408083206001600160a01b038516845290915290205460ff1615610ca7576000828152602081815260408083206001600160a01b0385168085529252808320805460ff1916905551339285917ff6391f5c32d9c69d2a47ea670b442974b53935d1edc7fd64eb21e047a839171b9190a45050565b60008161284a81600461399d565b10156128985760405162461bcd60e51b815260206004820152601160248201527f746f55696e7431365f6f766572666c6f770000000000000000000000000000006044820152606401610c32565b6128a382600461399d565b835110156128f35760405162461bcd60e51b815260206004820152601460248201527f746f55696e7431365f6f75744f66426f756e64730000000000000000000000006044820152606401610c32565b50016004015190565b6006546000906201000090046001600160a01b031633146129445760405162461bcd60e51b8152602060048201526002602482015261454160f01b6044820152606401610c32565b600061298a600085858080601f016020809104026020016040519081016040528093929190818152602001838380828437600092019190915250929392505061283c9050565b60065461ffff9190911691506129b1906201000090046001600160a01b031688308861309f565b6129bc8188876131c3565b5060019695505050505050565b80806000036129ff5760405162461bcd60e51b81526020600482015260026024820152615a3160f01b6044820152606401610c32565b6006543390612a1f906201000090046001600160a01b031682308661309f565b612a2a8482856131c3565b50505050565b600081612a3e81601461399d565b1015612a8c5760405162461bcd60e51b815260206004820152601260248201527f746f416464726573735f6f766572666c6f7700000000000000000000000000006044820152606401610c32565b612a9782601461399d565b83511015612ae75760405162461bcd60e51b815260206004820152601560248201527f746f416464726573735f6f75744f66426f756e647300000000000000000000006044820152606401610c32565b5001602001516c01000000000000000000000000900490565b60065460ff16612b3b5760405162461bcd60e51b8152600401610c32906020808252600490820152636c6f636b60e01b604082015260600190565b6006805460ff19169055806000819003612b7c5760405162461bcd60e51b81526020600482015260026024820152615a3160f01b6044820152606401610c32565b60075460405163cdf6800960e01b81526004810184905233916000916001600160a01b039091169063cdf6800990602401602060405180830381865afa158015612bca573d6000803e3d6000fd5b505050506040513d601f19601f82011682018060405250810190612bee91906139ed565b63ffffffff86166000908152600b602090815260408083206001600160a01b03871684529091529020600281015491925090851115612c585760405162461bcd60e51b8152600401610c3290602080825260049082015263534c5f3160e01b604082015260600190565b84816002016000828254612c6c9190613a23565b90915550508054821115612c835760008155612c9d565b81816000016000828254612c979190613a23565b90915550505b63ffffffff86166000908152600a602052604081208054879290612cc2908490613a23565b925050819055508460096000828254612cdb9190613a23565b909155505060085460408051636577b27360e11b815290516000926001600160a01b03169163caef64e69160048083019260209291908290030181865afa158015612d2a573d6000803e3d6000fd5b505050506040513d601f19601f82011682018060405250810190612d4e91906139ed565b63ffffffff88166000908152600c602090815260408083206001600160a01b03891684529091529081902081516060810190925291925080612d90844361399d565b63ffffffff90811682526001600160801b0380881660208085019190915260006040948501819052865460018101885596815281812086519701805487840151978701511515600160a01b0260ff60a01b19989095166401000000000273ffffffffffffffffffffffffffffffffffffffff19909116988616989098179790971795909516919091179094558a168252600e83528082206001600160a01b03881683529092529081208054859290612e4990849061399d565b909155505063ffffffff87166000908152600f602052604081208054859290612e7390849061399d565b90915550506001600160a01b03841660009081526010602052604081208054859290612ea090849061399d565b90915550506040805163ffffffff891681526001600160a01b0386166020820152908101849052606081018790527f869a01319d83bb921803a22e3e95d0cb8b08e708d3fb144e2c25a563bf8650d39060800160405180910390a150506006805460ff191660011790555050505050565b604080516001600160a01b038481166024830152604480830185905283518084039091018152606490920183526020820180516001600160e01b031663a9059cbb60e01b1790529151600092839290871691612f6d9190613b3c565b6000604051808303816000865af19150503d8060008114612faa576040519150601f19603f3d011682016040523d82523d6000602084013e612faf565b606091505b5091509150818015612fd9575080511580612fd9575080806020019051810190612fd9919061394f565b6130255760405162461bcd60e51b815260206004820152600f60248201527f5452414e534645525f4641494c454400000000000000000000000000000000006044820152606401610c32565b5050505050565b6000828152602081815260408083206001600160a01b038516845290915290205460ff16610ca75761305d81613418565b61306883602061342a565b604051602001613079929190613b58565b60408051601f198184030181529082905262461bcd60e51b8252610c32916004016137c7565b604080516001600160a01b0385811660248301528481166044830152606480830185905283518084039091018152608490920183526020820180516001600160e01b03166323b872dd60e01b17905291516000928392908816916131039190613b3c565b6000604051808303816000865af19150503d8060008114613140576040519150601f19603f3d011682016040523d82523d6000602084013e613145565b606091505b509150915081801561316f57508051158061316f57508080602001905181019061316f919061394f565b6131bb5760405162461bcd60e51b815260206004820152601460248201527f5452414e534645525f46524f4d5f4641494c45440000000000000000000000006044820152606401610c32565b505050505050565b60065460ff166131fe5760405162461bcd60e51b8152600401610c32906020808252600490820152636c6f636b60e01b604082015260600190565b6006805460ff1916905580600081900361323f5760405162461bcd60e51b81526020600482015260026024820152615a3160f01b6044820152606401610c32565b600754604051636a2fb1f560e01b8152600481018490526000916001600160a01b031690636a2fb1f590602401602060405180830381865afa158015613289573d6000803e3d6000fd5b505050506040513d601f19601f820116820180604052508101906132ad91906139ed565b63ffffffff86166000908152600b602090815260408083206001600160a01b0389168452909152902060048101549192509060ff1661334e57600481018054600160ff1990911681179091556012805491820181556000527fbb8a6a4669ba250d26cd7a459eca9d215f8307e33aebe50379bc5a3617ec344401805473ffffffffffffffffffffffffffffffffffffffff19166001600160a01b0387161790555b83816000016000828254613362919061399d565b925050819055508181600201600082825461337d919061399d565b909155505063ffffffff86166000908152600a6020526040812080548492906133a790849061399d565b9250508190555081600960008282546133c0919061399d565b90915550506040805163ffffffff881681526001600160a01b0387166020820152908101859052606081018390527fa2a62e1cc3e20f8692b7a85ee11f09e9c0f0c2cd028ba26400f65c7bd55361ee90608001611fe8565b6060610b796001600160a01b03831660145b60606000613439836002613bd9565b61344490600261399d565b67ffffffffffffffff81111561345c5761345c613843565b6040519080825280601f01601f191660200182016040528015613486576020820181803683370190505b509050600360fc1b816000815181106134a1576134a1613971565b60200101906001600160f81b031916908160001a905350600f60fb1b816001815181106134d0576134d0613971565b60200101906001600160f81b031916908160001a90535060006134f4846002613bd9565b6134ff90600161399d565b90505b6001811115613584577f303132333435363738396162636465660000000000000000000000000000000085600f166010811061354057613540613971565b1a60f81b82828151811061355657613556613971565b60200101906001600160f81b031916908160001a90535060049490941c9361357d81613bf0565b9050613502565b508315611bdb5760405162461bcd60e51b815260206004820181905260248201527f537472696e67733a20686578206c656e67746820696e73756666696369656e746044820152606401610c32565b803563ffffffff811681146135e757600080fd5b919050565b6000602082840312156135fe57600080fd5b611bdb826135d3565b60006020828403121561361957600080fd5b81356001600160e01b031981168114611bdb57600080fd5b6001600160a01b0381168114610d3557600080fd5b6000806040838503121561365957600080fd5b613662836135d3565b9150602083013561367281613631565b809150509250929050565b60006020828403121561368f57600080fd5b8135611bdb81613631565b6000602082840312156136ac57600080fd5b5035919050565b600080604083850312156136c657600080fd5b82359150602083013561367281613631565b6000806000806000608086880312156136f057600080fd5b85356136fb81613631565b9450602086013561370b81613631565b935060408601359250606086013567ffffffffffffffff8082111561372f57600080fd5b818801915088601f83011261374357600080fd5b81358181111561375257600080fd5b89602082850101111561376457600080fd5b9699959850939650602001949392505050565b60005b8381101561379257818101518382015260200161377a565b50506000910152565b600081518084526137b3816020860160208601613777565b601f01601f19169290920160200192915050565b602081526000611bdb602083018461379b565b6000806000606084860312156137ef57600080fd5b6137f8846135d3565b9250602084013561380881613631565b929592945050506040919091013590565b6000806040838503121561382c57600080fd5b613835836135d3565b946020939093013593505050565b634e487b7160e01b600052604160045260246000fd5b6000806040838503121561386c57600080fd5b613875836135d3565b9150602083013567ffffffffffffffff8082111561389257600080fd5b818501915085601f8301126138a657600080fd5b8135818111156138b8576138b8613843565b604051601f8201601f19908116603f011681019083821181831017156138e0576138e0613843565b816040528281528860208487010111156138f957600080fd5b8260208601602083013760006020848301015280955050505050509250929050565b600181811c9082168061392f57607f821691505b6020821081036110f357634e487b7160e01b600052602260045260246000fd5b60006020828403121561396157600080fd5b81518015158114611bdb57600080fd5b634e487b7160e01b600052603260045260246000fd5b634e487b7160e01b600052601160045260246000fd5b80820180821115610b7957610b79613987565b63ffffffff8181168382160190808211156139cd576139cd613987565b5092915050565b6000600182016139e6576139e6613987565b5060010190565b6000602082840312156139ff57600080fd5b5051919050565b600060208284031215613a1857600080fd5b8151611bdb81613631565b81810381811115610b7957610b79613987565b601f821115610f9957600081815260208120601f850160051c81016020861015613a5d5750805b601f850160051c820191505b818110156131bb57828155600101613a69565b815167ffffffffffffffff811115613a9657613a96613843565b613aaa81613aa4845461391b565b84613a36565b602080601f831160018114613adf5760008415613ac75750858301515b600019600386901b1c1916600185901b1785556131bb565b600085815260208120601f198616915b82811015613b0e57888601518255948401946001909101908401613aef565b5085821015613b2c5787850151600019600388901b60f8161c191681555b5050505050600190811b01905550565b60008251613b4e818460208701613777565b9190910192915050565b7f416363657373436f6e74726f6c3a206163636f756e7420000000000000000000815260008351613b90816017850160208801613777565b7f206973206d697373696e6720726f6c65200000000000000000000000000000006017918401918201528351613bcd816028840160208801613777565b01602801949350505050565b8082028115828204841417610b7957610b79613987565b600081613bff57613bff613987565b50600019019056fea164736f6c6343000812000a",
  "linkReferences": {},
  "deployedLinkReferences": {}
}