{
  "_format": "hh-sol-artifact-1",
  "contractName": "OptimismSequencer",
  "sourceName": "contracts/OptimismSequencer.sol",
  "abi": [
    {
      "inputs": [],
      "stateMutability": "nonpayable",
      "type": "constructor"
    },
    {
      "anonymous": false,
      "inputs": [
        {
          "indexed": false,
          "internalType": "bytes32",
          "name": "hashMessage",
          "type": "bytes32"
        },
        {
          "indexed": false,
          "internalType": "uint32",
          "name": "layerIndex",
          "type": "uint32"
        },
        {
          "indexed": false,
          "internalType": "address",
          "name": "from",
          "type": "address"
        },
        {
          "indexed": false,
          "internalType": "address",
          "name": "to",
          "type": "address"
        },
        {
          "indexed": false,
          "internalType": "uint256",
          "name": "amount",
          "type": "uint256"
        }
      ],
      "name": "FastWithdrawalClaim",
      "type": "event"
    },
    {
      "anonymous": false,
      "inputs": [
        {
          "indexed": false,
          "internalType": "bytes32",
          "name": "hashMessage",
          "type": "bytes32"
        },
        {
          "indexed": false,
          "internalType": "uint32",
          "name": "layerIndex",
          "type": "uint32"
        },
        {
          "indexed": false,
          "internalType": "address",
          "name": "staker",
          "type": "address"
        },
        {
          "indexed": false,
          "internalType": "uint256",
          "name": "amount",
          "type": "uint256"
        },
        {
          "indexed": false,
          "internalType": "uint256",
          "name": "lton",
          "type": "uint256"
        }
      ],
      "name": "FastWithdrawalStaked",
      "type": "event"
    },
    {
      "anonymous": false,
      "inputs": [
        {
          "indexed": false,
          "internalType": "uint32",
          "name": "sequencerIndex",
          "type": "uint32"
        },
        {
          "indexed": false,
          "internalType": "uint32",
          "name": "candidateIndex",
          "type": "uint32"
        },
        {
          "indexed": false,
          "internalType": "address",
          "name": "sender",
          "type": "address"
        },
        {
          "indexed": false,
          "internalType": "uint256",
          "name": "amount",
          "type": "uint256"
        },
        {
          "indexed": false,
          "internalType": "uint256",
          "name": "lton",
          "type": "uint256"
        }
      ],
      "name": "Restaked",
      "type": "event"
    },
    {
      "anonymous": false,
      "inputs": [
        {
          "indexed": true,
          "internalType": "bytes32",
          "name": "role",
          "type": "bytes32"
        },
        {
          "indexed": true,
          "internalType": "bytes32",
          "name": "previousAdminRole",
          "type": "bytes32"
        },
        {
          "indexed": true,
          "internalType": "bytes32",
          "name": "newAdminRole",
          "type": "bytes32"
        }
      ],
      "name": "RoleAdminChanged",
      "type": "event"
    },
    {
      "anonymous": false,
      "inputs": [
        {
          "indexed": true,
          "internalType": "bytes32",
          "name": "role",
          "type": "bytes32"
        },
        {
          "indexed": true,
          "internalType": "address",
          "name": "account",
          "type": "address"
        },
        {
          "indexed": true,
          "internalType": "address",
          "name": "sender",
          "type": "address"
        }
      ],
      "name": "RoleGranted",
      "type": "event"
    },
    {
      "anonymous": false,
      "inputs": [
        {
          "indexed": true,
          "internalType": "bytes32",
          "name": "role",
          "type": "bytes32"
        },
        {
          "indexed": true,
          "internalType": "address",
          "name": "account",
          "type": "address"
        },
        {
          "indexed": true,
          "internalType": "address",
          "name": "sender",
          "type": "address"
        }
      ],
      "name": "RoleRevoked",
      "type": "event"
    },
    {
      "anonymous": false,
      "inputs": [
        {
          "indexed": false,
          "internalType": "uint32",
          "name": "sequencerIndex",
          "type": "uint32"
        },
        {
          "indexed": false,
          "internalType": "uint32",
          "name": "candidateIndex",
          "type": "uint32"
        },
        {
          "indexed": false,
          "internalType": "address",
          "name": "sender",
          "type": "address"
        },
        {
          "indexed": false,
          "internalType": "uint256",
          "name": "amount",
          "type": "uint256"
        },
        {
          "indexed": false,
          "internalType": "uint256",
          "name": "lton",
          "type": "uint256"
        },
        {
          "indexed": false,
          "internalType": "address",
          "name": "commissionTo",
          "type": "address"
        },
        {
          "indexed": false,
          "internalType": "uint16",
          "name": "commission",
          "type": "uint16"
        }
      ],
      "name": "Staked",
      "type": "event"
    },
    {
      "anonymous": false,
      "inputs": [
        {
          "indexed": false,
          "internalType": "uint32",
          "name": "sequencerIndex",
          "type": "uint32"
        },
        {
          "indexed": false,
          "internalType": "uint32",
          "name": "candidateIndex",
          "type": "uint32"
        },
        {
          "indexed": false,
          "internalType": "address",
          "name": "sender",
          "type": "address"
        },
        {
          "indexed": false,
          "internalType": "uint256",
          "name": "amount",
          "type": "uint256"
        },
        {
          "indexed": false,
          "internalType": "uint256",
          "name": "lton",
          "type": "uint256"
        }
      ],
      "name": "Unstaked",
      "type": "event"
    },
    {
      "anonymous": false,
      "inputs": [
        {
          "indexed": false,
          "internalType": "uint32",
          "name": "sequencerIndex",
          "type": "uint32"
        },
        {
          "indexed": false,
          "internalType": "uint32",
          "name": "candidateIndex",
          "type": "uint32"
        },
        {
          "indexed": false,
          "internalType": "address",
          "name": "sender",
          "type": "address"
        },
        {
          "indexed": false,
          "internalType": "uint256",
          "name": "amount",
          "type": "uint256"
        }
      ],
      "name": "Withdrawal",
      "type": "event"
    },
    {
      "inputs": [],
      "name": "ADMIN_ROLE",
      "outputs": [
        {
          "internalType": "bytes32",
          "name": "",
          "type": "bytes32"
        }
      ],
      "stateMutability": "view",
      "type": "function"
    },
    {
      "inputs": [],
      "name": "DEFAULT_ADMIN_ROLE",
      "outputs": [
        {
          "internalType": "bytes32",
          "name": "",
          "type": "bytes32"
        }
      ],
      "stateMutability": "view",
      "type": "function"
    },
    {
      "inputs": [
        {
          "internalType": "address",
          "name": "addressManager",
          "type": "address"
        }
      ],
      "name": "L1CrossDomainMessenger",
      "outputs": [
        {
          "internalType": "address",
          "name": "account_",
          "type": "address"
        }
      ],
      "stateMutability": "view",
      "type": "function"
    },
    {
      "inputs": [
        {
          "internalType": "address",
          "name": "addressManager",
          "type": "address"
        }
      ],
      "name": "L1StandardBridge",
      "outputs": [
        {
          "internalType": "address",
          "name": "account_",
          "type": "address"
        }
      ],
      "stateMutability": "view",
      "type": "function"
    },
    {
      "inputs": [],
      "name": "POLICY_ROLE",
      "outputs": [
        {
          "internalType": "bytes32",
          "name": "",
          "type": "bytes32"
        }
      ],
      "stateMutability": "view",
      "type": "function"
    },
    {
      "inputs": [
        {
          "internalType": "address",
          "name": "account",
          "type": "address"
        }
      ],
      "name": "addAdmin",
      "outputs": [],
      "stateMutability": "nonpayable",
      "type": "function"
    },
    {
      "inputs": [
        {
          "internalType": "address",
          "name": "",
          "type": "address"
        }
      ],
      "name": "aliveImplementation",
      "outputs": [
        {
          "internalType": "bool",
          "name": "",
          "type": "bool"
        }
      ],
      "stateMutability": "view",
      "type": "function"
    },
    {
      "inputs": [
        {
          "internalType": "uint32",
          "name": "layerIndex",
          "type": "uint32"
        },
        {
          "internalType": "address",
          "name": "account",
          "type": "address"
        }
      ],
      "name": "amountOfPendings",
      "outputs": [
        {
          "internalType": "uint256",
          "name": "amount",
          "type": "uint256"
        },
        {
          "internalType": "uint32",
          "name": "startIndex",
          "type": "uint32"
        },
        {
          "internalType": "uint32",
          "name": "len",
          "type": "uint32"
        },
        {
          "internalType": "uint32",
          "name": "nextWithdrawableBlockNumber",
          "type": "uint32"
        }
      ],
      "stateMutability": "view",
      "type": "function"
    },
    {
      "inputs": [
        {
          "internalType": "uint32",
          "name": "_index",
          "type": "uint32"
        },
        {
          "internalType": "address",
          "name": "account",
          "type": "address"
        }
      ],
      "name": "availableWithdraw",
      "outputs": [
        {
          "internalType": "uint256",
          "name": "amount",
          "type": "uint256"
        },
        {
          "internalType": "uint32",
          "name": "startIndex",
          "type": "uint32"
        },
        {
          "internalType": "uint32",
          "name": "len",
          "type": "uint32"
        }
      ],
      "stateMutability": "view",
      "type": "function"
    },
    {
      "inputs": [
        {
          "internalType": "uint32",
          "name": "_index",
          "type": "uint32"
        },
        {
          "internalType": "address",
          "name": "account",
          "type": "address"
        }
      ],
      "name": "balanceOf",
      "outputs": [
        {
          "internalType": "uint256",
          "name": "amount",
          "type": "uint256"
        }
      ],
      "stateMutability": "view",
      "type": "function"
    },
    {
      "inputs": [
        {
          "internalType": "uint32",
          "name": "_index",
          "type": "uint32"
        },
        {
          "internalType": "address",
          "name": "account",
          "type": "address"
        },
        {
          "internalType": "uint256",
          "name": "snapshotId",
          "type": "uint256"
        }
      ],
      "name": "balanceOfAt",
      "outputs": [
        {
          "internalType": "uint256",
          "name": "amount",
          "type": "uint256"
        }
      ],
      "stateMutability": "view",
      "type": "function"
    },
    {
      "inputs": [
        {
          "internalType": "uint32",
          "name": "_index",
          "type": "uint32"
        },
        {
          "internalType": "address",
          "name": "account",
          "type": "address"
        }
      ],
      "name": "balanceOfLton",
      "outputs": [
        {
          "internalType": "uint256",
          "name": "amount",
          "type": "uint256"
        }
      ],
      "stateMutability": "view",
      "type": "function"
    },
    {
      "inputs": [
        {
          "internalType": "uint32",
          "name": "_index",
          "type": "uint32"
        }
      ],
      "name": "balanceOfLton",
      "outputs": [
        {
          "internalType": "uint256",
          "name": "amount",
          "type": "uint256"
        }
      ],
      "stateMutability": "view",
      "type": "function"
    },
    {
      "inputs": [
        {
          "internalType": "uint32",
          "name": "_index",
          "type": "uint32"
        },
        {
          "internalType": "address",
          "name": "account",
          "type": "address"
        },
        {
          "internalType": "uint256",
          "name": "snapshotId",
          "type": "uint256"
        }
      ],
      "name": "balanceOfLtonAt",
      "outputs": [
        {
          "internalType": "uint256",
          "name": "amount",
          "type": "uint256"
        }
      ],
      "stateMutability": "view",
      "type": "function"
    },
    {
      "inputs": [
        {
          "internalType": "uint32",
          "name": "_index",
          "type": "uint32"
        },
        {
          "internalType": "uint256",
          "name": "snapshotId",
          "type": "uint256"
        }
      ],
      "name": "balanceOfLtonAt",
      "outputs": [
        {
          "internalType": "uint256",
          "name": "amount",
          "type": "uint256"
        }
      ],
      "stateMutability": "view",
      "type": "function"
    },
    {
      "inputs": [
        {
          "internalType": "uint32",
          "name": "_index",
          "type": "uint32"
        },
        {
          "internalType": "uint256",
          "name": "snapshotId",
          "type": "uint256"
        }
      ],
      "name": "balanceOfLtonAtSnapshot",
      "outputs": [
        {
          "internalType": "bool",
          "name": "snapshotted",
          "type": "bool"
        },
        {
          "internalType": "uint256",
          "name": "amount",
          "type": "uint256"
        }
      ],
      "stateMutability": "view",
      "type": "function"
    },
    {
      "inputs": [
        {
          "internalType": "uint32",
          "name": "_index",
          "type": "uint32"
        },
        {
          "internalType": "address",
          "name": "account",
          "type": "address"
        },
        {
          "internalType": "uint256",
          "name": "snapshotId",
          "type": "uint256"
        }
      ],
      "name": "balanceOfLtonAtSnapshot",
      "outputs": [
        {
          "internalType": "bool",
          "name": "snapshotted",
          "type": "bool"
        },
        {
          "internalType": "uint256",
          "name": "amount",
          "type": "uint256"
        }
      ],
      "stateMutability": "view",
      "type": "function"
    },
    {
      "inputs": [
        {
          "internalType": "uint32",
          "name": "_index",
          "type": "uint32"
        }
      ],
      "name": "bridges",
      "outputs": [
        {
          "internalType": "address",
          "name": "",
          "type": "address"
        },
        {
          "internalType": "address",
          "name": "",
          "type": "address"
        }
      ],
      "stateMutability": "view",
      "type": "function"
    },
    {
      "inputs": [
        {
          "internalType": "uint32",
          "name": "_index",
          "type": "uint32"
        },
        {
          "internalType": "bytes",
          "name": "_layerInfo",
          "type": "bytes"
        }
      ],
      "name": "create",
      "outputs": [
        {
          "internalType": "bool",
          "name": "",
          "type": "bool"
        }
      ],
      "stateMutability": "nonpayable",
      "type": "function"
    },
    {
      "inputs": [
        {
          "internalType": "uint32",
          "name": "_index",
          "type": "uint32"
        }
      ],
      "name": "existedIndex",
      "outputs": [
        {
          "internalType": "bool",
          "name": "",
          "type": "bool"
        }
      ],
      "stateMutability": "view",
      "type": "function"
    },
    {
      "inputs": [
        {
          "internalType": "bytes32",
          "name": "hashMessage",
          "type": "bytes32"
        },
        {
          "internalType": "uint32",
          "name": "layerIndex",
          "type": "uint32"
        },
        {
          "internalType": "address",
          "name": "from",
          "type": "address"
        },
        {
          "internalType": "address",
          "name": "to",
          "type": "address"
        },
        {
          "internalType": "uint256",
          "name": "amount",
          "type": "uint256"
        }
      ],
      "name": "fastWithdrawClaim",
      "outputs": [
        {
          "internalType": "bool",
          "name": "",
          "type": "bool"
        }
      ],
      "stateMutability": "nonpayable",
      "type": "function"
    },
    {
      "inputs": [
        {
          "internalType": "bytes32",
          "name": "hashMessage",
          "type": "bytes32"
        },
        {
          "internalType": "uint32",
          "name": "layerIndex",
          "type": "uint32"
        },
        {
          "internalType": "address",
          "name": "staker",
          "type": "address"
        },
        {
          "internalType": "uint256",
          "name": "_amount",
          "type": "uint256"
        }
      ],
      "name": "fastWithdrawStake",
      "outputs": [
        {
          "internalType": "bool",
          "name": "",
          "type": "bool"
        }
      ],
      "stateMutability": "nonpayable",
      "type": "function"
    },
    {
      "inputs": [],
      "name": "fwReceipt",
      "outputs": [
        {
          "internalType": "address",
          "name": "",
          "type": "address"
        }
      ],
      "stateMutability": "view",
      "type": "function"
    },
    {
      "inputs": [],
      "name": "getCurrentSnapshotId",
      "outputs": [
        {
          "internalType": "uint256",
          "name": "",
          "type": "uint256"
        }
      ],
      "stateMutability": "view",
      "type": "function"
    },
    {
      "inputs": [
        {
          "internalType": "uint32",
          "name": "_index",
          "type": "uint32"
        }
      ],
      "name": "getLayerInfo",
      "outputs": [
        {
          "components": [
            {
              "internalType": "address",
              "name": "addressManager",
              "type": "address"
            },
            {
              "internalType": "address",
              "name": "l1Bridge",
              "type": "address"
            },
            {
              "internalType": "address",
              "name": "l2Bridge",
              "type": "address"
            },
            {
              "internalType": "address",
              "name": "l2ton",
              "type": "address"
            }
          ],
          "internalType": "struct LibOptimism.Info",
          "name": "_layerInfo",
          "type": "tuple"
        }
      ],
      "stateMutability": "view",
      "type": "function"
    },
    {
      "inputs": [
        {
          "internalType": "uint32",
          "name": "_index",
          "type": "uint32"
        }
      ],
      "name": "getLayerKey",
      "outputs": [
        {
          "internalType": "bytes32",
          "name": "layerKey_",
          "type": "bytes32"
        }
      ],
      "stateMutability": "view",
      "type": "function"
    },
    {
      "inputs": [
        {
          "internalType": "uint32",
          "name": "_index",
          "type": "uint32"
        },
        {
          "internalType": "address",
          "name": "account",
          "type": "address"
        }
      ],
      "name": "getLayerStakes",
      "outputs": [
        {
          "components": [
            {
              "internalType": "uint256",
              "name": "stakePrincipal",
              "type": "uint256"
            },
            {
              "internalType": "uint256",
              "name": "stakelton",
              "type": "uint256"
            },
            {
              "internalType": "bool",
              "name": "stake",
              "type": "bool"
            }
          ],
          "internalType": "struct LibStake.StakeInfo",
          "name": "info",
          "type": "tuple"
        }
      ],
      "stateMutability": "view",
      "type": "function"
    },
    {
      "inputs": [
        {
          "internalType": "uint32",
          "name": "_index",
          "type": "uint32"
        },
        {
          "internalType": "address",
          "name": "account",
          "type": "address"
        }
      ],
      "name": "getPendingUnstakedAmount",
      "outputs": [
        {
          "internalType": "uint256",
          "name": "",
          "type": "uint256"
        }
      ],
      "stateMutability": "view",
      "type": "function"
    },
    {
      "inputs": [
        {
          "internalType": "bytes32",
          "name": "role",
          "type": "bytes32"
        }
      ],
      "name": "getRoleAdmin",
      "outputs": [
        {
          "internalType": "bytes32",
          "name": "",
          "type": "bytes32"
        }
      ],
      "stateMutability": "view",
      "type": "function"
    },
    {
      "inputs": [],
      "name": "getStakeAccountList",
      "outputs": [
        {
          "internalType": "address[]",
          "name": "",
          "type": "address[]"
        }
      ],
      "stateMutability": "view",
      "type": "function"
    },
    {
      "inputs": [],
      "name": "getTotalLton",
      "outputs": [
        {
          "internalType": "uint256",
          "name": "",
          "type": "uint256"
        }
      ],
      "stateMutability": "view",
      "type": "function"
    },
    {
      "inputs": [
        {
          "internalType": "uint32",
          "name": "_index",
          "type": "uint32"
        }
      ],
      "name": "getTvl",
      "outputs": [
        {
          "internalType": "uint256",
          "name": "amount",
          "type": "uint256"
        }
      ],
      "stateMutability": "view",
      "type": "function"
    },
    {
      "inputs": [
        {
          "internalType": "address",
          "name": "l1Bridge",
          "type": "address"
        },
        {
          "internalType": "address",
          "name": "l2ton",
          "type": "address"
        }
      ],
      "name": "getTvl",
      "outputs": [
        {
          "internalType": "uint256",
          "name": "amount",
          "type": "uint256"
        }
      ],
      "stateMutability": "view",
      "type": "function"
    },
    {
      "inputs": [
        {
          "internalType": "bytes32",
          "name": "role",
          "type": "bytes32"
        },
        {
          "internalType": "address",
          "name": "account",
          "type": "address"
        }
      ],
      "name": "grantRole",
      "outputs": [],
      "stateMutability": "nonpayable",
      "type": "function"
    },
    {
      "inputs": [
        {
          "internalType": "bytes32",
          "name": "role",
          "type": "bytes32"
        },
        {
          "internalType": "address",
          "name": "account",
          "type": "address"
        }
      ],
      "name": "hasRole",
      "outputs": [
        {
          "internalType": "bool",
          "name": "",
          "type": "bool"
        }
      ],
      "stateMutability": "view",
      "type": "function"
    },
    {
      "inputs": [
        {
          "internalType": "address",
          "name": "account",
          "type": "address"
        }
      ],
      "name": "isAdmin",
      "outputs": [
        {
          "internalType": "bool",
          "name": "",
          "type": "bool"
        }
      ],
      "stateMutability": "view",
      "type": "function"
    },
    {
      "inputs": [
        {
          "internalType": "uint32",
          "name": "_index",
          "type": "uint32"
        }
      ],
      "name": "layer2Deposits",
      "outputs": [
        {
          "internalType": "uint256",
          "name": "amount",
          "type": "uint256"
        }
      ],
      "stateMutability": "view",
      "type": "function"
    },
    {
      "inputs": [],
      "name": "layer2Manager",
      "outputs": [
        {
          "internalType": "address",
          "name": "",
          "type": "address"
        }
      ],
      "stateMutability": "view",
      "type": "function"
    },
    {
      "inputs": [
        {
          "internalType": "uint32",
          "name": "",
          "type": "uint32"
        }
      ],
      "name": "layerInfo",
      "outputs": [
        {
          "internalType": "bytes",
          "name": "",
          "type": "bytes"
        }
      ],
      "stateMutability": "view",
      "type": "function"
    },
    {
      "inputs": [
        {
          "internalType": "uint32",
          "name": "",
          "type": "uint32"
        }
      ],
      "name": "layerStakedLton",
      "outputs": [
        {
          "internalType": "uint256",
          "name": "",
          "type": "uint256"
        }
      ],
      "stateMutability": "view",
      "type": "function"
    },
    {
      "inputs": [
        {
          "internalType": "uint32",
          "name": "",
          "type": "uint32"
        },
        {
          "internalType": "address",
          "name": "",
          "type": "address"
        }
      ],
      "name": "layerStakes",
      "outputs": [
        {
          "internalType": "uint256",
          "name": "stakePrincipal",
          "type": "uint256"
        },
        {
          "internalType": "uint256",
          "name": "stakelton",
          "type": "uint256"
        },
        {
          "internalType": "bool",
          "name": "stake",
          "type": "bool"
        }
      ],
      "stateMutability": "view",
      "type": "function"
    },
    {
      "inputs": [
        {
          "internalType": "uint32",
          "name": "layerIndex",
          "type": "uint32"
        },
        {
          "internalType": "address",
          "name": "account",
          "type": "address"
        }
      ],
      "name": "numberOfPendings",
      "outputs": [
        {
          "internalType": "uint256",
          "name": "totalRequests",
          "type": "uint256"
        },
        {
          "internalType": "uint256",
          "name": "withdrawIndex",
          "type": "uint256"
        },
        {
          "internalType": "uint256",
          "name": "pendingLength",
          "type": "uint256"
        }
      ],
      "stateMutability": "view",
      "type": "function"
    },
    {
      "inputs": [
        {
          "internalType": "address",
          "name": "sender",
          "type": "address"
        },
        {
          "internalType": "address",
          "name": "spender",
          "type": "address"
        },
        {
          "internalType": "uint256",
          "name": "amount",
          "type": "uint256"
        },
        {
          "internalType": "bytes",
          "name": "data",
          "type": "bytes"
        }
      ],
      "name": "onApprove",
      "outputs": [
        {
          "internalType": "bool",
          "name": "",
          "type": "bool"
        }
      ],
      "stateMutability": "nonpayable",
      "type": "function"
    },
    {
      "inputs": [],
      "name": "pauseProxy",
      "outputs": [
        {
          "internalType": "bool",
          "name": "",
          "type": "bool"
        }
      ],
      "stateMutability": "view",
      "type": "function"
    },
    {
      "inputs": [
        {
          "internalType": "uint32",
          "name": "",
          "type": "uint32"
        },
        {
          "internalType": "address",
          "name": "",
          "type": "address"
        }
      ],
      "name": "pendingUnstaked",
      "outputs": [
        {
          "internalType": "uint256",
          "name": "",
          "type": "uint256"
        }
      ],
      "stateMutability": "view",
      "type": "function"
    },
    {
      "inputs": [
        {
          "internalType": "address",
          "name": "",
          "type": "address"
        }
      ],
      "name": "pendingUnstakedAccount",
      "outputs": [
        {
          "internalType": "uint256",
          "name": "",
          "type": "uint256"
        }
      ],
      "stateMutability": "view",
      "type": "function"
    },
    {
      "inputs": [
        {
          "internalType": "uint32",
          "name": "",
          "type": "uint32"
        }
      ],
      "name": "pendingUnstakedLayer2",
      "outputs": [
        {
          "internalType": "uint256",
          "name": "",
          "type": "uint256"
        }
      ],
      "stateMutability": "view",
      "type": "function"
    },
    {
      "inputs": [
        {
          "internalType": "uint256",
          "name": "",
          "type": "uint256"
        }
      ],
      "name": "proxyImplementation",
      "outputs": [
        {
          "internalType": "address",
          "name": "",
          "type": "address"
        }
      ],
      "stateMutability": "view",
      "type": "function"
    },
    {
      "inputs": [
        {
          "internalType": "address",
          "name": "account",
          "type": "address"
        }
      ],
      "name": "removeAdmin",
      "outputs": [],
      "stateMutability": "nonpayable",
      "type": "function"
    },
    {
      "inputs": [
        {
          "internalType": "bytes32",
          "name": "role",
          "type": "bytes32"
        },
        {
          "internalType": "address",
          "name": "account",
          "type": "address"
        }
      ],
      "name": "renounceRole",
      "outputs": [],
      "stateMutability": "nonpayable",
      "type": "function"
    },
    {
      "inputs": [
        {
          "internalType": "uint32",
          "name": "_index",
          "type": "uint32"
        },
        {
          "internalType": "bool",
          "name": "isCandidate",
          "type": "bool"
        }
      ],
      "name": "restake",
      "outputs": [],
      "stateMutability": "nonpayable",
      "type": "function"
    },
    {
      "inputs": [
        {
          "internalType": "uint32",
          "name": "_index",
          "type": "uint32"
        },
        {
          "internalType": "uint256",
          "name": "n",
          "type": "uint256"
        },
        {
          "internalType": "bool",
          "name": "isCandidate",
          "type": "bool"
        }
      ],
      "name": "restakeMulti",
      "outputs": [],
      "stateMutability": "nonpayable",
      "type": "function"
    },
    {
      "inputs": [
        {
          "internalType": "bytes32",
          "name": "role",
          "type": "bytes32"
        },
        {
          "internalType": "address",
          "name": "account",
          "type": "address"
        }
      ],
      "name": "revokeRole",
      "outputs": [],
      "stateMutability": "nonpayable",
      "type": "function"
    },
    {
      "inputs": [],
      "name": "seigManagerV2",
      "outputs": [
        {
          "internalType": "address",
          "name": "",
          "type": "address"
        }
      ],
      "stateMutability": "view",
      "type": "function"
    },
    {
      "inputs": [
        {
          "internalType": "bytes4",
          "name": "",
          "type": "bytes4"
        }
      ],
      "name": "selectorImplementation",
      "outputs": [
        {
          "internalType": "address",
          "name": "",
          "type": "address"
        }
      ],
      "stateMutability": "view",
      "type": "function"
    },
    {
      "inputs": [
        {
          "internalType": "address",
          "name": "addressManager",
          "type": "address"
        }
      ],
      "name": "sequencer",
      "outputs": [
        {
          "internalType": "address",
          "name": "sequencer_",
          "type": "address"
        }
      ],
      "stateMutability": "view",
      "type": "function"
    },
    {
      "inputs": [
        {
          "internalType": "uint32",
          "name": "_index",
          "type": "uint32"
        }
      ],
      "name": "sequencer",
      "outputs": [
        {
          "internalType": "address",
          "name": "sequencer_",
          "type": "address"
        }
      ],
      "stateMutability": "view",
      "type": "function"
    },
    {
      "inputs": [
        {
          "internalType": "uint32",
          "name": "_index",
          "type": "uint32"
        },
        {
          "internalType": "uint256",
          "name": "amount",
          "type": "uint256"
        }
      ],
      "name": "stake",
      "outputs": [],
      "stateMutability": "nonpayable",
      "type": "function"
    },
    {
      "inputs": [
        {
          "internalType": "uint256",
          "name": "",
          "type": "uint256"
        }
      ],
      "name": "stakeAccountList",
      "outputs": [
        {
          "internalType": "address",
          "name": "",
          "type": "address"
        }
      ],
      "stateMutability": "view",
      "type": "function"
    },
    {
      "inputs": [
        {
          "internalType": "bytes4",
          "name": "interfaceId",
          "type": "bytes4"
        }
      ],
      "name": "supportsInterface",
      "outputs": [
        {
          "internalType": "bool",
          "name": "",
          "type": "bool"
        }
      ],
      "stateMutability": "view",
      "type": "function"
    },
    {
      "inputs": [],
      "name": "ton",
      "outputs": [
        {
          "internalType": "address",
          "name": "",
          "type": "address"
        }
      ],
      "stateMutability": "view",
      "type": "function"
    },
    {
      "inputs": [],
      "name": "totalLayer2Deposits",
      "outputs": [
        {
          "internalType": "uint256",
          "name": "amount",
          "type": "uint256"
        }
      ],
      "stateMutability": "view",
      "type": "function"
    },
    {
      "inputs": [],
      "name": "totalStakeAccountList",
      "outputs": [
        {
          "internalType": "uint256",
          "name": "",
          "type": "uint256"
        }
      ],
      "stateMutability": "view",
      "type": "function"
    },
    {
      "inputs": [],
      "name": "totalStakedLton",
      "outputs": [
        {
          "internalType": "uint256",
          "name": "amount",
          "type": "uint256"
        }
      ],
      "stateMutability": "view",
      "type": "function"
    },
    {
      "inputs": [
        {
          "internalType": "uint256",
          "name": "snapshotId",
          "type": "uint256"
        }
      ],
      "name": "totalStakedLtonAt",
      "outputs": [
        {
          "internalType": "uint256",
          "name": "amount",
          "type": "uint256"
        }
      ],
      "stateMutability": "view",
      "type": "function"
    },
    {
      "inputs": [
        {
          "internalType": "uint256",
          "name": "snapshotId",
          "type": "uint256"
        }
      ],
      "name": "totalStakedLtonAtSnapshot",
      "outputs": [
        {
          "internalType": "bool",
          "name": "snapshotted",
          "type": "bool"
        },
        {
          "internalType": "uint256",
          "name": "amount",
          "type": "uint256"
        }
      ],
      "stateMutability": "view",
      "type": "function"
    },
    {
      "inputs": [
        {
          "internalType": "address",
          "name": "newAdmin",
          "type": "address"
        }
      ],
      "name": "transferAdmin",
      "outputs": [],
      "stateMutability": "nonpayable",
      "type": "function"
    },
    {
      "inputs": [
        {
          "internalType": "uint32",
          "name": "_index",
          "type": "uint32"
        },
        {
          "internalType": "uint256",
          "name": "lton_",
          "type": "uint256"
        }
      ],
      "name": "unstake",
      "outputs": [],
      "stateMutability": "nonpayable",
      "type": "function"
    },
    {
      "inputs": [
        {
          "internalType": "uint32",
          "name": "_index",
          "type": "uint32"
        },
        {
          "internalType": "bool",
          "name": "isCandidate",
          "type": "bool"
        }
      ],
      "name": "withdraw",
      "outputs": [],
      "stateMutability": "nonpayable",
      "type": "function"
    },
    {
      "inputs": [
        {
          "internalType": "uint32",
          "name": "",
          "type": "uint32"
        },
        {
          "internalType": "address",
          "name": "",
          "type": "address"
        }
      ],
      "name": "withdrawalRequestIndex",
      "outputs": [
        {
          "internalType": "uint256",
          "name": "",
          "type": "uint256"
        }
      ],
      "stateMutability": "view",
      "type": "function"
    },
    {
      "inputs": [
        {
          "internalType": "uint32",
          "name": "",
          "type": "uint32"
        },
        {
          "internalType": "address",
          "name": "",
          "type": "address"
        },
        {
          "internalType": "uint256",
          "name": "",
          "type": "uint256"
        }
      ],
      "name": "withdrawalRequests",
      "outputs": [
        {
          "internalType": "uint32",
          "name": "withdrawableBlockNumber",
          "type": "uint32"
        },
        {
          "internalType": "uint128",
          "name": "amount",
          "type": "uint128"
        },
        {
          "internalType": "bool",
          "name": "processed",
          "type": "bool"
        }
      ],
      "stateMutability": "view",
      "type": "function"
    }
  ],
  "bytecode": "0x60806040526006805460ff1916600117905534801561001d57600080fd5b50614fe58061002d6000396000f3fe608060405234801561001057600080fd5b506004361061048d5760003560e01c806375b238fc1161026b578063a217fddf11610150578063cdc76cf9116100c8578063e4f6815511610097578063edcc21771161007c578063edcc217714610c99578063f2b9ddfc14610cac578063f8d437ae14610cbf57600080fd5b8063e4f6815514610c73578063ec110d4514610c8657600080fd5b8063cdc76cf914610c27578063d07918f114610c3a578063d547741f14610c4d578063df2b429014610c6057600080fd5b8063b6a2f99d1161011f578063b969fbef11610104578063b969fbef14610be7578063b9cab97114610bef578063cc48b94714610c0f57600080fd5b8063b6a2f99d14610b90578063b911135f14610bbe57600080fd5b8063a217fddf14610b62578063a2dc9e0214610b6a578063a4c735ef14610b7d578063b413b37a146106b057600080fd5b80638d99e1ca116101e357806398238355116101b25780639c2f7f3b116101975780639c2f7f3b14610ad55780639c656e2614610ae8578063a0b2a91314610b4257600080fd5b80639823835514610aaf5780639c2f614f14610ac257600080fd5b80638d99e1ca14610a145780638ddd87fe14610a2757806391d1485414610a6557806394c89b2c14610a9c57600080fd5b806385b9e4851161023a5780638c6f1b391161021f5780638c6f1b39146109765780638c71762d146109cc5780638d1f3d0a14610a0157600080fd5b806385b9e4851461093d5780638afec9fc1461095057600080fd5b806375b238fc146108c55780637cf1587c146108ec5780637d211a1c146109175780637ec6840f1461092a57600080fd5b80634de131ca1161039157806363a8fd891161030957806370480275116102d85780637138c792116102bd5780637138c7921461088c57806373469a7a1461089f57806375829def146108b257600080fd5b8063704802751461085957806370619cf91461086c57600080fd5b806363a8fd89146107da578063659ab820146107e75780636818a32b146108075780636d1ef1031461081a57600080fd5b80635439ad86116103605780635d0c7b2b116103455780635d0c7b2b146107365780635e2cfe45146107495780635f1b989e1461077457600080fd5b80635439ad861461070b578063550d01a31461071357600080fd5b80634de131ca1461069b5780634e1a264d146106b05780634ec2f04b146106b857806350d2a276146106e257600080fd5b806322985246116104245780632f2ff15d116103f357806341e5dbe8116103d857806341e5dbe81461066d5780634273ca161461068057806346bcdb491461069357600080fd5b80632f2ff15d1461064757806336568abe1461065a57600080fd5b806322985246146105d7578063248a9ca3146105fe57806324d7806c1461062157806329637c1c1461063457600080fd5b806316b5d5bd1161046057806316b5d5bd146105235780631785f53c1461054e5780631ed94495146105615780631f760d011461059857600080fd5b80630116cc651461049257806301ffc9a7146104b85780630b8931cb146104db578063127025971461050e575b600080fd5b6104a56104a0366004614681565b610cd2565b6040519081526020015b60405180910390f35b6104cb6104c636600461469c565b610d03565b60405190151581526020016104af565b6104ee6104e9366004614681565b610d3a565b604080516001600160a01b039384168152929091166020830152016104af565b61052161051c3660046146d4565b610de0565b005b600854610536906001600160a01b031681565b6040516001600160a01b0390911681526020016104af565b61052161055c366004614720565b611266565b61057461056f36600461473d565b6112f3565b604080518251815260208084015190820152918101511515908201526060016104af565b6105ab6105a636600461473d565b611372565b6040805194855263ffffffff9384166020860152918316918401919091521660608201526080016104af565b6104a57ffb5864e8ff833c3cb2d2d08505e82ff02a43554c74a35d4f5a64e8526127831181565b6104a561060c366004614769565b60009081526020819052604090206001015490565b6104cb61062f366004614720565b6114b0565b6104a5610642366004614782565b6114f0565b6105216106553660046147c1565b61157f565b6105216106683660046147c1565b6115a9565b6104a561067b366004614681565b611635565b6104cb61068e3660046147e6565b61170e565b6017546104a5565b6106a3611867565b6040516104af9190614885565b600a546104a5565b6106cb6106c63660046148d2565b6118c9565b6040805192151583526020830191909152016104af565b6105366106f036600461469c565b6004602052600090815260409020546001600160a01b031681565b6104a56118f7565b6104cb610721366004614720565b60036020526000908152604090205460ff1681565b610536610744366004614720565b61196a565b6104a561075736600461473d565b601360209081526000928352604080842090915290825290205481565b6104a561078236600461473d565b63ffffffff9091166000908152600f602090815260408083206001600160a01b03909416835292815290829020825160608101845281548152600182015492810183905260029091015460ff16151592019190915290565b6001546104cb9060ff1681565b6107fa6107f5366004614681565b611a31565b6040516104af919061494c565b6104a5610815366004614782565b611acb565b61082d610828366004614782565b611b6f565b6040805163ffffffff90941684526001600160801b0390921660208401521515908201526060016104af565b610521610867366004614720565b611bce565b6104a561087a366004614681565b600d6020526000908152604090205481565b6104cb61089a36600461495f565b611c58565b600754610536906001600160a01b031681565b6105216108c0366004614720565b611e2a565b6104a57fdf8b4c520ffe197c5343c6f5aec59570151ef9a492f2c624fd45ddde6135ec4281565b6104a56108fa36600461473d565b601260209081526000928352604080842090915290825290205481565b6104cb610925366004614681565b611f8c565b6105216109383660046148d2565b61204a565b6104cb61094b3660046149a5565b6120a5565b6104a561095e366004614681565b63ffffffff166000908152600d602052604090205490565b610989610984366004614681565b61234a565b6040516104af919081516001600160a01b039081168252602080840151821690830152604080840151821690830152606092830151169181019190915260800190565b6109df6109da36600461473d565b6123f5565b6040805193845263ffffffff92831660208501529116908201526060016104af565b610536610a0f366004614681565b612532565b6104a5610a22366004614681565b6126e2565b6104a5610a3536600461473d565b63ffffffff821660009081526013602090815260408083206001600160a01b038516845290915290205492915050565b6104cb610a733660046147c1565b6000918252602082815260408084206001600160a01b0393909316845291905290205460ff1690565b6104a5610aaa36600461473d565b612755565b6106cb610abd366004614782565b612815565b610521610ad03660046148d2565b612857565b610521610ae33660046146d4565b6128e3565b610b25610af636600461473d565b600f60209081526000928352604080842090915290825290208054600182015460029092015490919060ff1683565b6040805193845260208401929092521515908201526060016104af565b6104a5610b50366004614720565b60156020526000908152604090205481565b6104a5600081565b610536610b78366004614720565b612963565b610536610b8b366004614720565b6129d5565b610ba3610b9e36600461473d565b612a32565b604080519384526020840192909252908201526060016104af565b610536610bcc366004614769565b6002602052600090815260409020546001600160a01b031681565b6104a5612a8d565b6104a5610bfd366004614681565b60146020526000908152604090205481565b6006546105369061010090046001600160a01b031681565b6104a5610c353660046148d2565b612ad7565b600954610536906001600160a01b031681565b610521610c5b3660046147c1565b612b2a565b6104cb610c6e366004614a45565b612b4f565b6104a5610c81366004614769565b612c95565b610536610c94366004614769565b612cb6565b6104a5610ca7366004614aeb565b612ce0565b610521610cba366004614b09565b612d93565b6106cb610ccd366004614769565b612e57565b63ffffffff81166000908152601660205260408082209051610cf49190614b7d565b60405180910390209050919050565b60006001600160e01b03198216637965db0b60e01b1480610d3457506301ffc9a760e01b6001600160e01b03198316145b92915050565b63ffffffff8116600090815260166020526040808220905163186ca86f60e21b81528291829173__$35081dc60fc26376aafbbba403b8b17c43$__916361b2a1bc91610d899190600401614bf3565b608060405180830381865af4158015610da6573d6000803e3d6000fd5b505050506040513d601f19601f82011682018060405250810190610dca9190614c7e565b9050806020015181604001519250925050915091565b60065460ff16610e245760405162461bcd60e51b8152600401610e1b906020808252600490820152636c6f636b60e01b604082015260600190565b60405180910390fd5b6006805460ff1916905563ffffffff821660008181526011602090815260408083203380855290835281842054948452601283528184208185529092528220549092919081905b83811015610f3d5763ffffffff871660009081526011602090815260408083206001600160a01b03891684529091528120805483908110610eae57610eae614d03565b600091825260209091200180549091504363ffffffff909116108015610edd57508054600160a01b900460ff16155b15610f2457805460ff60a01b1916600160a01b17808255610f10906001600160801b036401000000009091041684614d2f565b925083610f1c81614d42565b945050610f2a565b50610f3d565b5080610f3581614d42565b915050610e6b565b5060008111610f8e5760405162461bcd60e51b815260206004820181905260248201527f7a65726f20617661696c61626c65207769746864726177616c20616d6f756e746044820152606401610e1b565b63ffffffff861660009081526012602090815260408083206001600160a01b038816845290915281208054849290610fc7908490614d2f565b909155505063ffffffff861660009081526013602090815260408083206001600160a01b038816845290915281208054839290611005908490614d5b565b909155505063ffffffff86166000908152601460205260408120805483929061102f908490614d5b565b90915550506001600160a01b0384166000908152601560205260408120805483929061105c908490614d5b565b90915550506006546040516370a0823160e01b815230600482015260009161010090046001600160a01b0316906370a0823190602401602060405180830381865afa1580156110af573d6000803e3d6000fd5b505050506040513d601f19601f820116820180604052508101906110d39190614d6e565b90508181101561117e5780156110ff576006546110ff9061010090046001600160a01b03168683612e6e565b6007546001600160a01b031663aad3ec968661111b8486614d5b565b6040516001600160e01b031960e085901b1681526001600160a01b0390921660048301526024820152604401600060405180830381600087803b15801561116157600080fd5b505af1158015611175573d6000803e3d6000fd5b5050505061119a565b60065461119a9061010090046001600160a01b03168684612e6e565b85156111fa57604080516000815263ffffffff891660208201526001600160a01b038716818301526060810184905290517fb791c1a058894ea979a242d29f1379dab41dcc3b829ac9136b73308ea52d58d39181900360800190a1611250565b6040805163ffffffff89168152600060208201526001600160a01b038716818301526060810184905290517fb791c1a058894ea979a242d29f1379dab41dcc3b829ac9136b73308ea52d58d39181900360800190a15b50506006805460ff191660011790555050505050565b61126f336114b0565b6112c65760405162461bcd60e51b815260206004820152602260248201527f41636365737369626c653a2043616c6c6572206973206e6f7420616e2061646d60448201526134b760f11b6064820152608401610e1b565b6112f07fdf8b4c520ffe197c5343c6f5aec59570151ef9a492f2c624fd45ddde6135ec42826115a9565b50565b611319604051806060016040528060008152602001600081526020016000151581525090565b5063ffffffff9091166000908152600f602090815260408083206001600160a01b039094168352928152908290208251606081018452815481526001820154928101929092526002015460ff1615159181019190915290565b63ffffffff80831660008181526011602090815260408083206001600160a01b038716808552908352818420549484526012835281842090845290915281205490929091839182919084165b818110156114a55763ffffffff881660009081526011602090815260408083206001600160a01b038b168452909152812080548390811061140157611401614d03565b6000918252602080832060408051606081018252939091015463ffffffff8116845264010000000081046001600160801b031692840192909252600160a01b90910460ff1615159082018190529092509003611492578363ffffffff1660000361146a57805193505b6020810151611482906001600160801b031688614d2f565b965061148f600186614d87565b94505b508061149d81614d42565b9150506113be565b505092959194509250565b6001600160a01b03811660009081527f5cbfc8ee58ca47855df7bcf648dd304ddb6b932f9b87878bdf6318d7ec7ee5b7602052604081205460ff16610d34565b6007546000906001600160a01b0316638df40b2c61150f868686611acb565b846040518363ffffffff1660e01b8152600401611536929190918252602082015260400190565b602060405180830381865afa158015611553573d6000803e3d6000fd5b505050506040513d601f19601f820116820180604052508101906115779190614d6e565b949350505050565b60008281526020819052604090206001015461159a81612f89565b6115a48383612f93565b505050565b6001600160a01b03811633146116275760405162461bcd60e51b815260206004820152602f60248201527f416363657373436f6e74726f6c3a2063616e206f6e6c792072656e6f756e636560448201527f20726f6c657320666f722073656c6600000000000000000000000000000000006064820152608401610e1b565b6116318282613031565b5050565b6000806116418361234a565b90506116508160000151612963565b60065460608301516040516347b00fb360e11b81526001600160a01b03610100909304831660048201529082166024820152911690638f601f6690604401602060405180830381865afa9250505080156116c7575060408051601f3d908101601f191682019092526116c491810190614d6e565b60015b611705573d8080156116f5576040519150601f19603f3d011682016040523d82523d6000602084013e6116fa565b606091505b506000925050611708565b91505b50919050565b60065460009061010090046001600160a01b031633146117555760405162461bcd60e51b8152602060048201526002602482015261454160f01b6044820152606401610e1b565b61179c610925600085858080601f01602080910402602001604051908101604052809392919081815260200183838082843760009201919091525092939250506130b09050565b6117df5760405162461bcd60e51b81526020600482015260146024820152733737b716b932b3b4b9ba32b932b2103630bcb2b960611b6044820152606401610e1b565b6000611825600085858080601f01602080910402602001604051908101604052809392919081815260200183838082843760009201919091525092939250506130b09050565b9050841561184a5760065461184a9061010090046001600160a01b0316883088613170565b61185a8160008988600080613294565b5060019695505050505050565b606060178054806020026020016040519081016040528092919081815260200182805480156118bf57602002820191906000526020600020905b81546001600160a01b031681526001909101906020018083116118a1575b5050505050905090565b63ffffffff82166000908152600e6020526040812081906118eb9084906136ac565b915091505b9250929050565b60075460408051632a1cd6c360e11b815290516000926001600160a01b031691635439ad869160048083019260209291908290030181865afa158015611941573d6000803e3d6000fd5b505050506040513d601f19601f820116820180604052508101906119659190614d6e565b905090565b60405163bf40fac160e01b815260206004820152600d60248201526c27ab26afa9b2b8bab2b731b2b960991b60448201526000906001600160a01b0383169063bf40fac1906064015b602060405180830381865afa9250505080156119ec575060408051601f3d908101601f191682019092526119e991810190614dab565b60015b611a29573d808015611a1a576040519150601f19603f3d011682016040523d82523d6000602084013e611a1f565b606091505b5060009392505050565b90505b919050565b60166020526000908152604090208054611a4a90614b49565b80601f0160208091040260200160405190810160405280929190818152602001828054611a7690614b49565b8015611ac35780601f10611a9857610100808354040283529160200191611ac3565b820191906000526020600020905b815481529060010190602001808311611aa657829003601f168201915b505050505081565b63ffffffff831660009081526010602090815260408083206001600160a01b0386168452909152812081908190611b039085906136ac565b9150915081611b635763ffffffff86166000908152600f602090815260408083206001600160a01b0389168452825291829020825160608101845281548152600182015492810183905260029091015460ff161515920191909152611b65565b805b9695505050505050565b60116020528260005260406000206020528160005260406000208181548110611b9757600080fd5b60009182526020909120015463ffffffff8116935064010000000081046001600160801b03169250600160a01b900460ff16905083565b611bd7336114b0565b611c2e5760405162461bcd60e51b815260206004820152602260248201527f41636365737369626c653a2043616c6c6572206973206e6f7420616e2061646d60448201526134b760f11b6064820152608401610e1b565b6112f07fdf8b4c520ffe197c5343c6f5aec59570151ef9a492f2c624fd45ddde6135ec428261157f565b6009546000906001600160a01b03163314611ca55760405162461bcd60e51b815260206004820152600d60248201526c232bafa1a0a62622a92fa2a92960991b6044820152606401610e1b565b611caf84846137cf565b600754604051636a2fb1f560e01b8152600481018490526000916001600160a01b031690636a2fb1f590602401602060405180830381865afa158015611cf9573d6000803e3d6000fd5b505050506040513d601f19601f82011682018060405250810190611d1d9190614d6e565b63ffffffff86166000908152600d6020526040812080549293508392909190611d47908490614d2f565b9250508190555080600a6000828254611d609190614d2f565b909155505063ffffffff85166000908152600f602090815260408083206001600160a01b03881684529091528120805490918591839190611da2908490614d2f565b9250508190555081816001016000828254611dbd9190614d2f565b90915550506040805188815263ffffffff881660208201526001600160a01b03871681830152606081018690526080810184905290517f8cf204c07a4ce065cdd0c90963672bd384e5479ada88179bca8eb6075c02731f9181900360a00190a15060019695505050505050565b611e33336114b0565b611e8a5760405162461bcd60e51b815260206004820152602260248201527f41636365737369626c653a2043616c6c6572206973206e6f7420616e2061646d60448201526134b760f11b6064820152608401610e1b565b6001600160a01b038116611ee05760405162461bcd60e51b815260206004820152601860248201527f41636365737369626c653a207a65726f206164647265737300000000000000006044820152606401610e1b565b6001600160a01b0381163303611f385760405162461bcd60e51b815260206004820152601660248201527f41636365737369626c653a2073616d652061646d696e000000000000000000006044820152606401610e1b565b611f627fdf8b4c520ffe197c5343c6f5aec59570151ef9a492f2c624fd45ddde6135ec428261157f565b6112f07fdf8b4c520ffe197c5343c6f5aec59570151ef9a492f2c624fd45ddde6135ec42336115a9565b60085460405163370f791d60e11b815263ffffffff831660048201526000916001600160a01b031690636e1ef23a90602401602060405180830381865afa158015611fdb573d6000803e3d6000fd5b505050506040513d601f19601f82011682018060405250810190611fff9190614dc8565b6120425760405162461bcd60e51b81526020600482015260146024820152733737b716b932b3b4b9ba32b932b2103630bcb2b960611b6044820152606401610e1b565b506001919050565b61205382611f8c565b6120965760405162461bcd60e51b81526020600482015260146024820152733737b716b932b3b4b9ba32b932b2103630bcb2b960611b6044820152606401610e1b565b6116318260008360008061387d565b60065460009060ff166120e35760405162461bcd60e51b8152600401610e1b906020808252600490820152636c6f636b60e01b604082015260600190565b6006805460ff191690556009546001600160a01b031633146121375760405162461bcd60e51b815260206004820152600d60248201526c232bafa1a0a62622a92fa2a92960991b6044820152606401610e1b565b816121428686612755565b10156121905760405162461bcd60e51b815260206004820152601960248201527f6c697175696469747920697320696e73756666696369656e74000000000000006044820152606401610e1b565b61219a85856137cf565b6006546040516370a0823160e01b815230600482015260009161010090046001600160a01b0316906370a0823190602401602060405180830381865afa1580156121e8573d6000803e3d6000fd5b505050506040513d601f19601f8201168201806040525081019061220c9190614d6e565b9050828110156122b7578015612238576006546122389061010090046001600160a01b03168583612e6e565b6007546001600160a01b031663aad3ec96856122548487614d5b565b6040516001600160e01b031960e085901b1681526001600160a01b0390921660048301526024820152604401600060405180830381600087803b15801561229a57600080fd5b505af11580156122ae573d6000803e3d6000fd5b505050506122d3565b6006546122d39061010090046001600160a01b03168585612e6e565b6040805188815263ffffffff881660208201526001600160a01b0387811682840152861660608201526080810185905290517f77fbf71434da34ef2aa8382e2b751b6b2de7bd18d96a07ff7f4dae7dae9237619181900360a00190a160019150506006805460ff1916600117905595945050505050565b60408051608081018252600080825260208083018290528284018290526060830182905263ffffffff8516825260169052829020915163186ca86f60e21b8152909173__$35081dc60fc26376aafbbba403b8b17c43$__916361b2a1bc916123b491600401614bf3565b608060405180830381865af41580156123d1573d6000803e3d6000fd5b505050506040513d601f19601f82011682018060405250810190610d349190614c7e565b63ffffffff80831660008181526011602090815260408083206001600160a01b038716808552908352818420549484526012835281842090845290915281205490929091839183165b818110156125295763ffffffff871660009081526011602090815260408083206001600160a01b038a168452909152812080548390811061248157612481614d03565b600091825260209182902060408051606081018252929091015463ffffffff811680845264010000000082046001600160801b031694840194909452600160a01b900460ff161515908201529150431180156124df57506040810151155b156125105760208101516124fc906001600160801b031687614d2f565b9550612509600185614d87565b9350612516565b50612529565b508061252181614d42565b91505061243e565b50509250925092565b63ffffffff811660009081526016602052604080822090516379a0c08760e11b8152829173__$35081dc60fc26376aafbbba403b8b17c43$__9163f341810e9161257e91600401614bf3565b602060405180830381865af415801561259b573d6000803e3d6000fd5b505050506040513d601f19601f820116820180604052508101906125bf9190614dab565b90506001600160a01b0381166125d85750600092915050565b63ffffffff83166000908152601660205260409081902090516379a0c08760e11b815273__$35081dc60fc26376aafbbba403b8b17c43$__9163f341810e916126249190600401614bf3565b602060405180830381865af4158015612641573d6000803e3d6000fd5b505050506040513d601f19601f820116820180604052508101906126659190614dab565b60405163bf40fac160e01b815260206004820152600d60248201526c27ab26afa9b2b8bab2b731b2b960991b60448201526001600160a01b03919091169063bf40fac190606401602060405180830381865afa9250505080156116c7575060408051601f3d908101601f191682019092526116c491810190614dab565b6008546040516346ccf0e560e11b815263ffffffff831660048201526000916001600160a01b031690638d99e1ca90602401602060405180830381865afa158015612731573d6000803e3d6000fd5b505050506040513d601f19601f82011682018060405250810190610d349190614d6e565b60075463ffffffff83166000908152600f602090815260408083206001600160a01b038681168552908352818420825160608101845281548152600182015494810185905260029091015460ff16151590830152905163cdf6800960e01b815260048101929092529192919091169063cdf6800990602401602060405180830381865afa1580156127ea573d6000803e3d6000fd5b505050506040513d601f19601f8201168201806040525081019061280e9190614d6e565b9392505050565b63ffffffff831660009081526010602090815260408083206001600160a01b03861684529091528120819061284b9084906136ac565b91509150935093915050565b600954604051630265991f60e61b815260006004820181905263ffffffff8516602483015233604483015261163192859285916001600160a01b03169063996647c090606401602060405180830381865afa1580156128ba573d6000803e3d6000fd5b505050506040513d601f19601f820116820180604052508101906128de9190614d6e565b6138a8565b63ffffffff8216600090815260126020908152604080832033845290915290205481156129545761291960008433846001613dc5565b6115a45760405162461bcd60e51b815260206004820152600c60248201526b534c5f455f52455354414b4560a01b6044820152606401610e1b565b61291983600033846001613dc5565b60006001600160a01b03821661297b57506000919050565b60405163bf40fac160e01b815260206004820152601b60248201527f50726f78795f5f4f564d5f4c315374616e64617264427269646765000000000060448201526001600160a01b0383169063bf40fac1906064016119b3565b60405163bf40fac160e01b815260206004820152601a60248201527f4f564d5f4c3143726f7373446f6d61696e4d657373656e67657200000000000060448201526000906001600160a01b0383169063bf40fac1906064016119b3565b63ffffffff821660008181526011602090815260408083206001600160a01b038616808552908352818420549484526012835281842090845290915281205490818310612a8657612a838284614d5b565b90505b9250925092565b6008546040805163b969fbef60e01b815290516000926001600160a01b03169163b969fbef9160048083019260209291908290030181865afa158015611941573d6000803e3d6000fd5b63ffffffff82166000908152600e6020526040812081908190612afb9085906136ac565b9150915081612b1f5763ffffffff85166000908152600d6020526040902054612b21565b805b95945050505050565b600082815260208190526040902060010154612b4581612f89565b6115a48383613031565b6008546000906001600160a01b03163314612bac5760405162461bcd60e51b815260206004820152601160248201527f6e6f74204c61796572324d616e616765720000000000000000000000000000006044820152606401610e1b565b8151605014612bfd5760405162461bcd60e51b815260206004820152600f60248201527f77726f6e67206c61796572496e666f00000000000000000000000000000000006044820152606401610e1b565b63ffffffff831660009081526016602052604090208054612c1d90614b49565b159050612c6c5760405162461bcd60e51b815260206004820152600f60248201527f616c7265616479206372656174656400000000000000000000000000000000006044820152606401610e1b565b63ffffffff83166000908152601660205260409020612c8b8382614e2b565b5060019392505050565b6000806000612ca584600b6136ac565b915091508161170557600a54611577565b60178181548110612cc657600080fd5b6000918252602090912001546001600160a01b0316905081565b6006546040516347b00fb360e11b81526001600160a01b03610100909204821660048201528282166024820152600091841690638f601f6690604401602060405180830381865afa925050508015612d55575060408051601f3d908101601f19168201909252612d5291810190614d6e565b60015b61280e573d808015612d83576040519150601f19603f3d011682016040523d82523d6000602084013e612d88565b606091505b506000915050610d34565b63ffffffff831660009081526012602090815260408083203384529091529020548115612e0857612dc8600085338487613dc5565b612e035760405162461bcd60e51b815260206004820152600c60248201526b534c5f455f52455354414b4560a01b6044820152606401610e1b565b612e51565b612e16846000338487613dc5565b612e515760405162461bcd60e51b815260206004820152600c60248201526b534c5f455f52455354414b4560a01b6044820152606401610e1b565b50505050565b600080612e6583600b6136ac565b91509150915091565b604080516001600160a01b038481166024830152604480830185905283518084039091018152606490920183526020820180516001600160e01b031663a9059cbb60e01b1790529151600092839290871691612eca9190614eeb565b6000604051808303816000865af19150503d8060008114612f07576040519150601f19603f3d011682016040523d82523d6000602084013e612f0c565b606091505b5091509150818015612f36575080511580612f36575080806020019051810190612f369190614dc8565b612f825760405162461bcd60e51b815260206004820152600f60248201527f5452414e534645525f4641494c454400000000000000000000000000000000006044820152606401610e1b565b5050505050565b6112f08133614295565b6000828152602081815260408083206001600160a01b038516845290915290205460ff16611631576000828152602081815260408083206001600160a01b03851684529091529020805460ff19166001179055612fed3390565b6001600160a01b0316816001600160a01b0316837f2f8788117e7eff1d82e926ec794901d17c78024a50270940304540a733656f0d60405160405180910390a45050565b6000828152602081815260408083206001600160a01b038516845290915290205460ff1615611631576000828152602081815260408083206001600160a01b0385168085529252808320805460ff1916905551339285917ff6391f5c32d9c69d2a47ea670b442974b53935d1edc7fd64eb21e047a839171b9190a45050565b6000816130be816004614d2f565b101561310c5760405162461bcd60e51b815260206004820152601160248201527f746f55696e7433325f6f766572666c6f770000000000000000000000000000006044820152606401610e1b565b613117826004614d2f565b835110156131675760405162461bcd60e51b815260206004820152601460248201527f746f55696e7433325f6f75744f66426f756e64730000000000000000000000006044820152606401610e1b565b50016004015190565b604080516001600160a01b0385811660248301528481166044830152606480830185905283518084039091018152608490920183526020820180516001600160e01b03166323b872dd60e01b17905291516000928392908816916131d49190614eeb565b6000604051808303816000865af19150503d8060008114613211576040519150601f19603f3d011682016040523d82523d6000602084013e613216565b606091505b50915091508180156132405750805115806132405750808060200190518101906132409190614dc8565b61328c5760405162461bcd60e51b815260206004820152601460248201527f5452414e534645525f46524f4d5f4641494c45440000000000000000000000006044820152606401610e1b565b505050505050565b60065460ff166132cf5760405162461bcd60e51b8152600401610e1b906020808252600490820152636c6f636b60e01b604082015260600190565b6006805460ff191690558260008190036133105760405162461bcd60e51b81526020600482015260026024820152615a3160f01b6044820152606401610e1b565b8663ffffffff8716156133205750855b61332a81876137cf565b600754604051636a2fb1f560e01b8152600481018790526000916001600160a01b031690636a2fb1f590602401602060405180830381865afa158015613374573d6000803e3d6000fd5b505050506040513d601f19601f820116820180604052508101906133989190614d6e565b63ffffffff83166000908152600d60205260408120805492935083929091906133c2908490614d2f565b9250508190555080600a60008282546133db9190614d2f565b909155505063ffffffff82166000908152600f602090815260408083206001600160a01b038b1684529091529020600281015460ff1661347d57600281018054600160ff1990911681179091556017805491820181556000527fc624b66cc0138b8fabc209247f72d758e1cf3343756d543badbf24212bed8c1501805473ffffffffffffffffffffffffffffffffffffffff19166001600160a01b038a161790555b600061ffff86161580159061349a57506001600160a01b03871615155b80156134ab57506127108661ffff16105b156135ee576127106134c161ffff881685614f07565b6134cb9190614f1e565b90506134d78184614d5b565b60075460405163cdf6800960e01b8152600481018390529194506000916001600160a01b039091169063cdf6800990602401602060405180830381865afa158015613526573d6000803e3d6000fd5b505050506040513d601f19601f8201168201806040525081019061354a9190614d6e565b9050808360000160008282546135609190614d2f565b925050819055508383600101600082825461357b9190614d2f565b909155505063ffffffff85166000908152600f602090815260408083206001600160a01b038c16845290915290206135b3828b614d5b565b8160000160008282546135c69190614d2f565b92505081905550828160010160008282546135e19190614d2f565b9091555061362392505050565b878260000160008282546136029190614d2f565b925050819055508282600101600082825461361d9190614d2f565b90915550505b6040805163ffffffff8d811682528c1660208201526001600160a01b038b811682840152606082018b905260808201869052891660a082015261ffff881660c082015290517f223892d535b445ab69f1e7c25378714abfb5d43c3f0811678cfb07975759c1dd9181900360e00190a150506006805460ff19166001179055505050505050505050565b6000806136b76118f7565b8411156137065760405162461bcd60e51b815260206004820152601860248201527f536e617073686f743a206e6f6e6578697374656e7420696400000000000000006044820152606401610e1b565b82541580159061373f57508254839061372190600190614d5b565b8154811061373157613731614d03565b906000526020600020015484115b1561377d5782546000906001808601916137599190614d5b565b8154811061376957613769614d03565b9060005260206000200154915091506118f0565b60006137898486614308565b845490915081106137a15760008092509250506118f0565b60018460010182815481106137b8576137b8614d03565b906000526020600020015492509250509250929050565b6137e2600b6137dd600a5490565b614418565b63ffffffff82166000908152600e60209081526040808320600d9092529091205461380d9190614418565b63ffffffff821660008181526010602090815260408083206001600160a01b038616808552908352818420948452600f8352818420908452825291829020825160608101845281548152600182015492810183905260029091015460ff1615159201919091526116319190614418565b60065461389a9061010090046001600160a01b0316333086613170565b612f82858533868686613294565b60065460ff166138e35760405162461bcd60e51b8152600401610e1b906020808252600490820152636c6f636b60e01b604082015260600190565b6006805460ff191690558160008190036139245760405162461bcd60e51b81526020600482015260026024820152615a3160f01b6044820152606401610e1b565b8463ffffffff8516156139345750835b3361393f82826137cf565b60075460405163cdf6800960e01b8152600481018790526000916001600160a01b03169063cdf6800990602401602060405180830381865afa158015613989573d6000803e3d6000fd5b505050506040513d601f19601f820116820180604052508101906139ad9190614d6e565b63ffffffff84166000908152600f602090815260408083206001600160a01b038716845290915290209091508515613aae576001810154600754604051636a2fb1f560e01b8152600481018990526001600160a01b0390911690636a2fb1f590602401602060405180830381865afa158015613a2d573d6000803e3d6000fd5b505050506040513d601f19601f82011682018060405250810190613a519190614d6e565b613a5b9089614d2f565b1115613aa95760405162461bcd60e51b815260206004820152600d60248201527f756e7374616b655f6572725f31000000000000000000000000000000000000006044820152606401610e1b565b613b02565b8060010154871115613b025760405162461bcd60e51b815260206004820152600d60248201527f756e7374616b655f6572725f32000000000000000000000000000000000000006044820152606401610e1b565b86816001016000828254613b169190614d5b565b90915550508054821115613b2d5760008155613b47565b81816000016000828254613b419190614d5b565b90915550505b63ffffffff84166000908152600d602052604081208054899290613b6c908490614d5b565b9250508190555086600a6000828254613b859190614d5b565b909155505060085460408051636577b27360e11b815290516000926001600160a01b03169163caef64e69160048083019260209291908290030181865afa158015613bd4573d6000803e3d6000fd5b505050506040513d601f19601f82011682018060405250810190613bf89190614d6e565b63ffffffff861660009081526011602090815260408083206001600160a01b03891684529091529081902081516060810190925291925080613c3a8443614d2f565b63ffffffff90811682526001600160801b0380881660208085019190915260006040948501819052865460018101885596815281812086519701805487840151978701511515600160a01b0260ff60a01b19989095166401000000000273ffffffffffffffffffffffffffffffffffffffff199091169886169890981797909717959095169190911790945588168252601383528082206001600160a01b03881683529092529081208054859290613cf3908490614d2f565b909155505063ffffffff851660009081526014602052604081208054859290613d1d908490614d2f565b90915550506001600160a01b03841660009081526015602052604081208054859290613d4a908490614d2f565b90915550506040805163ffffffff8c811682528b1660208201526001600160a01b0386168183015260608101859052608081018a905290517f201778b9e426c04a92e6d1bf5a4d1705c4a30568ae25eef5fa5231092af295259181900360a00190a150506006805460ff191660011790555050505050505050565b60065460009060ff16613e035760405162461bcd60e51b8152600401610e1b906020808252600490820152636c6f636b60e01b604082015260600190565b6006805460ff191690558563ffffffff861615613e1d5750845b613e2781866137cf565b63ffffffff811660009081526011602090815260408083206001600160a01b038916845290915281205480613e8b5760405162461bcd60e51b815260206004820152600a6024820152696e6f20756e7374616b6560b01b6044820152606401610e1b565b84613e968783614d5b565b1015613ee45760405162461bcd60e51b815260206004820152601860248201527f6e2065786365656473206e756d206f662070656e64696e6700000000000000006044820152606401610e1b565b6000613ef08688614d2f565b90505b80871015613fe65763ffffffff841660009081526011602090815260408083206001600160a01b038c1684529091528120805489908110613f3657613f36614d03565b6000918252602090912001805490915064010000000081046001600160801b031690600160a01b900460ff1615613faf5760405162461bcd60e51b815260206004820152601260248201527f616c7265616479207769746864726177616c00000000000000000000000000006044820152606401610e1b565b8015613fc257613fbf8186614d2f565b94505b50805460ff60a01b1916600160a01b17905586613fde81614d42565b975050613ef3565b600083116140365760405162461bcd60e51b815260206004820152601760248201527f6e6f2076616c69642072657374616b6520616d6f756e740000000000000000006044820152606401610e1b565b600754604051636a2fb1f560e01b8152600481018590526000916001600160a01b031690636a2fb1f590602401602060405180830381865afa158015614080573d6000803e3d6000fd5b505050506040513d601f19601f820116820180604052508101906140a49190614d6e565b63ffffffff86166000908152600f602090815260408083206001600160a01b038e1684529091528120805492935091869183916140e2908490614d2f565b92505081905550818160010160008282546140fd9190614d2f565b909155505063ffffffff86166000908152600d602052604081208054849290614127908490614d2f565b9250508190555081600a60008282546141409190614d2f565b909155505063ffffffff861660009081526013602090815260408083206001600160a01b038e1684529091528120805487929061417e908490614d5b565b909155505063ffffffff8616600090815260146020526040812080548792906141a8908490614d5b565b90915550506001600160a01b038a16600090815260156020526040812080548792906141d5908490614d5b565b909155505063ffffffff861660009081526012602090815260408083206001600160a01b038e168452909152812080548a9290614213908490614d2f565b90915550506040805163ffffffff8e811682528d1660208201526001600160a01b038c1681830152606081018790526080810184905290517f8106ff2b1b597b91194fe4d8ede5c73f76baaad464c7020d87b22ea5a716157f9181900360a00190a1600196505050505050506006805460ff1916600117905595945050505050565b6000828152602081815260408083206001600160a01b038516845290915290205460ff16611631576142c68161446d565b6142d183602061447f565b6040516020016142e2929190614f40565b60408051601f198184030181529082905262461bcd60e51b8252610e1b9160040161494c565b8154600090810361431b57506000610d34565b8254839061432b90600190614d5b565b8154811061433b5761433b614d03565b9060005260206000200154821061436157825461435a90600190614d5b565b9050610d34565b8260008154811061437457614374614d03565b906000526020600020015482101561438e57506000610d34565b825460009081906143a190600190614d5b565b90505b8181111561441057600060026143ba8484614d2f565b6143c5906001614d2f565b6143cf9190614f1e565b9050848682815481106143e4576143e4614d03565b9060005260206000200154116143fc5780925061440a565b614407600182614d5b565b91505b506143a4565b509392505050565b60006144226118f7565b8354909150158061443a57508061443884614628565b105b156115a4578254600180820185556000858152602080822090930193909355938401805494850181558252902090910155565b6060610d346001600160a01b03831660145b6060600061448e836002614f07565b614499906002614d2f565b67ffffffffffffffff8111156144b1576144b16149fe565b6040519080825280601f01601f1916602001820160405280156144db576020820181803683370190505b509050600360fc1b816000815181106144f6576144f6614d03565b60200101906001600160f81b031916908160001a905350600f60fb1b8160018151811061452557614525614d03565b60200101906001600160f81b031916908160001a9053506000614549846002614f07565b614554906001614d2f565b90505b60018111156145d9577f303132333435363738396162636465660000000000000000000000000000000085600f166010811061459557614595614d03565b1a60f81b8282815181106145ab576145ab614d03565b60200101906001600160f81b031916908160001a90535060049490941c936145d281614fc1565b9050614557565b50831561280e5760405162461bcd60e51b815260206004820181905260248201527f537472696e67733a20686578206c656e67746820696e73756666696369656e746044820152606401610e1b565b8054600090810361463b57506000919050565b8154829061464b90600190614d5b565b8154811061465b5761465b614d03565b90600052602060002001549050919050565b803563ffffffff81168114611a2c57600080fd5b60006020828403121561469357600080fd5b61280e8261466d565b6000602082840312156146ae57600080fd5b81356001600160e01b03198116811461280e57600080fd5b80151581146112f057600080fd5b600080604083850312156146e757600080fd5b6146f08361466d565b91506020830135614700816146c6565b809150509250929050565b6001600160a01b03811681146112f057600080fd5b60006020828403121561473257600080fd5b813561280e8161470b565b6000806040838503121561475057600080fd5b6147598361466d565b915060208301356147008161470b565b60006020828403121561477b57600080fd5b5035919050565b60008060006060848603121561479757600080fd5b6147a08461466d565b925060208401356147b08161470b565b929592945050506040919091013590565b600080604083850312156147d457600080fd5b8235915060208301356147008161470b565b6000806000806000608086880312156147fe57600080fd5b85356148098161470b565b945060208601356148198161470b565b935060408601359250606086013567ffffffffffffffff8082111561483d57600080fd5b818801915088601f83011261485157600080fd5b81358181111561486057600080fd5b89602082850101111561487257600080fd5b9699959850939650602001949392505050565b6020808252825182820181905260009190848201906040850190845b818110156148c65783516001600160a01b0316835292840192918401916001016148a1565b50909695505050505050565b600080604083850312156148e557600080fd5b6148ee8361466d565b946020939093013593505050565b60005b838110156149175781810151838201526020016148ff565b50506000910152565b600081518084526149388160208601602086016148fc565b601f01601f19169290920160200192915050565b60208152600061280e6020830184614920565b6000806000806080858703121561497557600080fd5b843593506149856020860161466d565b925060408501356149958161470b565b9396929550929360600135925050565b600080600080600060a086880312156149bd57600080fd5b853594506149cd6020870161466d565b935060408601356149dd8161470b565b925060608601356149ed8161470b565b949793965091946080013592915050565b634e487b7160e01b600052604160045260246000fd5b604051601f8201601f1916810167ffffffffffffffff81118282101715614a3d57614a3d6149fe565b604052919050565b60008060408385031215614a5857600080fd5b614a618361466d565b915060208084013567ffffffffffffffff80821115614a7f57600080fd5b818601915086601f830112614a9357600080fd5b813581811115614aa557614aa56149fe565b614ab7601f8201601f19168501614a14565b91508082528784828501011115614acd57600080fd5b80848401858401376000848284010152508093505050509250929050565b60008060408385031215614afe57600080fd5b82356147598161470b565b600080600060608486031215614b1e57600080fd5b614b278461466d565b9250602084013591506040840135614b3e816146c6565b809150509250925092565b600181811c90821680614b5d57607f821691505b60208210810361170857634e487b7160e01b600052602260045260246000fd5b6000808354614b8b81614b49565b60018281168015614ba35760018114614bb857614be7565b60ff1984168752821515830287019450614be7565b8760005260208060002060005b85811015614bde5781548a820152908401908201614bc5565b50505082870194505b50929695505050505050565b6000602080835260008454614c0781614b49565b80848701526040600180841660008114614c285760018114614c4257614c70565b60ff1985168984015283151560051b890183019550614c70565b896000528660002060005b85811015614c685781548b8201860152908301908801614c4d565b8a0184019650505b509398975050505050505050565b600060808284031215614c9057600080fd5b6040516080810181811067ffffffffffffffff82111715614cb357614cb36149fe565b6040528251614cc18161470b565b81526020830151614cd18161470b565b60208201526040830151614ce48161470b565b60408201526060830151614cf78161470b565b60608201529392505050565b634e487b7160e01b600052603260045260246000fd5b634e487b7160e01b600052601160045260246000fd5b80820180821115610d3457610d34614d19565b600060018201614d5457614d54614d19565b5060010190565b81810381811115610d3457610d34614d19565b600060208284031215614d8057600080fd5b5051919050565b63ffffffff818116838216019080821115614da457614da4614d19565b5092915050565b600060208284031215614dbd57600080fd5b815161280e8161470b565b600060208284031215614dda57600080fd5b815161280e816146c6565b601f8211156115a457600081815260208120601f850160051c81016020861015614e0c5750805b601f850160051c820191505b8181101561328c57828155600101614e18565b815167ffffffffffffffff811115614e4557614e456149fe565b614e5981614e538454614b49565b84614de5565b602080601f831160018114614e8e5760008415614e765750858301515b600019600386901b1c1916600185901b17855561328c565b600085815260208120601f198616915b82811015614ebd57888601518255948401946001909101908401614e9e565b5085821015614edb5787850151600019600388901b60f8161c191681555b5050505050600190811b01905550565b60008251614efd8184602087016148fc565b9190910192915050565b8082028115828204841417610d3457610d34614d19565b600082614f3b57634e487b7160e01b600052601260045260246000fd5b500490565b7f416363657373436f6e74726f6c3a206163636f756e7420000000000000000000815260008351614f788160178501602088016148fc565b7f206973206d697373696e6720726f6c65200000000000000000000000000000006017918401918201528351614fb58160288401602088016148fc565b01602801949350505050565b600081614fd057614fd0614d19565b50600019019056fea164736f6c6343000812000a",
  "linkReferences": {
    "contracts/libraries/LibOptimism.sol": {
      "LibOptimism": [
        {
          "length": 20,
          "start": 3471
        },
        {
          "length": 20,
          "start": 9147
        },
        {
          "length": 20,
          "start": 9605
        },
        {
          "length": 20,
          "start": 9770
        }
      ]
    }
  },
  "deployedLinkReferences": {
    "contracts/libraries/LibOptimism.sol": {
      "LibOptimism": [
        {
          "length": 20,
          "start": 3426
        },
        {
          "length": 20,
          "start": 9102
        },
        {
          "length": 20,
          "start": 9560
        },
        {
          "length": 20,
          "start": 9725
        }
      ]
    }
  }
}