{
  "_format": "hh-sol-artifact-1",
  "contractName": "OptimismSequencer",
  "sourceName": "contracts/OptimismSequencer.sol",
  "abi": [
    {
      "inputs": [],
      "stateMutability": "nonpayable",
      "type": "constructor"
    },
    {
      "anonymous": false,
      "inputs": [
        {
          "indexed": false,
          "internalType": "bytes32",
          "name": "hashMessage",
          "type": "bytes32"
        },
        {
          "indexed": false,
          "internalType": "uint32",
          "name": "layerIndex",
          "type": "uint32"
        },
        {
          "indexed": false,
          "internalType": "address",
          "name": "from",
          "type": "address"
        },
        {
          "indexed": false,
          "internalType": "address",
          "name": "to",
          "type": "address"
        },
        {
          "indexed": false,
          "internalType": "uint256",
          "name": "amount",
          "type": "uint256"
        }
      ],
      "name": "FastWithdrawalClaim",
      "type": "event"
    },
    {
      "anonymous": false,
      "inputs": [
        {
          "indexed": false,
          "internalType": "bytes32",
          "name": "hashMessage",
          "type": "bytes32"
        },
        {
          "indexed": false,
          "internalType": "uint32",
          "name": "layerIndex",
          "type": "uint32"
        },
        {
          "indexed": false,
          "internalType": "address",
          "name": "staker",
          "type": "address"
        },
        {
          "indexed": false,
          "internalType": "uint256",
          "name": "amount",
          "type": "uint256"
        },
        {
          "indexed": false,
          "internalType": "uint256",
          "name": "lwton",
          "type": "uint256"
        }
      ],
      "name": "FastWithdrawalStaked",
      "type": "event"
    },
    {
      "anonymous": false,
      "inputs": [
        {
          "indexed": false,
          "internalType": "uint32",
          "name": "_index",
          "type": "uint32"
        },
        {
          "indexed": false,
          "internalType": "address",
          "name": "sender",
          "type": "address"
        },
        {
          "indexed": false,
          "internalType": "uint256",
          "name": "amount",
          "type": "uint256"
        },
        {
          "indexed": false,
          "internalType": "uint256",
          "name": "lwton",
          "type": "uint256"
        }
      ],
      "name": "Restaked",
      "type": "event"
    },
    {
      "anonymous": false,
      "inputs": [
        {
          "indexed": true,
          "internalType": "bytes32",
          "name": "role",
          "type": "bytes32"
        },
        {
          "indexed": true,
          "internalType": "bytes32",
          "name": "previousAdminRole",
          "type": "bytes32"
        },
        {
          "indexed": true,
          "internalType": "bytes32",
          "name": "newAdminRole",
          "type": "bytes32"
        }
      ],
      "name": "RoleAdminChanged",
      "type": "event"
    },
    {
      "anonymous": false,
      "inputs": [
        {
          "indexed": true,
          "internalType": "bytes32",
          "name": "role",
          "type": "bytes32"
        },
        {
          "indexed": true,
          "internalType": "address",
          "name": "account",
          "type": "address"
        },
        {
          "indexed": true,
          "internalType": "address",
          "name": "sender",
          "type": "address"
        }
      ],
      "name": "RoleGranted",
      "type": "event"
    },
    {
      "anonymous": false,
      "inputs": [
        {
          "indexed": true,
          "internalType": "bytes32",
          "name": "role",
          "type": "bytes32"
        },
        {
          "indexed": true,
          "internalType": "address",
          "name": "account",
          "type": "address"
        },
        {
          "indexed": true,
          "internalType": "address",
          "name": "sender",
          "type": "address"
        }
      ],
      "name": "RoleRevoked",
      "type": "event"
    },
    {
      "anonymous": false,
      "inputs": [
        {
          "indexed": false,
          "internalType": "uint32",
          "name": "_index",
          "type": "uint32"
        },
        {
          "indexed": false,
          "internalType": "address",
          "name": "sender",
          "type": "address"
        },
        {
          "indexed": false,
          "internalType": "uint256",
          "name": "amount",
          "type": "uint256"
        },
        {
          "indexed": false,
          "internalType": "uint256",
          "name": "lwton",
          "type": "uint256"
        },
        {
          "indexed": false,
          "internalType": "address",
          "name": "commissionTo",
          "type": "address"
        },
        {
          "indexed": false,
          "internalType": "uint16",
          "name": "commission",
          "type": "uint16"
        }
      ],
      "name": "Staked",
      "type": "event"
    },
    {
      "anonymous": false,
      "inputs": [
        {
          "indexed": false,
          "internalType": "uint32",
          "name": "_index",
          "type": "uint32"
        },
        {
          "indexed": false,
          "internalType": "address",
          "name": "sender",
          "type": "address"
        },
        {
          "indexed": false,
          "internalType": "uint256",
          "name": "amount",
          "type": "uint256"
        },
        {
          "indexed": false,
          "internalType": "uint256",
          "name": "lwton",
          "type": "uint256"
        }
      ],
      "name": "Unstaked",
      "type": "event"
    },
    {
      "anonymous": false,
      "inputs": [
        {
          "indexed": false,
          "internalType": "uint32",
          "name": "_index",
          "type": "uint32"
        },
        {
          "indexed": false,
          "internalType": "address",
          "name": "sender",
          "type": "address"
        },
        {
          "indexed": false,
          "internalType": "uint256",
          "name": "amount",
          "type": "uint256"
        }
      ],
      "name": "Withdrawal",
      "type": "event"
    },
    {
      "inputs": [],
      "name": "ADMIN_ROLE",
      "outputs": [
        {
          "internalType": "bytes32",
          "name": "",
          "type": "bytes32"
        }
      ],
      "stateMutability": "view",
      "type": "function"
    },
    {
      "inputs": [],
      "name": "DEFAULT_ADMIN_ROLE",
      "outputs": [
        {
          "internalType": "bytes32",
          "name": "",
          "type": "bytes32"
        }
      ],
      "stateMutability": "view",
      "type": "function"
    },
    {
      "inputs": [
        {
          "internalType": "address",
          "name": "addressManager",
          "type": "address"
        }
      ],
      "name": "L1CrossDomainMessenger",
      "outputs": [
        {
          "internalType": "address",
          "name": "account_",
          "type": "address"
        }
      ],
      "stateMutability": "view",
      "type": "function"
    },
    {
      "inputs": [
        {
          "internalType": "address",
          "name": "addressManager",
          "type": "address"
        }
      ],
      "name": "L1StandardBridge",
      "outputs": [
        {
          "internalType": "address",
          "name": "account_",
          "type": "address"
        }
      ],
      "stateMutability": "view",
      "type": "function"
    },
    {
      "inputs": [],
      "name": "POLICY_ROLE",
      "outputs": [
        {
          "internalType": "bytes32",
          "name": "",
          "type": "bytes32"
        }
      ],
      "stateMutability": "view",
      "type": "function"
    },
    {
      "inputs": [
        {
          "internalType": "address",
          "name": "account",
          "type": "address"
        }
      ],
      "name": "addAdmin",
      "outputs": [],
      "stateMutability": "nonpayable",
      "type": "function"
    },
    {
      "inputs": [
        {
          "internalType": "address",
          "name": "",
          "type": "address"
        }
      ],
      "name": "aliveImplementation",
      "outputs": [
        {
          "internalType": "bool",
          "name": "",
          "type": "bool"
        }
      ],
      "stateMutability": "view",
      "type": "function"
    },
    {
      "inputs": [
        {
          "internalType": "uint32",
          "name": "layerIndex",
          "type": "uint32"
        },
        {
          "internalType": "address",
          "name": "account",
          "type": "address"
        }
      ],
      "name": "amountOfPendings",
      "outputs": [
        {
          "internalType": "uint256",
          "name": "amount",
          "type": "uint256"
        },
        {
          "internalType": "uint32",
          "name": "startIndex",
          "type": "uint32"
        },
        {
          "internalType": "uint32",
          "name": "len",
          "type": "uint32"
        },
        {
          "internalType": "uint32",
          "name": "nextWithdrawableBlockNumber",
          "type": "uint32"
        }
      ],
      "stateMutability": "view",
      "type": "function"
    },
    {
      "inputs": [
        {
          "internalType": "uint32",
          "name": "_index",
          "type": "uint32"
        },
        {
          "internalType": "address",
          "name": "account",
          "type": "address"
        }
      ],
      "name": "availableWithdraw",
      "outputs": [
        {
          "internalType": "uint256",
          "name": "amount",
          "type": "uint256"
        },
        {
          "internalType": "uint32",
          "name": "startIndex",
          "type": "uint32"
        },
        {
          "internalType": "uint32",
          "name": "len",
          "type": "uint32"
        }
      ],
      "stateMutability": "view",
      "type": "function"
    },
    {
      "inputs": [
        {
          "internalType": "uint32",
          "name": "_index",
          "type": "uint32"
        },
        {
          "internalType": "address",
          "name": "account",
          "type": "address"
        }
      ],
      "name": "balanceOf",
      "outputs": [
        {
          "internalType": "uint256",
          "name": "amount",
          "type": "uint256"
        }
      ],
      "stateMutability": "view",
      "type": "function"
    },
    {
      "inputs": [
        {
          "internalType": "uint32",
          "name": "_index",
          "type": "uint32"
        },
        {
          "internalType": "address",
          "name": "account",
          "type": "address"
        },
        {
          "internalType": "uint256",
          "name": "snapshotId",
          "type": "uint256"
        }
      ],
      "name": "balanceOfAt",
      "outputs": [
        {
          "internalType": "uint256",
          "name": "amount",
          "type": "uint256"
        }
      ],
      "stateMutability": "view",
      "type": "function"
    },
    {
      "inputs": [
        {
          "internalType": "uint32",
          "name": "_index",
          "type": "uint32"
        }
      ],
      "name": "balanceOfLwton",
      "outputs": [
        {
          "internalType": "uint256",
          "name": "amount",
          "type": "uint256"
        }
      ],
      "stateMutability": "view",
      "type": "function"
    },
    {
      "inputs": [
        {
          "internalType": "uint32",
          "name": "_index",
          "type": "uint32"
        },
        {
          "internalType": "address",
          "name": "account",
          "type": "address"
        }
      ],
      "name": "balanceOfLwton",
      "outputs": [
        {
          "internalType": "uint256",
          "name": "amount",
          "type": "uint256"
        }
      ],
      "stateMutability": "view",
      "type": "function"
    },
    {
      "inputs": [
        {
          "internalType": "uint32",
          "name": "_index",
          "type": "uint32"
        },
        {
          "internalType": "address",
          "name": "account",
          "type": "address"
        },
        {
          "internalType": "uint256",
          "name": "snapshotId",
          "type": "uint256"
        }
      ],
      "name": "balanceOfLwtonAt",
      "outputs": [
        {
          "internalType": "uint256",
          "name": "amount",
          "type": "uint256"
        }
      ],
      "stateMutability": "view",
      "type": "function"
    },
    {
      "inputs": [
        {
          "internalType": "uint32",
          "name": "_index",
          "type": "uint32"
        },
        {
          "internalType": "uint256",
          "name": "snapshotId",
          "type": "uint256"
        }
      ],
      "name": "balanceOfLwtonAt",
      "outputs": [
        {
          "internalType": "uint256",
          "name": "amount",
          "type": "uint256"
        }
      ],
      "stateMutability": "view",
      "type": "function"
    },
    {
      "inputs": [
        {
          "internalType": "uint32",
          "name": "_index",
          "type": "uint32"
        },
        {
          "internalType": "uint256",
          "name": "snapshotId",
          "type": "uint256"
        }
      ],
      "name": "balanceOfLwtonAtSnapshot",
      "outputs": [
        {
          "internalType": "bool",
          "name": "snapshotted",
          "type": "bool"
        },
        {
          "internalType": "uint256",
          "name": "amount",
          "type": "uint256"
        }
      ],
      "stateMutability": "view",
      "type": "function"
    },
    {
      "inputs": [
        {
          "internalType": "uint32",
          "name": "_index",
          "type": "uint32"
        },
        {
          "internalType": "address",
          "name": "account",
          "type": "address"
        },
        {
          "internalType": "uint256",
          "name": "snapshotId",
          "type": "uint256"
        }
      ],
      "name": "balanceOfLwtonAtSnapshot",
      "outputs": [
        {
          "internalType": "bool",
          "name": "snapshotted",
          "type": "bool"
        },
        {
          "internalType": "uint256",
          "name": "amount",
          "type": "uint256"
        }
      ],
      "stateMutability": "view",
      "type": "function"
    },
    {
      "inputs": [
        {
          "internalType": "uint32",
          "name": "_index",
          "type": "uint32"
        }
      ],
      "name": "bridges",
      "outputs": [
        {
          "internalType": "address",
          "name": "",
          "type": "address"
        },
        {
          "internalType": "address",
          "name": "",
          "type": "address"
        }
      ],
      "stateMutability": "view",
      "type": "function"
    },
    {
      "inputs": [
        {
          "internalType": "uint32",
          "name": "_index",
          "type": "uint32"
        },
        {
          "internalType": "bytes",
          "name": "_layerInfo",
          "type": "bytes"
        }
      ],
      "name": "create",
      "outputs": [
        {
          "internalType": "bool",
          "name": "",
          "type": "bool"
        }
      ],
      "stateMutability": "nonpayable",
      "type": "function"
    },
    {
      "inputs": [
        {
          "internalType": "uint32",
          "name": "_index",
          "type": "uint32"
        }
      ],
      "name": "existedIndex",
      "outputs": [
        {
          "internalType": "bool",
          "name": "",
          "type": "bool"
        }
      ],
      "stateMutability": "view",
      "type": "function"
    },
    {
      "inputs": [
        {
          "internalType": "bytes32",
          "name": "hashMessage",
          "type": "bytes32"
        },
        {
          "internalType": "uint32",
          "name": "layerIndex",
          "type": "uint32"
        },
        {
          "internalType": "address",
          "name": "from",
          "type": "address"
        },
        {
          "internalType": "address",
          "name": "to",
          "type": "address"
        },
        {
          "internalType": "uint256",
          "name": "amount",
          "type": "uint256"
        }
      ],
      "name": "fastWithdrawClaim",
      "outputs": [
        {
          "internalType": "bool",
          "name": "",
          "type": "bool"
        }
      ],
      "stateMutability": "nonpayable",
      "type": "function"
    },
    {
      "inputs": [
        {
          "internalType": "bytes32",
          "name": "hashMessage",
          "type": "bytes32"
        },
        {
          "internalType": "uint32",
          "name": "layerIndex",
          "type": "uint32"
        },
        {
          "internalType": "address",
          "name": "staker",
          "type": "address"
        },
        {
          "internalType": "uint256",
          "name": "_amount",
          "type": "uint256"
        }
      ],
      "name": "fastWithdrawStake",
      "outputs": [
        {
          "internalType": "bool",
          "name": "",
          "type": "bool"
        }
      ],
      "stateMutability": "nonpayable",
      "type": "function"
    },
    {
      "inputs": [],
      "name": "fwReceipt",
      "outputs": [
        {
          "internalType": "address",
          "name": "",
          "type": "address"
        }
      ],
      "stateMutability": "view",
      "type": "function"
    },
    {
      "inputs": [],
      "name": "getCurrentSnapshotId",
      "outputs": [
        {
          "internalType": "uint256",
          "name": "",
          "type": "uint256"
        }
      ],
      "stateMutability": "view",
      "type": "function"
    },
    {
      "inputs": [
        {
          "internalType": "uint32",
          "name": "_index",
          "type": "uint32"
        }
      ],
      "name": "getLayerInfo",
      "outputs": [
        {
          "components": [
            {
              "internalType": "address",
              "name": "addressManager",
              "type": "address"
            },
            {
              "internalType": "address",
              "name": "l1Bridge",
              "type": "address"
            },
            {
              "internalType": "address",
              "name": "l2Bridge",
              "type": "address"
            },
            {
              "internalType": "address",
              "name": "l2wton",
              "type": "address"
            }
          ],
          "internalType": "struct LibOptimism.Info",
          "name": "_layerInfo",
          "type": "tuple"
        }
      ],
      "stateMutability": "view",
      "type": "function"
    },
    {
      "inputs": [
        {
          "internalType": "uint32",
          "name": "_index",
          "type": "uint32"
        }
      ],
      "name": "getLayerKey",
      "outputs": [
        {
          "internalType": "bytes32",
          "name": "layerKey_",
          "type": "bytes32"
        }
      ],
      "stateMutability": "view",
      "type": "function"
    },
    {
      "inputs": [
        {
          "internalType": "uint32",
          "name": "_index",
          "type": "uint32"
        },
        {
          "internalType": "address",
          "name": "account",
          "type": "address"
        }
      ],
      "name": "getLayerStakes",
      "outputs": [
        {
          "components": [
            {
              "internalType": "uint256",
              "name": "stakePrincipal",
              "type": "uint256"
            },
            {
              "internalType": "uint256",
              "name": "stakelwton",
              "type": "uint256"
            },
            {
              "internalType": "bool",
              "name": "stake",
              "type": "bool"
            }
          ],
          "internalType": "struct LibStake.StakeInfo",
          "name": "info",
          "type": "tuple"
        }
      ],
      "stateMutability": "view",
      "type": "function"
    },
    {
      "inputs": [
        {
          "internalType": "uint32",
          "name": "_index",
          "type": "uint32"
        },
        {
          "internalType": "address",
          "name": "account",
          "type": "address"
        }
      ],
      "name": "getPendingUnstakedAmount",
      "outputs": [
        {
          "internalType": "uint256",
          "name": "",
          "type": "uint256"
        }
      ],
      "stateMutability": "view",
      "type": "function"
    },
    {
      "inputs": [
        {
          "internalType": "bytes32",
          "name": "role",
          "type": "bytes32"
        }
      ],
      "name": "getRoleAdmin",
      "outputs": [
        {
          "internalType": "bytes32",
          "name": "",
          "type": "bytes32"
        }
      ],
      "stateMutability": "view",
      "type": "function"
    },
    {
      "inputs": [],
      "name": "getStakeAccountList",
      "outputs": [
        {
          "internalType": "address[]",
          "name": "",
          "type": "address[]"
        }
      ],
      "stateMutability": "view",
      "type": "function"
    },
    {
      "inputs": [],
      "name": "getTotalLwton",
      "outputs": [
        {
          "internalType": "uint256",
          "name": "",
          "type": "uint256"
        }
      ],
      "stateMutability": "view",
      "type": "function"
    },
    {
      "inputs": [
        {
          "internalType": "uint32",
          "name": "_index",
          "type": "uint32"
        }
      ],
      "name": "getTvl",
      "outputs": [
        {
          "internalType": "uint256",
          "name": "amount",
          "type": "uint256"
        }
      ],
      "stateMutability": "view",
      "type": "function"
    },
    {
      "inputs": [
        {
          "internalType": "address",
          "name": "l1Bridge",
          "type": "address"
        },
        {
          "internalType": "address",
          "name": "l2wton",
          "type": "address"
        }
      ],
      "name": "getTvl",
      "outputs": [
        {
          "internalType": "uint256",
          "name": "amount",
          "type": "uint256"
        }
      ],
      "stateMutability": "view",
      "type": "function"
    },
    {
      "inputs": [
        {
          "internalType": "bytes32",
          "name": "role",
          "type": "bytes32"
        },
        {
          "internalType": "address",
          "name": "account",
          "type": "address"
        }
      ],
      "name": "grantRole",
      "outputs": [],
      "stateMutability": "nonpayable",
      "type": "function"
    },
    {
      "inputs": [
        {
          "internalType": "bytes32",
          "name": "role",
          "type": "bytes32"
        },
        {
          "internalType": "address",
          "name": "account",
          "type": "address"
        }
      ],
      "name": "hasRole",
      "outputs": [
        {
          "internalType": "bool",
          "name": "",
          "type": "bool"
        }
      ],
      "stateMutability": "view",
      "type": "function"
    },
    {
      "inputs": [
        {
          "internalType": "address",
          "name": "account",
          "type": "address"
        }
      ],
      "name": "isAdmin",
      "outputs": [
        {
          "internalType": "bool",
          "name": "",
          "type": "bool"
        }
      ],
      "stateMutability": "view",
      "type": "function"
    },
    {
      "inputs": [
        {
          "internalType": "uint32",
          "name": "_index",
          "type": "uint32"
        }
      ],
      "name": "layer2Deposits",
      "outputs": [
        {
          "internalType": "uint256",
          "name": "amount",
          "type": "uint256"
        }
      ],
      "stateMutability": "view",
      "type": "function"
    },
    {
      "inputs": [],
      "name": "layer2Manager",
      "outputs": [
        {
          "internalType": "address",
          "name": "",
          "type": "address"
        }
      ],
      "stateMutability": "view",
      "type": "function"
    },
    {
      "inputs": [
        {
          "internalType": "uint32",
          "name": "",
          "type": "uint32"
        }
      ],
      "name": "layerInfo",
      "outputs": [
        {
          "internalType": "bytes",
          "name": "",
          "type": "bytes"
        }
      ],
      "stateMutability": "view",
      "type": "function"
    },
    {
      "inputs": [
        {
          "internalType": "uint32",
          "name": "",
          "type": "uint32"
        }
      ],
      "name": "layerStakedLwton",
      "outputs": [
        {
          "internalType": "uint256",
          "name": "",
          "type": "uint256"
        }
      ],
      "stateMutability": "view",
      "type": "function"
    },
    {
      "inputs": [
        {
          "internalType": "uint32",
          "name": "",
          "type": "uint32"
        },
        {
          "internalType": "address",
          "name": "",
          "type": "address"
        }
      ],
      "name": "layerStakes",
      "outputs": [
        {
          "internalType": "uint256",
          "name": "stakePrincipal",
          "type": "uint256"
        },
        {
          "internalType": "uint256",
          "name": "stakelwton",
          "type": "uint256"
        },
        {
          "internalType": "bool",
          "name": "stake",
          "type": "bool"
        }
      ],
      "stateMutability": "view",
      "type": "function"
    },
    {
      "inputs": [
        {
          "internalType": "uint32",
          "name": "layerIndex",
          "type": "uint32"
        },
        {
          "internalType": "address",
          "name": "account",
          "type": "address"
        }
      ],
      "name": "numberOfPendings",
      "outputs": [
        {
          "internalType": "uint256",
          "name": "totalRequests",
          "type": "uint256"
        },
        {
          "internalType": "uint256",
          "name": "withdrawIndex",
          "type": "uint256"
        },
        {
          "internalType": "uint256",
          "name": "pendingLength",
          "type": "uint256"
        }
      ],
      "stateMutability": "view",
      "type": "function"
    },
    {
      "inputs": [
        {
          "internalType": "address",
          "name": "sender",
          "type": "address"
        },
        {
          "internalType": "address",
          "name": "spender",
          "type": "address"
        },
        {
          "internalType": "uint256",
          "name": "amount",
          "type": "uint256"
        },
        {
          "internalType": "bytes",
          "name": "data",
          "type": "bytes"
        }
      ],
      "name": "onApprove",
      "outputs": [
        {
          "internalType": "bool",
          "name": "",
          "type": "bool"
        }
      ],
      "stateMutability": "nonpayable",
      "type": "function"
    },
    {
      "inputs": [],
      "name": "pauseProxy",
      "outputs": [
        {
          "internalType": "bool",
          "name": "",
          "type": "bool"
        }
      ],
      "stateMutability": "view",
      "type": "function"
    },
    {
      "inputs": [
        {
          "internalType": "uint32",
          "name": "",
          "type": "uint32"
        },
        {
          "internalType": "address",
          "name": "",
          "type": "address"
        }
      ],
      "name": "pendingUnstaked",
      "outputs": [
        {
          "internalType": "uint256",
          "name": "",
          "type": "uint256"
        }
      ],
      "stateMutability": "view",
      "type": "function"
    },
    {
      "inputs": [
        {
          "internalType": "address",
          "name": "",
          "type": "address"
        }
      ],
      "name": "pendingUnstakedAccount",
      "outputs": [
        {
          "internalType": "uint256",
          "name": "",
          "type": "uint256"
        }
      ],
      "stateMutability": "view",
      "type": "function"
    },
    {
      "inputs": [
        {
          "internalType": "uint32",
          "name": "",
          "type": "uint32"
        }
      ],
      "name": "pendingUnstakedLayer2",
      "outputs": [
        {
          "internalType": "uint256",
          "name": "",
          "type": "uint256"
        }
      ],
      "stateMutability": "view",
      "type": "function"
    },
    {
      "inputs": [
        {
          "internalType": "uint256",
          "name": "",
          "type": "uint256"
        }
      ],
      "name": "proxyImplementation",
      "outputs": [
        {
          "internalType": "address",
          "name": "",
          "type": "address"
        }
      ],
      "stateMutability": "view",
      "type": "function"
    },
    {
      "inputs": [
        {
          "internalType": "address",
          "name": "account",
          "type": "address"
        }
      ],
      "name": "removeAdmin",
      "outputs": [],
      "stateMutability": "nonpayable",
      "type": "function"
    },
    {
      "inputs": [
        {
          "internalType": "bytes32",
          "name": "role",
          "type": "bytes32"
        },
        {
          "internalType": "address",
          "name": "account",
          "type": "address"
        }
      ],
      "name": "renounceRole",
      "outputs": [],
      "stateMutability": "nonpayable",
      "type": "function"
    },
    {
      "inputs": [
        {
          "internalType": "uint32",
          "name": "_index",
          "type": "uint32"
        }
      ],
      "name": "restake",
      "outputs": [],
      "stateMutability": "nonpayable",
      "type": "function"
    },
    {
      "inputs": [
        {
          "internalType": "uint32",
          "name": "_index",
          "type": "uint32"
        },
        {
          "internalType": "uint256",
          "name": "n",
          "type": "uint256"
        }
      ],
      "name": "restakeMulti",
      "outputs": [],
      "stateMutability": "nonpayable",
      "type": "function"
    },
    {
      "inputs": [
        {
          "internalType": "bytes32",
          "name": "role",
          "type": "bytes32"
        },
        {
          "internalType": "address",
          "name": "account",
          "type": "address"
        }
      ],
      "name": "revokeRole",
      "outputs": [],
      "stateMutability": "nonpayable",
      "type": "function"
    },
    {
      "inputs": [],
      "name": "seigManagerV2",
      "outputs": [
        {
          "internalType": "address",
          "name": "",
          "type": "address"
        }
      ],
      "stateMutability": "view",
      "type": "function"
    },
    {
      "inputs": [
        {
          "internalType": "bytes4",
          "name": "",
          "type": "bytes4"
        }
      ],
      "name": "selectorImplementation",
      "outputs": [
        {
          "internalType": "address",
          "name": "",
          "type": "address"
        }
      ],
      "stateMutability": "view",
      "type": "function"
    },
    {
      "inputs": [
        {
          "internalType": "address",
          "name": "addressManager",
          "type": "address"
        }
      ],
      "name": "sequencer",
      "outputs": [
        {
          "internalType": "address",
          "name": "sequencer_",
          "type": "address"
        }
      ],
      "stateMutability": "view",
      "type": "function"
    },
    {
      "inputs": [
        {
          "internalType": "uint32",
          "name": "_index",
          "type": "uint32"
        }
      ],
      "name": "sequencer",
      "outputs": [
        {
          "internalType": "address",
          "name": "sequencer_",
          "type": "address"
        }
      ],
      "stateMutability": "view",
      "type": "function"
    },
    {
      "inputs": [
        {
          "internalType": "uint32",
          "name": "_index",
          "type": "uint32"
        },
        {
          "internalType": "uint256",
          "name": "amount",
          "type": "uint256"
        }
      ],
      "name": "stake",
      "outputs": [],
      "stateMutability": "nonpayable",
      "type": "function"
    },
    {
      "inputs": [
        {
          "internalType": "uint256",
          "name": "",
          "type": "uint256"
        }
      ],
      "name": "stakeAccountList",
      "outputs": [
        {
          "internalType": "address",
          "name": "",
          "type": "address"
        }
      ],
      "stateMutability": "view",
      "type": "function"
    },
    {
      "inputs": [
        {
          "internalType": "bytes4",
          "name": "interfaceId",
          "type": "bytes4"
        }
      ],
      "name": "supportsInterface",
      "outputs": [
        {
          "internalType": "bool",
          "name": "",
          "type": "bool"
        }
      ],
      "stateMutability": "view",
      "type": "function"
    },
    {
      "inputs": [],
      "name": "totalLayer2Deposits",
      "outputs": [
        {
          "internalType": "uint256",
          "name": "amount",
          "type": "uint256"
        }
      ],
      "stateMutability": "view",
      "type": "function"
    },
    {
      "inputs": [],
      "name": "totalStakeAccountList",
      "outputs": [
        {
          "internalType": "uint256",
          "name": "",
          "type": "uint256"
        }
      ],
      "stateMutability": "view",
      "type": "function"
    },
    {
      "inputs": [],
      "name": "totalStakedLwton",
      "outputs": [
        {
          "internalType": "uint256",
          "name": "amount",
          "type": "uint256"
        }
      ],
      "stateMutability": "view",
      "type": "function"
    },
    {
      "inputs": [
        {
          "internalType": "uint256",
          "name": "snapshotId",
          "type": "uint256"
        }
      ],
      "name": "totalStakedLwtonAt",
      "outputs": [
        {
          "internalType": "uint256",
          "name": "amount",
          "type": "uint256"
        }
      ],
      "stateMutability": "view",
      "type": "function"
    },
    {
      "inputs": [
        {
          "internalType": "uint256",
          "name": "snapshotId",
          "type": "uint256"
        }
      ],
      "name": "totalStakedLwtonAtSnapshot",
      "outputs": [
        {
          "internalType": "bool",
          "name": "snapshotted",
          "type": "bool"
        },
        {
          "internalType": "uint256",
          "name": "amount",
          "type": "uint256"
        }
      ],
      "stateMutability": "view",
      "type": "function"
    },
    {
      "inputs": [
        {
          "internalType": "address",
          "name": "newAdmin",
          "type": "address"
        }
      ],
      "name": "transferAdmin",
      "outputs": [],
      "stateMutability": "nonpayable",
      "type": "function"
    },
    {
      "inputs": [
        {
          "internalType": "uint32",
          "name": "_index",
          "type": "uint32"
        },
        {
          "internalType": "uint256",
          "name": "lwton_",
          "type": "uint256"
        }
      ],
      "name": "unstake",
      "outputs": [],
      "stateMutability": "nonpayable",
      "type": "function"
    },
    {
      "inputs": [
        {
          "internalType": "uint32",
          "name": "_index",
          "type": "uint32"
        }
      ],
      "name": "withdraw",
      "outputs": [],
      "stateMutability": "nonpayable",
      "type": "function"
    },
    {
      "inputs": [
        {
          "internalType": "uint32",
          "name": "",
          "type": "uint32"
        },
        {
          "internalType": "address",
          "name": "",
          "type": "address"
        }
      ],
      "name": "withdrawalRequestIndex",
      "outputs": [
        {
          "internalType": "uint256",
          "name": "",
          "type": "uint256"
        }
      ],
      "stateMutability": "view",
      "type": "function"
    },
    {
      "inputs": [
        {
          "internalType": "uint32",
          "name": "",
          "type": "uint32"
        },
        {
          "internalType": "address",
          "name": "",
          "type": "address"
        },
        {
          "internalType": "uint256",
          "name": "",
          "type": "uint256"
        }
      ],
      "name": "withdrawalRequests",
      "outputs": [
        {
          "internalType": "uint32",
          "name": "withdrawableBlockNumber",
          "type": "uint32"
        },
        {
          "internalType": "uint128",
          "name": "amount",
          "type": "uint128"
        },
        {
          "internalType": "bool",
          "name": "processed",
          "type": "bool"
        }
      ],
      "stateMutability": "view",
      "type": "function"
    },
    {
      "inputs": [],
      "name": "wton",
      "outputs": [
        {
          "internalType": "address",
          "name": "",
          "type": "address"
        }
      ],
      "stateMutability": "view",
      "type": "function"
    }
  ],
  "bytecode": "0x60806040526006805460ff1916600117905534801561001d57600080fd5b50614e498061002d6000396000f3fe608060405234801561001057600080fd5b506004361061048c5760003560e01c806375829def1161026b578063a0b2a91311610150578063b9cab971116100c8578063df2b429011610097578063edcc21771161007c578063edcc217714610c98578063f54dea8314610cab578063f6b9c5b214610cbe57600080fd5b8063df2b429014610c72578063ec110d4514610c8557600080fd5b8063b9cab97114610bc6578063ba5adc6b14610be6578063d07918f114610c4c578063d547741f14610c5f57600080fd5b8063aa40362f1161011f578063b6a2f99d11610104578063b6a2f99d14610b67578063b911135f14610b95578063b969fbef14610bbe57600080fd5b8063aa40362f14610b41578063aa9224cd14610b5457600080fd5b8063a0b2a91314610af3578063a217fddf14610b13578063a2dc9e0214610b1b578063a4c735ef14610b2e57600080fd5b80638d1f3d0a116101e357806391d14854116101b2578063962b59a411610197578063962b59a414610a735780639c2f614f14610a865780639c656e2614610a9957600080fd5b806391d1485414610a2957806394c89b2c14610a6057600080fd5b80638d1f3d0a146109ad5780638d62d949146109c05780638d99e1ca146109d85780638ddd87fe146109eb57600080fd5b80637ec6840f1161023a57806385b9e4851161021f57806385b9e4851461090f5780638c6f1b39146109225780638c71762d1461097857600080fd5b80637ec6840f146108e957806380b0eb02146108fc57600080fd5b806375829def1461087157806375b238fc146108845780637cf1587c146108ab5780637d211a1c146108d657600080fd5b806336e3579f116103915780635d0c7b2b116103095780636d1ef103116102d85780637138c792116102bd5780637138c7921461083857806373469a7a1461084b578063744a35611461085e57600080fd5b80636d1ef103146107e6578063704802751461082557600080fd5b80635d0c7b2b1461077b5780635e2cfe451461078e57806363a8fd89146107b9578063659ab820146107c657600080fd5b80634c69a65f1161036057806350d2a2761161034557806350d2a276146107275780635439ad8614610750578063550d01a31461075857600080fd5b80634c69a65f146106f25780634de131ca1461071257600080fd5b806336e3579f1461068357806341e5dbe8146106c45780634273ca16146106d757806346bcdb49146106ea57600080fd5b80631ed944951161042457806324d7806c116103f357806329637c1c116103d857806329637c1c1461068b5780632f2ff15d1461069e57806336568abe146106b157600080fd5b806324d7806c14610670578063275be97d1461068357600080fd5b80631ed94495146105b05780631f760d01146105e75780632298524614610626578063248a9ca31461064d57600080fd5b8063118e29d111610460578063118e29d114610533578063128dfbab1461054857806316b5d5bd146105725780631785f53c1461059d57600080fd5b806207c785146104915780630116cc65146104ca57806301ffc9a7146104dd5780630b8931cb14610500575b600080fd5b6104b761049f36600461455a565b63ffffffff166000908152600d602052604090205490565b6040519081526020015b60405180910390f35b6104b76104d836600461455a565b610cd1565b6104f06104eb366004614575565b610d02565b60405190151581526020016104c1565b61051361050e36600461455a565b610d39565b604080516001600160a01b039384168152929091166020830152016104c1565b61054661054136600461455a565b610ddf565b005b61055b61055636600461459f565b610e54565b6040805192151583526020830191909152016104c1565b600854610585906001600160a01b031681565b6040516001600160a01b0390911681526020016104c1565b6105466105ab3660046145de565b610e82565b6105c36105be3660046145fb565b610f0f565b604080518251815260208084015190820152918101511515908201526060016104c1565b6105fa6105f53660046145fb565b610f8e565b6040805194855263ffffffff9384166020860152918316918401919091521660608201526080016104c1565b6104b77ffb5864e8ff833c3cb2d2d08505e82ff02a43554c74a35d4f5a64e8526127831181565b6104b761065b366004614632565b60009081526020819052604090206001015490565b6104f061067e3660046145de565b6110cc565b600a546104b7565b6104b761069936600461464b565b61110c565b6105466106ac36600461468a565b61119b565b6105466106bf36600461468a565b6111c5565b6104b76106d236600461455a565b61124d565b6104f06106e53660046146af565b611326565b6017546104b7565b6104b761070036600461455a565b600d6020526000908152604090205481565b61071a61147d565b6040516104c1919061474e565b610585610735366004614575565b6004602052600090815260409020546001600160a01b031681565b6104b76114df565b6104f06107663660046145de565b60036020526000908152604090205460ff1681565b6105856107893660046145de565b611552565b6104b761079c3660046145fb565b601360209081526000928352604080842090915290825290205481565b6001546104f09060ff1681565b6107d96107d436600461455a565b611619565b6040516104c191906147eb565b6107f96107f436600461464b565b6116b3565b6040805163ffffffff90941684526001600160801b0390921660208401521515908201526060016104c1565b6105466108333660046145de565b611712565b6104f06108463660046147fe565b61179c565b600754610585906001600160a01b031681565b61054661086c36600461459f565b61196e565b61054661087f3660046145de565b6119d9565b6104b77fdf8b4c520ffe197c5343c6f5aec59570151ef9a492f2c624fd45ddde6135ec4281565b6104b76108b93660046145fb565b601260209081526000928352604080842090915290825290205481565b6104f06108e436600461455a565b611b3b565b6105466108f736600461459f565b611bf9565b6104b761090a36600461464b565b611c52565b6104f061091d366004614844565b611cf6565b61093561093036600461455a565b611f9b565b6040516104c1919081516001600160a01b039081168252602080840151821690830152604080840151821690830152606092830151169181019190915260800190565b61098b6109863660046145fb565b612046565b6040805193845263ffffffff92831660208501529116908201526060016104c1565b6105856109bb36600461455a565b612183565b6006546105859061010090046001600160a01b031681565b6104b76109e636600461455a565b612333565b6104b76109f93660046145fb565b63ffffffff821660009081526013602090815260408083206001600160a01b038516845290915290205492915050565b6104f0610a3736600461468a565b6000918252602082815260408084206001600160a01b0393909316845291905290205460ff1690565b6104b7610a6e3660046145fb565b6123a6565b6104b7610a8136600461459f565b612466565b610546610a9436600461459f565b6124b9565b610ad6610aa73660046145fb565b600f60209081526000928352604080842090915290825290208054600182015460029092015490919060ff1683565b6040805193845260208401929092521515908201526060016104c1565b6104b7610b013660046145de565b60156020526000908152604090205481565b6104b7600081565b610585610b293660046145de565b612543565b610585610b3c3660046145de565b6125b5565b61055b610b4f366004614632565b612612565b610546610b6236600461455a565b612629565b610b7a610b753660046145fb565b612a3e565b604080519384526020840192909252908201526060016104c1565b610585610ba3366004614632565b6002602052600090815260409020546001600160a01b031681565b6104b7612a99565b6104b7610bd436600461455a565b60146020526000908152604090205481565b6104b7610bf43660046145fb565b63ffffffff9091166000908152600f602090815260408083206001600160a01b03909416835292815290829020825160608101845281548152600182015492810183905260029091015460ff16151592019190915290565b600954610585906001600160a01b031681565b610546610c6d36600461468a565b612ae3565b6104f0610c803660046148e4565b612b08565b610585610c93366004614632565b612c4e565b6104b7610ca636600461498a565b612c78565b61055b610cb936600461464b565b612d2b565b6104b7610ccc366004614632565b612d6d565b63ffffffff81166000908152601660205260408082209051610cf391906149dc565b60405180910390209050919050565b60006001600160e01b03198216637965db0b60e01b1480610d3357506301ffc9a760e01b6001600160e01b03198316145b92915050565b63ffffffff8116600090815260166020526040808220905163186ca86f60e21b81528291829173__$35081dc60fc26376aafbbba403b8b17c43$__916361b2a1bc91610d889190600401614a52565b608060405180830381865af4158015610da5573d6000803e3d6000fd5b505050506040513d601f19601f82011682018060405250810190610dc99190614add565b9050806020015181604001519250925050915091565b63ffffffff811660009081526012602090815260408083203380855292529091205490610e10908390836001612d8e565b610e505760405162461bcd60e51b815260206004820152600c60248201526b534c5f455f52455354414b4560a01b60448201526064015b60405180910390fd5b5050565b63ffffffff82166000908152600e602052604081208190610e76908490613245565b915091505b9250929050565b610e8b336110cc565b610ee25760405162461bcd60e51b815260206004820152602260248201527f41636365737369626c653a2043616c6c6572206973206e6f7420616e2061646d60448201526134b760f11b6064820152608401610e47565b610f0c7fdf8b4c520ffe197c5343c6f5aec59570151ef9a492f2c624fd45ddde6135ec42826111c5565b50565b610f35604051806060016040528060008152602001600081526020016000151581525090565b5063ffffffff9091166000908152600f602090815260408083206001600160a01b039094168352928152908290208251606081018452815481526001820154928101929092526002015460ff1615159181019190915290565b63ffffffff80831660008181526011602090815260408083206001600160a01b038716808552908352818420549484526012835281842090845290915281205490929091839182919084165b818110156110c15763ffffffff881660009081526011602090815260408083206001600160a01b038b168452909152812080548390811061101d5761101d614b62565b6000918252602080832060408051606081018252939091015463ffffffff8116845264010000000081046001600160801b031692840192909252600160a01b90910460ff16151590820181905290925090036110ae578363ffffffff1660000361108657805193505b602081015161109e906001600160801b031688614b8e565b96506110ab600186614ba1565b94505b50806110b981614bc5565b915050610fda565b505092959194509250565b6001600160a01b03811660009081527f5cbfc8ee58ca47855df7bcf648dd304ddb6b932f9b87878bdf6318d7ec7ee5b7602052604081205460ff16610d33565b6007546000906001600160a01b03166301792de161112b868686611c52565b846040518363ffffffff1660e01b8152600401611152929190918252602082015260400190565b602060405180830381865afa15801561116f573d6000803e3d6000fd5b505050506040513d601f19601f820116820180604052508101906111939190614bde565b949350505050565b6000828152602081905260409020600101546111b681613368565b6111c08383613372565b505050565b6001600160a01b03811633146112435760405162461bcd60e51b815260206004820152602f60248201527f416363657373436f6e74726f6c3a2063616e206f6e6c792072656e6f756e636560448201527f20726f6c657320666f722073656c6600000000000000000000000000000000006064820152608401610e47565b610e508282613410565b60008061125983611f9b565b90506112688160000151612543565b60065460608301516040516347b00fb360e11b81526001600160a01b03610100909304831660048201529082166024820152911690638f601f6690604401602060405180830381865afa9250505080156112df575060408051601f3d908101601f191682019092526112dc91810190614bde565b60015b61131d573d80801561130d576040519150601f19603f3d011682016040523d82523d6000602084013e611312565b606091505b506000925050611320565b91505b50919050565b60065460009061010090046001600160a01b0316331461136d5760405162461bcd60e51b8152602060048201526002602482015261454160f01b6044820152606401610e47565b6113b46108e4600085858080601f016020809104026020016040519081016040528093929190818152602001838380828437600092019190915250929392505061348f9050565b6113f75760405162461bcd60e51b81526020600482015260146024820152733737b716b932b3b4b9ba32b932b2103630bcb2b960611b6044820152606401610e47565b600061143d600085858080601f016020809104026020016040519081016040528093929190818152602001838380828437600092019190915250929392505061348f9050565b90508415611462576006546114629061010090046001600160a01b031688308861354f565b611470818887600080613673565b5060019695505050505050565b606060178054806020026020016040519081016040528092919081815260200182805480156114d557602002820191906000526020600020905b81546001600160a01b031681526001909101906020018083116114b7575b5050505050905090565b60075460408051632a1cd6c360e11b815290516000926001600160a01b031691635439ad869160048083019260209291908290030181865afa158015611529573d6000803e3d6000fd5b505050506040513d601f19601f8201168201806040525081019061154d9190614bde565b905090565b60405163bf40fac160e01b815260206004820152600d60248201526c27ab26afa9b2b8bab2b731b2b960991b60448201526000906001600160a01b0383169063bf40fac1906064015b602060405180830381865afa9250505080156115d4575060408051601f3d908101601f191682019092526115d191810190614bf7565b60015b611611573d808015611602576040519150601f19603f3d011682016040523d82523d6000602084013e611607565b606091505b5060009392505050565b90505b919050565b60166020526000908152604090208054611632906149a8565b80601f016020809104026020016040519081016040528092919081815260200182805461165e906149a8565b80156116ab5780601f10611680576101008083540402835291602001916116ab565b820191906000526020600020905b81548152906001019060200180831161168e57829003601f168201915b505050505081565b601160205282600052604060002060205281600052604060002081815481106116db57600080fd5b60009182526020909120015463ffffffff8116935064010000000081046001600160801b03169250600160a01b900460ff16905083565b61171b336110cc565b6117725760405162461bcd60e51b815260206004820152602260248201527f41636365737369626c653a2043616c6c6572206973206e6f7420616e2061646d60448201526134b760f11b6064820152608401610e47565b610f0c7fdf8b4c520ffe197c5343c6f5aec59570151ef9a492f2c624fd45ddde6135ec428261119b565b6009546000906001600160a01b031633146117e95760405162461bcd60e51b815260206004820152600d60248201526c232bafa1a0a62622a92fa2a92960991b6044820152606401610e47565b6117f38484613a71565b600754604051630dd1da2b60e41b8152600481018490526000916001600160a01b03169063dd1da2b090602401602060405180830381865afa15801561183d573d6000803e3d6000fd5b505050506040513d601f19601f820116820180604052508101906118619190614bde565b63ffffffff86166000908152600d602052604081208054929350839290919061188b908490614b8e565b9250508190555080600a60008282546118a49190614b8e565b909155505063ffffffff85166000908152600f602090815260408083206001600160a01b038816845290915281208054909185918391906118e6908490614b8e565b92505081905550818160010160008282546119019190614b8e565b90915550506040805188815263ffffffff881660208201526001600160a01b03871681830152606081018690526080810184905290517f8cf204c07a4ce065cdd0c90963672bd384e5479ada88179bca8eb6075c02731f9181900360a00190a15060019695505050505050565b63ffffffff82166000908152601260209081526040808320338085529252909120549061199e9084908385612d8e565b6111c05760405162461bcd60e51b815260206004820152600c60248201526b534c5f455f52455354414b4560a01b6044820152606401610e47565b6119e2336110cc565b611a395760405162461bcd60e51b815260206004820152602260248201527f41636365737369626c653a2043616c6c6572206973206e6f7420616e2061646d60448201526134b760f11b6064820152608401610e47565b6001600160a01b038116611a8f5760405162461bcd60e51b815260206004820152601860248201527f41636365737369626c653a207a65726f206164647265737300000000000000006044820152606401610e47565b6001600160a01b0381163303611ae75760405162461bcd60e51b815260206004820152601660248201527f41636365737369626c653a2073616d652061646d696e000000000000000000006044820152606401610e47565b611b117fdf8b4c520ffe197c5343c6f5aec59570151ef9a492f2c624fd45ddde6135ec428261119b565b610f0c7fdf8b4c520ffe197c5343c6f5aec59570151ef9a492f2c624fd45ddde6135ec42336111c5565b60085460405163370f791d60e11b815263ffffffff831660048201526000916001600160a01b031690636e1ef23a90602401602060405180830381865afa158015611b8a573d6000803e3d6000fd5b505050506040513d601f19601f82011682018060405250810190611bae9190614c14565b611bf15760405162461bcd60e51b81526020600482015260146024820152733737b716b932b3b4b9ba32b932b2103630bcb2b960611b6044820152606401610e47565b506001919050565b611c0282611b3b565b611c455760405162461bcd60e51b81526020600482015260146024820152733737b716b932b3b4b9ba32b932b2103630bcb2b960611b6044820152606401610e47565b610e508282600080613b1f565b63ffffffff831660009081526010602090815260408083206001600160a01b0386168452909152812081908190611c8a908590613245565b9150915081611cea5763ffffffff86166000908152600f602090815260408083206001600160a01b0389168452825291829020825160608101845281548152600182015492810183905260029091015460ff161515920191909152611cec565b805b9695505050505050565b60065460009060ff16611d345760405162461bcd60e51b8152600401610e47906020808252600490820152636c6f636b60e01b604082015260600190565b6006805460ff191690556009546001600160a01b03163314611d885760405162461bcd60e51b815260206004820152600d60248201526c232bafa1a0a62622a92fa2a92960991b6044820152606401610e47565b81611d9386866123a6565b1015611de15760405162461bcd60e51b815260206004820152601960248201527f6c697175696469747920697320696e73756666696369656e74000000000000006044820152606401610e47565b611deb8585613a71565b6006546040516370a0823160e01b815230600482015260009161010090046001600160a01b0316906370a0823190602401602060405180830381865afa158015611e39573d6000803e3d6000fd5b505050506040513d601f19601f82011682018060405250810190611e5d9190614bde565b905082811015611f08578015611e8957600654611e899061010090046001600160a01b03168583613b4f565b6007546001600160a01b031663aad3ec9685611ea58487614c36565b6040516001600160e01b031960e085901b1681526001600160a01b0390921660048301526024820152604401600060405180830381600087803b158015611eeb57600080fd5b505af1158015611eff573d6000803e3d6000fd5b50505050611f24565b600654611f249061010090046001600160a01b03168585613b4f565b6040805188815263ffffffff881660208201526001600160a01b0387811682840152861660608201526080810185905290517f77fbf71434da34ef2aa8382e2b751b6b2de7bd18d96a07ff7f4dae7dae9237619181900360a00190a160019150506006805460ff1916600117905595945050505050565b60408051608081018252600080825260208083018290528284018290526060830182905263ffffffff8516825260169052829020915163186ca86f60e21b8152909173__$35081dc60fc26376aafbbba403b8b17c43$__916361b2a1bc9161200591600401614a52565b608060405180830381865af4158015612022573d6000803e3d6000fd5b505050506040513d601f19601f82011682018060405250810190610d339190614add565b63ffffffff80831660008181526011602090815260408083206001600160a01b038716808552908352818420549484526012835281842090845290915281205490929091839183165b8181101561217a5763ffffffff871660009081526011602090815260408083206001600160a01b038a16845290915281208054839081106120d2576120d2614b62565b600091825260209182902060408051606081018252929091015463ffffffff811680845264010000000082046001600160801b031694840194909452600160a01b900460ff1615159082015291504311801561213057506040810151155b1561216157602081015161214d906001600160801b031687614b8e565b955061215a600185614ba1565b9350612167565b5061217a565b508061217281614bc5565b91505061208f565b50509250925092565b63ffffffff811660009081526016602052604080822090516379a0c08760e11b8152829173__$35081dc60fc26376aafbbba403b8b17c43$__9163f341810e916121cf91600401614a52565b602060405180830381865af41580156121ec573d6000803e3d6000fd5b505050506040513d601f19601f820116820180604052508101906122109190614bf7565b90506001600160a01b0381166122295750600092915050565b63ffffffff83166000908152601660205260409081902090516379a0c08760e11b815273__$35081dc60fc26376aafbbba403b8b17c43$__9163f341810e916122759190600401614a52565b602060405180830381865af4158015612292573d6000803e3d6000fd5b505050506040513d601f19601f820116820180604052508101906122b69190614bf7565b60405163bf40fac160e01b815260206004820152600d60248201526c27ab26afa9b2b8bab2b731b2b960991b60448201526001600160a01b03919091169063bf40fac190606401602060405180830381865afa9250505080156112df575060408051601f3d908101601f191682019092526112dc91810190614bf7565b6008546040516346ccf0e560e11b815263ffffffff831660048201526000916001600160a01b031690638d99e1ca90602401602060405180830381865afa158015612382573d6000803e3d6000fd5b505050506040513d601f19601f82011682018060405250810190610d339190614bde565b60075463ffffffff83166000908152600f602090815260408083206001600160a01b038681168552908352818420825160608101845281548152600182015494810185905260029091015460ff16151590830152905163257397a560e11b8152600481019290925291929190911690634ae72f4a90602401602060405180830381865afa15801561243b573d6000803e3d6000fd5b505050506040513d601f19601f8201168201806040525081019061245f9190614bde565b9392505050565b63ffffffff82166000908152600e602052604081208190819061248a908590613245565b91509150816124ae5763ffffffff85166000908152600d60205260409020546124b0565b805b95945050505050565b600954604051630265991f60e61b81526000600482015263ffffffff84166024820152336044820152610e5091849184916001600160a01b03169063996647c090606401602060405180830381865afa15801561251a573d6000803e3d6000fd5b505050506040513d601f19601f8201168201806040525081019061253e9190614bde565b613c6a565b60006001600160a01b03821661255b57506000919050565b60405163bf40fac160e01b815260206004820152601b60248201527f50726f78795f5f4f564d5f4c315374616e64617264427269646765000000000060448201526001600160a01b0383169063bf40fac19060640161159b565b60405163bf40fac160e01b815260206004820152601a60248201527f4f564d5f4c3143726f7373446f6d61696e4d657373656e67657200000000000060448201526000906001600160a01b0383169063bf40fac19060640161159b565b60008061262083600b613245565b91509150915091565b60065460ff166126645760405162461bcd60e51b8152600401610e47906020808252600490820152636c6f636b60e01b604082015260600190565b6006805460ff1916905563ffffffff811660008181526011602090815260408083203380855290835281842054948452601283528184208185529092528220549092919081905b8381101561277d5763ffffffff861660009081526011602090815260408083206001600160a01b038916845290915281208054839081106126ee576126ee614b62565b600091825260209091200180549091504363ffffffff90911610801561271d57508054600160a01b900460ff16155b1561276457805460ff60a01b1916600160a01b17808255612750906001600160801b036401000000009091041684614b8e565b92508361275c81614bc5565b94505061276a565b5061277d565b508061277581614bc5565b9150506126ab565b50600081116127ce5760405162461bcd60e51b815260206004820181905260248201527f7a65726f20617661696c61626c65207769746864726177616c20616d6f756e746044820152606401610e47565b63ffffffff851660009081526012602090815260408083206001600160a01b038816845290915281208054849290612807908490614b8e565b909155505063ffffffff851660009081526013602090815260408083206001600160a01b038816845290915281208054839290612845908490614c36565b909155505063ffffffff85166000908152601460205260408120805483929061286f908490614c36565b90915550506001600160a01b0384166000908152601560205260408120805483929061289c908490614c36565b90915550506006546040516370a0823160e01b815230600482015260009161010090046001600160a01b0316906370a0823190602401602060405180830381865afa1580156128ef573d6000803e3d6000fd5b505050506040513d601f19601f820116820180604052508101906129139190614bde565b9050818110156129be57801561293f5760065461293f9061010090046001600160a01b03168683613b4f565b6007546001600160a01b031663aad3ec968661295b8486614c36565b6040516001600160e01b031960e085901b1681526001600160a01b0390921660048301526024820152604401600060405180830381600087803b1580156129a157600080fd5b505af11580156129b5573d6000803e3d6000fd5b505050506129da565b6006546129da9061010090046001600160a01b03168684613b4f565b6040805163ffffffff881681526001600160a01b03871660208201529081018390527f2d6eb139d2002caa088da5527d9d62f2f23bdf4504f5559a112535c436c6ee599060600160405180910390a150506006805460ff1916600117905550505050565b63ffffffff821660008181526011602090815260408083206001600160a01b038616808552908352818420549484526012835281842090845290915281205490818310612a9257612a8f8284614c36565b90505b9250925092565b6008546040805163b969fbef60e01b815290516000926001600160a01b03169163b969fbef9160048083019260209291908290030181865afa158015611529573d6000803e3d6000fd5b600082815260208190526040902060010154612afe81613368565b6111c08383613410565b6008546000906001600160a01b03163314612b655760405162461bcd60e51b815260206004820152601160248201527f6e6f74204c61796572324d616e616765720000000000000000000000000000006044820152606401610e47565b8151605014612bb65760405162461bcd60e51b815260206004820152600f60248201527f77726f6e67206c61796572496e666f00000000000000000000000000000000006044820152606401610e47565b63ffffffff831660009081526016602052604090208054612bd6906149a8565b159050612c255760405162461bcd60e51b815260206004820152600f60248201527f616c7265616479206372656174656400000000000000000000000000000000006044820152606401610e47565b63ffffffff83166000908152601660205260409020612c448382614c8f565b5060019392505050565b60178181548110612c5e57600080fd5b6000918252602090912001546001600160a01b0316905081565b6006546040516347b00fb360e11b81526001600160a01b03610100909204821660048201528282166024820152600091841690638f601f6690604401602060405180830381865afa925050508015612ced575060408051601f3d908101601f19168201909252612cea91810190614bde565b60015b61245f573d808015612d1b576040519150601f19603f3d011682016040523d82523d6000602084013e612d20565b606091505b506000915050610d33565b63ffffffff831660009081526010602090815260408083206001600160a01b038616845290915281208190612d61908490613245565b91509150935093915050565b6000806000612d7d84600b613245565b915091508161131d57600a54611193565b60065460009060ff16612dcc5760405162461bcd60e51b8152600401610e47906020808252600490820152636c6f636b60e01b604082015260600190565b6006805460ff19169055612de08585613a71565b63ffffffff851660009081526011602090815260408083206001600160a01b038816845290915281205480612e445760405162461bcd60e51b815260206004820152600a6024820152696e6f20756e7374616b6560b01b6044820152606401610e47565b83612e4f8683614c36565b1015612e9d5760405162461bcd60e51b815260206004820152601860248201527f6e2065786365656473206e756d206f662070656e64696e6700000000000000006044820152606401610e47565b6000612ea98587614b8e565b90505b80861015612f9f5763ffffffff881660009081526011602090815260408083206001600160a01b038b1684529091528120805488908110612eef57612eef614b62565b6000918252602090912001805490915064010000000081046001600160801b031690600160a01b900460ff1615612f685760405162461bcd60e51b815260206004820152601260248201527f616c7265616479207769746864726177616c00000000000000000000000000006044820152606401610e47565b8015612f7b57612f788186614b8e565b94505b50805460ff60a01b1916600160a01b17905585612f9781614bc5565b965050612eac565b60008311612fef5760405162461bcd60e51b815260206004820152601760248201527f6e6f2076616c69642072657374616b6520616d6f756e740000000000000000006044820152606401610e47565b600754604051630dd1da2b60e41b8152600481018590526000916001600160a01b03169063dd1da2b090602401602060405180830381865afa158015613039573d6000803e3d6000fd5b505050506040513d601f19601f8201168201806040525081019061305d9190614bde565b63ffffffff8a166000908152600f602090815260408083206001600160a01b038d16845290915281208054929350918691839161309b908490614b8e565b92505081905550818160010160008282546130b69190614b8e565b909155505063ffffffff8a166000908152600d6020526040812080548492906130e0908490614b8e565b9250508190555081600a60008282546130f99190614b8e565b909155505063ffffffff8a1660009081526013602090815260408083206001600160a01b038d16845290915281208054879290613137908490614c36565b909155505063ffffffff8a1660009081526014602052604081208054879290613161908490614c36565b90915550506001600160a01b0389166000908152601560205260408120805487929061318e908490614c36565b909155505063ffffffff8a1660009081526012602090815260408083206001600160a01b038d168452909152812080548992906131cc908490614b8e565b90915550506040805163ffffffff8c1681526001600160a01b038b166020820152908101869052606081018390527f34981dc0486069d2abbaddbc42e10b97cb24e4bce60ee4457e1d5062dfc0b4299060800160405180910390a16001955050505050506006805460ff19166001179055949350505050565b6000806132506114df565b84111561329f5760405162461bcd60e51b815260206004820152601860248201527f536e617073686f743a206e6f6e6578697374656e7420696400000000000000006044820152606401610e47565b8254158015906132d85750825483906132ba90600190614c36565b815481106132ca576132ca614b62565b906000526020600020015484115b156133165782546000906001808601916132f29190614c36565b8154811061330257613302614b62565b906000526020600020015491509150610e7b565b6000613322848661416e565b8454909150811061333a576000809250925050610e7b565b600184600101828154811061335157613351614b62565b906000526020600020015492509250509250929050565b610f0c813361427e565b6000828152602081815260408083206001600160a01b038516845290915290205460ff16610e50576000828152602081815260408083206001600160a01b03851684529091529020805460ff191660011790556133cc3390565b6001600160a01b0316816001600160a01b0316837f2f8788117e7eff1d82e926ec794901d17c78024a50270940304540a733656f0d60405160405180910390a45050565b6000828152602081815260408083206001600160a01b038516845290915290205460ff1615610e50576000828152602081815260408083206001600160a01b0385168085529252808320805460ff1916905551339285917ff6391f5c32d9c69d2a47ea670b442974b53935d1edc7fd64eb21e047a839171b9190a45050565b60008161349d816004614b8e565b10156134eb5760405162461bcd60e51b815260206004820152601160248201527f746f55696e7433325f6f766572666c6f770000000000000000000000000000006044820152606401610e47565b6134f6826004614b8e565b835110156135465760405162461bcd60e51b815260206004820152601460248201527f746f55696e7433325f6f75744f66426f756e64730000000000000000000000006044820152606401610e47565b50016004015190565b604080516001600160a01b0385811660248301528481166044830152606480830185905283518084039091018152608490920183526020820180516001600160e01b03166323b872dd60e01b17905291516000928392908816916135b39190614d4f565b6000604051808303816000865af19150503d80600081146135f0576040519150601f19603f3d011682016040523d82523d6000602084013e6135f5565b606091505b509150915081801561361f57508051158061361f57508080602001905181019061361f9190614c14565b61366b5760405162461bcd60e51b815260206004820152601460248201527f5452414e534645525f46524f4d5f4641494c45440000000000000000000000006044820152606401610e47565b505050505050565b60065460ff166136ae5760405162461bcd60e51b8152600401610e47906020808252600490820152636c6f636b60e01b604082015260600190565b6006805460ff191690558260008190036136ef5760405162461bcd60e51b81526020600482015260026024820152615a3160f01b6044820152606401610e47565b6136f98686613a71565b600754604051630dd1da2b60e41b8152600481018690526000916001600160a01b03169063dd1da2b090602401602060405180830381865afa158015613743573d6000803e3d6000fd5b505050506040513d601f19601f820116820180604052508101906137679190614bde565b63ffffffff88166000908152600d6020526040812080549293508392909190613791908490614b8e565b9250508190555080600a60008282546137aa9190614b8e565b909155505063ffffffff87166000908152600f602090815260408083206001600160a01b038a1684529091529020600281015460ff1661384c57600281018054600160ff1990911681179091556017805491820181556000527fc624b66cc0138b8fabc209247f72d758e1cf3343756d543badbf24212bed8c1501805473ffffffffffffffffffffffffffffffffffffffff19166001600160a01b0389161790555b600061ffff85161580159061386957506001600160a01b03861615155b801561387a57506127108561ffff16105b156139bd5761271061389061ffff871685614d6b565b61389a9190614d82565b90506138a68184614c36565b60075460405163257397a560e11b8152600481018390529194506000916001600160a01b0390911690634ae72f4a90602401602060405180830381865afa1580156138f5573d6000803e3d6000fd5b505050506040513d601f19601f820116820180604052508101906139199190614bde565b90508083600001600082825461392f9190614b8e565b925050819055508383600101600082825461394a9190614b8e565b909155505063ffffffff8a166000908152600f602090815260408083206001600160a01b038b1684529091529020613982828a614c36565b8160000160008282546139959190614b8e565b92505081905550828160010160008282546139b09190614b8e565b909155506139f292505050565b868260000160008282546139d19190614b8e565b92505081905550828260010160008282546139ec9190614b8e565b90915550505b6040805163ffffffff8b1681526001600160a01b038a811660208301528183018a9052606082018690528816608082015261ffff871660a082015290517f318dab784577ac2e7d86f88c3f2a80520b447b822b8a756158648e0f917d16a09181900360c00190a150506006805460ff1916600117905550505050505050565b613a84600b613a7f600a5490565b6142f1565b63ffffffff82166000908152600e60209081526040808320600d90925290912054613aaf91906142f1565b63ffffffff821660008181526010602090815260408083206001600160a01b038616808552908352818420948452600f8352818420908452825291829020825160608101845281548152600182015492810183905260029091015460ff161515920191909152610e5091906142f1565b600654613b3c9061010090046001600160a01b031633308661354f565b613b498433858585613673565b50505050565b604080516001600160a01b038481166024830152604480830185905283518084039091018152606490920183526020820180516001600160e01b031663a9059cbb60e01b1790529151600092839290871691613bab9190614d4f565b6000604051808303816000865af19150503d8060008114613be8576040519150601f19603f3d011682016040523d82523d6000602084013e613bed565b606091505b5091509150818015613c17575080511580613c17575080806020019051810190613c179190614c14565b613c635760405162461bcd60e51b815260206004820152600f60248201527f5452414e534645525f4641494c454400000000000000000000000000000000006044820152606401610e47565b5050505050565b60065460ff16613ca55760405162461bcd60e51b8152600401610e47906020808252600490820152636c6f636b60e01b604082015260600190565b6006805460ff19169055816000819003613ce65760405162461bcd60e51b81526020600482015260026024820152615a3160f01b6044820152606401610e47565b33613cf18582613a71565b60075460405163257397a560e11b8152600481018690526000916001600160a01b031690634ae72f4a90602401602060405180830381865afa158015613d3b573d6000803e3d6000fd5b505050506040513d601f19601f82011682018060405250810190613d5f9190614bde565b63ffffffff87166000908152600f602090815260408083206001600160a01b038716845290915290209091508415613e60576001810154600754604051630dd1da2b60e41b8152600481018890526001600160a01b039091169063dd1da2b090602401602060405180830381865afa158015613ddf573d6000803e3d6000fd5b505050506040513d601f19601f82011682018060405250810190613e039190614bde565b613e0d9088614b8e565b1115613e5b5760405162461bcd60e51b815260206004820152600d60248201527f756e7374616b655f6572725f31000000000000000000000000000000000000006044820152606401610e47565b613eb4565b8060010154861115613eb45760405162461bcd60e51b815260206004820152600d60248201527f756e7374616b655f6572725f32000000000000000000000000000000000000006044820152606401610e47565b85816001016000828254613ec89190614c36565b90915550508054821115613edf5760008155613ef9565b81816000016000828254613ef39190614c36565b90915550505b63ffffffff87166000908152600d602052604081208054889290613f1e908490614c36565b9250508190555085600a6000828254613f379190614c36565b909155505060085460408051636577b27360e11b815290516000926001600160a01b03169163caef64e69160048083019260209291908290030181865afa158015613f86573d6000803e3d6000fd5b505050506040513d601f19601f82011682018060405250810190613faa9190614bde565b63ffffffff891660009081526011602090815260408083206001600160a01b03891684529091529081902081516060810190925291925080613fec8443614b8e565b63ffffffff90811682526001600160801b0380881660208085019190915260006040948501819052865460018101885596815281812086519701805487840151978701511515600160a01b0260ff60a01b19989095166401000000000273ffffffffffffffffffffffffffffffffffffffff19909116988616989098179790971795909516919091179094558b168252601383528082206001600160a01b038816835290925290812080548592906140a5908490614b8e565b909155505063ffffffff8816600090815260146020526040812080548592906140cf908490614b8e565b90915550506001600160a01b038416600090815260156020526040812080548592906140fc908490614b8e565b90915550506040805163ffffffff8a1681526001600160a01b0386166020820152908101849052606081018890527f869a01319d83bb921803a22e3e95d0cb8b08e708d3fb144e2c25a563bf8650d39060800160405180910390a150506006805460ff19166001179055505050505050565b8154600090810361418157506000610d33565b8254839061419190600190614c36565b815481106141a1576141a1614b62565b906000526020600020015482106141c75782546141c090600190614c36565b9050610d33565b826000815481106141da576141da614b62565b90600052602060002001548210156141f457506000610d33565b8254600090819061420790600190614c36565b90505b8181111561427657600060026142208484614b8e565b61422b906001614b8e565b6142359190614d82565b90508486828154811061424a5761424a614b62565b90600052602060002001541161426257809250614270565b61426d600182614c36565b91505b5061420a565b509392505050565b6000828152602081815260408083206001600160a01b038516845290915290205460ff16610e50576142af81614346565b6142ba836020614358565b6040516020016142cb929190614da4565b60408051601f198184030181529082905262461bcd60e51b8252610e47916004016147eb565b60006142fb6114df565b8354909150158061431357508061431184614501565b105b156111c0578254600180820185556000858152602080822090930193909355938401805494850181558252902090910155565b6060610d336001600160a01b03831660145b60606000614367836002614d6b565b614372906002614b8e565b67ffffffffffffffff81111561438a5761438a61489d565b6040519080825280601f01601f1916602001820160405280156143b4576020820181803683370190505b509050600360fc1b816000815181106143cf576143cf614b62565b60200101906001600160f81b031916908160001a905350600f60fb1b816001815181106143fe576143fe614b62565b60200101906001600160f81b031916908160001a9053506000614422846002614d6b565b61442d906001614b8e565b90505b60018111156144b2577f303132333435363738396162636465660000000000000000000000000000000085600f166010811061446e5761446e614b62565b1a60f81b82828151811061448457614484614b62565b60200101906001600160f81b031916908160001a90535060049490941c936144ab81614e25565b9050614430565b50831561245f5760405162461bcd60e51b815260206004820181905260248201527f537472696e67733a20686578206c656e67746820696e73756666696369656e746044820152606401610e47565b8054600090810361451457506000919050565b8154829061452490600190614c36565b8154811061453457614534614b62565b90600052602060002001549050919050565b803563ffffffff8116811461161457600080fd5b60006020828403121561456c57600080fd5b61245f82614546565b60006020828403121561458757600080fd5b81356001600160e01b03198116811461245f57600080fd5b600080604083850312156145b257600080fd5b6145bb83614546565b946020939093013593505050565b6001600160a01b0381168114610f0c57600080fd5b6000602082840312156145f057600080fd5b813561245f816145c9565b6000806040838503121561460e57600080fd5b61461783614546565b91506020830135614627816145c9565b809150509250929050565b60006020828403121561464457600080fd5b5035919050565b60008060006060848603121561466057600080fd5b61466984614546565b92506020840135614679816145c9565b929592945050506040919091013590565b6000806040838503121561469d57600080fd5b823591506020830135614627816145c9565b6000806000806000608086880312156146c757600080fd5b85356146d2816145c9565b945060208601356146e2816145c9565b935060408601359250606086013567ffffffffffffffff8082111561470657600080fd5b818801915088601f83011261471a57600080fd5b81358181111561472957600080fd5b89602082850101111561473b57600080fd5b9699959850939650602001949392505050565b6020808252825182820181905260009190848201906040850190845b8181101561478f5783516001600160a01b03168352928401929184019160010161476a565b50909695505050505050565b60005b838110156147b657818101518382015260200161479e565b50506000910152565b600081518084526147d781602086016020860161479b565b601f01601f19169290920160200192915050565b60208152600061245f60208301846147bf565b6000806000806080858703121561481457600080fd5b8435935061482460208601614546565b92506040850135614834816145c9565b9396929550929360600135925050565b600080600080600060a0868803121561485c57600080fd5b8535945061486c60208701614546565b9350604086013561487c816145c9565b9250606086013561488c816145c9565b949793965091946080013592915050565b634e487b7160e01b600052604160045260246000fd5b604051601f8201601f1916810167ffffffffffffffff811182821017156148dc576148dc61489d565b604052919050565b600080604083850312156148f757600080fd5b61490083614546565b915060208084013567ffffffffffffffff8082111561491e57600080fd5b818601915086601f83011261493257600080fd5b8135818111156149445761494461489d565b614956601f8201601f191685016148b3565b9150808252878482850101111561496c57600080fd5b80848401858401376000848284010152508093505050509250929050565b6000806040838503121561499d57600080fd5b8235614617816145c9565b600181811c908216806149bc57607f821691505b60208210810361132057634e487b7160e01b600052602260045260246000fd5b60008083546149ea816149a8565b60018281168015614a025760018114614a1757614a46565b60ff1984168752821515830287019450614a46565b8760005260208060002060005b85811015614a3d5781548a820152908401908201614a24565b50505082870194505b50929695505050505050565b6000602080835260008454614a66816149a8565b80848701526040600180841660008114614a875760018114614aa157614acf565b60ff1985168984015283151560051b890183019550614acf565b896000528660002060005b85811015614ac75781548b8201860152908301908801614aac565b8a0184019650505b509398975050505050505050565b600060808284031215614aef57600080fd5b6040516080810181811067ffffffffffffffff82111715614b1257614b1261489d565b6040528251614b20816145c9565b81526020830151614b30816145c9565b60208201526040830151614b43816145c9565b60408201526060830151614b56816145c9565b60608201529392505050565b634e487b7160e01b600052603260045260246000fd5b634e487b7160e01b600052601160045260246000fd5b80820180821115610d3357610d33614b78565b63ffffffff818116838216019080821115614bbe57614bbe614b78565b5092915050565b600060018201614bd757614bd7614b78565b5060010190565b600060208284031215614bf057600080fd5b5051919050565b600060208284031215614c0957600080fd5b815161245f816145c9565b600060208284031215614c2657600080fd5b8151801515811461245f57600080fd5b81810381811115610d3357610d33614b78565b601f8211156111c057600081815260208120601f850160051c81016020861015614c705750805b601f850160051c820191505b8181101561366b57828155600101614c7c565b815167ffffffffffffffff811115614ca957614ca961489d565b614cbd81614cb784546149a8565b84614c49565b602080601f831160018114614cf25760008415614cda5750858301515b600019600386901b1c1916600185901b17855561366b565b600085815260208120601f198616915b82811015614d2157888601518255948401946001909101908401614d02565b5085821015614d3f5787850151600019600388901b60f8161c191681555b5050505050600190811b01905550565b60008251614d6181846020870161479b565b9190910192915050565b8082028115828204841417610d3357610d33614b78565b600082614d9f57634e487b7160e01b600052601260045260246000fd5b500490565b7f416363657373436f6e74726f6c3a206163636f756e7420000000000000000000815260008351614ddc81601785016020880161479b565b7f206973206d697373696e6720726f6c65200000000000000000000000000000006017918401918201528351614e1981602884016020880161479b565b01602801949350505050565b600081614e3457614e34614b78565b50600019019056fea164736f6c6343000812000a",
  "linkReferences": {
    "contracts/libraries/LibOptimism.sol": {
      "LibOptimism": [
        {
          "length": 20,
          "start": 3470
        },
        {
          "length": 20,
          "start": 8204
        },
        {
          "length": 20,
          "start": 8662
        },
        {
          "length": 20,
          "start": 8827
        }
      ]
    }
  },
  "deployedLinkReferences": {
    "contracts/libraries/LibOptimism.sol": {
      "LibOptimism": [
        {
          "length": 20,
          "start": 3425
        },
        {
          "length": 20,
          "start": 8159
        },
        {
          "length": 20,
          "start": 8617
        },
        {
          "length": 20,
          "start": 8782
        }
      ]
    }
  }
}