{
  "_format": "hh-sol-artifact-1",
  "contractName": "OptimismSequencer",
  "sourceName": "contracts/OptimismSequencer.sol",
  "abi": [
    {
      "inputs": [],
      "stateMutability": "nonpayable",
      "type": "constructor"
    },
    {
      "anonymous": false,
      "inputs": [
        {
          "indexed": false,
          "internalType": "uint32",
          "name": "layerIndex",
          "type": "uint32"
        },
        {
          "indexed": false,
          "internalType": "address",
          "name": "from",
          "type": "address"
        },
        {
          "indexed": false,
          "internalType": "address",
          "name": "to",
          "type": "address"
        },
        {
          "indexed": false,
          "internalType": "uint256",
          "name": "amount",
          "type": "uint256"
        }
      ],
      "name": "FastWithdrawalCalim",
      "type": "event"
    },
    {
      "anonymous": false,
      "inputs": [
        {
          "indexed": false,
          "internalType": "uint32",
          "name": "layerIndex",
          "type": "uint32"
        },
        {
          "indexed": false,
          "internalType": "address",
          "name": "staker",
          "type": "address"
        },
        {
          "indexed": false,
          "internalType": "uint256",
          "name": "amount",
          "type": "uint256"
        },
        {
          "indexed": false,
          "internalType": "uint256",
          "name": "lton",
          "type": "uint256"
        }
      ],
      "name": "FastWithdrawalStaked",
      "type": "event"
    },
    {
      "anonymous": false,
      "inputs": [
        {
          "indexed": false,
          "internalType": "uint32",
          "name": "_index",
          "type": "uint32"
        },
        {
          "indexed": false,
          "internalType": "address",
          "name": "sender",
          "type": "address"
        },
        {
          "indexed": false,
          "internalType": "uint256",
          "name": "amount",
          "type": "uint256"
        },
        {
          "indexed": false,
          "internalType": "uint256",
          "name": "lton",
          "type": "uint256"
        }
      ],
      "name": "Restaked",
      "type": "event"
    },
    {
      "anonymous": false,
      "inputs": [
        {
          "indexed": true,
          "internalType": "bytes32",
          "name": "role",
          "type": "bytes32"
        },
        {
          "indexed": true,
          "internalType": "bytes32",
          "name": "previousAdminRole",
          "type": "bytes32"
        },
        {
          "indexed": true,
          "internalType": "bytes32",
          "name": "newAdminRole",
          "type": "bytes32"
        }
      ],
      "name": "RoleAdminChanged",
      "type": "event"
    },
    {
      "anonymous": false,
      "inputs": [
        {
          "indexed": true,
          "internalType": "bytes32",
          "name": "role",
          "type": "bytes32"
        },
        {
          "indexed": true,
          "internalType": "address",
          "name": "account",
          "type": "address"
        },
        {
          "indexed": true,
          "internalType": "address",
          "name": "sender",
          "type": "address"
        }
      ],
      "name": "RoleGranted",
      "type": "event"
    },
    {
      "anonymous": false,
      "inputs": [
        {
          "indexed": true,
          "internalType": "bytes32",
          "name": "role",
          "type": "bytes32"
        },
        {
          "indexed": true,
          "internalType": "address",
          "name": "account",
          "type": "address"
        },
        {
          "indexed": true,
          "internalType": "address",
          "name": "sender",
          "type": "address"
        }
      ],
      "name": "RoleRevoked",
      "type": "event"
    },
    {
      "anonymous": false,
      "inputs": [
        {
          "indexed": false,
          "internalType": "uint32",
          "name": "_index",
          "type": "uint32"
        },
        {
          "indexed": false,
          "internalType": "address",
          "name": "sender",
          "type": "address"
        },
        {
          "indexed": false,
          "internalType": "uint256",
          "name": "amount",
          "type": "uint256"
        },
        {
          "indexed": false,
          "internalType": "uint256",
          "name": "lton",
          "type": "uint256"
        },
        {
          "indexed": false,
          "internalType": "address",
          "name": "commissionTo",
          "type": "address"
        },
        {
          "indexed": false,
          "internalType": "uint16",
          "name": "commission",
          "type": "uint16"
        }
      ],
      "name": "Staked",
      "type": "event"
    },
    {
      "anonymous": false,
      "inputs": [
        {
          "indexed": false,
          "internalType": "uint32",
          "name": "_index",
          "type": "uint32"
        },
        {
          "indexed": false,
          "internalType": "address",
          "name": "sender",
          "type": "address"
        },
        {
          "indexed": false,
          "internalType": "uint256",
          "name": "amount",
          "type": "uint256"
        },
        {
          "indexed": false,
          "internalType": "uint256",
          "name": "lton",
          "type": "uint256"
        }
      ],
      "name": "Unstaked",
      "type": "event"
    },
    {
      "anonymous": false,
      "inputs": [
        {
          "indexed": false,
          "internalType": "uint32",
          "name": "_index",
          "type": "uint32"
        },
        {
          "indexed": false,
          "internalType": "address",
          "name": "sender",
          "type": "address"
        },
        {
          "indexed": false,
          "internalType": "uint256",
          "name": "amount",
          "type": "uint256"
        }
      ],
      "name": "Withdrawal",
      "type": "event"
    },
    {
      "inputs": [],
      "name": "ADMIN_ROLE",
      "outputs": [
        {
          "internalType": "bytes32",
          "name": "",
          "type": "bytes32"
        }
      ],
      "stateMutability": "view",
      "type": "function"
    },
    {
      "inputs": [],
      "name": "DEFAULT_ADMIN_ROLE",
      "outputs": [
        {
          "internalType": "bytes32",
          "name": "",
          "type": "bytes32"
        }
      ],
      "stateMutability": "view",
      "type": "function"
    },
    {
      "inputs": [
        {
          "internalType": "address",
          "name": "addressManager",
          "type": "address"
        }
      ],
      "name": "L1CrossDomainMessenger",
      "outputs": [
        {
          "internalType": "address",
          "name": "account_",
          "type": "address"
        }
      ],
      "stateMutability": "view",
      "type": "function"
    },
    {
      "inputs": [
        {
          "internalType": "address",
          "name": "addressManager",
          "type": "address"
        }
      ],
      "name": "L1StandardBridge",
      "outputs": [
        {
          "internalType": "address",
          "name": "account_",
          "type": "address"
        }
      ],
      "stateMutability": "view",
      "type": "function"
    },
    {
      "inputs": [
        {
          "internalType": "uint32",
          "name": "_index",
          "type": "uint32"
        }
      ],
      "name": "L1StandardBridge",
      "outputs": [
        {
          "internalType": "address",
          "name": "account_",
          "type": "address"
        }
      ],
      "stateMutability": "view",
      "type": "function"
    },
    {
      "inputs": [],
      "name": "POLICY_ROLE",
      "outputs": [
        {
          "internalType": "bytes32",
          "name": "",
          "type": "bytes32"
        }
      ],
      "stateMutability": "view",
      "type": "function"
    },
    {
      "inputs": [
        {
          "internalType": "address",
          "name": "account",
          "type": "address"
        }
      ],
      "name": "addAdmin",
      "outputs": [],
      "stateMutability": "nonpayable",
      "type": "function"
    },
    {
      "inputs": [
        {
          "internalType": "address",
          "name": "",
          "type": "address"
        }
      ],
      "name": "aliveImplementation",
      "outputs": [
        {
          "internalType": "bool",
          "name": "",
          "type": "bool"
        }
      ],
      "stateMutability": "view",
      "type": "function"
    },
    {
      "inputs": [
        {
          "internalType": "uint32",
          "name": "layerIndex",
          "type": "uint32"
        },
        {
          "internalType": "address",
          "name": "account",
          "type": "address"
        }
      ],
      "name": "amountOfPendings",
      "outputs": [
        {
          "internalType": "uint256",
          "name": "amount",
          "type": "uint256"
        },
        {
          "internalType": "uint32",
          "name": "startIndex",
          "type": "uint32"
        },
        {
          "internalType": "uint32",
          "name": "len",
          "type": "uint32"
        },
        {
          "internalType": "uint32",
          "name": "nextWithdrawableBlockNumber",
          "type": "uint32"
        }
      ],
      "stateMutability": "view",
      "type": "function"
    },
    {
      "inputs": [
        {
          "internalType": "uint32",
          "name": "layerIndex",
          "type": "uint32"
        },
        {
          "internalType": "address",
          "name": "account",
          "type": "address"
        },
        {
          "internalType": "uint256",
          "name": "amount",
          "type": "uint256"
        }
      ],
      "name": "availableProvidingLiquidity",
      "outputs": [
        {
          "internalType": "bool",
          "name": "",
          "type": "bool"
        }
      ],
      "stateMutability": "view",
      "type": "function"
    },
    {
      "inputs": [
        {
          "internalType": "uint32",
          "name": "_index",
          "type": "uint32"
        },
        {
          "internalType": "address",
          "name": "account",
          "type": "address"
        }
      ],
      "name": "availableWithdraw",
      "outputs": [
        {
          "internalType": "uint256",
          "name": "amount",
          "type": "uint256"
        },
        {
          "internalType": "uint32",
          "name": "startIndex",
          "type": "uint32"
        },
        {
          "internalType": "uint32",
          "name": "len",
          "type": "uint32"
        }
      ],
      "stateMutability": "view",
      "type": "function"
    },
    {
      "inputs": [
        {
          "internalType": "uint32",
          "name": "_index",
          "type": "uint32"
        },
        {
          "internalType": "address",
          "name": "account",
          "type": "address"
        }
      ],
      "name": "balanceOf",
      "outputs": [
        {
          "internalType": "uint256",
          "name": "amount",
          "type": "uint256"
        }
      ],
      "stateMutability": "view",
      "type": "function"
    },
    {
      "inputs": [
        {
          "internalType": "uint32",
          "name": "_index",
          "type": "uint32"
        },
        {
          "internalType": "address",
          "name": "account",
          "type": "address"
        }
      ],
      "name": "balanceOfLton",
      "outputs": [
        {
          "internalType": "uint256",
          "name": "amount",
          "type": "uint256"
        }
      ],
      "stateMutability": "view",
      "type": "function"
    },
    {
      "inputs": [
        {
          "internalType": "uint32",
          "name": "_index",
          "type": "uint32"
        }
      ],
      "name": "balanceOfLton",
      "outputs": [
        {
          "internalType": "uint256",
          "name": "amount",
          "type": "uint256"
        }
      ],
      "stateMutability": "view",
      "type": "function"
    },
    {
      "inputs": [
        {
          "internalType": "uint32",
          "name": "_index",
          "type": "uint32"
        },
        {
          "internalType": "bytes",
          "name": "_layerInfo",
          "type": "bytes"
        }
      ],
      "name": "create",
      "outputs": [
        {
          "internalType": "bool",
          "name": "",
          "type": "bool"
        }
      ],
      "stateMutability": "nonpayable",
      "type": "function"
    },
    {
      "inputs": [
        {
          "internalType": "uint32",
          "name": "_index",
          "type": "uint32"
        }
      ],
      "name": "existedIndex",
      "outputs": [
        {
          "internalType": "bool",
          "name": "",
          "type": "bool"
        }
      ],
      "stateMutability": "view",
      "type": "function"
    },
    {
      "inputs": [
        {
          "internalType": "uint32",
          "name": "layerIndex",
          "type": "uint32"
        },
        {
          "internalType": "address",
          "name": "from",
          "type": "address"
        },
        {
          "internalType": "address",
          "name": "to",
          "type": "address"
        },
        {
          "internalType": "uint256",
          "name": "amount",
          "type": "uint256"
        }
      ],
      "name": "fastWithdrawClaim",
      "outputs": [
        {
          "internalType": "bool",
          "name": "",
          "type": "bool"
        }
      ],
      "stateMutability": "nonpayable",
      "type": "function"
    },
    {
      "inputs": [
        {
          "internalType": "uint32",
          "name": "layerIndex",
          "type": "uint32"
        },
        {
          "internalType": "address",
          "name": "staker",
          "type": "address"
        },
        {
          "internalType": "uint256",
          "name": "_amount",
          "type": "uint256"
        }
      ],
      "name": "fastWithdrawStake",
      "outputs": [
        {
          "internalType": "bool",
          "name": "",
          "type": "bool"
        }
      ],
      "stateMutability": "nonpayable",
      "type": "function"
    },
    {
      "inputs": [],
      "name": "fwReceipt",
      "outputs": [
        {
          "internalType": "address",
          "name": "",
          "type": "address"
        }
      ],
      "stateMutability": "view",
      "type": "function"
    },
    {
      "inputs": [
        {
          "internalType": "uint32",
          "name": "_index",
          "type": "uint32"
        }
      ],
      "name": "getLayerInfo",
      "outputs": [
        {
          "components": [
            {
              "internalType": "address",
              "name": "addressManager",
              "type": "address"
            },
            {
              "internalType": "address",
              "name": "l2ton",
              "type": "address"
            }
          ],
          "internalType": "struct LibOptimism.Info",
          "name": "_layerInfo",
          "type": "tuple"
        }
      ],
      "stateMutability": "view",
      "type": "function"
    },
    {
      "inputs": [
        {
          "internalType": "uint32",
          "name": "_index",
          "type": "uint32"
        }
      ],
      "name": "getLayerKey",
      "outputs": [
        {
          "internalType": "bytes32",
          "name": "layerKey_",
          "type": "bytes32"
        }
      ],
      "stateMutability": "view",
      "type": "function"
    },
    {
      "inputs": [
        {
          "internalType": "uint32",
          "name": "_index",
          "type": "uint32"
        },
        {
          "internalType": "address",
          "name": "account",
          "type": "address"
        }
      ],
      "name": "getLayerStakes",
      "outputs": [
        {
          "components": [
            {
              "internalType": "uint256",
              "name": "stakePrincipal",
              "type": "uint256"
            },
            {
              "internalType": "uint256",
              "name": "bondPrincipal",
              "type": "uint256"
            },
            {
              "internalType": "uint256",
              "name": "stakelton",
              "type": "uint256"
            },
            {
              "internalType": "uint256",
              "name": "bondlton",
              "type": "uint256"
            },
            {
              "internalType": "bool",
              "name": "stake",
              "type": "bool"
            },
            {
              "internalType": "uint16",
              "name": "fwFee",
              "type": "uint16"
            }
          ],
          "internalType": "struct LibStake.StakeInfo",
          "name": "info",
          "type": "tuple"
        }
      ],
      "stateMutability": "view",
      "type": "function"
    },
    {
      "inputs": [
        {
          "internalType": "uint32",
          "name": "_index",
          "type": "uint32"
        },
        {
          "internalType": "address",
          "name": "account",
          "type": "address"
        }
      ],
      "name": "getPendingUnstakedAmount",
      "outputs": [
        {
          "internalType": "uint256",
          "name": "",
          "type": "uint256"
        }
      ],
      "stateMutability": "view",
      "type": "function"
    },
    {
      "inputs": [
        {
          "internalType": "bytes32",
          "name": "role",
          "type": "bytes32"
        }
      ],
      "name": "getRoleAdmin",
      "outputs": [
        {
          "internalType": "bytes32",
          "name": "",
          "type": "bytes32"
        }
      ],
      "stateMutability": "view",
      "type": "function"
    },
    {
      "inputs": [],
      "name": "getStakeAccountList",
      "outputs": [
        {
          "internalType": "address[]",
          "name": "",
          "type": "address[]"
        }
      ],
      "stateMutability": "view",
      "type": "function"
    },
    {
      "inputs": [],
      "name": "getTotalLton",
      "outputs": [
        {
          "internalType": "uint256",
          "name": "",
          "type": "uint256"
        }
      ],
      "stateMutability": "view",
      "type": "function"
    },
    {
      "inputs": [
        {
          "internalType": "uint32",
          "name": "_index",
          "type": "uint32"
        }
      ],
      "name": "getTvl",
      "outputs": [
        {
          "internalType": "uint256",
          "name": "amount",
          "type": "uint256"
        }
      ],
      "stateMutability": "view",
      "type": "function"
    },
    {
      "inputs": [
        {
          "internalType": "address",
          "name": "l1Bridge",
          "type": "address"
        },
        {
          "internalType": "address",
          "name": "l2ton",
          "type": "address"
        }
      ],
      "name": "getTvl",
      "outputs": [
        {
          "internalType": "uint256",
          "name": "amount",
          "type": "uint256"
        }
      ],
      "stateMutability": "view",
      "type": "function"
    },
    {
      "inputs": [
        {
          "internalType": "bytes32",
          "name": "role",
          "type": "bytes32"
        },
        {
          "internalType": "address",
          "name": "account",
          "type": "address"
        }
      ],
      "name": "grantRole",
      "outputs": [],
      "stateMutability": "nonpayable",
      "type": "function"
    },
    {
      "inputs": [
        {
          "internalType": "bytes32",
          "name": "role",
          "type": "bytes32"
        },
        {
          "internalType": "address",
          "name": "account",
          "type": "address"
        }
      ],
      "name": "hasRole",
      "outputs": [
        {
          "internalType": "bool",
          "name": "",
          "type": "bool"
        }
      ],
      "stateMutability": "view",
      "type": "function"
    },
    {
      "inputs": [
        {
          "internalType": "address",
          "name": "account",
          "type": "address"
        }
      ],
      "name": "isAdmin",
      "outputs": [
        {
          "internalType": "bool",
          "name": "",
          "type": "bool"
        }
      ],
      "stateMutability": "view",
      "type": "function"
    },
    {
      "inputs": [
        {
          "internalType": "uint32",
          "name": "_index",
          "type": "uint32"
        }
      ],
      "name": "layer2Deposits",
      "outputs": [
        {
          "internalType": "uint256",
          "name": "amount",
          "type": "uint256"
        }
      ],
      "stateMutability": "view",
      "type": "function"
    },
    {
      "inputs": [],
      "name": "layer2Manager",
      "outputs": [
        {
          "internalType": "address",
          "name": "",
          "type": "address"
        }
      ],
      "stateMutability": "view",
      "type": "function"
    },
    {
      "inputs": [
        {
          "internalType": "uint32",
          "name": "",
          "type": "uint32"
        }
      ],
      "name": "layerInfo",
      "outputs": [
        {
          "internalType": "bytes",
          "name": "",
          "type": "bytes"
        }
      ],
      "stateMutability": "view",
      "type": "function"
    },
    {
      "inputs": [
        {
          "internalType": "uint32",
          "name": "",
          "type": "uint32"
        }
      ],
      "name": "layerStakedLton",
      "outputs": [
        {
          "internalType": "uint256",
          "name": "",
          "type": "uint256"
        }
      ],
      "stateMutability": "view",
      "type": "function"
    },
    {
      "inputs": [
        {
          "internalType": "uint32",
          "name": "",
          "type": "uint32"
        },
        {
          "internalType": "address",
          "name": "",
          "type": "address"
        }
      ],
      "name": "layerStakes",
      "outputs": [
        {
          "internalType": "uint256",
          "name": "stakePrincipal",
          "type": "uint256"
        },
        {
          "internalType": "uint256",
          "name": "bondPrincipal",
          "type": "uint256"
        },
        {
          "internalType": "uint256",
          "name": "stakelton",
          "type": "uint256"
        },
        {
          "internalType": "uint256",
          "name": "bondlton",
          "type": "uint256"
        },
        {
          "internalType": "bool",
          "name": "stake",
          "type": "bool"
        },
        {
          "internalType": "uint16",
          "name": "fwFee",
          "type": "uint16"
        }
      ],
      "stateMutability": "view",
      "type": "function"
    },
    {
      "inputs": [
        {
          "internalType": "uint32",
          "name": "layerIndex",
          "type": "uint32"
        },
        {
          "internalType": "address",
          "name": "account",
          "type": "address"
        }
      ],
      "name": "numberOfPendings",
      "outputs": [
        {
          "internalType": "uint256",
          "name": "totalRequests",
          "type": "uint256"
        },
        {
          "internalType": "uint256",
          "name": "withdrawIndex",
          "type": "uint256"
        },
        {
          "internalType": "uint256",
          "name": "pendingLength",
          "type": "uint256"
        }
      ],
      "stateMutability": "view",
      "type": "function"
    },
    {
      "inputs": [
        {
          "internalType": "address",
          "name": "sender",
          "type": "address"
        },
        {
          "internalType": "address",
          "name": "spender",
          "type": "address"
        },
        {
          "internalType": "uint256",
          "name": "amount",
          "type": "uint256"
        },
        {
          "internalType": "bytes",
          "name": "data",
          "type": "bytes"
        }
      ],
      "name": "onApprove",
      "outputs": [
        {
          "internalType": "bool",
          "name": "",
          "type": "bool"
        }
      ],
      "stateMutability": "nonpayable",
      "type": "function"
    },
    {
      "inputs": [],
      "name": "pauseProxy",
      "outputs": [
        {
          "internalType": "bool",
          "name": "",
          "type": "bool"
        }
      ],
      "stateMutability": "view",
      "type": "function"
    },
    {
      "inputs": [
        {
          "internalType": "uint32",
          "name": "",
          "type": "uint32"
        },
        {
          "internalType": "address",
          "name": "",
          "type": "address"
        }
      ],
      "name": "pendingUnstaked",
      "outputs": [
        {
          "internalType": "uint256",
          "name": "",
          "type": "uint256"
        }
      ],
      "stateMutability": "view",
      "type": "function"
    },
    {
      "inputs": [
        {
          "internalType": "address",
          "name": "",
          "type": "address"
        }
      ],
      "name": "pendingUnstakedAccount",
      "outputs": [
        {
          "internalType": "uint256",
          "name": "",
          "type": "uint256"
        }
      ],
      "stateMutability": "view",
      "type": "function"
    },
    {
      "inputs": [
        {
          "internalType": "uint32",
          "name": "",
          "type": "uint32"
        }
      ],
      "name": "pendingUnstakedLayer2",
      "outputs": [
        {
          "internalType": "uint256",
          "name": "",
          "type": "uint256"
        }
      ],
      "stateMutability": "view",
      "type": "function"
    },
    {
      "inputs": [
        {
          "internalType": "uint256",
          "name": "",
          "type": "uint256"
        }
      ],
      "name": "proxyImplementation",
      "outputs": [
        {
          "internalType": "address",
          "name": "",
          "type": "address"
        }
      ],
      "stateMutability": "view",
      "type": "function"
    },
    {
      "inputs": [
        {
          "internalType": "address",
          "name": "account",
          "type": "address"
        }
      ],
      "name": "removeAdmin",
      "outputs": [],
      "stateMutability": "nonpayable",
      "type": "function"
    },
    {
      "inputs": [
        {
          "internalType": "bytes32",
          "name": "role",
          "type": "bytes32"
        },
        {
          "internalType": "address",
          "name": "account",
          "type": "address"
        }
      ],
      "name": "renounceRole",
      "outputs": [],
      "stateMutability": "nonpayable",
      "type": "function"
    },
    {
      "inputs": [
        {
          "internalType": "uint32",
          "name": "_index",
          "type": "uint32"
        }
      ],
      "name": "restake",
      "outputs": [],
      "stateMutability": "nonpayable",
      "type": "function"
    },
    {
      "inputs": [
        {
          "internalType": "uint32",
          "name": "_index",
          "type": "uint32"
        },
        {
          "internalType": "uint256",
          "name": "n",
          "type": "uint256"
        }
      ],
      "name": "restakeMulti",
      "outputs": [],
      "stateMutability": "nonpayable",
      "type": "function"
    },
    {
      "inputs": [
        {
          "internalType": "bytes32",
          "name": "role",
          "type": "bytes32"
        },
        {
          "internalType": "address",
          "name": "account",
          "type": "address"
        }
      ],
      "name": "revokeRole",
      "outputs": [],
      "stateMutability": "nonpayable",
      "type": "function"
    },
    {
      "inputs": [],
      "name": "seigManagerV2",
      "outputs": [
        {
          "internalType": "address",
          "name": "",
          "type": "address"
        }
      ],
      "stateMutability": "view",
      "type": "function"
    },
    {
      "inputs": [
        {
          "internalType": "bytes4",
          "name": "",
          "type": "bytes4"
        }
      ],
      "name": "selectorImplementation",
      "outputs": [
        {
          "internalType": "address",
          "name": "",
          "type": "address"
        }
      ],
      "stateMutability": "view",
      "type": "function"
    },
    {
      "inputs": [
        {
          "internalType": "address",
          "name": "addressManager",
          "type": "address"
        }
      ],
      "name": "sequencer",
      "outputs": [
        {
          "internalType": "address",
          "name": "sequencer_",
          "type": "address"
        }
      ],
      "stateMutability": "view",
      "type": "function"
    },
    {
      "inputs": [
        {
          "internalType": "uint32",
          "name": "_index",
          "type": "uint32"
        }
      ],
      "name": "sequencer",
      "outputs": [
        {
          "internalType": "address",
          "name": "sequencer_",
          "type": "address"
        }
      ],
      "stateMutability": "view",
      "type": "function"
    },
    {
      "inputs": [
        {
          "internalType": "uint32",
          "name": "_index",
          "type": "uint32"
        },
        {
          "internalType": "uint256",
          "name": "amount",
          "type": "uint256"
        }
      ],
      "name": "stake",
      "outputs": [],
      "stateMutability": "nonpayable",
      "type": "function"
    },
    {
      "inputs": [
        {
          "internalType": "uint256",
          "name": "",
          "type": "uint256"
        }
      ],
      "name": "stakeAccountList",
      "outputs": [
        {
          "internalType": "address",
          "name": "",
          "type": "address"
        }
      ],
      "stateMutability": "view",
      "type": "function"
    },
    {
      "inputs": [
        {
          "internalType": "bytes4",
          "name": "interfaceId",
          "type": "bytes4"
        }
      ],
      "name": "supportsInterface",
      "outputs": [
        {
          "internalType": "bool",
          "name": "",
          "type": "bool"
        }
      ],
      "stateMutability": "view",
      "type": "function"
    },
    {
      "inputs": [],
      "name": "ton",
      "outputs": [
        {
          "internalType": "address",
          "name": "",
          "type": "address"
        }
      ],
      "stateMutability": "view",
      "type": "function"
    },
    {
      "inputs": [],
      "name": "totalLayer2Deposits",
      "outputs": [
        {
          "internalType": "uint256",
          "name": "amount",
          "type": "uint256"
        }
      ],
      "stateMutability": "view",
      "type": "function"
    },
    {
      "inputs": [],
      "name": "totalStakeAccountList",
      "outputs": [
        {
          "internalType": "uint256",
          "name": "",
          "type": "uint256"
        }
      ],
      "stateMutability": "view",
      "type": "function"
    },
    {
      "inputs": [],
      "name": "totalStakedLton",
      "outputs": [
        {
          "internalType": "uint256",
          "name": "",
          "type": "uint256"
        }
      ],
      "stateMutability": "view",
      "type": "function"
    },
    {
      "inputs": [
        {
          "internalType": "address",
          "name": "newAdmin",
          "type": "address"
        }
      ],
      "name": "transferAdmin",
      "outputs": [],
      "stateMutability": "nonpayable",
      "type": "function"
    },
    {
      "inputs": [
        {
          "internalType": "uint32",
          "name": "_index",
          "type": "uint32"
        },
        {
          "internalType": "uint256",
          "name": "lton_",
          "type": "uint256"
        }
      ],
      "name": "unstake",
      "outputs": [],
      "stateMutability": "nonpayable",
      "type": "function"
    },
    {
      "inputs": [
        {
          "internalType": "uint32",
          "name": "_index",
          "type": "uint32"
        }
      ],
      "name": "withdraw",
      "outputs": [],
      "stateMutability": "nonpayable",
      "type": "function"
    },
    {
      "inputs": [
        {
          "internalType": "uint32",
          "name": "",
          "type": "uint32"
        },
        {
          "internalType": "address",
          "name": "",
          "type": "address"
        }
      ],
      "name": "withdrawalRequestIndex",
      "outputs": [
        {
          "internalType": "uint256",
          "name": "",
          "type": "uint256"
        }
      ],
      "stateMutability": "view",
      "type": "function"
    },
    {
      "inputs": [
        {
          "internalType": "uint32",
          "name": "",
          "type": "uint32"
        },
        {
          "internalType": "address",
          "name": "",
          "type": "address"
        },
        {
          "internalType": "uint256",
          "name": "",
          "type": "uint256"
        }
      ],
      "name": "withdrawalRequests",
      "outputs": [
        {
          "internalType": "uint32",
          "name": "withdrawableBlockNumber",
          "type": "uint32"
        },
        {
          "internalType": "uint128",
          "name": "amount",
          "type": "uint128"
        },
        {
          "internalType": "bool",
          "name": "processed",
          "type": "bool"
        }
      ],
      "stateMutability": "view",
      "type": "function"
    }
  ],
  "bytecode": "0x60806040526006805460ff1916600117905534801561001d57600080fd5b506147798061002d6000396000f3fe608060405234801561001057600080fd5b50600436106103d05760003560e01c806375b238fc116101ff578063a217fddf1161011a578063b969fbef116100ad578063d547741f1161007c578063d547741f14610b86578063df2b429014610b99578063ec110d4514610bac578063edcc217714610bbf57600080fd5b8063b969fbef14610b33578063b9cab97114610b3b578063cc48b94714610b5b578063d07918f114610b7357600080fd5b8063aa9224cd116100e9578063aa9224cd14610ac1578063b413b37a14610ad4578063b6a2f99d14610adc578063b911135f14610b0a57600080fd5b8063a217fddf14610a80578063a2dc9e0214610a88578063a4c735ef14610a9b578063a8a8d9e814610aae57600080fd5b80638d1f3d0a1161019257806394c89b2c1161016157806394c89b2c146109b15780639c2f614f146109c45780639c656e26146109d7578063a0b2a91314610a6057600080fd5b80638d1f3d0a146109165780638d99e1ca146109295780638ddd87fe1461093c57806391d148541461097a57600080fd5b80637ec6840f116101ce5780637ec6840f1461086e5780638afec9fc146108815780638c6f1b39146108a75780638c71762d146108e157600080fd5b806375b238fc146107f65780637c3568161461081d5780637cf1587c146108305780637d211a1c1461085b57600080fd5b80634e1a264d116102ef57806363a8fd891161028257806370619cf91161025157806370619cf91461079d57806373469a7a146107bd578063744a3561146107d057806375829def146107e357600080fd5b806363a8fd891461071e578063659ab8201461072b5780636d1ef1031461074b578063704802751461078a57600080fd5b80635e2cfe45116102be5780635e2cfe45146106435780635e8b22a71461066e5780635f1b989e1461068157806360254e331461070b57600080fd5b80634e1a264d146105db57806350d2a276146105e4578063550d01a31461060d5780635d0c7b2b1461063057600080fd5b8063248a9ca31161036757806341e5dbe81161033657806341e5dbe8146105985780634273ca16146105ab57806346bcdb49146105be5780634de131ca146105c657600080fd5b8063248a9ca31461053c57806324d7806c1461055f5780632f2ff15d1461057257806336568abe1461058557600080fd5b80631785f53c116103a35780631785f53c1461045e5780631ed94495146104715780631f760d01146104d6578063229852461461051557600080fd5b80630116cc65146103d557806301ffc9a7146103fb578063118e29d11461041e57806316b5d5bd14610433575b600080fd5b6103e86103e3366004613ede565b610bd2565b6040519081526020015b60405180910390f35b61040e610409366004613ef9565b610c03565b60405190151581526020016103f2565b61043161042c366004613ede565b610c3a565b005b600854610446906001600160a01b031681565b6040516001600160a01b0390911681526020016103f2565b61043161046c366004613f38565b610caf565b61048461047f366004613f55565b610d3c565b6040516103f29190600060c0820190508251825260208301516020830152604083015160408301526060830151606083015260808301511515608083015261ffff60a08401511660a083015292915050565b6104e96104e4366004613f55565b610dfa565b6040805194855263ffffffff9384166020860152918316918401919091521660608201526080016103f2565b6103e87ffb5864e8ff833c3cb2d2d08505e82ff02a43554c74a35d4f5a64e8526127831181565b6103e861054a366004613f8c565b60009081526020819052604090206001015490565b61040e61056d366004613f38565b610f38565b610431610580366004613fa5565b610f78565b610431610593366004613fa5565b610fa2565b6103e86105a6366004613ede565b61102a565b61040e6105b9366004613fca565b611103565b6012546103e8565b6105ce611267565b6040516103f29190614069565b6103e860095481565b6104466105f2366004613ef9565b6004602052600090815260409020546001600160a01b031681565b61040e61061b366004613f38565b60036020526000908152604090205460ff1681565b61044661063e366004613f38565b6112c9565b6103e8610651366004613f55565b600e60209081526000928352604080842090915290825290205481565b61040e61067c3660046140b6565b611390565b6103e861068f366004613f55565b63ffffffff9091166000908152600b602090815260408083206001600160a01b03909416835292815290829020825160c081018452815481526001820154928101929092526002810154928201839052600381015460608301526004015460ff81161515608083015261ffff6101009091041660a09091015290565b61040e6107193660046140b6565b6113ad565b60015461040e9060ff1681565b61073e610739366004613ede565b61156f565b6040516103f29190614145565b61075e6107593660046140b6565b611609565b6040805163ffffffff90941684526001600160801b0390921660208401521515908201526060016103f2565b610431610798366004613f38565b611668565b6103e86107ab366004613ede565b600a6020526000908152604090205481565b600754610446906001600160a01b031681565b6104316107de366004614158565b6116f2565b6104316107f1366004613f38565b61175d565b6103e87fdf8b4c520ffe197c5343c6f5aec59570151ef9a492f2c624fd45ddde6135ec4281565b61040e61082b366004614182565b6118bf565b6103e861083e366004613f55565b600d60209081526000928352604080842090915290825290205481565b61040e610869366004613ede565b611b00565b61043161087c366004614158565b611bbe565b6103e861088f366004613ede565b63ffffffff166000908152600a602052604090205490565b6108ba6108b5366004613ede565b611c17565b6040805182516001600160a01b0390811682526020938401511692810192909252016103f2565b6108f46108ef366004613f55565b611cb3565b6040805193845263ffffffff92831660208501529116908201526060016103f2565b610446610924366004613ede565b611df0565b6103e8610937366004613ede565b611eee565b6103e861094a366004613f55565b63ffffffff82166000908152600e602090815260408083206001600160a01b038516845290915290205492915050565b61040e610988366004613fa5565b6000918252602082815260408084206001600160a01b0393909316845291905290205460ff1690565b6103e86109bf366004613f55565b611f61565b6104316109d2366004614158565b612046565b610a2d6109e5366004613f55565b600b602090815260009283526040808420909152908252902080546001820154600283015460038401546004909401549293919290919060ff811690610100900461ffff1686565b6040805196875260208701959095529385019290925260608401521515608083015261ffff1660a082015260c0016103f2565b6103e8610a6e366004613f38565b60106020526000908152604090205481565b6103e8600081565b610446610a96366004613f38565b61210b565b610446610aa9366004613f38565b612168565b610446610abc366004613ede565b6121c5565b610431610acf366004613ede565b612247565b6009546103e8565b610aef610aea366004613f55565b61265c565b604080519384526020840192909252908201526060016103f2565b610446610b18366004613f8c565b6002602052600090815260409020546001600160a01b031681565b6103e86126b7565b6103e8610b49366004613ede565b600f6020526000908152604090205481565b6006546104469061010090046001600160a01b031681565b601354610446906001600160a01b031681565b610431610b94366004613fa5565b61272a565b61040e610ba7366004614218565b61274f565b610446610bba366004613f8c565b612895565b6103e8610bcd3660046142be565b6128bf565b63ffffffff81166000908152601160205260408082209051610bf49190614310565b60405180910390209050919050565b60006001600160e01b03198216637965db0b60e01b1480610c3457506301ffc9a760e01b6001600160e01b03198316145b92915050565b63ffffffff81166000908152600d602090815260408083203380855292529091205490610c6b908390836001612972565b610cab5760405162461bcd60e51b815260206004820152600c60248201526b534c5f455f52455354414b4560a01b60448201526064015b60405180910390fd5b5050565b610cb833610f38565b610d0f5760405162461bcd60e51b815260206004820152602260248201527f41636365737369626c653a2043616c6c6572206973206e6f7420616e2061646d60448201526134b760f11b6064820152608401610ca2565b610d397fdf8b4c520ffe197c5343c6f5aec59570151ef9a492f2c624fd45ddde6135ec4282610fa2565b50565b610d7b6040518060c0016040528060008152602001600081526020016000815260200160008152602001600015158152602001600061ffff1681525090565b5063ffffffff9091166000908152600b602090815260408083206001600160a01b03909416835292815290829020825160c081018452815481526001820154928101929092526002810154928201929092526003820154606082015260049091015460ff81161515608083015261ffff6101009091041660a082015290565b63ffffffff8083166000818152600c602090815260408083206001600160a01b03871680855290835281842054948452600d835281842090845290915281205490929091839182919084165b81811015610f2d5763ffffffff88166000908152600c602090815260408083206001600160a01b038b1684529091528120805483908110610e8957610e89614386565b6000918252602080832060408051606081018252939091015463ffffffff8116845264010000000081046001600160801b031692840192909252600160a01b90910460ff1615159082018190529092509003610f1a578363ffffffff16600003610ef257805193505b6020810151610f0a906001600160801b0316886143b2565b9650610f176001866143c5565b94505b5080610f25816143e9565b915050610e46565b505092959194509250565b6001600160a01b03811660009081527f5cbfc8ee58ca47855df7bcf648dd304ddb6b932f9b87878bdf6318d7ec7ee5b7602052604081205460ff16610c34565b600082815260208190526040902060010154610f9381612e1f565b610f9d8383612e29565b505050565b6001600160a01b03811633146110205760405162461bcd60e51b815260206004820152602f60248201527f416363657373436f6e74726f6c3a2063616e206f6e6c792072656e6f756e636560448201527f20726f6c657320666f722073656c6600000000000000000000000000000000006064820152608401610ca2565b610cab8282612ec7565b60008061103683611c17565b9050611045816000015161210b565b60065460208301516040516347b00fb360e11b81526001600160a01b03610100909304831660048201529082166024820152911690638f601f6690604401602060405180830381865afa9250505080156110bc575060408051601f3d908101601f191682019092526110b991810190614402565b60015b6110fa573d8080156110ea576040519150601f19603f3d011682016040523d82523d6000602084013e6110ef565b606091505b5060009250506110fd565b91505b50919050565b60065460009061010090046001600160a01b0316331461114a5760405162461bcd60e51b8152602060048201526002602482015261454160f01b6044820152606401610ca2565b61119a611191600085858080601f0160208091040260200160405190810160405280939291908181526020018383808284376000920191909152509293925050612f469050565b61ffff16611b00565b6111dd5760405162461bcd60e51b81526020600482015260146024820152733737b716b932b3b4b9ba32b932b2103630bcb2b960611b6044820152606401610ca2565b6000611223600085858080601f0160208091040260200160405190810160405280939291908181526020018383808284376000920191909152509293925050612f469050565b61ffff169050841561124c5760065461124c9061010090046001600160a01b0316883088613006565b61125a81888760008061312a565b5060019695505050505050565b606060128054806020026020016040519081016040528092919081815260200182805480156112bf57602002820191906000526020600020905b81546001600160a01b031681526001909101906020018083116112a1575b5050505050905090565b60405163bf40fac160e01b815260206004820152600d60248201526c27ab26afa9b2b8bab2b731b2b960991b60448201526000906001600160a01b0383169063bf40fac1906064015b602060405180830381865afa92505050801561134b575060408051601f3d908101601f191682019092526113489181019061441b565b60015b611388573d808015611379576040519150601f19603f3d011682016040523d82523d6000602084013e61137e565b606091505b5060009392505050565b90505b919050565b60008161139d8585611f61565b106113a6575060015b9392505050565b6013546000906001600160a01b031633146113fa5760405162461bcd60e51b815260206004820152600d60248201526c232bafa1a0a62622a92fa2a92960991b6044820152606401610ca2565b600754604051636a2fb1f560e01b8152600481018490526000916001600160a01b031690636a2fb1f590602401602060405180830381865afa158015611444573d6000803e3d6000fd5b505050506040513d601f19601f820116820180604052508101906114689190614402565b63ffffffff86166000908152600a60205260408120805492935083929091906114929084906143b2565b9250508190555080600960008282546114ab91906143b2565b909155505063ffffffff85166000908152600b602090815260408083206001600160a01b038816845290915281208054909185918391906114ed9084906143b2565b925050819055508181600201600082825461150891906143b2565b90915550506040805163ffffffff881681526001600160a01b0387166020820152908101859052606081018390527fd5f2b548f2958cb2c0fb52f3e60e93ae5d5bece5191c580d1912068409ab92479060800160405180910390a150600195945050505050565b60116020526000908152604090208054611588906142dc565b80601f01602080910402602001604051908101604052809291908181526020018280546115b4906142dc565b80156116015780601f106115d657610100808354040283529160200191611601565b820191906000526020600020905b8154815290600101906020018083116115e457829003601f168201915b505050505081565b600c602052826000526040600020602052816000526040600020818154811061163157600080fd5b60009182526020909120015463ffffffff8116935064010000000081046001600160801b03169250600160a01b900460ff16905083565b61167133610f38565b6116c85760405162461bcd60e51b815260206004820152602260248201527f41636365737369626c653a2043616c6c6572206973206e6f7420616e2061646d60448201526134b760f11b6064820152608401610ca2565b610d397fdf8b4c520ffe197c5343c6f5aec59570151ef9a492f2c624fd45ddde6135ec4282610f78565b63ffffffff82166000908152600d6020908152604080832033808552925290912054906117229084908385612972565b610f9d5760405162461bcd60e51b815260206004820152600c60248201526b534c5f455f52455354414b4560a01b6044820152606401610ca2565b61176633610f38565b6117bd5760405162461bcd60e51b815260206004820152602260248201527f41636365737369626c653a2043616c6c6572206973206e6f7420616e2061646d60448201526134b760f11b6064820152608401610ca2565b6001600160a01b0381166118135760405162461bcd60e51b815260206004820152601860248201527f41636365737369626c653a207a65726f206164647265737300000000000000006044820152606401610ca2565b6001600160a01b038116330361186b5760405162461bcd60e51b815260206004820152601660248201527f41636365737369626c653a2073616d652061646d696e000000000000000000006044820152606401610ca2565b6118957fdf8b4c520ffe197c5343c6f5aec59570151ef9a492f2c624fd45ddde6135ec4282610f78565b610d397fdf8b4c520ffe197c5343c6f5aec59570151ef9a492f2c624fd45ddde6135ec4233610fa2565b6013546000906001600160a01b0316331461190c5760405162461bcd60e51b815260206004820152600d60248201526c232bafa1a0a62622a92fa2a92960991b6044820152606401610ca2565b816119178686611f61565b10156119655760405162461bcd60e51b815260206004820152601960248201527f6c697175696469747920697320696e73756666696369656e74000000000000006044820152606401610ca2565b6006546040516370a0823160e01b815230600482015260009161010090046001600160a01b0316906370a0823190602401602060405180830381865afa1580156119b3573d6000803e3d6000fd5b505050506040513d601f19601f820116820180604052508101906119d79190614402565b905082811015611a82578015611a0357600654611a039061010090046001600160a01b0316858361351e565b6007546001600160a01b031663aad3ec9685611a1f8487614438565b6040516001600160e01b031960e085901b1681526001600160a01b0390921660048301526024820152604401600060405180830381600087803b158015611a6557600080fd5b505af1158015611a79573d6000803e3d6000fd5b50505050611a9e565b600654611a9e9061010090046001600160a01b0316858561351e565b6040805163ffffffff881681526001600160a01b0387811660208301528616818301526060810185905290517f685b62f7feb8c67fc9db571242c8cf6a7ebe077ae5ad42abe57c693d6965792e9181900360800190a150600195945050505050565b60085460405163370f791d60e11b815263ffffffff831660048201526000916001600160a01b031690636e1ef23a90602401602060405180830381865afa158015611b4f573d6000803e3d6000fd5b505050506040513d601f19601f82011682018060405250810190611b73919061444b565b611bb65760405162461bcd60e51b81526020600482015260146024820152733737b716b932b3b4b9ba32b932b2103630bcb2b960611b6044820152606401610ca2565b506001919050565b611bc782611b00565b611c0a5760405162461bcd60e51b81526020600482015260146024820152733737b716b932b3b4b9ba32b932b2103630bcb2b960611b6044820152606401610ca2565b610cab8282600080613639565b6040805180820182526000808252602080830182905263ffffffff8516825260119052829020915163186ca86f60e21b8152909173__$35081dc60fc26376aafbbba403b8b17c43$__916361b2a1bc91611c739160040161446d565b6040805180830381865af4158015611c8f573d6000803e3d6000fd5b505050506040513d601f19601f82011682018060405250810190610c3491906144f8565b63ffffffff8083166000818152600c602090815260408083206001600160a01b03871680855290835281842054948452600d835281842090845290915281205490929091839183165b81811015611de75763ffffffff87166000908152600c602090815260408083206001600160a01b038a1684529091528120805483908110611d3f57611d3f614386565b600091825260209182902060408051606081018252929091015463ffffffff811680845264010000000082046001600160801b031694840194909452600160a01b900460ff16151590820152915043118015611d9d57506040810151155b15611dce576020810151611dba906001600160801b0316876143b2565b9550611dc76001856143c5565b9350611dd4565b50611de7565b5080611ddf816143e9565b915050611cfc565b50509250925092565b63ffffffff811660009081526011602052604081208054611ea2918391611e16906142dc565b80601f0160208091040260200160405190810160405280929190818152602001828054611e42906142dc565b8015611e8f5780601f10611e6457610100808354040283529160200191611e8f565b820191906000526020600020905b815481529060010190602001808311611e7257829003601f168201915b505050505061366990919063ffffffff16565b60405163bf40fac160e01b815260206004820152600d60248201526c27ab26afa9b2b8bab2b731b2b960991b60448201526001600160a01b03919091169063bf40fac190606401611312565b6008546040516346ccf0e560e11b815263ffffffff831660048201526000916001600160a01b031690638d99e1ca90602401602060405180830381865afa158015611f3d573d6000803e3d6000fd5b505050506040513d601f19601f82011682018060405250810190610c349190614402565b60075463ffffffff83166000908152600b602090815260408083206001600160a01b038681168552908352818420825160c081018452815481526001820154948101949094526002810154928401839052600381015460608501526004015460ff811615156080850152610100900461ffff1660a0909301929092529192169063cdf68009906040518263ffffffff1660e01b815260040161200591815260200190565b602060405180830381865afa158015612022573d6000803e3d6000fd5b505050506040513d601f19601f820116820180604052508101906113a69190614402565b60135460405163bc5060d160e01b815233600482015263ffffffff841660248201526000916001600160a01b03169063bc5060d190604401602060405180830381865afa15801561209b573d6000803e3d6000fd5b505050506040513d601f19601f820116820180604052508101906120bf9190614402565b90506121006040518060400160405280601681526020017f64656274466f724661737457697468647261772025730000000000000000000081525082613739565b610f9d83838361377e565b60405163bf40fac160e01b815260206004820152601b60248201527f50726f78795f5f4f564d5f4c315374616e64617264427269646765000000000060448201526000906001600160a01b0383169063bf40fac190606401611312565b60405163bf40fac160e01b815260206004820152601a60248201527f4f564d5f4c3143726f7373446f6d61696e4d657373656e67657200000000000060448201526000906001600160a01b0383169063bf40fac190606401611312565b63ffffffff8116600090815260116020526040812080546121eb918391611e16906142dc565b60405163bf40fac160e01b815260206004820152601b60248201527f50726f78795f5f4f564d5f4c315374616e64617264427269646765000000000060448201526001600160a01b03919091169063bf40fac190606401611312565b60065460ff166122825760405162461bcd60e51b8152600401610ca2906020808252600490820152636c6f636b60e01b604082015260600190565b6006805460ff1916905563ffffffff81166000818152600c602090815260408083203380855290835281842054948452600d83528184208185529092528220549092919081905b8381101561239b5763ffffffff86166000908152600c602090815260408083206001600160a01b0389168452909152812080548390811061230c5761230c614386565b600091825260209091200180549091504363ffffffff90911610801561233b57508054600160a01b900460ff16155b1561238257805460ff60a01b1916600160a01b1780825561236e906001600160801b0364010000000090910416846143b2565b92508361237a816143e9565b945050612388565b5061239b565b5080612393816143e9565b9150506122c9565b50600081116123ec5760405162461bcd60e51b815260206004820181905260248201527f7a65726f20617661696c61626c65207769746864726177616c20616d6f756e746044820152606401610ca2565b63ffffffff85166000908152600d602090815260408083206001600160a01b0388168452909152812080548492906124259084906143b2565b909155505063ffffffff85166000908152600e602090815260408083206001600160a01b038816845290915281208054839290612463908490614438565b909155505063ffffffff85166000908152600f60205260408120805483929061248d908490614438565b90915550506001600160a01b038416600090815260106020526040812080548392906124ba908490614438565b90915550506006546040516370a0823160e01b815230600482015260009161010090046001600160a01b0316906370a0823190602401602060405180830381865afa15801561250d573d6000803e3d6000fd5b505050506040513d601f19601f820116820180604052508101906125319190614402565b9050818110156125dc57801561255d5760065461255d9061010090046001600160a01b0316868361351e565b6007546001600160a01b031663aad3ec96866125798486614438565b6040516001600160e01b031960e085901b1681526001600160a01b0390921660048301526024820152604401600060405180830381600087803b1580156125bf57600080fd5b505af11580156125d3573d6000803e3d6000fd5b505050506125f8565b6006546125f89061010090046001600160a01b0316868461351e565b6040805163ffffffff881681526001600160a01b03871660208201529081018390527f2d6eb139d2002caa088da5527d9d62f2f23bdf4504f5559a112535c436c6ee599060600160405180910390a150506006805460ff1916600117905550505050565b63ffffffff82166000818152600c602090815260408083206001600160a01b03861680855290835281842054948452600d8352818420908452909152812054908183106126b0576126ad8284614438565b90505b9250925092565b6008546040805163b969fbef60e01b815290516000926001600160a01b03169163b969fbef9160048083019260209291908290030181865afa158015612701573d6000803e3d6000fd5b505050506040513d601f19601f820116820180604052508101906127259190614402565b905090565b60008281526020819052604090206001015461274581612e1f565b610f9d8383612ec7565b6008546000906001600160a01b031633146127ac5760405162461bcd60e51b815260206004820152601160248201527f6e6f74204c61796572324d616e616765720000000000000000000000000000006044820152606401610ca2565b81516028146127fd5760405162461bcd60e51b815260206004820152600f60248201527f77726f6e67206c61796572496e666f00000000000000000000000000000000006044820152606401610ca2565b63ffffffff83166000908152601160205260409020805461281d906142dc565b15905061286c5760405162461bcd60e51b815260206004820152600f60248201527f616c7265616479206372656174656400000000000000000000000000000000006044820152606401610ca2565b63ffffffff8316600090815260116020526040902061288b838261459d565b5060019392505050565b601281815481106128a557600080fd5b6000918252602090912001546001600160a01b0316905081565b6006546040516347b00fb360e11b81526001600160a01b03610100909204821660048201528282166024820152600091841690638f601f6690604401602060405180830381865afa925050508015612934575060408051601f3d908101601f1916820190925261293191810190614402565b60015b6113a6573d808015612962576040519150601f19603f3d011682016040523d82523d6000602084013e612967565b606091505b506000915050610c34565b60065460009060ff166129b05760405162461bcd60e51b8152600401610ca2906020808252600490820152636c6f636b60e01b604082015260600190565b6006805460ff1916905563ffffffff85166000908152600c602090815260408083206001600160a01b038816845290915281205480612a1e5760405162461bcd60e51b815260206004820152600a6024820152696e6f20756e7374616b6560b01b6044820152606401610ca2565b83612a298683614438565b1015612a775760405162461bcd60e51b815260206004820152601860248201527f6e2065786365656473206e756d206f662070656e64696e6700000000000000006044820152606401610ca2565b6000612a8385876143b2565b90505b80861015612b795763ffffffff88166000908152600c602090815260408083206001600160a01b038b1684529091528120805488908110612ac957612ac9614386565b6000918252602090912001805490915064010000000081046001600160801b031690600160a01b900460ff1615612b425760405162461bcd60e51b815260206004820152601260248201527f616c7265616479207769746864726177616c00000000000000000000000000006044820152606401610ca2565b8015612b5557612b5281866143b2565b94505b50805460ff60a01b1916600160a01b17905585612b71816143e9565b965050612a86565b60008311612bc95760405162461bcd60e51b815260206004820152601760248201527f6e6f2076616c69642072657374616b6520616d6f756e740000000000000000006044820152606401610ca2565b600754604051636a2fb1f560e01b8152600481018590526000916001600160a01b031690636a2fb1f590602401602060405180830381865afa158015612c13573d6000803e3d6000fd5b505050506040513d601f19601f82011682018060405250810190612c379190614402565b63ffffffff8a166000908152600b602090815260408083206001600160a01b038d168452909152812080549293509186918391612c759084906143b2565b9250508190555081816002016000828254612c9091906143b2565b909155505063ffffffff8a166000908152600a602052604081208054849290612cba9084906143b2565b925050819055508160096000828254612cd391906143b2565b909155505063ffffffff8a166000908152600e602090815260408083206001600160a01b038d16845290915281208054879290612d11908490614438565b909155505063ffffffff8a166000908152600f602052604081208054879290612d3b908490614438565b90915550506001600160a01b03891660009081526010602052604081208054879290612d68908490614438565b909155505063ffffffff8a166000908152600d602090815260408083206001600160a01b038d16845290915281208054899290612da69084906143b2565b90915550506040805163ffffffff8c1681526001600160a01b038b166020820152908101869052606081018390527f34981dc0486069d2abbaddbc42e10b97cb24e4bce60ee4457e1d5062dfc0b4299060800160405180910390a16001955050505050506006805460ff19166001179055949350505050565b610d398133613c7b565b6000828152602081815260408083206001600160a01b038516845290915290205460ff16610cab576000828152602081815260408083206001600160a01b03851684529091529020805460ff19166001179055612e833390565b6001600160a01b0316816001600160a01b0316837f2f8788117e7eff1d82e926ec794901d17c78024a50270940304540a733656f0d60405160405180910390a45050565b6000828152602081815260408083206001600160a01b038516845290915290205460ff1615610cab576000828152602081815260408083206001600160a01b0385168085529252808320805460ff1916905551339285917ff6391f5c32d9c69d2a47ea670b442974b53935d1edc7fd64eb21e047a839171b9190a45050565b600081612f548160046143b2565b1015612fa25760405162461bcd60e51b815260206004820152601160248201527f746f55696e7431365f6f766572666c6f770000000000000000000000000000006044820152606401610ca2565b612fad8260046143b2565b83511015612ffd5760405162461bcd60e51b815260206004820152601460248201527f746f55696e7431365f6f75744f66426f756e64730000000000000000000000006044820152606401610ca2565b50016004015190565b604080516001600160a01b0385811660248301528481166044830152606480830185905283518084039091018152608490920183526020820180516001600160e01b03166323b872dd60e01b179052915160009283929088169161306a919061465d565b6000604051808303816000865af19150503d80600081146130a7576040519150601f19603f3d011682016040523d82523d6000602084013e6130ac565b606091505b50915091508180156130d65750805115806130d65750808060200190518101906130d6919061444b565b6131225760405162461bcd60e51b815260206004820152601460248201527f5452414e534645525f46524f4d5f4641494c45440000000000000000000000006044820152606401610ca2565b505050505050565b60065460ff166131655760405162461bcd60e51b8152600401610ca2906020808252600490820152636c6f636b60e01b604082015260600190565b6006805460ff191690558260008190036131a65760405162461bcd60e51b81526020600482015260026024820152615a3160f01b6044820152606401610ca2565b600754604051636a2fb1f560e01b8152600481018690526000916001600160a01b031690636a2fb1f590602401602060405180830381865afa1580156131f0573d6000803e3d6000fd5b505050506040513d601f19601f820116820180604052508101906132149190614402565b63ffffffff88166000908152600a602052604081208054929350839290919061323e9084906143b2565b92505081905550806009600082825461325791906143b2565b909155505063ffffffff87166000908152600b602090815260408083206001600160a01b038a1684529091529020600481015460ff166132f957600481018054600160ff1990911681179091556012805491820181556000527fbb8a6a4669ba250d26cd7a459eca9d215f8307e33aebe50379bc5a3617ec344401805473ffffffffffffffffffffffffffffffffffffffff19166001600160a01b0389161790555b600061ffff85161580159061331657506001600160a01b03861615155b801561332757506127108561ffff16105b1561346a5761271061333d61ffff871685614679565b6133479190614690565b90506133538184614438565b60075460405163cdf6800960e01b8152600481018390529194506000916001600160a01b039091169063cdf6800990602401602060405180830381865afa1580156133a2573d6000803e3d6000fd5b505050506040513d601f19601f820116820180604052508101906133c69190614402565b9050808360000160008282546133dc91906143b2565b92505081905550838360020160008282546133f791906143b2565b909155505063ffffffff8a166000908152600b602090815260408083206001600160a01b038b168452909152902061342f828a614438565b81600001600082825461344291906143b2565b925050819055508281600201600082825461345d91906143b2565b9091555061349f92505050565b8682600001600082825461347e91906143b2565b925050819055508282600201600082825461349991906143b2565b90915550505b6040805163ffffffff8b1681526001600160a01b038a811660208301528183018a9052606082018690528816608082015261ffff871660a082015290517f318dab784577ac2e7d86f88c3f2a80520b447b822b8a756158648e0f917d16a09181900360c00190a150506006805460ff1916600117905550505050505050565b604080516001600160a01b038481166024830152604480830185905283518084039091018152606490920183526020820180516001600160e01b031663a9059cbb60e01b179052915160009283929087169161357a919061465d565b6000604051808303816000865af19150503d80600081146135b7576040519150601f19603f3d011682016040523d82523d6000602084013e6135bc565b606091505b50915091508180156135e65750805115806135e65750808060200190518101906135e6919061444b565b6136325760405162461bcd60e51b815260206004820152600f60248201527f5452414e534645525f4641494c454400000000000000000000000000000000006044820152606401610ca2565b5050505050565b6006546136569061010090046001600160a01b0316333086613006565b613663843385858561312a565b50505050565b6000816136778160146143b2565b10156136c55760405162461bcd60e51b815260206004820152601260248201527f746f416464726573735f6f766572666c6f7700000000000000000000000000006044820152606401610ca2565b6136d08260146143b2565b835110156137205760405162461bcd60e51b815260206004820152601560248201527f746f416464726573735f6f75744f66426f756e647300000000000000000000006044820152606401610ca2565b5001602001516c01000000000000000000000000900490565b610cab828260405160240161374f9291906146b2565b60408051601f198184030181529190526020810180516001600160e01b0316632d839cb360e21b179052613cee565b60065460ff166137b95760405162461bcd60e51b8152600401610ca2906020808252600490820152636c6f636b60e01b604082015260600190565b6006805460ff191690558160008190036137fa5760405162461bcd60e51b81526020600482015260026024820152615a3160f01b6044820152606401610ca2565b60075460405163cdf6800960e01b81526004810185905233916000916001600160a01b039091169063cdf6800990602401602060405180830381865afa158015613848573d6000803e3d6000fd5b505050506040513d601f19601f8201168201806040525081019061386c9190614402565b63ffffffff87166000908152600b602090815260408083206001600160a01b03871684529091529020909150841561396d576002810154600754604051636a2fb1f560e01b8152600481018890526001600160a01b0390911690636a2fb1f590602401602060405180830381865afa1580156138ec573d6000803e3d6000fd5b505050506040513d601f19601f820116820180604052508101906139109190614402565b61391a90886143b2565b11156139685760405162461bcd60e51b815260206004820152600d60248201527f756e7374616b655f6572725f31000000000000000000000000000000000000006044820152606401610ca2565b6139c1565b80600201548611156139c15760405162461bcd60e51b815260206004820152600d60248201527f756e7374616b655f6572725f32000000000000000000000000000000000000006044820152606401610ca2565b858160020160008282546139d59190614438565b909155505080548211156139ec5760008155613a06565b81816000016000828254613a009190614438565b90915550505b63ffffffff87166000908152600a602052604081208054889290613a2b908490614438565b925050819055508560096000828254613a449190614438565b909155505060085460408051636577b27360e11b815290516000926001600160a01b03169163caef64e69160048083019260209291908290030181865afa158015613a93573d6000803e3d6000fd5b505050506040513d601f19601f82011682018060405250810190613ab79190614402565b63ffffffff89166000908152600c602090815260408083206001600160a01b03891684529091529081902081516060810190925291925080613af984436143b2565b63ffffffff90811682526001600160801b0380881660208085019190915260006040948501819052865460018101885596815281812086519701805487840151978701511515600160a01b0260ff60a01b19989095166401000000000273ffffffffffffffffffffffffffffffffffffffff19909116988616989098179790971795909516919091179094558b168252600e83528082206001600160a01b03881683529092529081208054859290613bb29084906143b2565b909155505063ffffffff88166000908152600f602052604081208054859290613bdc9084906143b2565b90915550506001600160a01b03841660009081526010602052604081208054859290613c099084906143b2565b90915550506040805163ffffffff8a1681526001600160a01b0386166020820152908101849052606081018890527f869a01319d83bb921803a22e3e95d0cb8b08e708d3fb144e2c25a563bf8650d39060800160405180910390a150506006805460ff19166001179055505050505050565b6000828152602081815260408083206001600160a01b038516845290915290205460ff16610cab57613cac81613d0f565b613cb7836020613d21565b604051602001613cc89291906146d4565b60408051601f198184030181529082905262461bcd60e51b8252610ca291600401614145565b80516a636f6e736f6c652e6c6f67602083016000808483855afa5050505050565b6060610c346001600160a01b03831660145b60606000613d30836002614679565b613d3b9060026143b2565b67ffffffffffffffff811115613d5357613d536141d1565b6040519080825280601f01601f191660200182016040528015613d7d576020820181803683370190505b509050600360fc1b81600081518110613d9857613d98614386565b60200101906001600160f81b031916908160001a905350600f60fb1b81600181518110613dc757613dc7614386565b60200101906001600160f81b031916908160001a9053506000613deb846002614679565b613df69060016143b2565b90505b6001811115613e7b577f303132333435363738396162636465660000000000000000000000000000000085600f1660108110613e3757613e37614386565b1a60f81b828281518110613e4d57613e4d614386565b60200101906001600160f81b031916908160001a90535060049490941c93613e7481614755565b9050613df9565b5083156113a65760405162461bcd60e51b815260206004820181905260248201527f537472696e67733a20686578206c656e67746820696e73756666696369656e746044820152606401610ca2565b803563ffffffff8116811461138b57600080fd5b600060208284031215613ef057600080fd5b6113a682613eca565b600060208284031215613f0b57600080fd5b81356001600160e01b0319811681146113a657600080fd5b6001600160a01b0381168114610d3957600080fd5b600060208284031215613f4a57600080fd5b81356113a681613f23565b60008060408385031215613f6857600080fd5b613f7183613eca565b91506020830135613f8181613f23565b809150509250929050565b600060208284031215613f9e57600080fd5b5035919050565b60008060408385031215613fb857600080fd5b823591506020830135613f8181613f23565b600080600080600060808688031215613fe257600080fd5b8535613fed81613f23565b94506020860135613ffd81613f23565b935060408601359250606086013567ffffffffffffffff8082111561402157600080fd5b818801915088601f83011261403557600080fd5b81358181111561404457600080fd5b89602082850101111561405657600080fd5b9699959850939650602001949392505050565b6020808252825182820181905260009190848201906040850190845b818110156140aa5783516001600160a01b031683529284019291840191600101614085565b50909695505050505050565b6000806000606084860312156140cb57600080fd5b6140d484613eca565b925060208401356140e481613f23565b929592945050506040919091013590565b60005b838110156141105781810151838201526020016140f8565b50506000910152565b600081518084526141318160208601602086016140f5565b601f01601f19169290920160200192915050565b6020815260006113a66020830184614119565b6000806040838503121561416b57600080fd5b61417483613eca565b946020939093013593505050565b6000806000806080858703121561419857600080fd5b6141a185613eca565b935060208501356141b181613f23565b925060408501356141c181613f23565b9396929550929360600135925050565b634e487b7160e01b600052604160045260246000fd5b604051601f8201601f1916810167ffffffffffffffff81118282101715614210576142106141d1565b604052919050565b6000806040838503121561422b57600080fd5b61423483613eca565b915060208084013567ffffffffffffffff8082111561425257600080fd5b818601915086601f83011261426657600080fd5b813581811115614278576142786141d1565b61428a601f8201601f191685016141e7565b915080825287848285010111156142a057600080fd5b80848401858401376000848284010152508093505050509250929050565b600080604083850312156142d157600080fd5b8235613f7181613f23565b600181811c908216806142f057607f821691505b6020821081036110fd57634e487b7160e01b600052602260045260246000fd5b600080835461431e816142dc565b60018281168015614336576001811461434b5761437a565b60ff198416875282151583028701945061437a565b8760005260208060002060005b858110156143715781548a820152908401908201614358565b50505082870194505b50929695505050505050565b634e487b7160e01b600052603260045260246000fd5b634e487b7160e01b600052601160045260246000fd5b80820180821115610c3457610c3461439c565b63ffffffff8181168382160190808211156143e2576143e261439c565b5092915050565b6000600182016143fb576143fb61439c565b5060010190565b60006020828403121561441457600080fd5b5051919050565b60006020828403121561442d57600080fd5b81516113a681613f23565b81810381811115610c3457610c3461439c565b60006020828403121561445d57600080fd5b815180151581146113a657600080fd5b6000602080835260008454614481816142dc565b808487015260406001808416600081146144a257600181146144bc576144ea565b60ff1985168984015283151560051b8901830195506144ea565b896000528660002060005b858110156144e25781548b82018601529083019088016144c7565b8a0184019650505b509398975050505050505050565b60006040828403121561450a57600080fd5b6040516040810181811067ffffffffffffffff8211171561452d5761452d6141d1565b604052825161453b81613f23565b8152602083015161454b81613f23565b60208201529392505050565b601f821115610f9d57600081815260208120601f850160051c8101602086101561457e5750805b601f850160051c820191505b818110156131225782815560010161458a565b815167ffffffffffffffff8111156145b7576145b76141d1565b6145cb816145c584546142dc565b84614557565b602080601f83116001811461460057600084156145e85750858301515b600019600386901b1c1916600185901b178555613122565b600085815260208120601f198616915b8281101561462f57888601518255948401946001909101908401614610565b508582101561464d5787850151600019600388901b60f8161c191681555b5050505050600190811b01905550565b6000825161466f8184602087016140f5565b9190910192915050565b8082028115828204841417610c3457610c3461439c565b6000826146ad57634e487b7160e01b600052601260045260246000fd5b500490565b6040815260006146c56040830185614119565b90508260208301529392505050565b7f416363657373436f6e74726f6c3a206163636f756e742000000000000000000081526000835161470c8160178501602088016140f5565b7f206973206d697373696e6720726f6c652000000000000000000000000000000060179184019182015283516147498160288401602088016140f5565b01602801949350505050565b6000816147645761476461439c565b50600019019056fea164736f6c6343000812000a",
  "linkReferences": {
    "contracts/libraries/LibOptimism.sol": {
      "LibOptimism": [
        {
          "length": 20,
          "start": 7290
        }
      ]
    }
  },
  "deployedLinkReferences": {
    "contracts/libraries/LibOptimism.sol": {
      "LibOptimism": [
        {
          "length": 20,
          "start": 7245
        }
      ]
    }
  }
}