{
  "_format": "hh-sol-artifact-1",
  "contractName": "OptimismSequencer",
  "sourceName": "contracts/OptimismSequencer.sol",
  "abi": [
    {
      "inputs": [],
      "stateMutability": "nonpayable",
      "type": "constructor"
    },
    {
      "anonymous": false,
      "inputs": [
        {
          "indexed": false,
          "internalType": "uint32",
          "name": "_index",
          "type": "uint32"
        },
        {
          "indexed": false,
          "internalType": "address",
          "name": "sender",
          "type": "address"
        },
        {
          "indexed": false,
          "internalType": "uint256",
          "name": "amount",
          "type": "uint256"
        },
        {
          "indexed": false,
          "internalType": "uint256",
          "name": "lton",
          "type": "uint256"
        }
      ],
      "name": "Restaked",
      "type": "event"
    },
    {
      "anonymous": false,
      "inputs": [
        {
          "indexed": true,
          "internalType": "bytes32",
          "name": "role",
          "type": "bytes32"
        },
        {
          "indexed": true,
          "internalType": "bytes32",
          "name": "previousAdminRole",
          "type": "bytes32"
        },
        {
          "indexed": true,
          "internalType": "bytes32",
          "name": "newAdminRole",
          "type": "bytes32"
        }
      ],
      "name": "RoleAdminChanged",
      "type": "event"
    },
    {
      "anonymous": false,
      "inputs": [
        {
          "indexed": true,
          "internalType": "bytes32",
          "name": "role",
          "type": "bytes32"
        },
        {
          "indexed": true,
          "internalType": "address",
          "name": "account",
          "type": "address"
        },
        {
          "indexed": true,
          "internalType": "address",
          "name": "sender",
          "type": "address"
        }
      ],
      "name": "RoleGranted",
      "type": "event"
    },
    {
      "anonymous": false,
      "inputs": [
        {
          "indexed": true,
          "internalType": "bytes32",
          "name": "role",
          "type": "bytes32"
        },
        {
          "indexed": true,
          "internalType": "address",
          "name": "account",
          "type": "address"
        },
        {
          "indexed": true,
          "internalType": "address",
          "name": "sender",
          "type": "address"
        }
      ],
      "name": "RoleRevoked",
      "type": "event"
    },
    {
      "anonymous": false,
      "inputs": [
        {
          "indexed": false,
          "internalType": "uint32",
          "name": "_index",
          "type": "uint32"
        },
        {
          "indexed": false,
          "internalType": "address",
          "name": "sender",
          "type": "address"
        },
        {
          "indexed": false,
          "internalType": "uint256",
          "name": "amount",
          "type": "uint256"
        },
        {
          "indexed": false,
          "internalType": "uint256",
          "name": "lton",
          "type": "uint256"
        }
      ],
      "name": "Staked",
      "type": "event"
    },
    {
      "anonymous": false,
      "inputs": [
        {
          "indexed": false,
          "internalType": "uint32",
          "name": "_index",
          "type": "uint32"
        },
        {
          "indexed": false,
          "internalType": "address",
          "name": "sender",
          "type": "address"
        },
        {
          "indexed": false,
          "internalType": "uint256",
          "name": "amount",
          "type": "uint256"
        },
        {
          "indexed": false,
          "internalType": "uint256",
          "name": "lton",
          "type": "uint256"
        }
      ],
      "name": "Unstaked",
      "type": "event"
    },
    {
      "anonymous": false,
      "inputs": [
        {
          "indexed": false,
          "internalType": "uint32",
          "name": "_index",
          "type": "uint32"
        },
        {
          "indexed": false,
          "internalType": "address",
          "name": "sender",
          "type": "address"
        },
        {
          "indexed": false,
          "internalType": "uint256",
          "name": "amount",
          "type": "uint256"
        }
      ],
      "name": "Withdrawal",
      "type": "event"
    },
    {
      "inputs": [],
      "name": "ADMIN_ROLE",
      "outputs": [
        {
          "internalType": "bytes32",
          "name": "",
          "type": "bytes32"
        }
      ],
      "stateMutability": "view",
      "type": "function"
    },
    {
      "inputs": [],
      "name": "DEFAULT_ADMIN_ROLE",
      "outputs": [
        {
          "internalType": "bytes32",
          "name": "",
          "type": "bytes32"
        }
      ],
      "stateMutability": "view",
      "type": "function"
    },
    {
      "inputs": [],
      "name": "POLICY_ROLE",
      "outputs": [
        {
          "internalType": "bytes32",
          "name": "",
          "type": "bytes32"
        }
      ],
      "stateMutability": "view",
      "type": "function"
    },
    {
      "inputs": [
        {
          "internalType": "address",
          "name": "account",
          "type": "address"
        }
      ],
      "name": "addAdmin",
      "outputs": [],
      "stateMutability": "nonpayable",
      "type": "function"
    },
    {
      "inputs": [
        {
          "internalType": "address",
          "name": "",
          "type": "address"
        }
      ],
      "name": "aliveImplementation",
      "outputs": [
        {
          "internalType": "bool",
          "name": "",
          "type": "bool"
        }
      ],
      "stateMutability": "view",
      "type": "function"
    },
    {
      "inputs": [
        {
          "internalType": "uint32",
          "name": "layerIndex",
          "type": "uint32"
        },
        {
          "internalType": "address",
          "name": "account",
          "type": "address"
        }
      ],
      "name": "amountOfPendings",
      "outputs": [
        {
          "internalType": "uint256",
          "name": "amount",
          "type": "uint256"
        },
        {
          "internalType": "uint32",
          "name": "startIndex",
          "type": "uint32"
        },
        {
          "internalType": "uint32",
          "name": "len",
          "type": "uint32"
        },
        {
          "internalType": "uint32",
          "name": "nextWithdrawableBlockNumber",
          "type": "uint32"
        }
      ],
      "stateMutability": "view",
      "type": "function"
    },
    {
      "inputs": [
        {
          "internalType": "uint32",
          "name": "_index",
          "type": "uint32"
        },
        {
          "internalType": "address",
          "name": "account",
          "type": "address"
        }
      ],
      "name": "availableWithdraw",
      "outputs": [
        {
          "internalType": "uint256",
          "name": "amount",
          "type": "uint256"
        },
        {
          "internalType": "uint32",
          "name": "startIndex",
          "type": "uint32"
        },
        {
          "internalType": "uint32",
          "name": "len",
          "type": "uint32"
        }
      ],
      "stateMutability": "view",
      "type": "function"
    },
    {
      "inputs": [
        {
          "internalType": "uint32",
          "name": "_index",
          "type": "uint32"
        },
        {
          "internalType": "address",
          "name": "account",
          "type": "address"
        }
      ],
      "name": "balanceOf",
      "outputs": [
        {
          "internalType": "uint256",
          "name": "amount",
          "type": "uint256"
        }
      ],
      "stateMutability": "view",
      "type": "function"
    },
    {
      "inputs": [
        {
          "internalType": "uint32",
          "name": "_index",
          "type": "uint32"
        },
        {
          "internalType": "address",
          "name": "account",
          "type": "address"
        }
      ],
      "name": "balanceOfLton",
      "outputs": [
        {
          "internalType": "uint256",
          "name": "amount",
          "type": "uint256"
        }
      ],
      "stateMutability": "view",
      "type": "function"
    },
    {
      "inputs": [
        {
          "internalType": "uint32",
          "name": "_index",
          "type": "uint32"
        }
      ],
      "name": "balanceOfLton",
      "outputs": [
        {
          "internalType": "uint256",
          "name": "amount",
          "type": "uint256"
        }
      ],
      "stateMutability": "view",
      "type": "function"
    },
    {
      "inputs": [
        {
          "internalType": "uint32",
          "name": "_index",
          "type": "uint32"
        },
        {
          "internalType": "bytes",
          "name": "_layerInfo",
          "type": "bytes"
        }
      ],
      "name": "create",
      "outputs": [
        {
          "internalType": "bool",
          "name": "",
          "type": "bool"
        }
      ],
      "stateMutability": "nonpayable",
      "type": "function"
    },
    {
      "inputs": [
        {
          "internalType": "uint32",
          "name": "_index",
          "type": "uint32"
        }
      ],
      "name": "existedIndex",
      "outputs": [
        {
          "internalType": "bool",
          "name": "",
          "type": "bool"
        }
      ],
      "stateMutability": "view",
      "type": "function"
    },
    {
      "inputs": [
        {
          "internalType": "uint32",
          "name": "_index",
          "type": "uint32"
        }
      ],
      "name": "getLayerInfo",
      "outputs": [
        {
          "components": [
            {
              "internalType": "address",
              "name": "addressManager",
              "type": "address"
            },
            {
              "internalType": "address",
              "name": "l1Messenger",
              "type": "address"
            },
            {
              "internalType": "address",
              "name": "l1Bridge",
              "type": "address"
            },
            {
              "internalType": "address",
              "name": "l2ton",
              "type": "address"
            }
          ],
          "internalType": "struct LibOptimism.Info",
          "name": "_layerInfo",
          "type": "tuple"
        }
      ],
      "stateMutability": "view",
      "type": "function"
    },
    {
      "inputs": [
        {
          "internalType": "uint32",
          "name": "_index",
          "type": "uint32"
        }
      ],
      "name": "getLayerKey",
      "outputs": [
        {
          "internalType": "bytes32",
          "name": "layerKey_",
          "type": "bytes32"
        }
      ],
      "stateMutability": "view",
      "type": "function"
    },
    {
      "inputs": [
        {
          "internalType": "uint32",
          "name": "_index",
          "type": "uint32"
        },
        {
          "internalType": "address",
          "name": "account",
          "type": "address"
        }
      ],
      "name": "getLayerStakes",
      "outputs": [
        {
          "components": [
            {
              "internalType": "uint256",
              "name": "stakePrincipal",
              "type": "uint256"
            },
            {
              "internalType": "uint256",
              "name": "bondPrincipal",
              "type": "uint256"
            },
            {
              "internalType": "uint256",
              "name": "stakelton",
              "type": "uint256"
            },
            {
              "internalType": "uint256",
              "name": "bondlton",
              "type": "uint256"
            },
            {
              "internalType": "bool",
              "name": "stake",
              "type": "bool"
            },
            {
              "internalType": "uint16",
              "name": "fwFee",
              "type": "uint16"
            }
          ],
          "internalType": "struct LibStake.StakeInfo",
          "name": "info",
          "type": "tuple"
        }
      ],
      "stateMutability": "view",
      "type": "function"
    },
    {
      "inputs": [
        {
          "internalType": "uint32",
          "name": "_index",
          "type": "uint32"
        },
        {
          "internalType": "address",
          "name": "account",
          "type": "address"
        }
      ],
      "name": "getPendingUnstakedAmount",
      "outputs": [
        {
          "internalType": "uint256",
          "name": "",
          "type": "uint256"
        }
      ],
      "stateMutability": "view",
      "type": "function"
    },
    {
      "inputs": [
        {
          "internalType": "bytes32",
          "name": "role",
          "type": "bytes32"
        }
      ],
      "name": "getRoleAdmin",
      "outputs": [
        {
          "internalType": "bytes32",
          "name": "",
          "type": "bytes32"
        }
      ],
      "stateMutability": "view",
      "type": "function"
    },
    {
      "inputs": [],
      "name": "getStakeAccountList",
      "outputs": [
        {
          "internalType": "address[]",
          "name": "",
          "type": "address[]"
        }
      ],
      "stateMutability": "view",
      "type": "function"
    },
    {
      "inputs": [],
      "name": "getTotalLton",
      "outputs": [
        {
          "internalType": "uint256",
          "name": "",
          "type": "uint256"
        }
      ],
      "stateMutability": "view",
      "type": "function"
    },
    {
      "inputs": [
        {
          "internalType": "uint32",
          "name": "_index",
          "type": "uint32"
        }
      ],
      "name": "getTvl",
      "outputs": [
        {
          "internalType": "uint256",
          "name": "amount",
          "type": "uint256"
        }
      ],
      "stateMutability": "view",
      "type": "function"
    },
    {
      "inputs": [
        {
          "internalType": "bytes32",
          "name": "role",
          "type": "bytes32"
        },
        {
          "internalType": "address",
          "name": "account",
          "type": "address"
        }
      ],
      "name": "grantRole",
      "outputs": [],
      "stateMutability": "nonpayable",
      "type": "function"
    },
    {
      "inputs": [
        {
          "internalType": "bytes32",
          "name": "role",
          "type": "bytes32"
        },
        {
          "internalType": "address",
          "name": "account",
          "type": "address"
        }
      ],
      "name": "hasRole",
      "outputs": [
        {
          "internalType": "bool",
          "name": "",
          "type": "bool"
        }
      ],
      "stateMutability": "view",
      "type": "function"
    },
    {
      "inputs": [
        {
          "internalType": "address",
          "name": "account",
          "type": "address"
        }
      ],
      "name": "isAdmin",
      "outputs": [
        {
          "internalType": "bool",
          "name": "",
          "type": "bool"
        }
      ],
      "stateMutability": "view",
      "type": "function"
    },
    {
      "inputs": [
        {
          "internalType": "uint32",
          "name": "_index",
          "type": "uint32"
        }
      ],
      "name": "layer2Deposits",
      "outputs": [
        {
          "internalType": "uint256",
          "name": "amount",
          "type": "uint256"
        }
      ],
      "stateMutability": "view",
      "type": "function"
    },
    {
      "inputs": [],
      "name": "layer2Manager",
      "outputs": [
        {
          "internalType": "address",
          "name": "",
          "type": "address"
        }
      ],
      "stateMutability": "view",
      "type": "function"
    },
    {
      "inputs": [
        {
          "internalType": "uint32",
          "name": "",
          "type": "uint32"
        }
      ],
      "name": "layerInfo",
      "outputs": [
        {
          "internalType": "bytes",
          "name": "",
          "type": "bytes"
        }
      ],
      "stateMutability": "view",
      "type": "function"
    },
    {
      "inputs": [
        {
          "internalType": "uint32",
          "name": "",
          "type": "uint32"
        }
      ],
      "name": "layerStakedLton",
      "outputs": [
        {
          "internalType": "uint256",
          "name": "",
          "type": "uint256"
        }
      ],
      "stateMutability": "view",
      "type": "function"
    },
    {
      "inputs": [
        {
          "internalType": "uint32",
          "name": "",
          "type": "uint32"
        },
        {
          "internalType": "address",
          "name": "",
          "type": "address"
        }
      ],
      "name": "layerStakes",
      "outputs": [
        {
          "internalType": "uint256",
          "name": "stakePrincipal",
          "type": "uint256"
        },
        {
          "internalType": "uint256",
          "name": "bondPrincipal",
          "type": "uint256"
        },
        {
          "internalType": "uint256",
          "name": "stakelton",
          "type": "uint256"
        },
        {
          "internalType": "uint256",
          "name": "bondlton",
          "type": "uint256"
        },
        {
          "internalType": "bool",
          "name": "stake",
          "type": "bool"
        },
        {
          "internalType": "uint16",
          "name": "fwFee",
          "type": "uint16"
        }
      ],
      "stateMutability": "view",
      "type": "function"
    },
    {
      "inputs": [
        {
          "internalType": "uint32",
          "name": "layerIndex",
          "type": "uint32"
        },
        {
          "internalType": "address",
          "name": "account",
          "type": "address"
        }
      ],
      "name": "numberOfPendings",
      "outputs": [
        {
          "internalType": "uint256",
          "name": "totalRequests",
          "type": "uint256"
        },
        {
          "internalType": "uint256",
          "name": "withdrawIndex",
          "type": "uint256"
        },
        {
          "internalType": "uint256",
          "name": "pendingLength",
          "type": "uint256"
        }
      ],
      "stateMutability": "view",
      "type": "function"
    },
    {
      "inputs": [
        {
          "internalType": "address",
          "name": "sender",
          "type": "address"
        },
        {
          "internalType": "address",
          "name": "spender",
          "type": "address"
        },
        {
          "internalType": "uint256",
          "name": "amount",
          "type": "uint256"
        },
        {
          "internalType": "bytes",
          "name": "data",
          "type": "bytes"
        }
      ],
      "name": "onApprove",
      "outputs": [
        {
          "internalType": "bool",
          "name": "",
          "type": "bool"
        }
      ],
      "stateMutability": "nonpayable",
      "type": "function"
    },
    {
      "inputs": [],
      "name": "pauseProxy",
      "outputs": [
        {
          "internalType": "bool",
          "name": "",
          "type": "bool"
        }
      ],
      "stateMutability": "view",
      "type": "function"
    },
    {
      "inputs": [
        {
          "internalType": "uint32",
          "name": "",
          "type": "uint32"
        },
        {
          "internalType": "address",
          "name": "",
          "type": "address"
        }
      ],
      "name": "pendingUnstaked",
      "outputs": [
        {
          "internalType": "uint256",
          "name": "",
          "type": "uint256"
        }
      ],
      "stateMutability": "view",
      "type": "function"
    },
    {
      "inputs": [
        {
          "internalType": "address",
          "name": "",
          "type": "address"
        }
      ],
      "name": "pendingUnstakedAccount",
      "outputs": [
        {
          "internalType": "uint256",
          "name": "",
          "type": "uint256"
        }
      ],
      "stateMutability": "view",
      "type": "function"
    },
    {
      "inputs": [
        {
          "internalType": "uint32",
          "name": "",
          "type": "uint32"
        }
      ],
      "name": "pendingUnstakedLayer2",
      "outputs": [
        {
          "internalType": "uint256",
          "name": "",
          "type": "uint256"
        }
      ],
      "stateMutability": "view",
      "type": "function"
    },
    {
      "inputs": [
        {
          "internalType": "uint256",
          "name": "",
          "type": "uint256"
        }
      ],
      "name": "proxyImplementation",
      "outputs": [
        {
          "internalType": "address",
          "name": "",
          "type": "address"
        }
      ],
      "stateMutability": "view",
      "type": "function"
    },
    {
      "inputs": [
        {
          "internalType": "address",
          "name": "account",
          "type": "address"
        }
      ],
      "name": "removeAdmin",
      "outputs": [],
      "stateMutability": "nonpayable",
      "type": "function"
    },
    {
      "inputs": [
        {
          "internalType": "bytes32",
          "name": "role",
          "type": "bytes32"
        },
        {
          "internalType": "address",
          "name": "account",
          "type": "address"
        }
      ],
      "name": "renounceRole",
      "outputs": [],
      "stateMutability": "nonpayable",
      "type": "function"
    },
    {
      "inputs": [
        {
          "internalType": "uint32",
          "name": "_index",
          "type": "uint32"
        }
      ],
      "name": "restake",
      "outputs": [],
      "stateMutability": "nonpayable",
      "type": "function"
    },
    {
      "inputs": [
        {
          "internalType": "uint32",
          "name": "_index",
          "type": "uint32"
        },
        {
          "internalType": "uint256",
          "name": "n",
          "type": "uint256"
        }
      ],
      "name": "restakeMulti",
      "outputs": [],
      "stateMutability": "nonpayable",
      "type": "function"
    },
    {
      "inputs": [
        {
          "internalType": "bytes32",
          "name": "role",
          "type": "bytes32"
        },
        {
          "internalType": "address",
          "name": "account",
          "type": "address"
        }
      ],
      "name": "revokeRole",
      "outputs": [],
      "stateMutability": "nonpayable",
      "type": "function"
    },
    {
      "inputs": [],
      "name": "seigManagerV2",
      "outputs": [
        {
          "internalType": "address",
          "name": "",
          "type": "address"
        }
      ],
      "stateMutability": "view",
      "type": "function"
    },
    {
      "inputs": [
        {
          "internalType": "bytes4",
          "name": "",
          "type": "bytes4"
        }
      ],
      "name": "selectorImplementation",
      "outputs": [
        {
          "internalType": "address",
          "name": "",
          "type": "address"
        }
      ],
      "stateMutability": "view",
      "type": "function"
    },
    {
      "inputs": [
        {
          "internalType": "uint32",
          "name": "_index",
          "type": "uint32"
        }
      ],
      "name": "sequencer",
      "outputs": [
        {
          "internalType": "address",
          "name": "sequencer_",
          "type": "address"
        }
      ],
      "stateMutability": "view",
      "type": "function"
    },
    {
      "inputs": [
        {
          "internalType": "uint32",
          "name": "_index",
          "type": "uint32"
        },
        {
          "internalType": "uint256",
          "name": "amount",
          "type": "uint256"
        }
      ],
      "name": "stake",
      "outputs": [],
      "stateMutability": "nonpayable",
      "type": "function"
    },
    {
      "inputs": [
        {
          "internalType": "uint256",
          "name": "",
          "type": "uint256"
        }
      ],
      "name": "stakeAccountList",
      "outputs": [
        {
          "internalType": "address",
          "name": "",
          "type": "address"
        }
      ],
      "stateMutability": "view",
      "type": "function"
    },
    {
      "inputs": [
        {
          "internalType": "bytes4",
          "name": "interfaceId",
          "type": "bytes4"
        }
      ],
      "name": "supportsInterface",
      "outputs": [
        {
          "internalType": "bool",
          "name": "",
          "type": "bool"
        }
      ],
      "stateMutability": "view",
      "type": "function"
    },
    {
      "inputs": [],
      "name": "ton",
      "outputs": [
        {
          "internalType": "address",
          "name": "",
          "type": "address"
        }
      ],
      "stateMutability": "view",
      "type": "function"
    },
    {
      "inputs": [],
      "name": "totalLayer2Deposits",
      "outputs": [
        {
          "internalType": "uint256",
          "name": "amount",
          "type": "uint256"
        }
      ],
      "stateMutability": "view",
      "type": "function"
    },
    {
      "inputs": [],
      "name": "totalStakeAccountList",
      "outputs": [
        {
          "internalType": "uint256",
          "name": "",
          "type": "uint256"
        }
      ],
      "stateMutability": "view",
      "type": "function"
    },
    {
      "inputs": [],
      "name": "totalStakedLton",
      "outputs": [
        {
          "internalType": "uint256",
          "name": "",
          "type": "uint256"
        }
      ],
      "stateMutability": "view",
      "type": "function"
    },
    {
      "inputs": [
        {
          "internalType": "address",
          "name": "newAdmin",
          "type": "address"
        }
      ],
      "name": "transferAdmin",
      "outputs": [],
      "stateMutability": "nonpayable",
      "type": "function"
    },
    {
      "inputs": [
        {
          "internalType": "uint32",
          "name": "_index",
          "type": "uint32"
        },
        {
          "internalType": "uint256",
          "name": "lton_",
          "type": "uint256"
        }
      ],
      "name": "unstake",
      "outputs": [],
      "stateMutability": "nonpayable",
      "type": "function"
    },
    {
      "inputs": [
        {
          "internalType": "uint32",
          "name": "_index",
          "type": "uint32"
        }
      ],
      "name": "withdraw",
      "outputs": [],
      "stateMutability": "nonpayable",
      "type": "function"
    },
    {
      "inputs": [
        {
          "internalType": "uint32",
          "name": "",
          "type": "uint32"
        },
        {
          "internalType": "address",
          "name": "",
          "type": "address"
        }
      ],
      "name": "withdrawalRequestIndex",
      "outputs": [
        {
          "internalType": "uint256",
          "name": "",
          "type": "uint256"
        }
      ],
      "stateMutability": "view",
      "type": "function"
    },
    {
      "inputs": [
        {
          "internalType": "uint32",
          "name": "",
          "type": "uint32"
        },
        {
          "internalType": "address",
          "name": "",
          "type": "address"
        },
        {
          "internalType": "uint256",
          "name": "",
          "type": "uint256"
        }
      ],
      "name": "withdrawalRequests",
      "outputs": [
        {
          "internalType": "uint32",
          "name": "withdrawableBlockNumber",
          "type": "uint32"
        },
        {
          "internalType": "uint128",
          "name": "amount",
          "type": "uint128"
        },
        {
          "internalType": "bool",
          "name": "processed",
          "type": "bool"
        }
      ],
      "stateMutability": "view",
      "type": "function"
    }
  ],
  "bytecode": "0x60806040526006805460ff1916600117905534801561001d57600080fd5b50613b998061002d6000396000f3fe608060405234801561001057600080fd5b506004361061036d5760003560e01c8063744a3561116101d35780639c2f614f11610104578063b911135f116100a2578063cc48b9471161007c578063cc48b94714610a8f578063d547741f14610aa7578063df2b429014610aba578063ec110d4514610acd57600080fd5b8063b911135f14610a3e578063b969fbef14610a67578063b9cab97114610a6f57600080fd5b8063a217fddf116100de578063a217fddf146109ed578063aa9224cd146109f5578063b413b37a14610a08578063b6a2f99d14610a1057600080fd5b80639c2f614f146109315780639c656e2614610944578063a0b2a913146109cd57600080fd5b80638c6f1b39116101715780638d99e1ca1161014b5780638d99e1ca146108965780638ddd87fe146108a957806391d14854146108e757806394c89b2c1461091e57600080fd5b80638c6f1b39146107f85780638c71762d1461084e5780638d1f3d0a1461088357600080fd5b80637cf1587c116101ad5780637cf1587c146107815780637d211a1c146107ac5780637ec6840f146107bf5780638afec9fc146107d257600080fd5b8063744a35611461073457806375829def1461074757806375b238fc1461075a57600080fd5b80634273ca16116102ad5780635f1b989e1161024b5780636d1ef103116102255780636d1ef103146106af57806370480275146106ee57806370619cf91461070157806373469a7a1461072157600080fd5b80635f1b989e146105f857806363a8fd8914610682578063659ab8201461068f57600080fd5b80634e1a264d116102875780634e1a264d1461057857806350d2a27614610581578063550d01a3146105aa5780635e2cfe45146105cd57600080fd5b80634273ca161461054857806346bcdb491461055b5780634de131ca1461056357600080fd5b80631f760d011161031a57806324d7806c116102f457806324d7806c146104fc5780632f2ff15d1461050f57806336568abe1461052257806341e5dbe81461053557600080fd5b80631f760d011461047357806322985246146104b2578063248a9ca3146104d957600080fd5b806316b5d5bd1161034b57806316b5d5bd146103d05780631785f53c146103fb5780631ed944951461040e57600080fd5b80630116cc651461037257806301ffc9a714610398578063118e29d1146103bb575b600080fd5b610385610380366004613524565b610ae0565b6040519081526020015b60405180910390f35b6103ab6103a636600461353f565b610b93565b604051901515815260200161038f565b6103ce6103c9366004613524565b610bca565b005b6008546103e3906001600160a01b031681565b6040516001600160a01b03909116815260200161038f565b6103ce61040936600461357e565b610c3f565b61042161041c36600461359b565b610ccc565b60405161038f9190600060c0820190508251825260208301516020830152604083015160408301526060830151606083015260808301511515608083015261ffff60a08401511660a083015292915050565b61048661048136600461359b565b610d8a565b6040805194855263ffffffff93841660208601529183169184019190915216606082015260800161038f565b6103857ffb5864e8ff833c3cb2d2d08505e82ff02a43554c74a35d4f5a64e8526127831181565b6103856104e73660046135d2565b60009081526020819052604090206001015490565b6103ab61050a36600461357e565b610ec8565b6103ce61051d3660046135eb565b610f08565b6103ce6105303660046135eb565b610f32565b610385610543366004613524565b610fba565b6103ab610556366004613610565b61108c565b601254610385565b61056b611138565b60405161038f91906136af565b61038560095481565b6103e361058f36600461353f565b6004602052600090815260409020546001600160a01b031681565b6103ab6105b836600461357e565b60036020526000908152604090205460ff1681565b6103856105db36600461359b565b600e60209081526000928352604080842090915290825290205481565b61038561060636600461359b565b63ffffffff9091166000908152600b602090815260408083206001600160a01b03909416835292815290829020825160c081018452815481526001820154928101929092526002810154928201839052600381015460608301526004015460ff81161515608083015261ffff6101009091041660a09091015290565b6001546103ab9060ff1681565b6106a261069d366004613524565b61119a565b60405161038f919061374c565b6106c26106bd36600461375f565b611234565b6040805163ffffffff90941684526001600160801b03909216602084015215159082015260600161038f565b6103ce6106fc36600461357e565b611293565b61038561070f366004613524565b600a6020526000908152604090205481565b6007546103e3906001600160a01b031681565b6103ce61074236600461379e565b61131d565b6103ce61075536600461357e565b611388565b6103857fdf8b4c520ffe197c5343c6f5aec59570151ef9a492f2c624fd45ddde6135ec4281565b61038561078f36600461359b565b600d60209081526000928352604080842090915290825290205481565b6103ab6107ba366004613524565b6114ea565b6103ce6107cd36600461379e565b6115a8565b6103856107e0366004613524565b63ffffffff166000908152600a602052604090205490565b61080b610806366004613524565b6115fe565b60405161038f919081516001600160a01b039081168252602080840151821690830152604080840151821690830152606092830151169181019190915260800190565b61086161085c36600461359b565b611740565b6040805193845263ffffffff928316602085015291169082015260600161038f565b6103e3610891366004613524565b61187d565b6103856108a4366004613524565b6119c1565b6103856108b736600461359b565b63ffffffff82166000908152600e602090815260408083206001600160a01b038516845290915290205492915050565b6103ab6108f53660046135eb565b6000918252602082815260408084206001600160a01b0393909316845291905290205460ff1690565b61038561092c36600461359b565b611a34565b6103ce61093f36600461379e565b611b20565b61099a61095236600461359b565b600b602090815260009283526040808420909152908252902080546001820154600283015460038401546004909401549293919290919060ff811690610100900461ffff1686565b6040805196875260208701959095529385019290925260608401521515608083015261ffff1660a082015260c00161038f565b6103856109db36600461357e565b60106020526000908152604090205481565b610385600081565b6103ce610a03366004613524565b611b2a565b600954610385565b610a23610a1e36600461359b565b611f40565b6040805193845260208401929092529082015260600161038f565b6103e3610a4c3660046135d2565b6002602052600090815260409020546001600160a01b031681565b610385611f9b565b610385610a7d366004613524565b600f6020526000908152604090205481565b6006546103e39061010090046001600160a01b031681565b6103ce610ab53660046135eb565b61200e565b6103ab610ac83660046137de565b612033565b6103e3610adb3660046135d2565b612179565b63ffffffff811660009081526011602052604081208054829190610b03906138a0565b80601f0160208091040260200160405190810160405280929190818152602001828054610b2f906138a0565b8015610b7c5780601f10610b5157610100808354040283529160200191610b7c565b820191906000526020600020905b815481529060010190602001808311610b5f57829003601f168201915b505050505090508080519060200120915050919050565b60006001600160e01b03198216637965db0b60e01b1480610bc457506301ffc9a760e01b6001600160e01b03198316145b92915050565b63ffffffff81166000908152600d602090815260408083203380855292529091205490610bfb9083908360016121a3565b610c3b5760405162461bcd60e51b815260206004820152600c60248201526b534c5f455f52455354414b4560a01b60448201526064015b60405180910390fd5b5050565b610c4833610ec8565b610c9f5760405162461bcd60e51b815260206004820152602260248201527f41636365737369626c653a2043616c6c6572206973206e6f7420616e2061646d60448201526134b760f11b6064820152608401610c32565b610cc97fdf8b4c520ffe197c5343c6f5aec59570151ef9a492f2c624fd45ddde6135ec4282610f32565b50565b610d0b6040518060c0016040528060008152602001600081526020016000815260200160008152602001600015158152602001600061ffff1681525090565b5063ffffffff9091166000908152600b602090815260408083206001600160a01b03909416835292815290829020825160c081018452815481526001820154928101929092526002810154928201929092526003820154606082015260049091015460ff81161515608083015261ffff6101009091041660a082015290565b63ffffffff8083166000818152600c602090815260408083206001600160a01b03871680855290835281842054948452600d835281842090845290915281205490929091839182919084165b81811015610ebd5763ffffffff88166000908152600c602090815260408083206001600160a01b038b1684529091528120805483908110610e1957610e196138d4565b6000918252602080832060408051606081018252939091015463ffffffff8116845264010000000081046001600160801b031692840192909252600160a01b90910460ff1615159082018190529092509003610eaa578363ffffffff16600003610e8257805193505b6020810151610e9a906001600160801b031688613900565b9650610ea7600186613913565b94505b5080610eb581613937565b915050610dd6565b505092959194509250565b6001600160a01b03811660009081527f5cbfc8ee58ca47855df7bcf648dd304ddb6b932f9b87878bdf6318d7ec7ee5b7602052604081205460ff16610bc4565b600082815260208190526040902060010154610f2381612650565b610f2d838361265a565b505050565b6001600160a01b0381163314610fb05760405162461bcd60e51b815260206004820152602f60248201527f416363657373436f6e74726f6c3a2063616e206f6e6c792072656e6f756e636560448201527f20726f6c657320666f722073656c6600000000000000000000000000000000006064820152608401610c32565b610c3b82826126f8565b600080610fc6836115fe565b604080820151600654606084015192516347b00fb360e11b81526101009091046001600160a01b03908116600483015292831660248201529293501690638f601f6690604401602060405180830381865afa925050508015611045575060408051601f3d908101601f1916820190925261104291810190613950565b60015b611083573d808015611073576040519150601f19603f3d011682016040523d82523d6000602084013e611078565b606091505b506000925050611086565b91505b50919050565b60006110de6110d5600085858080601f01602080910402602001604051908101604052809392919081815260200183838082843760009201919091525092939250506127779050565b61ffff166114ea565b6111215760405162461bcd60e51b81526020600482015260146024820152733737b716b932b3b4b9ba32b932b2103630bcb2b960611b6044820152606401610c32565b61112e8686868686612837565b9695505050505050565b6060601280548060200260200160405190810160405280929190818152602001828054801561119057602002820191906000526020600020905b81546001600160a01b03168152600190910190602001808311611172575b5050505050905090565b601160205260009081526040902080546111b3906138a0565b80601f01602080910402602001604051908101604052809291908181526020018280546111df906138a0565b801561122c5780601f106112015761010080835404028352916020019161122c565b820191906000526020600020905b81548152906001019060200180831161120f57829003601f168201915b505050505081565b600c602052826000526040600020602052816000526040600020818154811061125c57600080fd5b60009182526020909120015463ffffffff8116935064010000000081046001600160801b03169250600160a01b900460ff16905083565b61129c33610ec8565b6112f35760405162461bcd60e51b815260206004820152602260248201527f41636365737369626c653a2043616c6c6572206973206e6f7420616e2061646d60448201526134b760f11b6064820152608401610c32565b610cc97fdf8b4c520ffe197c5343c6f5aec59570151ef9a492f2c624fd45ddde6135ec4282610f08565b63ffffffff82166000908152600d60209081526040808320338085529252909120549061134d90849083856121a3565b610f2d5760405162461bcd60e51b815260206004820152600c60248201526b534c5f455f52455354414b4560a01b6044820152606401610c32565b61139133610ec8565b6113e85760405162461bcd60e51b815260206004820152602260248201527f41636365737369626c653a2043616c6c6572206973206e6f7420616e2061646d60448201526134b760f11b6064820152608401610c32565b6001600160a01b03811661143e5760405162461bcd60e51b815260206004820152601860248201527f41636365737369626c653a207a65726f206164647265737300000000000000006044820152606401610c32565b6001600160a01b03811633036114965760405162461bcd60e51b815260206004820152601660248201527f41636365737369626c653a2073616d652061646d696e000000000000000000006044820152606401610c32565b6114c07fdf8b4c520ffe197c5343c6f5aec59570151ef9a492f2c624fd45ddde6135ec4282610f08565b610cc97fdf8b4c520ffe197c5343c6f5aec59570151ef9a492f2c624fd45ddde6135ec4233610f32565b60085460405163370f791d60e11b815263ffffffff831660048201526000916001600160a01b031690636e1ef23a90602401602060405180830381865afa158015611539573d6000803e3d6000fd5b505050506040513d601f19601f8201168201806040525081019061155d9190613969565b6115a05760405162461bcd60e51b81526020600482015260146024820152733737b716b932b3b4b9ba32b932b2103630bcb2b960611b6044820152606401610c32565b506001919050565b6115b1826114ea565b6115f45760405162461bcd60e51b81526020600482015260146024820152733737b716b932b3b4b9ba32b932b2103630bcb2b960611b6044820152606401610c32565b610c3b8282612902565b60408051608081018252600080825260208201819052918101829052606081019190915263ffffffff821660009081526011602052604081208054611642906138a0565b80601f016020809104026020016040519081016040528092919081815260200182805461166e906138a0565b80156116bb5780601f10611690576101008083540402835291602001916116bb565b820191906000526020600020905b81548152906001019060200180831161169e57829003601f168201915b50505050509050604f81511115611086576040805160808101909152806116e3836000612968565b6001600160a01b031681526020016116fc836014612968565b6001600160a01b03168152602001611715836028612968565b6001600160a01b0316815260200161172e83603c612968565b6001600160a01b031690529392505050565b63ffffffff8083166000818152600c602090815260408083206001600160a01b03871680855290835281842054948452600d835281842090845290915281205490929091839183165b818110156118745763ffffffff87166000908152600c602090815260408083206001600160a01b038a16845290915281208054839081106117cc576117cc6138d4565b600091825260209182902060408051606081018252929091015463ffffffff811680845264010000000082046001600160801b031694840194909452600160a01b900460ff1615159082015291504311801561182a57506040810151155b1561185b576020810151611847906001600160801b031687613900565b9550611854600185613913565b9350611861565b50611874565b508061186c81613937565b915050611789565b50509250925092565b63ffffffff8116600090815260116020526040812080548291906118a0906138a0565b80601f01602080910402602001604051908101604052809291908181526020018280546118cc906138a0565b80156119195780601f106118ee57610100808354040283529160200191611919565b820191906000526020600020905b8154815290600101906020018083116118fc57829003601f168201915b5050505050905061193460008261296890919063ffffffff16565b60405163bf40fac160e01b815260206004820152600d60248201527f4f564d5f53657175656e6365720000000000000000000000000000000000000060448201526001600160a01b03919091169063bf40fac190606401602060405180830381865afa925050508015611045575060408051601f3d908101601f191682019092526110429181019061398b565b6008546040516346ccf0e560e11b815263ffffffff831660048201526000916001600160a01b031690638d99e1ca90602401602060405180830381865afa158015611a10573d6000803e3d6000fd5b505050506040513d601f19601f82011682018060405250810190610bc49190613950565b60075463ffffffff83166000908152600b602090815260408083206001600160a01b038681168552908352818420825160c081018452815481526001820154948101949094526002810154928401839052600381015460608501526004015460ff811615156080850152610100900461ffff1660a0909301929092529192169063cdf68009906040518263ffffffff1660e01b8152600401611ad891815260200190565b602060405180830381865afa158015611af5573d6000803e3d6000fd5b505050506040513d601f19601f82011682018060405250810190611b199190613950565b9392505050565b610c3b8282612a38565b60065460ff16611b655760405162461bcd60e51b8152600401610c32906020808252600490820152636c6f636b60e01b604082015260600190565b6006805460ff1916905563ffffffff81166000818152600c602090815260408083203380855290835281842054948452600d83528184208185529092528220549092919081905b83811015611c7e5763ffffffff86166000908152600c602090815260408083206001600160a01b03891684529091528120805483908110611bef57611bef6138d4565b600091825260209091200180549091504363ffffffff909116108015611c1e57508054600160a01b900460ff16155b15611c6557805460ff60a01b1916600160a01b17808255611c51906001600160801b036401000000009091041684613900565b925083611c5d81613937565b945050611c6b565b50611c7e565b5080611c7681613937565b915050611bac565b5060008111611ccf5760405162461bcd60e51b815260206004820181905260248201527f7a65726f20617661696c61626c65207769746864726177616c20616d6f756e746044820152606401610c32565b63ffffffff85166000908152600d602090815260408083206001600160a01b038816845290915281208054849290611d08908490613900565b909155505063ffffffff85166000908152600e602090815260408083206001600160a01b038816845290915281208054839290611d469084906139a8565b909155505063ffffffff85166000908152600f602052604081208054839290611d709084906139a8565b90915550506001600160a01b03841660009081526010602052604081208054839290611d9d9084906139a8565b90915550506006546040516370a0823160e01b815230600482015260009161010090046001600160a01b0316906370a0823190602401602060405180830381865afa158015611df0573d6000803e3d6000fd5b505050506040513d601f19601f82011682018060405250810190611e149190613950565b905081811015611ebf578015611e4057600654611e409061010090046001600160a01b03168683612e49565b6007546001600160a01b031663aad3ec9686611e5c84866139a8565b6040516001600160e01b031960e085901b1681526001600160a01b0390921660048301526024820152604401600060405180830381600087803b158015611ea257600080fd5b505af1158015611eb6573d6000803e3d6000fd5b50505050611edb565b600654611edb9061010090046001600160a01b03168684612e49565b6040805163ffffffff881681526001600160a01b03871660208201529081018390527f2d6eb139d2002caa088da5527d9d62f2f23bdf4504f5559a112535c436c6ee59906060015b60405180910390a150506006805460ff1916600117905550505050565b63ffffffff82166000818152600c602090815260408083206001600160a01b03861680855290835281842054948452600d835281842090845290915281205490818310611f9457611f9182846139a8565b90505b9250925092565b6008546040805163b969fbef60e01b815290516000926001600160a01b03169163b969fbef9160048083019260209291908290030181865afa158015611fe5573d6000803e3d6000fd5b505050506040513d601f19601f820116820180604052508101906120099190613950565b905090565b60008281526020819052604090206001015461202981612650565b610f2d83836126f8565b6008546000906001600160a01b031633146120905760405162461bcd60e51b815260206004820152601160248201527f6e6f74204c61796572324d616e616765720000000000000000000000000000006044820152606401610c32565b81516050146120e15760405162461bcd60e51b815260206004820152600f60248201527f77726f6e67206c61796572496e666f00000000000000000000000000000000006044820152606401610c32565b63ffffffff831660009081526011602052604090208054612101906138a0565b1590506121505760405162461bcd60e51b815260206004820152600f60248201527f616c7265616479206372656174656400000000000000000000000000000000006044820152606401610c32565b63ffffffff8316600090815260116020526040902061216f8382613a01565b5060019392505050565b6012818154811061218957600080fd5b6000918252602090912001546001600160a01b0316905081565b60065460009060ff166121e15760405162461bcd60e51b8152600401610c32906020808252600490820152636c6f636b60e01b604082015260600190565b6006805460ff1916905563ffffffff85166000908152600c602090815260408083206001600160a01b03881684529091528120548061224f5760405162461bcd60e51b815260206004820152600a6024820152696e6f20756e7374616b6560b01b6044820152606401610c32565b8361225a86836139a8565b10156122a85760405162461bcd60e51b815260206004820152601860248201527f6e2065786365656473206e756d206f662070656e64696e6700000000000000006044820152606401610c32565b60006122b48587613900565b90505b808610156123aa5763ffffffff88166000908152600c602090815260408083206001600160a01b038b16845290915281208054889081106122fa576122fa6138d4565b6000918252602090912001805490915064010000000081046001600160801b031690600160a01b900460ff16156123735760405162461bcd60e51b815260206004820152601260248201527f616c7265616479207769746864726177616c00000000000000000000000000006044820152606401610c32565b8015612386576123838186613900565b94505b50805460ff60a01b1916600160a01b179055856123a281613937565b9650506122b7565b600083116123fa5760405162461bcd60e51b815260206004820152601760248201527f6e6f2076616c69642072657374616b6520616d6f756e740000000000000000006044820152606401610c32565b600754604051636a2fb1f560e01b8152600481018590526000916001600160a01b031690636a2fb1f590602401602060405180830381865afa158015612444573d6000803e3d6000fd5b505050506040513d601f19601f820116820180604052508101906124689190613950565b63ffffffff8a166000908152600b602090815260408083206001600160a01b038d1684529091528120805492935091869183916124a6908490613900565b92505081905550818160020160008282546124c19190613900565b909155505063ffffffff8a166000908152600a6020526040812080548492906124eb908490613900565b9250508190555081600960008282546125049190613900565b909155505063ffffffff8a166000908152600e602090815260408083206001600160a01b038d168452909152812080548792906125429084906139a8565b909155505063ffffffff8a166000908152600f60205260408120805487929061256c9084906139a8565b90915550506001600160a01b038916600090815260106020526040812080548792906125999084906139a8565b909155505063ffffffff8a166000908152600d602090815260408083206001600160a01b038d168452909152812080548992906125d7908490613900565b90915550506040805163ffffffff8c1681526001600160a01b038b166020820152908101869052606081018390527f34981dc0486069d2abbaddbc42e10b97cb24e4bce60ee4457e1d5062dfc0b4299060800160405180910390a16001955050505050506006805460ff19166001179055949350505050565b610cc98133612f64565b6000828152602081815260408083206001600160a01b038516845290915290205460ff16610c3b576000828152602081815260408083206001600160a01b03851684529091529020805460ff191660011790556126b43390565b6001600160a01b0316816001600160a01b0316837f2f8788117e7eff1d82e926ec794901d17c78024a50270940304540a733656f0d60405160405180910390a45050565b6000828152602081815260408083206001600160a01b038516845290915290205460ff1615610c3b576000828152602081815260408083206001600160a01b0385168085529252808320805460ff1916905551339285917ff6391f5c32d9c69d2a47ea670b442974b53935d1edc7fd64eb21e047a839171b9190a45050565b600081612785816004613900565b10156127d35760405162461bcd60e51b815260206004820152601160248201527f746f55696e7431365f6f766572666c6f770000000000000000000000000000006044820152606401610c32565b6127de826004613900565b8351101561282e5760405162461bcd60e51b815260206004820152601460248201527f746f55696e7431365f6f75744f66426f756e64730000000000000000000000006044820152606401610c32565b50016004015190565b60065460009061010090046001600160a01b0316331461287e5760405162461bcd60e51b8152602060048201526002602482015261454160f01b6044820152606401610c32565b60006128c4600085858080601f01602080910402602001604051908101604052809392919081815260200183838082843760009201919091525092939250506127779050565b60065461ffff9190911691506128ea9061010090046001600160a01b0316883088612fd7565b6128f58188876130fb565b5060019695505050505050565b80806000036129385760405162461bcd60e51b81526020600482015260026024820152615a3160f01b6044820152606401610c32565b60065433906129579061010090046001600160a01b0316823086612fd7565b6129628482856130fb565b50505050565b600081612976816014613900565b10156129c45760405162461bcd60e51b815260206004820152601260248201527f746f416464726573735f6f766572666c6f7700000000000000000000000000006044820152606401610c32565b6129cf826014613900565b83511015612a1f5760405162461bcd60e51b815260206004820152601560248201527f746f416464726573735f6f75744f66426f756e647300000000000000000000006044820152606401610c32565b5001602001516c01000000000000000000000000900490565b60065460ff16612a735760405162461bcd60e51b8152600401610c32906020808252600490820152636c6f636b60e01b604082015260600190565b6006805460ff19169055806000819003612ab45760405162461bcd60e51b81526020600482015260026024820152615a3160f01b6044820152606401610c32565b60075460405163cdf6800960e01b81526004810184905233916000916001600160a01b039091169063cdf6800990602401602060405180830381865afa158015612b02573d6000803e3d6000fd5b505050506040513d601f19601f82011682018060405250810190612b269190613950565b63ffffffff86166000908152600b602090815260408083206001600160a01b03871684529091529020600281015491925090851115612b905760405162461bcd60e51b8152600401610c3290602080825260049082015263534c5f3160e01b604082015260600190565b84816002016000828254612ba491906139a8565b90915550508054821115612bbb5760008155612bd5565b81816000016000828254612bcf91906139a8565b90915550505b63ffffffff86166000908152600a602052604081208054879290612bfa9084906139a8565b925050819055508460096000828254612c1391906139a8565b909155505060085460408051636577b27360e11b815290516000926001600160a01b03169163caef64e69160048083019260209291908290030181865afa158015612c62573d6000803e3d6000fd5b505050506040513d601f19601f82011682018060405250810190612c869190613950565b63ffffffff88166000908152600c602090815260408083206001600160a01b03891684529091529081902081516060810190925291925080612cc88443613900565b63ffffffff90811682526001600160801b0380881660208085019190915260006040948501819052865460018101885596815281812086519701805487840151978701511515600160a01b0260ff60a01b19989095166401000000000273ffffffffffffffffffffffffffffffffffffffff19909116988616989098179790971795909516919091179094558a168252600e83528082206001600160a01b03881683529092529081208054859290612d81908490613900565b909155505063ffffffff87166000908152600f602052604081208054859290612dab908490613900565b90915550506001600160a01b03841660009081526010602052604081208054859290612dd8908490613900565b90915550506040805163ffffffff891681526001600160a01b0386166020820152908101849052606081018790527f869a01319d83bb921803a22e3e95d0cb8b08e708d3fb144e2c25a563bf8650d39060800160405180910390a150506006805460ff191660011790555050505050565b604080516001600160a01b038481166024830152604480830185905283518084039091018152606490920183526020820180516001600160e01b031663a9059cbb60e01b1790529151600092839290871691612ea59190613ac1565b6000604051808303816000865af19150503d8060008114612ee2576040519150601f19603f3d011682016040523d82523d6000602084013e612ee7565b606091505b5091509150818015612f11575080511580612f11575080806020019051810190612f119190613969565b612f5d5760405162461bcd60e51b815260206004820152600f60248201527f5452414e534645525f4641494c454400000000000000000000000000000000006044820152606401610c32565b5050505050565b6000828152602081815260408083206001600160a01b038516845290915290205460ff16610c3b57612f9581613350565b612fa0836020613362565b604051602001612fb1929190613add565b60408051601f198184030181529082905262461bcd60e51b8252610c329160040161374c565b604080516001600160a01b0385811660248301528481166044830152606480830185905283518084039091018152608490920183526020820180516001600160e01b03166323b872dd60e01b179052915160009283929088169161303b9190613ac1565b6000604051808303816000865af19150503d8060008114613078576040519150601f19603f3d011682016040523d82523d6000602084013e61307d565b606091505b50915091508180156130a75750805115806130a75750808060200190518101906130a79190613969565b6130f35760405162461bcd60e51b815260206004820152601460248201527f5452414e534645525f46524f4d5f4641494c45440000000000000000000000006044820152606401610c32565b505050505050565b60065460ff166131365760405162461bcd60e51b8152600401610c32906020808252600490820152636c6f636b60e01b604082015260600190565b6006805460ff191690558060008190036131775760405162461bcd60e51b81526020600482015260026024820152615a3160f01b6044820152606401610c32565b600754604051636a2fb1f560e01b8152600481018490526000916001600160a01b031690636a2fb1f590602401602060405180830381865afa1580156131c1573d6000803e3d6000fd5b505050506040513d601f19601f820116820180604052508101906131e59190613950565b63ffffffff86166000908152600b602090815260408083206001600160a01b0389168452909152902060048101549192509060ff1661328657600481018054600160ff1990911681179091556012805491820181556000527fbb8a6a4669ba250d26cd7a459eca9d215f8307e33aebe50379bc5a3617ec344401805473ffffffffffffffffffffffffffffffffffffffff19166001600160a01b0387161790555b8381600001600082825461329a9190613900565b92505081905550818160020160008282546132b59190613900565b909155505063ffffffff86166000908152600a6020526040812080548492906132df908490613900565b9250508190555081600960008282546132f89190613900565b90915550506040805163ffffffff881681526001600160a01b0387166020820152908101859052606081018390527fa2a62e1cc3e20f8692b7a85ee11f09e9c0f0c2cd028ba26400f65c7bd55361ee90608001611f23565b6060610bc46001600160a01b03831660145b60606000613371836002613b5e565b61337c906002613900565b67ffffffffffffffff811115613394576133946137c8565b6040519080825280601f01601f1916602001820160405280156133be576020820181803683370190505b509050600360fc1b816000815181106133d9576133d96138d4565b60200101906001600160f81b031916908160001a905350600f60fb1b81600181518110613408576134086138d4565b60200101906001600160f81b031916908160001a905350600061342c846002613b5e565b613437906001613900565b90505b60018111156134bc577f303132333435363738396162636465660000000000000000000000000000000085600f1660108110613478576134786138d4565b1a60f81b82828151811061348e5761348e6138d4565b60200101906001600160f81b031916908160001a90535060049490941c936134b581613b75565b905061343a565b508315611b195760405162461bcd60e51b815260206004820181905260248201527f537472696e67733a20686578206c656e67746820696e73756666696369656e746044820152606401610c32565b803563ffffffff8116811461351f57600080fd5b919050565b60006020828403121561353657600080fd5b611b198261350b565b60006020828403121561355157600080fd5b81356001600160e01b031981168114611b1957600080fd5b6001600160a01b0381168114610cc957600080fd5b60006020828403121561359057600080fd5b8135611b1981613569565b600080604083850312156135ae57600080fd5b6135b78361350b565b915060208301356135c781613569565b809150509250929050565b6000602082840312156135e457600080fd5b5035919050565b600080604083850312156135fe57600080fd5b8235915060208301356135c781613569565b60008060008060006080868803121561362857600080fd5b853561363381613569565b9450602086013561364381613569565b935060408601359250606086013567ffffffffffffffff8082111561366757600080fd5b818801915088601f83011261367b57600080fd5b81358181111561368a57600080fd5b89602082850101111561369c57600080fd5b9699959850939650602001949392505050565b6020808252825182820181905260009190848201906040850190845b818110156136f05783516001600160a01b0316835292840192918401916001016136cb565b50909695505050505050565b60005b838110156137175781810151838201526020016136ff565b50506000910152565b600081518084526137388160208601602086016136fc565b601f01601f19169290920160200192915050565b602081526000611b196020830184613720565b60008060006060848603121561377457600080fd5b61377d8461350b565b9250602084013561378d81613569565b929592945050506040919091013590565b600080604083850312156137b157600080fd5b6137ba8361350b565b946020939093013593505050565b634e487b7160e01b600052604160045260246000fd5b600080604083850312156137f157600080fd5b6137fa8361350b565b9150602083013567ffffffffffffffff8082111561381757600080fd5b818501915085601f83011261382b57600080fd5b81358181111561383d5761383d6137c8565b604051601f8201601f19908116603f01168101908382118183101715613865576138656137c8565b8160405282815288602084870101111561387e57600080fd5b8260208601602083013760006020848301015280955050505050509250929050565b600181811c908216806138b457607f821691505b60208210810361108657634e487b7160e01b600052602260045260246000fd5b634e487b7160e01b600052603260045260246000fd5b634e487b7160e01b600052601160045260246000fd5b80820180821115610bc457610bc46138ea565b63ffffffff818116838216019080821115613930576139306138ea565b5092915050565b600060018201613949576139496138ea565b5060010190565b60006020828403121561396257600080fd5b5051919050565b60006020828403121561397b57600080fd5b81518015158114611b1957600080fd5b60006020828403121561399d57600080fd5b8151611b1981613569565b81810381811115610bc457610bc46138ea565b601f821115610f2d57600081815260208120601f850160051c810160208610156139e25750805b601f850160051c820191505b818110156130f3578281556001016139ee565b815167ffffffffffffffff811115613a1b57613a1b6137c8565b613a2f81613a2984546138a0565b846139bb565b602080601f831160018114613a645760008415613a4c5750858301515b600019600386901b1c1916600185901b1785556130f3565b600085815260208120601f198616915b82811015613a9357888601518255948401946001909101908401613a74565b5085821015613ab15787850151600019600388901b60f8161c191681555b5050505050600190811b01905550565b60008251613ad38184602087016136fc565b9190910192915050565b7f416363657373436f6e74726f6c3a206163636f756e7420000000000000000000815260008351613b158160178501602088016136fc565b7f206973206d697373696e6720726f6c65200000000000000000000000000000006017918401918201528351613b528160288401602088016136fc565b01602801949350505050565b8082028115828204841417610bc457610bc46138ea565b600081613b8457613b846138ea565b50600019019056fea164736f6c6343000812000a",
  "linkReferences": {},
  "deployedLinkReferences": {}
}