{
  "_format": "hh-sol-artifact-1",
  "contractName": "OptimismSequencer",
  "sourceName": "contracts/OptimismSequencer.sol",
  "abi": [
    {
      "inputs": [],
      "stateMutability": "nonpayable",
      "type": "constructor"
    },
    {
      "anonymous": false,
      "inputs": [
        {
          "indexed": false,
          "internalType": "bytes32",
          "name": "hashMessage",
          "type": "bytes32"
        },
        {
          "indexed": false,
          "internalType": "uint32",
          "name": "layerIndex",
          "type": "uint32"
        },
        {
          "indexed": false,
          "internalType": "address",
          "name": "from",
          "type": "address"
        },
        {
          "indexed": false,
          "internalType": "address",
          "name": "to",
          "type": "address"
        },
        {
          "indexed": false,
          "internalType": "uint256",
          "name": "amount",
          "type": "uint256"
        }
      ],
      "name": "FastWithdrawalClaim",
      "type": "event"
    },
    {
      "anonymous": false,
      "inputs": [
        {
          "indexed": false,
          "internalType": "bytes32",
          "name": "hashMessage",
          "type": "bytes32"
        },
        {
          "indexed": false,
          "internalType": "uint32",
          "name": "layerIndex",
          "type": "uint32"
        },
        {
          "indexed": false,
          "internalType": "address",
          "name": "staker",
          "type": "address"
        },
        {
          "indexed": false,
          "internalType": "uint256",
          "name": "amount",
          "type": "uint256"
        },
        {
          "indexed": false,
          "internalType": "uint256",
          "name": "lton",
          "type": "uint256"
        }
      ],
      "name": "FastWithdrawalStaked",
      "type": "event"
    },
    {
      "anonymous": false,
      "inputs": [
        {
          "indexed": false,
          "internalType": "uint32",
          "name": "_index",
          "type": "uint32"
        },
        {
          "indexed": false,
          "internalType": "address",
          "name": "sender",
          "type": "address"
        },
        {
          "indexed": false,
          "internalType": "uint256",
          "name": "amount",
          "type": "uint256"
        },
        {
          "indexed": false,
          "internalType": "uint256",
          "name": "lton",
          "type": "uint256"
        }
      ],
      "name": "Restaked",
      "type": "event"
    },
    {
      "anonymous": false,
      "inputs": [
        {
          "indexed": true,
          "internalType": "bytes32",
          "name": "role",
          "type": "bytes32"
        },
        {
          "indexed": true,
          "internalType": "bytes32",
          "name": "previousAdminRole",
          "type": "bytes32"
        },
        {
          "indexed": true,
          "internalType": "bytes32",
          "name": "newAdminRole",
          "type": "bytes32"
        }
      ],
      "name": "RoleAdminChanged",
      "type": "event"
    },
    {
      "anonymous": false,
      "inputs": [
        {
          "indexed": true,
          "internalType": "bytes32",
          "name": "role",
          "type": "bytes32"
        },
        {
          "indexed": true,
          "internalType": "address",
          "name": "account",
          "type": "address"
        },
        {
          "indexed": true,
          "internalType": "address",
          "name": "sender",
          "type": "address"
        }
      ],
      "name": "RoleGranted",
      "type": "event"
    },
    {
      "anonymous": false,
      "inputs": [
        {
          "indexed": true,
          "internalType": "bytes32",
          "name": "role",
          "type": "bytes32"
        },
        {
          "indexed": true,
          "internalType": "address",
          "name": "account",
          "type": "address"
        },
        {
          "indexed": true,
          "internalType": "address",
          "name": "sender",
          "type": "address"
        }
      ],
      "name": "RoleRevoked",
      "type": "event"
    },
    {
      "anonymous": false,
      "inputs": [
        {
          "indexed": false,
          "internalType": "uint32",
          "name": "_index",
          "type": "uint32"
        },
        {
          "indexed": false,
          "internalType": "address",
          "name": "sender",
          "type": "address"
        },
        {
          "indexed": false,
          "internalType": "uint256",
          "name": "amount",
          "type": "uint256"
        },
        {
          "indexed": false,
          "internalType": "uint256",
          "name": "lton",
          "type": "uint256"
        },
        {
          "indexed": false,
          "internalType": "address",
          "name": "commissionTo",
          "type": "address"
        },
        {
          "indexed": false,
          "internalType": "uint16",
          "name": "commission",
          "type": "uint16"
        }
      ],
      "name": "Staked",
      "type": "event"
    },
    {
      "anonymous": false,
      "inputs": [
        {
          "indexed": false,
          "internalType": "uint32",
          "name": "_index",
          "type": "uint32"
        },
        {
          "indexed": false,
          "internalType": "address",
          "name": "sender",
          "type": "address"
        },
        {
          "indexed": false,
          "internalType": "uint256",
          "name": "amount",
          "type": "uint256"
        },
        {
          "indexed": false,
          "internalType": "uint256",
          "name": "lton",
          "type": "uint256"
        }
      ],
      "name": "Unstaked",
      "type": "event"
    },
    {
      "anonymous": false,
      "inputs": [
        {
          "indexed": false,
          "internalType": "uint32",
          "name": "_index",
          "type": "uint32"
        },
        {
          "indexed": false,
          "internalType": "address",
          "name": "sender",
          "type": "address"
        },
        {
          "indexed": false,
          "internalType": "uint256",
          "name": "amount",
          "type": "uint256"
        }
      ],
      "name": "Withdrawal",
      "type": "event"
    },
    {
      "inputs": [],
      "name": "ADMIN_ROLE",
      "outputs": [
        {
          "internalType": "bytes32",
          "name": "",
          "type": "bytes32"
        }
      ],
      "stateMutability": "view",
      "type": "function"
    },
    {
      "inputs": [],
      "name": "DEFAULT_ADMIN_ROLE",
      "outputs": [
        {
          "internalType": "bytes32",
          "name": "",
          "type": "bytes32"
        }
      ],
      "stateMutability": "view",
      "type": "function"
    },
    {
      "inputs": [
        {
          "internalType": "address",
          "name": "addressManager",
          "type": "address"
        }
      ],
      "name": "L1CrossDomainMessenger",
      "outputs": [
        {
          "internalType": "address",
          "name": "account_",
          "type": "address"
        }
      ],
      "stateMutability": "view",
      "type": "function"
    },
    {
      "inputs": [
        {
          "internalType": "address",
          "name": "addressManager",
          "type": "address"
        }
      ],
      "name": "L1StandardBridge",
      "outputs": [
        {
          "internalType": "address",
          "name": "account_",
          "type": "address"
        }
      ],
      "stateMutability": "view",
      "type": "function"
    },
    {
      "inputs": [],
      "name": "POLICY_ROLE",
      "outputs": [
        {
          "internalType": "bytes32",
          "name": "",
          "type": "bytes32"
        }
      ],
      "stateMutability": "view",
      "type": "function"
    },
    {
      "inputs": [
        {
          "internalType": "address",
          "name": "account",
          "type": "address"
        }
      ],
      "name": "addAdmin",
      "outputs": [],
      "stateMutability": "nonpayable",
      "type": "function"
    },
    {
      "inputs": [
        {
          "internalType": "address",
          "name": "",
          "type": "address"
        }
      ],
      "name": "aliveImplementation",
      "outputs": [
        {
          "internalType": "bool",
          "name": "",
          "type": "bool"
        }
      ],
      "stateMutability": "view",
      "type": "function"
    },
    {
      "inputs": [
        {
          "internalType": "uint32",
          "name": "layerIndex",
          "type": "uint32"
        },
        {
          "internalType": "address",
          "name": "account",
          "type": "address"
        }
      ],
      "name": "amountOfPendings",
      "outputs": [
        {
          "internalType": "uint256",
          "name": "amount",
          "type": "uint256"
        },
        {
          "internalType": "uint32",
          "name": "startIndex",
          "type": "uint32"
        },
        {
          "internalType": "uint32",
          "name": "len",
          "type": "uint32"
        },
        {
          "internalType": "uint32",
          "name": "nextWithdrawableBlockNumber",
          "type": "uint32"
        }
      ],
      "stateMutability": "view",
      "type": "function"
    },
    {
      "inputs": [
        {
          "internalType": "uint32",
          "name": "_index",
          "type": "uint32"
        },
        {
          "internalType": "address",
          "name": "account",
          "type": "address"
        }
      ],
      "name": "availableWithdraw",
      "outputs": [
        {
          "internalType": "uint256",
          "name": "amount",
          "type": "uint256"
        },
        {
          "internalType": "uint32",
          "name": "startIndex",
          "type": "uint32"
        },
        {
          "internalType": "uint32",
          "name": "len",
          "type": "uint32"
        }
      ],
      "stateMutability": "view",
      "type": "function"
    },
    {
      "inputs": [
        {
          "internalType": "uint32",
          "name": "_index",
          "type": "uint32"
        },
        {
          "internalType": "address",
          "name": "account",
          "type": "address"
        }
      ],
      "name": "balanceOf",
      "outputs": [
        {
          "internalType": "uint256",
          "name": "amount",
          "type": "uint256"
        }
      ],
      "stateMutability": "view",
      "type": "function"
    },
    {
      "inputs": [
        {
          "internalType": "uint32",
          "name": "_index",
          "type": "uint32"
        },
        {
          "internalType": "address",
          "name": "account",
          "type": "address"
        }
      ],
      "name": "balanceOfLton",
      "outputs": [
        {
          "internalType": "uint256",
          "name": "amount",
          "type": "uint256"
        }
      ],
      "stateMutability": "view",
      "type": "function"
    },
    {
      "inputs": [
        {
          "internalType": "uint32",
          "name": "_index",
          "type": "uint32"
        }
      ],
      "name": "balanceOfLton",
      "outputs": [
        {
          "internalType": "uint256",
          "name": "amount",
          "type": "uint256"
        }
      ],
      "stateMutability": "view",
      "type": "function"
    },
    {
      "inputs": [
        {
          "internalType": "uint32",
          "name": "_index",
          "type": "uint32"
        }
      ],
      "name": "bridges",
      "outputs": [
        {
          "internalType": "address",
          "name": "",
          "type": "address"
        },
        {
          "internalType": "address",
          "name": "",
          "type": "address"
        }
      ],
      "stateMutability": "view",
      "type": "function"
    },
    {
      "inputs": [
        {
          "internalType": "uint32",
          "name": "_index",
          "type": "uint32"
        },
        {
          "internalType": "bytes",
          "name": "_layerInfo",
          "type": "bytes"
        }
      ],
      "name": "create",
      "outputs": [
        {
          "internalType": "bool",
          "name": "",
          "type": "bool"
        }
      ],
      "stateMutability": "nonpayable",
      "type": "function"
    },
    {
      "inputs": [
        {
          "internalType": "uint32",
          "name": "_index",
          "type": "uint32"
        }
      ],
      "name": "existedIndex",
      "outputs": [
        {
          "internalType": "bool",
          "name": "",
          "type": "bool"
        }
      ],
      "stateMutability": "view",
      "type": "function"
    },
    {
      "inputs": [
        {
          "internalType": "bytes32",
          "name": "hashMessage",
          "type": "bytes32"
        },
        {
          "internalType": "uint32",
          "name": "layerIndex",
          "type": "uint32"
        },
        {
          "internalType": "address",
          "name": "from",
          "type": "address"
        },
        {
          "internalType": "address",
          "name": "to",
          "type": "address"
        },
        {
          "internalType": "uint256",
          "name": "amount",
          "type": "uint256"
        }
      ],
      "name": "fastWithdrawClaim",
      "outputs": [
        {
          "internalType": "bool",
          "name": "",
          "type": "bool"
        }
      ],
      "stateMutability": "nonpayable",
      "type": "function"
    },
    {
      "inputs": [
        {
          "internalType": "bytes32",
          "name": "hashMessage",
          "type": "bytes32"
        },
        {
          "internalType": "uint32",
          "name": "layerIndex",
          "type": "uint32"
        },
        {
          "internalType": "address",
          "name": "staker",
          "type": "address"
        },
        {
          "internalType": "uint256",
          "name": "_amount",
          "type": "uint256"
        }
      ],
      "name": "fastWithdrawStake",
      "outputs": [
        {
          "internalType": "bool",
          "name": "",
          "type": "bool"
        }
      ],
      "stateMutability": "nonpayable",
      "type": "function"
    },
    {
      "inputs": [],
      "name": "fwReceipt",
      "outputs": [
        {
          "internalType": "address",
          "name": "",
          "type": "address"
        }
      ],
      "stateMutability": "view",
      "type": "function"
    },
    {
      "inputs": [
        {
          "internalType": "uint32",
          "name": "_index",
          "type": "uint32"
        }
      ],
      "name": "getLayerInfo",
      "outputs": [
        {
          "components": [
            {
              "internalType": "address",
              "name": "addressManager",
              "type": "address"
            },
            {
              "internalType": "address",
              "name": "l1Bridge",
              "type": "address"
            },
            {
              "internalType": "address",
              "name": "l2Bridge",
              "type": "address"
            },
            {
              "internalType": "address",
              "name": "l2ton",
              "type": "address"
            }
          ],
          "internalType": "struct LibOptimism.Info",
          "name": "_layerInfo",
          "type": "tuple"
        }
      ],
      "stateMutability": "view",
      "type": "function"
    },
    {
      "inputs": [
        {
          "internalType": "uint32",
          "name": "_index",
          "type": "uint32"
        }
      ],
      "name": "getLayerKey",
      "outputs": [
        {
          "internalType": "bytes32",
          "name": "layerKey_",
          "type": "bytes32"
        }
      ],
      "stateMutability": "view",
      "type": "function"
    },
    {
      "inputs": [
        {
          "internalType": "uint32",
          "name": "_index",
          "type": "uint32"
        },
        {
          "internalType": "address",
          "name": "account",
          "type": "address"
        }
      ],
      "name": "getLayerStakes",
      "outputs": [
        {
          "components": [
            {
              "internalType": "uint256",
              "name": "stakePrincipal",
              "type": "uint256"
            },
            {
              "internalType": "uint256",
              "name": "bondPrincipal",
              "type": "uint256"
            },
            {
              "internalType": "uint256",
              "name": "stakelton",
              "type": "uint256"
            },
            {
              "internalType": "bool",
              "name": "stake",
              "type": "bool"
            }
          ],
          "internalType": "struct LibStake.StakeInfo",
          "name": "info",
          "type": "tuple"
        }
      ],
      "stateMutability": "view",
      "type": "function"
    },
    {
      "inputs": [
        {
          "internalType": "uint32",
          "name": "_index",
          "type": "uint32"
        },
        {
          "internalType": "address",
          "name": "account",
          "type": "address"
        }
      ],
      "name": "getPendingUnstakedAmount",
      "outputs": [
        {
          "internalType": "uint256",
          "name": "",
          "type": "uint256"
        }
      ],
      "stateMutability": "view",
      "type": "function"
    },
    {
      "inputs": [
        {
          "internalType": "bytes32",
          "name": "role",
          "type": "bytes32"
        }
      ],
      "name": "getRoleAdmin",
      "outputs": [
        {
          "internalType": "bytes32",
          "name": "",
          "type": "bytes32"
        }
      ],
      "stateMutability": "view",
      "type": "function"
    },
    {
      "inputs": [],
      "name": "getStakeAccountList",
      "outputs": [
        {
          "internalType": "address[]",
          "name": "",
          "type": "address[]"
        }
      ],
      "stateMutability": "view",
      "type": "function"
    },
    {
      "inputs": [],
      "name": "getTotalLton",
      "outputs": [
        {
          "internalType": "uint256",
          "name": "",
          "type": "uint256"
        }
      ],
      "stateMutability": "view",
      "type": "function"
    },
    {
      "inputs": [
        {
          "internalType": "uint32",
          "name": "_index",
          "type": "uint32"
        }
      ],
      "name": "getTvl",
      "outputs": [
        {
          "internalType": "uint256",
          "name": "amount",
          "type": "uint256"
        }
      ],
      "stateMutability": "view",
      "type": "function"
    },
    {
      "inputs": [
        {
          "internalType": "address",
          "name": "l1Bridge",
          "type": "address"
        },
        {
          "internalType": "address",
          "name": "l2ton",
          "type": "address"
        }
      ],
      "name": "getTvl",
      "outputs": [
        {
          "internalType": "uint256",
          "name": "amount",
          "type": "uint256"
        }
      ],
      "stateMutability": "view",
      "type": "function"
    },
    {
      "inputs": [
        {
          "internalType": "bytes32",
          "name": "role",
          "type": "bytes32"
        },
        {
          "internalType": "address",
          "name": "account",
          "type": "address"
        }
      ],
      "name": "grantRole",
      "outputs": [],
      "stateMutability": "nonpayable",
      "type": "function"
    },
    {
      "inputs": [
        {
          "internalType": "bytes32",
          "name": "role",
          "type": "bytes32"
        },
        {
          "internalType": "address",
          "name": "account",
          "type": "address"
        }
      ],
      "name": "hasRole",
      "outputs": [
        {
          "internalType": "bool",
          "name": "",
          "type": "bool"
        }
      ],
      "stateMutability": "view",
      "type": "function"
    },
    {
      "inputs": [
        {
          "internalType": "address",
          "name": "account",
          "type": "address"
        }
      ],
      "name": "isAdmin",
      "outputs": [
        {
          "internalType": "bool",
          "name": "",
          "type": "bool"
        }
      ],
      "stateMutability": "view",
      "type": "function"
    },
    {
      "inputs": [
        {
          "internalType": "uint32",
          "name": "_index",
          "type": "uint32"
        }
      ],
      "name": "layer2Deposits",
      "outputs": [
        {
          "internalType": "uint256",
          "name": "amount",
          "type": "uint256"
        }
      ],
      "stateMutability": "view",
      "type": "function"
    },
    {
      "inputs": [],
      "name": "layer2Manager",
      "outputs": [
        {
          "internalType": "address",
          "name": "",
          "type": "address"
        }
      ],
      "stateMutability": "view",
      "type": "function"
    },
    {
      "inputs": [
        {
          "internalType": "uint32",
          "name": "",
          "type": "uint32"
        }
      ],
      "name": "layerInfo",
      "outputs": [
        {
          "internalType": "bytes",
          "name": "",
          "type": "bytes"
        }
      ],
      "stateMutability": "view",
      "type": "function"
    },
    {
      "inputs": [
        {
          "internalType": "uint32",
          "name": "",
          "type": "uint32"
        }
      ],
      "name": "layerStakedLton",
      "outputs": [
        {
          "internalType": "uint256",
          "name": "",
          "type": "uint256"
        }
      ],
      "stateMutability": "view",
      "type": "function"
    },
    {
      "inputs": [
        {
          "internalType": "uint32",
          "name": "",
          "type": "uint32"
        },
        {
          "internalType": "address",
          "name": "",
          "type": "address"
        }
      ],
      "name": "layerStakes",
      "outputs": [
        {
          "internalType": "uint256",
          "name": "stakePrincipal",
          "type": "uint256"
        },
        {
          "internalType": "uint256",
          "name": "bondPrincipal",
          "type": "uint256"
        },
        {
          "internalType": "uint256",
          "name": "stakelton",
          "type": "uint256"
        },
        {
          "internalType": "bool",
          "name": "stake",
          "type": "bool"
        }
      ],
      "stateMutability": "view",
      "type": "function"
    },
    {
      "inputs": [
        {
          "internalType": "uint32",
          "name": "layerIndex",
          "type": "uint32"
        },
        {
          "internalType": "address",
          "name": "account",
          "type": "address"
        }
      ],
      "name": "numberOfPendings",
      "outputs": [
        {
          "internalType": "uint256",
          "name": "totalRequests",
          "type": "uint256"
        },
        {
          "internalType": "uint256",
          "name": "withdrawIndex",
          "type": "uint256"
        },
        {
          "internalType": "uint256",
          "name": "pendingLength",
          "type": "uint256"
        }
      ],
      "stateMutability": "view",
      "type": "function"
    },
    {
      "inputs": [
        {
          "internalType": "address",
          "name": "sender",
          "type": "address"
        },
        {
          "internalType": "address",
          "name": "spender",
          "type": "address"
        },
        {
          "internalType": "uint256",
          "name": "amount",
          "type": "uint256"
        },
        {
          "internalType": "bytes",
          "name": "data",
          "type": "bytes"
        }
      ],
      "name": "onApprove",
      "outputs": [
        {
          "internalType": "bool",
          "name": "",
          "type": "bool"
        }
      ],
      "stateMutability": "nonpayable",
      "type": "function"
    },
    {
      "inputs": [],
      "name": "pauseProxy",
      "outputs": [
        {
          "internalType": "bool",
          "name": "",
          "type": "bool"
        }
      ],
      "stateMutability": "view",
      "type": "function"
    },
    {
      "inputs": [
        {
          "internalType": "uint32",
          "name": "",
          "type": "uint32"
        },
        {
          "internalType": "address",
          "name": "",
          "type": "address"
        }
      ],
      "name": "pendingUnstaked",
      "outputs": [
        {
          "internalType": "uint256",
          "name": "",
          "type": "uint256"
        }
      ],
      "stateMutability": "view",
      "type": "function"
    },
    {
      "inputs": [
        {
          "internalType": "address",
          "name": "",
          "type": "address"
        }
      ],
      "name": "pendingUnstakedAccount",
      "outputs": [
        {
          "internalType": "uint256",
          "name": "",
          "type": "uint256"
        }
      ],
      "stateMutability": "view",
      "type": "function"
    },
    {
      "inputs": [
        {
          "internalType": "uint32",
          "name": "",
          "type": "uint32"
        }
      ],
      "name": "pendingUnstakedLayer2",
      "outputs": [
        {
          "internalType": "uint256",
          "name": "",
          "type": "uint256"
        }
      ],
      "stateMutability": "view",
      "type": "function"
    },
    {
      "inputs": [
        {
          "internalType": "uint256",
          "name": "",
          "type": "uint256"
        }
      ],
      "name": "proxyImplementation",
      "outputs": [
        {
          "internalType": "address",
          "name": "",
          "type": "address"
        }
      ],
      "stateMutability": "view",
      "type": "function"
    },
    {
      "inputs": [
        {
          "internalType": "address",
          "name": "account",
          "type": "address"
        }
      ],
      "name": "removeAdmin",
      "outputs": [],
      "stateMutability": "nonpayable",
      "type": "function"
    },
    {
      "inputs": [
        {
          "internalType": "bytes32",
          "name": "role",
          "type": "bytes32"
        },
        {
          "internalType": "address",
          "name": "account",
          "type": "address"
        }
      ],
      "name": "renounceRole",
      "outputs": [],
      "stateMutability": "nonpayable",
      "type": "function"
    },
    {
      "inputs": [
        {
          "internalType": "uint32",
          "name": "_index",
          "type": "uint32"
        }
      ],
      "name": "restake",
      "outputs": [],
      "stateMutability": "nonpayable",
      "type": "function"
    },
    {
      "inputs": [
        {
          "internalType": "uint32",
          "name": "_index",
          "type": "uint32"
        },
        {
          "internalType": "uint256",
          "name": "n",
          "type": "uint256"
        }
      ],
      "name": "restakeMulti",
      "outputs": [],
      "stateMutability": "nonpayable",
      "type": "function"
    },
    {
      "inputs": [
        {
          "internalType": "bytes32",
          "name": "role",
          "type": "bytes32"
        },
        {
          "internalType": "address",
          "name": "account",
          "type": "address"
        }
      ],
      "name": "revokeRole",
      "outputs": [],
      "stateMutability": "nonpayable",
      "type": "function"
    },
    {
      "inputs": [],
      "name": "seigManagerV2",
      "outputs": [
        {
          "internalType": "address",
          "name": "",
          "type": "address"
        }
      ],
      "stateMutability": "view",
      "type": "function"
    },
    {
      "inputs": [
        {
          "internalType": "bytes4",
          "name": "",
          "type": "bytes4"
        }
      ],
      "name": "selectorImplementation",
      "outputs": [
        {
          "internalType": "address",
          "name": "",
          "type": "address"
        }
      ],
      "stateMutability": "view",
      "type": "function"
    },
    {
      "inputs": [
        {
          "internalType": "address",
          "name": "addressManager",
          "type": "address"
        }
      ],
      "name": "sequencer",
      "outputs": [
        {
          "internalType": "address",
          "name": "sequencer_",
          "type": "address"
        }
      ],
      "stateMutability": "view",
      "type": "function"
    },
    {
      "inputs": [
        {
          "internalType": "uint32",
          "name": "_index",
          "type": "uint32"
        }
      ],
      "name": "sequencer",
      "outputs": [
        {
          "internalType": "address",
          "name": "sequencer_",
          "type": "address"
        }
      ],
      "stateMutability": "view",
      "type": "function"
    },
    {
      "inputs": [
        {
          "internalType": "uint32",
          "name": "_index",
          "type": "uint32"
        },
        {
          "internalType": "uint256",
          "name": "amount",
          "type": "uint256"
        }
      ],
      "name": "stake",
      "outputs": [],
      "stateMutability": "nonpayable",
      "type": "function"
    },
    {
      "inputs": [
        {
          "internalType": "uint256",
          "name": "",
          "type": "uint256"
        }
      ],
      "name": "stakeAccountList",
      "outputs": [
        {
          "internalType": "address",
          "name": "",
          "type": "address"
        }
      ],
      "stateMutability": "view",
      "type": "function"
    },
    {
      "inputs": [
        {
          "internalType": "bytes4",
          "name": "interfaceId",
          "type": "bytes4"
        }
      ],
      "name": "supportsInterface",
      "outputs": [
        {
          "internalType": "bool",
          "name": "",
          "type": "bool"
        }
      ],
      "stateMutability": "view",
      "type": "function"
    },
    {
      "inputs": [],
      "name": "ton",
      "outputs": [
        {
          "internalType": "address",
          "name": "",
          "type": "address"
        }
      ],
      "stateMutability": "view",
      "type": "function"
    },
    {
      "inputs": [],
      "name": "totalLayer2Deposits",
      "outputs": [
        {
          "internalType": "uint256",
          "name": "amount",
          "type": "uint256"
        }
      ],
      "stateMutability": "view",
      "type": "function"
    },
    {
      "inputs": [],
      "name": "totalStakeAccountList",
      "outputs": [
        {
          "internalType": "uint256",
          "name": "",
          "type": "uint256"
        }
      ],
      "stateMutability": "view",
      "type": "function"
    },
    {
      "inputs": [],
      "name": "totalStakedLton",
      "outputs": [
        {
          "internalType": "uint256",
          "name": "",
          "type": "uint256"
        }
      ],
      "stateMutability": "view",
      "type": "function"
    },
    {
      "inputs": [
        {
          "internalType": "address",
          "name": "newAdmin",
          "type": "address"
        }
      ],
      "name": "transferAdmin",
      "outputs": [],
      "stateMutability": "nonpayable",
      "type": "function"
    },
    {
      "inputs": [
        {
          "internalType": "uint32",
          "name": "_index",
          "type": "uint32"
        },
        {
          "internalType": "uint256",
          "name": "lton_",
          "type": "uint256"
        }
      ],
      "name": "unstake",
      "outputs": [],
      "stateMutability": "nonpayable",
      "type": "function"
    },
    {
      "inputs": [
        {
          "internalType": "uint32",
          "name": "_index",
          "type": "uint32"
        }
      ],
      "name": "withdraw",
      "outputs": [],
      "stateMutability": "nonpayable",
      "type": "function"
    },
    {
      "inputs": [
        {
          "internalType": "uint32",
          "name": "",
          "type": "uint32"
        },
        {
          "internalType": "address",
          "name": "",
          "type": "address"
        }
      ],
      "name": "withdrawalRequestIndex",
      "outputs": [
        {
          "internalType": "uint256",
          "name": "",
          "type": "uint256"
        }
      ],
      "stateMutability": "view",
      "type": "function"
    },
    {
      "inputs": [
        {
          "internalType": "uint32",
          "name": "",
          "type": "uint32"
        },
        {
          "internalType": "address",
          "name": "",
          "type": "address"
        },
        {
          "internalType": "uint256",
          "name": "",
          "type": "uint256"
        }
      ],
      "name": "withdrawalRequests",
      "outputs": [
        {
          "internalType": "uint32",
          "name": "withdrawableBlockNumber",
          "type": "uint32"
        },
        {
          "internalType": "uint128",
          "name": "amount",
          "type": "uint128"
        },
        {
          "internalType": "bool",
          "name": "processed",
          "type": "bool"
        }
      ],
      "stateMutability": "view",
      "type": "function"
    }
  ],
  "bytecode": "0x60806040526006805460ff1916600117905534801561001d57600080fd5b506147118061002d6000396000f3fe608060405234801561001057600080fd5b50600436106103c55760003560e01c806375829def116101ff578063a0b2a9131161011a578063b969fbef116100ad578063d547741f1161007c578063d547741f14610b49578063df2b429014610b5c578063ec110d4514610b6f578063edcc217714610b8257600080fd5b8063b969fbef14610af6578063b9cab97114610afe578063cc48b94714610b1e578063d07918f114610b3657600080fd5b8063aa9224cd116100e9578063aa9224cd14610a84578063b413b37a14610a97578063b6a2f99d14610a9f578063b911135f14610acd57600080fd5b8063a0b2a91314610a36578063a217fddf14610a56578063a2dc9e0214610a5e578063a4c735ef14610a7157600080fd5b80638c71762d1161019257806391d148541161016157806391d148541461097457806394c89b2c146109ab5780639c2f614f146109be5780639c656e26146109d157600080fd5b80638c71762d146108db5780638d1f3d0a146109105780638d99e1ca146109235780638ddd87fe1461093657600080fd5b80637ec6840f116101ce5780637ec6840f1461083957806385b9e4851461084c5780638afec9fc1461085f5780638c6f1b391461088557600080fd5b806375829def146107c157806375b238fc146107d45780637cf1587c146107fb5780637d211a1c1461082657600080fd5b806346bcdb49116102ef57806363a8fd891161028257806370619cf91161025157806370619cf9146107685780637138c7921461078857806373469a7a1461079b578063744a3561146107ae57600080fd5b806363a8fd89146106e9578063659ab820146106f65780636d1ef10314610716578063704802751461075557600080fd5b8063550d01a3116102be578063550d01a3146106185780635d0c7b2b1461063b5780635e2cfe451461064e5780635f1b989e1461067957600080fd5b806346bcdb49146105c95780634de131ca146105d15780634e1a264d146105e657806350d2a276146105ef57600080fd5b80631f760d01116103675780632f2ff15d116103365780632f2ff15d1461057d57806336568abe1461059057806341e5dbe8146105a35780634273ca16146105b657600080fd5b80631f760d01146104e15780632298524614610520578063248a9ca31461054757806324d7806c1461056a57600080fd5b8063118e29d1116103a3578063118e29d11461044657806316b5d5bd1461045b5780631785f53c146104865780631ed944951461049957600080fd5b80630116cc65146103ca57806301ffc9a7146103f05780630b8931cb14610413575b600080fd5b6103dd6103d8366004613e22565b610b95565b6040519081526020015b60405180910390f35b6104036103fe366004613e3d565b610bc6565b60405190151581526020016103e7565b610426610421366004613e22565b610bfd565b604080516001600160a01b039384168152929091166020830152016103e7565b610459610454366004613e22565b610ca3565b005b60085461046e906001600160a01b031681565b6040516001600160a01b0390911681526020016103e7565b610459610494366004613e7c565b610d18565b6104ac6104a7366004613e99565b610da5565b6040516103e7919081518152602080830151908201526040808301519082015260609182015115159181019190915260800190565b6104f46104ef366004613e99565b610e37565b6040805194855263ffffffff9384166020860152918316918401919091521660608201526080016103e7565b6103dd7ffb5864e8ff833c3cb2d2d08505e82ff02a43554c74a35d4f5a64e8526127831181565b6103dd610555366004613ed0565b60009081526020819052604090206001015490565b610403610578366004613e7c565b610f75565b61045961058b366004613ee9565b610fb5565b61045961059e366004613ee9565b610fdf565b6103dd6105b1366004613e22565b611067565b6104036105c4366004613f0e565b611140565b6013546103dd565b6105d9611297565b6040516103e79190613fad565b6103dd600a5481565b61046e6105fd366004613e3d565b6004602052600090815260409020546001600160a01b031681565b610403610626366004613e7c565b60036020526000908152604090205460ff1681565b61046e610649366004613e7c565b6112f9565b6103dd61065c366004613e99565b600f60209081526000928352604080842090915290825290205481565b6103dd610687366004613e99565b63ffffffff9091166000908152600c602090815260408083206001600160a01b0390941683529281529082902082516080810184528154815260018201549281019290925260028101549282018390526003015460ff16151560609091015290565b6001546104039060ff1681565b610709610704366004613e22565b6113c0565b6040516103e7919061404a565b61072961072436600461405d565b61145a565b6040805163ffffffff90941684526001600160801b0390921660208401521515908201526060016103e7565b610459610763366004613e7c565b6114b9565b6103dd610776366004613e22565b600b6020526000908152604090205481565b61040361079636600461409c565b611543565b60075461046e906001600160a01b031681565b6104596107bc3660046140e2565b61170b565b6104596107cf366004613e7c565b611776565b6103dd7fdf8b4c520ffe197c5343c6f5aec59570151ef9a492f2c624fd45ddde6135ec4281565b6103dd610809366004613e99565b600e60209081526000928352604080842090915290825290205481565b610403610834366004613e22565b6118d8565b6104596108473660046140e2565b611996565b61040361085a36600461410c565b6119ef565b6103dd61086d366004613e22565b63ffffffff166000908152600b602052604090205490565b610898610893366004613e22565b611c8a565b6040516103e7919081516001600160a01b039081168252602080840151821690830152604080840151821690830152606092830151169181019190915260800190565b6108ee6108e9366004613e99565b611d35565b6040805193845263ffffffff92831660208501529116908201526060016103e7565b61046e61091e366004613e22565b611e72565b6103dd610931366004613e22565b612022565b6103dd610944366004613e99565b63ffffffff82166000908152600f602090815260408083206001600160a01b038516845290915290205492915050565b610403610982366004613ee9565b6000918252602082815260408084206001600160a01b0393909316845291905290205460ff1690565b6103dd6109b9366004613e99565b612095565b6104596109cc3660046140e2565b612168565b610a146109df366004613e99565b600c60209081526000928352604080842090915290825290208054600182015460028301546003909301549192909160ff1684565b60408051948552602085019390935291830152151560608201526080016103e7565b6103dd610a44366004613e7c565b60116020526000908152604090205481565b6103dd600081565b61046e610a6c366004613e7c565b6121f2565b61046e610a7f366004613e7c565b612264565b610459610a92366004613e22565b6122c1565b600a546103dd565b610ab2610aad366004613e99565b6126d6565b604080519384526020840192909252908201526060016103e7565b61046e610adb366004613ed0565b6002602052600090815260409020546001600160a01b031681565b6103dd612731565b6103dd610b0c366004613e22565b60106020526000908152604090205481565b60065461046e9061010090046001600160a01b031681565b60095461046e906001600160a01b031681565b610459610b57366004613ee9565b6127a4565b610403610b6a3660046141ac565b6127c9565b61046e610b7d366004613ed0565b61290f565b6103dd610b90366004614252565b612939565b63ffffffff81166000908152601260205260408082209051610bb791906142a4565b60405180910390209050919050565b60006001600160e01b03198216637965db0b60e01b1480610bf757506301ffc9a760e01b6001600160e01b03198316145b92915050565b63ffffffff8116600090815260126020526040808220905163186ca86f60e21b81528291829173__$35081dc60fc26376aafbbba403b8b17c43$__916361b2a1bc91610c4c919060040161431a565b608060405180830381865af4158015610c69573d6000803e3d6000fd5b505050506040513d601f19601f82011682018060405250810190610c8d91906143a5565b9050806020015181604001519250925050915091565b63ffffffff81166000908152600e602090815260408083203380855292529091205490610cd49083908360016129ec565b610d145760405162461bcd60e51b815260206004820152600c60248201526b534c5f455f52455354414b4560a01b60448201526064015b60405180910390fd5b5050565b610d2133610f75565b610d785760405162461bcd60e51b815260206004820152602260248201527f41636365737369626c653a2043616c6c6572206973206e6f7420616e2061646d60448201526134b760f11b6064820152608401610d0b565b610da27fdf8b4c520ffe197c5343c6f5aec59570151ef9a492f2c624fd45ddde6135ec4282610fdf565b50565b610dd260405180608001604052806000815260200160008152602001600081526020016000151581525090565b5063ffffffff9091166000908152600c602090815260408083206001600160a01b0390941683529281529082902082516080810184528154815260018201549281019290925260028101549282019290925260039091015460ff161515606082015290565b63ffffffff8083166000818152600d602090815260408083206001600160a01b03871680855290835281842054948452600e835281842090845290915281205490929091839182919084165b81811015610f6a5763ffffffff88166000908152600d602090815260408083206001600160a01b038b1684529091528120805483908110610ec657610ec661442a565b6000918252602080832060408051606081018252939091015463ffffffff8116845264010000000081046001600160801b031692840192909252600160a01b90910460ff1615159082018190529092509003610f57578363ffffffff16600003610f2f57805193505b6020810151610f47906001600160801b031688614456565b9650610f54600186614469565b94505b5080610f628161448d565b915050610e83565b505092959194509250565b6001600160a01b03811660009081527f5cbfc8ee58ca47855df7bcf648dd304ddb6b932f9b87878bdf6318d7ec7ee5b7602052604081205460ff16610bf7565b600082815260208190526040902060010154610fd081612e99565b610fda8383612ea3565b505050565b6001600160a01b038116331461105d5760405162461bcd60e51b815260206004820152602f60248201527f416363657373436f6e74726f6c3a2063616e206f6e6c792072656e6f756e636560448201527f20726f6c657320666f722073656c6600000000000000000000000000000000006064820152608401610d0b565b610d148282612f41565b60008061107383611c8a565b905061108281600001516121f2565b60065460608301516040516347b00fb360e11b81526001600160a01b03610100909304831660048201529082166024820152911690638f601f6690604401602060405180830381865afa9250505080156110f9575060408051601f3d908101601f191682019092526110f6918101906144a6565b60015b611137573d808015611127576040519150601f19603f3d011682016040523d82523d6000602084013e61112c565b606091505b50600092505061113a565b91505b50919050565b60065460009061010090046001600160a01b031633146111875760405162461bcd60e51b8152602060048201526002602482015261454160f01b6044820152606401610d0b565b6111ce610834600085858080601f0160208091040260200160405190810160405280939291908181526020018383808284376000920191909152509293925050612fc09050565b6112115760405162461bcd60e51b81526020600482015260146024820152733737b716b932b3b4b9ba32b932b2103630bcb2b960611b6044820152606401610d0b565b6000611257600085858080601f0160208091040260200160405190810160405280939291908181526020018383808284376000920191909152509293925050612fc09050565b9050841561127c5760065461127c9061010090046001600160a01b0316883088613080565b61128a8188876000806131a4565b5060019695505050505050565b606060138054806020026020016040519081016040528092919081815260200182805480156112ef57602002820191906000526020600020905b81546001600160a01b031681526001909101906020018083116112d1575b5050505050905090565b60405163bf40fac160e01b815260206004820152600d60248201526c27ab26afa9b2b8bab2b731b2b960991b60448201526000906001600160a01b0383169063bf40fac1906064015b602060405180830381865afa92505050801561137b575060408051601f3d908101601f19168201909252611378918101906144bf565b60015b6113b8573d8080156113a9576040519150601f19603f3d011682016040523d82523d6000602084013e6113ae565b606091505b5060009392505050565b90505b919050565b601260205260009081526040902080546113d990614270565b80601f016020809104026020016040519081016040528092919081815260200182805461140590614270565b80156114525780601f1061142757610100808354040283529160200191611452565b820191906000526020600020905b81548152906001019060200180831161143557829003601f168201915b505050505081565b600d602052826000526040600020602052816000526040600020818154811061148257600080fd5b60009182526020909120015463ffffffff8116935064010000000081046001600160801b03169250600160a01b900460ff16905083565b6114c233610f75565b6115195760405162461bcd60e51b815260206004820152602260248201527f41636365737369626c653a2043616c6c6572206973206e6f7420616e2061646d60448201526134b760f11b6064820152608401610d0b565b610da27fdf8b4c520ffe197c5343c6f5aec59570151ef9a492f2c624fd45ddde6135ec4282610fb5565b6009546000906001600160a01b031633146115905760405162461bcd60e51b815260206004820152600d60248201526c232bafa1a0a62622a92fa2a92960991b6044820152606401610d0b565b600754604051636a2fb1f560e01b8152600481018490526000916001600160a01b031690636a2fb1f590602401602060405180830381865afa1580156115da573d6000803e3d6000fd5b505050506040513d601f19601f820116820180604052508101906115fe91906144a6565b63ffffffff86166000908152600b6020526040812080549293508392909190611628908490614456565b9250508190555080600a60008282546116419190614456565b909155505063ffffffff85166000908152600c602090815260408083206001600160a01b03881684529091528120805490918591839190611683908490614456565b925050819055508181600201600082825461169e9190614456565b90915550506040805188815263ffffffff881660208201526001600160a01b03871681830152606081018690526080810184905290517f8cf204c07a4ce065cdd0c90963672bd384e5479ada88179bca8eb6075c02731f9181900360a00190a15060019695505050505050565b63ffffffff82166000908152600e60209081526040808320338085529252909120549061173b90849083856129ec565b610fda5760405162461bcd60e51b815260206004820152600c60248201526b534c5f455f52455354414b4560a01b6044820152606401610d0b565b61177f33610f75565b6117d65760405162461bcd60e51b815260206004820152602260248201527f41636365737369626c653a2043616c6c6572206973206e6f7420616e2061646d60448201526134b760f11b6064820152608401610d0b565b6001600160a01b03811661182c5760405162461bcd60e51b815260206004820152601860248201527f41636365737369626c653a207a65726f206164647265737300000000000000006044820152606401610d0b565b6001600160a01b03811633036118845760405162461bcd60e51b815260206004820152601660248201527f41636365737369626c653a2073616d652061646d696e000000000000000000006044820152606401610d0b565b6118ae7fdf8b4c520ffe197c5343c6f5aec59570151ef9a492f2c624fd45ddde6135ec4282610fb5565b610da27fdf8b4c520ffe197c5343c6f5aec59570151ef9a492f2c624fd45ddde6135ec4233610fdf565b60085460405163370f791d60e11b815263ffffffff831660048201526000916001600160a01b031690636e1ef23a90602401602060405180830381865afa158015611927573d6000803e3d6000fd5b505050506040513d601f19601f8201168201806040525081019061194b91906144dc565b61198e5760405162461bcd60e51b81526020600482015260146024820152733737b716b932b3b4b9ba32b932b2103630bcb2b960611b6044820152606401610d0b565b506001919050565b61199f826118d8565b6119e25760405162461bcd60e51b81526020600482015260146024820152733737b716b932b3b4b9ba32b932b2103630bcb2b960611b6044820152606401610d0b565b610d148282600080613598565b60065460009060ff16611a2d5760405162461bcd60e51b8152600401610d0b906020808252600490820152636c6f636b60e01b604082015260600190565b6006805460ff191690556009546001600160a01b03163314611a815760405162461bcd60e51b815260206004820152600d60248201526c232bafa1a0a62622a92fa2a92960991b6044820152606401610d0b565b81611a8c8686612095565b1015611ada5760405162461bcd60e51b815260206004820152601960248201527f6c697175696469747920697320696e73756666696369656e74000000000000006044820152606401610d0b565b6006546040516370a0823160e01b815230600482015260009161010090046001600160a01b0316906370a0823190602401602060405180830381865afa158015611b28573d6000803e3d6000fd5b505050506040513d601f19601f82011682018060405250810190611b4c91906144a6565b905082811015611bf7578015611b7857600654611b789061010090046001600160a01b031685836135c8565b6007546001600160a01b031663aad3ec9685611b9484876144fe565b6040516001600160e01b031960e085901b1681526001600160a01b0390921660048301526024820152604401600060405180830381600087803b158015611bda57600080fd5b505af1158015611bee573d6000803e3d6000fd5b50505050611c13565b600654611c139061010090046001600160a01b031685856135c8565b6040805188815263ffffffff881660208201526001600160a01b0387811682840152861660608201526080810185905290517f77fbf71434da34ef2aa8382e2b751b6b2de7bd18d96a07ff7f4dae7dae9237619181900360a00190a160019150506006805460ff1916600117905595945050505050565b60408051608081018252600080825260208083018290528284018290526060830182905263ffffffff8516825260129052829020915163186ca86f60e21b8152909173__$35081dc60fc26376aafbbba403b8b17c43$__916361b2a1bc91611cf49160040161431a565b608060405180830381865af4158015611d11573d6000803e3d6000fd5b505050506040513d601f19601f82011682018060405250810190610bf791906143a5565b63ffffffff8083166000818152600d602090815260408083206001600160a01b03871680855290835281842054948452600e835281842090845290915281205490929091839183165b81811015611e695763ffffffff87166000908152600d602090815260408083206001600160a01b038a1684529091528120805483908110611dc157611dc161442a565b600091825260209182902060408051606081018252929091015463ffffffff811680845264010000000082046001600160801b031694840194909452600160a01b900460ff16151590820152915043118015611e1f57506040810151155b15611e50576020810151611e3c906001600160801b031687614456565b9550611e49600185614469565b9350611e56565b50611e69565b5080611e618161448d565b915050611d7e565b50509250925092565b63ffffffff811660009081526012602052604080822090516379a0c08760e11b8152829173__$35081dc60fc26376aafbbba403b8b17c43$__9163f341810e91611ebe9160040161431a565b602060405180830381865af4158015611edb573d6000803e3d6000fd5b505050506040513d601f19601f82011682018060405250810190611eff91906144bf565b90506001600160a01b038116611f185750600092915050565b63ffffffff83166000908152601260205260409081902090516379a0c08760e11b815273__$35081dc60fc26376aafbbba403b8b17c43$__9163f341810e91611f64919060040161431a565b602060405180830381865af4158015611f81573d6000803e3d6000fd5b505050506040513d601f19601f82011682018060405250810190611fa591906144bf565b60405163bf40fac160e01b815260206004820152600d60248201526c27ab26afa9b2b8bab2b731b2b960991b60448201526001600160a01b03919091169063bf40fac190606401602060405180830381865afa9250505080156110f9575060408051601f3d908101601f191682019092526110f6918101906144bf565b6008546040516346ccf0e560e11b815263ffffffff831660048201526000916001600160a01b031690638d99e1ca90602401602060405180830381865afa158015612071573d6000803e3d6000fd5b505050506040513d601f19601f82011682018060405250810190610bf791906144a6565b60075463ffffffff83166000908152600c602090815260408083206001600160a01b03868116855290835281842082516080810184528154815260018201549481019490945260028101549284018390526003015460ff1615156060909301929092529192169063cdf68009906040518263ffffffff1660e01b815260040161212091815260200190565b602060405180830381865afa15801561213d573d6000803e3d6000fd5b505050506040513d601f19601f8201168201806040525081019061216191906144a6565b9392505050565b600954604051630265991f60e61b81526000600482015263ffffffff84166024820152336044820152610d1491849184916001600160a01b03169063996647c090606401602060405180830381865afa1580156121c9573d6000803e3d6000fd5b505050506040513d601f19601f820116820180604052508101906121ed91906144a6565b6136e3565b60006001600160a01b03821661220a57506000919050565b60405163bf40fac160e01b815260206004820152601b60248201527f50726f78795f5f4f564d5f4c315374616e64617264427269646765000000000060448201526001600160a01b0383169063bf40fac190606401611342565b60405163bf40fac160e01b815260206004820152601a60248201527f4f564d5f4c3143726f7373446f6d61696e4d657373656e67657200000000000060448201526000906001600160a01b0383169063bf40fac190606401611342565b60065460ff166122fc5760405162461bcd60e51b8152600401610d0b906020808252600490820152636c6f636b60e01b604082015260600190565b6006805460ff1916905563ffffffff81166000818152600d602090815260408083203380855290835281842054948452600e83528184208185529092528220549092919081905b838110156124155763ffffffff86166000908152600d602090815260408083206001600160a01b038916845290915281208054839081106123865761238661442a565b600091825260209091200180549091504363ffffffff9091161080156123b557508054600160a01b900460ff16155b156123fc57805460ff60a01b1916600160a01b178082556123e8906001600160801b036401000000009091041684614456565b9250836123f48161448d565b945050612402565b50612415565b508061240d8161448d565b915050612343565b50600081116124665760405162461bcd60e51b815260206004820181905260248201527f7a65726f20617661696c61626c65207769746864726177616c20616d6f756e746044820152606401610d0b565b63ffffffff85166000908152600e602090815260408083206001600160a01b03881684529091528120805484929061249f908490614456565b909155505063ffffffff85166000908152600f602090815260408083206001600160a01b0388168452909152812080548392906124dd9084906144fe565b909155505063ffffffff8516600090815260106020526040812080548392906125079084906144fe565b90915550506001600160a01b038416600090815260116020526040812080548392906125349084906144fe565b90915550506006546040516370a0823160e01b815230600482015260009161010090046001600160a01b0316906370a0823190602401602060405180830381865afa158015612587573d6000803e3d6000fd5b505050506040513d601f19601f820116820180604052508101906125ab91906144a6565b9050818110156126565780156125d7576006546125d79061010090046001600160a01b031686836135c8565b6007546001600160a01b031663aad3ec96866125f384866144fe565b6040516001600160e01b031960e085901b1681526001600160a01b0390921660048301526024820152604401600060405180830381600087803b15801561263957600080fd5b505af115801561264d573d6000803e3d6000fd5b50505050612672565b6006546126729061010090046001600160a01b031686846135c8565b6040805163ffffffff881681526001600160a01b03871660208201529081018390527f2d6eb139d2002caa088da5527d9d62f2f23bdf4504f5559a112535c436c6ee599060600160405180910390a150506006805460ff1916600117905550505050565b63ffffffff82166000818152600d602090815260408083206001600160a01b03861680855290835281842054948452600e83528184209084529091528120549081831061272a5761272782846144fe565b90505b9250925092565b6008546040805163b969fbef60e01b815290516000926001600160a01b03169163b969fbef9160048083019260209291908290030181865afa15801561277b573d6000803e3d6000fd5b505050506040513d601f19601f8201168201806040525081019061279f91906144a6565b905090565b6000828152602081905260409020600101546127bf81612e99565b610fda8383612f41565b6008546000906001600160a01b031633146128265760405162461bcd60e51b815260206004820152601160248201527f6e6f74204c61796572324d616e616765720000000000000000000000000000006044820152606401610d0b565b81516050146128775760405162461bcd60e51b815260206004820152600f60248201527f77726f6e67206c61796572496e666f00000000000000000000000000000000006044820152606401610d0b565b63ffffffff83166000908152601260205260409020805461289790614270565b1590506128e65760405162461bcd60e51b815260206004820152600f60248201527f616c7265616479206372656174656400000000000000000000000000000000006044820152606401610d0b565b63ffffffff831660009081526012602052604090206129058382614557565b5060019392505050565b6013818154811061291f57600080fd5b6000918252602090912001546001600160a01b0316905081565b6006546040516347b00fb360e11b81526001600160a01b03610100909204821660048201528282166024820152600091841690638f601f6690604401602060405180830381865afa9250505080156129ae575060408051601f3d908101601f191682019092526129ab918101906144a6565b60015b612161573d8080156129dc576040519150601f19603f3d011682016040523d82523d6000602084013e6129e1565b606091505b506000915050610bf7565b60065460009060ff16612a2a5760405162461bcd60e51b8152600401610d0b906020808252600490820152636c6f636b60e01b604082015260600190565b6006805460ff1916905563ffffffff85166000908152600d602090815260408083206001600160a01b038816845290915281205480612a985760405162461bcd60e51b815260206004820152600a6024820152696e6f20756e7374616b6560b01b6044820152606401610d0b565b83612aa386836144fe565b1015612af15760405162461bcd60e51b815260206004820152601860248201527f6e2065786365656473206e756d206f662070656e64696e6700000000000000006044820152606401610d0b565b6000612afd8587614456565b90505b80861015612bf35763ffffffff88166000908152600d602090815260408083206001600160a01b038b1684529091528120805488908110612b4357612b4361442a565b6000918252602090912001805490915064010000000081046001600160801b031690600160a01b900460ff1615612bbc5760405162461bcd60e51b815260206004820152601260248201527f616c7265616479207769746864726177616c00000000000000000000000000006044820152606401610d0b565b8015612bcf57612bcc8186614456565b94505b50805460ff60a01b1916600160a01b17905585612beb8161448d565b965050612b00565b60008311612c435760405162461bcd60e51b815260206004820152601760248201527f6e6f2076616c69642072657374616b6520616d6f756e740000000000000000006044820152606401610d0b565b600754604051636a2fb1f560e01b8152600481018590526000916001600160a01b031690636a2fb1f590602401602060405180830381865afa158015612c8d573d6000803e3d6000fd5b505050506040513d601f19601f82011682018060405250810190612cb191906144a6565b63ffffffff8a166000908152600c602090815260408083206001600160a01b038d168452909152812080549293509186918391612cef908490614456565b9250508190555081816002016000828254612d0a9190614456565b909155505063ffffffff8a166000908152600b602052604081208054849290612d34908490614456565b9250508190555081600a6000828254612d4d9190614456565b909155505063ffffffff8a166000908152600f602090815260408083206001600160a01b038d16845290915281208054879290612d8b9084906144fe565b909155505063ffffffff8a1660009081526010602052604081208054879290612db59084906144fe565b90915550506001600160a01b03891660009081526011602052604081208054879290612de29084906144fe565b909155505063ffffffff8a166000908152600e602090815260408083206001600160a01b038d16845290915281208054899290612e20908490614456565b90915550506040805163ffffffff8c1681526001600160a01b038b166020820152908101869052606081018390527f34981dc0486069d2abbaddbc42e10b97cb24e4bce60ee4457e1d5062dfc0b4299060800160405180910390a16001955050505050506006805460ff19166001179055949350505050565b610da28133613be0565b6000828152602081815260408083206001600160a01b038516845290915290205460ff16610d14576000828152602081815260408083206001600160a01b03851684529091529020805460ff19166001179055612efd3390565b6001600160a01b0316816001600160a01b0316837f2f8788117e7eff1d82e926ec794901d17c78024a50270940304540a733656f0d60405160405180910390a45050565b6000828152602081815260408083206001600160a01b038516845290915290205460ff1615610d14576000828152602081815260408083206001600160a01b0385168085529252808320805460ff1916905551339285917ff6391f5c32d9c69d2a47ea670b442974b53935d1edc7fd64eb21e047a839171b9190a45050565b600081612fce816004614456565b101561301c5760405162461bcd60e51b815260206004820152601160248201527f746f55696e7433325f6f766572666c6f770000000000000000000000000000006044820152606401610d0b565b613027826004614456565b835110156130775760405162461bcd60e51b815260206004820152601460248201527f746f55696e7433325f6f75744f66426f756e64730000000000000000000000006044820152606401610d0b565b50016004015190565b604080516001600160a01b0385811660248301528481166044830152606480830185905283518084039091018152608490920183526020820180516001600160e01b03166323b872dd60e01b17905291516000928392908816916130e49190614617565b6000604051808303816000865af19150503d8060008114613121576040519150601f19603f3d011682016040523d82523d6000602084013e613126565b606091505b509150915081801561315057508051158061315057508080602001905181019061315091906144dc565b61319c5760405162461bcd60e51b815260206004820152601460248201527f5452414e534645525f46524f4d5f4641494c45440000000000000000000000006044820152606401610d0b565b505050505050565b60065460ff166131df5760405162461bcd60e51b8152600401610d0b906020808252600490820152636c6f636b60e01b604082015260600190565b6006805460ff191690558260008190036132205760405162461bcd60e51b81526020600482015260026024820152615a3160f01b6044820152606401610d0b565b600754604051636a2fb1f560e01b8152600481018690526000916001600160a01b031690636a2fb1f590602401602060405180830381865afa15801561326a573d6000803e3d6000fd5b505050506040513d601f19601f8201168201806040525081019061328e91906144a6565b63ffffffff88166000908152600b60205260408120805492935083929091906132b8908490614456565b9250508190555080600a60008282546132d19190614456565b909155505063ffffffff87166000908152600c602090815260408083206001600160a01b038a1684529091529020600381015460ff1661337357600381018054600160ff1990911681179091556013805491820181556000527f66de8ffda797e3de9c05e8fc57b3bf0ec28a930d40b0d285d93c06501cf6a09001805473ffffffffffffffffffffffffffffffffffffffff19166001600160a01b0389161790555b600061ffff85161580159061339057506001600160a01b03861615155b80156133a157506127108561ffff16105b156134e4576127106133b761ffff871685614633565b6133c1919061464a565b90506133cd81846144fe565b60075460405163cdf6800960e01b8152600481018390529194506000916001600160a01b039091169063cdf6800990602401602060405180830381865afa15801561341c573d6000803e3d6000fd5b505050506040513d601f19601f8201168201806040525081019061344091906144a6565b9050808360000160008282546134569190614456565b92505081905550838360020160008282546134719190614456565b909155505063ffffffff8a166000908152600c602090815260408083206001600160a01b038b16845290915290206134a9828a6144fe565b8160000160008282546134bc9190614456565b92505081905550828160020160008282546134d79190614456565b9091555061351992505050565b868260000160008282546134f89190614456565b92505081905550828260020160008282546135139190614456565b90915550505b6040805163ffffffff8b1681526001600160a01b038a811660208301528183018a9052606082018690528816608082015261ffff871660a082015290517f318dab784577ac2e7d86f88c3f2a80520b447b822b8a756158648e0f917d16a09181900360c00190a150506006805460ff1916600117905550505050505050565b6006546135b59061010090046001600160a01b0316333086613080565b6135c284338585856131a4565b50505050565b604080516001600160a01b038481166024830152604480830185905283518084039091018152606490920183526020820180516001600160e01b031663a9059cbb60e01b17905291516000928392908716916136249190614617565b6000604051808303816000865af19150503d8060008114613661576040519150601f19603f3d011682016040523d82523d6000602084013e613666565b606091505b509150915081801561369057508051158061369057508080602001905181019061369091906144dc565b6136dc5760405162461bcd60e51b815260206004820152600f60248201527f5452414e534645525f4641494c454400000000000000000000000000000000006044820152606401610d0b565b5050505050565b60065460ff1661371e5760405162461bcd60e51b8152600401610d0b906020808252600490820152636c6f636b60e01b604082015260600190565b6006805460ff1916905581600081900361375f5760405162461bcd60e51b81526020600482015260026024820152615a3160f01b6044820152606401610d0b565b60075460405163cdf6800960e01b81526004810185905233916000916001600160a01b039091169063cdf6800990602401602060405180830381865afa1580156137ad573d6000803e3d6000fd5b505050506040513d601f19601f820116820180604052508101906137d191906144a6565b63ffffffff87166000908152600c602090815260408083206001600160a01b0387168452909152902090915084156138d2576002810154600754604051636a2fb1f560e01b8152600481018890526001600160a01b0390911690636a2fb1f590602401602060405180830381865afa158015613851573d6000803e3d6000fd5b505050506040513d601f19601f8201168201806040525081019061387591906144a6565b61387f9088614456565b11156138cd5760405162461bcd60e51b815260206004820152600d60248201527f756e7374616b655f6572725f31000000000000000000000000000000000000006044820152606401610d0b565b613926565b80600201548611156139265760405162461bcd60e51b815260206004820152600d60248201527f756e7374616b655f6572725f32000000000000000000000000000000000000006044820152606401610d0b565b8581600201600082825461393a91906144fe565b90915550508054821115613951576000815561396b565b8181600001600082825461396591906144fe565b90915550505b63ffffffff87166000908152600b6020526040812080548892906139909084906144fe565b9250508190555085600a60008282546139a991906144fe565b909155505060085460408051636577b27360e11b815290516000926001600160a01b03169163caef64e69160048083019260209291908290030181865afa1580156139f8573d6000803e3d6000fd5b505050506040513d601f19601f82011682018060405250810190613a1c91906144a6565b63ffffffff89166000908152600d602090815260408083206001600160a01b03891684529091529081902081516060810190925291925080613a5e8443614456565b63ffffffff90811682526001600160801b0380881660208085019190915260006040948501819052865460018101885596815281812086519701805487840151978701511515600160a01b0260ff60a01b19989095166401000000000273ffffffffffffffffffffffffffffffffffffffff19909116988616989098179790971795909516919091179094558b168252600f83528082206001600160a01b03881683529092529081208054859290613b17908490614456565b909155505063ffffffff881660009081526010602052604081208054859290613b41908490614456565b90915550506001600160a01b03841660009081526011602052604081208054859290613b6e908490614456565b90915550506040805163ffffffff8a1681526001600160a01b0386166020820152908101849052606081018890527f869a01319d83bb921803a22e3e95d0cb8b08e708d3fb144e2c25a563bf8650d39060800160405180910390a150506006805460ff19166001179055505050505050565b6000828152602081815260408083206001600160a01b038516845290915290205460ff16610d1457613c1181613c53565b613c1c836020613c65565b604051602001613c2d92919061466c565b60408051601f198184030181529082905262461bcd60e51b8252610d0b9160040161404a565b6060610bf76001600160a01b03831660145b60606000613c74836002614633565b613c7f906002614456565b67ffffffffffffffff811115613c9757613c97614165565b6040519080825280601f01601f191660200182016040528015613cc1576020820181803683370190505b509050600360fc1b81600081518110613cdc57613cdc61442a565b60200101906001600160f81b031916908160001a905350600f60fb1b81600181518110613d0b57613d0b61442a565b60200101906001600160f81b031916908160001a9053506000613d2f846002614633565b613d3a906001614456565b90505b6001811115613dbf577f303132333435363738396162636465660000000000000000000000000000000085600f1660108110613d7b57613d7b61442a565b1a60f81b828281518110613d9157613d9161442a565b60200101906001600160f81b031916908160001a90535060049490941c93613db8816146ed565b9050613d3d565b5083156121615760405162461bcd60e51b815260206004820181905260248201527f537472696e67733a20686578206c656e67746820696e73756666696369656e746044820152606401610d0b565b803563ffffffff811681146113bb57600080fd5b600060208284031215613e3457600080fd5b61216182613e0e565b600060208284031215613e4f57600080fd5b81356001600160e01b03198116811461216157600080fd5b6001600160a01b0381168114610da257600080fd5b600060208284031215613e8e57600080fd5b813561216181613e67565b60008060408385031215613eac57600080fd5b613eb583613e0e565b91506020830135613ec581613e67565b809150509250929050565b600060208284031215613ee257600080fd5b5035919050565b60008060408385031215613efc57600080fd5b823591506020830135613ec581613e67565b600080600080600060808688031215613f2657600080fd5b8535613f3181613e67565b94506020860135613f4181613e67565b935060408601359250606086013567ffffffffffffffff80821115613f6557600080fd5b818801915088601f830112613f7957600080fd5b813581811115613f8857600080fd5b896020828501011115613f9a57600080fd5b9699959850939650602001949392505050565b6020808252825182820181905260009190848201906040850190845b81811015613fee5783516001600160a01b031683529284019291840191600101613fc9565b50909695505050505050565b60005b83811015614015578181015183820152602001613ffd565b50506000910152565b60008151808452614036816020860160208601613ffa565b601f01601f19169290920160200192915050565b602081526000612161602083018461401e565b60008060006060848603121561407257600080fd5b61407b84613e0e565b9250602084013561408b81613e67565b929592945050506040919091013590565b600080600080608085870312156140b257600080fd5b843593506140c260208601613e0e565b925060408501356140d281613e67565b9396929550929360600135925050565b600080604083850312156140f557600080fd5b6140fe83613e0e565b946020939093013593505050565b600080600080600060a0868803121561412457600080fd5b8535945061413460208701613e0e565b9350604086013561414481613e67565b9250606086013561415481613e67565b949793965091946080013592915050565b634e487b7160e01b600052604160045260246000fd5b604051601f8201601f1916810167ffffffffffffffff811182821017156141a4576141a4614165565b604052919050565b600080604083850312156141bf57600080fd5b6141c883613e0e565b915060208084013567ffffffffffffffff808211156141e657600080fd5b818601915086601f8301126141fa57600080fd5b81358181111561420c5761420c614165565b61421e601f8201601f1916850161417b565b9150808252878482850101111561423457600080fd5b80848401858401376000848284010152508093505050509250929050565b6000806040838503121561426557600080fd5b8235613eb581613e67565b600181811c9082168061428457607f821691505b60208210810361113a57634e487b7160e01b600052602260045260246000fd5b60008083546142b281614270565b600182811680156142ca57600181146142df5761430e565b60ff198416875282151583028701945061430e565b8760005260208060002060005b858110156143055781548a8201529084019082016142ec565b50505082870194505b50929695505050505050565b600060208083526000845461432e81614270565b8084870152604060018084166000811461434f576001811461436957614397565b60ff1985168984015283151560051b890183019550614397565b896000528660002060005b8581101561438f5781548b8201860152908301908801614374565b8a0184019650505b509398975050505050505050565b6000608082840312156143b757600080fd5b6040516080810181811067ffffffffffffffff821117156143da576143da614165565b60405282516143e881613e67565b815260208301516143f881613e67565b6020820152604083015161440b81613e67565b6040820152606083015161441e81613e67565b60608201529392505050565b634e487b7160e01b600052603260045260246000fd5b634e487b7160e01b600052601160045260246000fd5b80820180821115610bf757610bf7614440565b63ffffffff81811683821601908082111561448657614486614440565b5092915050565b60006001820161449f5761449f614440565b5060010190565b6000602082840312156144b857600080fd5b5051919050565b6000602082840312156144d157600080fd5b815161216181613e67565b6000602082840312156144ee57600080fd5b8151801515811461216157600080fd5b81810381811115610bf757610bf7614440565b601f821115610fda57600081815260208120601f850160051c810160208610156145385750805b601f850160051c820191505b8181101561319c57828155600101614544565b815167ffffffffffffffff81111561457157614571614165565b6145858161457f8454614270565b84614511565b602080601f8311600181146145ba57600084156145a25750858301515b600019600386901b1c1916600185901b17855561319c565b600085815260208120601f198616915b828110156145e9578886015182559484019460019091019084016145ca565b50858210156146075787850151600019600388901b60f8161c191681555b5050505050600190811b01905550565b60008251614629818460208701613ffa565b9190910192915050565b8082028115828204841417610bf757610bf7614440565b60008261466757634e487b7160e01b600052601260045260246000fd5b500490565b7f416363657373436f6e74726f6c3a206163636f756e74200000000000000000008152600083516146a4816017850160208801613ffa565b7f206973206d697373696e6720726f6c652000000000000000000000000000000060179184019182015283516146e1816028840160208801613ffa565b01602801949350505050565b6000816146fc576146fc614440565b50600019019056fea164736f6c6343000812000a",
  "linkReferences": {
    "contracts/libraries/LibOptimism.sol": {
      "LibOptimism": [
        {
          "length": 20,
          "start": 3154
        },
        {
          "length": 20,
          "start": 7419
        },
        {
          "length": 20,
          "start": 7877
        },
        {
          "length": 20,
          "start": 8042
        }
      ]
    }
  },
  "deployedLinkReferences": {
    "contracts/libraries/LibOptimism.sol": {
      "LibOptimism": [
        {
          "length": 20,
          "start": 3109
        },
        {
          "length": 20,
          "start": 7374
        },
        {
          "length": 20,
          "start": 7832
        },
        {
          "length": 20,
          "start": 7997
        }
      ]
    }
  }
}