{
  "_format": "hh-sol-artifact-1",
  "contractName": "OptimismSequencer",
  "sourceName": "contracts/OptimismSequencer.sol",
  "abi": [
    {
      "inputs": [],
      "stateMutability": "nonpayable",
      "type": "constructor"
    },
    {
      "anonymous": false,
      "inputs": [
        {
          "indexed": false,
          "internalType": "uint32",
          "name": "_index",
          "type": "uint32"
        },
        {
          "indexed": false,
          "internalType": "address",
          "name": "sender",
          "type": "address"
        },
        {
          "indexed": false,
          "internalType": "uint256",
          "name": "amount",
          "type": "uint256"
        },
        {
          "indexed": false,
          "internalType": "uint256",
          "name": "lton",
          "type": "uint256"
        }
      ],
      "name": "Restaked",
      "type": "event"
    },
    {
      "anonymous": false,
      "inputs": [
        {
          "indexed": true,
          "internalType": "bytes32",
          "name": "role",
          "type": "bytes32"
        },
        {
          "indexed": true,
          "internalType": "bytes32",
          "name": "previousAdminRole",
          "type": "bytes32"
        },
        {
          "indexed": true,
          "internalType": "bytes32",
          "name": "newAdminRole",
          "type": "bytes32"
        }
      ],
      "name": "RoleAdminChanged",
      "type": "event"
    },
    {
      "anonymous": false,
      "inputs": [
        {
          "indexed": true,
          "internalType": "bytes32",
          "name": "role",
          "type": "bytes32"
        },
        {
          "indexed": true,
          "internalType": "address",
          "name": "account",
          "type": "address"
        },
        {
          "indexed": true,
          "internalType": "address",
          "name": "sender",
          "type": "address"
        }
      ],
      "name": "RoleGranted",
      "type": "event"
    },
    {
      "anonymous": false,
      "inputs": [
        {
          "indexed": true,
          "internalType": "bytes32",
          "name": "role",
          "type": "bytes32"
        },
        {
          "indexed": true,
          "internalType": "address",
          "name": "account",
          "type": "address"
        },
        {
          "indexed": true,
          "internalType": "address",
          "name": "sender",
          "type": "address"
        }
      ],
      "name": "RoleRevoked",
      "type": "event"
    },
    {
      "anonymous": false,
      "inputs": [
        {
          "indexed": false,
          "internalType": "uint32",
          "name": "_index",
          "type": "uint32"
        },
        {
          "indexed": false,
          "internalType": "address",
          "name": "sender",
          "type": "address"
        },
        {
          "indexed": false,
          "internalType": "uint256",
          "name": "amount",
          "type": "uint256"
        },
        {
          "indexed": false,
          "internalType": "uint256",
          "name": "lton",
          "type": "uint256"
        },
        {
          "indexed": false,
          "internalType": "address",
          "name": "commissionTo",
          "type": "address"
        },
        {
          "indexed": false,
          "internalType": "uint16",
          "name": "commission",
          "type": "uint16"
        }
      ],
      "name": "Staked",
      "type": "event"
    },
    {
      "anonymous": false,
      "inputs": [
        {
          "indexed": false,
          "internalType": "uint32",
          "name": "_index",
          "type": "uint32"
        },
        {
          "indexed": false,
          "internalType": "address",
          "name": "sender",
          "type": "address"
        },
        {
          "indexed": false,
          "internalType": "uint256",
          "name": "amount",
          "type": "uint256"
        },
        {
          "indexed": false,
          "internalType": "uint256",
          "name": "lton",
          "type": "uint256"
        }
      ],
      "name": "Unstaked",
      "type": "event"
    },
    {
      "anonymous": false,
      "inputs": [
        {
          "indexed": false,
          "internalType": "uint32",
          "name": "_index",
          "type": "uint32"
        },
        {
          "indexed": false,
          "internalType": "address",
          "name": "sender",
          "type": "address"
        },
        {
          "indexed": false,
          "internalType": "uint256",
          "name": "amount",
          "type": "uint256"
        }
      ],
      "name": "Withdrawal",
      "type": "event"
    },
    {
      "inputs": [],
      "name": "ADMIN_ROLE",
      "outputs": [
        {
          "internalType": "bytes32",
          "name": "",
          "type": "bytes32"
        }
      ],
      "stateMutability": "view",
      "type": "function"
    },
    {
      "inputs": [],
      "name": "DEFAULT_ADMIN_ROLE",
      "outputs": [
        {
          "internalType": "bytes32",
          "name": "",
          "type": "bytes32"
        }
      ],
      "stateMutability": "view",
      "type": "function"
    },
    {
      "inputs": [],
      "name": "POLICY_ROLE",
      "outputs": [
        {
          "internalType": "bytes32",
          "name": "",
          "type": "bytes32"
        }
      ],
      "stateMutability": "view",
      "type": "function"
    },
    {
      "inputs": [
        {
          "internalType": "address",
          "name": "account",
          "type": "address"
        }
      ],
      "name": "addAdmin",
      "outputs": [],
      "stateMutability": "nonpayable",
      "type": "function"
    },
    {
      "inputs": [
        {
          "internalType": "address",
          "name": "",
          "type": "address"
        }
      ],
      "name": "aliveImplementation",
      "outputs": [
        {
          "internalType": "bool",
          "name": "",
          "type": "bool"
        }
      ],
      "stateMutability": "view",
      "type": "function"
    },
    {
      "inputs": [
        {
          "internalType": "uint32",
          "name": "layerIndex",
          "type": "uint32"
        },
        {
          "internalType": "address",
          "name": "account",
          "type": "address"
        }
      ],
      "name": "amountOfPendings",
      "outputs": [
        {
          "internalType": "uint256",
          "name": "amount",
          "type": "uint256"
        },
        {
          "internalType": "uint32",
          "name": "startIndex",
          "type": "uint32"
        },
        {
          "internalType": "uint32",
          "name": "len",
          "type": "uint32"
        },
        {
          "internalType": "uint32",
          "name": "nextWithdrawableBlockNumber",
          "type": "uint32"
        }
      ],
      "stateMutability": "view",
      "type": "function"
    },
    {
      "inputs": [
        {
          "internalType": "uint32",
          "name": "_index",
          "type": "uint32"
        },
        {
          "internalType": "address",
          "name": "account",
          "type": "address"
        }
      ],
      "name": "availableWithdraw",
      "outputs": [
        {
          "internalType": "uint256",
          "name": "amount",
          "type": "uint256"
        },
        {
          "internalType": "uint32",
          "name": "startIndex",
          "type": "uint32"
        },
        {
          "internalType": "uint32",
          "name": "len",
          "type": "uint32"
        }
      ],
      "stateMutability": "view",
      "type": "function"
    },
    {
      "inputs": [
        {
          "internalType": "uint32",
          "name": "_index",
          "type": "uint32"
        },
        {
          "internalType": "address",
          "name": "account",
          "type": "address"
        }
      ],
      "name": "balanceOf",
      "outputs": [
        {
          "internalType": "uint256",
          "name": "amount",
          "type": "uint256"
        }
      ],
      "stateMutability": "view",
      "type": "function"
    },
    {
      "inputs": [
        {
          "internalType": "uint32",
          "name": "_index",
          "type": "uint32"
        },
        {
          "internalType": "address",
          "name": "account",
          "type": "address"
        }
      ],
      "name": "balanceOfLton",
      "outputs": [
        {
          "internalType": "uint256",
          "name": "amount",
          "type": "uint256"
        }
      ],
      "stateMutability": "view",
      "type": "function"
    },
    {
      "inputs": [
        {
          "internalType": "uint32",
          "name": "_index",
          "type": "uint32"
        }
      ],
      "name": "balanceOfLton",
      "outputs": [
        {
          "internalType": "uint256",
          "name": "amount",
          "type": "uint256"
        }
      ],
      "stateMutability": "view",
      "type": "function"
    },
    {
      "inputs": [
        {
          "internalType": "uint32",
          "name": "_index",
          "type": "uint32"
        },
        {
          "internalType": "bytes",
          "name": "_layerInfo",
          "type": "bytes"
        }
      ],
      "name": "create",
      "outputs": [
        {
          "internalType": "bool",
          "name": "",
          "type": "bool"
        }
      ],
      "stateMutability": "nonpayable",
      "type": "function"
    },
    {
      "inputs": [
        {
          "internalType": "uint32",
          "name": "_index",
          "type": "uint32"
        }
      ],
      "name": "existedIndex",
      "outputs": [
        {
          "internalType": "bool",
          "name": "",
          "type": "bool"
        }
      ],
      "stateMutability": "view",
      "type": "function"
    },
    {
      "inputs": [
        {
          "internalType": "uint32",
          "name": "_index",
          "type": "uint32"
        }
      ],
      "name": "getLayerInfo",
      "outputs": [
        {
          "components": [
            {
              "internalType": "address",
              "name": "addressManager",
              "type": "address"
            },
            {
              "internalType": "address",
              "name": "l1Messenger",
              "type": "address"
            },
            {
              "internalType": "address",
              "name": "l1Bridge",
              "type": "address"
            },
            {
              "internalType": "address",
              "name": "l2ton",
              "type": "address"
            }
          ],
          "internalType": "struct LibOptimism.Info",
          "name": "_layerInfo",
          "type": "tuple"
        }
      ],
      "stateMutability": "view",
      "type": "function"
    },
    {
      "inputs": [
        {
          "internalType": "uint32",
          "name": "_index",
          "type": "uint32"
        }
      ],
      "name": "getLayerKey",
      "outputs": [
        {
          "internalType": "bytes32",
          "name": "layerKey_",
          "type": "bytes32"
        }
      ],
      "stateMutability": "view",
      "type": "function"
    },
    {
      "inputs": [
        {
          "internalType": "uint32",
          "name": "_index",
          "type": "uint32"
        },
        {
          "internalType": "address",
          "name": "account",
          "type": "address"
        }
      ],
      "name": "getLayerStakes",
      "outputs": [
        {
          "components": [
            {
              "internalType": "uint256",
              "name": "stakePrincipal",
              "type": "uint256"
            },
            {
              "internalType": "uint256",
              "name": "bondPrincipal",
              "type": "uint256"
            },
            {
              "internalType": "uint256",
              "name": "stakelton",
              "type": "uint256"
            },
            {
              "internalType": "uint256",
              "name": "bondlton",
              "type": "uint256"
            },
            {
              "internalType": "bool",
              "name": "stake",
              "type": "bool"
            },
            {
              "internalType": "uint16",
              "name": "fwFee",
              "type": "uint16"
            }
          ],
          "internalType": "struct LibStake.StakeInfo",
          "name": "info",
          "type": "tuple"
        }
      ],
      "stateMutability": "view",
      "type": "function"
    },
    {
      "inputs": [
        {
          "internalType": "uint32",
          "name": "_index",
          "type": "uint32"
        },
        {
          "internalType": "address",
          "name": "account",
          "type": "address"
        }
      ],
      "name": "getPendingUnstakedAmount",
      "outputs": [
        {
          "internalType": "uint256",
          "name": "",
          "type": "uint256"
        }
      ],
      "stateMutability": "view",
      "type": "function"
    },
    {
      "inputs": [
        {
          "internalType": "bytes32",
          "name": "role",
          "type": "bytes32"
        }
      ],
      "name": "getRoleAdmin",
      "outputs": [
        {
          "internalType": "bytes32",
          "name": "",
          "type": "bytes32"
        }
      ],
      "stateMutability": "view",
      "type": "function"
    },
    {
      "inputs": [],
      "name": "getStakeAccountList",
      "outputs": [
        {
          "internalType": "address[]",
          "name": "",
          "type": "address[]"
        }
      ],
      "stateMutability": "view",
      "type": "function"
    },
    {
      "inputs": [],
      "name": "getTotalLton",
      "outputs": [
        {
          "internalType": "uint256",
          "name": "",
          "type": "uint256"
        }
      ],
      "stateMutability": "view",
      "type": "function"
    },
    {
      "inputs": [
        {
          "internalType": "uint32",
          "name": "_index",
          "type": "uint32"
        }
      ],
      "name": "getTvl",
      "outputs": [
        {
          "internalType": "uint256",
          "name": "amount",
          "type": "uint256"
        }
      ],
      "stateMutability": "view",
      "type": "function"
    },
    {
      "inputs": [
        {
          "internalType": "address",
          "name": "l1Bridge",
          "type": "address"
        },
        {
          "internalType": "address",
          "name": "l2ton",
          "type": "address"
        }
      ],
      "name": "getTvl",
      "outputs": [
        {
          "internalType": "uint256",
          "name": "amount",
          "type": "uint256"
        }
      ],
      "stateMutability": "view",
      "type": "function"
    },
    {
      "inputs": [
        {
          "internalType": "bytes32",
          "name": "role",
          "type": "bytes32"
        },
        {
          "internalType": "address",
          "name": "account",
          "type": "address"
        }
      ],
      "name": "grantRole",
      "outputs": [],
      "stateMutability": "nonpayable",
      "type": "function"
    },
    {
      "inputs": [
        {
          "internalType": "bytes32",
          "name": "role",
          "type": "bytes32"
        },
        {
          "internalType": "address",
          "name": "account",
          "type": "address"
        }
      ],
      "name": "hasRole",
      "outputs": [
        {
          "internalType": "bool",
          "name": "",
          "type": "bool"
        }
      ],
      "stateMutability": "view",
      "type": "function"
    },
    {
      "inputs": [
        {
          "internalType": "address",
          "name": "account",
          "type": "address"
        }
      ],
      "name": "isAdmin",
      "outputs": [
        {
          "internalType": "bool",
          "name": "",
          "type": "bool"
        }
      ],
      "stateMutability": "view",
      "type": "function"
    },
    {
      "inputs": [
        {
          "internalType": "uint32",
          "name": "_index",
          "type": "uint32"
        }
      ],
      "name": "layer2Deposits",
      "outputs": [
        {
          "internalType": "uint256",
          "name": "amount",
          "type": "uint256"
        }
      ],
      "stateMutability": "view",
      "type": "function"
    },
    {
      "inputs": [],
      "name": "layer2Manager",
      "outputs": [
        {
          "internalType": "address",
          "name": "",
          "type": "address"
        }
      ],
      "stateMutability": "view",
      "type": "function"
    },
    {
      "inputs": [
        {
          "internalType": "uint32",
          "name": "",
          "type": "uint32"
        }
      ],
      "name": "layerInfo",
      "outputs": [
        {
          "internalType": "bytes",
          "name": "",
          "type": "bytes"
        }
      ],
      "stateMutability": "view",
      "type": "function"
    },
    {
      "inputs": [
        {
          "internalType": "uint32",
          "name": "",
          "type": "uint32"
        }
      ],
      "name": "layerStakedLton",
      "outputs": [
        {
          "internalType": "uint256",
          "name": "",
          "type": "uint256"
        }
      ],
      "stateMutability": "view",
      "type": "function"
    },
    {
      "inputs": [
        {
          "internalType": "uint32",
          "name": "",
          "type": "uint32"
        },
        {
          "internalType": "address",
          "name": "",
          "type": "address"
        }
      ],
      "name": "layerStakes",
      "outputs": [
        {
          "internalType": "uint256",
          "name": "stakePrincipal",
          "type": "uint256"
        },
        {
          "internalType": "uint256",
          "name": "bondPrincipal",
          "type": "uint256"
        },
        {
          "internalType": "uint256",
          "name": "stakelton",
          "type": "uint256"
        },
        {
          "internalType": "uint256",
          "name": "bondlton",
          "type": "uint256"
        },
        {
          "internalType": "bool",
          "name": "stake",
          "type": "bool"
        },
        {
          "internalType": "uint16",
          "name": "fwFee",
          "type": "uint16"
        }
      ],
      "stateMutability": "view",
      "type": "function"
    },
    {
      "inputs": [
        {
          "internalType": "uint32",
          "name": "layerIndex",
          "type": "uint32"
        },
        {
          "internalType": "address",
          "name": "account",
          "type": "address"
        }
      ],
      "name": "numberOfPendings",
      "outputs": [
        {
          "internalType": "uint256",
          "name": "totalRequests",
          "type": "uint256"
        },
        {
          "internalType": "uint256",
          "name": "withdrawIndex",
          "type": "uint256"
        },
        {
          "internalType": "uint256",
          "name": "pendingLength",
          "type": "uint256"
        }
      ],
      "stateMutability": "view",
      "type": "function"
    },
    {
      "inputs": [
        {
          "internalType": "address",
          "name": "sender",
          "type": "address"
        },
        {
          "internalType": "address",
          "name": "spender",
          "type": "address"
        },
        {
          "internalType": "uint256",
          "name": "amount",
          "type": "uint256"
        },
        {
          "internalType": "bytes",
          "name": "data",
          "type": "bytes"
        }
      ],
      "name": "onApprove",
      "outputs": [
        {
          "internalType": "bool",
          "name": "",
          "type": "bool"
        }
      ],
      "stateMutability": "nonpayable",
      "type": "function"
    },
    {
      "inputs": [],
      "name": "pauseProxy",
      "outputs": [
        {
          "internalType": "bool",
          "name": "",
          "type": "bool"
        }
      ],
      "stateMutability": "view",
      "type": "function"
    },
    {
      "inputs": [
        {
          "internalType": "uint32",
          "name": "",
          "type": "uint32"
        },
        {
          "internalType": "address",
          "name": "",
          "type": "address"
        }
      ],
      "name": "pendingUnstaked",
      "outputs": [
        {
          "internalType": "uint256",
          "name": "",
          "type": "uint256"
        }
      ],
      "stateMutability": "view",
      "type": "function"
    },
    {
      "inputs": [
        {
          "internalType": "address",
          "name": "",
          "type": "address"
        }
      ],
      "name": "pendingUnstakedAccount",
      "outputs": [
        {
          "internalType": "uint256",
          "name": "",
          "type": "uint256"
        }
      ],
      "stateMutability": "view",
      "type": "function"
    },
    {
      "inputs": [
        {
          "internalType": "uint32",
          "name": "",
          "type": "uint32"
        }
      ],
      "name": "pendingUnstakedLayer2",
      "outputs": [
        {
          "internalType": "uint256",
          "name": "",
          "type": "uint256"
        }
      ],
      "stateMutability": "view",
      "type": "function"
    },
    {
      "inputs": [
        {
          "internalType": "uint256",
          "name": "",
          "type": "uint256"
        }
      ],
      "name": "proxyImplementation",
      "outputs": [
        {
          "internalType": "address",
          "name": "",
          "type": "address"
        }
      ],
      "stateMutability": "view",
      "type": "function"
    },
    {
      "inputs": [
        {
          "internalType": "address",
          "name": "account",
          "type": "address"
        }
      ],
      "name": "removeAdmin",
      "outputs": [],
      "stateMutability": "nonpayable",
      "type": "function"
    },
    {
      "inputs": [
        {
          "internalType": "bytes32",
          "name": "role",
          "type": "bytes32"
        },
        {
          "internalType": "address",
          "name": "account",
          "type": "address"
        }
      ],
      "name": "renounceRole",
      "outputs": [],
      "stateMutability": "nonpayable",
      "type": "function"
    },
    {
      "inputs": [
        {
          "internalType": "uint32",
          "name": "_index",
          "type": "uint32"
        }
      ],
      "name": "restake",
      "outputs": [],
      "stateMutability": "nonpayable",
      "type": "function"
    },
    {
      "inputs": [
        {
          "internalType": "uint32",
          "name": "_index",
          "type": "uint32"
        },
        {
          "internalType": "uint256",
          "name": "n",
          "type": "uint256"
        }
      ],
      "name": "restakeMulti",
      "outputs": [],
      "stateMutability": "nonpayable",
      "type": "function"
    },
    {
      "inputs": [
        {
          "internalType": "bytes32",
          "name": "role",
          "type": "bytes32"
        },
        {
          "internalType": "address",
          "name": "account",
          "type": "address"
        }
      ],
      "name": "revokeRole",
      "outputs": [],
      "stateMutability": "nonpayable",
      "type": "function"
    },
    {
      "inputs": [],
      "name": "seigManagerV2",
      "outputs": [
        {
          "internalType": "address",
          "name": "",
          "type": "address"
        }
      ],
      "stateMutability": "view",
      "type": "function"
    },
    {
      "inputs": [
        {
          "internalType": "bytes4",
          "name": "",
          "type": "bytes4"
        }
      ],
      "name": "selectorImplementation",
      "outputs": [
        {
          "internalType": "address",
          "name": "",
          "type": "address"
        }
      ],
      "stateMutability": "view",
      "type": "function"
    },
    {
      "inputs": [
        {
          "internalType": "address",
          "name": "addressManager",
          "type": "address"
        }
      ],
      "name": "sequencer",
      "outputs": [
        {
          "internalType": "address",
          "name": "sequencer_",
          "type": "address"
        }
      ],
      "stateMutability": "view",
      "type": "function"
    },
    {
      "inputs": [
        {
          "internalType": "uint32",
          "name": "_index",
          "type": "uint32"
        }
      ],
      "name": "sequencer",
      "outputs": [
        {
          "internalType": "address",
          "name": "sequencer_",
          "type": "address"
        }
      ],
      "stateMutability": "view",
      "type": "function"
    },
    {
      "inputs": [
        {
          "internalType": "uint32",
          "name": "_index",
          "type": "uint32"
        },
        {
          "internalType": "uint256",
          "name": "amount",
          "type": "uint256"
        }
      ],
      "name": "stake",
      "outputs": [],
      "stateMutability": "nonpayable",
      "type": "function"
    },
    {
      "inputs": [
        {
          "internalType": "uint256",
          "name": "",
          "type": "uint256"
        }
      ],
      "name": "stakeAccountList",
      "outputs": [
        {
          "internalType": "address",
          "name": "",
          "type": "address"
        }
      ],
      "stateMutability": "view",
      "type": "function"
    },
    {
      "inputs": [
        {
          "internalType": "bytes4",
          "name": "interfaceId",
          "type": "bytes4"
        }
      ],
      "name": "supportsInterface",
      "outputs": [
        {
          "internalType": "bool",
          "name": "",
          "type": "bool"
        }
      ],
      "stateMutability": "view",
      "type": "function"
    },
    {
      "inputs": [],
      "name": "ton",
      "outputs": [
        {
          "internalType": "address",
          "name": "",
          "type": "address"
        }
      ],
      "stateMutability": "view",
      "type": "function"
    },
    {
      "inputs": [],
      "name": "totalLayer2Deposits",
      "outputs": [
        {
          "internalType": "uint256",
          "name": "amount",
          "type": "uint256"
        }
      ],
      "stateMutability": "view",
      "type": "function"
    },
    {
      "inputs": [],
      "name": "totalStakeAccountList",
      "outputs": [
        {
          "internalType": "uint256",
          "name": "",
          "type": "uint256"
        }
      ],
      "stateMutability": "view",
      "type": "function"
    },
    {
      "inputs": [],
      "name": "totalStakedLton",
      "outputs": [
        {
          "internalType": "uint256",
          "name": "",
          "type": "uint256"
        }
      ],
      "stateMutability": "view",
      "type": "function"
    },
    {
      "inputs": [
        {
          "internalType": "address",
          "name": "newAdmin",
          "type": "address"
        }
      ],
      "name": "transferAdmin",
      "outputs": [],
      "stateMutability": "nonpayable",
      "type": "function"
    },
    {
      "inputs": [
        {
          "internalType": "uint32",
          "name": "_index",
          "type": "uint32"
        },
        {
          "internalType": "uint256",
          "name": "lton_",
          "type": "uint256"
        }
      ],
      "name": "unstake",
      "outputs": [],
      "stateMutability": "nonpayable",
      "type": "function"
    },
    {
      "inputs": [
        {
          "internalType": "uint32",
          "name": "_index",
          "type": "uint32"
        }
      ],
      "name": "withdraw",
      "outputs": [],
      "stateMutability": "nonpayable",
      "type": "function"
    },
    {
      "inputs": [
        {
          "internalType": "uint32",
          "name": "",
          "type": "uint32"
        },
        {
          "internalType": "address",
          "name": "",
          "type": "address"
        }
      ],
      "name": "withdrawalRequestIndex",
      "outputs": [
        {
          "internalType": "uint256",
          "name": "",
          "type": "uint256"
        }
      ],
      "stateMutability": "view",
      "type": "function"
    },
    {
      "inputs": [
        {
          "internalType": "uint32",
          "name": "",
          "type": "uint32"
        },
        {
          "internalType": "address",
          "name": "",
          "type": "address"
        },
        {
          "internalType": "uint256",
          "name": "",
          "type": "uint256"
        }
      ],
      "name": "withdrawalRequests",
      "outputs": [
        {
          "internalType": "uint32",
          "name": "withdrawableBlockNumber",
          "type": "uint32"
        },
        {
          "internalType": "uint128",
          "name": "amount",
          "type": "uint128"
        },
        {
          "internalType": "bool",
          "name": "processed",
          "type": "bool"
        }
      ],
      "stateMutability": "view",
      "type": "function"
    }
  ],
  "bytecode": "0x60806040526006805460ff1916600117905534801561001d57600080fd5b50613ed18061002d6000396000f3fe608060405234801561001057600080fd5b50600436106103835760003560e01c8063744a3561116101de5780639c2f614f1161010f578063b911135f116100ad578063d547741f1161007c578063d547741f14610ad0578063df2b429014610ae3578063ec110d4514610af6578063edcc217714610b0957600080fd5b8063b911135f14610a67578063b969fbef14610a90578063b9cab97114610a98578063cc48b94714610ab857600080fd5b8063a217fddf116100e9578063a217fddf14610a16578063aa9224cd14610a1e578063b413b37a14610a31578063b6a2f99d14610a3957600080fd5b80639c2f614f1461095a5780639c656e261461096d578063a0b2a913146109f657600080fd5b80638c6f1b391161017c5780638d99e1ca116101565780638d99e1ca146108bf5780638ddd87fe146108d257806391d148541461091057806394c89b2c1461094757600080fd5b80638c6f1b39146108215780638c71762d146108775780638d1f3d0a146108ac57600080fd5b80637cf1587c116101b85780637cf1587c146107aa5780637d211a1c146107d55780637ec6840f146107e85780638afec9fc146107fb57600080fd5b8063744a35611461075d57806375829def1461077057806375b238fc1461078357600080fd5b806346bcdb49116102b85780635f1b989e116102565780636d1ef103116102305780636d1ef103146106d8578063704802751461071757806370619cf91461072a57806373469a7a1461074a57600080fd5b80635f1b989e1461062157806363a8fd89146106ab578063659ab820146106b857600080fd5b806350d2a2761161029257806350d2a27614610597578063550d01a3146105c05780635d0c7b2b146105e35780635e2cfe45146105f657600080fd5b806346bcdb49146105715780634de131ca146105795780634e1a264d1461058e57600080fd5b806322985246116103255780632f2ff15d116102ff5780632f2ff15d1461052557806336568abe1461053857806341e5dbe81461054b5780634273ca161461055e57600080fd5b806322985246146104c8578063248a9ca3146104ef57806324d7806c1461051257600080fd5b806316b5d5bd1161036157806316b5d5bd146103e65780631785f53c146104115780631ed94495146104245780631f760d011461048957600080fd5b80630116cc651461038857806301ffc9a7146103ae578063118e29d1146103d1575b600080fd5b61039b61039636600461381c565b610b1c565b6040519081526020015b60405180910390f35b6103c16103bc366004613837565b610bcf565b60405190151581526020016103a5565b6103e46103df36600461381c565b610c06565b005b6008546103f9906001600160a01b031681565b6040516001600160a01b0390911681526020016103a5565b6103e461041f366004613876565b610c7b565b610437610432366004613893565b610d08565b6040516103a59190600060c0820190508251825260208301516020830152604083015160408301526060830151606083015260808301511515608083015261ffff60a08401511660a083015292915050565b61049c610497366004613893565b610dc6565b6040805194855263ffffffff9384166020860152918316918401919091521660608201526080016103a5565b61039b7ffb5864e8ff833c3cb2d2d08505e82ff02a43554c74a35d4f5a64e8526127831181565b61039b6104fd3660046138ca565b60009081526020819052604090206001015490565b6103c1610520366004613876565b610f04565b6103e46105333660046138e3565b610f44565b6103e46105463660046138e3565b610f6e565b61039b61055936600461381c565b610ff6565b6103c161056c366004613908565b6110c8565b60125461039b565b61058161122c565b6040516103a591906139a7565b61039b60095481565b6103f96105a5366004613837565b6004602052600090815260409020546001600160a01b031681565b6103c16105ce366004613876565b60036020526000908152604090205460ff1681565b6103f96105f1366004613876565b61128e565b61039b610604366004613893565b600e60209081526000928352604080842090915290825290205481565b61039b61062f366004613893565b63ffffffff9091166000908152600b602090815260408083206001600160a01b03909416835292815290829020825160c081018452815481526001820154928101929092526002810154928201839052600381015460608301526004015460ff81161515608083015261ffff6101009091041660a09091015290565b6001546103c19060ff1681565b6106cb6106c636600461381c565b611354565b6040516103a59190613a44565b6106eb6106e6366004613a57565b6113ee565b6040805163ffffffff90941684526001600160801b0390921660208401521515908201526060016103a5565b6103e4610725366004613876565b61144d565b61039b61073836600461381c565b600a6020526000908152604090205481565b6007546103f9906001600160a01b031681565b6103e461076b366004613a96565b6114d7565b6103e461077e366004613876565b611542565b61039b7fdf8b4c520ffe197c5343c6f5aec59570151ef9a492f2c624fd45ddde6135ec4281565b61039b6107b8366004613893565b600d60209081526000928352604080842090915290825290205481565b6103c16107e336600461381c565b6116a4565b6103e46107f6366004613a96565b611762565b61039b61080936600461381c565b63ffffffff166000908152600a602052604090205490565b61083461082f36600461381c565b6117bb565b6040516103a5919081516001600160a01b039081168252602080840151821690830152604080840151821690830152606092830151169181019190915260800190565b61088a610885366004613893565b6118fd565b6040805193845263ffffffff92831660208501529116908201526060016103a5565b6103f96108ba36600461381c565b611a3a565b61039b6108cd36600461381c565b611b6e565b61039b6108e0366004613893565b63ffffffff82166000908152600e602090815260408083206001600160a01b038516845290915290205492915050565b6103c161091e3660046138e3565b6000918252602082815260408084206001600160a01b0393909316845291905290205460ff1690565b61039b610955366004613893565b611be1565b6103e4610968366004613a96565b611ccd565b6109c361097b366004613893565b600b602090815260009283526040808420909152908252902080546001820154600283015460038401546004909401549293919290919060ff811690610100900461ffff1686565b6040805196875260208701959095529385019290925260608401521515608083015261ffff1660a082015260c0016103a5565b61039b610a04366004613876565b60106020526000908152604090205481565b61039b600081565b6103e4610a2c36600461381c565b611cd7565b60095461039b565b610a4c610a47366004613893565b6120ec565b604080519384526020840192909252908201526060016103a5565b6103f9610a753660046138ca565b6002602052600090815260409020546001600160a01b031681565b61039b612147565b61039b610aa636600461381c565b600f6020526000908152604090205481565b6006546103f99061010090046001600160a01b031681565b6103e4610ade3660046138e3565b6121ba565b6103c1610af1366004613ad6565b6121df565b6103f9610b043660046138ca565b612325565b61039b610b17366004613b98565b61234f565b63ffffffff811660009081526011602052604081208054829190610b3f90613bb6565b80601f0160208091040260200160405190810160405280929190818152602001828054610b6b90613bb6565b8015610bb85780601f10610b8d57610100808354040283529160200191610bb8565b820191906000526020600020905b815481529060010190602001808311610b9b57829003601f168201915b505050505090508080519060200120915050919050565b60006001600160e01b03198216637965db0b60e01b1480610c0057506301ffc9a760e01b6001600160e01b03198316145b92915050565b63ffffffff81166000908152600d602090815260408083203380855292529091205490610c37908390836001612402565b610c775760405162461bcd60e51b815260206004820152600c60248201526b534c5f455f52455354414b4560a01b60448201526064015b60405180910390fd5b5050565b610c8433610f04565b610cdb5760405162461bcd60e51b815260206004820152602260248201527f41636365737369626c653a2043616c6c6572206973206e6f7420616e2061646d60448201526134b760f11b6064820152608401610c6e565b610d057fdf8b4c520ffe197c5343c6f5aec59570151ef9a492f2c624fd45ddde6135ec4282610f6e565b50565b610d476040518060c0016040528060008152602001600081526020016000815260200160008152602001600015158152602001600061ffff1681525090565b5063ffffffff9091166000908152600b602090815260408083206001600160a01b03909416835292815290829020825160c081018452815481526001820154928101929092526002810154928201929092526003820154606082015260049091015460ff81161515608083015261ffff6101009091041660a082015290565b63ffffffff8083166000818152600c602090815260408083206001600160a01b03871680855290835281842054948452600d835281842090845290915281205490929091839182919084165b81811015610ef95763ffffffff88166000908152600c602090815260408083206001600160a01b038b1684529091528120805483908110610e5557610e55613bea565b6000918252602080832060408051606081018252939091015463ffffffff8116845264010000000081046001600160801b031692840192909252600160a01b90910460ff1615159082018190529092509003610ee6578363ffffffff16600003610ebe57805193505b6020810151610ed6906001600160801b031688613c16565b9650610ee3600186613c29565b94505b5080610ef181613c4d565b915050610e12565b505092959194509250565b6001600160a01b03811660009081527f5cbfc8ee58ca47855df7bcf648dd304ddb6b932f9b87878bdf6318d7ec7ee5b7602052604081205460ff16610c00565b600082815260208190526040902060010154610f5f816128af565b610f6983836128b9565b505050565b6001600160a01b0381163314610fec5760405162461bcd60e51b815260206004820152602f60248201527f416363657373436f6e74726f6c3a2063616e206f6e6c792072656e6f756e636560448201527f20726f6c657320666f722073656c6600000000000000000000000000000000006064820152608401610c6e565b610c778282612957565b600080611002836117bb565b604080820151600654606084015192516347b00fb360e11b81526101009091046001600160a01b03908116600483015292831660248201529293501690638f601f6690604401602060405180830381865afa925050508015611081575060408051601f3d908101601f1916820190925261107e91810190613c66565b60015b6110bf573d8080156110af576040519150601f19603f3d011682016040523d82523d6000602084013e6110b4565b606091505b5060009250506110c2565b91505b50919050565b60065460009061010090046001600160a01b0316331461110f5760405162461bcd60e51b8152602060048201526002602482015261454160f01b6044820152606401610c6e565b61115f611156600085858080601f01602080910402602001604051908101604052809392919081815260200183838082843760009201919091525092939250506129d69050565b61ffff166116a4565b6111a25760405162461bcd60e51b81526020600482015260146024820152733737b716b932b3b4b9ba32b932b2103630bcb2b960611b6044820152606401610c6e565b60006111e8600085858080601f01602080910402602001604051908101604052809392919081815260200183838082843760009201919091525092939250506129d69050565b61ffff1690508415611211576006546112119061010090046001600160a01b0316883088612a96565b61121f818887600080612bba565b5060019695505050505050565b6060601280548060200260200160405190810160405280929190818152602001828054801561128457602002820191906000526020600020905b81546001600160a01b03168152600190910190602001808311611266575b5050505050905090565b60405163bf40fac160e01b815260206004820152600d60248201526c27ab26afa9b2b8bab2b731b2b960991b60448201526000906001600160a01b0383169063bf40fac190606401602060405180830381865afa92505050801561130f575060408051601f3d908101601f1916820190925261130c91810190613c7f565b60015b61134c573d80801561133d576040519150601f19603f3d011682016040523d82523d6000602084013e611342565b606091505b5060009392505050565b90505b919050565b6011602052600090815260409020805461136d90613bb6565b80601f016020809104026020016040519081016040528092919081815260200182805461139990613bb6565b80156113e65780601f106113bb576101008083540402835291602001916113e6565b820191906000526020600020905b8154815290600101906020018083116113c957829003601f168201915b505050505081565b600c602052826000526040600020602052816000526040600020818154811061141657600080fd5b60009182526020909120015463ffffffff8116935064010000000081046001600160801b03169250600160a01b900460ff16905083565b61145633610f04565b6114ad5760405162461bcd60e51b815260206004820152602260248201527f41636365737369626c653a2043616c6c6572206973206e6f7420616e2061646d60448201526134b760f11b6064820152608401610c6e565b610d057fdf8b4c520ffe197c5343c6f5aec59570151ef9a492f2c624fd45ddde6135ec4282610f44565b63ffffffff82166000908152600d6020908152604080832033808552925290912054906115079084908385612402565b610f695760405162461bcd60e51b815260206004820152600c60248201526b534c5f455f52455354414b4560a01b6044820152606401610c6e565b61154b33610f04565b6115a25760405162461bcd60e51b815260206004820152602260248201527f41636365737369626c653a2043616c6c6572206973206e6f7420616e2061646d60448201526134b760f11b6064820152608401610c6e565b6001600160a01b0381166115f85760405162461bcd60e51b815260206004820152601860248201527f41636365737369626c653a207a65726f206164647265737300000000000000006044820152606401610c6e565b6001600160a01b03811633036116505760405162461bcd60e51b815260206004820152601660248201527f41636365737369626c653a2073616d652061646d696e000000000000000000006044820152606401610c6e565b61167a7fdf8b4c520ffe197c5343c6f5aec59570151ef9a492f2c624fd45ddde6135ec4282610f44565b610d057fdf8b4c520ffe197c5343c6f5aec59570151ef9a492f2c624fd45ddde6135ec4233610f6e565b60085460405163370f791d60e11b815263ffffffff831660048201526000916001600160a01b031690636e1ef23a90602401602060405180830381865afa1580156116f3573d6000803e3d6000fd5b505050506040513d601f19601f820116820180604052508101906117179190613c9c565b61175a5760405162461bcd60e51b81526020600482015260146024820152733737b716b932b3b4b9ba32b932b2103630bcb2b960611b6044820152606401610c6e565b506001919050565b61176b826116a4565b6117ae5760405162461bcd60e51b81526020600482015260146024820152733737b716b932b3b4b9ba32b932b2103630bcb2b960611b6044820152606401610c6e565b610c778282600080612fae565b60408051608081018252600080825260208201819052918101829052606081019190915263ffffffff8216600090815260116020526040812080546117ff90613bb6565b80601f016020809104026020016040519081016040528092919081815260200182805461182b90613bb6565b80156118785780601f1061184d57610100808354040283529160200191611878565b820191906000526020600020905b81548152906001019060200180831161185b57829003601f168201915b50505050509050604f815111156110c2576040805160808101909152806118a0836000612fde565b6001600160a01b031681526020016118b9836014612fde565b6001600160a01b031681526020016118d2836028612fde565b6001600160a01b031681526020016118eb83603c612fde565b6001600160a01b031690529392505050565b63ffffffff8083166000818152600c602090815260408083206001600160a01b03871680855290835281842054948452600d835281842090845290915281205490929091839183165b81811015611a315763ffffffff87166000908152600c602090815260408083206001600160a01b038a168452909152812080548390811061198957611989613bea565b600091825260209182902060408051606081018252929091015463ffffffff811680845264010000000082046001600160801b031694840194909452600160a01b900460ff161515908201529150431180156119e757506040810151155b15611a18576020810151611a04906001600160801b031687613c16565b9550611a11600185613c29565b9350611a1e565b50611a31565b5080611a2981613c4d565b915050611946565b50509250925092565b63ffffffff811660009081526011602052604081208054829190611a5d90613bb6565b80601f0160208091040260200160405190810160405280929190818152602001828054611a8990613bb6565b8015611ad65780601f10611aab57610100808354040283529160200191611ad6565b820191906000526020600020905b815481529060010190602001808311611ab957829003601f168201915b50505050509050611af1600082612fde90919063ffffffff16565b60405163bf40fac160e01b815260206004820152600d60248201526c27ab26afa9b2b8bab2b731b2b960991b60448201526001600160a01b03919091169063bf40fac190606401602060405180830381865afa925050508015611081575060408051601f3d908101601f1916820190925261107e91810190613c7f565b6008546040516346ccf0e560e11b815263ffffffff831660048201526000916001600160a01b031690638d99e1ca90602401602060405180830381865afa158015611bbd573d6000803e3d6000fd5b505050506040513d601f19601f82011682018060405250810190610c009190613c66565b60075463ffffffff83166000908152600b602090815260408083206001600160a01b038681168552908352818420825160c081018452815481526001820154948101949094526002810154928401839052600381015460608501526004015460ff811615156080850152610100900461ffff1660a0909301929092529192169063cdf68009906040518263ffffffff1660e01b8152600401611c8591815260200190565b602060405180830381865afa158015611ca2573d6000803e3d6000fd5b505050506040513d601f19601f82011682018060405250810190611cc69190613c66565b9392505050565b610c7782826130ae565b60065460ff16611d125760405162461bcd60e51b8152600401610c6e906020808252600490820152636c6f636b60e01b604082015260600190565b6006805460ff1916905563ffffffff81166000818152600c602090815260408083203380855290835281842054948452600d83528184208185529092528220549092919081905b83811015611e2b5763ffffffff86166000908152600c602090815260408083206001600160a01b03891684529091528120805483908110611d9c57611d9c613bea565b600091825260209091200180549091504363ffffffff909116108015611dcb57508054600160a01b900460ff16155b15611e1257805460ff60a01b1916600160a01b17808255611dfe906001600160801b036401000000009091041684613c16565b925083611e0a81613c4d565b945050611e18565b50611e2b565b5080611e2381613c4d565b915050611d59565b5060008111611e7c5760405162461bcd60e51b815260206004820181905260248201527f7a65726f20617661696c61626c65207769746864726177616c20616d6f756e746044820152606401610c6e565b63ffffffff85166000908152600d602090815260408083206001600160a01b038816845290915281208054849290611eb5908490613c16565b909155505063ffffffff85166000908152600e602090815260408083206001600160a01b038816845290915281208054839290611ef3908490613cbe565b909155505063ffffffff85166000908152600f602052604081208054839290611f1d908490613cbe565b90915550506001600160a01b03841660009081526010602052604081208054839290611f4a908490613cbe565b90915550506006546040516370a0823160e01b815230600482015260009161010090046001600160a01b0316906370a0823190602401602060405180830381865afa158015611f9d573d6000803e3d6000fd5b505050506040513d601f19601f82011682018060405250810190611fc19190613c66565b90508181101561206c578015611fed57600654611fed9061010090046001600160a01b031686836134bf565b6007546001600160a01b031663aad3ec96866120098486613cbe565b6040516001600160e01b031960e085901b1681526001600160a01b0390921660048301526024820152604401600060405180830381600087803b15801561204f57600080fd5b505af1158015612063573d6000803e3d6000fd5b50505050612088565b6006546120889061010090046001600160a01b031686846134bf565b6040805163ffffffff881681526001600160a01b03871660208201529081018390527f2d6eb139d2002caa088da5527d9d62f2f23bdf4504f5559a112535c436c6ee599060600160405180910390a150506006805460ff1916600117905550505050565b63ffffffff82166000818152600c602090815260408083206001600160a01b03861680855290835281842054948452600d8352818420908452909152812054908183106121405761213d8284613cbe565b90505b9250925092565b6008546040805163b969fbef60e01b815290516000926001600160a01b03169163b969fbef9160048083019260209291908290030181865afa158015612191573d6000803e3d6000fd5b505050506040513d601f19601f820116820180604052508101906121b59190613c66565b905090565b6000828152602081905260409020600101546121d5816128af565b610f698383612957565b6008546000906001600160a01b0316331461223c5760405162461bcd60e51b815260206004820152601160248201527f6e6f74204c61796572324d616e616765720000000000000000000000000000006044820152606401610c6e565b815160501461228d5760405162461bcd60e51b815260206004820152600f60248201527f77726f6e67206c61796572496e666f00000000000000000000000000000000006044820152606401610c6e565b63ffffffff8316600090815260116020526040902080546122ad90613bb6565b1590506122fc5760405162461bcd60e51b815260206004820152600f60248201527f616c7265616479206372656174656400000000000000000000000000000000006044820152606401610c6e565b63ffffffff8316600090815260116020526040902061231b8382613d17565b5060019392505050565b6012818154811061233557600080fd5b6000918252602090912001546001600160a01b0316905081565b6006546040516347b00fb360e11b81526001600160a01b03610100909204821660048201528282166024820152600091841690638f601f6690604401602060405180830381865afa9250505080156123c4575060408051601f3d908101601f191682019092526123c191810190613c66565b60015b611cc6573d8080156123f2576040519150601f19603f3d011682016040523d82523d6000602084013e6123f7565b606091505b506000915050610c00565b60065460009060ff166124405760405162461bcd60e51b8152600401610c6e906020808252600490820152636c6f636b60e01b604082015260600190565b6006805460ff1916905563ffffffff85166000908152600c602090815260408083206001600160a01b0388168452909152812054806124ae5760405162461bcd60e51b815260206004820152600a6024820152696e6f20756e7374616b6560b01b6044820152606401610c6e565b836124b98683613cbe565b10156125075760405162461bcd60e51b815260206004820152601860248201527f6e2065786365656473206e756d206f662070656e64696e6700000000000000006044820152606401610c6e565b60006125138587613c16565b90505b808610156126095763ffffffff88166000908152600c602090815260408083206001600160a01b038b168452909152812080548890811061255957612559613bea565b6000918252602090912001805490915064010000000081046001600160801b031690600160a01b900460ff16156125d25760405162461bcd60e51b815260206004820152601260248201527f616c7265616479207769746864726177616c00000000000000000000000000006044820152606401610c6e565b80156125e5576125e28186613c16565b94505b50805460ff60a01b1916600160a01b1790558561260181613c4d565b965050612516565b600083116126595760405162461bcd60e51b815260206004820152601760248201527f6e6f2076616c69642072657374616b6520616d6f756e740000000000000000006044820152606401610c6e565b600754604051636a2fb1f560e01b8152600481018590526000916001600160a01b031690636a2fb1f590602401602060405180830381865afa1580156126a3573d6000803e3d6000fd5b505050506040513d601f19601f820116820180604052508101906126c79190613c66565b63ffffffff8a166000908152600b602090815260408083206001600160a01b038d168452909152812080549293509186918391612705908490613c16565b92505081905550818160020160008282546127209190613c16565b909155505063ffffffff8a166000908152600a60205260408120805484929061274a908490613c16565b9250508190555081600960008282546127639190613c16565b909155505063ffffffff8a166000908152600e602090815260408083206001600160a01b038d168452909152812080548792906127a1908490613cbe565b909155505063ffffffff8a166000908152600f6020526040812080548792906127cb908490613cbe565b90915550506001600160a01b038916600090815260106020526040812080548792906127f8908490613cbe565b909155505063ffffffff8a166000908152600d602090815260408083206001600160a01b038d16845290915281208054899290612836908490613c16565b90915550506040805163ffffffff8c1681526001600160a01b038b166020820152908101869052606081018390527f34981dc0486069d2abbaddbc42e10b97cb24e4bce60ee4457e1d5062dfc0b4299060800160405180910390a16001955050505050506006805460ff19166001179055949350505050565b610d0581336135da565b6000828152602081815260408083206001600160a01b038516845290915290205460ff16610c77576000828152602081815260408083206001600160a01b03851684529091529020805460ff191660011790556129133390565b6001600160a01b0316816001600160a01b0316837f2f8788117e7eff1d82e926ec794901d17c78024a50270940304540a733656f0d60405160405180910390a45050565b6000828152602081815260408083206001600160a01b038516845290915290205460ff1615610c77576000828152602081815260408083206001600160a01b0385168085529252808320805460ff1916905551339285917ff6391f5c32d9c69d2a47ea670b442974b53935d1edc7fd64eb21e047a839171b9190a45050565b6000816129e4816004613c16565b1015612a325760405162461bcd60e51b815260206004820152601160248201527f746f55696e7431365f6f766572666c6f770000000000000000000000000000006044820152606401610c6e565b612a3d826004613c16565b83511015612a8d5760405162461bcd60e51b815260206004820152601460248201527f746f55696e7431365f6f75744f66426f756e64730000000000000000000000006044820152606401610c6e565b50016004015190565b604080516001600160a01b0385811660248301528481166044830152606480830185905283518084039091018152608490920183526020820180516001600160e01b03166323b872dd60e01b1790529151600092839290881691612afa9190613dd7565b6000604051808303816000865af19150503d8060008114612b37576040519150601f19603f3d011682016040523d82523d6000602084013e612b3c565b606091505b5091509150818015612b66575080511580612b66575080806020019051810190612b669190613c9c565b612bb25760405162461bcd60e51b815260206004820152601460248201527f5452414e534645525f46524f4d5f4641494c45440000000000000000000000006044820152606401610c6e565b505050505050565b60065460ff16612bf55760405162461bcd60e51b8152600401610c6e906020808252600490820152636c6f636b60e01b604082015260600190565b6006805460ff19169055826000819003612c365760405162461bcd60e51b81526020600482015260026024820152615a3160f01b6044820152606401610c6e565b600754604051636a2fb1f560e01b8152600481018690526000916001600160a01b031690636a2fb1f590602401602060405180830381865afa158015612c80573d6000803e3d6000fd5b505050506040513d601f19601f82011682018060405250810190612ca49190613c66565b63ffffffff88166000908152600a6020526040812080549293508392909190612cce908490613c16565b925050819055508060096000828254612ce79190613c16565b909155505063ffffffff87166000908152600b602090815260408083206001600160a01b038a1684529091529020600481015460ff16612d8957600481018054600160ff1990911681179091556012805491820181556000527fbb8a6a4669ba250d26cd7a459eca9d215f8307e33aebe50379bc5a3617ec344401805473ffffffffffffffffffffffffffffffffffffffff19166001600160a01b0389161790555b600061ffff851615801590612da657506001600160a01b03861615155b8015612db757506127108561ffff16105b15612efa57612710612dcd61ffff871685613df3565b612dd79190613e0a565b9050612de38184613cbe565b60075460405163cdf6800960e01b8152600481018390529194506000916001600160a01b039091169063cdf6800990602401602060405180830381865afa158015612e32573d6000803e3d6000fd5b505050506040513d601f19601f82011682018060405250810190612e569190613c66565b905080836000016000828254612e6c9190613c16565b9250508190555083836002016000828254612e879190613c16565b909155505063ffffffff8a166000908152600b602090815260408083206001600160a01b038b1684529091529020612ebf828a613cbe565b816000016000828254612ed29190613c16565b9250508190555082816002016000828254612eed9190613c16565b90915550612f2f92505050565b86826000016000828254612f0e9190613c16565b9250508190555082826002016000828254612f299190613c16565b90915550505b6040805163ffffffff8b1681526001600160a01b038a811660208301528183018a9052606082018690528816608082015261ffff871660a082015290517f318dab784577ac2e7d86f88c3f2a80520b447b822b8a756158648e0f917d16a09181900360c00190a150506006805460ff1916600117905550505050505050565b600654612fcb9061010090046001600160a01b0316333086612a96565b612fd88433858585612bba565b50505050565b600081612fec816014613c16565b101561303a5760405162461bcd60e51b815260206004820152601260248201527f746f416464726573735f6f766572666c6f7700000000000000000000000000006044820152606401610c6e565b613045826014613c16565b835110156130955760405162461bcd60e51b815260206004820152601560248201527f746f416464726573735f6f75744f66426f756e647300000000000000000000006044820152606401610c6e565b5001602001516c01000000000000000000000000900490565b60065460ff166130e95760405162461bcd60e51b8152600401610c6e906020808252600490820152636c6f636b60e01b604082015260600190565b6006805460ff1916905580600081900361312a5760405162461bcd60e51b81526020600482015260026024820152615a3160f01b6044820152606401610c6e565b60075460405163cdf6800960e01b81526004810184905233916000916001600160a01b039091169063cdf6800990602401602060405180830381865afa158015613178573d6000803e3d6000fd5b505050506040513d601f19601f8201168201806040525081019061319c9190613c66565b63ffffffff86166000908152600b602090815260408083206001600160a01b038716845290915290206002810154919250908511156132065760405162461bcd60e51b8152600401610c6e90602080825260049082015263534c5f3160e01b604082015260600190565b8481600201600082825461321a9190613cbe565b90915550508054821115613231576000815561324b565b818160000160008282546132459190613cbe565b90915550505b63ffffffff86166000908152600a602052604081208054879290613270908490613cbe565b9250508190555084600960008282546132899190613cbe565b909155505060085460408051636577b27360e11b815290516000926001600160a01b03169163caef64e69160048083019260209291908290030181865afa1580156132d8573d6000803e3d6000fd5b505050506040513d601f19601f820116820180604052508101906132fc9190613c66565b63ffffffff88166000908152600c602090815260408083206001600160a01b0389168452909152908190208151606081019092529192508061333e8443613c16565b63ffffffff90811682526001600160801b0380881660208085019190915260006040948501819052865460018101885596815281812086519701805487840151978701511515600160a01b0260ff60a01b19989095166401000000000273ffffffffffffffffffffffffffffffffffffffff19909116988616989098179790971795909516919091179094558a168252600e83528082206001600160a01b038816835290925290812080548592906133f7908490613c16565b909155505063ffffffff87166000908152600f602052604081208054859290613421908490613c16565b90915550506001600160a01b0384166000908152601060205260408120805485929061344e908490613c16565b90915550506040805163ffffffff891681526001600160a01b0386166020820152908101849052606081018790527f869a01319d83bb921803a22e3e95d0cb8b08e708d3fb144e2c25a563bf8650d39060800160405180910390a150506006805460ff191660011790555050505050565b604080516001600160a01b038481166024830152604480830185905283518084039091018152606490920183526020820180516001600160e01b031663a9059cbb60e01b179052915160009283929087169161351b9190613dd7565b6000604051808303816000865af19150503d8060008114613558576040519150601f19603f3d011682016040523d82523d6000602084013e61355d565b606091505b50915091508180156135875750805115806135875750808060200190518101906135879190613c9c565b6135d35760405162461bcd60e51b815260206004820152600f60248201527f5452414e534645525f4641494c454400000000000000000000000000000000006044820152606401610c6e565b5050505050565b6000828152602081815260408083206001600160a01b038516845290915290205460ff16610c775761360b8161364d565b61361683602061365f565b604051602001613627929190613e2c565b60408051601f198184030181529082905262461bcd60e51b8252610c6e91600401613a44565b6060610c006001600160a01b03831660145b6060600061366e836002613df3565b613679906002613c16565b67ffffffffffffffff81111561369157613691613ac0565b6040519080825280601f01601f1916602001820160405280156136bb576020820181803683370190505b509050600360fc1b816000815181106136d6576136d6613bea565b60200101906001600160f81b031916908160001a905350600f60fb1b8160018151811061370557613705613bea565b60200101906001600160f81b031916908160001a9053506000613729846002613df3565b613734906001613c16565b90505b60018111156137b9577f303132333435363738396162636465660000000000000000000000000000000085600f166010811061377557613775613bea565b1a60f81b82828151811061378b5761378b613bea565b60200101906001600160f81b031916908160001a90535060049490941c936137b281613ead565b9050613737565b508315611cc65760405162461bcd60e51b815260206004820181905260248201527f537472696e67733a20686578206c656e67746820696e73756666696369656e746044820152606401610c6e565b803563ffffffff8116811461134f57600080fd5b60006020828403121561382e57600080fd5b611cc682613808565b60006020828403121561384957600080fd5b81356001600160e01b031981168114611cc657600080fd5b6001600160a01b0381168114610d0557600080fd5b60006020828403121561388857600080fd5b8135611cc681613861565b600080604083850312156138a657600080fd5b6138af83613808565b915060208301356138bf81613861565b809150509250929050565b6000602082840312156138dc57600080fd5b5035919050565b600080604083850312156138f657600080fd5b8235915060208301356138bf81613861565b60008060008060006080868803121561392057600080fd5b853561392b81613861565b9450602086013561393b81613861565b935060408601359250606086013567ffffffffffffffff8082111561395f57600080fd5b818801915088601f83011261397357600080fd5b81358181111561398257600080fd5b89602082850101111561399457600080fd5b9699959850939650602001949392505050565b6020808252825182820181905260009190848201906040850190845b818110156139e85783516001600160a01b0316835292840192918401916001016139c3565b50909695505050505050565b60005b83811015613a0f5781810151838201526020016139f7565b50506000910152565b60008151808452613a308160208601602086016139f4565b601f01601f19169290920160200192915050565b602081526000611cc66020830184613a18565b600080600060608486031215613a6c57600080fd5b613a7584613808565b92506020840135613a8581613861565b929592945050506040919091013590565b60008060408385031215613aa957600080fd5b613ab283613808565b946020939093013593505050565b634e487b7160e01b600052604160045260246000fd5b60008060408385031215613ae957600080fd5b613af283613808565b9150602083013567ffffffffffffffff80821115613b0f57600080fd5b818501915085601f830112613b2357600080fd5b813581811115613b3557613b35613ac0565b604051601f8201601f19908116603f01168101908382118183101715613b5d57613b5d613ac0565b81604052828152886020848701011115613b7657600080fd5b8260208601602083013760006020848301015280955050505050509250929050565b60008060408385031215613bab57600080fd5b82356138af81613861565b600181811c90821680613bca57607f821691505b6020821081036110c257634e487b7160e01b600052602260045260246000fd5b634e487b7160e01b600052603260045260246000fd5b634e487b7160e01b600052601160045260246000fd5b80820180821115610c0057610c00613c00565b63ffffffff818116838216019080821115613c4657613c46613c00565b5092915050565b600060018201613c5f57613c5f613c00565b5060010190565b600060208284031215613c7857600080fd5b5051919050565b600060208284031215613c9157600080fd5b8151611cc681613861565b600060208284031215613cae57600080fd5b81518015158114611cc657600080fd5b81810381811115610c0057610c00613c00565b601f821115610f6957600081815260208120601f850160051c81016020861015613cf85750805b601f850160051c820191505b81811015612bb257828155600101613d04565b815167ffffffffffffffff811115613d3157613d31613ac0565b613d4581613d3f8454613bb6565b84613cd1565b602080601f831160018114613d7a5760008415613d625750858301515b600019600386901b1c1916600185901b178555612bb2565b600085815260208120601f198616915b82811015613da957888601518255948401946001909101908401613d8a565b5085821015613dc75787850151600019600388901b60f8161c191681555b5050505050600190811b01905550565b60008251613de98184602087016139f4565b9190910192915050565b8082028115828204841417610c0057610c00613c00565b600082613e2757634e487b7160e01b600052601260045260246000fd5b500490565b7f416363657373436f6e74726f6c3a206163636f756e7420000000000000000000815260008351613e648160178501602088016139f4565b7f206973206d697373696e6720726f6c65200000000000000000000000000000006017918401918201528351613ea18160288401602088016139f4565b01602801949350505050565b600081613ebc57613ebc613c00565b50600019019056fea164736f6c6343000812000a",
  "linkReferences": {},
  "deployedLinkReferences": {}
}