{
  "_format": "hh-sol-artifact-1",
  "contractName": "OptimismSequencer",
  "sourceName": "contracts/OptimismSequencer.sol",
  "abi": [
    {
      "inputs": [],
      "stateMutability": "nonpayable",
      "type": "constructor"
    },
    {
      "anonymous": false,
      "inputs": [
        {
          "indexed": false,
          "internalType": "uint32",
          "name": "_index",
          "type": "uint32"
        },
        {
          "indexed": false,
          "internalType": "address",
          "name": "sender",
          "type": "address"
        },
        {
          "indexed": false,
          "internalType": "uint256",
          "name": "amount",
          "type": "uint256"
        },
        {
          "indexed": false,
          "internalType": "uint256",
          "name": "lton",
          "type": "uint256"
        }
      ],
      "name": "Restaked",
      "type": "event"
    },
    {
      "anonymous": false,
      "inputs": [
        {
          "indexed": true,
          "internalType": "bytes32",
          "name": "role",
          "type": "bytes32"
        },
        {
          "indexed": true,
          "internalType": "bytes32",
          "name": "previousAdminRole",
          "type": "bytes32"
        },
        {
          "indexed": true,
          "internalType": "bytes32",
          "name": "newAdminRole",
          "type": "bytes32"
        }
      ],
      "name": "RoleAdminChanged",
      "type": "event"
    },
    {
      "anonymous": false,
      "inputs": [
        {
          "indexed": true,
          "internalType": "bytes32",
          "name": "role",
          "type": "bytes32"
        },
        {
          "indexed": true,
          "internalType": "address",
          "name": "account",
          "type": "address"
        },
        {
          "indexed": true,
          "internalType": "address",
          "name": "sender",
          "type": "address"
        }
      ],
      "name": "RoleGranted",
      "type": "event"
    },
    {
      "anonymous": false,
      "inputs": [
        {
          "indexed": true,
          "internalType": "bytes32",
          "name": "role",
          "type": "bytes32"
        },
        {
          "indexed": true,
          "internalType": "address",
          "name": "account",
          "type": "address"
        },
        {
          "indexed": true,
          "internalType": "address",
          "name": "sender",
          "type": "address"
        }
      ],
      "name": "RoleRevoked",
      "type": "event"
    },
    {
      "anonymous": false,
      "inputs": [
        {
          "indexed": false,
          "internalType": "uint32",
          "name": "_index",
          "type": "uint32"
        },
        {
          "indexed": false,
          "internalType": "address",
          "name": "sender",
          "type": "address"
        },
        {
          "indexed": false,
          "internalType": "uint256",
          "name": "amount",
          "type": "uint256"
        },
        {
          "indexed": false,
          "internalType": "uint256",
          "name": "lton",
          "type": "uint256"
        }
      ],
      "name": "Staked",
      "type": "event"
    },
    {
      "anonymous": false,
      "inputs": [
        {
          "indexed": false,
          "internalType": "uint32",
          "name": "_index",
          "type": "uint32"
        },
        {
          "indexed": false,
          "internalType": "address",
          "name": "sender",
          "type": "address"
        },
        {
          "indexed": false,
          "internalType": "uint256",
          "name": "amount",
          "type": "uint256"
        },
        {
          "indexed": false,
          "internalType": "uint256",
          "name": "lton",
          "type": "uint256"
        }
      ],
      "name": "Unstaked",
      "type": "event"
    },
    {
      "anonymous": false,
      "inputs": [
        {
          "indexed": false,
          "internalType": "uint32",
          "name": "_index",
          "type": "uint32"
        },
        {
          "indexed": false,
          "internalType": "address",
          "name": "sender",
          "type": "address"
        },
        {
          "indexed": false,
          "internalType": "uint256",
          "name": "amount",
          "type": "uint256"
        }
      ],
      "name": "Withdrawal",
      "type": "event"
    },
    {
      "inputs": [],
      "name": "ADMIN_ROLE",
      "outputs": [
        {
          "internalType": "bytes32",
          "name": "",
          "type": "bytes32"
        }
      ],
      "stateMutability": "view",
      "type": "function"
    },
    {
      "inputs": [],
      "name": "DEFAULT_ADMIN_ROLE",
      "outputs": [
        {
          "internalType": "bytes32",
          "name": "",
          "type": "bytes32"
        }
      ],
      "stateMutability": "view",
      "type": "function"
    },
    {
      "inputs": [],
      "name": "POLICY_ROLE",
      "outputs": [
        {
          "internalType": "bytes32",
          "name": "",
          "type": "bytes32"
        }
      ],
      "stateMutability": "view",
      "type": "function"
    },
    {
      "inputs": [
        {
          "internalType": "address",
          "name": "account",
          "type": "address"
        }
      ],
      "name": "addAdmin",
      "outputs": [],
      "stateMutability": "nonpayable",
      "type": "function"
    },
    {
      "inputs": [
        {
          "internalType": "address",
          "name": "",
          "type": "address"
        }
      ],
      "name": "aliveImplementation",
      "outputs": [
        {
          "internalType": "bool",
          "name": "",
          "type": "bool"
        }
      ],
      "stateMutability": "view",
      "type": "function"
    },
    {
      "inputs": [
        {
          "internalType": "uint32",
          "name": "layerIndex",
          "type": "uint32"
        },
        {
          "internalType": "address",
          "name": "account",
          "type": "address"
        }
      ],
      "name": "amountOfPendings",
      "outputs": [
        {
          "internalType": "uint256",
          "name": "amount",
          "type": "uint256"
        },
        {
          "internalType": "uint32",
          "name": "startIndex",
          "type": "uint32"
        },
        {
          "internalType": "uint32",
          "name": "len",
          "type": "uint32"
        },
        {
          "internalType": "uint32",
          "name": "nextWithdrawableBlockNumber",
          "type": "uint32"
        }
      ],
      "stateMutability": "view",
      "type": "function"
    },
    {
      "inputs": [
        {
          "internalType": "uint32",
          "name": "_index",
          "type": "uint32"
        },
        {
          "internalType": "address",
          "name": "account",
          "type": "address"
        }
      ],
      "name": "availableWithdraw",
      "outputs": [
        {
          "internalType": "uint256",
          "name": "amount",
          "type": "uint256"
        },
        {
          "internalType": "uint32",
          "name": "startIndex",
          "type": "uint32"
        },
        {
          "internalType": "uint32",
          "name": "len",
          "type": "uint32"
        }
      ],
      "stateMutability": "view",
      "type": "function"
    },
    {
      "inputs": [
        {
          "internalType": "uint32",
          "name": "_index",
          "type": "uint32"
        },
        {
          "internalType": "address",
          "name": "account",
          "type": "address"
        }
      ],
      "name": "balanceOf",
      "outputs": [
        {
          "internalType": "uint256",
          "name": "amount",
          "type": "uint256"
        }
      ],
      "stateMutability": "view",
      "type": "function"
    },
    {
      "inputs": [
        {
          "internalType": "uint32",
          "name": "_index",
          "type": "uint32"
        },
        {
          "internalType": "address",
          "name": "account",
          "type": "address"
        }
      ],
      "name": "balanceOfLton",
      "outputs": [
        {
          "internalType": "uint256",
          "name": "amount",
          "type": "uint256"
        }
      ],
      "stateMutability": "view",
      "type": "function"
    },
    {
      "inputs": [
        {
          "internalType": "uint32",
          "name": "_index",
          "type": "uint32"
        }
      ],
      "name": "balanceOfLton",
      "outputs": [
        {
          "internalType": "uint256",
          "name": "amount",
          "type": "uint256"
        }
      ],
      "stateMutability": "view",
      "type": "function"
    },
    {
      "inputs": [
        {
          "internalType": "uint32",
          "name": "_index",
          "type": "uint32"
        },
        {
          "internalType": "bytes",
          "name": "_layerInfo",
          "type": "bytes"
        }
      ],
      "name": "create",
      "outputs": [
        {
          "internalType": "bool",
          "name": "",
          "type": "bool"
        }
      ],
      "stateMutability": "nonpayable",
      "type": "function"
    },
    {
      "inputs": [
        {
          "internalType": "uint32",
          "name": "_index",
          "type": "uint32"
        }
      ],
      "name": "existedIndex",
      "outputs": [
        {
          "internalType": "bool",
          "name": "",
          "type": "bool"
        }
      ],
      "stateMutability": "view",
      "type": "function"
    },
    {
      "inputs": [
        {
          "internalType": "uint32",
          "name": "_index",
          "type": "uint32"
        }
      ],
      "name": "getLayerInfo",
      "outputs": [
        {
          "components": [
            {
              "internalType": "address",
              "name": "addressManager",
              "type": "address"
            },
            {
              "internalType": "address",
              "name": "l1Messenger",
              "type": "address"
            },
            {
              "internalType": "address",
              "name": "l1Bridge",
              "type": "address"
            },
            {
              "internalType": "address",
              "name": "l2ton",
              "type": "address"
            }
          ],
          "internalType": "struct LibOptimism.Info",
          "name": "_layerInfo",
          "type": "tuple"
        }
      ],
      "stateMutability": "view",
      "type": "function"
    },
    {
      "inputs": [
        {
          "internalType": "uint32",
          "name": "_index",
          "type": "uint32"
        }
      ],
      "name": "getLayerKey",
      "outputs": [
        {
          "internalType": "bytes32",
          "name": "layerKey_",
          "type": "bytes32"
        }
      ],
      "stateMutability": "view",
      "type": "function"
    },
    {
      "inputs": [
        {
          "internalType": "uint32",
          "name": "_index",
          "type": "uint32"
        },
        {
          "internalType": "address",
          "name": "account",
          "type": "address"
        }
      ],
      "name": "getLayerStakes",
      "outputs": [
        {
          "components": [
            {
              "internalType": "uint256",
              "name": "stakePrincipal",
              "type": "uint256"
            },
            {
              "internalType": "uint256",
              "name": "bondPrincipal",
              "type": "uint256"
            },
            {
              "internalType": "uint256",
              "name": "stakelton",
              "type": "uint256"
            },
            {
              "internalType": "uint256",
              "name": "bondlton",
              "type": "uint256"
            },
            {
              "internalType": "bool",
              "name": "stake",
              "type": "bool"
            },
            {
              "internalType": "uint16",
              "name": "fwFee",
              "type": "uint16"
            }
          ],
          "internalType": "struct LibStake.StakeInfo",
          "name": "info",
          "type": "tuple"
        }
      ],
      "stateMutability": "view",
      "type": "function"
    },
    {
      "inputs": [
        {
          "internalType": "uint32",
          "name": "_index",
          "type": "uint32"
        },
        {
          "internalType": "address",
          "name": "account",
          "type": "address"
        }
      ],
      "name": "getPendingUnstakedAmount",
      "outputs": [
        {
          "internalType": "uint256",
          "name": "",
          "type": "uint256"
        }
      ],
      "stateMutability": "view",
      "type": "function"
    },
    {
      "inputs": [
        {
          "internalType": "bytes32",
          "name": "role",
          "type": "bytes32"
        }
      ],
      "name": "getRoleAdmin",
      "outputs": [
        {
          "internalType": "bytes32",
          "name": "",
          "type": "bytes32"
        }
      ],
      "stateMutability": "view",
      "type": "function"
    },
    {
      "inputs": [],
      "name": "getStakeAccountList",
      "outputs": [
        {
          "internalType": "address[]",
          "name": "",
          "type": "address[]"
        }
      ],
      "stateMutability": "view",
      "type": "function"
    },
    {
      "inputs": [],
      "name": "getTotalLton",
      "outputs": [
        {
          "internalType": "uint256",
          "name": "",
          "type": "uint256"
        }
      ],
      "stateMutability": "view",
      "type": "function"
    },
    {
      "inputs": [
        {
          "internalType": "uint32",
          "name": "_index",
          "type": "uint32"
        }
      ],
      "name": "getTvl",
      "outputs": [
        {
          "internalType": "uint256",
          "name": "amount",
          "type": "uint256"
        }
      ],
      "stateMutability": "view",
      "type": "function"
    },
    {
      "inputs": [
        {
          "internalType": "address",
          "name": "l1Bridge",
          "type": "address"
        },
        {
          "internalType": "address",
          "name": "l2ton",
          "type": "address"
        }
      ],
      "name": "getTvl",
      "outputs": [
        {
          "internalType": "uint256",
          "name": "amount",
          "type": "uint256"
        }
      ],
      "stateMutability": "view",
      "type": "function"
    },
    {
      "inputs": [
        {
          "internalType": "bytes32",
          "name": "role",
          "type": "bytes32"
        },
        {
          "internalType": "address",
          "name": "account",
          "type": "address"
        }
      ],
      "name": "grantRole",
      "outputs": [],
      "stateMutability": "nonpayable",
      "type": "function"
    },
    {
      "inputs": [
        {
          "internalType": "bytes32",
          "name": "role",
          "type": "bytes32"
        },
        {
          "internalType": "address",
          "name": "account",
          "type": "address"
        }
      ],
      "name": "hasRole",
      "outputs": [
        {
          "internalType": "bool",
          "name": "",
          "type": "bool"
        }
      ],
      "stateMutability": "view",
      "type": "function"
    },
    {
      "inputs": [
        {
          "internalType": "address",
          "name": "account",
          "type": "address"
        }
      ],
      "name": "isAdmin",
      "outputs": [
        {
          "internalType": "bool",
          "name": "",
          "type": "bool"
        }
      ],
      "stateMutability": "view",
      "type": "function"
    },
    {
      "inputs": [
        {
          "internalType": "uint32",
          "name": "_index",
          "type": "uint32"
        }
      ],
      "name": "layer2Deposits",
      "outputs": [
        {
          "internalType": "uint256",
          "name": "amount",
          "type": "uint256"
        }
      ],
      "stateMutability": "view",
      "type": "function"
    },
    {
      "inputs": [],
      "name": "layer2Manager",
      "outputs": [
        {
          "internalType": "address",
          "name": "",
          "type": "address"
        }
      ],
      "stateMutability": "view",
      "type": "function"
    },
    {
      "inputs": [
        {
          "internalType": "uint32",
          "name": "",
          "type": "uint32"
        }
      ],
      "name": "layerInfo",
      "outputs": [
        {
          "internalType": "bytes",
          "name": "",
          "type": "bytes"
        }
      ],
      "stateMutability": "view",
      "type": "function"
    },
    {
      "inputs": [
        {
          "internalType": "uint32",
          "name": "",
          "type": "uint32"
        }
      ],
      "name": "layerStakedLton",
      "outputs": [
        {
          "internalType": "uint256",
          "name": "",
          "type": "uint256"
        }
      ],
      "stateMutability": "view",
      "type": "function"
    },
    {
      "inputs": [
        {
          "internalType": "uint32",
          "name": "",
          "type": "uint32"
        },
        {
          "internalType": "address",
          "name": "",
          "type": "address"
        }
      ],
      "name": "layerStakes",
      "outputs": [
        {
          "internalType": "uint256",
          "name": "stakePrincipal",
          "type": "uint256"
        },
        {
          "internalType": "uint256",
          "name": "bondPrincipal",
          "type": "uint256"
        },
        {
          "internalType": "uint256",
          "name": "stakelton",
          "type": "uint256"
        },
        {
          "internalType": "uint256",
          "name": "bondlton",
          "type": "uint256"
        },
        {
          "internalType": "bool",
          "name": "stake",
          "type": "bool"
        },
        {
          "internalType": "uint16",
          "name": "fwFee",
          "type": "uint16"
        }
      ],
      "stateMutability": "view",
      "type": "function"
    },
    {
      "inputs": [
        {
          "internalType": "uint32",
          "name": "layerIndex",
          "type": "uint32"
        },
        {
          "internalType": "address",
          "name": "account",
          "type": "address"
        }
      ],
      "name": "numberOfPendings",
      "outputs": [
        {
          "internalType": "uint256",
          "name": "totalRequests",
          "type": "uint256"
        },
        {
          "internalType": "uint256",
          "name": "withdrawIndex",
          "type": "uint256"
        },
        {
          "internalType": "uint256",
          "name": "pendingLength",
          "type": "uint256"
        }
      ],
      "stateMutability": "view",
      "type": "function"
    },
    {
      "inputs": [
        {
          "internalType": "address",
          "name": "sender",
          "type": "address"
        },
        {
          "internalType": "address",
          "name": "spender",
          "type": "address"
        },
        {
          "internalType": "uint256",
          "name": "amount",
          "type": "uint256"
        },
        {
          "internalType": "bytes",
          "name": "data",
          "type": "bytes"
        }
      ],
      "name": "onApprove",
      "outputs": [
        {
          "internalType": "bool",
          "name": "",
          "type": "bool"
        }
      ],
      "stateMutability": "nonpayable",
      "type": "function"
    },
    {
      "inputs": [],
      "name": "pauseProxy",
      "outputs": [
        {
          "internalType": "bool",
          "name": "",
          "type": "bool"
        }
      ],
      "stateMutability": "view",
      "type": "function"
    },
    {
      "inputs": [
        {
          "internalType": "uint32",
          "name": "",
          "type": "uint32"
        },
        {
          "internalType": "address",
          "name": "",
          "type": "address"
        }
      ],
      "name": "pendingUnstaked",
      "outputs": [
        {
          "internalType": "uint256",
          "name": "",
          "type": "uint256"
        }
      ],
      "stateMutability": "view",
      "type": "function"
    },
    {
      "inputs": [
        {
          "internalType": "address",
          "name": "",
          "type": "address"
        }
      ],
      "name": "pendingUnstakedAccount",
      "outputs": [
        {
          "internalType": "uint256",
          "name": "",
          "type": "uint256"
        }
      ],
      "stateMutability": "view",
      "type": "function"
    },
    {
      "inputs": [
        {
          "internalType": "uint32",
          "name": "",
          "type": "uint32"
        }
      ],
      "name": "pendingUnstakedLayer2",
      "outputs": [
        {
          "internalType": "uint256",
          "name": "",
          "type": "uint256"
        }
      ],
      "stateMutability": "view",
      "type": "function"
    },
    {
      "inputs": [
        {
          "internalType": "uint256",
          "name": "",
          "type": "uint256"
        }
      ],
      "name": "proxyImplementation",
      "outputs": [
        {
          "internalType": "address",
          "name": "",
          "type": "address"
        }
      ],
      "stateMutability": "view",
      "type": "function"
    },
    {
      "inputs": [
        {
          "internalType": "address",
          "name": "account",
          "type": "address"
        }
      ],
      "name": "removeAdmin",
      "outputs": [],
      "stateMutability": "nonpayable",
      "type": "function"
    },
    {
      "inputs": [
        {
          "internalType": "bytes32",
          "name": "role",
          "type": "bytes32"
        },
        {
          "internalType": "address",
          "name": "account",
          "type": "address"
        }
      ],
      "name": "renounceRole",
      "outputs": [],
      "stateMutability": "nonpayable",
      "type": "function"
    },
    {
      "inputs": [
        {
          "internalType": "uint32",
          "name": "_index",
          "type": "uint32"
        }
      ],
      "name": "restake",
      "outputs": [],
      "stateMutability": "nonpayable",
      "type": "function"
    },
    {
      "inputs": [
        {
          "internalType": "uint32",
          "name": "_index",
          "type": "uint32"
        },
        {
          "internalType": "uint256",
          "name": "n",
          "type": "uint256"
        }
      ],
      "name": "restakeMulti",
      "outputs": [],
      "stateMutability": "nonpayable",
      "type": "function"
    },
    {
      "inputs": [
        {
          "internalType": "bytes32",
          "name": "role",
          "type": "bytes32"
        },
        {
          "internalType": "address",
          "name": "account",
          "type": "address"
        }
      ],
      "name": "revokeRole",
      "outputs": [],
      "stateMutability": "nonpayable",
      "type": "function"
    },
    {
      "inputs": [],
      "name": "seigManagerV2",
      "outputs": [
        {
          "internalType": "address",
          "name": "",
          "type": "address"
        }
      ],
      "stateMutability": "view",
      "type": "function"
    },
    {
      "inputs": [
        {
          "internalType": "bytes4",
          "name": "",
          "type": "bytes4"
        }
      ],
      "name": "selectorImplementation",
      "outputs": [
        {
          "internalType": "address",
          "name": "",
          "type": "address"
        }
      ],
      "stateMutability": "view",
      "type": "function"
    },
    {
      "inputs": [
        {
          "internalType": "address",
          "name": "addressManager",
          "type": "address"
        }
      ],
      "name": "sequencer",
      "outputs": [
        {
          "internalType": "address",
          "name": "sequencer_",
          "type": "address"
        }
      ],
      "stateMutability": "view",
      "type": "function"
    },
    {
      "inputs": [
        {
          "internalType": "uint32",
          "name": "_index",
          "type": "uint32"
        }
      ],
      "name": "sequencer",
      "outputs": [
        {
          "internalType": "address",
          "name": "sequencer_",
          "type": "address"
        }
      ],
      "stateMutability": "view",
      "type": "function"
    },
    {
      "inputs": [
        {
          "internalType": "uint32",
          "name": "_index",
          "type": "uint32"
        },
        {
          "internalType": "uint256",
          "name": "amount",
          "type": "uint256"
        }
      ],
      "name": "stake",
      "outputs": [],
      "stateMutability": "nonpayable",
      "type": "function"
    },
    {
      "inputs": [
        {
          "internalType": "uint256",
          "name": "",
          "type": "uint256"
        }
      ],
      "name": "stakeAccountList",
      "outputs": [
        {
          "internalType": "address",
          "name": "",
          "type": "address"
        }
      ],
      "stateMutability": "view",
      "type": "function"
    },
    {
      "inputs": [
        {
          "internalType": "bytes4",
          "name": "interfaceId",
          "type": "bytes4"
        }
      ],
      "name": "supportsInterface",
      "outputs": [
        {
          "internalType": "bool",
          "name": "",
          "type": "bool"
        }
      ],
      "stateMutability": "view",
      "type": "function"
    },
    {
      "inputs": [],
      "name": "ton",
      "outputs": [
        {
          "internalType": "address",
          "name": "",
          "type": "address"
        }
      ],
      "stateMutability": "view",
      "type": "function"
    },
    {
      "inputs": [],
      "name": "totalLayer2Deposits",
      "outputs": [
        {
          "internalType": "uint256",
          "name": "amount",
          "type": "uint256"
        }
      ],
      "stateMutability": "view",
      "type": "function"
    },
    {
      "inputs": [],
      "name": "totalStakeAccountList",
      "outputs": [
        {
          "internalType": "uint256",
          "name": "",
          "type": "uint256"
        }
      ],
      "stateMutability": "view",
      "type": "function"
    },
    {
      "inputs": [],
      "name": "totalStakedLton",
      "outputs": [
        {
          "internalType": "uint256",
          "name": "",
          "type": "uint256"
        }
      ],
      "stateMutability": "view",
      "type": "function"
    },
    {
      "inputs": [
        {
          "internalType": "address",
          "name": "newAdmin",
          "type": "address"
        }
      ],
      "name": "transferAdmin",
      "outputs": [],
      "stateMutability": "nonpayable",
      "type": "function"
    },
    {
      "inputs": [
        {
          "internalType": "uint32",
          "name": "_index",
          "type": "uint32"
        },
        {
          "internalType": "uint256",
          "name": "lton_",
          "type": "uint256"
        }
      ],
      "name": "unstake",
      "outputs": [],
      "stateMutability": "nonpayable",
      "type": "function"
    },
    {
      "inputs": [
        {
          "internalType": "uint32",
          "name": "_index",
          "type": "uint32"
        }
      ],
      "name": "withdraw",
      "outputs": [],
      "stateMutability": "nonpayable",
      "type": "function"
    },
    {
      "inputs": [
        {
          "internalType": "uint32",
          "name": "",
          "type": "uint32"
        },
        {
          "internalType": "address",
          "name": "",
          "type": "address"
        }
      ],
      "name": "withdrawalRequestIndex",
      "outputs": [
        {
          "internalType": "uint256",
          "name": "",
          "type": "uint256"
        }
      ],
      "stateMutability": "view",
      "type": "function"
    },
    {
      "inputs": [
        {
          "internalType": "uint32",
          "name": "",
          "type": "uint32"
        },
        {
          "internalType": "address",
          "name": "",
          "type": "address"
        },
        {
          "internalType": "uint256",
          "name": "",
          "type": "uint256"
        }
      ],
      "name": "withdrawalRequests",
      "outputs": [
        {
          "internalType": "uint32",
          "name": "withdrawableBlockNumber",
          "type": "uint32"
        },
        {
          "internalType": "uint128",
          "name": "amount",
          "type": "uint128"
        },
        {
          "internalType": "bool",
          "name": "processed",
          "type": "bool"
        }
      ],
      "stateMutability": "view",
      "type": "function"
    }
  ],
  "bytecode": "0x60806040526006805460ff1916600117905534801561001d57600080fd5b50613d578061002d6000396000f3fe608060405234801561001057600080fd5b50600436106103835760003560e01c8063744a3561116101de5780639c2f614f1161010f578063b911135f116100ad578063d547741f1161007c578063d547741f14610ad0578063df2b429014610ae3578063ec110d4514610af6578063edcc217714610b0957600080fd5b8063b911135f14610a67578063b969fbef14610a90578063b9cab97114610a98578063cc48b94714610ab857600080fd5b8063a217fddf116100e9578063a217fddf14610a16578063aa9224cd14610a1e578063b413b37a14610a31578063b6a2f99d14610a3957600080fd5b80639c2f614f1461095a5780639c656e261461096d578063a0b2a913146109f657600080fd5b80638c6f1b391161017c5780638d99e1ca116101565780638d99e1ca146108bf5780638ddd87fe146108d257806391d148541461091057806394c89b2c1461094757600080fd5b80638c6f1b39146108215780638c71762d146108775780638d1f3d0a146108ac57600080fd5b80637cf1587c116101b85780637cf1587c146107aa5780637d211a1c146107d55780637ec6840f146107e85780638afec9fc146107fb57600080fd5b8063744a35611461075d57806375829def1461077057806375b238fc1461078357600080fd5b806346bcdb49116102b85780635f1b989e116102565780636d1ef103116102305780636d1ef103146106d8578063704802751461071757806370619cf91461072a57806373469a7a1461074a57600080fd5b80635f1b989e1461062157806363a8fd89146106ab578063659ab820146106b857600080fd5b806350d2a2761161029257806350d2a27614610597578063550d01a3146105c05780635d0c7b2b146105e35780635e2cfe45146105f657600080fd5b806346bcdb49146105715780634de131ca146105795780634e1a264d1461058e57600080fd5b806322985246116103255780632f2ff15d116102ff5780632f2ff15d1461052557806336568abe1461053857806341e5dbe81461054b5780634273ca161461055e57600080fd5b806322985246146104c8578063248a9ca3146104ef57806324d7806c1461051257600080fd5b806316b5d5bd1161036157806316b5d5bd146103e65780631785f53c146104115780631ed94495146104245780631f760d011461048957600080fd5b80630116cc651461038857806301ffc9a7146103ae578063118e29d1146103d1575b600080fd5b61039b6103963660046136c4565b610b1c565b6040519081526020015b60405180910390f35b6103c16103bc3660046136df565b610bcf565b60405190151581526020016103a5565b6103e46103df3660046136c4565b610c06565b005b6008546103f9906001600160a01b031681565b6040516001600160a01b0390911681526020016103a5565b6103e461041f36600461371e565b610c7b565b61043761043236600461373b565b610d08565b6040516103a59190600060c0820190508251825260208301516020830152604083015160408301526060830151606083015260808301511515608083015261ffff60a08401511660a083015292915050565b61049c61049736600461373b565b610dc6565b6040805194855263ffffffff9384166020860152918316918401919091521660608201526080016103a5565b61039b7ffb5864e8ff833c3cb2d2d08505e82ff02a43554c74a35d4f5a64e8526127831181565b61039b6104fd366004613772565b60009081526020819052604090206001015490565b6103c161052036600461371e565b610f04565b6103e461053336600461378b565b610f44565b6103e461054636600461378b565b610f6e565b61039b6105593660046136c4565b610ff6565b6103c161056c3660046137b0565b6110c8565b60125461039b565b610581611174565b6040516103a5919061384f565b61039b60095481565b6103f96105a53660046136df565b6004602052600090815260409020546001600160a01b031681565b6103c16105ce36600461371e565b60036020526000908152604090205460ff1681565b6103f96105f136600461371e565b6111d6565b61039b61060436600461373b565b600e60209081526000928352604080842090915290825290205481565b61039b61062f36600461373b565b63ffffffff9091166000908152600b602090815260408083206001600160a01b03909416835292815290829020825160c081018452815481526001820154928101929092526002810154928201839052600381015460608301526004015460ff81161515608083015261ffff6101009091041660a09091015290565b6001546103c19060ff1681565b6106cb6106c63660046136c4565b61129c565b6040516103a591906138ec565b6106eb6106e63660046138ff565b611336565b6040805163ffffffff90941684526001600160801b0390921660208401521515908201526060016103a5565b6103e461072536600461371e565b611395565b61039b6107383660046136c4565b600a6020526000908152604090205481565b6007546103f9906001600160a01b031681565b6103e461076b36600461393e565b61141f565b6103e461077e36600461371e565b61148a565b61039b7fdf8b4c520ffe197c5343c6f5aec59570151ef9a492f2c624fd45ddde6135ec4281565b61039b6107b836600461373b565b600d60209081526000928352604080842090915290825290205481565b6103c16107e33660046136c4565b6115ec565b6103e46107f636600461393e565b6116aa565b61039b6108093660046136c4565b63ffffffff166000908152600a602052604090205490565b61083461082f3660046136c4565b611700565b6040516103a5919081516001600160a01b039081168252602080840151821690830152604080840151821690830152606092830151169181019190915260800190565b61088a61088536600461373b565b611842565b6040805193845263ffffffff92831660208501529116908201526060016103a5565b6103f96108ba3660046136c4565b61197f565b61039b6108cd3660046136c4565b611ab3565b61039b6108e036600461373b565b63ffffffff82166000908152600e602090815260408083206001600160a01b038516845290915290205492915050565b6103c161091e36600461378b565b6000918252602082815260408084206001600160a01b0393909316845291905290205460ff1690565b61039b61095536600461373b565b611b26565b6103e461096836600461393e565b611c12565b6109c361097b36600461373b565b600b602090815260009283526040808420909152908252902080546001820154600283015460038401546004909401549293919290919060ff811690610100900461ffff1686565b6040805196875260208701959095529385019290925260608401521515608083015261ffff1660a082015260c0016103a5565b61039b610a0436600461371e565b60106020526000908152604090205481565b61039b600081565b6103e4610a2c3660046136c4565b611c1c565b60095461039b565b610a4c610a4736600461373b565b612032565b604080519384526020840192909252908201526060016103a5565b6103f9610a75366004613772565b6002602052600090815260409020546001600160a01b031681565b61039b61208d565b61039b610aa63660046136c4565b600f6020526000908152604090205481565b6006546103f99061010090046001600160a01b031681565b6103e4610ade36600461378b565b612100565b6103c1610af136600461397e565b612125565b6103f9610b04366004613772565b61226b565b61039b610b17366004613a40565b612295565b63ffffffff811660009081526011602052604081208054829190610b3f90613a5e565b80601f0160208091040260200160405190810160405280929190818152602001828054610b6b90613a5e565b8015610bb85780601f10610b8d57610100808354040283529160200191610bb8565b820191906000526020600020905b815481529060010190602001808311610b9b57829003601f168201915b505050505090508080519060200120915050919050565b60006001600160e01b03198216637965db0b60e01b1480610c0057506301ffc9a760e01b6001600160e01b03198316145b92915050565b63ffffffff81166000908152600d602090815260408083203380855292529091205490610c37908390836001612348565b610c775760405162461bcd60e51b815260206004820152600c60248201526b534c5f455f52455354414b4560a01b60448201526064015b60405180910390fd5b5050565b610c8433610f04565b610cdb5760405162461bcd60e51b815260206004820152602260248201527f41636365737369626c653a2043616c6c6572206973206e6f7420616e2061646d60448201526134b760f11b6064820152608401610c6e565b610d057fdf8b4c520ffe197c5343c6f5aec59570151ef9a492f2c624fd45ddde6135ec4282610f6e565b50565b610d476040518060c0016040528060008152602001600081526020016000815260200160008152602001600015158152602001600061ffff1681525090565b5063ffffffff9091166000908152600b602090815260408083206001600160a01b03909416835292815290829020825160c081018452815481526001820154928101929092526002810154928201929092526003820154606082015260049091015460ff81161515608083015261ffff6101009091041660a082015290565b63ffffffff8083166000818152600c602090815260408083206001600160a01b03871680855290835281842054948452600d835281842090845290915281205490929091839182919084165b81811015610ef95763ffffffff88166000908152600c602090815260408083206001600160a01b038b1684529091528120805483908110610e5557610e55613a92565b6000918252602080832060408051606081018252939091015463ffffffff8116845264010000000081046001600160801b031692840192909252600160a01b90910460ff1615159082018190529092509003610ee6578363ffffffff16600003610ebe57805193505b6020810151610ed6906001600160801b031688613abe565b9650610ee3600186613ad1565b94505b5080610ef181613af5565b915050610e12565b505092959194509250565b6001600160a01b03811660009081527f5cbfc8ee58ca47855df7bcf648dd304ddb6b932f9b87878bdf6318d7ec7ee5b7602052604081205460ff16610c00565b600082815260208190526040902060010154610f5f816127f5565b610f6983836127ff565b505050565b6001600160a01b0381163314610fec5760405162461bcd60e51b815260206004820152602f60248201527f416363657373436f6e74726f6c3a2063616e206f6e6c792072656e6f756e636560448201527f20726f6c657320666f722073656c6600000000000000000000000000000000006064820152608401610c6e565b610c77828261289d565b60008061100283611700565b604080820151600654606084015192516347b00fb360e11b81526101009091046001600160a01b03908116600483015292831660248201529293501690638f601f6690604401602060405180830381865afa925050508015611081575060408051601f3d908101601f1916820190925261107e91810190613b0e565b60015b6110bf573d8080156110af576040519150601f19603f3d011682016040523d82523d6000602084013e6110b4565b606091505b5060009250506110c2565b91505b50919050565b600061111a611111600085858080601f016020809104026020016040519081016040528093929190818152602001838380828437600092019190915250929392505061291c9050565b61ffff166115ec565b61115d5760405162461bcd60e51b81526020600482015260146024820152733737b716b932b3b4b9ba32b932b2103630bcb2b960611b6044820152606401610c6e565b61116a86868686866129dc565b9695505050505050565b606060128054806020026020016040519081016040528092919081815260200182805480156111cc57602002820191906000526020600020905b81546001600160a01b031681526001909101906020018083116111ae575b5050505050905090565b60405163bf40fac160e01b815260206004820152600d60248201526c27ab26afa9b2b8bab2b731b2b960991b60448201526000906001600160a01b0383169063bf40fac190606401602060405180830381865afa925050508015611257575060408051601f3d908101601f1916820190925261125491810190613b27565b60015b611294573d808015611285576040519150601f19603f3d011682016040523d82523d6000602084013e61128a565b606091505b5060009392505050565b90505b919050565b601160205260009081526040902080546112b590613a5e565b80601f01602080910402602001604051908101604052809291908181526020018280546112e190613a5e565b801561132e5780601f106113035761010080835404028352916020019161132e565b820191906000526020600020905b81548152906001019060200180831161131157829003601f168201915b505050505081565b600c602052826000526040600020602052816000526040600020818154811061135e57600080fd5b60009182526020909120015463ffffffff8116935064010000000081046001600160801b03169250600160a01b900460ff16905083565b61139e33610f04565b6113f55760405162461bcd60e51b815260206004820152602260248201527f41636365737369626c653a2043616c6c6572206973206e6f7420616e2061646d60448201526134b760f11b6064820152608401610c6e565b610d057fdf8b4c520ffe197c5343c6f5aec59570151ef9a492f2c624fd45ddde6135ec4282610f44565b63ffffffff82166000908152600d60209081526040808320338085529252909120549061144f9084908385612348565b610f695760405162461bcd60e51b815260206004820152600c60248201526b534c5f455f52455354414b4560a01b6044820152606401610c6e565b61149333610f04565b6114ea5760405162461bcd60e51b815260206004820152602260248201527f41636365737369626c653a2043616c6c6572206973206e6f7420616e2061646d60448201526134b760f11b6064820152608401610c6e565b6001600160a01b0381166115405760405162461bcd60e51b815260206004820152601860248201527f41636365737369626c653a207a65726f206164647265737300000000000000006044820152606401610c6e565b6001600160a01b03811633036115985760405162461bcd60e51b815260206004820152601660248201527f41636365737369626c653a2073616d652061646d696e000000000000000000006044820152606401610c6e565b6115c27fdf8b4c520ffe197c5343c6f5aec59570151ef9a492f2c624fd45ddde6135ec4282610f44565b610d057fdf8b4c520ffe197c5343c6f5aec59570151ef9a492f2c624fd45ddde6135ec4233610f6e565b60085460405163370f791d60e11b815263ffffffff831660048201526000916001600160a01b031690636e1ef23a90602401602060405180830381865afa15801561163b573d6000803e3d6000fd5b505050506040513d601f19601f8201168201806040525081019061165f9190613b44565b6116a25760405162461bcd60e51b81526020600482015260146024820152733737b716b932b3b4b9ba32b932b2103630bcb2b960611b6044820152606401610c6e565b506001919050565b6116b3826115ec565b6116f65760405162461bcd60e51b81526020600482015260146024820152733737b716b932b3b4b9ba32b932b2103630bcb2b960611b6044820152606401610c6e565b610c778282612aa7565b60408051608081018252600080825260208201819052918101829052606081019190915263ffffffff82166000908152601160205260408120805461174490613a5e565b80601f016020809104026020016040519081016040528092919081815260200182805461177090613a5e565b80156117bd5780601f10611792576101008083540402835291602001916117bd565b820191906000526020600020905b8154815290600101906020018083116117a057829003601f168201915b50505050509050604f815111156110c2576040805160808101909152806117e5836000612b0d565b6001600160a01b031681526020016117fe836014612b0d565b6001600160a01b03168152602001611817836028612b0d565b6001600160a01b0316815260200161183083603c612b0d565b6001600160a01b031690529392505050565b63ffffffff8083166000818152600c602090815260408083206001600160a01b03871680855290835281842054948452600d835281842090845290915281205490929091839183165b818110156119765763ffffffff87166000908152600c602090815260408083206001600160a01b038a16845290915281208054839081106118ce576118ce613a92565b600091825260209182902060408051606081018252929091015463ffffffff811680845264010000000082046001600160801b031694840194909452600160a01b900460ff1615159082015291504311801561192c57506040810151155b1561195d576020810151611949906001600160801b031687613abe565b9550611956600185613ad1565b9350611963565b50611976565b508061196e81613af5565b91505061188b565b50509250925092565b63ffffffff8116600090815260116020526040812080548291906119a290613a5e565b80601f01602080910402602001604051908101604052809291908181526020018280546119ce90613a5e565b8015611a1b5780601f106119f057610100808354040283529160200191611a1b565b820191906000526020600020905b8154815290600101906020018083116119fe57829003601f168201915b50505050509050611a36600082612b0d90919063ffffffff16565b60405163bf40fac160e01b815260206004820152600d60248201526c27ab26afa9b2b8bab2b731b2b960991b60448201526001600160a01b03919091169063bf40fac190606401602060405180830381865afa925050508015611081575060408051601f3d908101601f1916820190925261107e91810190613b27565b6008546040516346ccf0e560e11b815263ffffffff831660048201526000916001600160a01b031690638d99e1ca90602401602060405180830381865afa158015611b02573d6000803e3d6000fd5b505050506040513d601f19601f82011682018060405250810190610c009190613b0e565b60075463ffffffff83166000908152600b602090815260408083206001600160a01b038681168552908352818420825160c081018452815481526001820154948101949094526002810154928401839052600381015460608501526004015460ff811615156080850152610100900461ffff1660a0909301929092529192169063cdf68009906040518263ffffffff1660e01b8152600401611bca91815260200190565b602060405180830381865afa158015611be7573d6000803e3d6000fd5b505050506040513d601f19601f82011682018060405250810190611c0b9190613b0e565b9392505050565b610c778282612bdd565b60065460ff16611c575760405162461bcd60e51b8152600401610c6e906020808252600490820152636c6f636b60e01b604082015260600190565b6006805460ff1916905563ffffffff81166000818152600c602090815260408083203380855290835281842054948452600d83528184208185529092528220549092919081905b83811015611d705763ffffffff86166000908152600c602090815260408083206001600160a01b03891684529091528120805483908110611ce157611ce1613a92565b600091825260209091200180549091504363ffffffff909116108015611d1057508054600160a01b900460ff16155b15611d5757805460ff60a01b1916600160a01b17808255611d43906001600160801b036401000000009091041684613abe565b925083611d4f81613af5565b945050611d5d565b50611d70565b5080611d6881613af5565b915050611c9e565b5060008111611dc15760405162461bcd60e51b815260206004820181905260248201527f7a65726f20617661696c61626c65207769746864726177616c20616d6f756e746044820152606401610c6e565b63ffffffff85166000908152600d602090815260408083206001600160a01b038816845290915281208054849290611dfa908490613abe565b909155505063ffffffff85166000908152600e602090815260408083206001600160a01b038816845290915281208054839290611e38908490613b66565b909155505063ffffffff85166000908152600f602052604081208054839290611e62908490613b66565b90915550506001600160a01b03841660009081526010602052604081208054839290611e8f908490613b66565b90915550506006546040516370a0823160e01b815230600482015260009161010090046001600160a01b0316906370a0823190602401602060405180830381865afa158015611ee2573d6000803e3d6000fd5b505050506040513d601f19601f82011682018060405250810190611f069190613b0e565b905081811015611fb1578015611f3257600654611f329061010090046001600160a01b03168683612fee565b6007546001600160a01b031663aad3ec9686611f4e8486613b66565b6040516001600160e01b031960e085901b1681526001600160a01b0390921660048301526024820152604401600060405180830381600087803b158015611f9457600080fd5b505af1158015611fa8573d6000803e3d6000fd5b50505050611fcd565b600654611fcd9061010090046001600160a01b03168684612fee565b6040805163ffffffff881681526001600160a01b03871660208201529081018390527f2d6eb139d2002caa088da5527d9d62f2f23bdf4504f5559a112535c436c6ee59906060015b60405180910390a150506006805460ff1916600117905550505050565b63ffffffff82166000818152600c602090815260408083206001600160a01b03861680855290835281842054948452600d835281842090845290915281205490818310612086576120838284613b66565b90505b9250925092565b6008546040805163b969fbef60e01b815290516000926001600160a01b03169163b969fbef9160048083019260209291908290030181865afa1580156120d7573d6000803e3d6000fd5b505050506040513d601f19601f820116820180604052508101906120fb9190613b0e565b905090565b60008281526020819052604090206001015461211b816127f5565b610f69838361289d565b6008546000906001600160a01b031633146121825760405162461bcd60e51b815260206004820152601160248201527f6e6f74204c61796572324d616e616765720000000000000000000000000000006044820152606401610c6e565b81516050146121d35760405162461bcd60e51b815260206004820152600f60248201527f77726f6e67206c61796572496e666f00000000000000000000000000000000006044820152606401610c6e565b63ffffffff8316600090815260116020526040902080546121f390613a5e565b1590506122425760405162461bcd60e51b815260206004820152600f60248201527f616c7265616479206372656174656400000000000000000000000000000000006044820152606401610c6e565b63ffffffff831660009081526011602052604090206122618382613bbf565b5060019392505050565b6012818154811061227b57600080fd5b6000918252602090912001546001600160a01b0316905081565b6006546040516347b00fb360e11b81526001600160a01b03610100909204821660048201528282166024820152600091841690638f601f6690604401602060405180830381865afa92505050801561230a575060408051601f3d908101601f1916820190925261230791810190613b0e565b60015b611c0b573d808015612338576040519150601f19603f3d011682016040523d82523d6000602084013e61233d565b606091505b506000915050610c00565b60065460009060ff166123865760405162461bcd60e51b8152600401610c6e906020808252600490820152636c6f636b60e01b604082015260600190565b6006805460ff1916905563ffffffff85166000908152600c602090815260408083206001600160a01b0388168452909152812054806123f45760405162461bcd60e51b815260206004820152600a6024820152696e6f20756e7374616b6560b01b6044820152606401610c6e565b836123ff8683613b66565b101561244d5760405162461bcd60e51b815260206004820152601860248201527f6e2065786365656473206e756d206f662070656e64696e6700000000000000006044820152606401610c6e565b60006124598587613abe565b90505b8086101561254f5763ffffffff88166000908152600c602090815260408083206001600160a01b038b168452909152812080548890811061249f5761249f613a92565b6000918252602090912001805490915064010000000081046001600160801b031690600160a01b900460ff16156125185760405162461bcd60e51b815260206004820152601260248201527f616c7265616479207769746864726177616c00000000000000000000000000006044820152606401610c6e565b801561252b576125288186613abe565b94505b50805460ff60a01b1916600160a01b1790558561254781613af5565b96505061245c565b6000831161259f5760405162461bcd60e51b815260206004820152601760248201527f6e6f2076616c69642072657374616b6520616d6f756e740000000000000000006044820152606401610c6e565b600754604051636a2fb1f560e01b8152600481018590526000916001600160a01b031690636a2fb1f590602401602060405180830381865afa1580156125e9573d6000803e3d6000fd5b505050506040513d601f19601f8201168201806040525081019061260d9190613b0e565b63ffffffff8a166000908152600b602090815260408083206001600160a01b038d16845290915281208054929350918691839161264b908490613abe565b92505081905550818160020160008282546126669190613abe565b909155505063ffffffff8a166000908152600a602052604081208054849290612690908490613abe565b9250508190555081600960008282546126a99190613abe565b909155505063ffffffff8a166000908152600e602090815260408083206001600160a01b038d168452909152812080548792906126e7908490613b66565b909155505063ffffffff8a166000908152600f602052604081208054879290612711908490613b66565b90915550506001600160a01b0389166000908152601060205260408120805487929061273e908490613b66565b909155505063ffffffff8a166000908152600d602090815260408083206001600160a01b038d1684529091528120805489929061277c908490613abe565b90915550506040805163ffffffff8c1681526001600160a01b038b166020820152908101869052606081018390527f34981dc0486069d2abbaddbc42e10b97cb24e4bce60ee4457e1d5062dfc0b4299060800160405180910390a16001955050505050506006805460ff19166001179055949350505050565b610d058133613109565b6000828152602081815260408083206001600160a01b038516845290915290205460ff16610c77576000828152602081815260408083206001600160a01b03851684529091529020805460ff191660011790556128593390565b6001600160a01b0316816001600160a01b0316837f2f8788117e7eff1d82e926ec794901d17c78024a50270940304540a733656f0d60405160405180910390a45050565b6000828152602081815260408083206001600160a01b038516845290915290205460ff1615610c77576000828152602081815260408083206001600160a01b0385168085529252808320805460ff1916905551339285917ff6391f5c32d9c69d2a47ea670b442974b53935d1edc7fd64eb21e047a839171b9190a45050565b60008161292a816004613abe565b10156129785760405162461bcd60e51b815260206004820152601160248201527f746f55696e7431365f6f766572666c6f770000000000000000000000000000006044820152606401610c6e565b612983826004613abe565b835110156129d35760405162461bcd60e51b815260206004820152601460248201527f746f55696e7431365f6f75744f66426f756e64730000000000000000000000006044820152606401610c6e565b50016004015190565b60065460009061010090046001600160a01b03163314612a235760405162461bcd60e51b8152602060048201526002602482015261454160f01b6044820152606401610c6e565b6000612a69600085858080601f016020809104026020016040519081016040528093929190818152602001838380828437600092019190915250929392505061291c9050565b60065461ffff919091169150612a8f9061010090046001600160a01b031688308861317c565b612a9a8188876132a0565b5060019695505050505050565b8080600003612add5760405162461bcd60e51b81526020600482015260026024820152615a3160f01b6044820152606401610c6e565b6006543390612afc9061010090046001600160a01b031682308661317c565b612b078482856132a0565b50505050565b600081612b1b816014613abe565b1015612b695760405162461bcd60e51b815260206004820152601260248201527f746f416464726573735f6f766572666c6f7700000000000000000000000000006044820152606401610c6e565b612b74826014613abe565b83511015612bc45760405162461bcd60e51b815260206004820152601560248201527f746f416464726573735f6f75744f66426f756e647300000000000000000000006044820152606401610c6e565b5001602001516c01000000000000000000000000900490565b60065460ff16612c185760405162461bcd60e51b8152600401610c6e906020808252600490820152636c6f636b60e01b604082015260600190565b6006805460ff19169055806000819003612c595760405162461bcd60e51b81526020600482015260026024820152615a3160f01b6044820152606401610c6e565b60075460405163cdf6800960e01b81526004810184905233916000916001600160a01b039091169063cdf6800990602401602060405180830381865afa158015612ca7573d6000803e3d6000fd5b505050506040513d601f19601f82011682018060405250810190612ccb9190613b0e565b63ffffffff86166000908152600b602090815260408083206001600160a01b03871684529091529020600281015491925090851115612d355760405162461bcd60e51b8152600401610c6e90602080825260049082015263534c5f3160e01b604082015260600190565b84816002016000828254612d499190613b66565b90915550508054821115612d605760008155612d7a565b81816000016000828254612d749190613b66565b90915550505b63ffffffff86166000908152600a602052604081208054879290612d9f908490613b66565b925050819055508460096000828254612db89190613b66565b909155505060085460408051636577b27360e11b815290516000926001600160a01b03169163caef64e69160048083019260209291908290030181865afa158015612e07573d6000803e3d6000fd5b505050506040513d601f19601f82011682018060405250810190612e2b9190613b0e565b63ffffffff88166000908152600c602090815260408083206001600160a01b03891684529091529081902081516060810190925291925080612e6d8443613abe565b63ffffffff90811682526001600160801b0380881660208085019190915260006040948501819052865460018101885596815281812086519701805487840151978701511515600160a01b0260ff60a01b19989095166401000000000273ffffffffffffffffffffffffffffffffffffffff19909116988616989098179790971795909516919091179094558a168252600e83528082206001600160a01b03881683529092529081208054859290612f26908490613abe565b909155505063ffffffff87166000908152600f602052604081208054859290612f50908490613abe565b90915550506001600160a01b03841660009081526010602052604081208054859290612f7d908490613abe565b90915550506040805163ffffffff891681526001600160a01b0386166020820152908101849052606081018790527f869a01319d83bb921803a22e3e95d0cb8b08e708d3fb144e2c25a563bf8650d39060800160405180910390a150506006805460ff191660011790555050505050565b604080516001600160a01b038481166024830152604480830185905283518084039091018152606490920183526020820180516001600160e01b031663a9059cbb60e01b179052915160009283929087169161304a9190613c7f565b6000604051808303816000865af19150503d8060008114613087576040519150601f19603f3d011682016040523d82523d6000602084013e61308c565b606091505b50915091508180156130b65750805115806130b65750808060200190518101906130b69190613b44565b6131025760405162461bcd60e51b815260206004820152600f60248201527f5452414e534645525f4641494c454400000000000000000000000000000000006044820152606401610c6e565b5050505050565b6000828152602081815260408083206001600160a01b038516845290915290205460ff16610c775761313a816134f5565b613145836020613507565b604051602001613156929190613c9b565b60408051601f198184030181529082905262461bcd60e51b8252610c6e916004016138ec565b604080516001600160a01b0385811660248301528481166044830152606480830185905283518084039091018152608490920183526020820180516001600160e01b03166323b872dd60e01b17905291516000928392908816916131e09190613c7f565b6000604051808303816000865af19150503d806000811461321d576040519150601f19603f3d011682016040523d82523d6000602084013e613222565b606091505b509150915081801561324c57508051158061324c57508080602001905181019061324c9190613b44565b6132985760405162461bcd60e51b815260206004820152601460248201527f5452414e534645525f46524f4d5f4641494c45440000000000000000000000006044820152606401610c6e565b505050505050565b60065460ff166132db5760405162461bcd60e51b8152600401610c6e906020808252600490820152636c6f636b60e01b604082015260600190565b6006805460ff1916905580600081900361331c5760405162461bcd60e51b81526020600482015260026024820152615a3160f01b6044820152606401610c6e565b600754604051636a2fb1f560e01b8152600481018490526000916001600160a01b031690636a2fb1f590602401602060405180830381865afa158015613366573d6000803e3d6000fd5b505050506040513d601f19601f8201168201806040525081019061338a9190613b0e565b63ffffffff86166000908152600b602090815260408083206001600160a01b0389168452909152902060048101549192509060ff1661342b57600481018054600160ff1990911681179091556012805491820181556000527fbb8a6a4669ba250d26cd7a459eca9d215f8307e33aebe50379bc5a3617ec344401805473ffffffffffffffffffffffffffffffffffffffff19166001600160a01b0387161790555b8381600001600082825461343f9190613abe565b925050819055508181600201600082825461345a9190613abe565b909155505063ffffffff86166000908152600a602052604081208054849290613484908490613abe565b92505081905550816009600082825461349d9190613abe565b90915550506040805163ffffffff881681526001600160a01b0387166020820152908101859052606081018390527fa2a62e1cc3e20f8692b7a85ee11f09e9c0f0c2cd028ba26400f65c7bd55361ee90608001612015565b6060610c006001600160a01b03831660145b60606000613516836002613d1c565b613521906002613abe565b67ffffffffffffffff81111561353957613539613968565b6040519080825280601f01601f191660200182016040528015613563576020820181803683370190505b509050600360fc1b8160008151811061357e5761357e613a92565b60200101906001600160f81b031916908160001a905350600f60fb1b816001815181106135ad576135ad613a92565b60200101906001600160f81b031916908160001a90535060006135d1846002613d1c565b6135dc906001613abe565b90505b6001811115613661577f303132333435363738396162636465660000000000000000000000000000000085600f166010811061361d5761361d613a92565b1a60f81b82828151811061363357613633613a92565b60200101906001600160f81b031916908160001a90535060049490941c9361365a81613d33565b90506135df565b508315611c0b5760405162461bcd60e51b815260206004820181905260248201527f537472696e67733a20686578206c656e67746820696e73756666696369656e746044820152606401610c6e565b803563ffffffff8116811461129757600080fd5b6000602082840312156136d657600080fd5b611c0b826136b0565b6000602082840312156136f157600080fd5b81356001600160e01b031981168114611c0b57600080fd5b6001600160a01b0381168114610d0557600080fd5b60006020828403121561373057600080fd5b8135611c0b81613709565b6000806040838503121561374e57600080fd5b613757836136b0565b9150602083013561376781613709565b809150509250929050565b60006020828403121561378457600080fd5b5035919050565b6000806040838503121561379e57600080fd5b82359150602083013561376781613709565b6000806000806000608086880312156137c857600080fd5b85356137d381613709565b945060208601356137e381613709565b935060408601359250606086013567ffffffffffffffff8082111561380757600080fd5b818801915088601f83011261381b57600080fd5b81358181111561382a57600080fd5b89602082850101111561383c57600080fd5b9699959850939650602001949392505050565b6020808252825182820181905260009190848201906040850190845b818110156138905783516001600160a01b03168352928401929184019160010161386b565b50909695505050505050565b60005b838110156138b757818101518382015260200161389f565b50506000910152565b600081518084526138d881602086016020860161389c565b601f01601f19169290920160200192915050565b602081526000611c0b60208301846138c0565b60008060006060848603121561391457600080fd5b61391d846136b0565b9250602084013561392d81613709565b929592945050506040919091013590565b6000806040838503121561395157600080fd5b61395a836136b0565b946020939093013593505050565b634e487b7160e01b600052604160045260246000fd5b6000806040838503121561399157600080fd5b61399a836136b0565b9150602083013567ffffffffffffffff808211156139b757600080fd5b818501915085601f8301126139cb57600080fd5b8135818111156139dd576139dd613968565b604051601f8201601f19908116603f01168101908382118183101715613a0557613a05613968565b81604052828152886020848701011115613a1e57600080fd5b8260208601602083013760006020848301015280955050505050509250929050565b60008060408385031215613a5357600080fd5b823561375781613709565b600181811c90821680613a7257607f821691505b6020821081036110c257634e487b7160e01b600052602260045260246000fd5b634e487b7160e01b600052603260045260246000fd5b634e487b7160e01b600052601160045260246000fd5b80820180821115610c0057610c00613aa8565b63ffffffff818116838216019080821115613aee57613aee613aa8565b5092915050565b600060018201613b0757613b07613aa8565b5060010190565b600060208284031215613b2057600080fd5b5051919050565b600060208284031215613b3957600080fd5b8151611c0b81613709565b600060208284031215613b5657600080fd5b81518015158114611c0b57600080fd5b81810381811115610c0057610c00613aa8565b601f821115610f6957600081815260208120601f850160051c81016020861015613ba05750805b601f850160051c820191505b8181101561329857828155600101613bac565b815167ffffffffffffffff811115613bd957613bd9613968565b613bed81613be78454613a5e565b84613b79565b602080601f831160018114613c225760008415613c0a5750858301515b600019600386901b1c1916600185901b178555613298565b600085815260208120601f198616915b82811015613c5157888601518255948401946001909101908401613c32565b5085821015613c6f5787850151600019600388901b60f8161c191681555b5050505050600190811b01905550565b60008251613c9181846020870161389c565b9190910192915050565b7f416363657373436f6e74726f6c3a206163636f756e7420000000000000000000815260008351613cd381601785016020880161389c565b7f206973206d697373696e6720726f6c65200000000000000000000000000000006017918401918201528351613d1081602884016020880161389c565b01602801949350505050565b8082028115828204841417610c0057610c00613aa8565b600081613d4257613d42613aa8565b50600019019056fea164736f6c6343000812000a",
  "linkReferences": {},
  "deployedLinkReferences": {}
}