{
  "_format": "hh-sol-artifact-1",
  "contractName": "OptimismSequencer",
  "sourceName": "contracts/OptimismSequencer.sol",
  "abi": [
    {
      "inputs": [],
      "stateMutability": "nonpayable",
      "type": "constructor"
    },
    {
      "anonymous": false,
      "inputs": [
        {
          "indexed": false,
          "internalType": "uint32",
          "name": "_index",
          "type": "uint32"
        },
        {
          "indexed": false,
          "internalType": "address",
          "name": "sender",
          "type": "address"
        },
        {
          "indexed": false,
          "internalType": "uint256",
          "name": "amount",
          "type": "uint256"
        },
        {
          "indexed": false,
          "internalType": "uint256",
          "name": "lton",
          "type": "uint256"
        }
      ],
      "name": "Restaked",
      "type": "event"
    },
    {
      "anonymous": false,
      "inputs": [
        {
          "indexed": true,
          "internalType": "bytes32",
          "name": "role",
          "type": "bytes32"
        },
        {
          "indexed": true,
          "internalType": "bytes32",
          "name": "previousAdminRole",
          "type": "bytes32"
        },
        {
          "indexed": true,
          "internalType": "bytes32",
          "name": "newAdminRole",
          "type": "bytes32"
        }
      ],
      "name": "RoleAdminChanged",
      "type": "event"
    },
    {
      "anonymous": false,
      "inputs": [
        {
          "indexed": true,
          "internalType": "bytes32",
          "name": "role",
          "type": "bytes32"
        },
        {
          "indexed": true,
          "internalType": "address",
          "name": "account",
          "type": "address"
        },
        {
          "indexed": true,
          "internalType": "address",
          "name": "sender",
          "type": "address"
        }
      ],
      "name": "RoleGranted",
      "type": "event"
    },
    {
      "anonymous": false,
      "inputs": [
        {
          "indexed": true,
          "internalType": "bytes32",
          "name": "role",
          "type": "bytes32"
        },
        {
          "indexed": true,
          "internalType": "address",
          "name": "account",
          "type": "address"
        },
        {
          "indexed": true,
          "internalType": "address",
          "name": "sender",
          "type": "address"
        }
      ],
      "name": "RoleRevoked",
      "type": "event"
    },
    {
      "anonymous": false,
      "inputs": [
        {
          "indexed": false,
          "internalType": "uint32",
          "name": "_index",
          "type": "uint32"
        },
        {
          "indexed": false,
          "internalType": "address",
          "name": "sender",
          "type": "address"
        },
        {
          "indexed": false,
          "internalType": "uint256",
          "name": "amount",
          "type": "uint256"
        },
        {
          "indexed": false,
          "internalType": "uint256",
          "name": "lton",
          "type": "uint256"
        }
      ],
      "name": "Staked",
      "type": "event"
    },
    {
      "anonymous": false,
      "inputs": [
        {
          "indexed": false,
          "internalType": "uint32",
          "name": "_index",
          "type": "uint32"
        },
        {
          "indexed": false,
          "internalType": "address",
          "name": "sender",
          "type": "address"
        },
        {
          "indexed": false,
          "internalType": "uint256",
          "name": "amount",
          "type": "uint256"
        },
        {
          "indexed": false,
          "internalType": "uint256",
          "name": "lton",
          "type": "uint256"
        }
      ],
      "name": "Unstaked",
      "type": "event"
    },
    {
      "anonymous": false,
      "inputs": [
        {
          "indexed": false,
          "internalType": "uint32",
          "name": "_index",
          "type": "uint32"
        },
        {
          "indexed": false,
          "internalType": "address",
          "name": "sender",
          "type": "address"
        },
        {
          "indexed": false,
          "internalType": "uint256",
          "name": "amount",
          "type": "uint256"
        }
      ],
      "name": "Withdrawal",
      "type": "event"
    },
    {
      "inputs": [],
      "name": "ADMIN_ROLE",
      "outputs": [
        {
          "internalType": "bytes32",
          "name": "",
          "type": "bytes32"
        }
      ],
      "stateMutability": "view",
      "type": "function"
    },
    {
      "inputs": [],
      "name": "DEFAULT_ADMIN_ROLE",
      "outputs": [
        {
          "internalType": "bytes32",
          "name": "",
          "type": "bytes32"
        }
      ],
      "stateMutability": "view",
      "type": "function"
    },
    {
      "inputs": [],
      "name": "POLICY_ROLE",
      "outputs": [
        {
          "internalType": "bytes32",
          "name": "",
          "type": "bytes32"
        }
      ],
      "stateMutability": "view",
      "type": "function"
    },
    {
      "inputs": [
        {
          "internalType": "address",
          "name": "account",
          "type": "address"
        }
      ],
      "name": "addAdmin",
      "outputs": [],
      "stateMutability": "nonpayable",
      "type": "function"
    },
    {
      "inputs": [
        {
          "internalType": "address",
          "name": "",
          "type": "address"
        }
      ],
      "name": "aliveImplementation",
      "outputs": [
        {
          "internalType": "bool",
          "name": "",
          "type": "bool"
        }
      ],
      "stateMutability": "view",
      "type": "function"
    },
    {
      "inputs": [
        {
          "internalType": "uint32",
          "name": "layerIndex",
          "type": "uint32"
        },
        {
          "internalType": "address",
          "name": "account",
          "type": "address"
        }
      ],
      "name": "amountOfPendings",
      "outputs": [
        {
          "internalType": "uint256",
          "name": "amount",
          "type": "uint256"
        },
        {
          "internalType": "uint32",
          "name": "startIndex",
          "type": "uint32"
        },
        {
          "internalType": "uint32",
          "name": "len",
          "type": "uint32"
        },
        {
          "internalType": "uint32",
          "name": "nextWithdrawableBlockNumber",
          "type": "uint32"
        }
      ],
      "stateMutability": "view",
      "type": "function"
    },
    {
      "inputs": [
        {
          "internalType": "uint32",
          "name": "_index",
          "type": "uint32"
        },
        {
          "internalType": "address",
          "name": "account",
          "type": "address"
        }
      ],
      "name": "availableWithdraw",
      "outputs": [
        {
          "internalType": "uint256",
          "name": "amount",
          "type": "uint256"
        },
        {
          "internalType": "uint32",
          "name": "startIndex",
          "type": "uint32"
        },
        {
          "internalType": "uint32",
          "name": "len",
          "type": "uint32"
        }
      ],
      "stateMutability": "view",
      "type": "function"
    },
    {
      "inputs": [
        {
          "internalType": "uint32",
          "name": "_index",
          "type": "uint32"
        },
        {
          "internalType": "address",
          "name": "account",
          "type": "address"
        }
      ],
      "name": "balanceOf",
      "outputs": [
        {
          "internalType": "uint256",
          "name": "amount",
          "type": "uint256"
        }
      ],
      "stateMutability": "view",
      "type": "function"
    },
    {
      "inputs": [
        {
          "internalType": "uint32",
          "name": "_index",
          "type": "uint32"
        },
        {
          "internalType": "address",
          "name": "account",
          "type": "address"
        }
      ],
      "name": "balanceOfLton",
      "outputs": [
        {
          "internalType": "uint256",
          "name": "amount",
          "type": "uint256"
        }
      ],
      "stateMutability": "view",
      "type": "function"
    },
    {
      "inputs": [
        {
          "internalType": "uint32",
          "name": "_index",
          "type": "uint32"
        }
      ],
      "name": "balanceOfLton",
      "outputs": [
        {
          "internalType": "uint256",
          "name": "amount",
          "type": "uint256"
        }
      ],
      "stateMutability": "view",
      "type": "function"
    },
    {
      "inputs": [
        {
          "internalType": "uint32",
          "name": "_index",
          "type": "uint32"
        },
        {
          "internalType": "bytes",
          "name": "_layerInfo",
          "type": "bytes"
        }
      ],
      "name": "create",
      "outputs": [
        {
          "internalType": "bool",
          "name": "",
          "type": "bool"
        }
      ],
      "stateMutability": "nonpayable",
      "type": "function"
    },
    {
      "inputs": [
        {
          "internalType": "uint32",
          "name": "_index",
          "type": "uint32"
        }
      ],
      "name": "existedIndex",
      "outputs": [
        {
          "internalType": "bool",
          "name": "",
          "type": "bool"
        }
      ],
      "stateMutability": "view",
      "type": "function"
    },
    {
      "inputs": [
        {
          "internalType": "uint32",
          "name": "_index",
          "type": "uint32"
        }
      ],
      "name": "getLayerInfo",
      "outputs": [
        {
          "components": [
            {
              "internalType": "address",
              "name": "addressManager",
              "type": "address"
            },
            {
              "internalType": "address",
              "name": "l1Messenger",
              "type": "address"
            },
            {
              "internalType": "address",
              "name": "l1Bridge",
              "type": "address"
            },
            {
              "internalType": "address",
              "name": "l2ton",
              "type": "address"
            }
          ],
          "internalType": "struct LibOptimism.Info",
          "name": "_layerInfo",
          "type": "tuple"
        }
      ],
      "stateMutability": "view",
      "type": "function"
    },
    {
      "inputs": [
        {
          "internalType": "uint32",
          "name": "_index",
          "type": "uint32"
        }
      ],
      "name": "getLayerKey",
      "outputs": [
        {
          "internalType": "bytes32",
          "name": "layerKey_",
          "type": "bytes32"
        }
      ],
      "stateMutability": "view",
      "type": "function"
    },
    {
      "inputs": [
        {
          "internalType": "uint32",
          "name": "_index",
          "type": "uint32"
        },
        {
          "internalType": "address",
          "name": "account",
          "type": "address"
        }
      ],
      "name": "getLayerStakes",
      "outputs": [
        {
          "components": [
            {
              "internalType": "uint256",
              "name": "stakePrincipal",
              "type": "uint256"
            },
            {
              "internalType": "uint256",
              "name": "bondPrincipal",
              "type": "uint256"
            },
            {
              "internalType": "uint256",
              "name": "stakelton",
              "type": "uint256"
            },
            {
              "internalType": "uint256",
              "name": "bondlton",
              "type": "uint256"
            },
            {
              "internalType": "bool",
              "name": "stake",
              "type": "bool"
            },
            {
              "internalType": "uint16",
              "name": "fwFee",
              "type": "uint16"
            }
          ],
          "internalType": "struct LibStake.StakeInfo",
          "name": "info",
          "type": "tuple"
        }
      ],
      "stateMutability": "view",
      "type": "function"
    },
    {
      "inputs": [
        {
          "internalType": "uint32",
          "name": "_index",
          "type": "uint32"
        },
        {
          "internalType": "address",
          "name": "account",
          "type": "address"
        }
      ],
      "name": "getPendingUnstakedAmount",
      "outputs": [
        {
          "internalType": "uint256",
          "name": "",
          "type": "uint256"
        }
      ],
      "stateMutability": "view",
      "type": "function"
    },
    {
      "inputs": [
        {
          "internalType": "bytes32",
          "name": "role",
          "type": "bytes32"
        }
      ],
      "name": "getRoleAdmin",
      "outputs": [
        {
          "internalType": "bytes32",
          "name": "",
          "type": "bytes32"
        }
      ],
      "stateMutability": "view",
      "type": "function"
    },
    {
      "inputs": [],
      "name": "getStakeAccountList",
      "outputs": [
        {
          "internalType": "address[]",
          "name": "",
          "type": "address[]"
        }
      ],
      "stateMutability": "view",
      "type": "function"
    },
    {
      "inputs": [],
      "name": "getTotalLton",
      "outputs": [
        {
          "internalType": "uint256",
          "name": "",
          "type": "uint256"
        }
      ],
      "stateMutability": "view",
      "type": "function"
    },
    {
      "inputs": [
        {
          "internalType": "uint32",
          "name": "_index",
          "type": "uint32"
        }
      ],
      "name": "getTvl",
      "outputs": [
        {
          "internalType": "uint256",
          "name": "amount",
          "type": "uint256"
        }
      ],
      "stateMutability": "view",
      "type": "function"
    },
    {
      "inputs": [
        {
          "internalType": "address",
          "name": "l1Bridge",
          "type": "address"
        },
        {
          "internalType": "address",
          "name": "l2ton",
          "type": "address"
        }
      ],
      "name": "getTvl",
      "outputs": [
        {
          "internalType": "uint256",
          "name": "amount",
          "type": "uint256"
        }
      ],
      "stateMutability": "view",
      "type": "function"
    },
    {
      "inputs": [
        {
          "internalType": "bytes32",
          "name": "role",
          "type": "bytes32"
        },
        {
          "internalType": "address",
          "name": "account",
          "type": "address"
        }
      ],
      "name": "grantRole",
      "outputs": [],
      "stateMutability": "nonpayable",
      "type": "function"
    },
    {
      "inputs": [
        {
          "internalType": "bytes32",
          "name": "role",
          "type": "bytes32"
        },
        {
          "internalType": "address",
          "name": "account",
          "type": "address"
        }
      ],
      "name": "hasRole",
      "outputs": [
        {
          "internalType": "bool",
          "name": "",
          "type": "bool"
        }
      ],
      "stateMutability": "view",
      "type": "function"
    },
    {
      "inputs": [
        {
          "internalType": "address",
          "name": "account",
          "type": "address"
        }
      ],
      "name": "isAdmin",
      "outputs": [
        {
          "internalType": "bool",
          "name": "",
          "type": "bool"
        }
      ],
      "stateMutability": "view",
      "type": "function"
    },
    {
      "inputs": [
        {
          "internalType": "uint32",
          "name": "_index",
          "type": "uint32"
        }
      ],
      "name": "layer2Deposits",
      "outputs": [
        {
          "internalType": "uint256",
          "name": "amount",
          "type": "uint256"
        }
      ],
      "stateMutability": "view",
      "type": "function"
    },
    {
      "inputs": [],
      "name": "layer2Manager",
      "outputs": [
        {
          "internalType": "address",
          "name": "",
          "type": "address"
        }
      ],
      "stateMutability": "view",
      "type": "function"
    },
    {
      "inputs": [
        {
          "internalType": "uint32",
          "name": "",
          "type": "uint32"
        }
      ],
      "name": "layerInfo",
      "outputs": [
        {
          "internalType": "bytes",
          "name": "",
          "type": "bytes"
        }
      ],
      "stateMutability": "view",
      "type": "function"
    },
    {
      "inputs": [
        {
          "internalType": "uint32",
          "name": "",
          "type": "uint32"
        }
      ],
      "name": "layerStakedLton",
      "outputs": [
        {
          "internalType": "uint256",
          "name": "",
          "type": "uint256"
        }
      ],
      "stateMutability": "view",
      "type": "function"
    },
    {
      "inputs": [
        {
          "internalType": "uint32",
          "name": "",
          "type": "uint32"
        },
        {
          "internalType": "address",
          "name": "",
          "type": "address"
        }
      ],
      "name": "layerStakes",
      "outputs": [
        {
          "internalType": "uint256",
          "name": "stakePrincipal",
          "type": "uint256"
        },
        {
          "internalType": "uint256",
          "name": "bondPrincipal",
          "type": "uint256"
        },
        {
          "internalType": "uint256",
          "name": "stakelton",
          "type": "uint256"
        },
        {
          "internalType": "uint256",
          "name": "bondlton",
          "type": "uint256"
        },
        {
          "internalType": "bool",
          "name": "stake",
          "type": "bool"
        },
        {
          "internalType": "uint16",
          "name": "fwFee",
          "type": "uint16"
        }
      ],
      "stateMutability": "view",
      "type": "function"
    },
    {
      "inputs": [
        {
          "internalType": "uint32",
          "name": "layerIndex",
          "type": "uint32"
        },
        {
          "internalType": "address",
          "name": "account",
          "type": "address"
        }
      ],
      "name": "numberOfPendings",
      "outputs": [
        {
          "internalType": "uint256",
          "name": "totalRequests",
          "type": "uint256"
        },
        {
          "internalType": "uint256",
          "name": "withdrawIndex",
          "type": "uint256"
        },
        {
          "internalType": "uint256",
          "name": "pendingLength",
          "type": "uint256"
        }
      ],
      "stateMutability": "view",
      "type": "function"
    },
    {
      "inputs": [
        {
          "internalType": "address",
          "name": "sender",
          "type": "address"
        },
        {
          "internalType": "address",
          "name": "spender",
          "type": "address"
        },
        {
          "internalType": "uint256",
          "name": "amount",
          "type": "uint256"
        },
        {
          "internalType": "bytes",
          "name": "data",
          "type": "bytes"
        }
      ],
      "name": "onApprove",
      "outputs": [
        {
          "internalType": "bool",
          "name": "",
          "type": "bool"
        }
      ],
      "stateMutability": "nonpayable",
      "type": "function"
    },
    {
      "inputs": [],
      "name": "pauseProxy",
      "outputs": [
        {
          "internalType": "bool",
          "name": "",
          "type": "bool"
        }
      ],
      "stateMutability": "view",
      "type": "function"
    },
    {
      "inputs": [
        {
          "internalType": "uint32",
          "name": "",
          "type": "uint32"
        },
        {
          "internalType": "address",
          "name": "",
          "type": "address"
        }
      ],
      "name": "pendingUnstaked",
      "outputs": [
        {
          "internalType": "uint256",
          "name": "",
          "type": "uint256"
        }
      ],
      "stateMutability": "view",
      "type": "function"
    },
    {
      "inputs": [
        {
          "internalType": "address",
          "name": "",
          "type": "address"
        }
      ],
      "name": "pendingUnstakedAccount",
      "outputs": [
        {
          "internalType": "uint256",
          "name": "",
          "type": "uint256"
        }
      ],
      "stateMutability": "view",
      "type": "function"
    },
    {
      "inputs": [
        {
          "internalType": "uint32",
          "name": "",
          "type": "uint32"
        }
      ],
      "name": "pendingUnstakedLayer2",
      "outputs": [
        {
          "internalType": "uint256",
          "name": "",
          "type": "uint256"
        }
      ],
      "stateMutability": "view",
      "type": "function"
    },
    {
      "inputs": [
        {
          "internalType": "uint256",
          "name": "",
          "type": "uint256"
        }
      ],
      "name": "proxyImplementation",
      "outputs": [
        {
          "internalType": "address",
          "name": "",
          "type": "address"
        }
      ],
      "stateMutability": "view",
      "type": "function"
    },
    {
      "inputs": [
        {
          "internalType": "address",
          "name": "account",
          "type": "address"
        }
      ],
      "name": "removeAdmin",
      "outputs": [],
      "stateMutability": "nonpayable",
      "type": "function"
    },
    {
      "inputs": [
        {
          "internalType": "bytes32",
          "name": "role",
          "type": "bytes32"
        },
        {
          "internalType": "address",
          "name": "account",
          "type": "address"
        }
      ],
      "name": "renounceRole",
      "outputs": [],
      "stateMutability": "nonpayable",
      "type": "function"
    },
    {
      "inputs": [
        {
          "internalType": "uint32",
          "name": "_index",
          "type": "uint32"
        }
      ],
      "name": "restake",
      "outputs": [],
      "stateMutability": "nonpayable",
      "type": "function"
    },
    {
      "inputs": [
        {
          "internalType": "uint32",
          "name": "_index",
          "type": "uint32"
        },
        {
          "internalType": "uint256",
          "name": "n",
          "type": "uint256"
        }
      ],
      "name": "restakeMulti",
      "outputs": [],
      "stateMutability": "nonpayable",
      "type": "function"
    },
    {
      "inputs": [
        {
          "internalType": "bytes32",
          "name": "role",
          "type": "bytes32"
        },
        {
          "internalType": "address",
          "name": "account",
          "type": "address"
        }
      ],
      "name": "revokeRole",
      "outputs": [],
      "stateMutability": "nonpayable",
      "type": "function"
    },
    {
      "inputs": [],
      "name": "seigManagerV2",
      "outputs": [
        {
          "internalType": "address",
          "name": "",
          "type": "address"
        }
      ],
      "stateMutability": "view",
      "type": "function"
    },
    {
      "inputs": [
        {
          "internalType": "bytes4",
          "name": "",
          "type": "bytes4"
        }
      ],
      "name": "selectorImplementation",
      "outputs": [
        {
          "internalType": "address",
          "name": "",
          "type": "address"
        }
      ],
      "stateMutability": "view",
      "type": "function"
    },
    {
      "inputs": [
        {
          "internalType": "uint32",
          "name": "_index",
          "type": "uint32"
        }
      ],
      "name": "sequencer",
      "outputs": [
        {
          "internalType": "address",
          "name": "sequencer_",
          "type": "address"
        }
      ],
      "stateMutability": "view",
      "type": "function"
    },
    {
      "inputs": [
        {
          "internalType": "uint32",
          "name": "_index",
          "type": "uint32"
        },
        {
          "internalType": "uint256",
          "name": "amount",
          "type": "uint256"
        }
      ],
      "name": "stake",
      "outputs": [],
      "stateMutability": "nonpayable",
      "type": "function"
    },
    {
      "inputs": [
        {
          "internalType": "uint256",
          "name": "",
          "type": "uint256"
        }
      ],
      "name": "stakeAccountList",
      "outputs": [
        {
          "internalType": "address",
          "name": "",
          "type": "address"
        }
      ],
      "stateMutability": "view",
      "type": "function"
    },
    {
      "inputs": [
        {
          "internalType": "bytes4",
          "name": "interfaceId",
          "type": "bytes4"
        }
      ],
      "name": "supportsInterface",
      "outputs": [
        {
          "internalType": "bool",
          "name": "",
          "type": "bool"
        }
      ],
      "stateMutability": "view",
      "type": "function"
    },
    {
      "inputs": [],
      "name": "ton",
      "outputs": [
        {
          "internalType": "address",
          "name": "",
          "type": "address"
        }
      ],
      "stateMutability": "view",
      "type": "function"
    },
    {
      "inputs": [],
      "name": "totalLayer2Deposits",
      "outputs": [
        {
          "internalType": "uint256",
          "name": "amount",
          "type": "uint256"
        }
      ],
      "stateMutability": "view",
      "type": "function"
    },
    {
      "inputs": [],
      "name": "totalStakeAccountList",
      "outputs": [
        {
          "internalType": "uint256",
          "name": "",
          "type": "uint256"
        }
      ],
      "stateMutability": "view",
      "type": "function"
    },
    {
      "inputs": [],
      "name": "totalStakedLton",
      "outputs": [
        {
          "internalType": "uint256",
          "name": "",
          "type": "uint256"
        }
      ],
      "stateMutability": "view",
      "type": "function"
    },
    {
      "inputs": [
        {
          "internalType": "address",
          "name": "newAdmin",
          "type": "address"
        }
      ],
      "name": "transferAdmin",
      "outputs": [],
      "stateMutability": "nonpayable",
      "type": "function"
    },
    {
      "inputs": [
        {
          "internalType": "uint32",
          "name": "_index",
          "type": "uint32"
        },
        {
          "internalType": "uint256",
          "name": "lton_",
          "type": "uint256"
        }
      ],
      "name": "unstake",
      "outputs": [],
      "stateMutability": "nonpayable",
      "type": "function"
    },
    {
      "inputs": [
        {
          "internalType": "uint32",
          "name": "_index",
          "type": "uint32"
        }
      ],
      "name": "withdraw",
      "outputs": [],
      "stateMutability": "nonpayable",
      "type": "function"
    },
    {
      "inputs": [
        {
          "internalType": "uint32",
          "name": "",
          "type": "uint32"
        },
        {
          "internalType": "address",
          "name": "",
          "type": "address"
        }
      ],
      "name": "withdrawalRequestIndex",
      "outputs": [
        {
          "internalType": "uint256",
          "name": "",
          "type": "uint256"
        }
      ],
      "stateMutability": "view",
      "type": "function"
    },
    {
      "inputs": [
        {
          "internalType": "uint32",
          "name": "",
          "type": "uint32"
        },
        {
          "internalType": "address",
          "name": "",
          "type": "address"
        },
        {
          "internalType": "uint256",
          "name": "",
          "type": "uint256"
        }
      ],
      "name": "withdrawalRequests",
      "outputs": [
        {
          "internalType": "uint32",
          "name": "withdrawableBlockNumber",
          "type": "uint32"
        },
        {
          "internalType": "uint128",
          "name": "amount",
          "type": "uint128"
        },
        {
          "internalType": "bool",
          "name": "processed",
          "type": "bool"
        }
      ],
      "stateMutability": "view",
      "type": "function"
    }
  ],
  "bytecode": "0x60806040526006805460ff1916600117905534801561001d57600080fd5b50613c888061002d6000396000f3fe608060405234801561001057600080fd5b50600436106103785760003560e01c806375829def116101d35780639c656e2611610104578063b969fbef116100a2578063d547741f1161007c578063d547741f14610ab2578063df2b429014610ac5578063ec110d4514610ad8578063edcc217714610aeb57600080fd5b8063b969fbef14610a72578063b9cab97114610a7a578063cc48b94714610a9a57600080fd5b8063aa9224cd116100de578063aa9224cd14610a00578063b413b37a14610a13578063b6a2f99d14610a1b578063b911135f14610a4957600080fd5b80639c656e261461094f578063a0b2a913146109d8578063a217fddf146109f857600080fd5b80638c71762d116101715780638ddd87fe1161014b5780638ddd87fe146108b457806391d14854146108f257806394c89b2c146109295780639c2f614f1461093c57600080fd5b80638c71762d146108595780638d1f3d0a1461088e5780638d99e1ca146108a157600080fd5b80637d211a1c116101ad5780637d211a1c146107b75780637ec6840f146107ca5780638afec9fc146107dd5780638c6f1b391461080357600080fd5b806375829def1461075257806375b238fc146107655780637cf1587c1461078c57600080fd5b806346bcdb49116102ad57806363a8fd891161024b578063704802751161022557806370480275146106f957806370619cf91461070c57806373469a7a1461072c578063744a35611461073f57600080fd5b806363a8fd891461068d578063659ab8201461069a5780636d1ef103146106ba57600080fd5b806350d2a2761161028757806350d2a2761461058c578063550d01a3146105b55780635e2cfe45146105d85780635f1b989e1461060357600080fd5b806346bcdb49146105665780634de131ca1461056e5780634e1a264d1461058357600080fd5b8063229852461161031a5780632f2ff15d116102f45780632f2ff15d1461051a57806336568abe1461052d57806341e5dbe8146105405780634273ca161461055357600080fd5b806322985246146104bd578063248a9ca3146104e457806324d7806c1461050757600080fd5b806316b5d5bd1161035657806316b5d5bd146103db5780631785f53c146104065780631ed94495146104195780631f760d011461047e57600080fd5b80630116cc651461037d57806301ffc9a7146103a3578063118e29d1146103c6575b600080fd5b61039061038b3660046135f5565b610afe565b6040519081526020015b60405180910390f35b6103b66103b1366004613610565b610bb1565b604051901515815260200161039a565b6103d96103d43660046135f5565b610be8565b005b6008546103ee906001600160a01b031681565b6040516001600160a01b03909116815260200161039a565b6103d961041436600461364f565b610c5d565b61042c61042736600461366c565b610cea565b60405161039a9190600060c0820190508251825260208301516020830152604083015160408301526060830151606083015260808301511515608083015261ffff60a08401511660a083015292915050565b61049161048c36600461366c565b610da8565b6040805194855263ffffffff93841660208601529183169184019190915216606082015260800161039a565b6103907ffb5864e8ff833c3cb2d2d08505e82ff02a43554c74a35d4f5a64e8526127831181565b6103906104f23660046136a3565b60009081526020819052604090206001015490565b6103b661051536600461364f565b610ee6565b6103d96105283660046136bc565b610f26565b6103d961053b3660046136bc565b610f50565b61039061054e3660046135f5565b610fd8565b6103b66105613660046136e1565b6110aa565b601254610390565b610576611156565b60405161039a9190613780565b61039060095481565b6103ee61059a366004613610565b6004602052600090815260409020546001600160a01b031681565b6103b66105c336600461364f565b60036020526000908152604090205460ff1681565b6103906105e636600461366c565b600e60209081526000928352604080842090915290825290205481565b61039061061136600461366c565b63ffffffff9091166000908152600b602090815260408083206001600160a01b03909416835292815290829020825160c081018452815481526001820154928101929092526002810154928201839052600381015460608301526004015460ff81161515608083015261ffff6101009091041660a09091015290565b6001546103b69060ff1681565b6106ad6106a83660046135f5565b6111b8565b60405161039a919061381d565b6106cd6106c8366004613830565b611252565b6040805163ffffffff90941684526001600160801b03909216602084015215159082015260600161039a565b6103d961070736600461364f565b6112b1565b61039061071a3660046135f5565b600a6020526000908152604090205481565b6007546103ee906001600160a01b031681565b6103d961074d36600461386f565b61133b565b6103d961076036600461364f565b6113a6565b6103907fdf8b4c520ffe197c5343c6f5aec59570151ef9a492f2c624fd45ddde6135ec4281565b61039061079a36600461366c565b600d60209081526000928352604080842090915290825290205481565b6103b66107c53660046135f5565b611508565b6103d96107d836600461386f565b6115c6565b6103906107eb3660046135f5565b63ffffffff166000908152600a602052604090205490565b6108166108113660046135f5565b61161c565b60405161039a919081516001600160a01b039081168252602080840151821690830152604080840151821690830152606092830151169181019190915260800190565b61086c61086736600461366c565b61175e565b6040805193845263ffffffff928316602085015291169082015260600161039a565b6103ee61089c3660046135f5565b61189b565b6103906108af3660046135f5565b6119df565b6103906108c236600461366c565b63ffffffff82166000908152600e602090815260408083206001600160a01b038516845290915290205492915050565b6103b66109003660046136bc565b6000918252602082815260408084206001600160a01b0393909316845291905290205460ff1690565b61039061093736600461366c565b611a52565b6103d961094a36600461386f565b611b3e565b6109a561095d36600461366c565b600b602090815260009283526040808420909152908252902080546001820154600283015460038401546004909401549293919290919060ff811690610100900461ffff1686565b6040805196875260208701959095529385019290925260608401521515608083015261ffff1660a082015260c00161039a565b6103906109e636600461364f565b60106020526000908152604090205481565b610390600081565b6103d9610a0e3660046135f5565b611b48565b600954610390565b610a2e610a2936600461366c565b611f5e565b6040805193845260208401929092529082015260600161039a565b6103ee610a573660046136a3565b6002602052600090815260409020546001600160a01b031681565b610390611fb9565b610390610a883660046135f5565b600f6020526000908152604090205481565b6006546103ee9061010090046001600160a01b031681565b6103d9610ac03660046136bc565b61202c565b6103b6610ad33660046138af565b612051565b6103ee610ae63660046136a3565b612197565b610390610af9366004613971565b6121c1565b63ffffffff811660009081526011602052604081208054829190610b219061398f565b80601f0160208091040260200160405190810160405280929190818152602001828054610b4d9061398f565b8015610b9a5780601f10610b6f57610100808354040283529160200191610b9a565b820191906000526020600020905b815481529060010190602001808311610b7d57829003601f168201915b505050505090508080519060200120915050919050565b60006001600160e01b03198216637965db0b60e01b1480610be257506301ffc9a760e01b6001600160e01b03198316145b92915050565b63ffffffff81166000908152600d602090815260408083203380855292529091205490610c19908390836001612274565b610c595760405162461bcd60e51b815260206004820152600c60248201526b534c5f455f52455354414b4560a01b60448201526064015b60405180910390fd5b5050565b610c6633610ee6565b610cbd5760405162461bcd60e51b815260206004820152602260248201527f41636365737369626c653a2043616c6c6572206973206e6f7420616e2061646d60448201526134b760f11b6064820152608401610c50565b610ce77fdf8b4c520ffe197c5343c6f5aec59570151ef9a492f2c624fd45ddde6135ec4282610f50565b50565b610d296040518060c0016040528060008152602001600081526020016000815260200160008152602001600015158152602001600061ffff1681525090565b5063ffffffff9091166000908152600b602090815260408083206001600160a01b03909416835292815290829020825160c081018452815481526001820154928101929092526002810154928201929092526003820154606082015260049091015460ff81161515608083015261ffff6101009091041660a082015290565b63ffffffff8083166000818152600c602090815260408083206001600160a01b03871680855290835281842054948452600d835281842090845290915281205490929091839182919084165b81811015610edb5763ffffffff88166000908152600c602090815260408083206001600160a01b038b1684529091528120805483908110610e3757610e376139c3565b6000918252602080832060408051606081018252939091015463ffffffff8116845264010000000081046001600160801b031692840192909252600160a01b90910460ff1615159082018190529092509003610ec8578363ffffffff16600003610ea057805193505b6020810151610eb8906001600160801b0316886139ef565b9650610ec5600186613a02565b94505b5080610ed381613a26565b915050610df4565b505092959194509250565b6001600160a01b03811660009081527f5cbfc8ee58ca47855df7bcf648dd304ddb6b932f9b87878bdf6318d7ec7ee5b7602052604081205460ff16610be2565b600082815260208190526040902060010154610f4181612721565b610f4b838361272b565b505050565b6001600160a01b0381163314610fce5760405162461bcd60e51b815260206004820152602f60248201527f416363657373436f6e74726f6c3a2063616e206f6e6c792072656e6f756e636560448201527f20726f6c657320666f722073656c6600000000000000000000000000000000006064820152608401610c50565b610c5982826127c9565b600080610fe48361161c565b604080820151600654606084015192516347b00fb360e11b81526101009091046001600160a01b03908116600483015292831660248201529293501690638f601f6690604401602060405180830381865afa925050508015611063575060408051601f3d908101601f1916820190925261106091810190613a3f565b60015b6110a1573d808015611091576040519150601f19603f3d011682016040523d82523d6000602084013e611096565b606091505b5060009250506110a4565b91505b50919050565b60006110fc6110f3600085858080601f01602080910402602001604051908101604052809392919081815260200183838082843760009201919091525092939250506128489050565b61ffff16611508565b61113f5760405162461bcd60e51b81526020600482015260146024820152733737b716b932b3b4b9ba32b932b2103630bcb2b960611b6044820152606401610c50565b61114c8686868686612908565b9695505050505050565b606060128054806020026020016040519081016040528092919081815260200182805480156111ae57602002820191906000526020600020905b81546001600160a01b03168152600190910190602001808311611190575b5050505050905090565b601160205260009081526040902080546111d19061398f565b80601f01602080910402602001604051908101604052809291908181526020018280546111fd9061398f565b801561124a5780601f1061121f5761010080835404028352916020019161124a565b820191906000526020600020905b81548152906001019060200180831161122d57829003601f168201915b505050505081565b600c602052826000526040600020602052816000526040600020818154811061127a57600080fd5b60009182526020909120015463ffffffff8116935064010000000081046001600160801b03169250600160a01b900460ff16905083565b6112ba33610ee6565b6113115760405162461bcd60e51b815260206004820152602260248201527f41636365737369626c653a2043616c6c6572206973206e6f7420616e2061646d60448201526134b760f11b6064820152608401610c50565b610ce77fdf8b4c520ffe197c5343c6f5aec59570151ef9a492f2c624fd45ddde6135ec4282610f26565b63ffffffff82166000908152600d60209081526040808320338085529252909120549061136b9084908385612274565b610f4b5760405162461bcd60e51b815260206004820152600c60248201526b534c5f455f52455354414b4560a01b6044820152606401610c50565b6113af33610ee6565b6114065760405162461bcd60e51b815260206004820152602260248201527f41636365737369626c653a2043616c6c6572206973206e6f7420616e2061646d60448201526134b760f11b6064820152608401610c50565b6001600160a01b03811661145c5760405162461bcd60e51b815260206004820152601860248201527f41636365737369626c653a207a65726f206164647265737300000000000000006044820152606401610c50565b6001600160a01b03811633036114b45760405162461bcd60e51b815260206004820152601660248201527f41636365737369626c653a2073616d652061646d696e000000000000000000006044820152606401610c50565b6114de7fdf8b4c520ffe197c5343c6f5aec59570151ef9a492f2c624fd45ddde6135ec4282610f26565b610ce77fdf8b4c520ffe197c5343c6f5aec59570151ef9a492f2c624fd45ddde6135ec4233610f50565b60085460405163370f791d60e11b815263ffffffff831660048201526000916001600160a01b031690636e1ef23a90602401602060405180830381865afa158015611557573d6000803e3d6000fd5b505050506040513d601f19601f8201168201806040525081019061157b9190613a58565b6115be5760405162461bcd60e51b81526020600482015260146024820152733737b716b932b3b4b9ba32b932b2103630bcb2b960611b6044820152606401610c50565b506001919050565b6115cf82611508565b6116125760405162461bcd60e51b81526020600482015260146024820152733737b716b932b3b4b9ba32b932b2103630bcb2b960611b6044820152606401610c50565b610c5982826129d3565b60408051608081018252600080825260208201819052918101829052606081019190915263ffffffff8216600090815260116020526040812080546116609061398f565b80601f016020809104026020016040519081016040528092919081815260200182805461168c9061398f565b80156116d95780601f106116ae576101008083540402835291602001916116d9565b820191906000526020600020905b8154815290600101906020018083116116bc57829003601f168201915b50505050509050604f815111156110a457604080516080810190915280611701836000612a39565b6001600160a01b0316815260200161171a836014612a39565b6001600160a01b03168152602001611733836028612a39565b6001600160a01b0316815260200161174c83603c612a39565b6001600160a01b031690529392505050565b63ffffffff8083166000818152600c602090815260408083206001600160a01b03871680855290835281842054948452600d835281842090845290915281205490929091839183165b818110156118925763ffffffff87166000908152600c602090815260408083206001600160a01b038a16845290915281208054839081106117ea576117ea6139c3565b600091825260209182902060408051606081018252929091015463ffffffff811680845264010000000082046001600160801b031694840194909452600160a01b900460ff1615159082015291504311801561184857506040810151155b15611879576020810151611865906001600160801b0316876139ef565b9550611872600185613a02565b935061187f565b50611892565b508061188a81613a26565b9150506117a7565b50509250925092565b63ffffffff8116600090815260116020526040812080548291906118be9061398f565b80601f01602080910402602001604051908101604052809291908181526020018280546118ea9061398f565b80156119375780601f1061190c57610100808354040283529160200191611937565b820191906000526020600020905b81548152906001019060200180831161191a57829003601f168201915b50505050509050611952600082612a3990919063ffffffff16565b60405163bf40fac160e01b815260206004820152600d60248201527f4f564d5f53657175656e6365720000000000000000000000000000000000000060448201526001600160a01b03919091169063bf40fac190606401602060405180830381865afa925050508015611063575060408051601f3d908101601f1916820190925261106091810190613a7a565b6008546040516346ccf0e560e11b815263ffffffff831660048201526000916001600160a01b031690638d99e1ca90602401602060405180830381865afa158015611a2e573d6000803e3d6000fd5b505050506040513d601f19601f82011682018060405250810190610be29190613a3f565b60075463ffffffff83166000908152600b602090815260408083206001600160a01b038681168552908352818420825160c081018452815481526001820154948101949094526002810154928401839052600381015460608501526004015460ff811615156080850152610100900461ffff1660a0909301929092529192169063cdf68009906040518263ffffffff1660e01b8152600401611af691815260200190565b602060405180830381865afa158015611b13573d6000803e3d6000fd5b505050506040513d601f19601f82011682018060405250810190611b379190613a3f565b9392505050565b610c598282612b09565b60065460ff16611b835760405162461bcd60e51b8152600401610c50906020808252600490820152636c6f636b60e01b604082015260600190565b6006805460ff1916905563ffffffff81166000818152600c602090815260408083203380855290835281842054948452600d83528184208185529092528220549092919081905b83811015611c9c5763ffffffff86166000908152600c602090815260408083206001600160a01b03891684529091528120805483908110611c0d57611c0d6139c3565b600091825260209091200180549091504363ffffffff909116108015611c3c57508054600160a01b900460ff16155b15611c8357805460ff60a01b1916600160a01b17808255611c6f906001600160801b0364010000000090910416846139ef565b925083611c7b81613a26565b945050611c89565b50611c9c565b5080611c9481613a26565b915050611bca565b5060008111611ced5760405162461bcd60e51b815260206004820181905260248201527f7a65726f20617661696c61626c65207769746864726177616c20616d6f756e746044820152606401610c50565b63ffffffff85166000908152600d602090815260408083206001600160a01b038816845290915281208054849290611d269084906139ef565b909155505063ffffffff85166000908152600e602090815260408083206001600160a01b038816845290915281208054839290611d64908490613a97565b909155505063ffffffff85166000908152600f602052604081208054839290611d8e908490613a97565b90915550506001600160a01b03841660009081526010602052604081208054839290611dbb908490613a97565b90915550506006546040516370a0823160e01b815230600482015260009161010090046001600160a01b0316906370a0823190602401602060405180830381865afa158015611e0e573d6000803e3d6000fd5b505050506040513d601f19601f82011682018060405250810190611e329190613a3f565b905081811015611edd578015611e5e57600654611e5e9061010090046001600160a01b03168683612f1a565b6007546001600160a01b031663aad3ec9686611e7a8486613a97565b6040516001600160e01b031960e085901b1681526001600160a01b0390921660048301526024820152604401600060405180830381600087803b158015611ec057600080fd5b505af1158015611ed4573d6000803e3d6000fd5b50505050611ef9565b600654611ef99061010090046001600160a01b03168684612f1a565b6040805163ffffffff881681526001600160a01b03871660208201529081018390527f2d6eb139d2002caa088da5527d9d62f2f23bdf4504f5559a112535c436c6ee59906060015b60405180910390a150506006805460ff1916600117905550505050565b63ffffffff82166000818152600c602090815260408083206001600160a01b03861680855290835281842054948452600d835281842090845290915281205490818310611fb257611faf8284613a97565b90505b9250925092565b6008546040805163b969fbef60e01b815290516000926001600160a01b03169163b969fbef9160048083019260209291908290030181865afa158015612003573d6000803e3d6000fd5b505050506040513d601f19601f820116820180604052508101906120279190613a3f565b905090565b60008281526020819052604090206001015461204781612721565b610f4b83836127c9565b6008546000906001600160a01b031633146120ae5760405162461bcd60e51b815260206004820152601160248201527f6e6f74204c61796572324d616e616765720000000000000000000000000000006044820152606401610c50565b81516050146120ff5760405162461bcd60e51b815260206004820152600f60248201527f77726f6e67206c61796572496e666f00000000000000000000000000000000006044820152606401610c50565b63ffffffff83166000908152601160205260409020805461211f9061398f565b15905061216e5760405162461bcd60e51b815260206004820152600f60248201527f616c7265616479206372656174656400000000000000000000000000000000006044820152606401610c50565b63ffffffff8316600090815260116020526040902061218d8382613af0565b5060019392505050565b601281815481106121a757600080fd5b6000918252602090912001546001600160a01b0316905081565b6006546040516347b00fb360e11b81526001600160a01b03610100909204821660048201528282166024820152600091841690638f601f6690604401602060405180830381865afa925050508015612236575060408051601f3d908101601f1916820190925261223391810190613a3f565b60015b611b37573d808015612264576040519150601f19603f3d011682016040523d82523d6000602084013e612269565b606091505b506000915050610be2565b60065460009060ff166122b25760405162461bcd60e51b8152600401610c50906020808252600490820152636c6f636b60e01b604082015260600190565b6006805460ff1916905563ffffffff85166000908152600c602090815260408083206001600160a01b0388168452909152812054806123205760405162461bcd60e51b815260206004820152600a6024820152696e6f20756e7374616b6560b01b6044820152606401610c50565b8361232b8683613a97565b10156123795760405162461bcd60e51b815260206004820152601860248201527f6e2065786365656473206e756d206f662070656e64696e6700000000000000006044820152606401610c50565b600061238585876139ef565b90505b8086101561247b5763ffffffff88166000908152600c602090815260408083206001600160a01b038b16845290915281208054889081106123cb576123cb6139c3565b6000918252602090912001805490915064010000000081046001600160801b031690600160a01b900460ff16156124445760405162461bcd60e51b815260206004820152601260248201527f616c7265616479207769746864726177616c00000000000000000000000000006044820152606401610c50565b80156124575761245481866139ef565b94505b50805460ff60a01b1916600160a01b1790558561247381613a26565b965050612388565b600083116124cb5760405162461bcd60e51b815260206004820152601760248201527f6e6f2076616c69642072657374616b6520616d6f756e740000000000000000006044820152606401610c50565b600754604051636a2fb1f560e01b8152600481018590526000916001600160a01b031690636a2fb1f590602401602060405180830381865afa158015612515573d6000803e3d6000fd5b505050506040513d601f19601f820116820180604052508101906125399190613a3f565b63ffffffff8a166000908152600b602090815260408083206001600160a01b038d1684529091528120805492935091869183916125779084906139ef565b925050819055508181600201600082825461259291906139ef565b909155505063ffffffff8a166000908152600a6020526040812080548492906125bc9084906139ef565b9250508190555081600960008282546125d591906139ef565b909155505063ffffffff8a166000908152600e602090815260408083206001600160a01b038d16845290915281208054879290612613908490613a97565b909155505063ffffffff8a166000908152600f60205260408120805487929061263d908490613a97565b90915550506001600160a01b0389166000908152601060205260408120805487929061266a908490613a97565b909155505063ffffffff8a166000908152600d602090815260408083206001600160a01b038d168452909152812080548992906126a89084906139ef565b90915550506040805163ffffffff8c1681526001600160a01b038b166020820152908101869052606081018390527f34981dc0486069d2abbaddbc42e10b97cb24e4bce60ee4457e1d5062dfc0b4299060800160405180910390a16001955050505050506006805460ff19166001179055949350505050565b610ce78133613035565b6000828152602081815260408083206001600160a01b038516845290915290205460ff16610c59576000828152602081815260408083206001600160a01b03851684529091529020805460ff191660011790556127853390565b6001600160a01b0316816001600160a01b0316837f2f8788117e7eff1d82e926ec794901d17c78024a50270940304540a733656f0d60405160405180910390a45050565b6000828152602081815260408083206001600160a01b038516845290915290205460ff1615610c59576000828152602081815260408083206001600160a01b0385168085529252808320805460ff1916905551339285917ff6391f5c32d9c69d2a47ea670b442974b53935d1edc7fd64eb21e047a839171b9190a45050565b6000816128568160046139ef565b10156128a45760405162461bcd60e51b815260206004820152601160248201527f746f55696e7431365f6f766572666c6f770000000000000000000000000000006044820152606401610c50565b6128af8260046139ef565b835110156128ff5760405162461bcd60e51b815260206004820152601460248201527f746f55696e7431365f6f75744f66426f756e64730000000000000000000000006044820152606401610c50565b50016004015190565b60065460009061010090046001600160a01b0316331461294f5760405162461bcd60e51b8152602060048201526002602482015261454160f01b6044820152606401610c50565b6000612995600085858080601f01602080910402602001604051908101604052809392919081815260200183838082843760009201919091525092939250506128489050565b60065461ffff9190911691506129bb9061010090046001600160a01b03168830886130a8565b6129c68188876131cc565b5060019695505050505050565b8080600003612a095760405162461bcd60e51b81526020600482015260026024820152615a3160f01b6044820152606401610c50565b6006543390612a289061010090046001600160a01b03168230866130a8565b612a338482856131cc565b50505050565b600081612a478160146139ef565b1015612a955760405162461bcd60e51b815260206004820152601260248201527f746f416464726573735f6f766572666c6f7700000000000000000000000000006044820152606401610c50565b612aa08260146139ef565b83511015612af05760405162461bcd60e51b815260206004820152601560248201527f746f416464726573735f6f75744f66426f756e647300000000000000000000006044820152606401610c50565b5001602001516c01000000000000000000000000900490565b60065460ff16612b445760405162461bcd60e51b8152600401610c50906020808252600490820152636c6f636b60e01b604082015260600190565b6006805460ff19169055806000819003612b855760405162461bcd60e51b81526020600482015260026024820152615a3160f01b6044820152606401610c50565b60075460405163cdf6800960e01b81526004810184905233916000916001600160a01b039091169063cdf6800990602401602060405180830381865afa158015612bd3573d6000803e3d6000fd5b505050506040513d601f19601f82011682018060405250810190612bf79190613a3f565b63ffffffff86166000908152600b602090815260408083206001600160a01b03871684529091529020600281015491925090851115612c615760405162461bcd60e51b8152600401610c5090602080825260049082015263534c5f3160e01b604082015260600190565b84816002016000828254612c759190613a97565b90915550508054821115612c8c5760008155612ca6565b81816000016000828254612ca09190613a97565b90915550505b63ffffffff86166000908152600a602052604081208054879290612ccb908490613a97565b925050819055508460096000828254612ce49190613a97565b909155505060085460408051636577b27360e11b815290516000926001600160a01b03169163caef64e69160048083019260209291908290030181865afa158015612d33573d6000803e3d6000fd5b505050506040513d601f19601f82011682018060405250810190612d579190613a3f565b63ffffffff88166000908152600c602090815260408083206001600160a01b03891684529091529081902081516060810190925291925080612d9984436139ef565b63ffffffff90811682526001600160801b0380881660208085019190915260006040948501819052865460018101885596815281812086519701805487840151978701511515600160a01b0260ff60a01b19989095166401000000000273ffffffffffffffffffffffffffffffffffffffff19909116988616989098179790971795909516919091179094558a168252600e83528082206001600160a01b03881683529092529081208054859290612e529084906139ef565b909155505063ffffffff87166000908152600f602052604081208054859290612e7c9084906139ef565b90915550506001600160a01b03841660009081526010602052604081208054859290612ea99084906139ef565b90915550506040805163ffffffff891681526001600160a01b0386166020820152908101849052606081018790527f869a01319d83bb921803a22e3e95d0cb8b08e708d3fb144e2c25a563bf8650d39060800160405180910390a150506006805460ff191660011790555050505050565b604080516001600160a01b038481166024830152604480830185905283518084039091018152606490920183526020820180516001600160e01b031663a9059cbb60e01b1790529151600092839290871691612f769190613bb0565b6000604051808303816000865af19150503d8060008114612fb3576040519150601f19603f3d011682016040523d82523d6000602084013e612fb8565b606091505b5091509150818015612fe2575080511580612fe2575080806020019051810190612fe29190613a58565b61302e5760405162461bcd60e51b815260206004820152600f60248201527f5452414e534645525f4641494c454400000000000000000000000000000000006044820152606401610c50565b5050505050565b6000828152602081815260408083206001600160a01b038516845290915290205460ff16610c595761306681613421565b613071836020613433565b604051602001613082929190613bcc565b60408051601f198184030181529082905262461bcd60e51b8252610c509160040161381d565b604080516001600160a01b0385811660248301528481166044830152606480830185905283518084039091018152608490920183526020820180516001600160e01b03166323b872dd60e01b179052915160009283929088169161310c9190613bb0565b6000604051808303816000865af19150503d8060008114613149576040519150601f19603f3d011682016040523d82523d6000602084013e61314e565b606091505b50915091508180156131785750805115806131785750808060200190518101906131789190613a58565b6131c45760405162461bcd60e51b815260206004820152601460248201527f5452414e534645525f46524f4d5f4641494c45440000000000000000000000006044820152606401610c50565b505050505050565b60065460ff166132075760405162461bcd60e51b8152600401610c50906020808252600490820152636c6f636b60e01b604082015260600190565b6006805460ff191690558060008190036132485760405162461bcd60e51b81526020600482015260026024820152615a3160f01b6044820152606401610c50565b600754604051636a2fb1f560e01b8152600481018490526000916001600160a01b031690636a2fb1f590602401602060405180830381865afa158015613292573d6000803e3d6000fd5b505050506040513d601f19601f820116820180604052508101906132b69190613a3f565b63ffffffff86166000908152600b602090815260408083206001600160a01b0389168452909152902060048101549192509060ff1661335757600481018054600160ff1990911681179091556012805491820181556000527fbb8a6a4669ba250d26cd7a459eca9d215f8307e33aebe50379bc5a3617ec344401805473ffffffffffffffffffffffffffffffffffffffff19166001600160a01b0387161790555b8381600001600082825461336b91906139ef565b925050819055508181600201600082825461338691906139ef565b909155505063ffffffff86166000908152600a6020526040812080548492906133b09084906139ef565b9250508190555081600960008282546133c991906139ef565b90915550506040805163ffffffff881681526001600160a01b0387166020820152908101859052606081018390527fa2a62e1cc3e20f8692b7a85ee11f09e9c0f0c2cd028ba26400f65c7bd55361ee90608001611f41565b6060610be26001600160a01b03831660145b60606000613442836002613c4d565b61344d9060026139ef565b67ffffffffffffffff81111561346557613465613899565b6040519080825280601f01601f19166020018201604052801561348f576020820181803683370190505b509050600360fc1b816000815181106134aa576134aa6139c3565b60200101906001600160f81b031916908160001a905350600f60fb1b816001815181106134d9576134d96139c3565b60200101906001600160f81b031916908160001a90535060006134fd846002613c4d565b6135089060016139ef565b90505b600181111561358d577f303132333435363738396162636465660000000000000000000000000000000085600f1660108110613549576135496139c3565b1a60f81b82828151811061355f5761355f6139c3565b60200101906001600160f81b031916908160001a90535060049490941c9361358681613c64565b905061350b565b508315611b375760405162461bcd60e51b815260206004820181905260248201527f537472696e67733a20686578206c656e67746820696e73756666696369656e746044820152606401610c50565b803563ffffffff811681146135f057600080fd5b919050565b60006020828403121561360757600080fd5b611b37826135dc565b60006020828403121561362257600080fd5b81356001600160e01b031981168114611b3757600080fd5b6001600160a01b0381168114610ce757600080fd5b60006020828403121561366157600080fd5b8135611b378161363a565b6000806040838503121561367f57600080fd5b613688836135dc565b915060208301356136988161363a565b809150509250929050565b6000602082840312156136b557600080fd5b5035919050565b600080604083850312156136cf57600080fd5b8235915060208301356136988161363a565b6000806000806000608086880312156136f957600080fd5b85356137048161363a565b945060208601356137148161363a565b935060408601359250606086013567ffffffffffffffff8082111561373857600080fd5b818801915088601f83011261374c57600080fd5b81358181111561375b57600080fd5b89602082850101111561376d57600080fd5b9699959850939650602001949392505050565b6020808252825182820181905260009190848201906040850190845b818110156137c15783516001600160a01b03168352928401929184019160010161379c565b50909695505050505050565b60005b838110156137e85781810151838201526020016137d0565b50506000910152565b600081518084526138098160208601602086016137cd565b601f01601f19169290920160200192915050565b602081526000611b3760208301846137f1565b60008060006060848603121561384557600080fd5b61384e846135dc565b9250602084013561385e8161363a565b929592945050506040919091013590565b6000806040838503121561388257600080fd5b61388b836135dc565b946020939093013593505050565b634e487b7160e01b600052604160045260246000fd5b600080604083850312156138c257600080fd5b6138cb836135dc565b9150602083013567ffffffffffffffff808211156138e857600080fd5b818501915085601f8301126138fc57600080fd5b81358181111561390e5761390e613899565b604051601f8201601f19908116603f0116810190838211818310171561393657613936613899565b8160405282815288602084870101111561394f57600080fd5b8260208601602083013760006020848301015280955050505050509250929050565b6000806040838503121561398457600080fd5b82356136888161363a565b600181811c908216806139a357607f821691505b6020821081036110a457634e487b7160e01b600052602260045260246000fd5b634e487b7160e01b600052603260045260246000fd5b634e487b7160e01b600052601160045260246000fd5b80820180821115610be257610be26139d9565b63ffffffff818116838216019080821115613a1f57613a1f6139d9565b5092915050565b600060018201613a3857613a386139d9565b5060010190565b600060208284031215613a5157600080fd5b5051919050565b600060208284031215613a6a57600080fd5b81518015158114611b3757600080fd5b600060208284031215613a8c57600080fd5b8151611b378161363a565b81810381811115610be257610be26139d9565b601f821115610f4b57600081815260208120601f850160051c81016020861015613ad15750805b601f850160051c820191505b818110156131c457828155600101613add565b815167ffffffffffffffff811115613b0a57613b0a613899565b613b1e81613b18845461398f565b84613aaa565b602080601f831160018114613b535760008415613b3b5750858301515b600019600386901b1c1916600185901b1785556131c4565b600085815260208120601f198616915b82811015613b8257888601518255948401946001909101908401613b63565b5085821015613ba05787850151600019600388901b60f8161c191681555b5050505050600190811b01905550565b60008251613bc28184602087016137cd565b9190910192915050565b7f416363657373436f6e74726f6c3a206163636f756e7420000000000000000000815260008351613c048160178501602088016137cd565b7f206973206d697373696e6720726f6c65200000000000000000000000000000006017918401918201528351613c418160288401602088016137cd565b01602801949350505050565b8082028115828204841417610be257610be26139d9565b600081613c7357613c736139d9565b50600019019056fea164736f6c6343000812000a",
  "linkReferences": {},
  "deployedLinkReferences": {}
}