{
  "_format": "hh-sol-artifact-1",
  "contractName": "OptimismSequencer",
  "sourceName": "contracts/OptimismSequencer.sol",
  "abi": [
    {
      "inputs": [],
      "stateMutability": "nonpayable",
      "type": "constructor"
    },
    {
      "anonymous": false,
      "inputs": [
        {
          "indexed": false,
          "internalType": "bytes32",
          "name": "hashMessage",
          "type": "bytes32"
        },
        {
          "indexed": false,
          "internalType": "uint32",
          "name": "layerIndex",
          "type": "uint32"
        },
        {
          "indexed": false,
          "internalType": "address",
          "name": "from",
          "type": "address"
        },
        {
          "indexed": false,
          "internalType": "address",
          "name": "to",
          "type": "address"
        },
        {
          "indexed": false,
          "internalType": "uint256",
          "name": "amount",
          "type": "uint256"
        }
      ],
      "name": "FastWithdrawalClaim",
      "type": "event"
    },
    {
      "anonymous": false,
      "inputs": [
        {
          "indexed": false,
          "internalType": "bytes32",
          "name": "hashMessage",
          "type": "bytes32"
        },
        {
          "indexed": false,
          "internalType": "uint32",
          "name": "layerIndex",
          "type": "uint32"
        },
        {
          "indexed": false,
          "internalType": "address",
          "name": "staker",
          "type": "address"
        },
        {
          "indexed": false,
          "internalType": "uint256",
          "name": "amount",
          "type": "uint256"
        },
        {
          "indexed": false,
          "internalType": "uint256",
          "name": "lton",
          "type": "uint256"
        }
      ],
      "name": "FastWithdrawalStaked",
      "type": "event"
    },
    {
      "anonymous": false,
      "inputs": [
        {
          "indexed": false,
          "internalType": "uint32",
          "name": "_index",
          "type": "uint32"
        },
        {
          "indexed": false,
          "internalType": "address",
          "name": "sender",
          "type": "address"
        },
        {
          "indexed": false,
          "internalType": "uint256",
          "name": "amount",
          "type": "uint256"
        },
        {
          "indexed": false,
          "internalType": "uint256",
          "name": "lton",
          "type": "uint256"
        }
      ],
      "name": "Restaked",
      "type": "event"
    },
    {
      "anonymous": false,
      "inputs": [
        {
          "indexed": true,
          "internalType": "bytes32",
          "name": "role",
          "type": "bytes32"
        },
        {
          "indexed": true,
          "internalType": "bytes32",
          "name": "previousAdminRole",
          "type": "bytes32"
        },
        {
          "indexed": true,
          "internalType": "bytes32",
          "name": "newAdminRole",
          "type": "bytes32"
        }
      ],
      "name": "RoleAdminChanged",
      "type": "event"
    },
    {
      "anonymous": false,
      "inputs": [
        {
          "indexed": true,
          "internalType": "bytes32",
          "name": "role",
          "type": "bytes32"
        },
        {
          "indexed": true,
          "internalType": "address",
          "name": "account",
          "type": "address"
        },
        {
          "indexed": true,
          "internalType": "address",
          "name": "sender",
          "type": "address"
        }
      ],
      "name": "RoleGranted",
      "type": "event"
    },
    {
      "anonymous": false,
      "inputs": [
        {
          "indexed": true,
          "internalType": "bytes32",
          "name": "role",
          "type": "bytes32"
        },
        {
          "indexed": true,
          "internalType": "address",
          "name": "account",
          "type": "address"
        },
        {
          "indexed": true,
          "internalType": "address",
          "name": "sender",
          "type": "address"
        }
      ],
      "name": "RoleRevoked",
      "type": "event"
    },
    {
      "anonymous": false,
      "inputs": [
        {
          "indexed": false,
          "internalType": "uint32",
          "name": "_index",
          "type": "uint32"
        },
        {
          "indexed": false,
          "internalType": "address",
          "name": "sender",
          "type": "address"
        },
        {
          "indexed": false,
          "internalType": "uint256",
          "name": "amount",
          "type": "uint256"
        },
        {
          "indexed": false,
          "internalType": "uint256",
          "name": "lton",
          "type": "uint256"
        },
        {
          "indexed": false,
          "internalType": "address",
          "name": "commissionTo",
          "type": "address"
        },
        {
          "indexed": false,
          "internalType": "uint16",
          "name": "commission",
          "type": "uint16"
        }
      ],
      "name": "Staked",
      "type": "event"
    },
    {
      "anonymous": false,
      "inputs": [
        {
          "indexed": false,
          "internalType": "uint32",
          "name": "_index",
          "type": "uint32"
        },
        {
          "indexed": false,
          "internalType": "address",
          "name": "sender",
          "type": "address"
        },
        {
          "indexed": false,
          "internalType": "uint256",
          "name": "amount",
          "type": "uint256"
        },
        {
          "indexed": false,
          "internalType": "uint256",
          "name": "lton",
          "type": "uint256"
        }
      ],
      "name": "Unstaked",
      "type": "event"
    },
    {
      "anonymous": false,
      "inputs": [
        {
          "indexed": false,
          "internalType": "uint32",
          "name": "_index",
          "type": "uint32"
        },
        {
          "indexed": false,
          "internalType": "address",
          "name": "sender",
          "type": "address"
        },
        {
          "indexed": false,
          "internalType": "uint256",
          "name": "amount",
          "type": "uint256"
        }
      ],
      "name": "Withdrawal",
      "type": "event"
    },
    {
      "inputs": [],
      "name": "ADMIN_ROLE",
      "outputs": [
        {
          "internalType": "bytes32",
          "name": "",
          "type": "bytes32"
        }
      ],
      "stateMutability": "view",
      "type": "function"
    },
    {
      "inputs": [],
      "name": "DEFAULT_ADMIN_ROLE",
      "outputs": [
        {
          "internalType": "bytes32",
          "name": "",
          "type": "bytes32"
        }
      ],
      "stateMutability": "view",
      "type": "function"
    },
    {
      "inputs": [
        {
          "internalType": "address",
          "name": "addressManager",
          "type": "address"
        }
      ],
      "name": "L1CrossDomainMessenger",
      "outputs": [
        {
          "internalType": "address",
          "name": "account_",
          "type": "address"
        }
      ],
      "stateMutability": "view",
      "type": "function"
    },
    {
      "inputs": [
        {
          "internalType": "address",
          "name": "addressManager",
          "type": "address"
        }
      ],
      "name": "L1StandardBridge",
      "outputs": [
        {
          "internalType": "address",
          "name": "account_",
          "type": "address"
        }
      ],
      "stateMutability": "view",
      "type": "function"
    },
    {
      "inputs": [],
      "name": "POLICY_ROLE",
      "outputs": [
        {
          "internalType": "bytes32",
          "name": "",
          "type": "bytes32"
        }
      ],
      "stateMutability": "view",
      "type": "function"
    },
    {
      "inputs": [
        {
          "internalType": "address",
          "name": "account",
          "type": "address"
        }
      ],
      "name": "addAdmin",
      "outputs": [],
      "stateMutability": "nonpayable",
      "type": "function"
    },
    {
      "inputs": [
        {
          "internalType": "address",
          "name": "",
          "type": "address"
        }
      ],
      "name": "aliveImplementation",
      "outputs": [
        {
          "internalType": "bool",
          "name": "",
          "type": "bool"
        }
      ],
      "stateMutability": "view",
      "type": "function"
    },
    {
      "inputs": [
        {
          "internalType": "uint32",
          "name": "layerIndex",
          "type": "uint32"
        },
        {
          "internalType": "address",
          "name": "account",
          "type": "address"
        }
      ],
      "name": "amountOfPendings",
      "outputs": [
        {
          "internalType": "uint256",
          "name": "amount",
          "type": "uint256"
        },
        {
          "internalType": "uint32",
          "name": "startIndex",
          "type": "uint32"
        },
        {
          "internalType": "uint32",
          "name": "len",
          "type": "uint32"
        },
        {
          "internalType": "uint32",
          "name": "nextWithdrawableBlockNumber",
          "type": "uint32"
        }
      ],
      "stateMutability": "view",
      "type": "function"
    },
    {
      "inputs": [
        {
          "internalType": "uint32",
          "name": "_index",
          "type": "uint32"
        },
        {
          "internalType": "address",
          "name": "account",
          "type": "address"
        }
      ],
      "name": "availableWithdraw",
      "outputs": [
        {
          "internalType": "uint256",
          "name": "amount",
          "type": "uint256"
        },
        {
          "internalType": "uint32",
          "name": "startIndex",
          "type": "uint32"
        },
        {
          "internalType": "uint32",
          "name": "len",
          "type": "uint32"
        }
      ],
      "stateMutability": "view",
      "type": "function"
    },
    {
      "inputs": [
        {
          "internalType": "uint32",
          "name": "_index",
          "type": "uint32"
        },
        {
          "internalType": "address",
          "name": "account",
          "type": "address"
        }
      ],
      "name": "balanceOf",
      "outputs": [
        {
          "internalType": "uint256",
          "name": "amount",
          "type": "uint256"
        }
      ],
      "stateMutability": "view",
      "type": "function"
    },
    {
      "inputs": [
        {
          "internalType": "uint32",
          "name": "_index",
          "type": "uint32"
        },
        {
          "internalType": "address",
          "name": "account",
          "type": "address"
        },
        {
          "internalType": "uint256",
          "name": "snapshotId",
          "type": "uint256"
        }
      ],
      "name": "balanceOfAt",
      "outputs": [
        {
          "internalType": "uint256",
          "name": "amount",
          "type": "uint256"
        }
      ],
      "stateMutability": "view",
      "type": "function"
    },
    {
      "inputs": [
        {
          "internalType": "uint32",
          "name": "_index",
          "type": "uint32"
        },
        {
          "internalType": "address",
          "name": "account",
          "type": "address"
        }
      ],
      "name": "balanceOfLton",
      "outputs": [
        {
          "internalType": "uint256",
          "name": "amount",
          "type": "uint256"
        }
      ],
      "stateMutability": "view",
      "type": "function"
    },
    {
      "inputs": [
        {
          "internalType": "uint32",
          "name": "_index",
          "type": "uint32"
        }
      ],
      "name": "balanceOfLton",
      "outputs": [
        {
          "internalType": "uint256",
          "name": "amount",
          "type": "uint256"
        }
      ],
      "stateMutability": "view",
      "type": "function"
    },
    {
      "inputs": [
        {
          "internalType": "uint32",
          "name": "_index",
          "type": "uint32"
        },
        {
          "internalType": "address",
          "name": "account",
          "type": "address"
        },
        {
          "internalType": "uint256",
          "name": "snapshotId",
          "type": "uint256"
        }
      ],
      "name": "balanceOfLtonAt",
      "outputs": [
        {
          "internalType": "uint256",
          "name": "amount",
          "type": "uint256"
        }
      ],
      "stateMutability": "view",
      "type": "function"
    },
    {
      "inputs": [
        {
          "internalType": "uint32",
          "name": "_index",
          "type": "uint32"
        },
        {
          "internalType": "uint256",
          "name": "snapshotId",
          "type": "uint256"
        }
      ],
      "name": "balanceOfLtonAt",
      "outputs": [
        {
          "internalType": "uint256",
          "name": "amount",
          "type": "uint256"
        }
      ],
      "stateMutability": "view",
      "type": "function"
    },
    {
      "inputs": [
        {
          "internalType": "uint32",
          "name": "_index",
          "type": "uint32"
        },
        {
          "internalType": "uint256",
          "name": "snapshotId",
          "type": "uint256"
        }
      ],
      "name": "balanceOfLtonAtSnapshot",
      "outputs": [
        {
          "internalType": "bool",
          "name": "snapshotted",
          "type": "bool"
        },
        {
          "internalType": "uint256",
          "name": "amount",
          "type": "uint256"
        }
      ],
      "stateMutability": "view",
      "type": "function"
    },
    {
      "inputs": [
        {
          "internalType": "uint32",
          "name": "_index",
          "type": "uint32"
        },
        {
          "internalType": "address",
          "name": "account",
          "type": "address"
        },
        {
          "internalType": "uint256",
          "name": "snapshotId",
          "type": "uint256"
        }
      ],
      "name": "balanceOfLtonAtSnapshot",
      "outputs": [
        {
          "internalType": "bool",
          "name": "snapshotted",
          "type": "bool"
        },
        {
          "internalType": "uint256",
          "name": "amount",
          "type": "uint256"
        }
      ],
      "stateMutability": "view",
      "type": "function"
    },
    {
      "inputs": [
        {
          "internalType": "uint32",
          "name": "_index",
          "type": "uint32"
        }
      ],
      "name": "bridges",
      "outputs": [
        {
          "internalType": "address",
          "name": "",
          "type": "address"
        },
        {
          "internalType": "address",
          "name": "",
          "type": "address"
        }
      ],
      "stateMutability": "view",
      "type": "function"
    },
    {
      "inputs": [
        {
          "internalType": "uint32",
          "name": "_index",
          "type": "uint32"
        },
        {
          "internalType": "bytes",
          "name": "_layerInfo",
          "type": "bytes"
        }
      ],
      "name": "create",
      "outputs": [
        {
          "internalType": "bool",
          "name": "",
          "type": "bool"
        }
      ],
      "stateMutability": "nonpayable",
      "type": "function"
    },
    {
      "inputs": [
        {
          "internalType": "uint32",
          "name": "_index",
          "type": "uint32"
        }
      ],
      "name": "existedIndex",
      "outputs": [
        {
          "internalType": "bool",
          "name": "",
          "type": "bool"
        }
      ],
      "stateMutability": "view",
      "type": "function"
    },
    {
      "inputs": [
        {
          "internalType": "bytes32",
          "name": "hashMessage",
          "type": "bytes32"
        },
        {
          "internalType": "uint32",
          "name": "layerIndex",
          "type": "uint32"
        },
        {
          "internalType": "address",
          "name": "from",
          "type": "address"
        },
        {
          "internalType": "address",
          "name": "to",
          "type": "address"
        },
        {
          "internalType": "uint256",
          "name": "amount",
          "type": "uint256"
        }
      ],
      "name": "fastWithdrawClaim",
      "outputs": [
        {
          "internalType": "bool",
          "name": "",
          "type": "bool"
        }
      ],
      "stateMutability": "nonpayable",
      "type": "function"
    },
    {
      "inputs": [
        {
          "internalType": "bytes32",
          "name": "hashMessage",
          "type": "bytes32"
        },
        {
          "internalType": "uint32",
          "name": "layerIndex",
          "type": "uint32"
        },
        {
          "internalType": "address",
          "name": "staker",
          "type": "address"
        },
        {
          "internalType": "uint256",
          "name": "_amount",
          "type": "uint256"
        }
      ],
      "name": "fastWithdrawStake",
      "outputs": [
        {
          "internalType": "bool",
          "name": "",
          "type": "bool"
        }
      ],
      "stateMutability": "nonpayable",
      "type": "function"
    },
    {
      "inputs": [],
      "name": "fwReceipt",
      "outputs": [
        {
          "internalType": "address",
          "name": "",
          "type": "address"
        }
      ],
      "stateMutability": "view",
      "type": "function"
    },
    {
      "inputs": [],
      "name": "getCurrentSnapshotId",
      "outputs": [
        {
          "internalType": "uint256",
          "name": "",
          "type": "uint256"
        }
      ],
      "stateMutability": "view",
      "type": "function"
    },
    {
      "inputs": [
        {
          "internalType": "uint32",
          "name": "_index",
          "type": "uint32"
        }
      ],
      "name": "getLayerInfo",
      "outputs": [
        {
          "components": [
            {
              "internalType": "address",
              "name": "addressManager",
              "type": "address"
            },
            {
              "internalType": "address",
              "name": "l1Bridge",
              "type": "address"
            },
            {
              "internalType": "address",
              "name": "l2Bridge",
              "type": "address"
            },
            {
              "internalType": "address",
              "name": "l2ton",
              "type": "address"
            }
          ],
          "internalType": "struct LibOptimism.Info",
          "name": "_layerInfo",
          "type": "tuple"
        }
      ],
      "stateMutability": "view",
      "type": "function"
    },
    {
      "inputs": [
        {
          "internalType": "uint32",
          "name": "_index",
          "type": "uint32"
        }
      ],
      "name": "getLayerKey",
      "outputs": [
        {
          "internalType": "bytes32",
          "name": "layerKey_",
          "type": "bytes32"
        }
      ],
      "stateMutability": "view",
      "type": "function"
    },
    {
      "inputs": [
        {
          "internalType": "uint32",
          "name": "_index",
          "type": "uint32"
        },
        {
          "internalType": "address",
          "name": "account",
          "type": "address"
        }
      ],
      "name": "getLayerStakes",
      "outputs": [
        {
          "components": [
            {
              "internalType": "uint256",
              "name": "stakePrincipal",
              "type": "uint256"
            },
            {
              "internalType": "uint256",
              "name": "stakelton",
              "type": "uint256"
            },
            {
              "internalType": "bool",
              "name": "stake",
              "type": "bool"
            }
          ],
          "internalType": "struct LibStake.StakeInfo",
          "name": "info",
          "type": "tuple"
        }
      ],
      "stateMutability": "view",
      "type": "function"
    },
    {
      "inputs": [
        {
          "internalType": "uint32",
          "name": "_index",
          "type": "uint32"
        },
        {
          "internalType": "address",
          "name": "account",
          "type": "address"
        }
      ],
      "name": "getPendingUnstakedAmount",
      "outputs": [
        {
          "internalType": "uint256",
          "name": "",
          "type": "uint256"
        }
      ],
      "stateMutability": "view",
      "type": "function"
    },
    {
      "inputs": [
        {
          "internalType": "bytes32",
          "name": "role",
          "type": "bytes32"
        }
      ],
      "name": "getRoleAdmin",
      "outputs": [
        {
          "internalType": "bytes32",
          "name": "",
          "type": "bytes32"
        }
      ],
      "stateMutability": "view",
      "type": "function"
    },
    {
      "inputs": [],
      "name": "getStakeAccountList",
      "outputs": [
        {
          "internalType": "address[]",
          "name": "",
          "type": "address[]"
        }
      ],
      "stateMutability": "view",
      "type": "function"
    },
    {
      "inputs": [],
      "name": "getTotalLton",
      "outputs": [
        {
          "internalType": "uint256",
          "name": "",
          "type": "uint256"
        }
      ],
      "stateMutability": "view",
      "type": "function"
    },
    {
      "inputs": [
        {
          "internalType": "uint32",
          "name": "_index",
          "type": "uint32"
        }
      ],
      "name": "getTvl",
      "outputs": [
        {
          "internalType": "uint256",
          "name": "amount",
          "type": "uint256"
        }
      ],
      "stateMutability": "view",
      "type": "function"
    },
    {
      "inputs": [
        {
          "internalType": "address",
          "name": "l1Bridge",
          "type": "address"
        },
        {
          "internalType": "address",
          "name": "l2ton",
          "type": "address"
        }
      ],
      "name": "getTvl",
      "outputs": [
        {
          "internalType": "uint256",
          "name": "amount",
          "type": "uint256"
        }
      ],
      "stateMutability": "view",
      "type": "function"
    },
    {
      "inputs": [
        {
          "internalType": "bytes32",
          "name": "role",
          "type": "bytes32"
        },
        {
          "internalType": "address",
          "name": "account",
          "type": "address"
        }
      ],
      "name": "grantRole",
      "outputs": [],
      "stateMutability": "nonpayable",
      "type": "function"
    },
    {
      "inputs": [
        {
          "internalType": "bytes32",
          "name": "role",
          "type": "bytes32"
        },
        {
          "internalType": "address",
          "name": "account",
          "type": "address"
        }
      ],
      "name": "hasRole",
      "outputs": [
        {
          "internalType": "bool",
          "name": "",
          "type": "bool"
        }
      ],
      "stateMutability": "view",
      "type": "function"
    },
    {
      "inputs": [
        {
          "internalType": "address",
          "name": "account",
          "type": "address"
        }
      ],
      "name": "isAdmin",
      "outputs": [
        {
          "internalType": "bool",
          "name": "",
          "type": "bool"
        }
      ],
      "stateMutability": "view",
      "type": "function"
    },
    {
      "inputs": [
        {
          "internalType": "uint32",
          "name": "_index",
          "type": "uint32"
        }
      ],
      "name": "layer2Deposits",
      "outputs": [
        {
          "internalType": "uint256",
          "name": "amount",
          "type": "uint256"
        }
      ],
      "stateMutability": "view",
      "type": "function"
    },
    {
      "inputs": [],
      "name": "layer2Manager",
      "outputs": [
        {
          "internalType": "address",
          "name": "",
          "type": "address"
        }
      ],
      "stateMutability": "view",
      "type": "function"
    },
    {
      "inputs": [
        {
          "internalType": "uint32",
          "name": "",
          "type": "uint32"
        }
      ],
      "name": "layerInfo",
      "outputs": [
        {
          "internalType": "bytes",
          "name": "",
          "type": "bytes"
        }
      ],
      "stateMutability": "view",
      "type": "function"
    },
    {
      "inputs": [
        {
          "internalType": "uint32",
          "name": "",
          "type": "uint32"
        }
      ],
      "name": "layerStakedLton",
      "outputs": [
        {
          "internalType": "uint256",
          "name": "",
          "type": "uint256"
        }
      ],
      "stateMutability": "view",
      "type": "function"
    },
    {
      "inputs": [
        {
          "internalType": "uint32",
          "name": "",
          "type": "uint32"
        },
        {
          "internalType": "address",
          "name": "",
          "type": "address"
        }
      ],
      "name": "layerStakes",
      "outputs": [
        {
          "internalType": "uint256",
          "name": "stakePrincipal",
          "type": "uint256"
        },
        {
          "internalType": "uint256",
          "name": "stakelton",
          "type": "uint256"
        },
        {
          "internalType": "bool",
          "name": "stake",
          "type": "bool"
        }
      ],
      "stateMutability": "view",
      "type": "function"
    },
    {
      "inputs": [
        {
          "internalType": "uint32",
          "name": "layerIndex",
          "type": "uint32"
        },
        {
          "internalType": "address",
          "name": "account",
          "type": "address"
        }
      ],
      "name": "numberOfPendings",
      "outputs": [
        {
          "internalType": "uint256",
          "name": "totalRequests",
          "type": "uint256"
        },
        {
          "internalType": "uint256",
          "name": "withdrawIndex",
          "type": "uint256"
        },
        {
          "internalType": "uint256",
          "name": "pendingLength",
          "type": "uint256"
        }
      ],
      "stateMutability": "view",
      "type": "function"
    },
    {
      "inputs": [
        {
          "internalType": "address",
          "name": "sender",
          "type": "address"
        },
        {
          "internalType": "address",
          "name": "spender",
          "type": "address"
        },
        {
          "internalType": "uint256",
          "name": "amount",
          "type": "uint256"
        },
        {
          "internalType": "bytes",
          "name": "data",
          "type": "bytes"
        }
      ],
      "name": "onApprove",
      "outputs": [
        {
          "internalType": "bool",
          "name": "",
          "type": "bool"
        }
      ],
      "stateMutability": "nonpayable",
      "type": "function"
    },
    {
      "inputs": [],
      "name": "pauseProxy",
      "outputs": [
        {
          "internalType": "bool",
          "name": "",
          "type": "bool"
        }
      ],
      "stateMutability": "view",
      "type": "function"
    },
    {
      "inputs": [
        {
          "internalType": "uint32",
          "name": "",
          "type": "uint32"
        },
        {
          "internalType": "address",
          "name": "",
          "type": "address"
        }
      ],
      "name": "pendingUnstaked",
      "outputs": [
        {
          "internalType": "uint256",
          "name": "",
          "type": "uint256"
        }
      ],
      "stateMutability": "view",
      "type": "function"
    },
    {
      "inputs": [
        {
          "internalType": "address",
          "name": "",
          "type": "address"
        }
      ],
      "name": "pendingUnstakedAccount",
      "outputs": [
        {
          "internalType": "uint256",
          "name": "",
          "type": "uint256"
        }
      ],
      "stateMutability": "view",
      "type": "function"
    },
    {
      "inputs": [
        {
          "internalType": "uint32",
          "name": "",
          "type": "uint32"
        }
      ],
      "name": "pendingUnstakedLayer2",
      "outputs": [
        {
          "internalType": "uint256",
          "name": "",
          "type": "uint256"
        }
      ],
      "stateMutability": "view",
      "type": "function"
    },
    {
      "inputs": [
        {
          "internalType": "uint256",
          "name": "",
          "type": "uint256"
        }
      ],
      "name": "proxyImplementation",
      "outputs": [
        {
          "internalType": "address",
          "name": "",
          "type": "address"
        }
      ],
      "stateMutability": "view",
      "type": "function"
    },
    {
      "inputs": [
        {
          "internalType": "address",
          "name": "account",
          "type": "address"
        }
      ],
      "name": "removeAdmin",
      "outputs": [],
      "stateMutability": "nonpayable",
      "type": "function"
    },
    {
      "inputs": [
        {
          "internalType": "bytes32",
          "name": "role",
          "type": "bytes32"
        },
        {
          "internalType": "address",
          "name": "account",
          "type": "address"
        }
      ],
      "name": "renounceRole",
      "outputs": [],
      "stateMutability": "nonpayable",
      "type": "function"
    },
    {
      "inputs": [
        {
          "internalType": "uint32",
          "name": "_index",
          "type": "uint32"
        }
      ],
      "name": "restake",
      "outputs": [],
      "stateMutability": "nonpayable",
      "type": "function"
    },
    {
      "inputs": [
        {
          "internalType": "uint32",
          "name": "_index",
          "type": "uint32"
        },
        {
          "internalType": "uint256",
          "name": "n",
          "type": "uint256"
        }
      ],
      "name": "restakeMulti",
      "outputs": [],
      "stateMutability": "nonpayable",
      "type": "function"
    },
    {
      "inputs": [
        {
          "internalType": "bytes32",
          "name": "role",
          "type": "bytes32"
        },
        {
          "internalType": "address",
          "name": "account",
          "type": "address"
        }
      ],
      "name": "revokeRole",
      "outputs": [],
      "stateMutability": "nonpayable",
      "type": "function"
    },
    {
      "inputs": [],
      "name": "seigManagerV2",
      "outputs": [
        {
          "internalType": "address",
          "name": "",
          "type": "address"
        }
      ],
      "stateMutability": "view",
      "type": "function"
    },
    {
      "inputs": [
        {
          "internalType": "bytes4",
          "name": "",
          "type": "bytes4"
        }
      ],
      "name": "selectorImplementation",
      "outputs": [
        {
          "internalType": "address",
          "name": "",
          "type": "address"
        }
      ],
      "stateMutability": "view",
      "type": "function"
    },
    {
      "inputs": [
        {
          "internalType": "address",
          "name": "addressManager",
          "type": "address"
        }
      ],
      "name": "sequencer",
      "outputs": [
        {
          "internalType": "address",
          "name": "sequencer_",
          "type": "address"
        }
      ],
      "stateMutability": "view",
      "type": "function"
    },
    {
      "inputs": [
        {
          "internalType": "uint32",
          "name": "_index",
          "type": "uint32"
        }
      ],
      "name": "sequencer",
      "outputs": [
        {
          "internalType": "address",
          "name": "sequencer_",
          "type": "address"
        }
      ],
      "stateMutability": "view",
      "type": "function"
    },
    {
      "inputs": [
        {
          "internalType": "uint32",
          "name": "_index",
          "type": "uint32"
        },
        {
          "internalType": "uint256",
          "name": "amount",
          "type": "uint256"
        }
      ],
      "name": "stake",
      "outputs": [],
      "stateMutability": "nonpayable",
      "type": "function"
    },
    {
      "inputs": [
        {
          "internalType": "uint256",
          "name": "",
          "type": "uint256"
        }
      ],
      "name": "stakeAccountList",
      "outputs": [
        {
          "internalType": "address",
          "name": "",
          "type": "address"
        }
      ],
      "stateMutability": "view",
      "type": "function"
    },
    {
      "inputs": [
        {
          "internalType": "bytes4",
          "name": "interfaceId",
          "type": "bytes4"
        }
      ],
      "name": "supportsInterface",
      "outputs": [
        {
          "internalType": "bool",
          "name": "",
          "type": "bool"
        }
      ],
      "stateMutability": "view",
      "type": "function"
    },
    {
      "inputs": [],
      "name": "ton",
      "outputs": [
        {
          "internalType": "address",
          "name": "",
          "type": "address"
        }
      ],
      "stateMutability": "view",
      "type": "function"
    },
    {
      "inputs": [],
      "name": "totalLayer2Deposits",
      "outputs": [
        {
          "internalType": "uint256",
          "name": "amount",
          "type": "uint256"
        }
      ],
      "stateMutability": "view",
      "type": "function"
    },
    {
      "inputs": [],
      "name": "totalStakeAccountList",
      "outputs": [
        {
          "internalType": "uint256",
          "name": "",
          "type": "uint256"
        }
      ],
      "stateMutability": "view",
      "type": "function"
    },
    {
      "inputs": [],
      "name": "totalStakedLton",
      "outputs": [
        {
          "internalType": "uint256",
          "name": "amount",
          "type": "uint256"
        }
      ],
      "stateMutability": "view",
      "type": "function"
    },
    {
      "inputs": [
        {
          "internalType": "uint256",
          "name": "snapshotId",
          "type": "uint256"
        }
      ],
      "name": "totalStakedLtonAt",
      "outputs": [
        {
          "internalType": "uint256",
          "name": "amount",
          "type": "uint256"
        }
      ],
      "stateMutability": "view",
      "type": "function"
    },
    {
      "inputs": [
        {
          "internalType": "uint256",
          "name": "snapshotId",
          "type": "uint256"
        }
      ],
      "name": "totalStakedLtonAtSnapshot",
      "outputs": [
        {
          "internalType": "bool",
          "name": "snapshotted",
          "type": "bool"
        },
        {
          "internalType": "uint256",
          "name": "amount",
          "type": "uint256"
        }
      ],
      "stateMutability": "view",
      "type": "function"
    },
    {
      "inputs": [
        {
          "internalType": "address",
          "name": "newAdmin",
          "type": "address"
        }
      ],
      "name": "transferAdmin",
      "outputs": [],
      "stateMutability": "nonpayable",
      "type": "function"
    },
    {
      "inputs": [
        {
          "internalType": "uint32",
          "name": "_index",
          "type": "uint32"
        },
        {
          "internalType": "uint256",
          "name": "lton_",
          "type": "uint256"
        }
      ],
      "name": "unstake",
      "outputs": [],
      "stateMutability": "nonpayable",
      "type": "function"
    },
    {
      "inputs": [
        {
          "internalType": "uint32",
          "name": "_index",
          "type": "uint32"
        }
      ],
      "name": "withdraw",
      "outputs": [],
      "stateMutability": "nonpayable",
      "type": "function"
    },
    {
      "inputs": [
        {
          "internalType": "uint32",
          "name": "",
          "type": "uint32"
        },
        {
          "internalType": "address",
          "name": "",
          "type": "address"
        }
      ],
      "name": "withdrawalRequestIndex",
      "outputs": [
        {
          "internalType": "uint256",
          "name": "",
          "type": "uint256"
        }
      ],
      "stateMutability": "view",
      "type": "function"
    },
    {
      "inputs": [
        {
          "internalType": "uint32",
          "name": "",
          "type": "uint32"
        },
        {
          "internalType": "address",
          "name": "",
          "type": "address"
        },
        {
          "internalType": "uint256",
          "name": "",
          "type": "uint256"
        }
      ],
      "name": "withdrawalRequests",
      "outputs": [
        {
          "internalType": "uint32",
          "name": "withdrawableBlockNumber",
          "type": "uint32"
        },
        {
          "internalType": "uint128",
          "name": "amount",
          "type": "uint128"
        },
        {
          "internalType": "bool",
          "name": "processed",
          "type": "bool"
        }
      ],
      "stateMutability": "view",
      "type": "function"
    }
  ],
  "bytecode": "0x60806040526006805460ff1916600117905534801561001d57600080fd5b50614e4a8061002d6000396000f3fe608060405234801561001057600080fd5b506004361061048d5760003560e01c806375829def1161026b578063a217fddf11610150578063cc48b947116100c8578063df2b429011610097578063ec110d451161007c578063ec110d4514610c99578063edcc217714610cac578063f8d437ae14610cbf57600080fd5b8063df2b429014610c73578063e4f6815514610c8657600080fd5b8063cc48b94714610c22578063cdc76cf914610c3a578063d07918f114610c4d578063d547741f14610c6057600080fd5b8063b413b37a1161011f578063b911135f11610104578063b911135f14610bd1578063b969fbef14610bfa578063b9cab97114610c0257600080fd5b8063b413b37a146106b0578063b6a2f99d14610ba357600080fd5b8063a217fddf14610b62578063a2dc9e0214610b6a578063a4c735ef14610b7d578063aa9224cd14610b9057600080fd5b80638d1f3d0a116101e357806394c89b2c116101b25780639c2f614f116101975780639c2f614f14610ad55780639c656e2614610ae8578063a0b2a91314610b4257600080fd5b806394c89b2c14610aaf5780639823835514610ac257600080fd5b80638d1f3d0a14610a145780638d99e1ca14610a275780638ddd87fe14610a3a57806391d1485414610a7857600080fd5b80637ec6840f1161023a5780638afec9fc1161021f5780638afec9fc146109635780638c6f1b39146109895780638c71762d146109df57600080fd5b80637ec6840f1461093d57806385b9e4851461095057600080fd5b806375829def146108c557806375b238fc146108d85780637cf1587c146108ff5780637d211a1c1461092a57600080fd5b80634de131ca1161039157806363a8fd891161030957806370480275116102d85780637138c792116102bd5780637138c7921461088c57806373469a7a1461089f578063744a3561146108b257600080fd5b8063704802751461085957806370619cf91461086c57600080fd5b806363a8fd89146107da578063659ab820146107e75780636818a32b146108075780636d1ef1031461081a57600080fd5b80635439ad86116103605780635d0c7b2b116103455780635d0c7b2b146107365780635e2cfe45146107495780635f1b989e1461077457600080fd5b80635439ad861461070b578063550d01a31461071357600080fd5b80634de131ca1461069b5780634e1a264d146106b05780634ec2f04b146106b857806350d2a276146106e257600080fd5b806322985246116104245780632f2ff15d116103f357806341e5dbe8116103d857806341e5dbe81461066d5780634273ca161461068057806346bcdb491461069357600080fd5b80632f2ff15d1461064757806336568abe1461065a57600080fd5b806322985246146105d7578063248a9ca3146105fe57806324d7806c1461062157806329637c1c1461063457600080fd5b806316b5d5bd1161046057806316b5d5bd146105235780631785f53c1461054e5780631ed94495146105615780631f760d011461059857600080fd5b80630116cc651461049257806301ffc9a7146104b85780630b8931cb146104db578063118e29d11461050e575b600080fd5b6104a56104a036600461455b565b610cd2565b6040519081526020015b60405180910390f35b6104cb6104c6366004614576565b610d03565b60405190151581526020016104af565b6104ee6104e936600461455b565b610d3a565b604080516001600160a01b039384168152929091166020830152016104af565b61052161051c36600461455b565b610de0565b005b600854610536906001600160a01b031681565b6040516001600160a01b0390911681526020016104af565b61052161055c3660046145b5565b610e55565b61057461056f3660046145d2565b610ee2565b604080518251815260208084015190820152918101511515908201526060016104af565b6105ab6105a63660046145d2565b610f61565b6040805194855263ffffffff9384166020860152918316918401919091521660608201526080016104af565b6104a57ffb5864e8ff833c3cb2d2d08505e82ff02a43554c74a35d4f5a64e8526127831181565b6104a561060c366004614609565b60009081526020819052604090206001015490565b6104cb61062f3660046145b5565b61109f565b6104a5610642366004614622565b6110df565b610521610655366004614661565b61116e565b610521610668366004614661565b611198565b6104a561067b36600461455b565b611220565b6104cb61068e366004614686565b6112f9565b6017546104a5565b6106a3611450565b6040516104af9190614725565b600a546104a5565b6106cb6106c6366004614772565b6114b2565b6040805192151583526020830191909152016104af565b6105366106f0366004614576565b6004602052600090815260409020546001600160a01b031681565b6104a56114e0565b6104cb6107213660046145b5565b60036020526000908152604090205460ff1681565b6105366107443660046145b5565b611553565b6104a56107573660046145d2565b601360209081526000928352604080842090915290825290205481565b6104a56107823660046145d2565b63ffffffff9091166000908152600f602090815260408083206001600160a01b03909416835292815290829020825160608101845281548152600182015492810183905260029091015460ff16151592019190915290565b6001546104cb9060ff1681565b6107fa6107f536600461455b565b61161a565b6040516104af91906147ec565b6104a5610815366004614622565b6116b4565b61082d610828366004614622565b611758565b6040805163ffffffff90941684526001600160801b0390921660208401521515908201526060016104af565b6105216108673660046145b5565b6117b7565b6104a561087a36600461455b565b600d6020526000908152604090205481565b6104cb61089a3660046147ff565b611841565b600754610536906001600160a01b031681565b6105216108c0366004614772565b611a13565b6105216108d33660046145b5565b611a7e565b6104a57fdf8b4c520ffe197c5343c6f5aec59570151ef9a492f2c624fd45ddde6135ec4281565b6104a561090d3660046145d2565b601260209081526000928352604080842090915290825290205481565b6104cb61093836600461455b565b611be0565b61052161094b366004614772565b611c9e565b6104cb61095e366004614845565b611cf7565b6104a561097136600461455b565b63ffffffff166000908152600d602052604090205490565b61099c61099736600461455b565b611f9c565b6040516104af919081516001600160a01b039081168252602080840151821690830152604080840151821690830152606092830151169181019190915260800190565b6109f26109ed3660046145d2565b612047565b6040805193845263ffffffff92831660208501529116908201526060016104af565b610536610a2236600461455b565b612184565b6104a5610a3536600461455b565b612334565b6104a5610a483660046145d2565b63ffffffff821660009081526013602090815260408083206001600160a01b038516845290915290205492915050565b6104cb610a86366004614661565b6000918252602082815260408084206001600160a01b0393909316845291905290205460ff1690565b6104a5610abd3660046145d2565b6123a7565b6106cb610ad0366004614622565b612467565b610521610ae3366004614772565b6124a9565b610b25610af63660046145d2565b600f60209081526000928352604080842090915290825290208054600182015460029092015490919060ff1683565b6040805193845260208401929092521515908201526060016104af565b6104a5610b503660046145b5565b60156020526000908152604090205481565b6104a5600081565b610536610b783660046145b5565b612533565b610536610b8b3660046145b5565b6125a5565b610521610b9e36600461455b565b612602565b610bb6610bb13660046145d2565b612a17565b604080519384526020840192909252908201526060016104af565b610536610bdf366004614609565b6002602052600090815260409020546001600160a01b031681565b6104a5612a72565b6104a5610c1036600461455b565b60146020526000908152604090205481565b6006546105369061010090046001600160a01b031681565b6104a5610c48366004614772565b612abc565b600954610536906001600160a01b031681565b610521610c6e366004614661565b612b0f565b6104cb610c813660046148e5565b612b34565b6104a5610c94366004614609565b612c7a565b610536610ca7366004614609565b612c9b565b6104a5610cba36600461498b565b612cc5565b6106cb610ccd366004614609565b612d78565b63ffffffff81166000908152601660205260408082209051610cf491906149dd565b60405180910390209050919050565b60006001600160e01b03198216637965db0b60e01b1480610d3457506301ffc9a760e01b6001600160e01b03198316145b92915050565b63ffffffff8116600090815260166020526040808220905163186ca86f60e21b81528291829173__$35081dc60fc26376aafbbba403b8b17c43$__916361b2a1bc91610d899190600401614a53565b608060405180830381865af4158015610da6573d6000803e3d6000fd5b505050506040513d601f19601f82011682018060405250810190610dca9190614ade565b9050806020015181604001519250925050915091565b63ffffffff811660009081526012602090815260408083203380855292529091205490610e11908390836001612d8f565b610e515760405162461bcd60e51b815260206004820152600c60248201526b534c5f455f52455354414b4560a01b60448201526064015b60405180910390fd5b5050565b610e5e3361109f565b610eb55760405162461bcd60e51b815260206004820152602260248201527f41636365737369626c653a2043616c6c6572206973206e6f7420616e2061646d60448201526134b760f11b6064820152608401610e48565b610edf7fdf8b4c520ffe197c5343c6f5aec59570151ef9a492f2c624fd45ddde6135ec4282611198565b50565b610f08604051806060016040528060008152602001600081526020016000151581525090565b5063ffffffff9091166000908152600f602090815260408083206001600160a01b039094168352928152908290208251606081018452815481526001820154928101929092526002015460ff1615159181019190915290565b63ffffffff80831660008181526011602090815260408083206001600160a01b038716808552908352818420549484526012835281842090845290915281205490929091839182919084165b818110156110945763ffffffff881660009081526011602090815260408083206001600160a01b038b1684529091528120805483908110610ff057610ff0614b63565b6000918252602080832060408051606081018252939091015463ffffffff8116845264010000000081046001600160801b031692840192909252600160a01b90910460ff1615159082018190529092509003611081578363ffffffff1660000361105957805193505b6020810151611071906001600160801b031688614b8f565b965061107e600186614ba2565b94505b508061108c81614bc6565b915050610fad565b505092959194509250565b6001600160a01b03811660009081527f5cbfc8ee58ca47855df7bcf648dd304ddb6b932f9b87878bdf6318d7ec7ee5b7602052604081205460ff16610d34565b6007546000906001600160a01b0316638df40b2c6110fe8686866116b4565b846040518363ffffffff1660e01b8152600401611125929190918252602082015260400190565b602060405180830381865afa158015611142573d6000803e3d6000fd5b505050506040513d601f19601f820116820180604052508101906111669190614bdf565b949350505050565b60008281526020819052604090206001015461118981613246565b6111938383613250565b505050565b6001600160a01b03811633146112165760405162461bcd60e51b815260206004820152602f60248201527f416363657373436f6e74726f6c3a2063616e206f6e6c792072656e6f756e636560448201527f20726f6c657320666f722073656c6600000000000000000000000000000000006064820152608401610e48565b610e5182826132ee565b60008061122c83611f9c565b905061123b8160000151612533565b60065460608301516040516347b00fb360e11b81526001600160a01b03610100909304831660048201529082166024820152911690638f601f6690604401602060405180830381865afa9250505080156112b2575060408051601f3d908101601f191682019092526112af91810190614bdf565b60015b6112f0573d8080156112e0576040519150601f19603f3d011682016040523d82523d6000602084013e6112e5565b606091505b5060009250506112f3565b91505b50919050565b60065460009061010090046001600160a01b031633146113405760405162461bcd60e51b8152602060048201526002602482015261454160f01b6044820152606401610e48565b611387610938600085858080601f016020809104026020016040519081016040528093929190818152602001838380828437600092019190915250929392505061336d9050565b6113ca5760405162461bcd60e51b81526020600482015260146024820152733737b716b932b3b4b9ba32b932b2103630bcb2b960611b6044820152606401610e48565b6000611410600085858080601f016020809104026020016040519081016040528093929190818152602001838380828437600092019190915250929392505061336d9050565b90508415611435576006546114359061010090046001600160a01b031688308861342d565b611443818887600080613551565b5060019695505050505050565b606060178054806020026020016040519081016040528092919081815260200182805480156114a857602002820191906000526020600020905b81546001600160a01b0316815260019091019060200180831161148a575b5050505050905090565b63ffffffff82166000908152600e6020526040812081906114d490849061394f565b915091505b9250929050565b60075460408051632a1cd6c360e11b815290516000926001600160a01b031691635439ad869160048083019260209291908290030181865afa15801561152a573d6000803e3d6000fd5b505050506040513d601f19601f8201168201806040525081019061154e9190614bdf565b905090565b60405163bf40fac160e01b815260206004820152600d60248201526c27ab26afa9b2b8bab2b731b2b960991b60448201526000906001600160a01b0383169063bf40fac1906064015b602060405180830381865afa9250505080156115d5575060408051601f3d908101601f191682019092526115d291810190614bf8565b60015b611612573d808015611603576040519150601f19603f3d011682016040523d82523d6000602084013e611608565b606091505b5060009392505050565b90505b919050565b60166020526000908152604090208054611633906149a9565b80601f016020809104026020016040519081016040528092919081815260200182805461165f906149a9565b80156116ac5780601f10611681576101008083540402835291602001916116ac565b820191906000526020600020905b81548152906001019060200180831161168f57829003601f168201915b505050505081565b63ffffffff831660009081526010602090815260408083206001600160a01b03861684529091528120819081906116ec90859061394f565b915091508161174c5763ffffffff86166000908152600f602090815260408083206001600160a01b0389168452825291829020825160608101845281548152600182015492810183905260029091015460ff16151592019190915261174e565b805b9695505050505050565b6011602052826000526040600020602052816000526040600020818154811061178057600080fd5b60009182526020909120015463ffffffff8116935064010000000081046001600160801b03169250600160a01b900460ff16905083565b6117c03361109f565b6118175760405162461bcd60e51b815260206004820152602260248201527f41636365737369626c653a2043616c6c6572206973206e6f7420616e2061646d60448201526134b760f11b6064820152608401610e48565b610edf7fdf8b4c520ffe197c5343c6f5aec59570151ef9a492f2c624fd45ddde6135ec428261116e565b6009546000906001600160a01b0316331461188e5760405162461bcd60e51b815260206004820152600d60248201526c232bafa1a0a62622a92fa2a92960991b6044820152606401610e48565b6118988484613a72565b600754604051636a2fb1f560e01b8152600481018490526000916001600160a01b031690636a2fb1f590602401602060405180830381865afa1580156118e2573d6000803e3d6000fd5b505050506040513d601f19601f820116820180604052508101906119069190614bdf565b63ffffffff86166000908152600d6020526040812080549293508392909190611930908490614b8f565b9250508190555080600a60008282546119499190614b8f565b909155505063ffffffff85166000908152600f602090815260408083206001600160a01b0388168452909152812080549091859183919061198b908490614b8f565b92505081905550818160010160008282546119a69190614b8f565b90915550506040805188815263ffffffff881660208201526001600160a01b03871681830152606081018690526080810184905290517f8cf204c07a4ce065cdd0c90963672bd384e5479ada88179bca8eb6075c02731f9181900360a00190a15060019695505050505050565b63ffffffff821660009081526012602090815260408083203380855292529091205490611a439084908385612d8f565b6111935760405162461bcd60e51b815260206004820152600c60248201526b534c5f455f52455354414b4560a01b6044820152606401610e48565b611a873361109f565b611ade5760405162461bcd60e51b815260206004820152602260248201527f41636365737369626c653a2043616c6c6572206973206e6f7420616e2061646d60448201526134b760f11b6064820152608401610e48565b6001600160a01b038116611b345760405162461bcd60e51b815260206004820152601860248201527f41636365737369626c653a207a65726f206164647265737300000000000000006044820152606401610e48565b6001600160a01b0381163303611b8c5760405162461bcd60e51b815260206004820152601660248201527f41636365737369626c653a2073616d652061646d696e000000000000000000006044820152606401610e48565b611bb67fdf8b4c520ffe197c5343c6f5aec59570151ef9a492f2c624fd45ddde6135ec428261116e565b610edf7fdf8b4c520ffe197c5343c6f5aec59570151ef9a492f2c624fd45ddde6135ec4233611198565b60085460405163370f791d60e11b815263ffffffff831660048201526000916001600160a01b031690636e1ef23a90602401602060405180830381865afa158015611c2f573d6000803e3d6000fd5b505050506040513d601f19601f82011682018060405250810190611c539190614c15565b611c965760405162461bcd60e51b81526020600482015260146024820152733737b716b932b3b4b9ba32b932b2103630bcb2b960611b6044820152606401610e48565b506001919050565b611ca782611be0565b611cea5760405162461bcd60e51b81526020600482015260146024820152733737b716b932b3b4b9ba32b932b2103630bcb2b960611b6044820152606401610e48565b610e518282600080613b20565b60065460009060ff16611d355760405162461bcd60e51b8152600401610e48906020808252600490820152636c6f636b60e01b604082015260600190565b6006805460ff191690556009546001600160a01b03163314611d895760405162461bcd60e51b815260206004820152600d60248201526c232bafa1a0a62622a92fa2a92960991b6044820152606401610e48565b81611d9486866123a7565b1015611de25760405162461bcd60e51b815260206004820152601960248201527f6c697175696469747920697320696e73756666696369656e74000000000000006044820152606401610e48565b611dec8585613a72565b6006546040516370a0823160e01b815230600482015260009161010090046001600160a01b0316906370a0823190602401602060405180830381865afa158015611e3a573d6000803e3d6000fd5b505050506040513d601f19601f82011682018060405250810190611e5e9190614bdf565b905082811015611f09578015611e8a57600654611e8a9061010090046001600160a01b03168583613b50565b6007546001600160a01b031663aad3ec9685611ea68487614c37565b6040516001600160e01b031960e085901b1681526001600160a01b0390921660048301526024820152604401600060405180830381600087803b158015611eec57600080fd5b505af1158015611f00573d6000803e3d6000fd5b50505050611f25565b600654611f259061010090046001600160a01b03168585613b50565b6040805188815263ffffffff881660208201526001600160a01b0387811682840152861660608201526080810185905290517f77fbf71434da34ef2aa8382e2b751b6b2de7bd18d96a07ff7f4dae7dae9237619181900360a00190a160019150506006805460ff1916600117905595945050505050565b60408051608081018252600080825260208083018290528284018290526060830182905263ffffffff8516825260169052829020915163186ca86f60e21b8152909173__$35081dc60fc26376aafbbba403b8b17c43$__916361b2a1bc9161200691600401614a53565b608060405180830381865af4158015612023573d6000803e3d6000fd5b505050506040513d601f19601f82011682018060405250810190610d349190614ade565b63ffffffff80831660008181526011602090815260408083206001600160a01b038716808552908352818420549484526012835281842090845290915281205490929091839183165b8181101561217b5763ffffffff871660009081526011602090815260408083206001600160a01b038a16845290915281208054839081106120d3576120d3614b63565b600091825260209182902060408051606081018252929091015463ffffffff811680845264010000000082046001600160801b031694840194909452600160a01b900460ff1615159082015291504311801561213157506040810151155b1561216257602081015161214e906001600160801b031687614b8f565b955061215b600185614ba2565b9350612168565b5061217b565b508061217381614bc6565b915050612090565b50509250925092565b63ffffffff811660009081526016602052604080822090516379a0c08760e11b8152829173__$35081dc60fc26376aafbbba403b8b17c43$__9163f341810e916121d091600401614a53565b602060405180830381865af41580156121ed573d6000803e3d6000fd5b505050506040513d601f19601f820116820180604052508101906122119190614bf8565b90506001600160a01b03811661222a5750600092915050565b63ffffffff83166000908152601660205260409081902090516379a0c08760e11b815273__$35081dc60fc26376aafbbba403b8b17c43$__9163f341810e916122769190600401614a53565b602060405180830381865af4158015612293573d6000803e3d6000fd5b505050506040513d601f19601f820116820180604052508101906122b79190614bf8565b60405163bf40fac160e01b815260206004820152600d60248201526c27ab26afa9b2b8bab2b731b2b960991b60448201526001600160a01b03919091169063bf40fac190606401602060405180830381865afa9250505080156112b2575060408051601f3d908101601f191682019092526112af91810190614bf8565b6008546040516346ccf0e560e11b815263ffffffff831660048201526000916001600160a01b031690638d99e1ca90602401602060405180830381865afa158015612383573d6000803e3d6000fd5b505050506040513d601f19601f82011682018060405250810190610d349190614bdf565b60075463ffffffff83166000908152600f602090815260408083206001600160a01b038681168552908352818420825160608101845281548152600182015494810185905260029091015460ff16151590830152905163cdf6800960e01b815260048101929092529192919091169063cdf6800990602401602060405180830381865afa15801561243c573d6000803e3d6000fd5b505050506040513d601f19601f820116820180604052508101906124609190614bdf565b9392505050565b63ffffffff831660009081526010602090815260408083206001600160a01b03861684529091528120819061249d90849061394f565b91509150935093915050565b600954604051630265991f60e61b81526000600482015263ffffffff84166024820152336044820152610e5191849184916001600160a01b03169063996647c090606401602060405180830381865afa15801561250a573d6000803e3d6000fd5b505050506040513d601f19601f8201168201806040525081019061252e9190614bdf565b613c6b565b60006001600160a01b03821661254b57506000919050565b60405163bf40fac160e01b815260206004820152601b60248201527f50726f78795f5f4f564d5f4c315374616e64617264427269646765000000000060448201526001600160a01b0383169063bf40fac19060640161159c565b60405163bf40fac160e01b815260206004820152601a60248201527f4f564d5f4c3143726f7373446f6d61696e4d657373656e67657200000000000060448201526000906001600160a01b0383169063bf40fac19060640161159c565b60065460ff1661263d5760405162461bcd60e51b8152600401610e48906020808252600490820152636c6f636b60e01b604082015260600190565b6006805460ff1916905563ffffffff811660008181526011602090815260408083203380855290835281842054948452601283528184208185529092528220549092919081905b838110156127565763ffffffff861660009081526011602090815260408083206001600160a01b038916845290915281208054839081106126c7576126c7614b63565b600091825260209091200180549091504363ffffffff9091161080156126f657508054600160a01b900460ff16155b1561273d57805460ff60a01b1916600160a01b17808255612729906001600160801b036401000000009091041684614b8f565b92508361273581614bc6565b945050612743565b50612756565b508061274e81614bc6565b915050612684565b50600081116127a75760405162461bcd60e51b815260206004820181905260248201527f7a65726f20617661696c61626c65207769746864726177616c20616d6f756e746044820152606401610e48565b63ffffffff851660009081526012602090815260408083206001600160a01b0388168452909152812080548492906127e0908490614b8f565b909155505063ffffffff851660009081526013602090815260408083206001600160a01b03881684529091528120805483929061281e908490614c37565b909155505063ffffffff851660009081526014602052604081208054839290612848908490614c37565b90915550506001600160a01b03841660009081526015602052604081208054839290612875908490614c37565b90915550506006546040516370a0823160e01b815230600482015260009161010090046001600160a01b0316906370a0823190602401602060405180830381865afa1580156128c8573d6000803e3d6000fd5b505050506040513d601f19601f820116820180604052508101906128ec9190614bdf565b905081811015612997578015612918576006546129189061010090046001600160a01b03168683613b50565b6007546001600160a01b031663aad3ec96866129348486614c37565b6040516001600160e01b031960e085901b1681526001600160a01b0390921660048301526024820152604401600060405180830381600087803b15801561297a57600080fd5b505af115801561298e573d6000803e3d6000fd5b505050506129b3565b6006546129b39061010090046001600160a01b03168684613b50565b6040805163ffffffff881681526001600160a01b03871660208201529081018390527f2d6eb139d2002caa088da5527d9d62f2f23bdf4504f5559a112535c436c6ee599060600160405180910390a150506006805460ff1916600117905550505050565b63ffffffff821660008181526011602090815260408083206001600160a01b038616808552908352818420549484526012835281842090845290915281205490818310612a6b57612a688284614c37565b90505b9250925092565b6008546040805163b969fbef60e01b815290516000926001600160a01b03169163b969fbef9160048083019260209291908290030181865afa15801561152a573d6000803e3d6000fd5b63ffffffff82166000908152600e6020526040812081908190612ae090859061394f565b9150915081612b045763ffffffff85166000908152600d6020526040902054612b06565b805b95945050505050565b600082815260208190526040902060010154612b2a81613246565b61119383836132ee565b6008546000906001600160a01b03163314612b915760405162461bcd60e51b815260206004820152601160248201527f6e6f74204c61796572324d616e616765720000000000000000000000000000006044820152606401610e48565b8151605014612be25760405162461bcd60e51b815260206004820152600f60248201527f77726f6e67206c61796572496e666f00000000000000000000000000000000006044820152606401610e48565b63ffffffff831660009081526016602052604090208054612c02906149a9565b159050612c515760405162461bcd60e51b815260206004820152600f60248201527f616c7265616479206372656174656400000000000000000000000000000000006044820152606401610e48565b63ffffffff83166000908152601660205260409020612c708382614c90565b5060019392505050565b6000806000612c8a84600b61394f565b91509150816112f057600a54611166565b60178181548110612cab57600080fd5b6000918252602090912001546001600160a01b0316905081565b6006546040516347b00fb360e11b81526001600160a01b03610100909204821660048201528282166024820152600091841690638f601f6690604401602060405180830381865afa925050508015612d3a575060408051601f3d908101601f19168201909252612d3791810190614bdf565b60015b612460573d808015612d68576040519150601f19603f3d011682016040523d82523d6000602084013e612d6d565b606091505b506000915050610d34565b600080612d8683600b61394f565b91509150915091565b60065460009060ff16612dcd5760405162461bcd60e51b8152600401610e48906020808252600490820152636c6f636b60e01b604082015260600190565b6006805460ff19169055612de18585613a72565b63ffffffff851660009081526011602090815260408083206001600160a01b038816845290915281205480612e455760405162461bcd60e51b815260206004820152600a6024820152696e6f20756e7374616b6560b01b6044820152606401610e48565b83612e508683614c37565b1015612e9e5760405162461bcd60e51b815260206004820152601860248201527f6e2065786365656473206e756d206f662070656e64696e6700000000000000006044820152606401610e48565b6000612eaa8587614b8f565b90505b80861015612fa05763ffffffff881660009081526011602090815260408083206001600160a01b038b1684529091528120805488908110612ef057612ef0614b63565b6000918252602090912001805490915064010000000081046001600160801b031690600160a01b900460ff1615612f695760405162461bcd60e51b815260206004820152601260248201527f616c7265616479207769746864726177616c00000000000000000000000000006044820152606401610e48565b8015612f7c57612f798186614b8f565b94505b50805460ff60a01b1916600160a01b17905585612f9881614bc6565b965050612ead565b60008311612ff05760405162461bcd60e51b815260206004820152601760248201527f6e6f2076616c69642072657374616b6520616d6f756e740000000000000000006044820152606401610e48565b600754604051636a2fb1f560e01b8152600481018590526000916001600160a01b031690636a2fb1f590602401602060405180830381865afa15801561303a573d6000803e3d6000fd5b505050506040513d601f19601f8201168201806040525081019061305e9190614bdf565b63ffffffff8a166000908152600f602090815260408083206001600160a01b038d16845290915281208054929350918691839161309c908490614b8f565b92505081905550818160010160008282546130b79190614b8f565b909155505063ffffffff8a166000908152600d6020526040812080548492906130e1908490614b8f565b9250508190555081600a60008282546130fa9190614b8f565b909155505063ffffffff8a1660009081526013602090815260408083206001600160a01b038d16845290915281208054879290613138908490614c37565b909155505063ffffffff8a1660009081526014602052604081208054879290613162908490614c37565b90915550506001600160a01b0389166000908152601560205260408120805487929061318f908490614c37565b909155505063ffffffff8a1660009081526012602090815260408083206001600160a01b038d168452909152812080548992906131cd908490614b8f565b90915550506040805163ffffffff8c1681526001600160a01b038b166020820152908101869052606081018390527f34981dc0486069d2abbaddbc42e10b97cb24e4bce60ee4457e1d5062dfc0b4299060800160405180910390a16001955050505050506006805460ff19166001179055949350505050565b610edf813361416f565b6000828152602081815260408083206001600160a01b038516845290915290205460ff16610e51576000828152602081815260408083206001600160a01b03851684529091529020805460ff191660011790556132aa3390565b6001600160a01b0316816001600160a01b0316837f2f8788117e7eff1d82e926ec794901d17c78024a50270940304540a733656f0d60405160405180910390a45050565b6000828152602081815260408083206001600160a01b038516845290915290205460ff1615610e51576000828152602081815260408083206001600160a01b0385168085529252808320805460ff1916905551339285917ff6391f5c32d9c69d2a47ea670b442974b53935d1edc7fd64eb21e047a839171b9190a45050565b60008161337b816004614b8f565b10156133c95760405162461bcd60e51b815260206004820152601160248201527f746f55696e7433325f6f766572666c6f770000000000000000000000000000006044820152606401610e48565b6133d4826004614b8f565b835110156134245760405162461bcd60e51b815260206004820152601460248201527f746f55696e7433325f6f75744f66426f756e64730000000000000000000000006044820152606401610e48565b50016004015190565b604080516001600160a01b0385811660248301528481166044830152606480830185905283518084039091018152608490920183526020820180516001600160e01b03166323b872dd60e01b17905291516000928392908816916134919190614d50565b6000604051808303816000865af19150503d80600081146134ce576040519150601f19603f3d011682016040523d82523d6000602084013e6134d3565b606091505b50915091508180156134fd5750805115806134fd5750808060200190518101906134fd9190614c15565b6135495760405162461bcd60e51b815260206004820152601460248201527f5452414e534645525f46524f4d5f4641494c45440000000000000000000000006044820152606401610e48565b505050505050565b60065460ff1661358c5760405162461bcd60e51b8152600401610e48906020808252600490820152636c6f636b60e01b604082015260600190565b6006805460ff191690558260008190036135cd5760405162461bcd60e51b81526020600482015260026024820152615a3160f01b6044820152606401610e48565b6135d78686613a72565b600754604051636a2fb1f560e01b8152600481018690526000916001600160a01b031690636a2fb1f590602401602060405180830381865afa158015613621573d6000803e3d6000fd5b505050506040513d601f19601f820116820180604052508101906136459190614bdf565b63ffffffff88166000908152600d602052604081208054929350839290919061366f908490614b8f565b9250508190555080600a60008282546136889190614b8f565b909155505063ffffffff87166000908152600f602090815260408083206001600160a01b038a1684529091529020600281015460ff1661372a57600281018054600160ff1990911681179091556017805491820181556000527fc624b66cc0138b8fabc209247f72d758e1cf3343756d543badbf24212bed8c1501805473ffffffffffffffffffffffffffffffffffffffff19166001600160a01b0389161790555b600061ffff85161580159061374757506001600160a01b03861615155b801561375857506127108561ffff16105b1561389b5761271061376e61ffff871685614d6c565b6137789190614d83565b90506137848184614c37565b60075460405163cdf6800960e01b8152600481018390529194506000916001600160a01b039091169063cdf6800990602401602060405180830381865afa1580156137d3573d6000803e3d6000fd5b505050506040513d601f19601f820116820180604052508101906137f79190614bdf565b90508083600001600082825461380d9190614b8f565b92505081905550838360010160008282546138289190614b8f565b909155505063ffffffff8a166000908152600f602090815260408083206001600160a01b038b1684529091529020613860828a614c37565b8160000160008282546138739190614b8f565b925050819055508281600101600082825461388e9190614b8f565b909155506138d092505050565b868260000160008282546138af9190614b8f565b92505081905550828260010160008282546138ca9190614b8f565b90915550505b6040805163ffffffff8b1681526001600160a01b038a811660208301528183018a9052606082018690528816608082015261ffff871660a082015290517f318dab784577ac2e7d86f88c3f2a80520b447b822b8a756158648e0f917d16a09181900360c00190a150506006805460ff1916600117905550505050505050565b60008061395a6114e0565b8411156139a95760405162461bcd60e51b815260206004820152601860248201527f536e617073686f743a206e6f6e6578697374656e7420696400000000000000006044820152606401610e48565b8254158015906139e25750825483906139c490600190614c37565b815481106139d4576139d4614b63565b906000526020600020015484115b15613a205782546000906001808601916139fc9190614c37565b81548110613a0c57613a0c614b63565b9060005260206000200154915091506114d9565b6000613a2c84866141e2565b84549091508110613a445760008092509250506114d9565b6001846001018281548110613a5b57613a5b614b63565b906000526020600020015492509250509250929050565b613a85600b613a80600a5490565b6142f2565b63ffffffff82166000908152600e60209081526040808320600d90925290912054613ab091906142f2565b63ffffffff821660008181526010602090815260408083206001600160a01b038616808552908352818420948452600f8352818420908452825291829020825160608101845281548152600182015492810183905260029091015460ff161515920191909152610e5191906142f2565b600654613b3d9061010090046001600160a01b031633308661342d565b613b4a8433858585613551565b50505050565b604080516001600160a01b038481166024830152604480830185905283518084039091018152606490920183526020820180516001600160e01b031663a9059cbb60e01b1790529151600092839290871691613bac9190614d50565b6000604051808303816000865af19150503d8060008114613be9576040519150601f19603f3d011682016040523d82523d6000602084013e613bee565b606091505b5091509150818015613c18575080511580613c18575080806020019051810190613c189190614c15565b613c645760405162461bcd60e51b815260206004820152600f60248201527f5452414e534645525f4641494c454400000000000000000000000000000000006044820152606401610e48565b5050505050565b60065460ff16613ca65760405162461bcd60e51b8152600401610e48906020808252600490820152636c6f636b60e01b604082015260600190565b6006805460ff19169055816000819003613ce75760405162461bcd60e51b81526020600482015260026024820152615a3160f01b6044820152606401610e48565b33613cf28582613a72565b60075460405163cdf6800960e01b8152600481018690526000916001600160a01b03169063cdf6800990602401602060405180830381865afa158015613d3c573d6000803e3d6000fd5b505050506040513d601f19601f82011682018060405250810190613d609190614bdf565b63ffffffff87166000908152600f602090815260408083206001600160a01b038716845290915290209091508415613e61576001810154600754604051636a2fb1f560e01b8152600481018890526001600160a01b0390911690636a2fb1f590602401602060405180830381865afa158015613de0573d6000803e3d6000fd5b505050506040513d601f19601f82011682018060405250810190613e049190614bdf565b613e0e9088614b8f565b1115613e5c5760405162461bcd60e51b815260206004820152600d60248201527f756e7374616b655f6572725f31000000000000000000000000000000000000006044820152606401610e48565b613eb5565b8060010154861115613eb55760405162461bcd60e51b815260206004820152600d60248201527f756e7374616b655f6572725f32000000000000000000000000000000000000006044820152606401610e48565b85816001016000828254613ec99190614c37565b90915550508054821115613ee05760008155613efa565b81816000016000828254613ef49190614c37565b90915550505b63ffffffff87166000908152600d602052604081208054889290613f1f908490614c37565b9250508190555085600a6000828254613f389190614c37565b909155505060085460408051636577b27360e11b815290516000926001600160a01b03169163caef64e69160048083019260209291908290030181865afa158015613f87573d6000803e3d6000fd5b505050506040513d601f19601f82011682018060405250810190613fab9190614bdf565b63ffffffff891660009081526011602090815260408083206001600160a01b03891684529091529081902081516060810190925291925080613fed8443614b8f565b63ffffffff90811682526001600160801b0380881660208085019190915260006040948501819052865460018101885596815281812086519701805487840151978701511515600160a01b0260ff60a01b19989095166401000000000273ffffffffffffffffffffffffffffffffffffffff19909116988616989098179790971795909516919091179094558b168252601383528082206001600160a01b038816835290925290812080548592906140a6908490614b8f565b909155505063ffffffff8816600090815260146020526040812080548592906140d0908490614b8f565b90915550506001600160a01b038416600090815260156020526040812080548592906140fd908490614b8f565b90915550506040805163ffffffff8a1681526001600160a01b0386166020820152908101849052606081018890527f869a01319d83bb921803a22e3e95d0cb8b08e708d3fb144e2c25a563bf8650d39060800160405180910390a150506006805460ff19166001179055505050505050565b6000828152602081815260408083206001600160a01b038516845290915290205460ff16610e51576141a081614347565b6141ab836020614359565b6040516020016141bc929190614da5565b60408051601f198184030181529082905262461bcd60e51b8252610e48916004016147ec565b815460009081036141f557506000610d34565b8254839061420590600190614c37565b8154811061421557614215614b63565b9060005260206000200154821061423b57825461423490600190614c37565b9050610d34565b8260008154811061424e5761424e614b63565b906000526020600020015482101561426857506000610d34565b8254600090819061427b90600190614c37565b90505b818111156142ea57600060026142948484614b8f565b61429f906001614b8f565b6142a99190614d83565b9050848682815481106142be576142be614b63565b9060005260206000200154116142d6578092506142e4565b6142e1600182614c37565b91505b5061427e565b509392505050565b60006142fc6114e0565b8354909150158061431457508061431284614502565b105b15611193578254600180820185556000858152602080822090930193909355938401805494850181558252902090910155565b6060610d346001600160a01b03831660145b60606000614368836002614d6c565b614373906002614b8f565b67ffffffffffffffff81111561438b5761438b61489e565b6040519080825280601f01601f1916602001820160405280156143b5576020820181803683370190505b509050600360fc1b816000815181106143d0576143d0614b63565b60200101906001600160f81b031916908160001a905350600f60fb1b816001815181106143ff576143ff614b63565b60200101906001600160f81b031916908160001a9053506000614423846002614d6c565b61442e906001614b8f565b90505b60018111156144b3577f303132333435363738396162636465660000000000000000000000000000000085600f166010811061446f5761446f614b63565b1a60f81b82828151811061448557614485614b63565b60200101906001600160f81b031916908160001a90535060049490941c936144ac81614e26565b9050614431565b5083156124605760405162461bcd60e51b815260206004820181905260248201527f537472696e67733a20686578206c656e67746820696e73756666696369656e746044820152606401610e48565b8054600090810361451557506000919050565b8154829061452590600190614c37565b8154811061453557614535614b63565b90600052602060002001549050919050565b803563ffffffff8116811461161557600080fd5b60006020828403121561456d57600080fd5b61246082614547565b60006020828403121561458857600080fd5b81356001600160e01b03198116811461246057600080fd5b6001600160a01b0381168114610edf57600080fd5b6000602082840312156145c757600080fd5b8135612460816145a0565b600080604083850312156145e557600080fd5b6145ee83614547565b915060208301356145fe816145a0565b809150509250929050565b60006020828403121561461b57600080fd5b5035919050565b60008060006060848603121561463757600080fd5b61464084614547565b92506020840135614650816145a0565b929592945050506040919091013590565b6000806040838503121561467457600080fd5b8235915060208301356145fe816145a0565b60008060008060006080868803121561469e57600080fd5b85356146a9816145a0565b945060208601356146b9816145a0565b935060408601359250606086013567ffffffffffffffff808211156146dd57600080fd5b818801915088601f8301126146f157600080fd5b81358181111561470057600080fd5b89602082850101111561471257600080fd5b9699959850939650602001949392505050565b6020808252825182820181905260009190848201906040850190845b818110156147665783516001600160a01b031683529284019291840191600101614741565b50909695505050505050565b6000806040838503121561478557600080fd5b61478e83614547565b946020939093013593505050565b60005b838110156147b757818101518382015260200161479f565b50506000910152565b600081518084526147d881602086016020860161479c565b601f01601f19169290920160200192915050565b60208152600061246060208301846147c0565b6000806000806080858703121561481557600080fd5b8435935061482560208601614547565b92506040850135614835816145a0565b9396929550929360600135925050565b600080600080600060a0868803121561485d57600080fd5b8535945061486d60208701614547565b9350604086013561487d816145a0565b9250606086013561488d816145a0565b949793965091946080013592915050565b634e487b7160e01b600052604160045260246000fd5b604051601f8201601f1916810167ffffffffffffffff811182821017156148dd576148dd61489e565b604052919050565b600080604083850312156148f857600080fd5b61490183614547565b915060208084013567ffffffffffffffff8082111561491f57600080fd5b818601915086601f83011261493357600080fd5b8135818111156149455761494561489e565b614957601f8201601f191685016148b4565b9150808252878482850101111561496d57600080fd5b80848401858401376000848284010152508093505050509250929050565b6000806040838503121561499e57600080fd5b82356145ee816145a0565b600181811c908216806149bd57607f821691505b6020821081036112f357634e487b7160e01b600052602260045260246000fd5b60008083546149eb816149a9565b60018281168015614a035760018114614a1857614a47565b60ff1984168752821515830287019450614a47565b8760005260208060002060005b85811015614a3e5781548a820152908401908201614a25565b50505082870194505b50929695505050505050565b6000602080835260008454614a67816149a9565b80848701526040600180841660008114614a885760018114614aa257614ad0565b60ff1985168984015283151560051b890183019550614ad0565b896000528660002060005b85811015614ac85781548b8201860152908301908801614aad565b8a0184019650505b509398975050505050505050565b600060808284031215614af057600080fd5b6040516080810181811067ffffffffffffffff82111715614b1357614b1361489e565b6040528251614b21816145a0565b81526020830151614b31816145a0565b60208201526040830151614b44816145a0565b60408201526060830151614b57816145a0565b60608201529392505050565b634e487b7160e01b600052603260045260246000fd5b634e487b7160e01b600052601160045260246000fd5b80820180821115610d3457610d34614b79565b63ffffffff818116838216019080821115614bbf57614bbf614b79565b5092915050565b600060018201614bd857614bd8614b79565b5060010190565b600060208284031215614bf157600080fd5b5051919050565b600060208284031215614c0a57600080fd5b8151612460816145a0565b600060208284031215614c2757600080fd5b8151801515811461246057600080fd5b81810381811115610d3457610d34614b79565b601f82111561119357600081815260208120601f850160051c81016020861015614c715750805b601f850160051c820191505b8181101561354957828155600101614c7d565b815167ffffffffffffffff811115614caa57614caa61489e565b614cbe81614cb884546149a9565b84614c4a565b602080601f831160018114614cf35760008415614cdb5750858301515b600019600386901b1c1916600185901b178555613549565b600085815260208120601f198616915b82811015614d2257888601518255948401946001909101908401614d03565b5085821015614d405787850151600019600388901b60f8161c191681555b5050505050600190811b01905550565b60008251614d6281846020870161479c565b9190910192915050565b8082028115828204841417610d3457610d34614b79565b600082614da057634e487b7160e01b600052601260045260246000fd5b500490565b7f416363657373436f6e74726f6c3a206163636f756e7420000000000000000000815260008351614ddd81601785016020880161479c565b7f206973206d697373696e6720726f6c65200000000000000000000000000000006017918401918201528351614e1a81602884016020880161479c565b01602801949350505050565b600081614e3557614e35614b79565b50600019019056fea164736f6c6343000812000a",
  "linkReferences": {
    "contracts/libraries/LibOptimism.sol": {
      "LibOptimism": [
        {
          "length": 20,
          "start": 3471
        },
        {
          "length": 20,
          "start": 8205
        },
        {
          "length": 20,
          "start": 8663
        },
        {
          "length": 20,
          "start": 8828
        }
      ]
    }
  },
  "deployedLinkReferences": {
    "contracts/libraries/LibOptimism.sol": {
      "LibOptimism": [
        {
          "length": 20,
          "start": 3426
        },
        {
          "length": 20,
          "start": 8160
        },
        {
          "length": 20,
          "start": 8618
        },
        {
          "length": 20,
          "start": 8783
        }
      ]
    }
  }
}