{
  "_format": "hh-sol-artifact-1",
  "contractName": "OptimismSequencer",
  "sourceName": "contracts/OptimismSequencer.sol",
  "abi": [
    {
      "inputs": [],
      "stateMutability": "nonpayable",
      "type": "constructor"
    },
    {
      "anonymous": false,
      "inputs": [
        {
          "indexed": false,
          "internalType": "uint32",
          "name": "layerIndex",
          "type": "uint32"
        },
        {
          "indexed": false,
          "internalType": "address",
          "name": "from",
          "type": "address"
        },
        {
          "indexed": false,
          "internalType": "address",
          "name": "to",
          "type": "address"
        },
        {
          "indexed": false,
          "internalType": "uint256",
          "name": "amount",
          "type": "uint256"
        }
      ],
      "name": "FastWithdrawalClaim",
      "type": "event"
    },
    {
      "anonymous": false,
      "inputs": [
        {
          "indexed": false,
          "internalType": "uint32",
          "name": "layerIndex",
          "type": "uint32"
        },
        {
          "indexed": false,
          "internalType": "address",
          "name": "staker",
          "type": "address"
        },
        {
          "indexed": false,
          "internalType": "uint256",
          "name": "amount",
          "type": "uint256"
        },
        {
          "indexed": false,
          "internalType": "uint256",
          "name": "lton",
          "type": "uint256"
        }
      ],
      "name": "FastWithdrawalStaked",
      "type": "event"
    },
    {
      "anonymous": false,
      "inputs": [
        {
          "indexed": false,
          "internalType": "uint32",
          "name": "_index",
          "type": "uint32"
        },
        {
          "indexed": false,
          "internalType": "address",
          "name": "sender",
          "type": "address"
        },
        {
          "indexed": false,
          "internalType": "uint256",
          "name": "amount",
          "type": "uint256"
        },
        {
          "indexed": false,
          "internalType": "uint256",
          "name": "lton",
          "type": "uint256"
        }
      ],
      "name": "Restaked",
      "type": "event"
    },
    {
      "anonymous": false,
      "inputs": [
        {
          "indexed": true,
          "internalType": "bytes32",
          "name": "role",
          "type": "bytes32"
        },
        {
          "indexed": true,
          "internalType": "bytes32",
          "name": "previousAdminRole",
          "type": "bytes32"
        },
        {
          "indexed": true,
          "internalType": "bytes32",
          "name": "newAdminRole",
          "type": "bytes32"
        }
      ],
      "name": "RoleAdminChanged",
      "type": "event"
    },
    {
      "anonymous": false,
      "inputs": [
        {
          "indexed": true,
          "internalType": "bytes32",
          "name": "role",
          "type": "bytes32"
        },
        {
          "indexed": true,
          "internalType": "address",
          "name": "account",
          "type": "address"
        },
        {
          "indexed": true,
          "internalType": "address",
          "name": "sender",
          "type": "address"
        }
      ],
      "name": "RoleGranted",
      "type": "event"
    },
    {
      "anonymous": false,
      "inputs": [
        {
          "indexed": true,
          "internalType": "bytes32",
          "name": "role",
          "type": "bytes32"
        },
        {
          "indexed": true,
          "internalType": "address",
          "name": "account",
          "type": "address"
        },
        {
          "indexed": true,
          "internalType": "address",
          "name": "sender",
          "type": "address"
        }
      ],
      "name": "RoleRevoked",
      "type": "event"
    },
    {
      "anonymous": false,
      "inputs": [
        {
          "indexed": false,
          "internalType": "uint32",
          "name": "_index",
          "type": "uint32"
        },
        {
          "indexed": false,
          "internalType": "address",
          "name": "sender",
          "type": "address"
        },
        {
          "indexed": false,
          "internalType": "uint256",
          "name": "amount",
          "type": "uint256"
        },
        {
          "indexed": false,
          "internalType": "uint256",
          "name": "lton",
          "type": "uint256"
        },
        {
          "indexed": false,
          "internalType": "address",
          "name": "commissionTo",
          "type": "address"
        },
        {
          "indexed": false,
          "internalType": "uint16",
          "name": "commission",
          "type": "uint16"
        }
      ],
      "name": "Staked",
      "type": "event"
    },
    {
      "anonymous": false,
      "inputs": [
        {
          "indexed": false,
          "internalType": "uint32",
          "name": "_index",
          "type": "uint32"
        },
        {
          "indexed": false,
          "internalType": "address",
          "name": "sender",
          "type": "address"
        },
        {
          "indexed": false,
          "internalType": "uint256",
          "name": "amount",
          "type": "uint256"
        },
        {
          "indexed": false,
          "internalType": "uint256",
          "name": "lton",
          "type": "uint256"
        }
      ],
      "name": "Unstaked",
      "type": "event"
    },
    {
      "anonymous": false,
      "inputs": [
        {
          "indexed": false,
          "internalType": "uint32",
          "name": "_index",
          "type": "uint32"
        },
        {
          "indexed": false,
          "internalType": "address",
          "name": "sender",
          "type": "address"
        },
        {
          "indexed": false,
          "internalType": "uint256",
          "name": "amount",
          "type": "uint256"
        }
      ],
      "name": "Withdrawal",
      "type": "event"
    },
    {
      "inputs": [],
      "name": "ADMIN_ROLE",
      "outputs": [
        {
          "internalType": "bytes32",
          "name": "",
          "type": "bytes32"
        }
      ],
      "stateMutability": "view",
      "type": "function"
    },
    {
      "inputs": [],
      "name": "DEFAULT_ADMIN_ROLE",
      "outputs": [
        {
          "internalType": "bytes32",
          "name": "",
          "type": "bytes32"
        }
      ],
      "stateMutability": "view",
      "type": "function"
    },
    {
      "inputs": [
        {
          "internalType": "address",
          "name": "addressManager",
          "type": "address"
        }
      ],
      "name": "L1CrossDomainMessenger",
      "outputs": [
        {
          "internalType": "address",
          "name": "account_",
          "type": "address"
        }
      ],
      "stateMutability": "view",
      "type": "function"
    },
    {
      "inputs": [
        {
          "internalType": "address",
          "name": "addressManager",
          "type": "address"
        }
      ],
      "name": "L1StandardBridge",
      "outputs": [
        {
          "internalType": "address",
          "name": "account_",
          "type": "address"
        }
      ],
      "stateMutability": "view",
      "type": "function"
    },
    {
      "inputs": [
        {
          "internalType": "uint32",
          "name": "_index",
          "type": "uint32"
        }
      ],
      "name": "L1StandardBridge",
      "outputs": [
        {
          "internalType": "address",
          "name": "",
          "type": "address"
        }
      ],
      "stateMutability": "view",
      "type": "function"
    },
    {
      "inputs": [],
      "name": "POLICY_ROLE",
      "outputs": [
        {
          "internalType": "bytes32",
          "name": "",
          "type": "bytes32"
        }
      ],
      "stateMutability": "view",
      "type": "function"
    },
    {
      "inputs": [
        {
          "internalType": "address",
          "name": "account",
          "type": "address"
        }
      ],
      "name": "addAdmin",
      "outputs": [],
      "stateMutability": "nonpayable",
      "type": "function"
    },
    {
      "inputs": [
        {
          "internalType": "address",
          "name": "",
          "type": "address"
        }
      ],
      "name": "aliveImplementation",
      "outputs": [
        {
          "internalType": "bool",
          "name": "",
          "type": "bool"
        }
      ],
      "stateMutability": "view",
      "type": "function"
    },
    {
      "inputs": [
        {
          "internalType": "uint32",
          "name": "layerIndex",
          "type": "uint32"
        },
        {
          "internalType": "address",
          "name": "account",
          "type": "address"
        }
      ],
      "name": "amountOfPendings",
      "outputs": [
        {
          "internalType": "uint256",
          "name": "amount",
          "type": "uint256"
        },
        {
          "internalType": "uint32",
          "name": "startIndex",
          "type": "uint32"
        },
        {
          "internalType": "uint32",
          "name": "len",
          "type": "uint32"
        },
        {
          "internalType": "uint32",
          "name": "nextWithdrawableBlockNumber",
          "type": "uint32"
        }
      ],
      "stateMutability": "view",
      "type": "function"
    },
    {
      "inputs": [
        {
          "internalType": "uint32",
          "name": "_index",
          "type": "uint32"
        },
        {
          "internalType": "address",
          "name": "account",
          "type": "address"
        }
      ],
      "name": "availableWithdraw",
      "outputs": [
        {
          "internalType": "uint256",
          "name": "amount",
          "type": "uint256"
        },
        {
          "internalType": "uint32",
          "name": "startIndex",
          "type": "uint32"
        },
        {
          "internalType": "uint32",
          "name": "len",
          "type": "uint32"
        }
      ],
      "stateMutability": "view",
      "type": "function"
    },
    {
      "inputs": [
        {
          "internalType": "uint32",
          "name": "_index",
          "type": "uint32"
        },
        {
          "internalType": "address",
          "name": "account",
          "type": "address"
        }
      ],
      "name": "balanceOf",
      "outputs": [
        {
          "internalType": "uint256",
          "name": "amount",
          "type": "uint256"
        }
      ],
      "stateMutability": "view",
      "type": "function"
    },
    {
      "inputs": [
        {
          "internalType": "uint32",
          "name": "_index",
          "type": "uint32"
        },
        {
          "internalType": "address",
          "name": "account",
          "type": "address"
        }
      ],
      "name": "balanceOfLton",
      "outputs": [
        {
          "internalType": "uint256",
          "name": "amount",
          "type": "uint256"
        }
      ],
      "stateMutability": "view",
      "type": "function"
    },
    {
      "inputs": [
        {
          "internalType": "uint32",
          "name": "_index",
          "type": "uint32"
        }
      ],
      "name": "balanceOfLton",
      "outputs": [
        {
          "internalType": "uint256",
          "name": "amount",
          "type": "uint256"
        }
      ],
      "stateMutability": "view",
      "type": "function"
    },
    {
      "inputs": [
        {
          "internalType": "uint32",
          "name": "_index",
          "type": "uint32"
        },
        {
          "internalType": "bytes",
          "name": "_layerInfo",
          "type": "bytes"
        }
      ],
      "name": "create",
      "outputs": [
        {
          "internalType": "bool",
          "name": "",
          "type": "bool"
        }
      ],
      "stateMutability": "nonpayable",
      "type": "function"
    },
    {
      "inputs": [
        {
          "internalType": "uint32",
          "name": "_index",
          "type": "uint32"
        }
      ],
      "name": "existedIndex",
      "outputs": [
        {
          "internalType": "bool",
          "name": "",
          "type": "bool"
        }
      ],
      "stateMutability": "view",
      "type": "function"
    },
    {
      "inputs": [
        {
          "internalType": "uint32",
          "name": "layerIndex",
          "type": "uint32"
        },
        {
          "internalType": "address",
          "name": "from",
          "type": "address"
        },
        {
          "internalType": "address",
          "name": "to",
          "type": "address"
        },
        {
          "internalType": "uint256",
          "name": "amount",
          "type": "uint256"
        }
      ],
      "name": "fastWithdrawClaim",
      "outputs": [
        {
          "internalType": "bool",
          "name": "",
          "type": "bool"
        }
      ],
      "stateMutability": "nonpayable",
      "type": "function"
    },
    {
      "inputs": [
        {
          "internalType": "uint32",
          "name": "layerIndex",
          "type": "uint32"
        },
        {
          "internalType": "address",
          "name": "staker",
          "type": "address"
        },
        {
          "internalType": "uint256",
          "name": "_amount",
          "type": "uint256"
        }
      ],
      "name": "fastWithdrawStake",
      "outputs": [
        {
          "internalType": "bool",
          "name": "",
          "type": "bool"
        }
      ],
      "stateMutability": "nonpayable",
      "type": "function"
    },
    {
      "inputs": [],
      "name": "fwReceipt",
      "outputs": [
        {
          "internalType": "address",
          "name": "",
          "type": "address"
        }
      ],
      "stateMutability": "view",
      "type": "function"
    },
    {
      "inputs": [
        {
          "internalType": "uint32",
          "name": "_index",
          "type": "uint32"
        }
      ],
      "name": "getLayerInfo",
      "outputs": [
        {
          "components": [
            {
              "internalType": "address",
              "name": "addressManager",
              "type": "address"
            },
            {
              "internalType": "address",
              "name": "l2ton",
              "type": "address"
            }
          ],
          "internalType": "struct LibOptimism.Info",
          "name": "_layerInfo",
          "type": "tuple"
        }
      ],
      "stateMutability": "view",
      "type": "function"
    },
    {
      "inputs": [
        {
          "internalType": "uint32",
          "name": "_index",
          "type": "uint32"
        }
      ],
      "name": "getLayerKey",
      "outputs": [
        {
          "internalType": "bytes32",
          "name": "layerKey_",
          "type": "bytes32"
        }
      ],
      "stateMutability": "view",
      "type": "function"
    },
    {
      "inputs": [
        {
          "internalType": "uint32",
          "name": "_index",
          "type": "uint32"
        },
        {
          "internalType": "address",
          "name": "account",
          "type": "address"
        }
      ],
      "name": "getLayerStakes",
      "outputs": [
        {
          "components": [
            {
              "internalType": "uint256",
              "name": "stakePrincipal",
              "type": "uint256"
            },
            {
              "internalType": "uint256",
              "name": "bondPrincipal",
              "type": "uint256"
            },
            {
              "internalType": "uint256",
              "name": "stakelton",
              "type": "uint256"
            },
            {
              "internalType": "uint256",
              "name": "bondlton",
              "type": "uint256"
            },
            {
              "internalType": "bool",
              "name": "stake",
              "type": "bool"
            },
            {
              "internalType": "uint16",
              "name": "fwFee",
              "type": "uint16"
            }
          ],
          "internalType": "struct LibStake.StakeInfo",
          "name": "info",
          "type": "tuple"
        }
      ],
      "stateMutability": "view",
      "type": "function"
    },
    {
      "inputs": [
        {
          "internalType": "uint32",
          "name": "_index",
          "type": "uint32"
        },
        {
          "internalType": "address",
          "name": "account",
          "type": "address"
        }
      ],
      "name": "getPendingUnstakedAmount",
      "outputs": [
        {
          "internalType": "uint256",
          "name": "",
          "type": "uint256"
        }
      ],
      "stateMutability": "view",
      "type": "function"
    },
    {
      "inputs": [
        {
          "internalType": "bytes32",
          "name": "role",
          "type": "bytes32"
        }
      ],
      "name": "getRoleAdmin",
      "outputs": [
        {
          "internalType": "bytes32",
          "name": "",
          "type": "bytes32"
        }
      ],
      "stateMutability": "view",
      "type": "function"
    },
    {
      "inputs": [],
      "name": "getStakeAccountList",
      "outputs": [
        {
          "internalType": "address[]",
          "name": "",
          "type": "address[]"
        }
      ],
      "stateMutability": "view",
      "type": "function"
    },
    {
      "inputs": [],
      "name": "getTotalLton",
      "outputs": [
        {
          "internalType": "uint256",
          "name": "",
          "type": "uint256"
        }
      ],
      "stateMutability": "view",
      "type": "function"
    },
    {
      "inputs": [
        {
          "internalType": "uint32",
          "name": "_index",
          "type": "uint32"
        }
      ],
      "name": "getTvl",
      "outputs": [
        {
          "internalType": "uint256",
          "name": "amount",
          "type": "uint256"
        }
      ],
      "stateMutability": "view",
      "type": "function"
    },
    {
      "inputs": [
        {
          "internalType": "address",
          "name": "l1Bridge",
          "type": "address"
        },
        {
          "internalType": "address",
          "name": "l2ton",
          "type": "address"
        }
      ],
      "name": "getTvl",
      "outputs": [
        {
          "internalType": "uint256",
          "name": "amount",
          "type": "uint256"
        }
      ],
      "stateMutability": "view",
      "type": "function"
    },
    {
      "inputs": [
        {
          "internalType": "bytes32",
          "name": "role",
          "type": "bytes32"
        },
        {
          "internalType": "address",
          "name": "account",
          "type": "address"
        }
      ],
      "name": "grantRole",
      "outputs": [],
      "stateMutability": "nonpayable",
      "type": "function"
    },
    {
      "inputs": [
        {
          "internalType": "bytes32",
          "name": "role",
          "type": "bytes32"
        },
        {
          "internalType": "address",
          "name": "account",
          "type": "address"
        }
      ],
      "name": "hasRole",
      "outputs": [
        {
          "internalType": "bool",
          "name": "",
          "type": "bool"
        }
      ],
      "stateMutability": "view",
      "type": "function"
    },
    {
      "inputs": [
        {
          "internalType": "address",
          "name": "account",
          "type": "address"
        }
      ],
      "name": "isAdmin",
      "outputs": [
        {
          "internalType": "bool",
          "name": "",
          "type": "bool"
        }
      ],
      "stateMutability": "view",
      "type": "function"
    },
    {
      "inputs": [
        {
          "internalType": "uint32",
          "name": "_index",
          "type": "uint32"
        }
      ],
      "name": "layer2Deposits",
      "outputs": [
        {
          "internalType": "uint256",
          "name": "amount",
          "type": "uint256"
        }
      ],
      "stateMutability": "view",
      "type": "function"
    },
    {
      "inputs": [],
      "name": "layer2Manager",
      "outputs": [
        {
          "internalType": "address",
          "name": "",
          "type": "address"
        }
      ],
      "stateMutability": "view",
      "type": "function"
    },
    {
      "inputs": [
        {
          "internalType": "uint32",
          "name": "",
          "type": "uint32"
        }
      ],
      "name": "layerInfo",
      "outputs": [
        {
          "internalType": "bytes",
          "name": "",
          "type": "bytes"
        }
      ],
      "stateMutability": "view",
      "type": "function"
    },
    {
      "inputs": [
        {
          "internalType": "uint32",
          "name": "",
          "type": "uint32"
        }
      ],
      "name": "layerStakedLton",
      "outputs": [
        {
          "internalType": "uint256",
          "name": "",
          "type": "uint256"
        }
      ],
      "stateMutability": "view",
      "type": "function"
    },
    {
      "inputs": [
        {
          "internalType": "uint32",
          "name": "",
          "type": "uint32"
        },
        {
          "internalType": "address",
          "name": "",
          "type": "address"
        }
      ],
      "name": "layerStakes",
      "outputs": [
        {
          "internalType": "uint256",
          "name": "stakePrincipal",
          "type": "uint256"
        },
        {
          "internalType": "uint256",
          "name": "bondPrincipal",
          "type": "uint256"
        },
        {
          "internalType": "uint256",
          "name": "stakelton",
          "type": "uint256"
        },
        {
          "internalType": "uint256",
          "name": "bondlton",
          "type": "uint256"
        },
        {
          "internalType": "bool",
          "name": "stake",
          "type": "bool"
        },
        {
          "internalType": "uint16",
          "name": "fwFee",
          "type": "uint16"
        }
      ],
      "stateMutability": "view",
      "type": "function"
    },
    {
      "inputs": [
        {
          "internalType": "uint32",
          "name": "layerIndex",
          "type": "uint32"
        },
        {
          "internalType": "address",
          "name": "account",
          "type": "address"
        }
      ],
      "name": "numberOfPendings",
      "outputs": [
        {
          "internalType": "uint256",
          "name": "totalRequests",
          "type": "uint256"
        },
        {
          "internalType": "uint256",
          "name": "withdrawIndex",
          "type": "uint256"
        },
        {
          "internalType": "uint256",
          "name": "pendingLength",
          "type": "uint256"
        }
      ],
      "stateMutability": "view",
      "type": "function"
    },
    {
      "inputs": [
        {
          "internalType": "address",
          "name": "sender",
          "type": "address"
        },
        {
          "internalType": "address",
          "name": "spender",
          "type": "address"
        },
        {
          "internalType": "uint256",
          "name": "amount",
          "type": "uint256"
        },
        {
          "internalType": "bytes",
          "name": "data",
          "type": "bytes"
        }
      ],
      "name": "onApprove",
      "outputs": [
        {
          "internalType": "bool",
          "name": "",
          "type": "bool"
        }
      ],
      "stateMutability": "nonpayable",
      "type": "function"
    },
    {
      "inputs": [],
      "name": "pauseProxy",
      "outputs": [
        {
          "internalType": "bool",
          "name": "",
          "type": "bool"
        }
      ],
      "stateMutability": "view",
      "type": "function"
    },
    {
      "inputs": [
        {
          "internalType": "uint32",
          "name": "",
          "type": "uint32"
        },
        {
          "internalType": "address",
          "name": "",
          "type": "address"
        }
      ],
      "name": "pendingUnstaked",
      "outputs": [
        {
          "internalType": "uint256",
          "name": "",
          "type": "uint256"
        }
      ],
      "stateMutability": "view",
      "type": "function"
    },
    {
      "inputs": [
        {
          "internalType": "address",
          "name": "",
          "type": "address"
        }
      ],
      "name": "pendingUnstakedAccount",
      "outputs": [
        {
          "internalType": "uint256",
          "name": "",
          "type": "uint256"
        }
      ],
      "stateMutability": "view",
      "type": "function"
    },
    {
      "inputs": [
        {
          "internalType": "uint32",
          "name": "",
          "type": "uint32"
        }
      ],
      "name": "pendingUnstakedLayer2",
      "outputs": [
        {
          "internalType": "uint256",
          "name": "",
          "type": "uint256"
        }
      ],
      "stateMutability": "view",
      "type": "function"
    },
    {
      "inputs": [
        {
          "internalType": "uint256",
          "name": "",
          "type": "uint256"
        }
      ],
      "name": "proxyImplementation",
      "outputs": [
        {
          "internalType": "address",
          "name": "",
          "type": "address"
        }
      ],
      "stateMutability": "view",
      "type": "function"
    },
    {
      "inputs": [
        {
          "internalType": "address",
          "name": "account",
          "type": "address"
        }
      ],
      "name": "removeAdmin",
      "outputs": [],
      "stateMutability": "nonpayable",
      "type": "function"
    },
    {
      "inputs": [
        {
          "internalType": "bytes32",
          "name": "role",
          "type": "bytes32"
        },
        {
          "internalType": "address",
          "name": "account",
          "type": "address"
        }
      ],
      "name": "renounceRole",
      "outputs": [],
      "stateMutability": "nonpayable",
      "type": "function"
    },
    {
      "inputs": [
        {
          "internalType": "uint32",
          "name": "_index",
          "type": "uint32"
        }
      ],
      "name": "restake",
      "outputs": [],
      "stateMutability": "nonpayable",
      "type": "function"
    },
    {
      "inputs": [
        {
          "internalType": "uint32",
          "name": "_index",
          "type": "uint32"
        },
        {
          "internalType": "uint256",
          "name": "n",
          "type": "uint256"
        }
      ],
      "name": "restakeMulti",
      "outputs": [],
      "stateMutability": "nonpayable",
      "type": "function"
    },
    {
      "inputs": [
        {
          "internalType": "bytes32",
          "name": "role",
          "type": "bytes32"
        },
        {
          "internalType": "address",
          "name": "account",
          "type": "address"
        }
      ],
      "name": "revokeRole",
      "outputs": [],
      "stateMutability": "nonpayable",
      "type": "function"
    },
    {
      "inputs": [],
      "name": "seigManagerV2",
      "outputs": [
        {
          "internalType": "address",
          "name": "",
          "type": "address"
        }
      ],
      "stateMutability": "view",
      "type": "function"
    },
    {
      "inputs": [
        {
          "internalType": "bytes4",
          "name": "",
          "type": "bytes4"
        }
      ],
      "name": "selectorImplementation",
      "outputs": [
        {
          "internalType": "address",
          "name": "",
          "type": "address"
        }
      ],
      "stateMutability": "view",
      "type": "function"
    },
    {
      "inputs": [
        {
          "internalType": "address",
          "name": "addressManager",
          "type": "address"
        }
      ],
      "name": "sequencer",
      "outputs": [
        {
          "internalType": "address",
          "name": "sequencer_",
          "type": "address"
        }
      ],
      "stateMutability": "view",
      "type": "function"
    },
    {
      "inputs": [
        {
          "internalType": "uint32",
          "name": "_index",
          "type": "uint32"
        }
      ],
      "name": "sequencer",
      "outputs": [
        {
          "internalType": "address",
          "name": "sequencer_",
          "type": "address"
        }
      ],
      "stateMutability": "view",
      "type": "function"
    },
    {
      "inputs": [
        {
          "internalType": "uint32",
          "name": "_index",
          "type": "uint32"
        },
        {
          "internalType": "uint256",
          "name": "amount",
          "type": "uint256"
        }
      ],
      "name": "stake",
      "outputs": [],
      "stateMutability": "nonpayable",
      "type": "function"
    },
    {
      "inputs": [
        {
          "internalType": "uint256",
          "name": "",
          "type": "uint256"
        }
      ],
      "name": "stakeAccountList",
      "outputs": [
        {
          "internalType": "address",
          "name": "",
          "type": "address"
        }
      ],
      "stateMutability": "view",
      "type": "function"
    },
    {
      "inputs": [
        {
          "internalType": "bytes4",
          "name": "interfaceId",
          "type": "bytes4"
        }
      ],
      "name": "supportsInterface",
      "outputs": [
        {
          "internalType": "bool",
          "name": "",
          "type": "bool"
        }
      ],
      "stateMutability": "view",
      "type": "function"
    },
    {
      "inputs": [],
      "name": "ton",
      "outputs": [
        {
          "internalType": "address",
          "name": "",
          "type": "address"
        }
      ],
      "stateMutability": "view",
      "type": "function"
    },
    {
      "inputs": [],
      "name": "totalLayer2Deposits",
      "outputs": [
        {
          "internalType": "uint256",
          "name": "amount",
          "type": "uint256"
        }
      ],
      "stateMutability": "view",
      "type": "function"
    },
    {
      "inputs": [],
      "name": "totalStakeAccountList",
      "outputs": [
        {
          "internalType": "uint256",
          "name": "",
          "type": "uint256"
        }
      ],
      "stateMutability": "view",
      "type": "function"
    },
    {
      "inputs": [],
      "name": "totalStakedLton",
      "outputs": [
        {
          "internalType": "uint256",
          "name": "",
          "type": "uint256"
        }
      ],
      "stateMutability": "view",
      "type": "function"
    },
    {
      "inputs": [
        {
          "internalType": "address",
          "name": "newAdmin",
          "type": "address"
        }
      ],
      "name": "transferAdmin",
      "outputs": [],
      "stateMutability": "nonpayable",
      "type": "function"
    },
    {
      "inputs": [
        {
          "internalType": "uint32",
          "name": "_index",
          "type": "uint32"
        },
        {
          "internalType": "uint256",
          "name": "lton_",
          "type": "uint256"
        }
      ],
      "name": "unstake",
      "outputs": [],
      "stateMutability": "nonpayable",
      "type": "function"
    },
    {
      "inputs": [
        {
          "internalType": "uint32",
          "name": "_index",
          "type": "uint32"
        }
      ],
      "name": "withdraw",
      "outputs": [],
      "stateMutability": "nonpayable",
      "type": "function"
    },
    {
      "inputs": [
        {
          "internalType": "uint32",
          "name": "",
          "type": "uint32"
        },
        {
          "internalType": "address",
          "name": "",
          "type": "address"
        }
      ],
      "name": "withdrawalRequestIndex",
      "outputs": [
        {
          "internalType": "uint256",
          "name": "",
          "type": "uint256"
        }
      ],
      "stateMutability": "view",
      "type": "function"
    },
    {
      "inputs": [
        {
          "internalType": "uint32",
          "name": "",
          "type": "uint32"
        },
        {
          "internalType": "address",
          "name": "",
          "type": "address"
        },
        {
          "internalType": "uint256",
          "name": "",
          "type": "uint256"
        }
      ],
      "name": "withdrawalRequests",
      "outputs": [
        {
          "internalType": "uint32",
          "name": "withdrawableBlockNumber",
          "type": "uint32"
        },
        {
          "internalType": "uint128",
          "name": "amount",
          "type": "uint128"
        },
        {
          "internalType": "bool",
          "name": "processed",
          "type": "bool"
        }
      ],
      "stateMutability": "view",
      "type": "function"
    }
  ],
  "bytecode": "0x60806040526006805460ff1916600117905534801561001d57600080fd5b506147af8061002d6000396000f3fe608060405234801561001057600080fd5b50600436106103c55760003560e01c806375b238fc116101ff578063a217fddf1161011a578063b969fbef116100ad578063d547741f1161007c578063d547741f14610b68578063df2b429014610b7b578063ec110d4514610b8e578063edcc217714610ba157600080fd5b8063b969fbef14610b15578063b9cab97114610b1d578063cc48b94714610b3d578063d07918f114610b5557600080fd5b8063aa9224cd116100e9578063aa9224cd14610aa3578063b413b37a14610ab6578063b6a2f99d14610abe578063b911135f14610aec57600080fd5b8063a217fddf14610a62578063a2dc9e0214610a6a578063a4c735ef14610a7d578063a8a8d9e814610a9057600080fd5b80638d1f3d0a1161019257806394c89b2c1161016157806394c89b2c146109935780639c2f614f146109a65780639c656e26146109b9578063a0b2a91314610a4257600080fd5b80638d1f3d0a146108f85780638d99e1ca1461090b5780638ddd87fe1461091e57806391d148541461095c57600080fd5b80637ec6840f116101ce5780637ec6840f146108505780638afec9fc146108635780638c6f1b39146108895780638c71762d146108c357600080fd5b806375b238fc146107d85780637c356816146107ff5780637cf1587c146108125780637d211a1c1461083d57600080fd5b80634de131ca116102ef57806363a8fd891161028257806370619cf91161025157806370619cf91461077f57806373469a7a1461079f578063744a3561146107b257806375829def146107c557600080fd5b806363a8fd8914610700578063659ab8201461070d5780636d1ef1031461072d578063704802751461076c57600080fd5b80635d0c7b2b116102be5780635d0c7b2b146106255780635e2cfe45146106385780635f1b989e1461066357806360254e33146106ed57600080fd5b80634de131ca146105bb5780634e1a264d146105d057806350d2a276146105d9578063550d01a31461060257600080fd5b8063229852461161036757806336568abe1161033657806336568abe1461057a57806341e5dbe81461058d5780634273ca16146105a057806346bcdb49146105b357600080fd5b8063229852461461050a578063248a9ca31461053157806324d7806c146105545780632f2ff15d1461056757600080fd5b806316b5d5bd116103a357806316b5d5bd146104285780631785f53c146104535780631ed94495146104665780631f760d01146104cb57600080fd5b80630116cc65146103ca57806301ffc9a7146103f0578063118e29d114610413575b600080fd5b6103dd6103d8366004613f36565b610bb4565b6040519081526020015b60405180910390f35b6104036103fe366004613f51565b610be5565b60405190151581526020016103e7565b610426610421366004613f36565b610c1c565b005b60085461043b906001600160a01b031681565b6040516001600160a01b0390911681526020016103e7565b610426610461366004613f90565b610c91565b610479610474366004613fad565b610d1e565b6040516103e79190600060c0820190508251825260208301516020830152604083015160408301526060830151606083015260808301511515608083015261ffff60a08401511660a083015292915050565b6104de6104d9366004613fad565b610ddc565b6040805194855263ffffffff9384166020860152918316918401919091521660608201526080016103e7565b6103dd7ffb5864e8ff833c3cb2d2d08505e82ff02a43554c74a35d4f5a64e8526127831181565b6103dd61053f366004613fe4565b60009081526020819052604090206001015490565b610403610562366004613f90565b610f1a565b610426610575366004613ffd565b610f5a565b610426610588366004613ffd565b610f84565b6103dd61059b366004613f36565b61100c565b6104036105ae366004614022565b6110e5565b6012546103dd565b6105c361123c565b6040516103e791906140c1565b6103dd60095481565b61043b6105e7366004613f51565b6004602052600090815260409020546001600160a01b031681565b610403610610366004613f90565b60036020526000908152604090205460ff1681565b61043b610633366004613f90565b61129e565b6103dd610646366004613fad565b600e60209081526000928352604080842090915290825290205481565b6103dd610671366004613fad565b63ffffffff9091166000908152600b602090815260408083206001600160a01b03909416835292815290829020825160c081018452815481526001820154928101929092526002810154928201839052600381015460608301526004015460ff81161515608083015261ffff6101009091041660a09091015290565b6104036106fb36600461410e565b611365565b6001546104039060ff1681565b61072061071b366004613f36565b611527565b6040516103e7919061419d565b61074061073b36600461410e565b6115c1565b6040805163ffffffff90941684526001600160801b0390921660208401521515908201526060016103e7565b61042661077a366004613f90565b611620565b6103dd61078d366004613f36565b600a6020526000908152604090205481565b60075461043b906001600160a01b031681565b6104266107c03660046141b0565b6116aa565b6104266107d3366004613f90565b611715565b6103dd7fdf8b4c520ffe197c5343c6f5aec59570151ef9a492f2c624fd45ddde6135ec4281565b61040361080d3660046141da565b611877565b6103dd610820366004613fad565b600d60209081526000928352604080842090915290825290205481565b61040361084b366004613f36565b611b0b565b61042661085e3660046141b0565b611bc9565b6103dd610871366004613f36565b63ffffffff166000908152600a602052604090205490565b61089c610897366004613f36565b611c22565b6040805182516001600160a01b0390811682526020938401511692810192909252016103e7565b6108d66108d1366004613fad565b611cbe565b6040805193845263ffffffff92831660208501529116908201526060016103e7565b61043b610906366004613f36565b611dfb565b6103dd610919366004613f36565b611fab565b6103dd61092c366004613fad565b63ffffffff82166000908152600e602090815260408083206001600160a01b038516845290915290205492915050565b61040361096a366004613ffd565b6000918252602082815260408084206001600160a01b0393909316845291905290205460ff1690565b6103dd6109a1366004613fad565b61201e565b6104266109b43660046141b0565b61210a565b610a0f6109c7366004613fad565b600b602090815260009283526040808420909152908252902080546001820154600283015460038401546004909401549293919290919060ff811690610100900461ffff1686565b6040805196875260208701959095529385019290925260608401521515608083015261ffff1660a082015260c0016103e7565b6103dd610a50366004613f90565b60106020526000908152604090205481565b6103dd600081565b61043b610a78366004613f90565b612194565b61043b610a8b366004613f90565b612206565b61043b610a9e366004613f36565b612263565b610426610ab1366004613f36565b6123d5565b6009546103dd565b610ad1610acc366004613fad565b6127ea565b604080519384526020840192909252908201526060016103e7565b61043b610afa366004613fe4565b6002602052600090815260409020546001600160a01b031681565b6103dd612845565b6103dd610b2b366004613f36565b600f6020526000908152604090205481565b60065461043b9061010090046001600160a01b031681565b60135461043b906001600160a01b031681565b610426610b76366004613ffd565b6128b8565b610403610b89366004614270565b6128dd565b61043b610b9c366004613fe4565b612a23565b6103dd610baf366004614316565b612a4d565b63ffffffff81166000908152601160205260408082209051610bd69190614368565b60405180910390209050919050565b60006001600160e01b03198216637965db0b60e01b1480610c1657506301ffc9a760e01b6001600160e01b03198316145b92915050565b63ffffffff81166000908152600d602090815260408083203380855292529091205490610c4d908390836001612b00565b610c8d5760405162461bcd60e51b815260206004820152600c60248201526b534c5f455f52455354414b4560a01b60448201526064015b60405180910390fd5b5050565b610c9a33610f1a565b610cf15760405162461bcd60e51b815260206004820152602260248201527f41636365737369626c653a2043616c6c6572206973206e6f7420616e2061646d60448201526134b760f11b6064820152608401610c84565b610d1b7fdf8b4c520ffe197c5343c6f5aec59570151ef9a492f2c624fd45ddde6135ec4282610f84565b50565b610d5d6040518060c0016040528060008152602001600081526020016000815260200160008152602001600015158152602001600061ffff1681525090565b5063ffffffff9091166000908152600b602090815260408083206001600160a01b03909416835292815290829020825160c081018452815481526001820154928101929092526002810154928201929092526003820154606082015260049091015460ff81161515608083015261ffff6101009091041660a082015290565b63ffffffff8083166000818152600c602090815260408083206001600160a01b03871680855290835281842054948452600d835281842090845290915281205490929091839182919084165b81811015610f0f5763ffffffff88166000908152600c602090815260408083206001600160a01b038b1684529091528120805483908110610e6b57610e6b6143de565b6000918252602080832060408051606081018252939091015463ffffffff8116845264010000000081046001600160801b031692840192909252600160a01b90910460ff1615159082018190529092509003610efc578363ffffffff16600003610ed457805193505b6020810151610eec906001600160801b03168861440a565b9650610ef960018661441d565b94505b5080610f0781614441565b915050610e28565b505092959194509250565b6001600160a01b03811660009081527f5cbfc8ee58ca47855df7bcf648dd304ddb6b932f9b87878bdf6318d7ec7ee5b7602052604081205460ff16610c16565b600082815260208190526040902060010154610f7581612fad565b610f7f8383612fb7565b505050565b6001600160a01b03811633146110025760405162461bcd60e51b815260206004820152602f60248201527f416363657373436f6e74726f6c3a2063616e206f6e6c792072656e6f756e636560448201527f20726f6c657320666f722073656c6600000000000000000000000000000000006064820152608401610c84565b610c8d8282613055565b60008061101883611c22565b90506110278160000151612194565b60065460208301516040516347b00fb360e11b81526001600160a01b03610100909304831660048201529082166024820152911690638f601f6690604401602060405180830381865afa92505050801561109e575060408051601f3d908101601f1916820190925261109b9181019061445a565b60015b6110dc573d8080156110cc576040519150601f19603f3d011682016040523d82523d6000602084013e6110d1565b606091505b5060009250506110df565b91505b50919050565b60065460009061010090046001600160a01b0316331461112c5760405162461bcd60e51b8152602060048201526002602482015261454160f01b6044820152606401610c84565b61117361084b600085858080601f01602080910402602001604051908101604052809392919081815260200183838082843760009201919091525092939250506130d49050565b6111b65760405162461bcd60e51b81526020600482015260146024820152733737b716b932b3b4b9ba32b932b2103630bcb2b960611b6044820152606401610c84565b60006111fc600085858080601f01602080910402602001604051908101604052809392919081815260200183838082843760009201919091525092939250506130d49050565b90508415611221576006546112219061010090046001600160a01b0316883088613194565b61122f8188876000806132b8565b5060019695505050505050565b6060601280548060200260200160405190810160405280929190818152602001828054801561129457602002820191906000526020600020905b81546001600160a01b03168152600190910190602001808311611276575b5050505050905090565b60405163bf40fac160e01b815260206004820152600d60248201526c27ab26afa9b2b8bab2b731b2b960991b60448201526000906001600160a01b0383169063bf40fac1906064015b602060405180830381865afa925050508015611320575060408051601f3d908101601f1916820190925261131d91810190614473565b60015b61135d573d80801561134e576040519150601f19603f3d011682016040523d82523d6000602084013e611353565b606091505b5060009392505050565b90505b919050565b6013546000906001600160a01b031633146113b25760405162461bcd60e51b815260206004820152600d60248201526c232bafa1a0a62622a92fa2a92960991b6044820152606401610c84565b600754604051636a2fb1f560e01b8152600481018490526000916001600160a01b031690636a2fb1f590602401602060405180830381865afa1580156113fc573d6000803e3d6000fd5b505050506040513d601f19601f82011682018060405250810190611420919061445a565b63ffffffff86166000908152600a602052604081208054929350839290919061144a90849061440a565b925050819055508060096000828254611463919061440a565b909155505063ffffffff85166000908152600b602090815260408083206001600160a01b038816845290915281208054909185918391906114a590849061440a565b92505081905550818160020160008282546114c0919061440a565b90915550506040805163ffffffff881681526001600160a01b0387166020820152908101859052606081018390527fd5f2b548f2958cb2c0fb52f3e60e93ae5d5bece5191c580d1912068409ab92479060800160405180910390a150600195945050505050565b6011602052600090815260409020805461154090614334565b80601f016020809104026020016040519081016040528092919081815260200182805461156c90614334565b80156115b95780601f1061158e576101008083540402835291602001916115b9565b820191906000526020600020905b81548152906001019060200180831161159c57829003601f168201915b505050505081565b600c60205282600052604060002060205281600052604060002081815481106115e957600080fd5b60009182526020909120015463ffffffff8116935064010000000081046001600160801b03169250600160a01b900460ff16905083565b61162933610f1a565b6116805760405162461bcd60e51b815260206004820152602260248201527f41636365737369626c653a2043616c6c6572206973206e6f7420616e2061646d60448201526134b760f11b6064820152608401610c84565b610d1b7fdf8b4c520ffe197c5343c6f5aec59570151ef9a492f2c624fd45ddde6135ec4282610f5a565b63ffffffff82166000908152600d6020908152604080832033808552925290912054906116da9084908385612b00565b610f7f5760405162461bcd60e51b815260206004820152600c60248201526b534c5f455f52455354414b4560a01b6044820152606401610c84565b61171e33610f1a565b6117755760405162461bcd60e51b815260206004820152602260248201527f41636365737369626c653a2043616c6c6572206973206e6f7420616e2061646d60448201526134b760f11b6064820152608401610c84565b6001600160a01b0381166117cb5760405162461bcd60e51b815260206004820152601860248201527f41636365737369626c653a207a65726f206164647265737300000000000000006044820152606401610c84565b6001600160a01b03811633036118235760405162461bcd60e51b815260206004820152601660248201527f41636365737369626c653a2073616d652061646d696e000000000000000000006044820152606401610c84565b61184d7fdf8b4c520ffe197c5343c6f5aec59570151ef9a492f2c624fd45ddde6135ec4282610f5a565b610d1b7fdf8b4c520ffe197c5343c6f5aec59570151ef9a492f2c624fd45ddde6135ec4233610f84565b60065460009060ff166118b55760405162461bcd60e51b8152600401610c84906020808252600490820152636c6f636b60e01b604082015260600190565b6006805460ff191690556013546001600160a01b031633146119095760405162461bcd60e51b815260206004820152600d60248201526c232bafa1a0a62622a92fa2a92960991b6044820152606401610c84565b81611914868661201e565b10156119625760405162461bcd60e51b815260206004820152601960248201527f6c697175696469747920697320696e73756666696369656e74000000000000006044820152606401610c84565b6006546040516370a0823160e01b815230600482015260009161010090046001600160a01b0316906370a0823190602401602060405180830381865afa1580156119b0573d6000803e3d6000fd5b505050506040513d601f19601f820116820180604052508101906119d4919061445a565b905082811015611a7f578015611a0057600654611a009061010090046001600160a01b031685836136ac565b6007546001600160a01b031663aad3ec9685611a1c8487614490565b6040516001600160e01b031960e085901b1681526001600160a01b0390921660048301526024820152604401600060405180830381600087803b158015611a6257600080fd5b505af1158015611a76573d6000803e3d6000fd5b50505050611a9b565b600654611a9b9061010090046001600160a01b031685856136ac565b6040805163ffffffff881681526001600160a01b0387811660208301528616818301526060810185905290517f1300548f98fb4f42be29e3431413715ef6ef84ba22e8eb7717bfb05164cfdd9f9181900360800190a160019150506006805460ff19166001179055949350505050565b60085460405163370f791d60e11b815263ffffffff831660048201526000916001600160a01b031690636e1ef23a90602401602060405180830381865afa158015611b5a573d6000803e3d6000fd5b505050506040513d601f19601f82011682018060405250810190611b7e91906144a3565b611bc15760405162461bcd60e51b81526020600482015260146024820152733737b716b932b3b4b9ba32b932b2103630bcb2b960611b6044820152606401610c84565b506001919050565b611bd282611b0b565b611c155760405162461bcd60e51b81526020600482015260146024820152733737b716b932b3b4b9ba32b932b2103630bcb2b960611b6044820152606401610c84565b610c8d82826000806137c7565b6040805180820182526000808252602080830182905263ffffffff8516825260119052829020915163186ca86f60e21b8152909173__$35081dc60fc26376aafbbba403b8b17c43$__916361b2a1bc91611c7e916004016144c5565b6040805180830381865af4158015611c9a573d6000803e3d6000fd5b505050506040513d601f19601f82011682018060405250810190610c169190614550565b63ffffffff8083166000818152600c602090815260408083206001600160a01b03871680855290835281842054948452600d835281842090845290915281205490929091839183165b81811015611df25763ffffffff87166000908152600c602090815260408083206001600160a01b038a1684529091528120805483908110611d4a57611d4a6143de565b600091825260209182902060408051606081018252929091015463ffffffff811680845264010000000082046001600160801b031694840194909452600160a01b900460ff16151590820152915043118015611da857506040810151155b15611dd9576020810151611dc5906001600160801b03168761440a565b9550611dd260018561441d565b9350611ddf565b50611df2565b5080611dea81614441565b915050611d07565b50509250925092565b63ffffffff811660009081526011602052604080822090516379a0c08760e11b8152829173__$35081dc60fc26376aafbbba403b8b17c43$__9163f341810e91611e47916004016144c5565b602060405180830381865af4158015611e64573d6000803e3d6000fd5b505050506040513d601f19601f82011682018060405250810190611e889190614473565b90506001600160a01b038116611ea15750600092915050565b63ffffffff83166000908152601160205260409081902090516379a0c08760e11b815273__$35081dc60fc26376aafbbba403b8b17c43$__9163f341810e91611eed91906004016144c5565b602060405180830381865af4158015611f0a573d6000803e3d6000fd5b505050506040513d601f19601f82011682018060405250810190611f2e9190614473565b60405163bf40fac160e01b815260206004820152600d60248201526c27ab26afa9b2b8bab2b731b2b960991b60448201526001600160a01b03919091169063bf40fac190606401602060405180830381865afa92505050801561109e575060408051601f3d908101601f1916820190925261109b91810190614473565b6008546040516346ccf0e560e11b815263ffffffff831660048201526000916001600160a01b031690638d99e1ca90602401602060405180830381865afa158015611ffa573d6000803e3d6000fd5b505050506040513d601f19601f82011682018060405250810190610c16919061445a565b60075463ffffffff83166000908152600b602090815260408083206001600160a01b038681168552908352818420825160c081018452815481526001820154948101949094526002810154928401839052600381015460608501526004015460ff811615156080850152610100900461ffff1660a0909301929092529192169063cdf68009906040518263ffffffff1660e01b81526004016120c291815260200190565b602060405180830381865afa1580156120df573d6000803e3d6000fd5b505050506040513d601f19601f82011682018060405250810190612103919061445a565b9392505050565b601354604051630265991f60e61b81526000600482015263ffffffff84166024820152336044820152610c8d91849184916001600160a01b03169063996647c090606401602060405180830381865afa15801561216b573d6000803e3d6000fd5b505050506040513d601f19601f8201168201806040525081019061218f919061445a565b6137f7565b60006001600160a01b0382166121ac57506000919050565b60405163bf40fac160e01b815260206004820152601b60248201527f50726f78795f5f4f564d5f4c315374616e64617264427269646765000000000060448201526001600160a01b0383169063bf40fac1906064016112e7565b60405163bf40fac160e01b815260206004820152601a60248201527f4f564d5f4c3143726f7373446f6d61696e4d657373656e67657200000000000060448201526000906001600160a01b0383169063bf40fac1906064016112e7565b63ffffffff811660009081526011602052604080822090516379a0c08760e11b8152829173__$35081dc60fc26376aafbbba403b8b17c43$__9163f341810e916122af916004016144c5565b602060405180830381865af41580156122cc573d6000803e3d6000fd5b505050506040513d601f19601f820116820180604052508101906122f09190614473565b90506001600160a01b0381166123095750600092915050565b60405163bf40fac160e01b815260206004820152601b60248201527f50726f78795f5f4f564d5f4c315374616e64617264427269646765000000000060448201526001600160a01b0382169063bf40fac190606401602060405180830381865afa925050508015612397575060408051601f3d908101601f1916820190925261239491810190614473565b60015b6110dc573d8080156123c5576040519150601f19603f3d011682016040523d82523d6000602084013e6123ca565b606091505b506000949350505050565b60065460ff166124105760405162461bcd60e51b8152600401610c84906020808252600490820152636c6f636b60e01b604082015260600190565b6006805460ff1916905563ffffffff81166000818152600c602090815260408083203380855290835281842054948452600d83528184208185529092528220549092919081905b838110156125295763ffffffff86166000908152600c602090815260408083206001600160a01b0389168452909152812080548390811061249a5761249a6143de565b600091825260209091200180549091504363ffffffff9091161080156124c957508054600160a01b900460ff16155b1561251057805460ff60a01b1916600160a01b178082556124fc906001600160801b03640100000000909104168461440a565b92508361250881614441565b945050612516565b50612529565b508061252181614441565b915050612457565b506000811161257a5760405162461bcd60e51b815260206004820181905260248201527f7a65726f20617661696c61626c65207769746864726177616c20616d6f756e746044820152606401610c84565b63ffffffff85166000908152600d602090815260408083206001600160a01b0388168452909152812080548492906125b390849061440a565b909155505063ffffffff85166000908152600e602090815260408083206001600160a01b0388168452909152812080548392906125f1908490614490565b909155505063ffffffff85166000908152600f60205260408120805483929061261b908490614490565b90915550506001600160a01b03841660009081526010602052604081208054839290612648908490614490565b90915550506006546040516370a0823160e01b815230600482015260009161010090046001600160a01b0316906370a0823190602401602060405180830381865afa15801561269b573d6000803e3d6000fd5b505050506040513d601f19601f820116820180604052508101906126bf919061445a565b90508181101561276a5780156126eb576006546126eb9061010090046001600160a01b031686836136ac565b6007546001600160a01b031663aad3ec96866127078486614490565b6040516001600160e01b031960e085901b1681526001600160a01b0390921660048301526024820152604401600060405180830381600087803b15801561274d57600080fd5b505af1158015612761573d6000803e3d6000fd5b50505050612786565b6006546127869061010090046001600160a01b031686846136ac565b6040805163ffffffff881681526001600160a01b03871660208201529081018390527f2d6eb139d2002caa088da5527d9d62f2f23bdf4504f5559a112535c436c6ee599060600160405180910390a150506006805460ff1916600117905550505050565b63ffffffff82166000818152600c602090815260408083206001600160a01b03861680855290835281842054948452600d83528184209084529091528120549081831061283e5761283b8284614490565b90505b9250925092565b6008546040805163b969fbef60e01b815290516000926001600160a01b03169163b969fbef9160048083019260209291908290030181865afa15801561288f573d6000803e3d6000fd5b505050506040513d601f19601f820116820180604052508101906128b3919061445a565b905090565b6000828152602081905260409020600101546128d381612fad565b610f7f8383613055565b6008546000906001600160a01b0316331461293a5760405162461bcd60e51b815260206004820152601160248201527f6e6f74204c61796572324d616e616765720000000000000000000000000000006044820152606401610c84565b815160281461298b5760405162461bcd60e51b815260206004820152600f60248201527f77726f6e67206c61796572496e666f00000000000000000000000000000000006044820152606401610c84565b63ffffffff8316600090815260116020526040902080546129ab90614334565b1590506129fa5760405162461bcd60e51b815260206004820152600f60248201527f616c7265616479206372656174656400000000000000000000000000000000006044820152606401610c84565b63ffffffff83166000908152601160205260409020612a1983826145f5565b5060019392505050565b60128181548110612a3357600080fd5b6000918252602090912001546001600160a01b0316905081565b6006546040516347b00fb360e11b81526001600160a01b03610100909204821660048201528282166024820152600091841690638f601f6690604401602060405180830381865afa925050508015612ac2575060408051601f3d908101601f19168201909252612abf9181019061445a565b60015b612103573d808015612af0576040519150601f19603f3d011682016040523d82523d6000602084013e612af5565b606091505b506000915050610c16565b60065460009060ff16612b3e5760405162461bcd60e51b8152600401610c84906020808252600490820152636c6f636b60e01b604082015260600190565b6006805460ff1916905563ffffffff85166000908152600c602090815260408083206001600160a01b038816845290915281205480612bac5760405162461bcd60e51b815260206004820152600a6024820152696e6f20756e7374616b6560b01b6044820152606401610c84565b83612bb78683614490565b1015612c055760405162461bcd60e51b815260206004820152601860248201527f6e2065786365656473206e756d206f662070656e64696e6700000000000000006044820152606401610c84565b6000612c11858761440a565b90505b80861015612d075763ffffffff88166000908152600c602090815260408083206001600160a01b038b1684529091528120805488908110612c5757612c576143de565b6000918252602090912001805490915064010000000081046001600160801b031690600160a01b900460ff1615612cd05760405162461bcd60e51b815260206004820152601260248201527f616c7265616479207769746864726177616c00000000000000000000000000006044820152606401610c84565b8015612ce357612ce0818661440a565b94505b50805460ff60a01b1916600160a01b17905585612cff81614441565b965050612c14565b60008311612d575760405162461bcd60e51b815260206004820152601760248201527f6e6f2076616c69642072657374616b6520616d6f756e740000000000000000006044820152606401610c84565b600754604051636a2fb1f560e01b8152600481018590526000916001600160a01b031690636a2fb1f590602401602060405180830381865afa158015612da1573d6000803e3d6000fd5b505050506040513d601f19601f82011682018060405250810190612dc5919061445a565b63ffffffff8a166000908152600b602090815260408083206001600160a01b038d168452909152812080549293509186918391612e0390849061440a565b9250508190555081816002016000828254612e1e919061440a565b909155505063ffffffff8a166000908152600a602052604081208054849290612e4890849061440a565b925050819055508160096000828254612e61919061440a565b909155505063ffffffff8a166000908152600e602090815260408083206001600160a01b038d16845290915281208054879290612e9f908490614490565b909155505063ffffffff8a166000908152600f602052604081208054879290612ec9908490614490565b90915550506001600160a01b03891660009081526010602052604081208054879290612ef6908490614490565b909155505063ffffffff8a166000908152600d602090815260408083206001600160a01b038d16845290915281208054899290612f3490849061440a565b90915550506040805163ffffffff8c1681526001600160a01b038b166020820152908101869052606081018390527f34981dc0486069d2abbaddbc42e10b97cb24e4bce60ee4457e1d5062dfc0b4299060800160405180910390a16001955050505050506006805460ff19166001179055949350505050565b610d1b8133613cf4565b6000828152602081815260408083206001600160a01b038516845290915290205460ff16610c8d576000828152602081815260408083206001600160a01b03851684529091529020805460ff191660011790556130113390565b6001600160a01b0316816001600160a01b0316837f2f8788117e7eff1d82e926ec794901d17c78024a50270940304540a733656f0d60405160405180910390a45050565b6000828152602081815260408083206001600160a01b038516845290915290205460ff1615610c8d576000828152602081815260408083206001600160a01b0385168085529252808320805460ff1916905551339285917ff6391f5c32d9c69d2a47ea670b442974b53935d1edc7fd64eb21e047a839171b9190a45050565b6000816130e281600461440a565b10156131305760405162461bcd60e51b815260206004820152601160248201527f746f55696e7433325f6f766572666c6f770000000000000000000000000000006044820152606401610c84565b61313b82600461440a565b8351101561318b5760405162461bcd60e51b815260206004820152601460248201527f746f55696e7433325f6f75744f66426f756e64730000000000000000000000006044820152606401610c84565b50016004015190565b604080516001600160a01b0385811660248301528481166044830152606480830185905283518084039091018152608490920183526020820180516001600160e01b03166323b872dd60e01b17905291516000928392908816916131f891906146b5565b6000604051808303816000865af19150503d8060008114613235576040519150601f19603f3d011682016040523d82523d6000602084013e61323a565b606091505b509150915081801561326457508051158061326457508080602001905181019061326491906144a3565b6132b05760405162461bcd60e51b815260206004820152601460248201527f5452414e534645525f46524f4d5f4641494c45440000000000000000000000006044820152606401610c84565b505050505050565b60065460ff166132f35760405162461bcd60e51b8152600401610c84906020808252600490820152636c6f636b60e01b604082015260600190565b6006805460ff191690558260008190036133345760405162461bcd60e51b81526020600482015260026024820152615a3160f01b6044820152606401610c84565b600754604051636a2fb1f560e01b8152600481018690526000916001600160a01b031690636a2fb1f590602401602060405180830381865afa15801561337e573d6000803e3d6000fd5b505050506040513d601f19601f820116820180604052508101906133a2919061445a565b63ffffffff88166000908152600a60205260408120805492935083929091906133cc90849061440a565b9250508190555080600960008282546133e5919061440a565b909155505063ffffffff87166000908152600b602090815260408083206001600160a01b038a1684529091529020600481015460ff1661348757600481018054600160ff1990911681179091556012805491820181556000527fbb8a6a4669ba250d26cd7a459eca9d215f8307e33aebe50379bc5a3617ec344401805473ffffffffffffffffffffffffffffffffffffffff19166001600160a01b0389161790555b600061ffff8516158015906134a457506001600160a01b03861615155b80156134b557506127108561ffff16105b156135f8576127106134cb61ffff8716856146d1565b6134d591906146e8565b90506134e18184614490565b60075460405163cdf6800960e01b8152600481018390529194506000916001600160a01b039091169063cdf6800990602401602060405180830381865afa158015613530573d6000803e3d6000fd5b505050506040513d601f19601f82011682018060405250810190613554919061445a565b90508083600001600082825461356a919061440a565b9250508190555083836002016000828254613585919061440a565b909155505063ffffffff8a166000908152600b602090815260408083206001600160a01b038b16845290915290206135bd828a614490565b8160000160008282546135d0919061440a565b92505081905550828160020160008282546135eb919061440a565b9091555061362d92505050565b8682600001600082825461360c919061440a565b9250508190555082826002016000828254613627919061440a565b90915550505b6040805163ffffffff8b1681526001600160a01b038a811660208301528183018a9052606082018690528816608082015261ffff871660a082015290517f318dab784577ac2e7d86f88c3f2a80520b447b822b8a756158648e0f917d16a09181900360c00190a150506006805460ff1916600117905550505050505050565b604080516001600160a01b038481166024830152604480830185905283518084039091018152606490920183526020820180516001600160e01b031663a9059cbb60e01b179052915160009283929087169161370891906146b5565b6000604051808303816000865af19150503d8060008114613745576040519150601f19603f3d011682016040523d82523d6000602084013e61374a565b606091505b509150915081801561377457508051158061377457508080602001905181019061377491906144a3565b6137c05760405162461bcd60e51b815260206004820152600f60248201527f5452414e534645525f4641494c454400000000000000000000000000000000006044820152606401610c84565b5050505050565b6006546137e49061010090046001600160a01b0316333086613194565b6137f184338585856132b8565b50505050565b60065460ff166138325760405162461bcd60e51b8152600401610c84906020808252600490820152636c6f636b60e01b604082015260600190565b6006805460ff191690558160008190036138735760405162461bcd60e51b81526020600482015260026024820152615a3160f01b6044820152606401610c84565b60075460405163cdf6800960e01b81526004810185905233916000916001600160a01b039091169063cdf6800990602401602060405180830381865afa1580156138c1573d6000803e3d6000fd5b505050506040513d601f19601f820116820180604052508101906138e5919061445a565b63ffffffff87166000908152600b602090815260408083206001600160a01b0387168452909152902090915084156139e6576002810154600754604051636a2fb1f560e01b8152600481018890526001600160a01b0390911690636a2fb1f590602401602060405180830381865afa158015613965573d6000803e3d6000fd5b505050506040513d601f19601f82011682018060405250810190613989919061445a565b613993908861440a565b11156139e15760405162461bcd60e51b815260206004820152600d60248201527f756e7374616b655f6572725f31000000000000000000000000000000000000006044820152606401610c84565b613a3a565b8060020154861115613a3a5760405162461bcd60e51b815260206004820152600d60248201527f756e7374616b655f6572725f32000000000000000000000000000000000000006044820152606401610c84565b85816002016000828254613a4e9190614490565b90915550508054821115613a655760008155613a7f565b81816000016000828254613a799190614490565b90915550505b63ffffffff87166000908152600a602052604081208054889290613aa4908490614490565b925050819055508560096000828254613abd9190614490565b909155505060085460408051636577b27360e11b815290516000926001600160a01b03169163caef64e69160048083019260209291908290030181865afa158015613b0c573d6000803e3d6000fd5b505050506040513d601f19601f82011682018060405250810190613b30919061445a565b63ffffffff89166000908152600c602090815260408083206001600160a01b03891684529091529081902081516060810190925291925080613b72844361440a565b63ffffffff90811682526001600160801b0380881660208085019190915260006040948501819052865460018101885596815281812086519701805487840151978701511515600160a01b0260ff60a01b19989095166401000000000273ffffffffffffffffffffffffffffffffffffffff19909116988616989098179790971795909516919091179094558b168252600e83528082206001600160a01b03881683529092529081208054859290613c2b90849061440a565b909155505063ffffffff88166000908152600f602052604081208054859290613c5590849061440a565b90915550506001600160a01b03841660009081526010602052604081208054859290613c8290849061440a565b90915550506040805163ffffffff8a1681526001600160a01b0386166020820152908101849052606081018890527f869a01319d83bb921803a22e3e95d0cb8b08e708d3fb144e2c25a563bf8650d39060800160405180910390a150506006805460ff19166001179055505050505050565b6000828152602081815260408083206001600160a01b038516845290915290205460ff16610c8d57613d2581613d67565b613d30836020613d79565b604051602001613d4192919061470a565b60408051601f198184030181529082905262461bcd60e51b8252610c849160040161419d565b6060610c166001600160a01b03831660145b60606000613d888360026146d1565b613d9390600261440a565b67ffffffffffffffff811115613dab57613dab614229565b6040519080825280601f01601f191660200182016040528015613dd5576020820181803683370190505b509050600360fc1b81600081518110613df057613df06143de565b60200101906001600160f81b031916908160001a905350600f60fb1b81600181518110613e1f57613e1f6143de565b60200101906001600160f81b031916908160001a9053506000613e438460026146d1565b613e4e90600161440a565b90505b6001811115613ed3577f303132333435363738396162636465660000000000000000000000000000000085600f1660108110613e8f57613e8f6143de565b1a60f81b828281518110613ea557613ea56143de565b60200101906001600160f81b031916908160001a90535060049490941c93613ecc8161478b565b9050613e51565b5083156121035760405162461bcd60e51b815260206004820181905260248201527f537472696e67733a20686578206c656e67746820696e73756666696369656e746044820152606401610c84565b803563ffffffff8116811461136057600080fd5b600060208284031215613f4857600080fd5b61210382613f22565b600060208284031215613f6357600080fd5b81356001600160e01b03198116811461210357600080fd5b6001600160a01b0381168114610d1b57600080fd5b600060208284031215613fa257600080fd5b813561210381613f7b565b60008060408385031215613fc057600080fd5b613fc983613f22565b91506020830135613fd981613f7b565b809150509250929050565b600060208284031215613ff657600080fd5b5035919050565b6000806040838503121561401057600080fd5b823591506020830135613fd981613f7b565b60008060008060006080868803121561403a57600080fd5b853561404581613f7b565b9450602086013561405581613f7b565b935060408601359250606086013567ffffffffffffffff8082111561407957600080fd5b818801915088601f83011261408d57600080fd5b81358181111561409c57600080fd5b8960208285010111156140ae57600080fd5b9699959850939650602001949392505050565b6020808252825182820181905260009190848201906040850190845b818110156141025783516001600160a01b0316835292840192918401916001016140dd565b50909695505050505050565b60008060006060848603121561412357600080fd5b61412c84613f22565b9250602084013561413c81613f7b565b929592945050506040919091013590565b60005b83811015614168578181015183820152602001614150565b50506000910152565b6000815180845261418981602086016020860161414d565b601f01601f19169290920160200192915050565b6020815260006121036020830184614171565b600080604083850312156141c357600080fd5b6141cc83613f22565b946020939093013593505050565b600080600080608085870312156141f057600080fd5b6141f985613f22565b9350602085013561420981613f7b565b9250604085013561421981613f7b565b9396929550929360600135925050565b634e487b7160e01b600052604160045260246000fd5b604051601f8201601f1916810167ffffffffffffffff8111828210171561426857614268614229565b604052919050565b6000806040838503121561428357600080fd5b61428c83613f22565b915060208084013567ffffffffffffffff808211156142aa57600080fd5b818601915086601f8301126142be57600080fd5b8135818111156142d0576142d0614229565b6142e2601f8201601f1916850161423f565b915080825287848285010111156142f857600080fd5b80848401858401376000848284010152508093505050509250929050565b6000806040838503121561432957600080fd5b8235613fc981613f7b565b600181811c9082168061434857607f821691505b6020821081036110df57634e487b7160e01b600052602260045260246000fd5b600080835461437681614334565b6001828116801561438e57600181146143a3576143d2565b60ff19841687528215158302870194506143d2565b8760005260208060002060005b858110156143c95781548a8201529084019082016143b0565b50505082870194505b50929695505050505050565b634e487b7160e01b600052603260045260246000fd5b634e487b7160e01b600052601160045260246000fd5b80820180821115610c1657610c166143f4565b63ffffffff81811683821601908082111561443a5761443a6143f4565b5092915050565b600060018201614453576144536143f4565b5060010190565b60006020828403121561446c57600080fd5b5051919050565b60006020828403121561448557600080fd5b815161210381613f7b565b81810381811115610c1657610c166143f4565b6000602082840312156144b557600080fd5b8151801515811461210357600080fd5b60006020808352600084546144d981614334565b808487015260406001808416600081146144fa576001811461451457614542565b60ff1985168984015283151560051b890183019550614542565b896000528660002060005b8581101561453a5781548b820186015290830190880161451f565b8a0184019650505b509398975050505050505050565b60006040828403121561456257600080fd5b6040516040810181811067ffffffffffffffff8211171561458557614585614229565b604052825161459381613f7b565b815260208301516145a381613f7b565b60208201529392505050565b601f821115610f7f57600081815260208120601f850160051c810160208610156145d65750805b601f850160051c820191505b818110156132b0578281556001016145e2565b815167ffffffffffffffff81111561460f5761460f614229565b6146238161461d8454614334565b846145af565b602080601f83116001811461465857600084156146405750858301515b600019600386901b1c1916600185901b1785556132b0565b600085815260208120601f198616915b8281101561468757888601518255948401946001909101908401614668565b50858210156146a55787850151600019600388901b60f8161c191681555b5050505050600190811b01905550565b600082516146c781846020870161414d565b9190910192915050565b8082028115828204841417610c1657610c166143f4565b60008261470557634e487b7160e01b600052601260045260246000fd5b500490565b7f416363657373436f6e74726f6c3a206163636f756e742000000000000000000081526000835161474281601785016020880161414d565b7f206973206d697373696e6720726f6c6520000000000000000000000000000000601791840191820152835161477f81602884016020880161414d565b01602801949350505050565b60008161479a5761479a6143f4565b50600019019056fea164736f6c6343000812000a",
  "linkReferences": {
    "contracts/libraries/LibOptimism.sol": {
      "LibOptimism": [
        {
          "length": 20,
          "start": 7301
        },
        {
          "length": 20,
          "start": 7758
        },
        {
          "length": 20,
          "start": 7923
        },
        {
          "length": 20,
          "start": 8886
        }
      ]
    }
  },
  "deployedLinkReferences": {
    "contracts/libraries/LibOptimism.sol": {
      "LibOptimism": [
        {
          "length": 20,
          "start": 7256
        },
        {
          "length": 20,
          "start": 7713
        },
        {
          "length": 20,
          "start": 7878
        },
        {
          "length": 20,
          "start": 8841
        }
      ]
    }
  }
}