{
  "_format": "hh-sol-artifact-1",
  "contractName": "CandidateProxy",
  "sourceName": "contracts/proxy/CandidateProxy.sol",
  "abi": [
    {
      "inputs": [],
      "stateMutability": "nonpayable",
      "type": "constructor"
    },
    {
      "anonymous": false,
      "inputs": [
        {
          "indexed": true,
          "internalType": "bytes32",
          "name": "role",
          "type": "bytes32"
        },
        {
          "indexed": true,
          "internalType": "bytes32",
          "name": "previousAdminRole",
          "type": "bytes32"
        },
        {
          "indexed": true,
          "internalType": "bytes32",
          "name": "newAdminRole",
          "type": "bytes32"
        }
      ],
      "name": "RoleAdminChanged",
      "type": "event"
    },
    {
      "anonymous": false,
      "inputs": [
        {
          "indexed": true,
          "internalType": "bytes32",
          "name": "role",
          "type": "bytes32"
        },
        {
          "indexed": true,
          "internalType": "address",
          "name": "account",
          "type": "address"
        },
        {
          "indexed": true,
          "internalType": "address",
          "name": "sender",
          "type": "address"
        }
      ],
      "name": "RoleGranted",
      "type": "event"
    },
    {
      "anonymous": false,
      "inputs": [
        {
          "indexed": true,
          "internalType": "bytes32",
          "name": "role",
          "type": "bytes32"
        },
        {
          "indexed": true,
          "internalType": "address",
          "name": "account",
          "type": "address"
        },
        {
          "indexed": true,
          "internalType": "address",
          "name": "sender",
          "type": "address"
        }
      ],
      "name": "RoleRevoked",
      "type": "event"
    },
    {
      "anonymous": false,
      "inputs": [
        {
          "indexed": true,
          "internalType": "address",
          "name": "impl",
          "type": "address"
        },
        {
          "indexed": false,
          "internalType": "bool",
          "name": "alive",
          "type": "bool"
        }
      ],
      "name": "SetAliveImplementation",
      "type": "event"
    },
    {
      "anonymous": false,
      "inputs": [
        {
          "indexed": true,
          "internalType": "bytes4",
          "name": "selector",
          "type": "bytes4"
        },
        {
          "indexed": true,
          "internalType": "address",
          "name": "impl",
          "type": "address"
        }
      ],
      "name": "SetSelectorImplementation",
      "type": "event"
    },
    {
      "anonymous": false,
      "inputs": [
        {
          "indexed": true,
          "internalType": "address",
          "name": "implementation",
          "type": "address"
        }
      ],
      "name": "Upgraded",
      "type": "event"
    },
    {
      "stateMutability": "payable",
      "type": "fallback"
    },
    {
      "inputs": [],
      "name": "ADMIN_ROLE",
      "outputs": [
        {
          "internalType": "bytes32",
          "name": "",
          "type": "bytes32"
        }
      ],
      "stateMutability": "view",
      "type": "function"
    },
    {
      "inputs": [],
      "name": "DEFAULT_ADMIN_ROLE",
      "outputs": [
        {
          "internalType": "bytes32",
          "name": "",
          "type": "bytes32"
        }
      ],
      "stateMutability": "view",
      "type": "function"
    },
    {
      "inputs": [],
      "name": "POLICY_ROLE",
      "outputs": [
        {
          "internalType": "bytes32",
          "name": "",
          "type": "bytes32"
        }
      ],
      "stateMutability": "view",
      "type": "function"
    },
    {
      "inputs": [
        {
          "internalType": "address",
          "name": "account",
          "type": "address"
        }
      ],
      "name": "addAdmin",
      "outputs": [],
      "stateMutability": "nonpayable",
      "type": "function"
    },
    {
      "inputs": [
        {
          "internalType": "address",
          "name": "",
          "type": "address"
        }
      ],
      "name": "aliveImplementation",
      "outputs": [
        {
          "internalType": "bool",
          "name": "",
          "type": "bool"
        }
      ],
      "stateMutability": "view",
      "type": "function"
    },
    {
      "inputs": [],
      "name": "fwReceipt",
      "outputs": [
        {
          "internalType": "address",
          "name": "",
          "type": "address"
        }
      ],
      "stateMutability": "view",
      "type": "function"
    },
    {
      "inputs": [
        {
          "internalType": "bytes32",
          "name": "role",
          "type": "bytes32"
        }
      ],
      "name": "getRoleAdmin",
      "outputs": [
        {
          "internalType": "bytes32",
          "name": "",
          "type": "bytes32"
        }
      ],
      "stateMutability": "view",
      "type": "function"
    },
    {
      "inputs": [
        {
          "internalType": "bytes4",
          "name": "_selector",
          "type": "bytes4"
        }
      ],
      "name": "getSelectorImplementation2",
      "outputs": [
        {
          "internalType": "address",
          "name": "impl",
          "type": "address"
        }
      ],
      "stateMutability": "view",
      "type": "function"
    },
    {
      "inputs": [
        {
          "internalType": "bytes32",
          "name": "role",
          "type": "bytes32"
        },
        {
          "internalType": "address",
          "name": "account",
          "type": "address"
        }
      ],
      "name": "grantRole",
      "outputs": [],
      "stateMutability": "nonpayable",
      "type": "function"
    },
    {
      "inputs": [
        {
          "internalType": "bytes32",
          "name": "role",
          "type": "bytes32"
        },
        {
          "internalType": "address",
          "name": "account",
          "type": "address"
        }
      ],
      "name": "hasRole",
      "outputs": [
        {
          "internalType": "bool",
          "name": "",
          "type": "bool"
        }
      ],
      "stateMutability": "view",
      "type": "function"
    },
    {
      "inputs": [],
      "name": "implementation",
      "outputs": [
        {
          "internalType": "address",
          "name": "",
          "type": "address"
        }
      ],
      "stateMutability": "view",
      "type": "function"
    },
    {
      "inputs": [
        {
          "internalType": "uint256",
          "name": "_index",
          "type": "uint256"
        }
      ],
      "name": "implementation2",
      "outputs": [
        {
          "internalType": "address",
          "name": "",
          "type": "address"
        }
      ],
      "stateMutability": "view",
      "type": "function"
    },
    {
      "inputs": [
        {
          "internalType": "address",
          "name": "_ton",
          "type": "address"
        },
        {
          "internalType": "address",
          "name": "_seigManagerV2",
          "type": "address"
        },
        {
          "internalType": "address",
          "name": "_layer2Manager",
          "type": "address"
        },
        {
          "internalType": "address",
          "name": "_fwReceipt",
          "type": "address"
        }
      ],
      "name": "initialize",
      "outputs": [],
      "stateMutability": "nonpayable",
      "type": "function"
    },
    {
      "inputs": [
        {
          "internalType": "address",
          "name": "account",
          "type": "address"
        }
      ],
      "name": "isAdmin",
      "outputs": [
        {
          "internalType": "bool",
          "name": "",
          "type": "bool"
        }
      ],
      "stateMutability": "view",
      "type": "function"
    },
    {
      "inputs": [],
      "name": "layer2Manager",
      "outputs": [
        {
          "internalType": "address",
          "name": "",
          "type": "address"
        }
      ],
      "stateMutability": "view",
      "type": "function"
    },
    {
      "inputs": [
        {
          "internalType": "uint32",
          "name": "",
          "type": "uint32"
        }
      ],
      "name": "layerInfo",
      "outputs": [
        {
          "internalType": "bytes",
          "name": "",
          "type": "bytes"
        }
      ],
      "stateMutability": "view",
      "type": "function"
    },
    {
      "inputs": [
        {
          "internalType": "uint32",
          "name": "",
          "type": "uint32"
        }
      ],
      "name": "layerStakedLton",
      "outputs": [
        {
          "internalType": "uint256",
          "name": "",
          "type": "uint256"
        }
      ],
      "stateMutability": "view",
      "type": "function"
    },
    {
      "inputs": [
        {
          "internalType": "uint32",
          "name": "",
          "type": "uint32"
        },
        {
          "internalType": "address",
          "name": "",
          "type": "address"
        }
      ],
      "name": "layerStakes",
      "outputs": [
        {
          "internalType": "uint256",
          "name": "stakePrincipal",
          "type": "uint256"
        },
        {
          "internalType": "uint256",
          "name": "stakelton",
          "type": "uint256"
        },
        {
          "internalType": "bool",
          "name": "stake",
          "type": "bool"
        }
      ],
      "stateMutability": "view",
      "type": "function"
    },
    {
      "inputs": [
        {
          "internalType": "uint32",
          "name": "",
          "type": "uint32"
        },
        {
          "internalType": "address",
          "name": "",
          "type": "address"
        }
      ],
      "name": "operators",
      "outputs": [
        {
          "internalType": "uint32",
          "name": "",
          "type": "uint32"
        }
      ],
      "stateMutability": "view",
      "type": "function"
    },
    {
      "inputs": [],
      "name": "pauseProxy",
      "outputs": [
        {
          "internalType": "bool",
          "name": "",
          "type": "bool"
        }
      ],
      "stateMutability": "view",
      "type": "function"
    },
    {
      "inputs": [
        {
          "internalType": "uint32",
          "name": "",
          "type": "uint32"
        },
        {
          "internalType": "address",
          "name": "",
          "type": "address"
        }
      ],
      "name": "pendingUnstaked",
      "outputs": [
        {
          "internalType": "uint256",
          "name": "",
          "type": "uint256"
        }
      ],
      "stateMutability": "view",
      "type": "function"
    },
    {
      "inputs": [
        {
          "internalType": "address",
          "name": "",
          "type": "address"
        }
      ],
      "name": "pendingUnstakedAccount",
      "outputs": [
        {
          "internalType": "uint256",
          "name": "",
          "type": "uint256"
        }
      ],
      "stateMutability": "view",
      "type": "function"
    },
    {
      "inputs": [
        {
          "internalType": "uint32",
          "name": "",
          "type": "uint32"
        }
      ],
      "name": "pendingUnstakedLayer2",
      "outputs": [
        {
          "internalType": "uint256",
          "name": "",
          "type": "uint256"
        }
      ],
      "stateMutability": "view",
      "type": "function"
    },
    {
      "inputs": [
        {
          "internalType": "uint256",
          "name": "",
          "type": "uint256"
        }
      ],
      "name": "proxyImplementation",
      "outputs": [
        {
          "internalType": "address",
          "name": "",
          "type": "address"
        }
      ],
      "stateMutability": "view",
      "type": "function"
    },
    {
      "inputs": [
        {
          "internalType": "address",
          "name": "account",
          "type": "address"
        }
      ],
      "name": "removeAdmin",
      "outputs": [],
      "stateMutability": "nonpayable",
      "type": "function"
    },
    {
      "inputs": [
        {
          "internalType": "bytes32",
          "name": "role",
          "type": "bytes32"
        },
        {
          "internalType": "address",
          "name": "account",
          "type": "address"
        }
      ],
      "name": "renounceRole",
      "outputs": [],
      "stateMutability": "nonpayable",
      "type": "function"
    },
    {
      "inputs": [
        {
          "internalType": "bytes32",
          "name": "role",
          "type": "bytes32"
        },
        {
          "internalType": "address",
          "name": "account",
          "type": "address"
        }
      ],
      "name": "revokeRole",
      "outputs": [],
      "stateMutability": "nonpayable",
      "type": "function"
    },
    {
      "inputs": [],
      "name": "seigManagerV2",
      "outputs": [
        {
          "internalType": "address",
          "name": "",
          "type": "address"
        }
      ],
      "stateMutability": "view",
      "type": "function"
    },
    {
      "inputs": [
        {
          "internalType": "bytes4",
          "name": "",
          "type": "bytes4"
        }
      ],
      "name": "selectorImplementation",
      "outputs": [
        {
          "internalType": "address",
          "name": "",
          "type": "address"
        }
      ],
      "stateMutability": "view",
      "type": "function"
    },
    {
      "inputs": [
        {
          "internalType": "address",
          "name": "newImplementation",
          "type": "address"
        },
        {
          "internalType": "bool",
          "name": "_alive",
          "type": "bool"
        }
      ],
      "name": "setAliveImplementation2",
      "outputs": [],
      "stateMutability": "nonpayable",
      "type": "function"
    },
    {
      "inputs": [
        {
          "internalType": "address",
          "name": "newImplementation",
          "type": "address"
        },
        {
          "internalType": "uint256",
          "name": "_index",
          "type": "uint256"
        },
        {
          "internalType": "bool",
          "name": "_alive",
          "type": "bool"
        }
      ],
      "name": "setImplementation2",
      "outputs": [],
      "stateMutability": "nonpayable",
      "type": "function"
    },
    {
      "inputs": [
        {
          "internalType": "bool",
          "name": "_pause",
          "type": "bool"
        }
      ],
      "name": "setProxyPause",
      "outputs": [],
      "stateMutability": "nonpayable",
      "type": "function"
    },
    {
      "inputs": [
        {
          "internalType": "bytes4[]",
          "name": "_selectors",
          "type": "bytes4[]"
        },
        {
          "internalType": "address",
          "name": "_imp",
          "type": "address"
        }
      ],
      "name": "setSelectorImplementations2",
      "outputs": [],
      "stateMutability": "nonpayable",
      "type": "function"
    },
    {
      "inputs": [
        {
          "internalType": "uint256",
          "name": "",
          "type": "uint256"
        }
      ],
      "name": "stakeAccountList",
      "outputs": [
        {
          "internalType": "address",
          "name": "",
          "type": "address"
        }
      ],
      "stateMutability": "view",
      "type": "function"
    },
    {
      "inputs": [
        {
          "internalType": "bytes4",
          "name": "interfaceId",
          "type": "bytes4"
        }
      ],
      "name": "supportsInterface",
      "outputs": [
        {
          "internalType": "bool",
          "name": "",
          "type": "bool"
        }
      ],
      "stateMutability": "view",
      "type": "function"
    },
    {
      "inputs": [],
      "name": "ton",
      "outputs": [
        {
          "internalType": "address",
          "name": "",
          "type": "address"
        }
      ],
      "stateMutability": "view",
      "type": "function"
    },
    {
      "inputs": [
        {
          "internalType": "address",
          "name": "newAdmin",
          "type": "address"
        }
      ],
      "name": "transferAdmin",
      "outputs": [],
      "stateMutability": "nonpayable",
      "type": "function"
    },
    {
      "inputs": [
        {
          "internalType": "address",
          "name": "impl",
          "type": "address"
        }
      ],
      "name": "upgradeTo",
      "outputs": [],
      "stateMutability": "nonpayable",
      "type": "function"
    },
    {
      "inputs": [
        {
          "internalType": "uint32",
          "name": "",
          "type": "uint32"
        },
        {
          "internalType": "address",
          "name": "",
          "type": "address"
        }
      ],
      "name": "withdrawalRequestIndex",
      "outputs": [
        {
          "internalType": "uint256",
          "name": "",
          "type": "uint256"
        }
      ],
      "stateMutability": "view",
      "type": "function"
    },
    {
      "inputs": [
        {
          "internalType": "uint32",
          "name": "",
          "type": "uint32"
        },
        {
          "internalType": "address",
          "name": "",
          "type": "address"
        },
        {
          "internalType": "uint256",
          "name": "",
          "type": "uint256"
        }
      ],
      "name": "withdrawalRequests",
      "outputs": [
        {
          "internalType": "uint32",
          "name": "withdrawableBlockNumber",
          "type": "uint32"
        },
        {
          "internalType": "uint128",
          "name": "amount",
          "type": "uint128"
        },
        {
          "internalType": "bool",
          "name": "processed",
          "type": "bool"
        }
      ],
      "stateMutability": "view",
      "type": "function"
    },
    {
      "stateMutability": "payable",
      "type": "receive"
    }
  ],
  "bytecode": "0x60806040526006805460ff191660011790553480156200001e57600080fd5b506200003a600080516020620022c48339815191528062000068565b62000055600080516020620022c483398151915233620000b3565b62000062600033620000b3565b62000163565b600082815260208190526040808220600101805490849055905190918391839186917fbd79b86ffe0ab8e8776151514217cd7cacd52c909f66475c3af44e129f0b00ff9190a4505050565b620000bf8282620000c3565b5050565b6000828152602081815260408083206001600160a01b038516845290915290205460ff16620000bf576000828152602081815260408083206001600160a01b03851684529091529020805460ff191660011790556200011f3390565b6001600160a01b0316816001600160a01b0316837f2f8788117e7eff1d82e926ec794901d17c78024a50270940304540a733656f0d60405160405180910390a45050565b61215180620001736000396000f3fe6080604052600436106102bf5760003560e01c806373469a7a1161016e578063a0b2a913116100cb578063d07918f11161007f578063ec110d4511610064578063ec110d4514610988578063f8c8765e146109a8578063fde48197146109c857610311565b8063d07918f114610948578063d547741f1461096857610311565b8063b911135f116100b0578063b911135f146108c0578063b9cab971146108f6578063cc48b9471461092357610311565b8063a0b2a9131461087e578063a217fddf146108ab57610311565b80637cf1587c116101225780638d4fdb40116101075780638d4fdb40146107b357806391d14854146107d35780639c656e261461081757610311565b80637cf1587c1461075b5780638b8f4a651461079357610311565b806375b238fc1161015357806375b238fc146106e75780637cb00d251461071b5780637cd5f6631461073b57610311565b806373469a7a146106a757806375829def146106c757610311565b806350d2a2761161021c57806363a8fd89116101d05780636d1ef103116101b55780636d1ef10314610605578063704802751461065a57806370619cf91461067a57610311565b806363a8fd89146105be578063659ab820146105d857610311565b80635c60da1b116102015780635c60da1b146105205780635cc797d8146105665780635e2cfe451461058657610311565b806350d2a276146104ba578063550d01a3146104f057610311565b806324d7806c1161027357806336568abe1161025857806336568abe1461045a5780633659cfe61461047a5780634a5df50f1461049a57610311565b806324d7806c1461041a5780632f2ff15d1461043a57610311565b80631785f53c116102a45780631785f53c1461038857806322985246146103a8578063248a9ca3146103ea57610311565b806301ffc9a71461031b57806316b5d5bd1461035057610311565b366103115760405162461bcd60e51b815260206004820152601460248201527f63616e6e6f74207265636569766520457468657200000000000000000000000060448201526064015b60405180910390fd5b610319610a1b565b005b34801561032757600080fd5b5061033b610336366004611cd4565b610ac4565b60405190151581526020015b60405180910390f35b34801561035c57600080fd5b50600854610370906001600160a01b031681565b6040516001600160a01b039091168152602001610347565b34801561039457600080fd5b506103196103a3366004611d15565b610af6565b3480156103b457600080fd5b506103dc7ffb5864e8ff833c3cb2d2d08505e82ff02a43554c74a35d4f5a64e8526127831181565b604051908152602001610347565b3480156103f657600080fd5b506103dc610405366004611d30565b60009081526020819052604090206001015490565b34801561042657600080fd5b5061033b610435366004611d15565b610b71565b34801561044657600080fd5b50610319610455366004611d49565b610bb1565b34801561046657600080fd5b50610319610475366004611d49565b610bd6565b34801561048657600080fd5b50610319610495366004611d15565b610c62565b3480156104a657600080fd5b506103196104b5366004611d75565b610dbb565b3480156104c657600080fd5b506103706104d5366004611cd4565b6004602052600090815260409020546001600160a01b031681565b3480156104fc57600080fd5b5061033b61050b366004611d15565b60036020526000908152604090205460ff1681565b34801561052c57600080fd5b506000805260026020527fac33ff75c19e70fe83507db0d683fd3465c996598dc972688b7ace676c89077b546001600160a01b0316610370565b34801561057257600080fd5b50610319610581366004611e09565b61105b565b34801561059257600080fd5b506103dc6105a1366004611e47565b601360209081526000928352604080842090915290825290205481565b3480156105ca57600080fd5b5060015461033b9060ff1681565b3480156105e457600080fd5b506105f86105f3366004611e71565b6110b3565b6040516103479190611edc565b34801561061157600080fd5b50610625610620366004611eef565b61114d565b6040805163ffffffff90941684526fffffffffffffffffffffffffffffffff9092166020840152151590820152606001610347565b34801561066657600080fd5b50610319610675366004611d15565b6111c6565b34801561068657600080fd5b506103dc610695366004611e71565b600d6020526000908152604090205481565b3480156106b357600080fd5b50600754610370906001600160a01b031681565b3480156106d357600080fd5b506103196106e2366004611d15565b61123e565b3480156106f357600080fd5b506103dc7fdf8b4c520ffe197c5343c6f5aec59570151ef9a492f2c624fd45ddde6135ec4281565b34801561072757600080fd5b50610319610736366004611f2b565b61138e565b34801561074757600080fd5b50610319610756366004611f46565b6113ef565b34801561076757600080fd5b506103dc610776366004611e47565b601260209081526000928352604080842090915290825290205481565b34801561079f57600080fd5b506103706107ae366004611d30565b611448565b3480156107bf57600080fd5b506103706107ce366004611cd4565b611465565b3480156107df57600080fd5b5061033b6107ee366004611d49565b6000918252602082815260408084206001600160a01b0393909316845291905290205460ff1690565b34801561082357600080fd5b50610861610832366004611e47565b600f60209081526000928352604080842090915290825290208054600182015460029092015490919060ff1683565b604080519384526020840192909252151590820152606001610347565b34801561088a57600080fd5b506103dc610899366004611d15565b60156020526000908152604090205481565b3480156108b757600080fd5b506103dc600081565b3480156108cc57600080fd5b506103706108db366004611d30565b6002602052600090815260409020546001600160a01b031681565b34801561090257600080fd5b506103dc610911366004611e71565b60146020526000908152604090205481565b34801561092f57600080fd5b506006546103709061010090046001600160a01b031681565b34801561095457600080fd5b50600954610370906001600160a01b031681565b34801561097457600080fd5b50610319610983366004611d49565b611561565b34801561099457600080fd5b506103706109a3366004611d30565b611586565b3480156109b457600080fd5b506103196109c3366004611f79565b6115b0565b3480156109d457600080fd5b50610a066109e3366004611e47565b601860209081526000928352604080842090915290825290205463ffffffff1681565b60405163ffffffff9091168152602001610347565b6000610a326000356001600160e01b031916611465565b90506001600160a01b03811615801590610a4f575060015460ff16155b610a9b5760405162461bcd60e51b815260206004820152601d60248201527f50726f78793a20696d706c204f522070726f78792069732066616c73650000006044820152606401610308565b3660008037600080366000845af43d6000803e808015610aba573d6000f35b3d6000fd5b505050565b6001600160e01b0319811660009081526005602052604081205460ff1680610af05750610af0826117da565b92915050565b610aff33610b71565b610b445760405162461bcd60e51b8152602060048201526022602482015260008051602061212583398151915260448201526134b760f11b6064820152608401610308565b610b6e7fdf8b4c520ffe197c5343c6f5aec59570151ef9a492f2c624fd45ddde6135ec4282610bd6565b50565b6001600160a01b03811660009081527f5cbfc8ee58ca47855df7bcf648dd304ddb6b932f9b87878bdf6318d7ec7ee5b7602052604081205460ff16610af0565b600082815260208190526040902060010154610bcc8161180f565b610abf8383611819565b6001600160a01b0381163314610c545760405162461bcd60e51b815260206004820152602f60248201527f416363657373436f6e74726f6c3a2063616e206f6e6c792072656e6f756e636560448201527f20726f6c657320666f722073656c6600000000000000000000000000000000006064820152608401610308565b610c5e82826118b7565b5050565b610c6b33610b71565b610cb05760405162461bcd60e51b8152602060048201526022602482015260008051602061212583398151915260448201526134b760f11b6064820152608401610308565b6001600160a01b038116610d065760405162461bcd60e51b815260206004820152600d60248201527f696e707574206973207a65726f000000000000000000000000000000000000006044820152606401610308565b6000805260026020527fac33ff75c19e70fe83507db0d683fd3465c996598dc972688b7ace676c89077b546001600160a01b03828116911603610d775760405162461bcd60e51b815260206004820152600960248201526839b0b6b29030b2323960b91b6044820152606401610308565b610d848160006001611936565b6040516001600160a01b038216907fbc7cd75a20ee27fd9adebab32041f755214dbc6bffa90cc0225b39da2e5c2d3b90600090a250565b610dc433610b71565b610e095760405162461bcd60e51b8152602060048201526022602482015260008051602061212583398151915260448201526134b760f11b6064820152608401610308565b81610e565760405162461bcd60e51b815260206004820181905260248201527f50726f78793a205f73656c6563746f727327732073697a65206973207a65726f6044820152606401610308565b6001600160a01b03811660009081526003602052604090205460ff16610ebe5760405162461bcd60e51b815260206004820152601860248201527f50726f78793a205f696d70206973206e6f7420616c69766500000000000000006044820152606401610308565b60005b8281101561105557816001600160a01b031660046000868685818110610ee957610ee9611fcd565b9050602002016020810190610efe9190611cd4565b6001600160e01b03191681526020810191909152604001600020546001600160a01b031603610f6f5760405162461bcd60e51b815260206004820152601d60248201527f4c69717569646974795661756c7450726f78793a2073616d6520696d700000006044820152606401610308565b8160046000868685818110610f8657610f86611fcd565b9050602002016020810190610f9b9190611cd4565b6001600160e01b0319168152602081019190915260400160002080546001600160a01b0319166001600160a01b039283161790558216848483818110610fe357610fe3611fcd565b9050602002016020810190610ff89190611cd4565b7bffffffffffffffffffffffffffffffffffffffffffffffffffffffff19167f14ebc1c32aa68f4d766e89f3e546cee249f7df25183fc10ab1568d91c2ce9b7b60405160405180910390a38061104d81611ff9565b915050610ec1565b50505050565b61106433610b71565b6110a95760405162461bcd60e51b8152602060048201526022602482015260008051602061212583398151915260448201526134b760f11b6064820152608401610308565b610c5e82826119c1565b601660205260009081526040902080546110cc90612012565b80601f01602080910402602001604051908101604052809291908181526020018280546110f890612012565b80156111455780601f1061111a57610100808354040283529160200191611145565b820191906000526020600020905b81548152906001019060200180831161112857829003601f168201915b505050505081565b6011602052826000526040600020602052816000526040600020818154811061117557600080fd5b60009182526020909120015463ffffffff8116935064010000000081046fffffffffffffffffffffffffffffffff16925074010000000000000000000000000000000000000000900460ff16905083565b6111cf33610b71565b6112145760405162461bcd60e51b8152602060048201526022602482015260008051602061212583398151915260448201526134b760f11b6064820152608401610308565b610b6e7fdf8b4c520ffe197c5343c6f5aec59570151ef9a492f2c624fd45ddde6135ec4282610bb1565b61124733610b71565b61128c5760405162461bcd60e51b8152602060048201526022602482015260008051602061212583398151915260448201526134b760f11b6064820152608401610308565b6001600160a01b0381166112e25760405162461bcd60e51b815260206004820152601860248201527f41636365737369626c653a207a65726f206164647265737300000000000000006044820152606401610308565b6001600160a01b038116330361133a5760405162461bcd60e51b815260206004820152601660248201527f41636365737369626c653a2073616d652061646d696e000000000000000000006044820152606401610308565b6113647fdf8b4c520ffe197c5343c6f5aec59570151ef9a492f2c624fd45ddde6135ec4282610bb1565b610b6e7fdf8b4c520ffe197c5343c6f5aec59570151ef9a492f2c624fd45ddde6135ec4233610bd6565b61139733610b71565b6113dc5760405162461bcd60e51b8152602060048201526022602482015260008051602061212583398151915260448201526134b760f11b6064820152608401610308565b6001805460ff1916911515919091179055565b6113f833610b71565b61143d5760405162461bcd60e51b8152602060048201526022602482015260008051602061212583398151915260448201526134b760f11b6064820152608401610308565b610abf838383611936565b6000818152600260205260408120546001600160a01b0316610af0565b6001600160e01b031981166000908152600460205260408120546001600160a01b03166114c55750506000805260026020527fac33ff75c19e70fe83507db0d683fd3465c996598dc972688b7ace676c89077b546001600160a01b031690565b6001600160e01b031982166000908152600460209081526040808320546001600160a01b03168352600390915290205460ff161561152357506001600160e01b0319166000908152600460205260409020546001600160a01b031690565b50506000805260026020527fac33ff75c19e70fe83507db0d683fd3465c996598dc972688b7ace676c89077b546001600160a01b031690565b919050565b60008281526020819052604090206001015461157c8161180f565b610abf83836118b7565b6017818154811061159657600080fd5b6000918252602090912001546001600160a01b0316905081565b6115b933610b71565b6115fe5760405162461bcd60e51b8152602060048201526022602482015260008051602061212583398151915260448201526134b760f11b6064820152608401610308565b836001600160a01b03811661163a5760405162461bcd60e51b81526020600482015260026024820152612d1960f11b6044820152606401610308565b836001600160a01b0381166116765760405162461bcd60e51b81526020600482015260026024820152612d1960f11b6044820152606401610308565b836001600160a01b0381166116b25760405162461bcd60e51b81526020600482015260026024820152612d1960f11b6044820152606401610308565b836001600160a01b0381166116ee5760405162461bcd60e51b81526020600482015260026024820152612d1960f11b6044820152606401610308565b60065461010090046001600160a01b03161561174c5760405162461bcd60e51b815260206004820152601260248201527f616c726561647920696e697469616c697a6500000000000000000000000000006044820152606401610308565b600780546001600160a01b03199081166001600160a01b038a8116919091179092556006805474ffffffffffffffffffffffffffffffffffffffff0019166101008c851602179055600880548216898416179055600980549091169187169190911790556117c0632139e50b60e11b611a20565b6117d06301ffc9a760e01b611a20565b5050505050505050565b60006001600160e01b03198216637965db0b60e01b1480610af057506301ffc9a760e01b6001600160e01b0319831614610af0565b610b6e8133611a9f565b6000828152602081815260408083206001600160a01b038516845290915290205460ff16610c5e576000828152602081815260408083206001600160a01b03851684529091529020805460ff191660011790556118733390565b6001600160a01b0316816001600160a01b0316837f2f8788117e7eff1d82e926ec794901d17c78024a50270940304540a733656f0d60405160405180910390a45050565b6000828152602081815260408083206001600160a01b038516845290915290205460ff1615610c5e576000828152602081815260408083206001600160a01b0385168085529252808320805460ff1916905551339285917ff6391f5c32d9c69d2a47ea670b442974b53935d1edc7fd64eb21e047a839171b9190a45050565b6001600160a01b0383163b61198d5760405162461bcd60e51b815260206004820152601b60248201527f50726f78793a206e6f7420636f6e7472616374206164647265737300000000006044820152606401610308565b80156119bb57600082815260026020526040902080546001600160a01b0319166001600160a01b0385161790555b610abf83825b6001600160a01b038216600081815260036020908152604091829020805460ff191685151590811790915591519182527f72558d9bfba4210f9ef095c782589484151f6d90f7a81bb3cb9b33efc695d324910160405180910390a25050565b6001600160e01b03198082169003611a7a5760405162461bcd60e51b815260206004820152601c60248201527f4552433136353a20696e76616c696420696e74657266616365206964000000006044820152606401610308565b6001600160e01b0319166000908152600560205260409020805460ff19166001179055565b6000828152602081815260408083206001600160a01b038516845290915290205460ff16610c5e57611ad081611b12565b611adb836020611b24565b604051602001611aec92919061204c565b60408051601f198184030181529082905262461bcd60e51b825261030891600401611edc565b6060610af06001600160a01b03831660145b60606000611b338360026120cd565b611b3e9060026120e4565b67ffffffffffffffff811115611b5657611b566120f7565b6040519080825280601f01601f191660200182016040528015611b80576020820181803683370190505b509050600360fc1b81600081518110611b9b57611b9b611fcd565b60200101906001600160f81b031916908160001a905350600f60fb1b81600181518110611bca57611bca611fcd565b60200101906001600160f81b031916908160001a9053506000611bee8460026120cd565b611bf99060016120e4565b90505b6001811115611c7e577f303132333435363738396162636465660000000000000000000000000000000085600f1660108110611c3a57611c3a611fcd565b1a60f81b828281518110611c5057611c50611fcd565b60200101906001600160f81b031916908160001a90535060049490941c93611c778161210d565b9050611bfc565b508315611ccd5760405162461bcd60e51b815260206004820181905260248201527f537472696e67733a20686578206c656e67746820696e73756666696369656e746044820152606401610308565b9392505050565b600060208284031215611ce657600080fd5b81356001600160e01b031981168114611ccd57600080fd5b80356001600160a01b038116811461155c57600080fd5b600060208284031215611d2757600080fd5b611ccd82611cfe565b600060208284031215611d4257600080fd5b5035919050565b60008060408385031215611d5c57600080fd5b82359150611d6c60208401611cfe565b90509250929050565b600080600060408486031215611d8a57600080fd5b833567ffffffffffffffff80821115611da257600080fd5b818601915086601f830112611db657600080fd5b813581811115611dc557600080fd5b8760208260051b8501011115611dda57600080fd5b602092830195509350611df09186019050611cfe565b90509250925092565b8035801515811461155c57600080fd5b60008060408385031215611e1c57600080fd5b611e2583611cfe565b9150611d6c60208401611df9565b803563ffffffff8116811461155c57600080fd5b60008060408385031215611e5a57600080fd5b611e6383611e33565b9150611d6c60208401611cfe565b600060208284031215611e8357600080fd5b611ccd82611e33565b60005b83811015611ea7578181015183820152602001611e8f565b50506000910152565b60008151808452611ec8816020860160208601611e8c565b601f01601f19169290920160200192915050565b602081526000611ccd6020830184611eb0565b600080600060608486031215611f0457600080fd5b611f0d84611e33565b9250611f1b60208501611cfe565b9150604084013590509250925092565b600060208284031215611f3d57600080fd5b611ccd82611df9565b600080600060608486031215611f5b57600080fd5b611f6484611cfe565b925060208401359150611df060408501611df9565b60008060008060808587031215611f8f57600080fd5b611f9885611cfe565b9350611fa660208601611cfe565b9250611fb460408601611cfe565b9150611fc260608601611cfe565b905092959194509250565b634e487b7160e01b600052603260045260246000fd5b634e487b7160e01b600052601160045260246000fd5b60006001820161200b5761200b611fe3565b5060010190565b600181811c9082168061202657607f821691505b60208210810361204657634e487b7160e01b600052602260045260246000fd5b50919050565b7f416363657373436f6e74726f6c3a206163636f756e7420000000000000000000815260008351612084816017850160208801611e8c565b7f206973206d697373696e6720726f6c652000000000000000000000000000000060179184019182015283516120c1816028840160208801611e8c565b01602801949350505050565b8082028115828204841417610af057610af0611fe3565b80820180821115610af057610af0611fe3565b634e487b7160e01b600052604160045260246000fd5b60008161211c5761211c611fe3565b50600019019056fe41636365737369626c653a2043616c6c6572206973206e6f7420616e2061646da164736f6c6343000812000adf8b4c520ffe197c5343c6f5aec59570151ef9a492f2c624fd45ddde6135ec42",
  "linkReferences": {},
  "deployedLinkReferences": {}
}