{
  "_format": "hh-sol-artifact-1",
  "contractName": "CandidateProxy",
  "sourceName": "contracts/proxy/CandidateProxy.sol",
  "abi": [
    {
      "inputs": [],
      "stateMutability": "nonpayable",
      "type": "constructor"
    },
    {
      "anonymous": false,
      "inputs": [
        {
          "indexed": true,
          "internalType": "bytes32",
          "name": "role",
          "type": "bytes32"
        },
        {
          "indexed": true,
          "internalType": "bytes32",
          "name": "previousAdminRole",
          "type": "bytes32"
        },
        {
          "indexed": true,
          "internalType": "bytes32",
          "name": "newAdminRole",
          "type": "bytes32"
        }
      ],
      "name": "RoleAdminChanged",
      "type": "event"
    },
    {
      "anonymous": false,
      "inputs": [
        {
          "indexed": true,
          "internalType": "bytes32",
          "name": "role",
          "type": "bytes32"
        },
        {
          "indexed": true,
          "internalType": "address",
          "name": "account",
          "type": "address"
        },
        {
          "indexed": true,
          "internalType": "address",
          "name": "sender",
          "type": "address"
        }
      ],
      "name": "RoleGranted",
      "type": "event"
    },
    {
      "anonymous": false,
      "inputs": [
        {
          "indexed": true,
          "internalType": "bytes32",
          "name": "role",
          "type": "bytes32"
        },
        {
          "indexed": true,
          "internalType": "address",
          "name": "account",
          "type": "address"
        },
        {
          "indexed": true,
          "internalType": "address",
          "name": "sender",
          "type": "address"
        }
      ],
      "name": "RoleRevoked",
      "type": "event"
    },
    {
      "anonymous": false,
      "inputs": [
        {
          "indexed": true,
          "internalType": "address",
          "name": "impl",
          "type": "address"
        },
        {
          "indexed": false,
          "internalType": "bool",
          "name": "alive",
          "type": "bool"
        }
      ],
      "name": "SetAliveImplementation",
      "type": "event"
    },
    {
      "anonymous": false,
      "inputs": [
        {
          "indexed": true,
          "internalType": "bytes4",
          "name": "selector",
          "type": "bytes4"
        },
        {
          "indexed": true,
          "internalType": "address",
          "name": "impl",
          "type": "address"
        }
      ],
      "name": "SetSelectorImplementation",
      "type": "event"
    },
    {
      "anonymous": false,
      "inputs": [
        {
          "indexed": true,
          "internalType": "address",
          "name": "implementation",
          "type": "address"
        }
      ],
      "name": "Upgraded",
      "type": "event"
    },
    {
      "stateMutability": "payable",
      "type": "fallback"
    },
    {
      "inputs": [],
      "name": "ADMIN_ROLE",
      "outputs": [
        {
          "internalType": "bytes32",
          "name": "",
          "type": "bytes32"
        }
      ],
      "stateMutability": "view",
      "type": "function"
    },
    {
      "inputs": [],
      "name": "DEFAULT_ADMIN_ROLE",
      "outputs": [
        {
          "internalType": "bytes32",
          "name": "",
          "type": "bytes32"
        }
      ],
      "stateMutability": "view",
      "type": "function"
    },
    {
      "inputs": [],
      "name": "POLICY_ROLE",
      "outputs": [
        {
          "internalType": "bytes32",
          "name": "",
          "type": "bytes32"
        }
      ],
      "stateMutability": "view",
      "type": "function"
    },
    {
      "inputs": [
        {
          "internalType": "address",
          "name": "account",
          "type": "address"
        }
      ],
      "name": "addAdmin",
      "outputs": [],
      "stateMutability": "nonpayable",
      "type": "function"
    },
    {
      "inputs": [
        {
          "internalType": "address",
          "name": "",
          "type": "address"
        }
      ],
      "name": "aliveImplementation",
      "outputs": [
        {
          "internalType": "bool",
          "name": "",
          "type": "bool"
        }
      ],
      "stateMutability": "view",
      "type": "function"
    },
    {
      "inputs": [],
      "name": "fwReceipt",
      "outputs": [
        {
          "internalType": "address",
          "name": "",
          "type": "address"
        }
      ],
      "stateMutability": "view",
      "type": "function"
    },
    {
      "inputs": [
        {
          "internalType": "bytes32",
          "name": "role",
          "type": "bytes32"
        }
      ],
      "name": "getRoleAdmin",
      "outputs": [
        {
          "internalType": "bytes32",
          "name": "",
          "type": "bytes32"
        }
      ],
      "stateMutability": "view",
      "type": "function"
    },
    {
      "inputs": [
        {
          "internalType": "bytes4",
          "name": "_selector",
          "type": "bytes4"
        }
      ],
      "name": "getSelectorImplementation2",
      "outputs": [
        {
          "internalType": "address",
          "name": "impl",
          "type": "address"
        }
      ],
      "stateMutability": "view",
      "type": "function"
    },
    {
      "inputs": [
        {
          "internalType": "bytes32",
          "name": "role",
          "type": "bytes32"
        },
        {
          "internalType": "address",
          "name": "account",
          "type": "address"
        }
      ],
      "name": "grantRole",
      "outputs": [],
      "stateMutability": "nonpayable",
      "type": "function"
    },
    {
      "inputs": [
        {
          "internalType": "bytes32",
          "name": "role",
          "type": "bytes32"
        },
        {
          "internalType": "address",
          "name": "account",
          "type": "address"
        }
      ],
      "name": "hasRole",
      "outputs": [
        {
          "internalType": "bool",
          "name": "",
          "type": "bool"
        }
      ],
      "stateMutability": "view",
      "type": "function"
    },
    {
      "inputs": [],
      "name": "implementation",
      "outputs": [
        {
          "internalType": "address",
          "name": "",
          "type": "address"
        }
      ],
      "stateMutability": "view",
      "type": "function"
    },
    {
      "inputs": [
        {
          "internalType": "uint256",
          "name": "_index",
          "type": "uint256"
        }
      ],
      "name": "implementation2",
      "outputs": [
        {
          "internalType": "address",
          "name": "",
          "type": "address"
        }
      ],
      "stateMutability": "view",
      "type": "function"
    },
    {
      "inputs": [
        {
          "internalType": "address",
          "name": "_ton",
          "type": "address"
        },
        {
          "internalType": "address",
          "name": "_seigManagerV2",
          "type": "address"
        },
        {
          "internalType": "address",
          "name": "_layer2Manager",
          "type": "address"
        },
        {
          "internalType": "address",
          "name": "_fwReceipt",
          "type": "address"
        }
      ],
      "name": "initialize",
      "outputs": [],
      "stateMutability": "nonpayable",
      "type": "function"
    },
    {
      "inputs": [
        {
          "internalType": "address",
          "name": "account",
          "type": "address"
        }
      ],
      "name": "isAdmin",
      "outputs": [
        {
          "internalType": "bool",
          "name": "",
          "type": "bool"
        }
      ],
      "stateMutability": "view",
      "type": "function"
    },
    {
      "inputs": [],
      "name": "layer2Manager",
      "outputs": [
        {
          "internalType": "address",
          "name": "",
          "type": "address"
        }
      ],
      "stateMutability": "view",
      "type": "function"
    },
    {
      "inputs": [
        {
          "internalType": "uint32",
          "name": "",
          "type": "uint32"
        }
      ],
      "name": "layerInfo",
      "outputs": [
        {
          "internalType": "bytes",
          "name": "",
          "type": "bytes"
        }
      ],
      "stateMutability": "view",
      "type": "function"
    },
    {
      "inputs": [
        {
          "internalType": "uint32",
          "name": "",
          "type": "uint32"
        }
      ],
      "name": "layerStakedLton",
      "outputs": [
        {
          "internalType": "uint256",
          "name": "",
          "type": "uint256"
        }
      ],
      "stateMutability": "view",
      "type": "function"
    },
    {
      "inputs": [
        {
          "internalType": "uint32",
          "name": "",
          "type": "uint32"
        },
        {
          "internalType": "address",
          "name": "",
          "type": "address"
        }
      ],
      "name": "layerStakes",
      "outputs": [
        {
          "internalType": "uint256",
          "name": "stakePrincipal",
          "type": "uint256"
        },
        {
          "internalType": "uint256",
          "name": "bondPrincipal",
          "type": "uint256"
        },
        {
          "internalType": "uint256",
          "name": "stakelton",
          "type": "uint256"
        },
        {
          "internalType": "bool",
          "name": "stake",
          "type": "bool"
        }
      ],
      "stateMutability": "view",
      "type": "function"
    },
    {
      "inputs": [
        {
          "internalType": "uint32",
          "name": "",
          "type": "uint32"
        },
        {
          "internalType": "address",
          "name": "",
          "type": "address"
        }
      ],
      "name": "operators",
      "outputs": [
        {
          "internalType": "uint32",
          "name": "",
          "type": "uint32"
        }
      ],
      "stateMutability": "view",
      "type": "function"
    },
    {
      "inputs": [],
      "name": "pauseProxy",
      "outputs": [
        {
          "internalType": "bool",
          "name": "",
          "type": "bool"
        }
      ],
      "stateMutability": "view",
      "type": "function"
    },
    {
      "inputs": [
        {
          "internalType": "uint32",
          "name": "",
          "type": "uint32"
        },
        {
          "internalType": "address",
          "name": "",
          "type": "address"
        }
      ],
      "name": "pendingUnstaked",
      "outputs": [
        {
          "internalType": "uint256",
          "name": "",
          "type": "uint256"
        }
      ],
      "stateMutability": "view",
      "type": "function"
    },
    {
      "inputs": [
        {
          "internalType": "address",
          "name": "",
          "type": "address"
        }
      ],
      "name": "pendingUnstakedAccount",
      "outputs": [
        {
          "internalType": "uint256",
          "name": "",
          "type": "uint256"
        }
      ],
      "stateMutability": "view",
      "type": "function"
    },
    {
      "inputs": [
        {
          "internalType": "uint32",
          "name": "",
          "type": "uint32"
        }
      ],
      "name": "pendingUnstakedLayer2",
      "outputs": [
        {
          "internalType": "uint256",
          "name": "",
          "type": "uint256"
        }
      ],
      "stateMutability": "view",
      "type": "function"
    },
    {
      "inputs": [
        {
          "internalType": "uint256",
          "name": "",
          "type": "uint256"
        }
      ],
      "name": "proxyImplementation",
      "outputs": [
        {
          "internalType": "address",
          "name": "",
          "type": "address"
        }
      ],
      "stateMutability": "view",
      "type": "function"
    },
    {
      "inputs": [
        {
          "internalType": "address",
          "name": "account",
          "type": "address"
        }
      ],
      "name": "removeAdmin",
      "outputs": [],
      "stateMutability": "nonpayable",
      "type": "function"
    },
    {
      "inputs": [
        {
          "internalType": "bytes32",
          "name": "role",
          "type": "bytes32"
        },
        {
          "internalType": "address",
          "name": "account",
          "type": "address"
        }
      ],
      "name": "renounceRole",
      "outputs": [],
      "stateMutability": "nonpayable",
      "type": "function"
    },
    {
      "inputs": [
        {
          "internalType": "bytes32",
          "name": "role",
          "type": "bytes32"
        },
        {
          "internalType": "address",
          "name": "account",
          "type": "address"
        }
      ],
      "name": "revokeRole",
      "outputs": [],
      "stateMutability": "nonpayable",
      "type": "function"
    },
    {
      "inputs": [],
      "name": "seigManagerV2",
      "outputs": [
        {
          "internalType": "address",
          "name": "",
          "type": "address"
        }
      ],
      "stateMutability": "view",
      "type": "function"
    },
    {
      "inputs": [
        {
          "internalType": "bytes4",
          "name": "",
          "type": "bytes4"
        }
      ],
      "name": "selectorImplementation",
      "outputs": [
        {
          "internalType": "address",
          "name": "",
          "type": "address"
        }
      ],
      "stateMutability": "view",
      "type": "function"
    },
    {
      "inputs": [
        {
          "internalType": "address",
          "name": "newImplementation",
          "type": "address"
        },
        {
          "internalType": "bool",
          "name": "_alive",
          "type": "bool"
        }
      ],
      "name": "setAliveImplementation2",
      "outputs": [],
      "stateMutability": "nonpayable",
      "type": "function"
    },
    {
      "inputs": [
        {
          "internalType": "address",
          "name": "newImplementation",
          "type": "address"
        },
        {
          "internalType": "uint256",
          "name": "_index",
          "type": "uint256"
        },
        {
          "internalType": "bool",
          "name": "_alive",
          "type": "bool"
        }
      ],
      "name": "setImplementation2",
      "outputs": [],
      "stateMutability": "nonpayable",
      "type": "function"
    },
    {
      "inputs": [
        {
          "internalType": "bool",
          "name": "_pause",
          "type": "bool"
        }
      ],
      "name": "setProxyPause",
      "outputs": [],
      "stateMutability": "nonpayable",
      "type": "function"
    },
    {
      "inputs": [
        {
          "internalType": "bytes4[]",
          "name": "_selectors",
          "type": "bytes4[]"
        },
        {
          "internalType": "address",
          "name": "_imp",
          "type": "address"
        }
      ],
      "name": "setSelectorImplementations2",
      "outputs": [],
      "stateMutability": "nonpayable",
      "type": "function"
    },
    {
      "inputs": [
        {
          "internalType": "uint256",
          "name": "",
          "type": "uint256"
        }
      ],
      "name": "stakeAccountList",
      "outputs": [
        {
          "internalType": "address",
          "name": "",
          "type": "address"
        }
      ],
      "stateMutability": "view",
      "type": "function"
    },
    {
      "inputs": [
        {
          "internalType": "bytes4",
          "name": "interfaceId",
          "type": "bytes4"
        }
      ],
      "name": "supportsInterface",
      "outputs": [
        {
          "internalType": "bool",
          "name": "",
          "type": "bool"
        }
      ],
      "stateMutability": "view",
      "type": "function"
    },
    {
      "inputs": [],
      "name": "ton",
      "outputs": [
        {
          "internalType": "address",
          "name": "",
          "type": "address"
        }
      ],
      "stateMutability": "view",
      "type": "function"
    },
    {
      "inputs": [],
      "name": "totalStakedLton",
      "outputs": [
        {
          "internalType": "uint256",
          "name": "",
          "type": "uint256"
        }
      ],
      "stateMutability": "view",
      "type": "function"
    },
    {
      "inputs": [
        {
          "internalType": "address",
          "name": "newAdmin",
          "type": "address"
        }
      ],
      "name": "transferAdmin",
      "outputs": [],
      "stateMutability": "nonpayable",
      "type": "function"
    },
    {
      "inputs": [
        {
          "internalType": "address",
          "name": "impl",
          "type": "address"
        }
      ],
      "name": "upgradeTo",
      "outputs": [],
      "stateMutability": "nonpayable",
      "type": "function"
    },
    {
      "inputs": [
        {
          "internalType": "uint32",
          "name": "",
          "type": "uint32"
        },
        {
          "internalType": "address",
          "name": "",
          "type": "address"
        }
      ],
      "name": "withdrawalRequestIndex",
      "outputs": [
        {
          "internalType": "uint256",
          "name": "",
          "type": "uint256"
        }
      ],
      "stateMutability": "view",
      "type": "function"
    },
    {
      "inputs": [
        {
          "internalType": "uint32",
          "name": "",
          "type": "uint32"
        },
        {
          "internalType": "address",
          "name": "",
          "type": "address"
        },
        {
          "internalType": "uint256",
          "name": "",
          "type": "uint256"
        }
      ],
      "name": "withdrawalRequests",
      "outputs": [
        {
          "internalType": "uint32",
          "name": "withdrawableBlockNumber",
          "type": "uint32"
        },
        {
          "internalType": "uint128",
          "name": "amount",
          "type": "uint128"
        },
        {
          "internalType": "bool",
          "name": "processed",
          "type": "bool"
        }
      ],
      "stateMutability": "view",
      "type": "function"
    },
    {
      "stateMutability": "payable",
      "type": "receive"
    }
  ],
  "bytecode": "0x60806040526006805460ff191660011790553480156200001e57600080fd5b506200003a600080516020620022f08339815191528062000068565b62000055600080516020620022f083398151915233620000b3565b62000062600033620000b3565b62000163565b600082815260208190526040808220600101805490849055905190918391839186917fbd79b86ffe0ab8e8776151514217cd7cacd52c909f66475c3af44e129f0b00ff9190a4505050565b620000bf8282620000c3565b5050565b6000828152602081815260408083206001600160a01b038516845290915290205460ff16620000bf576000828152602081815260408083206001600160a01b03851684529091529020805460ff191660011790556200011f3390565b6001600160a01b0316816001600160a01b0316837f2f8788117e7eff1d82e926ec794901d17c78024a50270940304540a733656f0d60405160405180910390a45050565b61217d80620001736000396000f3fe6080604052600436106102ca5760003560e01c806370619cf9116101795780639c656e26116100d6578063cc48b9471161008a578063ec110d4511610064578063ec110d45146109b4578063f8c8765e146109d4578063fde48197146109f45761031c565b8063cc48b9471461094f578063d07918f114610974578063d547741f146109945761031c565b8063a217fddf116100bb578063a217fddf146108d7578063b911135f146108ec578063b9cab971146109225761031c565b80639c656e2614610838578063a0b2a913146108aa5761031c565b80637cd5f6631161012d5780638b8f4a65116101125780638b8f4a65146107b45780638d4fdb40146107d457806391d14854146107f45761031c565b80637cd5f6631461075c5780637cf1587c1461077c5761031c565b806375829def1161015e57806375829def146106e857806375b238fc146107085780637cb00d251461073c5761031c565b806370619cf91461069b57806373469a7a146106c85761031c565b80634e1a264d116102275780635e2cfe45116101db578063659ab820116101c0578063659ab820146105f95780636d1ef10314610626578063704802751461067b5761031c565b80635e2cfe45146105a757806363a8fd89146105df5761031c565b8063550d01a31161020c578063550d01a3146105115780635c60da1b146105415780635cc797d8146105875761031c565b80634e1a264d146104c557806350d2a276146104db5761031c565b806324d7806c1161027e57806336568abe1161026357806336568abe146104655780633659cfe6146104855780634a5df50f146104a55761031c565b806324d7806c146104255780632f2ff15d146104455761031c565b80631785f53c116102af5780631785f53c1461039357806322985246146103b3578063248a9ca3146103f55761031c565b806301ffc9a71461032657806316b5d5bd1461035b5761031c565b3661031c5760405162461bcd60e51b815260206004820152601460248201527f63616e6e6f74207265636569766520457468657200000000000000000000000060448201526064015b60405180910390fd5b610324610a47565b005b34801561033257600080fd5b50610346610341366004611d00565b610af0565b60405190151581526020015b60405180910390f35b34801561036757600080fd5b5060085461037b906001600160a01b031681565b6040516001600160a01b039091168152602001610352565b34801561039f57600080fd5b506103246103ae366004611d41565b610b22565b3480156103bf57600080fd5b506103e77ffb5864e8ff833c3cb2d2d08505e82ff02a43554c74a35d4f5a64e8526127831181565b604051908152602001610352565b34801561040157600080fd5b506103e7610410366004611d5c565b60009081526020819052604090206001015490565b34801561043157600080fd5b50610346610440366004611d41565b610b9d565b34801561045157600080fd5b50610324610460366004611d75565b610bdd565b34801561047157600080fd5b50610324610480366004611d75565b610c02565b34801561049157600080fd5b506103246104a0366004611d41565b610c8e565b3480156104b157600080fd5b506103246104c0366004611da1565b610de7565b3480156104d157600080fd5b506103e7600a5481565b3480156104e757600080fd5b5061037b6104f6366004611d00565b6004602052600090815260409020546001600160a01b031681565b34801561051d57600080fd5b5061034661052c366004611d41565b60036020526000908152604090205460ff1681565b34801561054d57600080fd5b506000805260026020527fac33ff75c19e70fe83507db0d683fd3465c996598dc972688b7ace676c89077b546001600160a01b031661037b565b34801561059357600080fd5b506103246105a2366004611e35565b611087565b3480156105b357600080fd5b506103e76105c2366004611e73565b600f60209081526000928352604080842090915290825290205481565b3480156105eb57600080fd5b506001546103469060ff1681565b34801561060557600080fd5b50610619610614366004611e9d565b6110df565b6040516103529190611f08565b34801561063257600080fd5b50610646610641366004611f1b565b611179565b6040805163ffffffff90941684526fffffffffffffffffffffffffffffffff9092166020840152151590820152606001610352565b34801561068757600080fd5b50610324610696366004611d41565b6111f2565b3480156106a757600080fd5b506103e76106b6366004611e9d565b600b6020526000908152604090205481565b3480156106d457600080fd5b5060075461037b906001600160a01b031681565b3480156106f457600080fd5b50610324610703366004611d41565b61126a565b34801561071457600080fd5b506103e77fdf8b4c520ffe197c5343c6f5aec59570151ef9a492f2c624fd45ddde6135ec4281565b34801561074857600080fd5b50610324610757366004611f57565b6113ba565b34801561076857600080fd5b50610324610777366004611f72565b61141b565b34801561078857600080fd5b506103e7610797366004611e73565b600e60209081526000928352604080842090915290825290205481565b3480156107c057600080fd5b5061037b6107cf366004611d5c565b611474565b3480156107e057600080fd5b5061037b6107ef366004611d00565b611491565b34801561080057600080fd5b5061034661080f366004611d75565b6000918252602082815260408084206001600160a01b0393909316845291905290205460ff1690565b34801561084457600080fd5b50610888610853366004611e73565b600c60209081526000928352604080842090915290825290208054600182015460028301546003909301549192909160ff1684565b6040805194855260208501939093529183015215156060820152608001610352565b3480156108b657600080fd5b506103e76108c5366004611d41565b60116020526000908152604090205481565b3480156108e357600080fd5b506103e7600081565b3480156108f857600080fd5b5061037b610907366004611d5c565b6002602052600090815260409020546001600160a01b031681565b34801561092e57600080fd5b506103e761093d366004611e9d565b60106020526000908152604090205481565b34801561095b57600080fd5b5060065461037b9061010090046001600160a01b031681565b34801561098057600080fd5b5060095461037b906001600160a01b031681565b3480156109a057600080fd5b506103246109af366004611d75565b61158d565b3480156109c057600080fd5b5061037b6109cf366004611d5c565b6115b2565b3480156109e057600080fd5b506103246109ef366004611fa5565b6115dc565b348015610a0057600080fd5b50610a32610a0f366004611e73565b601460209081526000928352604080842090915290825290205463ffffffff1681565b60405163ffffffff9091168152602001610352565b6000610a5e6000356001600160e01b031916611491565b90506001600160a01b03811615801590610a7b575060015460ff16155b610ac75760405162461bcd60e51b815260206004820152601d60248201527f50726f78793a20696d706c204f522070726f78792069732066616c73650000006044820152606401610313565b3660008037600080366000845af43d6000803e808015610ae6573d6000f35b3d6000fd5b505050565b6001600160e01b0319811660009081526005602052604081205460ff1680610b1c5750610b1c82611806565b92915050565b610b2b33610b9d565b610b705760405162461bcd60e51b8152602060048201526022602482015260008051602061215183398151915260448201526134b760f11b6064820152608401610313565b610b9a7fdf8b4c520ffe197c5343c6f5aec59570151ef9a492f2c624fd45ddde6135ec4282610c02565b50565b6001600160a01b03811660009081527f5cbfc8ee58ca47855df7bcf648dd304ddb6b932f9b87878bdf6318d7ec7ee5b7602052604081205460ff16610b1c565b600082815260208190526040902060010154610bf88161183b565b610aeb8383611845565b6001600160a01b0381163314610c805760405162461bcd60e51b815260206004820152602f60248201527f416363657373436f6e74726f6c3a2063616e206f6e6c792072656e6f756e636560448201527f20726f6c657320666f722073656c6600000000000000000000000000000000006064820152608401610313565b610c8a82826118e3565b5050565b610c9733610b9d565b610cdc5760405162461bcd60e51b8152602060048201526022602482015260008051602061215183398151915260448201526134b760f11b6064820152608401610313565b6001600160a01b038116610d325760405162461bcd60e51b815260206004820152600d60248201527f696e707574206973207a65726f000000000000000000000000000000000000006044820152606401610313565b6000805260026020527fac33ff75c19e70fe83507db0d683fd3465c996598dc972688b7ace676c89077b546001600160a01b03828116911603610da35760405162461bcd60e51b815260206004820152600960248201526839b0b6b29030b2323960b91b6044820152606401610313565b610db08160006001611962565b6040516001600160a01b038216907fbc7cd75a20ee27fd9adebab32041f755214dbc6bffa90cc0225b39da2e5c2d3b90600090a250565b610df033610b9d565b610e355760405162461bcd60e51b8152602060048201526022602482015260008051602061215183398151915260448201526134b760f11b6064820152608401610313565b81610e825760405162461bcd60e51b815260206004820181905260248201527f50726f78793a205f73656c6563746f727327732073697a65206973207a65726f6044820152606401610313565b6001600160a01b03811660009081526003602052604090205460ff16610eea5760405162461bcd60e51b815260206004820152601860248201527f50726f78793a205f696d70206973206e6f7420616c69766500000000000000006044820152606401610313565b60005b8281101561108157816001600160a01b031660046000868685818110610f1557610f15611ff9565b9050602002016020810190610f2a9190611d00565b6001600160e01b03191681526020810191909152604001600020546001600160a01b031603610f9b5760405162461bcd60e51b815260206004820152601d60248201527f4c69717569646974795661756c7450726f78793a2073616d6520696d700000006044820152606401610313565b8160046000868685818110610fb257610fb2611ff9565b9050602002016020810190610fc79190611d00565b6001600160e01b0319168152602081019190915260400160002080546001600160a01b0319166001600160a01b03928316179055821684848381811061100f5761100f611ff9565b90506020020160208101906110249190611d00565b7bffffffffffffffffffffffffffffffffffffffffffffffffffffffff19167f14ebc1c32aa68f4d766e89f3e546cee249f7df25183fc10ab1568d91c2ce9b7b60405160405180910390a38061107981612025565b915050610eed565b50505050565b61109033610b9d565b6110d55760405162461bcd60e51b8152602060048201526022602482015260008051602061215183398151915260448201526134b760f11b6064820152608401610313565b610c8a82826119ed565b601260205260009081526040902080546110f89061203e565b80601f01602080910402602001604051908101604052809291908181526020018280546111249061203e565b80156111715780601f1061114657610100808354040283529160200191611171565b820191906000526020600020905b81548152906001019060200180831161115457829003601f168201915b505050505081565b600d60205282600052604060002060205281600052604060002081815481106111a157600080fd5b60009182526020909120015463ffffffff8116935064010000000081046fffffffffffffffffffffffffffffffff16925074010000000000000000000000000000000000000000900460ff16905083565b6111fb33610b9d565b6112405760405162461bcd60e51b8152602060048201526022602482015260008051602061215183398151915260448201526134b760f11b6064820152608401610313565b610b9a7fdf8b4c520ffe197c5343c6f5aec59570151ef9a492f2c624fd45ddde6135ec4282610bdd565b61127333610b9d565b6112b85760405162461bcd60e51b8152602060048201526022602482015260008051602061215183398151915260448201526134b760f11b6064820152608401610313565b6001600160a01b03811661130e5760405162461bcd60e51b815260206004820152601860248201527f41636365737369626c653a207a65726f206164647265737300000000000000006044820152606401610313565b6001600160a01b03811633036113665760405162461bcd60e51b815260206004820152601660248201527f41636365737369626c653a2073616d652061646d696e000000000000000000006044820152606401610313565b6113907fdf8b4c520ffe197c5343c6f5aec59570151ef9a492f2c624fd45ddde6135ec4282610bdd565b610b9a7fdf8b4c520ffe197c5343c6f5aec59570151ef9a492f2c624fd45ddde6135ec4233610c02565b6113c333610b9d565b6114085760405162461bcd60e51b8152602060048201526022602482015260008051602061215183398151915260448201526134b760f11b6064820152608401610313565b6001805460ff1916911515919091179055565b61142433610b9d565b6114695760405162461bcd60e51b8152602060048201526022602482015260008051602061215183398151915260448201526134b760f11b6064820152608401610313565b610aeb838383611962565b6000818152600260205260408120546001600160a01b0316610b1c565b6001600160e01b031981166000908152600460205260408120546001600160a01b03166114f15750506000805260026020527fac33ff75c19e70fe83507db0d683fd3465c996598dc972688b7ace676c89077b546001600160a01b031690565b6001600160e01b031982166000908152600460209081526040808320546001600160a01b03168352600390915290205460ff161561154f57506001600160e01b0319166000908152600460205260409020546001600160a01b031690565b50506000805260026020527fac33ff75c19e70fe83507db0d683fd3465c996598dc972688b7ace676c89077b546001600160a01b031690565b919050565b6000828152602081905260409020600101546115a88161183b565b610aeb83836118e3565b601381815481106115c257600080fd5b6000918252602090912001546001600160a01b0316905081565b6115e533610b9d565b61162a5760405162461bcd60e51b8152602060048201526022602482015260008051602061215183398151915260448201526134b760f11b6064820152608401610313565b836001600160a01b0381166116665760405162461bcd60e51b81526020600482015260026024820152612d1960f11b6044820152606401610313565b836001600160a01b0381166116a25760405162461bcd60e51b81526020600482015260026024820152612d1960f11b6044820152606401610313565b836001600160a01b0381166116de5760405162461bcd60e51b81526020600482015260026024820152612d1960f11b6044820152606401610313565b836001600160a01b03811661171a5760405162461bcd60e51b81526020600482015260026024820152612d1960f11b6044820152606401610313565b60065461010090046001600160a01b0316156117785760405162461bcd60e51b815260206004820152601260248201527f616c726561647920696e697469616c697a6500000000000000000000000000006044820152606401610313565b600780546001600160a01b03199081166001600160a01b038a8116919091179092556006805474ffffffffffffffffffffffffffffffffffffffff0019166101008c851602179055600880548216898416179055600980549091169187169190911790556117ec632139e50b60e11b611a4c565b6117fc6301ffc9a760e01b611a4c565b5050505050505050565b60006001600160e01b03198216637965db0b60e01b1480610b1c57506301ffc9a760e01b6001600160e01b0319831614610b1c565b610b9a8133611acb565b6000828152602081815260408083206001600160a01b038516845290915290205460ff16610c8a576000828152602081815260408083206001600160a01b03851684529091529020805460ff1916600117905561189f3390565b6001600160a01b0316816001600160a01b0316837f2f8788117e7eff1d82e926ec794901d17c78024a50270940304540a733656f0d60405160405180910390a45050565b6000828152602081815260408083206001600160a01b038516845290915290205460ff1615610c8a576000828152602081815260408083206001600160a01b0385168085529252808320805460ff1916905551339285917ff6391f5c32d9c69d2a47ea670b442974b53935d1edc7fd64eb21e047a839171b9190a45050565b6001600160a01b0383163b6119b95760405162461bcd60e51b815260206004820152601b60248201527f50726f78793a206e6f7420636f6e7472616374206164647265737300000000006044820152606401610313565b80156119e757600082815260026020526040902080546001600160a01b0319166001600160a01b0385161790555b610aeb83825b6001600160a01b038216600081815260036020908152604091829020805460ff191685151590811790915591519182527f72558d9bfba4210f9ef095c782589484151f6d90f7a81bb3cb9b33efc695d324910160405180910390a25050565b6001600160e01b03198082169003611aa65760405162461bcd60e51b815260206004820152601c60248201527f4552433136353a20696e76616c696420696e74657266616365206964000000006044820152606401610313565b6001600160e01b0319166000908152600560205260409020805460ff19166001179055565b6000828152602081815260408083206001600160a01b038516845290915290205460ff16610c8a57611afc81611b3e565b611b07836020611b50565b604051602001611b18929190612078565b60408051601f198184030181529082905262461bcd60e51b825261031391600401611f08565b6060610b1c6001600160a01b03831660145b60606000611b5f8360026120f9565b611b6a906002612110565b67ffffffffffffffff811115611b8257611b82612123565b6040519080825280601f01601f191660200182016040528015611bac576020820181803683370190505b509050600360fc1b81600081518110611bc757611bc7611ff9565b60200101906001600160f81b031916908160001a905350600f60fb1b81600181518110611bf657611bf6611ff9565b60200101906001600160f81b031916908160001a9053506000611c1a8460026120f9565b611c25906001612110565b90505b6001811115611caa577f303132333435363738396162636465660000000000000000000000000000000085600f1660108110611c6657611c66611ff9565b1a60f81b828281518110611c7c57611c7c611ff9565b60200101906001600160f81b031916908160001a90535060049490941c93611ca381612139565b9050611c28565b508315611cf95760405162461bcd60e51b815260206004820181905260248201527f537472696e67733a20686578206c656e67746820696e73756666696369656e746044820152606401610313565b9392505050565b600060208284031215611d1257600080fd5b81356001600160e01b031981168114611cf957600080fd5b80356001600160a01b038116811461158857600080fd5b600060208284031215611d5357600080fd5b611cf982611d2a565b600060208284031215611d6e57600080fd5b5035919050565b60008060408385031215611d8857600080fd5b82359150611d9860208401611d2a565b90509250929050565b600080600060408486031215611db657600080fd5b833567ffffffffffffffff80821115611dce57600080fd5b818601915086601f830112611de257600080fd5b813581811115611df157600080fd5b8760208260051b8501011115611e0657600080fd5b602092830195509350611e1c9186019050611d2a565b90509250925092565b8035801515811461158857600080fd5b60008060408385031215611e4857600080fd5b611e5183611d2a565b9150611d9860208401611e25565b803563ffffffff8116811461158857600080fd5b60008060408385031215611e8657600080fd5b611e8f83611e5f565b9150611d9860208401611d2a565b600060208284031215611eaf57600080fd5b611cf982611e5f565b60005b83811015611ed3578181015183820152602001611ebb565b50506000910152565b60008151808452611ef4816020860160208601611eb8565b601f01601f19169290920160200192915050565b602081526000611cf96020830184611edc565b600080600060608486031215611f3057600080fd5b611f3984611e5f565b9250611f4760208501611d2a565b9150604084013590509250925092565b600060208284031215611f6957600080fd5b611cf982611e25565b600080600060608486031215611f8757600080fd5b611f9084611d2a565b925060208401359150611e1c60408501611e25565b60008060008060808587031215611fbb57600080fd5b611fc485611d2a565b9350611fd260208601611d2a565b9250611fe060408601611d2a565b9150611fee60608601611d2a565b905092959194509250565b634e487b7160e01b600052603260045260246000fd5b634e487b7160e01b600052601160045260246000fd5b6000600182016120375761203761200f565b5060010190565b600181811c9082168061205257607f821691505b60208210810361207257634e487b7160e01b600052602260045260246000fd5b50919050565b7f416363657373436f6e74726f6c3a206163636f756e74200000000000000000008152600083516120b0816017850160208801611eb8565b7f206973206d697373696e6720726f6c652000000000000000000000000000000060179184019182015283516120ed816028840160208801611eb8565b01602801949350505050565b8082028115828204841417610b1c57610b1c61200f565b80820180821115610b1c57610b1c61200f565b634e487b7160e01b600052604160045260246000fd5b6000816121485761214861200f565b50600019019056fe41636365737369626c653a2043616c6c6572206973206e6f7420616e2061646da164736f6c6343000812000adf8b4c520ffe197c5343c6f5aec59570151ef9a492f2c624fd45ddde6135ec42",
  "linkReferences": {},
  "deployedLinkReferences": {}
}