{
  "_format": "hh-sol-artifact-1",
  "contractName": "CandidateProxy",
  "sourceName": "contracts/proxy/CandidateProxy.sol",
  "abi": [
    {
      "inputs": [],
      "stateMutability": "nonpayable",
      "type": "constructor"
    },
    {
      "anonymous": false,
      "inputs": [
        {
          "indexed": true,
          "internalType": "bytes32",
          "name": "role",
          "type": "bytes32"
        },
        {
          "indexed": true,
          "internalType": "bytes32",
          "name": "previousAdminRole",
          "type": "bytes32"
        },
        {
          "indexed": true,
          "internalType": "bytes32",
          "name": "newAdminRole",
          "type": "bytes32"
        }
      ],
      "name": "RoleAdminChanged",
      "type": "event"
    },
    {
      "anonymous": false,
      "inputs": [
        {
          "indexed": true,
          "internalType": "bytes32",
          "name": "role",
          "type": "bytes32"
        },
        {
          "indexed": true,
          "internalType": "address",
          "name": "account",
          "type": "address"
        },
        {
          "indexed": true,
          "internalType": "address",
          "name": "sender",
          "type": "address"
        }
      ],
      "name": "RoleGranted",
      "type": "event"
    },
    {
      "anonymous": false,
      "inputs": [
        {
          "indexed": true,
          "internalType": "bytes32",
          "name": "role",
          "type": "bytes32"
        },
        {
          "indexed": true,
          "internalType": "address",
          "name": "account",
          "type": "address"
        },
        {
          "indexed": true,
          "internalType": "address",
          "name": "sender",
          "type": "address"
        }
      ],
      "name": "RoleRevoked",
      "type": "event"
    },
    {
      "anonymous": false,
      "inputs": [
        {
          "indexed": true,
          "internalType": "address",
          "name": "impl",
          "type": "address"
        },
        {
          "indexed": false,
          "internalType": "bool",
          "name": "alive",
          "type": "bool"
        }
      ],
      "name": "SetAliveImplementation",
      "type": "event"
    },
    {
      "anonymous": false,
      "inputs": [
        {
          "indexed": true,
          "internalType": "bytes4",
          "name": "selector",
          "type": "bytes4"
        },
        {
          "indexed": true,
          "internalType": "address",
          "name": "impl",
          "type": "address"
        }
      ],
      "name": "SetSelectorImplementation",
      "type": "event"
    },
    {
      "anonymous": false,
      "inputs": [
        {
          "indexed": true,
          "internalType": "address",
          "name": "implementation",
          "type": "address"
        }
      ],
      "name": "Upgraded",
      "type": "event"
    },
    {
      "stateMutability": "payable",
      "type": "fallback"
    },
    {
      "inputs": [],
      "name": "ADMIN_ROLE",
      "outputs": [
        {
          "internalType": "bytes32",
          "name": "",
          "type": "bytes32"
        }
      ],
      "stateMutability": "view",
      "type": "function"
    },
    {
      "inputs": [],
      "name": "DEFAULT_ADMIN_ROLE",
      "outputs": [
        {
          "internalType": "bytes32",
          "name": "",
          "type": "bytes32"
        }
      ],
      "stateMutability": "view",
      "type": "function"
    },
    {
      "inputs": [],
      "name": "POLICY_ROLE",
      "outputs": [
        {
          "internalType": "bytes32",
          "name": "",
          "type": "bytes32"
        }
      ],
      "stateMutability": "view",
      "type": "function"
    },
    {
      "inputs": [
        {
          "internalType": "address",
          "name": "account",
          "type": "address"
        }
      ],
      "name": "addAdmin",
      "outputs": [],
      "stateMutability": "nonpayable",
      "type": "function"
    },
    {
      "inputs": [
        {
          "internalType": "address",
          "name": "",
          "type": "address"
        }
      ],
      "name": "aliveImplementation",
      "outputs": [
        {
          "internalType": "bool",
          "name": "",
          "type": "bool"
        }
      ],
      "stateMutability": "view",
      "type": "function"
    },
    {
      "inputs": [
        {
          "internalType": "bytes32",
          "name": "role",
          "type": "bytes32"
        }
      ],
      "name": "getRoleAdmin",
      "outputs": [
        {
          "internalType": "bytes32",
          "name": "",
          "type": "bytes32"
        }
      ],
      "stateMutability": "view",
      "type": "function"
    },
    {
      "inputs": [
        {
          "internalType": "bytes4",
          "name": "_selector",
          "type": "bytes4"
        }
      ],
      "name": "getSelectorImplementation2",
      "outputs": [
        {
          "internalType": "address",
          "name": "impl",
          "type": "address"
        }
      ],
      "stateMutability": "view",
      "type": "function"
    },
    {
      "inputs": [
        {
          "internalType": "bytes32",
          "name": "role",
          "type": "bytes32"
        },
        {
          "internalType": "address",
          "name": "account",
          "type": "address"
        }
      ],
      "name": "grantRole",
      "outputs": [],
      "stateMutability": "nonpayable",
      "type": "function"
    },
    {
      "inputs": [
        {
          "internalType": "bytes32",
          "name": "role",
          "type": "bytes32"
        },
        {
          "internalType": "address",
          "name": "account",
          "type": "address"
        }
      ],
      "name": "hasRole",
      "outputs": [
        {
          "internalType": "bool",
          "name": "",
          "type": "bool"
        }
      ],
      "stateMutability": "view",
      "type": "function"
    },
    {
      "inputs": [],
      "name": "implementation",
      "outputs": [
        {
          "internalType": "address",
          "name": "",
          "type": "address"
        }
      ],
      "stateMutability": "view",
      "type": "function"
    },
    {
      "inputs": [
        {
          "internalType": "uint256",
          "name": "_index",
          "type": "uint256"
        }
      ],
      "name": "implementation2",
      "outputs": [
        {
          "internalType": "address",
          "name": "",
          "type": "address"
        }
      ],
      "stateMutability": "view",
      "type": "function"
    },
    {
      "inputs": [
        {
          "internalType": "address",
          "name": "_ton",
          "type": "address"
        },
        {
          "internalType": "address",
          "name": "_seigManagerV2",
          "type": "address"
        },
        {
          "internalType": "address",
          "name": "_layer2Manager",
          "type": "address"
        }
      ],
      "name": "initialize",
      "outputs": [],
      "stateMutability": "nonpayable",
      "type": "function"
    },
    {
      "inputs": [
        {
          "internalType": "address",
          "name": "account",
          "type": "address"
        }
      ],
      "name": "isAdmin",
      "outputs": [
        {
          "internalType": "bool",
          "name": "",
          "type": "bool"
        }
      ],
      "stateMutability": "view",
      "type": "function"
    },
    {
      "inputs": [],
      "name": "layer2Manager",
      "outputs": [
        {
          "internalType": "address",
          "name": "",
          "type": "address"
        }
      ],
      "stateMutability": "view",
      "type": "function"
    },
    {
      "inputs": [
        {
          "internalType": "uint32",
          "name": "",
          "type": "uint32"
        }
      ],
      "name": "layerInfo",
      "outputs": [
        {
          "internalType": "bytes",
          "name": "",
          "type": "bytes"
        }
      ],
      "stateMutability": "view",
      "type": "function"
    },
    {
      "inputs": [
        {
          "internalType": "uint32",
          "name": "",
          "type": "uint32"
        }
      ],
      "name": "layerStakedLton",
      "outputs": [
        {
          "internalType": "uint256",
          "name": "",
          "type": "uint256"
        }
      ],
      "stateMutability": "view",
      "type": "function"
    },
    {
      "inputs": [
        {
          "internalType": "uint32",
          "name": "",
          "type": "uint32"
        },
        {
          "internalType": "address",
          "name": "",
          "type": "address"
        }
      ],
      "name": "layerStakes",
      "outputs": [
        {
          "internalType": "uint256",
          "name": "stakePrincipal",
          "type": "uint256"
        },
        {
          "internalType": "uint256",
          "name": "bondPrincipal",
          "type": "uint256"
        },
        {
          "internalType": "uint256",
          "name": "stakelton",
          "type": "uint256"
        },
        {
          "internalType": "uint256",
          "name": "bondlton",
          "type": "uint256"
        },
        {
          "internalType": "bool",
          "name": "stake",
          "type": "bool"
        },
        {
          "internalType": "uint16",
          "name": "fwFee",
          "type": "uint16"
        }
      ],
      "stateMutability": "view",
      "type": "function"
    },
    {
      "inputs": [
        {
          "internalType": "uint32",
          "name": "",
          "type": "uint32"
        },
        {
          "internalType": "address",
          "name": "",
          "type": "address"
        }
      ],
      "name": "operators",
      "outputs": [
        {
          "internalType": "uint32",
          "name": "",
          "type": "uint32"
        }
      ],
      "stateMutability": "view",
      "type": "function"
    },
    {
      "inputs": [],
      "name": "pauseProxy",
      "outputs": [
        {
          "internalType": "bool",
          "name": "",
          "type": "bool"
        }
      ],
      "stateMutability": "view",
      "type": "function"
    },
    {
      "inputs": [
        {
          "internalType": "uint32",
          "name": "",
          "type": "uint32"
        },
        {
          "internalType": "address",
          "name": "",
          "type": "address"
        }
      ],
      "name": "pendingUnstaked",
      "outputs": [
        {
          "internalType": "uint256",
          "name": "",
          "type": "uint256"
        }
      ],
      "stateMutability": "view",
      "type": "function"
    },
    {
      "inputs": [
        {
          "internalType": "address",
          "name": "",
          "type": "address"
        }
      ],
      "name": "pendingUnstakedAccount",
      "outputs": [
        {
          "internalType": "uint256",
          "name": "",
          "type": "uint256"
        }
      ],
      "stateMutability": "view",
      "type": "function"
    },
    {
      "inputs": [
        {
          "internalType": "uint32",
          "name": "",
          "type": "uint32"
        }
      ],
      "name": "pendingUnstakedLayer2",
      "outputs": [
        {
          "internalType": "uint256",
          "name": "",
          "type": "uint256"
        }
      ],
      "stateMutability": "view",
      "type": "function"
    },
    {
      "inputs": [
        {
          "internalType": "uint256",
          "name": "",
          "type": "uint256"
        }
      ],
      "name": "proxyImplementation",
      "outputs": [
        {
          "internalType": "address",
          "name": "",
          "type": "address"
        }
      ],
      "stateMutability": "view",
      "type": "function"
    },
    {
      "inputs": [
        {
          "internalType": "address",
          "name": "account",
          "type": "address"
        }
      ],
      "name": "removeAdmin",
      "outputs": [],
      "stateMutability": "nonpayable",
      "type": "function"
    },
    {
      "inputs": [
        {
          "internalType": "bytes32",
          "name": "role",
          "type": "bytes32"
        },
        {
          "internalType": "address",
          "name": "account",
          "type": "address"
        }
      ],
      "name": "renounceRole",
      "outputs": [],
      "stateMutability": "nonpayable",
      "type": "function"
    },
    {
      "inputs": [
        {
          "internalType": "bytes32",
          "name": "role",
          "type": "bytes32"
        },
        {
          "internalType": "address",
          "name": "account",
          "type": "address"
        }
      ],
      "name": "revokeRole",
      "outputs": [],
      "stateMutability": "nonpayable",
      "type": "function"
    },
    {
      "inputs": [],
      "name": "seigManagerV2",
      "outputs": [
        {
          "internalType": "address",
          "name": "",
          "type": "address"
        }
      ],
      "stateMutability": "view",
      "type": "function"
    },
    {
      "inputs": [
        {
          "internalType": "bytes4",
          "name": "",
          "type": "bytes4"
        }
      ],
      "name": "selectorImplementation",
      "outputs": [
        {
          "internalType": "address",
          "name": "",
          "type": "address"
        }
      ],
      "stateMutability": "view",
      "type": "function"
    },
    {
      "inputs": [
        {
          "internalType": "address",
          "name": "newImplementation",
          "type": "address"
        },
        {
          "internalType": "bool",
          "name": "_alive",
          "type": "bool"
        }
      ],
      "name": "setAliveImplementation2",
      "outputs": [],
      "stateMutability": "nonpayable",
      "type": "function"
    },
    {
      "inputs": [
        {
          "internalType": "address",
          "name": "newImplementation",
          "type": "address"
        },
        {
          "internalType": "uint256",
          "name": "_index",
          "type": "uint256"
        },
        {
          "internalType": "bool",
          "name": "_alive",
          "type": "bool"
        }
      ],
      "name": "setImplementation2",
      "outputs": [],
      "stateMutability": "nonpayable",
      "type": "function"
    },
    {
      "inputs": [
        {
          "internalType": "bool",
          "name": "_pause",
          "type": "bool"
        }
      ],
      "name": "setProxyPause",
      "outputs": [],
      "stateMutability": "nonpayable",
      "type": "function"
    },
    {
      "inputs": [
        {
          "internalType": "bytes4[]",
          "name": "_selectors",
          "type": "bytes4[]"
        },
        {
          "internalType": "address",
          "name": "_imp",
          "type": "address"
        }
      ],
      "name": "setSelectorImplementations2",
      "outputs": [],
      "stateMutability": "nonpayable",
      "type": "function"
    },
    {
      "inputs": [
        {
          "internalType": "uint256",
          "name": "",
          "type": "uint256"
        }
      ],
      "name": "stakeAccountList",
      "outputs": [
        {
          "internalType": "address",
          "name": "",
          "type": "address"
        }
      ],
      "stateMutability": "view",
      "type": "function"
    },
    {
      "inputs": [
        {
          "internalType": "bytes4",
          "name": "interfaceId",
          "type": "bytes4"
        }
      ],
      "name": "supportsInterface",
      "outputs": [
        {
          "internalType": "bool",
          "name": "",
          "type": "bool"
        }
      ],
      "stateMutability": "view",
      "type": "function"
    },
    {
      "inputs": [],
      "name": "ton",
      "outputs": [
        {
          "internalType": "address",
          "name": "",
          "type": "address"
        }
      ],
      "stateMutability": "view",
      "type": "function"
    },
    {
      "inputs": [],
      "name": "totalStakedLton",
      "outputs": [
        {
          "internalType": "uint256",
          "name": "",
          "type": "uint256"
        }
      ],
      "stateMutability": "view",
      "type": "function"
    },
    {
      "inputs": [
        {
          "internalType": "address",
          "name": "newAdmin",
          "type": "address"
        }
      ],
      "name": "transferAdmin",
      "outputs": [],
      "stateMutability": "nonpayable",
      "type": "function"
    },
    {
      "inputs": [
        {
          "internalType": "address",
          "name": "impl",
          "type": "address"
        }
      ],
      "name": "upgradeTo",
      "outputs": [],
      "stateMutability": "nonpayable",
      "type": "function"
    },
    {
      "inputs": [
        {
          "internalType": "uint32",
          "name": "",
          "type": "uint32"
        },
        {
          "internalType": "address",
          "name": "",
          "type": "address"
        }
      ],
      "name": "withdrawalRequestIndex",
      "outputs": [
        {
          "internalType": "uint256",
          "name": "",
          "type": "uint256"
        }
      ],
      "stateMutability": "view",
      "type": "function"
    },
    {
      "inputs": [
        {
          "internalType": "uint32",
          "name": "",
          "type": "uint32"
        },
        {
          "internalType": "address",
          "name": "",
          "type": "address"
        },
        {
          "internalType": "uint256",
          "name": "",
          "type": "uint256"
        }
      ],
      "name": "withdrawalRequests",
      "outputs": [
        {
          "internalType": "uint32",
          "name": "withdrawableBlockNumber",
          "type": "uint32"
        },
        {
          "internalType": "uint128",
          "name": "amount",
          "type": "uint128"
        },
        {
          "internalType": "bool",
          "name": "processed",
          "type": "bool"
        }
      ],
      "stateMutability": "view",
      "type": "function"
    },
    {
      "stateMutability": "payable",
      "type": "receive"
    }
  ],
  "bytecode": "0x60806040526006805460ff191660011790553480156200001e57600080fd5b506200003a600080516020620022858339815191528062000068565b620000556000805160206200228583398151915233620000b3565b62000062600033620000b3565b62000163565b600082815260208190526040808220600101805490849055905190918391839186917fbd79b86ffe0ab8e8776151514217cd7cacd52c909f66475c3af44e129f0b00ff9190a4505050565b620000bf8282620000c3565b5050565b6000828152602081815260408083206001600160a01b038516845290915290205460ff16620000bf576000828152602081815260408083206001600160a01b03851684529091529020805460ff191660011790556200011f3390565b6001600160a01b0316816001600160a01b0316837f2f8788117e7eff1d82e926ec794901d17c78024a50270940304540a733656f0d60405160405180910390a45050565b61211280620001736000396000f3fe6080604052600436106102bf5760003560e01c806370619cf91161016e5780639c656e26116100cb578063c0c53b8b1161007f578063d547741f11610064578063d547741f146109ad578063ec110d45146109cd578063fde48197146109ed57610311565b8063c0c53b8b14610968578063cc48b9471461098857610311565b8063a217fddf116100b0578063a217fddf146108f0578063b911135f14610905578063b9cab9711461093b57610311565b80639c656e261461082d578063a0b2a913146108c357610311565b80637cd5f663116101225780638b8f4a65116101075780638b8f4a65146107a95780638d4fdb40146107c957806391d14854146107e957610311565b80637cd5f663146107515780637cf1587c1461077157610311565b806375829def1161015357806375829def146106dd57806375b238fc146106fd5780637cb00d251461073157610311565b806370619cf91461069057806373469a7a146106bd57610311565b80634e1a264d1161021c5780635e2cfe45116101d0578063659ab820116101b5578063659ab820146105ee5780636d1ef1031461061b578063704802751461067057610311565b80635e2cfe451461059c57806363a8fd89146105d457610311565b8063550d01a311610201578063550d01a3146105065780635c60da1b146105365780635cc797d81461057c57610311565b80634e1a264d146104ba57806350d2a276146104d057610311565b806324d7806c1161027357806336568abe1161025857806336568abe1461045a5780633659cfe61461047a5780634a5df50f1461049a57610311565b806324d7806c1461041a5780632f2ff15d1461043a57610311565b80631785f53c116102a45780631785f53c1461038857806322985246146103a8578063248a9ca3146103ea57610311565b806301ffc9a71461031b57806316b5d5bd1461035057610311565b366103115760405162461bcd60e51b815260206004820152601460248201527f63616e6e6f74207265636569766520457468657200000000000000000000000060448201526064015b60405180910390fd5b610319610a40565b005b34801561032757600080fd5b5061033b610336366004611caf565b610ae9565b60405190151581526020015b60405180910390f35b34801561035c57600080fd5b50600854610370906001600160a01b031681565b6040516001600160a01b039091168152602001610347565b34801561039457600080fd5b506103196103a3366004611cf0565b610b1b565b3480156103b457600080fd5b506103dc7ffb5864e8ff833c3cb2d2d08505e82ff02a43554c74a35d4f5a64e8526127831181565b604051908152602001610347565b3480156103f657600080fd5b506103dc610405366004611d0b565b60009081526020819052604090206001015490565b34801561042657600080fd5b5061033b610435366004611cf0565b610b96565b34801561044657600080fd5b50610319610455366004611d24565b610bd6565b34801561046657600080fd5b50610319610475366004611d24565b610bfb565b34801561048657600080fd5b50610319610495366004611cf0565b610c87565b3480156104a657600080fd5b506103196104b5366004611d50565b610de0565b3480156104c657600080fd5b506103dc60095481565b3480156104dc57600080fd5b506103706104eb366004611caf565b6004602052600090815260409020546001600160a01b031681565b34801561051257600080fd5b5061033b610521366004611cf0565b60036020526000908152604090205460ff1681565b34801561054257600080fd5b506000805260026020527fac33ff75c19e70fe83507db0d683fd3465c996598dc972688b7ace676c89077b546001600160a01b0316610370565b34801561058857600080fd5b50610319610597366004611de4565b611080565b3480156105a857600080fd5b506103dc6105b7366004611e22565b600e60209081526000928352604080842090915290825290205481565b3480156105e057600080fd5b5060015461033b9060ff1681565b3480156105fa57600080fd5b5061060e610609366004611e4c565b6110d8565b6040516103479190611eb7565b34801561062757600080fd5b5061063b610636366004611eca565b611172565b6040805163ffffffff90941684526fffffffffffffffffffffffffffffffff9092166020840152151590820152606001610347565b34801561067c57600080fd5b5061031961068b366004611cf0565b6111eb565b34801561069c57600080fd5b506103dc6106ab366004611e4c565b600a6020526000908152604090205481565b3480156106c957600080fd5b50600754610370906001600160a01b031681565b3480156106e957600080fd5b506103196106f8366004611cf0565b611263565b34801561070957600080fd5b506103dc7fdf8b4c520ffe197c5343c6f5aec59570151ef9a492f2c624fd45ddde6135ec4281565b34801561073d57600080fd5b5061031961074c366004611f06565b6113b3565b34801561075d57600080fd5b5061031961076c366004611f21565b611414565b34801561077d57600080fd5b506103dc61078c366004611e22565b600d60209081526000928352604080842090915290825290205481565b3480156107b557600080fd5b506103706107c4366004611d0b565b61146d565b3480156107d557600080fd5b506103706107e4366004611caf565b61148a565b3480156107f557600080fd5b5061033b610804366004611d24565b6000918252602082815260408084206001600160a01b0393909316845291905290205460ff1690565b34801561083957600080fd5b50610890610848366004611e22565b600b602090815260009283526040808420909152908252902080546001820154600283015460038401546004909401549293919290919060ff811690610100900461ffff1686565b6040805196875260208701959095529385019290925260608401521515608083015261ffff1660a082015260c001610347565b3480156108cf57600080fd5b506103dc6108de366004611cf0565b60106020526000908152604090205481565b3480156108fc57600080fd5b506103dc600081565b34801561091157600080fd5b50610370610920366004611d0b565b6002602052600090815260409020546001600160a01b031681565b34801561094757600080fd5b506103dc610956366004611e4c565b600f6020526000908152604090205481565b34801561097457600080fd5b50610319610983366004611f54565b611586565b34801561099457600080fd5b506006546103709061010090046001600160a01b031681565b3480156109b957600080fd5b506103196109c8366004611d24565b611766565b3480156109d957600080fd5b506103706109e8366004611d0b565b61178b565b3480156109f957600080fd5b50610a2b610a08366004611e22565b601360209081526000928352604080842090915290825290205463ffffffff1681565b60405163ffffffff9091168152602001610347565b6000610a576000356001600160e01b03191661148a565b90506001600160a01b03811615801590610a74575060015460ff16155b610ac05760405162461bcd60e51b815260206004820152601d60248201527f50726f78793a20696d706c204f522070726f78792069732066616c73650000006044820152606401610308565b3660008037600080366000845af43d6000803e808015610adf573d6000f35b3d6000fd5b505050565b6001600160e01b0319811660009081526005602052604081205460ff1680610b155750610b15826117b5565b92915050565b610b2433610b96565b610b695760405162461bcd60e51b815260206004820152602260248201526000805160206120e683398151915260448201526134b760f11b6064820152608401610308565b610b937fdf8b4c520ffe197c5343c6f5aec59570151ef9a492f2c624fd45ddde6135ec4282610bfb565b50565b6001600160a01b03811660009081527f5cbfc8ee58ca47855df7bcf648dd304ddb6b932f9b87878bdf6318d7ec7ee5b7602052604081205460ff16610b15565b600082815260208190526040902060010154610bf1816117ea565b610ae483836117f4565b6001600160a01b0381163314610c795760405162461bcd60e51b815260206004820152602f60248201527f416363657373436f6e74726f6c3a2063616e206f6e6c792072656e6f756e636560448201527f20726f6c657320666f722073656c6600000000000000000000000000000000006064820152608401610308565b610c838282611892565b5050565b610c9033610b96565b610cd55760405162461bcd60e51b815260206004820152602260248201526000805160206120e683398151915260448201526134b760f11b6064820152608401610308565b6001600160a01b038116610d2b5760405162461bcd60e51b815260206004820152600d60248201527f696e707574206973207a65726f000000000000000000000000000000000000006044820152606401610308565b6000805260026020527fac33ff75c19e70fe83507db0d683fd3465c996598dc972688b7ace676c89077b546001600160a01b03828116911603610d9c5760405162461bcd60e51b815260206004820152600960248201526839b0b6b29030b2323960b91b6044820152606401610308565b610da98160006001611911565b6040516001600160a01b038216907fbc7cd75a20ee27fd9adebab32041f755214dbc6bffa90cc0225b39da2e5c2d3b90600090a250565b610de933610b96565b610e2e5760405162461bcd60e51b815260206004820152602260248201526000805160206120e683398151915260448201526134b760f11b6064820152608401610308565b81610e7b5760405162461bcd60e51b815260206004820181905260248201527f50726f78793a205f73656c6563746f727327732073697a65206973207a65726f6044820152606401610308565b6001600160a01b03811660009081526003602052604090205460ff16610ee35760405162461bcd60e51b815260206004820152601860248201527f50726f78793a205f696d70206973206e6f7420616c69766500000000000000006044820152606401610308565b60005b8281101561107a57816001600160a01b031660046000868685818110610f0e57610f0e611f8e565b9050602002016020810190610f239190611caf565b6001600160e01b03191681526020810191909152604001600020546001600160a01b031603610f945760405162461bcd60e51b815260206004820152601d60248201527f4c69717569646974795661756c7450726f78793a2073616d6520696d700000006044820152606401610308565b8160046000868685818110610fab57610fab611f8e565b9050602002016020810190610fc09190611caf565b6001600160e01b0319168152602081019190915260400160002080546001600160a01b0319166001600160a01b03928316179055821684848381811061100857611008611f8e565b905060200201602081019061101d9190611caf565b7bffffffffffffffffffffffffffffffffffffffffffffffffffffffff19167f14ebc1c32aa68f4d766e89f3e546cee249f7df25183fc10ab1568d91c2ce9b7b60405160405180910390a38061107281611fba565b915050610ee6565b50505050565b61108933610b96565b6110ce5760405162461bcd60e51b815260206004820152602260248201526000805160206120e683398151915260448201526134b760f11b6064820152608401610308565b610c83828261199c565b601160205260009081526040902080546110f190611fd3565b80601f016020809104026020016040519081016040528092919081815260200182805461111d90611fd3565b801561116a5780601f1061113f5761010080835404028352916020019161116a565b820191906000526020600020905b81548152906001019060200180831161114d57829003601f168201915b505050505081565b600c602052826000526040600020602052816000526040600020818154811061119a57600080fd5b60009182526020909120015463ffffffff8116935064010000000081046fffffffffffffffffffffffffffffffff16925074010000000000000000000000000000000000000000900460ff16905083565b6111f433610b96565b6112395760405162461bcd60e51b815260206004820152602260248201526000805160206120e683398151915260448201526134b760f11b6064820152608401610308565b610b937fdf8b4c520ffe197c5343c6f5aec59570151ef9a492f2c624fd45ddde6135ec4282610bd6565b61126c33610b96565b6112b15760405162461bcd60e51b815260206004820152602260248201526000805160206120e683398151915260448201526134b760f11b6064820152608401610308565b6001600160a01b0381166113075760405162461bcd60e51b815260206004820152601860248201527f41636365737369626c653a207a65726f206164647265737300000000000000006044820152606401610308565b6001600160a01b038116330361135f5760405162461bcd60e51b815260206004820152601660248201527f41636365737369626c653a2073616d652061646d696e000000000000000000006044820152606401610308565b6113897fdf8b4c520ffe197c5343c6f5aec59570151ef9a492f2c624fd45ddde6135ec4282610bd6565b610b937fdf8b4c520ffe197c5343c6f5aec59570151ef9a492f2c624fd45ddde6135ec4233610bfb565b6113bc33610b96565b6114015760405162461bcd60e51b815260206004820152602260248201526000805160206120e683398151915260448201526134b760f11b6064820152608401610308565b6001805460ff1916911515919091179055565b61141d33610b96565b6114625760405162461bcd60e51b815260206004820152602260248201526000805160206120e683398151915260448201526134b760f11b6064820152608401610308565b610ae4838383611911565b6000818152600260205260408120546001600160a01b0316610b15565b6001600160e01b031981166000908152600460205260408120546001600160a01b03166114ea5750506000805260026020527fac33ff75c19e70fe83507db0d683fd3465c996598dc972688b7ace676c89077b546001600160a01b031690565b6001600160e01b031982166000908152600460209081526040808320546001600160a01b03168352600390915290205460ff161561154857506001600160e01b0319166000908152600460205260409020546001600160a01b031690565b50506000805260026020527fac33ff75c19e70fe83507db0d683fd3465c996598dc972688b7ace676c89077b546001600160a01b031690565b919050565b61158f33610b96565b6115d45760405162461bcd60e51b815260206004820152602260248201526000805160206120e683398151915260448201526134b760f11b6064820152608401610308565b826001600160a01b0381166116105760405162461bcd60e51b81526020600482015260026024820152612d1960f11b6044820152606401610308565b826001600160a01b03811661164c5760405162461bcd60e51b81526020600482015260026024820152612d1960f11b6044820152606401610308565b826001600160a01b0381166116885760405162461bcd60e51b81526020600482015260026024820152612d1960f11b6044820152606401610308565b60065461010090046001600160a01b0316156116e65760405162461bcd60e51b815260206004820152601260248201527f616c726561647920696e697469616c697a6500000000000000000000000000006044820152606401610308565b600780546001600160a01b038088166001600160a01b031992831617909255600680548984166101000274ffffffffffffffffffffffffffffffffffffffff0019909116179055600880549287169290911691909117905561174e632139e50b60e11b6119fb565b61175e6301ffc9a760e01b6119fb565b505050505050565b600082815260208190526040902060010154611781816117ea565b610ae48383611892565b6012818154811061179b57600080fd5b6000918252602090912001546001600160a01b0316905081565b60006001600160e01b03198216637965db0b60e01b1480610b1557506301ffc9a760e01b6001600160e01b0319831614610b15565b610b938133611a7a565b6000828152602081815260408083206001600160a01b038516845290915290205460ff16610c83576000828152602081815260408083206001600160a01b03851684529091529020805460ff1916600117905561184e3390565b6001600160a01b0316816001600160a01b0316837f2f8788117e7eff1d82e926ec794901d17c78024a50270940304540a733656f0d60405160405180910390a45050565b6000828152602081815260408083206001600160a01b038516845290915290205460ff1615610c83576000828152602081815260408083206001600160a01b0385168085529252808320805460ff1916905551339285917ff6391f5c32d9c69d2a47ea670b442974b53935d1edc7fd64eb21e047a839171b9190a45050565b6001600160a01b0383163b6119685760405162461bcd60e51b815260206004820152601b60248201527f50726f78793a206e6f7420636f6e7472616374206164647265737300000000006044820152606401610308565b801561199657600082815260026020526040902080546001600160a01b0319166001600160a01b0385161790555b610ae483825b6001600160a01b038216600081815260036020908152604091829020805460ff191685151590811790915591519182527f72558d9bfba4210f9ef095c782589484151f6d90f7a81bb3cb9b33efc695d324910160405180910390a25050565b6001600160e01b03198082169003611a555760405162461bcd60e51b815260206004820152601c60248201527f4552433136353a20696e76616c696420696e74657266616365206964000000006044820152606401610308565b6001600160e01b0319166000908152600560205260409020805460ff19166001179055565b6000828152602081815260408083206001600160a01b038516845290915290205460ff16610c8357611aab81611aed565b611ab6836020611aff565b604051602001611ac792919061200d565b60408051601f198184030181529082905262461bcd60e51b825261030891600401611eb7565b6060610b156001600160a01b03831660145b60606000611b0e83600261208e565b611b199060026120a5565b67ffffffffffffffff811115611b3157611b316120b8565b6040519080825280601f01601f191660200182016040528015611b5b576020820181803683370190505b509050600360fc1b81600081518110611b7657611b76611f8e565b60200101906001600160f81b031916908160001a905350600f60fb1b81600181518110611ba557611ba5611f8e565b60200101906001600160f81b031916908160001a9053506000611bc984600261208e565b611bd49060016120a5565b90505b6001811115611c59577f303132333435363738396162636465660000000000000000000000000000000085600f1660108110611c1557611c15611f8e565b1a60f81b828281518110611c2b57611c2b611f8e565b60200101906001600160f81b031916908160001a90535060049490941c93611c52816120ce565b9050611bd7565b508315611ca85760405162461bcd60e51b815260206004820181905260248201527f537472696e67733a20686578206c656e67746820696e73756666696369656e746044820152606401610308565b9392505050565b600060208284031215611cc157600080fd5b81356001600160e01b031981168114611ca857600080fd5b80356001600160a01b038116811461158157600080fd5b600060208284031215611d0257600080fd5b611ca882611cd9565b600060208284031215611d1d57600080fd5b5035919050565b60008060408385031215611d3757600080fd5b82359150611d4760208401611cd9565b90509250929050565b600080600060408486031215611d6557600080fd5b833567ffffffffffffffff80821115611d7d57600080fd5b818601915086601f830112611d9157600080fd5b813581811115611da057600080fd5b8760208260051b8501011115611db557600080fd5b602092830195509350611dcb9186019050611cd9565b90509250925092565b8035801515811461158157600080fd5b60008060408385031215611df757600080fd5b611e0083611cd9565b9150611d4760208401611dd4565b803563ffffffff8116811461158157600080fd5b60008060408385031215611e3557600080fd5b611e3e83611e0e565b9150611d4760208401611cd9565b600060208284031215611e5e57600080fd5b611ca882611e0e565b60005b83811015611e82578181015183820152602001611e6a565b50506000910152565b60008151808452611ea3816020860160208601611e67565b601f01601f19169290920160200192915050565b602081526000611ca86020830184611e8b565b600080600060608486031215611edf57600080fd5b611ee884611e0e565b9250611ef660208501611cd9565b9150604084013590509250925092565b600060208284031215611f1857600080fd5b611ca882611dd4565b600080600060608486031215611f3657600080fd5b611f3f84611cd9565b925060208401359150611dcb60408501611dd4565b600080600060608486031215611f6957600080fd5b611f7284611cd9565b9250611f8060208501611cd9565b9150611dcb60408501611cd9565b634e487b7160e01b600052603260045260246000fd5b634e487b7160e01b600052601160045260246000fd5b600060018201611fcc57611fcc611fa4565b5060010190565b600181811c90821680611fe757607f821691505b60208210810361200757634e487b7160e01b600052602260045260246000fd5b50919050565b7f416363657373436f6e74726f6c3a206163636f756e7420000000000000000000815260008351612045816017850160208801611e67565b7f206973206d697373696e6720726f6c65200000000000000000000000000000006017918401918201528351612082816028840160208801611e67565b01602801949350505050565b8082028115828204841417610b1557610b15611fa4565b80820180821115610b1557610b15611fa4565b634e487b7160e01b600052604160045260246000fd5b6000816120dd576120dd611fa4565b50600019019056fe41636365737369626c653a2043616c6c6572206973206e6f7420616e2061646da164736f6c6343000812000adf8b4c520ffe197c5343c6f5aec59570151ef9a492f2c624fd45ddde6135ec42",
  "linkReferences": {},
  "deployedLinkReferences": {}
}