{
  "_format": "hh-sol-artifact-1",
  "contractName": "CandidateProxy",
  "sourceName": "contracts/proxy/CandidateProxy.sol",
  "abi": [
    {
      "inputs": [],
      "stateMutability": "nonpayable",
      "type": "constructor"
    },
    {
      "anonymous": false,
      "inputs": [
        {
          "indexed": true,
          "internalType": "bytes32",
          "name": "role",
          "type": "bytes32"
        },
        {
          "indexed": true,
          "internalType": "bytes32",
          "name": "previousAdminRole",
          "type": "bytes32"
        },
        {
          "indexed": true,
          "internalType": "bytes32",
          "name": "newAdminRole",
          "type": "bytes32"
        }
      ],
      "name": "RoleAdminChanged",
      "type": "event"
    },
    {
      "anonymous": false,
      "inputs": [
        {
          "indexed": true,
          "internalType": "bytes32",
          "name": "role",
          "type": "bytes32"
        },
        {
          "indexed": true,
          "internalType": "address",
          "name": "account",
          "type": "address"
        },
        {
          "indexed": true,
          "internalType": "address",
          "name": "sender",
          "type": "address"
        }
      ],
      "name": "RoleGranted",
      "type": "event"
    },
    {
      "anonymous": false,
      "inputs": [
        {
          "indexed": true,
          "internalType": "bytes32",
          "name": "role",
          "type": "bytes32"
        },
        {
          "indexed": true,
          "internalType": "address",
          "name": "account",
          "type": "address"
        },
        {
          "indexed": true,
          "internalType": "address",
          "name": "sender",
          "type": "address"
        }
      ],
      "name": "RoleRevoked",
      "type": "event"
    },
    {
      "anonymous": false,
      "inputs": [
        {
          "indexed": true,
          "internalType": "address",
          "name": "impl",
          "type": "address"
        },
        {
          "indexed": false,
          "internalType": "bool",
          "name": "alive",
          "type": "bool"
        }
      ],
      "name": "SetAliveImplementation",
      "type": "event"
    },
    {
      "anonymous": false,
      "inputs": [
        {
          "indexed": true,
          "internalType": "bytes4",
          "name": "selector",
          "type": "bytes4"
        },
        {
          "indexed": true,
          "internalType": "address",
          "name": "impl",
          "type": "address"
        }
      ],
      "name": "SetSelectorImplementation",
      "type": "event"
    },
    {
      "anonymous": false,
      "inputs": [
        {
          "indexed": true,
          "internalType": "address",
          "name": "implementation",
          "type": "address"
        }
      ],
      "name": "Upgraded",
      "type": "event"
    },
    {
      "stateMutability": "payable",
      "type": "fallback"
    },
    {
      "inputs": [],
      "name": "ADMIN_ROLE",
      "outputs": [
        {
          "internalType": "bytes32",
          "name": "",
          "type": "bytes32"
        }
      ],
      "stateMutability": "view",
      "type": "function"
    },
    {
      "inputs": [],
      "name": "DEFAULT_ADMIN_ROLE",
      "outputs": [
        {
          "internalType": "bytes32",
          "name": "",
          "type": "bytes32"
        }
      ],
      "stateMutability": "view",
      "type": "function"
    },
    {
      "inputs": [],
      "name": "POLICY_ROLE",
      "outputs": [
        {
          "internalType": "bytes32",
          "name": "",
          "type": "bytes32"
        }
      ],
      "stateMutability": "view",
      "type": "function"
    },
    {
      "inputs": [
        {
          "internalType": "address",
          "name": "account",
          "type": "address"
        }
      ],
      "name": "addAdmin",
      "outputs": [],
      "stateMutability": "nonpayable",
      "type": "function"
    },
    {
      "inputs": [
        {
          "internalType": "address",
          "name": "",
          "type": "address"
        }
      ],
      "name": "aliveImplementation",
      "outputs": [
        {
          "internalType": "bool",
          "name": "",
          "type": "bool"
        }
      ],
      "stateMutability": "view",
      "type": "function"
    },
    {
      "inputs": [],
      "name": "fwReceipt",
      "outputs": [
        {
          "internalType": "address",
          "name": "",
          "type": "address"
        }
      ],
      "stateMutability": "view",
      "type": "function"
    },
    {
      "inputs": [
        {
          "internalType": "bytes32",
          "name": "role",
          "type": "bytes32"
        }
      ],
      "name": "getRoleAdmin",
      "outputs": [
        {
          "internalType": "bytes32",
          "name": "",
          "type": "bytes32"
        }
      ],
      "stateMutability": "view",
      "type": "function"
    },
    {
      "inputs": [
        {
          "internalType": "bytes4",
          "name": "_selector",
          "type": "bytes4"
        }
      ],
      "name": "getSelectorImplementation2",
      "outputs": [
        {
          "internalType": "address",
          "name": "impl",
          "type": "address"
        }
      ],
      "stateMutability": "view",
      "type": "function"
    },
    {
      "inputs": [
        {
          "internalType": "bytes32",
          "name": "role",
          "type": "bytes32"
        },
        {
          "internalType": "address",
          "name": "account",
          "type": "address"
        }
      ],
      "name": "grantRole",
      "outputs": [],
      "stateMutability": "nonpayable",
      "type": "function"
    },
    {
      "inputs": [
        {
          "internalType": "bytes32",
          "name": "role",
          "type": "bytes32"
        },
        {
          "internalType": "address",
          "name": "account",
          "type": "address"
        }
      ],
      "name": "hasRole",
      "outputs": [
        {
          "internalType": "bool",
          "name": "",
          "type": "bool"
        }
      ],
      "stateMutability": "view",
      "type": "function"
    },
    {
      "inputs": [],
      "name": "implementation",
      "outputs": [
        {
          "internalType": "address",
          "name": "",
          "type": "address"
        }
      ],
      "stateMutability": "view",
      "type": "function"
    },
    {
      "inputs": [
        {
          "internalType": "uint256",
          "name": "_index",
          "type": "uint256"
        }
      ],
      "name": "implementation2",
      "outputs": [
        {
          "internalType": "address",
          "name": "",
          "type": "address"
        }
      ],
      "stateMutability": "view",
      "type": "function"
    },
    {
      "inputs": [
        {
          "internalType": "address",
          "name": "_ton",
          "type": "address"
        },
        {
          "internalType": "address",
          "name": "_seigManagerV2",
          "type": "address"
        },
        {
          "internalType": "address",
          "name": "_layer2Manager",
          "type": "address"
        },
        {
          "internalType": "address",
          "name": "_fwReceipt",
          "type": "address"
        }
      ],
      "name": "initialize",
      "outputs": [],
      "stateMutability": "nonpayable",
      "type": "function"
    },
    {
      "inputs": [
        {
          "internalType": "address",
          "name": "account",
          "type": "address"
        }
      ],
      "name": "isAdmin",
      "outputs": [
        {
          "internalType": "bool",
          "name": "",
          "type": "bool"
        }
      ],
      "stateMutability": "view",
      "type": "function"
    },
    {
      "inputs": [],
      "name": "layer2Manager",
      "outputs": [
        {
          "internalType": "address",
          "name": "",
          "type": "address"
        }
      ],
      "stateMutability": "view",
      "type": "function"
    },
    {
      "inputs": [
        {
          "internalType": "uint32",
          "name": "",
          "type": "uint32"
        }
      ],
      "name": "layerInfo",
      "outputs": [
        {
          "internalType": "bytes",
          "name": "",
          "type": "bytes"
        }
      ],
      "stateMutability": "view",
      "type": "function"
    },
    {
      "inputs": [
        {
          "internalType": "uint32",
          "name": "",
          "type": "uint32"
        }
      ],
      "name": "layerStakedLton",
      "outputs": [
        {
          "internalType": "uint256",
          "name": "",
          "type": "uint256"
        }
      ],
      "stateMutability": "view",
      "type": "function"
    },
    {
      "inputs": [
        {
          "internalType": "uint32",
          "name": "",
          "type": "uint32"
        },
        {
          "internalType": "address",
          "name": "",
          "type": "address"
        }
      ],
      "name": "layerStakes",
      "outputs": [
        {
          "internalType": "uint256",
          "name": "stakePrincipal",
          "type": "uint256"
        },
        {
          "internalType": "uint256",
          "name": "bondPrincipal",
          "type": "uint256"
        },
        {
          "internalType": "uint256",
          "name": "stakelton",
          "type": "uint256"
        },
        {
          "internalType": "uint256",
          "name": "bondlton",
          "type": "uint256"
        },
        {
          "internalType": "bool",
          "name": "stake",
          "type": "bool"
        },
        {
          "internalType": "uint16",
          "name": "fwFee",
          "type": "uint16"
        }
      ],
      "stateMutability": "view",
      "type": "function"
    },
    {
      "inputs": [
        {
          "internalType": "uint32",
          "name": "",
          "type": "uint32"
        },
        {
          "internalType": "address",
          "name": "",
          "type": "address"
        }
      ],
      "name": "operators",
      "outputs": [
        {
          "internalType": "uint32",
          "name": "",
          "type": "uint32"
        }
      ],
      "stateMutability": "view",
      "type": "function"
    },
    {
      "inputs": [],
      "name": "pauseProxy",
      "outputs": [
        {
          "internalType": "bool",
          "name": "",
          "type": "bool"
        }
      ],
      "stateMutability": "view",
      "type": "function"
    },
    {
      "inputs": [
        {
          "internalType": "uint32",
          "name": "",
          "type": "uint32"
        },
        {
          "internalType": "address",
          "name": "",
          "type": "address"
        }
      ],
      "name": "pendingUnstaked",
      "outputs": [
        {
          "internalType": "uint256",
          "name": "",
          "type": "uint256"
        }
      ],
      "stateMutability": "view",
      "type": "function"
    },
    {
      "inputs": [
        {
          "internalType": "address",
          "name": "",
          "type": "address"
        }
      ],
      "name": "pendingUnstakedAccount",
      "outputs": [
        {
          "internalType": "uint256",
          "name": "",
          "type": "uint256"
        }
      ],
      "stateMutability": "view",
      "type": "function"
    },
    {
      "inputs": [
        {
          "internalType": "uint32",
          "name": "",
          "type": "uint32"
        }
      ],
      "name": "pendingUnstakedLayer2",
      "outputs": [
        {
          "internalType": "uint256",
          "name": "",
          "type": "uint256"
        }
      ],
      "stateMutability": "view",
      "type": "function"
    },
    {
      "inputs": [
        {
          "internalType": "uint256",
          "name": "",
          "type": "uint256"
        }
      ],
      "name": "proxyImplementation",
      "outputs": [
        {
          "internalType": "address",
          "name": "",
          "type": "address"
        }
      ],
      "stateMutability": "view",
      "type": "function"
    },
    {
      "inputs": [
        {
          "internalType": "address",
          "name": "account",
          "type": "address"
        }
      ],
      "name": "removeAdmin",
      "outputs": [],
      "stateMutability": "nonpayable",
      "type": "function"
    },
    {
      "inputs": [
        {
          "internalType": "bytes32",
          "name": "role",
          "type": "bytes32"
        },
        {
          "internalType": "address",
          "name": "account",
          "type": "address"
        }
      ],
      "name": "renounceRole",
      "outputs": [],
      "stateMutability": "nonpayable",
      "type": "function"
    },
    {
      "inputs": [
        {
          "internalType": "bytes32",
          "name": "role",
          "type": "bytes32"
        },
        {
          "internalType": "address",
          "name": "account",
          "type": "address"
        }
      ],
      "name": "revokeRole",
      "outputs": [],
      "stateMutability": "nonpayable",
      "type": "function"
    },
    {
      "inputs": [],
      "name": "seigManagerV2",
      "outputs": [
        {
          "internalType": "address",
          "name": "",
          "type": "address"
        }
      ],
      "stateMutability": "view",
      "type": "function"
    },
    {
      "inputs": [
        {
          "internalType": "bytes4",
          "name": "",
          "type": "bytes4"
        }
      ],
      "name": "selectorImplementation",
      "outputs": [
        {
          "internalType": "address",
          "name": "",
          "type": "address"
        }
      ],
      "stateMutability": "view",
      "type": "function"
    },
    {
      "inputs": [
        {
          "internalType": "address",
          "name": "newImplementation",
          "type": "address"
        },
        {
          "internalType": "bool",
          "name": "_alive",
          "type": "bool"
        }
      ],
      "name": "setAliveImplementation2",
      "outputs": [],
      "stateMutability": "nonpayable",
      "type": "function"
    },
    {
      "inputs": [
        {
          "internalType": "address",
          "name": "newImplementation",
          "type": "address"
        },
        {
          "internalType": "uint256",
          "name": "_index",
          "type": "uint256"
        },
        {
          "internalType": "bool",
          "name": "_alive",
          "type": "bool"
        }
      ],
      "name": "setImplementation2",
      "outputs": [],
      "stateMutability": "nonpayable",
      "type": "function"
    },
    {
      "inputs": [
        {
          "internalType": "bool",
          "name": "_pause",
          "type": "bool"
        }
      ],
      "name": "setProxyPause",
      "outputs": [],
      "stateMutability": "nonpayable",
      "type": "function"
    },
    {
      "inputs": [
        {
          "internalType": "bytes4[]",
          "name": "_selectors",
          "type": "bytes4[]"
        },
        {
          "internalType": "address",
          "name": "_imp",
          "type": "address"
        }
      ],
      "name": "setSelectorImplementations2",
      "outputs": [],
      "stateMutability": "nonpayable",
      "type": "function"
    },
    {
      "inputs": [
        {
          "internalType": "uint256",
          "name": "",
          "type": "uint256"
        }
      ],
      "name": "stakeAccountList",
      "outputs": [
        {
          "internalType": "address",
          "name": "",
          "type": "address"
        }
      ],
      "stateMutability": "view",
      "type": "function"
    },
    {
      "inputs": [
        {
          "internalType": "bytes4",
          "name": "interfaceId",
          "type": "bytes4"
        }
      ],
      "name": "supportsInterface",
      "outputs": [
        {
          "internalType": "bool",
          "name": "",
          "type": "bool"
        }
      ],
      "stateMutability": "view",
      "type": "function"
    },
    {
      "inputs": [],
      "name": "ton",
      "outputs": [
        {
          "internalType": "address",
          "name": "",
          "type": "address"
        }
      ],
      "stateMutability": "view",
      "type": "function"
    },
    {
      "inputs": [],
      "name": "totalStakedLton",
      "outputs": [
        {
          "internalType": "uint256",
          "name": "",
          "type": "uint256"
        }
      ],
      "stateMutability": "view",
      "type": "function"
    },
    {
      "inputs": [
        {
          "internalType": "address",
          "name": "newAdmin",
          "type": "address"
        }
      ],
      "name": "transferAdmin",
      "outputs": [],
      "stateMutability": "nonpayable",
      "type": "function"
    },
    {
      "inputs": [
        {
          "internalType": "address",
          "name": "impl",
          "type": "address"
        }
      ],
      "name": "upgradeTo",
      "outputs": [],
      "stateMutability": "nonpayable",
      "type": "function"
    },
    {
      "inputs": [
        {
          "internalType": "uint32",
          "name": "",
          "type": "uint32"
        },
        {
          "internalType": "address",
          "name": "",
          "type": "address"
        }
      ],
      "name": "withdrawalRequestIndex",
      "outputs": [
        {
          "internalType": "uint256",
          "name": "",
          "type": "uint256"
        }
      ],
      "stateMutability": "view",
      "type": "function"
    },
    {
      "inputs": [
        {
          "internalType": "uint32",
          "name": "",
          "type": "uint32"
        },
        {
          "internalType": "address",
          "name": "",
          "type": "address"
        },
        {
          "internalType": "uint256",
          "name": "",
          "type": "uint256"
        }
      ],
      "name": "withdrawalRequests",
      "outputs": [
        {
          "internalType": "uint32",
          "name": "withdrawableBlockNumber",
          "type": "uint32"
        },
        {
          "internalType": "uint128",
          "name": "amount",
          "type": "uint128"
        },
        {
          "internalType": "bool",
          "name": "processed",
          "type": "bool"
        }
      ],
      "stateMutability": "view",
      "type": "function"
    },
    {
      "stateMutability": "payable",
      "type": "receive"
    }
  ],
  "bytecode": "0x60806040526006805460ff191660011790553480156200001e57600080fd5b506200003a600080516020620023148339815191528062000068565b620000556000805160206200231483398151915233620000b3565b62000062600033620000b3565b62000163565b600082815260208190526040808220600101805490849055905190918391839186917fbd79b86ffe0ab8e8776151514217cd7cacd52c909f66475c3af44e129f0b00ff9190a4505050565b620000bf8282620000c3565b5050565b6000828152602081815260408083206001600160a01b038516845290915290205460ff16620000bf576000828152602081815260408083206001600160a01b03851684529091529020805460ff191660011790556200011f3390565b6001600160a01b0316816001600160a01b0316837f2f8788117e7eff1d82e926ec794901d17c78024a50270940304540a733656f0d60405160405180910390a45050565b6121a180620001736000396000f3fe6080604052600436106102ca5760003560e01c806370619cf9116101795780639c656e26116100d6578063cc48b9471161008a578063ec110d4511610064578063ec110d45146109d8578063f8c8765e146109f8578063fde4819714610a185761031c565b8063cc48b94714610973578063d07918f114610998578063d547741f146109b85761031c565b8063a217fddf116100bb578063a217fddf146108fb578063b911135f14610910578063b9cab971146109465761031c565b80639c656e2614610838578063a0b2a913146108ce5761031c565b80637cd5f6631161012d5780638b8f4a65116101125780638b8f4a65146107b45780638d4fdb40146107d457806391d14854146107f45761031c565b80637cd5f6631461075c5780637cf1587c1461077c5761031c565b806375829def1161015e57806375829def146106e857806375b238fc146107085780637cb00d251461073c5761031c565b806370619cf91461069b57806373469a7a146106c85761031c565b80634e1a264d116102275780635e2cfe45116101db578063659ab820116101c0578063659ab820146105f95780636d1ef10314610626578063704802751461067b5761031c565b80635e2cfe45146105a757806363a8fd89146105df5761031c565b8063550d01a31161020c578063550d01a3146105115780635c60da1b146105415780635cc797d8146105875761031c565b80634e1a264d146104c557806350d2a276146104db5761031c565b806324d7806c1161027e57806336568abe1161026357806336568abe146104655780633659cfe6146104855780634a5df50f146104a55761031c565b806324d7806c146104255780632f2ff15d146104455761031c565b80631785f53c116102af5780631785f53c1461039357806322985246146103b3578063248a9ca3146103f55761031c565b806301ffc9a71461032657806316b5d5bd1461035b5761031c565b3661031c5760405162461bcd60e51b815260206004820152601460248201527f63616e6e6f74207265636569766520457468657200000000000000000000000060448201526064015b60405180910390fd5b610324610a6b565b005b34801561033257600080fd5b50610346610341366004611d24565b610b14565b60405190151581526020015b60405180910390f35b34801561036757600080fd5b5060085461037b906001600160a01b031681565b6040516001600160a01b039091168152602001610352565b34801561039f57600080fd5b506103246103ae366004611d65565b610b46565b3480156103bf57600080fd5b506103e77ffb5864e8ff833c3cb2d2d08505e82ff02a43554c74a35d4f5a64e8526127831181565b604051908152602001610352565b34801561040157600080fd5b506103e7610410366004611d80565b60009081526020819052604090206001015490565b34801561043157600080fd5b50610346610440366004611d65565b610bc1565b34801561045157600080fd5b50610324610460366004611d99565b610c01565b34801561047157600080fd5b50610324610480366004611d99565b610c26565b34801561049157600080fd5b506103246104a0366004611d65565b610cb2565b3480156104b157600080fd5b506103246104c0366004611dc5565b610e0b565b3480156104d157600080fd5b506103e760095481565b3480156104e757600080fd5b5061037b6104f6366004611d24565b6004602052600090815260409020546001600160a01b031681565b34801561051d57600080fd5b5061034661052c366004611d65565b60036020526000908152604090205460ff1681565b34801561054d57600080fd5b506000805260026020527fac33ff75c19e70fe83507db0d683fd3465c996598dc972688b7ace676c89077b546001600160a01b031661037b565b34801561059357600080fd5b506103246105a2366004611e59565b6110ab565b3480156105b357600080fd5b506103e76105c2366004611e97565b600e60209081526000928352604080842090915290825290205481565b3480156105eb57600080fd5b506001546103469060ff1681565b34801561060557600080fd5b50610619610614366004611ec1565b611103565b6040516103529190611f2c565b34801561063257600080fd5b50610646610641366004611f3f565b61119d565b6040805163ffffffff90941684526fffffffffffffffffffffffffffffffff9092166020840152151590820152606001610352565b34801561068757600080fd5b50610324610696366004611d65565b611216565b3480156106a757600080fd5b506103e76106b6366004611ec1565b600a6020526000908152604090205481565b3480156106d457600080fd5b5060075461037b906001600160a01b031681565b3480156106f457600080fd5b50610324610703366004611d65565b61128e565b34801561071457600080fd5b506103e77fdf8b4c520ffe197c5343c6f5aec59570151ef9a492f2c624fd45ddde6135ec4281565b34801561074857600080fd5b50610324610757366004611f7b565b6113de565b34801561076857600080fd5b50610324610777366004611f96565b61143f565b34801561078857600080fd5b506103e7610797366004611e97565b600d60209081526000928352604080842090915290825290205481565b3480156107c057600080fd5b5061037b6107cf366004611d80565b611498565b3480156107e057600080fd5b5061037b6107ef366004611d24565b6114b5565b34801561080057600080fd5b5061034661080f366004611d99565b6000918252602082815260408084206001600160a01b0393909316845291905290205460ff1690565b34801561084457600080fd5b5061089b610853366004611e97565b600b602090815260009283526040808420909152908252902080546001820154600283015460038401546004909401549293919290919060ff811690610100900461ffff1686565b6040805196875260208701959095529385019290925260608401521515608083015261ffff1660a082015260c001610352565b3480156108da57600080fd5b506103e76108e9366004611d65565b60106020526000908152604090205481565b34801561090757600080fd5b506103e7600081565b34801561091c57600080fd5b5061037b61092b366004611d80565b6002602052600090815260409020546001600160a01b031681565b34801561095257600080fd5b506103e7610961366004611ec1565b600f6020526000908152604090205481565b34801561097f57600080fd5b5060065461037b9061010090046001600160a01b031681565b3480156109a457600080fd5b5060135461037b906001600160a01b031681565b3480156109c457600080fd5b506103246109d3366004611d99565b6115b1565b3480156109e457600080fd5b5061037b6109f3366004611d80565b6115d6565b348015610a0457600080fd5b50610324610a13366004611fc9565b611600565b348015610a2457600080fd5b50610a56610a33366004611e97565b601460209081526000928352604080842090915290825290205463ffffffff1681565b60405163ffffffff9091168152602001610352565b6000610a826000356001600160e01b0319166114b5565b90506001600160a01b03811615801590610a9f575060015460ff16155b610aeb5760405162461bcd60e51b815260206004820152601d60248201527f50726f78793a20696d706c204f522070726f78792069732066616c73650000006044820152606401610313565b3660008037600080366000845af43d6000803e808015610b0a573d6000f35b3d6000fd5b505050565b6001600160e01b0319811660009081526005602052604081205460ff1680610b405750610b408261182a565b92915050565b610b4f33610bc1565b610b945760405162461bcd60e51b8152602060048201526022602482015260008051602061217583398151915260448201526134b760f11b6064820152608401610313565b610bbe7fdf8b4c520ffe197c5343c6f5aec59570151ef9a492f2c624fd45ddde6135ec4282610c26565b50565b6001600160a01b03811660009081527f5cbfc8ee58ca47855df7bcf648dd304ddb6b932f9b87878bdf6318d7ec7ee5b7602052604081205460ff16610b40565b600082815260208190526040902060010154610c1c8161185f565b610b0f8383611869565b6001600160a01b0381163314610ca45760405162461bcd60e51b815260206004820152602f60248201527f416363657373436f6e74726f6c3a2063616e206f6e6c792072656e6f756e636560448201527f20726f6c657320666f722073656c6600000000000000000000000000000000006064820152608401610313565b610cae8282611907565b5050565b610cbb33610bc1565b610d005760405162461bcd60e51b8152602060048201526022602482015260008051602061217583398151915260448201526134b760f11b6064820152608401610313565b6001600160a01b038116610d565760405162461bcd60e51b815260206004820152600d60248201527f696e707574206973207a65726f000000000000000000000000000000000000006044820152606401610313565b6000805260026020527fac33ff75c19e70fe83507db0d683fd3465c996598dc972688b7ace676c89077b546001600160a01b03828116911603610dc75760405162461bcd60e51b815260206004820152600960248201526839b0b6b29030b2323960b91b6044820152606401610313565b610dd48160006001611986565b6040516001600160a01b038216907fbc7cd75a20ee27fd9adebab32041f755214dbc6bffa90cc0225b39da2e5c2d3b90600090a250565b610e1433610bc1565b610e595760405162461bcd60e51b8152602060048201526022602482015260008051602061217583398151915260448201526134b760f11b6064820152608401610313565b81610ea65760405162461bcd60e51b815260206004820181905260248201527f50726f78793a205f73656c6563746f727327732073697a65206973207a65726f6044820152606401610313565b6001600160a01b03811660009081526003602052604090205460ff16610f0e5760405162461bcd60e51b815260206004820152601860248201527f50726f78793a205f696d70206973206e6f7420616c69766500000000000000006044820152606401610313565b60005b828110156110a557816001600160a01b031660046000868685818110610f3957610f3961201d565b9050602002016020810190610f4e9190611d24565b6001600160e01b03191681526020810191909152604001600020546001600160a01b031603610fbf5760405162461bcd60e51b815260206004820152601d60248201527f4c69717569646974795661756c7450726f78793a2073616d6520696d700000006044820152606401610313565b8160046000868685818110610fd657610fd661201d565b9050602002016020810190610feb9190611d24565b6001600160e01b0319168152602081019190915260400160002080546001600160a01b0319166001600160a01b0392831617905582168484838181106110335761103361201d565b90506020020160208101906110489190611d24565b7bffffffffffffffffffffffffffffffffffffffffffffffffffffffff19167f14ebc1c32aa68f4d766e89f3e546cee249f7df25183fc10ab1568d91c2ce9b7b60405160405180910390a38061109d81612049565b915050610f11565b50505050565b6110b433610bc1565b6110f95760405162461bcd60e51b8152602060048201526022602482015260008051602061217583398151915260448201526134b760f11b6064820152608401610313565b610cae8282611a11565b6011602052600090815260409020805461111c90612062565b80601f016020809104026020016040519081016040528092919081815260200182805461114890612062565b80156111955780601f1061116a57610100808354040283529160200191611195565b820191906000526020600020905b81548152906001019060200180831161117857829003601f168201915b505050505081565b600c60205282600052604060002060205281600052604060002081815481106111c557600080fd5b60009182526020909120015463ffffffff8116935064010000000081046fffffffffffffffffffffffffffffffff16925074010000000000000000000000000000000000000000900460ff16905083565b61121f33610bc1565b6112645760405162461bcd60e51b8152602060048201526022602482015260008051602061217583398151915260448201526134b760f11b6064820152608401610313565b610bbe7fdf8b4c520ffe197c5343c6f5aec59570151ef9a492f2c624fd45ddde6135ec4282610c01565b61129733610bc1565b6112dc5760405162461bcd60e51b8152602060048201526022602482015260008051602061217583398151915260448201526134b760f11b6064820152608401610313565b6001600160a01b0381166113325760405162461bcd60e51b815260206004820152601860248201527f41636365737369626c653a207a65726f206164647265737300000000000000006044820152606401610313565b6001600160a01b038116330361138a5760405162461bcd60e51b815260206004820152601660248201527f41636365737369626c653a2073616d652061646d696e000000000000000000006044820152606401610313565b6113b47fdf8b4c520ffe197c5343c6f5aec59570151ef9a492f2c624fd45ddde6135ec4282610c01565b610bbe7fdf8b4c520ffe197c5343c6f5aec59570151ef9a492f2c624fd45ddde6135ec4233610c26565b6113e733610bc1565b61142c5760405162461bcd60e51b8152602060048201526022602482015260008051602061217583398151915260448201526134b760f11b6064820152608401610313565b6001805460ff1916911515919091179055565b61144833610bc1565b61148d5760405162461bcd60e51b8152602060048201526022602482015260008051602061217583398151915260448201526134b760f11b6064820152608401610313565b610b0f838383611986565b6000818152600260205260408120546001600160a01b0316610b40565b6001600160e01b031981166000908152600460205260408120546001600160a01b03166115155750506000805260026020527fac33ff75c19e70fe83507db0d683fd3465c996598dc972688b7ace676c89077b546001600160a01b031690565b6001600160e01b031982166000908152600460209081526040808320546001600160a01b03168352600390915290205460ff161561157357506001600160e01b0319166000908152600460205260409020546001600160a01b031690565b50506000805260026020527fac33ff75c19e70fe83507db0d683fd3465c996598dc972688b7ace676c89077b546001600160a01b031690565b919050565b6000828152602081905260409020600101546115cc8161185f565b610b0f8383611907565b601281815481106115e657600080fd5b6000918252602090912001546001600160a01b0316905081565b61160933610bc1565b61164e5760405162461bcd60e51b8152602060048201526022602482015260008051602061217583398151915260448201526134b760f11b6064820152608401610313565b836001600160a01b03811661168a5760405162461bcd60e51b81526020600482015260026024820152612d1960f11b6044820152606401610313565b836001600160a01b0381166116c65760405162461bcd60e51b81526020600482015260026024820152612d1960f11b6044820152606401610313565b836001600160a01b0381166117025760405162461bcd60e51b81526020600482015260026024820152612d1960f11b6044820152606401610313565b836001600160a01b03811661173e5760405162461bcd60e51b81526020600482015260026024820152612d1960f11b6044820152606401610313565b60065461010090046001600160a01b03161561179c5760405162461bcd60e51b815260206004820152601260248201527f616c726561647920696e697469616c697a6500000000000000000000000000006044820152606401610313565b600780546001600160a01b03199081166001600160a01b038a8116919091179092556006805474ffffffffffffffffffffffffffffffffffffffff0019166101008c85160217905560088054821689841617905560138054909116918716919091179055611810632139e50b60e11b611a70565b6118206301ffc9a760e01b611a70565b5050505050505050565b60006001600160e01b03198216637965db0b60e01b1480610b4057506301ffc9a760e01b6001600160e01b0319831614610b40565b610bbe8133611aef565b6000828152602081815260408083206001600160a01b038516845290915290205460ff16610cae576000828152602081815260408083206001600160a01b03851684529091529020805460ff191660011790556118c33390565b6001600160a01b0316816001600160a01b0316837f2f8788117e7eff1d82e926ec794901d17c78024a50270940304540a733656f0d60405160405180910390a45050565b6000828152602081815260408083206001600160a01b038516845290915290205460ff1615610cae576000828152602081815260408083206001600160a01b0385168085529252808320805460ff1916905551339285917ff6391f5c32d9c69d2a47ea670b442974b53935d1edc7fd64eb21e047a839171b9190a45050565b6001600160a01b0383163b6119dd5760405162461bcd60e51b815260206004820152601b60248201527f50726f78793a206e6f7420636f6e7472616374206164647265737300000000006044820152606401610313565b8015611a0b57600082815260026020526040902080546001600160a01b0319166001600160a01b0385161790555b610b0f83825b6001600160a01b038216600081815260036020908152604091829020805460ff191685151590811790915591519182527f72558d9bfba4210f9ef095c782589484151f6d90f7a81bb3cb9b33efc695d324910160405180910390a25050565b6001600160e01b03198082169003611aca5760405162461bcd60e51b815260206004820152601c60248201527f4552433136353a20696e76616c696420696e74657266616365206964000000006044820152606401610313565b6001600160e01b0319166000908152600560205260409020805460ff19166001179055565b6000828152602081815260408083206001600160a01b038516845290915290205460ff16610cae57611b2081611b62565b611b2b836020611b74565b604051602001611b3c92919061209c565b60408051601f198184030181529082905262461bcd60e51b825261031391600401611f2c565b6060610b406001600160a01b03831660145b60606000611b8383600261211d565b611b8e906002612134565b67ffffffffffffffff811115611ba657611ba6612147565b6040519080825280601f01601f191660200182016040528015611bd0576020820181803683370190505b509050600360fc1b81600081518110611beb57611beb61201d565b60200101906001600160f81b031916908160001a905350600f60fb1b81600181518110611c1a57611c1a61201d565b60200101906001600160f81b031916908160001a9053506000611c3e84600261211d565b611c49906001612134565b90505b6001811115611cce577f303132333435363738396162636465660000000000000000000000000000000085600f1660108110611c8a57611c8a61201d565b1a60f81b828281518110611ca057611ca061201d565b60200101906001600160f81b031916908160001a90535060049490941c93611cc78161215d565b9050611c4c565b508315611d1d5760405162461bcd60e51b815260206004820181905260248201527f537472696e67733a20686578206c656e67746820696e73756666696369656e746044820152606401610313565b9392505050565b600060208284031215611d3657600080fd5b81356001600160e01b031981168114611d1d57600080fd5b80356001600160a01b03811681146115ac57600080fd5b600060208284031215611d7757600080fd5b611d1d82611d4e565b600060208284031215611d9257600080fd5b5035919050565b60008060408385031215611dac57600080fd5b82359150611dbc60208401611d4e565b90509250929050565b600080600060408486031215611dda57600080fd5b833567ffffffffffffffff80821115611df257600080fd5b818601915086601f830112611e0657600080fd5b813581811115611e1557600080fd5b8760208260051b8501011115611e2a57600080fd5b602092830195509350611e409186019050611d4e565b90509250925092565b803580151581146115ac57600080fd5b60008060408385031215611e6c57600080fd5b611e7583611d4e565b9150611dbc60208401611e49565b803563ffffffff811681146115ac57600080fd5b60008060408385031215611eaa57600080fd5b611eb383611e83565b9150611dbc60208401611d4e565b600060208284031215611ed357600080fd5b611d1d82611e83565b60005b83811015611ef7578181015183820152602001611edf565b50506000910152565b60008151808452611f18816020860160208601611edc565b601f01601f19169290920160200192915050565b602081526000611d1d6020830184611f00565b600080600060608486031215611f5457600080fd5b611f5d84611e83565b9250611f6b60208501611d4e565b9150604084013590509250925092565b600060208284031215611f8d57600080fd5b611d1d82611e49565b600080600060608486031215611fab57600080fd5b611fb484611d4e565b925060208401359150611e4060408501611e49565b60008060008060808587031215611fdf57600080fd5b611fe885611d4e565b9350611ff660208601611d4e565b925061200460408601611d4e565b915061201260608601611d4e565b905092959194509250565b634e487b7160e01b600052603260045260246000fd5b634e487b7160e01b600052601160045260246000fd5b60006001820161205b5761205b612033565b5060010190565b600181811c9082168061207657607f821691505b60208210810361209657634e487b7160e01b600052602260045260246000fd5b50919050565b7f416363657373436f6e74726f6c3a206163636f756e74200000000000000000008152600083516120d4816017850160208801611edc565b7f206973206d697373696e6720726f6c65200000000000000000000000000000006017918401918201528351612111816028840160208801611edc565b01602801949350505050565b8082028115828204841417610b4057610b40612033565b80820180821115610b4057610b40612033565b634e487b7160e01b600052604160045260246000fd5b60008161216c5761216c612033565b50600019019056fe41636365737369626c653a2043616c6c6572206973206e6f7420616e2061646da164736f6c6343000812000adf8b4c520ffe197c5343c6f5aec59570151ef9a492f2c624fd45ddde6135ec42",
  "linkReferences": {},
  "deployedLinkReferences": {}
}