{
  "_format": "hh-sol-artifact-1",
  "contractName": "CandidateProxy",
  "sourceName": "contracts/proxy/CandidateProxy.sol",
  "abi": [
    {
      "inputs": [],
      "stateMutability": "nonpayable",
      "type": "constructor"
    },
    {
      "anonymous": false,
      "inputs": [
        {
          "indexed": true,
          "internalType": "bytes32",
          "name": "role",
          "type": "bytes32"
        },
        {
          "indexed": true,
          "internalType": "bytes32",
          "name": "previousAdminRole",
          "type": "bytes32"
        },
        {
          "indexed": true,
          "internalType": "bytes32",
          "name": "newAdminRole",
          "type": "bytes32"
        }
      ],
      "name": "RoleAdminChanged",
      "type": "event"
    },
    {
      "anonymous": false,
      "inputs": [
        {
          "indexed": true,
          "internalType": "bytes32",
          "name": "role",
          "type": "bytes32"
        },
        {
          "indexed": true,
          "internalType": "address",
          "name": "account",
          "type": "address"
        },
        {
          "indexed": true,
          "internalType": "address",
          "name": "sender",
          "type": "address"
        }
      ],
      "name": "RoleGranted",
      "type": "event"
    },
    {
      "anonymous": false,
      "inputs": [
        {
          "indexed": true,
          "internalType": "bytes32",
          "name": "role",
          "type": "bytes32"
        },
        {
          "indexed": true,
          "internalType": "address",
          "name": "account",
          "type": "address"
        },
        {
          "indexed": true,
          "internalType": "address",
          "name": "sender",
          "type": "address"
        }
      ],
      "name": "RoleRevoked",
      "type": "event"
    },
    {
      "anonymous": false,
      "inputs": [
        {
          "indexed": true,
          "internalType": "address",
          "name": "impl",
          "type": "address"
        },
        {
          "indexed": false,
          "internalType": "bool",
          "name": "alive",
          "type": "bool"
        }
      ],
      "name": "SetAliveImplementation",
      "type": "event"
    },
    {
      "anonymous": false,
      "inputs": [
        {
          "indexed": true,
          "internalType": "bytes4",
          "name": "selector",
          "type": "bytes4"
        },
        {
          "indexed": true,
          "internalType": "address",
          "name": "impl",
          "type": "address"
        }
      ],
      "name": "SetSelectorImplementation",
      "type": "event"
    },
    {
      "anonymous": false,
      "inputs": [
        {
          "indexed": true,
          "internalType": "address",
          "name": "implementation",
          "type": "address"
        }
      ],
      "name": "Upgraded",
      "type": "event"
    },
    {
      "stateMutability": "payable",
      "type": "fallback"
    },
    {
      "inputs": [],
      "name": "ADMIN_ROLE",
      "outputs": [
        {
          "internalType": "bytes32",
          "name": "",
          "type": "bytes32"
        }
      ],
      "stateMutability": "view",
      "type": "function"
    },
    {
      "inputs": [],
      "name": "DEFAULT_ADMIN_ROLE",
      "outputs": [
        {
          "internalType": "bytes32",
          "name": "",
          "type": "bytes32"
        }
      ],
      "stateMutability": "view",
      "type": "function"
    },
    {
      "inputs": [],
      "name": "POLICY_ROLE",
      "outputs": [
        {
          "internalType": "bytes32",
          "name": "",
          "type": "bytes32"
        }
      ],
      "stateMutability": "view",
      "type": "function"
    },
    {
      "inputs": [
        {
          "internalType": "address",
          "name": "account",
          "type": "address"
        }
      ],
      "name": "addAdmin",
      "outputs": [],
      "stateMutability": "nonpayable",
      "type": "function"
    },
    {
      "inputs": [
        {
          "internalType": "address",
          "name": "",
          "type": "address"
        }
      ],
      "name": "aliveImplementation",
      "outputs": [
        {
          "internalType": "bool",
          "name": "",
          "type": "bool"
        }
      ],
      "stateMutability": "view",
      "type": "function"
    },
    {
      "inputs": [
        {
          "internalType": "uint32",
          "name": "",
          "type": "uint32"
        }
      ],
      "name": "commissions",
      "outputs": [
        {
          "internalType": "uint16",
          "name": "",
          "type": "uint16"
        }
      ],
      "stateMutability": "view",
      "type": "function"
    },
    {
      "inputs": [
        {
          "internalType": "bytes32",
          "name": "role",
          "type": "bytes32"
        }
      ],
      "name": "getRoleAdmin",
      "outputs": [
        {
          "internalType": "bytes32",
          "name": "",
          "type": "bytes32"
        }
      ],
      "stateMutability": "view",
      "type": "function"
    },
    {
      "inputs": [
        {
          "internalType": "bytes4",
          "name": "_selector",
          "type": "bytes4"
        }
      ],
      "name": "getSelectorImplementation2",
      "outputs": [
        {
          "internalType": "address",
          "name": "impl",
          "type": "address"
        }
      ],
      "stateMutability": "view",
      "type": "function"
    },
    {
      "inputs": [
        {
          "internalType": "bytes32",
          "name": "role",
          "type": "bytes32"
        },
        {
          "internalType": "address",
          "name": "account",
          "type": "address"
        }
      ],
      "name": "grantRole",
      "outputs": [],
      "stateMutability": "nonpayable",
      "type": "function"
    },
    {
      "inputs": [
        {
          "internalType": "bytes32",
          "name": "role",
          "type": "bytes32"
        },
        {
          "internalType": "address",
          "name": "account",
          "type": "address"
        }
      ],
      "name": "hasRole",
      "outputs": [
        {
          "internalType": "bool",
          "name": "",
          "type": "bool"
        }
      ],
      "stateMutability": "view",
      "type": "function"
    },
    {
      "inputs": [],
      "name": "implementation",
      "outputs": [
        {
          "internalType": "address",
          "name": "",
          "type": "address"
        }
      ],
      "stateMutability": "view",
      "type": "function"
    },
    {
      "inputs": [
        {
          "internalType": "uint256",
          "name": "_index",
          "type": "uint256"
        }
      ],
      "name": "implementation2",
      "outputs": [
        {
          "internalType": "address",
          "name": "",
          "type": "address"
        }
      ],
      "stateMutability": "view",
      "type": "function"
    },
    {
      "inputs": [
        {
          "internalType": "address",
          "name": "_ton",
          "type": "address"
        },
        {
          "internalType": "address",
          "name": "_seigManagerV2",
          "type": "address"
        },
        {
          "internalType": "address",
          "name": "_layer2Manager",
          "type": "address"
        }
      ],
      "name": "initialize",
      "outputs": [],
      "stateMutability": "nonpayable",
      "type": "function"
    },
    {
      "inputs": [
        {
          "internalType": "address",
          "name": "account",
          "type": "address"
        }
      ],
      "name": "isAdmin",
      "outputs": [
        {
          "internalType": "bool",
          "name": "",
          "type": "bool"
        }
      ],
      "stateMutability": "view",
      "type": "function"
    },
    {
      "inputs": [],
      "name": "layer2Manager",
      "outputs": [
        {
          "internalType": "address",
          "name": "",
          "type": "address"
        }
      ],
      "stateMutability": "view",
      "type": "function"
    },
    {
      "inputs": [
        {
          "internalType": "uint32",
          "name": "",
          "type": "uint32"
        }
      ],
      "name": "layerInfo",
      "outputs": [
        {
          "internalType": "bytes",
          "name": "",
          "type": "bytes"
        }
      ],
      "stateMutability": "view",
      "type": "function"
    },
    {
      "inputs": [
        {
          "internalType": "uint32",
          "name": "",
          "type": "uint32"
        }
      ],
      "name": "layerStakedLton",
      "outputs": [
        {
          "internalType": "uint256",
          "name": "",
          "type": "uint256"
        }
      ],
      "stateMutability": "view",
      "type": "function"
    },
    {
      "inputs": [
        {
          "internalType": "uint32",
          "name": "",
          "type": "uint32"
        },
        {
          "internalType": "address",
          "name": "",
          "type": "address"
        }
      ],
      "name": "layerStakes",
      "outputs": [
        {
          "internalType": "uint256",
          "name": "stakePrincipal",
          "type": "uint256"
        },
        {
          "internalType": "uint256",
          "name": "bondPrincipal",
          "type": "uint256"
        },
        {
          "internalType": "uint256",
          "name": "stakelton",
          "type": "uint256"
        },
        {
          "internalType": "uint256",
          "name": "bondlton",
          "type": "uint256"
        },
        {
          "internalType": "bool",
          "name": "stake",
          "type": "bool"
        },
        {
          "internalType": "uint16",
          "name": "fwFee",
          "type": "uint16"
        }
      ],
      "stateMutability": "view",
      "type": "function"
    },
    {
      "inputs": [],
      "name": "pauseProxy",
      "outputs": [
        {
          "internalType": "bool",
          "name": "",
          "type": "bool"
        }
      ],
      "stateMutability": "view",
      "type": "function"
    },
    {
      "inputs": [
        {
          "internalType": "uint32",
          "name": "",
          "type": "uint32"
        },
        {
          "internalType": "address",
          "name": "",
          "type": "address"
        }
      ],
      "name": "pendingUnstaked",
      "outputs": [
        {
          "internalType": "uint256",
          "name": "",
          "type": "uint256"
        }
      ],
      "stateMutability": "view",
      "type": "function"
    },
    {
      "inputs": [
        {
          "internalType": "address",
          "name": "",
          "type": "address"
        }
      ],
      "name": "pendingUnstakedAccount",
      "outputs": [
        {
          "internalType": "uint256",
          "name": "",
          "type": "uint256"
        }
      ],
      "stateMutability": "view",
      "type": "function"
    },
    {
      "inputs": [
        {
          "internalType": "uint32",
          "name": "",
          "type": "uint32"
        }
      ],
      "name": "pendingUnstakedLayer2",
      "outputs": [
        {
          "internalType": "uint256",
          "name": "",
          "type": "uint256"
        }
      ],
      "stateMutability": "view",
      "type": "function"
    },
    {
      "inputs": [
        {
          "internalType": "uint256",
          "name": "",
          "type": "uint256"
        }
      ],
      "name": "proxyImplementation",
      "outputs": [
        {
          "internalType": "address",
          "name": "",
          "type": "address"
        }
      ],
      "stateMutability": "view",
      "type": "function"
    },
    {
      "inputs": [
        {
          "internalType": "address",
          "name": "account",
          "type": "address"
        }
      ],
      "name": "removeAdmin",
      "outputs": [],
      "stateMutability": "nonpayable",
      "type": "function"
    },
    {
      "inputs": [
        {
          "internalType": "bytes32",
          "name": "role",
          "type": "bytes32"
        },
        {
          "internalType": "address",
          "name": "account",
          "type": "address"
        }
      ],
      "name": "renounceRole",
      "outputs": [],
      "stateMutability": "nonpayable",
      "type": "function"
    },
    {
      "inputs": [
        {
          "internalType": "bytes32",
          "name": "role",
          "type": "bytes32"
        },
        {
          "internalType": "address",
          "name": "account",
          "type": "address"
        }
      ],
      "name": "revokeRole",
      "outputs": [],
      "stateMutability": "nonpayable",
      "type": "function"
    },
    {
      "inputs": [],
      "name": "seigManagerV2",
      "outputs": [
        {
          "internalType": "address",
          "name": "",
          "type": "address"
        }
      ],
      "stateMutability": "view",
      "type": "function"
    },
    {
      "inputs": [
        {
          "internalType": "bytes4",
          "name": "",
          "type": "bytes4"
        }
      ],
      "name": "selectorImplementation",
      "outputs": [
        {
          "internalType": "address",
          "name": "",
          "type": "address"
        }
      ],
      "stateMutability": "view",
      "type": "function"
    },
    {
      "inputs": [
        {
          "internalType": "address",
          "name": "newImplementation",
          "type": "address"
        },
        {
          "internalType": "bool",
          "name": "_alive",
          "type": "bool"
        }
      ],
      "name": "setAliveImplementation2",
      "outputs": [],
      "stateMutability": "nonpayable",
      "type": "function"
    },
    {
      "inputs": [
        {
          "internalType": "address",
          "name": "newImplementation",
          "type": "address"
        },
        {
          "internalType": "uint256",
          "name": "_index",
          "type": "uint256"
        },
        {
          "internalType": "bool",
          "name": "_alive",
          "type": "bool"
        }
      ],
      "name": "setImplementation2",
      "outputs": [],
      "stateMutability": "nonpayable",
      "type": "function"
    },
    {
      "inputs": [
        {
          "internalType": "bool",
          "name": "_pause",
          "type": "bool"
        }
      ],
      "name": "setProxyPause",
      "outputs": [],
      "stateMutability": "nonpayable",
      "type": "function"
    },
    {
      "inputs": [
        {
          "internalType": "bytes4[]",
          "name": "_selectors",
          "type": "bytes4[]"
        },
        {
          "internalType": "address",
          "name": "_imp",
          "type": "address"
        }
      ],
      "name": "setSelectorImplementations2",
      "outputs": [],
      "stateMutability": "nonpayable",
      "type": "function"
    },
    {
      "inputs": [
        {
          "internalType": "uint256",
          "name": "",
          "type": "uint256"
        }
      ],
      "name": "stakeAccountList",
      "outputs": [
        {
          "internalType": "address",
          "name": "",
          "type": "address"
        }
      ],
      "stateMutability": "view",
      "type": "function"
    },
    {
      "inputs": [
        {
          "internalType": "bytes4",
          "name": "interfaceId",
          "type": "bytes4"
        }
      ],
      "name": "supportsInterface",
      "outputs": [
        {
          "internalType": "bool",
          "name": "",
          "type": "bool"
        }
      ],
      "stateMutability": "view",
      "type": "function"
    },
    {
      "inputs": [],
      "name": "ton",
      "outputs": [
        {
          "internalType": "address",
          "name": "",
          "type": "address"
        }
      ],
      "stateMutability": "view",
      "type": "function"
    },
    {
      "inputs": [],
      "name": "totalStakedLton",
      "outputs": [
        {
          "internalType": "uint256",
          "name": "",
          "type": "uint256"
        }
      ],
      "stateMutability": "view",
      "type": "function"
    },
    {
      "inputs": [
        {
          "internalType": "address",
          "name": "newAdmin",
          "type": "address"
        }
      ],
      "name": "transferAdmin",
      "outputs": [],
      "stateMutability": "nonpayable",
      "type": "function"
    },
    {
      "inputs": [
        {
          "internalType": "address",
          "name": "impl",
          "type": "address"
        }
      ],
      "name": "upgradeTo",
      "outputs": [],
      "stateMutability": "nonpayable",
      "type": "function"
    },
    {
      "inputs": [
        {
          "internalType": "uint32",
          "name": "",
          "type": "uint32"
        },
        {
          "internalType": "address",
          "name": "",
          "type": "address"
        }
      ],
      "name": "withdrawalRequestIndex",
      "outputs": [
        {
          "internalType": "uint256",
          "name": "",
          "type": "uint256"
        }
      ],
      "stateMutability": "view",
      "type": "function"
    },
    {
      "inputs": [
        {
          "internalType": "uint32",
          "name": "",
          "type": "uint32"
        },
        {
          "internalType": "address",
          "name": "",
          "type": "address"
        },
        {
          "internalType": "uint256",
          "name": "",
          "type": "uint256"
        }
      ],
      "name": "withdrawalRequests",
      "outputs": [
        {
          "internalType": "uint32",
          "name": "withdrawableBlockNumber",
          "type": "uint32"
        },
        {
          "internalType": "uint128",
          "name": "amount",
          "type": "uint128"
        },
        {
          "internalType": "bool",
          "name": "processed",
          "type": "bool"
        }
      ],
      "stateMutability": "view",
      "type": "function"
    },
    {
      "stateMutability": "payable",
      "type": "receive"
    }
  ],
  "bytecode": "0x60806040526006805460ff191660011790553480156200001e57600080fd5b506200003a600080516020620022768339815191528062000068565b620000556000805160206200227683398151915233620000b3565b62000062600033620000b3565b62000163565b600082815260208190526040808220600101805490849055905190918391839186917fbd79b86ffe0ab8e8776151514217cd7cacd52c909f66475c3af44e129f0b00ff9190a4505050565b620000bf8282620000c3565b5050565b6000828152602081815260408083206001600160a01b038516845290915290205460ff16620000bf576000828152602081815260408083206001600160a01b03851684529091529020805460ff191660011790556200011f3390565b6001600160a01b0316816001600160a01b0316837f2f8788117e7eff1d82e926ec794901d17c78024a50270940304540a733656f0d60405160405180910390a45050565b61210380620001736000396000f3fe6080604052600436106102bf5760003560e01c806370619cf91161016e5780639c656e26116100cb578063b9cab9711161007f578063cc48b94711610064578063cc48b947146109cc578063d547741f146109f1578063ec110d4514610a1157610311565b8063b9cab9711461097f578063c0c53b8b146109ac57610311565b8063a0b2a913116100b0578063a0b2a91314610907578063a217fddf14610934578063b911135f1461094957610311565b80639c656e261461082d578063a0392c04146108c357610311565b80637cd5f663116101225780638b8f4a65116101075780638b8f4a65146107a95780638d4fdb40146107c957806391d14854146107e957610311565b80637cd5f663146107515780637cf1587c1461077157610311565b806375829def1161015357806375829def146106dd57806375b238fc146106fd5780637cb00d251461073157610311565b806370619cf91461069057806373469a7a146106bd57610311565b80634e1a264d1161021c5780635e2cfe45116101d0578063659ab820116101b5578063659ab820146105ee5780636d1ef1031461061b578063704802751461067057610311565b80635e2cfe451461059c57806363a8fd89146105d457610311565b8063550d01a311610201578063550d01a3146105065780635c60da1b146105365780635cc797d81461057c57610311565b80634e1a264d146104ba57806350d2a276146104d057610311565b806324d7806c1161027357806336568abe1161025857806336568abe1461045a5780633659cfe61461047a5780634a5df50f1461049a57610311565b806324d7806c1461041a5780632f2ff15d1461043a57610311565b80631785f53c116102a45780631785f53c1461038857806322985246146103a8578063248a9ca3146103ea57610311565b806301ffc9a71461031b57806316b5d5bd1461035057610311565b366103115760405162461bcd60e51b815260206004820152601460248201527f63616e6e6f74207265636569766520457468657200000000000000000000000060448201526064015b60405180910390fd5b610319610a31565b005b34801561032757600080fd5b5061033b610336366004611ca0565b610ada565b60405190151581526020015b60405180910390f35b34801561035c57600080fd5b50600854610370906001600160a01b031681565b6040516001600160a01b039091168152602001610347565b34801561039457600080fd5b506103196103a3366004611ce1565b610b0c565b3480156103b457600080fd5b506103dc7ffb5864e8ff833c3cb2d2d08505e82ff02a43554c74a35d4f5a64e8526127831181565b604051908152602001610347565b3480156103f657600080fd5b506103dc610405366004611cfc565b60009081526020819052604090206001015490565b34801561042657600080fd5b5061033b610435366004611ce1565b610b87565b34801561044657600080fd5b50610319610455366004611d15565b610bc7565b34801561046657600080fd5b50610319610475366004611d15565b610bec565b34801561048657600080fd5b50610319610495366004611ce1565b610c78565b3480156104a657600080fd5b506103196104b5366004611d41565b610dd1565b3480156104c657600080fd5b506103dc60095481565b3480156104dc57600080fd5b506103706104eb366004611ca0565b6004602052600090815260409020546001600160a01b031681565b34801561051257600080fd5b5061033b610521366004611ce1565b60036020526000908152604090205460ff1681565b34801561054257600080fd5b506000805260026020527fac33ff75c19e70fe83507db0d683fd3465c996598dc972688b7ace676c89077b546001600160a01b0316610370565b34801561058857600080fd5b50610319610597366004611dd5565b611071565b3480156105a857600080fd5b506103dc6105b7366004611e13565b600e60209081526000928352604080842090915290825290205481565b3480156105e057600080fd5b5060015461033b9060ff1681565b3480156105fa57600080fd5b5061060e610609366004611e3d565b6110c9565b6040516103479190611ea8565b34801561062757600080fd5b5061063b610636366004611ebb565b611163565b6040805163ffffffff90941684526fffffffffffffffffffffffffffffffff9092166020840152151590820152606001610347565b34801561067c57600080fd5b5061031961068b366004611ce1565b6111dc565b34801561069c57600080fd5b506103dc6106ab366004611e3d565b600a6020526000908152604090205481565b3480156106c957600080fd5b50600754610370906001600160a01b031681565b3480156106e957600080fd5b506103196106f8366004611ce1565b611254565b34801561070957600080fd5b506103dc7fdf8b4c520ffe197c5343c6f5aec59570151ef9a492f2c624fd45ddde6135ec4281565b34801561073d57600080fd5b5061031961074c366004611ef7565b6113a4565b34801561075d57600080fd5b5061031961076c366004611f12565b611405565b34801561077d57600080fd5b506103dc61078c366004611e13565b600d60209081526000928352604080842090915290825290205481565b3480156107b557600080fd5b506103706107c4366004611cfc565b61145e565b3480156107d557600080fd5b506103706107e4366004611ca0565b61147b565b3480156107f557600080fd5b5061033b610804366004611d15565b6000918252602082815260408084206001600160a01b0393909316845291905290205460ff1690565b34801561083957600080fd5b50610890610848366004611e13565b600b602090815260009283526040808420909152908252902080546001820154600283015460038401546004909401549293919290919060ff811690610100900461ffff1686565b6040805196875260208701959095529385019290925260608401521515608083015261ffff1660a082015260c001610347565b3480156108cf57600080fd5b506108f46108de366004611e3d565b60136020526000908152604090205461ffff1681565b60405161ffff9091168152602001610347565b34801561091357600080fd5b506103dc610922366004611ce1565b60106020526000908152604090205481565b34801561094057600080fd5b506103dc600081565b34801561095557600080fd5b50610370610964366004611cfc565b6002602052600090815260409020546001600160a01b031681565b34801561098b57600080fd5b506103dc61099a366004611e3d565b600f6020526000908152604090205481565b3480156109b857600080fd5b506103196109c7366004611f45565b611577565b3480156109d857600080fd5b506006546103709061010090046001600160a01b031681565b3480156109fd57600080fd5b50610319610a0c366004611d15565b611757565b348015610a1d57600080fd5b50610370610a2c366004611cfc565b61177c565b6000610a486000356001600160e01b03191661147b565b90506001600160a01b03811615801590610a65575060015460ff16155b610ab15760405162461bcd60e51b815260206004820152601d60248201527f50726f78793a20696d706c204f522070726f78792069732066616c73650000006044820152606401610308565b3660008037600080366000845af43d6000803e808015610ad0573d6000f35b3d6000fd5b505050565b6001600160e01b0319811660009081526005602052604081205460ff1680610b065750610b06826117a6565b92915050565b610b1533610b87565b610b5a5760405162461bcd60e51b815260206004820152602260248201526000805160206120d783398151915260448201526134b760f11b6064820152608401610308565b610b847fdf8b4c520ffe197c5343c6f5aec59570151ef9a492f2c624fd45ddde6135ec4282610bec565b50565b6001600160a01b03811660009081527f5cbfc8ee58ca47855df7bcf648dd304ddb6b932f9b87878bdf6318d7ec7ee5b7602052604081205460ff16610b06565b600082815260208190526040902060010154610be2816117db565b610ad583836117e5565b6001600160a01b0381163314610c6a5760405162461bcd60e51b815260206004820152602f60248201527f416363657373436f6e74726f6c3a2063616e206f6e6c792072656e6f756e636560448201527f20726f6c657320666f722073656c6600000000000000000000000000000000006064820152608401610308565b610c748282611883565b5050565b610c8133610b87565b610cc65760405162461bcd60e51b815260206004820152602260248201526000805160206120d783398151915260448201526134b760f11b6064820152608401610308565b6001600160a01b038116610d1c5760405162461bcd60e51b815260206004820152600d60248201527f696e707574206973207a65726f000000000000000000000000000000000000006044820152606401610308565b6000805260026020527fac33ff75c19e70fe83507db0d683fd3465c996598dc972688b7ace676c89077b546001600160a01b03828116911603610d8d5760405162461bcd60e51b815260206004820152600960248201526839b0b6b29030b2323960b91b6044820152606401610308565b610d9a8160006001611902565b6040516001600160a01b038216907fbc7cd75a20ee27fd9adebab32041f755214dbc6bffa90cc0225b39da2e5c2d3b90600090a250565b610dda33610b87565b610e1f5760405162461bcd60e51b815260206004820152602260248201526000805160206120d783398151915260448201526134b760f11b6064820152608401610308565b81610e6c5760405162461bcd60e51b815260206004820181905260248201527f50726f78793a205f73656c6563746f727327732073697a65206973207a65726f6044820152606401610308565b6001600160a01b03811660009081526003602052604090205460ff16610ed45760405162461bcd60e51b815260206004820152601860248201527f50726f78793a205f696d70206973206e6f7420616c69766500000000000000006044820152606401610308565b60005b8281101561106b57816001600160a01b031660046000868685818110610eff57610eff611f7f565b9050602002016020810190610f149190611ca0565b6001600160e01b03191681526020810191909152604001600020546001600160a01b031603610f855760405162461bcd60e51b815260206004820152601d60248201527f4c69717569646974795661756c7450726f78793a2073616d6520696d700000006044820152606401610308565b8160046000868685818110610f9c57610f9c611f7f565b9050602002016020810190610fb19190611ca0565b6001600160e01b0319168152602081019190915260400160002080546001600160a01b0319166001600160a01b039283161790558216848483818110610ff957610ff9611f7f565b905060200201602081019061100e9190611ca0565b7bffffffffffffffffffffffffffffffffffffffffffffffffffffffff19167f14ebc1c32aa68f4d766e89f3e546cee249f7df25183fc10ab1568d91c2ce9b7b60405160405180910390a38061106381611fab565b915050610ed7565b50505050565b61107a33610b87565b6110bf5760405162461bcd60e51b815260206004820152602260248201526000805160206120d783398151915260448201526134b760f11b6064820152608401610308565b610c74828261198d565b601160205260009081526040902080546110e290611fc4565b80601f016020809104026020016040519081016040528092919081815260200182805461110e90611fc4565b801561115b5780601f106111305761010080835404028352916020019161115b565b820191906000526020600020905b81548152906001019060200180831161113e57829003601f168201915b505050505081565b600c602052826000526040600020602052816000526040600020818154811061118b57600080fd5b60009182526020909120015463ffffffff8116935064010000000081046fffffffffffffffffffffffffffffffff16925074010000000000000000000000000000000000000000900460ff16905083565b6111e533610b87565b61122a5760405162461bcd60e51b815260206004820152602260248201526000805160206120d783398151915260448201526134b760f11b6064820152608401610308565b610b847fdf8b4c520ffe197c5343c6f5aec59570151ef9a492f2c624fd45ddde6135ec4282610bc7565b61125d33610b87565b6112a25760405162461bcd60e51b815260206004820152602260248201526000805160206120d783398151915260448201526134b760f11b6064820152608401610308565b6001600160a01b0381166112f85760405162461bcd60e51b815260206004820152601860248201527f41636365737369626c653a207a65726f206164647265737300000000000000006044820152606401610308565b6001600160a01b03811633036113505760405162461bcd60e51b815260206004820152601660248201527f41636365737369626c653a2073616d652061646d696e000000000000000000006044820152606401610308565b61137a7fdf8b4c520ffe197c5343c6f5aec59570151ef9a492f2c624fd45ddde6135ec4282610bc7565b610b847fdf8b4c520ffe197c5343c6f5aec59570151ef9a492f2c624fd45ddde6135ec4233610bec565b6113ad33610b87565b6113f25760405162461bcd60e51b815260206004820152602260248201526000805160206120d783398151915260448201526134b760f11b6064820152608401610308565b6001805460ff1916911515919091179055565b61140e33610b87565b6114535760405162461bcd60e51b815260206004820152602260248201526000805160206120d783398151915260448201526134b760f11b6064820152608401610308565b610ad5838383611902565b6000818152600260205260408120546001600160a01b0316610b06565b6001600160e01b031981166000908152600460205260408120546001600160a01b03166114db5750506000805260026020527fac33ff75c19e70fe83507db0d683fd3465c996598dc972688b7ace676c89077b546001600160a01b031690565b6001600160e01b031982166000908152600460209081526040808320546001600160a01b03168352600390915290205460ff161561153957506001600160e01b0319166000908152600460205260409020546001600160a01b031690565b50506000805260026020527fac33ff75c19e70fe83507db0d683fd3465c996598dc972688b7ace676c89077b546001600160a01b031690565b919050565b61158033610b87565b6115c55760405162461bcd60e51b815260206004820152602260248201526000805160206120d783398151915260448201526134b760f11b6064820152608401610308565b826001600160a01b0381166116015760405162461bcd60e51b81526020600482015260026024820152612d1960f11b6044820152606401610308565b826001600160a01b03811661163d5760405162461bcd60e51b81526020600482015260026024820152612d1960f11b6044820152606401610308565b826001600160a01b0381166116795760405162461bcd60e51b81526020600482015260026024820152612d1960f11b6044820152606401610308565b60065461010090046001600160a01b0316156116d75760405162461bcd60e51b815260206004820152601260248201527f616c726561647920696e697469616c697a6500000000000000000000000000006044820152606401610308565b600780546001600160a01b038088166001600160a01b031992831617909255600680548984166101000274ffffffffffffffffffffffffffffffffffffffff0019909116179055600880549287169290911691909117905561173f632139e50b60e11b6119ec565b61174f6301ffc9a760e01b6119ec565b505050505050565b600082815260208190526040902060010154611772816117db565b610ad58383611883565b6012818154811061178c57600080fd5b6000918252602090912001546001600160a01b0316905081565b60006001600160e01b03198216637965db0b60e01b1480610b0657506301ffc9a760e01b6001600160e01b0319831614610b06565b610b848133611a6b565b6000828152602081815260408083206001600160a01b038516845290915290205460ff16610c74576000828152602081815260408083206001600160a01b03851684529091529020805460ff1916600117905561183f3390565b6001600160a01b0316816001600160a01b0316837f2f8788117e7eff1d82e926ec794901d17c78024a50270940304540a733656f0d60405160405180910390a45050565b6000828152602081815260408083206001600160a01b038516845290915290205460ff1615610c74576000828152602081815260408083206001600160a01b0385168085529252808320805460ff1916905551339285917ff6391f5c32d9c69d2a47ea670b442974b53935d1edc7fd64eb21e047a839171b9190a45050565b6001600160a01b0383163b6119595760405162461bcd60e51b815260206004820152601b60248201527f50726f78793a206e6f7420636f6e7472616374206164647265737300000000006044820152606401610308565b801561198757600082815260026020526040902080546001600160a01b0319166001600160a01b0385161790555b610ad583825b6001600160a01b038216600081815260036020908152604091829020805460ff191685151590811790915591519182527f72558d9bfba4210f9ef095c782589484151f6d90f7a81bb3cb9b33efc695d324910160405180910390a25050565b6001600160e01b03198082169003611a465760405162461bcd60e51b815260206004820152601c60248201527f4552433136353a20696e76616c696420696e74657266616365206964000000006044820152606401610308565b6001600160e01b0319166000908152600560205260409020805460ff19166001179055565b6000828152602081815260408083206001600160a01b038516845290915290205460ff16610c7457611a9c81611ade565b611aa7836020611af0565b604051602001611ab8929190611ffe565b60408051601f198184030181529082905262461bcd60e51b825261030891600401611ea8565b6060610b066001600160a01b03831660145b60606000611aff83600261207f565b611b0a906002612096565b67ffffffffffffffff811115611b2257611b226120a9565b6040519080825280601f01601f191660200182016040528015611b4c576020820181803683370190505b509050600360fc1b81600081518110611b6757611b67611f7f565b60200101906001600160f81b031916908160001a905350600f60fb1b81600181518110611b9657611b96611f7f565b60200101906001600160f81b031916908160001a9053506000611bba84600261207f565b611bc5906001612096565b90505b6001811115611c4a577f303132333435363738396162636465660000000000000000000000000000000085600f1660108110611c0657611c06611f7f565b1a60f81b828281518110611c1c57611c1c611f7f565b60200101906001600160f81b031916908160001a90535060049490941c93611c43816120bf565b9050611bc8565b508315611c995760405162461bcd60e51b815260206004820181905260248201527f537472696e67733a20686578206c656e67746820696e73756666696369656e746044820152606401610308565b9392505050565b600060208284031215611cb257600080fd5b81356001600160e01b031981168114611c9957600080fd5b80356001600160a01b038116811461157257600080fd5b600060208284031215611cf357600080fd5b611c9982611cca565b600060208284031215611d0e57600080fd5b5035919050565b60008060408385031215611d2857600080fd5b82359150611d3860208401611cca565b90509250929050565b600080600060408486031215611d5657600080fd5b833567ffffffffffffffff80821115611d6e57600080fd5b818601915086601f830112611d8257600080fd5b813581811115611d9157600080fd5b8760208260051b8501011115611da657600080fd5b602092830195509350611dbc9186019050611cca565b90509250925092565b8035801515811461157257600080fd5b60008060408385031215611de857600080fd5b611df183611cca565b9150611d3860208401611dc5565b803563ffffffff8116811461157257600080fd5b60008060408385031215611e2657600080fd5b611e2f83611dff565b9150611d3860208401611cca565b600060208284031215611e4f57600080fd5b611c9982611dff565b60005b83811015611e73578181015183820152602001611e5b565b50506000910152565b60008151808452611e94816020860160208601611e58565b601f01601f19169290920160200192915050565b602081526000611c996020830184611e7c565b600080600060608486031215611ed057600080fd5b611ed984611dff565b9250611ee760208501611cca565b9150604084013590509250925092565b600060208284031215611f0957600080fd5b611c9982611dc5565b600080600060608486031215611f2757600080fd5b611f3084611cca565b925060208401359150611dbc60408501611dc5565b600080600060608486031215611f5a57600080fd5b611f6384611cca565b9250611f7160208501611cca565b9150611dbc60408501611cca565b634e487b7160e01b600052603260045260246000fd5b634e487b7160e01b600052601160045260246000fd5b600060018201611fbd57611fbd611f95565b5060010190565b600181811c90821680611fd857607f821691505b602082108103611ff857634e487b7160e01b600052602260045260246000fd5b50919050565b7f416363657373436f6e74726f6c3a206163636f756e7420000000000000000000815260008351612036816017850160208801611e58565b7f206973206d697373696e6720726f6c65200000000000000000000000000000006017918401918201528351612073816028840160208801611e58565b01602801949350505050565b8082028115828204841417610b0657610b06611f95565b80820180821115610b0657610b06611f95565b634e487b7160e01b600052604160045260246000fd5b6000816120ce576120ce611f95565b50600019019056fe41636365737369626c653a2043616c6c6572206973206e6f7420616e2061646da164736f6c6343000812000adf8b4c520ffe197c5343c6f5aec59570151ef9a492f2c624fd45ddde6135ec42",
  "linkReferences": {},
  "deployedLinkReferences": {}
}