{
  "_format": "hh-sol-artifact-1",
  "contractName": "MockL1Bridge",
  "sourceName": "contracts/test/MockL1Bridge.sol",
  "abi": [
    {
      "inputs": [],
      "stateMutability": "nonpayable",
      "type": "constructor"
    },
    {
      "anonymous": false,
      "inputs": [
        {
          "indexed": true,
          "internalType": "address",
          "name": "previousOwner",
          "type": "address"
        },
        {
          "indexed": true,
          "internalType": "address",
          "name": "newOwner",
          "type": "address"
        }
      ],
      "name": "OwnershipTransferred",
      "type": "event"
    },
    {
      "inputs": [
        {
          "internalType": "address",
          "name": "_l1Token",
          "type": "address"
        },
        {
          "internalType": "address",
          "name": "_l2Token",
          "type": "address"
        },
        {
          "internalType": "uint256",
          "name": "_amount",
          "type": "uint256"
        },
        {
          "internalType": "uint32",
          "name": "_l2Gas",
          "type": "uint32"
        },
        {
          "internalType": "bytes",
          "name": "_data",
          "type": "bytes"
        }
      ],
      "name": "depositERC20",
      "outputs": [],
      "stateMutability": "nonpayable",
      "type": "function"
    },
    {
      "inputs": [
        {
          "internalType": "address",
          "name": "_l1Token",
          "type": "address"
        },
        {
          "internalType": "address",
          "name": "_l2Token",
          "type": "address"
        },
        {
          "internalType": "address",
          "name": "_to",
          "type": "address"
        },
        {
          "internalType": "uint256",
          "name": "_amount",
          "type": "uint256"
        },
        {
          "internalType": "uint32",
          "name": "_l2Gas",
          "type": "uint32"
        },
        {
          "internalType": "bytes",
          "name": "_data",
          "type": "bytes"
        }
      ],
      "name": "depositERC20To",
      "outputs": [],
      "stateMutability": "nonpayable",
      "type": "function"
    },
    {
      "inputs": [
        {
          "internalType": "address",
          "name": "",
          "type": "address"
        },
        {
          "internalType": "address",
          "name": "",
          "type": "address"
        }
      ],
      "name": "deposits",
      "outputs": [
        {
          "internalType": "uint256",
          "name": "",
          "type": "uint256"
        }
      ],
      "stateMutability": "view",
      "type": "function"
    },
    {
      "inputs": [
        {
          "internalType": "address",
          "name": "_l1Token",
          "type": "address"
        },
        {
          "internalType": "address",
          "name": "_l2Token",
          "type": "address"
        },
        {
          "internalType": "address",
          "name": "_from",
          "type": "address"
        },
        {
          "internalType": "address",
          "name": "_to",
          "type": "address"
        },
        {
          "internalType": "uint256",
          "name": "_amount",
          "type": "uint256"
        },
        {
          "internalType": "bytes",
          "name": "_data",
          "type": "bytes"
        }
      ],
      "name": "finalizeERC20Withdrawal",
      "outputs": [],
      "stateMutability": "nonpayable",
      "type": "function"
    },
    {
      "inputs": [],
      "name": "l1Messenger",
      "outputs": [
        {
          "internalType": "address",
          "name": "",
          "type": "address"
        }
      ],
      "stateMutability": "view",
      "type": "function"
    },
    {
      "inputs": [],
      "name": "l2TokenBridge",
      "outputs": [
        {
          "internalType": "address",
          "name": "",
          "type": "address"
        }
      ],
      "stateMutability": "view",
      "type": "function"
    },
    {
      "inputs": [],
      "name": "owner",
      "outputs": [
        {
          "internalType": "address",
          "name": "",
          "type": "address"
        }
      ],
      "stateMutability": "view",
      "type": "function"
    },
    {
      "inputs": [],
      "name": "renounceOwnership",
      "outputs": [],
      "stateMutability": "nonpayable",
      "type": "function"
    },
    {
      "inputs": [
        {
          "internalType": "address",
          "name": "_l1Messenger",
          "type": "address"
        },
        {
          "internalType": "address",
          "name": "_l2TokenBridge",
          "type": "address"
        }
      ],
      "name": "setAddress",
      "outputs": [],
      "stateMutability": "nonpayable",
      "type": "function"
    },
    {
      "inputs": [
        {
          "internalType": "address",
          "name": "newOwner",
          "type": "address"
        }
      ],
      "name": "transferOwnership",
      "outputs": [],
      "stateMutability": "nonpayable",
      "type": "function"
    }
  ],
  "bytecode": "0x608060405234801561001057600080fd5b5061001a3361001f565b61006f565b600080546001600160a01b038381166001600160a01b0319831681178455604051919092169283917f8be0079c531659141344cd1fd0a4f28419497f9722a3daafe3b4186f6b6457e09190a35050565b610ee08061007e6000396000f3fe608060405234801561001057600080fd5b50600436106100be5760003560e01c80638da5cb5b1161007657806391c49bf81161005b57806391c49bf814610180578063a9f9e67514610193578063f2fde38b146101a657600080fd5b80638da5cb5b146101365780638f601f661461014757600080fd5b80636140e0e6116100a75780636140e0e6146100eb578063715018a61461011b578063838b25201461012357600080fd5b80633b58524d146100c357806358a997f6146100d8575b600080fd5b6100d66100d1366004610ab6565b6101b9565b005b6100d66100e6366004610b46565b6101fc565b6001546100fe906001600160a01b031681565b6040516001600160a01b0390911681526020015b60405180910390f35b6100d6610268565b6100d6610131366004610bc5565b61027c565b6000546001600160a01b03166100fe565b610172610155366004610ab6565b600360209081526000928352604080842090915290825290205481565b604051908152602001610112565b6002546100fe906001600160a01b031681565b6100d66101a1366004610c6b565b610295565b6100d66101b4366004610d67565b6105e6565b6101c161065f565b600180546001600160a01b0393841673ffffffffffffffffffffffffffffffffffffffff199182161790915560028054929093169116179055565b333b156102505760405162461bcd60e51b815260206004820152600f60248201527f4163636f756e74206e6f7420454f41000000000000000000000000000000000060448201526064015b60405180910390fd5b61026086863333888888886106b9565b505050505050565b61027061065f565b61027a6000610735565b565b61028c87873388888888886106b9565b50505050505050565b600063a9f9e67560e01b8787878787876040516024016102ba96959493929190610dd9565b60408051601f198184030181529181526020820180516001600160e01b03166001600160e01b03199094169390931783529051909120600154915163b1b1b20960e01b81529092506001600160a01b039091169063b1b1b2099061032690849060040190815260200190565b602060405180830381865afa158015610343573d6000803e3d6000fd5b505050506040513d601f19601f820116820180604052508101906103679190610e27565b156103b45760405162461bcd60e51b815260206004820152600c60248201527f616c726561647920646f6e6500000000000000000000000000000000000000006044820152606401610247565b6040516370a0823160e01b81523060048201526000906001600160a01b038916906370a0823190602401602060405180830381865afa1580156103fb573d6000803e3d6000fd5b505050506040513d601f19601f8201168201806040525081019061041f9190610e49565b9050838110156104715760405162461bcd60e51b815260206004820152601760248201527f62616c616e636520697320696e73756666696369656e740000000000000000006044820152606401610247565b6001600160a01b038089166000908152600360209081526040808320938b16835292905220548410156104f6576001600160a01b038089166000908152600360209081526040808320938b16835292905220546104cf908590610e78565b6001600160a01b03808a166000908152600360209081526040808320938c16835292905220555b6001805460405163292200a960e01b81526004810185905260248101929092526001600160a01b03169063292200a990604401600060405180830381600087803b15801561054357600080fd5b505af1158015610557573d6000803e3d6000fd5b50610570925050506001600160a01b0389168686610792565b8251156105dc57600080866001600160a01b03166000866040516105949190610e91565b60006040518083038185875af1925050503d80600081146105d1576040519150601f19603f3d011682016040523d82523d6000602084013e6105d6565b606091505b50505050505b5050505050505050565b6105ee61065f565b6001600160a01b0381166106535760405162461bcd60e51b815260206004820152602660248201527f4f776e61626c653a206e6577206f776e657220697320746865207a65726f206160448201526564647265737360d01b6064820152608401610247565b61065c81610735565b50565b6000546001600160a01b0316331461027a5760405162461bcd60e51b815260206004820181905260248201527f4f776e61626c653a2063616c6c6572206973206e6f7420746865206f776e65726044820152606401610247565b6106ce6001600160a01b0389168730876107fa565b6001600160a01b038089166000908152600360209081526040808320938b16835292905220546106ff908590610ead565b6001600160a01b0398891660009081526003602090815260408083209a909b168252989098529790962096909655505050505050565b600080546001600160a01b0383811673ffffffffffffffffffffffffffffffffffffffff19831681178455604051919092169283917f8be0079c531659141344cd1fd0a4f28419497f9722a3daafe3b4186f6b6457e09190a35050565b6040516001600160a01b0383166024820152604481018290526107f590849063a9059cbb60e01b906064015b60408051601f198184030181529190526020810180516001600160e01b03166001600160e01b031990931692909217909152610838565b505050565b6040516001600160a01b03808516602483015283166044820152606481018290526108329085906323b872dd60e01b906084016107be565b50505050565b600061088d826040518060400160405280602081526020017f5361666545524332303a206c6f772d6c6576656c2063616c6c206661696c6564815250856001600160a01b031661090a9092919063ffffffff16565b8051909150156107f557808060200190518101906108ab9190610e27565b6107f55760405162461bcd60e51b815260206004820152602a60248201527f5361666545524332303a204552433230206f7065726174696f6e20646964206e6044820152691bdd081cdd58d8d9595960b21b6064820152608401610247565b60606109198484600085610921565b949350505050565b6060824710156109825760405162461bcd60e51b815260206004820152602660248201527f416464726573733a20696e73756666696369656e742062616c616e636520666f6044820152651c8818d85b1b60d21b6064820152608401610247565b600080866001600160a01b0316858760405161099e9190610e91565b60006040518083038185875af1925050503d80600081146109db576040519150601f19603f3d011682016040523d82523d6000602084013e6109e0565b606091505b50915091506109f1878383876109fc565b979650505050505050565b60608315610a6b578251600003610a64576001600160a01b0385163b610a645760405162461bcd60e51b815260206004820152601d60248201527f416464726573733a2063616c6c20746f206e6f6e2d636f6e74726163740000006044820152606401610247565b5081610919565b6109198383815115610a805781518083602001fd5b8060405162461bcd60e51b81526004016102479190610ec0565b80356001600160a01b0381168114610ab157600080fd5b919050565b60008060408385031215610ac957600080fd5b610ad283610a9a565b9150610ae060208401610a9a565b90509250929050565b803563ffffffff81168114610ab157600080fd5b60008083601f840112610b0f57600080fd5b50813567ffffffffffffffff811115610b2757600080fd5b602083019150836020828501011115610b3f57600080fd5b9250929050565b60008060008060008060a08789031215610b5f57600080fd5b610b6887610a9a565b9550610b7660208801610a9a565b945060408701359350610b8b60608801610ae9565b9250608087013567ffffffffffffffff811115610ba757600080fd5b610bb389828a01610afd565b979a9699509497509295939492505050565b600080600080600080600060c0888a031215610be057600080fd5b610be988610a9a565b9650610bf760208901610a9a565b9550610c0560408901610a9a565b945060608801359350610c1a60808901610ae9565b925060a088013567ffffffffffffffff811115610c3657600080fd5b610c428a828b01610afd565b989b979a50959850939692959293505050565b634e487b7160e01b600052604160045260246000fd5b60008060008060008060c08789031215610c8457600080fd5b610c8d87610a9a565b9550610c9b60208801610a9a565b9450610ca960408801610a9a565b9350610cb760608801610a9a565b92506080870135915060a087013567ffffffffffffffff80821115610cdb57600080fd5b818901915089601f830112610cef57600080fd5b813581811115610d0157610d01610c55565b604051601f8201601f19908116603f01168101908382118183101715610d2957610d29610c55565b816040528281528c6020848701011115610d4257600080fd5b8260208601602083013760006020848301015280955050505050509295509295509295565b600060208284031215610d7957600080fd5b610d8282610a9a565b9392505050565b60005b83811015610da4578181015183820152602001610d8c565b50506000910152565b60008151808452610dc5816020860160208601610d89565b601f01601f19169290920160200192915050565b60006001600160a01b0380891683528088166020840152808716604084015280861660608401525083608083015260c060a0830152610e1b60c0830184610dad565b98975050505050505050565b600060208284031215610e3957600080fd5b81518015158114610d8257600080fd5b600060208284031215610e5b57600080fd5b5051919050565b634e487b7160e01b600052601160045260246000fd5b81810381811115610e8b57610e8b610e62565b92915050565b60008251610ea3818460208701610d89565b9190910192915050565b80820180821115610e8b57610e8b610e62565b602081526000610d826020830184610dad56fea164736f6c6343000812000a",
  "linkReferences": {},
  "deployedLinkReferences": {}
}