{
  "_format": "hh-sol-artifact-1",
  "contractName": "MockL1Bridge",
  "sourceName": "contracts/test/MockL1Bridge.sol",
  "abi": [
    {
      "inputs": [],
      "stateMutability": "nonpayable",
      "type": "constructor"
    },
    {
      "anonymous": false,
      "inputs": [
        {
          "indexed": true,
          "internalType": "address",
          "name": "previousOwner",
          "type": "address"
        },
        {
          "indexed": true,
          "internalType": "address",
          "name": "newOwner",
          "type": "address"
        }
      ],
      "name": "OwnershipTransferred",
      "type": "event"
    },
    {
      "inputs": [
        {
          "internalType": "address",
          "name": "_l1Token",
          "type": "address"
        },
        {
          "internalType": "address",
          "name": "_l2Token",
          "type": "address"
        },
        {
          "internalType": "uint256",
          "name": "_amount",
          "type": "uint256"
        },
        {
          "internalType": "uint32",
          "name": "_l2Gas",
          "type": "uint32"
        },
        {
          "internalType": "bytes",
          "name": "_data",
          "type": "bytes"
        }
      ],
      "name": "depositERC20",
      "outputs": [],
      "stateMutability": "nonpayable",
      "type": "function"
    },
    {
      "inputs": [
        {
          "internalType": "address",
          "name": "_l1Token",
          "type": "address"
        },
        {
          "internalType": "address",
          "name": "_l2Token",
          "type": "address"
        },
        {
          "internalType": "address",
          "name": "_to",
          "type": "address"
        },
        {
          "internalType": "uint256",
          "name": "_amount",
          "type": "uint256"
        },
        {
          "internalType": "uint32",
          "name": "_l2Gas",
          "type": "uint32"
        },
        {
          "internalType": "bytes",
          "name": "_data",
          "type": "bytes"
        }
      ],
      "name": "depositERC20To",
      "outputs": [],
      "stateMutability": "nonpayable",
      "type": "function"
    },
    {
      "inputs": [
        {
          "internalType": "address",
          "name": "",
          "type": "address"
        },
        {
          "internalType": "address",
          "name": "",
          "type": "address"
        }
      ],
      "name": "deposits",
      "outputs": [
        {
          "internalType": "uint256",
          "name": "",
          "type": "uint256"
        }
      ],
      "stateMutability": "view",
      "type": "function"
    },
    {
      "inputs": [
        {
          "internalType": "address",
          "name": "_l1Token",
          "type": "address"
        },
        {
          "internalType": "address",
          "name": "_l2Token",
          "type": "address"
        },
        {
          "internalType": "address",
          "name": "_from",
          "type": "address"
        },
        {
          "internalType": "address",
          "name": "_to",
          "type": "address"
        },
        {
          "internalType": "uint256",
          "name": "_amount",
          "type": "uint256"
        },
        {
          "internalType": "bytes",
          "name": "_data",
          "type": "bytes"
        }
      ],
      "name": "finalizeERC20Withdrawal",
      "outputs": [],
      "stateMutability": "nonpayable",
      "type": "function"
    },
    {
      "inputs": [],
      "name": "l1Messenger",
      "outputs": [
        {
          "internalType": "address",
          "name": "",
          "type": "address"
        }
      ],
      "stateMutability": "view",
      "type": "function"
    },
    {
      "inputs": [],
      "name": "l2TokenBridge",
      "outputs": [
        {
          "internalType": "address",
          "name": "",
          "type": "address"
        }
      ],
      "stateMutability": "view",
      "type": "function"
    },
    {
      "inputs": [],
      "name": "owner",
      "outputs": [
        {
          "internalType": "address",
          "name": "",
          "type": "address"
        }
      ],
      "stateMutability": "view",
      "type": "function"
    },
    {
      "inputs": [],
      "name": "renounceOwnership",
      "outputs": [],
      "stateMutability": "nonpayable",
      "type": "function"
    },
    {
      "inputs": [
        {
          "internalType": "address",
          "name": "_l1Messenger",
          "type": "address"
        },
        {
          "internalType": "address",
          "name": "_l2TokenBridge",
          "type": "address"
        }
      ],
      "name": "setAddress",
      "outputs": [],
      "stateMutability": "nonpayable",
      "type": "function"
    },
    {
      "inputs": [
        {
          "internalType": "address",
          "name": "newOwner",
          "type": "address"
        }
      ],
      "name": "transferOwnership",
      "outputs": [],
      "stateMutability": "nonpayable",
      "type": "function"
    }
  ],
  "bytecode": "0x608060405234801561001057600080fd5b5061001a3361001f565b61006f565b600080546001600160a01b038381166001600160a01b0319831681178455604051919092169283917f8be0079c531659141344cd1fd0a4f28419497f9722a3daafe3b4186f6b6457e09190a35050565b610b108061007e6000396000f3fe608060405234801561001057600080fd5b50600436106100be5760003560e01c80638da5cb5b1161007657806391c49bf81161005b57806391c49bf814610180578063a9f9e67514610193578063f2fde38b146101a657600080fd5b80638da5cb5b146101365780638f601f661461014757600080fd5b80636140e0e6116100a75780636140e0e6146100eb578063715018a61461011b578063838b25201461012357600080fd5b80633b58524d146100c357806358a997f6146100d8575b600080fd5b6100d66100d13660046107fa565b6101b9565b005b6100d66100e636600461088a565b6101fc565b6001546100fe906001600160a01b031681565b6040516001600160a01b0390911681526020015b60405180910390f35b6100d6610268565b6100d6610131366004610909565b61027c565b6000546001600160a01b03166100fe565b6101726101553660046107fa565b600360209081526000928352604080842090915290825290205481565b604051908152602001610112565b6002546100fe906001600160a01b031681565b6100d66101a1366004610999565b610295565b6100d66101b4366004610a0a565b6102fd565b6101c1610376565b600180546001600160a01b0393841673ffffffffffffffffffffffffffffffffffffffff199182161790915560028054929093169116179055565b333b156102505760405162461bcd60e51b815260206004820152600f60248201527f4163636f756e74206e6f7420454f41000000000000000000000000000000000060448201526064015b60405180910390fd5b61026086863333888888886103d0565b505050505050565b610270610376565b61027a600061044c565b565b61028c87873388888888886103d0565b50505050505050565b6001600160a01b038088166000908152600360209081526040808320938a16835292905220546102c6908490610a42565b6001600160a01b038089166000818152600360209081526040808320948c168352939052919091209190915561028c9085856104a9565b610305610376565b6001600160a01b03811661036a5760405162461bcd60e51b815260206004820152602660248201527f4f776e61626c653a206e6577206f776e657220697320746865207a65726f206160448201526564647265737360d01b6064820152608401610247565b6103738161044c565b50565b6000546001600160a01b0316331461027a5760405162461bcd60e51b815260206004820181905260248201527f4f776e61626c653a2063616c6c6572206973206e6f7420746865206f776e65726044820152606401610247565b6103e56001600160a01b03891687308761053e565b6001600160a01b038089166000908152600360209081526040808320938b1683529290522054610416908590610a5b565b6001600160a01b0398891660009081526003602090815260408083209a909b168252989098529790962096909655505050505050565b600080546001600160a01b0383811673ffffffffffffffffffffffffffffffffffffffff19831681178455604051919092169283917f8be0079c531659141344cd1fd0a4f28419497f9722a3daafe3b4186f6b6457e09190a35050565b6040516001600160a01b03831660248201526044810182905261053990849063a9059cbb60e01b906064015b60408051601f198184030181529190526020810180517bffffffffffffffffffffffffffffffffffffffffffffffffffffffff167fffffffff000000000000000000000000000000000000000000000000000000009093169290921790915261057c565b505050565b6040516001600160a01b03808516602483015283166044820152606481018290526105769085906323b872dd60e01b906084016104d5565b50505050565b60006105d1826040518060400160405280602081526020017f5361666545524332303a206c6f772d6c6576656c2063616c6c206661696c6564815250856001600160a01b031661064e9092919063ffffffff16565b80519091501561053957808060200190518101906105ef9190610a6e565b6105395760405162461bcd60e51b815260206004820152602a60248201527f5361666545524332303a204552433230206f7065726174696f6e20646964206e6044820152691bdd081cdd58d8d9595960b21b6064820152608401610247565b606061065d8484600085610665565b949350505050565b6060824710156106c65760405162461bcd60e51b815260206004820152602660248201527f416464726573733a20696e73756666696369656e742062616c616e636520666f6044820152651c8818d85b1b60d21b6064820152608401610247565b600080866001600160a01b031685876040516106e29190610ab4565b60006040518083038185875af1925050503d806000811461071f576040519150601f19603f3d011682016040523d82523d6000602084013e610724565b606091505b509150915061073587838387610740565b979650505050505050565b606083156107af5782516000036107a8576001600160a01b0385163b6107a85760405162461bcd60e51b815260206004820152601d60248201527f416464726573733a2063616c6c20746f206e6f6e2d636f6e74726163740000006044820152606401610247565b508161065d565b61065d83838151156107c45781518083602001fd5b8060405162461bcd60e51b81526004016102479190610ad0565b80356001600160a01b03811681146107f557600080fd5b919050565b6000806040838503121561080d57600080fd5b610816836107de565b9150610824602084016107de565b90509250929050565b803563ffffffff811681146107f557600080fd5b60008083601f84011261085357600080fd5b50813567ffffffffffffffff81111561086b57600080fd5b60208301915083602082850101111561088357600080fd5b9250929050565b60008060008060008060a087890312156108a357600080fd5b6108ac876107de565b95506108ba602088016107de565b9450604087013593506108cf6060880161082d565b9250608087013567ffffffffffffffff8111156108eb57600080fd5b6108f789828a01610841565b979a9699509497509295939492505050565b600080600080600080600060c0888a03121561092457600080fd5b61092d886107de565b965061093b602089016107de565b9550610949604089016107de565b94506060880135935061095e6080890161082d565b925060a088013567ffffffffffffffff81111561097a57600080fd5b6109868a828b01610841565b989b979a50959850939692959293505050565b600080600080600080600060c0888a0312156109b457600080fd5b6109bd886107de565b96506109cb602089016107de565b95506109d9604089016107de565b94506109e7606089016107de565b93506080880135925060a088013567ffffffffffffffff81111561097a57600080fd5b600060208284031215610a1c57600080fd5b610a25826107de565b9392505050565b634e487b7160e01b600052601160045260246000fd5b81810381811115610a5557610a55610a2c565b92915050565b80820180821115610a5557610a55610a2c565b600060208284031215610a8057600080fd5b81518015158114610a2557600080fd5b60005b83811015610aab578181015183820152602001610a93565b50506000910152565b60008251610ac6818460208701610a90565b9190910192915050565b6020815260008251806020840152610aef816040850160208701610a90565b601f01601f1916919091016040019291505056fea164736f6c6343000812000a",
  "linkReferences": {},
  "deployedLinkReferences": {}
}