{
  "_format": "hh-sol-artifact-1",
  "contractName": "Layer2ManagerStorage",
  "sourceName": "contracts/storages/Layer2ManagerStorage.sol",
  "abi": [
    {
      "inputs": [],
      "name": "candidate",
      "outputs": [
        {
          "internalType": "address",
          "name": "",
          "type": "address"
        }
      ],
      "stateMutability": "view",
      "type": "function"
    },
    {
      "inputs": [
        {
          "internalType": "uint32",
          "name": "",
          "type": "uint32"
        }
      ],
      "name": "candidateNames",
      "outputs": [
        {
          "internalType": "bytes32",
          "name": "",
          "type": "bytes32"
        }
      ],
      "stateMutability": "view",
      "type": "function"
    },
    {
      "inputs": [
        {
          "internalType": "uint256",
          "name": "",
          "type": "uint256"
        }
      ],
      "name": "candidatesIndexes",
      "outputs": [
        {
          "internalType": "uint32",
          "name": "",
          "type": "uint32"
        }
      ],
      "stateMutability": "view",
      "type": "function"
    },
    {
      "inputs": [],
      "name": "delayBlocksForWithdraw",
      "outputs": [
        {
          "internalType": "uint256",
          "name": "",
          "type": "uint256"
        }
      ],
      "stateMutability": "view",
      "type": "function"
    },
    {
      "inputs": [
        {
          "internalType": "uint32",
          "name": "",
          "type": "uint32"
        }
      ],
      "name": "holdings",
      "outputs": [
        {
          "internalType": "uint256",
          "name": "securityDeposit",
          "type": "uint256"
        },
        {
          "internalType": "uint256",
          "name": "seigs",
          "type": "uint256"
        }
      ],
      "stateMutability": "view",
      "type": "function"
    },
    {
      "inputs": [],
      "name": "indexCandidates",
      "outputs": [
        {
          "internalType": "uint32",
          "name": "",
          "type": "uint32"
        }
      ],
      "stateMutability": "view",
      "type": "function"
    },
    {
      "inputs": [],
      "name": "indexOperators",
      "outputs": [
        {
          "internalType": "uint32",
          "name": "",
          "type": "uint32"
        }
      ],
      "stateMutability": "view",
      "type": "function"
    },
    {
      "inputs": [
        {
          "internalType": "bytes32",
          "name": "",
          "type": "bytes32"
        }
      ],
      "name": "layerKeys",
      "outputs": [
        {
          "internalType": "bool",
          "name": "",
          "type": "bool"
        }
      ],
      "stateMutability": "view",
      "type": "function"
    },
    {
      "inputs": [],
      "name": "maxLayer2Count",
      "outputs": [
        {
          "internalType": "uint256",
          "name": "",
          "type": "uint256"
        }
      ],
      "stateMutability": "view",
      "type": "function"
    },
    {
      "inputs": [],
      "name": "minimumDepositForCandidate",
      "outputs": [
        {
          "internalType": "uint256",
          "name": "",
          "type": "uint256"
        }
      ],
      "stateMutability": "view",
      "type": "function"
    },
    {
      "inputs": [],
      "name": "minimumDepositForL2Operator",
      "outputs": [
        {
          "internalType": "uint256",
          "name": "",
          "type": "uint256"
        }
      ],
      "stateMutability": "view",
      "type": "function"
    },
    {
      "inputs": [],
      "name": "optimismL2Operator",
      "outputs": [
        {
          "internalType": "address",
          "name": "",
          "type": "address"
        }
      ],
      "stateMutability": "view",
      "type": "function"
    },
    {
      "inputs": [
        {
          "internalType": "uint256",
          "name": "",
          "type": "uint256"
        }
      ],
      "name": "optimismL2OperatorIndexes",
      "outputs": [
        {
          "internalType": "uint32",
          "name": "",
          "type": "uint32"
        }
      ],
      "stateMutability": "view",
      "type": "function"
    },
    {
      "inputs": [
        {
          "internalType": "uint32",
          "name": "",
          "type": "uint32"
        }
      ],
      "name": "optimismL2OperatorNames",
      "outputs": [
        {
          "internalType": "bytes32",
          "name": "",
          "type": "bytes32"
        }
      ],
      "stateMutability": "view",
      "type": "function"
    },
    {
      "inputs": [],
      "name": "ratioSecurityDepositOfTvl",
      "outputs": [
        {
          "internalType": "uint16",
          "name": "",
          "type": "uint16"
        }
      ],
      "stateMutability": "view",
      "type": "function"
    },
    {
      "inputs": [],
      "name": "seigManagerV2",
      "outputs": [
        {
          "internalType": "address",
          "name": "",
          "type": "address"
        }
      ],
      "stateMutability": "view",
      "type": "function"
    },
    {
      "inputs": [],
      "name": "ton",
      "outputs": [
        {
          "internalType": "contract IERC20",
          "name": "",
          "type": "address"
        }
      ],
      "stateMutability": "view",
      "type": "function"
    },
    {
      "inputs": [],
      "name": "totalSecurityDeposit",
      "outputs": [
        {
          "internalType": "uint256",
          "name": "",
          "type": "uint256"
        }
      ],
      "stateMutability": "view",
      "type": "function"
    },
    {
      "inputs": [],
      "name": "totalSeigs",
      "outputs": [
        {
          "internalType": "uint256",
          "name": "",
          "type": "uint256"
        }
      ],
      "stateMutability": "view",
      "type": "function"
    }
  ],
  "bytecode": "0x60806040526010805460ff60501b19166a010000000000000000000017905534801561002a57600080fd5b506103df8061003a6000396000f3fe608060405234801561001057600080fd5b50600436106101515760003560e01c80639e7ea842116100cd578063d37c6d6911610081578063e0ef2a7f11610066578063e0ef2a7f146102e9578063e257569f1461031c578063ec558b161461032f57600080fd5b8063d37c6d69146102c0578063d48ddf04146102c957600080fd5b8063c14241b9116100b2578063c14241b914610277578063caef64e6146102a4578063cc48b947146102ad57600080fd5b80639e7ea8421461024e578063a4dd8b7d1461026e57600080fd5b806357bc1df01161012457806366f0d6af1161010957806366f0d6af146102005780636c8381f81461021057806373469a7a1461023b57600080fd5b806357bc1df0146101df5780635b1f335f146101f757600080fd5b806303b90d1a1461015657806304196138146101725780633bd0c19f146101ae578063499ad9da146101d6575b600080fd5b61015f60045481565b6040519081526020015b60405180910390f35b61019961018036600461038c565b600d602052600090815260409020805460019091015482565b60408051928352602083019190915201610169565b6101c16101bc3660046103b9565b610342565b60405163ffffffff9091168152602001610169565b61015f60095481565b6010546101c190640100000000900463ffffffff1681565b61015f60085481565b6010546101c19063ffffffff1681565b600354610223906001600160a01b031681565b6040516001600160a01b039091168152602001610169565b600154610223906001600160a01b031681565b61015f61025c36600461038c565b600b6020526000908152604090205481565b61015f60055481565b6010546102919068010000000000000000900461ffff1681565b60405161ffff9091168152602001610169565b61015f60065481565b600054610223906001600160a01b031681565b61015f60075481565b61015f6102d736600461038c565b600c6020526000908152604090205481565b61030c6102f73660046103b9565b600e6020526000908152604090205460ff1681565b6040519015158152602001610169565b6101c161032a3660046103b9565b61037c565b600254610223906001600160a01b031681565b600f818154811061035257600080fd5b9060005260206000209060089182820401919006600402915054906101000a900463ffffffff1681565b600a818154811061035257600080fd5b60006020828403121561039e57600080fd5b813563ffffffff811681146103b257600080fd5b9392505050565b6000602082840312156103cb57600080fd5b503591905056fea164736f6c6343000812000a",
  "linkReferences": {},
  "deployedLinkReferences": {}
}