{
  "_format": "hh-sol-artifact-1",
  "contractName": "FwReceiptStorage",
  "sourceName": "contracts/storages/FwReceiptStorage.sol",
  "abi": [
    {
      "inputs": [],
      "name": "candidate",
      "outputs": [
        {
          "internalType": "address",
          "name": "",
          "type": "address"
        }
      ],
      "stateMutability": "view",
      "type": "function"
    },
    {
      "inputs": [],
      "name": "l1CrossDomainMessenger",
      "outputs": [
        {
          "internalType": "address",
          "name": "",
          "type": "address"
        }
      ],
      "stateMutability": "view",
      "type": "function"
    },
    {
      "inputs": [
        {
          "internalType": "bytes32",
          "name": "",
          "type": "bytes32"
        }
      ],
      "name": "messages",
      "outputs": [
        {
          "internalType": "uint8",
          "name": "status",
          "type": "uint8"
        },
        {
          "internalType": "bytes",
          "name": "data",
          "type": "bytes"
        },
        {
          "internalType": "bytes",
          "name": "liquidities",
          "type": "bytes"
        }
      ],
      "stateMutability": "view",
      "type": "function"
    },
    {
      "inputs": [],
      "name": "optimismSequencer",
      "outputs": [
        {
          "internalType": "address",
          "name": "",
          "type": "address"
        }
      ],
      "stateMutability": "view",
      "type": "function"
    },
    {
      "inputs": [],
      "name": "receiptNo",
      "outputs": [
        {
          "internalType": "uint256",
          "name": "",
          "type": "uint256"
        }
      ],
      "stateMutability": "view",
      "type": "function"
    },
    {
      "inputs": [],
      "name": "seigManagerV2",
      "outputs": [
        {
          "internalType": "address",
          "name": "",
          "type": "address"
        }
      ],
      "stateMutability": "view",
      "type": "function"
    },
    {
      "inputs": [],
      "name": "ton",
      "outputs": [
        {
          "internalType": "address",
          "name": "",
          "type": "address"
        }
      ],
      "stateMutability": "view",
      "type": "function"
    }
  ],
  "bytecode": "0x6080604052600a805460ff1916600117905534801561001d57600080fd5b506103508061002d6000396000f3fe608060405234801561001057600080fd5b506004361061007d5760003560e01c806373469a7a1161005b57806373469a7a146100ef578063a711986914610102578063cc48b94714610115578063da0dc1351461012857600080fd5b80632bbd59ca146100825780635c475a2f146100ad5780636c8381f8146100c4575b600080fd5b610095610090366004610272565b61013b565b6040516100a4939291906102d1565b60405180910390f35b6100b660055481565b6040519081526020016100a4565b6004546100d7906001600160a01b031681565b6040516001600160a01b0390911681526020016100a4565b6002546100d7906001600160a01b031681565b6001546100d7906001600160a01b031681565b6000546100d7906001600160a01b031681565b6003546100d7906001600160a01b031681565b6006602052600090815260409020805460018201805460ff909216929161016190610309565b80601f016020809104026020016040519081016040528092919081815260200182805461018d90610309565b80156101da5780601f106101af576101008083540402835291602001916101da565b820191906000526020600020905b8154815290600101906020018083116101bd57829003601f168201915b5050505050908060020180546101ef90610309565b80601f016020809104026020016040519081016040528092919081815260200182805461021b90610309565b80156102685780601f1061023d57610100808354040283529160200191610268565b820191906000526020600020905b81548152906001019060200180831161024b57829003601f168201915b5050505050905083565b60006020828403121561028457600080fd5b5035919050565b6000815180845260005b818110156102b157602081850181015186830182015201610295565b506000602082860101526020601f19601f83011685010191505092915050565b60ff841681526060602082015260006102ed606083018561028b565b82810360408401526102ff818561028b565b9695505050505050565b600181811c9082168061031d57607f821691505b60208210810361033d57634e487b7160e01b600052602260045260246000fd5b5091905056fea164736f6c6343000812000a",
  "linkReferences": {},
  "deployedLinkReferences": {}
}