{
  "_format": "hh-sol-artifact-1",
  "contractName": "FwReceiptStorage",
  "sourceName": "contracts/storages/FwReceiptStorage.sol",
  "abi": [
    {
      "inputs": [],
      "name": "candidate",
      "outputs": [
        {
          "internalType": "address",
          "name": "",
          "type": "address"
        }
      ],
      "stateMutability": "view",
      "type": "function"
    },
    {
      "inputs": [
        {
          "internalType": "bytes32",
          "name": "",
          "type": "bytes32"
        }
      ],
      "name": "messages",
      "outputs": [
        {
          "internalType": "uint8",
          "name": "status",
          "type": "uint8"
        },
        {
          "internalType": "bytes",
          "name": "data",
          "type": "bytes"
        },
        {
          "internalType": "bytes",
          "name": "liquidities",
          "type": "bytes"
        }
      ],
      "stateMutability": "view",
      "type": "function"
    },
    {
      "inputs": [],
      "name": "optimismSequencer",
      "outputs": [
        {
          "internalType": "address",
          "name": "",
          "type": "address"
        }
      ],
      "stateMutability": "view",
      "type": "function"
    },
    {
      "inputs": [],
      "name": "seigManagerV2",
      "outputs": [
        {
          "internalType": "address",
          "name": "",
          "type": "address"
        }
      ],
      "stateMutability": "view",
      "type": "function"
    },
    {
      "inputs": [],
      "name": "ton",
      "outputs": [
        {
          "internalType": "address",
          "name": "",
          "type": "address"
        }
      ],
      "stateMutability": "view",
      "type": "function"
    }
  ],
  "bytecode": "0x60806040526008805460ff1916600117905534801561001d57600080fd5b506103108061002d6000396000f3fe608060405234801561001057600080fd5b50600436106100675760003560e01c806373469a7a1161005057806373469a7a146100c2578063cc48b947146100d5578063da0dc135146100e857600080fd5b80632bbd59ca1461006c5780636c8381f814610097575b600080fd5b61007f61007a366004610232565b6100fb565b60405161008e93929190610291565b60405180910390f35b6003546100aa906001600160a01b031681565b6040516001600160a01b03909116815260200161008e565b6001546100aa906001600160a01b031681565b6000546100aa906001600160a01b031681565b6002546100aa906001600160a01b031681565b6004602052600090815260409020805460018201805460ff9092169291610121906102c9565b80601f016020809104026020016040519081016040528092919081815260200182805461014d906102c9565b801561019a5780601f1061016f5761010080835404028352916020019161019a565b820191906000526020600020905b81548152906001019060200180831161017d57829003601f168201915b5050505050908060020180546101af906102c9565b80601f01602080910402602001604051908101604052809291908181526020018280546101db906102c9565b80156102285780601f106101fd57610100808354040283529160200191610228565b820191906000526020600020905b81548152906001019060200180831161020b57829003601f168201915b5050505050905083565b60006020828403121561024457600080fd5b5035919050565b6000815180845260005b8181101561027157602081850181015186830182015201610255565b506000602082860101526020601f19601f83011685010191505092915050565b60ff841681526060602082015260006102ad606083018561024b565b82810360408401526102bf818561024b565b9695505050505050565b600181811c908216806102dd57607f821691505b6020821081036102fd57634e487b7160e01b600052602260045260246000fd5b5091905056fea164736f6c6343000812000a",
  "linkReferences": {},
  "deployedLinkReferences": {}
}