{
  "_format": "hh-sol-artifact-1",
  "contractName": "FwReceiptStorage",
  "sourceName": "contracts/storages/FwReceiptStorage.sol",
  "abi": [
    {
      "inputs": [
        {
          "internalType": "bytes32",
          "name": "",
          "type": "bytes32"
        }
      ],
      "name": "messages",
      "outputs": [
        {
          "internalType": "uint8",
          "name": "status",
          "type": "uint8"
        },
        {
          "internalType": "address",
          "name": "provider",
          "type": "address"
        },
        {
          "internalType": "bytes",
          "name": "data",
          "type": "bytes"
        }
      ],
      "stateMutability": "view",
      "type": "function"
    },
    {
      "inputs": [],
      "name": "optimismSequencer",
      "outputs": [
        {
          "internalType": "address",
          "name": "",
          "type": "address"
        }
      ],
      "stateMutability": "view",
      "type": "function"
    },
    {
      "inputs": [],
      "name": "receiptNo",
      "outputs": [
        {
          "internalType": "uint256",
          "name": "",
          "type": "uint256"
        }
      ],
      "stateMutability": "view",
      "type": "function"
    },
    {
      "inputs": [],
      "name": "ton",
      "outputs": [
        {
          "internalType": "address",
          "name": "",
          "type": "address"
        }
      ],
      "stateMutability": "view",
      "type": "function"
    }
  ],
  "bytecode": "0x608060405234801561001057600080fd5b50610253806100206000396000f3fe608060405234801561001057600080fd5b506004361061004c5760003560e01c80632bbd59ca146100515780635c475a2f1461007c578063cc48b94714610093578063da0dc135146100be575b600080fd5b61006461005f36600461018a565b6100d1565b604051610073939291906101a3565b60405180910390f35b61008560025481565b604051908152602001610073565b6000546100a6906001600160a01b031681565b6040516001600160a01b039091168152602001610073565b6001546100a6906001600160a01b031681565b6003602052600090815260409020805460018201805460ff8316936101009093046001600160a01b03169291906101079061020c565b80601f01602080910402602001604051908101604052809291908181526020018280546101339061020c565b80156101805780601f1061015557610100808354040283529160200191610180565b820191906000526020600020905b81548152906001019060200180831161016357829003601f168201915b5050505050905083565b60006020828403121561019c57600080fd5b5035919050565b60ff84168152600060206001600160a01b0385168184015260606040840152835180606085015260005b818110156101e9578581018301518582016080015282016101cd565b506000608082860101526080601f19601f83011685010192505050949350505050565b600181811c9082168061022057607f821691505b60208210810361024057634e487b7160e01b600052602260045260246000fd5b5091905056fea164736f6c6343000812000a",
  "linkReferences": {},
  "deployedLinkReferences": {}
}