{
  "_format": "hh-sol-artifact-1",
  "contractName": "FwReceiptStorage",
  "sourceName": "contracts/storages/FwReceiptStorage.sol",
  "abi": [
    {
      "inputs": [],
      "name": "candidate",
      "outputs": [
        {
          "internalType": "address",
          "name": "",
          "type": "address"
        }
      ],
      "stateMutability": "view",
      "type": "function"
    },
    {
      "inputs": [],
      "name": "l1CrossDomainMessenger",
      "outputs": [
        {
          "internalType": "address",
          "name": "",
          "type": "address"
        }
      ],
      "stateMutability": "view",
      "type": "function"
    },
    {
      "inputs": [
        {
          "internalType": "bytes32",
          "name": "",
          "type": "bytes32"
        }
      ],
      "name": "messages",
      "outputs": [
        {
          "internalType": "uint8",
          "name": "status",
          "type": "uint8"
        },
        {
          "internalType": "bytes",
          "name": "data",
          "type": "bytes"
        },
        {
          "internalType": "bytes",
          "name": "liquidities",
          "type": "bytes"
        }
      ],
      "stateMutability": "view",
      "type": "function"
    },
    {
      "inputs": [],
      "name": "optimismSequencer",
      "outputs": [
        {
          "internalType": "address",
          "name": "",
          "type": "address"
        }
      ],
      "stateMutability": "view",
      "type": "function"
    },
    {
      "inputs": [],
      "name": "seigManagerV2",
      "outputs": [
        {
          "internalType": "address",
          "name": "",
          "type": "address"
        }
      ],
      "stateMutability": "view",
      "type": "function"
    },
    {
      "inputs": [],
      "name": "ton",
      "outputs": [
        {
          "internalType": "address",
          "name": "",
          "type": "address"
        }
      ],
      "stateMutability": "view",
      "type": "function"
    }
  ],
  "bytecode": "0x60806040526009805460ff1916600117905534801561001d57600080fd5b5061032e8061002d6000396000f3fe608060405234801561001057600080fd5b50600436106100725760003560e01c8063a711986911610050578063a7119869146100e0578063cc48b947146100f3578063da0dc1351461010657600080fd5b80632bbd59ca146100775780636c8381f8146100a257806373469a7a146100cd575b600080fd5b61008a610085366004610250565b610119565b604051610099939291906102af565b60405180910390f35b6004546100b5906001600160a01b031681565b6040516001600160a01b039091168152602001610099565b6002546100b5906001600160a01b031681565b6001546100b5906001600160a01b031681565b6000546100b5906001600160a01b031681565b6003546100b5906001600160a01b031681565b6005602052600090815260409020805460018201805460ff909216929161013f906102e7565b80601f016020809104026020016040519081016040528092919081815260200182805461016b906102e7565b80156101b85780601f1061018d576101008083540402835291602001916101b8565b820191906000526020600020905b81548152906001019060200180831161019b57829003601f168201915b5050505050908060020180546101cd906102e7565b80601f01602080910402602001604051908101604052809291908181526020018280546101f9906102e7565b80156102465780601f1061021b57610100808354040283529160200191610246565b820191906000526020600020905b81548152906001019060200180831161022957829003601f168201915b5050505050905083565b60006020828403121561026257600080fd5b5035919050565b6000815180845260005b8181101561028f57602081850181015186830182015201610273565b506000602082860101526020601f19601f83011685010191505092915050565b60ff841681526060602082015260006102cb6060830185610269565b82810360408401526102dd8185610269565b9695505050505050565b600181811c908216806102fb57607f821691505b60208210810361031b57634e487b7160e01b600052602260045260246000fd5b5091905056fea164736f6c6343000812000a",
  "linkReferences": {},
  "deployedLinkReferences": {}
}