{
  "_format": "hh-sol-artifact-1",
  "contractName": "CandidateStorage",
  "sourceName": "contracts/storages/CandidateStorage.sol",
  "abi": [
    {
      "inputs": [
        {
          "internalType": "uint32",
          "name": "",
          "type": "uint32"
        }
      ],
      "name": "commissions",
      "outputs": [
        {
          "internalType": "uint16",
          "name": "",
          "type": "uint16"
        }
      ],
      "stateMutability": "view",
      "type": "function"
    }
  ],
  "bytecode": "0x608060405234801561001057600080fd5b50609d8061001f6000396000f3fe6080604052348015600f57600080fd5b506004361060285760003560e01c8063a0392c0414602d575b600080fd5b604e60383660046065565b60006020819052908152604090205461ffff1681565b60405161ffff909116815260200160405180910390f35b600060208284031215607657600080fd5b813563ffffffff81168114608957600080fd5b939250505056fea164736f6c6343000812000a",
  "linkReferences": {},
  "deployedLinkReferences": {}
}