{
  "_format": "hh-sol-artifact-1",
  "contractName": "SeigManagerV2Proxy",
  "sourceName": "contracts/proxy/SeigManagerV2Proxy.sol",
  "abi": [
    {
      "anonymous": false,
      "inputs": [
        {
          "indexed": true,
          "internalType": "bytes32",
          "name": "role",
          "type": "bytes32"
        },
        {
          "indexed": true,
          "internalType": "bytes32",
          "name": "previousAdminRole",
          "type": "bytes32"
        },
        {
          "indexed": true,
          "internalType": "bytes32",
          "name": "newAdminRole",
          "type": "bytes32"
        }
      ],
      "name": "RoleAdminChanged",
      "type": "event"
    },
    {
      "anonymous": false,
      "inputs": [
        {
          "indexed": true,
          "internalType": "bytes32",
          "name": "role",
          "type": "bytes32"
        },
        {
          "indexed": true,
          "internalType": "address",
          "name": "account",
          "type": "address"
        },
        {
          "indexed": true,
          "internalType": "address",
          "name": "sender",
          "type": "address"
        }
      ],
      "name": "RoleGranted",
      "type": "event"
    },
    {
      "anonymous": false,
      "inputs": [
        {
          "indexed": true,
          "internalType": "bytes32",
          "name": "role",
          "type": "bytes32"
        },
        {
          "indexed": true,
          "internalType": "address",
          "name": "account",
          "type": "address"
        },
        {
          "indexed": true,
          "internalType": "address",
          "name": "sender",
          "type": "address"
        }
      ],
      "name": "RoleRevoked",
      "type": "event"
    },
    {
      "anonymous": false,
      "inputs": [
        {
          "indexed": true,
          "internalType": "address",
          "name": "impl",
          "type": "address"
        },
        {
          "indexed": false,
          "internalType": "bool",
          "name": "alive",
          "type": "bool"
        }
      ],
      "name": "SetAliveImplementation",
      "type": "event"
    },
    {
      "anonymous": false,
      "inputs": [
        {
          "indexed": true,
          "internalType": "bytes4",
          "name": "selector",
          "type": "bytes4"
        },
        {
          "indexed": true,
          "internalType": "address",
          "name": "impl",
          "type": "address"
        }
      ],
      "name": "SetSelectorImplementation",
      "type": "event"
    },
    {
      "anonymous": false,
      "inputs": [
        {
          "indexed": false,
          "internalType": "uint256",
          "name": "id",
          "type": "uint256"
        }
      ],
      "name": "Snapshot",
      "type": "event"
    },
    {
      "anonymous": false,
      "inputs": [
        {
          "indexed": true,
          "internalType": "address",
          "name": "implementation",
          "type": "address"
        }
      ],
      "name": "Upgraded",
      "type": "event"
    },
    {
      "stateMutability": "payable",
      "type": "fallback"
    },
    {
      "inputs": [],
      "name": "ADMIN_ROLE",
      "outputs": [
        {
          "internalType": "bytes32",
          "name": "",
          "type": "bytes32"
        }
      ],
      "stateMutability": "view",
      "type": "function"
    },
    {
      "inputs": [],
      "name": "DEFAULT_ADMIN_ROLE",
      "outputs": [
        {
          "internalType": "bytes32",
          "name": "",
          "type": "bytes32"
        }
      ],
      "stateMutability": "view",
      "type": "function"
    },
    {
      "inputs": [],
      "name": "POLICY_ROLE",
      "outputs": [
        {
          "internalType": "bytes32",
          "name": "",
          "type": "bytes32"
        }
      ],
      "stateMutability": "view",
      "type": "function"
    },
    {
      "inputs": [
        {
          "internalType": "address",
          "name": "account",
          "type": "address"
        }
      ],
      "name": "addAdmin",
      "outputs": [],
      "stateMutability": "nonpayable",
      "type": "function"
    },
    {
      "inputs": [
        {
          "internalType": "address",
          "name": "",
          "type": "address"
        }
      ],
      "name": "aliveImplementation",
      "outputs": [
        {
          "internalType": "bool",
          "name": "",
          "type": "bool"
        }
      ],
      "stateMutability": "view",
      "type": "function"
    },
    {
      "inputs": [],
      "name": "candidate",
      "outputs": [
        {
          "internalType": "address",
          "name": "",
          "type": "address"
        }
      ],
      "stateMutability": "view",
      "type": "function"
    },
    {
      "inputs": [],
      "name": "claimedSeigsOfIndexLton",
      "outputs": [
        {
          "internalType": "uint256",
          "name": "",
          "type": "uint256"
        }
      ],
      "stateMutability": "view",
      "type": "function"
    },
    {
      "inputs": [],
      "name": "claimedSeigsOfOperators",
      "outputs": [
        {
          "internalType": "uint256",
          "name": "",
          "type": "uint256"
        }
      ],
      "stateMutability": "view",
      "type": "function"
    },
    {
      "inputs": [],
      "name": "cumulativeSeigsOfIndexLton",
      "outputs": [
        {
          "internalType": "uint256",
          "name": "",
          "type": "uint256"
        }
      ],
      "stateMutability": "view",
      "type": "function"
    },
    {
      "inputs": [],
      "name": "cumulativeSeigsOfOperators",
      "outputs": [
        {
          "internalType": "uint256",
          "name": "",
          "type": "uint256"
        }
      ],
      "stateMutability": "view",
      "type": "function"
    },
    {
      "inputs": [],
      "name": "dao",
      "outputs": [
        {
          "internalType": "address",
          "name": "",
          "type": "address"
        }
      ],
      "stateMutability": "view",
      "type": "function"
    },
    {
      "inputs": [
        {
          "internalType": "bytes32",
          "name": "role",
          "type": "bytes32"
        }
      ],
      "name": "getRoleAdmin",
      "outputs": [
        {
          "internalType": "bytes32",
          "name": "",
          "type": "bytes32"
        }
      ],
      "stateMutability": "view",
      "type": "function"
    },
    {
      "inputs": [
        {
          "internalType": "bytes4",
          "name": "_selector",
          "type": "bytes4"
        }
      ],
      "name": "getSelectorImplementation2",
      "outputs": [
        {
          "internalType": "address",
          "name": "impl",
          "type": "address"
        }
      ],
      "stateMutability": "view",
      "type": "function"
    },
    {
      "inputs": [
        {
          "internalType": "bytes32",
          "name": "role",
          "type": "bytes32"
        },
        {
          "internalType": "address",
          "name": "account",
          "type": "address"
        }
      ],
      "name": "grantRole",
      "outputs": [],
      "stateMutability": "nonpayable",
      "type": "function"
    },
    {
      "inputs": [
        {
          "internalType": "bytes32",
          "name": "role",
          "type": "bytes32"
        },
        {
          "internalType": "address",
          "name": "account",
          "type": "address"
        }
      ],
      "name": "hasRole",
      "outputs": [
        {
          "internalType": "bool",
          "name": "",
          "type": "bool"
        }
      ],
      "stateMutability": "view",
      "type": "function"
    },
    {
      "inputs": [],
      "name": "implementation",
      "outputs": [
        {
          "internalType": "address",
          "name": "",
          "type": "address"
        }
      ],
      "stateMutability": "view",
      "type": "function"
    },
    {
      "inputs": [
        {
          "internalType": "uint256",
          "name": "_index",
          "type": "uint256"
        }
      ],
      "name": "implementation2",
      "outputs": [
        {
          "internalType": "address",
          "name": "",
          "type": "address"
        }
      ],
      "stateMutability": "view",
      "type": "function"
    },
    {
      "inputs": [
        {
          "internalType": "address",
          "name": "_ton",
          "type": "address"
        },
        {
          "internalType": "address",
          "name": "_wton",
          "type": "address"
        },
        {
          "internalType": "address",
          "name": "_tot",
          "type": "address"
        },
        {
          "internalType": "address[4]",
          "name": "addr",
          "type": "address[4]"
        },
        {
          "internalType": "uint256",
          "name": "_seigPerBlock",
          "type": "uint256"
        },
        {
          "internalType": "uint32",
          "name": "_minimumBlocksForUpdateSeig",
          "type": "uint32"
        }
      ],
      "name": "initialize",
      "outputs": [],
      "stateMutability": "nonpayable",
      "type": "function"
    },
    {
      "inputs": [
        {
          "internalType": "address",
          "name": "account",
          "type": "address"
        }
      ],
      "name": "isAdmin",
      "outputs": [
        {
          "internalType": "bool",
          "name": "",
          "type": "bool"
        }
      ],
      "stateMutability": "view",
      "type": "function"
    },
    {
      "inputs": [],
      "name": "lastSeigBlock",
      "outputs": [
        {
          "internalType": "uint256",
          "name": "",
          "type": "uint256"
        }
      ],
      "stateMutability": "view",
      "type": "function"
    },
    {
      "inputs": [],
      "name": "layer2Manager",
      "outputs": [
        {
          "internalType": "address",
          "name": "",
          "type": "address"
        }
      ],
      "stateMutability": "view",
      "type": "function"
    },
    {
      "inputs": [],
      "name": "minimumBlocksForUpdateSeig",
      "outputs": [
        {
          "internalType": "uint32",
          "name": "",
          "type": "uint32"
        }
      ],
      "stateMutability": "view",
      "type": "function"
    },
    {
      "inputs": [],
      "name": "optimismL2Operator",
      "outputs": [
        {
          "internalType": "address",
          "name": "",
          "type": "address"
        }
      ],
      "stateMutability": "view",
      "type": "function"
    },
    {
      "inputs": [],
      "name": "pauseProxy",
      "outputs": [
        {
          "internalType": "bool",
          "name": "",
          "type": "bool"
        }
      ],
      "stateMutability": "view",
      "type": "function"
    },
    {
      "inputs": [
        {
          "internalType": "uint256",
          "name": "",
          "type": "uint256"
        }
      ],
      "name": "proxyImplementation",
      "outputs": [
        {
          "internalType": "address",
          "name": "",
          "type": "address"
        }
      ],
      "stateMutability": "view",
      "type": "function"
    },
    {
      "inputs": [
        {
          "internalType": "address",
          "name": "account",
          "type": "address"
        }
      ],
      "name": "removeAdmin",
      "outputs": [],
      "stateMutability": "nonpayable",
      "type": "function"
    },
    {
      "inputs": [
        {
          "internalType": "bytes32",
          "name": "role",
          "type": "bytes32"
        },
        {
          "internalType": "address",
          "name": "account",
          "type": "address"
        }
      ],
      "name": "renounceRole",
      "outputs": [],
      "stateMutability": "nonpayable",
      "type": "function"
    },
    {
      "inputs": [
        {
          "internalType": "bytes32",
          "name": "role",
          "type": "bytes32"
        },
        {
          "internalType": "address",
          "name": "account",
          "type": "address"
        }
      ],
      "name": "revokeRole",
      "outputs": [],
      "stateMutability": "nonpayable",
      "type": "function"
    },
    {
      "inputs": [],
      "name": "seigManagerV1",
      "outputs": [
        {
          "internalType": "address",
          "name": "",
          "type": "address"
        }
      ],
      "stateMutability": "view",
      "type": "function"
    },
    {
      "inputs": [],
      "name": "seigPerBlock",
      "outputs": [
        {
          "internalType": "uint256",
          "name": "",
          "type": "uint256"
        }
      ],
      "stateMutability": "view",
      "type": "function"
    },
    {
      "inputs": [
        {
          "internalType": "bytes4",
          "name": "",
          "type": "bytes4"
        }
      ],
      "name": "selectorImplementation",
      "outputs": [
        {
          "internalType": "address",
          "name": "",
          "type": "address"
        }
      ],
      "stateMutability": "view",
      "type": "function"
    },
    {
      "inputs": [
        {
          "internalType": "address",
          "name": "newImplementation",
          "type": "address"
        },
        {
          "internalType": "bool",
          "name": "_alive",
          "type": "bool"
        }
      ],
      "name": "setAliveImplementation2",
      "outputs": [],
      "stateMutability": "nonpayable",
      "type": "function"
    },
    {
      "inputs": [
        {
          "internalType": "address",
          "name": "newImplementation",
          "type": "address"
        },
        {
          "internalType": "uint256",
          "name": "_index",
          "type": "uint256"
        },
        {
          "internalType": "bool",
          "name": "_alive",
          "type": "bool"
        }
      ],
      "name": "setImplementation2",
      "outputs": [],
      "stateMutability": "nonpayable",
      "type": "function"
    },
    {
      "inputs": [
        {
          "internalType": "bool",
          "name": "_pause",
          "type": "bool"
        }
      ],
      "name": "setProxyPause",
      "outputs": [],
      "stateMutability": "nonpayable",
      "type": "function"
    },
    {
      "inputs": [
        {
          "internalType": "bytes4[]",
          "name": "_selectors",
          "type": "bytes4[]"
        },
        {
          "internalType": "address",
          "name": "_imp",
          "type": "address"
        }
      ],
      "name": "setSelectorImplementations2",
      "outputs": [],
      "stateMutability": "nonpayable",
      "type": "function"
    },
    {
      "inputs": [
        {
          "internalType": "uint256",
          "name": "",
          "type": "uint256"
        }
      ],
      "name": "snapshotTime",
      "outputs": [
        {
          "internalType": "uint32",
          "name": "",
          "type": "uint32"
        }
      ],
      "stateMutability": "view",
      "type": "function"
    },
    {
      "inputs": [],
      "name": "startBlock",
      "outputs": [
        {
          "internalType": "uint256",
          "name": "",
          "type": "uint256"
        }
      ],
      "stateMutability": "view",
      "type": "function"
    },
    {
      "inputs": [
        {
          "internalType": "bytes4",
          "name": "interfaceId",
          "type": "bytes4"
        }
      ],
      "name": "supportsInterface",
      "outputs": [
        {
          "internalType": "bool",
          "name": "",
          "type": "bool"
        }
      ],
      "stateMutability": "view",
      "type": "function"
    },
    {
      "inputs": [],
      "name": "ton",
      "outputs": [
        {
          "internalType": "contract IERC20",
          "name": "",
          "type": "address"
        }
      ],
      "stateMutability": "view",
      "type": "function"
    },
    {
      "inputs": [],
      "name": "tot",
      "outputs": [
        {
          "internalType": "address",
          "name": "",
          "type": "address"
        }
      ],
      "stateMutability": "view",
      "type": "function"
    },
    {
      "inputs": [
        {
          "internalType": "address",
          "name": "newAdmin",
          "type": "address"
        }
      ],
      "name": "transferAdmin",
      "outputs": [],
      "stateMutability": "nonpayable",
      "type": "function"
    },
    {
      "inputs": [
        {
          "internalType": "address",
          "name": "impl",
          "type": "address"
        }
      ],
      "name": "upgradeTo",
      "outputs": [],
      "stateMutability": "nonpayable",
      "type": "function"
    },
    {
      "inputs": [],
      "name": "wton",
      "outputs": [
        {
          "internalType": "address",
          "name": "",
          "type": "address"
        }
      ],
      "stateMutability": "view",
      "type": "function"
    },
    {
      "stateMutability": "payable",
      "type": "receive"
    }
  ],
  "bytecode": "0x60806040526015805460ff191660011790553480156200001e57600080fd5b506200003a6000805160206200202c8339815191528062000068565b620000556000805160206200202c83398151915233620000b3565b62000062600033620000b3565b62000163565b600082815260208190526040808220600101805490849055905190918391839186917fbd79b86ffe0ab8e8776151514217cd7cacd52c909f66475c3af44e129f0b00ff9190a4505050565b620000bf8282620000c3565b5050565b6000828152602081815260408083206001600160a01b038516845290915290205460ff16620000bf576000828152602081815260408083206001600160a01b03851684529091529020805460ff191660011790556200011f3390565b6001600160a01b0316816001600160a01b0316837f2f8788117e7eff1d82e926ec794901d17c78024a50270940304540a733656f0d60405160405180910390a45050565b611eb980620001736000396000f3fe6080604052600436106102e05760003560e01c806363a3a2f5116101845780638d62d949116100d6578063cc48b9471161008a578063ec558b1611610064578063ec558b1614610904578063f2854fc414610924578063f35c89e81461093a57610332565b8063cc48b947146108a4578063d206e12a146108c4578063d547741f146108e457610332565b8063a16d6aa7116100bb578063a16d6aa714610839578063a217fddf14610859578063b911135f1461086e57610332565b80638d62d949146107d557806391d14854146107f557610332565b806375829def116101385780637cd5f663116101125780637cd5f663146107755780638b8f4a65146107955780638d4fdb40146107b557610332565b806375829def1461070157806375b238fc146107215780637cb00d251461075557610332565b80636c8381f8116101695780636c8381f8146106ab5780636fab0d4f146106cb57806370480275146106e157610332565b806363a3a2f51461067157806363a8fd891461069157610332565b80634162169f1161023d578063550d01a3116101f15780635cc797d8116101cb5780635cc797d8146106255780635f40a349146106455780636342661b1461065b57610332565b8063550d01a3146105995780635c60da1b146105c95780635c7f252c1461060f57610332565b80634a5df50f116102225780634a5df50f146105265780634ab6b4621461054657806350d2a2761461056357610332565b80634162169f146104f057806348cd4cb11461051057610332565b8063248a9ca3116102945780632f2ff15d116102795780632f2ff15d1461049057806336568abe146104b05780633659cfe6146104d057610332565b8063248a9ca31461044057806324d7806c1461047057610332565b80631785f53c116102c55780631785f53c146103a95780631dc0f9bb146103c957806322985246146103fe57610332565b806301ffc9a71461033c57806316b5d5bd1461037157610332565b366103325760405162461bcd60e51b815260206004820152601460248201527f63616e6e6f74207265636569766520457468657200000000000000000000000060448201526064015b60405180910390fd5b61033a610950565b005b34801561034857600080fd5b5061035c610357366004611aea565b6109f9565b60405190151581526020015b60405180910390f35b34801561037d57600080fd5b50600a54610391906001600160a01b031681565b6040516001600160a01b039091168152602001610368565b3480156103b557600080fd5b5061033a6103c4366004611b2b565b610a30565b3480156103d557600080fd5b506103e96103e4366004611b46565b610aab565b60405163ffffffff9091168152602001610368565b34801561040a57600080fd5b506104327ffb5864e8ff833c3cb2d2d08505e82ff02a43554c74a35d4f5a64e8526127831181565b604051908152602001610368565b34801561044c57600080fd5b5061043261045b366004611b46565b60009081526020819052604090206001015490565b34801561047c57600080fd5b5061035c61048b366004611b2b565b610ae5565b34801561049c57600080fd5b5061033a6104ab366004611b5f565b610b25565b3480156104bc57600080fd5b5061033a6104cb366004611b5f565b610b4a565b3480156104dc57600080fd5b5061033a6104eb366004611b2b565b610bd6565b3480156104fc57600080fd5b50600754610391906001600160a01b031681565b34801561051c57600080fd5b50610432600f5481565b34801561053257600080fd5b5061033a610541366004611b8b565b610d2f565b34801561055257600080fd5b506010546103e99063ffffffff1681565b34801561056f57600080fd5b5061039161057e366004611aea565b6004602052600090815260409020546001600160a01b031681565b3480156105a557600080fd5b5061035c6105b4366004611b2b565b60036020526000908152604090205460ff1681565b3480156105d557600080fd5b506000805260026020527fac33ff75c19e70fe83507db0d683fd3465c996598dc972688b7ace676c89077b546001600160a01b0316610391565b34801561061b57600080fd5b5061043260125481565b34801561063157600080fd5b5061033a610640366004611c1f565b610fcf565b34801561065157600080fd5b50610432600d5481565b34801561066757600080fd5b5061043260115481565b34801561067d57600080fd5b50600854610391906001600160a01b031681565b34801561069d57600080fd5b5060015461035c9060ff1681565b3480156106b757600080fd5b50600c54610391906001600160a01b031681565b3480156106d757600080fd5b5061043260135481565b3480156106ed57600080fd5b5061033a6106fc366004611b2b565b611027565b34801561070d57600080fd5b5061033a61071c366004611b2b565b61109f565b34801561072d57600080fd5b506104327fdf8b4c520ffe197c5343c6f5aec59570151ef9a492f2c624fd45ddde6135ec4281565b34801561076157600080fd5b5061033a610770366004611c49565b6111ef565b34801561078157600080fd5b5061033a610790366004611c64565b611250565b3480156107a157600080fd5b506103916107b0366004611b46565b6112a9565b3480156107c157600080fd5b506103916107d0366004611aea565b6112c6565b3480156107e157600080fd5b50600654610391906001600160a01b031681565b34801561080157600080fd5b5061035c610810366004611b5f565b6000918252602082815260408084206001600160a01b0393909316845291905290205460ff1690565b34801561084557600080fd5b50600954610391906001600160a01b031681565b34801561086557600080fd5b50610432600081565b34801561087a57600080fd5b50610391610889366004611b46565b6002602052600090815260409020546001600160a01b031681565b3480156108b057600080fd5b50600554610391906001600160a01b031681565b3480156108d057600080fd5b5061033a6108df366004611c97565b6113c2565b3480156108f057600080fd5b5061033a6108ff366004611b5f565b61167f565b34801561091057600080fd5b50600b54610391906001600160a01b031681565b34801561093057600080fd5b5061043260145481565b34801561094657600080fd5b50610432600e5481565b60006109676000356001600160e01b0319166112c6565b90506001600160a01b03811615801590610984575060015460ff16155b6109d05760405162461bcd60e51b815260206004820152601d60248201527f50726f78793a20696d706c204f522070726f78792069732066616c73650000006044820152606401610329565b3660008037600080366000845af43d6000803e8080156109ef573d6000f35b3d6000fd5b505050565b60006001600160e01b03198216637965db0b60e01b1480610a2a57506301ffc9a760e01b6001600160e01b03198316145b92915050565b610a3933610ae5565b610a7e5760405162461bcd60e51b81526020600482015260226024820152600080516020611e8d83398151915260448201526134b760f11b6064820152608401610329565b610aa87fdf8b4c520ffe197c5343c6f5aec59570151ef9a492f2c624fd45ddde6135ec4282610b4a565b50565b601a8181548110610abb57600080fd5b9060005260206000209060089182820401919006600402915054906101000a900463ffffffff1681565b6001600160a01b03811660009081527f5cbfc8ee58ca47855df7bcf648dd304ddb6b932f9b87878bdf6318d7ec7ee5b7602052604081205460ff16610a2a565b600082815260208190526040902060010154610b40816116a4565b6109f483836116ae565b6001600160a01b0381163314610bc85760405162461bcd60e51b815260206004820152602f60248201527f416363657373436f6e74726f6c3a2063616e206f6e6c792072656e6f756e636560448201527f20726f6c657320666f722073656c6600000000000000000000000000000000006064820152608401610329565b610bd2828261174c565b5050565b610bdf33610ae5565b610c245760405162461bcd60e51b81526020600482015260226024820152600080516020611e8d83398151915260448201526134b760f11b6064820152608401610329565b6001600160a01b038116610c7a5760405162461bcd60e51b815260206004820152600d60248201527f696e707574206973207a65726f000000000000000000000000000000000000006044820152606401610329565b6000805260026020527fac33ff75c19e70fe83507db0d683fd3465c996598dc972688b7ace676c89077b546001600160a01b03828116911603610ceb5760405162461bcd60e51b815260206004820152600960248201526839b0b6b29030b2323960b91b6044820152606401610329565b610cf881600060016117cb565b6040516001600160a01b038216907fbc7cd75a20ee27fd9adebab32041f755214dbc6bffa90cc0225b39da2e5c2d3b90600090a250565b610d3833610ae5565b610d7d5760405162461bcd60e51b81526020600482015260226024820152600080516020611e8d83398151915260448201526134b760f11b6064820152608401610329565b81610dca5760405162461bcd60e51b815260206004820181905260248201527f50726f78793a205f73656c6563746f727327732073697a65206973207a65726f6044820152606401610329565b6001600160a01b03811660009081526003602052604090205460ff16610e325760405162461bcd60e51b815260206004820152601860248201527f50726f78793a205f696d70206973206e6f7420616c69766500000000000000006044820152606401610329565b60005b82811015610fc957816001600160a01b031660046000868685818110610e5d57610e5d611d18565b9050602002016020810190610e729190611aea565b6001600160e01b03191681526020810191909152604001600020546001600160a01b031603610ee35760405162461bcd60e51b815260206004820152601d60248201527f4c69717569646974795661756c7450726f78793a2073616d6520696d700000006044820152606401610329565b8160046000868685818110610efa57610efa611d18565b9050602002016020810190610f0f9190611aea565b6001600160e01b0319168152602081019190915260400160002080546001600160a01b0319166001600160a01b039283161790558216848483818110610f5757610f57611d18565b9050602002016020810190610f6c9190611aea565b7bffffffffffffffffffffffffffffffffffffffffffffffffffffffff19167f14ebc1c32aa68f4d766e89f3e546cee249f7df25183fc10ab1568d91c2ce9b7b60405160405180910390a380610fc181611d44565b915050610e35565b50505050565b610fd833610ae5565b61101d5760405162461bcd60e51b81526020600482015260226024820152600080516020611e8d83398151915260448201526134b760f11b6064820152608401610329565b610bd28282611856565b61103033610ae5565b6110755760405162461bcd60e51b81526020600482015260226024820152600080516020611e8d83398151915260448201526134b760f11b6064820152608401610329565b610aa87fdf8b4c520ffe197c5343c6f5aec59570151ef9a492f2c624fd45ddde6135ec4282610b25565b6110a833610ae5565b6110ed5760405162461bcd60e51b81526020600482015260226024820152600080516020611e8d83398151915260448201526134b760f11b6064820152608401610329565b6001600160a01b0381166111435760405162461bcd60e51b815260206004820152601860248201527f41636365737369626c653a207a65726f206164647265737300000000000000006044820152606401610329565b6001600160a01b038116330361119b5760405162461bcd60e51b815260206004820152601660248201527f41636365737369626c653a2073616d652061646d696e000000000000000000006044820152606401610329565b6111c57fdf8b4c520ffe197c5343c6f5aec59570151ef9a492f2c624fd45ddde6135ec4282610b25565b610aa87fdf8b4c520ffe197c5343c6f5aec59570151ef9a492f2c624fd45ddde6135ec4233610b4a565b6111f833610ae5565b61123d5760405162461bcd60e51b81526020600482015260226024820152600080516020611e8d83398151915260448201526134b760f11b6064820152608401610329565b6001805460ff1916911515919091179055565b61125933610ae5565b61129e5760405162461bcd60e51b81526020600482015260226024820152600080516020611e8d83398151915260448201526134b760f11b6064820152608401610329565b6109f48383836117cb565b6000818152600260205260408120546001600160a01b0316610a2a565b6001600160e01b031981166000908152600460205260408120546001600160a01b03166113265750506000805260026020527fac33ff75c19e70fe83507db0d683fd3465c996598dc972688b7ace676c89077b546001600160a01b031690565b6001600160e01b031982166000908152600460209081526040808320546001600160a01b03168352600390915290205460ff161561138457506001600160e01b0319166000908152600460205260409020546001600160a01b031690565b50506000805260026020527fac33ff75c19e70fe83507db0d683fd3465c996598dc972688b7ace676c89077b546001600160a01b031690565b919050565b6113cb33610ae5565b6114105760405162461bcd60e51b81526020600482015260226024820152600080516020611e8d83398151915260448201526134b760f11b6064820152608401610329565b6001600160a01b0386161580159061143057506001600160a01b03851615155b801561144457506001600160a01b03841615155b80156114665750600061145a6020850185611b2b565b6001600160a01b031614155b801561148b5750600061147f6040850160208601611b2b565b6001600160a01b031614155b80156114b0575060006114a46060850160408601611b2b565b6001600160a01b031614155b80156114d5575060006114c96080850160608601611b2b565b6001600160a01b031614155b80156114e057508115155b6115115760405162461bcd60e51b8152602060048201526002602482015261503160f01b6044820152606401610329565b6005546001600160a01b03161561156a5760405162461bcd60e51b815260206004820152601260248201527f616c726561647920696e697469616c697a6500000000000000000000000000006044820152606401610329565b6115776020840184611b2b565b600880546001600160a01b03199081166001600160a01b0393841617909155600580548216898416179055600680548216888416179055600980549091169186169190911790556115ce6040840160208501611b2b565b600a80546001600160a01b0319166001600160a01b03929092169190911790556115fe6060840160408501611b2b565b600b80546001600160a01b0319166001600160a01b039290921691909117905561162e6080840160608501611b2b565b600c80546001600160a01b0319166001600160a01b0392909216919091179055600d919091556010805463ffffffff191663ffffffff9092169190911790555050670de0b6b3a76400006017555050565b60008281526020819052604090206001015461169a816116a4565b6109f4838361174c565b610aa881336118b5565b6000828152602081815260408083206001600160a01b038516845290915290205460ff16610bd2576000828152602081815260408083206001600160a01b03851684529091529020805460ff191660011790556117083390565b6001600160a01b0316816001600160a01b0316837f2f8788117e7eff1d82e926ec794901d17c78024a50270940304540a733656f0d60405160405180910390a45050565b6000828152602081815260408083206001600160a01b038516845290915290205460ff1615610bd2576000828152602081815260408083206001600160a01b0385168085529252808320805460ff1916905551339285917ff6391f5c32d9c69d2a47ea670b442974b53935d1edc7fd64eb21e047a839171b9190a45050565b6001600160a01b0383163b6118225760405162461bcd60e51b815260206004820152601b60248201527f50726f78793a206e6f7420636f6e7472616374206164647265737300000000006044820152606401610329565b801561185057600082815260026020526040902080546001600160a01b0319166001600160a01b0385161790555b6109f483825b6001600160a01b038216600081815260036020908152604091829020805460ff191685151590811790915591519182527f72558d9bfba4210f9ef095c782589484151f6d90f7a81bb3cb9b33efc695d324910160405180910390a25050565b6000828152602081815260408083206001600160a01b038516845290915290205460ff16610bd2576118e681611928565b6118f183602061193a565b604051602001611902929190611d81565b60408051601f198184030181529082905262461bcd60e51b825261032991600401611e02565b6060610a2a6001600160a01b03831660145b60606000611949836002611e35565b611954906002611e4c565b67ffffffffffffffff81111561196c5761196c611e5f565b6040519080825280601f01601f191660200182016040528015611996576020820181803683370190505b509050600360fc1b816000815181106119b1576119b1611d18565b60200101906001600160f81b031916908160001a905350600f60fb1b816001815181106119e0576119e0611d18565b60200101906001600160f81b031916908160001a9053506000611a04846002611e35565b611a0f906001611e4c565b90505b6001811115611a94577f303132333435363738396162636465660000000000000000000000000000000085600f1660108110611a5057611a50611d18565b1a60f81b828281518110611a6657611a66611d18565b60200101906001600160f81b031916908160001a90535060049490941c93611a8d81611e75565b9050611a12565b508315611ae35760405162461bcd60e51b815260206004820181905260248201527f537472696e67733a20686578206c656e67746820696e73756666696369656e746044820152606401610329565b9392505050565b600060208284031215611afc57600080fd5b81356001600160e01b031981168114611ae357600080fd5b80356001600160a01b03811681146113bd57600080fd5b600060208284031215611b3d57600080fd5b611ae382611b14565b600060208284031215611b5857600080fd5b5035919050565b60008060408385031215611b7257600080fd5b82359150611b8260208401611b14565b90509250929050565b600080600060408486031215611ba057600080fd5b833567ffffffffffffffff80821115611bb857600080fd5b818601915086601f830112611bcc57600080fd5b813581811115611bdb57600080fd5b8760208260051b8501011115611bf057600080fd5b602092830195509350611c069186019050611b14565b90509250925092565b803580151581146113bd57600080fd5b60008060408385031215611c3257600080fd5b611c3b83611b14565b9150611b8260208401611c0f565b600060208284031215611c5b57600080fd5b611ae382611c0f565b600080600060608486031215611c7957600080fd5b611c8284611b14565b925060208401359150611c0660408501611c0f565b6000806000806000806101208789031215611cb157600080fd5b611cba87611b14565b9550611cc860208801611b14565b9450611cd660408801611b14565b935060e0870188811115611ce957600080fd5b60608801935035915061010087013563ffffffff81168114611d0a57600080fd5b809150509295509295509295565b634e487b7160e01b600052603260045260246000fd5b634e487b7160e01b600052601160045260246000fd5b600060018201611d5657611d56611d2e565b5060010190565b60005b83811015611d78578181015183820152602001611d60565b50506000910152565b7f416363657373436f6e74726f6c3a206163636f756e7420000000000000000000815260008351611db9816017850160208801611d5d565b7f206973206d697373696e6720726f6c65200000000000000000000000000000006017918401918201528351611df6816028840160208801611d5d565b01602801949350505050565b6020815260008251806020840152611e21816040850160208701611d5d565b601f01601f19169190910160400192915050565b8082028115828204841417610a2a57610a2a611d2e565b80820180821115610a2a57610a2a611d2e565b634e487b7160e01b600052604160045260246000fd5b600081611e8457611e84611d2e565b50600019019056fe41636365737369626c653a2043616c6c6572206973206e6f7420616e2061646da164736f6c6343000812000adf8b4c520ffe197c5343c6f5aec59570151ef9a492f2c624fd45ddde6135ec42",
  "linkReferences": {},
  "deployedLinkReferences": {}
}