{
  "_format": "hh-sol-artifact-1",
  "contractName": "SeigManagerV2Proxy",
  "sourceName": "contracts/proxy/SeigManagerV2Proxy.sol",
  "abi": [
    {
      "anonymous": false,
      "inputs": [
        {
          "indexed": true,
          "internalType": "bytes32",
          "name": "role",
          "type": "bytes32"
        },
        {
          "indexed": true,
          "internalType": "bytes32",
          "name": "previousAdminRole",
          "type": "bytes32"
        },
        {
          "indexed": true,
          "internalType": "bytes32",
          "name": "newAdminRole",
          "type": "bytes32"
        }
      ],
      "name": "RoleAdminChanged",
      "type": "event"
    },
    {
      "anonymous": false,
      "inputs": [
        {
          "indexed": true,
          "internalType": "bytes32",
          "name": "role",
          "type": "bytes32"
        },
        {
          "indexed": true,
          "internalType": "address",
          "name": "account",
          "type": "address"
        },
        {
          "indexed": true,
          "internalType": "address",
          "name": "sender",
          "type": "address"
        }
      ],
      "name": "RoleGranted",
      "type": "event"
    },
    {
      "anonymous": false,
      "inputs": [
        {
          "indexed": true,
          "internalType": "bytes32",
          "name": "role",
          "type": "bytes32"
        },
        {
          "indexed": true,
          "internalType": "address",
          "name": "account",
          "type": "address"
        },
        {
          "indexed": true,
          "internalType": "address",
          "name": "sender",
          "type": "address"
        }
      ],
      "name": "RoleRevoked",
      "type": "event"
    },
    {
      "anonymous": false,
      "inputs": [
        {
          "indexed": true,
          "internalType": "address",
          "name": "impl",
          "type": "address"
        },
        {
          "indexed": false,
          "internalType": "bool",
          "name": "alive",
          "type": "bool"
        }
      ],
      "name": "SetAliveImplementation",
      "type": "event"
    },
    {
      "anonymous": false,
      "inputs": [
        {
          "indexed": true,
          "internalType": "bytes4",
          "name": "selector",
          "type": "bytes4"
        },
        {
          "indexed": true,
          "internalType": "address",
          "name": "impl",
          "type": "address"
        }
      ],
      "name": "SetSelectorImplementation",
      "type": "event"
    },
    {
      "anonymous": false,
      "inputs": [
        {
          "indexed": true,
          "internalType": "address",
          "name": "implementation",
          "type": "address"
        }
      ],
      "name": "Upgraded",
      "type": "event"
    },
    {
      "stateMutability": "payable",
      "type": "fallback"
    },
    {
      "inputs": [],
      "name": "ADMIN_ROLE",
      "outputs": [
        {
          "internalType": "bytes32",
          "name": "",
          "type": "bytes32"
        }
      ],
      "stateMutability": "view",
      "type": "function"
    },
    {
      "inputs": [],
      "name": "DEFAULT_ADMIN_ROLE",
      "outputs": [
        {
          "internalType": "bytes32",
          "name": "",
          "type": "bytes32"
        }
      ],
      "stateMutability": "view",
      "type": "function"
    },
    {
      "inputs": [],
      "name": "POLICY_ROLE",
      "outputs": [
        {
          "internalType": "bytes32",
          "name": "",
          "type": "bytes32"
        }
      ],
      "stateMutability": "view",
      "type": "function"
    },
    {
      "inputs": [
        {
          "internalType": "address",
          "name": "account",
          "type": "address"
        }
      ],
      "name": "addAdmin",
      "outputs": [],
      "stateMutability": "nonpayable",
      "type": "function"
    },
    {
      "inputs": [
        {
          "internalType": "address",
          "name": "",
          "type": "address"
        }
      ],
      "name": "aliveImplementation",
      "outputs": [
        {
          "internalType": "bool",
          "name": "",
          "type": "bool"
        }
      ],
      "stateMutability": "view",
      "type": "function"
    },
    {
      "inputs": [],
      "name": "candidate",
      "outputs": [
        {
          "internalType": "address",
          "name": "",
          "type": "address"
        }
      ],
      "stateMutability": "view",
      "type": "function"
    },
    {
      "inputs": [],
      "name": "dao",
      "outputs": [
        {
          "internalType": "address",
          "name": "",
          "type": "address"
        }
      ],
      "stateMutability": "view",
      "type": "function"
    },
    {
      "inputs": [
        {
          "internalType": "bytes32",
          "name": "role",
          "type": "bytes32"
        }
      ],
      "name": "getRoleAdmin",
      "outputs": [
        {
          "internalType": "bytes32",
          "name": "",
          "type": "bytes32"
        }
      ],
      "stateMutability": "view",
      "type": "function"
    },
    {
      "inputs": [
        {
          "internalType": "bytes4",
          "name": "_selector",
          "type": "bytes4"
        }
      ],
      "name": "getSelectorImplementation2",
      "outputs": [
        {
          "internalType": "address",
          "name": "impl",
          "type": "address"
        }
      ],
      "stateMutability": "view",
      "type": "function"
    },
    {
      "inputs": [
        {
          "internalType": "bytes32",
          "name": "role",
          "type": "bytes32"
        },
        {
          "internalType": "address",
          "name": "account",
          "type": "address"
        }
      ],
      "name": "grantRole",
      "outputs": [],
      "stateMutability": "nonpayable",
      "type": "function"
    },
    {
      "inputs": [
        {
          "internalType": "bytes32",
          "name": "role",
          "type": "bytes32"
        },
        {
          "internalType": "address",
          "name": "account",
          "type": "address"
        }
      ],
      "name": "hasRole",
      "outputs": [
        {
          "internalType": "bool",
          "name": "",
          "type": "bool"
        }
      ],
      "stateMutability": "view",
      "type": "function"
    },
    {
      "inputs": [],
      "name": "implementation",
      "outputs": [
        {
          "internalType": "address",
          "name": "",
          "type": "address"
        }
      ],
      "stateMutability": "view",
      "type": "function"
    },
    {
      "inputs": [
        {
          "internalType": "uint256",
          "name": "_index",
          "type": "uint256"
        }
      ],
      "name": "implementation2",
      "outputs": [
        {
          "internalType": "address",
          "name": "",
          "type": "address"
        }
      ],
      "stateMutability": "view",
      "type": "function"
    },
    {
      "inputs": [],
      "name": "indexLton",
      "outputs": [
        {
          "internalType": "uint256",
          "name": "",
          "type": "uint256"
        }
      ],
      "stateMutability": "view",
      "type": "function"
    },
    {
      "inputs": [
        {
          "internalType": "address",
          "name": "_ton",
          "type": "address"
        },
        {
          "internalType": "address",
          "name": "_wton",
          "type": "address"
        },
        {
          "internalType": "address",
          "name": "_tot",
          "type": "address"
        },
        {
          "internalType": "address",
          "name": "_seigManagerV1",
          "type": "address"
        },
        {
          "internalType": "address",
          "name": "_layer2Manager",
          "type": "address"
        },
        {
          "internalType": "address",
          "name": "_optimismSequencer",
          "type": "address"
        },
        {
          "internalType": "address",
          "name": "_candidate",
          "type": "address"
        },
        {
          "internalType": "uint256",
          "name": "_seigPerBlock",
          "type": "uint256"
        },
        {
          "internalType": "uint32",
          "name": "_minimumBlocksForUpdateSeig",
          "type": "uint32"
        }
      ],
      "name": "initialize",
      "outputs": [],
      "stateMutability": "nonpayable",
      "type": "function"
    },
    {
      "inputs": [
        {
          "internalType": "address",
          "name": "account",
          "type": "address"
        }
      ],
      "name": "isAdmin",
      "outputs": [
        {
          "internalType": "bool",
          "name": "",
          "type": "bool"
        }
      ],
      "stateMutability": "view",
      "type": "function"
    },
    {
      "inputs": [],
      "name": "lastSeigBlock",
      "outputs": [
        {
          "internalType": "uint256",
          "name": "",
          "type": "uint256"
        }
      ],
      "stateMutability": "view",
      "type": "function"
    },
    {
      "inputs": [],
      "name": "layer2Manager",
      "outputs": [
        {
          "internalType": "address",
          "name": "",
          "type": "address"
        }
      ],
      "stateMutability": "view",
      "type": "function"
    },
    {
      "inputs": [],
      "name": "minimumBlocksForUpdateSeig",
      "outputs": [
        {
          "internalType": "uint32",
          "name": "",
          "type": "uint32"
        }
      ],
      "stateMutability": "view",
      "type": "function"
    },
    {
      "inputs": [],
      "name": "optimismSequencer",
      "outputs": [
        {
          "internalType": "address",
          "name": "",
          "type": "address"
        }
      ],
      "stateMutability": "view",
      "type": "function"
    },
    {
      "inputs": [],
      "name": "pauseProxy",
      "outputs": [
        {
          "internalType": "bool",
          "name": "",
          "type": "bool"
        }
      ],
      "stateMutability": "view",
      "type": "function"
    },
    {
      "inputs": [
        {
          "internalType": "uint256",
          "name": "",
          "type": "uint256"
        }
      ],
      "name": "proxyImplementation",
      "outputs": [
        {
          "internalType": "address",
          "name": "",
          "type": "address"
        }
      ],
      "stateMutability": "view",
      "type": "function"
    },
    {
      "inputs": [],
      "name": "ratesDao",
      "outputs": [
        {
          "internalType": "uint16",
          "name": "",
          "type": "uint16"
        }
      ],
      "stateMutability": "view",
      "type": "function"
    },
    {
      "inputs": [],
      "name": "ratesStosHolders",
      "outputs": [
        {
          "internalType": "uint16",
          "name": "",
          "type": "uint16"
        }
      ],
      "stateMutability": "view",
      "type": "function"
    },
    {
      "inputs": [],
      "name": "ratesTonStakers",
      "outputs": [
        {
          "internalType": "uint16",
          "name": "",
          "type": "uint16"
        }
      ],
      "stateMutability": "view",
      "type": "function"
    },
    {
      "inputs": [],
      "name": "ratesUnits",
      "outputs": [
        {
          "internalType": "uint16",
          "name": "",
          "type": "uint16"
        }
      ],
      "stateMutability": "view",
      "type": "function"
    },
    {
      "inputs": [
        {
          "internalType": "address",
          "name": "account",
          "type": "address"
        }
      ],
      "name": "removeAdmin",
      "outputs": [],
      "stateMutability": "nonpayable",
      "type": "function"
    },
    {
      "inputs": [
        {
          "internalType": "bytes32",
          "name": "role",
          "type": "bytes32"
        },
        {
          "internalType": "address",
          "name": "account",
          "type": "address"
        }
      ],
      "name": "renounceRole",
      "outputs": [],
      "stateMutability": "nonpayable",
      "type": "function"
    },
    {
      "inputs": [
        {
          "internalType": "bytes32",
          "name": "role",
          "type": "bytes32"
        },
        {
          "internalType": "address",
          "name": "account",
          "type": "address"
        }
      ],
      "name": "revokeRole",
      "outputs": [],
      "stateMutability": "nonpayable",
      "type": "function"
    },
    {
      "inputs": [],
      "name": "seigManagerV1",
      "outputs": [
        {
          "internalType": "address",
          "name": "",
          "type": "address"
        }
      ],
      "stateMutability": "view",
      "type": "function"
    },
    {
      "inputs": [],
      "name": "seigPerBlock",
      "outputs": [
        {
          "internalType": "uint256",
          "name": "",
          "type": "uint256"
        }
      ],
      "stateMutability": "view",
      "type": "function"
    },
    {
      "inputs": [
        {
          "internalType": "bytes4",
          "name": "",
          "type": "bytes4"
        }
      ],
      "name": "selectorImplementation",
      "outputs": [
        {
          "internalType": "address",
          "name": "",
          "type": "address"
        }
      ],
      "stateMutability": "view",
      "type": "function"
    },
    {
      "inputs": [
        {
          "internalType": "address",
          "name": "newImplementation",
          "type": "address"
        },
        {
          "internalType": "bool",
          "name": "_alive",
          "type": "bool"
        }
      ],
      "name": "setAliveImplementation2",
      "outputs": [],
      "stateMutability": "nonpayable",
      "type": "function"
    },
    {
      "inputs": [
        {
          "internalType": "address",
          "name": "newImplementation",
          "type": "address"
        },
        {
          "internalType": "uint256",
          "name": "_index",
          "type": "uint256"
        },
        {
          "internalType": "bool",
          "name": "_alive",
          "type": "bool"
        }
      ],
      "name": "setImplementation2",
      "outputs": [],
      "stateMutability": "nonpayable",
      "type": "function"
    },
    {
      "inputs": [
        {
          "internalType": "bool",
          "name": "_pause",
          "type": "bool"
        }
      ],
      "name": "setProxyPause",
      "outputs": [],
      "stateMutability": "nonpayable",
      "type": "function"
    },
    {
      "inputs": [
        {
          "internalType": "bytes4[]",
          "name": "_selectors",
          "type": "bytes4[]"
        },
        {
          "internalType": "address",
          "name": "_imp",
          "type": "address"
        }
      ],
      "name": "setSelectorImplementations2",
      "outputs": [],
      "stateMutability": "nonpayable",
      "type": "function"
    },
    {
      "inputs": [],
      "name": "startBlock",
      "outputs": [
        {
          "internalType": "uint256",
          "name": "",
          "type": "uint256"
        }
      ],
      "stateMutability": "view",
      "type": "function"
    },
    {
      "inputs": [],
      "name": "stosDistribute",
      "outputs": [
        {
          "internalType": "address",
          "name": "",
          "type": "address"
        }
      ],
      "stateMutability": "view",
      "type": "function"
    },
    {
      "inputs": [
        {
          "internalType": "bytes4",
          "name": "interfaceId",
          "type": "bytes4"
        }
      ],
      "name": "supportsInterface",
      "outputs": [
        {
          "internalType": "bool",
          "name": "",
          "type": "bool"
        }
      ],
      "stateMutability": "view",
      "type": "function"
    },
    {
      "inputs": [],
      "name": "ton",
      "outputs": [
        {
          "internalType": "contract IERC20",
          "name": "",
          "type": "address"
        }
      ],
      "stateMutability": "view",
      "type": "function"
    },
    {
      "inputs": [],
      "name": "tot",
      "outputs": [
        {
          "internalType": "address",
          "name": "",
          "type": "address"
        }
      ],
      "stateMutability": "view",
      "type": "function"
    },
    {
      "inputs": [
        {
          "internalType": "address",
          "name": "newAdmin",
          "type": "address"
        }
      ],
      "name": "transferAdmin",
      "outputs": [],
      "stateMutability": "nonpayable",
      "type": "function"
    },
    {
      "inputs": [
        {
          "internalType": "address",
          "name": "impl",
          "type": "address"
        }
      ],
      "name": "upgradeTo",
      "outputs": [],
      "stateMutability": "nonpayable",
      "type": "function"
    },
    {
      "inputs": [],
      "name": "wton",
      "outputs": [
        {
          "internalType": "address",
          "name": "",
          "type": "address"
        }
      ],
      "stateMutability": "view",
      "type": "function"
    },
    {
      "stateMutability": "payable",
      "type": "receive"
    }
  ],
  "bytecode": "0x60806040526012805460ff60601b19166c010000000000000000000000001790553480156200002d57600080fd5b5062000049600080516020620020028339815191528062000077565b620000646000805160206200200283398151915233620000c2565b62000071600033620000c2565b62000172565b600082815260208190526040808220600101805490849055905190918391839186917fbd79b86ffe0ab8e8776151514217cd7cacd52c909f66475c3af44e129f0b00ff9190a4505050565b620000ce8282620000d2565b5050565b6000828152602081815260408083206001600160a01b038516845290915290205460ff16620000ce576000828152602081815260408083206001600160a01b03851684529091529020805460ff191660011790556200012e3390565b6001600160a01b0316816001600160a01b0316837f2f8788117e7eff1d82e926ec794901d17c78024a50270940304540a733656f0d60405160405180910390a45050565b611e8080620001826000396000f3fe6080604052600436106102eb5760003560e01c806363a3a2f5116101845780638d62d949116100d6578063cc48b9471161008a578063f1ae4e9f11610064578063f1ae4e9f14610963578063f35c89e814610986578063fb7d324d1461099c5761033d565b8063cc48b94714610903578063d547741f14610923578063da0dc135146109435761033d565b8063a16d6aa7116100bb578063a16d6aa714610898578063a217fddf146108b8578063b911135f146108cd5761033d565b80638d62d9491461083457806391d14854146108545761033d565b806375b238fc116101385780638b8f4a65116101125780638b8f4a65146107cf5780638b95087b146107ef5780638d4fdb40146108145761033d565b806375b238fc1461075b5780637cb00d251461078f5780637cd5f663146107af5761033d565b80636c8381f8116101695780636c8381f8146106fb578063704802751461071b57806375829def1461073b5761033d565b806363a3a2f5146106c157806363a8fd89146106e15761033d565b80633659cfe61161023d57806350d2a276116101f15780635c60da1b116101cb5780635c60da1b146106455780635cc797d81461068b5780635f40a349146106ab5761033d565b806350d2a276146105c9578063550d01a3146105ff578063558e43761461062f5761033d565b806348cd4cb11161022257806348cd4cb1146105555780634a5df50f1461056b5780634ab6b4621461058b5761033d565b80633659cfe6146105155780634162169f146105355761033d565b8063248a9ca31161029f5780632f2ff15d116102795780632f2ff15d146104b5578063305f71de146104d557806336568abe146104f55761033d565b8063248a9ca31461044457806324d7806c1461047457806325dea4b0146104945761033d565b80631785f53c116102d05780631785f53c146103b457806322985246146103d4578063247e5545146104165761033d565b806301ffc9a71461034757806316b5d5bd1461037c5761033d565b3661033d5760405162461bcd60e51b815260206004820152601460248201527f63616e6e6f74207265636569766520457468657200000000000000000000000060448201526064015b60405180910390fd5b6103456109bc565b005b34801561035357600080fd5b50610367610362366004611a84565b610a65565b60405190151581526020015b60405180910390f35b34801561038857600080fd5b50600b5461039c906001600160a01b031681565b6040516001600160a01b039091168152602001610373565b3480156103c057600080fd5b506103456103cf366004611ac5565b610a9c565b3480156103e057600080fd5b506104087ffb5864e8ff833c3cb2d2d08505e82ff02a43554c74a35d4f5a64e8526127831181565b604051908152602001610373565b34801561042257600080fd5b506012546104319061ffff1681565b60405161ffff9091168152602001610373565b34801561045057600080fd5b5061040861045f366004611ae0565b60009081526020819052604090206001015490565b34801561048057600080fd5b5061036761048f366004611ac5565b610b17565b3480156104a057600080fd5b506012546104319062010000900461ffff1681565b3480156104c157600080fd5b506103456104d0366004611af9565b610b57565b3480156104e157600080fd5b506103456104f0366004611b25565b610b7c565b34801561050157600080fd5b50610345610510366004611af9565b610da1565b34801561052157600080fd5b50610345610530366004611ac5565b610e2d565b34801561054157600080fd5b5060075461039c906001600160a01b031681565b34801561056157600080fd5b5061040860105481565b34801561057757600080fd5b50610345610586366004611bd3565b610f86565b34801561059757600080fd5b506012546105b49068010000000000000000900463ffffffff1681565b60405163ffffffff9091168152602001610373565b3480156105d557600080fd5b5061039c6105e4366004611a84565b6004602052600090815260409020546001600160a01b031681565b34801561060b57600080fd5b5061036761061a366004611ac5565b60036020526000908152604090205460ff1681565b34801561063b57600080fd5b5061040860115481565b34801561065157600080fd5b506000805260026020527fac33ff75c19e70fe83507db0d683fd3465c996598dc972688b7ace676c89077b546001600160a01b031661039c565b34801561069757600080fd5b506103456106a6366004611c67565b611226565b3480156106b757600080fd5b50610408600e5481565b3480156106cd57600080fd5b5060095461039c906001600160a01b031681565b3480156106ed57600080fd5b506001546103679060ff1681565b34801561070757600080fd5b50600d5461039c906001600160a01b031681565b34801561072757600080fd5b50610345610736366004611ac5565b61127e565b34801561074757600080fd5b50610345610756366004611ac5565b6112f6565b34801561076757600080fd5b506104087fdf8b4c520ffe197c5343c6f5aec59570151ef9a492f2c624fd45ddde6135ec4281565b34801561079b57600080fd5b506103456107aa366004611c91565b611446565b3480156107bb57600080fd5b506103456107ca366004611cac565b6114a7565b3480156107db57600080fd5b5061039c6107ea366004611ae0565b611500565b3480156107fb57600080fd5b50601254610431906601000000000000900461ffff1681565b34801561082057600080fd5b5061039c61082f366004611a84565b61151d565b34801561084057600080fd5b5060065461039c906001600160a01b031681565b34801561086057600080fd5b5061036761086f366004611af9565b6000918252602082815260408084206001600160a01b0393909316845291905290205460ff1690565b3480156108a457600080fd5b50600a5461039c906001600160a01b031681565b3480156108c457600080fd5b50610408600081565b3480156108d957600080fd5b5061039c6108e8366004611ae0565b6002602052600090815260409020546001600160a01b031681565b34801561090f57600080fd5b5060055461039c906001600160a01b031681565b34801561092f57600080fd5b5061034561093e366004611af9565b611619565b34801561094f57600080fd5b50600c5461039c906001600160a01b031681565b34801561096f57600080fd5b5060125461043190640100000000900461ffff1681565b34801561099257600080fd5b50610408600f5481565b3480156109a857600080fd5b5060085461039c906001600160a01b031681565b60006109d36000356001600160e01b03191661151d565b90506001600160a01b038116158015906109f0575060015460ff16155b610a3c5760405162461bcd60e51b815260206004820152601d60248201527f50726f78793a20696d706c204f522070726f78792069732066616c73650000006044820152606401610334565b3660008037600080366000845af43d6000803e808015610a5b573d6000f35b3d6000fd5b505050565b60006001600160e01b03198216637965db0b60e01b1480610a9657506301ffc9a760e01b6001600160e01b03198316145b92915050565b610aa533610b17565b610aea5760405162461bcd60e51b81526020600482015260226024820152600080516020611e5483398151915260448201526134b760f11b6064820152608401610334565b610b147fdf8b4c520ffe197c5343c6f5aec59570151ef9a492f2c624fd45ddde6135ec4282610da1565b50565b6001600160a01b03811660009081527f5cbfc8ee58ca47855df7bcf648dd304ddb6b932f9b87878bdf6318d7ec7ee5b7602052604081205460ff16610a96565b600082815260208190526040902060010154610b728161163e565b610a608383611648565b610b8533610b17565b610bca5760405162461bcd60e51b81526020600482015260226024820152600080516020611e5483398151915260448201526134b760f11b6064820152608401610334565b6001600160a01b03891615801590610bea57506001600160a01b03881615155b8015610bfe57506001600160a01b03871615155b8015610c1257506001600160a01b03861615155b8015610c2657506001600160a01b03841615155b8015610c3a57506001600160a01b03831615155b8015610c4e57506001600160a01b03851615155b8015610c5957508115155b610c8a5760405162461bcd60e51b8152602060048201526002602482015261503160f01b6044820152606401610334565b6005546001600160a01b031615610ce35760405162461bcd60e51b815260206004820152601260248201527f616c726561647920696e697469616c697a6500000000000000000000000000006044820152606401610334565b600980546001600160a01b03199081166001600160a01b03988916179091556005805482169a88169a909a17909955600680548a1698871698909817909755600a8054891696861696909617909555600b8054881693851693909317909255600c80548716918416919091179055600d8054909516911617909255600e91909155601280546bffffffff000000000000000019166801000000000000000063ffffffff90931692909202919091179055670de0b6b3a7640000601155565b6001600160a01b0381163314610e1f5760405162461bcd60e51b815260206004820152602f60248201527f416363657373436f6e74726f6c3a2063616e206f6e6c792072656e6f756e636560448201527f20726f6c657320666f722073656c6600000000000000000000000000000000006064820152608401610334565b610e2982826116e6565b5050565b610e3633610b17565b610e7b5760405162461bcd60e51b81526020600482015260226024820152600080516020611e5483398151915260448201526134b760f11b6064820152608401610334565b6001600160a01b038116610ed15760405162461bcd60e51b815260206004820152600d60248201527f696e707574206973207a65726f000000000000000000000000000000000000006044820152606401610334565b6000805260026020527fac33ff75c19e70fe83507db0d683fd3465c996598dc972688b7ace676c89077b546001600160a01b03828116911603610f425760405162461bcd60e51b815260206004820152600960248201526839b0b6b29030b2323960b91b6044820152606401610334565b610f4f8160006001611765565b6040516001600160a01b038216907fbc7cd75a20ee27fd9adebab32041f755214dbc6bffa90cc0225b39da2e5c2d3b90600090a250565b610f8f33610b17565b610fd45760405162461bcd60e51b81526020600482015260226024820152600080516020611e5483398151915260448201526134b760f11b6064820152608401610334565b816110215760405162461bcd60e51b815260206004820181905260248201527f50726f78793a205f73656c6563746f727327732073697a65206973207a65726f6044820152606401610334565b6001600160a01b03811660009081526003602052604090205460ff166110895760405162461bcd60e51b815260206004820152601860248201527f50726f78793a205f696d70206973206e6f7420616c69766500000000000000006044820152606401610334565b60005b8281101561122057816001600160a01b0316600460008686858181106110b4576110b4611cdf565b90506020020160208101906110c99190611a84565b6001600160e01b03191681526020810191909152604001600020546001600160a01b03160361113a5760405162461bcd60e51b815260206004820152601d60248201527f4c69717569646974795661756c7450726f78793a2073616d6520696d700000006044820152606401610334565b816004600086868581811061115157611151611cdf565b90506020020160208101906111669190611a84565b6001600160e01b0319168152602081019190915260400160002080546001600160a01b0319166001600160a01b0392831617905582168484838181106111ae576111ae611cdf565b90506020020160208101906111c39190611a84565b7bffffffffffffffffffffffffffffffffffffffffffffffffffffffff19167f14ebc1c32aa68f4d766e89f3e546cee249f7df25183fc10ab1568d91c2ce9b7b60405160405180910390a38061121881611d0b565b91505061108c565b50505050565b61122f33610b17565b6112745760405162461bcd60e51b81526020600482015260226024820152600080516020611e5483398151915260448201526134b760f11b6064820152608401610334565b610e2982826117f0565b61128733610b17565b6112cc5760405162461bcd60e51b81526020600482015260226024820152600080516020611e5483398151915260448201526134b760f11b6064820152608401610334565b610b147fdf8b4c520ffe197c5343c6f5aec59570151ef9a492f2c624fd45ddde6135ec4282610b57565b6112ff33610b17565b6113445760405162461bcd60e51b81526020600482015260226024820152600080516020611e5483398151915260448201526134b760f11b6064820152608401610334565b6001600160a01b03811661139a5760405162461bcd60e51b815260206004820152601860248201527f41636365737369626c653a207a65726f206164647265737300000000000000006044820152606401610334565b6001600160a01b03811633036113f25760405162461bcd60e51b815260206004820152601660248201527f41636365737369626c653a2073616d652061646d696e000000000000000000006044820152606401610334565b61141c7fdf8b4c520ffe197c5343c6f5aec59570151ef9a492f2c624fd45ddde6135ec4282610b57565b610b147fdf8b4c520ffe197c5343c6f5aec59570151ef9a492f2c624fd45ddde6135ec4233610da1565b61144f33610b17565b6114945760405162461bcd60e51b81526020600482015260226024820152600080516020611e5483398151915260448201526134b760f11b6064820152608401610334565b6001805460ff1916911515919091179055565b6114b033610b17565b6114f55760405162461bcd60e51b81526020600482015260226024820152600080516020611e5483398151915260448201526134b760f11b6064820152608401610334565b610a60838383611765565b6000818152600260205260408120546001600160a01b0316610a96565b6001600160e01b031981166000908152600460205260408120546001600160a01b031661157d5750506000805260026020527fac33ff75c19e70fe83507db0d683fd3465c996598dc972688b7ace676c89077b546001600160a01b031690565b6001600160e01b031982166000908152600460209081526040808320546001600160a01b03168352600390915290205460ff16156115db57506001600160e01b0319166000908152600460205260409020546001600160a01b031690565b50506000805260026020527fac33ff75c19e70fe83507db0d683fd3465c996598dc972688b7ace676c89077b546001600160a01b031690565b919050565b6000828152602081905260409020600101546116348161163e565b610a6083836116e6565b610b14813361184f565b6000828152602081815260408083206001600160a01b038516845290915290205460ff16610e29576000828152602081815260408083206001600160a01b03851684529091529020805460ff191660011790556116a23390565b6001600160a01b0316816001600160a01b0316837f2f8788117e7eff1d82e926ec794901d17c78024a50270940304540a733656f0d60405160405180910390a45050565b6000828152602081815260408083206001600160a01b038516845290915290205460ff1615610e29576000828152602081815260408083206001600160a01b0385168085529252808320805460ff1916905551339285917ff6391f5c32d9c69d2a47ea670b442974b53935d1edc7fd64eb21e047a839171b9190a45050565b6001600160a01b0383163b6117bc5760405162461bcd60e51b815260206004820152601b60248201527f50726f78793a206e6f7420636f6e7472616374206164647265737300000000006044820152606401610334565b80156117ea57600082815260026020526040902080546001600160a01b0319166001600160a01b0385161790555b610a6083825b6001600160a01b038216600081815260036020908152604091829020805460ff191685151590811790915591519182527f72558d9bfba4210f9ef095c782589484151f6d90f7a81bb3cb9b33efc695d324910160405180910390a25050565b6000828152602081815260408083206001600160a01b038516845290915290205460ff16610e2957611880816118c2565b61188b8360206118d4565b60405160200161189c929190611d48565b60408051601f198184030181529082905262461bcd60e51b825261033491600401611dc9565b6060610a966001600160a01b03831660145b606060006118e3836002611dfc565b6118ee906002611e13565b67ffffffffffffffff81111561190657611906611e26565b6040519080825280601f01601f191660200182016040528015611930576020820181803683370190505b509050600360fc1b8160008151811061194b5761194b611cdf565b60200101906001600160f81b031916908160001a905350600f60fb1b8160018151811061197a5761197a611cdf565b60200101906001600160f81b031916908160001a905350600061199e846002611dfc565b6119a9906001611e13565b90505b6001811115611a2e577f303132333435363738396162636465660000000000000000000000000000000085600f16601081106119ea576119ea611cdf565b1a60f81b828281518110611a0057611a00611cdf565b60200101906001600160f81b031916908160001a90535060049490941c93611a2781611e3c565b90506119ac565b508315611a7d5760405162461bcd60e51b815260206004820181905260248201527f537472696e67733a20686578206c656e67746820696e73756666696369656e746044820152606401610334565b9392505050565b600060208284031215611a9657600080fd5b81356001600160e01b031981168114611a7d57600080fd5b80356001600160a01b038116811461161457600080fd5b600060208284031215611ad757600080fd5b611a7d82611aae565b600060208284031215611af257600080fd5b5035919050565b60008060408385031215611b0c57600080fd5b82359150611b1c60208401611aae565b90509250929050565b60008060008060008060008060006101208a8c031215611b4457600080fd5b611b4d8a611aae565b9850611b5b60208b01611aae565b9750611b6960408b01611aae565b9650611b7760608b01611aae565b9550611b8560808b01611aae565b9450611b9360a08b01611aae565b9350611ba160c08b01611aae565b925060e08a013591506101008a013563ffffffff81168114611bc257600080fd5b809150509295985092959850929598565b600080600060408486031215611be857600080fd5b833567ffffffffffffffff80821115611c0057600080fd5b818601915086601f830112611c1457600080fd5b813581811115611c2357600080fd5b8760208260051b8501011115611c3857600080fd5b602092830195509350611c4e9186019050611aae565b90509250925092565b8035801515811461161457600080fd5b60008060408385031215611c7a57600080fd5b611c8383611aae565b9150611b1c60208401611c57565b600060208284031215611ca357600080fd5b611a7d82611c57565b600080600060608486031215611cc157600080fd5b611cca84611aae565b925060208401359150611c4e60408501611c57565b634e487b7160e01b600052603260045260246000fd5b634e487b7160e01b600052601160045260246000fd5b600060018201611d1d57611d1d611cf5565b5060010190565b60005b83811015611d3f578181015183820152602001611d27565b50506000910152565b7f416363657373436f6e74726f6c3a206163636f756e7420000000000000000000815260008351611d80816017850160208801611d24565b7f206973206d697373696e6720726f6c65200000000000000000000000000000006017918401918201528351611dbd816028840160208801611d24565b01602801949350505050565b6020815260008251806020840152611de8816040850160208701611d24565b601f01601f19169190910160400192915050565b8082028115828204841417610a9657610a96611cf5565b80820180821115610a9657610a96611cf5565b634e487b7160e01b600052604160045260246000fd5b600081611e4b57611e4b611cf5565b50600019019056fe41636365737369626c653a2043616c6c6572206973206e6f7420616e2061646da164736f6c6343000812000adf8b4c520ffe197c5343c6f5aec59570151ef9a492f2c624fd45ddde6135ec42",
  "linkReferences": {},
  "deployedLinkReferences": {}
}