{
  "_format": "hh-sol-artifact-1",
  "contractName": "SeigManagerV2Proxy",
  "sourceName": "contracts/proxy/SeigManagerV2Proxy.sol",
  "abi": [
    {
      "anonymous": false,
      "inputs": [
        {
          "indexed": true,
          "internalType": "bytes32",
          "name": "role",
          "type": "bytes32"
        },
        {
          "indexed": true,
          "internalType": "bytes32",
          "name": "previousAdminRole",
          "type": "bytes32"
        },
        {
          "indexed": true,
          "internalType": "bytes32",
          "name": "newAdminRole",
          "type": "bytes32"
        }
      ],
      "name": "RoleAdminChanged",
      "type": "event"
    },
    {
      "anonymous": false,
      "inputs": [
        {
          "indexed": true,
          "internalType": "bytes32",
          "name": "role",
          "type": "bytes32"
        },
        {
          "indexed": true,
          "internalType": "address",
          "name": "account",
          "type": "address"
        },
        {
          "indexed": true,
          "internalType": "address",
          "name": "sender",
          "type": "address"
        }
      ],
      "name": "RoleGranted",
      "type": "event"
    },
    {
      "anonymous": false,
      "inputs": [
        {
          "indexed": true,
          "internalType": "bytes32",
          "name": "role",
          "type": "bytes32"
        },
        {
          "indexed": true,
          "internalType": "address",
          "name": "account",
          "type": "address"
        },
        {
          "indexed": true,
          "internalType": "address",
          "name": "sender",
          "type": "address"
        }
      ],
      "name": "RoleRevoked",
      "type": "event"
    },
    {
      "anonymous": false,
      "inputs": [
        {
          "indexed": true,
          "internalType": "address",
          "name": "impl",
          "type": "address"
        },
        {
          "indexed": false,
          "internalType": "bool",
          "name": "alive",
          "type": "bool"
        }
      ],
      "name": "SetAliveImplementation",
      "type": "event"
    },
    {
      "anonymous": false,
      "inputs": [
        {
          "indexed": true,
          "internalType": "bytes4",
          "name": "selector",
          "type": "bytes4"
        },
        {
          "indexed": true,
          "internalType": "address",
          "name": "impl",
          "type": "address"
        }
      ],
      "name": "SetSelectorImplementation",
      "type": "event"
    },
    {
      "anonymous": false,
      "inputs": [
        {
          "indexed": true,
          "internalType": "address",
          "name": "implementation",
          "type": "address"
        }
      ],
      "name": "Upgraded",
      "type": "event"
    },
    {
      "stateMutability": "payable",
      "type": "fallback"
    },
    {
      "inputs": [],
      "name": "ADMIN_ROLE",
      "outputs": [
        {
          "internalType": "bytes32",
          "name": "",
          "type": "bytes32"
        }
      ],
      "stateMutability": "view",
      "type": "function"
    },
    {
      "inputs": [],
      "name": "DEFAULT_ADMIN_ROLE",
      "outputs": [
        {
          "internalType": "bytes32",
          "name": "",
          "type": "bytes32"
        }
      ],
      "stateMutability": "view",
      "type": "function"
    },
    {
      "inputs": [],
      "name": "POLICY_ROLE",
      "outputs": [
        {
          "internalType": "bytes32",
          "name": "",
          "type": "bytes32"
        }
      ],
      "stateMutability": "view",
      "type": "function"
    },
    {
      "inputs": [
        {
          "internalType": "address",
          "name": "account",
          "type": "address"
        }
      ],
      "name": "addAdmin",
      "outputs": [],
      "stateMutability": "nonpayable",
      "type": "function"
    },
    {
      "inputs": [
        {
          "internalType": "address",
          "name": "",
          "type": "address"
        }
      ],
      "name": "aliveImplementation",
      "outputs": [
        {
          "internalType": "bool",
          "name": "",
          "type": "bool"
        }
      ],
      "stateMutability": "view",
      "type": "function"
    },
    {
      "inputs": [],
      "name": "candidate",
      "outputs": [
        {
          "internalType": "address",
          "name": "",
          "type": "address"
        }
      ],
      "stateMutability": "view",
      "type": "function"
    },
    {
      "inputs": [],
      "name": "dao",
      "outputs": [
        {
          "internalType": "address",
          "name": "",
          "type": "address"
        }
      ],
      "stateMutability": "view",
      "type": "function"
    },
    {
      "inputs": [
        {
          "internalType": "bytes32",
          "name": "role",
          "type": "bytes32"
        }
      ],
      "name": "getRoleAdmin",
      "outputs": [
        {
          "internalType": "bytes32",
          "name": "",
          "type": "bytes32"
        }
      ],
      "stateMutability": "view",
      "type": "function"
    },
    {
      "inputs": [
        {
          "internalType": "bytes4",
          "name": "_selector",
          "type": "bytes4"
        }
      ],
      "name": "getSelectorImplementation2",
      "outputs": [
        {
          "internalType": "address",
          "name": "impl",
          "type": "address"
        }
      ],
      "stateMutability": "view",
      "type": "function"
    },
    {
      "inputs": [
        {
          "internalType": "bytes32",
          "name": "role",
          "type": "bytes32"
        },
        {
          "internalType": "address",
          "name": "account",
          "type": "address"
        }
      ],
      "name": "grantRole",
      "outputs": [],
      "stateMutability": "nonpayable",
      "type": "function"
    },
    {
      "inputs": [
        {
          "internalType": "bytes32",
          "name": "role",
          "type": "bytes32"
        },
        {
          "internalType": "address",
          "name": "account",
          "type": "address"
        }
      ],
      "name": "hasRole",
      "outputs": [
        {
          "internalType": "bool",
          "name": "",
          "type": "bool"
        }
      ],
      "stateMutability": "view",
      "type": "function"
    },
    {
      "inputs": [],
      "name": "implementation",
      "outputs": [
        {
          "internalType": "address",
          "name": "",
          "type": "address"
        }
      ],
      "stateMutability": "view",
      "type": "function"
    },
    {
      "inputs": [
        {
          "internalType": "uint256",
          "name": "_index",
          "type": "uint256"
        }
      ],
      "name": "implementation2",
      "outputs": [
        {
          "internalType": "address",
          "name": "",
          "type": "address"
        }
      ],
      "stateMutability": "view",
      "type": "function"
    },
    {
      "inputs": [],
      "name": "indexLton",
      "outputs": [
        {
          "internalType": "uint256",
          "name": "",
          "type": "uint256"
        }
      ],
      "stateMutability": "view",
      "type": "function"
    },
    {
      "inputs": [
        {
          "internalType": "address",
          "name": "_ton",
          "type": "address"
        },
        {
          "internalType": "address",
          "name": "_wton",
          "type": "address"
        },
        {
          "internalType": "address",
          "name": "_tot",
          "type": "address"
        },
        {
          "internalType": "address[4]",
          "name": "addr",
          "type": "address[4]"
        },
        {
          "internalType": "uint256",
          "name": "_seigPerBlock",
          "type": "uint256"
        },
        {
          "internalType": "uint32",
          "name": "_minimumBlocksForUpdateSeig",
          "type": "uint32"
        },
        {
          "internalType": "uint16[4]",
          "name": "_rates",
          "type": "uint16[4]"
        }
      ],
      "name": "initialize",
      "outputs": [],
      "stateMutability": "nonpayable",
      "type": "function"
    },
    {
      "inputs": [
        {
          "internalType": "address",
          "name": "account",
          "type": "address"
        }
      ],
      "name": "isAdmin",
      "outputs": [
        {
          "internalType": "bool",
          "name": "",
          "type": "bool"
        }
      ],
      "stateMutability": "view",
      "type": "function"
    },
    {
      "inputs": [],
      "name": "lastSeigBlock",
      "outputs": [
        {
          "internalType": "uint256",
          "name": "",
          "type": "uint256"
        }
      ],
      "stateMutability": "view",
      "type": "function"
    },
    {
      "inputs": [],
      "name": "layer2Manager",
      "outputs": [
        {
          "internalType": "address",
          "name": "",
          "type": "address"
        }
      ],
      "stateMutability": "view",
      "type": "function"
    },
    {
      "inputs": [],
      "name": "minimumBlocksForUpdateSeig",
      "outputs": [
        {
          "internalType": "uint32",
          "name": "",
          "type": "uint32"
        }
      ],
      "stateMutability": "view",
      "type": "function"
    },
    {
      "inputs": [],
      "name": "optimismSequencer",
      "outputs": [
        {
          "internalType": "address",
          "name": "",
          "type": "address"
        }
      ],
      "stateMutability": "view",
      "type": "function"
    },
    {
      "inputs": [],
      "name": "pauseProxy",
      "outputs": [
        {
          "internalType": "bool",
          "name": "",
          "type": "bool"
        }
      ],
      "stateMutability": "view",
      "type": "function"
    },
    {
      "inputs": [
        {
          "internalType": "uint256",
          "name": "",
          "type": "uint256"
        }
      ],
      "name": "proxyImplementation",
      "outputs": [
        {
          "internalType": "address",
          "name": "",
          "type": "address"
        }
      ],
      "stateMutability": "view",
      "type": "function"
    },
    {
      "inputs": [],
      "name": "ratesDao",
      "outputs": [
        {
          "internalType": "uint16",
          "name": "",
          "type": "uint16"
        }
      ],
      "stateMutability": "view",
      "type": "function"
    },
    {
      "inputs": [],
      "name": "ratesStosHolders",
      "outputs": [
        {
          "internalType": "uint16",
          "name": "",
          "type": "uint16"
        }
      ],
      "stateMutability": "view",
      "type": "function"
    },
    {
      "inputs": [],
      "name": "ratesTonStakers",
      "outputs": [
        {
          "internalType": "uint16",
          "name": "",
          "type": "uint16"
        }
      ],
      "stateMutability": "view",
      "type": "function"
    },
    {
      "inputs": [],
      "name": "ratesUnits",
      "outputs": [
        {
          "internalType": "uint16",
          "name": "",
          "type": "uint16"
        }
      ],
      "stateMutability": "view",
      "type": "function"
    },
    {
      "inputs": [
        {
          "internalType": "address",
          "name": "account",
          "type": "address"
        }
      ],
      "name": "removeAdmin",
      "outputs": [],
      "stateMutability": "nonpayable",
      "type": "function"
    },
    {
      "inputs": [
        {
          "internalType": "bytes32",
          "name": "role",
          "type": "bytes32"
        },
        {
          "internalType": "address",
          "name": "account",
          "type": "address"
        }
      ],
      "name": "renounceRole",
      "outputs": [],
      "stateMutability": "nonpayable",
      "type": "function"
    },
    {
      "inputs": [
        {
          "internalType": "bytes32",
          "name": "role",
          "type": "bytes32"
        },
        {
          "internalType": "address",
          "name": "account",
          "type": "address"
        }
      ],
      "name": "revokeRole",
      "outputs": [],
      "stateMutability": "nonpayable",
      "type": "function"
    },
    {
      "inputs": [],
      "name": "seigManagerV1",
      "outputs": [
        {
          "internalType": "address",
          "name": "",
          "type": "address"
        }
      ],
      "stateMutability": "view",
      "type": "function"
    },
    {
      "inputs": [],
      "name": "seigPerBlock",
      "outputs": [
        {
          "internalType": "uint256",
          "name": "",
          "type": "uint256"
        }
      ],
      "stateMutability": "view",
      "type": "function"
    },
    {
      "inputs": [
        {
          "internalType": "bytes4",
          "name": "",
          "type": "bytes4"
        }
      ],
      "name": "selectorImplementation",
      "outputs": [
        {
          "internalType": "address",
          "name": "",
          "type": "address"
        }
      ],
      "stateMutability": "view",
      "type": "function"
    },
    {
      "inputs": [
        {
          "internalType": "address",
          "name": "newImplementation",
          "type": "address"
        },
        {
          "internalType": "bool",
          "name": "_alive",
          "type": "bool"
        }
      ],
      "name": "setAliveImplementation2",
      "outputs": [],
      "stateMutability": "nonpayable",
      "type": "function"
    },
    {
      "inputs": [
        {
          "internalType": "address",
          "name": "newImplementation",
          "type": "address"
        },
        {
          "internalType": "uint256",
          "name": "_index",
          "type": "uint256"
        },
        {
          "internalType": "bool",
          "name": "_alive",
          "type": "bool"
        }
      ],
      "name": "setImplementation2",
      "outputs": [],
      "stateMutability": "nonpayable",
      "type": "function"
    },
    {
      "inputs": [
        {
          "internalType": "bool",
          "name": "_pause",
          "type": "bool"
        }
      ],
      "name": "setProxyPause",
      "outputs": [],
      "stateMutability": "nonpayable",
      "type": "function"
    },
    {
      "inputs": [
        {
          "internalType": "bytes4[]",
          "name": "_selectors",
          "type": "bytes4[]"
        },
        {
          "internalType": "address",
          "name": "_imp",
          "type": "address"
        }
      ],
      "name": "setSelectorImplementations2",
      "outputs": [],
      "stateMutability": "nonpayable",
      "type": "function"
    },
    {
      "inputs": [],
      "name": "startBlock",
      "outputs": [
        {
          "internalType": "uint256",
          "name": "",
          "type": "uint256"
        }
      ],
      "stateMutability": "view",
      "type": "function"
    },
    {
      "inputs": [],
      "name": "stosDistribute",
      "outputs": [
        {
          "internalType": "address",
          "name": "",
          "type": "address"
        }
      ],
      "stateMutability": "view",
      "type": "function"
    },
    {
      "inputs": [
        {
          "internalType": "bytes4",
          "name": "interfaceId",
          "type": "bytes4"
        }
      ],
      "name": "supportsInterface",
      "outputs": [
        {
          "internalType": "bool",
          "name": "",
          "type": "bool"
        }
      ],
      "stateMutability": "view",
      "type": "function"
    },
    {
      "inputs": [],
      "name": "ton",
      "outputs": [
        {
          "internalType": "contract IERC20",
          "name": "",
          "type": "address"
        }
      ],
      "stateMutability": "view",
      "type": "function"
    },
    {
      "inputs": [],
      "name": "tot",
      "outputs": [
        {
          "internalType": "address",
          "name": "",
          "type": "address"
        }
      ],
      "stateMutability": "view",
      "type": "function"
    },
    {
      "inputs": [
        {
          "internalType": "address",
          "name": "newAdmin",
          "type": "address"
        }
      ],
      "name": "transferAdmin",
      "outputs": [],
      "stateMutability": "nonpayable",
      "type": "function"
    },
    {
      "inputs": [
        {
          "internalType": "address",
          "name": "impl",
          "type": "address"
        }
      ],
      "name": "upgradeTo",
      "outputs": [],
      "stateMutability": "nonpayable",
      "type": "function"
    },
    {
      "inputs": [],
      "name": "wton",
      "outputs": [
        {
          "internalType": "address",
          "name": "",
          "type": "address"
        }
      ],
      "stateMutability": "view",
      "type": "function"
    },
    {
      "stateMutability": "payable",
      "type": "receive"
    }
  ],
  "bytecode": "0x60806040526012805460ff60601b19166c010000000000000000000000001790553480156200002d57600080fd5b5062000049600080516020620022ae8339815191528062000077565b62000064600080516020620022ae83398151915233620000c2565b62000071600033620000c2565b62000172565b600082815260208190526040808220600101805490849055905190918391839186917fbd79b86ffe0ab8e8776151514217cd7cacd52c909f66475c3af44e129f0b00ff9190a4505050565b620000ce8282620000d2565b5050565b6000828152602081815260408083206001600160a01b038516845290915290205460ff16620000ce576000828152602081815260408083206001600160a01b03851684529091529020805460ff191660011790556200012e3390565b6001600160a01b0316816001600160a01b0316837f2f8788117e7eff1d82e926ec794901d17c78024a50270940304540a733656f0d60405160405180910390a45050565b61212c80620001826000396000f3fe6080604052600436106102eb5760003560e01c806363a3a2f5116101845780638d62d949116100d6578063cc48b9471161008a578063f1ae4e9f11610064578063f1ae4e9f1461096b578063f35c89e814610986578063fb7d324d1461099c5761033d565b8063cc48b9471461090b578063d547741f1461092b578063da0dc1351461094b5761033d565b8063a16d6aa7116100bb578063a16d6aa7146108a0578063a217fddf146108c0578063b911135f146108d55761033d565b80638d62d9491461083c57806391d148541461085c5761033d565b806375b238fc116101385780638b8f4a65116101125780638b8f4a65146107d75780638b95087b146107f75780638d4fdb401461081c5761033d565b806375b238fc146107635780637cb00d25146107975780637cd5f663146107b75761033d565b80636c8381f8116101695780636c8381f814610703578063704802751461072357806375829def146107435761033d565b806363a3a2f5146106c957806363a8fd89146106e95761033d565b80633659cfe61161023d57806350d2a276116101f15780635c60da1b116101cb5780635c60da1b1461064d5780635cc797d8146106935780635f40a349146106b35761033d565b806350d2a276146105d1578063550d01a314610607578063558e4376146106375761033d565b806348cd4cb11161022257806348cd4cb11461055d5780634a5df50f146105735780634ab6b462146105935761033d565b80633659cfe61461051d5780634162169f1461053d5761033d565b8063248a9ca31161029f5780632da734bb116102795780632da734bb146104bd5780632f2ff15d146104dd57806336568abe146104fd5761033d565b8063248a9ca31461044a57806324d7806c1461047a57806325dea4b01461049a5761033d565b80631785f53c116102d05780631785f53c146103b457806322985246146103d4578063247e5545146104165761033d565b806301ffc9a71461034757806316b5d5bd1461037c5761033d565b3661033d5760405162461bcd60e51b815260206004820152601460248201527f63616e6e6f74207265636569766520457468657200000000000000000000000060448201526064015b60405180910390fd5b6103456109bc565b005b34801561035357600080fd5b50610367610362366004611cf8565b610a65565b60405190151581526020015b60405180910390f35b34801561038857600080fd5b50600b5461039c906001600160a01b031681565b6040516001600160a01b039091168152602001610373565b3480156103c057600080fd5b506103456103cf366004611d39565b610a9c565b3480156103e057600080fd5b506104087ffb5864e8ff833c3cb2d2d08505e82ff02a43554c74a35d4f5a64e8526127831181565b604051908152602001610373565b34801561042257600080fd5b506012546104379062010000900461ffff1681565b60405161ffff9091168152602001610373565b34801561045657600080fd5b50610408610465366004611d54565b60009081526020819052604090206001015490565b34801561048657600080fd5b50610367610495366004611d39565b610b17565b3480156104a657600080fd5b5060125461043790640100000000900461ffff1681565b3480156104c957600080fd5b506103456104d8366004611d7e565b610b57565b3480156104e957600080fd5b506103456104f8366004611e0d565b610ff0565b34801561050957600080fd5b50610345610518366004611e0d565b611015565b34801561052957600080fd5b50610345610538366004611d39565b6110a1565b34801561054957600080fd5b5060075461039c906001600160a01b031681565b34801561056957600080fd5b5061040860105481565b34801561057f57600080fd5b5061034561058e366004611e39565b6111fa565b34801561059f57600080fd5b506012546105bc9068010000000000000000900463ffffffff1681565b60405163ffffffff9091168152602001610373565b3480156105dd57600080fd5b5061039c6105ec366004611cf8565b6004602052600090815260409020546001600160a01b031681565b34801561061357600080fd5b50610367610622366004611d39565b60036020526000908152604090205460ff1681565b34801561064357600080fd5b5061040860115481565b34801561065957600080fd5b506000805260026020527fac33ff75c19e70fe83507db0d683fd3465c996598dc972688b7ace676c89077b546001600160a01b031661039c565b34801561069f57600080fd5b506103456106ae366004611ecd565b61149a565b3480156106bf57600080fd5b50610408600e5481565b3480156106d557600080fd5b5060095461039c906001600160a01b031681565b3480156106f557600080fd5b506001546103679060ff1681565b34801561070f57600080fd5b50600d5461039c906001600160a01b031681565b34801561072f57600080fd5b5061034561073e366004611d39565b6114f2565b34801561074f57600080fd5b5061034561075e366004611d39565b61156a565b34801561076f57600080fd5b506104087fdf8b4c520ffe197c5343c6f5aec59570151ef9a492f2c624fd45ddde6135ec4281565b3480156107a357600080fd5b506103456107b2366004611ef7565b6116ba565b3480156107c357600080fd5b506103456107d2366004611f12565b61171b565b3480156107e357600080fd5b5061039c6107f2366004611d54565b611774565b34801561080357600080fd5b50601254610437906601000000000000900461ffff1681565b34801561082857600080fd5b5061039c610837366004611cf8565b611791565b34801561084857600080fd5b5060065461039c906001600160a01b031681565b34801561086857600080fd5b50610367610877366004611e0d565b6000918252602082815260408084206001600160a01b0393909316845291905290205460ff1690565b3480156108ac57600080fd5b50600a5461039c906001600160a01b031681565b3480156108cc57600080fd5b50610408600081565b3480156108e157600080fd5b5061039c6108f0366004611d54565b6002602052600090815260409020546001600160a01b031681565b34801561091757600080fd5b5060055461039c906001600160a01b031681565b34801561093757600080fd5b50610345610946366004611e0d565b61188d565b34801561095757600080fd5b50600c5461039c906001600160a01b031681565b34801561097757600080fd5b506012546104379061ffff1681565b34801561099257600080fd5b50610408600f5481565b3480156109a857600080fd5b5060085461039c906001600160a01b031681565b60006109d36000356001600160e01b031916611791565b90506001600160a01b038116158015906109f0575060015460ff16155b610a3c5760405162461bcd60e51b815260206004820152601d60248201527f50726f78793a20696d706c204f522070726f78792069732066616c73650000006044820152606401610334565b3660008037600080366000845af43d6000803e808015610a5b573d6000f35b3d6000fd5b505050565b60006001600160e01b03198216637965db0b60e01b1480610a9657506301ffc9a760e01b6001600160e01b03198316145b92915050565b610aa533610b17565b610aea5760405162461bcd60e51b8152602060048201526022602482015260008051602061210083398151915260448201526134b760f11b6064820152608401610334565b610b147fdf8b4c520ffe197c5343c6f5aec59570151ef9a492f2c624fd45ddde6135ec4282611015565b50565b6001600160a01b03811660009081527f5cbfc8ee58ca47855df7bcf648dd304ddb6b932f9b87878bdf6318d7ec7ee5b7602052604081205460ff16610a96565b610b6033610b17565b610ba55760405162461bcd60e51b8152602060048201526022602482015260008051602061210083398151915260448201526134b760f11b6064820152608401610334565b6001600160a01b03871615801590610bc557506001600160a01b03861615155b8015610bd957506001600160a01b03851615155b8015610bfb57506000610bef6020860186611d39565b6001600160a01b031614155b8015610c2057506000610c146040860160208701611d39565b6001600160a01b031614155b8015610c4557506000610c396060860160408701611d39565b6001600160a01b031614155b8015610c6a57506000610c5e6080860160608701611d39565b6001600160a01b031614155b8015610c7557508215155b610ca65760405162461bcd60e51b8152602060048201526002602482015261503160f01b6044820152606401610334565b6005546001600160a01b031615610cff5760405162461bcd60e51b815260206004820152601260248201527f616c726561647920696e697469616c697a6500000000000000000000000000006044820152606401610334565b610d0f6080820160608301611f5b565b61ffff16600003610d625760405162461bcd60e51b815260206004820152601060248201527f77726f6e67207261746573556e697473000000000000000000000000000000006044820152606401610334565b610d726080820160608301611f5b565b61ffff16610d866060830160408401611f5b565b610d966040840160208501611f5b565b610da36020850185611f5b565b610dad9190611f95565b610db79190611f95565b61ffff1614610e085760405162461bcd60e51b815260206004820152601560248201527f73756d206f6620726174696f2069732077726f6e6700000000000000000000006044820152606401610334565b610e186080820160608301611f5b565b6012805461ffff9290921666010000000000000267ffff00000000000019909216919091179055610e4c6020820182611f5b565b6012805461ffff191661ffff92909216919091179055610e726040820160208301611f5b565b6012805461ffff92909216620100000263ffff000019909216919091179055610ea16060820160408301611f5b565b6012805461ffff929092166401000000000265ffff0000000019909216919091179055610ed16020850185611d39565b600980546001600160a01b03199081166001600160a01b03938416179091556005805482168a8416179055600680548216898416179055600a8054909116918716919091179055610f286040850160208601611d39565b600b80546001600160a01b0319166001600160a01b0392909216919091179055610f586060850160408601611d39565b600c80546001600160a01b0319166001600160a01b0392909216919091179055610f886080850160608601611d39565b600d80546001600160a01b0319166001600160a01b039290921691909117905550600e91909155601280546bffffffff000000000000000019166801000000000000000063ffffffff909316929092029190911790555050670de0b6b3a76400006011555050565b60008281526020819052604090206001015461100b816118b2565b610a6083836118bc565b6001600160a01b03811633146110935760405162461bcd60e51b815260206004820152602f60248201527f416363657373436f6e74726f6c3a2063616e206f6e6c792072656e6f756e636560448201527f20726f6c657320666f722073656c6600000000000000000000000000000000006064820152608401610334565b61109d828261195a565b5050565b6110aa33610b17565b6110ef5760405162461bcd60e51b8152602060048201526022602482015260008051602061210083398151915260448201526134b760f11b6064820152608401610334565b6001600160a01b0381166111455760405162461bcd60e51b815260206004820152600d60248201527f696e707574206973207a65726f000000000000000000000000000000000000006044820152606401610334565b6000805260026020527fac33ff75c19e70fe83507db0d683fd3465c996598dc972688b7ace676c89077b546001600160a01b038281169116036111b65760405162461bcd60e51b815260206004820152600960248201526839b0b6b29030b2323960b91b6044820152606401610334565b6111c381600060016119d9565b6040516001600160a01b038216907fbc7cd75a20ee27fd9adebab32041f755214dbc6bffa90cc0225b39da2e5c2d3b90600090a250565b61120333610b17565b6112485760405162461bcd60e51b8152602060048201526022602482015260008051602061210083398151915260448201526134b760f11b6064820152608401610334565b816112955760405162461bcd60e51b815260206004820181905260248201527f50726f78793a205f73656c6563746f727327732073697a65206973207a65726f6044820152606401610334565b6001600160a01b03811660009081526003602052604090205460ff166112fd5760405162461bcd60e51b815260206004820152601860248201527f50726f78793a205f696d70206973206e6f7420616c69766500000000000000006044820152606401610334565b60005b8281101561149457816001600160a01b03166004600086868581811061132857611328611f45565b905060200201602081019061133d9190611cf8565b6001600160e01b03191681526020810191909152604001600020546001600160a01b0316036113ae5760405162461bcd60e51b815260206004820152601d60248201527f4c69717569646974795661756c7450726f78793a2073616d6520696d700000006044820152606401610334565b81600460008686858181106113c5576113c5611f45565b90506020020160208101906113da9190611cf8565b6001600160e01b0319168152602081019190915260400160002080546001600160a01b0319166001600160a01b03928316179055821684848381811061142257611422611f45565b90506020020160208101906114379190611cf8565b7bffffffffffffffffffffffffffffffffffffffffffffffffffffffff19167f14ebc1c32aa68f4d766e89f3e546cee249f7df25183fc10ab1568d91c2ce9b7b60405160405180910390a38061148c81611fb7565b915050611300565b50505050565b6114a333610b17565b6114e85760405162461bcd60e51b8152602060048201526022602482015260008051602061210083398151915260448201526134b760f11b6064820152608401610334565b61109d8282611a64565b6114fb33610b17565b6115405760405162461bcd60e51b8152602060048201526022602482015260008051602061210083398151915260448201526134b760f11b6064820152608401610334565b610b147fdf8b4c520ffe197c5343c6f5aec59570151ef9a492f2c624fd45ddde6135ec4282610ff0565b61157333610b17565b6115b85760405162461bcd60e51b8152602060048201526022602482015260008051602061210083398151915260448201526134b760f11b6064820152608401610334565b6001600160a01b03811661160e5760405162461bcd60e51b815260206004820152601860248201527f41636365737369626c653a207a65726f206164647265737300000000000000006044820152606401610334565b6001600160a01b03811633036116665760405162461bcd60e51b815260206004820152601660248201527f41636365737369626c653a2073616d652061646d696e000000000000000000006044820152606401610334565b6116907fdf8b4c520ffe197c5343c6f5aec59570151ef9a492f2c624fd45ddde6135ec4282610ff0565b610b147fdf8b4c520ffe197c5343c6f5aec59570151ef9a492f2c624fd45ddde6135ec4233611015565b6116c333610b17565b6117085760405162461bcd60e51b8152602060048201526022602482015260008051602061210083398151915260448201526134b760f11b6064820152608401610334565b6001805460ff1916911515919091179055565b61172433610b17565b6117695760405162461bcd60e51b8152602060048201526022602482015260008051602061210083398151915260448201526134b760f11b6064820152608401610334565b610a608383836119d9565b6000818152600260205260408120546001600160a01b0316610a96565b6001600160e01b031981166000908152600460205260408120546001600160a01b03166117f15750506000805260026020527fac33ff75c19e70fe83507db0d683fd3465c996598dc972688b7ace676c89077b546001600160a01b031690565b6001600160e01b031982166000908152600460209081526040808320546001600160a01b03168352600390915290205460ff161561184f57506001600160e01b0319166000908152600460205260409020546001600160a01b031690565b50506000805260026020527fac33ff75c19e70fe83507db0d683fd3465c996598dc972688b7ace676c89077b546001600160a01b031690565b919050565b6000828152602081905260409020600101546118a8816118b2565b610a60838361195a565b610b148133611ac3565b6000828152602081815260408083206001600160a01b038516845290915290205460ff1661109d576000828152602081815260408083206001600160a01b03851684529091529020805460ff191660011790556119163390565b6001600160a01b0316816001600160a01b0316837f2f8788117e7eff1d82e926ec794901d17c78024a50270940304540a733656f0d60405160405180910390a45050565b6000828152602081815260408083206001600160a01b038516845290915290205460ff161561109d576000828152602081815260408083206001600160a01b0385168085529252808320805460ff1916905551339285917ff6391f5c32d9c69d2a47ea670b442974b53935d1edc7fd64eb21e047a839171b9190a45050565b6001600160a01b0383163b611a305760405162461bcd60e51b815260206004820152601b60248201527f50726f78793a206e6f7420636f6e7472616374206164647265737300000000006044820152606401610334565b8015611a5e57600082815260026020526040902080546001600160a01b0319166001600160a01b0385161790555b610a6083825b6001600160a01b038216600081815260036020908152604091829020805460ff191685151590811790915591519182527f72558d9bfba4210f9ef095c782589484151f6d90f7a81bb3cb9b33efc695d324910160405180910390a25050565b6000828152602081815260408083206001600160a01b038516845290915290205460ff1661109d57611af481611b36565b611aff836020611b48565b604051602001611b10929190611ff4565b60408051601f198184030181529082905262461bcd60e51b825261033491600401612075565b6060610a966001600160a01b03831660145b60606000611b578360026120a8565b611b629060026120bf565b67ffffffffffffffff811115611b7a57611b7a6120d2565b6040519080825280601f01601f191660200182016040528015611ba4576020820181803683370190505b509050600360fc1b81600081518110611bbf57611bbf611f45565b60200101906001600160f81b031916908160001a905350600f60fb1b81600181518110611bee57611bee611f45565b60200101906001600160f81b031916908160001a9053506000611c128460026120a8565b611c1d9060016120bf565b90505b6001811115611ca2577f303132333435363738396162636465660000000000000000000000000000000085600f1660108110611c5e57611c5e611f45565b1a60f81b828281518110611c7457611c74611f45565b60200101906001600160f81b031916908160001a90535060049490941c93611c9b816120e8565b9050611c20565b508315611cf15760405162461bcd60e51b815260206004820181905260248201527f537472696e67733a20686578206c656e67746820696e73756666696369656e746044820152606401610334565b9392505050565b600060208284031215611d0a57600080fd5b81356001600160e01b031981168114611cf157600080fd5b80356001600160a01b038116811461188857600080fd5b600060208284031215611d4b57600080fd5b611cf182611d22565b600060208284031215611d6657600080fd5b5035919050565b8060808101831015610a9657600080fd5b60008060008060008060006101a0888a031215611d9a57600080fd5b611da388611d22565b9650611db160208901611d22565b9550611dbf60408901611d22565b9450611dce8960608a01611d6d565b935060e0880135925061010088013563ffffffff81168114611def57600080fd5b9150611dff896101208a01611d6d565b905092959891949750929550565b60008060408385031215611e2057600080fd5b82359150611e3060208401611d22565b90509250929050565b600080600060408486031215611e4e57600080fd5b833567ffffffffffffffff80821115611e6657600080fd5b818601915086601f830112611e7a57600080fd5b813581811115611e8957600080fd5b8760208260051b8501011115611e9e57600080fd5b602092830195509350611eb49186019050611d22565b90509250925092565b8035801515811461188857600080fd5b60008060408385031215611ee057600080fd5b611ee983611d22565b9150611e3060208401611ebd565b600060208284031215611f0957600080fd5b611cf182611ebd565b600080600060608486031215611f2757600080fd5b611f3084611d22565b925060208401359150611eb460408501611ebd565b634e487b7160e01b600052603260045260246000fd5b600060208284031215611f6d57600080fd5b813561ffff81168114611cf157600080fd5b634e487b7160e01b600052601160045260246000fd5b61ffff818116838216019080821115611fb057611fb0611f7f565b5092915050565b600060018201611fc957611fc9611f7f565b5060010190565b60005b83811015611feb578181015183820152602001611fd3565b50506000910152565b7f416363657373436f6e74726f6c3a206163636f756e742000000000000000000081526000835161202c816017850160208801611fd0565b7f206973206d697373696e6720726f6c65200000000000000000000000000000006017918401918201528351612069816028840160208801611fd0565b01602801949350505050565b6020815260008251806020840152612094816040850160208701611fd0565b601f01601f19169190910160400192915050565b8082028115828204841417610a9657610a96611f7f565b80820180821115610a9657610a96611f7f565b634e487b7160e01b600052604160045260246000fd5b6000816120f7576120f7611f7f565b50600019019056fe41636365737369626c653a2043616c6c6572206973206e6f7420616e2061646da164736f6c6343000812000adf8b4c520ffe197c5343c6f5aec59570151ef9a492f2c624fd45ddde6135ec42",
  "linkReferences": {},
  "deployedLinkReferences": {}
}