{
  "_format": "hh-sol-artifact-1",
  "contractName": "SeigManagerV2Proxy",
  "sourceName": "contracts/proxy/SeigManagerV2Proxy.sol",
  "abi": [
    {
      "anonymous": false,
      "inputs": [
        {
          "indexed": true,
          "internalType": "bytes32",
          "name": "role",
          "type": "bytes32"
        },
        {
          "indexed": true,
          "internalType": "bytes32",
          "name": "previousAdminRole",
          "type": "bytes32"
        },
        {
          "indexed": true,
          "internalType": "bytes32",
          "name": "newAdminRole",
          "type": "bytes32"
        }
      ],
      "name": "RoleAdminChanged",
      "type": "event"
    },
    {
      "anonymous": false,
      "inputs": [
        {
          "indexed": true,
          "internalType": "bytes32",
          "name": "role",
          "type": "bytes32"
        },
        {
          "indexed": true,
          "internalType": "address",
          "name": "account",
          "type": "address"
        },
        {
          "indexed": true,
          "internalType": "address",
          "name": "sender",
          "type": "address"
        }
      ],
      "name": "RoleGranted",
      "type": "event"
    },
    {
      "anonymous": false,
      "inputs": [
        {
          "indexed": true,
          "internalType": "bytes32",
          "name": "role",
          "type": "bytes32"
        },
        {
          "indexed": true,
          "internalType": "address",
          "name": "account",
          "type": "address"
        },
        {
          "indexed": true,
          "internalType": "address",
          "name": "sender",
          "type": "address"
        }
      ],
      "name": "RoleRevoked",
      "type": "event"
    },
    {
      "anonymous": false,
      "inputs": [
        {
          "indexed": true,
          "internalType": "address",
          "name": "impl",
          "type": "address"
        },
        {
          "indexed": false,
          "internalType": "bool",
          "name": "alive",
          "type": "bool"
        }
      ],
      "name": "SetAliveImplementation",
      "type": "event"
    },
    {
      "anonymous": false,
      "inputs": [
        {
          "indexed": true,
          "internalType": "bytes4",
          "name": "selector",
          "type": "bytes4"
        },
        {
          "indexed": true,
          "internalType": "address",
          "name": "impl",
          "type": "address"
        }
      ],
      "name": "SetSelectorImplementation",
      "type": "event"
    },
    {
      "anonymous": false,
      "inputs": [
        {
          "indexed": false,
          "internalType": "uint256",
          "name": "id",
          "type": "uint256"
        }
      ],
      "name": "Snapshot",
      "type": "event"
    },
    {
      "anonymous": false,
      "inputs": [
        {
          "indexed": true,
          "internalType": "address",
          "name": "implementation",
          "type": "address"
        }
      ],
      "name": "Upgraded",
      "type": "event"
    },
    {
      "stateMutability": "payable",
      "type": "fallback"
    },
    {
      "inputs": [],
      "name": "ADMIN_ROLE",
      "outputs": [
        {
          "internalType": "bytes32",
          "name": "",
          "type": "bytes32"
        }
      ],
      "stateMutability": "view",
      "type": "function"
    },
    {
      "inputs": [],
      "name": "DEFAULT_ADMIN_ROLE",
      "outputs": [
        {
          "internalType": "bytes32",
          "name": "",
          "type": "bytes32"
        }
      ],
      "stateMutability": "view",
      "type": "function"
    },
    {
      "inputs": [],
      "name": "POLICY_ROLE",
      "outputs": [
        {
          "internalType": "bytes32",
          "name": "",
          "type": "bytes32"
        }
      ],
      "stateMutability": "view",
      "type": "function"
    },
    {
      "inputs": [
        {
          "internalType": "address",
          "name": "account",
          "type": "address"
        }
      ],
      "name": "addAdmin",
      "outputs": [],
      "stateMutability": "nonpayable",
      "type": "function"
    },
    {
      "inputs": [
        {
          "internalType": "address",
          "name": "",
          "type": "address"
        }
      ],
      "name": "aliveImplementation",
      "outputs": [
        {
          "internalType": "bool",
          "name": "",
          "type": "bool"
        }
      ],
      "stateMutability": "view",
      "type": "function"
    },
    {
      "inputs": [],
      "name": "candidate",
      "outputs": [
        {
          "internalType": "address",
          "name": "",
          "type": "address"
        }
      ],
      "stateMutability": "view",
      "type": "function"
    },
    {
      "inputs": [],
      "name": "dao",
      "outputs": [
        {
          "internalType": "address",
          "name": "",
          "type": "address"
        }
      ],
      "stateMutability": "view",
      "type": "function"
    },
    {
      "inputs": [
        {
          "internalType": "bytes32",
          "name": "role",
          "type": "bytes32"
        }
      ],
      "name": "getRoleAdmin",
      "outputs": [
        {
          "internalType": "bytes32",
          "name": "",
          "type": "bytes32"
        }
      ],
      "stateMutability": "view",
      "type": "function"
    },
    {
      "inputs": [
        {
          "internalType": "bytes4",
          "name": "_selector",
          "type": "bytes4"
        }
      ],
      "name": "getSelectorImplementation2",
      "outputs": [
        {
          "internalType": "address",
          "name": "impl",
          "type": "address"
        }
      ],
      "stateMutability": "view",
      "type": "function"
    },
    {
      "inputs": [
        {
          "internalType": "bytes32",
          "name": "role",
          "type": "bytes32"
        },
        {
          "internalType": "address",
          "name": "account",
          "type": "address"
        }
      ],
      "name": "grantRole",
      "outputs": [],
      "stateMutability": "nonpayable",
      "type": "function"
    },
    {
      "inputs": [
        {
          "internalType": "bytes32",
          "name": "role",
          "type": "bytes32"
        },
        {
          "internalType": "address",
          "name": "account",
          "type": "address"
        }
      ],
      "name": "hasRole",
      "outputs": [
        {
          "internalType": "bool",
          "name": "",
          "type": "bool"
        }
      ],
      "stateMutability": "view",
      "type": "function"
    },
    {
      "inputs": [],
      "name": "implementation",
      "outputs": [
        {
          "internalType": "address",
          "name": "",
          "type": "address"
        }
      ],
      "stateMutability": "view",
      "type": "function"
    },
    {
      "inputs": [
        {
          "internalType": "uint256",
          "name": "_index",
          "type": "uint256"
        }
      ],
      "name": "implementation2",
      "outputs": [
        {
          "internalType": "address",
          "name": "",
          "type": "address"
        }
      ],
      "stateMutability": "view",
      "type": "function"
    },
    {
      "inputs": [
        {
          "internalType": "address",
          "name": "_ton",
          "type": "address"
        },
        {
          "internalType": "address",
          "name": "_wton",
          "type": "address"
        },
        {
          "internalType": "address",
          "name": "_tot",
          "type": "address"
        },
        {
          "internalType": "address[4]",
          "name": "addr",
          "type": "address[4]"
        },
        {
          "internalType": "uint256",
          "name": "_seigPerBlock",
          "type": "uint256"
        },
        {
          "internalType": "uint32",
          "name": "_minimumBlocksForUpdateSeig",
          "type": "uint32"
        },
        {
          "internalType": "uint16[4]",
          "name": "_rates",
          "type": "uint16[4]"
        }
      ],
      "name": "initialize",
      "outputs": [],
      "stateMutability": "nonpayable",
      "type": "function"
    },
    {
      "inputs": [
        {
          "internalType": "address",
          "name": "account",
          "type": "address"
        }
      ],
      "name": "isAdmin",
      "outputs": [
        {
          "internalType": "bool",
          "name": "",
          "type": "bool"
        }
      ],
      "stateMutability": "view",
      "type": "function"
    },
    {
      "inputs": [],
      "name": "lastSeigBlock",
      "outputs": [
        {
          "internalType": "uint256",
          "name": "",
          "type": "uint256"
        }
      ],
      "stateMutability": "view",
      "type": "function"
    },
    {
      "inputs": [],
      "name": "layer2Manager",
      "outputs": [
        {
          "internalType": "address",
          "name": "",
          "type": "address"
        }
      ],
      "stateMutability": "view",
      "type": "function"
    },
    {
      "inputs": [],
      "name": "minimumBlocksForUpdateSeig",
      "outputs": [
        {
          "internalType": "uint32",
          "name": "",
          "type": "uint32"
        }
      ],
      "stateMutability": "view",
      "type": "function"
    },
    {
      "inputs": [],
      "name": "optimismL2Operator",
      "outputs": [
        {
          "internalType": "address",
          "name": "",
          "type": "address"
        }
      ],
      "stateMutability": "view",
      "type": "function"
    },
    {
      "inputs": [],
      "name": "pauseProxy",
      "outputs": [
        {
          "internalType": "bool",
          "name": "",
          "type": "bool"
        }
      ],
      "stateMutability": "view",
      "type": "function"
    },
    {
      "inputs": [
        {
          "internalType": "uint256",
          "name": "",
          "type": "uint256"
        }
      ],
      "name": "proxyImplementation",
      "outputs": [
        {
          "internalType": "address",
          "name": "",
          "type": "address"
        }
      ],
      "stateMutability": "view",
      "type": "function"
    },
    {
      "inputs": [],
      "name": "ratesDao",
      "outputs": [
        {
          "internalType": "uint16",
          "name": "",
          "type": "uint16"
        }
      ],
      "stateMutability": "view",
      "type": "function"
    },
    {
      "inputs": [],
      "name": "ratesStosHolders",
      "outputs": [
        {
          "internalType": "uint16",
          "name": "",
          "type": "uint16"
        }
      ],
      "stateMutability": "view",
      "type": "function"
    },
    {
      "inputs": [],
      "name": "ratesTonStakers",
      "outputs": [
        {
          "internalType": "uint16",
          "name": "",
          "type": "uint16"
        }
      ],
      "stateMutability": "view",
      "type": "function"
    },
    {
      "inputs": [],
      "name": "ratesUnits",
      "outputs": [
        {
          "internalType": "uint16",
          "name": "",
          "type": "uint16"
        }
      ],
      "stateMutability": "view",
      "type": "function"
    },
    {
      "inputs": [
        {
          "internalType": "address",
          "name": "account",
          "type": "address"
        }
      ],
      "name": "removeAdmin",
      "outputs": [],
      "stateMutability": "nonpayable",
      "type": "function"
    },
    {
      "inputs": [
        {
          "internalType": "bytes32",
          "name": "role",
          "type": "bytes32"
        },
        {
          "internalType": "address",
          "name": "account",
          "type": "address"
        }
      ],
      "name": "renounceRole",
      "outputs": [],
      "stateMutability": "nonpayable",
      "type": "function"
    },
    {
      "inputs": [
        {
          "internalType": "bytes32",
          "name": "role",
          "type": "bytes32"
        },
        {
          "internalType": "address",
          "name": "account",
          "type": "address"
        }
      ],
      "name": "revokeRole",
      "outputs": [],
      "stateMutability": "nonpayable",
      "type": "function"
    },
    {
      "inputs": [],
      "name": "seigManagerV1",
      "outputs": [
        {
          "internalType": "address",
          "name": "",
          "type": "address"
        }
      ],
      "stateMutability": "view",
      "type": "function"
    },
    {
      "inputs": [],
      "name": "seigPerBlock",
      "outputs": [
        {
          "internalType": "uint256",
          "name": "",
          "type": "uint256"
        }
      ],
      "stateMutability": "view",
      "type": "function"
    },
    {
      "inputs": [
        {
          "internalType": "bytes4",
          "name": "",
          "type": "bytes4"
        }
      ],
      "name": "selectorImplementation",
      "outputs": [
        {
          "internalType": "address",
          "name": "",
          "type": "address"
        }
      ],
      "stateMutability": "view",
      "type": "function"
    },
    {
      "inputs": [
        {
          "internalType": "address",
          "name": "newImplementation",
          "type": "address"
        },
        {
          "internalType": "bool",
          "name": "_alive",
          "type": "bool"
        }
      ],
      "name": "setAliveImplementation2",
      "outputs": [],
      "stateMutability": "nonpayable",
      "type": "function"
    },
    {
      "inputs": [
        {
          "internalType": "address",
          "name": "newImplementation",
          "type": "address"
        },
        {
          "internalType": "uint256",
          "name": "_index",
          "type": "uint256"
        },
        {
          "internalType": "bool",
          "name": "_alive",
          "type": "bool"
        }
      ],
      "name": "setImplementation2",
      "outputs": [],
      "stateMutability": "nonpayable",
      "type": "function"
    },
    {
      "inputs": [
        {
          "internalType": "bool",
          "name": "_pause",
          "type": "bool"
        }
      ],
      "name": "setProxyPause",
      "outputs": [],
      "stateMutability": "nonpayable",
      "type": "function"
    },
    {
      "inputs": [
        {
          "internalType": "bytes4[]",
          "name": "_selectors",
          "type": "bytes4[]"
        },
        {
          "internalType": "address",
          "name": "_imp",
          "type": "address"
        }
      ],
      "name": "setSelectorImplementations2",
      "outputs": [],
      "stateMutability": "nonpayable",
      "type": "function"
    },
    {
      "inputs": [
        {
          "internalType": "uint256",
          "name": "",
          "type": "uint256"
        }
      ],
      "name": "snapshotTime",
      "outputs": [
        {
          "internalType": "uint32",
          "name": "",
          "type": "uint32"
        }
      ],
      "stateMutability": "view",
      "type": "function"
    },
    {
      "inputs": [],
      "name": "startBlock",
      "outputs": [
        {
          "internalType": "uint256",
          "name": "",
          "type": "uint256"
        }
      ],
      "stateMutability": "view",
      "type": "function"
    },
    {
      "inputs": [],
      "name": "stosDistribute",
      "outputs": [
        {
          "internalType": "address",
          "name": "",
          "type": "address"
        }
      ],
      "stateMutability": "view",
      "type": "function"
    },
    {
      "inputs": [
        {
          "internalType": "bytes4",
          "name": "interfaceId",
          "type": "bytes4"
        }
      ],
      "name": "supportsInterface",
      "outputs": [
        {
          "internalType": "bool",
          "name": "",
          "type": "bool"
        }
      ],
      "stateMutability": "view",
      "type": "function"
    },
    {
      "inputs": [],
      "name": "ton",
      "outputs": [
        {
          "internalType": "contract IERC20",
          "name": "",
          "type": "address"
        }
      ],
      "stateMutability": "view",
      "type": "function"
    },
    {
      "inputs": [],
      "name": "tot",
      "outputs": [
        {
          "internalType": "address",
          "name": "",
          "type": "address"
        }
      ],
      "stateMutability": "view",
      "type": "function"
    },
    {
      "inputs": [
        {
          "internalType": "address",
          "name": "newAdmin",
          "type": "address"
        }
      ],
      "name": "transferAdmin",
      "outputs": [],
      "stateMutability": "nonpayable",
      "type": "function"
    },
    {
      "inputs": [
        {
          "internalType": "address",
          "name": "impl",
          "type": "address"
        }
      ],
      "name": "upgradeTo",
      "outputs": [],
      "stateMutability": "nonpayable",
      "type": "function"
    },
    {
      "inputs": [],
      "name": "wton",
      "outputs": [
        {
          "internalType": "address",
          "name": "",
          "type": "address"
        }
      ],
      "stateMutability": "view",
      "type": "function"
    },
    {
      "stateMutability": "payable",
      "type": "receive"
    }
  ],
  "bytecode": "0x60806040526011805460ff60601b19166c010000000000000000000000001790553480156200002d57600080fd5b5062000049600080516020620022f28339815191528062000077565b62000064600080516020620022f283398151915233620000c2565b62000071600033620000c2565b62000172565b600082815260208190526040808220600101805490849055905190918391839186917fbd79b86ffe0ab8e8776151514217cd7cacd52c909f66475c3af44e129f0b00ff9190a4505050565b620000ce8282620000d2565b5050565b6000828152602081815260408083206001600160a01b038516845290915290205460ff16620000ce576000828152602081815260408083206001600160a01b03851684529091529020805460ff191660011790556200012e3390565b6001600160a01b0316816001600160a01b0316837f2f8788117e7eff1d82e926ec794901d17c78024a50270940304540a733656f0d60405160405180910390a45050565b61217080620001826000396000f3fe6080604052600436106102eb5760003560e01c806363a3a2f5116101845780638d62d949116100d6578063cc48b9471161008a578063f1ae4e9f11610064578063f1ae4e9f14610975578063f35c89e814610990578063fb7d324d146109a65761033d565b8063cc48b94714610915578063d547741f14610935578063ec558b16146109555761033d565b8063a16d6aa7116100bb578063a16d6aa7146108aa578063a217fddf146108ca578063b911135f146108df5761033d565b80638d62d9491461084657806391d14854146108665761033d565b806375b238fc116101385780638b8f4a65116101125780638b8f4a65146107e15780638b95087b146108015780638d4fdb40146108265761033d565b806375b238fc1461076d5780637cb00d25146107a15780637cd5f663146107c15761033d565b80636c8381f8116101695780636c8381f81461070d578063704802751461072d57806375829def1461074d5761033d565b806363a3a2f5146106d357806363a8fd89146106f35761033d565b806336568abe1161023d5780634ab6b462116101f15780635c60da1b116101cb5780635c60da1b146106575780635cc797d81461069d5780635f40a349146106bd5761033d565b80634ab6b462146105c857806350d2a276146105f1578063550d01a3146106275761033d565b80634162169f116102225780634162169f1461057257806348cd4cb1146105925780634a5df50f146105a85761033d565b806336568abe146105325780633659cfe6146105525761033d565b8063247e55451161029f57806325dea4b01161027957806325dea4b0146104cf5780632da734bb146104f25780632f2ff15d146105125761033d565b8063247e55451461044b578063248a9ca31461047f57806324d7806c146104af5761033d565b80631785f53c116102d05780631785f53c146103b45780631dc0f9bb146103d457806322985246146104095761033d565b806301ffc9a71461034757806316b5d5bd1461037c5761033d565b3661033d5760405162461bcd60e51b815260206004820152601460248201527f63616e6e6f74207265636569766520457468657200000000000000000000000060448201526064015b60405180910390fd5b6103456109c6565b005b34801561035357600080fd5b50610367610362366004611d3c565b610a6f565b60405190151581526020015b60405180910390f35b34801561038857600080fd5b50600b5461039c906001600160a01b031681565b6040516001600160a01b039091168152602001610373565b3480156103c057600080fd5b506103456103cf366004611d7d565b610aa6565b3480156103e057600080fd5b506103f46103ef366004611d98565b610b21565b60405163ffffffff9091168152602001610373565b34801561041557600080fd5b5061043d7ffb5864e8ff833c3cb2d2d08505e82ff02a43554c74a35d4f5a64e8526127831181565b604051908152602001610373565b34801561045757600080fd5b5060115461046c9062010000900461ffff1681565b60405161ffff9091168152602001610373565b34801561048b57600080fd5b5061043d61049a366004611d98565b60009081526020819052604090206001015490565b3480156104bb57600080fd5b506103676104ca366004611d7d565b610b5b565b3480156104db57600080fd5b5060115461046c90640100000000900461ffff1681565b3480156104fe57600080fd5b5061034561050d366004611dc2565b610b9b565b34801561051e57600080fd5b5061034561052d366004611e51565b611034565b34801561053e57600080fd5b5061034561054d366004611e51565b611059565b34801561055e57600080fd5b5061034561056d366004611d7d565b6110e5565b34801561057e57600080fd5b5060075461039c906001600160a01b031681565b34801561059e57600080fd5b5061043d60105481565b3480156105b457600080fd5b506103456105c3366004611e7d565b61123e565b3480156105d457600080fd5b506011546103f49068010000000000000000900463ffffffff1681565b3480156105fd57600080fd5b5061039c61060c366004611d3c565b6004602052600090815260409020546001600160a01b031681565b34801561063357600080fd5b50610367610642366004611d7d565b60036020526000908152604090205460ff1681565b34801561066357600080fd5b506000805260026020527fac33ff75c19e70fe83507db0d683fd3465c996598dc972688b7ace676c89077b546001600160a01b031661039c565b3480156106a957600080fd5b506103456106b8366004611f11565b6114de565b3480156106c957600080fd5b5061043d600e5481565b3480156106df57600080fd5b5060095461039c906001600160a01b031681565b3480156106ff57600080fd5b506001546103679060ff1681565b34801561071957600080fd5b50600d5461039c906001600160a01b031681565b34801561073957600080fd5b50610345610748366004611d7d565b611536565b34801561075957600080fd5b50610345610768366004611d7d565b6115ae565b34801561077957600080fd5b5061043d7fdf8b4c520ffe197c5343c6f5aec59570151ef9a492f2c624fd45ddde6135ec4281565b3480156107ad57600080fd5b506103456107bc366004611f3b565b6116fe565b3480156107cd57600080fd5b506103456107dc366004611f56565b61175f565b3480156107ed57600080fd5b5061039c6107fc366004611d98565b6117b8565b34801561080d57600080fd5b5060115461046c906601000000000000900461ffff1681565b34801561083257600080fd5b5061039c610841366004611d3c565b6117d5565b34801561085257600080fd5b5060065461039c906001600160a01b031681565b34801561087257600080fd5b50610367610881366004611e51565b6000918252602082815260408084206001600160a01b0393909316845291905290205460ff1690565b3480156108b657600080fd5b50600a5461039c906001600160a01b031681565b3480156108d657600080fd5b5061043d600081565b3480156108eb57600080fd5b5061039c6108fa366004611d98565b6002602052600090815260409020546001600160a01b031681565b34801561092157600080fd5b5060055461039c906001600160a01b031681565b34801561094157600080fd5b50610345610950366004611e51565b6118d1565b34801561096157600080fd5b50600c5461039c906001600160a01b031681565b34801561098157600080fd5b5060115461046c9061ffff1681565b34801561099c57600080fd5b5061043d600f5481565b3480156109b257600080fd5b5060085461039c906001600160a01b031681565b60006109dd6000356001600160e01b0319166117d5565b90506001600160a01b038116158015906109fa575060015460ff16155b610a465760405162461bcd60e51b815260206004820152601d60248201527f50726f78793a20696d706c204f522070726f78792069732066616c73650000006044820152606401610334565b3660008037600080366000845af43d6000803e808015610a65573d6000f35b3d6000fd5b505050565b60006001600160e01b03198216637965db0b60e01b1480610aa057506301ffc9a760e01b6001600160e01b03198316145b92915050565b610aaf33610b5b565b610af45760405162461bcd60e51b8152602060048201526022602482015260008051602061214483398151915260448201526134b760f11b6064820152608401610334565b610b1e7fdf8b4c520ffe197c5343c6f5aec59570151ef9a492f2c624fd45ddde6135ec4282611059565b50565b60168181548110610b3157600080fd5b9060005260206000209060089182820401919006600402915054906101000a900463ffffffff1681565b6001600160a01b03811660009081527f5cbfc8ee58ca47855df7bcf648dd304ddb6b932f9b87878bdf6318d7ec7ee5b7602052604081205460ff16610aa0565b610ba433610b5b565b610be95760405162461bcd60e51b8152602060048201526022602482015260008051602061214483398151915260448201526134b760f11b6064820152608401610334565b6001600160a01b03871615801590610c0957506001600160a01b03861615155b8015610c1d57506001600160a01b03851615155b8015610c3f57506000610c336020860186611d7d565b6001600160a01b031614155b8015610c6457506000610c586040860160208701611d7d565b6001600160a01b031614155b8015610c8957506000610c7d6060860160408701611d7d565b6001600160a01b031614155b8015610cae57506000610ca26080860160608701611d7d565b6001600160a01b031614155b8015610cb957508215155b610cea5760405162461bcd60e51b8152602060048201526002602482015261503160f01b6044820152606401610334565b6005546001600160a01b031615610d435760405162461bcd60e51b815260206004820152601260248201527f616c726561647920696e697469616c697a6500000000000000000000000000006044820152606401610334565b610d536080820160608301611f9f565b61ffff16600003610da65760405162461bcd60e51b815260206004820152601060248201527f77726f6e67207261746573556e697473000000000000000000000000000000006044820152606401610334565b610db66080820160608301611f9f565b61ffff16610dca6060830160408401611f9f565b610dda6040840160208501611f9f565b610de76020850185611f9f565b610df19190611fd9565b610dfb9190611fd9565b61ffff1614610e4c5760405162461bcd60e51b815260206004820152601560248201527f73756d206f6620726174696f2069732077726f6e6700000000000000000000006044820152606401610334565b610e5c6080820160608301611f9f565b6011805461ffff9290921666010000000000000267ffff00000000000019909216919091179055610e906020820182611f9f565b6011805461ffff191661ffff92909216919091179055610eb66040820160208301611f9f565b6011805461ffff92909216620100000263ffff000019909216919091179055610ee56060820160408301611f9f565b6011805461ffff929092166401000000000265ffff0000000019909216919091179055610f156020850185611d7d565b600980546001600160a01b03199081166001600160a01b03938416179091556005805482168a8416179055600680548216898416179055600a8054909116918716919091179055610f6c6040850160208601611d7d565b600b80546001600160a01b0319166001600160a01b0392909216919091179055610f9c6060850160408601611d7d565b600c80546001600160a01b0319166001600160a01b0392909216919091179055610fcc6080850160608601611d7d565b600d80546001600160a01b0319166001600160a01b039290921691909117905550600e91909155601180546bffffffff000000000000000019166801000000000000000063ffffffff909316929092029190911790555050670de0b6b3a76400006013555050565b60008281526020819052604090206001015461104f816118f6565b610a6a8383611900565b6001600160a01b03811633146110d75760405162461bcd60e51b815260206004820152602f60248201527f416363657373436f6e74726f6c3a2063616e206f6e6c792072656e6f756e636560448201527f20726f6c657320666f722073656c6600000000000000000000000000000000006064820152608401610334565b6110e1828261199e565b5050565b6110ee33610b5b565b6111335760405162461bcd60e51b8152602060048201526022602482015260008051602061214483398151915260448201526134b760f11b6064820152608401610334565b6001600160a01b0381166111895760405162461bcd60e51b815260206004820152600d60248201527f696e707574206973207a65726f000000000000000000000000000000000000006044820152606401610334565b6000805260026020527fac33ff75c19e70fe83507db0d683fd3465c996598dc972688b7ace676c89077b546001600160a01b038281169116036111fa5760405162461bcd60e51b815260206004820152600960248201526839b0b6b29030b2323960b91b6044820152606401610334565b6112078160006001611a1d565b6040516001600160a01b038216907fbc7cd75a20ee27fd9adebab32041f755214dbc6bffa90cc0225b39da2e5c2d3b90600090a250565b61124733610b5b565b61128c5760405162461bcd60e51b8152602060048201526022602482015260008051602061214483398151915260448201526134b760f11b6064820152608401610334565b816112d95760405162461bcd60e51b815260206004820181905260248201527f50726f78793a205f73656c6563746f727327732073697a65206973207a65726f6044820152606401610334565b6001600160a01b03811660009081526003602052604090205460ff166113415760405162461bcd60e51b815260206004820152601860248201527f50726f78793a205f696d70206973206e6f7420616c69766500000000000000006044820152606401610334565b60005b828110156114d857816001600160a01b03166004600086868581811061136c5761136c611f89565b90506020020160208101906113819190611d3c565b6001600160e01b03191681526020810191909152604001600020546001600160a01b0316036113f25760405162461bcd60e51b815260206004820152601d60248201527f4c69717569646974795661756c7450726f78793a2073616d6520696d700000006044820152606401610334565b816004600086868581811061140957611409611f89565b905060200201602081019061141e9190611d3c565b6001600160e01b0319168152602081019190915260400160002080546001600160a01b0319166001600160a01b03928316179055821684848381811061146657611466611f89565b905060200201602081019061147b9190611d3c565b7bffffffffffffffffffffffffffffffffffffffffffffffffffffffff19167f14ebc1c32aa68f4d766e89f3e546cee249f7df25183fc10ab1568d91c2ce9b7b60405160405180910390a3806114d081611ffb565b915050611344565b50505050565b6114e733610b5b565b61152c5760405162461bcd60e51b8152602060048201526022602482015260008051602061214483398151915260448201526134b760f11b6064820152608401610334565b6110e18282611aa8565b61153f33610b5b565b6115845760405162461bcd60e51b8152602060048201526022602482015260008051602061214483398151915260448201526134b760f11b6064820152608401610334565b610b1e7fdf8b4c520ffe197c5343c6f5aec59570151ef9a492f2c624fd45ddde6135ec4282611034565b6115b733610b5b565b6115fc5760405162461bcd60e51b8152602060048201526022602482015260008051602061214483398151915260448201526134b760f11b6064820152608401610334565b6001600160a01b0381166116525760405162461bcd60e51b815260206004820152601860248201527f41636365737369626c653a207a65726f206164647265737300000000000000006044820152606401610334565b6001600160a01b03811633036116aa5760405162461bcd60e51b815260206004820152601660248201527f41636365737369626c653a2073616d652061646d696e000000000000000000006044820152606401610334565b6116d47fdf8b4c520ffe197c5343c6f5aec59570151ef9a492f2c624fd45ddde6135ec4282611034565b610b1e7fdf8b4c520ffe197c5343c6f5aec59570151ef9a492f2c624fd45ddde6135ec4233611059565b61170733610b5b565b61174c5760405162461bcd60e51b8152602060048201526022602482015260008051602061214483398151915260448201526134b760f11b6064820152608401610334565b6001805460ff1916911515919091179055565b61176833610b5b565b6117ad5760405162461bcd60e51b8152602060048201526022602482015260008051602061214483398151915260448201526134b760f11b6064820152608401610334565b610a6a838383611a1d565b6000818152600260205260408120546001600160a01b0316610aa0565b6001600160e01b031981166000908152600460205260408120546001600160a01b03166118355750506000805260026020527fac33ff75c19e70fe83507db0d683fd3465c996598dc972688b7ace676c89077b546001600160a01b031690565b6001600160e01b031982166000908152600460209081526040808320546001600160a01b03168352600390915290205460ff161561189357506001600160e01b0319166000908152600460205260409020546001600160a01b031690565b50506000805260026020527fac33ff75c19e70fe83507db0d683fd3465c996598dc972688b7ace676c89077b546001600160a01b031690565b919050565b6000828152602081905260409020600101546118ec816118f6565b610a6a838361199e565b610b1e8133611b07565b6000828152602081815260408083206001600160a01b038516845290915290205460ff166110e1576000828152602081815260408083206001600160a01b03851684529091529020805460ff1916600117905561195a3390565b6001600160a01b0316816001600160a01b0316837f2f8788117e7eff1d82e926ec794901d17c78024a50270940304540a733656f0d60405160405180910390a45050565b6000828152602081815260408083206001600160a01b038516845290915290205460ff16156110e1576000828152602081815260408083206001600160a01b0385168085529252808320805460ff1916905551339285917ff6391f5c32d9c69d2a47ea670b442974b53935d1edc7fd64eb21e047a839171b9190a45050565b6001600160a01b0383163b611a745760405162461bcd60e51b815260206004820152601b60248201527f50726f78793a206e6f7420636f6e7472616374206164647265737300000000006044820152606401610334565b8015611aa257600082815260026020526040902080546001600160a01b0319166001600160a01b0385161790555b610a6a83825b6001600160a01b038216600081815260036020908152604091829020805460ff191685151590811790915591519182527f72558d9bfba4210f9ef095c782589484151f6d90f7a81bb3cb9b33efc695d324910160405180910390a25050565b6000828152602081815260408083206001600160a01b038516845290915290205460ff166110e157611b3881611b7a565b611b43836020611b8c565b604051602001611b54929190612038565b60408051601f198184030181529082905262461bcd60e51b8252610334916004016120b9565b6060610aa06001600160a01b03831660145b60606000611b9b8360026120ec565b611ba6906002612103565b67ffffffffffffffff811115611bbe57611bbe612116565b6040519080825280601f01601f191660200182016040528015611be8576020820181803683370190505b509050600360fc1b81600081518110611c0357611c03611f89565b60200101906001600160f81b031916908160001a905350600f60fb1b81600181518110611c3257611c32611f89565b60200101906001600160f81b031916908160001a9053506000611c568460026120ec565b611c61906001612103565b90505b6001811115611ce6577f303132333435363738396162636465660000000000000000000000000000000085600f1660108110611ca257611ca2611f89565b1a60f81b828281518110611cb857611cb8611f89565b60200101906001600160f81b031916908160001a90535060049490941c93611cdf8161212c565b9050611c64565b508315611d355760405162461bcd60e51b815260206004820181905260248201527f537472696e67733a20686578206c656e67746820696e73756666696369656e746044820152606401610334565b9392505050565b600060208284031215611d4e57600080fd5b81356001600160e01b031981168114611d3557600080fd5b80356001600160a01b03811681146118cc57600080fd5b600060208284031215611d8f57600080fd5b611d3582611d66565b600060208284031215611daa57600080fd5b5035919050565b8060808101831015610aa057600080fd5b60008060008060008060006101a0888a031215611dde57600080fd5b611de788611d66565b9650611df560208901611d66565b9550611e0360408901611d66565b9450611e128960608a01611db1565b935060e0880135925061010088013563ffffffff81168114611e3357600080fd5b9150611e43896101208a01611db1565b905092959891949750929550565b60008060408385031215611e6457600080fd5b82359150611e7460208401611d66565b90509250929050565b600080600060408486031215611e9257600080fd5b833567ffffffffffffffff80821115611eaa57600080fd5b818601915086601f830112611ebe57600080fd5b813581811115611ecd57600080fd5b8760208260051b8501011115611ee257600080fd5b602092830195509350611ef89186019050611d66565b90509250925092565b803580151581146118cc57600080fd5b60008060408385031215611f2457600080fd5b611f2d83611d66565b9150611e7460208401611f01565b600060208284031215611f4d57600080fd5b611d3582611f01565b600080600060608486031215611f6b57600080fd5b611f7484611d66565b925060208401359150611ef860408501611f01565b634e487b7160e01b600052603260045260246000fd5b600060208284031215611fb157600080fd5b813561ffff81168114611d3557600080fd5b634e487b7160e01b600052601160045260246000fd5b61ffff818116838216019080821115611ff457611ff4611fc3565b5092915050565b60006001820161200d5761200d611fc3565b5060010190565b60005b8381101561202f578181015183820152602001612017565b50506000910152565b7f416363657373436f6e74726f6c3a206163636f756e7420000000000000000000815260008351612070816017850160208801612014565b7f206973206d697373696e6720726f6c652000000000000000000000000000000060179184019182015283516120ad816028840160208801612014565b01602801949350505050565b60208152600082518060208401526120d8816040850160208701612014565b601f01601f19169190910160400192915050565b8082028115828204841417610aa057610aa0611fc3565b80820180821115610aa057610aa0611fc3565b634e487b7160e01b600052604160045260246000fd5b60008161213b5761213b611fc3565b50600019019056fe41636365737369626c653a2043616c6c6572206973206e6f7420616e2061646da164736f6c6343000812000adf8b4c520ffe197c5343c6f5aec59570151ef9a492f2c624fd45ddde6135ec42",
  "linkReferences": {},
  "deployedLinkReferences": {}
}