{
  "_format": "hh-sol-artifact-1",
  "contractName": "OptimismL2OperatorProxy",
  "sourceName": "contracts/proxy/OptimismL2OperatorProxy.sol",
  "abi": [
    {
      "anonymous": false,
      "inputs": [
        {
          "indexed": true,
          "internalType": "bytes32",
          "name": "role",
          "type": "bytes32"
        },
        {
          "indexed": true,
          "internalType": "bytes32",
          "name": "previousAdminRole",
          "type": "bytes32"
        },
        {
          "indexed": true,
          "internalType": "bytes32",
          "name": "newAdminRole",
          "type": "bytes32"
        }
      ],
      "name": "RoleAdminChanged",
      "type": "event"
    },
    {
      "anonymous": false,
      "inputs": [
        {
          "indexed": true,
          "internalType": "bytes32",
          "name": "role",
          "type": "bytes32"
        },
        {
          "indexed": true,
          "internalType": "address",
          "name": "account",
          "type": "address"
        },
        {
          "indexed": true,
          "internalType": "address",
          "name": "sender",
          "type": "address"
        }
      ],
      "name": "RoleGranted",
      "type": "event"
    },
    {
      "anonymous": false,
      "inputs": [
        {
          "indexed": true,
          "internalType": "bytes32",
          "name": "role",
          "type": "bytes32"
        },
        {
          "indexed": true,
          "internalType": "address",
          "name": "account",
          "type": "address"
        },
        {
          "indexed": true,
          "internalType": "address",
          "name": "sender",
          "type": "address"
        }
      ],
      "name": "RoleRevoked",
      "type": "event"
    },
    {
      "anonymous": false,
      "inputs": [
        {
          "indexed": true,
          "internalType": "address",
          "name": "impl",
          "type": "address"
        },
        {
          "indexed": false,
          "internalType": "bool",
          "name": "alive",
          "type": "bool"
        }
      ],
      "name": "SetAliveImplementation",
      "type": "event"
    },
    {
      "anonymous": false,
      "inputs": [
        {
          "indexed": true,
          "internalType": "bytes4",
          "name": "selector",
          "type": "bytes4"
        },
        {
          "indexed": true,
          "internalType": "address",
          "name": "impl",
          "type": "address"
        }
      ],
      "name": "SetSelectorImplementation",
      "type": "event"
    },
    {
      "anonymous": false,
      "inputs": [
        {
          "indexed": true,
          "internalType": "address",
          "name": "implementation",
          "type": "address"
        }
      ],
      "name": "Upgraded",
      "type": "event"
    },
    {
      "stateMutability": "payable",
      "type": "fallback"
    },
    {
      "inputs": [],
      "name": "ADMIN_ROLE",
      "outputs": [
        {
          "internalType": "bytes32",
          "name": "",
          "type": "bytes32"
        }
      ],
      "stateMutability": "view",
      "type": "function"
    },
    {
      "inputs": [],
      "name": "DEFAULT_ADMIN_ROLE",
      "outputs": [
        {
          "internalType": "bytes32",
          "name": "",
          "type": "bytes32"
        }
      ],
      "stateMutability": "view",
      "type": "function"
    },
    {
      "inputs": [],
      "name": "POLICY_ROLE",
      "outputs": [
        {
          "internalType": "bytes32",
          "name": "",
          "type": "bytes32"
        }
      ],
      "stateMutability": "view",
      "type": "function"
    },
    {
      "inputs": [
        {
          "internalType": "address",
          "name": "account",
          "type": "address"
        }
      ],
      "name": "addAdmin",
      "outputs": [],
      "stateMutability": "nonpayable",
      "type": "function"
    },
    {
      "inputs": [
        {
          "internalType": "address",
          "name": "",
          "type": "address"
        }
      ],
      "name": "aliveImplementation",
      "outputs": [
        {
          "internalType": "bool",
          "name": "",
          "type": "bool"
        }
      ],
      "stateMutability": "view",
      "type": "function"
    },
    {
      "inputs": [],
      "name": "fwReceipt",
      "outputs": [
        {
          "internalType": "address",
          "name": "",
          "type": "address"
        }
      ],
      "stateMutability": "view",
      "type": "function"
    },
    {
      "inputs": [
        {
          "internalType": "bytes32",
          "name": "role",
          "type": "bytes32"
        }
      ],
      "name": "getRoleAdmin",
      "outputs": [
        {
          "internalType": "bytes32",
          "name": "",
          "type": "bytes32"
        }
      ],
      "stateMutability": "view",
      "type": "function"
    },
    {
      "inputs": [
        {
          "internalType": "bytes4",
          "name": "_selector",
          "type": "bytes4"
        }
      ],
      "name": "getSelectorImplementation2",
      "outputs": [
        {
          "internalType": "address",
          "name": "impl",
          "type": "address"
        }
      ],
      "stateMutability": "view",
      "type": "function"
    },
    {
      "inputs": [
        {
          "internalType": "bytes32",
          "name": "role",
          "type": "bytes32"
        },
        {
          "internalType": "address",
          "name": "account",
          "type": "address"
        }
      ],
      "name": "grantRole",
      "outputs": [],
      "stateMutability": "nonpayable",
      "type": "function"
    },
    {
      "inputs": [
        {
          "internalType": "bytes32",
          "name": "role",
          "type": "bytes32"
        },
        {
          "internalType": "address",
          "name": "account",
          "type": "address"
        }
      ],
      "name": "hasRole",
      "outputs": [
        {
          "internalType": "bool",
          "name": "",
          "type": "bool"
        }
      ],
      "stateMutability": "view",
      "type": "function"
    },
    {
      "inputs": [],
      "name": "implementation",
      "outputs": [
        {
          "internalType": "address",
          "name": "",
          "type": "address"
        }
      ],
      "stateMutability": "view",
      "type": "function"
    },
    {
      "inputs": [
        {
          "internalType": "uint256",
          "name": "_index",
          "type": "uint256"
        }
      ],
      "name": "implementation2",
      "outputs": [
        {
          "internalType": "address",
          "name": "",
          "type": "address"
        }
      ],
      "stateMutability": "view",
      "type": "function"
    },
    {
      "inputs": [
        {
          "internalType": "address",
          "name": "_ton",
          "type": "address"
        },
        {
          "internalType": "address",
          "name": "_seigManagerV2",
          "type": "address"
        },
        {
          "internalType": "address",
          "name": "_layer2Manager",
          "type": "address"
        },
        {
          "internalType": "address",
          "name": "_fwReceipt",
          "type": "address"
        }
      ],
      "name": "initialize",
      "outputs": [],
      "stateMutability": "nonpayable",
      "type": "function"
    },
    {
      "inputs": [
        {
          "internalType": "address",
          "name": "account",
          "type": "address"
        }
      ],
      "name": "isAdmin",
      "outputs": [
        {
          "internalType": "bool",
          "name": "",
          "type": "bool"
        }
      ],
      "stateMutability": "view",
      "type": "function"
    },
    {
      "inputs": [],
      "name": "layer2Manager",
      "outputs": [
        {
          "internalType": "address",
          "name": "",
          "type": "address"
        }
      ],
      "stateMutability": "view",
      "type": "function"
    },
    {
      "inputs": [
        {
          "internalType": "uint32",
          "name": "",
          "type": "uint32"
        }
      ],
      "name": "layerInfo",
      "outputs": [
        {
          "internalType": "bytes",
          "name": "",
          "type": "bytes"
        }
      ],
      "stateMutability": "view",
      "type": "function"
    },
    {
      "inputs": [
        {
          "internalType": "uint32",
          "name": "",
          "type": "uint32"
        }
      ],
      "name": "layerStakedLton",
      "outputs": [
        {
          "internalType": "uint256",
          "name": "",
          "type": "uint256"
        }
      ],
      "stateMutability": "view",
      "type": "function"
    },
    {
      "inputs": [
        {
          "internalType": "uint32",
          "name": "",
          "type": "uint32"
        },
        {
          "internalType": "address",
          "name": "",
          "type": "address"
        }
      ],
      "name": "layerStakes",
      "outputs": [
        {
          "internalType": "uint256",
          "name": "stakePrincipal",
          "type": "uint256"
        },
        {
          "internalType": "uint256",
          "name": "stakelton",
          "type": "uint256"
        },
        {
          "internalType": "bool",
          "name": "stake",
          "type": "bool"
        }
      ],
      "stateMutability": "view",
      "type": "function"
    },
    {
      "inputs": [],
      "name": "pauseProxy",
      "outputs": [
        {
          "internalType": "bool",
          "name": "",
          "type": "bool"
        }
      ],
      "stateMutability": "view",
      "type": "function"
    },
    {
      "inputs": [
        {
          "internalType": "uint32",
          "name": "",
          "type": "uint32"
        },
        {
          "internalType": "address",
          "name": "",
          "type": "address"
        }
      ],
      "name": "pendingUnstaked",
      "outputs": [
        {
          "internalType": "uint256",
          "name": "",
          "type": "uint256"
        }
      ],
      "stateMutability": "view",
      "type": "function"
    },
    {
      "inputs": [
        {
          "internalType": "address",
          "name": "",
          "type": "address"
        }
      ],
      "name": "pendingUnstakedAccount",
      "outputs": [
        {
          "internalType": "uint256",
          "name": "",
          "type": "uint256"
        }
      ],
      "stateMutability": "view",
      "type": "function"
    },
    {
      "inputs": [
        {
          "internalType": "uint32",
          "name": "",
          "type": "uint32"
        }
      ],
      "name": "pendingUnstakedLayer2",
      "outputs": [
        {
          "internalType": "uint256",
          "name": "",
          "type": "uint256"
        }
      ],
      "stateMutability": "view",
      "type": "function"
    },
    {
      "inputs": [
        {
          "internalType": "uint256",
          "name": "",
          "type": "uint256"
        }
      ],
      "name": "proxyImplementation",
      "outputs": [
        {
          "internalType": "address",
          "name": "",
          "type": "address"
        }
      ],
      "stateMutability": "view",
      "type": "function"
    },
    {
      "inputs": [
        {
          "internalType": "address",
          "name": "account",
          "type": "address"
        }
      ],
      "name": "removeAdmin",
      "outputs": [],
      "stateMutability": "nonpayable",
      "type": "function"
    },
    {
      "inputs": [
        {
          "internalType": "bytes32",
          "name": "role",
          "type": "bytes32"
        },
        {
          "internalType": "address",
          "name": "account",
          "type": "address"
        }
      ],
      "name": "renounceRole",
      "outputs": [],
      "stateMutability": "nonpayable",
      "type": "function"
    },
    {
      "inputs": [
        {
          "internalType": "bytes32",
          "name": "role",
          "type": "bytes32"
        },
        {
          "internalType": "address",
          "name": "account",
          "type": "address"
        }
      ],
      "name": "revokeRole",
      "outputs": [],
      "stateMutability": "nonpayable",
      "type": "function"
    },
    {
      "inputs": [],
      "name": "seigManagerV2",
      "outputs": [
        {
          "internalType": "address",
          "name": "",
          "type": "address"
        }
      ],
      "stateMutability": "view",
      "type": "function"
    },
    {
      "inputs": [
        {
          "internalType": "bytes4",
          "name": "",
          "type": "bytes4"
        }
      ],
      "name": "selectorImplementation",
      "outputs": [
        {
          "internalType": "address",
          "name": "",
          "type": "address"
        }
      ],
      "stateMutability": "view",
      "type": "function"
    },
    {
      "inputs": [
        {
          "internalType": "address",
          "name": "newImplementation",
          "type": "address"
        },
        {
          "internalType": "bool",
          "name": "_alive",
          "type": "bool"
        }
      ],
      "name": "setAliveImplementation2",
      "outputs": [],
      "stateMutability": "nonpayable",
      "type": "function"
    },
    {
      "inputs": [
        {
          "internalType": "address",
          "name": "newImplementation",
          "type": "address"
        },
        {
          "internalType": "uint256",
          "name": "_index",
          "type": "uint256"
        },
        {
          "internalType": "bool",
          "name": "_alive",
          "type": "bool"
        }
      ],
      "name": "setImplementation2",
      "outputs": [],
      "stateMutability": "nonpayable",
      "type": "function"
    },
    {
      "inputs": [
        {
          "internalType": "bool",
          "name": "_pause",
          "type": "bool"
        }
      ],
      "name": "setProxyPause",
      "outputs": [],
      "stateMutability": "nonpayable",
      "type": "function"
    },
    {
      "inputs": [
        {
          "internalType": "bytes4[]",
          "name": "_selectors",
          "type": "bytes4[]"
        },
        {
          "internalType": "address",
          "name": "_imp",
          "type": "address"
        }
      ],
      "name": "setSelectorImplementations2",
      "outputs": [],
      "stateMutability": "nonpayable",
      "type": "function"
    },
    {
      "inputs": [
        {
          "internalType": "uint256",
          "name": "",
          "type": "uint256"
        }
      ],
      "name": "stakeAccountList",
      "outputs": [
        {
          "internalType": "address",
          "name": "",
          "type": "address"
        }
      ],
      "stateMutability": "view",
      "type": "function"
    },
    {
      "inputs": [
        {
          "internalType": "bytes4",
          "name": "interfaceId",
          "type": "bytes4"
        }
      ],
      "name": "supportsInterface",
      "outputs": [
        {
          "internalType": "bool",
          "name": "",
          "type": "bool"
        }
      ],
      "stateMutability": "view",
      "type": "function"
    },
    {
      "inputs": [],
      "name": "ton",
      "outputs": [
        {
          "internalType": "address",
          "name": "",
          "type": "address"
        }
      ],
      "stateMutability": "view",
      "type": "function"
    },
    {
      "inputs": [
        {
          "internalType": "address",
          "name": "newAdmin",
          "type": "address"
        }
      ],
      "name": "transferAdmin",
      "outputs": [],
      "stateMutability": "nonpayable",
      "type": "function"
    },
    {
      "inputs": [
        {
          "internalType": "address",
          "name": "impl",
          "type": "address"
        }
      ],
      "name": "upgradeTo",
      "outputs": [],
      "stateMutability": "nonpayable",
      "type": "function"
    },
    {
      "inputs": [
        {
          "internalType": "uint32",
          "name": "",
          "type": "uint32"
        },
        {
          "internalType": "address",
          "name": "",
          "type": "address"
        }
      ],
      "name": "withdrawalRequestIndex",
      "outputs": [
        {
          "internalType": "uint256",
          "name": "",
          "type": "uint256"
        }
      ],
      "stateMutability": "view",
      "type": "function"
    },
    {
      "inputs": [
        {
          "internalType": "uint32",
          "name": "",
          "type": "uint32"
        },
        {
          "internalType": "address",
          "name": "",
          "type": "address"
        },
        {
          "internalType": "uint256",
          "name": "",
          "type": "uint256"
        }
      ],
      "name": "withdrawalRequests",
      "outputs": [
        {
          "internalType": "uint32",
          "name": "withdrawableBlockNumber",
          "type": "uint32"
        },
        {
          "internalType": "uint128",
          "name": "amount",
          "type": "uint128"
        },
        {
          "internalType": "bool",
          "name": "processed",
          "type": "bool"
        }
      ],
      "stateMutability": "view",
      "type": "function"
    },
    {
      "stateMutability": "payable",
      "type": "receive"
    }
  ],
  "bytecode": "0x60806040526006805460ff191660011790553480156200001e57600080fd5b506200003a600080516020620022568339815191528062000068565b620000556000805160206200225683398151915233620000b3565b62000062600033620000b3565b62000163565b600082815260208190526040808220600101805490849055905190918391839186917fbd79b86ffe0ab8e8776151514217cd7cacd52c909f66475c3af44e129f0b00ff9190a4505050565b620000bf8282620000c3565b5050565b6000828152602081815260408083206001600160a01b038516845290915290205460ff16620000bf576000828152602081815260408083206001600160a01b03851684529091529020805460ff191660011790556200011f3390565b6001600160a01b0316816001600160a01b0316837f2f8788117e7eff1d82e926ec794901d17c78024a50270940304540a733656f0d60405160405180910390a45050565b6120e380620001736000396000f3fe6080604052600436106102a45760003560e01c806370619cf91161016e5780639c656e26116100cb578063cc48b9471161007f578063d547741f11610064578063d547741f1461094d578063ec110d451461096d578063f8c8765e1461098d576102f6565b8063cc48b94714610908578063d07918f11461092d576102f6565b8063a217fddf116100b0578063a217fddf14610890578063b911135f146108a5578063b9cab971146108db576102f6565b80639c656e26146107fc578063a0b2a91314610863576102f6565b80637cd5f663116101225780638b8f4a65116101075780638b8f4a65146107785780638d4fdb401461079857806391d14854146107b8576102f6565b80637cd5f663146107205780637cf1587c14610740576102f6565b806375829def1161015357806375829def146106ac57806375b238fc146106cc5780637cb00d2514610700576102f6565b806370619cf91461065f57806373469a7a1461068c576102f6565b80634a5df50f1161021c5780635e2cfe45116101d0578063659ab820116101b5578063659ab820146105bd5780636d1ef103146105ea578063704802751461063f576102f6565b80635e2cfe451461056b57806363a8fd89146105a3576102f6565b8063550d01a311610201578063550d01a3146104d55780635c60da1b146105055780635cc797d81461054b576102f6565b80634a5df50f1461047f57806350d2a2761461049f576102f6565b8063248a9ca3116102735780632f2ff15d116102585780632f2ff15d1461041f57806336568abe1461043f5780633659cfe61461045f576102f6565b8063248a9ca3146103cf57806324d7806c146103ff576102f6565b806301ffc9a71461030057806316b5d5bd146103355780631785f53c1461036d578063229852461461038d576102f6565b366102f65760405162461bcd60e51b815260206004820152601460248201527f63616e6e6f74207265636569766520457468657200000000000000000000000060448201526064015b60405180910390fd5b6102fe6109ad565b005b34801561030c57600080fd5b5061032061031b366004611c66565b610a56565b60405190151581526020015b60405180910390f35b34801561034157600080fd5b50600854610355906001600160a01b031681565b6040516001600160a01b03909116815260200161032c565b34801561037957600080fd5b506102fe610388366004611ca7565b610a88565b34801561039957600080fd5b506103c17ffb5864e8ff833c3cb2d2d08505e82ff02a43554c74a35d4f5a64e8526127831181565b60405190815260200161032c565b3480156103db57600080fd5b506103c16103ea366004611cc2565b60009081526020819052604090206001015490565b34801561040b57600080fd5b5061032061041a366004611ca7565b610b03565b34801561042b57600080fd5b506102fe61043a366004611cdb565b610b43565b34801561044b57600080fd5b506102fe61045a366004611cdb565b610b68565b34801561046b57600080fd5b506102fe61047a366004611ca7565b610bf4565b34801561048b57600080fd5b506102fe61049a366004611d07565b610d4d565b3480156104ab57600080fd5b506103556104ba366004611c66565b6004602052600090815260409020546001600160a01b031681565b3480156104e157600080fd5b506103206104f0366004611ca7565b60036020526000908152604090205460ff1681565b34801561051157600080fd5b506000805260026020527fac33ff75c19e70fe83507db0d683fd3465c996598dc972688b7ace676c89077b546001600160a01b0316610355565b34801561055757600080fd5b506102fe610566366004611d9b565b610fed565b34801561057757600080fd5b506103c1610586366004611dd9565b601360209081526000928352604080842090915290825290205481565b3480156105af57600080fd5b506001546103209060ff1681565b3480156105c957600080fd5b506105dd6105d8366004611e03565b611045565b60405161032c9190611e6e565b3480156105f657600080fd5b5061060a610605366004611e81565b6110df565b6040805163ffffffff90941684526fffffffffffffffffffffffffffffffff909216602084015215159082015260600161032c565b34801561064b57600080fd5b506102fe61065a366004611ca7565b611158565b34801561066b57600080fd5b506103c161067a366004611e03565b600d6020526000908152604090205481565b34801561069857600080fd5b50600754610355906001600160a01b031681565b3480156106b857600080fd5b506102fe6106c7366004611ca7565b6111d0565b3480156106d857600080fd5b506103c17fdf8b4c520ffe197c5343c6f5aec59570151ef9a492f2c624fd45ddde6135ec4281565b34801561070c57600080fd5b506102fe61071b366004611ebd565b611320565b34801561072c57600080fd5b506102fe61073b366004611ed8565b611381565b34801561074c57600080fd5b506103c161075b366004611dd9565b601260209081526000928352604080842090915290825290205481565b34801561078457600080fd5b50610355610793366004611cc2565b6113da565b3480156107a457600080fd5b506103556107b3366004611c66565b6113f7565b3480156107c457600080fd5b506103206107d3366004611cdb565b6000918252602082815260408084206001600160a01b0393909316845291905290205460ff1690565b34801561080857600080fd5b50610846610817366004611dd9565b600f60209081526000928352604080842090915290825290208054600182015460029092015490919060ff1683565b60408051938452602084019290925215159082015260600161032c565b34801561086f57600080fd5b506103c161087e366004611ca7565b60156020526000908152604090205481565b34801561089c57600080fd5b506103c1600081565b3480156108b157600080fd5b506103556108c0366004611cc2565b6002602052600090815260409020546001600160a01b031681565b3480156108e757600080fd5b506103c16108f6366004611e03565b60146020526000908152604090205481565b34801561091457600080fd5b506006546103559061010090046001600160a01b031681565b34801561093957600080fd5b50600954610355906001600160a01b031681565b34801561095957600080fd5b506102fe610968366004611cdb565b6114f3565b34801561097957600080fd5b50610355610988366004611cc2565b611518565b34801561099957600080fd5b506102fe6109a8366004611f0b565b611542565b60006109c46000356001600160e01b0319166113f7565b90506001600160a01b038116158015906109e1575060015460ff16155b610a2d5760405162461bcd60e51b815260206004820152601d60248201527f50726f78793a20696d706c204f522070726f78792069732066616c736500000060448201526064016102ed565b3660008037600080366000845af43d6000803e808015610a4c573d6000f35b3d6000fd5b505050565b6001600160e01b0319811660009081526005602052604081205460ff1680610a825750610a828261176c565b92915050565b610a9133610b03565b610ad65760405162461bcd60e51b815260206004820152602260248201526000805160206120b783398151915260448201526134b760f11b60648201526084016102ed565b610b007fdf8b4c520ffe197c5343c6f5aec59570151ef9a492f2c624fd45ddde6135ec4282610b68565b50565b6001600160a01b03811660009081527f5cbfc8ee58ca47855df7bcf648dd304ddb6b932f9b87878bdf6318d7ec7ee5b7602052604081205460ff16610a82565b600082815260208190526040902060010154610b5e816117a1565b610a5183836117ab565b6001600160a01b0381163314610be65760405162461bcd60e51b815260206004820152602f60248201527f416363657373436f6e74726f6c3a2063616e206f6e6c792072656e6f756e636560448201527f20726f6c657320666f722073656c66000000000000000000000000000000000060648201526084016102ed565b610bf08282611849565b5050565b610bfd33610b03565b610c425760405162461bcd60e51b815260206004820152602260248201526000805160206120b783398151915260448201526134b760f11b60648201526084016102ed565b6001600160a01b038116610c985760405162461bcd60e51b815260206004820152600d60248201527f696e707574206973207a65726f0000000000000000000000000000000000000060448201526064016102ed565b6000805260026020527fac33ff75c19e70fe83507db0d683fd3465c996598dc972688b7ace676c89077b546001600160a01b03828116911603610d095760405162461bcd60e51b815260206004820152600960248201526839b0b6b29030b2323960b91b60448201526064016102ed565b610d1681600060016118c8565b6040516001600160a01b038216907fbc7cd75a20ee27fd9adebab32041f755214dbc6bffa90cc0225b39da2e5c2d3b90600090a250565b610d5633610b03565b610d9b5760405162461bcd60e51b815260206004820152602260248201526000805160206120b783398151915260448201526134b760f11b60648201526084016102ed565b81610de85760405162461bcd60e51b815260206004820181905260248201527f50726f78793a205f73656c6563746f727327732073697a65206973207a65726f60448201526064016102ed565b6001600160a01b03811660009081526003602052604090205460ff16610e505760405162461bcd60e51b815260206004820152601860248201527f50726f78793a205f696d70206973206e6f7420616c697665000000000000000060448201526064016102ed565b60005b82811015610fe757816001600160a01b031660046000868685818110610e7b57610e7b611f5f565b9050602002016020810190610e909190611c66565b6001600160e01b03191681526020810191909152604001600020546001600160a01b031603610f015760405162461bcd60e51b815260206004820152601d60248201527f4c69717569646974795661756c7450726f78793a2073616d6520696d7000000060448201526064016102ed565b8160046000868685818110610f1857610f18611f5f565b9050602002016020810190610f2d9190611c66565b6001600160e01b0319168152602081019190915260400160002080546001600160a01b0319166001600160a01b039283161790558216848483818110610f7557610f75611f5f565b9050602002016020810190610f8a9190611c66565b7bffffffffffffffffffffffffffffffffffffffffffffffffffffffff19167f14ebc1c32aa68f4d766e89f3e546cee249f7df25183fc10ab1568d91c2ce9b7b60405160405180910390a380610fdf81611f8b565b915050610e53565b50505050565b610ff633610b03565b61103b5760405162461bcd60e51b815260206004820152602260248201526000805160206120b783398151915260448201526134b760f11b60648201526084016102ed565b610bf08282611953565b6016602052600090815260409020805461105e90611fa4565b80601f016020809104026020016040519081016040528092919081815260200182805461108a90611fa4565b80156110d75780601f106110ac576101008083540402835291602001916110d7565b820191906000526020600020905b8154815290600101906020018083116110ba57829003601f168201915b505050505081565b6011602052826000526040600020602052816000526040600020818154811061110757600080fd5b60009182526020909120015463ffffffff8116935064010000000081046fffffffffffffffffffffffffffffffff16925074010000000000000000000000000000000000000000900460ff16905083565b61116133610b03565b6111a65760405162461bcd60e51b815260206004820152602260248201526000805160206120b783398151915260448201526134b760f11b60648201526084016102ed565b610b007fdf8b4c520ffe197c5343c6f5aec59570151ef9a492f2c624fd45ddde6135ec4282610b43565b6111d933610b03565b61121e5760405162461bcd60e51b815260206004820152602260248201526000805160206120b783398151915260448201526134b760f11b60648201526084016102ed565b6001600160a01b0381166112745760405162461bcd60e51b815260206004820152601860248201527f41636365737369626c653a207a65726f2061646472657373000000000000000060448201526064016102ed565b6001600160a01b03811633036112cc5760405162461bcd60e51b815260206004820152601660248201527f41636365737369626c653a2073616d652061646d696e0000000000000000000060448201526064016102ed565b6112f67fdf8b4c520ffe197c5343c6f5aec59570151ef9a492f2c624fd45ddde6135ec4282610b43565b610b007fdf8b4c520ffe197c5343c6f5aec59570151ef9a492f2c624fd45ddde6135ec4233610b68565b61132933610b03565b61136e5760405162461bcd60e51b815260206004820152602260248201526000805160206120b783398151915260448201526134b760f11b60648201526084016102ed565b6001805460ff1916911515919091179055565b61138a33610b03565b6113cf5760405162461bcd60e51b815260206004820152602260248201526000805160206120b783398151915260448201526134b760f11b60648201526084016102ed565b610a518383836118c8565b6000818152600260205260408120546001600160a01b0316610a82565b6001600160e01b031981166000908152600460205260408120546001600160a01b03166114575750506000805260026020527fac33ff75c19e70fe83507db0d683fd3465c996598dc972688b7ace676c89077b546001600160a01b031690565b6001600160e01b031982166000908152600460209081526040808320546001600160a01b03168352600390915290205460ff16156114b557506001600160e01b0319166000908152600460205260409020546001600160a01b031690565b50506000805260026020527fac33ff75c19e70fe83507db0d683fd3465c996598dc972688b7ace676c89077b546001600160a01b031690565b919050565b60008281526020819052604090206001015461150e816117a1565b610a518383611849565b6017818154811061152857600080fd5b6000918252602090912001546001600160a01b0316905081565b61154b33610b03565b6115905760405162461bcd60e51b815260206004820152602260248201526000805160206120b783398151915260448201526134b760f11b60648201526084016102ed565b836001600160a01b0381166115cc5760405162461bcd60e51b81526020600482015260026024820152612d1960f11b60448201526064016102ed565b836001600160a01b0381166116085760405162461bcd60e51b81526020600482015260026024820152612d1960f11b60448201526064016102ed565b836001600160a01b0381166116445760405162461bcd60e51b81526020600482015260026024820152612d1960f11b60448201526064016102ed565b836001600160a01b0381166116805760405162461bcd60e51b81526020600482015260026024820152612d1960f11b60448201526064016102ed565b60065461010090046001600160a01b0316156116de5760405162461bcd60e51b815260206004820152601260248201527f616c726561647920696e697469616c697a65000000000000000000000000000060448201526064016102ed565b600780546001600160a01b03199081166001600160a01b038a8116919091179092556006805474ffffffffffffffffffffffffffffffffffffffff0019166101008c85160217905560088054821689841617905560098054909116918716919091179055611752632139e50b60e11b6119b2565b6117626301ffc9a760e01b6119b2565b5050505050505050565b60006001600160e01b03198216637965db0b60e01b1480610a8257506301ffc9a760e01b6001600160e01b0319831614610a82565b610b008133611a31565b6000828152602081815260408083206001600160a01b038516845290915290205460ff16610bf0576000828152602081815260408083206001600160a01b03851684529091529020805460ff191660011790556118053390565b6001600160a01b0316816001600160a01b0316837f2f8788117e7eff1d82e926ec794901d17c78024a50270940304540a733656f0d60405160405180910390a45050565b6000828152602081815260408083206001600160a01b038516845290915290205460ff1615610bf0576000828152602081815260408083206001600160a01b0385168085529252808320805460ff1916905551339285917ff6391f5c32d9c69d2a47ea670b442974b53935d1edc7fd64eb21e047a839171b9190a45050565b6001600160a01b0383163b61191f5760405162461bcd60e51b815260206004820152601b60248201527f50726f78793a206e6f7420636f6e74726163742061646472657373000000000060448201526064016102ed565b801561194d57600082815260026020526040902080546001600160a01b0319166001600160a01b0385161790555b610a5183825b6001600160a01b038216600081815260036020908152604091829020805460ff191685151590811790915591519182527f72558d9bfba4210f9ef095c782589484151f6d90f7a81bb3cb9b33efc695d324910160405180910390a25050565b6001600160e01b03198082169003611a0c5760405162461bcd60e51b815260206004820152601c60248201527f4552433136353a20696e76616c696420696e746572666163652069640000000060448201526064016102ed565b6001600160e01b0319166000908152600560205260409020805460ff19166001179055565b6000828152602081815260408083206001600160a01b038516845290915290205460ff16610bf057611a6281611aa4565b611a6d836020611ab6565b604051602001611a7e929190611fde565b60408051601f198184030181529082905262461bcd60e51b82526102ed91600401611e6e565b6060610a826001600160a01b03831660145b60606000611ac583600261205f565b611ad0906002612076565b67ffffffffffffffff811115611ae857611ae8612089565b6040519080825280601f01601f191660200182016040528015611b12576020820181803683370190505b509050600360fc1b81600081518110611b2d57611b2d611f5f565b60200101906001600160f81b031916908160001a905350600f60fb1b81600181518110611b5c57611b5c611f5f565b60200101906001600160f81b031916908160001a9053506000611b8084600261205f565b611b8b906001612076565b90505b6001811115611c10577f303132333435363738396162636465660000000000000000000000000000000085600f1660108110611bcc57611bcc611f5f565b1a60f81b828281518110611be257611be2611f5f565b60200101906001600160f81b031916908160001a90535060049490941c93611c098161209f565b9050611b8e565b508315611c5f5760405162461bcd60e51b815260206004820181905260248201527f537472696e67733a20686578206c656e67746820696e73756666696369656e7460448201526064016102ed565b9392505050565b600060208284031215611c7857600080fd5b81356001600160e01b031981168114611c5f57600080fd5b80356001600160a01b03811681146114ee57600080fd5b600060208284031215611cb957600080fd5b611c5f82611c90565b600060208284031215611cd457600080fd5b5035919050565b60008060408385031215611cee57600080fd5b82359150611cfe60208401611c90565b90509250929050565b600080600060408486031215611d1c57600080fd5b833567ffffffffffffffff80821115611d3457600080fd5b818601915086601f830112611d4857600080fd5b813581811115611d5757600080fd5b8760208260051b8501011115611d6c57600080fd5b602092830195509350611d829186019050611c90565b90509250925092565b803580151581146114ee57600080fd5b60008060408385031215611dae57600080fd5b611db783611c90565b9150611cfe60208401611d8b565b803563ffffffff811681146114ee57600080fd5b60008060408385031215611dec57600080fd5b611df583611dc5565b9150611cfe60208401611c90565b600060208284031215611e1557600080fd5b611c5f82611dc5565b60005b83811015611e39578181015183820152602001611e21565b50506000910152565b60008151808452611e5a816020860160208601611e1e565b601f01601f19169290920160200192915050565b602081526000611c5f6020830184611e42565b600080600060608486031215611e9657600080fd5b611e9f84611dc5565b9250611ead60208501611c90565b9150604084013590509250925092565b600060208284031215611ecf57600080fd5b611c5f82611d8b565b600080600060608486031215611eed57600080fd5b611ef684611c90565b925060208401359150611d8260408501611d8b565b60008060008060808587031215611f2157600080fd5b611f2a85611c90565b9350611f3860208601611c90565b9250611f4660408601611c90565b9150611f5460608601611c90565b905092959194509250565b634e487b7160e01b600052603260045260246000fd5b634e487b7160e01b600052601160045260246000fd5b600060018201611f9d57611f9d611f75565b5060010190565b600181811c90821680611fb857607f821691505b602082108103611fd857634e487b7160e01b600052602260045260246000fd5b50919050565b7f416363657373436f6e74726f6c3a206163636f756e7420000000000000000000815260008351612016816017850160208801611e1e565b7f206973206d697373696e6720726f6c65200000000000000000000000000000006017918401918201528351612053816028840160208801611e1e565b01602801949350505050565b8082028115828204841417610a8257610a82611f75565b80820180821115610a8257610a82611f75565b634e487b7160e01b600052604160045260246000fd5b6000816120ae576120ae611f75565b50600019019056fe41636365737369626c653a2043616c6c6572206973206e6f7420616e2061646da164736f6c6343000812000adf8b4c520ffe197c5343c6f5aec59570151ef9a492f2c624fd45ddde6135ec42",
  "linkReferences": {},
  "deployedLinkReferences": {}
}