{
  "_format": "hh-sol-artifact-1",
  "contractName": "LibSeigManager",
  "sourceName": "contracts/libraries/LibSeigManager.sol",
  "abi": [
    {
      "inputs": [
        {
          "internalType": "uint256",
          "name": "totalSupplyOfTon",
          "type": "uint256"
        },
        {
          "internalType": "uint256",
          "name": "relativeSeigRate",
          "type": "uint256"
        },
        {
          "internalType": "uint256",
          "name": "totalStakedV1",
          "type": "uint256"
        },
        {
          "internalType": "uint256",
          "name": "totalStakedV2",
          "type": "uint256"
        }
      ],
      "name": "calculateStakedSeig",
      "outputs": [
        {
          "internalType": "uint256",
          "name": "SeigRateForV1Stakers",
          "type": "uint256"
        },
        {
          "internalType": "uint256",
          "name": "SeigRateForV2Stakers",
          "type": "uint256"
        }
      ],
      "stateMutability": "pure",
      "type": "function"
    }
  ],
  "bytecode": "0x61035e61003a600b82828239805160001a60731461002d57634e487b7160e01b600052600060045260246000fd5b30600052607381538281f3fe73000000000000000000000000000000000000000030146080604052600436106100355760003560e01c8063b510f6791461003a575b600080fd5b61004d6100483660046102a4565b610066565b6040805192835260208301919091520160405180910390f35b6000808061007484866102ec565b90508661008185876102ec565b61009390670de0b6b3a7640000610305565b61009d919061031c565b9250866100aa85876102ec565b6100bc90670de0b6b3a7640000610305565b6100c6919061031c565b91506000876100d5878261033e565b6100e790670de0b6b3a7640000610305565b6100f1919061031c565b9050600088610100878261033e565b61011290670de0b6b3a7640000610305565b61011c919061031c565b905060006b033b2e3c9fd0803ce80000008a610138868261033e565b61014a90670de0b6b3a7640000610305565b610154919061031c565b61015e8a8c610305565b6101689190610305565b610172919061031c565b905060006b033b2e3c9fd0803ce80000008b61018e878261033e565b6101a090670de0b6b3a7640000610305565b6101aa919061031c565b6101b48a8d610305565b6101be9190610305565b6101c8919061031c565b905060006101d6858761033e565b905060006101e4858861033e565b905081600003610209576101f8868561031c565b610202908a6102ec565b9850610247565b85610214818961033e565b61021e908661031c565b61023090670de0b6b3a7640000610305565b61023a919061031c565b610244908a6102ec565b98505b8060000361026057610259858461031c565b9750610294565b8461026b818961033e565b610275908561031c565b61028790670de0b6b3a7640000610305565b610291919061031c565b97505b5050505050505094509492505050565b600080600080608085870312156102ba57600080fd5b5050823594602084013594506040840135936060013592509050565b634e487b7160e01b600052601160045260246000fd5b808201808211156102ff576102ff6102d6565b92915050565b80820281158282048414176102ff576102ff6102d6565b60008261033957634e487b7160e01b600052601260045260246000fd5b500490565b818103818111156102ff576102ff6102d656fea164736f6c6343000812000a",
  "linkReferences": {},
  "deployedLinkReferences": {}
}