{
  "_format": "hh-sol-artifact-1",
  "contractName": "LibSeigManager",
  "sourceName": "contracts/libraries/LibSeigManager.sol",
  "abi": [
    {
      "inputs": [
        {
          "internalType": "uint256",
          "name": "totalSupplyOfTon",
          "type": "uint256"
        },
        {
          "internalType": "uint256",
          "name": "relativeSeigRate",
          "type": "uint256"
        },
        {
          "internalType": "uint256",
          "name": "totalStakedV1",
          "type": "uint256"
        },
        {
          "internalType": "uint256",
          "name": "totalStakedV2",
          "type": "uint256"
        }
      ],
      "name": "calculateStakedSeig",
      "outputs": [
        {
          "internalType": "uint256",
          "name": "SeigRateForV1Stakers",
          "type": "uint256"
        },
        {
          "internalType": "uint256",
          "name": "SeigRateForV2Stakers",
          "type": "uint256"
        }
      ],
      "stateMutability": "view",
      "type": "function"
    }
  ],
  "bytecode": "0x61063461003a600b82828239805160001a60731461002d57634e487b7160e01b600052600060045260246000fd5b30600052607381538281f3fe73000000000000000000000000000000000000000030146080604052600436106100355760003560e01c8063b510f6791461003a575b600080fd5b61004d610048366004610525565b610066565b6040805192835260208301919091520160405180910390f35b6000806100a86040518060400160405280601381526020017f72656c6174697665536569675261746520257300000000000000000000000000815250866104a6565b60006100b4848661056d565b90506000876100cb83670de0b6b3a7640000610586565b6100d5919061059d565b90506000886100ec88670de0b6b3a7640000610586565b6100f6919061059d565b905060008961010d88670de0b6b3a7640000610586565b610117919061059d565b90506101586040518060400160405280600c81526020017f7374616b65526174652025730000000000000000000000000000000000000000815250846104a6565b6101976040518060400160405280600e81526020017f76315374616b6552617465202573000000000000000000000000000000000000815250836104a6565b6101d66040518060400160405280600e81526020017f76325374616b6552617465202573000000000000000000000000000000000000815250826104a6565b6000670de0b6b3a76400006b033b2e3c9fd0803ce80000008b6101f987846105bf565b6102039087610586565b61020d9190610586565b610217919061059d565b610221919061059d565b61022b908561056d565b9050610253604051806040016040528060048152602001636120257360e01b815250826104a6565b600061025f84876105bf565b9050610287604051806040016040528060048152602001636220257360e01b815250826104a6565b600061029b85670de0b6b3a76400006105bf565b90506102c3604051806040016040528060048152602001636320257360e01b815250826104a6565b816000036102dc576102d5818461059d565b98506102f4565b806102e7838561059d565b6102f1919061059d565b98505b6103336040518060400160405280601781526020017f5365696752617465466f7256315374616b6572732025730000000000000000008152508a6104a6565b6000670de0b6b3a76400006b033b2e3c9fd0803ce80000008e6103568a846105bf565b6103609089610586565b61036a9190610586565b610374919061059d565b61037e919061059d565b610388908861056d565b90506103b160405180604001604052806005815260200164613120257360d81b815250826104a6565b60006103bd86896105bf565b90506103e660405180604001604052806005815260200164623120257360d81b815250826104a6565b60006103fa87670de0b6b3a76400006105bf565b905061042360405180604001604052806005815260200164633120257360d81b815250826104a6565b8160000361043c57610435818461059d565b9a50610454565b80610447838561059d565b610451919061059d565b9a505b6104936040518060400160405280601781526020017f5365696752617465466f7256325374616b6572732025730000000000000000008152508c6104a6565b5050505050505050505094509492505050565b61050082826040516024016104bc9291906105d2565b60408051601f198184030181529190526020810180517bffffffffffffffffffffffffffffffffffffffffffffffffffffffff16632d839cb360e21b179052610504565b5050565b80516a636f6e736f6c652e6c6f67602083016000808483855afa5050505050565b6000806000806080858703121561053b57600080fd5b5050823594602084013594506040840135936060013592509050565b634e487b7160e01b600052601160045260246000fd5b8082018082111561058057610580610557565b92915050565b808202811582820484141761058057610580610557565b6000826105ba57634e487b7160e01b600052601260045260246000fd5b500490565b8181038181111561058057610580610557565b604081526000835180604084015260005b8181101561060057602081870181015160608684010152016105e3565b506000606082850101526060601f19601f830116840101915050826020830152939250505056fea164736f6c6343000812000a",
  "linkReferences": {},
  "deployedLinkReferences": {}
}