{
  "_format": "hh-sol-artifact-1",
  "contractName": "LibOptimism",
  "sourceName": "contracts/libraries/LibOptimism.sol",
  "abi": [
    {
      "inputs": [
        {
          "internalType": "address",
          "name": "addressManager",
          "type": "address"
        },
        {
          "internalType": "address",
          "name": "l2ton",
          "type": "address"
        }
      ],
      "name": "getKey",
      "outputs": [
        {
          "internalType": "bytes32",
          "name": "key_",
          "type": "bytes32"
        }
      ],
      "stateMutability": "pure",
      "type": "function"
    },
    {
      "inputs": [
        {
          "internalType": "bytes",
          "name": "data",
          "type": "bytes"
        }
      ],
      "name": "parseKey",
      "outputs": [
        {
          "components": [
            {
              "internalType": "address",
              "name": "addressManager",
              "type": "address"
            },
            {
              "internalType": "address",
              "name": "l2ton",
              "type": "address"
            }
          ],
          "internalType": "struct LibOptimism.Info",
          "name": "info",
          "type": "tuple"
        }
      ],
      "stateMutability": "pure",
      "type": "function"
    }
  ],
  "bytecode": "0x61036461003a600b82828239805160001a60731461002d57634e487b7160e01b600052600060045260246000fd5b30600052607381538281f3fe73000000000000000000000000000000000000000030146080604052600436106100405760003560e01c806361b2a1bc14610045578063bc29855314610084575b600080fd5b61005861005336600461023b565b6100ea565b6040805182516001600160a01b0390811682526020938401511692810192909252015b60405180910390f35b6100dc610092366004610303565b6040516bffffffffffffffffffffffff19606084811b8216602084015283901b16603482015260009060480160405160208183030381529060405280519060200120905092915050565b60405190815260200161007b565b604080518082019091526000808252602082015260278251111561014557604080518082019091528061011e84600061014a565b6001600160a01b0316815260200161013784601461014a565b6001600160a01b0316905290505b919050565b600081610158816014610336565b10156101ab5760405162461bcd60e51b815260206004820152601260248201527f746f416464726573735f6f766572666c6f77000000000000000000000000000060448201526064015b60405180910390fd5b6101b6826014610336565b835110156102065760405162461bcd60e51b815260206004820152601560248201527f746f416464726573735f6f75744f66426f756e6473000000000000000000000060448201526064016101a2565b50818101602001516c0100000000000000000000000090045b92915050565b634e487b7160e01b600052604160045260246000fd5b60006020828403121561024d57600080fd5b813567ffffffffffffffff8082111561026557600080fd5b818401915084601f83011261027957600080fd5b81358181111561028b5761028b610225565b604051601f8201601f19908116603f011681019083821181831017156102b3576102b3610225565b816040528281528760208487010111156102cc57600080fd5b826020860160208301376000928101602001929092525095945050505050565b80356001600160a01b038116811461014557600080fd5b6000806040838503121561031657600080fd5b61031f836102ec565b915061032d602084016102ec565b90509250929050565b8082018082111561021f57634e487b7160e01b600052601160045260246000fdfea164736f6c6343000812000a",
  "linkReferences": {},
  "deployedLinkReferences": {}
}