{
  "_format": "hh-sol-artifact-1",
  "contractName": "LibOptimism",
  "sourceName": "contracts/libraries/LibOptimism.sol",
  "abi": [
    {
      "inputs": [
        {
          "internalType": "address",
          "name": "addressManager",
          "type": "address"
        },
        {
          "internalType": "address",
          "name": "l1Messenger",
          "type": "address"
        },
        {
          "internalType": "address",
          "name": "l1Bridge",
          "type": "address"
        },
        {
          "internalType": "address",
          "name": "l2ton",
          "type": "address"
        }
      ],
      "name": "getKey",
      "outputs": [
        {
          "internalType": "bytes32",
          "name": "key_",
          "type": "bytes32"
        }
      ],
      "stateMutability": "pure",
      "type": "function"
    }
  ],
  "bytecode": "0x61014461003a600b82828239805160001a60731461002d57634e487b7160e01b600052600060045260246000fd5b30600052607381538281f3fe73000000000000000000000000000000000000000030146080604052600436106100355760003560e01c8063cd13ec871461003a575b600080fd5b6100a86100483660046100e3565b6040516bffffffffffffffffffffffff19606086811b8216602084015285811b8216603484015284811b8216604884015283901b16605c820152600090607001604051602081830303815290604052805190602001209050949350505050565b60405190815260200160405180910390f35b803573ffffffffffffffffffffffffffffffffffffffff811681146100de57600080fd5b919050565b600080600080608085870312156100f957600080fd5b610102856100ba565b9350610110602086016100ba565b925061011e604086016100ba565b915061012c606086016100ba565b90509295919450925056fea164736f6c6343000812000a",
  "linkReferences": {},
  "deployedLinkReferences": {}
}