{
  "_format": "hh-sol-artifact-1",
  "contractName": "LibOptimism",
  "sourceName": "contracts/libraries/LibOptimism.sol",
  "abi": [
    {
      "inputs": [
        {
          "internalType": "bytes",
          "name": "data",
          "type": "bytes"
        }
      ],
      "name": "getAddressManager",
      "outputs": [
        {
          "internalType": "address",
          "name": "addr",
          "type": "address"
        }
      ],
      "stateMutability": "pure",
      "type": "function"
    },
    {
      "inputs": [
        {
          "internalType": "address",
          "name": "addressManager",
          "type": "address"
        },
        {
          "internalType": "address",
          "name": "l1Bridge",
          "type": "address"
        },
        {
          "internalType": "address",
          "name": "l2Bridge",
          "type": "address"
        },
        {
          "internalType": "address",
          "name": "l2wton",
          "type": "address"
        }
      ],
      "name": "getKey",
      "outputs": [
        {
          "internalType": "bytes32",
          "name": "key_",
          "type": "bytes32"
        }
      ],
      "stateMutability": "pure",
      "type": "function"
    },
    {
      "inputs": [
        {
          "internalType": "bytes",
          "name": "data",
          "type": "bytes"
        }
      ],
      "name": "parseKey",
      "outputs": [
        {
          "components": [
            {
              "internalType": "address",
              "name": "addressManager",
              "type": "address"
            },
            {
              "internalType": "address",
              "name": "l1Bridge",
              "type": "address"
            },
            {
              "internalType": "address",
              "name": "l2Bridge",
              "type": "address"
            },
            {
              "internalType": "address",
              "name": "l2wton",
              "type": "address"
            }
          ],
          "internalType": "struct LibOptimism.Info",
          "name": "info",
          "type": "tuple"
        }
      ],
      "stateMutability": "pure",
      "type": "function"
    }
  ],
  "bytecode": "0x61043b61003a600b82828239805160001a60731461002d57634e487b7160e01b600052600060045260246000fd5b30600052607381538281f3fe730000000000000000000000000000000000000000301460806040526004361061004b5760003560e01c806361b2a1bc14610050578063cd13ec87146100af578063f341810e1461012b575b600080fd5b61006361005e3660046102f1565b610156565b6040516100a6919081516001600160a01b039081168252602080840151821690830152604080840151821690830152606092830151169181019190915260800190565b60405180910390f35b61011d6100bd3660046103b9565b6040516bffffffffffffffffffffffff19606086811b8216602084015285811b8216603484015284811b8216604884015283901b16605c820152600090607001604051602081830303815290604052805190602001209050949350505050565b6040519081526020016100a6565b61013e6101393660046102f1565b6101f9565b6040516001600160a01b0390911681526020016100a6565b604080516080810182526000808252602082018190529181018290526060810191909152604f825111156101f45760408051608081019091528061019b846000610216565b6001600160a01b031681526020016101b4846014610216565b6001600160a01b031681526020016101cd846028610216565b6001600160a01b031681526020016101e684603c610216565b6001600160a01b0316905290505b919050565b60006014825111156101f457610210826000610216565b92915050565b60008161022481601461040d565b10156102775760405162461bcd60e51b815260206004820152601260248201527f746f416464726573735f6f766572666c6f77000000000000000000000000000060448201526064015b60405180910390fd5b61028282601461040d565b835110156102d25760405162461bcd60e51b815260206004820152601560248201527f746f416464726573735f6f75744f66426f756e64730000000000000000000000604482015260640161026e565b50016014015190565b634e487b7160e01b600052604160045260246000fd5b60006020828403121561030357600080fd5b813567ffffffffffffffff8082111561031b57600080fd5b818401915084601f83011261032f57600080fd5b813581811115610341576103416102db565b604051601f8201601f19908116603f01168101908382118183101715610369576103696102db565b8160405282815287602084870101111561038257600080fd5b826020860160208301376000928101602001929092525095945050505050565b80356001600160a01b03811681146101f457600080fd5b600080600080608085870312156103cf57600080fd5b6103d8856103a2565b93506103e6602086016103a2565b92506103f4604086016103a2565b9150610402606086016103a2565b905092959194509250565b8082018082111561021057634e487b7160e01b600052601160045260246000fdfea164736f6c6343000812000a",
  "linkReferences": {},
  "deployedLinkReferences": {}
}