{
  "_format": "hh-sol-artifact-1",
  "contractName": "LibOptimism",
  "sourceName": "contracts/libraries/LibOptimism.sol",
  "abi": [
    {
      "inputs": [
        {
          "internalType": "bytes",
          "name": "data",
          "type": "bytes"
        }
      ],
      "name": "getAddressManager",
      "outputs": [
        {
          "internalType": "address",
          "name": "addr",
          "type": "address"
        }
      ],
      "stateMutability": "pure",
      "type": "function"
    },
    {
      "inputs": [
        {
          "internalType": "address",
          "name": "addressManager",
          "type": "address"
        },
        {
          "internalType": "address",
          "name": "l2ton",
          "type": "address"
        }
      ],
      "name": "getKey",
      "outputs": [
        {
          "internalType": "bytes32",
          "name": "key_",
          "type": "bytes32"
        }
      ],
      "stateMutability": "pure",
      "type": "function"
    },
    {
      "inputs": [
        {
          "internalType": "bytes",
          "name": "data",
          "type": "bytes"
        }
      ],
      "name": "parseKey",
      "outputs": [
        {
          "components": [
            {
              "internalType": "address",
              "name": "addressManager",
              "type": "address"
            },
            {
              "internalType": "address",
              "name": "l2ton",
              "type": "address"
            }
          ],
          "internalType": "struct LibOptimism.Info",
          "name": "info",
          "type": "tuple"
        }
      ],
      "stateMutability": "pure",
      "type": "function"
    }
  ],
  "bytecode": "0x6103a161003a600b82828239805160001a60731461002d57634e487b7160e01b600052600060045260246000fd5b30600052607381538281f3fe730000000000000000000000000000000000000000301460806040526004361061004b5760003560e01c806361b2a1bc14610050578063bc2985531461008f578063f341810e146100f5575b600080fd5b61006361005e366004610278565b610120565b6040805182516001600160a01b0390811682526020938401511692810192909252015b60405180910390f35b6100e761009d366004610340565b6040516bffffffffffffffffffffffff19606084811b8216602084015283901b16603482015260009060480160405160208183030381529060405280519060200120905092915050565b604051908152602001610086565b610108610103366004610278565b610180565b6040516001600160a01b039091168152602001610086565b604080518082019091526000808252602082015260278251111561017b57604080518082019091528061015484600061019d565b6001600160a01b0316815260200161016d84601461019d565b6001600160a01b0316905290505b919050565b600060148251111561017b5761019782600061019d565b92915050565b6000816101ab816014610373565b10156101fe5760405162461bcd60e51b815260206004820152601260248201527f746f416464726573735f6f766572666c6f77000000000000000000000000000060448201526064015b60405180910390fd5b610209826014610373565b835110156102595760405162461bcd60e51b815260206004820152601560248201527f746f416464726573735f6f75744f66426f756e6473000000000000000000000060448201526064016101f5565b50016014015190565b634e487b7160e01b600052604160045260246000fd5b60006020828403121561028a57600080fd5b813567ffffffffffffffff808211156102a257600080fd5b818401915084601f8301126102b657600080fd5b8135818111156102c8576102c8610262565b604051601f8201601f19908116603f011681019083821181831017156102f0576102f0610262565b8160405282815287602084870101111561030957600080fd5b826020860160208301376000928101602001929092525095945050505050565b80356001600160a01b038116811461017b57600080fd5b6000806040838503121561035357600080fd5b61035c83610329565b915061036a60208401610329565b90509250929050565b8082018082111561019757634e487b7160e01b600052601160045260246000fdfea164736f6c6343000812000a",
  "linkReferences": {},
  "deployedLinkReferences": {}
}