{
  "_format": "hh-sol-artifact-1",
  "contractName": "Layer2Manager",
  "sourceName": "contracts/Layer2Manager.sol",
  "abi": [
    {
      "inputs": [],
      "stateMutability": "nonpayable",
      "type": "constructor"
    },
    {
      "anonymous": false,
      "inputs": [
        {
          "indexed": false,
          "internalType": "uint32",
          "name": "_index",
          "type": "uint32"
        },
        {
          "indexed": false,
          "internalType": "address",
          "name": "_sequencer",
          "type": "address"
        },
        {
          "indexed": false,
          "internalType": "uint256",
          "name": "amount",
          "type": "uint256"
        }
      ],
      "name": "Claimed",
      "type": "event"
    },
    {
      "anonymous": false,
      "inputs": [
        {
          "indexed": false,
          "internalType": "uint32",
          "name": "_index",
          "type": "uint32"
        },
        {
          "indexed": false,
          "internalType": "address",
          "name": "_operator",
          "type": "address"
        },
        {
          "indexed": false,
          "internalType": "bytes32",
          "name": "_name",
          "type": "bytes32"
        },
        {
          "indexed": false,
          "internalType": "uint32",
          "name": "_sequencerIndex",
          "type": "uint32"
        },
        {
          "indexed": false,
          "internalType": "uint16",
          "name": "_commission",
          "type": "uint16"
        },
        {
          "indexed": false,
          "internalType": "uint256",
          "name": "depositAmount",
          "type": "uint256"
        }
      ],
      "name": "CreatedCandidate",
      "type": "event"
    },
    {
      "anonymous": false,
      "inputs": [
        {
          "indexed": false,
          "internalType": "uint32",
          "name": "_index",
          "type": "uint32"
        },
        {
          "indexed": false,
          "internalType": "address",
          "name": "_sequencer",
          "type": "address"
        },
        {
          "indexed": false,
          "internalType": "bytes32",
          "name": "_name",
          "type": "bytes32"
        },
        {
          "indexed": false,
          "internalType": "address",
          "name": "addressManager",
          "type": "address"
        },
        {
          "indexed": false,
          "internalType": "address",
          "name": "l1Bridge",
          "type": "address"
        },
        {
          "indexed": false,
          "internalType": "address",
          "name": "l2Bridge",
          "type": "address"
        },
        {
          "indexed": false,
          "internalType": "address",
          "name": "l2ton",
          "type": "address"
        },
        {
          "indexed": false,
          "internalType": "uint256",
          "name": "depositAmount",
          "type": "uint256"
        }
      ],
      "name": "CreatedOptimismSequencer",
      "type": "event"
    },
    {
      "anonymous": false,
      "inputs": [
        {
          "indexed": false,
          "internalType": "uint32",
          "name": "_index",
          "type": "uint32"
        },
        {
          "indexed": false,
          "internalType": "address",
          "name": "_sequencer",
          "type": "address"
        },
        {
          "indexed": false,
          "internalType": "uint256",
          "name": "amount",
          "type": "uint256"
        }
      ],
      "name": "DecreasedSecurityDeposit",
      "type": "event"
    },
    {
      "anonymous": false,
      "inputs": [
        {
          "indexed": false,
          "internalType": "uint256",
          "name": "_totalSeigs",
          "type": "uint256"
        },
        {
          "indexed": false,
          "internalType": "uint256",
          "name": "_distributedAmount",
          "type": "uint256"
        }
      ],
      "name": "Distributed",
      "type": "event"
    },
    {
      "anonymous": false,
      "inputs": [
        {
          "indexed": false,
          "internalType": "uint32",
          "name": "_index",
          "type": "uint32"
        },
        {
          "indexed": false,
          "internalType": "address",
          "name": "caller",
          "type": "address"
        },
        {
          "indexed": false,
          "internalType": "uint256",
          "name": "amount",
          "type": "uint256"
        }
      ],
      "name": "IncreasedSecurityDeposit",
      "type": "event"
    },
    {
      "anonymous": false,
      "inputs": [
        {
          "indexed": true,
          "internalType": "bytes32",
          "name": "role",
          "type": "bytes32"
        },
        {
          "indexed": true,
          "internalType": "bytes32",
          "name": "previousAdminRole",
          "type": "bytes32"
        },
        {
          "indexed": true,
          "internalType": "bytes32",
          "name": "newAdminRole",
          "type": "bytes32"
        }
      ],
      "name": "RoleAdminChanged",
      "type": "event"
    },
    {
      "anonymous": false,
      "inputs": [
        {
          "indexed": true,
          "internalType": "bytes32",
          "name": "role",
          "type": "bytes32"
        },
        {
          "indexed": true,
          "internalType": "address",
          "name": "account",
          "type": "address"
        },
        {
          "indexed": true,
          "internalType": "address",
          "name": "sender",
          "type": "address"
        }
      ],
      "name": "RoleGranted",
      "type": "event"
    },
    {
      "anonymous": false,
      "inputs": [
        {
          "indexed": true,
          "internalType": "bytes32",
          "name": "role",
          "type": "bytes32"
        },
        {
          "indexed": true,
          "internalType": "address",
          "name": "account",
          "type": "address"
        },
        {
          "indexed": true,
          "internalType": "address",
          "name": "sender",
          "type": "address"
        }
      ],
      "name": "RoleRevoked",
      "type": "event"
    },
    {
      "inputs": [],
      "name": "ADMIN_ROLE",
      "outputs": [
        {
          "internalType": "bytes32",
          "name": "",
          "type": "bytes32"
        }
      ],
      "stateMutability": "view",
      "type": "function"
    },
    {
      "inputs": [],
      "name": "DEFAULT_ADMIN_ROLE",
      "outputs": [
        {
          "internalType": "bytes32",
          "name": "",
          "type": "bytes32"
        }
      ],
      "stateMutability": "view",
      "type": "function"
    },
    {
      "inputs": [],
      "name": "POLICY_ROLE",
      "outputs": [
        {
          "internalType": "bytes32",
          "name": "",
          "type": "bytes32"
        }
      ],
      "stateMutability": "view",
      "type": "function"
    },
    {
      "inputs": [
        {
          "internalType": "address",
          "name": "account",
          "type": "address"
        }
      ],
      "name": "addAdmin",
      "outputs": [],
      "stateMutability": "nonpayable",
      "type": "function"
    },
    {
      "inputs": [
        {
          "internalType": "uint256",
          "name": "amount",
          "type": "uint256"
        }
      ],
      "name": "addSeigs",
      "outputs": [
        {
          "internalType": "bool",
          "name": "",
          "type": "bool"
        }
      ],
      "stateMutability": "nonpayable",
      "type": "function"
    },
    {
      "inputs": [
        {
          "internalType": "address",
          "name": "",
          "type": "address"
        }
      ],
      "name": "aliveImplementation",
      "outputs": [
        {
          "internalType": "bool",
          "name": "",
          "type": "bool"
        }
      ],
      "stateMutability": "view",
      "type": "function"
    },
    {
      "inputs": [
        {
          "internalType": "address",
          "name": "account",
          "type": "address"
        }
      ],
      "name": "balanceOfLton",
      "outputs": [
        {
          "internalType": "uint256",
          "name": "amount",
          "type": "uint256"
        }
      ],
      "stateMutability": "view",
      "type": "function"
    },
    {
      "inputs": [],
      "name": "candidate",
      "outputs": [
        {
          "internalType": "address",
          "name": "",
          "type": "address"
        }
      ],
      "stateMutability": "view",
      "type": "function"
    },
    {
      "inputs": [
        {
          "internalType": "uint32",
          "name": "",
          "type": "uint32"
        }
      ],
      "name": "candidateNames",
      "outputs": [
        {
          "internalType": "bytes32",
          "name": "",
          "type": "bytes32"
        }
      ],
      "stateMutability": "view",
      "type": "function"
    },
    {
      "inputs": [
        {
          "internalType": "uint256",
          "name": "",
          "type": "uint256"
        }
      ],
      "name": "candidatesIndexes",
      "outputs": [
        {
          "internalType": "uint32",
          "name": "",
          "type": "uint32"
        }
      ],
      "stateMutability": "view",
      "type": "function"
    },
    {
      "inputs": [
        {
          "internalType": "uint32",
          "name": "_layerIndex",
          "type": "uint32"
        }
      ],
      "name": "claim",
      "outputs": [],
      "stateMutability": "nonpayable",
      "type": "function"
    },
    {
      "inputs": [
        {
          "internalType": "uint32",
          "name": "_sequencerIndex",
          "type": "uint32"
        },
        {
          "internalType": "bytes32",
          "name": "_name",
          "type": "bytes32"
        },
        {
          "internalType": "uint16",
          "name": "_commission",
          "type": "uint16"
        },
        {
          "internalType": "uint256",
          "name": "amount",
          "type": "uint256"
        }
      ],
      "name": "createCandidate",
      "outputs": [
        {
          "internalType": "uint32",
          "name": "",
          "type": "uint32"
        }
      ],
      "stateMutability": "nonpayable",
      "type": "function"
    },
    {
      "inputs": [
        {
          "internalType": "bytes32",
          "name": "_name",
          "type": "bytes32"
        },
        {
          "internalType": "address",
          "name": "addressManager",
          "type": "address"
        },
        {
          "internalType": "address",
          "name": "l1Bridge",
          "type": "address"
        },
        {
          "internalType": "address",
          "name": "l2Bridge",
          "type": "address"
        },
        {
          "internalType": "address",
          "name": "l2ton",
          "type": "address"
        },
        {
          "internalType": "uint256",
          "name": "amount",
          "type": "uint256"
        }
      ],
      "name": "createOptimismSequencer",
      "outputs": [
        {
          "internalType": "uint32",
          "name": "",
          "type": "uint32"
        }
      ],
      "stateMutability": "nonpayable",
      "type": "function"
    },
    {
      "inputs": [],
      "name": "curTotalAmountsLayer2",
      "outputs": [
        {
          "internalType": "uint256",
          "name": "amount",
          "type": "uint256"
        }
      ],
      "stateMutability": "view",
      "type": "function"
    },
    {
      "inputs": [],
      "name": "curTotalLayer2Deposits",
      "outputs": [
        {
          "internalType": "uint256",
          "name": "amount",
          "type": "uint256"
        }
      ],
      "stateMutability": "view",
      "type": "function"
    },
    {
      "inputs": [
        {
          "internalType": "uint32",
          "name": "_sequencerIndex",
          "type": "uint32"
        },
        {
          "internalType": "uint256",
          "name": "amount",
          "type": "uint256"
        }
      ],
      "name": "decreaseSecurityDeposit",
      "outputs": [],
      "stateMutability": "nonpayable",
      "type": "function"
    },
    {
      "inputs": [],
      "name": "delayBlocksForWithdraw",
      "outputs": [
        {
          "internalType": "uint256",
          "name": "",
          "type": "uint256"
        }
      ],
      "stateMutability": "view",
      "type": "function"
    },
    {
      "inputs": [
        {
          "internalType": "uint32",
          "name": "_layerIndex",
          "type": "uint32"
        }
      ],
      "name": "depositsOf",
      "outputs": [
        {
          "internalType": "uint256",
          "name": "amount",
          "type": "uint256"
        }
      ],
      "stateMutability": "view",
      "type": "function"
    },
    {
      "inputs": [],
      "name": "distribute",
      "outputs": [],
      "stateMutability": "nonpayable",
      "type": "function"
    },
    {
      "inputs": [
        {
          "internalType": "uint32",
          "name": "_index",
          "type": "uint32"
        }
      ],
      "name": "existedCandidateIndex",
      "outputs": [
        {
          "internalType": "bool",
          "name": "exist_",
          "type": "bool"
        }
      ],
      "stateMutability": "view",
      "type": "function"
    },
    {
      "inputs": [
        {
          "internalType": "uint32",
          "name": "_index",
          "type": "uint32"
        }
      ],
      "name": "existedLayer2Index",
      "outputs": [
        {
          "internalType": "bool",
          "name": "exist_",
          "type": "bool"
        }
      ],
      "stateMutability": "view",
      "type": "function"
    },
    {
      "inputs": [],
      "name": "getAllCandidates",
      "outputs": [
        {
          "internalType": "bytes32[]",
          "name": "candidateNames_",
          "type": "bytes32[]"
        },
        {
          "internalType": "uint32[]",
          "name": "candidateNamesIndexes_",
          "type": "uint32[]"
        },
        {
          "internalType": "bytes[]",
          "name": "infos_",
          "type": "bytes[]"
        }
      ],
      "stateMutability": "view",
      "type": "function"
    },
    {
      "inputs": [],
      "name": "getAllLayers",
      "outputs": [
        {
          "internalType": "bytes32[]",
          "name": "optimismSequencerNames_",
          "type": "bytes32[]"
        },
        {
          "internalType": "uint32[]",
          "name": "optimismSequencerIndexes_",
          "type": "uint32[]"
        },
        {
          "components": [
            {
              "internalType": "uint256",
              "name": "securityDeposit",
              "type": "uint256"
            },
            {
              "internalType": "uint256",
              "name": "seigs",
              "type": "uint256"
            }
          ],
          "internalType": "struct Layer2.Layer2Holdings[]",
          "name": "holdings_",
          "type": "tuple[]"
        },
        {
          "internalType": "bytes[]",
          "name": "infos_",
          "type": "bytes[]"
        }
      ],
      "stateMutability": "view",
      "type": "function"
    },
    {
      "inputs": [
        {
          "internalType": "bytes32",
          "name": "role",
          "type": "bytes32"
        }
      ],
      "name": "getRoleAdmin",
      "outputs": [
        {
          "internalType": "bytes32",
          "name": "",
          "type": "bytes32"
        }
      ],
      "stateMutability": "view",
      "type": "function"
    },
    {
      "inputs": [
        {
          "internalType": "bytes32",
          "name": "role",
          "type": "bytes32"
        },
        {
          "internalType": "address",
          "name": "account",
          "type": "address"
        }
      ],
      "name": "grantRole",
      "outputs": [],
      "stateMutability": "nonpayable",
      "type": "function"
    },
    {
      "inputs": [
        {
          "internalType": "bytes32",
          "name": "role",
          "type": "bytes32"
        },
        {
          "internalType": "address",
          "name": "account",
          "type": "address"
        }
      ],
      "name": "hasRole",
      "outputs": [
        {
          "internalType": "bool",
          "name": "",
          "type": "bool"
        }
      ],
      "stateMutability": "view",
      "type": "function"
    },
    {
      "inputs": [
        {
          "internalType": "uint32",
          "name": "",
          "type": "uint32"
        }
      ],
      "name": "holdings",
      "outputs": [
        {
          "internalType": "uint256",
          "name": "securityDeposit",
          "type": "uint256"
        },
        {
          "internalType": "uint256",
          "name": "seigs",
          "type": "uint256"
        }
      ],
      "stateMutability": "view",
      "type": "function"
    },
    {
      "inputs": [
        {
          "internalType": "uint32",
          "name": "_sequencerIndex",
          "type": "uint32"
        },
        {
          "internalType": "uint256",
          "name": "amount",
          "type": "uint256"
        }
      ],
      "name": "increaseSecurityDeposit",
      "outputs": [],
      "stateMutability": "nonpayable",
      "type": "function"
    },
    {
      "inputs": [],
      "name": "indexCandidates",
      "outputs": [
        {
          "internalType": "uint32",
          "name": "",
          "type": "uint32"
        }
      ],
      "stateMutability": "view",
      "type": "function"
    },
    {
      "inputs": [],
      "name": "indexSequencers",
      "outputs": [
        {
          "internalType": "uint32",
          "name": "",
          "type": "uint32"
        }
      ],
      "stateMutability": "view",
      "type": "function"
    },
    {
      "inputs": [
        {
          "internalType": "address",
          "name": "account",
          "type": "address"
        }
      ],
      "name": "isAdmin",
      "outputs": [
        {
          "internalType": "bool",
          "name": "",
          "type": "bool"
        }
      ],
      "stateMutability": "view",
      "type": "function"
    },
    {
      "inputs": [
        {
          "internalType": "uint32",
          "name": "layerKey_",
          "type": "uint32"
        }
      ],
      "name": "layerHoldings",
      "outputs": [
        {
          "components": [
            {
              "internalType": "uint256",
              "name": "securityDeposit",
              "type": "uint256"
            },
            {
              "internalType": "uint256",
              "name": "seigs",
              "type": "uint256"
            }
          ],
          "internalType": "struct Layer2.Layer2Holdings",
          "name": "",
          "type": "tuple"
        }
      ],
      "stateMutability": "view",
      "type": "function"
    },
    {
      "inputs": [
        {
          "internalType": "bytes32",
          "name": "",
          "type": "bytes32"
        }
      ],
      "name": "layerKeys",
      "outputs": [
        {
          "internalType": "bool",
          "name": "",
          "type": "bool"
        }
      ],
      "stateMutability": "view",
      "type": "function"
    },
    {
      "inputs": [],
      "name": "maxLayer2Count",
      "outputs": [
        {
          "internalType": "uint256",
          "name": "",
          "type": "uint256"
        }
      ],
      "stateMutability": "view",
      "type": "function"
    },
    {
      "inputs": [],
      "name": "minimumDepositForCandidate",
      "outputs": [
        {
          "internalType": "uint256",
          "name": "",
          "type": "uint256"
        }
      ],
      "stateMutability": "view",
      "type": "function"
    },
    {
      "inputs": [],
      "name": "minimumDepositForSequencer",
      "outputs": [
        {
          "internalType": "uint256",
          "name": "",
          "type": "uint256"
        }
      ],
      "stateMutability": "view",
      "type": "function"
    },
    {
      "inputs": [
        {
          "internalType": "address",
          "name": "l1Bridge",
          "type": "address"
        },
        {
          "internalType": "address",
          "name": "l2ton",
          "type": "address"
        }
      ],
      "name": "minimumSecurityDepositAmount",
      "outputs": [
        {
          "internalType": "uint256",
          "name": "amount",
          "type": "uint256"
        }
      ],
      "stateMutability": "view",
      "type": "function"
    },
    {
      "inputs": [],
      "name": "optimismSequencer",
      "outputs": [
        {
          "internalType": "address",
          "name": "",
          "type": "address"
        }
      ],
      "stateMutability": "view",
      "type": "function"
    },
    {
      "inputs": [
        {
          "internalType": "uint256",
          "name": "",
          "type": "uint256"
        }
      ],
      "name": "optimismSequencerIndexes",
      "outputs": [
        {
          "internalType": "uint32",
          "name": "",
          "type": "uint32"
        }
      ],
      "stateMutability": "view",
      "type": "function"
    },
    {
      "inputs": [
        {
          "internalType": "uint32",
          "name": "",
          "type": "uint32"
        }
      ],
      "name": "optimismSequencerNames",
      "outputs": [
        {
          "internalType": "bytes32",
          "name": "",
          "type": "bytes32"
        }
      ],
      "stateMutability": "view",
      "type": "function"
    },
    {
      "inputs": [],
      "name": "pauseProxy",
      "outputs": [
        {
          "internalType": "bool",
          "name": "",
          "type": "bool"
        }
      ],
      "stateMutability": "view",
      "type": "function"
    },
    {
      "inputs": [
        {
          "internalType": "uint256",
          "name": "",
          "type": "uint256"
        }
      ],
      "name": "proxyImplementation",
      "outputs": [
        {
          "internalType": "address",
          "name": "",
          "type": "address"
        }
      ],
      "stateMutability": "view",
      "type": "function"
    },
    {
      "inputs": [],
      "name": "ratioSecurityDepositOfTvl",
      "outputs": [
        {
          "internalType": "uint16",
          "name": "",
          "type": "uint16"
        }
      ],
      "stateMutability": "view",
      "type": "function"
    },
    {
      "inputs": [
        {
          "internalType": "address",
          "name": "account",
          "type": "address"
        }
      ],
      "name": "removeAdmin",
      "outputs": [],
      "stateMutability": "nonpayable",
      "type": "function"
    },
    {
      "inputs": [
        {
          "internalType": "bytes32",
          "name": "role",
          "type": "bytes32"
        },
        {
          "internalType": "address",
          "name": "account",
          "type": "address"
        }
      ],
      "name": "renounceRole",
      "outputs": [],
      "stateMutability": "nonpayable",
      "type": "function"
    },
    {
      "inputs": [
        {
          "internalType": "bytes32",
          "name": "role",
          "type": "bytes32"
        },
        {
          "internalType": "address",
          "name": "account",
          "type": "address"
        }
      ],
      "name": "revokeRole",
      "outputs": [],
      "stateMutability": "nonpayable",
      "type": "function"
    },
    {
      "inputs": [],
      "name": "seigManagerV2",
      "outputs": [
        {
          "internalType": "address",
          "name": "",
          "type": "address"
        }
      ],
      "stateMutability": "view",
      "type": "function"
    },
    {
      "inputs": [
        {
          "internalType": "bytes4",
          "name": "",
          "type": "bytes4"
        }
      ],
      "name": "selectorImplementation",
      "outputs": [
        {
          "internalType": "address",
          "name": "",
          "type": "address"
        }
      ],
      "stateMutability": "view",
      "type": "function"
    },
    {
      "inputs": [
        {
          "internalType": "uint32",
          "name": "_layerIndex",
          "type": "uint32"
        }
      ],
      "name": "sequencer",
      "outputs": [
        {
          "internalType": "address",
          "name": "sequencer_",
          "type": "address"
        }
      ],
      "stateMutability": "view",
      "type": "function"
    },
    {
      "inputs": [
        {
          "internalType": "uint256",
          "name": "_delayBlocksForWithdraw",
          "type": "uint256"
        }
      ],
      "name": "setDelayBlocksForWithdraw",
      "outputs": [],
      "stateMutability": "nonpayable",
      "type": "function"
    },
    {
      "inputs": [
        {
          "internalType": "uint256",
          "name": "_maxLayer2Count",
          "type": "uint256"
        }
      ],
      "name": "setMaxLayer2Count",
      "outputs": [],
      "stateMutability": "nonpayable",
      "type": "function"
    },
    {
      "inputs": [
        {
          "internalType": "uint256",
          "name": "_minimumDepositForCandidate",
          "type": "uint256"
        }
      ],
      "name": "setMinimumDepositForCandidate",
      "outputs": [],
      "stateMutability": "nonpayable",
      "type": "function"
    },
    {
      "inputs": [
        {
          "internalType": "uint256",
          "name": "_minimumDepositForSequencer",
          "type": "uint256"
        }
      ],
      "name": "setMinimumDepositForSequencer",
      "outputs": [],
      "stateMutability": "nonpayable",
      "type": "function"
    },
    {
      "inputs": [
        {
          "internalType": "uint16",
          "name": "_ratioSecurityDepositOfTvl",
          "type": "uint16"
        }
      ],
      "name": "setRatioSecurityDepositOfTvl",
      "outputs": [],
      "stateMutability": "nonpayable",
      "type": "function"
    },
    {
      "inputs": [
        {
          "internalType": "bytes4",
          "name": "interfaceId",
          "type": "bytes4"
        }
      ],
      "name": "supportsInterface",
      "outputs": [
        {
          "internalType": "bool",
          "name": "",
          "type": "bool"
        }
      ],
      "stateMutability": "view",
      "type": "function"
    },
    {
      "inputs": [],
      "name": "ton",
      "outputs": [
        {
          "internalType": "contract IERC20",
          "name": "",
          "type": "address"
        }
      ],
      "stateMutability": "view",
      "type": "function"
    },
    {
      "inputs": [],
      "name": "totalCandidates",
      "outputs": [
        {
          "internalType": "uint256",
          "name": "total",
          "type": "uint256"
        }
      ],
      "stateMutability": "view",
      "type": "function"
    },
    {
      "inputs": [],
      "name": "totalLayers",
      "outputs": [
        {
          "internalType": "uint256",
          "name": "total",
          "type": "uint256"
        }
      ],
      "stateMutability": "view",
      "type": "function"
    },
    {
      "inputs": [],
      "name": "totalSecurityDeposit",
      "outputs": [
        {
          "internalType": "uint256",
          "name": "",
          "type": "uint256"
        }
      ],
      "stateMutability": "view",
      "type": "function"
    },
    {
      "inputs": [],
      "name": "totalSeigs",
      "outputs": [
        {
          "internalType": "uint256",
          "name": "",
          "type": "uint256"
        }
      ],
      "stateMutability": "view",
      "type": "function"
    },
    {
      "inputs": [
        {
          "internalType": "address",
          "name": "newAdmin",
          "type": "address"
        }
      ],
      "name": "transferAdmin",
      "outputs": [],
      "stateMutability": "nonpayable",
      "type": "function"
    }
  ],
  "bytecode": "0x60806040526015805460ff60501b19166a010000000000000000000017905534801561002a57600080fd5b50613ff08061003a6000396000f3fe608060405234801561001057600080fd5b50600436106103af5760003560e01c806370480275116101f4578063b911135f1161011a578063da0dc135116100ad578063e99e36161161007c578063e99e36161461091e578063f2a7d71214610931578063f71bf33a14610944578063fee539b71461094d57600080fd5b8063da0dc135146108d8578063e0ef2a7f146108eb578063e12a62191461090e578063e4fc6b6d1461091657600080fd5b8063d37c6d69116100e9578063d37c6d6914610889578063d48ddf0414610892578063d547741f146108b2578063d639ff83146108c557600080fd5b8063b911135f1461081c578063c14241b914610845578063caef64e61461086d578063cc48b9471461087657600080fd5b80638d5d8e5511610192578063a4dd8b7d11610161578063a4dd8b7d1461078e578063a73ddaab14610797578063ab8930a5146107aa578063ae9046ca1461080957600080fd5b80638d5d8e551461072c57806391d148541461073c578063963807a814610773578063a217fddf1461078657600080fd5b806375b238fc116101ce57806375b238fc146106d75780638935af9a146106fe5780638cc193a5146107115780638d1f3d0a1461071957600080fd5b8063704802751461069e57806373469a7a146106b157806375829def146106c457600080fd5b80633bd0c19f116102d957806357bc1df01161027757806363e6f0d81161024657806363e6f0d81461065d5780636b48235f146106655780636c8381f8146106785780636e1ef23a1461068b57600080fd5b806357bc1df01461061c5780635b1f335f146106345780635d170f8f1461063d57806363a8fd891461065057600080fd5b8063499ad9da116102b3578063499ad9da1461059c5780634c76e6c8146105a557806350d2a276146105b8578063550d01a3146105f957600080fd5b80633bd0c19f146105415780634339da1c1461056957806346551ece1461057c57600080fd5b80631c283321116103515780632e6997fe116103205780632e6997fe146104fc5780632f2ff15d1461051357806336568abe146105265780633866965c1461053957600080fd5b80631c2833211461047e5780632298524614610491578063248a9ca3146104c657806324d7806c146104e957600080fd5b8063091e3be31161038d578063091e3be31461042d5780631785f53c1461044057806319a93b88146104535780631a4f1eb91461046b57600080fd5b806301ffc9a7146103b457806304196138146103dc5780630495189114610418575b600080fd5b6103c76103c236600461385e565b610960565b60405190151581526020015b60405180910390f35b6104036103ea36600461389c565b6012602052600090815260409020805460019091015482565b604080519283526020830191909152016103d3565b61042b61042636600461389c565b610997565b005b61042b61043b3660046138c9565b610b3f565b61042b61044e3660046138f9565b610bfc565b61045b610c77565b6040516103d39493929190613a2c565b61042b610479366004613abf565b610fef565b6103c761048c366004613abf565b61107c565b6104b87ffb5864e8ff833c3cb2d2d08505e82ff02a43554c74a35d4f5a64e8526127831181565b6040519081526020016103d3565b6104b86104d4366004613abf565b60009081526020819052604090206001015490565b6103c76104f73660046138f9565b6110ff565b61050461113f565b6040516103d393929190613ad8565b61042b610521366004613b1b565b6113bf565b61042b610534366004613b1b565b6113e9565b6014546104b8565b61055461054f366004613abf565b611475565b60405163ffffffff90911681526020016103d3565b610554610577366004613abf565b6114af565b6104b861058a36600461389c565b60106020526000908152604090205481565b6104b8600e5481565b6104b86105b3366004613b4b565b6114bf565b6105e16105c636600461385e565b6004602052600090815260409020546001600160a01b031681565b6040516001600160a01b0390911681526020016103d3565b6103c76106073660046138f9565b60036020526000908152604090205460ff1681565b60155461055490640100000000900463ffffffff1681565b6104b8600d5481565b6103c761064b36600461389c565b61158f565b6001546103c79060ff1681565b600f546104b8565b61042b610673366004613b79565b6115b6565b6008546105e1906001600160a01b031681565b6103c761069936600461389c565b611780565b61042b6106ac3660046138f9565b61179e565b6006546105e1906001600160a01b031681565b61042b6106d23660046138f9565b611816565b6104b87fdf8b4c520ffe197c5343c6f5aec59570151ef9a492f2c624fd45ddde6135ec4281565b61042b61070c366004613abf565b611966565b6104b86119f3565b6105e161072736600461389c565b611ad3565b6015546105549063ffffffff1681565b6103c761074a366004613b1b565b6000918252602082815260408084206001600160a01b0393909316845291905290205460ff1690565b610554610781366004613ba3565b611b5b565b6104b8600081565b6104b8600a5481565b61042b6107a5366004613abf565b612148565b6107fc6107b836600461389c565b60408051808201909152600080825260208201525063ffffffff16600090815260126020908152604091829020825180840190935280548352600101549082015290565b6040516103d39190613be7565b6104b861081736600461389c565b61220c565b6105e161082a366004613abf565b6002602052600090815260409020546001600160a01b031681565b60155461085a90600160401b900461ffff1681565b60405161ffff90911681526020016103d3565b6104b8600b5481565b6005546105e1906001600160a01b031681565b6104b8600c5481565b6104b86108a036600461389c565b60116020526000908152604090205481565b61042b6108c0366004613b1b565b6122b4565b61042b6108d3366004613abf565b6122d9565b6007546105e1906001600160a01b031681565b6103c76108f9366004613abf565b60136020526000908152604090205460ff1681565b6104b8612366565b61042b612382565b61055461092c366004613bfe565b61269c565b61042b61093f366004613b79565b612d66565b6104b860095481565b6104b861095b3660046138f9565b6131c3565b60006001600160e01b03198216637965db0b60e01b148061099157506301ffc9a760e01b6001600160e01b03198316145b92915050565b63ffffffff811660009081526012602052604081206001015490819003610a055760405162461bcd60e51b815260206004820152601260248201527f6e6f20616d6f756e7420746f20636c61696d000000000000000000000000000060448201526064015b60405180910390fd5b6000610a1083611ad3565b90506001600160a01b038116610a685760405162461bcd60e51b815260206004820152600e60248201527f7a65726f2073657175656e63657200000000000000000000000000000000000060448201526064016109fc565b63ffffffff8316600090815260126020526040808220600101919091556006549051635569f64b60e11b81526001600160a01b038381166004830152602482018590529091169063aad3ec9690604401600060405180830381600087803b158015610ad257600080fd5b505af1158015610ae6573d6000803e3d6000fd5b50506040805163ffffffff871681526001600160a01b03851660208201529081018590527fdc8b8058bd26d719cc330a54461930fd9c312dd28447313fd5dc4641513e00749250606001905060405180910390a1505050565b610b48336110ff565b610b8d5760405162461bcd60e51b81526020600482015260226024820152600080516020613fc483398151915260448201526134b760f11b60648201526084016109fc565b60155461ffff808316600160401b9092041603610bd55760405162461bcd60e51b81526004016109fc9060208082526004908201526373616d6560e01b604082015260600190565b6015805461ffff909216600160401b0269ffff000000000000000019909216919091179055565b610c05336110ff565b610c4a5760405162461bcd60e51b81526020600482015260226024820152600080516020613fc483398151915260448201526134b760f11b60648201526084016109fc565b610c747fdf8b4c520ffe197c5343c6f5aec59570151ef9a492f2c624fd45ddde6135ec42826113e9565b50565b600f546060908190819081908067ffffffffffffffff811115610c9c57610c9c613c6e565b604051908082528060200260200182016040528015610cc5578160200160208202803683370190505b50600f805460408051602080840282018101909252828152939850830182828015610d3b57602002820191906000526020600020906000905b82829054906101000a900463ffffffff1663ffffffff1681526020019060040190602082600301049283019260010382029150808411610cfe5790505b505050505093508067ffffffffffffffff811115610d5b57610d5b613c6e565b604051908082528060200260200182016040528015610da057816020015b6040805180820190915260008082526020820152815260200190600190039081610d795790505b5092508067ffffffffffffffff811115610dbc57610dbc613c6e565b604051908082528060200260200182016040528015610def57816020015b6060815260200190600190039081610dda5790505b50915060005b81811015610fe75760106000600f8381548110610e1457610e14613c84565b90600052602060002090600891828204019190066004029054906101000a900463ffffffff1663ffffffff1663ffffffff16815260200190815260200160002054868281518110610e6757610e67613c84565b60200260200101818152505060126000600f8381548110610e8a57610e8a613c84565b90600052602060002090600891828204019190066004029054906101000a900463ffffffff1663ffffffff1663ffffffff16815260200190815260200160002060405180604001604052908160008201548152602001600182015481525050848281518110610efb57610efb613c84565b6020908102919091010152600754600f80546001600160a01b039092169163659ab820919084908110610f3057610f30613c84565b6000918252602090912060088204015460405160e084901b6001600160e01b0319168152600790921660049081026101000a90910463ffffffff1690820152602401600060405180830381865afa158015610f8f573d6000803e3d6000fd5b505050506040513d6000823e601f3d908101601f19168201604052610fb79190810190613c9a565b838281518110610fc957610fc9613c84565b60200260200101819052508080610fdf90613d5d565b915050610df5565b505090919293565b610ff8336110ff565b61103d5760405162461bcd60e51b81526020600482015260226024820152600080516020613fc483398151915260448201526134b760f11b60648201526084016109fc565b80600b54036110775760405162461bcd60e51b81526004016109fc9060208082526004908201526373616d6560e01b604082015260600190565b600b55565b6006546000906001600160a01b031633146110d95760405162461bcd60e51b815260206004820152601b60248201527f63616c6c6572206973206e6f7420536569674d616e616765725632000000000060448201526064016109fc565b81156110f75781600e60008282546110f19190613d76565b90915550505b506001919050565b6001600160a01b03811660009081527f5cbfc8ee58ca47855df7bcf648dd304ddb6b932f9b87878bdf6318d7ec7ee5b7602052604081205460ff16610991565b601454606090819081908067ffffffffffffffff81111561116257611162613c6e565b60405190808252806020026020018201604052801561118b578160200160208202803683370190505b50601480546040805160208084028201810190925282815293975083018282801561120157602002820191906000526020600020906000905b82829054906101000a900463ffffffff1663ffffffff16815260200190600401906020826003010492830192600103820291508084116111c45790505b505050505092508067ffffffffffffffff81111561122157611221613c6e565b60405190808252806020026020018201604052801561125457816020015b606081526020019060019003908161123f5790505b50915060005b818110156113b857601160006014838154811061127957611279613c84565b90600052602060002090600891828204019190066004029054906101000a900463ffffffff1663ffffffff1663ffffffff168152602001908152602001600020548582815181106112cc576112cc613c84565b6020908102919091010152600854601480546001600160a01b039092169163659ab82091908490811061130157611301613c84565b6000918252602090912060088204015460405160e084901b6001600160e01b0319168152600790921660049081026101000a90910463ffffffff1690820152602401600060405180830381865afa158015611360573d6000803e3d6000fd5b505050506040513d6000823e601f3d908101601f191682016040526113889190810190613c9a565b83828151811061139a5761139a613c84565b602002602001018190525080806113b090613d5d565b91505061125a565b5050909192565b6000828152602081905260409020600101546113da816132b4565b6113e483836132be565b505050565b6001600160a01b03811633146114675760405162461bcd60e51b815260206004820152602f60248201527f416363657373436f6e74726f6c3a2063616e206f6e6c792072656e6f756e636560448201527f20726f6c657320666f722073656c66000000000000000000000000000000000060648201526084016109fc565b611471828261335c565b5050565b6014818154811061148557600080fd5b9060005260206000209060089182820401919006600402915054906101000a900463ffffffff1681565b600f818154811061148557600080fd5b601554600090600160401b900461ffff1681036114df5750600954610991565b60155460075460405163edcc217760e01b81526001600160a01b03868116600483015285811660248301526115889361271093600160401b90910461ffff169291169063edcc217790604401602060405180830381865afa158015611548573d6000803e3d6000fd5b505050506040513d601f19601f8201168201806040525081019061156c9190613d89565b6115769190613da2565b6115809190613db9565b6009546133db565b9392505050565b60155460009063ffffffff6401000000009091048116908316116115b1575060015b919050565b601554600160501b900460ff166115f85760405162461bcd60e51b81526004016109fc906020808252600490820152636c6f636b60e01b604082015260600190565b6015805460ff60501b191690558163ffffffff81166000036116415760405162461bcd60e51b81526020600482015260026024820152615a3160f01b60448201526064016109fc565b81806000036116775760405162461bcd60e51b81526020600482015260026024820152615a3160f01b60448201526064016109fc565b60155463ffffffff90811690851611156116c15760405162461bcd60e51b815260206004820152600b60248201526a0eee4dedcce40d2dcc8caf60ab1b60448201526064016109fc565b6005546116d9906001600160a01b03163330866133f1565b63ffffffff84166000908152601260205260408120805490918591839190611702908490613d76565b9250508190555083600d600082825461171b9190613d76565b90915550506040805163ffffffff871681523360208201529081018590527f75d95e3e2cd0899a7e9451555815404d25586e691502bc69417edacc489173a69060600160405180910390a150506015805460ff60501b1916600160501b179055505050565b60155460009063ffffffff908116908316116115b157506001919050565b6117a7336110ff565b6117ec5760405162461bcd60e51b81526020600482015260226024820152600080516020613fc483398151915260448201526134b760f11b60648201526084016109fc565b610c747fdf8b4c520ffe197c5343c6f5aec59570151ef9a492f2c624fd45ddde6135ec42826113bf565b61181f336110ff565b6118645760405162461bcd60e51b81526020600482015260226024820152600080516020613fc483398151915260448201526134b760f11b60648201526084016109fc565b6001600160a01b0381166118ba5760405162461bcd60e51b815260206004820152601860248201527f41636365737369626c653a207a65726f2061646472657373000000000000000060448201526064016109fc565b6001600160a01b03811633036119125760405162461bcd60e51b815260206004820152601660248201527f41636365737369626c653a2073616d652061646d696e0000000000000000000060448201526064016109fc565b61193c7fdf8b4c520ffe197c5343c6f5aec59570151ef9a492f2c624fd45ddde6135ec42826113bf565b610c747fdf8b4c520ffe197c5343c6f5aec59570151ef9a492f2c624fd45ddde6135ec42336113e9565b61196f336110ff565b6119b45760405162461bcd60e51b81526020600482015260226024820152600080516020613fc483398151915260448201526134b760f11b60648201526084016109fc565b80600954036119ee5760405162461bcd60e51b81526004016109fc9060208082526004908201526373616d6560e01b604082015260600190565b600955565b600f54600090815b81811015611ace57600754600f80546001600160a01b03909216916341e5dbe8919084908110611a2d57611a2d613c84565b6000918252602090912060088204015460405160e084901b6001600160e01b0319168152600790921660049081026101000a90910463ffffffff1690820152602401602060405180830381865afa158015611a8c573d6000803e3d6000fd5b505050506040513d601f19601f82011682018060405250810190611ab09190613d89565b611aba9084613d76565b925080611ac681613d5d565b9150506119fb565b505090565b60155460009063ffffffff908116908316116115b15760075460405163468f9e8560e11b815263ffffffff841660048201526001600160a01b0390911690638d1f3d0a90602401602060405180830381865afa158015611b37573d6000803e3d6000fd5b505050506040513d601f19601f820116820180604052508101906109919190613ddb565b6000848063ffffffff16600003611b995760405162461bcd60e51b81526020600482015260026024820152615a3160f01b60448201526064016109fc565b601554600160501b900460ff16611bdb5760405162461bcd60e51b81526004016109fc906020808252600490820152636c6f636b60e01b604082015260600190565b6015805460ff60501b19811690915563ffffffff9081169087161115611c315760405162461bcd60e51b815260206004820152600b60248201526a0eee4dedcce40d2dcc8caf60ab1b60448201526064016109fc565b604051633be35f5f60e21b815233600482015263ffffffff8716602482015260009073__$d436d56fec194dfaaabaf06742f0275c03$__9063ef8d7d7c90604401602060405180830381865af4158015611c8f573d6000803e3d6000fd5b505050506040513d601f19601f82011682018060405250810190611cb39190613d89565b60008181526013602052604090205490915060ff1615611d075760405162461bcd60e51b815260206004820152600f60248201526e185b1c9958591e4818dc99585d1959608a1b60448201526064016109fc565b600a54841015611d595760405162461bcd60e51b815260206004820152601f60248201527f7365637572697479206465706f73697420697320696e737566666963656e740060448201526064016109fc565b6000818152601360205260408120805460ff1916600117905560158054600490611d919063ffffffff64010000000090910416613df8565b825461010092830a63ffffffff818102199092168383169182021790945560148054600181019091557fce6d7b5282bd9a3661ae061feed1dbda4e52ab073b1f9285be6e155d9c38d4ec60088204018054600790921660040290940a91820219169084021790915560009182526011602052604090912088905590508415611e2b57600554611e2b906001600160a01b03163330886133f1565b600554600854604051636eb1769f60e11b81523060048201526001600160a01b0391821660248201528792919091169063dd62ed3e90604401602060405180830381865afa158015611e81573d6000803e3d6000fd5b505050506040513d601f19601f82011682018060405250810190611ea59190613d89565b1015611f9757600554600854604080516318160ddd60e01b815290516001600160a01b039384169363095ea7b393169184916318160ddd916004808201926020929091908290030181865afa158015611f02573d6000803e3d6000fd5b505050506040513d601f19601f82011682018060405250810190611f269190613d89565b6040516001600160e01b031960e085901b1681526001600160a01b03909216600483015260248201526044016020604051808303816000875af1158015611f71573d6000803e3d6000fd5b505050506040513d601f19601f82011682018060405250810190611f959190613e1b565b505b600854604080513360601b6bffffffffffffffffffffffff1916602082015260e08b901b6001600160e01b031916603482015260f089901b7fffff000000000000000000000000000000000000000000000000000000000000166038820152603a80820189905282518083039091018152605a820192839052630df2b42960e41b9092526001600160a01b039092169163df2b42909161203c91859190605e01613e3d565b6020604051808303816000875af115801561205b573d6000803e3d6000fd5b505050506040513d601f19601f8201168201806040525081019061207f9190613e1b565b6120cb5760405162461bcd60e51b815260206004820152601460248201527f4661696c2063726561746543616e64696461746500000000000000000000000060448201526064016109fc565b6040805163ffffffff83811682523360208301528183018a90528a16606082015261ffff8816608082015260a0810187905290517f342dd5ffb5ac74e51a17692939edd209c3e7b77cba98cdc874b1563f60ad0b889181900360c00190a1925050506015805460ff60501b1916600160501b179055949350505050565b808060000361217e5760405162461bcd60e51b81526020600482015260026024820152615a3160f01b60448201526064016109fc565b612187336110ff565b6121cc5760405162461bcd60e51b81526020600482015260226024820152600080516020613fc483398151915260448201526134b760f11b60648201526084016109fc565b81600c54036122065760405162461bcd60e51b81526004016109fc9060208082526004908201526373616d6560e01b604082015260600190565b50600c55565b60075460405163083cbb7d60e31b815263ffffffff831660048201526000916001600160a01b0316906341e5dbe890602401602060405180830381865afa925050508015612277575060408051601f3d908101601f1916820190925261227491810190613d89565b60015b610991573d8080156122a5576040519150601f19603f3d011682016040523d82523d6000602084013e6122aa565b606091505b5060009392505050565b6000828152602081905260409020600101546122cf816132b4565b6113e4838361335c565b6122e2336110ff565b6123275760405162461bcd60e51b81526020600482015260226024820152600080516020613fc483398151915260448201526134b760f11b60648201526084016109fc565b80600a54036123615760405162461bcd60e51b81526004016109fc9060208082526004908201526373616d6560e01b604082015260600190565b600a55565b6000600d546123736119f3565b61237d9190613d76565b905090565b600e546000036123d45760405162461bcd60e51b815260206004820152601760248201527f6e6f2064697374726962757461626c6520616d6f756e7400000000000000000060448201526064016109fc565b600f546000808267ffffffffffffffff8111156123f3576123f3613c6e565b60405190808252806020026020018201604052801561241c578160200160208202803683370190505b50905060005b83811015612539576000600f828154811061243f5761243f613c84565b6000918252602080832060088304015460079092166004026101000a90910463ffffffff16808352601282526040928390208351808501909452805480855260019091015492840192909252600954909350116125025761249f8261220c565b81516124ab9190613d76565b8484815181106124bd576124bd613c84565b602002602001018181516124d19190613d76565b90525083518490849081106124e8576124e8613c84565b6020026020010151856124fb9190613d76565b9450612524565b61250b8261220c565b81516125179190613d76565b6125219086613d76565b94505b5050808061253190613d5d565b915050612422565b506000821561265a5760005b8481101561263b57600083828151811061256157612561613c84565b602002602001015111156126295760008484838151811061258457612584613c84565b6020026020010151600e546125999190613da2565b6125a39190613db9565b9050600060126000600f85815481106125be576125be613c84565b90600052602060002090600891828204019190066004029054906101000a900463ffffffff1663ffffffff1663ffffffff1681526020019081526020016000209050818160010160008282546126149190613d76565b9091555061262490508285613d76565b935050505b8061263381613d5d565b915050612545565b50801561265a5780600e60008282546126549190613e64565b90915550505b600e5460408051918252602082018390527f97791d3ac1343e05805a2f905fa80b249c2ca58cf9fef455d4fa7ec13ce58321910160405180910390a150505050565b601554600090600160501b900460ff166126e15760405162461bcd60e51b81526004016109fc906020808252600490820152636c6f636b60e01b604082015260600190565b6015805460ff60501b1916905560405163bf40fac160e01b815260206004820152600d60248201527f4f564d5f53657175656e6365720000000000000000000000000000000000000060448201526001600160a01b0387169063bf40fac190606401602060405180830381865afa158015612760573d6000803e3d6000fd5b505050506040513d601f19601f820116820180604052508101906127849190613ddb565b6001600160a01b0316336001600160a01b0316146127e45760405162461bcd60e51b815260206004820152600d60248201527f4e4f542053657175656e6365720000000000000000000000000000000000000060448201526064016109fc565b600c5460155463ffffffff161061283d5760405162461bcd60e51b815260206004820152601760248201527f6578636565646564206d61784c6179657232436f756e7400000000000000000060448201526064016109fc565b6001600160a01b0386161580159061285d57506001600160a01b03831615155b6128a95760405162461bcd60e51b815260206004820152600c60248201527f7a65726f2061646472657373000000000000000000000000000000000000000060448201526064016109fc565b60405163cd13ec8760e01b81526001600160a01b038088166004830152808716602483015280861660448301528416606482015260009073__$35081dc60fc26376aafbbba403b8b17c43$__9063cd13ec8790608401602060405180830381865af415801561291c573d6000803e3d6000fd5b505050506040513d601f19601f820116820180604052508101906129409190613d89565b60008181526013602052604090205490915060ff16156129945760405162461bcd60e51b815260206004820152600f60248201526e185b1c9958591e4818dc99585d1959608a1b60448201526064016109fc565b60075460405163516e4f0160e11b81526001600160a01b038981166004830152600092169063a2dc9e0290602401602060405180830381865afa1580156129df573d6000803e3d6000fd5b505050506040513d601f19601f82011682018060405250810190612a039190613ddb565b9050806001600160a01b0316876001600160a01b031614612a665760405162461bcd60e51b815260206004820152601260248201527f646966666572656e74206c31427269646765000000000000000000000000000060448201526064016109fc565b612a7087866114bf565b841015612abf5760405162461bcd60e51b815260206004820152601f60248201527f7365637572697479206465706f73697420697320696e737566666963656e740060448201526064016109fc565b6000828152601360205260408120805460ff19166001179055601580548290612aed9063ffffffff16613df8565b91906101000a81548163ffffffff021916908363ffffffff1602179055905084600d6000828254612b1e9190613d76565b9091555050600f805460018101909155600881047f8d1108e10bcb7c27dddfc02ed9d693a074039d026cf4ea4240b40f7d581ac80201805463ffffffff80851660046007958616026101000a81810292021990921617909155600090815260126020908152604080832089815560108352928190208e90559254925191926001600160a01b03169163df2b4290918591612bf6918f918f918f918f9101606094851b6bffffffffffffffffffffffff19908116825293851b8416601482015291841b8316602883015290921b16603c82015260500190565b6040516020818303038152906040526040518363ffffffff1660e01b8152600401612c22929190613e3d565b6020604051808303816000875af1158015612c41573d6000803e3d6000fd5b505050506040513d601f19601f82011682018060405250810190612c659190613e1b565b612cb15760405162461bcd60e51b815260206004820152601c60248201527f4661696c206372656174654f7074696d69736d53657175656e6365720000000060448201526064016109fc565b8515612ccf57600554612ccf906001600160a01b03163330896133f1565b6040805163ffffffff841681523360208201529081018c90526001600160a01b03808c166060830152808b166080830152808a1660a0830152881660c082015260e081018790527f83d9a9b76130ffa963fa4c558a5ab61c74726896c79673e9d620739aebf93953906101000160405180910390a150925050506015805460ff60501b1916600160501b1790559695505050505050565b601554600160501b900460ff16612da85760405162461bcd60e51b81526004016109fc906020808252600490820152636c6f636b60e01b604082015260600190565b6015805460ff60501b191690558163ffffffff8116600003612df15760405162461bcd60e51b81526020600482015260026024820152615a3160f01b60448201526064016109fc565b8180600003612e275760405162461bcd60e51b81526020600482015260026024820152615a3160f01b60448201526064016109fc565b60155463ffffffff9081169085161115612e715760405162461bcd60e51b815260206004820152600b60248201526a0eee4dedcce40d2dcc8caf60ab1b60448201526064016109fc565b600754604051638c6f1b3960e01b815263ffffffff861660048201526000916001600160a01b031690638c6f1b3990602401608060405180830381865afa158015612ec0573d6000803e3d6000fd5b505050506040513d601f19601f82011682018060405250810190612ee49190613e77565b6007548151604051635d0c7b2b60e01b81526001600160a01b039182166004820152929350600092911690635d0c7b2b90602401602060405180830381865afa158015612f35573d6000803e3d6000fd5b505050506040513d601f19601f82011682018060405250810190612f599190613ddb565b90506001600160a01b03811615801590612f7b57506001600160a01b03811633145b612fc75760405162461bcd60e51b815260206004820181905260248201527f73657175656e636572206973207a65726f206f72206e6f742063616c6c65722e60448201526064016109fc565b600754825160405163516e4f0160e11b81526001600160a01b039182166004820152600092919091169063a2dc9e0290602401602060405180830381865afa158015613017573d6000803e3d6000fd5b505050506040513d601f19601f8201168201806040525081019061303b9190613ddb565b90506001600160a01b0381166130935760405162461bcd60e51b815260206004820152600d60248201527f7a65726f206c314272696467650000000000000000000000000000000000000060448201526064016109fc565b60006130a38285606001516114bf565b63ffffffff891660009081526012602052604090208054919250906130c8838a613d76565b11156131165760405162461bcd60e51b815260206004820152601460248201527f696e73756666696369656e74206465706f73697400000000000000000000000060448201526064016109fc565b8781600001600082825461312a9190613e64565b9250508190555087600d60008282546131439190613e64565b909155505060055461315f906001600160a01b0316338a613515565b6040805163ffffffff8b1681523360208201529081018990527f15842789f01ee00184461198846223c315588d35fc8202916432ef78775d62c09060600160405180910390a150506015805460ff60501b1916600160501b17905550505050505050565b600f54600090815b818110156132ad57600754600f80546001600160a01b0390921691635f1b989e9190849081106131fd576131fd613c84565b6000918252602090912060088204015460405160e084901b6001600160e01b0319168152600790921660049081026101000a90910463ffffffff16908201526001600160a01b0387166024820152604401602060405180830381865afa15801561326b573d6000803e3d6000fd5b505050506040513d601f19601f8201168201806040525081019061328f9190613d89565b6132999084613d76565b9250806132a581613d5d565b9150506131cb565b5050919050565b610c748133613630565b6000828152602081815260408083206001600160a01b038516845290915290205460ff16611471576000828152602081815260408083206001600160a01b03851684529091529020805460ff191660011790556133183390565b6001600160a01b0316816001600160a01b0316837f2f8788117e7eff1d82e926ec794901d17c78024a50270940304540a733656f0d60405160405180910390a45050565b6000828152602081815260408083206001600160a01b038516845290915290205460ff1615611471576000828152602081815260408083206001600160a01b0385168085529252808320805460ff1916905551339285917ff6391f5c32d9c69d2a47ea670b442974b53935d1edc7fd64eb21e047a839171b9190a45050565b60008183116133ea5781611588565b5090919050565b604080516001600160a01b0385811660248301528481166044830152606480830185905283518084039091018152608490920183526020820180516001600160e01b03166323b872dd60e01b17905291516000928392908816916134559190613efc565b6000604051808303816000865af19150503d8060008114613492576040519150601f19603f3d011682016040523d82523d6000602084013e613497565b606091505b50915091508180156134c15750805115806134c15750808060200190518101906134c19190613e1b565b61350d5760405162461bcd60e51b815260206004820152601460248201527f5452414e534645525f46524f4d5f4641494c454400000000000000000000000060448201526064016109fc565b505050505050565b604080516001600160a01b038481166024830152604480830185905283518084039091018152606490920183526020820180516001600160e01b031663a9059cbb60e01b17905291516000928392908716916135719190613efc565b6000604051808303816000865af19150503d80600081146135ae576040519150601f19603f3d011682016040523d82523d6000602084013e6135b3565b606091505b50915091508180156135dd5750805115806135dd5750808060200190518101906135dd9190613e1b565b6136295760405162461bcd60e51b815260206004820152600f60248201527f5452414e534645525f4641494c4544000000000000000000000000000000000060448201526064016109fc565b5050505050565b6000828152602081815260408083206001600160a01b038516845290915290205460ff1661147157613661816136a3565b61366c8360206136b5565b60405160200161367d929190613f18565b60408051601f198184030181529082905262461bcd60e51b82526109fc91600401613f99565b60606109916001600160a01b03831660145b606060006136c4836002613da2565b6136cf906002613d76565b67ffffffffffffffff8111156136e7576136e7613c6e565b6040519080825280601f01601f191660200182016040528015613711576020820181803683370190505b509050600360fc1b8160008151811061372c5761372c613c84565b60200101906001600160f81b031916908160001a905350600f60fb1b8160018151811061375b5761375b613c84565b60200101906001600160f81b031916908160001a905350600061377f846002613da2565b61378a906001613d76565b90505b600181111561380f577f303132333435363738396162636465660000000000000000000000000000000085600f16601081106137cb576137cb613c84565b1a60f81b8282815181106137e1576137e1613c84565b60200101906001600160f81b031916908160001a90535060049490941c9361380881613fac565b905061378d565b5083156115885760405162461bcd60e51b815260206004820181905260248201527f537472696e67733a20686578206c656e67746820696e73756666696369656e7460448201526064016109fc565b60006020828403121561387057600080fd5b81356001600160e01b03198116811461158857600080fd5b803563ffffffff811681146115b157600080fd5b6000602082840312156138ae57600080fd5b61158882613888565b803561ffff811681146115b157600080fd5b6000602082840312156138db57600080fd5b611588826138b7565b6001600160a01b0381168114610c7457600080fd5b60006020828403121561390b57600080fd5b8135611588816138e4565b600081518084526020808501945080840160005b838110156139465781518752958201959082019060010161392a565b509495945050505050565b600081518084526020808501945080840160005b8381101561394657815163ffffffff1687529582019590820190600101613965565b60005b838110156139a257818101518382015260200161398a565b50506000910152565b600081518084526139c3816020860160208601613987565b601f01601f19169290920160200192915050565b600081518084526020808501808196508360051b8101915082860160005b85811015613a1f578284038952613a0d8483516139ab565b988501989350908401906001016139f5565b5091979650505050505050565b608081526000613a3f6080830187613916565b602083820381850152613a528288613951565b91506040848303818601528287518085528385019150838901945060005b81811015613a9d57613a8d83875180518252602090810151910152565b9484019491830191600101613a70565b50508581036060870152613ab181886139d7565b9a9950505050505050505050565b600060208284031215613ad157600080fd5b5035919050565b606081526000613aeb6060830186613916565b8281036020840152613afd8186613951565b90508281036040840152613b1181856139d7565b9695505050505050565b60008060408385031215613b2e57600080fd5b823591506020830135613b40816138e4565b809150509250929050565b60008060408385031215613b5e57600080fd5b8235613b69816138e4565b91506020830135613b40816138e4565b60008060408385031215613b8c57600080fd5b613b9583613888565b946020939093013593505050565b60008060008060808587031215613bb957600080fd5b613bc285613888565b935060208501359250613bd7604086016138b7565b9396929550929360600135925050565b815181526020808301519082015260408101610991565b60008060008060008060c08789031215613c1757600080fd5b863595506020870135613c29816138e4565b94506040870135613c39816138e4565b93506060870135613c49816138e4565b92506080870135613c59816138e4565b8092505060a087013590509295509295509295565b634e487b7160e01b600052604160045260246000fd5b634e487b7160e01b600052603260045260246000fd5b600060208284031215613cac57600080fd5b815167ffffffffffffffff80821115613cc457600080fd5b818401915084601f830112613cd857600080fd5b815181811115613cea57613cea613c6e565b604051601f8201601f19908116603f01168101908382118183101715613d1257613d12613c6e565b81604052828152876020848701011115613d2b57600080fd5b613d3c836020830160208801613987565b979650505050505050565b634e487b7160e01b600052601160045260246000fd5b600060018201613d6f57613d6f613d47565b5060010190565b8082018082111561099157610991613d47565b600060208284031215613d9b57600080fd5b5051919050565b808202811582820484141761099157610991613d47565b600082613dd657634e487b7160e01b600052601260045260246000fd5b500490565b600060208284031215613ded57600080fd5b8151611588816138e4565b600063ffffffff808316818103613e1157613e11613d47565b6001019392505050565b600060208284031215613e2d57600080fd5b8151801515811461158857600080fd5b63ffffffff83168152604060208201526000613e5c60408301846139ab565b949350505050565b8181038181111561099157610991613d47565b600060808284031215613e8957600080fd5b6040516080810181811067ffffffffffffffff82111715613eac57613eac613c6e565b6040528251613eba816138e4565b81526020830151613eca816138e4565b60208201526040830151613edd816138e4565b60408201526060830151613ef0816138e4565b60608201529392505050565b60008251613f0e818460208701613987565b9190910192915050565b7f416363657373436f6e74726f6c3a206163636f756e7420000000000000000000815260008351613f50816017850160208801613987565b7f206973206d697373696e6720726f6c65200000000000000000000000000000006017918401918201528351613f8d816028840160208801613987565b01602801949350505050565b60208152600061158860208301846139ab565b600081613fbb57613fbb613d47565b50600019019056fe41636365737369626c653a2043616c6c6572206973206e6f7420616e2061646da164736f6c6343000812000a",
  "linkReferences": {
    "contracts/libraries/LibOperator.sol": {
      "LibOperator": [
        {
          "length": 20,
          "start": 7311
        }
      ]
    },
    "contracts/libraries/LibOptimism.sol": {
      "LibOptimism": [
        {
          "length": 20,
          "start": 10524
        }
      ]
    }
  },
  "deployedLinkReferences": {
    "contracts/libraries/LibOperator.sol": {
      "LibOperator": [
        {
          "length": 20,
          "start": 7253
        }
      ]
    },
    "contracts/libraries/LibOptimism.sol": {
      "LibOptimism": [
        {
          "length": 20,
          "start": 10466
        }
      ]
    }
  }
}