{
  "_format": "hh-sol-artifact-1",
  "contractName": "Layer2Manager",
  "sourceName": "contracts/Layer2Manager.sol",
  "abi": [
    {
      "inputs": [],
      "stateMutability": "nonpayable",
      "type": "constructor"
    },
    {
      "anonymous": false,
      "inputs": [
        {
          "indexed": false,
          "internalType": "uint32",
          "name": "_index",
          "type": "uint32"
        },
        {
          "indexed": false,
          "internalType": "address",
          "name": "_sequencer",
          "type": "address"
        },
        {
          "indexed": false,
          "internalType": "uint256",
          "name": "amount",
          "type": "uint256"
        }
      ],
      "name": "Claimed",
      "type": "event"
    },
    {
      "anonymous": false,
      "inputs": [
        {
          "indexed": false,
          "internalType": "uint32",
          "name": "_index",
          "type": "uint32"
        },
        {
          "indexed": false,
          "internalType": "address",
          "name": "_operator",
          "type": "address"
        },
        {
          "indexed": false,
          "internalType": "bytes32",
          "name": "_name",
          "type": "bytes32"
        },
        {
          "indexed": false,
          "internalType": "uint32",
          "name": "_sequencerIndex",
          "type": "uint32"
        },
        {
          "indexed": false,
          "internalType": "uint16",
          "name": "_commission",
          "type": "uint16"
        }
      ],
      "name": "CreatedCandidate",
      "type": "event"
    },
    {
      "anonymous": false,
      "inputs": [
        {
          "indexed": false,
          "internalType": "uint32",
          "name": "_index",
          "type": "uint32"
        },
        {
          "indexed": false,
          "internalType": "address",
          "name": "_sequencer",
          "type": "address"
        },
        {
          "indexed": false,
          "internalType": "bytes32",
          "name": "_name",
          "type": "bytes32"
        },
        {
          "indexed": false,
          "internalType": "address",
          "name": "addressManager",
          "type": "address"
        },
        {
          "indexed": false,
          "internalType": "address",
          "name": "l1Messenger",
          "type": "address"
        },
        {
          "indexed": false,
          "internalType": "address",
          "name": "l1Bridge",
          "type": "address"
        },
        {
          "indexed": false,
          "internalType": "address",
          "name": "l2ton",
          "type": "address"
        },
        {
          "indexed": false,
          "internalType": "uint256",
          "name": "depositAmount",
          "type": "uint256"
        }
      ],
      "name": "CreatedOptimismSequencer",
      "type": "event"
    },
    {
      "anonymous": false,
      "inputs": [
        {
          "indexed": false,
          "internalType": "uint32",
          "name": "_index",
          "type": "uint32"
        },
        {
          "indexed": false,
          "internalType": "address",
          "name": "_sequencer",
          "type": "address"
        },
        {
          "indexed": false,
          "internalType": "uint256",
          "name": "amount",
          "type": "uint256"
        }
      ],
      "name": "DecreasedSecurityDeposit",
      "type": "event"
    },
    {
      "anonymous": false,
      "inputs": [
        {
          "indexed": false,
          "internalType": "uint256",
          "name": "_totalSeigs",
          "type": "uint256"
        },
        {
          "indexed": false,
          "internalType": "uint256",
          "name": "_distributedAmount",
          "type": "uint256"
        }
      ],
      "name": "Distributed",
      "type": "event"
    },
    {
      "anonymous": false,
      "inputs": [
        {
          "indexed": false,
          "internalType": "uint32",
          "name": "_index",
          "type": "uint32"
        },
        {
          "indexed": false,
          "internalType": "address",
          "name": "caller",
          "type": "address"
        },
        {
          "indexed": false,
          "internalType": "uint256",
          "name": "amount",
          "type": "uint256"
        }
      ],
      "name": "IncreasedSecurityDeposit",
      "type": "event"
    },
    {
      "anonymous": false,
      "inputs": [
        {
          "indexed": true,
          "internalType": "bytes32",
          "name": "role",
          "type": "bytes32"
        },
        {
          "indexed": true,
          "internalType": "bytes32",
          "name": "previousAdminRole",
          "type": "bytes32"
        },
        {
          "indexed": true,
          "internalType": "bytes32",
          "name": "newAdminRole",
          "type": "bytes32"
        }
      ],
      "name": "RoleAdminChanged",
      "type": "event"
    },
    {
      "anonymous": false,
      "inputs": [
        {
          "indexed": true,
          "internalType": "bytes32",
          "name": "role",
          "type": "bytes32"
        },
        {
          "indexed": true,
          "internalType": "address",
          "name": "account",
          "type": "address"
        },
        {
          "indexed": true,
          "internalType": "address",
          "name": "sender",
          "type": "address"
        }
      ],
      "name": "RoleGranted",
      "type": "event"
    },
    {
      "anonymous": false,
      "inputs": [
        {
          "indexed": true,
          "internalType": "bytes32",
          "name": "role",
          "type": "bytes32"
        },
        {
          "indexed": true,
          "internalType": "address",
          "name": "account",
          "type": "address"
        },
        {
          "indexed": true,
          "internalType": "address",
          "name": "sender",
          "type": "address"
        }
      ],
      "name": "RoleRevoked",
      "type": "event"
    },
    {
      "inputs": [],
      "name": "ADMIN_ROLE",
      "outputs": [
        {
          "internalType": "bytes32",
          "name": "",
          "type": "bytes32"
        }
      ],
      "stateMutability": "view",
      "type": "function"
    },
    {
      "inputs": [],
      "name": "DEFAULT_ADMIN_ROLE",
      "outputs": [
        {
          "internalType": "bytes32",
          "name": "",
          "type": "bytes32"
        }
      ],
      "stateMutability": "view",
      "type": "function"
    },
    {
      "inputs": [],
      "name": "POLICY_ROLE",
      "outputs": [
        {
          "internalType": "bytes32",
          "name": "",
          "type": "bytes32"
        }
      ],
      "stateMutability": "view",
      "type": "function"
    },
    {
      "inputs": [
        {
          "internalType": "address",
          "name": "account",
          "type": "address"
        }
      ],
      "name": "addAdmin",
      "outputs": [],
      "stateMutability": "nonpayable",
      "type": "function"
    },
    {
      "inputs": [
        {
          "internalType": "uint256",
          "name": "amount",
          "type": "uint256"
        }
      ],
      "name": "addSeigs",
      "outputs": [
        {
          "internalType": "bool",
          "name": "",
          "type": "bool"
        }
      ],
      "stateMutability": "nonpayable",
      "type": "function"
    },
    {
      "inputs": [
        {
          "internalType": "address",
          "name": "",
          "type": "address"
        }
      ],
      "name": "aliveImplementation",
      "outputs": [
        {
          "internalType": "bool",
          "name": "",
          "type": "bool"
        }
      ],
      "stateMutability": "view",
      "type": "function"
    },
    {
      "inputs": [
        {
          "internalType": "address",
          "name": "account",
          "type": "address"
        }
      ],
      "name": "balanceOfLton",
      "outputs": [
        {
          "internalType": "uint256",
          "name": "amount",
          "type": "uint256"
        }
      ],
      "stateMutability": "view",
      "type": "function"
    },
    {
      "inputs": [],
      "name": "candidate",
      "outputs": [
        {
          "internalType": "address",
          "name": "",
          "type": "address"
        }
      ],
      "stateMutability": "view",
      "type": "function"
    },
    {
      "inputs": [
        {
          "internalType": "uint32",
          "name": "",
          "type": "uint32"
        }
      ],
      "name": "candidateNames",
      "outputs": [
        {
          "internalType": "bytes32",
          "name": "",
          "type": "bytes32"
        }
      ],
      "stateMutability": "view",
      "type": "function"
    },
    {
      "inputs": [
        {
          "internalType": "uint256",
          "name": "",
          "type": "uint256"
        }
      ],
      "name": "candidatesIndexes",
      "outputs": [
        {
          "internalType": "uint32",
          "name": "",
          "type": "uint32"
        }
      ],
      "stateMutability": "view",
      "type": "function"
    },
    {
      "inputs": [
        {
          "internalType": "uint32",
          "name": "_layerIndex",
          "type": "uint32"
        }
      ],
      "name": "claim",
      "outputs": [],
      "stateMutability": "nonpayable",
      "type": "function"
    },
    {
      "inputs": [
        {
          "internalType": "uint32",
          "name": "_sequencerIndex",
          "type": "uint32"
        },
        {
          "internalType": "bytes32",
          "name": "_name",
          "type": "bytes32"
        },
        {
          "internalType": "uint16",
          "name": "_commission",
          "type": "uint16"
        }
      ],
      "name": "createCandidate",
      "outputs": [],
      "stateMutability": "nonpayable",
      "type": "function"
    },
    {
      "inputs": [
        {
          "internalType": "bytes32",
          "name": "_name",
          "type": "bytes32"
        },
        {
          "internalType": "address",
          "name": "addressManager",
          "type": "address"
        },
        {
          "internalType": "address",
          "name": "l1Messenger",
          "type": "address"
        },
        {
          "internalType": "address",
          "name": "l1Bridge",
          "type": "address"
        },
        {
          "internalType": "address",
          "name": "l2ton",
          "type": "address"
        }
      ],
      "name": "createOptimismSequencer",
      "outputs": [],
      "stateMutability": "nonpayable",
      "type": "function"
    },
    {
      "inputs": [],
      "name": "curTotalAmountsLayer2",
      "outputs": [
        {
          "internalType": "uint256",
          "name": "amount",
          "type": "uint256"
        }
      ],
      "stateMutability": "view",
      "type": "function"
    },
    {
      "inputs": [],
      "name": "curTotalLayer2Deposits",
      "outputs": [
        {
          "internalType": "uint256",
          "name": "amount",
          "type": "uint256"
        }
      ],
      "stateMutability": "view",
      "type": "function"
    },
    {
      "inputs": [
        {
          "internalType": "uint32",
          "name": "_layerIndex",
          "type": "uint32"
        }
      ],
      "name": "curlayer2DepositsOf",
      "outputs": [
        {
          "internalType": "uint256",
          "name": "amount",
          "type": "uint256"
        }
      ],
      "stateMutability": "view",
      "type": "function"
    },
    {
      "inputs": [
        {
          "internalType": "uint32",
          "name": "_sequencerIndex",
          "type": "uint32"
        },
        {
          "internalType": "uint256",
          "name": "amount",
          "type": "uint256"
        }
      ],
      "name": "decreaseSecurityDeposit",
      "outputs": [],
      "stateMutability": "nonpayable",
      "type": "function"
    },
    {
      "inputs": [],
      "name": "delayBlocksForWithdraw",
      "outputs": [
        {
          "internalType": "uint256",
          "name": "",
          "type": "uint256"
        }
      ],
      "stateMutability": "view",
      "type": "function"
    },
    {
      "inputs": [
        {
          "internalType": "uint32",
          "name": "_layerIndex",
          "type": "uint32"
        }
      ],
      "name": "depositsOf",
      "outputs": [
        {
          "internalType": "uint256",
          "name": "amount",
          "type": "uint256"
        }
      ],
      "stateMutability": "view",
      "type": "function"
    },
    {
      "inputs": [],
      "name": "distribute",
      "outputs": [],
      "stateMutability": "nonpayable",
      "type": "function"
    },
    {
      "inputs": [
        {
          "internalType": "uint32",
          "name": "_index",
          "type": "uint32"
        }
      ],
      "name": "existedCandidateIndex",
      "outputs": [
        {
          "internalType": "bool",
          "name": "exist_",
          "type": "bool"
        }
      ],
      "stateMutability": "view",
      "type": "function"
    },
    {
      "inputs": [
        {
          "internalType": "uint32",
          "name": "_index",
          "type": "uint32"
        }
      ],
      "name": "existedLayer2Index",
      "outputs": [
        {
          "internalType": "bool",
          "name": "exist_",
          "type": "bool"
        }
      ],
      "stateMutability": "view",
      "type": "function"
    },
    {
      "inputs": [],
      "name": "getAllCandidates",
      "outputs": [
        {
          "internalType": "bytes32[]",
          "name": "candidateNames_",
          "type": "bytes32[]"
        },
        {
          "internalType": "uint32[]",
          "name": "candidateNamesIndexes_",
          "type": "uint32[]"
        },
        {
          "internalType": "bytes[]",
          "name": "infos_",
          "type": "bytes[]"
        }
      ],
      "stateMutability": "view",
      "type": "function"
    },
    {
      "inputs": [],
      "name": "getAllLayers",
      "outputs": [
        {
          "internalType": "bytes32[]",
          "name": "optimismSequencerNames_",
          "type": "bytes32[]"
        },
        {
          "internalType": "uint32[]",
          "name": "optimismSequencerIndexes_",
          "type": "uint32[]"
        },
        {
          "components": [
            {
              "internalType": "uint256",
              "name": "securityDeposit",
              "type": "uint256"
            },
            {
              "internalType": "uint256",
              "name": "seigs",
              "type": "uint256"
            }
          ],
          "internalType": "struct Layer2.Layer2Holdings[]",
          "name": "holdings_",
          "type": "tuple[]"
        },
        {
          "internalType": "bytes[]",
          "name": "infos_",
          "type": "bytes[]"
        }
      ],
      "stateMutability": "view",
      "type": "function"
    },
    {
      "inputs": [
        {
          "internalType": "bytes32",
          "name": "role",
          "type": "bytes32"
        }
      ],
      "name": "getRoleAdmin",
      "outputs": [
        {
          "internalType": "bytes32",
          "name": "",
          "type": "bytes32"
        }
      ],
      "stateMutability": "view",
      "type": "function"
    },
    {
      "inputs": [
        {
          "internalType": "bytes32",
          "name": "role",
          "type": "bytes32"
        },
        {
          "internalType": "address",
          "name": "account",
          "type": "address"
        }
      ],
      "name": "grantRole",
      "outputs": [],
      "stateMutability": "nonpayable",
      "type": "function"
    },
    {
      "inputs": [
        {
          "internalType": "bytes32",
          "name": "role",
          "type": "bytes32"
        },
        {
          "internalType": "address",
          "name": "account",
          "type": "address"
        }
      ],
      "name": "hasRole",
      "outputs": [
        {
          "internalType": "bool",
          "name": "",
          "type": "bool"
        }
      ],
      "stateMutability": "view",
      "type": "function"
    },
    {
      "inputs": [
        {
          "internalType": "uint32",
          "name": "",
          "type": "uint32"
        }
      ],
      "name": "holdings",
      "outputs": [
        {
          "internalType": "uint256",
          "name": "securityDeposit",
          "type": "uint256"
        },
        {
          "internalType": "uint256",
          "name": "seigs",
          "type": "uint256"
        }
      ],
      "stateMutability": "view",
      "type": "function"
    },
    {
      "inputs": [
        {
          "internalType": "uint32",
          "name": "_sequencerIndex",
          "type": "uint32"
        },
        {
          "internalType": "uint256",
          "name": "amount",
          "type": "uint256"
        }
      ],
      "name": "increaseSecurityDeposit",
      "outputs": [],
      "stateMutability": "nonpayable",
      "type": "function"
    },
    {
      "inputs": [],
      "name": "indexCandidates",
      "outputs": [
        {
          "internalType": "uint32",
          "name": "",
          "type": "uint32"
        }
      ],
      "stateMutability": "view",
      "type": "function"
    },
    {
      "inputs": [],
      "name": "indexSequencers",
      "outputs": [
        {
          "internalType": "uint32",
          "name": "",
          "type": "uint32"
        }
      ],
      "stateMutability": "view",
      "type": "function"
    },
    {
      "inputs": [
        {
          "internalType": "address",
          "name": "account",
          "type": "address"
        }
      ],
      "name": "isAdmin",
      "outputs": [
        {
          "internalType": "bool",
          "name": "",
          "type": "bool"
        }
      ],
      "stateMutability": "view",
      "type": "function"
    },
    {
      "inputs": [
        {
          "internalType": "uint32",
          "name": "layerKey_",
          "type": "uint32"
        }
      ],
      "name": "layerHoldings",
      "outputs": [
        {
          "components": [
            {
              "internalType": "uint256",
              "name": "securityDeposit",
              "type": "uint256"
            },
            {
              "internalType": "uint256",
              "name": "seigs",
              "type": "uint256"
            }
          ],
          "internalType": "struct Layer2.Layer2Holdings",
          "name": "",
          "type": "tuple"
        }
      ],
      "stateMutability": "view",
      "type": "function"
    },
    {
      "inputs": [
        {
          "internalType": "bytes32",
          "name": "",
          "type": "bytes32"
        }
      ],
      "name": "layerKeys",
      "outputs": [
        {
          "internalType": "bool",
          "name": "",
          "type": "bool"
        }
      ],
      "stateMutability": "view",
      "type": "function"
    },
    {
      "inputs": [],
      "name": "maxLayer2Count",
      "outputs": [
        {
          "internalType": "uint256",
          "name": "",
          "type": "uint256"
        }
      ],
      "stateMutability": "view",
      "type": "function"
    },
    {
      "inputs": [],
      "name": "minimumDepositForCandidate",
      "outputs": [
        {
          "internalType": "uint256",
          "name": "",
          "type": "uint256"
        }
      ],
      "stateMutability": "view",
      "type": "function"
    },
    {
      "inputs": [],
      "name": "minimumDepositForSequencer",
      "outputs": [
        {
          "internalType": "uint256",
          "name": "",
          "type": "uint256"
        }
      ],
      "stateMutability": "view",
      "type": "function"
    },
    {
      "inputs": [
        {
          "internalType": "address",
          "name": "l1Bridge",
          "type": "address"
        },
        {
          "internalType": "address",
          "name": "l2ton",
          "type": "address"
        }
      ],
      "name": "minimumSecurityDepositAmount",
      "outputs": [
        {
          "internalType": "uint256",
          "name": "amount",
          "type": "uint256"
        }
      ],
      "stateMutability": "view",
      "type": "function"
    },
    {
      "inputs": [],
      "name": "optimismSequencer",
      "outputs": [
        {
          "internalType": "address",
          "name": "",
          "type": "address"
        }
      ],
      "stateMutability": "view",
      "type": "function"
    },
    {
      "inputs": [
        {
          "internalType": "uint256",
          "name": "",
          "type": "uint256"
        }
      ],
      "name": "optimismSequencerIndexes",
      "outputs": [
        {
          "internalType": "uint32",
          "name": "",
          "type": "uint32"
        }
      ],
      "stateMutability": "view",
      "type": "function"
    },
    {
      "inputs": [
        {
          "internalType": "uint32",
          "name": "",
          "type": "uint32"
        }
      ],
      "name": "optimismSequencerNames",
      "outputs": [
        {
          "internalType": "bytes32",
          "name": "",
          "type": "bytes32"
        }
      ],
      "stateMutability": "view",
      "type": "function"
    },
    {
      "inputs": [],
      "name": "pauseProxy",
      "outputs": [
        {
          "internalType": "bool",
          "name": "",
          "type": "bool"
        }
      ],
      "stateMutability": "view",
      "type": "function"
    },
    {
      "inputs": [
        {
          "internalType": "uint256",
          "name": "",
          "type": "uint256"
        }
      ],
      "name": "proxyImplementation",
      "outputs": [
        {
          "internalType": "address",
          "name": "",
          "type": "address"
        }
      ],
      "stateMutability": "view",
      "type": "function"
    },
    {
      "inputs": [],
      "name": "ratioSecurityDepositOfTvl",
      "outputs": [
        {
          "internalType": "uint16",
          "name": "",
          "type": "uint16"
        }
      ],
      "stateMutability": "view",
      "type": "function"
    },
    {
      "inputs": [
        {
          "internalType": "address",
          "name": "account",
          "type": "address"
        }
      ],
      "name": "removeAdmin",
      "outputs": [],
      "stateMutability": "nonpayable",
      "type": "function"
    },
    {
      "inputs": [
        {
          "internalType": "bytes32",
          "name": "role",
          "type": "bytes32"
        },
        {
          "internalType": "address",
          "name": "account",
          "type": "address"
        }
      ],
      "name": "renounceRole",
      "outputs": [],
      "stateMutability": "nonpayable",
      "type": "function"
    },
    {
      "inputs": [
        {
          "internalType": "bytes32",
          "name": "role",
          "type": "bytes32"
        },
        {
          "internalType": "address",
          "name": "account",
          "type": "address"
        }
      ],
      "name": "revokeRole",
      "outputs": [],
      "stateMutability": "nonpayable",
      "type": "function"
    },
    {
      "inputs": [],
      "name": "seigManagerV2",
      "outputs": [
        {
          "internalType": "address",
          "name": "",
          "type": "address"
        }
      ],
      "stateMutability": "view",
      "type": "function"
    },
    {
      "inputs": [
        {
          "internalType": "bytes4",
          "name": "",
          "type": "bytes4"
        }
      ],
      "name": "selectorImplementation",
      "outputs": [
        {
          "internalType": "address",
          "name": "",
          "type": "address"
        }
      ],
      "stateMutability": "view",
      "type": "function"
    },
    {
      "inputs": [
        {
          "internalType": "uint32",
          "name": "_layerIndex",
          "type": "uint32"
        }
      ],
      "name": "sequencer",
      "outputs": [
        {
          "internalType": "address",
          "name": "sequencer_",
          "type": "address"
        }
      ],
      "stateMutability": "view",
      "type": "function"
    },
    {
      "inputs": [
        {
          "internalType": "uint256",
          "name": "_delayBlocksForWithdraw",
          "type": "uint256"
        }
      ],
      "name": "setDelayBlocksForWithdraw",
      "outputs": [],
      "stateMutability": "nonpayable",
      "type": "function"
    },
    {
      "inputs": [
        {
          "internalType": "uint256",
          "name": "_maxLayer2Count",
          "type": "uint256"
        }
      ],
      "name": "setMaxLayer2Count",
      "outputs": [],
      "stateMutability": "nonpayable",
      "type": "function"
    },
    {
      "inputs": [
        {
          "internalType": "uint256",
          "name": "_minimumDepositForCandidate",
          "type": "uint256"
        }
      ],
      "name": "setMinimumDepositForCandidate",
      "outputs": [],
      "stateMutability": "nonpayable",
      "type": "function"
    },
    {
      "inputs": [
        {
          "internalType": "uint256",
          "name": "_minimumDepositForSequencer",
          "type": "uint256"
        }
      ],
      "name": "setMinimumDepositForSequencer",
      "outputs": [],
      "stateMutability": "nonpayable",
      "type": "function"
    },
    {
      "inputs": [
        {
          "internalType": "uint16",
          "name": "_ratioSecurityDepositOfTvl",
          "type": "uint16"
        }
      ],
      "name": "setRatioSecurityDepositOfTvl",
      "outputs": [],
      "stateMutability": "nonpayable",
      "type": "function"
    },
    {
      "inputs": [
        {
          "internalType": "bytes4",
          "name": "interfaceId",
          "type": "bytes4"
        }
      ],
      "name": "supportsInterface",
      "outputs": [
        {
          "internalType": "bool",
          "name": "",
          "type": "bool"
        }
      ],
      "stateMutability": "view",
      "type": "function"
    },
    {
      "inputs": [],
      "name": "ton",
      "outputs": [
        {
          "internalType": "contract IERC20",
          "name": "",
          "type": "address"
        }
      ],
      "stateMutability": "view",
      "type": "function"
    },
    {
      "inputs": [],
      "name": "totalCandidates",
      "outputs": [
        {
          "internalType": "uint256",
          "name": "total",
          "type": "uint256"
        }
      ],
      "stateMutability": "view",
      "type": "function"
    },
    {
      "inputs": [],
      "name": "totalLayers",
      "outputs": [
        {
          "internalType": "uint256",
          "name": "total",
          "type": "uint256"
        }
      ],
      "stateMutability": "view",
      "type": "function"
    },
    {
      "inputs": [],
      "name": "totalSecurityDeposit",
      "outputs": [
        {
          "internalType": "uint256",
          "name": "",
          "type": "uint256"
        }
      ],
      "stateMutability": "view",
      "type": "function"
    },
    {
      "inputs": [],
      "name": "totalSeigs",
      "outputs": [
        {
          "internalType": "uint256",
          "name": "",
          "type": "uint256"
        }
      ],
      "stateMutability": "view",
      "type": "function"
    },
    {
      "inputs": [
        {
          "internalType": "address",
          "name": "newAdmin",
          "type": "address"
        }
      ],
      "name": "transferAdmin",
      "outputs": [],
      "stateMutability": "nonpayable",
      "type": "function"
    }
  ],
  "bytecode": "0x60806040526015805460ff60501b19166a010000000000000000000017905534801561002a57600080fd5b50613d658061003a6000396000f3fe608060405234801561001057600080fd5b50600436106103ba5760003560e01c806370480275116101f4578063b911135f1161011a578063da0dc135116100ad578063ef6ee1531161007c578063ef6ee1531461093c578063f2a7d7121461094f578063f71bf33a14610962578063fee539b71461096b57600080fd5b8063da0dc135146108f6578063e0ef2a7f14610909578063e12a62191461092c578063e4fc6b6d1461093457600080fd5b8063d37c6d69116100e9578063d37c6d69146108a7578063d48ddf04146108b0578063d547741f146108d0578063d639ff83146108e357600080fd5b8063b911135f1461083a578063c14241b914610863578063caef64e61461088b578063cc48b9471461089457600080fd5b80638d1f3d0a11610192578063a4dd8b7d11610161578063a4dd8b7d146107ac578063a73ddaab146107b5578063ab8930a5146107c8578063ae9046ca1461082757600080fd5b80638d1f3d0a1461074a5780638d5d8e551461075d57806391d148541461076d578063a217fddf146107a457600080fd5b806375829def116101ce57806375829def146106f557806375b238fc146107085780638935af9a1461072f5780638cc193a51461074257600080fd5b806370480275146106bc57806373469a7a146106cf578063736dd19d146106e257600080fd5b80633bd0c19f116102e457806357bc1df01161027757806363e6f0d81161024657806363e6f0d81461067b5780636b48235f146106835780636c8381f8146106965780636e1ef23a146106a957600080fd5b806357bc1df01461063a5780635b1f335f146106525780635d170f8f1461065b57806363a8fd891461066e57600080fd5b80634c76e6c8116102b35780634c76e6c8146105b05780634c7825bb146105c357806350d2a276146105d6578063550d01a31461061757600080fd5b80633bd0c19f1461054c5780634339da1c1461057457806346551ece14610587578063499ad9da146105a757600080fd5b80631c2833211161035c5780632e6997fe1161032b5780632e6997fe146105075780632f2ff15d1461051e57806336568abe146105315780633866965c1461054457600080fd5b80631c28332114610489578063229852461461049c578063248a9ca3146104d157806324d7806c146104f457600080fd5b8063091e3be311610398578063091e3be3146104385780631785f53c1461044b57806319a93b881461045e5780631a4f1eb91461047657600080fd5b806301ffc9a7146103bf57806304196138146103e75780630495189114610423575b600080fd5b6103d26103cd3660046135e3565b61097e565b60405190151581526020015b60405180910390f35b61040e6103f5366004613621565b6012602052600090815260409020805460019091015482565b604080519283526020830191909152016103de565b610436610431366004613621565b6109b5565b005b61043661044636600461364e565b610b5d565b61043661045936600461367e565b610c1a565b610466610c95565b6040516103de94939291906137b1565b610436610484366004613844565b61100d565b6103d2610497366004613844565b61109a565b6104c37ffb5864e8ff833c3cb2d2d08505e82ff02a43554c74a35d4f5a64e8526127831181565b6040519081526020016103de565b6104c36104df366004613844565b60009081526020819052604090206001015490565b6103d261050236600461367e565b61111d565b61050f61115d565b6040516103de9392919061385d565b61043661052c3660046138a0565b6113dd565b61043661053f3660046138a0565b611407565b6014546104c3565b61055f61055a366004613844565b611493565b60405163ffffffff90911681526020016103de565b61055f610582366004613844565b6114cd565b6104c3610595366004613621565b60106020526000908152604090205481565b6104c3600e5481565b6104c36105be3660046138d0565b6114dd565b6104c36105d1366004613621565b6115ad565b6105ff6105e43660046135e3565b6004602052600090815260409020546001600160a01b031681565b6040516001600160a01b0390911681526020016103de565b6103d261062536600461367e565b60036020526000908152604090205460ff1681565b60155461055f90640100000000900463ffffffff1681565b6104c3600d5481565b6103d2610669366004613621565b6115b8565b6001546103d29060ff1681565b600f546104c3565b6104366106913660046138fe565b6115df565b6008546105ff906001600160a01b031681565b6103d26106b7366004613621565b611772565b6104366106ca36600461367e565b611790565b6006546105ff906001600160a01b031681565b6104366106f0366004613928565b611808565b61043661070336600461367e565b611d9c565b6104c37fdf8b4c520ffe197c5343c6f5aec59570151ef9a492f2c624fd45ddde6135ec4281565b61043661073d366004613844565b611eec565b6104c3611f79565b6105ff610758366004613621565b612059565b60155461055f9063ffffffff1681565b6103d261077b3660046138a0565b6000918252602082815260408084206001600160a01b0393909316845291905290205460ff1690565b6104c3600081565b6104c3600a5481565b6104366107c3366004613844565b6120e1565b61081a6107d6366004613621565b60408051808201909152600080825260208201525063ffffffff16600090815260126020908152604091829020825180840190935280548352600101549082015290565b6040516103de9190613964565b6104c3610835366004613621565b6121a5565b6105ff610848366004613844565b6002602052600090815260409020546001600160a01b031681565b60155461087890600160401b900461ffff1681565b60405161ffff90911681526020016103de565b6104c3600b5481565b6005546105ff906001600160a01b031681565b6104c3600c5481565b6104c36108be366004613621565b60116020526000908152604090205481565b6104366108de3660046138a0565b61224d565b6104366108f1366004613844565b612272565b6007546105ff906001600160a01b031681565b6103d2610917366004613844565b60136020526000908152604090205460ff1681565b6104c36122ff565b61043661231b565b61043661094a36600461397b565b612623565b61043661095d3660046138fe565b612beb565b6104c360095481565b6104c361097936600461367e565b612f48565b60006001600160e01b03198216637965db0b60e01b14806109af57506301ffc9a760e01b6001600160e01b03198316145b92915050565b63ffffffff811660009081526012602052604081206001015490819003610a235760405162461bcd60e51b815260206004820152601260248201527f6e6f20616d6f756e7420746f20636c61696d000000000000000000000000000060448201526064015b60405180910390fd5b6000610a2e83612059565b90506001600160a01b038116610a865760405162461bcd60e51b815260206004820152600e60248201527f7a65726f2073657175656e6365720000000000000000000000000000000000006044820152606401610a1a565b63ffffffff8316600090815260126020526040808220600101919091556006549051635569f64b60e11b81526001600160a01b038381166004830152602482018590529091169063aad3ec9690604401600060405180830381600087803b158015610af057600080fd5b505af1158015610b04573d6000803e3d6000fd5b50506040805163ffffffff871681526001600160a01b03851660208201529081018590527fdc8b8058bd26d719cc330a54461930fd9c312dd28447313fd5dc4641513e00749250606001905060405180910390a1505050565b610b663361111d565b610bab5760405162461bcd60e51b81526020600482015260226024820152600080516020613d3983398151915260448201526134b760f11b6064820152608401610a1a565b60155461ffff808316600160401b9092041603610bf35760405162461bcd60e51b8152600401610a1a9060208082526004908201526373616d6560e01b604082015260600190565b6015805461ffff909216600160401b0269ffff000000000000000019909216919091179055565b610c233361111d565b610c685760405162461bcd60e51b81526020600482015260226024820152600080516020613d3983398151915260448201526134b760f11b6064820152608401610a1a565b610c927fdf8b4c520ffe197c5343c6f5aec59570151ef9a492f2c624fd45ddde6135ec4282611407565b50565b600f546060908190819081908067ffffffffffffffff811115610cba57610cba6139e3565b604051908082528060200260200182016040528015610ce3578160200160208202803683370190505b50600f805460408051602080840282018101909252828152939850830182828015610d5957602002820191906000526020600020906000905b82829054906101000a900463ffffffff1663ffffffff1681526020019060040190602082600301049283019260010382029150808411610d1c5790505b505050505093508067ffffffffffffffff811115610d7957610d796139e3565b604051908082528060200260200182016040528015610dbe57816020015b6040805180820190915260008082526020820152815260200190600190039081610d975790505b5092508067ffffffffffffffff811115610dda57610dda6139e3565b604051908082528060200260200182016040528015610e0d57816020015b6060815260200190600190039081610df85790505b50915060005b818110156110055760106000600f8381548110610e3257610e326139f9565b90600052602060002090600891828204019190066004029054906101000a900463ffffffff1663ffffffff1663ffffffff16815260200190815260200160002054868281518110610e8557610e856139f9565b60200260200101818152505060126000600f8381548110610ea857610ea86139f9565b90600052602060002090600891828204019190066004029054906101000a900463ffffffff1663ffffffff1663ffffffff16815260200190815260200160002060405180604001604052908160008201548152602001600182015481525050848281518110610f1957610f196139f9565b6020908102919091010152600754600f80546001600160a01b039092169163659ab820919084908110610f4e57610f4e6139f9565b6000918252602090912060088204015460405160e084901b6001600160e01b0319168152600790921660049081026101000a90910463ffffffff1690820152602401600060405180830381865afa158015610fad573d6000803e3d6000fd5b505050506040513d6000823e601f3d908101601f19168201604052610fd59190810190613a0f565b838281518110610fe757610fe76139f9565b60200260200101819052508080610ffd90613ad2565b915050610e13565b505090919293565b6110163361111d565b61105b5760405162461bcd60e51b81526020600482015260226024820152600080516020613d3983398151915260448201526134b760f11b6064820152608401610a1a565b80600b54036110955760405162461bcd60e51b8152600401610a1a9060208082526004908201526373616d6560e01b604082015260600190565b600b55565b6006546000906001600160a01b031633146110f75760405162461bcd60e51b815260206004820152601b60248201527f63616c6c6572206973206e6f7420536569674d616e61676572563200000000006044820152606401610a1a565b81156111155781600e600082825461110f9190613aeb565b90915550505b506001919050565b6001600160a01b03811660009081527f5cbfc8ee58ca47855df7bcf648dd304ddb6b932f9b87878bdf6318d7ec7ee5b7602052604081205460ff166109af565b601454606090819081908067ffffffffffffffff811115611180576111806139e3565b6040519080825280602002602001820160405280156111a9578160200160208202803683370190505b50601480546040805160208084028201810190925282815293975083018282801561121f57602002820191906000526020600020906000905b82829054906101000a900463ffffffff1663ffffffff16815260200190600401906020826003010492830192600103820291508084116111e25790505b505050505092508067ffffffffffffffff81111561123f5761123f6139e3565b60405190808252806020026020018201604052801561127257816020015b606081526020019060019003908161125d5790505b50915060005b818110156113d6576011600060148381548110611297576112976139f9565b90600052602060002090600891828204019190066004029054906101000a900463ffffffff1663ffffffff1663ffffffff168152602001908152602001600020548582815181106112ea576112ea6139f9565b6020908102919091010152600854601480546001600160a01b039092169163659ab82091908490811061131f5761131f6139f9565b6000918252602090912060088204015460405160e084901b6001600160e01b0319168152600790921660049081026101000a90910463ffffffff1690820152602401600060405180830381865afa15801561137e573d6000803e3d6000fd5b505050506040513d6000823e601f3d908101601f191682016040526113a69190810190613a0f565b8382815181106113b8576113b86139f9565b602002602001018190525080806113ce90613ad2565b915050611278565b5050909192565b6000828152602081905260409020600101546113f881613039565b6114028383613043565b505050565b6001600160a01b03811633146114855760405162461bcd60e51b815260206004820152602f60248201527f416363657373436f6e74726f6c3a2063616e206f6e6c792072656e6f756e636560448201527f20726f6c657320666f722073656c6600000000000000000000000000000000006064820152608401610a1a565b61148f82826130e1565b5050565b601481815481106114a357600080fd5b9060005260206000209060089182820401919006600402915054906101000a900463ffffffff1681565b600f81815481106114a357600080fd5b601554600090600160401b900461ffff1681036114fd57506009546109af565b60155460075460405163edcc217760e01b81526001600160a01b03868116600483015285811660248301526115a69361271093600160401b90910461ffff169291169063edcc217790604401602060405180830381865afa158015611566573d6000803e3d6000fd5b505050506040513d601f19601f8201168201806040525081019061158a9190613afe565b6115949190613b17565b61159e9190613b2e565b600954613160565b9392505050565b60006109af826121a5565b60155460009063ffffffff6401000000009091048116908316116115da575060015b919050565b601554600160501b900460ff166116215760405162461bcd60e51b8152600401610a1a906020808252600490820152636c6f636b60e01b604082015260600190565b6015805460ff60501b191690558163ffffffff811660000361166a5760405162461bcd60e51b81526020600482015260026024820152615a3160f01b6044820152606401610a1a565b60155463ffffffff90811690841611156116b45760405162461bcd60e51b815260206004820152600b60248201526a0eee4dedcce40d2dcc8caf60ab1b6044820152606401610a1a565b6005546116cc906001600160a01b0316333085613176565b63ffffffff831660009081526012602052604081208054909184918391906116f5908490613aeb565b9250508190555082600d600082825461170e9190613aeb565b90915550506040805163ffffffff861681523360208201529081018490527f75d95e3e2cd0899a7e9451555815404d25586e691502bc69417edacc489173a69060600160405180910390a150506015805460ff60501b1916600160501b1790555050565b60155460009063ffffffff908116908316116115da57506001919050565b6117993361111d565b6117de5760405162461bcd60e51b81526020600482015260226024820152600080516020613d3983398151915260448201526134b760f11b6064820152608401610a1a565b610c927fdf8b4c520ffe197c5343c6f5aec59570151ef9a492f2c624fd45ddde6135ec42826113dd565b828063ffffffff166000036118445760405162461bcd60e51b81526020600482015260026024820152615a3160f01b6044820152606401610a1a565b601554600160501b900460ff166118865760405162461bcd60e51b8152600401610a1a906020808252600490820152636c6f636b60e01b604082015260600190565b6015805460ff60501b19811690915563ffffffff90811690851611156118dc5760405162461bcd60e51b815260206004820152600b60248201526a0eee4dedcce40d2dcc8caf60ab1b6044820152606401610a1a565b604051633be35f5f60e21b815233600482015263ffffffff8516602482015260009073__$d436d56fec194dfaaabaf06742f0275c03$__9063ef8d7d7c90604401602060405180830381865af415801561193a573d6000803e3d6000fd5b505050506040513d601f19601f8201168201806040525081019061195e9190613afe565b60008181526013602052604090205490915060ff16156119b25760405162461bcd60e51b815260206004820152600f60248201526e185b1c9958591e4818dc99585d1959608a1b6044820152606401610a1a565b6000818152601360205260408120805460ff19166001179055601580546004906119ea9063ffffffff64010000000090910416613b50565b825461010092830a63ffffffff818102199092168383169182021790945560148054600181019091557fce6d7b5282bd9a3661ae061feed1dbda4e52ab073b1f9285be6e155d9c38d4ec60088204018054600790921660040290940a8083021990911690850217909255600092835260116020526040909220879055600a54600554929350611a87926001600160a01b0316913391309161317616565b600a54600554600854604051636eb1769f60e11b81523060048201526001600160a01b03918216602482015291169063dd62ed3e90604401602060405180830381865afa158015611adc573d6000803e3d6000fd5b505050506040513d601f19601f82011682018060405250810190611b009190613afe565b1015611bf257600554600854604080516318160ddd60e01b815290516001600160a01b039384169363095ea7b393169184916318160ddd916004808201926020929091908290030181865afa158015611b5d573d6000803e3d6000fd5b505050506040513d601f19601f82011682018060405250810190611b819190613afe565b6040516001600160e01b031960e085901b1681526001600160a01b03909216600483015260248201526044016020604051808303816000875af1158015611bcc573d6000803e3d6000fd5b505050506040513d601f19601f82011682018060405250810190611bf09190613b73565b505b600854600a54604080513360601b6bffffffffffffffffffffffff1916602082015260e08a901b6001600160e01b031916603482015260f088901b7fffff000000000000000000000000000000000000000000000000000000000000166038820152603a8082019390935281518082039093018352605a810191829052630df2b42960e41b9091526001600160a01b039092169163df2b429091611c9b91859190605e01613b95565b6020604051808303816000875af1158015611cba573d6000803e3d6000fd5b505050506040513d601f19601f82011682018060405250810190611cde9190613b73565b611d2a5760405162461bcd60e51b815260206004820152601460248201527f4661696c2063726561746543616e6469646174650000000000000000000000006044820152606401610a1a565b6040805163ffffffff83811682523360208301528183018890528816606082015261ffff8616608082015290517f709fcaf2dc11df83dc11df5f3157cde1ed5048d1d4c6c0cbbff7bf781a37f1f79181900360a00190a150506015805460ff60501b1916600160501b17905550505050565b611da53361111d565b611dea5760405162461bcd60e51b81526020600482015260226024820152600080516020613d3983398151915260448201526134b760f11b6064820152608401610a1a565b6001600160a01b038116611e405760405162461bcd60e51b815260206004820152601860248201527f41636365737369626c653a207a65726f206164647265737300000000000000006044820152606401610a1a565b6001600160a01b0381163303611e985760405162461bcd60e51b815260206004820152601660248201527f41636365737369626c653a2073616d652061646d696e000000000000000000006044820152606401610a1a565b611ec27fdf8b4c520ffe197c5343c6f5aec59570151ef9a492f2c624fd45ddde6135ec42826113dd565b610c927fdf8b4c520ffe197c5343c6f5aec59570151ef9a492f2c624fd45ddde6135ec4233611407565b611ef53361111d565b611f3a5760405162461bcd60e51b81526020600482015260226024820152600080516020613d3983398151915260448201526134b760f11b6064820152608401610a1a565b8060095403611f745760405162461bcd60e51b8152600401610a1a9060208082526004908201526373616d6560e01b604082015260600190565b600955565b600f54600090815b8181101561205457600754600f80546001600160a01b03909216916341e5dbe8919084908110611fb357611fb36139f9565b6000918252602090912060088204015460405160e084901b6001600160e01b0319168152600790921660049081026101000a90910463ffffffff1690820152602401602060405180830381865afa158015612012573d6000803e3d6000fd5b505050506040513d601f19601f820116820180604052508101906120369190613afe565b6120409084613aeb565b92508061204c81613ad2565b915050611f81565b505090565b60155460009063ffffffff908116908316116115da5760075460405163468f9e8560e11b815263ffffffff841660048201526001600160a01b0390911690638d1f3d0a90602401602060405180830381865afa1580156120bd573d6000803e3d6000fd5b505050506040513d601f19601f820116820180604052508101906109af9190613bbc565b80806000036121175760405162461bcd60e51b81526020600482015260026024820152615a3160f01b6044820152606401610a1a565b6121203361111d565b6121655760405162461bcd60e51b81526020600482015260226024820152600080516020613d3983398151915260448201526134b760f11b6064820152608401610a1a565b81600c540361219f5760405162461bcd60e51b8152600401610a1a9060208082526004908201526373616d6560e01b604082015260600190565b50600c55565b60075460405163083cbb7d60e31b815263ffffffff831660048201526000916001600160a01b0316906341e5dbe890602401602060405180830381865afa925050508015612210575060408051601f3d908101601f1916820190925261220d91810190613afe565b60015b6109af573d80801561223e576040519150601f19603f3d011682016040523d82523d6000602084013e612243565b606091505b5060009392505050565b60008281526020819052604090206001015461226881613039565b61140283836130e1565b61227b3361111d565b6122c05760405162461bcd60e51b81526020600482015260226024820152600080516020613d3983398151915260448201526134b760f11b6064820152608401610a1a565b80600a54036122fa5760405162461bcd60e51b8152600401610a1a9060208082526004908201526373616d6560e01b604082015260600190565b600a55565b6000600d5461230c611f79565b6123169190613aeb565b905090565b600e5460000361236d5760405162461bcd60e51b815260206004820152601760248201527f6e6f2064697374726962757461626c6520616d6f756e740000000000000000006044820152606401610a1a565b600f546000808267ffffffffffffffff81111561238c5761238c6139e3565b6040519080825280602002602001820160405280156123b5578160200160208202803683370190505b50905060005b838110156124ce576000600f82815481106123d8576123d86139f9565b6000918252602080832060088304015460079092166004026101000a90910463ffffffff168083526012825260409283902083518085019094528054808552600190910154928401929092526009549093501161246257612438826121a5565b84848151811061244a5761244a6139f9565b6020026020010181815161245e9190613aeb565b9052505b8060000151848481518110612479576124796139f9565b6020026020010181815161248d9190613aeb565b90525083518490849081106124a4576124a46139f9565b6020026020010151856124b79190613aeb565b9450505080806124c690613ad2565b9150506123bb565b50600082156125e15760005b848110156125c2576000600f82815481106124f7576124f76139f9565b6000918252602080832060088304015460079092166004026101000a90910463ffffffff1680835260129091526040822086519193509190869085908110612541576125416139f9565b602002602001015111156125ad57600086868581518110612564576125646139f9565b6020026020010151600e546125799190613b17565b6125839190613b2e565b9050808260010160008282546125999190613aeb565b909155506125a990508186613aeb565b9450505b505080806125ba90613ad2565b9150506124da565b5080156125e15780600e60008282546125db9190613bd9565b90915550505b600e5460408051918252602082018390527f97791d3ac1343e05805a2f905fa80b249c2ca58cf9fef455d4fa7ec13ce58321910160405180910390a150505050565b601554600160501b900460ff166126655760405162461bcd60e51b8152600401610a1a906020808252600490820152636c6f636b60e01b604082015260600190565b6015805460ff60501b1916905560405163bf40fac160e01b815260206004820152600d60248201527f4f564d5f53657175656e6365720000000000000000000000000000000000000060448201526001600160a01b0385169063bf40fac190606401602060405180830381865afa1580156126e4573d6000803e3d6000fd5b505050506040513d601f19601f820116820180604052508101906127089190613bbc565b6001600160a01b0316336001600160a01b0316146127685760405162461bcd60e51b815260206004820152600d60248201527f4e4f542053657175656e636572000000000000000000000000000000000000006044820152606401610a1a565b600c5460155463ffffffff16106127c15760405162461bcd60e51b815260206004820152601760248201527f6578636565646564206d61784c6179657232436f756e740000000000000000006044820152606401610a1a565b6001600160a01b038416158015906127e157506001600160a01b03831615155b80156127f557506001600160a01b03821615155b801561280957506001600160a01b03811615155b6128555760405162461bcd60e51b815260206004820152600c60248201527f7a65726f206164647265737300000000000000000000000000000000000000006044820152606401610a1a565b60405163cd13ec8760e01b81526001600160a01b038086166004830152808516602483015280841660448301528216606482015260009073__$35081dc60fc26376aafbbba403b8b17c43$__9063cd13ec8790608401602060405180830381865af41580156128c8573d6000803e3d6000fd5b505050506040513d601f19601f820116820180604052508101906128ec9190613afe565b60008181526013602052604090205490915060ff16156129405760405162461bcd60e51b815260206004820152600f60248201526e185b1c9958591e4818dc99585d1959608a1b6044820152606401610a1a565b6000818152601360205260408120805460ff1916600117905560158054829061296e9063ffffffff16613b50565b91906101000a81548163ffffffff021916908363ffffffff16021790559050600061299985856114dd565b905080600d60008282546129ad9190613aeb565b9091555050600f805460018101909155600881047f8d1108e10bcb7c27dddfc02ed9d693a074039d026cf4ea4240b40f7d581ac80201805463ffffffff80861660046007958616026101000a81810292021990921617909155600090815260126020908152604080832085815560108352928190208c90559254925191926001600160a01b03169163df2b4290918691612a85918d918d918d918d9101606094851b6bffffffffffffffffffffffff19908116825293851b8416601482015291841b8316602883015290921b16603c82015260500190565b6040516020818303038152906040526040518363ffffffff1660e01b8152600401612ab1929190613b95565b6020604051808303816000875af1158015612ad0573d6000803e3d6000fd5b505050506040513d601f19601f82011682018060405250810190612af49190613b73565b612b405760405162461bcd60e51b815260206004820152601c60248201527f4661696c206372656174654f7074696d69736d53657175656e636572000000006044820152606401610a1a565b600554612b58906001600160a01b0316333085613176565b6040805163ffffffff851681523360208201529081018a90526001600160a01b03808a166060830152808916608083015280881660a0830152861660c082015260e081018390527f83d9a9b76130ffa963fa4c558a5ab61c74726896c79673e9d620739aebf93953906101000160405180910390a150506015805460ff60501b1916600160501b17905550505050505050565b601554600160501b900460ff16612c2d5760405162461bcd60e51b8152600401610a1a906020808252600490820152636c6f636b60e01b604082015260600190565b6015805460ff60501b191690558163ffffffff8116600003612c765760405162461bcd60e51b81526020600482015260026024820152615a3160f01b6044820152606401610a1a565b60155463ffffffff9081169084161115612cc05760405162461bcd60e51b815260206004820152600b60248201526a0eee4dedcce40d2dcc8caf60ab1b6044820152606401610a1a565b600754604051638c6f1b3960e01b815263ffffffff851660048201526000916001600160a01b031690638c6f1b3990602401608060405180830381865afa158015612d0f573d6000803e3d6000fd5b505050506040513d601f19601f82011682018060405250810190612d339190613bec565b6007548151604051635d0c7b2b60e01b81526001600160a01b039182166004820152929350600092911690635d0c7b2b90602401602060405180830381865afa158015612d84573d6000803e3d6000fd5b505050506040513d601f19601f82011682018060405250810190612da89190613bbc565b90506001600160a01b03811615801590612dca57506001600160a01b03811633145b612e165760405162461bcd60e51b815260206004820181905260248201527f73657175656e636572206973207a65726f206f72206e6f742063616c6c65722e6044820152606401610a1a565b6000612e2a836040015184606001516114dd565b63ffffffff87166000908152601260205260409020805491925090612e4f8388613aeb565b1115612e9d5760405162461bcd60e51b815260206004820152601460248201527f696e73756666696369656e74206465706f7369740000000000000000000000006044820152606401610a1a565b85816000016000828254612eb19190613bd9565b9250508190555085600d6000828254612eca9190613bd9565b9091555050600554612ee6906001600160a01b0316338861329a565b6040805163ffffffff891681523360208201529081018790527f15842789f01ee00184461198846223c315588d35fc8202916432ef78775d62c09060600160405180910390a150506015805460ff60501b1916600160501b1790555050505050565b600f54600090815b8181101561303257600754600f80546001600160a01b0390921691635f1b989e919084908110612f8257612f826139f9565b6000918252602090912060088204015460405160e084901b6001600160e01b0319168152600790921660049081026101000a90910463ffffffff16908201526001600160a01b0387166024820152604401602060405180830381865afa158015612ff0573d6000803e3d6000fd5b505050506040513d601f19601f820116820180604052508101906130149190613afe565b61301e9084613aeb565b92508061302a81613ad2565b915050612f50565b5050919050565b610c9281336133b5565b6000828152602081815260408083206001600160a01b038516845290915290205460ff1661148f576000828152602081815260408083206001600160a01b03851684529091529020805460ff1916600117905561309d3390565b6001600160a01b0316816001600160a01b0316837f2f8788117e7eff1d82e926ec794901d17c78024a50270940304540a733656f0d60405160405180910390a45050565b6000828152602081815260408083206001600160a01b038516845290915290205460ff161561148f576000828152602081815260408083206001600160a01b0385168085529252808320805460ff1916905551339285917ff6391f5c32d9c69d2a47ea670b442974b53935d1edc7fd64eb21e047a839171b9190a45050565b600081831161316f57816115a6565b5090919050565b604080516001600160a01b0385811660248301528481166044830152606480830185905283518084039091018152608490920183526020820180516001600160e01b03166323b872dd60e01b17905291516000928392908816916131da9190613c71565b6000604051808303816000865af19150503d8060008114613217576040519150601f19603f3d011682016040523d82523d6000602084013e61321c565b606091505b50915091508180156132465750805115806132465750808060200190518101906132469190613b73565b6132925760405162461bcd60e51b815260206004820152601460248201527f5452414e534645525f46524f4d5f4641494c45440000000000000000000000006044820152606401610a1a565b505050505050565b604080516001600160a01b038481166024830152604480830185905283518084039091018152606490920183526020820180516001600160e01b031663a9059cbb60e01b17905291516000928392908716916132f69190613c71565b6000604051808303816000865af19150503d8060008114613333576040519150601f19603f3d011682016040523d82523d6000602084013e613338565b606091505b50915091508180156133625750805115806133625750808060200190518101906133629190613b73565b6133ae5760405162461bcd60e51b815260206004820152600f60248201527f5452414e534645525f4641494c454400000000000000000000000000000000006044820152606401610a1a565b5050505050565b6000828152602081815260408083206001600160a01b038516845290915290205460ff1661148f576133e681613428565b6133f183602061343a565b604051602001613402929190613c8d565b60408051601f198184030181529082905262461bcd60e51b8252610a1a91600401613d0e565b60606109af6001600160a01b03831660145b60606000613449836002613b17565b613454906002613aeb565b67ffffffffffffffff81111561346c5761346c6139e3565b6040519080825280601f01601f191660200182016040528015613496576020820181803683370190505b509050600360fc1b816000815181106134b1576134b16139f9565b60200101906001600160f81b031916908160001a905350600f60fb1b816001815181106134e0576134e06139f9565b60200101906001600160f81b031916908160001a9053506000613504846002613b17565b61350f906001613aeb565b90505b6001811115613594577f303132333435363738396162636465660000000000000000000000000000000085600f1660108110613550576135506139f9565b1a60f81b828281518110613566576135666139f9565b60200101906001600160f81b031916908160001a90535060049490941c9361358d81613d21565b9050613512565b5083156115a65760405162461bcd60e51b815260206004820181905260248201527f537472696e67733a20686578206c656e67746820696e73756666696369656e746044820152606401610a1a565b6000602082840312156135f557600080fd5b81356001600160e01b0319811681146115a657600080fd5b803563ffffffff811681146115da57600080fd5b60006020828403121561363357600080fd5b6115a68261360d565b803561ffff811681146115da57600080fd5b60006020828403121561366057600080fd5b6115a68261363c565b6001600160a01b0381168114610c9257600080fd5b60006020828403121561369057600080fd5b81356115a681613669565b600081518084526020808501945080840160005b838110156136cb578151875295820195908201906001016136af565b509495945050505050565b600081518084526020808501945080840160005b838110156136cb57815163ffffffff16875295820195908201906001016136ea565b60005b8381101561372757818101518382015260200161370f565b50506000910152565b6000815180845261374881602086016020860161370c565b601f01601f19169290920160200192915050565b600081518084526020808501808196508360051b8101915082860160005b858110156137a4578284038952613792848351613730565b9885019893509084019060010161377a565b5091979650505050505050565b6080815260006137c4608083018761369b565b6020838203818501526137d782886136d6565b91506040848303818601528287518085528385019150838901945060005b818110156138225761381283875180518252602090810151910152565b94840194918301916001016137f5565b50508581036060870152613836818861375c565b9a9950505050505050505050565b60006020828403121561385657600080fd5b5035919050565b606081526000613870606083018661369b565b828103602084015261388281866136d6565b90508281036040840152613896818561375c565b9695505050505050565b600080604083850312156138b357600080fd5b8235915060208301356138c581613669565b809150509250929050565b600080604083850312156138e357600080fd5b82356138ee81613669565b915060208301356138c581613669565b6000806040838503121561391157600080fd5b61391a8361360d565b946020939093013593505050565b60008060006060848603121561393d57600080fd5b6139468461360d565b92506020840135915061395b6040850161363c565b90509250925092565b8151815260208083015190820152604081016109af565b600080600080600060a0868803121561399357600080fd5b8535945060208601356139a581613669565b935060408601356139b581613669565b925060608601356139c581613669565b915060808601356139d581613669565b809150509295509295909350565b634e487b7160e01b600052604160045260246000fd5b634e487b7160e01b600052603260045260246000fd5b600060208284031215613a2157600080fd5b815167ffffffffffffffff80821115613a3957600080fd5b818401915084601f830112613a4d57600080fd5b815181811115613a5f57613a5f6139e3565b604051601f8201601f19908116603f01168101908382118183101715613a8757613a876139e3565b81604052828152876020848701011115613aa057600080fd5b613ab183602083016020880161370c565b979650505050505050565b634e487b7160e01b600052601160045260246000fd5b600060018201613ae457613ae4613abc565b5060010190565b808201808211156109af576109af613abc565b600060208284031215613b1057600080fd5b5051919050565b80820281158282048414176109af576109af613abc565b600082613b4b57634e487b7160e01b600052601260045260246000fd5b500490565b600063ffffffff808316818103613b6957613b69613abc565b6001019392505050565b600060208284031215613b8557600080fd5b815180151581146115a657600080fd5b63ffffffff83168152604060208201526000613bb46040830184613730565b949350505050565b600060208284031215613bce57600080fd5b81516115a681613669565b818103818111156109af576109af613abc565b600060808284031215613bfe57600080fd5b6040516080810181811067ffffffffffffffff82111715613c2157613c216139e3565b6040528251613c2f81613669565b81526020830151613c3f81613669565b60208201526040830151613c5281613669565b60408201526060830151613c6581613669565b60608201529392505050565b60008251613c8381846020870161370c565b9190910192915050565b7f416363657373436f6e74726f6c3a206163636f756e7420000000000000000000815260008351613cc581601785016020880161370c565b7f206973206d697373696e6720726f6c65200000000000000000000000000000006017918401918201528351613d0281602884016020880161370c565b01602801949350505050565b6020815260006115a66020830184613730565b600081613d3057613d30613abc565b50600019019056fe41636365737369626c653a2043616c6c6572206973206e6f7420616e2061646da164736f6c6343000812000a",
  "linkReferences": {
    "contracts/libraries/LibOperator.sol": {
      "LibOperator": [
        {
          "length": 20,
          "start": 6458
        }
      ]
    },
    "contracts/libraries/LibOptimism.sol": {
      "LibOptimism": [
        {
          "length": 20,
          "start": 10440
        }
      ]
    }
  },
  "deployedLinkReferences": {
    "contracts/libraries/LibOperator.sol": {
      "LibOperator": [
        {
          "length": 20,
          "start": 6400
        }
      ]
    },
    "contracts/libraries/LibOptimism.sol": {
      "LibOptimism": [
        {
          "length": 20,
          "start": 10382
        }
      ]
    }
  }
}