{
  "_format": "hh-sol-artifact-1",
  "contractName": "Layer2Manager",
  "sourceName": "contracts/Layer2Manager.sol",
  "abi": [
    {
      "inputs": [],
      "stateMutability": "nonpayable",
      "type": "constructor"
    },
    {
      "anonymous": false,
      "inputs": [
        {
          "indexed": false,
          "internalType": "uint32",
          "name": "_index",
          "type": "uint32"
        },
        {
          "indexed": false,
          "internalType": "address",
          "name": "_sequencer",
          "type": "address"
        },
        {
          "indexed": false,
          "internalType": "uint256",
          "name": "amount",
          "type": "uint256"
        }
      ],
      "name": "Claimed",
      "type": "event"
    },
    {
      "anonymous": false,
      "inputs": [
        {
          "indexed": false,
          "internalType": "uint32",
          "name": "_index",
          "type": "uint32"
        },
        {
          "indexed": false,
          "internalType": "address",
          "name": "_operator",
          "type": "address"
        },
        {
          "indexed": false,
          "internalType": "bytes32",
          "name": "_name",
          "type": "bytes32"
        },
        {
          "indexed": false,
          "internalType": "uint32",
          "name": "_sequenceIndex",
          "type": "uint32"
        },
        {
          "indexed": false,
          "internalType": "uint16",
          "name": "_commission",
          "type": "uint16"
        }
      ],
      "name": "CreatedCandidate",
      "type": "event"
    },
    {
      "anonymous": false,
      "inputs": [
        {
          "indexed": false,
          "internalType": "uint32",
          "name": "_index",
          "type": "uint32"
        },
        {
          "indexed": false,
          "internalType": "address",
          "name": "_sequencer",
          "type": "address"
        },
        {
          "indexed": false,
          "internalType": "bytes32",
          "name": "_name",
          "type": "bytes32"
        },
        {
          "indexed": false,
          "internalType": "address",
          "name": "addressManager",
          "type": "address"
        },
        {
          "indexed": false,
          "internalType": "address",
          "name": "l1Messenger",
          "type": "address"
        },
        {
          "indexed": false,
          "internalType": "address",
          "name": "l1Bridge",
          "type": "address"
        },
        {
          "indexed": false,
          "internalType": "address",
          "name": "l2ton",
          "type": "address"
        },
        {
          "indexed": false,
          "internalType": "uint256",
          "name": "depositAmount",
          "type": "uint256"
        }
      ],
      "name": "CreatedOptimismSequencer",
      "type": "event"
    },
    {
      "anonymous": false,
      "inputs": [
        {
          "indexed": false,
          "internalType": "uint256",
          "name": "_totalSeigs",
          "type": "uint256"
        },
        {
          "indexed": false,
          "internalType": "uint256",
          "name": "_distributedAmount",
          "type": "uint256"
        }
      ],
      "name": "Distributed",
      "type": "event"
    },
    {
      "anonymous": false,
      "inputs": [
        {
          "indexed": true,
          "internalType": "bytes32",
          "name": "role",
          "type": "bytes32"
        },
        {
          "indexed": true,
          "internalType": "bytes32",
          "name": "previousAdminRole",
          "type": "bytes32"
        },
        {
          "indexed": true,
          "internalType": "bytes32",
          "name": "newAdminRole",
          "type": "bytes32"
        }
      ],
      "name": "RoleAdminChanged",
      "type": "event"
    },
    {
      "anonymous": false,
      "inputs": [
        {
          "indexed": true,
          "internalType": "bytes32",
          "name": "role",
          "type": "bytes32"
        },
        {
          "indexed": true,
          "internalType": "address",
          "name": "account",
          "type": "address"
        },
        {
          "indexed": true,
          "internalType": "address",
          "name": "sender",
          "type": "address"
        }
      ],
      "name": "RoleGranted",
      "type": "event"
    },
    {
      "anonymous": false,
      "inputs": [
        {
          "indexed": true,
          "internalType": "bytes32",
          "name": "role",
          "type": "bytes32"
        },
        {
          "indexed": true,
          "internalType": "address",
          "name": "account",
          "type": "address"
        },
        {
          "indexed": true,
          "internalType": "address",
          "name": "sender",
          "type": "address"
        }
      ],
      "name": "RoleRevoked",
      "type": "event"
    },
    {
      "inputs": [],
      "name": "ADMIN_ROLE",
      "outputs": [
        {
          "internalType": "bytes32",
          "name": "",
          "type": "bytes32"
        }
      ],
      "stateMutability": "view",
      "type": "function"
    },
    {
      "inputs": [],
      "name": "DEFAULT_ADMIN_ROLE",
      "outputs": [
        {
          "internalType": "bytes32",
          "name": "",
          "type": "bytes32"
        }
      ],
      "stateMutability": "view",
      "type": "function"
    },
    {
      "inputs": [],
      "name": "POLICY_ROLE",
      "outputs": [
        {
          "internalType": "bytes32",
          "name": "",
          "type": "bytes32"
        }
      ],
      "stateMutability": "view",
      "type": "function"
    },
    {
      "inputs": [
        {
          "internalType": "address",
          "name": "account",
          "type": "address"
        }
      ],
      "name": "addAdmin",
      "outputs": [],
      "stateMutability": "nonpayable",
      "type": "function"
    },
    {
      "inputs": [
        {
          "internalType": "uint256",
          "name": "amount",
          "type": "uint256"
        }
      ],
      "name": "addSeigs",
      "outputs": [
        {
          "internalType": "bool",
          "name": "",
          "type": "bool"
        }
      ],
      "stateMutability": "nonpayable",
      "type": "function"
    },
    {
      "inputs": [
        {
          "internalType": "address",
          "name": "",
          "type": "address"
        }
      ],
      "name": "aliveImplementation",
      "outputs": [
        {
          "internalType": "bool",
          "name": "",
          "type": "bool"
        }
      ],
      "stateMutability": "view",
      "type": "function"
    },
    {
      "inputs": [
        {
          "internalType": "address",
          "name": "account",
          "type": "address"
        }
      ],
      "name": "balanceOfLton",
      "outputs": [
        {
          "internalType": "uint256",
          "name": "amount",
          "type": "uint256"
        }
      ],
      "stateMutability": "view",
      "type": "function"
    },
    {
      "inputs": [],
      "name": "candidate",
      "outputs": [
        {
          "internalType": "address",
          "name": "",
          "type": "address"
        }
      ],
      "stateMutability": "view",
      "type": "function"
    },
    {
      "inputs": [
        {
          "internalType": "uint32",
          "name": "",
          "type": "uint32"
        }
      ],
      "name": "candidateNames",
      "outputs": [
        {
          "internalType": "bytes32",
          "name": "",
          "type": "bytes32"
        }
      ],
      "stateMutability": "view",
      "type": "function"
    },
    {
      "inputs": [
        {
          "internalType": "uint256",
          "name": "",
          "type": "uint256"
        }
      ],
      "name": "candidatesIndexes",
      "outputs": [
        {
          "internalType": "uint32",
          "name": "",
          "type": "uint32"
        }
      ],
      "stateMutability": "view",
      "type": "function"
    },
    {
      "inputs": [
        {
          "internalType": "uint32",
          "name": "_layerIndex",
          "type": "uint32"
        }
      ],
      "name": "claim",
      "outputs": [],
      "stateMutability": "nonpayable",
      "type": "function"
    },
    {
      "inputs": [
        {
          "internalType": "uint32",
          "name": "_sequenceIndex",
          "type": "uint32"
        },
        {
          "internalType": "bytes32",
          "name": "_name",
          "type": "bytes32"
        },
        {
          "internalType": "uint16",
          "name": "_commission",
          "type": "uint16"
        }
      ],
      "name": "createCandidate",
      "outputs": [],
      "stateMutability": "nonpayable",
      "type": "function"
    },
    {
      "inputs": [
        {
          "internalType": "bytes32",
          "name": "_name",
          "type": "bytes32"
        },
        {
          "internalType": "address",
          "name": "addressManager",
          "type": "address"
        },
        {
          "internalType": "address",
          "name": "l1Messenger",
          "type": "address"
        },
        {
          "internalType": "address",
          "name": "l1Bridge",
          "type": "address"
        },
        {
          "internalType": "address",
          "name": "l2ton",
          "type": "address"
        }
      ],
      "name": "createOptimismSequencer",
      "outputs": [],
      "stateMutability": "nonpayable",
      "type": "function"
    },
    {
      "inputs": [],
      "name": "curTotalAmountsLayer2",
      "outputs": [
        {
          "internalType": "uint256",
          "name": "amount",
          "type": "uint256"
        }
      ],
      "stateMutability": "view",
      "type": "function"
    },
    {
      "inputs": [],
      "name": "curTotalLayer2Deposits",
      "outputs": [
        {
          "internalType": "uint256",
          "name": "amount",
          "type": "uint256"
        }
      ],
      "stateMutability": "view",
      "type": "function"
    },
    {
      "inputs": [
        {
          "internalType": "uint32",
          "name": "_layerIndex",
          "type": "uint32"
        }
      ],
      "name": "curlayer2DepositsOf",
      "outputs": [
        {
          "internalType": "uint256",
          "name": "amount",
          "type": "uint256"
        }
      ],
      "stateMutability": "view",
      "type": "function"
    },
    {
      "inputs": [],
      "name": "delayBlocksForWithdraw",
      "outputs": [
        {
          "internalType": "uint256",
          "name": "",
          "type": "uint256"
        }
      ],
      "stateMutability": "view",
      "type": "function"
    },
    {
      "inputs": [
        {
          "internalType": "uint32",
          "name": "_layerIndex",
          "type": "uint32"
        }
      ],
      "name": "depositsOf",
      "outputs": [
        {
          "internalType": "uint256",
          "name": "amount",
          "type": "uint256"
        }
      ],
      "stateMutability": "view",
      "type": "function"
    },
    {
      "inputs": [],
      "name": "distribute",
      "outputs": [],
      "stateMutability": "nonpayable",
      "type": "function"
    },
    {
      "inputs": [
        {
          "internalType": "uint32",
          "name": "_index",
          "type": "uint32"
        }
      ],
      "name": "existedCandidateIndex",
      "outputs": [
        {
          "internalType": "bool",
          "name": "exist_",
          "type": "bool"
        }
      ],
      "stateMutability": "view",
      "type": "function"
    },
    {
      "inputs": [
        {
          "internalType": "uint32",
          "name": "_index",
          "type": "uint32"
        }
      ],
      "name": "existedLayer2Index",
      "outputs": [
        {
          "internalType": "bool",
          "name": "exist_",
          "type": "bool"
        }
      ],
      "stateMutability": "view",
      "type": "function"
    },
    {
      "inputs": [],
      "name": "getAllCandidates",
      "outputs": [
        {
          "internalType": "bytes32[]",
          "name": "candidateNames_",
          "type": "bytes32[]"
        },
        {
          "internalType": "uint32[]",
          "name": "candidateNamesIndexes_",
          "type": "uint32[]"
        },
        {
          "internalType": "bytes[]",
          "name": "infos_",
          "type": "bytes[]"
        }
      ],
      "stateMutability": "view",
      "type": "function"
    },
    {
      "inputs": [],
      "name": "getAllLayers",
      "outputs": [
        {
          "internalType": "bytes32[]",
          "name": "optimismSequencerNames_",
          "type": "bytes32[]"
        },
        {
          "internalType": "uint32[]",
          "name": "optimismSequencerIndexes_",
          "type": "uint32[]"
        },
        {
          "components": [
            {
              "internalType": "uint256",
              "name": "securityDeposit",
              "type": "uint256"
            },
            {
              "internalType": "uint256",
              "name": "seigs",
              "type": "uint256"
            }
          ],
          "internalType": "struct Layer2.Layer2Holdings[]",
          "name": "holdings_",
          "type": "tuple[]"
        },
        {
          "internalType": "bytes[]",
          "name": "infos_",
          "type": "bytes[]"
        }
      ],
      "stateMutability": "view",
      "type": "function"
    },
    {
      "inputs": [
        {
          "internalType": "bytes32",
          "name": "role",
          "type": "bytes32"
        }
      ],
      "name": "getRoleAdmin",
      "outputs": [
        {
          "internalType": "bytes32",
          "name": "",
          "type": "bytes32"
        }
      ],
      "stateMutability": "view",
      "type": "function"
    },
    {
      "inputs": [
        {
          "internalType": "bytes32",
          "name": "role",
          "type": "bytes32"
        },
        {
          "internalType": "address",
          "name": "account",
          "type": "address"
        }
      ],
      "name": "grantRole",
      "outputs": [],
      "stateMutability": "nonpayable",
      "type": "function"
    },
    {
      "inputs": [
        {
          "internalType": "bytes32",
          "name": "role",
          "type": "bytes32"
        },
        {
          "internalType": "address",
          "name": "account",
          "type": "address"
        }
      ],
      "name": "hasRole",
      "outputs": [
        {
          "internalType": "bool",
          "name": "",
          "type": "bool"
        }
      ],
      "stateMutability": "view",
      "type": "function"
    },
    {
      "inputs": [
        {
          "internalType": "uint32",
          "name": "",
          "type": "uint32"
        }
      ],
      "name": "holdings",
      "outputs": [
        {
          "internalType": "uint256",
          "name": "securityDeposit",
          "type": "uint256"
        },
        {
          "internalType": "uint256",
          "name": "seigs",
          "type": "uint256"
        }
      ],
      "stateMutability": "view",
      "type": "function"
    },
    {
      "inputs": [],
      "name": "indexCandidates",
      "outputs": [
        {
          "internalType": "uint32",
          "name": "",
          "type": "uint32"
        }
      ],
      "stateMutability": "view",
      "type": "function"
    },
    {
      "inputs": [],
      "name": "indexSequencers",
      "outputs": [
        {
          "internalType": "uint32",
          "name": "",
          "type": "uint32"
        }
      ],
      "stateMutability": "view",
      "type": "function"
    },
    {
      "inputs": [
        {
          "internalType": "address",
          "name": "account",
          "type": "address"
        }
      ],
      "name": "isAdmin",
      "outputs": [
        {
          "internalType": "bool",
          "name": "",
          "type": "bool"
        }
      ],
      "stateMutability": "view",
      "type": "function"
    },
    {
      "inputs": [
        {
          "internalType": "uint32",
          "name": "layerKey_",
          "type": "uint32"
        }
      ],
      "name": "layerHoldings",
      "outputs": [
        {
          "components": [
            {
              "internalType": "uint256",
              "name": "securityDeposit",
              "type": "uint256"
            },
            {
              "internalType": "uint256",
              "name": "seigs",
              "type": "uint256"
            }
          ],
          "internalType": "struct Layer2.Layer2Holdings",
          "name": "",
          "type": "tuple"
        }
      ],
      "stateMutability": "view",
      "type": "function"
    },
    {
      "inputs": [
        {
          "internalType": "bytes32",
          "name": "",
          "type": "bytes32"
        }
      ],
      "name": "layerKeys",
      "outputs": [
        {
          "internalType": "bool",
          "name": "",
          "type": "bool"
        }
      ],
      "stateMutability": "view",
      "type": "function"
    },
    {
      "inputs": [],
      "name": "maxLayer2Count",
      "outputs": [
        {
          "internalType": "uint256",
          "name": "",
          "type": "uint256"
        }
      ],
      "stateMutability": "view",
      "type": "function"
    },
    {
      "inputs": [],
      "name": "minimumDepositForCandidate",
      "outputs": [
        {
          "internalType": "uint256",
          "name": "",
          "type": "uint256"
        }
      ],
      "stateMutability": "view",
      "type": "function"
    },
    {
      "inputs": [],
      "name": "minimumDepositForSequencer",
      "outputs": [
        {
          "internalType": "uint256",
          "name": "",
          "type": "uint256"
        }
      ],
      "stateMutability": "view",
      "type": "function"
    },
    {
      "inputs": [
        {
          "internalType": "address",
          "name": "l1Bridge",
          "type": "address"
        },
        {
          "internalType": "address",
          "name": "l2ton",
          "type": "address"
        }
      ],
      "name": "minimumSecurityDepositAmount",
      "outputs": [
        {
          "internalType": "uint256",
          "name": "amount",
          "type": "uint256"
        }
      ],
      "stateMutability": "view",
      "type": "function"
    },
    {
      "inputs": [],
      "name": "optimismSequencer",
      "outputs": [
        {
          "internalType": "address",
          "name": "",
          "type": "address"
        }
      ],
      "stateMutability": "view",
      "type": "function"
    },
    {
      "inputs": [
        {
          "internalType": "uint256",
          "name": "",
          "type": "uint256"
        }
      ],
      "name": "optimismSequencerIndexes",
      "outputs": [
        {
          "internalType": "uint32",
          "name": "",
          "type": "uint32"
        }
      ],
      "stateMutability": "view",
      "type": "function"
    },
    {
      "inputs": [
        {
          "internalType": "uint32",
          "name": "",
          "type": "uint32"
        }
      ],
      "name": "optimismSequencerNames",
      "outputs": [
        {
          "internalType": "bytes32",
          "name": "",
          "type": "bytes32"
        }
      ],
      "stateMutability": "view",
      "type": "function"
    },
    {
      "inputs": [],
      "name": "pauseProxy",
      "outputs": [
        {
          "internalType": "bool",
          "name": "",
          "type": "bool"
        }
      ],
      "stateMutability": "view",
      "type": "function"
    },
    {
      "inputs": [
        {
          "internalType": "uint256",
          "name": "",
          "type": "uint256"
        }
      ],
      "name": "proxyImplementation",
      "outputs": [
        {
          "internalType": "address",
          "name": "",
          "type": "address"
        }
      ],
      "stateMutability": "view",
      "type": "function"
    },
    {
      "inputs": [],
      "name": "ratioSecurityDepositOfTvl",
      "outputs": [
        {
          "internalType": "uint16",
          "name": "",
          "type": "uint16"
        }
      ],
      "stateMutability": "view",
      "type": "function"
    },
    {
      "inputs": [
        {
          "internalType": "address",
          "name": "account",
          "type": "address"
        }
      ],
      "name": "removeAdmin",
      "outputs": [],
      "stateMutability": "nonpayable",
      "type": "function"
    },
    {
      "inputs": [
        {
          "internalType": "bytes32",
          "name": "role",
          "type": "bytes32"
        },
        {
          "internalType": "address",
          "name": "account",
          "type": "address"
        }
      ],
      "name": "renounceRole",
      "outputs": [],
      "stateMutability": "nonpayable",
      "type": "function"
    },
    {
      "inputs": [
        {
          "internalType": "bytes32",
          "name": "role",
          "type": "bytes32"
        },
        {
          "internalType": "address",
          "name": "account",
          "type": "address"
        }
      ],
      "name": "revokeRole",
      "outputs": [],
      "stateMutability": "nonpayable",
      "type": "function"
    },
    {
      "inputs": [],
      "name": "seigManagerV2",
      "outputs": [
        {
          "internalType": "address",
          "name": "",
          "type": "address"
        }
      ],
      "stateMutability": "view",
      "type": "function"
    },
    {
      "inputs": [
        {
          "internalType": "bytes4",
          "name": "",
          "type": "bytes4"
        }
      ],
      "name": "selectorImplementation",
      "outputs": [
        {
          "internalType": "address",
          "name": "",
          "type": "address"
        }
      ],
      "stateMutability": "view",
      "type": "function"
    },
    {
      "inputs": [
        {
          "internalType": "uint32",
          "name": "_layerIndex",
          "type": "uint32"
        }
      ],
      "name": "sequencer",
      "outputs": [
        {
          "internalType": "address",
          "name": "sequencer_",
          "type": "address"
        }
      ],
      "stateMutability": "view",
      "type": "function"
    },
    {
      "inputs": [
        {
          "internalType": "uint256",
          "name": "_delayBlocksForWithdraw",
          "type": "uint256"
        }
      ],
      "name": "setDelayBlocksForWithdraw",
      "outputs": [],
      "stateMutability": "nonpayable",
      "type": "function"
    },
    {
      "inputs": [
        {
          "internalType": "uint256",
          "name": "_maxLayer2Count",
          "type": "uint256"
        }
      ],
      "name": "setMaxLayer2Count",
      "outputs": [],
      "stateMutability": "nonpayable",
      "type": "function"
    },
    {
      "inputs": [
        {
          "internalType": "uint256",
          "name": "_minimumDepositForCandidate",
          "type": "uint256"
        }
      ],
      "name": "setMinimumDepositForCandidate",
      "outputs": [],
      "stateMutability": "nonpayable",
      "type": "function"
    },
    {
      "inputs": [
        {
          "internalType": "uint256",
          "name": "_minimumDepositForSequencer",
          "type": "uint256"
        }
      ],
      "name": "setMinimumDepositForSequencer",
      "outputs": [],
      "stateMutability": "nonpayable",
      "type": "function"
    },
    {
      "inputs": [
        {
          "internalType": "uint16",
          "name": "_ratioSecurityDepositOfTvl",
          "type": "uint16"
        }
      ],
      "name": "setRatioSecurityDepositOfTvl",
      "outputs": [],
      "stateMutability": "nonpayable",
      "type": "function"
    },
    {
      "inputs": [
        {
          "internalType": "bytes4",
          "name": "interfaceId",
          "type": "bytes4"
        }
      ],
      "name": "supportsInterface",
      "outputs": [
        {
          "internalType": "bool",
          "name": "",
          "type": "bool"
        }
      ],
      "stateMutability": "view",
      "type": "function"
    },
    {
      "inputs": [],
      "name": "ton",
      "outputs": [
        {
          "internalType": "contract IERC20",
          "name": "",
          "type": "address"
        }
      ],
      "stateMutability": "view",
      "type": "function"
    },
    {
      "inputs": [],
      "name": "totalCandidates",
      "outputs": [
        {
          "internalType": "uint256",
          "name": "total",
          "type": "uint256"
        }
      ],
      "stateMutability": "view",
      "type": "function"
    },
    {
      "inputs": [],
      "name": "totalLayers",
      "outputs": [
        {
          "internalType": "uint256",
          "name": "total",
          "type": "uint256"
        }
      ],
      "stateMutability": "view",
      "type": "function"
    },
    {
      "inputs": [],
      "name": "totalSecurityDeposit",
      "outputs": [
        {
          "internalType": "uint256",
          "name": "",
          "type": "uint256"
        }
      ],
      "stateMutability": "view",
      "type": "function"
    },
    {
      "inputs": [],
      "name": "totalSeigs",
      "outputs": [
        {
          "internalType": "uint256",
          "name": "",
          "type": "uint256"
        }
      ],
      "stateMutability": "view",
      "type": "function"
    },
    {
      "inputs": [
        {
          "internalType": "address",
          "name": "newAdmin",
          "type": "address"
        }
      ],
      "name": "transferAdmin",
      "outputs": [],
      "stateMutability": "nonpayable",
      "type": "function"
    }
  ],
  "bytecode": "0x60806040526015805460ff60501b19166a010000000000000000000017905534801561002a57600080fd5b506136838061003a6000396000f3fe608060405234801561001057600080fd5b50600436106103a45760003560e01c806370480275116101e9578063b911135f1161010f578063d639ff83116100ad578063e4fc6b6d1161007c578063e4fc6b6d1461090b578063ef6ee15314610913578063f71bf33a14610926578063fee539b71461092f57600080fd5b8063d639ff83146108ba578063da0dc135146108cd578063e0ef2a7f146108e0578063e12a62191461090357600080fd5b8063cc48b947116100e9578063cc48b9471461086b578063d37c6d691461087e578063d48ddf0414610887578063d547741f146108a757600080fd5b8063b911135f14610811578063c14241b91461083a578063caef64e61461086257600080fd5b80638d1f3d0a11610187578063a4dd8b7d11610156578063a4dd8b7d14610783578063a73ddaab1461078c578063ab8930a51461079f578063ae9046ca146107fe57600080fd5b80638d1f3d0a146107215780638d5d8e551461073457806391d1485414610744578063a217fddf1461077b57600080fd5b806375829def116101c357806375829def146106cc57806375b238fc146106df5780638935af9a146107065780638cc193a51461071957600080fd5b8063704802751461069357806373469a7a146106a6578063736dd19d146106b957600080fd5b80633bd0c19f116102ce578063550d01a31161026c57806363a8fd891161023b57806363a8fd891461065857806363e6f0d8146106655780636c8381f81461066d5780636e1ef23a1461068057600080fd5b8063550d01a31461060157806357bc1df0146106245780635b1f335f1461063c5780635d170f8f1461064557600080fd5b8063499ad9da116102a8578063499ad9da146105915780634c76e6c81461059a5780634c7825bb146105ad57806350d2a276146105c057600080fd5b80633bd0c19f146105365780634339da1c1461055e57806346551ece1461057157600080fd5b80631c283321116103465780632e6997fe116103155780632e6997fe146104f15780632f2ff15d1461050857806336568abe1461051b5780633866965c1461052e57600080fd5b80631c283321146104735780632298524614610486578063248a9ca3146104bb57806324d7806c146104de57600080fd5b8063091e3be311610382578063091e3be3146104225780631785f53c1461043557806319a93b88146104485780631a4f1eb91461046057600080fd5b806301ffc9a7146103a957806304196138146103d1578063049518911461040d575b600080fd5b6103bc6103b7366004612fb0565b610942565b60405190151581526020015b60405180910390f35b6103f86103df366004612fee565b6012602052600090815260409020805460019091015482565b604080519283526020830191909152016103c8565b61042061041b366004612fee565b610979565b005b61042061043036600461301b565b610b21565b61042061044336600461304b565b610bde565b610450610c59565b6040516103c8949392919061317e565b61042061046e366004613211565b610fd1565b6103bc610481366004613211565b61105e565b6104ad7ffb5864e8ff833c3cb2d2d08505e82ff02a43554c74a35d4f5a64e8526127831181565b6040519081526020016103c8565b6104ad6104c9366004613211565b60009081526020819052604090206001015490565b6103bc6104ec36600461304b565b6110e1565b6104f9611121565b6040516103c89392919061322a565b61042061051636600461326d565b6113a1565b61042061052936600461326d565b6113cb565b6014546104ad565b610549610544366004613211565b611457565b60405163ffffffff90911681526020016103c8565b61054961056c366004613211565b611491565b6104ad61057f366004612fee565b60106020526000908152604090205481565b6104ad600e5481565b6104ad6105a836600461329d565b6114a1565b6104ad6105bb366004612fee565b611570565b6105e96105ce366004612fb0565b6004602052600090815260409020546001600160a01b031681565b6040516001600160a01b0390911681526020016103c8565b6103bc61060f36600461304b565b60036020526000908152604090205460ff1681565b60155461054990640100000000900463ffffffff1681565b6104ad600d5481565b6103bc610653366004612fee565b61157b565b6001546103bc9060ff1681565b600f546104ad565b6008546105e9906001600160a01b031681565b6103bc61068e366004612fee565b6115a2565b6104206106a136600461304b565b6115c0565b6006546105e9906001600160a01b031681565b6104206106c73660046132cb565b611638565b6104206106da36600461304b565b611bde565b6104ad7fdf8b4c520ffe197c5343c6f5aec59570151ef9a492f2c624fd45ddde6135ec4281565b610420610714366004613211565b611d2e565b6104ad611dbb565b6105e961072f366004612fee565b611e9b565b6015546105499063ffffffff1681565b6103bc61075236600461326d565b6000918252602082815260408084206001600160a01b0393909316845291905290205460ff1690565b6104ad600081565b6104ad600a5481565b61042061079a366004613211565b611f23565b6107f16107ad366004612fee565b60408051808201909152600080825260208201525063ffffffff16600090815260126020908152604091829020825180840190935280548352600101549082015290565b6040516103c89190613307565b6104ad61080c366004612fee565b611fe7565b6105e961081f366004613211565b6002602052600090815260409020546001600160a01b031681565b60155461084f90600160401b900461ffff1681565b60405161ffff90911681526020016103c8565b6104ad600b5481565b6005546105e9906001600160a01b031681565b6104ad600c5481565b6104ad610895366004612fee565b60116020526000908152604090205481565b6104206108b536600461326d565b61208f565b6104206108c8366004613211565b6120b4565b6007546105e9906001600160a01b031681565b6103bc6108ee366004613211565b60136020526000908152604090205460ff1681565b6104ad612141565b61042061215d565b61042061092136600461331e565b612465565b6104ad60095481565b6104ad61093d36600461304b565b612a1b565b60006001600160e01b03198216637965db0b60e01b148061097357506301ffc9a760e01b6001600160e01b03198316145b92915050565b63ffffffff8116600090815260126020526040812060010154908190036109e75760405162461bcd60e51b815260206004820152601260248201527f6e6f20616d6f756e7420746f20636c61696d000000000000000000000000000060448201526064015b60405180910390fd5b60006109f283611e9b565b90506001600160a01b038116610a4a5760405162461bcd60e51b815260206004820152600e60248201527f7a65726f2073657175656e63657200000000000000000000000000000000000060448201526064016109de565b63ffffffff8316600090815260126020526040808220600101919091556006549051635569f64b60e11b81526001600160a01b038381166004830152602482018590529091169063aad3ec9690604401600060405180830381600087803b158015610ab457600080fd5b505af1158015610ac8573d6000803e3d6000fd5b50506040805163ffffffff871681526001600160a01b03851660208201529081018590527fdc8b8058bd26d719cc330a54461930fd9c312dd28447313fd5dc4641513e00749250606001905060405180910390a1505050565b610b2a336110e1565b610b6f5760405162461bcd60e51b8152602060048201526022602482015260008051602061365783398151915260448201526134b760f11b60648201526084016109de565b60155461ffff808316600160401b9092041603610bb75760405162461bcd60e51b81526004016109de9060208082526004908201526373616d6560e01b604082015260600190565b6015805461ffff909216600160401b0269ffff000000000000000019909216919091179055565b610be7336110e1565b610c2c5760405162461bcd60e51b8152602060048201526022602482015260008051602061365783398151915260448201526134b760f11b60648201526084016109de565b610c567fdf8b4c520ffe197c5343c6f5aec59570151ef9a492f2c624fd45ddde6135ec42826113cb565b50565b600f546060908190819081908067ffffffffffffffff811115610c7e57610c7e613386565b604051908082528060200260200182016040528015610ca7578160200160208202803683370190505b50600f805460408051602080840282018101909252828152939850830182828015610d1d57602002820191906000526020600020906000905b82829054906101000a900463ffffffff1663ffffffff1681526020019060040190602082600301049283019260010382029150808411610ce05790505b505050505093508067ffffffffffffffff811115610d3d57610d3d613386565b604051908082528060200260200182016040528015610d8257816020015b6040805180820190915260008082526020820152815260200190600190039081610d5b5790505b5092508067ffffffffffffffff811115610d9e57610d9e613386565b604051908082528060200260200182016040528015610dd157816020015b6060815260200190600190039081610dbc5790505b50915060005b81811015610fc95760106000600f8381548110610df657610df661339c565b90600052602060002090600891828204019190066004029054906101000a900463ffffffff1663ffffffff1663ffffffff16815260200190815260200160002054868281518110610e4957610e4961339c565b60200260200101818152505060126000600f8381548110610e6c57610e6c61339c565b90600052602060002090600891828204019190066004029054906101000a900463ffffffff1663ffffffff1663ffffffff16815260200190815260200160002060405180604001604052908160008201548152602001600182015481525050848281518110610edd57610edd61339c565b6020908102919091010152600754600f80546001600160a01b039092169163659ab820919084908110610f1257610f1261339c565b6000918252602090912060088204015460405160e084901b6001600160e01b0319168152600790921660049081026101000a90910463ffffffff1690820152602401600060405180830381865afa158015610f71573d6000803e3d6000fd5b505050506040513d6000823e601f3d908101601f19168201604052610f9991908101906133b2565b838281518110610fab57610fab61339c565b60200260200101819052508080610fc190613475565b915050610dd7565b505090919293565b610fda336110e1565b61101f5760405162461bcd60e51b8152602060048201526022602482015260008051602061365783398151915260448201526134b760f11b60648201526084016109de565b80600b54036110595760405162461bcd60e51b81526004016109de9060208082526004908201526373616d6560e01b604082015260600190565b600b55565b6006546000906001600160a01b031633146110bb5760405162461bcd60e51b815260206004820152601b60248201527f63616c6c6572206973206e6f7420536569674d616e616765725632000000000060448201526064016109de565b81156110d95781600e60008282546110d3919061348e565b90915550505b506001919050565b6001600160a01b03811660009081527f5cbfc8ee58ca47855df7bcf648dd304ddb6b932f9b87878bdf6318d7ec7ee5b7602052604081205460ff16610973565b601454606090819081908067ffffffffffffffff81111561114457611144613386565b60405190808252806020026020018201604052801561116d578160200160208202803683370190505b5060148054604080516020808402820181019092528281529397508301828280156111e357602002820191906000526020600020906000905b82829054906101000a900463ffffffff1663ffffffff16815260200190600401906020826003010492830192600103820291508084116111a65790505b505050505092508067ffffffffffffffff81111561120357611203613386565b60405190808252806020026020018201604052801561123657816020015b60608152602001906001900390816112215790505b50915060005b8181101561139a57601160006014838154811061125b5761125b61339c565b90600052602060002090600891828204019190066004029054906101000a900463ffffffff1663ffffffff1663ffffffff168152602001908152602001600020548582815181106112ae576112ae61339c565b6020908102919091010152600854601480546001600160a01b039092169163659ab8209190849081106112e3576112e361339c565b6000918252602090912060088204015460405160e084901b6001600160e01b0319168152600790921660049081026101000a90910463ffffffff1690820152602401600060405180830381865afa158015611342573d6000803e3d6000fd5b505050506040513d6000823e601f3d908101601f1916820160405261136a91908101906133b2565b83828151811061137c5761137c61339c565b6020026020010181905250808061139290613475565b91505061123c565b5050909192565b6000828152602081905260409020600101546113bc81612b0c565b6113c68383612b16565b505050565b6001600160a01b03811633146114495760405162461bcd60e51b815260206004820152602f60248201527f416363657373436f6e74726f6c3a2063616e206f6e6c792072656e6f756e636560448201527f20726f6c657320666f722073656c66000000000000000000000000000000000060648201526084016109de565b6114538282612bb4565b5050565b6014818154811061146757600080fd5b9060005260206000209060089182820401919006600402915054906101000a900463ffffffff1681565b600f818154811061146757600080fd5b601554600090600160401b900461ffff16156114c05750600954610973565b60155460075460405163edcc217760e01b81526001600160a01b03868116600483015285811660248301526115699361271093600160401b90910461ffff169291169063edcc217790604401602060405180830381865afa158015611529573d6000803e3d6000fd5b505050506040513d601f19601f8201168201806040525081019061154d91906134a1565b61155791906134ba565b61156191906134d1565b600954612c33565b9392505050565b600061097382611fe7565b60155460009063ffffffff64010000000090910481169083161161159d575060015b919050565b60155460009063ffffffff9081169083161161159d57506001919050565b6115c9336110e1565b61160e5760405162461bcd60e51b8152602060048201526022602482015260008051602061365783398151915260448201526134b760f11b60648201526084016109de565b610c567fdf8b4c520ffe197c5343c6f5aec59570151ef9a492f2c624fd45ddde6135ec42826113a1565b828063ffffffff166000036116745760405162461bcd60e51b81526020600482015260026024820152615a3160f01b60448201526064016109de565b601554600160501b900460ff166116b65760405162461bcd60e51b81526004016109de906020808252600490820152636c6f636b60e01b604082015260600190565b6015805460ff60501b19811690915563ffffffff908116908516111561171e5760405162461bcd60e51b815260206004820152600b60248201527f77726f6e6720696e64657800000000000000000000000000000000000000000060448201526064016109de565b604051633be35f5f60e21b815233600482015263ffffffff8516602482015260009073__$d436d56fec194dfaaabaf06742f0275c03$__9063ef8d7d7c90604401602060405180830381865af415801561177c573d6000803e3d6000fd5b505050506040513d601f19601f820116820180604052508101906117a091906134a1565b60008181526013602052604090205490915060ff16156117f45760405162461bcd60e51b815260206004820152600f60248201526e185b1c9958591e4818dc99585d1959608a1b60448201526064016109de565b6000818152601360205260408120805460ff191660011790556015805460049061182c9063ffffffff640100000000909104166134f3565b825461010092830a63ffffffff818102199092168383169182021790945560148054600181019091557fce6d7b5282bd9a3661ae061feed1dbda4e52ab073b1f9285be6e155d9c38d4ec60088204018054600790921660040290940a8083021990911690850217909255600092835260116020526040909220879055600a546005549293506118c9926001600160a01b03169133913091612c4916565b600a54600554600854604051636eb1769f60e11b81523060048201526001600160a01b03918216602482015291169063dd62ed3e90604401602060405180830381865afa15801561191e573d6000803e3d6000fd5b505050506040513d601f19601f8201168201806040525081019061194291906134a1565b1015611a3457600554600854604080516318160ddd60e01b815290516001600160a01b039384169363095ea7b393169184916318160ddd916004808201926020929091908290030181865afa15801561199f573d6000803e3d6000fd5b505050506040513d601f19601f820116820180604052508101906119c391906134a1565b6040516001600160e01b031960e085901b1681526001600160a01b03909216600483015260248201526044016020604051808303816000875af1158015611a0e573d6000803e3d6000fd5b505050506040513d601f19601f82011682018060405250810190611a329190613516565b505b600854600a54604080513360601b6bffffffffffffffffffffffff1916602082015260e08a901b6001600160e01b031916603482015260f088901b7fffff000000000000000000000000000000000000000000000000000000000000166038820152603a8082019390935281518082039093018352605a810191829052630df2b42960e41b9091526001600160a01b039092169163df2b429091611add91859190605e01613538565b6020604051808303816000875af1158015611afc573d6000803e3d6000fd5b505050506040513d601f19601f82011682018060405250810190611b209190613516565b611b6c5760405162461bcd60e51b815260206004820152601460248201527f4661696c2063726561746543616e64696461746500000000000000000000000060448201526064016109de565b6040805163ffffffff83811682523360208301528183018890528816606082015261ffff8616608082015290517f709fcaf2dc11df83dc11df5f3157cde1ed5048d1d4c6c0cbbff7bf781a37f1f79181900360a00190a150506015805460ff60501b1916600160501b17905550505050565b611be7336110e1565b611c2c5760405162461bcd60e51b8152602060048201526022602482015260008051602061365783398151915260448201526134b760f11b60648201526084016109de565b6001600160a01b038116611c825760405162461bcd60e51b815260206004820152601860248201527f41636365737369626c653a207a65726f2061646472657373000000000000000060448201526064016109de565b6001600160a01b0381163303611cda5760405162461bcd60e51b815260206004820152601660248201527f41636365737369626c653a2073616d652061646d696e0000000000000000000060448201526064016109de565b611d047fdf8b4c520ffe197c5343c6f5aec59570151ef9a492f2c624fd45ddde6135ec42826113a1565b610c567fdf8b4c520ffe197c5343c6f5aec59570151ef9a492f2c624fd45ddde6135ec42336113cb565b611d37336110e1565b611d7c5760405162461bcd60e51b8152602060048201526022602482015260008051602061365783398151915260448201526134b760f11b60648201526084016109de565b8060095403611db65760405162461bcd60e51b81526004016109de9060208082526004908201526373616d6560e01b604082015260600190565b600955565b600f54600090815b81811015611e9657600754600f80546001600160a01b03909216916341e5dbe8919084908110611df557611df561339c565b6000918252602090912060088204015460405160e084901b6001600160e01b0319168152600790921660049081026101000a90910463ffffffff1690820152602401602060405180830381865afa158015611e54573d6000803e3d6000fd5b505050506040513d601f19601f82011682018060405250810190611e7891906134a1565b611e82908461348e565b925080611e8e81613475565b915050611dc3565b505090565b60155460009063ffffffff9081169083161161159d5760075460405163468f9e8560e11b815263ffffffff841660048201526001600160a01b0390911690638d1f3d0a90602401602060405180830381865afa158015611eff573d6000803e3d6000fd5b505050506040513d601f19601f82011682018060405250810190610973919061355f565b8080600003611f595760405162461bcd60e51b81526020600482015260026024820152615a3160f01b60448201526064016109de565b611f62336110e1565b611fa75760405162461bcd60e51b8152602060048201526022602482015260008051602061365783398151915260448201526134b760f11b60648201526084016109de565b81600c5403611fe15760405162461bcd60e51b81526004016109de9060208082526004908201526373616d6560e01b604082015260600190565b50600c55565b60075460405163083cbb7d60e31b815263ffffffff831660048201526000916001600160a01b0316906341e5dbe890602401602060405180830381865afa925050508015612052575060408051601f3d908101601f1916820190925261204f918101906134a1565b60015b610973573d808015612080576040519150601f19603f3d011682016040523d82523d6000602084013e612085565b606091505b5060009392505050565b6000828152602081905260409020600101546120aa81612b0c565b6113c68383612bb4565b6120bd336110e1565b6121025760405162461bcd60e51b8152602060048201526022602482015260008051602061365783398151915260448201526134b760f11b60648201526084016109de565b80600a540361213c5760405162461bcd60e51b81526004016109de9060208082526004908201526373616d6560e01b604082015260600190565b600a55565b6000600d5461214e611dbb565b612158919061348e565b905090565b600e546000036121af5760405162461bcd60e51b815260206004820152601760248201527f6e6f2064697374726962757461626c6520616d6f756e7400000000000000000060448201526064016109de565b600f546000808267ffffffffffffffff8111156121ce576121ce613386565b6040519080825280602002602001820160405280156121f7578160200160208202803683370190505b50905060005b83811015612310576000600f828154811061221a5761221a61339c565b6000918252602080832060088304015460079092166004026101000a90910463ffffffff16808352601282526040928390208351808501909452805480855260019091015492840192909252600954909350116122a45761227a82611fe7565b84848151811061228c5761228c61339c565b602002602001018181516122a0919061348e565b9052505b80600001518484815181106122bb576122bb61339c565b602002602001018181516122cf919061348e565b90525083518490849081106122e6576122e661339c565b6020026020010151856122f9919061348e565b94505050808061230890613475565b9150506121fd565b50600082156124235760005b84811015612404576000600f82815481106123395761233961339c565b6000918252602080832060088304015460079092166004026101000a90910463ffffffff16808352601290915260408220865191935091908690859081106123835761238361339c565b602002602001015111156123ef576000868685815181106123a6576123a661339c565b6020026020010151600e546123bb91906134ba565b6123c591906134d1565b9050808260010160008282546123db919061348e565b909155506123eb9050818661348e565b9450505b505080806123fc90613475565b91505061231c565b5080156124235780600e600082825461241d919061357c565b90915550505b600e5460408051918252602082018390527f97791d3ac1343e05805a2f905fa80b249c2ca58cf9fef455d4fa7ec13ce58321910160405180910390a150505050565b601554600160501b900460ff166124a75760405162461bcd60e51b81526004016109de906020808252600490820152636c6f636b60e01b604082015260600190565b6015805460ff60501b1916905560405163bf40fac160e01b815260206004820152600d60248201527f4f564d5f53657175656e6365720000000000000000000000000000000000000060448201526001600160a01b0385169063bf40fac190606401602060405180830381865afa158015612526573d6000803e3d6000fd5b505050506040513d601f19601f8201168201806040525081019061254a919061355f565b6001600160a01b0316336001600160a01b0316146125aa5760405162461bcd60e51b815260206004820152600d60248201527f4e4f542053657175656e6365720000000000000000000000000000000000000060448201526064016109de565b600c5460155463ffffffff16106126035760405162461bcd60e51b815260206004820152601760248201527f6578636565646564206d61784c6179657232436f756e7400000000000000000060448201526064016109de565b6001600160a01b0384161580159061262357506001600160a01b03831615155b801561263757506001600160a01b03821615155b801561264b57506001600160a01b03811615155b6126975760405162461bcd60e51b815260206004820152600c60248201527f7a65726f2061646472657373000000000000000000000000000000000000000060448201526064016109de565b60405163cd13ec8760e01b81526001600160a01b038086166004830152808516602483015280841660448301528216606482015260009073__$35081dc60fc26376aafbbba403b8b17c43$__9063cd13ec8790608401602060405180830381865af415801561270a573d6000803e3d6000fd5b505050506040513d601f19601f8201168201806040525081019061272e91906134a1565b60008181526013602052604090205490915060ff16156127825760405162461bcd60e51b815260206004820152600f60248201526e185b1c9958591e4818dc99585d1959608a1b60448201526064016109de565b6000818152601360205260408120805460ff191660011790556015805482906127b09063ffffffff166134f3565b91906101000a81548163ffffffff021916908363ffffffff1602179055905060006127db85856114a1565b905080600d60008282546127ef919061348e565b909155505060055461280c906001600160a01b0316333084612c49565b600754604080516bffffffffffffffffffffffff1960608b811b821660208401528a811b8216603484015289811b8216604884015288901b16605c820152815180820360500181526070820192839052630df2b42960e41b9092526001600160a01b039092169163df2b42909161288891869190607401613538565b6020604051808303816000875af11580156128a7573d6000803e3d6000fd5b505050506040513d601f19601f820116820180604052508101906128cb9190613516565b6129175760405162461bcd60e51b815260206004820152601c60248201527f4661696c206372656174654f7074696d69736d53657175656e6365720000000060448201526064016109de565b600f805460018101909155600881047f8d1108e10bcb7c27dddfc02ed9d693a074039d026cf4ea4240b40f7d581ac80201805463ffffffff858116600460079095169490940261010090810a858102920219909216179091556000828152601260209081526040808320600954815560108352928190208d90558051948552339185019190915283018b90526001600160a01b038a81166060850152898116608085015288811660a0850152871660c084015260e08301849052917f83d9a9b76130ffa963fa4c558a5ab61c74726896c79673e9d620739aebf93953910160405180910390a150506015805460ff60501b1916600160501b17905550505050505050565b600f54600090815b81811015612b0557600754600f80546001600160a01b0390921691635f1b989e919084908110612a5557612a5561339c565b6000918252602090912060088204015460405160e084901b6001600160e01b0319168152600790921660049081026101000a90910463ffffffff16908201526001600160a01b0387166024820152604401602060405180830381865afa158015612ac3573d6000803e3d6000fd5b505050506040513d601f19601f82011682018060405250810190612ae791906134a1565b612af1908461348e565b925080612afd81613475565b915050612a23565b5050919050565b610c568133612d82565b6000828152602081815260408083206001600160a01b038516845290915290205460ff16611453576000828152602081815260408083206001600160a01b03851684529091529020805460ff19166001179055612b703390565b6001600160a01b0316816001600160a01b0316837f2f8788117e7eff1d82e926ec794901d17c78024a50270940304540a733656f0d60405160405180910390a45050565b6000828152602081815260408083206001600160a01b038516845290915290205460ff1615611453576000828152602081815260408083206001600160a01b0385168085529252808320805460ff1916905551339285917ff6391f5c32d9c69d2a47ea670b442974b53935d1edc7fd64eb21e047a839171b9190a45050565b6000818311612c425781611569565b5090919050565b604080516001600160a01b0385811660248301528481166044830152606480830185905283518084039091018152608490920183526020820180517bffffffffffffffffffffffffffffffffffffffffffffffffffffffff166323b872dd60e01b1790529151600092839290881691612cc2919061358f565b6000604051808303816000865af19150503d8060008114612cff576040519150601f19603f3d011682016040523d82523d6000602084013e612d04565b606091505b5091509150818015612d2e575080511580612d2e575080806020019051810190612d2e9190613516565b612d7a5760405162461bcd60e51b815260206004820152601460248201527f5452414e534645525f46524f4d5f4641494c454400000000000000000000000060448201526064016109de565b505050505050565b6000828152602081815260408083206001600160a01b038516845290915290205460ff1661145357612db381612df5565b612dbe836020612e07565b604051602001612dcf9291906135ab565b60408051601f198184030181529082905262461bcd60e51b82526109de9160040161362c565b60606109736001600160a01b03831660145b60606000612e168360026134ba565b612e2190600261348e565b67ffffffffffffffff811115612e3957612e39613386565b6040519080825280601f01601f191660200182016040528015612e63576020820181803683370190505b509050600360fc1b81600081518110612e7e57612e7e61339c565b60200101906001600160f81b031916908160001a905350600f60fb1b81600181518110612ead57612ead61339c565b60200101906001600160f81b031916908160001a9053506000612ed18460026134ba565b612edc90600161348e565b90505b6001811115612f61577f303132333435363738396162636465660000000000000000000000000000000085600f1660108110612f1d57612f1d61339c565b1a60f81b828281518110612f3357612f3361339c565b60200101906001600160f81b031916908160001a90535060049490941c93612f5a8161363f565b9050612edf565b5083156115695760405162461bcd60e51b815260206004820181905260248201527f537472696e67733a20686578206c656e67746820696e73756666696369656e7460448201526064016109de565b600060208284031215612fc257600080fd5b81356001600160e01b03198116811461156957600080fd5b803563ffffffff8116811461159d57600080fd5b60006020828403121561300057600080fd5b61156982612fda565b803561ffff8116811461159d57600080fd5b60006020828403121561302d57600080fd5b61156982613009565b6001600160a01b0381168114610c5657600080fd5b60006020828403121561305d57600080fd5b813561156981613036565b600081518084526020808501945080840160005b838110156130985781518752958201959082019060010161307c565b509495945050505050565b600081518084526020808501945080840160005b8381101561309857815163ffffffff16875295820195908201906001016130b7565b60005b838110156130f45781810151838201526020016130dc565b50506000910152565b600081518084526131158160208601602086016130d9565b601f01601f19169290920160200192915050565b600081518084526020808501808196508360051b8101915082860160005b8581101561317157828403895261315f8483516130fd565b98850198935090840190600101613147565b5091979650505050505050565b6080815260006131916080830187613068565b6020838203818501526131a482886130a3565b91506040848303818601528287518085528385019150838901945060005b818110156131ef576131df83875180518252602090810151910152565b94840194918301916001016131c2565b505085810360608701526132038188613129565b9a9950505050505050505050565b60006020828403121561322357600080fd5b5035919050565b60608152600061323d6060830186613068565b828103602084015261324f81866130a3565b905082810360408401526132638185613129565b9695505050505050565b6000806040838503121561328057600080fd5b82359150602083013561329281613036565b809150509250929050565b600080604083850312156132b057600080fd5b82356132bb81613036565b9150602083013561329281613036565b6000806000606084860312156132e057600080fd5b6132e984612fda565b9250602084013591506132fe60408501613009565b90509250925092565b815181526020808301519082015260408101610973565b600080600080600060a0868803121561333657600080fd5b85359450602086013561334881613036565b9350604086013561335881613036565b9250606086013561336881613036565b9150608086013561337881613036565b809150509295509295909350565b634e487b7160e01b600052604160045260246000fd5b634e487b7160e01b600052603260045260246000fd5b6000602082840312156133c457600080fd5b815167ffffffffffffffff808211156133dc57600080fd5b818401915084601f8301126133f057600080fd5b81518181111561340257613402613386565b604051601f8201601f19908116603f0116810190838211818310171561342a5761342a613386565b8160405282815287602084870101111561344357600080fd5b6134548360208301602088016130d9565b979650505050505050565b634e487b7160e01b600052601160045260246000fd5b6000600182016134875761348761345f565b5060010190565b808201808211156109735761097361345f565b6000602082840312156134b357600080fd5b5051919050565b80820281158282048414176109735761097361345f565b6000826134ee57634e487b7160e01b600052601260045260246000fd5b500490565b600063ffffffff80831681810361350c5761350c61345f565b6001019392505050565b60006020828403121561352857600080fd5b8151801515811461156957600080fd5b63ffffffff8316815260406020820152600061355760408301846130fd565b949350505050565b60006020828403121561357157600080fd5b815161156981613036565b818103818111156109735761097361345f565b600082516135a18184602087016130d9565b9190910192915050565b7f416363657373436f6e74726f6c3a206163636f756e74200000000000000000008152600083516135e38160178501602088016130d9565b7f206973206d697373696e6720726f6c652000000000000000000000000000000060179184019182015283516136208160288401602088016130d9565b01602801949350505050565b60208152600061156960208301846130fd565b60008161364e5761364e61345f565b50600019019056fe41636365737369626c653a2043616c6c6572206973206e6f7420616e2061646da164736f6c6343000812000a",
  "linkReferences": {
    "contracts/libraries/LibOperator.sol": {
      "LibOperator": [
        {
          "length": 20,
          "start": 6012
        }
      ]
    },
    "contracts/libraries/LibOptimism.sol": {
      "LibOptimism": [
        {
          "length": 20,
          "start": 9994
        }
      ]
    }
  },
  "deployedLinkReferences": {
    "contracts/libraries/LibOperator.sol": {
      "LibOperator": [
        {
          "length": 20,
          "start": 5954
        }
      ]
    },
    "contracts/libraries/LibOptimism.sol": {
      "LibOptimism": [
        {
          "length": 20,
          "start": 9936
        }
      ]
    }
  }
}