{
  "_format": "hh-sol-artifact-1",
  "contractName": "Layer2Manager",
  "sourceName": "contracts/Layer2Manager.sol",
  "abi": [
    {
      "inputs": [],
      "stateMutability": "nonpayable",
      "type": "constructor"
    },
    {
      "anonymous": false,
      "inputs": [
        {
          "indexed": false,
          "internalType": "uint32",
          "name": "_index",
          "type": "uint32"
        },
        {
          "indexed": false,
          "internalType": "address",
          "name": "_sequencer",
          "type": "address"
        },
        {
          "indexed": false,
          "internalType": "uint256",
          "name": "amount",
          "type": "uint256"
        }
      ],
      "name": "Claimed",
      "type": "event"
    },
    {
      "anonymous": false,
      "inputs": [
        {
          "indexed": false,
          "internalType": "uint32",
          "name": "_index",
          "type": "uint32"
        },
        {
          "indexed": false,
          "internalType": "address",
          "name": "_operator",
          "type": "address"
        },
        {
          "indexed": false,
          "internalType": "bytes32",
          "name": "_name",
          "type": "bytes32"
        },
        {
          "indexed": false,
          "internalType": "uint32",
          "name": "_sequencerIndex",
          "type": "uint32"
        },
        {
          "indexed": false,
          "internalType": "uint16",
          "name": "_commission",
          "type": "uint16"
        },
        {
          "indexed": false,
          "internalType": "uint256",
          "name": "depositAmount",
          "type": "uint256"
        }
      ],
      "name": "CreatedCandidate",
      "type": "event"
    },
    {
      "anonymous": false,
      "inputs": [
        {
          "indexed": false,
          "internalType": "uint32",
          "name": "_index",
          "type": "uint32"
        },
        {
          "indexed": false,
          "internalType": "address",
          "name": "_sequencer",
          "type": "address"
        },
        {
          "indexed": false,
          "internalType": "bytes32",
          "name": "_name",
          "type": "bytes32"
        },
        {
          "indexed": false,
          "internalType": "address",
          "name": "addressManager",
          "type": "address"
        },
        {
          "indexed": false,
          "internalType": "address",
          "name": "l1Bridge",
          "type": "address"
        },
        {
          "indexed": false,
          "internalType": "address",
          "name": "l2Bridge",
          "type": "address"
        },
        {
          "indexed": false,
          "internalType": "address",
          "name": "l2ton",
          "type": "address"
        },
        {
          "indexed": false,
          "internalType": "uint256",
          "name": "depositAmount",
          "type": "uint256"
        }
      ],
      "name": "CreatedOptimismSequencer",
      "type": "event"
    },
    {
      "anonymous": false,
      "inputs": [
        {
          "indexed": false,
          "internalType": "uint32",
          "name": "_index",
          "type": "uint32"
        },
        {
          "indexed": false,
          "internalType": "address",
          "name": "_sequencer",
          "type": "address"
        },
        {
          "indexed": false,
          "internalType": "uint256",
          "name": "amount",
          "type": "uint256"
        }
      ],
      "name": "DecreasedSecurityDeposit",
      "type": "event"
    },
    {
      "anonymous": false,
      "inputs": [
        {
          "indexed": false,
          "internalType": "uint256",
          "name": "_totalSeigs",
          "type": "uint256"
        },
        {
          "indexed": false,
          "internalType": "uint256",
          "name": "_distributedAmount",
          "type": "uint256"
        }
      ],
      "name": "Distributed",
      "type": "event"
    },
    {
      "anonymous": false,
      "inputs": [
        {
          "indexed": false,
          "internalType": "uint32",
          "name": "_index",
          "type": "uint32"
        },
        {
          "indexed": false,
          "internalType": "address",
          "name": "caller",
          "type": "address"
        },
        {
          "indexed": false,
          "internalType": "uint256",
          "name": "amount",
          "type": "uint256"
        }
      ],
      "name": "IncreasedSecurityDeposit",
      "type": "event"
    },
    {
      "anonymous": false,
      "inputs": [
        {
          "indexed": true,
          "internalType": "bytes32",
          "name": "role",
          "type": "bytes32"
        },
        {
          "indexed": true,
          "internalType": "bytes32",
          "name": "previousAdminRole",
          "type": "bytes32"
        },
        {
          "indexed": true,
          "internalType": "bytes32",
          "name": "newAdminRole",
          "type": "bytes32"
        }
      ],
      "name": "RoleAdminChanged",
      "type": "event"
    },
    {
      "anonymous": false,
      "inputs": [
        {
          "indexed": true,
          "internalType": "bytes32",
          "name": "role",
          "type": "bytes32"
        },
        {
          "indexed": true,
          "internalType": "address",
          "name": "account",
          "type": "address"
        },
        {
          "indexed": true,
          "internalType": "address",
          "name": "sender",
          "type": "address"
        }
      ],
      "name": "RoleGranted",
      "type": "event"
    },
    {
      "anonymous": false,
      "inputs": [
        {
          "indexed": true,
          "internalType": "bytes32",
          "name": "role",
          "type": "bytes32"
        },
        {
          "indexed": true,
          "internalType": "address",
          "name": "account",
          "type": "address"
        },
        {
          "indexed": true,
          "internalType": "address",
          "name": "sender",
          "type": "address"
        }
      ],
      "name": "RoleRevoked",
      "type": "event"
    },
    {
      "inputs": [],
      "name": "ADMIN_ROLE",
      "outputs": [
        {
          "internalType": "bytes32",
          "name": "",
          "type": "bytes32"
        }
      ],
      "stateMutability": "view",
      "type": "function"
    },
    {
      "inputs": [],
      "name": "DEFAULT_ADMIN_ROLE",
      "outputs": [
        {
          "internalType": "bytes32",
          "name": "",
          "type": "bytes32"
        }
      ],
      "stateMutability": "view",
      "type": "function"
    },
    {
      "inputs": [],
      "name": "POLICY_ROLE",
      "outputs": [
        {
          "internalType": "bytes32",
          "name": "",
          "type": "bytes32"
        }
      ],
      "stateMutability": "view",
      "type": "function"
    },
    {
      "inputs": [
        {
          "internalType": "address",
          "name": "account",
          "type": "address"
        }
      ],
      "name": "addAdmin",
      "outputs": [],
      "stateMutability": "nonpayable",
      "type": "function"
    },
    {
      "inputs": [
        {
          "internalType": "uint256",
          "name": "amount",
          "type": "uint256"
        }
      ],
      "name": "addSeigs",
      "outputs": [
        {
          "internalType": "bool",
          "name": "",
          "type": "bool"
        }
      ],
      "stateMutability": "nonpayable",
      "type": "function"
    },
    {
      "inputs": [
        {
          "internalType": "address",
          "name": "",
          "type": "address"
        }
      ],
      "name": "aliveImplementation",
      "outputs": [
        {
          "internalType": "bool",
          "name": "",
          "type": "bool"
        }
      ],
      "stateMutability": "view",
      "type": "function"
    },
    {
      "inputs": [
        {
          "internalType": "address",
          "name": "account",
          "type": "address"
        }
      ],
      "name": "balanceOfLton",
      "outputs": [
        {
          "internalType": "uint256",
          "name": "amount",
          "type": "uint256"
        }
      ],
      "stateMutability": "view",
      "type": "function"
    },
    {
      "inputs": [],
      "name": "candidate",
      "outputs": [
        {
          "internalType": "address",
          "name": "",
          "type": "address"
        }
      ],
      "stateMutability": "view",
      "type": "function"
    },
    {
      "inputs": [
        {
          "internalType": "uint32",
          "name": "",
          "type": "uint32"
        }
      ],
      "name": "candidateNames",
      "outputs": [
        {
          "internalType": "bytes32",
          "name": "",
          "type": "bytes32"
        }
      ],
      "stateMutability": "view",
      "type": "function"
    },
    {
      "inputs": [
        {
          "internalType": "uint256",
          "name": "",
          "type": "uint256"
        }
      ],
      "name": "candidatesIndexes",
      "outputs": [
        {
          "internalType": "uint32",
          "name": "",
          "type": "uint32"
        }
      ],
      "stateMutability": "view",
      "type": "function"
    },
    {
      "inputs": [
        {
          "internalType": "uint32",
          "name": "_layerIndex",
          "type": "uint32"
        }
      ],
      "name": "claim",
      "outputs": [],
      "stateMutability": "nonpayable",
      "type": "function"
    },
    {
      "inputs": [
        {
          "internalType": "uint32",
          "name": "_sequencerIndex",
          "type": "uint32"
        },
        {
          "internalType": "bytes32",
          "name": "_name",
          "type": "bytes32"
        },
        {
          "internalType": "uint16",
          "name": "_commission",
          "type": "uint16"
        },
        {
          "internalType": "uint256",
          "name": "amount",
          "type": "uint256"
        }
      ],
      "name": "createCandidate",
      "outputs": [],
      "stateMutability": "nonpayable",
      "type": "function"
    },
    {
      "inputs": [
        {
          "internalType": "bytes32",
          "name": "_name",
          "type": "bytes32"
        },
        {
          "internalType": "address",
          "name": "addressManager",
          "type": "address"
        },
        {
          "internalType": "address",
          "name": "l1Bridge",
          "type": "address"
        },
        {
          "internalType": "address",
          "name": "l2Bridge",
          "type": "address"
        },
        {
          "internalType": "address",
          "name": "l2ton",
          "type": "address"
        },
        {
          "internalType": "uint256",
          "name": "amount",
          "type": "uint256"
        }
      ],
      "name": "createOptimismSequencer",
      "outputs": [],
      "stateMutability": "nonpayable",
      "type": "function"
    },
    {
      "inputs": [],
      "name": "curTotalAmountsLayer2",
      "outputs": [
        {
          "internalType": "uint256",
          "name": "amount",
          "type": "uint256"
        }
      ],
      "stateMutability": "view",
      "type": "function"
    },
    {
      "inputs": [],
      "name": "curTotalLayer2Deposits",
      "outputs": [
        {
          "internalType": "uint256",
          "name": "amount",
          "type": "uint256"
        }
      ],
      "stateMutability": "view",
      "type": "function"
    },
    {
      "inputs": [
        {
          "internalType": "uint32",
          "name": "_sequencerIndex",
          "type": "uint32"
        },
        {
          "internalType": "uint256",
          "name": "amount",
          "type": "uint256"
        }
      ],
      "name": "decreaseSecurityDeposit",
      "outputs": [],
      "stateMutability": "nonpayable",
      "type": "function"
    },
    {
      "inputs": [],
      "name": "delayBlocksForWithdraw",
      "outputs": [
        {
          "internalType": "uint256",
          "name": "",
          "type": "uint256"
        }
      ],
      "stateMutability": "view",
      "type": "function"
    },
    {
      "inputs": [
        {
          "internalType": "uint32",
          "name": "_layerIndex",
          "type": "uint32"
        }
      ],
      "name": "depositsOf",
      "outputs": [
        {
          "internalType": "uint256",
          "name": "amount",
          "type": "uint256"
        }
      ],
      "stateMutability": "view",
      "type": "function"
    },
    {
      "inputs": [],
      "name": "distribute",
      "outputs": [],
      "stateMutability": "nonpayable",
      "type": "function"
    },
    {
      "inputs": [
        {
          "internalType": "uint32",
          "name": "_index",
          "type": "uint32"
        }
      ],
      "name": "existedCandidateIndex",
      "outputs": [
        {
          "internalType": "bool",
          "name": "exist_",
          "type": "bool"
        }
      ],
      "stateMutability": "view",
      "type": "function"
    },
    {
      "inputs": [
        {
          "internalType": "uint32",
          "name": "_index",
          "type": "uint32"
        }
      ],
      "name": "existedLayer2Index",
      "outputs": [
        {
          "internalType": "bool",
          "name": "exist_",
          "type": "bool"
        }
      ],
      "stateMutability": "view",
      "type": "function"
    },
    {
      "inputs": [],
      "name": "getAllCandidates",
      "outputs": [
        {
          "internalType": "bytes32[]",
          "name": "candidateNames_",
          "type": "bytes32[]"
        },
        {
          "internalType": "uint32[]",
          "name": "candidateNamesIndexes_",
          "type": "uint32[]"
        },
        {
          "internalType": "bytes[]",
          "name": "infos_",
          "type": "bytes[]"
        }
      ],
      "stateMutability": "view",
      "type": "function"
    },
    {
      "inputs": [],
      "name": "getAllLayers",
      "outputs": [
        {
          "internalType": "bytes32[]",
          "name": "optimismSequencerNames_",
          "type": "bytes32[]"
        },
        {
          "internalType": "uint32[]",
          "name": "optimismSequencerIndexes_",
          "type": "uint32[]"
        },
        {
          "components": [
            {
              "internalType": "uint256",
              "name": "securityDeposit",
              "type": "uint256"
            },
            {
              "internalType": "uint256",
              "name": "seigs",
              "type": "uint256"
            }
          ],
          "internalType": "struct Layer2.Layer2Holdings[]",
          "name": "holdings_",
          "type": "tuple[]"
        },
        {
          "internalType": "bytes[]",
          "name": "infos_",
          "type": "bytes[]"
        }
      ],
      "stateMutability": "view",
      "type": "function"
    },
    {
      "inputs": [
        {
          "internalType": "bytes32",
          "name": "role",
          "type": "bytes32"
        }
      ],
      "name": "getRoleAdmin",
      "outputs": [
        {
          "internalType": "bytes32",
          "name": "",
          "type": "bytes32"
        }
      ],
      "stateMutability": "view",
      "type": "function"
    },
    {
      "inputs": [
        {
          "internalType": "bytes32",
          "name": "role",
          "type": "bytes32"
        },
        {
          "internalType": "address",
          "name": "account",
          "type": "address"
        }
      ],
      "name": "grantRole",
      "outputs": [],
      "stateMutability": "nonpayable",
      "type": "function"
    },
    {
      "inputs": [
        {
          "internalType": "bytes32",
          "name": "role",
          "type": "bytes32"
        },
        {
          "internalType": "address",
          "name": "account",
          "type": "address"
        }
      ],
      "name": "hasRole",
      "outputs": [
        {
          "internalType": "bool",
          "name": "",
          "type": "bool"
        }
      ],
      "stateMutability": "view",
      "type": "function"
    },
    {
      "inputs": [
        {
          "internalType": "uint32",
          "name": "",
          "type": "uint32"
        }
      ],
      "name": "holdings",
      "outputs": [
        {
          "internalType": "uint256",
          "name": "securityDeposit",
          "type": "uint256"
        },
        {
          "internalType": "uint256",
          "name": "seigs",
          "type": "uint256"
        }
      ],
      "stateMutability": "view",
      "type": "function"
    },
    {
      "inputs": [
        {
          "internalType": "uint32",
          "name": "_sequencerIndex",
          "type": "uint32"
        },
        {
          "internalType": "uint256",
          "name": "amount",
          "type": "uint256"
        }
      ],
      "name": "increaseSecurityDeposit",
      "outputs": [],
      "stateMutability": "nonpayable",
      "type": "function"
    },
    {
      "inputs": [],
      "name": "indexCandidates",
      "outputs": [
        {
          "internalType": "uint32",
          "name": "",
          "type": "uint32"
        }
      ],
      "stateMutability": "view",
      "type": "function"
    },
    {
      "inputs": [],
      "name": "indexSequencers",
      "outputs": [
        {
          "internalType": "uint32",
          "name": "",
          "type": "uint32"
        }
      ],
      "stateMutability": "view",
      "type": "function"
    },
    {
      "inputs": [
        {
          "internalType": "address",
          "name": "account",
          "type": "address"
        }
      ],
      "name": "isAdmin",
      "outputs": [
        {
          "internalType": "bool",
          "name": "",
          "type": "bool"
        }
      ],
      "stateMutability": "view",
      "type": "function"
    },
    {
      "inputs": [
        {
          "internalType": "uint32",
          "name": "layerKey_",
          "type": "uint32"
        }
      ],
      "name": "layerHoldings",
      "outputs": [
        {
          "components": [
            {
              "internalType": "uint256",
              "name": "securityDeposit",
              "type": "uint256"
            },
            {
              "internalType": "uint256",
              "name": "seigs",
              "type": "uint256"
            }
          ],
          "internalType": "struct Layer2.Layer2Holdings",
          "name": "",
          "type": "tuple"
        }
      ],
      "stateMutability": "view",
      "type": "function"
    },
    {
      "inputs": [
        {
          "internalType": "bytes32",
          "name": "",
          "type": "bytes32"
        }
      ],
      "name": "layerKeys",
      "outputs": [
        {
          "internalType": "bool",
          "name": "",
          "type": "bool"
        }
      ],
      "stateMutability": "view",
      "type": "function"
    },
    {
      "inputs": [],
      "name": "maxLayer2Count",
      "outputs": [
        {
          "internalType": "uint256",
          "name": "",
          "type": "uint256"
        }
      ],
      "stateMutability": "view",
      "type": "function"
    },
    {
      "inputs": [],
      "name": "minimumDepositForCandidate",
      "outputs": [
        {
          "internalType": "uint256",
          "name": "",
          "type": "uint256"
        }
      ],
      "stateMutability": "view",
      "type": "function"
    },
    {
      "inputs": [],
      "name": "minimumDepositForSequencer",
      "outputs": [
        {
          "internalType": "uint256",
          "name": "",
          "type": "uint256"
        }
      ],
      "stateMutability": "view",
      "type": "function"
    },
    {
      "inputs": [
        {
          "internalType": "address",
          "name": "l1Bridge",
          "type": "address"
        },
        {
          "internalType": "address",
          "name": "l2ton",
          "type": "address"
        }
      ],
      "name": "minimumSecurityDepositAmount",
      "outputs": [
        {
          "internalType": "uint256",
          "name": "amount",
          "type": "uint256"
        }
      ],
      "stateMutability": "view",
      "type": "function"
    },
    {
      "inputs": [],
      "name": "optimismSequencer",
      "outputs": [
        {
          "internalType": "address",
          "name": "",
          "type": "address"
        }
      ],
      "stateMutability": "view",
      "type": "function"
    },
    {
      "inputs": [
        {
          "internalType": "uint256",
          "name": "",
          "type": "uint256"
        }
      ],
      "name": "optimismSequencerIndexes",
      "outputs": [
        {
          "internalType": "uint32",
          "name": "",
          "type": "uint32"
        }
      ],
      "stateMutability": "view",
      "type": "function"
    },
    {
      "inputs": [
        {
          "internalType": "uint32",
          "name": "",
          "type": "uint32"
        }
      ],
      "name": "optimismSequencerNames",
      "outputs": [
        {
          "internalType": "bytes32",
          "name": "",
          "type": "bytes32"
        }
      ],
      "stateMutability": "view",
      "type": "function"
    },
    {
      "inputs": [],
      "name": "pauseProxy",
      "outputs": [
        {
          "internalType": "bool",
          "name": "",
          "type": "bool"
        }
      ],
      "stateMutability": "view",
      "type": "function"
    },
    {
      "inputs": [
        {
          "internalType": "uint256",
          "name": "",
          "type": "uint256"
        }
      ],
      "name": "proxyImplementation",
      "outputs": [
        {
          "internalType": "address",
          "name": "",
          "type": "address"
        }
      ],
      "stateMutability": "view",
      "type": "function"
    },
    {
      "inputs": [],
      "name": "ratioSecurityDepositOfTvl",
      "outputs": [
        {
          "internalType": "uint16",
          "name": "",
          "type": "uint16"
        }
      ],
      "stateMutability": "view",
      "type": "function"
    },
    {
      "inputs": [
        {
          "internalType": "address",
          "name": "account",
          "type": "address"
        }
      ],
      "name": "removeAdmin",
      "outputs": [],
      "stateMutability": "nonpayable",
      "type": "function"
    },
    {
      "inputs": [
        {
          "internalType": "bytes32",
          "name": "role",
          "type": "bytes32"
        },
        {
          "internalType": "address",
          "name": "account",
          "type": "address"
        }
      ],
      "name": "renounceRole",
      "outputs": [],
      "stateMutability": "nonpayable",
      "type": "function"
    },
    {
      "inputs": [
        {
          "internalType": "bytes32",
          "name": "role",
          "type": "bytes32"
        },
        {
          "internalType": "address",
          "name": "account",
          "type": "address"
        }
      ],
      "name": "revokeRole",
      "outputs": [],
      "stateMutability": "nonpayable",
      "type": "function"
    },
    {
      "inputs": [],
      "name": "seigManagerV2",
      "outputs": [
        {
          "internalType": "address",
          "name": "",
          "type": "address"
        }
      ],
      "stateMutability": "view",
      "type": "function"
    },
    {
      "inputs": [
        {
          "internalType": "bytes4",
          "name": "",
          "type": "bytes4"
        }
      ],
      "name": "selectorImplementation",
      "outputs": [
        {
          "internalType": "address",
          "name": "",
          "type": "address"
        }
      ],
      "stateMutability": "view",
      "type": "function"
    },
    {
      "inputs": [
        {
          "internalType": "uint32",
          "name": "_layerIndex",
          "type": "uint32"
        }
      ],
      "name": "sequencer",
      "outputs": [
        {
          "internalType": "address",
          "name": "sequencer_",
          "type": "address"
        }
      ],
      "stateMutability": "view",
      "type": "function"
    },
    {
      "inputs": [
        {
          "internalType": "uint256",
          "name": "_delayBlocksForWithdraw",
          "type": "uint256"
        }
      ],
      "name": "setDelayBlocksForWithdraw",
      "outputs": [],
      "stateMutability": "nonpayable",
      "type": "function"
    },
    {
      "inputs": [
        {
          "internalType": "uint256",
          "name": "_maxLayer2Count",
          "type": "uint256"
        }
      ],
      "name": "setMaxLayer2Count",
      "outputs": [],
      "stateMutability": "nonpayable",
      "type": "function"
    },
    {
      "inputs": [
        {
          "internalType": "uint256",
          "name": "_minimumDepositForCandidate",
          "type": "uint256"
        }
      ],
      "name": "setMinimumDepositForCandidate",
      "outputs": [],
      "stateMutability": "nonpayable",
      "type": "function"
    },
    {
      "inputs": [
        {
          "internalType": "uint256",
          "name": "_minimumDepositForSequencer",
          "type": "uint256"
        }
      ],
      "name": "setMinimumDepositForSequencer",
      "outputs": [],
      "stateMutability": "nonpayable",
      "type": "function"
    },
    {
      "inputs": [
        {
          "internalType": "uint16",
          "name": "_ratioSecurityDepositOfTvl",
          "type": "uint16"
        }
      ],
      "name": "setRatioSecurityDepositOfTvl",
      "outputs": [],
      "stateMutability": "nonpayable",
      "type": "function"
    },
    {
      "inputs": [
        {
          "internalType": "bytes4",
          "name": "interfaceId",
          "type": "bytes4"
        }
      ],
      "name": "supportsInterface",
      "outputs": [
        {
          "internalType": "bool",
          "name": "",
          "type": "bool"
        }
      ],
      "stateMutability": "view",
      "type": "function"
    },
    {
      "inputs": [],
      "name": "ton",
      "outputs": [
        {
          "internalType": "contract IERC20",
          "name": "",
          "type": "address"
        }
      ],
      "stateMutability": "view",
      "type": "function"
    },
    {
      "inputs": [],
      "name": "totalCandidates",
      "outputs": [
        {
          "internalType": "uint256",
          "name": "total",
          "type": "uint256"
        }
      ],
      "stateMutability": "view",
      "type": "function"
    },
    {
      "inputs": [],
      "name": "totalLayers",
      "outputs": [
        {
          "internalType": "uint256",
          "name": "total",
          "type": "uint256"
        }
      ],
      "stateMutability": "view",
      "type": "function"
    },
    {
      "inputs": [],
      "name": "totalSecurityDeposit",
      "outputs": [
        {
          "internalType": "uint256",
          "name": "",
          "type": "uint256"
        }
      ],
      "stateMutability": "view",
      "type": "function"
    },
    {
      "inputs": [],
      "name": "totalSeigs",
      "outputs": [
        {
          "internalType": "uint256",
          "name": "",
          "type": "uint256"
        }
      ],
      "stateMutability": "view",
      "type": "function"
    },
    {
      "inputs": [
        {
          "internalType": "address",
          "name": "newAdmin",
          "type": "address"
        }
      ],
      "name": "transferAdmin",
      "outputs": [],
      "stateMutability": "nonpayable",
      "type": "function"
    }
  ],
  "bytecode": "0x60806040526015805460ff60501b19166a010000000000000000000017905534801561002a57600080fd5b50613fe58061003a6000396000f3fe608060405234801561001057600080fd5b50600436106103af5760003560e01c806370480275116101f4578063b911135f1161011a578063da0dc135116100ad578063e99e36161161007c578063e99e36161461091e578063f2a7d71214610931578063f71bf33a14610944578063fee539b71461094d57600080fd5b8063da0dc135146108d8578063e0ef2a7f146108eb578063e12a62191461090e578063e4fc6b6d1461091657600080fd5b8063d37c6d69116100e9578063d37c6d6914610889578063d48ddf0414610892578063d547741f146108b2578063d639ff83146108c557600080fd5b8063b911135f1461081c578063c14241b914610845578063caef64e61461086d578063cc48b9471461087657600080fd5b80638d5d8e5511610192578063a4dd8b7d11610161578063a4dd8b7d1461078e578063a73ddaab14610797578063ab8930a5146107aa578063ae9046ca1461080957600080fd5b80638d5d8e551461072c57806391d148541461073c578063963807a814610773578063a217fddf1461078657600080fd5b806375b238fc116101ce57806375b238fc146106d75780638935af9a146106fe5780638cc193a5146107115780638d1f3d0a1461071957600080fd5b8063704802751461069e57806373469a7a146106b157806375829def146106c457600080fd5b80633bd0c19f116102d957806357bc1df01161027757806363e6f0d81161024657806363e6f0d81461065d5780636b48235f146106655780636c8381f8146106785780636e1ef23a1461068b57600080fd5b806357bc1df01461061c5780635b1f335f146106345780635d170f8f1461063d57806363a8fd891461065057600080fd5b8063499ad9da116102b3578063499ad9da1461059c5780634c76e6c8146105a557806350d2a276146105b8578063550d01a3146105f957600080fd5b80633bd0c19f146105415780634339da1c1461056957806346551ece1461057c57600080fd5b80631c283321116103515780632e6997fe116103205780632e6997fe146104fc5780632f2ff15d1461051357806336568abe146105265780633866965c1461053957600080fd5b80631c2833211461047e5780632298524614610491578063248a9ca3146104c657806324d7806c146104e957600080fd5b8063091e3be31161038d578063091e3be31461042d5780631785f53c1461044057806319a93b88146104535780631a4f1eb91461046b57600080fd5b806301ffc9a7146103b457806304196138146103dc5780630495189114610418575b600080fd5b6103c76103c2366004613853565b610960565b60405190151581526020015b60405180910390f35b6104036103ea366004613891565b6012602052600090815260409020805460019091015482565b604080519283526020830191909152016103d3565b61042b610426366004613891565b610997565b005b61042b61043b3660046138be565b610b3f565b61042b61044e3660046138ee565b610bfc565b61045b610c77565b6040516103d39493929190613a21565b61042b610479366004613ab4565b610fef565b6103c761048c366004613ab4565b61107c565b6104b87ffb5864e8ff833c3cb2d2d08505e82ff02a43554c74a35d4f5a64e8526127831181565b6040519081526020016103d3565b6104b86104d4366004613ab4565b60009081526020819052604090206001015490565b6103c76104f73660046138ee565b6110ff565b61050461113f565b6040516103d393929190613acd565b61042b610521366004613b10565b6113bf565b61042b610534366004613b10565b6113e9565b6014546104b8565b61055461054f366004613ab4565b611475565b60405163ffffffff90911681526020016103d3565b610554610577366004613ab4565b6114af565b6104b861058a366004613891565b60106020526000908152604090205481565b6104b8600e5481565b6104b86105b3366004613b40565b6114bf565b6105e16105c6366004613853565b6004602052600090815260409020546001600160a01b031681565b6040516001600160a01b0390911681526020016103d3565b6103c76106073660046138ee565b60036020526000908152604090205460ff1681565b60155461055490640100000000900463ffffffff1681565b6104b8600d5481565b6103c761064b366004613891565b61158f565b6001546103c79060ff1681565b600f546104b8565b61042b610673366004613b6e565b6115b6565b6008546105e1906001600160a01b031681565b6103c7610699366004613891565b611780565b61042b6106ac3660046138ee565b61179e565b6006546105e1906001600160a01b031681565b61042b6106d23660046138ee565b611816565b6104b87fdf8b4c520ffe197c5343c6f5aec59570151ef9a492f2c624fd45ddde6135ec4281565b61042b61070c366004613ab4565b611966565b6104b86119f3565b6105e1610727366004613891565b611ad3565b6015546105549063ffffffff1681565b6103c761074a366004613b10565b6000918252602082815260408084206001600160a01b0393909316845291905290205460ff1690565b61042b610781366004613b98565b611b5b565b6104b8600081565b6104b8600a5481565b61042b6107a5366004613ab4565b612143565b6107fc6107b8366004613891565b60408051808201909152600080825260208201525063ffffffff16600090815260126020908152604091829020825180840190935280548352600101549082015290565b6040516103d39190613bdc565b6104b8610817366004613891565b612207565b6105e161082a366004613ab4565b6002602052600090815260409020546001600160a01b031681565b60155461085a90600160401b900461ffff1681565b60405161ffff90911681526020016103d3565b6104b8600b5481565b6005546105e1906001600160a01b031681565b6104b8600c5481565b6104b86108a0366004613891565b60116020526000908152604090205481565b61042b6108c0366004613b10565b6122af565b61042b6108d3366004613ab4565b6122d4565b6007546105e1906001600160a01b031681565b6103c76108f9366004613ab4565b60136020526000908152604090205460ff1681565b6104b8612361565b61042b61237d565b61042b61092c366004613bf3565b612697565b61042b61093f366004613b6e565b612d5b565b6104b860095481565b6104b861095b3660046138ee565b6131b8565b60006001600160e01b03198216637965db0b60e01b148061099157506301ffc9a760e01b6001600160e01b03198316145b92915050565b63ffffffff811660009081526012602052604081206001015490819003610a055760405162461bcd60e51b815260206004820152601260248201527f6e6f20616d6f756e7420746f20636c61696d000000000000000000000000000060448201526064015b60405180910390fd5b6000610a1083611ad3565b90506001600160a01b038116610a685760405162461bcd60e51b815260206004820152600e60248201527f7a65726f2073657175656e63657200000000000000000000000000000000000060448201526064016109fc565b63ffffffff8316600090815260126020526040808220600101919091556006549051635569f64b60e11b81526001600160a01b038381166004830152602482018590529091169063aad3ec9690604401600060405180830381600087803b158015610ad257600080fd5b505af1158015610ae6573d6000803e3d6000fd5b50506040805163ffffffff871681526001600160a01b03851660208201529081018590527fdc8b8058bd26d719cc330a54461930fd9c312dd28447313fd5dc4641513e00749250606001905060405180910390a1505050565b610b48336110ff565b610b8d5760405162461bcd60e51b81526020600482015260226024820152600080516020613fb983398151915260448201526134b760f11b60648201526084016109fc565b60155461ffff808316600160401b9092041603610bd55760405162461bcd60e51b81526004016109fc9060208082526004908201526373616d6560e01b604082015260600190565b6015805461ffff909216600160401b0269ffff000000000000000019909216919091179055565b610c05336110ff565b610c4a5760405162461bcd60e51b81526020600482015260226024820152600080516020613fb983398151915260448201526134b760f11b60648201526084016109fc565b610c747fdf8b4c520ffe197c5343c6f5aec59570151ef9a492f2c624fd45ddde6135ec42826113e9565b50565b600f546060908190819081908067ffffffffffffffff811115610c9c57610c9c613c63565b604051908082528060200260200182016040528015610cc5578160200160208202803683370190505b50600f805460408051602080840282018101909252828152939850830182828015610d3b57602002820191906000526020600020906000905b82829054906101000a900463ffffffff1663ffffffff1681526020019060040190602082600301049283019260010382029150808411610cfe5790505b505050505093508067ffffffffffffffff811115610d5b57610d5b613c63565b604051908082528060200260200182016040528015610da057816020015b6040805180820190915260008082526020820152815260200190600190039081610d795790505b5092508067ffffffffffffffff811115610dbc57610dbc613c63565b604051908082528060200260200182016040528015610def57816020015b6060815260200190600190039081610dda5790505b50915060005b81811015610fe75760106000600f8381548110610e1457610e14613c79565b90600052602060002090600891828204019190066004029054906101000a900463ffffffff1663ffffffff1663ffffffff16815260200190815260200160002054868281518110610e6757610e67613c79565b60200260200101818152505060126000600f8381548110610e8a57610e8a613c79565b90600052602060002090600891828204019190066004029054906101000a900463ffffffff1663ffffffff1663ffffffff16815260200190815260200160002060405180604001604052908160008201548152602001600182015481525050848281518110610efb57610efb613c79565b6020908102919091010152600754600f80546001600160a01b039092169163659ab820919084908110610f3057610f30613c79565b6000918252602090912060088204015460405160e084901b6001600160e01b0319168152600790921660049081026101000a90910463ffffffff1690820152602401600060405180830381865afa158015610f8f573d6000803e3d6000fd5b505050506040513d6000823e601f3d908101601f19168201604052610fb79190810190613c8f565b838281518110610fc957610fc9613c79565b60200260200101819052508080610fdf90613d52565b915050610df5565b505090919293565b610ff8336110ff565b61103d5760405162461bcd60e51b81526020600482015260226024820152600080516020613fb983398151915260448201526134b760f11b60648201526084016109fc565b80600b54036110775760405162461bcd60e51b81526004016109fc9060208082526004908201526373616d6560e01b604082015260600190565b600b55565b6006546000906001600160a01b031633146110d95760405162461bcd60e51b815260206004820152601b60248201527f63616c6c6572206973206e6f7420536569674d616e616765725632000000000060448201526064016109fc565b81156110f75781600e60008282546110f19190613d6b565b90915550505b506001919050565b6001600160a01b03811660009081527f5cbfc8ee58ca47855df7bcf648dd304ddb6b932f9b87878bdf6318d7ec7ee5b7602052604081205460ff16610991565b601454606090819081908067ffffffffffffffff81111561116257611162613c63565b60405190808252806020026020018201604052801561118b578160200160208202803683370190505b50601480546040805160208084028201810190925282815293975083018282801561120157602002820191906000526020600020906000905b82829054906101000a900463ffffffff1663ffffffff16815260200190600401906020826003010492830192600103820291508084116111c45790505b505050505092508067ffffffffffffffff81111561122157611221613c63565b60405190808252806020026020018201604052801561125457816020015b606081526020019060019003908161123f5790505b50915060005b818110156113b857601160006014838154811061127957611279613c79565b90600052602060002090600891828204019190066004029054906101000a900463ffffffff1663ffffffff1663ffffffff168152602001908152602001600020548582815181106112cc576112cc613c79565b6020908102919091010152600854601480546001600160a01b039092169163659ab82091908490811061130157611301613c79565b6000918252602090912060088204015460405160e084901b6001600160e01b0319168152600790921660049081026101000a90910463ffffffff1690820152602401600060405180830381865afa158015611360573d6000803e3d6000fd5b505050506040513d6000823e601f3d908101601f191682016040526113889190810190613c8f565b83828151811061139a5761139a613c79565b602002602001018190525080806113b090613d52565b91505061125a565b5050909192565b6000828152602081905260409020600101546113da816132a9565b6113e483836132b3565b505050565b6001600160a01b03811633146114675760405162461bcd60e51b815260206004820152602f60248201527f416363657373436f6e74726f6c3a2063616e206f6e6c792072656e6f756e636560448201527f20726f6c657320666f722073656c66000000000000000000000000000000000060648201526084016109fc565b6114718282613351565b5050565b6014818154811061148557600080fd5b9060005260206000209060089182820401919006600402915054906101000a900463ffffffff1681565b600f818154811061148557600080fd5b601554600090600160401b900461ffff1681036114df5750600954610991565b60155460075460405163edcc217760e01b81526001600160a01b03868116600483015285811660248301526115889361271093600160401b90910461ffff169291169063edcc217790604401602060405180830381865afa158015611548573d6000803e3d6000fd5b505050506040513d601f19601f8201168201806040525081019061156c9190613d7e565b6115769190613d97565b6115809190613dae565b6009546133d0565b9392505050565b60155460009063ffffffff6401000000009091048116908316116115b1575060015b919050565b601554600160501b900460ff166115f85760405162461bcd60e51b81526004016109fc906020808252600490820152636c6f636b60e01b604082015260600190565b6015805460ff60501b191690558163ffffffff81166000036116415760405162461bcd60e51b81526020600482015260026024820152615a3160f01b60448201526064016109fc565b81806000036116775760405162461bcd60e51b81526020600482015260026024820152615a3160f01b60448201526064016109fc565b60155463ffffffff90811690851611156116c15760405162461bcd60e51b815260206004820152600b60248201526a0eee4dedcce40d2dcc8caf60ab1b60448201526064016109fc565b6005546116d9906001600160a01b03163330866133e6565b63ffffffff84166000908152601260205260408120805490918591839190611702908490613d6b565b9250508190555083600d600082825461171b9190613d6b565b90915550506040805163ffffffff871681523360208201529081018590527f75d95e3e2cd0899a7e9451555815404d25586e691502bc69417edacc489173a69060600160405180910390a150506015805460ff60501b1916600160501b179055505050565b60155460009063ffffffff908116908316116115b157506001919050565b6117a7336110ff565b6117ec5760405162461bcd60e51b81526020600482015260226024820152600080516020613fb983398151915260448201526134b760f11b60648201526084016109fc565b610c747fdf8b4c520ffe197c5343c6f5aec59570151ef9a492f2c624fd45ddde6135ec42826113bf565b61181f336110ff565b6118645760405162461bcd60e51b81526020600482015260226024820152600080516020613fb983398151915260448201526134b760f11b60648201526084016109fc565b6001600160a01b0381166118ba5760405162461bcd60e51b815260206004820152601860248201527f41636365737369626c653a207a65726f2061646472657373000000000000000060448201526064016109fc565b6001600160a01b03811633036119125760405162461bcd60e51b815260206004820152601660248201527f41636365737369626c653a2073616d652061646d696e0000000000000000000060448201526064016109fc565b61193c7fdf8b4c520ffe197c5343c6f5aec59570151ef9a492f2c624fd45ddde6135ec42826113bf565b610c747fdf8b4c520ffe197c5343c6f5aec59570151ef9a492f2c624fd45ddde6135ec42336113e9565b61196f336110ff565b6119b45760405162461bcd60e51b81526020600482015260226024820152600080516020613fb983398151915260448201526134b760f11b60648201526084016109fc565b80600954036119ee5760405162461bcd60e51b81526004016109fc9060208082526004908201526373616d6560e01b604082015260600190565b600955565b600f54600090815b81811015611ace57600754600f80546001600160a01b03909216916341e5dbe8919084908110611a2d57611a2d613c79565b6000918252602090912060088204015460405160e084901b6001600160e01b0319168152600790921660049081026101000a90910463ffffffff1690820152602401602060405180830381865afa158015611a8c573d6000803e3d6000fd5b505050506040513d601f19601f82011682018060405250810190611ab09190613d7e565b611aba9084613d6b565b925080611ac681613d52565b9150506119fb565b505090565b60155460009063ffffffff908116908316116115b15760075460405163468f9e8560e11b815263ffffffff841660048201526001600160a01b0390911690638d1f3d0a90602401602060405180830381865afa158015611b37573d6000803e3d6000fd5b505050506040513d601f19601f820116820180604052508101906109919190613dd0565b838063ffffffff16600003611b975760405162461bcd60e51b81526020600482015260026024820152615a3160f01b60448201526064016109fc565b601554600160501b900460ff16611bd95760405162461bcd60e51b81526004016109fc906020808252600490820152636c6f636b60e01b604082015260600190565b6015805460ff60501b19811690915563ffffffff9081169086161115611c2f5760405162461bcd60e51b815260206004820152600b60248201526a0eee4dedcce40d2dcc8caf60ab1b60448201526064016109fc565b604051633be35f5f60e21b815233600482015263ffffffff8616602482015260009073__$d436d56fec194dfaaabaf06742f0275c03$__9063ef8d7d7c90604401602060405180830381865af4158015611c8d573d6000803e3d6000fd5b505050506040513d601f19601f82011682018060405250810190611cb19190613d7e565b60008181526013602052604090205490915060ff1615611d055760405162461bcd60e51b815260206004820152600f60248201526e185b1c9958591e4818dc99585d1959608a1b60448201526064016109fc565b600a54831015611d575760405162461bcd60e51b815260206004820152601f60248201527f7365637572697479206465706f73697420697320696e737566666963656e740060448201526064016109fc565b6000818152601360205260408120805460ff1916600117905560158054600490611d8f9063ffffffff64010000000090910416613ded565b825461010092830a63ffffffff818102199092168383169182021790945560148054600181019091557fce6d7b5282bd9a3661ae061feed1dbda4e52ab073b1f9285be6e155d9c38d4ec60088204018054600790921660040290940a91820219169084021790915560009182526011602052604090912087905590508315611e2957600554611e29906001600160a01b03163330876133e6565b600554600854604051636eb1769f60e11b81523060048201526001600160a01b0391821660248201528692919091169063dd62ed3e90604401602060405180830381865afa158015611e7f573d6000803e3d6000fd5b505050506040513d601f19601f82011682018060405250810190611ea39190613d7e565b1015611f9557600554600854604080516318160ddd60e01b815290516001600160a01b039384169363095ea7b393169184916318160ddd916004808201926020929091908290030181865afa158015611f00573d6000803e3d6000fd5b505050506040513d601f19601f82011682018060405250810190611f249190613d7e565b6040516001600160e01b031960e085901b1681526001600160a01b03909216600483015260248201526044016020604051808303816000875af1158015611f6f573d6000803e3d6000fd5b505050506040513d601f19601f82011682018060405250810190611f939190613e10565b505b600854604080513360601b6bffffffffffffffffffffffff1916602082015260e08a901b6001600160e01b031916603482015260f088901b7fffff000000000000000000000000000000000000000000000000000000000000166038820152603a80820188905282518083039091018152605a820192839052630df2b42960e41b9092526001600160a01b039092169163df2b42909161203a91859190605e01613e32565b6020604051808303816000875af1158015612059573d6000803e3d6000fd5b505050506040513d601f19601f8201168201806040525081019061207d9190613e10565b6120c95760405162461bcd60e51b815260206004820152601460248201527f4661696c2063726561746543616e64696461746500000000000000000000000060448201526064016109fc565b6040805163ffffffff83811682523360208301528183018990528916606082015261ffff8716608082015260a0810186905290517f342dd5ffb5ac74e51a17692939edd209c3e7b77cba98cdc874b1563f60ad0b889181900360c00190a150506015805460ff60501b1916600160501b1790555050505050565b80806000036121795760405162461bcd60e51b81526020600482015260026024820152615a3160f01b60448201526064016109fc565b612182336110ff565b6121c75760405162461bcd60e51b81526020600482015260226024820152600080516020613fb983398151915260448201526134b760f11b60648201526084016109fc565b81600c54036122015760405162461bcd60e51b81526004016109fc9060208082526004908201526373616d6560e01b604082015260600190565b50600c55565b60075460405163083cbb7d60e31b815263ffffffff831660048201526000916001600160a01b0316906341e5dbe890602401602060405180830381865afa925050508015612272575060408051601f3d908101601f1916820190925261226f91810190613d7e565b60015b610991573d8080156122a0576040519150601f19603f3d011682016040523d82523d6000602084013e6122a5565b606091505b5060009392505050565b6000828152602081905260409020600101546122ca816132a9565b6113e48383613351565b6122dd336110ff565b6123225760405162461bcd60e51b81526020600482015260226024820152600080516020613fb983398151915260448201526134b760f11b60648201526084016109fc565b80600a540361235c5760405162461bcd60e51b81526004016109fc9060208082526004908201526373616d6560e01b604082015260600190565b600a55565b6000600d5461236e6119f3565b6123789190613d6b565b905090565b600e546000036123cf5760405162461bcd60e51b815260206004820152601760248201527f6e6f2064697374726962757461626c6520616d6f756e7400000000000000000060448201526064016109fc565b600f546000808267ffffffffffffffff8111156123ee576123ee613c63565b604051908082528060200260200182016040528015612417578160200160208202803683370190505b50905060005b83811015612534576000600f828154811061243a5761243a613c79565b6000918252602080832060088304015460079092166004026101000a90910463ffffffff16808352601282526040928390208351808501909452805480855260019091015492840192909252600954909350116124fd5761249a82612207565b81516124a69190613d6b565b8484815181106124b8576124b8613c79565b602002602001018181516124cc9190613d6b565b90525083518490849081106124e3576124e3613c79565b6020026020010151856124f69190613d6b565b945061251f565b61250682612207565b81516125129190613d6b565b61251c9086613d6b565b94505b5050808061252c90613d52565b91505061241d565b50600082156126555760005b8481101561263657600083828151811061255c5761255c613c79565b602002602001015111156126245760008484838151811061257f5761257f613c79565b6020026020010151600e546125949190613d97565b61259e9190613dae565b9050600060126000600f85815481106125b9576125b9613c79565b90600052602060002090600891828204019190066004029054906101000a900463ffffffff1663ffffffff1663ffffffff16815260200190815260200160002090508181600101600082825461260f9190613d6b565b9091555061261f90508285613d6b565b935050505b8061262e81613d52565b915050612540565b5080156126555780600e600082825461264f9190613e59565b90915550505b600e5460408051918252602082018390527f97791d3ac1343e05805a2f905fa80b249c2ca58cf9fef455d4fa7ec13ce58321910160405180910390a150505050565b601554600160501b900460ff166126d95760405162461bcd60e51b81526004016109fc906020808252600490820152636c6f636b60e01b604082015260600190565b6015805460ff60501b1916905560405163bf40fac160e01b815260206004820152600d60248201527f4f564d5f53657175656e6365720000000000000000000000000000000000000060448201526001600160a01b0386169063bf40fac190606401602060405180830381865afa158015612758573d6000803e3d6000fd5b505050506040513d601f19601f8201168201806040525081019061277c9190613dd0565b6001600160a01b0316336001600160a01b0316146127dc5760405162461bcd60e51b815260206004820152600d60248201527f4e4f542053657175656e6365720000000000000000000000000000000000000060448201526064016109fc565b600c5460155463ffffffff16106128355760405162461bcd60e51b815260206004820152601760248201527f6578636565646564206d61784c6179657232436f756e7400000000000000000060448201526064016109fc565b6001600160a01b0385161580159061285557506001600160a01b03821615155b6128a15760405162461bcd60e51b815260206004820152600c60248201527f7a65726f2061646472657373000000000000000000000000000000000000000060448201526064016109fc565b60405163cd13ec8760e01b81526001600160a01b038087166004830152808616602483015280851660448301528316606482015260009073__$35081dc60fc26376aafbbba403b8b17c43$__9063cd13ec8790608401602060405180830381865af4158015612914573d6000803e3d6000fd5b505050506040513d601f19601f820116820180604052508101906129389190613d7e565b60008181526013602052604090205490915060ff161561298c5760405162461bcd60e51b815260206004820152600f60248201526e185b1c9958591e4818dc99585d1959608a1b60448201526064016109fc565b60075460405163516e4f0160e11b81526001600160a01b038881166004830152600092169063a2dc9e0290602401602060405180830381865afa1580156129d7573d6000803e3d6000fd5b505050506040513d601f19601f820116820180604052508101906129fb9190613dd0565b9050806001600160a01b0316866001600160a01b031614612a5e5760405162461bcd60e51b815260206004820152601260248201527f646966666572656e74206c31427269646765000000000000000000000000000060448201526064016109fc565b612a6886856114bf565b831015612ab75760405162461bcd60e51b815260206004820152601f60248201527f7365637572697479206465706f73697420697320696e737566666963656e740060448201526064016109fc565b6000828152601360205260408120805460ff19166001179055601580548290612ae59063ffffffff16613ded565b91906101000a81548163ffffffff021916908363ffffffff1602179055905083600d6000828254612b169190613d6b565b9091555050600f805460018101909155600881047f8d1108e10bcb7c27dddfc02ed9d693a074039d026cf4ea4240b40f7d581ac80201805463ffffffff80851660046007958616026101000a81810292021990921617909155600090815260126020908152604080832088815560108352928190208d90559254925191926001600160a01b03169163df2b4290918591612bee918e918e918e918e9101606094851b6bffffffffffffffffffffffff19908116825293851b8416601482015291841b8316602883015290921b16603c82015260500190565b6040516020818303038152906040526040518363ffffffff1660e01b8152600401612c1a929190613e32565b6020604051808303816000875af1158015612c39573d6000803e3d6000fd5b505050506040513d601f19601f82011682018060405250810190612c5d9190613e10565b612ca95760405162461bcd60e51b815260206004820152601c60248201527f4661696c206372656174654f7074696d69736d53657175656e6365720000000060448201526064016109fc565b8415612cc757600554612cc7906001600160a01b03163330886133e6565b6040805163ffffffff841681523360208201529081018b90526001600160a01b03808b166060830152808a16608083015280891660a0830152871660c082015260e081018690527f83d9a9b76130ffa963fa4c558a5ab61c74726896c79673e9d620739aebf93953906101000160405180910390a150506015805460ff60501b1916600160501b1790555050505050505050565b601554600160501b900460ff16612d9d5760405162461bcd60e51b81526004016109fc906020808252600490820152636c6f636b60e01b604082015260600190565b6015805460ff60501b191690558163ffffffff8116600003612de65760405162461bcd60e51b81526020600482015260026024820152615a3160f01b60448201526064016109fc565b8180600003612e1c5760405162461bcd60e51b81526020600482015260026024820152615a3160f01b60448201526064016109fc565b60155463ffffffff9081169085161115612e665760405162461bcd60e51b815260206004820152600b60248201526a0eee4dedcce40d2dcc8caf60ab1b60448201526064016109fc565b600754604051638c6f1b3960e01b815263ffffffff861660048201526000916001600160a01b031690638c6f1b3990602401608060405180830381865afa158015612eb5573d6000803e3d6000fd5b505050506040513d601f19601f82011682018060405250810190612ed99190613e6c565b6007548151604051635d0c7b2b60e01b81526001600160a01b039182166004820152929350600092911690635d0c7b2b90602401602060405180830381865afa158015612f2a573d6000803e3d6000fd5b505050506040513d601f19601f82011682018060405250810190612f4e9190613dd0565b90506001600160a01b03811615801590612f7057506001600160a01b03811633145b612fbc5760405162461bcd60e51b815260206004820181905260248201527f73657175656e636572206973207a65726f206f72206e6f742063616c6c65722e60448201526064016109fc565b600754825160405163516e4f0160e11b81526001600160a01b039182166004820152600092919091169063a2dc9e0290602401602060405180830381865afa15801561300c573d6000803e3d6000fd5b505050506040513d601f19601f820116820180604052508101906130309190613dd0565b90506001600160a01b0381166130885760405162461bcd60e51b815260206004820152600d60248201527f7a65726f206c314272696467650000000000000000000000000000000000000060448201526064016109fc565b60006130988285606001516114bf565b63ffffffff891660009081526012602052604090208054919250906130bd838a613d6b565b111561310b5760405162461bcd60e51b815260206004820152601460248201527f696e73756666696369656e74206465706f73697400000000000000000000000060448201526064016109fc565b8781600001600082825461311f9190613e59565b9250508190555087600d60008282546131389190613e59565b9091555050600554613154906001600160a01b0316338a61350a565b6040805163ffffffff8b1681523360208201529081018990527f15842789f01ee00184461198846223c315588d35fc8202916432ef78775d62c09060600160405180910390a150506015805460ff60501b1916600160501b17905550505050505050565b600f54600090815b818110156132a257600754600f80546001600160a01b0390921691635f1b989e9190849081106131f2576131f2613c79565b6000918252602090912060088204015460405160e084901b6001600160e01b0319168152600790921660049081026101000a90910463ffffffff16908201526001600160a01b0387166024820152604401602060405180830381865afa158015613260573d6000803e3d6000fd5b505050506040513d601f19601f820116820180604052508101906132849190613d7e565b61328e9084613d6b565b92508061329a81613d52565b9150506131c0565b5050919050565b610c748133613625565b6000828152602081815260408083206001600160a01b038516845290915290205460ff16611471576000828152602081815260408083206001600160a01b03851684529091529020805460ff1916600117905561330d3390565b6001600160a01b0316816001600160a01b0316837f2f8788117e7eff1d82e926ec794901d17c78024a50270940304540a733656f0d60405160405180910390a45050565b6000828152602081815260408083206001600160a01b038516845290915290205460ff1615611471576000828152602081815260408083206001600160a01b0385168085529252808320805460ff1916905551339285917ff6391f5c32d9c69d2a47ea670b442974b53935d1edc7fd64eb21e047a839171b9190a45050565b60008183116133df5781611588565b5090919050565b604080516001600160a01b0385811660248301528481166044830152606480830185905283518084039091018152608490920183526020820180516001600160e01b03166323b872dd60e01b179052915160009283929088169161344a9190613ef1565b6000604051808303816000865af19150503d8060008114613487576040519150601f19603f3d011682016040523d82523d6000602084013e61348c565b606091505b50915091508180156134b65750805115806134b65750808060200190518101906134b69190613e10565b6135025760405162461bcd60e51b815260206004820152601460248201527f5452414e534645525f46524f4d5f4641494c454400000000000000000000000060448201526064016109fc565b505050505050565b604080516001600160a01b038481166024830152604480830185905283518084039091018152606490920183526020820180516001600160e01b031663a9059cbb60e01b17905291516000928392908716916135669190613ef1565b6000604051808303816000865af19150503d80600081146135a3576040519150601f19603f3d011682016040523d82523d6000602084013e6135a8565b606091505b50915091508180156135d25750805115806135d25750808060200190518101906135d29190613e10565b61361e5760405162461bcd60e51b815260206004820152600f60248201527f5452414e534645525f4641494c4544000000000000000000000000000000000060448201526064016109fc565b5050505050565b6000828152602081815260408083206001600160a01b038516845290915290205460ff166114715761365681613698565b6136618360206136aa565b604051602001613672929190613f0d565b60408051601f198184030181529082905262461bcd60e51b82526109fc91600401613f8e565b60606109916001600160a01b03831660145b606060006136b9836002613d97565b6136c4906002613d6b565b67ffffffffffffffff8111156136dc576136dc613c63565b6040519080825280601f01601f191660200182016040528015613706576020820181803683370190505b509050600360fc1b8160008151811061372157613721613c79565b60200101906001600160f81b031916908160001a905350600f60fb1b8160018151811061375057613750613c79565b60200101906001600160f81b031916908160001a9053506000613774846002613d97565b61377f906001613d6b565b90505b6001811115613804577f303132333435363738396162636465660000000000000000000000000000000085600f16601081106137c0576137c0613c79565b1a60f81b8282815181106137d6576137d6613c79565b60200101906001600160f81b031916908160001a90535060049490941c936137fd81613fa1565b9050613782565b5083156115885760405162461bcd60e51b815260206004820181905260248201527f537472696e67733a20686578206c656e67746820696e73756666696369656e7460448201526064016109fc565b60006020828403121561386557600080fd5b81356001600160e01b03198116811461158857600080fd5b803563ffffffff811681146115b157600080fd5b6000602082840312156138a357600080fd5b6115888261387d565b803561ffff811681146115b157600080fd5b6000602082840312156138d057600080fd5b611588826138ac565b6001600160a01b0381168114610c7457600080fd5b60006020828403121561390057600080fd5b8135611588816138d9565b600081518084526020808501945080840160005b8381101561393b5781518752958201959082019060010161391f565b509495945050505050565b600081518084526020808501945080840160005b8381101561393b57815163ffffffff168752958201959082019060010161395a565b60005b8381101561399757818101518382015260200161397f565b50506000910152565b600081518084526139b881602086016020860161397c565b601f01601f19169290920160200192915050565b600081518084526020808501808196508360051b8101915082860160005b85811015613a14578284038952613a028483516139a0565b988501989350908401906001016139ea565b5091979650505050505050565b608081526000613a34608083018761390b565b602083820381850152613a478288613946565b91506040848303818601528287518085528385019150838901945060005b81811015613a9257613a8283875180518252602090810151910152565b9484019491830191600101613a65565b50508581036060870152613aa681886139cc565b9a9950505050505050505050565b600060208284031215613ac657600080fd5b5035919050565b606081526000613ae0606083018661390b565b8281036020840152613af28186613946565b90508281036040840152613b0681856139cc565b9695505050505050565b60008060408385031215613b2357600080fd5b823591506020830135613b35816138d9565b809150509250929050565b60008060408385031215613b5357600080fd5b8235613b5e816138d9565b91506020830135613b35816138d9565b60008060408385031215613b8157600080fd5b613b8a8361387d565b946020939093013593505050565b60008060008060808587031215613bae57600080fd5b613bb78561387d565b935060208501359250613bcc604086016138ac565b9396929550929360600135925050565b815181526020808301519082015260408101610991565b60008060008060008060c08789031215613c0c57600080fd5b863595506020870135613c1e816138d9565b94506040870135613c2e816138d9565b93506060870135613c3e816138d9565b92506080870135613c4e816138d9565b8092505060a087013590509295509295509295565b634e487b7160e01b600052604160045260246000fd5b634e487b7160e01b600052603260045260246000fd5b600060208284031215613ca157600080fd5b815167ffffffffffffffff80821115613cb957600080fd5b818401915084601f830112613ccd57600080fd5b815181811115613cdf57613cdf613c63565b604051601f8201601f19908116603f01168101908382118183101715613d0757613d07613c63565b81604052828152876020848701011115613d2057600080fd5b613d3183602083016020880161397c565b979650505050505050565b634e487b7160e01b600052601160045260246000fd5b600060018201613d6457613d64613d3c565b5060010190565b8082018082111561099157610991613d3c565b600060208284031215613d9057600080fd5b5051919050565b808202811582820484141761099157610991613d3c565b600082613dcb57634e487b7160e01b600052601260045260246000fd5b500490565b600060208284031215613de257600080fd5b8151611588816138d9565b600063ffffffff808316818103613e0657613e06613d3c565b6001019392505050565b600060208284031215613e2257600080fd5b8151801515811461158857600080fd5b63ffffffff83168152604060208201526000613e5160408301846139a0565b949350505050565b8181038181111561099157610991613d3c565b600060808284031215613e7e57600080fd5b6040516080810181811067ffffffffffffffff82111715613ea157613ea1613c63565b6040528251613eaf816138d9565b81526020830151613ebf816138d9565b60208201526040830151613ed2816138d9565b60408201526060830151613ee5816138d9565b60608201529392505050565b60008251613f0381846020870161397c565b9190910192915050565b7f416363657373436f6e74726f6c3a206163636f756e7420000000000000000000815260008351613f4581601785016020880161397c565b7f206973206d697373696e6720726f6c65200000000000000000000000000000006017918401918201528351613f8281602884016020880161397c565b01602801949350505050565b60208152600061158860208301846139a0565b600081613fb057613fb0613d3c565b50600019019056fe41636365737369626c653a2043616c6c6572206973206e6f7420616e2061646da164736f6c6343000812000a",
  "linkReferences": {
    "contracts/libraries/LibOperator.sol": {
      "LibOperator": [
        {
          "length": 20,
          "start": 7309
        }
      ]
    },
    "contracts/libraries/LibOptimism.sol": {
      "LibOptimism": [
        {
          "length": 20,
          "start": 10516
        }
      ]
    }
  },
  "deployedLinkReferences": {
    "contracts/libraries/LibOperator.sol": {
      "LibOperator": [
        {
          "length": 20,
          "start": 7251
        }
      ]
    },
    "contracts/libraries/LibOptimism.sol": {
      "LibOptimism": [
        {
          "length": 20,
          "start": 10458
        }
      ]
    }
  }
}