{
  "_format": "hh-sol-artifact-1",
  "contractName": "Layer2Manager",
  "sourceName": "contracts/Layer2Manager.sol",
  "abi": [
    {
      "inputs": [],
      "stateMutability": "nonpayable",
      "type": "constructor"
    },
    {
      "anonymous": false,
      "inputs": [
        {
          "indexed": false,
          "internalType": "uint32",
          "name": "_index",
          "type": "uint32"
        },
        {
          "indexed": false,
          "internalType": "address",
          "name": "_sequencer",
          "type": "address"
        },
        {
          "indexed": false,
          "internalType": "uint256",
          "name": "amount",
          "type": "uint256"
        }
      ],
      "name": "Claimed",
      "type": "event"
    },
    {
      "anonymous": false,
      "inputs": [
        {
          "indexed": false,
          "internalType": "uint32",
          "name": "_index",
          "type": "uint32"
        },
        {
          "indexed": false,
          "internalType": "address",
          "name": "_operator",
          "type": "address"
        },
        {
          "indexed": false,
          "internalType": "bytes32",
          "name": "_name",
          "type": "bytes32"
        },
        {
          "indexed": false,
          "internalType": "uint32",
          "name": "_sequencerIndex",
          "type": "uint32"
        },
        {
          "indexed": false,
          "internalType": "uint16",
          "name": "_commission",
          "type": "uint16"
        },
        {
          "indexed": false,
          "internalType": "uint256",
          "name": "depositAmount",
          "type": "uint256"
        }
      ],
      "name": "CreatedCandidate",
      "type": "event"
    },
    {
      "anonymous": false,
      "inputs": [
        {
          "indexed": false,
          "internalType": "uint32",
          "name": "_index",
          "type": "uint32"
        },
        {
          "indexed": false,
          "internalType": "address",
          "name": "_sequencer",
          "type": "address"
        },
        {
          "indexed": false,
          "internalType": "bytes32",
          "name": "_name",
          "type": "bytes32"
        },
        {
          "indexed": false,
          "internalType": "address",
          "name": "addressManager",
          "type": "address"
        },
        {
          "indexed": false,
          "internalType": "address",
          "name": "l1Bridge",
          "type": "address"
        },
        {
          "indexed": false,
          "internalType": "address",
          "name": "l2Bridge",
          "type": "address"
        },
        {
          "indexed": false,
          "internalType": "address",
          "name": "l2ton",
          "type": "address"
        },
        {
          "indexed": false,
          "internalType": "uint256",
          "name": "depositAmount",
          "type": "uint256"
        }
      ],
      "name": "CreatedOptimismSequencer",
      "type": "event"
    },
    {
      "anonymous": false,
      "inputs": [
        {
          "indexed": false,
          "internalType": "uint32",
          "name": "_index",
          "type": "uint32"
        },
        {
          "indexed": false,
          "internalType": "address",
          "name": "_sequencer",
          "type": "address"
        },
        {
          "indexed": false,
          "internalType": "uint256",
          "name": "amount",
          "type": "uint256"
        }
      ],
      "name": "DecreasedSecurityDeposit",
      "type": "event"
    },
    {
      "anonymous": false,
      "inputs": [
        {
          "indexed": false,
          "internalType": "uint256",
          "name": "_totalSeigs",
          "type": "uint256"
        },
        {
          "indexed": false,
          "internalType": "uint256",
          "name": "_distributedAmount",
          "type": "uint256"
        }
      ],
      "name": "Distributed",
      "type": "event"
    },
    {
      "anonymous": false,
      "inputs": [
        {
          "indexed": false,
          "internalType": "uint32",
          "name": "_index",
          "type": "uint32"
        },
        {
          "indexed": false,
          "internalType": "address",
          "name": "caller",
          "type": "address"
        },
        {
          "indexed": false,
          "internalType": "uint256",
          "name": "amount",
          "type": "uint256"
        }
      ],
      "name": "IncreasedSecurityDeposit",
      "type": "event"
    },
    {
      "anonymous": false,
      "inputs": [
        {
          "indexed": true,
          "internalType": "bytes32",
          "name": "role",
          "type": "bytes32"
        },
        {
          "indexed": true,
          "internalType": "bytes32",
          "name": "previousAdminRole",
          "type": "bytes32"
        },
        {
          "indexed": true,
          "internalType": "bytes32",
          "name": "newAdminRole",
          "type": "bytes32"
        }
      ],
      "name": "RoleAdminChanged",
      "type": "event"
    },
    {
      "anonymous": false,
      "inputs": [
        {
          "indexed": true,
          "internalType": "bytes32",
          "name": "role",
          "type": "bytes32"
        },
        {
          "indexed": true,
          "internalType": "address",
          "name": "account",
          "type": "address"
        },
        {
          "indexed": true,
          "internalType": "address",
          "name": "sender",
          "type": "address"
        }
      ],
      "name": "RoleGranted",
      "type": "event"
    },
    {
      "anonymous": false,
      "inputs": [
        {
          "indexed": true,
          "internalType": "bytes32",
          "name": "role",
          "type": "bytes32"
        },
        {
          "indexed": true,
          "internalType": "address",
          "name": "account",
          "type": "address"
        },
        {
          "indexed": true,
          "internalType": "address",
          "name": "sender",
          "type": "address"
        }
      ],
      "name": "RoleRevoked",
      "type": "event"
    },
    {
      "inputs": [],
      "name": "ADMIN_ROLE",
      "outputs": [
        {
          "internalType": "bytes32",
          "name": "",
          "type": "bytes32"
        }
      ],
      "stateMutability": "view",
      "type": "function"
    },
    {
      "inputs": [],
      "name": "DEFAULT_ADMIN_ROLE",
      "outputs": [
        {
          "internalType": "bytes32",
          "name": "",
          "type": "bytes32"
        }
      ],
      "stateMutability": "view",
      "type": "function"
    },
    {
      "inputs": [],
      "name": "POLICY_ROLE",
      "outputs": [
        {
          "internalType": "bytes32",
          "name": "",
          "type": "bytes32"
        }
      ],
      "stateMutability": "view",
      "type": "function"
    },
    {
      "inputs": [
        {
          "internalType": "address",
          "name": "account",
          "type": "address"
        }
      ],
      "name": "addAdmin",
      "outputs": [],
      "stateMutability": "nonpayable",
      "type": "function"
    },
    {
      "inputs": [
        {
          "internalType": "uint256",
          "name": "amount",
          "type": "uint256"
        }
      ],
      "name": "addSeigs",
      "outputs": [
        {
          "internalType": "bool",
          "name": "",
          "type": "bool"
        }
      ],
      "stateMutability": "nonpayable",
      "type": "function"
    },
    {
      "inputs": [
        {
          "internalType": "address",
          "name": "",
          "type": "address"
        }
      ],
      "name": "aliveImplementation",
      "outputs": [
        {
          "internalType": "bool",
          "name": "",
          "type": "bool"
        }
      ],
      "stateMutability": "view",
      "type": "function"
    },
    {
      "inputs": [
        {
          "internalType": "address",
          "name": "account",
          "type": "address"
        }
      ],
      "name": "balanceOfLton",
      "outputs": [
        {
          "internalType": "uint256",
          "name": "amount",
          "type": "uint256"
        }
      ],
      "stateMutability": "view",
      "type": "function"
    },
    {
      "inputs": [],
      "name": "candidate",
      "outputs": [
        {
          "internalType": "address",
          "name": "",
          "type": "address"
        }
      ],
      "stateMutability": "view",
      "type": "function"
    },
    {
      "inputs": [
        {
          "internalType": "uint32",
          "name": "",
          "type": "uint32"
        }
      ],
      "name": "candidateNames",
      "outputs": [
        {
          "internalType": "bytes32",
          "name": "",
          "type": "bytes32"
        }
      ],
      "stateMutability": "view",
      "type": "function"
    },
    {
      "inputs": [
        {
          "internalType": "uint256",
          "name": "",
          "type": "uint256"
        }
      ],
      "name": "candidatesIndexes",
      "outputs": [
        {
          "internalType": "uint32",
          "name": "",
          "type": "uint32"
        }
      ],
      "stateMutability": "view",
      "type": "function"
    },
    {
      "inputs": [
        {
          "internalType": "uint32",
          "name": "_layerIndex",
          "type": "uint32"
        }
      ],
      "name": "claim",
      "outputs": [],
      "stateMutability": "nonpayable",
      "type": "function"
    },
    {
      "inputs": [
        {
          "internalType": "uint32",
          "name": "_sequencerIndex",
          "type": "uint32"
        },
        {
          "internalType": "bytes32",
          "name": "_name",
          "type": "bytes32"
        },
        {
          "internalType": "uint16",
          "name": "_commission",
          "type": "uint16"
        },
        {
          "internalType": "uint256",
          "name": "amount",
          "type": "uint256"
        }
      ],
      "name": "createCandidate",
      "outputs": [],
      "stateMutability": "nonpayable",
      "type": "function"
    },
    {
      "inputs": [
        {
          "internalType": "bytes32",
          "name": "_name",
          "type": "bytes32"
        },
        {
          "internalType": "address",
          "name": "addressManager",
          "type": "address"
        },
        {
          "internalType": "address",
          "name": "l1Bridge",
          "type": "address"
        },
        {
          "internalType": "address",
          "name": "l2Bridge",
          "type": "address"
        },
        {
          "internalType": "address",
          "name": "l2ton",
          "type": "address"
        },
        {
          "internalType": "uint256",
          "name": "amount",
          "type": "uint256"
        }
      ],
      "name": "createOptimismSequencer",
      "outputs": [],
      "stateMutability": "nonpayable",
      "type": "function"
    },
    {
      "inputs": [],
      "name": "curTotalAmountsLayer2",
      "outputs": [
        {
          "internalType": "uint256",
          "name": "amount",
          "type": "uint256"
        }
      ],
      "stateMutability": "view",
      "type": "function"
    },
    {
      "inputs": [],
      "name": "curTotalLayer2Deposits",
      "outputs": [
        {
          "internalType": "uint256",
          "name": "amount",
          "type": "uint256"
        }
      ],
      "stateMutability": "view",
      "type": "function"
    },
    {
      "inputs": [
        {
          "internalType": "uint32",
          "name": "_layerIndex",
          "type": "uint32"
        }
      ],
      "name": "curlayer2DepositsOf",
      "outputs": [
        {
          "internalType": "uint256",
          "name": "amount",
          "type": "uint256"
        }
      ],
      "stateMutability": "view",
      "type": "function"
    },
    {
      "inputs": [
        {
          "internalType": "uint32",
          "name": "_sequencerIndex",
          "type": "uint32"
        },
        {
          "internalType": "uint256",
          "name": "amount",
          "type": "uint256"
        }
      ],
      "name": "decreaseSecurityDeposit",
      "outputs": [],
      "stateMutability": "nonpayable",
      "type": "function"
    },
    {
      "inputs": [],
      "name": "delayBlocksForWithdraw",
      "outputs": [
        {
          "internalType": "uint256",
          "name": "",
          "type": "uint256"
        }
      ],
      "stateMutability": "view",
      "type": "function"
    },
    {
      "inputs": [
        {
          "internalType": "uint32",
          "name": "_layerIndex",
          "type": "uint32"
        }
      ],
      "name": "depositsOf",
      "outputs": [
        {
          "internalType": "uint256",
          "name": "amount",
          "type": "uint256"
        }
      ],
      "stateMutability": "view",
      "type": "function"
    },
    {
      "inputs": [],
      "name": "distribute",
      "outputs": [],
      "stateMutability": "nonpayable",
      "type": "function"
    },
    {
      "inputs": [
        {
          "internalType": "uint32",
          "name": "_index",
          "type": "uint32"
        }
      ],
      "name": "existedCandidateIndex",
      "outputs": [
        {
          "internalType": "bool",
          "name": "exist_",
          "type": "bool"
        }
      ],
      "stateMutability": "view",
      "type": "function"
    },
    {
      "inputs": [
        {
          "internalType": "uint32",
          "name": "_index",
          "type": "uint32"
        }
      ],
      "name": "existedLayer2Index",
      "outputs": [
        {
          "internalType": "bool",
          "name": "exist_",
          "type": "bool"
        }
      ],
      "stateMutability": "view",
      "type": "function"
    },
    {
      "inputs": [],
      "name": "getAllCandidates",
      "outputs": [
        {
          "internalType": "bytes32[]",
          "name": "candidateNames_",
          "type": "bytes32[]"
        },
        {
          "internalType": "uint32[]",
          "name": "candidateNamesIndexes_",
          "type": "uint32[]"
        },
        {
          "internalType": "bytes[]",
          "name": "infos_",
          "type": "bytes[]"
        }
      ],
      "stateMutability": "view",
      "type": "function"
    },
    {
      "inputs": [],
      "name": "getAllLayers",
      "outputs": [
        {
          "internalType": "bytes32[]",
          "name": "optimismSequencerNames_",
          "type": "bytes32[]"
        },
        {
          "internalType": "uint32[]",
          "name": "optimismSequencerIndexes_",
          "type": "uint32[]"
        },
        {
          "components": [
            {
              "internalType": "uint256",
              "name": "securityDeposit",
              "type": "uint256"
            },
            {
              "internalType": "uint256",
              "name": "seigs",
              "type": "uint256"
            }
          ],
          "internalType": "struct Layer2.Layer2Holdings[]",
          "name": "holdings_",
          "type": "tuple[]"
        },
        {
          "internalType": "bytes[]",
          "name": "infos_",
          "type": "bytes[]"
        }
      ],
      "stateMutability": "view",
      "type": "function"
    },
    {
      "inputs": [
        {
          "internalType": "bytes32",
          "name": "role",
          "type": "bytes32"
        }
      ],
      "name": "getRoleAdmin",
      "outputs": [
        {
          "internalType": "bytes32",
          "name": "",
          "type": "bytes32"
        }
      ],
      "stateMutability": "view",
      "type": "function"
    },
    {
      "inputs": [
        {
          "internalType": "bytes32",
          "name": "role",
          "type": "bytes32"
        },
        {
          "internalType": "address",
          "name": "account",
          "type": "address"
        }
      ],
      "name": "grantRole",
      "outputs": [],
      "stateMutability": "nonpayable",
      "type": "function"
    },
    {
      "inputs": [
        {
          "internalType": "bytes32",
          "name": "role",
          "type": "bytes32"
        },
        {
          "internalType": "address",
          "name": "account",
          "type": "address"
        }
      ],
      "name": "hasRole",
      "outputs": [
        {
          "internalType": "bool",
          "name": "",
          "type": "bool"
        }
      ],
      "stateMutability": "view",
      "type": "function"
    },
    {
      "inputs": [
        {
          "internalType": "uint32",
          "name": "",
          "type": "uint32"
        }
      ],
      "name": "holdings",
      "outputs": [
        {
          "internalType": "uint256",
          "name": "securityDeposit",
          "type": "uint256"
        },
        {
          "internalType": "uint256",
          "name": "seigs",
          "type": "uint256"
        }
      ],
      "stateMutability": "view",
      "type": "function"
    },
    {
      "inputs": [
        {
          "internalType": "uint32",
          "name": "_sequencerIndex",
          "type": "uint32"
        },
        {
          "internalType": "uint256",
          "name": "amount",
          "type": "uint256"
        }
      ],
      "name": "increaseSecurityDeposit",
      "outputs": [],
      "stateMutability": "nonpayable",
      "type": "function"
    },
    {
      "inputs": [],
      "name": "indexCandidates",
      "outputs": [
        {
          "internalType": "uint32",
          "name": "",
          "type": "uint32"
        }
      ],
      "stateMutability": "view",
      "type": "function"
    },
    {
      "inputs": [],
      "name": "indexSequencers",
      "outputs": [
        {
          "internalType": "uint32",
          "name": "",
          "type": "uint32"
        }
      ],
      "stateMutability": "view",
      "type": "function"
    },
    {
      "inputs": [
        {
          "internalType": "address",
          "name": "account",
          "type": "address"
        }
      ],
      "name": "isAdmin",
      "outputs": [
        {
          "internalType": "bool",
          "name": "",
          "type": "bool"
        }
      ],
      "stateMutability": "view",
      "type": "function"
    },
    {
      "inputs": [
        {
          "internalType": "uint32",
          "name": "layerKey_",
          "type": "uint32"
        }
      ],
      "name": "layerHoldings",
      "outputs": [
        {
          "components": [
            {
              "internalType": "uint256",
              "name": "securityDeposit",
              "type": "uint256"
            },
            {
              "internalType": "uint256",
              "name": "seigs",
              "type": "uint256"
            }
          ],
          "internalType": "struct Layer2.Layer2Holdings",
          "name": "",
          "type": "tuple"
        }
      ],
      "stateMutability": "view",
      "type": "function"
    },
    {
      "inputs": [
        {
          "internalType": "bytes32",
          "name": "",
          "type": "bytes32"
        }
      ],
      "name": "layerKeys",
      "outputs": [
        {
          "internalType": "bool",
          "name": "",
          "type": "bool"
        }
      ],
      "stateMutability": "view",
      "type": "function"
    },
    {
      "inputs": [],
      "name": "maxLayer2Count",
      "outputs": [
        {
          "internalType": "uint256",
          "name": "",
          "type": "uint256"
        }
      ],
      "stateMutability": "view",
      "type": "function"
    },
    {
      "inputs": [],
      "name": "minimumDepositForCandidate",
      "outputs": [
        {
          "internalType": "uint256",
          "name": "",
          "type": "uint256"
        }
      ],
      "stateMutability": "view",
      "type": "function"
    },
    {
      "inputs": [],
      "name": "minimumDepositForSequencer",
      "outputs": [
        {
          "internalType": "uint256",
          "name": "",
          "type": "uint256"
        }
      ],
      "stateMutability": "view",
      "type": "function"
    },
    {
      "inputs": [
        {
          "internalType": "address",
          "name": "l1Bridge",
          "type": "address"
        },
        {
          "internalType": "address",
          "name": "l2ton",
          "type": "address"
        }
      ],
      "name": "minimumSecurityDepositAmount",
      "outputs": [
        {
          "internalType": "uint256",
          "name": "amount",
          "type": "uint256"
        }
      ],
      "stateMutability": "view",
      "type": "function"
    },
    {
      "inputs": [],
      "name": "optimismSequencer",
      "outputs": [
        {
          "internalType": "address",
          "name": "",
          "type": "address"
        }
      ],
      "stateMutability": "view",
      "type": "function"
    },
    {
      "inputs": [
        {
          "internalType": "uint256",
          "name": "",
          "type": "uint256"
        }
      ],
      "name": "optimismSequencerIndexes",
      "outputs": [
        {
          "internalType": "uint32",
          "name": "",
          "type": "uint32"
        }
      ],
      "stateMutability": "view",
      "type": "function"
    },
    {
      "inputs": [
        {
          "internalType": "uint32",
          "name": "",
          "type": "uint32"
        }
      ],
      "name": "optimismSequencerNames",
      "outputs": [
        {
          "internalType": "bytes32",
          "name": "",
          "type": "bytes32"
        }
      ],
      "stateMutability": "view",
      "type": "function"
    },
    {
      "inputs": [],
      "name": "pauseProxy",
      "outputs": [
        {
          "internalType": "bool",
          "name": "",
          "type": "bool"
        }
      ],
      "stateMutability": "view",
      "type": "function"
    },
    {
      "inputs": [
        {
          "internalType": "uint256",
          "name": "",
          "type": "uint256"
        }
      ],
      "name": "proxyImplementation",
      "outputs": [
        {
          "internalType": "address",
          "name": "",
          "type": "address"
        }
      ],
      "stateMutability": "view",
      "type": "function"
    },
    {
      "inputs": [],
      "name": "ratioSecurityDepositOfTvl",
      "outputs": [
        {
          "internalType": "uint16",
          "name": "",
          "type": "uint16"
        }
      ],
      "stateMutability": "view",
      "type": "function"
    },
    {
      "inputs": [
        {
          "internalType": "address",
          "name": "account",
          "type": "address"
        }
      ],
      "name": "removeAdmin",
      "outputs": [],
      "stateMutability": "nonpayable",
      "type": "function"
    },
    {
      "inputs": [
        {
          "internalType": "bytes32",
          "name": "role",
          "type": "bytes32"
        },
        {
          "internalType": "address",
          "name": "account",
          "type": "address"
        }
      ],
      "name": "renounceRole",
      "outputs": [],
      "stateMutability": "nonpayable",
      "type": "function"
    },
    {
      "inputs": [
        {
          "internalType": "bytes32",
          "name": "role",
          "type": "bytes32"
        },
        {
          "internalType": "address",
          "name": "account",
          "type": "address"
        }
      ],
      "name": "revokeRole",
      "outputs": [],
      "stateMutability": "nonpayable",
      "type": "function"
    },
    {
      "inputs": [],
      "name": "seigManagerV2",
      "outputs": [
        {
          "internalType": "address",
          "name": "",
          "type": "address"
        }
      ],
      "stateMutability": "view",
      "type": "function"
    },
    {
      "inputs": [
        {
          "internalType": "bytes4",
          "name": "",
          "type": "bytes4"
        }
      ],
      "name": "selectorImplementation",
      "outputs": [
        {
          "internalType": "address",
          "name": "",
          "type": "address"
        }
      ],
      "stateMutability": "view",
      "type": "function"
    },
    {
      "inputs": [
        {
          "internalType": "uint32",
          "name": "_layerIndex",
          "type": "uint32"
        }
      ],
      "name": "sequencer",
      "outputs": [
        {
          "internalType": "address",
          "name": "sequencer_",
          "type": "address"
        }
      ],
      "stateMutability": "view",
      "type": "function"
    },
    {
      "inputs": [
        {
          "internalType": "uint256",
          "name": "_delayBlocksForWithdraw",
          "type": "uint256"
        }
      ],
      "name": "setDelayBlocksForWithdraw",
      "outputs": [],
      "stateMutability": "nonpayable",
      "type": "function"
    },
    {
      "inputs": [
        {
          "internalType": "uint256",
          "name": "_maxLayer2Count",
          "type": "uint256"
        }
      ],
      "name": "setMaxLayer2Count",
      "outputs": [],
      "stateMutability": "nonpayable",
      "type": "function"
    },
    {
      "inputs": [
        {
          "internalType": "uint256",
          "name": "_minimumDepositForCandidate",
          "type": "uint256"
        }
      ],
      "name": "setMinimumDepositForCandidate",
      "outputs": [],
      "stateMutability": "nonpayable",
      "type": "function"
    },
    {
      "inputs": [
        {
          "internalType": "uint256",
          "name": "_minimumDepositForSequencer",
          "type": "uint256"
        }
      ],
      "name": "setMinimumDepositForSequencer",
      "outputs": [],
      "stateMutability": "nonpayable",
      "type": "function"
    },
    {
      "inputs": [
        {
          "internalType": "uint16",
          "name": "_ratioSecurityDepositOfTvl",
          "type": "uint16"
        }
      ],
      "name": "setRatioSecurityDepositOfTvl",
      "outputs": [],
      "stateMutability": "nonpayable",
      "type": "function"
    },
    {
      "inputs": [
        {
          "internalType": "bytes4",
          "name": "interfaceId",
          "type": "bytes4"
        }
      ],
      "name": "supportsInterface",
      "outputs": [
        {
          "internalType": "bool",
          "name": "",
          "type": "bool"
        }
      ],
      "stateMutability": "view",
      "type": "function"
    },
    {
      "inputs": [],
      "name": "ton",
      "outputs": [
        {
          "internalType": "contract IERC20",
          "name": "",
          "type": "address"
        }
      ],
      "stateMutability": "view",
      "type": "function"
    },
    {
      "inputs": [],
      "name": "totalCandidates",
      "outputs": [
        {
          "internalType": "uint256",
          "name": "total",
          "type": "uint256"
        }
      ],
      "stateMutability": "view",
      "type": "function"
    },
    {
      "inputs": [],
      "name": "totalLayers",
      "outputs": [
        {
          "internalType": "uint256",
          "name": "total",
          "type": "uint256"
        }
      ],
      "stateMutability": "view",
      "type": "function"
    },
    {
      "inputs": [],
      "name": "totalSecurityDeposit",
      "outputs": [
        {
          "internalType": "uint256",
          "name": "",
          "type": "uint256"
        }
      ],
      "stateMutability": "view",
      "type": "function"
    },
    {
      "inputs": [],
      "name": "totalSeigs",
      "outputs": [
        {
          "internalType": "uint256",
          "name": "",
          "type": "uint256"
        }
      ],
      "stateMutability": "view",
      "type": "function"
    },
    {
      "inputs": [
        {
          "internalType": "address",
          "name": "newAdmin",
          "type": "address"
        }
      ],
      "name": "transferAdmin",
      "outputs": [],
      "stateMutability": "nonpayable",
      "type": "function"
    }
  ],
  "bytecode": "0x60806040526015805460ff60501b19166a010000000000000000000017905534801561002a57600080fd5b5061400e8061003a6000396000f3fe608060405234801561001057600080fd5b50600436106103ba5760003560e01c806370480275116101f4578063b911135f1161011a578063da0dc135116100ad578063e99e36161161007c578063e99e36161461093c578063f2a7d7121461094f578063f71bf33a14610962578063fee539b71461096b57600080fd5b8063da0dc135146108f6578063e0ef2a7f14610909578063e12a62191461092c578063e4fc6b6d1461093457600080fd5b8063d37c6d69116100e9578063d37c6d69146108a7578063d48ddf04146108b0578063d547741f146108d0578063d639ff83146108e357600080fd5b8063b911135f1461083a578063c14241b914610863578063caef64e61461088b578063cc48b9471461089457600080fd5b80638d5d8e5511610192578063a4dd8b7d11610161578063a4dd8b7d146107ac578063a73ddaab146107b5578063ab8930a5146107c8578063ae9046ca1461082757600080fd5b80638d5d8e551461074a57806391d148541461075a578063963807a814610791578063a217fddf146107a457600080fd5b806375b238fc116101ce57806375b238fc146106f55780638935af9a1461071c5780638cc193a51461072f5780638d1f3d0a1461073757600080fd5b806370480275146106bc57806373469a7a146106cf57806375829def146106e257600080fd5b80633bd0c19f116102e457806357bc1df01161027757806363e6f0d81161024657806363e6f0d81461067b5780636b48235f146106835780636c8381f8146106965780636e1ef23a146106a957600080fd5b806357bc1df01461063a5780635b1f335f146106525780635d170f8f1461065b57806363a8fd891461066e57600080fd5b80634c76e6c8116102b35780634c76e6c8146105b05780634c7825bb146105c357806350d2a276146105d6578063550d01a31461061757600080fd5b80633bd0c19f1461054c5780634339da1c1461057457806346551ece14610587578063499ad9da146105a757600080fd5b80631c2833211161035c5780632e6997fe1161032b5780632e6997fe146105075780632f2ff15d1461051e57806336568abe146105315780633866965c1461054457600080fd5b80631c28332114610489578063229852461461049c578063248a9ca3146104d157806324d7806c146104f457600080fd5b8063091e3be311610398578063091e3be3146104385780631785f53c1461044b57806319a93b881461045e5780631a4f1eb91461047657600080fd5b806301ffc9a7146103bf57806304196138146103e75780630495189114610423575b600080fd5b6103d26103cd36600461387c565b61097e565b60405190151581526020015b60405180910390f35b61040e6103f53660046138ba565b6012602052600090815260409020805460019091015482565b604080519283526020830191909152016103de565b6104366104313660046138ba565b6109b5565b005b6104366104463660046138e7565b610b5d565b610436610459366004613917565b610c1a565b610466610c95565b6040516103de9493929190613a4a565b610436610484366004613add565b61100d565b6103d2610497366004613add565b61109a565b6104c37ffb5864e8ff833c3cb2d2d08505e82ff02a43554c74a35d4f5a64e8526127831181565b6040519081526020016103de565b6104c36104df366004613add565b60009081526020819052604090206001015490565b6103d2610502366004613917565b61111d565b61050f61115d565b6040516103de93929190613af6565b61043661052c366004613b39565b6113dd565b61043661053f366004613b39565b611407565b6014546104c3565b61055f61055a366004613add565b611493565b60405163ffffffff90911681526020016103de565b61055f610582366004613add565b6114cd565b6104c36105953660046138ba565b60106020526000908152604090205481565b6104c3600e5481565b6104c36105be366004613b69565b6114dd565b6104c36105d13660046138ba565b6115ad565b6105ff6105e436600461387c565b6004602052600090815260409020546001600160a01b031681565b6040516001600160a01b0390911681526020016103de565b6103d2610625366004613917565b60036020526000908152604090205460ff1681565b60155461055f90640100000000900463ffffffff1681565b6104c3600d5481565b6103d26106693660046138ba565b6115b8565b6001546103d29060ff1681565b600f546104c3565b610436610691366004613b97565b6115df565b6008546105ff906001600160a01b031681565b6103d26106b73660046138ba565b6117a9565b6104366106ca366004613917565b6117c7565b6006546105ff906001600160a01b031681565b6104366106f0366004613917565b61183f565b6104c37fdf8b4c520ffe197c5343c6f5aec59570151ef9a492f2c624fd45ddde6135ec4281565b61043661072a366004613add565b61198f565b6104c3611a1c565b6105ff6107453660046138ba565b611afc565b60155461055f9063ffffffff1681565b6103d2610768366004613b39565b6000918252602082815260408084206001600160a01b0393909316845291905290205460ff1690565b61043661079f366004613bc1565b611b84565b6104c3600081565b6104c3600a5481565b6104366107c3366004613add565b61216c565b61081a6107d63660046138ba565b60408051808201909152600080825260208201525063ffffffff16600090815260126020908152604091829020825180840190935280548352600101549082015290565b6040516103de9190613c05565b6104c36108353660046138ba565b612230565b6105ff610848366004613add565b6002602052600090815260409020546001600160a01b031681565b60155461087890600160401b900461ffff1681565b60405161ffff90911681526020016103de565b6104c3600b5481565b6005546105ff906001600160a01b031681565b6104c3600c5481565b6104c36108be3660046138ba565b60116020526000908152604090205481565b6104366108de366004613b39565b6122d8565b6104366108f1366004613add565b6122fd565b6007546105ff906001600160a01b031681565b6103d2610917366004613add565b60136020526000908152604090205460ff1681565b6104c361238a565b6104366123a6565b61043661094a366004613c1c565b6126c0565b61043661095d366004613b97565b612d84565b6104c360095481565b6104c3610979366004613917565b6131e1565b60006001600160e01b03198216637965db0b60e01b14806109af57506301ffc9a760e01b6001600160e01b03198316145b92915050565b63ffffffff811660009081526012602052604081206001015490819003610a235760405162461bcd60e51b815260206004820152601260248201527f6e6f20616d6f756e7420746f20636c61696d000000000000000000000000000060448201526064015b60405180910390fd5b6000610a2e83611afc565b90506001600160a01b038116610a865760405162461bcd60e51b815260206004820152600e60248201527f7a65726f2073657175656e6365720000000000000000000000000000000000006044820152606401610a1a565b63ffffffff8316600090815260126020526040808220600101919091556006549051635569f64b60e11b81526001600160a01b038381166004830152602482018590529091169063aad3ec9690604401600060405180830381600087803b158015610af057600080fd5b505af1158015610b04573d6000803e3d6000fd5b50506040805163ffffffff871681526001600160a01b03851660208201529081018590527fdc8b8058bd26d719cc330a54461930fd9c312dd28447313fd5dc4641513e00749250606001905060405180910390a1505050565b610b663361111d565b610bab5760405162461bcd60e51b81526020600482015260226024820152600080516020613fe283398151915260448201526134b760f11b6064820152608401610a1a565b60155461ffff808316600160401b9092041603610bf35760405162461bcd60e51b8152600401610a1a9060208082526004908201526373616d6560e01b604082015260600190565b6015805461ffff909216600160401b0269ffff000000000000000019909216919091179055565b610c233361111d565b610c685760405162461bcd60e51b81526020600482015260226024820152600080516020613fe283398151915260448201526134b760f11b6064820152608401610a1a565b610c927fdf8b4c520ffe197c5343c6f5aec59570151ef9a492f2c624fd45ddde6135ec4282611407565b50565b600f546060908190819081908067ffffffffffffffff811115610cba57610cba613c8c565b604051908082528060200260200182016040528015610ce3578160200160208202803683370190505b50600f805460408051602080840282018101909252828152939850830182828015610d5957602002820191906000526020600020906000905b82829054906101000a900463ffffffff1663ffffffff1681526020019060040190602082600301049283019260010382029150808411610d1c5790505b505050505093508067ffffffffffffffff811115610d7957610d79613c8c565b604051908082528060200260200182016040528015610dbe57816020015b6040805180820190915260008082526020820152815260200190600190039081610d975790505b5092508067ffffffffffffffff811115610dda57610dda613c8c565b604051908082528060200260200182016040528015610e0d57816020015b6060815260200190600190039081610df85790505b50915060005b818110156110055760106000600f8381548110610e3257610e32613ca2565b90600052602060002090600891828204019190066004029054906101000a900463ffffffff1663ffffffff1663ffffffff16815260200190815260200160002054868281518110610e8557610e85613ca2565b60200260200101818152505060126000600f8381548110610ea857610ea8613ca2565b90600052602060002090600891828204019190066004029054906101000a900463ffffffff1663ffffffff1663ffffffff16815260200190815260200160002060405180604001604052908160008201548152602001600182015481525050848281518110610f1957610f19613ca2565b6020908102919091010152600754600f80546001600160a01b039092169163659ab820919084908110610f4e57610f4e613ca2565b6000918252602090912060088204015460405160e084901b6001600160e01b0319168152600790921660049081026101000a90910463ffffffff1690820152602401600060405180830381865afa158015610fad573d6000803e3d6000fd5b505050506040513d6000823e601f3d908101601f19168201604052610fd59190810190613cb8565b838281518110610fe757610fe7613ca2565b60200260200101819052508080610ffd90613d7b565b915050610e13565b505090919293565b6110163361111d565b61105b5760405162461bcd60e51b81526020600482015260226024820152600080516020613fe283398151915260448201526134b760f11b6064820152608401610a1a565b80600b54036110955760405162461bcd60e51b8152600401610a1a9060208082526004908201526373616d6560e01b604082015260600190565b600b55565b6006546000906001600160a01b031633146110f75760405162461bcd60e51b815260206004820152601b60248201527f63616c6c6572206973206e6f7420536569674d616e61676572563200000000006044820152606401610a1a565b81156111155781600e600082825461110f9190613d94565b90915550505b506001919050565b6001600160a01b03811660009081527f5cbfc8ee58ca47855df7bcf648dd304ddb6b932f9b87878bdf6318d7ec7ee5b7602052604081205460ff166109af565b601454606090819081908067ffffffffffffffff81111561118057611180613c8c565b6040519080825280602002602001820160405280156111a9578160200160208202803683370190505b50601480546040805160208084028201810190925282815293975083018282801561121f57602002820191906000526020600020906000905b82829054906101000a900463ffffffff1663ffffffff16815260200190600401906020826003010492830192600103820291508084116111e25790505b505050505092508067ffffffffffffffff81111561123f5761123f613c8c565b60405190808252806020026020018201604052801561127257816020015b606081526020019060019003908161125d5790505b50915060005b818110156113d657601160006014838154811061129757611297613ca2565b90600052602060002090600891828204019190066004029054906101000a900463ffffffff1663ffffffff1663ffffffff168152602001908152602001600020548582815181106112ea576112ea613ca2565b6020908102919091010152600854601480546001600160a01b039092169163659ab82091908490811061131f5761131f613ca2565b6000918252602090912060088204015460405160e084901b6001600160e01b0319168152600790921660049081026101000a90910463ffffffff1690820152602401600060405180830381865afa15801561137e573d6000803e3d6000fd5b505050506040513d6000823e601f3d908101601f191682016040526113a69190810190613cb8565b8382815181106113b8576113b8613ca2565b602002602001018190525080806113ce90613d7b565b915050611278565b5050909192565b6000828152602081905260409020600101546113f8816132d2565b61140283836132dc565b505050565b6001600160a01b03811633146114855760405162461bcd60e51b815260206004820152602f60248201527f416363657373436f6e74726f6c3a2063616e206f6e6c792072656e6f756e636560448201527f20726f6c657320666f722073656c6600000000000000000000000000000000006064820152608401610a1a565b61148f828261337a565b5050565b601481815481106114a357600080fd5b9060005260206000209060089182820401919006600402915054906101000a900463ffffffff1681565b600f81815481106114a357600080fd5b601554600090600160401b900461ffff1681036114fd57506009546109af565b60155460075460405163edcc217760e01b81526001600160a01b03868116600483015285811660248301526115a69361271093600160401b90910461ffff169291169063edcc217790604401602060405180830381865afa158015611566573d6000803e3d6000fd5b505050506040513d601f19601f8201168201806040525081019061158a9190613da7565b6115949190613dc0565b61159e9190613dd7565b6009546133f9565b9392505050565b60006109af82612230565b60155460009063ffffffff6401000000009091048116908316116115da575060015b919050565b601554600160501b900460ff166116215760405162461bcd60e51b8152600401610a1a906020808252600490820152636c6f636b60e01b604082015260600190565b6015805460ff60501b191690558163ffffffff811660000361166a5760405162461bcd60e51b81526020600482015260026024820152615a3160f01b6044820152606401610a1a565b81806000036116a05760405162461bcd60e51b81526020600482015260026024820152615a3160f01b6044820152606401610a1a565b60155463ffffffff90811690851611156116ea5760405162461bcd60e51b815260206004820152600b60248201526a0eee4dedcce40d2dcc8caf60ab1b6044820152606401610a1a565b600554611702906001600160a01b031633308661340f565b63ffffffff8416600090815260126020526040812080549091859183919061172b908490613d94565b9250508190555083600d60008282546117449190613d94565b90915550506040805163ffffffff871681523360208201529081018590527f75d95e3e2cd0899a7e9451555815404d25586e691502bc69417edacc489173a69060600160405180910390a150506015805460ff60501b1916600160501b179055505050565b60155460009063ffffffff908116908316116115da57506001919050565b6117d03361111d565b6118155760405162461bcd60e51b81526020600482015260226024820152600080516020613fe283398151915260448201526134b760f11b6064820152608401610a1a565b610c927fdf8b4c520ffe197c5343c6f5aec59570151ef9a492f2c624fd45ddde6135ec42826113dd565b6118483361111d565b61188d5760405162461bcd60e51b81526020600482015260226024820152600080516020613fe283398151915260448201526134b760f11b6064820152608401610a1a565b6001600160a01b0381166118e35760405162461bcd60e51b815260206004820152601860248201527f41636365737369626c653a207a65726f206164647265737300000000000000006044820152606401610a1a565b6001600160a01b038116330361193b5760405162461bcd60e51b815260206004820152601660248201527f41636365737369626c653a2073616d652061646d696e000000000000000000006044820152606401610a1a565b6119657fdf8b4c520ffe197c5343c6f5aec59570151ef9a492f2c624fd45ddde6135ec42826113dd565b610c927fdf8b4c520ffe197c5343c6f5aec59570151ef9a492f2c624fd45ddde6135ec4233611407565b6119983361111d565b6119dd5760405162461bcd60e51b81526020600482015260226024820152600080516020613fe283398151915260448201526134b760f11b6064820152608401610a1a565b8060095403611a175760405162461bcd60e51b8152600401610a1a9060208082526004908201526373616d6560e01b604082015260600190565b600955565b600f54600090815b81811015611af757600754600f80546001600160a01b03909216916341e5dbe8919084908110611a5657611a56613ca2565b6000918252602090912060088204015460405160e084901b6001600160e01b0319168152600790921660049081026101000a90910463ffffffff1690820152602401602060405180830381865afa158015611ab5573d6000803e3d6000fd5b505050506040513d601f19601f82011682018060405250810190611ad99190613da7565b611ae39084613d94565b925080611aef81613d7b565b915050611a24565b505090565b60155460009063ffffffff908116908316116115da5760075460405163468f9e8560e11b815263ffffffff841660048201526001600160a01b0390911690638d1f3d0a90602401602060405180830381865afa158015611b60573d6000803e3d6000fd5b505050506040513d601f19601f820116820180604052508101906109af9190613df9565b838063ffffffff16600003611bc05760405162461bcd60e51b81526020600482015260026024820152615a3160f01b6044820152606401610a1a565b601554600160501b900460ff16611c025760405162461bcd60e51b8152600401610a1a906020808252600490820152636c6f636b60e01b604082015260600190565b6015805460ff60501b19811690915563ffffffff9081169086161115611c585760405162461bcd60e51b815260206004820152600b60248201526a0eee4dedcce40d2dcc8caf60ab1b6044820152606401610a1a565b604051633be35f5f60e21b815233600482015263ffffffff8616602482015260009073__$d436d56fec194dfaaabaf06742f0275c03$__9063ef8d7d7c90604401602060405180830381865af4158015611cb6573d6000803e3d6000fd5b505050506040513d601f19601f82011682018060405250810190611cda9190613da7565b60008181526013602052604090205490915060ff1615611d2e5760405162461bcd60e51b815260206004820152600f60248201526e185b1c9958591e4818dc99585d1959608a1b6044820152606401610a1a565b600a54831015611d805760405162461bcd60e51b815260206004820152601f60248201527f7365637572697479206465706f73697420697320696e737566666963656e74006044820152606401610a1a565b6000818152601360205260408120805460ff1916600117905560158054600490611db89063ffffffff64010000000090910416613e16565b825461010092830a63ffffffff818102199092168383169182021790945560148054600181019091557fce6d7b5282bd9a3661ae061feed1dbda4e52ab073b1f9285be6e155d9c38d4ec60088204018054600790921660040290940a91820219169084021790915560009182526011602052604090912087905590508315611e5257600554611e52906001600160a01b031633308761340f565b600554600854604051636eb1769f60e11b81523060048201526001600160a01b0391821660248201528692919091169063dd62ed3e90604401602060405180830381865afa158015611ea8573d6000803e3d6000fd5b505050506040513d601f19601f82011682018060405250810190611ecc9190613da7565b1015611fbe57600554600854604080516318160ddd60e01b815290516001600160a01b039384169363095ea7b393169184916318160ddd916004808201926020929091908290030181865afa158015611f29573d6000803e3d6000fd5b505050506040513d601f19601f82011682018060405250810190611f4d9190613da7565b6040516001600160e01b031960e085901b1681526001600160a01b03909216600483015260248201526044016020604051808303816000875af1158015611f98573d6000803e3d6000fd5b505050506040513d601f19601f82011682018060405250810190611fbc9190613e39565b505b600854604080513360601b6bffffffffffffffffffffffff1916602082015260e08a901b6001600160e01b031916603482015260f088901b7fffff000000000000000000000000000000000000000000000000000000000000166038820152603a80820188905282518083039091018152605a820192839052630df2b42960e41b9092526001600160a01b039092169163df2b42909161206391859190605e01613e5b565b6020604051808303816000875af1158015612082573d6000803e3d6000fd5b505050506040513d601f19601f820116820180604052508101906120a69190613e39565b6120f25760405162461bcd60e51b815260206004820152601460248201527f4661696c2063726561746543616e6469646174650000000000000000000000006044820152606401610a1a565b6040805163ffffffff83811682523360208301528183018990528916606082015261ffff8716608082015260a0810186905290517f342dd5ffb5ac74e51a17692939edd209c3e7b77cba98cdc874b1563f60ad0b889181900360c00190a150506015805460ff60501b1916600160501b1790555050505050565b80806000036121a25760405162461bcd60e51b81526020600482015260026024820152615a3160f01b6044820152606401610a1a565b6121ab3361111d565b6121f05760405162461bcd60e51b81526020600482015260226024820152600080516020613fe283398151915260448201526134b760f11b6064820152608401610a1a565b81600c540361222a5760405162461bcd60e51b8152600401610a1a9060208082526004908201526373616d6560e01b604082015260600190565b50600c55565b60075460405163083cbb7d60e31b815263ffffffff831660048201526000916001600160a01b0316906341e5dbe890602401602060405180830381865afa92505050801561229b575060408051601f3d908101601f1916820190925261229891810190613da7565b60015b6109af573d8080156122c9576040519150601f19603f3d011682016040523d82523d6000602084013e6122ce565b606091505b5060009392505050565b6000828152602081905260409020600101546122f3816132d2565b611402838361337a565b6123063361111d565b61234b5760405162461bcd60e51b81526020600482015260226024820152600080516020613fe283398151915260448201526134b760f11b6064820152608401610a1a565b80600a54036123855760405162461bcd60e51b8152600401610a1a9060208082526004908201526373616d6560e01b604082015260600190565b600a55565b6000600d54612397611a1c565b6123a19190613d94565b905090565b600e546000036123f85760405162461bcd60e51b815260206004820152601760248201527f6e6f2064697374726962757461626c6520616d6f756e740000000000000000006044820152606401610a1a565b600f546000808267ffffffffffffffff81111561241757612417613c8c565b604051908082528060200260200182016040528015612440578160200160208202803683370190505b50905060005b8381101561255d576000600f828154811061246357612463613ca2565b6000918252602080832060088304015460079092166004026101000a90910463ffffffff1680835260128252604092839020835180850190945280548085526001909101549284019290925260095490935011612526576124c382612230565b81516124cf9190613d94565b8484815181106124e1576124e1613ca2565b602002602001018181516124f59190613d94565b905250835184908490811061250c5761250c613ca2565b60200260200101518561251f9190613d94565b9450612548565b61252f82612230565b815161253b9190613d94565b6125459086613d94565b94505b5050808061255590613d7b565b915050612446565b506000821561267e5760005b8481101561265f57600083828151811061258557612585613ca2565b6020026020010151111561264d576000848483815181106125a8576125a8613ca2565b6020026020010151600e546125bd9190613dc0565b6125c79190613dd7565b9050600060126000600f85815481106125e2576125e2613ca2565b90600052602060002090600891828204019190066004029054906101000a900463ffffffff1663ffffffff1663ffffffff1681526020019081526020016000209050818160010160008282546126389190613d94565b9091555061264890508285613d94565b935050505b8061265781613d7b565b915050612569565b50801561267e5780600e60008282546126789190613e82565b90915550505b600e5460408051918252602082018390527f97791d3ac1343e05805a2f905fa80b249c2ca58cf9fef455d4fa7ec13ce58321910160405180910390a150505050565b601554600160501b900460ff166127025760405162461bcd60e51b8152600401610a1a906020808252600490820152636c6f636b60e01b604082015260600190565b6015805460ff60501b1916905560405163bf40fac160e01b815260206004820152600d60248201527f4f564d5f53657175656e6365720000000000000000000000000000000000000060448201526001600160a01b0386169063bf40fac190606401602060405180830381865afa158015612781573d6000803e3d6000fd5b505050506040513d601f19601f820116820180604052508101906127a59190613df9565b6001600160a01b0316336001600160a01b0316146128055760405162461bcd60e51b815260206004820152600d60248201527f4e4f542053657175656e636572000000000000000000000000000000000000006044820152606401610a1a565b600c5460155463ffffffff161061285e5760405162461bcd60e51b815260206004820152601760248201527f6578636565646564206d61784c6179657232436f756e740000000000000000006044820152606401610a1a565b6001600160a01b0385161580159061287e57506001600160a01b03821615155b6128ca5760405162461bcd60e51b815260206004820152600c60248201527f7a65726f206164647265737300000000000000000000000000000000000000006044820152606401610a1a565b60405163cd13ec8760e01b81526001600160a01b038087166004830152808616602483015280851660448301528316606482015260009073__$35081dc60fc26376aafbbba403b8b17c43$__9063cd13ec8790608401602060405180830381865af415801561293d573d6000803e3d6000fd5b505050506040513d601f19601f820116820180604052508101906129619190613da7565b60008181526013602052604090205490915060ff16156129b55760405162461bcd60e51b815260206004820152600f60248201526e185b1c9958591e4818dc99585d1959608a1b6044820152606401610a1a565b60075460405163516e4f0160e11b81526001600160a01b038881166004830152600092169063a2dc9e0290602401602060405180830381865afa158015612a00573d6000803e3d6000fd5b505050506040513d601f19601f82011682018060405250810190612a249190613df9565b9050806001600160a01b0316866001600160a01b031614612a875760405162461bcd60e51b815260206004820152601260248201527f646966666572656e74206c3142726964676500000000000000000000000000006044820152606401610a1a565b612a9186856114dd565b831015612ae05760405162461bcd60e51b815260206004820152601f60248201527f7365637572697479206465706f73697420697320696e737566666963656e74006044820152606401610a1a565b6000828152601360205260408120805460ff19166001179055601580548290612b0e9063ffffffff16613e16565b91906101000a81548163ffffffff021916908363ffffffff1602179055905083600d6000828254612b3f9190613d94565b9091555050600f805460018101909155600881047f8d1108e10bcb7c27dddfc02ed9d693a074039d026cf4ea4240b40f7d581ac80201805463ffffffff80851660046007958616026101000a81810292021990921617909155600090815260126020908152604080832088815560108352928190208d90559254925191926001600160a01b03169163df2b4290918591612c17918e918e918e918e9101606094851b6bffffffffffffffffffffffff19908116825293851b8416601482015291841b8316602883015290921b16603c82015260500190565b6040516020818303038152906040526040518363ffffffff1660e01b8152600401612c43929190613e5b565b6020604051808303816000875af1158015612c62573d6000803e3d6000fd5b505050506040513d601f19601f82011682018060405250810190612c869190613e39565b612cd25760405162461bcd60e51b815260206004820152601c60248201527f4661696c206372656174654f7074696d69736d53657175656e636572000000006044820152606401610a1a565b8415612cf057600554612cf0906001600160a01b031633308861340f565b6040805163ffffffff841681523360208201529081018b90526001600160a01b03808b166060830152808a16608083015280891660a0830152871660c082015260e081018690527f83d9a9b76130ffa963fa4c558a5ab61c74726896c79673e9d620739aebf93953906101000160405180910390a150506015805460ff60501b1916600160501b1790555050505050505050565b601554600160501b900460ff16612dc65760405162461bcd60e51b8152600401610a1a906020808252600490820152636c6f636b60e01b604082015260600190565b6015805460ff60501b191690558163ffffffff8116600003612e0f5760405162461bcd60e51b81526020600482015260026024820152615a3160f01b6044820152606401610a1a565b8180600003612e455760405162461bcd60e51b81526020600482015260026024820152615a3160f01b6044820152606401610a1a565b60155463ffffffff9081169085161115612e8f5760405162461bcd60e51b815260206004820152600b60248201526a0eee4dedcce40d2dcc8caf60ab1b6044820152606401610a1a565b600754604051638c6f1b3960e01b815263ffffffff861660048201526000916001600160a01b031690638c6f1b3990602401608060405180830381865afa158015612ede573d6000803e3d6000fd5b505050506040513d601f19601f82011682018060405250810190612f029190613e95565b6007548151604051635d0c7b2b60e01b81526001600160a01b039182166004820152929350600092911690635d0c7b2b90602401602060405180830381865afa158015612f53573d6000803e3d6000fd5b505050506040513d601f19601f82011682018060405250810190612f779190613df9565b90506001600160a01b03811615801590612f9957506001600160a01b03811633145b612fe55760405162461bcd60e51b815260206004820181905260248201527f73657175656e636572206973207a65726f206f72206e6f742063616c6c65722e6044820152606401610a1a565b600754825160405163516e4f0160e11b81526001600160a01b039182166004820152600092919091169063a2dc9e0290602401602060405180830381865afa158015613035573d6000803e3d6000fd5b505050506040513d601f19601f820116820180604052508101906130599190613df9565b90506001600160a01b0381166130b15760405162461bcd60e51b815260206004820152600d60248201527f7a65726f206c31427269646765000000000000000000000000000000000000006044820152606401610a1a565b60006130c18285606001516114dd565b63ffffffff891660009081526012602052604090208054919250906130e6838a613d94565b11156131345760405162461bcd60e51b815260206004820152601460248201527f696e73756666696369656e74206465706f7369740000000000000000000000006044820152606401610a1a565b878160000160008282546131489190613e82565b9250508190555087600d60008282546131619190613e82565b909155505060055461317d906001600160a01b0316338a613533565b6040805163ffffffff8b1681523360208201529081018990527f15842789f01ee00184461198846223c315588d35fc8202916432ef78775d62c09060600160405180910390a150506015805460ff60501b1916600160501b17905550505050505050565b600f54600090815b818110156132cb57600754600f80546001600160a01b0390921691635f1b989e91908490811061321b5761321b613ca2565b6000918252602090912060088204015460405160e084901b6001600160e01b0319168152600790921660049081026101000a90910463ffffffff16908201526001600160a01b0387166024820152604401602060405180830381865afa158015613289573d6000803e3d6000fd5b505050506040513d601f19601f820116820180604052508101906132ad9190613da7565b6132b79084613d94565b9250806132c381613d7b565b9150506131e9565b5050919050565b610c92813361364e565b6000828152602081815260408083206001600160a01b038516845290915290205460ff1661148f576000828152602081815260408083206001600160a01b03851684529091529020805460ff191660011790556133363390565b6001600160a01b0316816001600160a01b0316837f2f8788117e7eff1d82e926ec794901d17c78024a50270940304540a733656f0d60405160405180910390a45050565b6000828152602081815260408083206001600160a01b038516845290915290205460ff161561148f576000828152602081815260408083206001600160a01b0385168085529252808320805460ff1916905551339285917ff6391f5c32d9c69d2a47ea670b442974b53935d1edc7fd64eb21e047a839171b9190a45050565b600081831161340857816115a6565b5090919050565b604080516001600160a01b0385811660248301528481166044830152606480830185905283518084039091018152608490920183526020820180516001600160e01b03166323b872dd60e01b17905291516000928392908816916134739190613f1a565b6000604051808303816000865af19150503d80600081146134b0576040519150601f19603f3d011682016040523d82523d6000602084013e6134b5565b606091505b50915091508180156134df5750805115806134df5750808060200190518101906134df9190613e39565b61352b5760405162461bcd60e51b815260206004820152601460248201527f5452414e534645525f46524f4d5f4641494c45440000000000000000000000006044820152606401610a1a565b505050505050565b604080516001600160a01b038481166024830152604480830185905283518084039091018152606490920183526020820180516001600160e01b031663a9059cbb60e01b179052915160009283929087169161358f9190613f1a565b6000604051808303816000865af19150503d80600081146135cc576040519150601f19603f3d011682016040523d82523d6000602084013e6135d1565b606091505b50915091508180156135fb5750805115806135fb5750808060200190518101906135fb9190613e39565b6136475760405162461bcd60e51b815260206004820152600f60248201527f5452414e534645525f4641494c454400000000000000000000000000000000006044820152606401610a1a565b5050505050565b6000828152602081815260408083206001600160a01b038516845290915290205460ff1661148f5761367f816136c1565b61368a8360206136d3565b60405160200161369b929190613f36565b60408051601f198184030181529082905262461bcd60e51b8252610a1a91600401613fb7565b60606109af6001600160a01b03831660145b606060006136e2836002613dc0565b6136ed906002613d94565b67ffffffffffffffff81111561370557613705613c8c565b6040519080825280601f01601f19166020018201604052801561372f576020820181803683370190505b509050600360fc1b8160008151811061374a5761374a613ca2565b60200101906001600160f81b031916908160001a905350600f60fb1b8160018151811061377957613779613ca2565b60200101906001600160f81b031916908160001a905350600061379d846002613dc0565b6137a8906001613d94565b90505b600181111561382d577f303132333435363738396162636465660000000000000000000000000000000085600f16601081106137e9576137e9613ca2565b1a60f81b8282815181106137ff576137ff613ca2565b60200101906001600160f81b031916908160001a90535060049490941c9361382681613fca565b90506137ab565b5083156115a65760405162461bcd60e51b815260206004820181905260248201527f537472696e67733a20686578206c656e67746820696e73756666696369656e746044820152606401610a1a565b60006020828403121561388e57600080fd5b81356001600160e01b0319811681146115a657600080fd5b803563ffffffff811681146115da57600080fd5b6000602082840312156138cc57600080fd5b6115a6826138a6565b803561ffff811681146115da57600080fd5b6000602082840312156138f957600080fd5b6115a6826138d5565b6001600160a01b0381168114610c9257600080fd5b60006020828403121561392957600080fd5b81356115a681613902565b600081518084526020808501945080840160005b8381101561396457815187529582019590820190600101613948565b509495945050505050565b600081518084526020808501945080840160005b8381101561396457815163ffffffff1687529582019590820190600101613983565b60005b838110156139c05781810151838201526020016139a8565b50506000910152565b600081518084526139e18160208601602086016139a5565b601f01601f19169290920160200192915050565b600081518084526020808501808196508360051b8101915082860160005b85811015613a3d578284038952613a2b8483516139c9565b98850198935090840190600101613a13565b5091979650505050505050565b608081526000613a5d6080830187613934565b602083820381850152613a70828861396f565b91506040848303818601528287518085528385019150838901945060005b81811015613abb57613aab83875180518252602090810151910152565b9484019491830191600101613a8e565b50508581036060870152613acf81886139f5565b9a9950505050505050505050565b600060208284031215613aef57600080fd5b5035919050565b606081526000613b096060830186613934565b8281036020840152613b1b818661396f565b90508281036040840152613b2f81856139f5565b9695505050505050565b60008060408385031215613b4c57600080fd5b823591506020830135613b5e81613902565b809150509250929050565b60008060408385031215613b7c57600080fd5b8235613b8781613902565b91506020830135613b5e81613902565b60008060408385031215613baa57600080fd5b613bb3836138a6565b946020939093013593505050565b60008060008060808587031215613bd757600080fd5b613be0856138a6565b935060208501359250613bf5604086016138d5565b9396929550929360600135925050565b8151815260208083015190820152604081016109af565b60008060008060008060c08789031215613c3557600080fd5b863595506020870135613c4781613902565b94506040870135613c5781613902565b93506060870135613c6781613902565b92506080870135613c7781613902565b8092505060a087013590509295509295509295565b634e487b7160e01b600052604160045260246000fd5b634e487b7160e01b600052603260045260246000fd5b600060208284031215613cca57600080fd5b815167ffffffffffffffff80821115613ce257600080fd5b818401915084601f830112613cf657600080fd5b815181811115613d0857613d08613c8c565b604051601f8201601f19908116603f01168101908382118183101715613d3057613d30613c8c565b81604052828152876020848701011115613d4957600080fd5b613d5a8360208301602088016139a5565b979650505050505050565b634e487b7160e01b600052601160045260246000fd5b600060018201613d8d57613d8d613d65565b5060010190565b808201808211156109af576109af613d65565b600060208284031215613db957600080fd5b5051919050565b80820281158282048414176109af576109af613d65565b600082613df457634e487b7160e01b600052601260045260246000fd5b500490565b600060208284031215613e0b57600080fd5b81516115a681613902565b600063ffffffff808316818103613e2f57613e2f613d65565b6001019392505050565b600060208284031215613e4b57600080fd5b815180151581146115a657600080fd5b63ffffffff83168152604060208201526000613e7a60408301846139c9565b949350505050565b818103818111156109af576109af613d65565b600060808284031215613ea757600080fd5b6040516080810181811067ffffffffffffffff82111715613eca57613eca613c8c565b6040528251613ed881613902565b81526020830151613ee881613902565b60208201526040830151613efb81613902565b60408201526060830151613f0e81613902565b60608201529392505050565b60008251613f2c8184602087016139a5565b9190910192915050565b7f416363657373436f6e74726f6c3a206163636f756e7420000000000000000000815260008351613f6e8160178501602088016139a5565b7f206973206d697373696e6720726f6c65200000000000000000000000000000006017918401918201528351613fab8160288401602088016139a5565b01602801949350505050565b6020815260006115a660208301846139c9565b600081613fd957613fd9613d65565b50600019019056fe41636365737369626c653a2043616c6c6572206973206e6f7420616e2061646da164736f6c6343000812000a",
  "linkReferences": {
    "contracts/libraries/LibOperator.sol": {
      "LibOperator": [
        {
          "length": 20,
          "start": 7350
        }
      ]
    },
    "contracts/libraries/LibOptimism.sol": {
      "LibOptimism": [
        {
          "length": 20,
          "start": 10557
        }
      ]
    }
  },
  "deployedLinkReferences": {
    "contracts/libraries/LibOperator.sol": {
      "LibOperator": [
        {
          "length": 20,
          "start": 7292
        }
      ]
    },
    "contracts/libraries/LibOptimism.sol": {
      "LibOptimism": [
        {
          "length": 20,
          "start": 10499
        }
      ]
    }
  }
}