{
  "_format": "hh-sol-artifact-1",
  "contractName": "Layer2Manager",
  "sourceName": "contracts/Layer2Manager.sol",
  "abi": [
    {
      "inputs": [],
      "stateMutability": "nonpayable",
      "type": "constructor"
    },
    {
      "anonymous": false,
      "inputs": [
        {
          "indexed": false,
          "internalType": "uint32",
          "name": "_index",
          "type": "uint32"
        },
        {
          "indexed": false,
          "internalType": "address",
          "name": "_operator",
          "type": "address"
        },
        {
          "indexed": false,
          "internalType": "uint256",
          "name": "amount",
          "type": "uint256"
        }
      ],
      "name": "Claimed",
      "type": "event"
    },
    {
      "anonymous": false,
      "inputs": [
        {
          "indexed": false,
          "internalType": "uint32",
          "name": "_index",
          "type": "uint32"
        },
        {
          "indexed": false,
          "internalType": "address",
          "name": "_operator",
          "type": "address"
        },
        {
          "indexed": false,
          "internalType": "bytes32",
          "name": "_name",
          "type": "bytes32"
        },
        {
          "indexed": false,
          "internalType": "uint32",
          "name": "_operatorIndex",
          "type": "uint32"
        },
        {
          "indexed": false,
          "internalType": "uint16",
          "name": "_commission",
          "type": "uint16"
        },
        {
          "indexed": false,
          "internalType": "uint256",
          "name": "depositAmount",
          "type": "uint256"
        }
      ],
      "name": "CreatedCandidate",
      "type": "event"
    },
    {
      "anonymous": false,
      "inputs": [
        {
          "indexed": false,
          "internalType": "uint32",
          "name": "_index",
          "type": "uint32"
        },
        {
          "indexed": false,
          "internalType": "address",
          "name": "_operator",
          "type": "address"
        },
        {
          "indexed": false,
          "internalType": "bytes32",
          "name": "_name",
          "type": "bytes32"
        },
        {
          "indexed": false,
          "internalType": "address",
          "name": "addressManager",
          "type": "address"
        },
        {
          "indexed": false,
          "internalType": "address",
          "name": "l1Bridge",
          "type": "address"
        },
        {
          "indexed": false,
          "internalType": "address",
          "name": "l2Bridge",
          "type": "address"
        },
        {
          "indexed": false,
          "internalType": "address",
          "name": "l2ton",
          "type": "address"
        },
        {
          "indexed": false,
          "internalType": "uint256",
          "name": "depositAmount",
          "type": "uint256"
        }
      ],
      "name": "CreatedOptimismL2Operator",
      "type": "event"
    },
    {
      "anonymous": false,
      "inputs": [
        {
          "indexed": false,
          "internalType": "uint32",
          "name": "_index",
          "type": "uint32"
        },
        {
          "indexed": false,
          "internalType": "address",
          "name": "_operator",
          "type": "address"
        },
        {
          "indexed": false,
          "internalType": "uint256",
          "name": "amount",
          "type": "uint256"
        }
      ],
      "name": "DecreasedSecurityDeposit",
      "type": "event"
    },
    {
      "anonymous": false,
      "inputs": [
        {
          "indexed": false,
          "internalType": "uint256",
          "name": "_totalSeigs",
          "type": "uint256"
        },
        {
          "indexed": false,
          "internalType": "uint256",
          "name": "_distributedAmount",
          "type": "uint256"
        }
      ],
      "name": "Distributed",
      "type": "event"
    },
    {
      "anonymous": false,
      "inputs": [
        {
          "indexed": false,
          "internalType": "uint32",
          "name": "_index",
          "type": "uint32"
        },
        {
          "indexed": false,
          "internalType": "address",
          "name": "caller",
          "type": "address"
        },
        {
          "indexed": false,
          "internalType": "uint256",
          "name": "amount",
          "type": "uint256"
        }
      ],
      "name": "IncreasedSecurityDeposit",
      "type": "event"
    },
    {
      "anonymous": false,
      "inputs": [
        {
          "indexed": true,
          "internalType": "bytes32",
          "name": "role",
          "type": "bytes32"
        },
        {
          "indexed": true,
          "internalType": "bytes32",
          "name": "previousAdminRole",
          "type": "bytes32"
        },
        {
          "indexed": true,
          "internalType": "bytes32",
          "name": "newAdminRole",
          "type": "bytes32"
        }
      ],
      "name": "RoleAdminChanged",
      "type": "event"
    },
    {
      "anonymous": false,
      "inputs": [
        {
          "indexed": true,
          "internalType": "bytes32",
          "name": "role",
          "type": "bytes32"
        },
        {
          "indexed": true,
          "internalType": "address",
          "name": "account",
          "type": "address"
        },
        {
          "indexed": true,
          "internalType": "address",
          "name": "sender",
          "type": "address"
        }
      ],
      "name": "RoleGranted",
      "type": "event"
    },
    {
      "anonymous": false,
      "inputs": [
        {
          "indexed": true,
          "internalType": "bytes32",
          "name": "role",
          "type": "bytes32"
        },
        {
          "indexed": true,
          "internalType": "address",
          "name": "account",
          "type": "address"
        },
        {
          "indexed": true,
          "internalType": "address",
          "name": "sender",
          "type": "address"
        }
      ],
      "name": "RoleRevoked",
      "type": "event"
    },
    {
      "inputs": [],
      "name": "ADMIN_ROLE",
      "outputs": [
        {
          "internalType": "bytes32",
          "name": "",
          "type": "bytes32"
        }
      ],
      "stateMutability": "view",
      "type": "function"
    },
    {
      "inputs": [],
      "name": "DEFAULT_ADMIN_ROLE",
      "outputs": [
        {
          "internalType": "bytes32",
          "name": "",
          "type": "bytes32"
        }
      ],
      "stateMutability": "view",
      "type": "function"
    },
    {
      "inputs": [],
      "name": "POLICY_ROLE",
      "outputs": [
        {
          "internalType": "bytes32",
          "name": "",
          "type": "bytes32"
        }
      ],
      "stateMutability": "view",
      "type": "function"
    },
    {
      "inputs": [
        {
          "internalType": "address",
          "name": "account",
          "type": "address"
        }
      ],
      "name": "addAdmin",
      "outputs": [],
      "stateMutability": "nonpayable",
      "type": "function"
    },
    {
      "inputs": [
        {
          "internalType": "uint256",
          "name": "amount",
          "type": "uint256"
        }
      ],
      "name": "addSeigs",
      "outputs": [
        {
          "internalType": "bool",
          "name": "",
          "type": "bool"
        }
      ],
      "stateMutability": "nonpayable",
      "type": "function"
    },
    {
      "inputs": [
        {
          "internalType": "address",
          "name": "",
          "type": "address"
        }
      ],
      "name": "aliveImplementation",
      "outputs": [
        {
          "internalType": "bool",
          "name": "",
          "type": "bool"
        }
      ],
      "stateMutability": "view",
      "type": "function"
    },
    {
      "inputs": [
        {
          "internalType": "address",
          "name": "account",
          "type": "address"
        }
      ],
      "name": "balanceOfLton",
      "outputs": [
        {
          "internalType": "uint256",
          "name": "amount",
          "type": "uint256"
        }
      ],
      "stateMutability": "view",
      "type": "function"
    },
    {
      "inputs": [],
      "name": "candidate",
      "outputs": [
        {
          "internalType": "address",
          "name": "",
          "type": "address"
        }
      ],
      "stateMutability": "view",
      "type": "function"
    },
    {
      "inputs": [
        {
          "internalType": "uint32",
          "name": "",
          "type": "uint32"
        }
      ],
      "name": "candidateNames",
      "outputs": [
        {
          "internalType": "bytes32",
          "name": "",
          "type": "bytes32"
        }
      ],
      "stateMutability": "view",
      "type": "function"
    },
    {
      "inputs": [
        {
          "internalType": "uint256",
          "name": "",
          "type": "uint256"
        }
      ],
      "name": "candidatesIndexes",
      "outputs": [
        {
          "internalType": "uint32",
          "name": "",
          "type": "uint32"
        }
      ],
      "stateMutability": "view",
      "type": "function"
    },
    {
      "inputs": [
        {
          "internalType": "uint32",
          "name": "_layerIndex",
          "type": "uint32"
        }
      ],
      "name": "claim",
      "outputs": [],
      "stateMutability": "nonpayable",
      "type": "function"
    },
    {
      "inputs": [
        {
          "internalType": "uint32",
          "name": "_operatorIndex",
          "type": "uint32"
        },
        {
          "internalType": "bytes32",
          "name": "_name",
          "type": "bytes32"
        },
        {
          "internalType": "uint16",
          "name": "_commission",
          "type": "uint16"
        },
        {
          "internalType": "uint256",
          "name": "amount",
          "type": "uint256"
        }
      ],
      "name": "createCandidate",
      "outputs": [
        {
          "internalType": "uint32",
          "name": "",
          "type": "uint32"
        }
      ],
      "stateMutability": "nonpayable",
      "type": "function"
    },
    {
      "inputs": [
        {
          "internalType": "bytes32",
          "name": "_name",
          "type": "bytes32"
        },
        {
          "internalType": "address",
          "name": "addressManager",
          "type": "address"
        },
        {
          "internalType": "address",
          "name": "l1Bridge",
          "type": "address"
        },
        {
          "internalType": "address",
          "name": "l2Bridge",
          "type": "address"
        },
        {
          "internalType": "address",
          "name": "l2ton",
          "type": "address"
        },
        {
          "internalType": "uint256",
          "name": "amount",
          "type": "uint256"
        }
      ],
      "name": "createOptimismL2Operator",
      "outputs": [
        {
          "internalType": "uint32",
          "name": "",
          "type": "uint32"
        }
      ],
      "stateMutability": "nonpayable",
      "type": "function"
    },
    {
      "inputs": [],
      "name": "curTotalAmountsLayer2",
      "outputs": [
        {
          "internalType": "uint256",
          "name": "amount",
          "type": "uint256"
        }
      ],
      "stateMutability": "view",
      "type": "function"
    },
    {
      "inputs": [],
      "name": "curTotalLayer2Deposits",
      "outputs": [
        {
          "internalType": "uint256",
          "name": "amount",
          "type": "uint256"
        }
      ],
      "stateMutability": "view",
      "type": "function"
    },
    {
      "inputs": [
        {
          "internalType": "uint32",
          "name": "_operatorIndex",
          "type": "uint32"
        },
        {
          "internalType": "uint256",
          "name": "amount",
          "type": "uint256"
        }
      ],
      "name": "decreaseSecurityDeposit",
      "outputs": [],
      "stateMutability": "nonpayable",
      "type": "function"
    },
    {
      "inputs": [],
      "name": "delayBlocksForWithdraw",
      "outputs": [
        {
          "internalType": "uint256",
          "name": "",
          "type": "uint256"
        }
      ],
      "stateMutability": "view",
      "type": "function"
    },
    {
      "inputs": [
        {
          "internalType": "uint32",
          "name": "_layerIndex",
          "type": "uint32"
        }
      ],
      "name": "depositsOf",
      "outputs": [
        {
          "internalType": "uint256",
          "name": "amount",
          "type": "uint256"
        }
      ],
      "stateMutability": "view",
      "type": "function"
    },
    {
      "inputs": [],
      "name": "distribute",
      "outputs": [],
      "stateMutability": "nonpayable",
      "type": "function"
    },
    {
      "inputs": [
        {
          "internalType": "uint32",
          "name": "_index",
          "type": "uint32"
        }
      ],
      "name": "existedCandidateIndex",
      "outputs": [
        {
          "internalType": "bool",
          "name": "exist_",
          "type": "bool"
        }
      ],
      "stateMutability": "view",
      "type": "function"
    },
    {
      "inputs": [
        {
          "internalType": "uint32",
          "name": "_index",
          "type": "uint32"
        }
      ],
      "name": "existedLayer2Index",
      "outputs": [
        {
          "internalType": "bool",
          "name": "exist_",
          "type": "bool"
        }
      ],
      "stateMutability": "view",
      "type": "function"
    },
    {
      "inputs": [],
      "name": "getAllCandidates",
      "outputs": [
        {
          "internalType": "bytes32[]",
          "name": "candidateNames_",
          "type": "bytes32[]"
        },
        {
          "internalType": "uint32[]",
          "name": "candidateNamesIndexes_",
          "type": "uint32[]"
        },
        {
          "internalType": "bytes[]",
          "name": "infos_",
          "type": "bytes[]"
        }
      ],
      "stateMutability": "view",
      "type": "function"
    },
    {
      "inputs": [],
      "name": "getAllLayers",
      "outputs": [
        {
          "internalType": "bytes32[]",
          "name": "optimismL2OperatorNames_",
          "type": "bytes32[]"
        },
        {
          "internalType": "uint32[]",
          "name": "optimismL2OperatorIndexes_",
          "type": "uint32[]"
        },
        {
          "components": [
            {
              "internalType": "uint256",
              "name": "securityDeposit",
              "type": "uint256"
            },
            {
              "internalType": "uint256",
              "name": "seigs",
              "type": "uint256"
            }
          ],
          "internalType": "struct Layer2.Layer2Holdings[]",
          "name": "holdings_",
          "type": "tuple[]"
        },
        {
          "internalType": "bytes[]",
          "name": "infos_",
          "type": "bytes[]"
        }
      ],
      "stateMutability": "view",
      "type": "function"
    },
    {
      "inputs": [
        {
          "internalType": "bytes32",
          "name": "role",
          "type": "bytes32"
        }
      ],
      "name": "getRoleAdmin",
      "outputs": [
        {
          "internalType": "bytes32",
          "name": "",
          "type": "bytes32"
        }
      ],
      "stateMutability": "view",
      "type": "function"
    },
    {
      "inputs": [
        {
          "internalType": "bytes32",
          "name": "role",
          "type": "bytes32"
        },
        {
          "internalType": "address",
          "name": "account",
          "type": "address"
        }
      ],
      "name": "grantRole",
      "outputs": [],
      "stateMutability": "nonpayable",
      "type": "function"
    },
    {
      "inputs": [
        {
          "internalType": "bytes32",
          "name": "role",
          "type": "bytes32"
        },
        {
          "internalType": "address",
          "name": "account",
          "type": "address"
        }
      ],
      "name": "hasRole",
      "outputs": [
        {
          "internalType": "bool",
          "name": "",
          "type": "bool"
        }
      ],
      "stateMutability": "view",
      "type": "function"
    },
    {
      "inputs": [
        {
          "internalType": "uint32",
          "name": "",
          "type": "uint32"
        }
      ],
      "name": "holdings",
      "outputs": [
        {
          "internalType": "uint256",
          "name": "securityDeposit",
          "type": "uint256"
        },
        {
          "internalType": "uint256",
          "name": "seigs",
          "type": "uint256"
        }
      ],
      "stateMutability": "view",
      "type": "function"
    },
    {
      "inputs": [
        {
          "internalType": "uint32",
          "name": "_operatorIndex",
          "type": "uint32"
        },
        {
          "internalType": "uint256",
          "name": "amount",
          "type": "uint256"
        }
      ],
      "name": "increaseSecurityDeposit",
      "outputs": [],
      "stateMutability": "nonpayable",
      "type": "function"
    },
    {
      "inputs": [],
      "name": "indexCandidates",
      "outputs": [
        {
          "internalType": "uint32",
          "name": "",
          "type": "uint32"
        }
      ],
      "stateMutability": "view",
      "type": "function"
    },
    {
      "inputs": [],
      "name": "indexOperators",
      "outputs": [
        {
          "internalType": "uint32",
          "name": "",
          "type": "uint32"
        }
      ],
      "stateMutability": "view",
      "type": "function"
    },
    {
      "inputs": [
        {
          "internalType": "address",
          "name": "account",
          "type": "address"
        }
      ],
      "name": "isAdmin",
      "outputs": [
        {
          "internalType": "bool",
          "name": "",
          "type": "bool"
        }
      ],
      "stateMutability": "view",
      "type": "function"
    },
    {
      "inputs": [
        {
          "internalType": "uint32",
          "name": "layerKey_",
          "type": "uint32"
        }
      ],
      "name": "layerHoldings",
      "outputs": [
        {
          "components": [
            {
              "internalType": "uint256",
              "name": "securityDeposit",
              "type": "uint256"
            },
            {
              "internalType": "uint256",
              "name": "seigs",
              "type": "uint256"
            }
          ],
          "internalType": "struct Layer2.Layer2Holdings",
          "name": "",
          "type": "tuple"
        }
      ],
      "stateMutability": "view",
      "type": "function"
    },
    {
      "inputs": [
        {
          "internalType": "bytes32",
          "name": "",
          "type": "bytes32"
        }
      ],
      "name": "layerKeys",
      "outputs": [
        {
          "internalType": "bool",
          "name": "",
          "type": "bool"
        }
      ],
      "stateMutability": "view",
      "type": "function"
    },
    {
      "inputs": [],
      "name": "maxLayer2Count",
      "outputs": [
        {
          "internalType": "uint256",
          "name": "",
          "type": "uint256"
        }
      ],
      "stateMutability": "view",
      "type": "function"
    },
    {
      "inputs": [],
      "name": "minimumDepositForCandidate",
      "outputs": [
        {
          "internalType": "uint256",
          "name": "",
          "type": "uint256"
        }
      ],
      "stateMutability": "view",
      "type": "function"
    },
    {
      "inputs": [],
      "name": "minimumDepositForL2Operator",
      "outputs": [
        {
          "internalType": "uint256",
          "name": "",
          "type": "uint256"
        }
      ],
      "stateMutability": "view",
      "type": "function"
    },
    {
      "inputs": [
        {
          "internalType": "address",
          "name": "l1Bridge",
          "type": "address"
        },
        {
          "internalType": "address",
          "name": "l2ton",
          "type": "address"
        }
      ],
      "name": "minimumSecurityDepositAmount",
      "outputs": [
        {
          "internalType": "uint256",
          "name": "amount",
          "type": "uint256"
        }
      ],
      "stateMutability": "view",
      "type": "function"
    },
    {
      "inputs": [
        {
          "internalType": "uint32",
          "name": "_layerIndex",
          "type": "uint32"
        }
      ],
      "name": "operator",
      "outputs": [
        {
          "internalType": "address",
          "name": "operator_",
          "type": "address"
        }
      ],
      "stateMutability": "view",
      "type": "function"
    },
    {
      "inputs": [],
      "name": "optimismL2Operator",
      "outputs": [
        {
          "internalType": "address",
          "name": "",
          "type": "address"
        }
      ],
      "stateMutability": "view",
      "type": "function"
    },
    {
      "inputs": [
        {
          "internalType": "uint256",
          "name": "",
          "type": "uint256"
        }
      ],
      "name": "optimismL2OperatorIndexes",
      "outputs": [
        {
          "internalType": "uint32",
          "name": "",
          "type": "uint32"
        }
      ],
      "stateMutability": "view",
      "type": "function"
    },
    {
      "inputs": [
        {
          "internalType": "uint32",
          "name": "",
          "type": "uint32"
        }
      ],
      "name": "optimismL2OperatorNames",
      "outputs": [
        {
          "internalType": "bytes32",
          "name": "",
          "type": "bytes32"
        }
      ],
      "stateMutability": "view",
      "type": "function"
    },
    {
      "inputs": [],
      "name": "pauseProxy",
      "outputs": [
        {
          "internalType": "bool",
          "name": "",
          "type": "bool"
        }
      ],
      "stateMutability": "view",
      "type": "function"
    },
    {
      "inputs": [
        {
          "internalType": "uint256",
          "name": "",
          "type": "uint256"
        }
      ],
      "name": "proxyImplementation",
      "outputs": [
        {
          "internalType": "address",
          "name": "",
          "type": "address"
        }
      ],
      "stateMutability": "view",
      "type": "function"
    },
    {
      "inputs": [],
      "name": "ratioSecurityDepositOfTvl",
      "outputs": [
        {
          "internalType": "uint16",
          "name": "",
          "type": "uint16"
        }
      ],
      "stateMutability": "view",
      "type": "function"
    },
    {
      "inputs": [
        {
          "internalType": "address",
          "name": "account",
          "type": "address"
        }
      ],
      "name": "removeAdmin",
      "outputs": [],
      "stateMutability": "nonpayable",
      "type": "function"
    },
    {
      "inputs": [
        {
          "internalType": "bytes32",
          "name": "role",
          "type": "bytes32"
        },
        {
          "internalType": "address",
          "name": "account",
          "type": "address"
        }
      ],
      "name": "renounceRole",
      "outputs": [],
      "stateMutability": "nonpayable",
      "type": "function"
    },
    {
      "inputs": [
        {
          "internalType": "bytes32",
          "name": "role",
          "type": "bytes32"
        },
        {
          "internalType": "address",
          "name": "account",
          "type": "address"
        }
      ],
      "name": "revokeRole",
      "outputs": [],
      "stateMutability": "nonpayable",
      "type": "function"
    },
    {
      "inputs": [],
      "name": "seigManagerV2",
      "outputs": [
        {
          "internalType": "address",
          "name": "",
          "type": "address"
        }
      ],
      "stateMutability": "view",
      "type": "function"
    },
    {
      "inputs": [
        {
          "internalType": "bytes4",
          "name": "",
          "type": "bytes4"
        }
      ],
      "name": "selectorImplementation",
      "outputs": [
        {
          "internalType": "address",
          "name": "",
          "type": "address"
        }
      ],
      "stateMutability": "view",
      "type": "function"
    },
    {
      "inputs": [
        {
          "internalType": "uint256",
          "name": "_delayBlocksForWithdraw",
          "type": "uint256"
        }
      ],
      "name": "setDelayBlocksForWithdraw",
      "outputs": [],
      "stateMutability": "nonpayable",
      "type": "function"
    },
    {
      "inputs": [
        {
          "internalType": "uint256",
          "name": "_maxLayer2Count",
          "type": "uint256"
        }
      ],
      "name": "setMaxLayer2Count",
      "outputs": [],
      "stateMutability": "nonpayable",
      "type": "function"
    },
    {
      "inputs": [
        {
          "internalType": "uint256",
          "name": "_minimumDepositForCandidate",
          "type": "uint256"
        }
      ],
      "name": "setMinimumDepositForCandidate",
      "outputs": [],
      "stateMutability": "nonpayable",
      "type": "function"
    },
    {
      "inputs": [
        {
          "internalType": "uint256",
          "name": "_minimumDepositForL2Operator",
          "type": "uint256"
        }
      ],
      "name": "setMinimumDepositForL2Operator",
      "outputs": [],
      "stateMutability": "nonpayable",
      "type": "function"
    },
    {
      "inputs": [
        {
          "internalType": "uint16",
          "name": "_ratioSecurityDepositOfTvl",
          "type": "uint16"
        }
      ],
      "name": "setRatioSecurityDepositOfTvl",
      "outputs": [],
      "stateMutability": "nonpayable",
      "type": "function"
    },
    {
      "inputs": [
        {
          "internalType": "bytes4",
          "name": "interfaceId",
          "type": "bytes4"
        }
      ],
      "name": "supportsInterface",
      "outputs": [
        {
          "internalType": "bool",
          "name": "",
          "type": "bool"
        }
      ],
      "stateMutability": "view",
      "type": "function"
    },
    {
      "inputs": [],
      "name": "ton",
      "outputs": [
        {
          "internalType": "contract IERC20",
          "name": "",
          "type": "address"
        }
      ],
      "stateMutability": "view",
      "type": "function"
    },
    {
      "inputs": [],
      "name": "totalCandidates",
      "outputs": [
        {
          "internalType": "uint256",
          "name": "total",
          "type": "uint256"
        }
      ],
      "stateMutability": "view",
      "type": "function"
    },
    {
      "inputs": [],
      "name": "totalLayers",
      "outputs": [
        {
          "internalType": "uint256",
          "name": "total",
          "type": "uint256"
        }
      ],
      "stateMutability": "view",
      "type": "function"
    },
    {
      "inputs": [],
      "name": "totalSecurityDeposit",
      "outputs": [
        {
          "internalType": "uint256",
          "name": "",
          "type": "uint256"
        }
      ],
      "stateMutability": "view",
      "type": "function"
    },
    {
      "inputs": [],
      "name": "totalSeigs",
      "outputs": [
        {
          "internalType": "uint256",
          "name": "",
          "type": "uint256"
        }
      ],
      "stateMutability": "view",
      "type": "function"
    },
    {
      "inputs": [
        {
          "internalType": "address",
          "name": "newAdmin",
          "type": "address"
        }
      ],
      "name": "transferAdmin",
      "outputs": [],
      "stateMutability": "nonpayable",
      "type": "function"
    }
  ],
  "bytecode": "0x60806040526015805460ff60501b19166a010000000000000000000017905534801561002a57600080fd5b506140d88061003a6000396000f3fe608060405234801561001057600080fd5b50600436106103af5760003560e01c80636e1ef23a116101f4578063afbd38421161011a578063d639ff83116100ad578063e4fc6b6d1161007c578063e4fc6b6d1461091f578063ec558b1614610927578063f2a7d7121461093a578063fee539b71461094d57600080fd5b8063d639ff83146108ce578063e0ef2a7f146108e1578063e12a621914610904578063e257569f1461090c57600080fd5b8063cc48b947116100e9578063cc48b9471461087f578063d37c6d6914610892578063d48ddf041461089b578063d547741f146108bb57600080fd5b8063afbd384214610812578063b911135f14610825578063c14241b91461084e578063caef64e61461087657600080fd5b806391d1485411610192578063a4dd8b7d11610161578063a4dd8b7d14610784578063a73ddaab1461078d578063ab8930a5146107a0578063ae9046ca146107ff57600080fd5b806391d1485414610712578063963807a8146107495780639e7ea8421461075c578063a217fddf1461077c57600080fd5b806375829def116101ce57806375829def146106bd57806375b238fc146106d0578063763936c7146106f75780638cc193a51461070a57600080fd5b80636e1ef23a14610684578063704802751461069757806373469a7a146106aa57600080fd5b80633866965c116102d957806357bc1df01161027757806363e6f0d81161024657806363e6f0d81461064657806366f0d6af1461064e5780636b48235f1461065e5780636c8381f81461067157600080fd5b806357bc1df0146106055780635b1f335f1461061d5780635d170f8f1461062657806363a8fd891461063957600080fd5b8063499ad9da116102b3578063499ad9da146105855780634c76e6c81461058e57806350d2a276146105a1578063550d01a3146105e257600080fd5b80633866965c146105425780633bd0c19f1461054a5780633e61f2d91461057257600080fd5b80631a4f1eb91161035157806324d7806c1161032057806324d7806c146104f25780632e6997fe146105055780632f2ff15d1461051c57806336568abe1461052f57600080fd5b80631a4f1eb9146104825780631c2833211461049557806322985246146104a8578063248a9ca3146104cf57600080fd5b8063049518911161038d578063049518911461042f578063091e3be3146104445780631785f53c1461045757806319a93b881461046a57600080fd5b806301ffc9a7146103b457806303b90d1a146103dc57806304196138146103f3575b600080fd5b6103c76103c2366004613946565b610960565b60405190151581526020015b60405180910390f35b6103e560095481565b6040519081526020016103d3565b61041a610401366004613984565b6012602052600090815260409020805460019091015482565b604080519283526020830191909152016103d3565b61044261043d366004613984565b610997565b005b6104426104523660046139b1565b610b3f565b6104426104653660046139e1565b610bfc565b610472610c77565b6040516103d39493929190613b14565b610442610490366004613ba7565b610fef565b6103c76104a3366004613ba7565b61107c565b6103e57ffb5864e8ff833c3cb2d2d08505e82ff02a43554c74a35d4f5a64e8526127831181565b6103e56104dd366004613ba7565b60009081526020819052604090206001015490565b6103c76105003660046139e1565b6110ff565b61050d61113f565b6040516103d393929190613bc0565b61044261052a366004613c03565b6113bf565b61044261053d366004613c03565b6113e9565b6014546103e5565b61055d610558366004613ba7565b611475565b60405163ffffffff90911681526020016103d3565b61055d610580366004613c33565b6114af565b6103e5600e5481565b6103e561059c366004613ca3565b611c61565b6105ca6105af366004613946565b6004602052600090815260409020546001600160a01b031681565b6040516001600160a01b0390911681526020016103d3565b6103c76105f03660046139e1565b60036020526000908152604090205460ff1681565b60155461055d90640100000000900463ffffffff1681565b6103e5600d5481565b6103c7610634366004613984565b611d31565b6001546103c79060ff1681565b600f546103e5565b60155461055d9063ffffffff1681565b61044261066c366004613cd1565b611d58565b6008546105ca906001600160a01b031681565b6103c7610692366004613984565b611f22565b6104426106a53660046139e1565b611f40565b6006546105ca906001600160a01b031681565b6104426106cb3660046139e1565b611fb8565b6103e57fdf8b4c520ffe197c5343c6f5aec59570151ef9a492f2c624fd45ddde6135ec4281565b6105ca610705366004613984565b612108565b6103e5612190565b6103c7610720366004613c03565b6000918252602082815260408084206001600160a01b0393909316845291905290205460ff1690565b61055d610757366004613cfb565b612270565b6103e561076a366004613984565b60106020526000908152604090205481565b6103e5600081565b6103e5600a5481565b61044261079b366004613ba7565b61285d565b6107f26107ae366004613984565b60408051808201909152600080825260208201525063ffffffff16600090815260126020908152604091829020825180840190935280548352600101549082015290565b6040516103d39190613d3f565b6103e561080d366004613984565b612921565b610442610820366004613ba7565b6129c9565b6105ca610833366004613ba7565b6002602052600090815260409020546001600160a01b031681565b60155461086390600160401b900461ffff1681565b60405161ffff90911681526020016103d3565b6103e5600b5481565b6005546105ca906001600160a01b031681565b6103e5600c5481565b6103e56108a9366004613984565b60116020526000908152604090205481565b6104426108c9366004613c03565b612a56565b6104426108dc366004613ba7565b612a7b565b6103c76108ef366004613ba7565b60136020526000908152604090205460ff1681565b6103e5612b08565b61055d61091a366004613ba7565b612b24565b610442612b34565b6007546105ca906001600160a01b031681565b610442610948366004613cd1565b612e4e565b6103e561095b3660046139e1565b6132ab565b60006001600160e01b03198216637965db0b60e01b148061099157506301ffc9a760e01b6001600160e01b03198316145b92915050565b63ffffffff811660009081526012602052604081206001015490819003610a055760405162461bcd60e51b815260206004820152601260248201527f6e6f20616d6f756e7420746f20636c61696d000000000000000000000000000060448201526064015b60405180910390fd5b6000610a1083612108565b90506001600160a01b038116610a685760405162461bcd60e51b815260206004820152600d60248201527f7a65726f206f70657261746f720000000000000000000000000000000000000060448201526064016109fc565b63ffffffff831660009081526012602052604080822060010191909155600654905163419e4dd360e01b81526001600160a01b038381166004830152602482018590529091169063419e4dd390604401600060405180830381600087803b158015610ad257600080fd5b505af1158015610ae6573d6000803e3d6000fd5b50506040805163ffffffff871681526001600160a01b03851660208201529081018590527fdc8b8058bd26d719cc330a54461930fd9c312dd28447313fd5dc4641513e00749250606001905060405180910390a1505050565b610b48336110ff565b610b8d5760405162461bcd60e51b815260206004820152602260248201526000805160206140ac83398151915260448201526134b760f11b60648201526084016109fc565b60155461ffff808316600160401b9092041603610bd55760405162461bcd60e51b81526004016109fc9060208082526004908201526373616d6560e01b604082015260600190565b6015805461ffff909216600160401b0269ffff000000000000000019909216919091179055565b610c05336110ff565b610c4a5760405162461bcd60e51b815260206004820152602260248201526000805160206140ac83398151915260448201526134b760f11b60648201526084016109fc565b610c747fdf8b4c520ffe197c5343c6f5aec59570151ef9a492f2c624fd45ddde6135ec42826113e9565b50565b600f546060908190819081908067ffffffffffffffff811115610c9c57610c9c613d56565b604051908082528060200260200182016040528015610cc5578160200160208202803683370190505b50600f805460408051602080840282018101909252828152939850830182828015610d3b57602002820191906000526020600020906000905b82829054906101000a900463ffffffff1663ffffffff1681526020019060040190602082600301049283019260010382029150808411610cfe5790505b505050505093508067ffffffffffffffff811115610d5b57610d5b613d56565b604051908082528060200260200182016040528015610da057816020015b6040805180820190915260008082526020820152815260200190600190039081610d795790505b5092508067ffffffffffffffff811115610dbc57610dbc613d56565b604051908082528060200260200182016040528015610def57816020015b6060815260200190600190039081610dda5790505b50915060005b81811015610fe75760106000600f8381548110610e1457610e14613d6c565b90600052602060002090600891828204019190066004029054906101000a900463ffffffff1663ffffffff1663ffffffff16815260200190815260200160002054868281518110610e6757610e67613d6c565b60200260200101818152505060126000600f8381548110610e8a57610e8a613d6c565b90600052602060002090600891828204019190066004029054906101000a900463ffffffff1663ffffffff1663ffffffff16815260200190815260200160002060405180604001604052908160008201548152602001600182015481525050848281518110610efb57610efb613d6c565b6020908102919091010152600754600f80546001600160a01b039092169163659ab820919084908110610f3057610f30613d6c565b6000918252602090912060088204015460405160e084901b6001600160e01b0319168152600790921660049081026101000a90910463ffffffff1690820152602401600060405180830381865afa158015610f8f573d6000803e3d6000fd5b505050506040513d6000823e601f3d908101601f19168201604052610fb79190810190613d82565b838281518110610fc957610fc9613d6c565b60200260200101819052508080610fdf90613e45565b915050610df5565b505090919293565b610ff8336110ff565b61103d5760405162461bcd60e51b815260206004820152602260248201526000805160206140ac83398151915260448201526134b760f11b60648201526084016109fc565b80600b54036110775760405162461bcd60e51b81526004016109fc9060208082526004908201526373616d6560e01b604082015260600190565b600b55565b6006546000906001600160a01b031633146110d95760405162461bcd60e51b815260206004820152601b60248201527f63616c6c6572206973206e6f7420536569674d616e616765725632000000000060448201526064016109fc565b81156110f75781600e60008282546110f19190613e5e565b90915550505b506001919050565b6001600160a01b03811660009081527f5cbfc8ee58ca47855df7bcf648dd304ddb6b932f9b87878bdf6318d7ec7ee5b7602052604081205460ff16610991565b601454606090819081908067ffffffffffffffff81111561116257611162613d56565b60405190808252806020026020018201604052801561118b578160200160208202803683370190505b50601480546040805160208084028201810190925282815293975083018282801561120157602002820191906000526020600020906000905b82829054906101000a900463ffffffff1663ffffffff16815260200190600401906020826003010492830192600103820291508084116111c45790505b505050505092508067ffffffffffffffff81111561122157611221613d56565b60405190808252806020026020018201604052801561125457816020015b606081526020019060019003908161123f5790505b50915060005b818110156113b857601160006014838154811061127957611279613d6c565b90600052602060002090600891828204019190066004029054906101000a900463ffffffff1663ffffffff1663ffffffff168152602001908152602001600020548582815181106112cc576112cc613d6c565b6020908102919091010152600854601480546001600160a01b039092169163659ab82091908490811061130157611301613d6c565b6000918252602090912060088204015460405160e084901b6001600160e01b0319168152600790921660049081026101000a90910463ffffffff1690820152602401600060405180830381865afa158015611360573d6000803e3d6000fd5b505050506040513d6000823e601f3d908101601f191682016040526113889190810190613d82565b83828151811061139a5761139a613d6c565b602002602001018190525080806113b090613e45565b91505061125a565b5050909192565b6000828152602081905260409020600101546113da8161339c565b6113e483836133a6565b505050565b6001600160a01b03811633146114675760405162461bcd60e51b815260206004820152602f60248201527f416363657373436f6e74726f6c3a2063616e206f6e6c792072656e6f756e636560448201527f20726f6c657320666f722073656c66000000000000000000000000000000000060648201526084016109fc565b6114718282613444565b5050565b6014818154811061148557600080fd5b9060005260206000209060089182820401919006600402915054906101000a900463ffffffff1681565b601554600090600160501b900460ff166114f45760405162461bcd60e51b81526004016109fc906020808252600490820152636c6f636b60e01b604082015260600190565b6015805460ff60501b1916815560405163bf40fac160e01b81526020600482015260248101919091527f4f564d5f544f4e5374616b696e674d616e61676572000000000000000000000060448201526001600160a01b0387169063bf40fac190606401602060405180830381865afa158015611574573d6000803e3d6000fd5b505050506040513d601f19601f820116820180604052508101906115989190613e71565b6001600160a01b0316336001600160a01b0316146115f85760405162461bcd60e51b815260206004820152601960248201527f4e4f54204f564d5f544f4e5374616b696e674d616e616765720000000000000060448201526064016109fc565b600554604051636eb1769f60e11b81523360048201523060248201526001600160a01b039091169063dd62ed3e90604401602060405180830381865afa158015611646573d6000803e3d6000fd5b505050506040513d601f19601f8201168201806040525081019061166a9190613e8e565b8210156116df5760405162461bcd60e51b815260206004820152603360248201527f616c6c6f77616e636520616c6c6f77616e636520697320696e7375666669636960448201527f656e7420697320696e73756666696369656e740000000000000000000000000060648201526084016109fc565b600c5460155463ffffffff16106117385760405162461bcd60e51b815260206004820152601760248201527f6578636565646564206d61784c6179657232436f756e7400000000000000000060448201526064016109fc565b6001600160a01b0386161580159061175857506001600160a01b03831615155b6117a45760405162461bcd60e51b815260206004820152600c60248201527f7a65726f2061646472657373000000000000000000000000000000000000000060448201526064016109fc565b60405163cd13ec8760e01b81526001600160a01b038088166004830152808716602483015280861660448301528416606482015260009073__$35081dc60fc26376aafbbba403b8b17c43$__9063cd13ec8790608401602060405180830381865af4158015611817573d6000803e3d6000fd5b505050506040513d601f19601f8201168201806040525081019061183b9190613e8e565b60008181526013602052604090205490915060ff161561188f5760405162461bcd60e51b815260206004820152600f60248201526e185b1c9958591e4818dc99585d1959608a1b60448201526064016109fc565b60075460405163516e4f0160e11b81526001600160a01b038981166004830152600092169063a2dc9e0290602401602060405180830381865afa1580156118da573d6000803e3d6000fd5b505050506040513d601f19601f820116820180604052508101906118fe9190613e71565b9050806001600160a01b0316876001600160a01b0316146119615760405162461bcd60e51b815260206004820152601260248201527f646966666572656e74206c31427269646765000000000000000000000000000060448201526064016109fc565b61196b8786611c61565b8410156119ba5760405162461bcd60e51b815260206004820152601f60248201527f7365637572697479206465706f73697420697320696e737566666963656e740060448201526064016109fc565b6000828152601360205260408120805460ff191660011790556015805482906119e89063ffffffff16613ea7565b91906101000a81548163ffffffff021916908363ffffffff1602179055905084600d6000828254611a199190613e5e565b9091555050600f805460018101909155600881047f8d1108e10bcb7c27dddfc02ed9d693a074039d026cf4ea4240b40f7d581ac80201805463ffffffff80851660046007958616026101000a81810292021990921617909155600090815260126020908152604080832089815560108352928190208e90559254925191926001600160a01b03169163df2b4290918591611af1918f918f918f918f9101606094851b6bffffffffffffffffffffffff19908116825293851b8416601482015291841b8316602883015290921b16603c82015260500190565b6040516020818303038152906040526040518363ffffffff1660e01b8152600401611b1d929190613eca565b6020604051808303816000875af1158015611b3c573d6000803e3d6000fd5b505050506040513d601f19601f82011682018060405250810190611b609190613ef1565b611bac5760405162461bcd60e51b815260206004820152601d60248201527f4661696c206372656174654f7074696d69736d4c324f70657261746f7200000060448201526064016109fc565b8515611bca57600554611bca906001600160a01b03163330896134c3565b6040805163ffffffff841681523360208201529081018c90526001600160a01b03808c166060830152808b166080830152808a1660a0830152881660c082015260e081018790527fd6e4a4afb937ac3b67c70e6dbe95dc0e72e13d118f5a684e94f89471ae09898e906101000160405180910390a150925050506015805460ff60501b1916600160501b1790559695505050505050565b601554600090600160401b900461ffff168103611c815750600954610991565b60155460075460405163edcc217760e01b81526001600160a01b0386811660048301528581166024830152611d2a9361271093600160401b90910461ffff169291169063edcc217790604401602060405180830381865afa158015611cea573d6000803e3d6000fd5b505050506040513d601f19601f82011682018060405250810190611d0e9190613e8e565b611d189190613f13565b611d229190613f2a565b6009546135e7565b9392505050565b60155460009063ffffffff640100000000909104811690831611611d53575060015b919050565b601554600160501b900460ff16611d9a5760405162461bcd60e51b81526004016109fc906020808252600490820152636c6f636b60e01b604082015260600190565b6015805460ff60501b191690558163ffffffff8116600003611de35760405162461bcd60e51b81526020600482015260026024820152615a3160f01b60448201526064016109fc565b8180600003611e195760405162461bcd60e51b81526020600482015260026024820152615a3160f01b60448201526064016109fc565b60155463ffffffff9081169085161115611e635760405162461bcd60e51b815260206004820152600b60248201526a0eee4dedcce40d2dcc8caf60ab1b60448201526064016109fc565b600554611e7b906001600160a01b03163330866134c3565b63ffffffff84166000908152601260205260408120805490918591839190611ea4908490613e5e565b9250508190555083600d6000828254611ebd9190613e5e565b90915550506040805163ffffffff871681523360208201529081018590527f75d95e3e2cd0899a7e9451555815404d25586e691502bc69417edacc489173a69060600160405180910390a150506015805460ff60501b1916600160501b179055505050565b60155460009063ffffffff90811690831611611d5357506001919050565b611f49336110ff565b611f8e5760405162461bcd60e51b815260206004820152602260248201526000805160206140ac83398151915260448201526134b760f11b60648201526084016109fc565b610c747fdf8b4c520ffe197c5343c6f5aec59570151ef9a492f2c624fd45ddde6135ec42826113bf565b611fc1336110ff565b6120065760405162461bcd60e51b815260206004820152602260248201526000805160206140ac83398151915260448201526134b760f11b60648201526084016109fc565b6001600160a01b03811661205c5760405162461bcd60e51b815260206004820152601860248201527f41636365737369626c653a207a65726f2061646472657373000000000000000060448201526064016109fc565b6001600160a01b03811633036120b45760405162461bcd60e51b815260206004820152601660248201527f41636365737369626c653a2073616d652061646d696e0000000000000000000060448201526064016109fc565b6120de7fdf8b4c520ffe197c5343c6f5aec59570151ef9a492f2c624fd45ddde6135ec42826113bf565b610c747fdf8b4c520ffe197c5343c6f5aec59570151ef9a492f2c624fd45ddde6135ec42336113e9565b60155460009063ffffffff90811690831611611d535760075460405163763936c760e01b815263ffffffff841660048201526001600160a01b039091169063763936c790602401602060405180830381865afa15801561216c573d6000803e3d6000fd5b505050506040513d601f19601f820116820180604052508101906109919190613e71565b600f54600090815b8181101561226b57600754600f80546001600160a01b03909216916341e5dbe89190849081106121ca576121ca613d6c565b6000918252602090912060088204015460405160e084901b6001600160e01b0319168152600790921660049081026101000a90910463ffffffff1690820152602401602060405180830381865afa158015612229573d6000803e3d6000fd5b505050506040513d601f19601f8201168201806040525081019061224d9190613e8e565b6122579084613e5e565b92508061226381613e45565b915050612198565b505090565b6000848063ffffffff166000036122ae5760405162461bcd60e51b81526020600482015260026024820152615a3160f01b60448201526064016109fc565b601554600160501b900460ff166122f05760405162461bcd60e51b81526004016109fc906020808252600490820152636c6f636b60e01b604082015260600190565b6015805460ff60501b19811690915563ffffffff90811690871611156123465760405162461bcd60e51b815260206004820152600b60248201526a0eee4dedcce40d2dcc8caf60ab1b60448201526064016109fc565b604051633be35f5f60e21b815233600482015263ffffffff8716602482015260009073__$d436d56fec194dfaaabaf06742f0275c03$__9063ef8d7d7c90604401602060405180830381865af41580156123a4573d6000803e3d6000fd5b505050506040513d601f19601f820116820180604052508101906123c89190613e8e565b60008181526013602052604090205490915060ff161561241c5760405162461bcd60e51b815260206004820152600f60248201526e185b1c9958591e4818dc99585d1959608a1b60448201526064016109fc565b600a5484101561246e5760405162461bcd60e51b815260206004820152601f60248201527f7365637572697479206465706f73697420697320696e737566666963656e740060448201526064016109fc565b6000818152601360205260408120805460ff19166001179055601580546004906124a69063ffffffff64010000000090910416613ea7565b825461010092830a63ffffffff818102199092168383169182021790945560148054600181019091557fce6d7b5282bd9a3661ae061feed1dbda4e52ab073b1f9285be6e155d9c38d4ec60088204018054600790921660040290940a9182021916908402179091556000918252601160205260409091208890559050841561254057600554612540906001600160a01b03163330886134c3565b600554600854604051636eb1769f60e11b81523060048201526001600160a01b0391821660248201528792919091169063dd62ed3e90604401602060405180830381865afa158015612596573d6000803e3d6000fd5b505050506040513d601f19601f820116820180604052508101906125ba9190613e8e565b10156126ac57600554600854604080516318160ddd60e01b815290516001600160a01b039384169363095ea7b393169184916318160ddd916004808201926020929091908290030181865afa158015612617573d6000803e3d6000fd5b505050506040513d601f19601f8201168201806040525081019061263b9190613e8e565b6040516001600160e01b031960e085901b1681526001600160a01b03909216600483015260248201526044016020604051808303816000875af1158015612686573d6000803e3d6000fd5b505050506040513d601f19601f820116820180604052508101906126aa9190613ef1565b505b600854604080513360601b6bffffffffffffffffffffffff1916602082015260e08b901b6001600160e01b031916603482015260f089901b7fffff000000000000000000000000000000000000000000000000000000000000166038820152603a80820189905282518083039091018152605a820192839052630df2b42960e41b9092526001600160a01b039092169163df2b42909161275191859190605e01613eca565b6020604051808303816000875af1158015612770573d6000803e3d6000fd5b505050506040513d601f19601f820116820180604052508101906127949190613ef1565b6127e05760405162461bcd60e51b815260206004820152601460248201527f4661696c2063726561746543616e64696461746500000000000000000000000060448201526064016109fc565b6040805163ffffffff83811682523360208301528183018a90528a16606082015261ffff8816608082015260a0810187905290517f342dd5ffb5ac74e51a17692939edd209c3e7b77cba98cdc874b1563f60ad0b889181900360c00190a1925050506015805460ff60501b1916600160501b179055949350505050565b80806000036128935760405162461bcd60e51b81526020600482015260026024820152615a3160f01b60448201526064016109fc565b61289c336110ff565b6128e15760405162461bcd60e51b815260206004820152602260248201526000805160206140ac83398151915260448201526134b760f11b60648201526084016109fc565b81600c540361291b5760405162461bcd60e51b81526004016109fc9060208082526004908201526373616d6560e01b604082015260600190565b50600c55565b60075460405163083cbb7d60e31b815263ffffffff831660048201526000916001600160a01b0316906341e5dbe890602401602060405180830381865afa92505050801561298c575060408051601f3d908101601f1916820190925261298991810190613e8e565b60015b610991573d8080156129ba576040519150601f19603f3d011682016040523d82523d6000602084013e6129bf565b606091505b5060009392505050565b6129d2336110ff565b612a175760405162461bcd60e51b815260206004820152602260248201526000805160206140ac83398151915260448201526134b760f11b60648201526084016109fc565b8060095403612a515760405162461bcd60e51b81526004016109fc9060208082526004908201526373616d6560e01b604082015260600190565b600955565b600082815260208190526040902060010154612a718161339c565b6113e48383613444565b612a84336110ff565b612ac95760405162461bcd60e51b815260206004820152602260248201526000805160206140ac83398151915260448201526134b760f11b60648201526084016109fc565b80600a5403612b035760405162461bcd60e51b81526004016109fc9060208082526004908201526373616d6560e01b604082015260600190565b600a55565b6000600d54612b15612190565b612b1f9190613e5e565b905090565b600f818154811061148557600080fd5b600e54600003612b865760405162461bcd60e51b815260206004820152601760248201527f6e6f2064697374726962757461626c6520616d6f756e7400000000000000000060448201526064016109fc565b600f546000808267ffffffffffffffff811115612ba557612ba5613d56565b604051908082528060200260200182016040528015612bce578160200160208202803683370190505b50905060005b83811015612ceb576000600f8281548110612bf157612bf1613d6c565b6000918252602080832060088304015460079092166004026101000a90910463ffffffff1680835260128252604092839020835180850190945280548085526001909101549284019290925260095490935011612cb457612c5182612921565b8151612c5d9190613e5e565b848481518110612c6f57612c6f613d6c565b60200260200101818151612c839190613e5e565b9052508351849084908110612c9a57612c9a613d6c565b602002602001015185612cad9190613e5e565b9450612cd6565b612cbd82612921565b8151612cc99190613e5e565b612cd39086613e5e565b94505b50508080612ce390613e45565b915050612bd4565b5060008215612e0c5760005b84811015612ded576000838281518110612d1357612d13613d6c565b60200260200101511115612ddb57600084848381518110612d3657612d36613d6c565b6020026020010151600e54612d4b9190613f13565b612d559190613f2a565b9050600060126000600f8581548110612d7057612d70613d6c565b90600052602060002090600891828204019190066004029054906101000a900463ffffffff1663ffffffff1663ffffffff168152602001908152602001600020905081816001016000828254612dc69190613e5e565b90915550612dd690508285613e5e565b935050505b80612de581613e45565b915050612cf7565b508015612e0c5780600e6000828254612e069190613f4c565b90915550505b600e5460408051918252602082018390527f97791d3ac1343e05805a2f905fa80b249c2ca58cf9fef455d4fa7ec13ce58321910160405180910390a150505050565b601554600160501b900460ff16612e905760405162461bcd60e51b81526004016109fc906020808252600490820152636c6f636b60e01b604082015260600190565b6015805460ff60501b191690558163ffffffff8116600003612ed95760405162461bcd60e51b81526020600482015260026024820152615a3160f01b60448201526064016109fc565b8180600003612f0f5760405162461bcd60e51b81526020600482015260026024820152615a3160f01b60448201526064016109fc565b60155463ffffffff9081169085161115612f595760405162461bcd60e51b815260206004820152600b60248201526a0eee4dedcce40d2dcc8caf60ab1b60448201526064016109fc565b600754604051638c6f1b3960e01b815263ffffffff861660048201526000916001600160a01b031690638c6f1b3990602401608060405180830381865afa158015612fa8573d6000803e3d6000fd5b505050506040513d601f19601f82011682018060405250810190612fcc9190613f5f565b6007548151604051639a30739160e01b81526001600160a01b039182166004820152929350600092911690639a30739190602401602060405180830381865afa15801561301d573d6000803e3d6000fd5b505050506040513d601f19601f820116820180604052508101906130419190613e71565b90506001600160a01b0381161580159061306357506001600160a01b03811633145b6130af5760405162461bcd60e51b815260206004820152601f60248201527f6f70657261746f72206973207a65726f206f72206e6f742063616c6c65722e0060448201526064016109fc565b600754825160405163516e4f0160e11b81526001600160a01b039182166004820152600092919091169063a2dc9e0290602401602060405180830381865afa1580156130ff573d6000803e3d6000fd5b505050506040513d601f19601f820116820180604052508101906131239190613e71565b90506001600160a01b03811661317b5760405162461bcd60e51b815260206004820152600d60248201527f7a65726f206c314272696467650000000000000000000000000000000000000060448201526064016109fc565b600061318b828560600151611c61565b63ffffffff891660009081526012602052604090208054919250906131b0838a613e5e565b11156131fe5760405162461bcd60e51b815260206004820152601460248201527f696e73756666696369656e74206465706f73697400000000000000000000000060448201526064016109fc565b878160000160008282546132129190613f4c565b9250508190555087600d600082825461322b9190613f4c565b9091555050600554613247906001600160a01b0316338a6135fd565b6040805163ffffffff8b1681523360208201529081018990527f15842789f01ee00184461198846223c315588d35fc8202916432ef78775d62c09060600160405180910390a150506015805460ff60501b1916600160501b17905550505050505050565b600f54600090815b8181101561339557600754600f80546001600160a01b0390921691635f1b989e9190849081106132e5576132e5613d6c565b6000918252602090912060088204015460405160e084901b6001600160e01b0319168152600790921660049081026101000a90910463ffffffff16908201526001600160a01b0387166024820152604401602060405180830381865afa158015613353573d6000803e3d6000fd5b505050506040513d601f19601f820116820180604052508101906133779190613e8e565b6133819084613e5e565b92508061338d81613e45565b9150506132b3565b5050919050565b610c748133613718565b6000828152602081815260408083206001600160a01b038516845290915290205460ff16611471576000828152602081815260408083206001600160a01b03851684529091529020805460ff191660011790556134003390565b6001600160a01b0316816001600160a01b0316837f2f8788117e7eff1d82e926ec794901d17c78024a50270940304540a733656f0d60405160405180910390a45050565b6000828152602081815260408083206001600160a01b038516845290915290205460ff1615611471576000828152602081815260408083206001600160a01b0385168085529252808320805460ff1916905551339285917ff6391f5c32d9c69d2a47ea670b442974b53935d1edc7fd64eb21e047a839171b9190a45050565b604080516001600160a01b0385811660248301528481166044830152606480830185905283518084039091018152608490920183526020820180516001600160e01b03166323b872dd60e01b17905291516000928392908816916135279190613fe4565b6000604051808303816000865af19150503d8060008114613564576040519150601f19603f3d011682016040523d82523d6000602084013e613569565b606091505b50915091508180156135935750805115806135935750808060200190518101906135939190613ef1565b6135df5760405162461bcd60e51b815260206004820152601460248201527f5452414e534645525f46524f4d5f4641494c454400000000000000000000000060448201526064016109fc565b505050505050565b60008183116135f65781611d2a565b5090919050565b604080516001600160a01b038481166024830152604480830185905283518084039091018152606490920183526020820180516001600160e01b031663a9059cbb60e01b17905291516000928392908716916136599190613fe4565b6000604051808303816000865af19150503d8060008114613696576040519150601f19603f3d011682016040523d82523d6000602084013e61369b565b606091505b50915091508180156136c55750805115806136c55750808060200190518101906136c59190613ef1565b6137115760405162461bcd60e51b815260206004820152600f60248201527f5452414e534645525f4641494c4544000000000000000000000000000000000060448201526064016109fc565b5050505050565b6000828152602081815260408083206001600160a01b038516845290915290205460ff16611471576137498161378b565b61375483602061379d565b604051602001613765929190614000565b60408051601f198184030181529082905262461bcd60e51b82526109fc91600401614081565b60606109916001600160a01b03831660145b606060006137ac836002613f13565b6137b7906002613e5e565b67ffffffffffffffff8111156137cf576137cf613d56565b6040519080825280601f01601f1916602001820160405280156137f9576020820181803683370190505b509050600360fc1b8160008151811061381457613814613d6c565b60200101906001600160f81b031916908160001a905350600f60fb1b8160018151811061384357613843613d6c565b60200101906001600160f81b031916908160001a9053506000613867846002613f13565b613872906001613e5e565b90505b60018111156138f7577f303132333435363738396162636465660000000000000000000000000000000085600f16601081106138b3576138b3613d6c565b1a60f81b8282815181106138c9576138c9613d6c565b60200101906001600160f81b031916908160001a90535060049490941c936138f081614094565b9050613875565b508315611d2a5760405162461bcd60e51b815260206004820181905260248201527f537472696e67733a20686578206c656e67746820696e73756666696369656e7460448201526064016109fc565b60006020828403121561395857600080fd5b81356001600160e01b031981168114611d2a57600080fd5b803563ffffffff81168114611d5357600080fd5b60006020828403121561399657600080fd5b611d2a82613970565b803561ffff81168114611d5357600080fd5b6000602082840312156139c357600080fd5b611d2a8261399f565b6001600160a01b0381168114610c7457600080fd5b6000602082840312156139f357600080fd5b8135611d2a816139cc565b600081518084526020808501945080840160005b83811015613a2e57815187529582019590820190600101613a12565b509495945050505050565b600081518084526020808501945080840160005b83811015613a2e57815163ffffffff1687529582019590820190600101613a4d565b60005b83811015613a8a578181015183820152602001613a72565b50506000910152565b60008151808452613aab816020860160208601613a6f565b601f01601f19169290920160200192915050565b600081518084526020808501808196508360051b8101915082860160005b85811015613b07578284038952613af5848351613a93565b98850198935090840190600101613add565b5091979650505050505050565b608081526000613b2760808301876139fe565b602083820381850152613b3a8288613a39565b91506040848303818601528287518085528385019150838901945060005b81811015613b8557613b7583875180518252602090810151910152565b9484019491830191600101613b58565b50508581036060870152613b998188613abf565b9a9950505050505050505050565b600060208284031215613bb957600080fd5b5035919050565b606081526000613bd360608301866139fe565b8281036020840152613be58186613a39565b90508281036040840152613bf98185613abf565b9695505050505050565b60008060408385031215613c1657600080fd5b823591506020830135613c28816139cc565b809150509250929050565b60008060008060008060c08789031215613c4c57600080fd5b863595506020870135613c5e816139cc565b94506040870135613c6e816139cc565b93506060870135613c7e816139cc565b92506080870135613c8e816139cc565b8092505060a087013590509295509295509295565b60008060408385031215613cb657600080fd5b8235613cc1816139cc565b91506020830135613c28816139cc565b60008060408385031215613ce457600080fd5b613ced83613970565b946020939093013593505050565b60008060008060808587031215613d1157600080fd5b613d1a85613970565b935060208501359250613d2f6040860161399f565b9396929550929360600135925050565b815181526020808301519082015260408101610991565b634e487b7160e01b600052604160045260246000fd5b634e487b7160e01b600052603260045260246000fd5b600060208284031215613d9457600080fd5b815167ffffffffffffffff80821115613dac57600080fd5b818401915084601f830112613dc057600080fd5b815181811115613dd257613dd2613d56565b604051601f8201601f19908116603f01168101908382118183101715613dfa57613dfa613d56565b81604052828152876020848701011115613e1357600080fd5b613e24836020830160208801613a6f565b979650505050505050565b634e487b7160e01b600052601160045260246000fd5b600060018201613e5757613e57613e2f565b5060010190565b8082018082111561099157610991613e2f565b600060208284031215613e8357600080fd5b8151611d2a816139cc565b600060208284031215613ea057600080fd5b5051919050565b600063ffffffff808316818103613ec057613ec0613e2f565b6001019392505050565b63ffffffff83168152604060208201526000613ee96040830184613a93565b949350505050565b600060208284031215613f0357600080fd5b81518015158114611d2a57600080fd5b808202811582820484141761099157610991613e2f565b600082613f4757634e487b7160e01b600052601260045260246000fd5b500490565b8181038181111561099157610991613e2f565b600060808284031215613f7157600080fd5b6040516080810181811067ffffffffffffffff82111715613f9457613f94613d56565b6040528251613fa2816139cc565b81526020830151613fb2816139cc565b60208201526040830151613fc5816139cc565b60408201526060830151613fd8816139cc565b60608201529392505050565b60008251613ff6818460208701613a6f565b9190910192915050565b7f416363657373436f6e74726f6c3a206163636f756e7420000000000000000000815260008351614038816017850160208801613a6f565b7f206973206d697373696e6720726f6c65200000000000000000000000000000006017918401918201528351614075816028840160208801613a6f565b01602801949350505050565b602081526000611d2a6020830184613a93565b6000816140a3576140a3613e2f565b50600019019056fe41636365737369626c653a2043616c6c6572206973206e6f7420616e2061646da164736f6c6343000812000a",
  "linkReferences": {
    "contracts/libraries/LibOperator.sol": {
      "LibOperator": [
        {
          "length": 20,
          "start": 9124
        }
      ]
    },
    "contracts/libraries/LibOptimism.sol": {
      "LibOptimism": [
        {
          "length": 20,
          "start": 6167
        }
      ]
    }
  },
  "deployedLinkReferences": {
    "contracts/libraries/LibOperator.sol": {
      "LibOperator": [
        {
          "length": 20,
          "start": 9066
        }
      ]
    },
    "contracts/libraries/LibOptimism.sol": {
      "LibOptimism": [
        {
          "length": 20,
          "start": 6109
        }
      ]
    }
  }
}