{
  "_format": "hh-sol-artifact-1",
  "contractName": "Layer2Manager",
  "sourceName": "contracts/Layer2Manager.sol",
  "abi": [
    {
      "inputs": [],
      "stateMutability": "nonpayable",
      "type": "constructor"
    },
    {
      "anonymous": false,
      "inputs": [
        {
          "indexed": false,
          "internalType": "uint32",
          "name": "_index",
          "type": "uint32"
        },
        {
          "indexed": false,
          "internalType": "address",
          "name": "_sequencer",
          "type": "address"
        },
        {
          "indexed": false,
          "internalType": "uint256",
          "name": "amount",
          "type": "uint256"
        }
      ],
      "name": "Claimed",
      "type": "event"
    },
    {
      "anonymous": false,
      "inputs": [
        {
          "indexed": false,
          "internalType": "uint32",
          "name": "_index",
          "type": "uint32"
        },
        {
          "indexed": false,
          "internalType": "address",
          "name": "_operator",
          "type": "address"
        },
        {
          "indexed": false,
          "internalType": "bytes32",
          "name": "_name",
          "type": "bytes32"
        },
        {
          "indexed": false,
          "internalType": "uint32",
          "name": "_sequencerIndex",
          "type": "uint32"
        },
        {
          "indexed": false,
          "internalType": "uint16",
          "name": "_commission",
          "type": "uint16"
        },
        {
          "indexed": false,
          "internalType": "uint256",
          "name": "depositAmount",
          "type": "uint256"
        }
      ],
      "name": "CreatedCandidate",
      "type": "event"
    },
    {
      "anonymous": false,
      "inputs": [
        {
          "indexed": false,
          "internalType": "uint32",
          "name": "_index",
          "type": "uint32"
        },
        {
          "indexed": false,
          "internalType": "address",
          "name": "_sequencer",
          "type": "address"
        },
        {
          "indexed": false,
          "internalType": "bytes32",
          "name": "_name",
          "type": "bytes32"
        },
        {
          "indexed": false,
          "internalType": "address",
          "name": "addressManager",
          "type": "address"
        },
        {
          "indexed": false,
          "internalType": "address",
          "name": "l1Bridge",
          "type": "address"
        },
        {
          "indexed": false,
          "internalType": "address",
          "name": "l2Bridge",
          "type": "address"
        },
        {
          "indexed": false,
          "internalType": "address",
          "name": "l2wton",
          "type": "address"
        },
        {
          "indexed": false,
          "internalType": "uint256",
          "name": "depositAmount",
          "type": "uint256"
        }
      ],
      "name": "CreatedOptimismSequencer",
      "type": "event"
    },
    {
      "anonymous": false,
      "inputs": [
        {
          "indexed": false,
          "internalType": "uint32",
          "name": "_index",
          "type": "uint32"
        },
        {
          "indexed": false,
          "internalType": "address",
          "name": "_sequencer",
          "type": "address"
        },
        {
          "indexed": false,
          "internalType": "uint256",
          "name": "amount",
          "type": "uint256"
        }
      ],
      "name": "DecreasedSecurityDeposit",
      "type": "event"
    },
    {
      "anonymous": false,
      "inputs": [
        {
          "indexed": false,
          "internalType": "uint256",
          "name": "_totalSeigs",
          "type": "uint256"
        },
        {
          "indexed": false,
          "internalType": "uint256",
          "name": "_distributedAmount",
          "type": "uint256"
        }
      ],
      "name": "Distributed",
      "type": "event"
    },
    {
      "anonymous": false,
      "inputs": [
        {
          "indexed": false,
          "internalType": "uint32",
          "name": "_index",
          "type": "uint32"
        },
        {
          "indexed": false,
          "internalType": "address",
          "name": "caller",
          "type": "address"
        },
        {
          "indexed": false,
          "internalType": "uint256",
          "name": "amount",
          "type": "uint256"
        }
      ],
      "name": "IncreasedSecurityDeposit",
      "type": "event"
    },
    {
      "anonymous": false,
      "inputs": [
        {
          "indexed": true,
          "internalType": "bytes32",
          "name": "role",
          "type": "bytes32"
        },
        {
          "indexed": true,
          "internalType": "bytes32",
          "name": "previousAdminRole",
          "type": "bytes32"
        },
        {
          "indexed": true,
          "internalType": "bytes32",
          "name": "newAdminRole",
          "type": "bytes32"
        }
      ],
      "name": "RoleAdminChanged",
      "type": "event"
    },
    {
      "anonymous": false,
      "inputs": [
        {
          "indexed": true,
          "internalType": "bytes32",
          "name": "role",
          "type": "bytes32"
        },
        {
          "indexed": true,
          "internalType": "address",
          "name": "account",
          "type": "address"
        },
        {
          "indexed": true,
          "internalType": "address",
          "name": "sender",
          "type": "address"
        }
      ],
      "name": "RoleGranted",
      "type": "event"
    },
    {
      "anonymous": false,
      "inputs": [
        {
          "indexed": true,
          "internalType": "bytes32",
          "name": "role",
          "type": "bytes32"
        },
        {
          "indexed": true,
          "internalType": "address",
          "name": "account",
          "type": "address"
        },
        {
          "indexed": true,
          "internalType": "address",
          "name": "sender",
          "type": "address"
        }
      ],
      "name": "RoleRevoked",
      "type": "event"
    },
    {
      "inputs": [],
      "name": "ADMIN_ROLE",
      "outputs": [
        {
          "internalType": "bytes32",
          "name": "",
          "type": "bytes32"
        }
      ],
      "stateMutability": "view",
      "type": "function"
    },
    {
      "inputs": [],
      "name": "DEFAULT_ADMIN_ROLE",
      "outputs": [
        {
          "internalType": "bytes32",
          "name": "",
          "type": "bytes32"
        }
      ],
      "stateMutability": "view",
      "type": "function"
    },
    {
      "inputs": [],
      "name": "POLICY_ROLE",
      "outputs": [
        {
          "internalType": "bytes32",
          "name": "",
          "type": "bytes32"
        }
      ],
      "stateMutability": "view",
      "type": "function"
    },
    {
      "inputs": [
        {
          "internalType": "address",
          "name": "account",
          "type": "address"
        }
      ],
      "name": "addAdmin",
      "outputs": [],
      "stateMutability": "nonpayable",
      "type": "function"
    },
    {
      "inputs": [
        {
          "internalType": "uint256",
          "name": "amount",
          "type": "uint256"
        }
      ],
      "name": "addSeigs",
      "outputs": [
        {
          "internalType": "bool",
          "name": "",
          "type": "bool"
        }
      ],
      "stateMutability": "nonpayable",
      "type": "function"
    },
    {
      "inputs": [
        {
          "internalType": "address",
          "name": "",
          "type": "address"
        }
      ],
      "name": "aliveImplementation",
      "outputs": [
        {
          "internalType": "bool",
          "name": "",
          "type": "bool"
        }
      ],
      "stateMutability": "view",
      "type": "function"
    },
    {
      "inputs": [
        {
          "internalType": "address",
          "name": "account",
          "type": "address"
        }
      ],
      "name": "balanceOfLwton",
      "outputs": [
        {
          "internalType": "uint256",
          "name": "amount",
          "type": "uint256"
        }
      ],
      "stateMutability": "view",
      "type": "function"
    },
    {
      "inputs": [],
      "name": "candidate",
      "outputs": [
        {
          "internalType": "address",
          "name": "",
          "type": "address"
        }
      ],
      "stateMutability": "view",
      "type": "function"
    },
    {
      "inputs": [
        {
          "internalType": "uint32",
          "name": "",
          "type": "uint32"
        }
      ],
      "name": "candidateNames",
      "outputs": [
        {
          "internalType": "bytes32",
          "name": "",
          "type": "bytes32"
        }
      ],
      "stateMutability": "view",
      "type": "function"
    },
    {
      "inputs": [
        {
          "internalType": "uint256",
          "name": "",
          "type": "uint256"
        }
      ],
      "name": "candidatesIndexes",
      "outputs": [
        {
          "internalType": "uint32",
          "name": "",
          "type": "uint32"
        }
      ],
      "stateMutability": "view",
      "type": "function"
    },
    {
      "inputs": [
        {
          "internalType": "uint32",
          "name": "_layerIndex",
          "type": "uint32"
        }
      ],
      "name": "claim",
      "outputs": [],
      "stateMutability": "nonpayable",
      "type": "function"
    },
    {
      "inputs": [
        {
          "internalType": "uint32",
          "name": "_sequencerIndex",
          "type": "uint32"
        },
        {
          "internalType": "bytes32",
          "name": "_name",
          "type": "bytes32"
        },
        {
          "internalType": "uint16",
          "name": "_commission",
          "type": "uint16"
        },
        {
          "internalType": "uint256",
          "name": "amount",
          "type": "uint256"
        }
      ],
      "name": "createCandidate",
      "outputs": [],
      "stateMutability": "nonpayable",
      "type": "function"
    },
    {
      "inputs": [
        {
          "internalType": "bytes32",
          "name": "_name",
          "type": "bytes32"
        },
        {
          "internalType": "address",
          "name": "addressManager",
          "type": "address"
        },
        {
          "internalType": "address",
          "name": "l1Bridge",
          "type": "address"
        },
        {
          "internalType": "address",
          "name": "l2Bridge",
          "type": "address"
        },
        {
          "internalType": "address",
          "name": "l2wton",
          "type": "address"
        },
        {
          "internalType": "uint256",
          "name": "amount",
          "type": "uint256"
        }
      ],
      "name": "createOptimismSequencer",
      "outputs": [],
      "stateMutability": "nonpayable",
      "type": "function"
    },
    {
      "inputs": [],
      "name": "curTotalAmountsLayer2",
      "outputs": [
        {
          "internalType": "uint256",
          "name": "amount",
          "type": "uint256"
        }
      ],
      "stateMutability": "view",
      "type": "function"
    },
    {
      "inputs": [],
      "name": "curTotalLayer2Deposits",
      "outputs": [
        {
          "internalType": "uint256",
          "name": "amount",
          "type": "uint256"
        }
      ],
      "stateMutability": "view",
      "type": "function"
    },
    {
      "inputs": [
        {
          "internalType": "uint32",
          "name": "_layerIndex",
          "type": "uint32"
        }
      ],
      "name": "curlayer2DepositsOf",
      "outputs": [
        {
          "internalType": "uint256",
          "name": "amount",
          "type": "uint256"
        }
      ],
      "stateMutability": "view",
      "type": "function"
    },
    {
      "inputs": [
        {
          "internalType": "uint32",
          "name": "_sequencerIndex",
          "type": "uint32"
        },
        {
          "internalType": "uint256",
          "name": "amount",
          "type": "uint256"
        }
      ],
      "name": "decreaseSecurityDeposit",
      "outputs": [],
      "stateMutability": "nonpayable",
      "type": "function"
    },
    {
      "inputs": [],
      "name": "delayBlocksForWithdraw",
      "outputs": [
        {
          "internalType": "uint256",
          "name": "",
          "type": "uint256"
        }
      ],
      "stateMutability": "view",
      "type": "function"
    },
    {
      "inputs": [
        {
          "internalType": "uint32",
          "name": "_layerIndex",
          "type": "uint32"
        }
      ],
      "name": "depositsOf",
      "outputs": [
        {
          "internalType": "uint256",
          "name": "amount",
          "type": "uint256"
        }
      ],
      "stateMutability": "view",
      "type": "function"
    },
    {
      "inputs": [],
      "name": "distribute",
      "outputs": [],
      "stateMutability": "nonpayable",
      "type": "function"
    },
    {
      "inputs": [
        {
          "internalType": "uint32",
          "name": "_index",
          "type": "uint32"
        }
      ],
      "name": "existedCandidateIndex",
      "outputs": [
        {
          "internalType": "bool",
          "name": "exist_",
          "type": "bool"
        }
      ],
      "stateMutability": "view",
      "type": "function"
    },
    {
      "inputs": [
        {
          "internalType": "uint32",
          "name": "_index",
          "type": "uint32"
        }
      ],
      "name": "existedLayer2Index",
      "outputs": [
        {
          "internalType": "bool",
          "name": "exist_",
          "type": "bool"
        }
      ],
      "stateMutability": "view",
      "type": "function"
    },
    {
      "inputs": [],
      "name": "getAllCandidates",
      "outputs": [
        {
          "internalType": "bytes32[]",
          "name": "candidateNames_",
          "type": "bytes32[]"
        },
        {
          "internalType": "uint32[]",
          "name": "candidateNamesIndexes_",
          "type": "uint32[]"
        },
        {
          "internalType": "bytes[]",
          "name": "infos_",
          "type": "bytes[]"
        }
      ],
      "stateMutability": "view",
      "type": "function"
    },
    {
      "inputs": [],
      "name": "getAllLayers",
      "outputs": [
        {
          "internalType": "bytes32[]",
          "name": "optimismSequencerNames_",
          "type": "bytes32[]"
        },
        {
          "internalType": "uint32[]",
          "name": "optimismSequencerIndexes_",
          "type": "uint32[]"
        },
        {
          "components": [
            {
              "internalType": "uint256",
              "name": "securityDeposit",
              "type": "uint256"
            },
            {
              "internalType": "uint256",
              "name": "seigs",
              "type": "uint256"
            }
          ],
          "internalType": "struct Layer2.Layer2Holdings[]",
          "name": "holdings_",
          "type": "tuple[]"
        },
        {
          "internalType": "bytes[]",
          "name": "infos_",
          "type": "bytes[]"
        }
      ],
      "stateMutability": "view",
      "type": "function"
    },
    {
      "inputs": [
        {
          "internalType": "bytes32",
          "name": "role",
          "type": "bytes32"
        }
      ],
      "name": "getRoleAdmin",
      "outputs": [
        {
          "internalType": "bytes32",
          "name": "",
          "type": "bytes32"
        }
      ],
      "stateMutability": "view",
      "type": "function"
    },
    {
      "inputs": [
        {
          "internalType": "bytes32",
          "name": "role",
          "type": "bytes32"
        },
        {
          "internalType": "address",
          "name": "account",
          "type": "address"
        }
      ],
      "name": "grantRole",
      "outputs": [],
      "stateMutability": "nonpayable",
      "type": "function"
    },
    {
      "inputs": [
        {
          "internalType": "bytes32",
          "name": "role",
          "type": "bytes32"
        },
        {
          "internalType": "address",
          "name": "account",
          "type": "address"
        }
      ],
      "name": "hasRole",
      "outputs": [
        {
          "internalType": "bool",
          "name": "",
          "type": "bool"
        }
      ],
      "stateMutability": "view",
      "type": "function"
    },
    {
      "inputs": [
        {
          "internalType": "uint32",
          "name": "",
          "type": "uint32"
        }
      ],
      "name": "holdings",
      "outputs": [
        {
          "internalType": "uint256",
          "name": "securityDeposit",
          "type": "uint256"
        },
        {
          "internalType": "uint256",
          "name": "seigs",
          "type": "uint256"
        }
      ],
      "stateMutability": "view",
      "type": "function"
    },
    {
      "inputs": [
        {
          "internalType": "uint32",
          "name": "_sequencerIndex",
          "type": "uint32"
        },
        {
          "internalType": "uint256",
          "name": "amount",
          "type": "uint256"
        }
      ],
      "name": "increaseSecurityDeposit",
      "outputs": [],
      "stateMutability": "nonpayable",
      "type": "function"
    },
    {
      "inputs": [],
      "name": "indexCandidates",
      "outputs": [
        {
          "internalType": "uint32",
          "name": "",
          "type": "uint32"
        }
      ],
      "stateMutability": "view",
      "type": "function"
    },
    {
      "inputs": [],
      "name": "indexSequencers",
      "outputs": [
        {
          "internalType": "uint32",
          "name": "",
          "type": "uint32"
        }
      ],
      "stateMutability": "view",
      "type": "function"
    },
    {
      "inputs": [
        {
          "internalType": "address",
          "name": "account",
          "type": "address"
        }
      ],
      "name": "isAdmin",
      "outputs": [
        {
          "internalType": "bool",
          "name": "",
          "type": "bool"
        }
      ],
      "stateMutability": "view",
      "type": "function"
    },
    {
      "inputs": [
        {
          "internalType": "uint32",
          "name": "layerKey_",
          "type": "uint32"
        }
      ],
      "name": "layerHoldings",
      "outputs": [
        {
          "components": [
            {
              "internalType": "uint256",
              "name": "securityDeposit",
              "type": "uint256"
            },
            {
              "internalType": "uint256",
              "name": "seigs",
              "type": "uint256"
            }
          ],
          "internalType": "struct Layer2.Layer2Holdings",
          "name": "",
          "type": "tuple"
        }
      ],
      "stateMutability": "view",
      "type": "function"
    },
    {
      "inputs": [
        {
          "internalType": "bytes32",
          "name": "",
          "type": "bytes32"
        }
      ],
      "name": "layerKeys",
      "outputs": [
        {
          "internalType": "bool",
          "name": "",
          "type": "bool"
        }
      ],
      "stateMutability": "view",
      "type": "function"
    },
    {
      "inputs": [],
      "name": "maxLayer2Count",
      "outputs": [
        {
          "internalType": "uint256",
          "name": "",
          "type": "uint256"
        }
      ],
      "stateMutability": "view",
      "type": "function"
    },
    {
      "inputs": [],
      "name": "minimumDepositForCandidate",
      "outputs": [
        {
          "internalType": "uint256",
          "name": "",
          "type": "uint256"
        }
      ],
      "stateMutability": "view",
      "type": "function"
    },
    {
      "inputs": [],
      "name": "minimumDepositForSequencer",
      "outputs": [
        {
          "internalType": "uint256",
          "name": "",
          "type": "uint256"
        }
      ],
      "stateMutability": "view",
      "type": "function"
    },
    {
      "inputs": [
        {
          "internalType": "address",
          "name": "l1Bridge",
          "type": "address"
        },
        {
          "internalType": "address",
          "name": "l2wton",
          "type": "address"
        }
      ],
      "name": "minimumSecurityDepositAmount",
      "outputs": [
        {
          "internalType": "uint256",
          "name": "amount",
          "type": "uint256"
        }
      ],
      "stateMutability": "view",
      "type": "function"
    },
    {
      "inputs": [],
      "name": "optimismSequencer",
      "outputs": [
        {
          "internalType": "address",
          "name": "",
          "type": "address"
        }
      ],
      "stateMutability": "view",
      "type": "function"
    },
    {
      "inputs": [
        {
          "internalType": "uint256",
          "name": "",
          "type": "uint256"
        }
      ],
      "name": "optimismSequencerIndexes",
      "outputs": [
        {
          "internalType": "uint32",
          "name": "",
          "type": "uint32"
        }
      ],
      "stateMutability": "view",
      "type": "function"
    },
    {
      "inputs": [
        {
          "internalType": "uint32",
          "name": "",
          "type": "uint32"
        }
      ],
      "name": "optimismSequencerNames",
      "outputs": [
        {
          "internalType": "bytes32",
          "name": "",
          "type": "bytes32"
        }
      ],
      "stateMutability": "view",
      "type": "function"
    },
    {
      "inputs": [],
      "name": "pauseProxy",
      "outputs": [
        {
          "internalType": "bool",
          "name": "",
          "type": "bool"
        }
      ],
      "stateMutability": "view",
      "type": "function"
    },
    {
      "inputs": [
        {
          "internalType": "uint256",
          "name": "",
          "type": "uint256"
        }
      ],
      "name": "proxyImplementation",
      "outputs": [
        {
          "internalType": "address",
          "name": "",
          "type": "address"
        }
      ],
      "stateMutability": "view",
      "type": "function"
    },
    {
      "inputs": [],
      "name": "ratioSecurityDepositOfTvl",
      "outputs": [
        {
          "internalType": "uint16",
          "name": "",
          "type": "uint16"
        }
      ],
      "stateMutability": "view",
      "type": "function"
    },
    {
      "inputs": [
        {
          "internalType": "address",
          "name": "account",
          "type": "address"
        }
      ],
      "name": "removeAdmin",
      "outputs": [],
      "stateMutability": "nonpayable",
      "type": "function"
    },
    {
      "inputs": [
        {
          "internalType": "bytes32",
          "name": "role",
          "type": "bytes32"
        },
        {
          "internalType": "address",
          "name": "account",
          "type": "address"
        }
      ],
      "name": "renounceRole",
      "outputs": [],
      "stateMutability": "nonpayable",
      "type": "function"
    },
    {
      "inputs": [
        {
          "internalType": "bytes32",
          "name": "role",
          "type": "bytes32"
        },
        {
          "internalType": "address",
          "name": "account",
          "type": "address"
        }
      ],
      "name": "revokeRole",
      "outputs": [],
      "stateMutability": "nonpayable",
      "type": "function"
    },
    {
      "inputs": [],
      "name": "seigManagerV2",
      "outputs": [
        {
          "internalType": "address",
          "name": "",
          "type": "address"
        }
      ],
      "stateMutability": "view",
      "type": "function"
    },
    {
      "inputs": [
        {
          "internalType": "bytes4",
          "name": "",
          "type": "bytes4"
        }
      ],
      "name": "selectorImplementation",
      "outputs": [
        {
          "internalType": "address",
          "name": "",
          "type": "address"
        }
      ],
      "stateMutability": "view",
      "type": "function"
    },
    {
      "inputs": [
        {
          "internalType": "uint32",
          "name": "_layerIndex",
          "type": "uint32"
        }
      ],
      "name": "sequencer",
      "outputs": [
        {
          "internalType": "address",
          "name": "sequencer_",
          "type": "address"
        }
      ],
      "stateMutability": "view",
      "type": "function"
    },
    {
      "inputs": [
        {
          "internalType": "uint256",
          "name": "_delayBlocksForWithdraw",
          "type": "uint256"
        }
      ],
      "name": "setDelayBlocksForWithdraw",
      "outputs": [],
      "stateMutability": "nonpayable",
      "type": "function"
    },
    {
      "inputs": [
        {
          "internalType": "uint256",
          "name": "_maxLayer2Count",
          "type": "uint256"
        }
      ],
      "name": "setMaxLayer2Count",
      "outputs": [],
      "stateMutability": "nonpayable",
      "type": "function"
    },
    {
      "inputs": [
        {
          "internalType": "uint256",
          "name": "_minimumDepositForCandidate",
          "type": "uint256"
        }
      ],
      "name": "setMinimumDepositForCandidate",
      "outputs": [],
      "stateMutability": "nonpayable",
      "type": "function"
    },
    {
      "inputs": [
        {
          "internalType": "uint256",
          "name": "_minimumDepositForSequencer",
          "type": "uint256"
        }
      ],
      "name": "setMinimumDepositForSequencer",
      "outputs": [],
      "stateMutability": "nonpayable",
      "type": "function"
    },
    {
      "inputs": [
        {
          "internalType": "uint16",
          "name": "_ratioSecurityDepositOfTvl",
          "type": "uint16"
        }
      ],
      "name": "setRatioSecurityDepositOfTvl",
      "outputs": [],
      "stateMutability": "nonpayable",
      "type": "function"
    },
    {
      "inputs": [
        {
          "internalType": "bytes4",
          "name": "interfaceId",
          "type": "bytes4"
        }
      ],
      "name": "supportsInterface",
      "outputs": [
        {
          "internalType": "bool",
          "name": "",
          "type": "bool"
        }
      ],
      "stateMutability": "view",
      "type": "function"
    },
    {
      "inputs": [],
      "name": "totalCandidates",
      "outputs": [
        {
          "internalType": "uint256",
          "name": "total",
          "type": "uint256"
        }
      ],
      "stateMutability": "view",
      "type": "function"
    },
    {
      "inputs": [],
      "name": "totalLayers",
      "outputs": [
        {
          "internalType": "uint256",
          "name": "total",
          "type": "uint256"
        }
      ],
      "stateMutability": "view",
      "type": "function"
    },
    {
      "inputs": [],
      "name": "totalSecurityDeposit",
      "outputs": [
        {
          "internalType": "uint256",
          "name": "",
          "type": "uint256"
        }
      ],
      "stateMutability": "view",
      "type": "function"
    },
    {
      "inputs": [],
      "name": "totalSeigs",
      "outputs": [
        {
          "internalType": "uint256",
          "name": "",
          "type": "uint256"
        }
      ],
      "stateMutability": "view",
      "type": "function"
    },
    {
      "inputs": [
        {
          "internalType": "address",
          "name": "newAdmin",
          "type": "address"
        }
      ],
      "name": "transferAdmin",
      "outputs": [],
      "stateMutability": "nonpayable",
      "type": "function"
    },
    {
      "inputs": [],
      "name": "wton",
      "outputs": [
        {
          "internalType": "contract IERC20",
          "name": "",
          "type": "address"
        }
      ],
      "stateMutability": "view",
      "type": "function"
    }
  ],
  "bytecode": "0x60806040526015805460ff60501b19166a010000000000000000000017905534801561002a57600080fd5b50613e8d8061003a6000396000f3fe608060405234801561001057600080fd5b50600436106103ba5760003560e01c806370480275116101f4578063ab8930a51161011a578063d639ff83116100ad578063e4fc6b6d1161007c578063e4fc6b6d14610947578063e99e36161461094f578063f2a7d71214610962578063f71bf33a1461097557600080fd5b8063d639ff83146108f6578063da0dc13514610909578063e0ef2a7f1461091c578063e12a62191461093f57600080fd5b8063caef64e6116100e9578063caef64e6146108b1578063d37c6d69146108ba578063d48ddf04146108c3578063d547741f146108e357600080fd5b8063ab8930a5146107ee578063ae9046ca1461084d578063b911135f14610860578063c14241b91461088957600080fd5b80638d1f3d0a11610192578063963807a811610161578063963807a8146107b7578063a217fddf146107ca578063a4dd8b7d146107d2578063a73ddaab146107db57600080fd5b80638d1f3d0a1461074a5780638d5d8e551461075d5780638d62d9491461076d57806391d148541461078057600080fd5b806375b238fc116101ce57806375b238fc146106f557806384f95d2a1461071c5780638935af9a1461072f5780638cc193a51461074257600080fd5b806370480275146106bc57806373469a7a146106cf57806375829def146106e257600080fd5b80633bd0c19f116102e457806357bc1df01161027757806363e6f0d81161024657806363e6f0d81461067b5780636b48235f146106835780636c8381f8146106965780636e1ef23a146106a957600080fd5b806357bc1df01461063a5780635b1f335f146106525780635d170f8f1461065b57806363a8fd891461066e57600080fd5b80634c76e6c8116102b35780634c76e6c8146105b05780634c7825bb146105c357806350d2a276146105d6578063550d01a31461061757600080fd5b80633bd0c19f1461054c5780634339da1c1461057457806346551ece14610587578063499ad9da146105a757600080fd5b80631c2833211161035c5780632e6997fe1161032b5780632e6997fe146105075780632f2ff15d1461051e57806336568abe146105315780633866965c1461054457600080fd5b80631c28332114610489578063229852461461049c578063248a9ca3146104d157806324d7806c146104f457600080fd5b8063091e3be311610398578063091e3be3146104385780631785f53c1461044b57806319a93b881461045e5780631a4f1eb91461047657600080fd5b806301ffc9a7146103bf57806304196138146103e75780630495189114610423575b600080fd5b6103d26103cd3660046136fb565b61097e565b60405190151581526020015b60405180910390f35b61040e6103f5366004613739565b6012602052600090815260409020805460019091015482565b604080519283526020830191909152016103de565b610436610431366004613739565b6109b5565b005b610436610446366004613766565b610b5d565b610436610459366004613796565b610c1a565b610466610c95565b6040516103de94939291906138c9565b61043661048436600461395c565b61100d565b6103d261049736600461395c565b61109a565b6104c37ffb5864e8ff833c3cb2d2d08505e82ff02a43554c74a35d4f5a64e8526127831181565b6040519081526020016103de565b6104c36104df36600461395c565b60009081526020819052604090206001015490565b6103d2610502366004613796565b61111d565b61050f61115d565b6040516103de93929190613975565b61043661052c3660046139b8565b6113dd565b61043661053f3660046139b8565b611407565b6014546104c3565b61055f61055a36600461395c565b611493565b60405163ffffffff90911681526020016103de565b61055f61058236600461395c565b6114cd565b6104c3610595366004613739565b60106020526000908152604090205481565b6104c3600e5481565b6104c36105be3660046139e8565b6114dd565b6104c36105d1366004613739565b6115ad565b6105ff6105e43660046136fb565b6004602052600090815260409020546001600160a01b031681565b6040516001600160a01b0390911681526020016103de565b6103d2610625366004613796565b60036020526000908152604090205460ff1681565b60155461055f90640100000000900463ffffffff1681565b6104c3600d5481565b6103d2610669366004613739565b6115b8565b6001546103d29060ff1681565b600f546104c3565b610436610691366004613a16565b6115df565b6008546105ff906001600160a01b031681565b6103d26106b7366004613739565b6117a9565b6104366106ca366004613796565b6117c7565b6006546105ff906001600160a01b031681565b6104366106f0366004613796565b61183f565b6104c37fdf8b4c520ffe197c5343c6f5aec59570151ef9a492f2c624fd45ddde6135ec4281565b6104c361072a366004613796565b61198f565b61043661073d36600461395c565b611a80565b6104c3611b0d565b6105ff610758366004613739565b611bed565b60155461055f9063ffffffff1681565b6005546105ff906001600160a01b031681565b6103d261078e3660046139b8565b6000918252602082815260408084206001600160a01b0393909316845291905290205460ff1690565b6104366107c5366004613a40565b611c75565b6104c3600081565b6104c3600a5481565b6104366107e936600461395c565b6120dc565b6108406107fc366004613739565b60408051808201909152600080825260208201525063ffffffff16600090815260126020908152604091829020825180840190935280548352600101549082015290565b6040516103de9190613a84565b6104c361085b366004613739565b6121a0565b6105ff61086e36600461395c565b6002602052600090815260409020546001600160a01b031681565b60155461089e90600160401b900461ffff1681565b60405161ffff90911681526020016103de565b6104c3600b5481565b6104c3600c5481565b6104c36108d1366004613739565b60116020526000908152604090205481565b6104366108f13660046139b8565b612248565b61043661090436600461395c565b61226d565b6007546105ff906001600160a01b031681565b6103d261092a36600461395c565b60136020526000908152604090205460ff1681565b6104c36122fa565b610436612316565b61043661095d366004613a9b565b612630565b610436610970366004613a16565b612cf4565b6104c360095481565b60006001600160e01b03198216637965db0b60e01b14806109af57506301ffc9a760e01b6001600160e01b03198316145b92915050565b63ffffffff811660009081526012602052604081206001015490819003610a235760405162461bcd60e51b815260206004820152601260248201527f6e6f20616d6f756e7420746f20636c61696d000000000000000000000000000060448201526064015b60405180910390fd5b6000610a2e83611bed565b90506001600160a01b038116610a865760405162461bcd60e51b815260206004820152600e60248201527f7a65726f2073657175656e6365720000000000000000000000000000000000006044820152606401610a1a565b63ffffffff8316600090815260126020526040808220600101919091556006549051635569f64b60e11b81526001600160a01b038381166004830152602482018590529091169063aad3ec9690604401600060405180830381600087803b158015610af057600080fd5b505af1158015610b04573d6000803e3d6000fd5b50506040805163ffffffff871681526001600160a01b03851660208201529081018590527fdc8b8058bd26d719cc330a54461930fd9c312dd28447313fd5dc4641513e00749250606001905060405180910390a1505050565b610b663361111d565b610bab5760405162461bcd60e51b81526020600482015260226024820152600080516020613e6183398151915260448201526134b760f11b6064820152608401610a1a565b60155461ffff808316600160401b9092041603610bf35760405162461bcd60e51b8152600401610a1a9060208082526004908201526373616d6560e01b604082015260600190565b6015805461ffff909216600160401b0269ffff000000000000000019909216919091179055565b610c233361111d565b610c685760405162461bcd60e51b81526020600482015260226024820152600080516020613e6183398151915260448201526134b760f11b6064820152608401610a1a565b610c927fdf8b4c520ffe197c5343c6f5aec59570151ef9a492f2c624fd45ddde6135ec4282611407565b50565b600f546060908190819081908067ffffffffffffffff811115610cba57610cba613b0b565b604051908082528060200260200182016040528015610ce3578160200160208202803683370190505b50600f805460408051602080840282018101909252828152939850830182828015610d5957602002820191906000526020600020906000905b82829054906101000a900463ffffffff1663ffffffff1681526020019060040190602082600301049283019260010382029150808411610d1c5790505b505050505093508067ffffffffffffffff811115610d7957610d79613b0b565b604051908082528060200260200182016040528015610dbe57816020015b6040805180820190915260008082526020820152815260200190600190039081610d975790505b5092508067ffffffffffffffff811115610dda57610dda613b0b565b604051908082528060200260200182016040528015610e0d57816020015b6060815260200190600190039081610df85790505b50915060005b818110156110055760106000600f8381548110610e3257610e32613b21565b90600052602060002090600891828204019190066004029054906101000a900463ffffffff1663ffffffff1663ffffffff16815260200190815260200160002054868281518110610e8557610e85613b21565b60200260200101818152505060126000600f8381548110610ea857610ea8613b21565b90600052602060002090600891828204019190066004029054906101000a900463ffffffff1663ffffffff1663ffffffff16815260200190815260200160002060405180604001604052908160008201548152602001600182015481525050848281518110610f1957610f19613b21565b6020908102919091010152600754600f80546001600160a01b039092169163659ab820919084908110610f4e57610f4e613b21565b6000918252602090912060088204015460405160e084901b6001600160e01b0319168152600790921660049081026101000a90910463ffffffff1690820152602401600060405180830381865afa158015610fad573d6000803e3d6000fd5b505050506040513d6000823e601f3d908101601f19168201604052610fd59190810190613b37565b838281518110610fe757610fe7613b21565b60200260200101819052508080610ffd90613bfa565b915050610e13565b505090919293565b6110163361111d565b61105b5760405162461bcd60e51b81526020600482015260226024820152600080516020613e6183398151915260448201526134b760f11b6064820152608401610a1a565b80600b54036110955760405162461bcd60e51b8152600401610a1a9060208082526004908201526373616d6560e01b604082015260600190565b600b55565b6006546000906001600160a01b031633146110f75760405162461bcd60e51b815260206004820152601b60248201527f63616c6c6572206973206e6f7420536569674d616e61676572563200000000006044820152606401610a1a565b81156111155781600e600082825461110f9190613c13565b90915550505b506001919050565b6001600160a01b03811660009081527f5cbfc8ee58ca47855df7bcf648dd304ddb6b932f9b87878bdf6318d7ec7ee5b7602052604081205460ff166109af565b601454606090819081908067ffffffffffffffff81111561118057611180613b0b565b6040519080825280602002602001820160405280156111a9578160200160208202803683370190505b50601480546040805160208084028201810190925282815293975083018282801561121f57602002820191906000526020600020906000905b82829054906101000a900463ffffffff1663ffffffff16815260200190600401906020826003010492830192600103820291508084116111e25790505b505050505092508067ffffffffffffffff81111561123f5761123f613b0b565b60405190808252806020026020018201604052801561127257816020015b606081526020019060019003908161125d5790505b50915060005b818110156113d657601160006014838154811061129757611297613b21565b90600052602060002090600891828204019190066004029054906101000a900463ffffffff1663ffffffff1663ffffffff168152602001908152602001600020548582815181106112ea576112ea613b21565b6020908102919091010152600854601480546001600160a01b039092169163659ab82091908490811061131f5761131f613b21565b6000918252602090912060088204015460405160e084901b6001600160e01b0319168152600790921660049081026101000a90910463ffffffff1690820152602401600060405180830381865afa15801561137e573d6000803e3d6000fd5b505050506040513d6000823e601f3d908101601f191682016040526113a69190810190613b37565b8382815181106113b8576113b8613b21565b602002602001018190525080806113ce90613bfa565b915050611278565b5050909192565b6000828152602081905260409020600101546113f881613151565b611402838361315b565b505050565b6001600160a01b03811633146114855760405162461bcd60e51b815260206004820152602f60248201527f416363657373436f6e74726f6c3a2063616e206f6e6c792072656e6f756e636560448201527f20726f6c657320666f722073656c6600000000000000000000000000000000006064820152608401610a1a565b61148f82826131f9565b5050565b601481815481106114a357600080fd5b9060005260206000209060089182820401919006600402915054906101000a900463ffffffff1681565b600f81815481106114a357600080fd5b601554600090600160401b900461ffff1681036114fd57506009546109af565b60155460075460405163edcc217760e01b81526001600160a01b03868116600483015285811660248301526115a69361271093600160401b90910461ffff169291169063edcc217790604401602060405180830381865afa158015611566573d6000803e3d6000fd5b505050506040513d601f19601f8201168201806040525081019061158a9190613c26565b6115949190613c3f565b61159e9190613c56565b600954613278565b9392505050565b60006109af826121a0565b60155460009063ffffffff6401000000009091048116908316116115da575060015b919050565b601554600160501b900460ff166116215760405162461bcd60e51b8152600401610a1a906020808252600490820152636c6f636b60e01b604082015260600190565b6015805460ff60501b191690558163ffffffff811660000361166a5760405162461bcd60e51b81526020600482015260026024820152615a3160f01b6044820152606401610a1a565b81806000036116a05760405162461bcd60e51b81526020600482015260026024820152615a3160f01b6044820152606401610a1a565b60155463ffffffff90811690851611156116ea5760405162461bcd60e51b815260206004820152600b60248201526a0eee4dedcce40d2dcc8caf60ab1b6044820152606401610a1a565b600554611702906001600160a01b031633308661328e565b63ffffffff8416600090815260126020526040812080549091859183919061172b908490613c13565b9250508190555083600d60008282546117449190613c13565b90915550506040805163ffffffff871681523360208201529081018590527f75d95e3e2cd0899a7e9451555815404d25586e691502bc69417edacc489173a69060600160405180910390a150506015805460ff60501b1916600160501b179055505050565b60155460009063ffffffff908116908316116115da57506001919050565b6117d03361111d565b6118155760405162461bcd60e51b81526020600482015260226024820152600080516020613e6183398151915260448201526134b760f11b6064820152608401610a1a565b610c927fdf8b4c520ffe197c5343c6f5aec59570151ef9a492f2c624fd45ddde6135ec42826113dd565b6118483361111d565b61188d5760405162461bcd60e51b81526020600482015260226024820152600080516020613e6183398151915260448201526134b760f11b6064820152608401610a1a565b6001600160a01b0381166118e35760405162461bcd60e51b815260206004820152601860248201527f41636365737369626c653a207a65726f206164647265737300000000000000006044820152606401610a1a565b6001600160a01b038116330361193b5760405162461bcd60e51b815260206004820152601660248201527f41636365737369626c653a2073616d652061646d696e000000000000000000006044820152606401610a1a565b6119657fdf8b4c520ffe197c5343c6f5aec59570151ef9a492f2c624fd45ddde6135ec42826113dd565b610c927fdf8b4c520ffe197c5343c6f5aec59570151ef9a492f2c624fd45ddde6135ec4233611407565b600f54600090815b81811015611a7957600754600f80546001600160a01b039092169163ba5adc6b9190849081106119c9576119c9613b21565b6000918252602090912060088204015460405160e084901b6001600160e01b0319168152600790921660049081026101000a90910463ffffffff16908201526001600160a01b0387166024820152604401602060405180830381865afa158015611a37573d6000803e3d6000fd5b505050506040513d601f19601f82011682018060405250810190611a5b9190613c26565b611a659084613c13565b925080611a7181613bfa565b915050611997565b5050919050565b611a893361111d565b611ace5760405162461bcd60e51b81526020600482015260226024820152600080516020613e6183398151915260448201526134b760f11b6064820152608401610a1a565b8060095403611b085760405162461bcd60e51b8152600401610a1a9060208082526004908201526373616d6560e01b604082015260600190565b600955565b600f54600090815b81811015611be857600754600f80546001600160a01b03909216916341e5dbe8919084908110611b4757611b47613b21565b6000918252602090912060088204015460405160e084901b6001600160e01b0319168152600790921660049081026101000a90910463ffffffff1690820152602401602060405180830381865afa158015611ba6573d6000803e3d6000fd5b505050506040513d601f19601f82011682018060405250810190611bca9190613c26565b611bd49084613c13565b925080611be081613bfa565b915050611b15565b505090565b60155460009063ffffffff908116908316116115da5760075460405163468f9e8560e11b815263ffffffff841660048201526001600160a01b0390911690638d1f3d0a90602401602060405180830381865afa158015611c51573d6000803e3d6000fd5b505050506040513d601f19601f820116820180604052508101906109af9190613c78565b838063ffffffff16600003611cb15760405162461bcd60e51b81526020600482015260026024820152615a3160f01b6044820152606401610a1a565b601554600160501b900460ff16611cf35760405162461bcd60e51b8152600401610a1a906020808252600490820152636c6f636b60e01b604082015260600190565b6015805460ff60501b19811690915563ffffffff9081169086161115611d495760405162461bcd60e51b815260206004820152600b60248201526a0eee4dedcce40d2dcc8caf60ab1b6044820152606401610a1a565b604051633be35f5f60e21b815233600482015263ffffffff8616602482015260009073__$d436d56fec194dfaaabaf06742f0275c03$__9063ef8d7d7c90604401602060405180830381865af4158015611da7573d6000803e3d6000fd5b505050506040513d601f19601f82011682018060405250810190611dcb9190613c26565b60008181526013602052604090205490915060ff1615611e1f5760405162461bcd60e51b815260206004820152600f60248201526e185b1c9958591e4818dc99585d1959608a1b6044820152606401610a1a565b600a54831015611e715760405162461bcd60e51b815260206004820152601f60248201527f7365637572697479206465706f73697420697320696e737566666963656e74006044820152606401610a1a565b6000818152601360205260408120805460ff1916600117905560158054600490611ea99063ffffffff64010000000090910416613c95565b825461010092830a63ffffffff818102199092168383169182021790945560148054600181019091557fce6d7b5282bd9a3661ae061feed1dbda4e52ab073b1f9285be6e155d9c38d4ec6008808304919091018054600790931660040290950a92830219909116918502919091179092556000928352601160209081526040938490208a9055915483516bffffffffffffffffffffffff193360601b16938101939093526001600160e01b031960e08c901b1660348401527fffff00000000000000000000000000000000000000000000000000000000000060f08a901b166038840152603a80840189905284518085039091018152605a840194859052630df2b42960e41b9094529093506001600160a01b03169163df2b429091611fd3918591605e01613cb8565b6020604051808303816000875af1158015611ff2573d6000803e3d6000fd5b505050506040513d601f19601f820116820180604052508101906120169190613cdf565b6120625760405162461bcd60e51b815260206004820152601460248201527f4661696c2063726561746543616e6469646174650000000000000000000000006044820152606401610a1a565b6040805163ffffffff83811682523360208301528183018990528916606082015261ffff8716608082015260a0810186905290517f342dd5ffb5ac74e51a17692939edd209c3e7b77cba98cdc874b1563f60ad0b889181900360c00190a150506015805460ff60501b1916600160501b1790555050505050565b80806000036121125760405162461bcd60e51b81526020600482015260026024820152615a3160f01b6044820152606401610a1a565b61211b3361111d565b6121605760405162461bcd60e51b81526020600482015260226024820152600080516020613e6183398151915260448201526134b760f11b6064820152608401610a1a565b81600c540361219a5760405162461bcd60e51b8152600401610a1a9060208082526004908201526373616d6560e01b604082015260600190565b50600c55565b60075460405163083cbb7d60e31b815263ffffffff831660048201526000916001600160a01b0316906341e5dbe890602401602060405180830381865afa92505050801561220b575060408051601f3d908101601f1916820190925261220891810190613c26565b60015b6109af573d808015612239576040519150601f19603f3d011682016040523d82523d6000602084013e61223e565b606091505b5060009392505050565b60008281526020819052604090206001015461226381613151565b61140283836131f9565b6122763361111d565b6122bb5760405162461bcd60e51b81526020600482015260226024820152600080516020613e6183398151915260448201526134b760f11b6064820152608401610a1a565b80600a54036122f55760405162461bcd60e51b8152600401610a1a9060208082526004908201526373616d6560e01b604082015260600190565b600a55565b6000600d54612307611b0d565b6123119190613c13565b905090565b600e546000036123685760405162461bcd60e51b815260206004820152601760248201527f6e6f2064697374726962757461626c6520616d6f756e740000000000000000006044820152606401610a1a565b600f546000808267ffffffffffffffff81111561238757612387613b0b565b6040519080825280602002602001820160405280156123b0578160200160208202803683370190505b50905060005b838110156124cd576000600f82815481106123d3576123d3613b21565b6000918252602080832060088304015460079092166004026101000a90910463ffffffff168083526012825260409283902083518085019094528054808552600190910154928401929092526009549093501161249657612433826121a0565b815161243f9190613c13565b84848151811061245157612451613b21565b602002602001018181516124659190613c13565b905250835184908490811061247c5761247c613b21565b60200260200101518561248f9190613c13565b94506124b8565b61249f826121a0565b81516124ab9190613c13565b6124b59086613c13565b94505b505080806124c590613bfa565b9150506123b6565b50600082156125ee5760005b848110156125cf5760008382815181106124f5576124f5613b21565b602002602001015111156125bd5760008484838151811061251857612518613b21565b6020026020010151600e5461252d9190613c3f565b6125379190613c56565b9050600060126000600f858154811061255257612552613b21565b90600052602060002090600891828204019190066004029054906101000a900463ffffffff1663ffffffff1663ffffffff1681526020019081526020016000209050818160010160008282546125a89190613c13565b909155506125b890508285613c13565b935050505b806125c781613bfa565b9150506124d9565b5080156125ee5780600e60008282546125e89190613d01565b90915550505b600e5460408051918252602082018390527f97791d3ac1343e05805a2f905fa80b249c2ca58cf9fef455d4fa7ec13ce58321910160405180910390a150505050565b601554600160501b900460ff166126725760405162461bcd60e51b8152600401610a1a906020808252600490820152636c6f636b60e01b604082015260600190565b6015805460ff60501b1916905560405163bf40fac160e01b815260206004820152600d60248201527f4f564d5f53657175656e6365720000000000000000000000000000000000000060448201526001600160a01b0386169063bf40fac190606401602060405180830381865afa1580156126f1573d6000803e3d6000fd5b505050506040513d601f19601f820116820180604052508101906127159190613c78565b6001600160a01b0316336001600160a01b0316146127755760405162461bcd60e51b815260206004820152600d60248201527f4e4f542053657175656e636572000000000000000000000000000000000000006044820152606401610a1a565b600c5460155463ffffffff16106127ce5760405162461bcd60e51b815260206004820152601760248201527f6578636565646564206d61784c6179657232436f756e740000000000000000006044820152606401610a1a565b6001600160a01b038516158015906127ee57506001600160a01b03821615155b61283a5760405162461bcd60e51b815260206004820152600c60248201527f7a65726f206164647265737300000000000000000000000000000000000000006044820152606401610a1a565b60405163cd13ec8760e01b81526001600160a01b038087166004830152808616602483015280851660448301528316606482015260009073__$35081dc60fc26376aafbbba403b8b17c43$__9063cd13ec8790608401602060405180830381865af41580156128ad573d6000803e3d6000fd5b505050506040513d601f19601f820116820180604052508101906128d19190613c26565b60008181526013602052604090205490915060ff16156129255760405162461bcd60e51b815260206004820152600f60248201526e185b1c9958591e4818dc99585d1959608a1b6044820152606401610a1a565b60075460405163516e4f0160e11b81526001600160a01b038881166004830152600092169063a2dc9e0290602401602060405180830381865afa158015612970573d6000803e3d6000fd5b505050506040513d601f19601f820116820180604052508101906129949190613c78565b9050806001600160a01b0316866001600160a01b0316146129f75760405162461bcd60e51b815260206004820152601260248201527f646966666572656e74206c3142726964676500000000000000000000000000006044820152606401610a1a565b612a0186856114dd565b831015612a505760405162461bcd60e51b815260206004820152601f60248201527f7365637572697479206465706f73697420697320696e737566666963656e74006044820152606401610a1a565b6000828152601360205260408120805460ff19166001179055601580548290612a7e9063ffffffff16613c95565b91906101000a81548163ffffffff021916908363ffffffff1602179055905083600d6000828254612aaf9190613c13565b9091555050600f805460018101909155600881047f8d1108e10bcb7c27dddfc02ed9d693a074039d026cf4ea4240b40f7d581ac80201805463ffffffff80851660046007958616026101000a81810292021990921617909155600090815260126020908152604080832088815560108352928190208d90559254925191926001600160a01b03169163df2b4290918591612b87918e918e918e918e9101606094851b6bffffffffffffffffffffffff19908116825293851b8416601482015291841b8316602883015290921b16603c82015260500190565b6040516020818303038152906040526040518363ffffffff1660e01b8152600401612bb3929190613cb8565b6020604051808303816000875af1158015612bd2573d6000803e3d6000fd5b505050506040513d601f19601f82011682018060405250810190612bf69190613cdf565b612c425760405162461bcd60e51b815260206004820152601c60248201527f4661696c206372656174654f7074696d69736d53657175656e636572000000006044820152606401610a1a565b8415612c6057600554612c60906001600160a01b031633308861328e565b6040805163ffffffff841681523360208201529081018b90526001600160a01b03808b166060830152808a16608083015280891660a0830152871660c082015260e081018690527f83d9a9b76130ffa963fa4c558a5ab61c74726896c79673e9d620739aebf93953906101000160405180910390a150506015805460ff60501b1916600160501b1790555050505050505050565b601554600160501b900460ff16612d365760405162461bcd60e51b8152600401610a1a906020808252600490820152636c6f636b60e01b604082015260600190565b6015805460ff60501b191690558163ffffffff8116600003612d7f5760405162461bcd60e51b81526020600482015260026024820152615a3160f01b6044820152606401610a1a565b8180600003612db55760405162461bcd60e51b81526020600482015260026024820152615a3160f01b6044820152606401610a1a565b60155463ffffffff9081169085161115612dff5760405162461bcd60e51b815260206004820152600b60248201526a0eee4dedcce40d2dcc8caf60ab1b6044820152606401610a1a565b600754604051638c6f1b3960e01b815263ffffffff861660048201526000916001600160a01b031690638c6f1b3990602401608060405180830381865afa158015612e4e573d6000803e3d6000fd5b505050506040513d601f19601f82011682018060405250810190612e729190613d14565b6007548151604051635d0c7b2b60e01b81526001600160a01b039182166004820152929350600092911690635d0c7b2b90602401602060405180830381865afa158015612ec3573d6000803e3d6000fd5b505050506040513d601f19601f82011682018060405250810190612ee79190613c78565b90506001600160a01b03811615801590612f0957506001600160a01b03811633145b612f555760405162461bcd60e51b815260206004820181905260248201527f73657175656e636572206973207a65726f206f72206e6f742063616c6c65722e6044820152606401610a1a565b600754825160405163516e4f0160e11b81526001600160a01b039182166004820152600092919091169063a2dc9e0290602401602060405180830381865afa158015612fa5573d6000803e3d6000fd5b505050506040513d601f19601f82011682018060405250810190612fc99190613c78565b90506001600160a01b0381166130215760405162461bcd60e51b815260206004820152600d60248201527f7a65726f206c31427269646765000000000000000000000000000000000000006044820152606401610a1a565b60006130318285606001516114dd565b63ffffffff89166000908152601260205260409020805491925090613056838a613c13565b11156130a45760405162461bcd60e51b815260206004820152601460248201527f696e73756666696369656e74206465706f7369740000000000000000000000006044820152606401610a1a565b878160000160008282546130b89190613d01565b9250508190555087600d60008282546130d19190613d01565b90915550506005546130ed906001600160a01b0316338a6133b2565b6040805163ffffffff8b1681523360208201529081018990527f15842789f01ee00184461198846223c315588d35fc8202916432ef78775d62c09060600160405180910390a150506015805460ff60501b1916600160501b17905550505050505050565b610c9281336134cd565b6000828152602081815260408083206001600160a01b038516845290915290205460ff1661148f576000828152602081815260408083206001600160a01b03851684529091529020805460ff191660011790556131b53390565b6001600160a01b0316816001600160a01b0316837f2f8788117e7eff1d82e926ec794901d17c78024a50270940304540a733656f0d60405160405180910390a45050565b6000828152602081815260408083206001600160a01b038516845290915290205460ff161561148f576000828152602081815260408083206001600160a01b0385168085529252808320805460ff1916905551339285917ff6391f5c32d9c69d2a47ea670b442974b53935d1edc7fd64eb21e047a839171b9190a45050565b600081831161328757816115a6565b5090919050565b604080516001600160a01b0385811660248301528481166044830152606480830185905283518084039091018152608490920183526020820180516001600160e01b03166323b872dd60e01b17905291516000928392908816916132f29190613d99565b6000604051808303816000865af19150503d806000811461332f576040519150601f19603f3d011682016040523d82523d6000602084013e613334565b606091505b509150915081801561335e57508051158061335e57508080602001905181019061335e9190613cdf565b6133aa5760405162461bcd60e51b815260206004820152601460248201527f5452414e534645525f46524f4d5f4641494c45440000000000000000000000006044820152606401610a1a565b505050505050565b604080516001600160a01b038481166024830152604480830185905283518084039091018152606490920183526020820180516001600160e01b031663a9059cbb60e01b179052915160009283929087169161340e9190613d99565b6000604051808303816000865af19150503d806000811461344b576040519150601f19603f3d011682016040523d82523d6000602084013e613450565b606091505b509150915081801561347a57508051158061347a57508080602001905181019061347a9190613cdf565b6134c65760405162461bcd60e51b815260206004820152600f60248201527f5452414e534645525f4641494c454400000000000000000000000000000000006044820152606401610a1a565b5050505050565b6000828152602081815260408083206001600160a01b038516845290915290205460ff1661148f576134fe81613540565b613509836020613552565b60405160200161351a929190613db5565b60408051601f198184030181529082905262461bcd60e51b8252610a1a91600401613e36565b60606109af6001600160a01b03831660145b60606000613561836002613c3f565b61356c906002613c13565b67ffffffffffffffff81111561358457613584613b0b565b6040519080825280601f01601f1916602001820160405280156135ae576020820181803683370190505b509050600360fc1b816000815181106135c9576135c9613b21565b60200101906001600160f81b031916908160001a905350600f60fb1b816001815181106135f8576135f8613b21565b60200101906001600160f81b031916908160001a905350600061361c846002613c3f565b613627906001613c13565b90505b60018111156136ac577f303132333435363738396162636465660000000000000000000000000000000085600f166010811061366857613668613b21565b1a60f81b82828151811061367e5761367e613b21565b60200101906001600160f81b031916908160001a90535060049490941c936136a581613e49565b905061362a565b5083156115a65760405162461bcd60e51b815260206004820181905260248201527f537472696e67733a20686578206c656e67746820696e73756666696369656e746044820152606401610a1a565b60006020828403121561370d57600080fd5b81356001600160e01b0319811681146115a657600080fd5b803563ffffffff811681146115da57600080fd5b60006020828403121561374b57600080fd5b6115a682613725565b803561ffff811681146115da57600080fd5b60006020828403121561377857600080fd5b6115a682613754565b6001600160a01b0381168114610c9257600080fd5b6000602082840312156137a857600080fd5b81356115a681613781565b600081518084526020808501945080840160005b838110156137e3578151875295820195908201906001016137c7565b509495945050505050565b600081518084526020808501945080840160005b838110156137e357815163ffffffff1687529582019590820190600101613802565b60005b8381101561383f578181015183820152602001613827565b50506000910152565b60008151808452613860816020860160208601613824565b601f01601f19169290920160200192915050565b600081518084526020808501808196508360051b8101915082860160005b858110156138bc5782840389526138aa848351613848565b98850198935090840190600101613892565b5091979650505050505050565b6080815260006138dc60808301876137b3565b6020838203818501526138ef82886137ee565b91506040848303818601528287518085528385019150838901945060005b8181101561393a5761392a83875180518252602090810151910152565b948401949183019160010161390d565b5050858103606087015261394e8188613874565b9a9950505050505050505050565b60006020828403121561396e57600080fd5b5035919050565b60608152600061398860608301866137b3565b828103602084015261399a81866137ee565b905082810360408401526139ae8185613874565b9695505050505050565b600080604083850312156139cb57600080fd5b8235915060208301356139dd81613781565b809150509250929050565b600080604083850312156139fb57600080fd5b8235613a0681613781565b915060208301356139dd81613781565b60008060408385031215613a2957600080fd5b613a3283613725565b946020939093013593505050565b60008060008060808587031215613a5657600080fd5b613a5f85613725565b935060208501359250613a7460408601613754565b9396929550929360600135925050565b8151815260208083015190820152604081016109af565b60008060008060008060c08789031215613ab457600080fd5b863595506020870135613ac681613781565b94506040870135613ad681613781565b93506060870135613ae681613781565b92506080870135613af681613781565b8092505060a087013590509295509295509295565b634e487b7160e01b600052604160045260246000fd5b634e487b7160e01b600052603260045260246000fd5b600060208284031215613b4957600080fd5b815167ffffffffffffffff80821115613b6157600080fd5b818401915084601f830112613b7557600080fd5b815181811115613b8757613b87613b0b565b604051601f8201601f19908116603f01168101908382118183101715613baf57613baf613b0b565b81604052828152876020848701011115613bc857600080fd5b613bd9836020830160208801613824565b979650505050505050565b634e487b7160e01b600052601160045260246000fd5b600060018201613c0c57613c0c613be4565b5060010190565b808201808211156109af576109af613be4565b600060208284031215613c3857600080fd5b5051919050565b80820281158282048414176109af576109af613be4565b600082613c7357634e487b7160e01b600052601260045260246000fd5b500490565b600060208284031215613c8a57600080fd5b81516115a681613781565b600063ffffffff808316818103613cae57613cae613be4565b6001019392505050565b63ffffffff83168152604060208201526000613cd76040830184613848565b949350505050565b600060208284031215613cf157600080fd5b815180151581146115a657600080fd5b818103818111156109af576109af613be4565b600060808284031215613d2657600080fd5b6040516080810181811067ffffffffffffffff82111715613d4957613d49613b0b565b6040528251613d5781613781565b81526020830151613d6781613781565b60208201526040830151613d7a81613781565b60408201526060830151613d8d81613781565b60608201529392505050565b60008251613dab818460208701613824565b9190910192915050565b7f416363657373436f6e74726f6c3a206163636f756e7420000000000000000000815260008351613ded816017850160208801613824565b7f206973206d697373696e6720726f6c65200000000000000000000000000000006017918401918201528351613e2a816028840160208801613824565b01602801949350505050565b6020815260006115a66020830184613848565b600081613e5857613e58613be4565b50600019019056fe41636365737369626c653a2043616c6c6572206973206e6f7420616e2061646da164736f6c6343000812000a",
  "linkReferences": {
    "contracts/libraries/LibOperator.sol": {
      "LibOperator": [
        {
          "length": 20,
          "start": 7591
        }
      ]
    },
    "contracts/libraries/LibOptimism.sol": {
      "LibOptimism": [
        {
          "length": 20,
          "start": 10413
        }
      ]
    }
  },
  "deployedLinkReferences": {
    "contracts/libraries/LibOperator.sol": {
      "LibOperator": [
        {
          "length": 20,
          "start": 7533
        }
      ]
    },
    "contracts/libraries/LibOptimism.sol": {
      "LibOptimism": [
        {
          "length": 20,
          "start": 10355
        }
      ]
    }
  }
}