{
  "_format": "hh-sol-artifact-1",
  "contractName": "Layer2Manager",
  "sourceName": "contracts/Layer2Manager.sol",
  "abi": [
    {
      "inputs": [],
      "stateMutability": "nonpayable",
      "type": "constructor"
    },
    {
      "anonymous": false,
      "inputs": [
        {
          "indexed": false,
          "internalType": "uint32",
          "name": "_index",
          "type": "uint32"
        },
        {
          "indexed": false,
          "internalType": "address",
          "name": "_sequencer",
          "type": "address"
        },
        {
          "indexed": false,
          "internalType": "uint256",
          "name": "amount",
          "type": "uint256"
        }
      ],
      "name": "Claimed",
      "type": "event"
    },
    {
      "anonymous": false,
      "inputs": [
        {
          "indexed": false,
          "internalType": "uint32",
          "name": "_index",
          "type": "uint32"
        },
        {
          "indexed": false,
          "internalType": "address",
          "name": "_operator",
          "type": "address"
        },
        {
          "indexed": false,
          "internalType": "bytes32",
          "name": "_name",
          "type": "bytes32"
        },
        {
          "indexed": false,
          "internalType": "uint32",
          "name": "_sequencerIndex",
          "type": "uint32"
        },
        {
          "indexed": false,
          "internalType": "uint16",
          "name": "_commission",
          "type": "uint16"
        },
        {
          "indexed": false,
          "internalType": "uint256",
          "name": "depositAmount",
          "type": "uint256"
        }
      ],
      "name": "CreatedCandidate",
      "type": "event"
    },
    {
      "anonymous": false,
      "inputs": [
        {
          "indexed": false,
          "internalType": "uint32",
          "name": "_index",
          "type": "uint32"
        },
        {
          "indexed": false,
          "internalType": "address",
          "name": "_sequencer",
          "type": "address"
        },
        {
          "indexed": false,
          "internalType": "bytes32",
          "name": "_name",
          "type": "bytes32"
        },
        {
          "indexed": false,
          "internalType": "address",
          "name": "addressManager",
          "type": "address"
        },
        {
          "indexed": false,
          "internalType": "address",
          "name": "l1Messenger",
          "type": "address"
        },
        {
          "indexed": false,
          "internalType": "address",
          "name": "l1Bridge",
          "type": "address"
        },
        {
          "indexed": false,
          "internalType": "address",
          "name": "l2ton",
          "type": "address"
        },
        {
          "indexed": false,
          "internalType": "uint256",
          "name": "depositAmount",
          "type": "uint256"
        }
      ],
      "name": "CreatedOptimismSequencer",
      "type": "event"
    },
    {
      "anonymous": false,
      "inputs": [
        {
          "indexed": false,
          "internalType": "uint32",
          "name": "_index",
          "type": "uint32"
        },
        {
          "indexed": false,
          "internalType": "address",
          "name": "_sequencer",
          "type": "address"
        },
        {
          "indexed": false,
          "internalType": "uint256",
          "name": "amount",
          "type": "uint256"
        }
      ],
      "name": "DecreasedSecurityDeposit",
      "type": "event"
    },
    {
      "anonymous": false,
      "inputs": [
        {
          "indexed": false,
          "internalType": "uint256",
          "name": "_totalSeigs",
          "type": "uint256"
        },
        {
          "indexed": false,
          "internalType": "uint256",
          "name": "_distributedAmount",
          "type": "uint256"
        }
      ],
      "name": "Distributed",
      "type": "event"
    },
    {
      "anonymous": false,
      "inputs": [
        {
          "indexed": false,
          "internalType": "uint32",
          "name": "_index",
          "type": "uint32"
        },
        {
          "indexed": false,
          "internalType": "address",
          "name": "caller",
          "type": "address"
        },
        {
          "indexed": false,
          "internalType": "uint256",
          "name": "amount",
          "type": "uint256"
        }
      ],
      "name": "IncreasedSecurityDeposit",
      "type": "event"
    },
    {
      "anonymous": false,
      "inputs": [
        {
          "indexed": true,
          "internalType": "bytes32",
          "name": "role",
          "type": "bytes32"
        },
        {
          "indexed": true,
          "internalType": "bytes32",
          "name": "previousAdminRole",
          "type": "bytes32"
        },
        {
          "indexed": true,
          "internalType": "bytes32",
          "name": "newAdminRole",
          "type": "bytes32"
        }
      ],
      "name": "RoleAdminChanged",
      "type": "event"
    },
    {
      "anonymous": false,
      "inputs": [
        {
          "indexed": true,
          "internalType": "bytes32",
          "name": "role",
          "type": "bytes32"
        },
        {
          "indexed": true,
          "internalType": "address",
          "name": "account",
          "type": "address"
        },
        {
          "indexed": true,
          "internalType": "address",
          "name": "sender",
          "type": "address"
        }
      ],
      "name": "RoleGranted",
      "type": "event"
    },
    {
      "anonymous": false,
      "inputs": [
        {
          "indexed": true,
          "internalType": "bytes32",
          "name": "role",
          "type": "bytes32"
        },
        {
          "indexed": true,
          "internalType": "address",
          "name": "account",
          "type": "address"
        },
        {
          "indexed": true,
          "internalType": "address",
          "name": "sender",
          "type": "address"
        }
      ],
      "name": "RoleRevoked",
      "type": "event"
    },
    {
      "inputs": [],
      "name": "ADMIN_ROLE",
      "outputs": [
        {
          "internalType": "bytes32",
          "name": "",
          "type": "bytes32"
        }
      ],
      "stateMutability": "view",
      "type": "function"
    },
    {
      "inputs": [],
      "name": "DEFAULT_ADMIN_ROLE",
      "outputs": [
        {
          "internalType": "bytes32",
          "name": "",
          "type": "bytes32"
        }
      ],
      "stateMutability": "view",
      "type": "function"
    },
    {
      "inputs": [],
      "name": "POLICY_ROLE",
      "outputs": [
        {
          "internalType": "bytes32",
          "name": "",
          "type": "bytes32"
        }
      ],
      "stateMutability": "view",
      "type": "function"
    },
    {
      "inputs": [
        {
          "internalType": "address",
          "name": "account",
          "type": "address"
        }
      ],
      "name": "addAdmin",
      "outputs": [],
      "stateMutability": "nonpayable",
      "type": "function"
    },
    {
      "inputs": [
        {
          "internalType": "uint256",
          "name": "amount",
          "type": "uint256"
        }
      ],
      "name": "addSeigs",
      "outputs": [
        {
          "internalType": "bool",
          "name": "",
          "type": "bool"
        }
      ],
      "stateMutability": "nonpayable",
      "type": "function"
    },
    {
      "inputs": [
        {
          "internalType": "address",
          "name": "",
          "type": "address"
        }
      ],
      "name": "aliveImplementation",
      "outputs": [
        {
          "internalType": "bool",
          "name": "",
          "type": "bool"
        }
      ],
      "stateMutability": "view",
      "type": "function"
    },
    {
      "inputs": [
        {
          "internalType": "address",
          "name": "account",
          "type": "address"
        }
      ],
      "name": "balanceOfLton",
      "outputs": [
        {
          "internalType": "uint256",
          "name": "amount",
          "type": "uint256"
        }
      ],
      "stateMutability": "view",
      "type": "function"
    },
    {
      "inputs": [],
      "name": "candidate",
      "outputs": [
        {
          "internalType": "address",
          "name": "",
          "type": "address"
        }
      ],
      "stateMutability": "view",
      "type": "function"
    },
    {
      "inputs": [
        {
          "internalType": "uint32",
          "name": "",
          "type": "uint32"
        }
      ],
      "name": "candidateNames",
      "outputs": [
        {
          "internalType": "bytes32",
          "name": "",
          "type": "bytes32"
        }
      ],
      "stateMutability": "view",
      "type": "function"
    },
    {
      "inputs": [
        {
          "internalType": "uint256",
          "name": "",
          "type": "uint256"
        }
      ],
      "name": "candidatesIndexes",
      "outputs": [
        {
          "internalType": "uint32",
          "name": "",
          "type": "uint32"
        }
      ],
      "stateMutability": "view",
      "type": "function"
    },
    {
      "inputs": [
        {
          "internalType": "uint32",
          "name": "_layerIndex",
          "type": "uint32"
        }
      ],
      "name": "claim",
      "outputs": [],
      "stateMutability": "nonpayable",
      "type": "function"
    },
    {
      "inputs": [
        {
          "internalType": "uint32",
          "name": "_sequencerIndex",
          "type": "uint32"
        },
        {
          "internalType": "bytes32",
          "name": "_name",
          "type": "bytes32"
        },
        {
          "internalType": "uint16",
          "name": "_commission",
          "type": "uint16"
        },
        {
          "internalType": "uint256",
          "name": "amount",
          "type": "uint256"
        }
      ],
      "name": "createCandidate",
      "outputs": [],
      "stateMutability": "nonpayable",
      "type": "function"
    },
    {
      "inputs": [
        {
          "internalType": "bytes32",
          "name": "_name",
          "type": "bytes32"
        },
        {
          "internalType": "address",
          "name": "addressManager",
          "type": "address"
        },
        {
          "internalType": "address",
          "name": "l1Messenger",
          "type": "address"
        },
        {
          "internalType": "address",
          "name": "l1Bridge",
          "type": "address"
        },
        {
          "internalType": "address",
          "name": "l2ton",
          "type": "address"
        },
        {
          "internalType": "uint256",
          "name": "amount",
          "type": "uint256"
        }
      ],
      "name": "createOptimismSequencer",
      "outputs": [],
      "stateMutability": "nonpayable",
      "type": "function"
    },
    {
      "inputs": [],
      "name": "curTotalAmountsLayer2",
      "outputs": [
        {
          "internalType": "uint256",
          "name": "amount",
          "type": "uint256"
        }
      ],
      "stateMutability": "view",
      "type": "function"
    },
    {
      "inputs": [],
      "name": "curTotalLayer2Deposits",
      "outputs": [
        {
          "internalType": "uint256",
          "name": "amount",
          "type": "uint256"
        }
      ],
      "stateMutability": "view",
      "type": "function"
    },
    {
      "inputs": [
        {
          "internalType": "uint32",
          "name": "_layerIndex",
          "type": "uint32"
        }
      ],
      "name": "curlayer2DepositsOf",
      "outputs": [
        {
          "internalType": "uint256",
          "name": "amount",
          "type": "uint256"
        }
      ],
      "stateMutability": "view",
      "type": "function"
    },
    {
      "inputs": [
        {
          "internalType": "uint32",
          "name": "_sequencerIndex",
          "type": "uint32"
        },
        {
          "internalType": "uint256",
          "name": "amount",
          "type": "uint256"
        }
      ],
      "name": "decreaseSecurityDeposit",
      "outputs": [],
      "stateMutability": "nonpayable",
      "type": "function"
    },
    {
      "inputs": [],
      "name": "delayBlocksForWithdraw",
      "outputs": [
        {
          "internalType": "uint256",
          "name": "",
          "type": "uint256"
        }
      ],
      "stateMutability": "view",
      "type": "function"
    },
    {
      "inputs": [
        {
          "internalType": "uint32",
          "name": "_layerIndex",
          "type": "uint32"
        }
      ],
      "name": "depositsOf",
      "outputs": [
        {
          "internalType": "uint256",
          "name": "amount",
          "type": "uint256"
        }
      ],
      "stateMutability": "view",
      "type": "function"
    },
    {
      "inputs": [],
      "name": "distribute",
      "outputs": [],
      "stateMutability": "nonpayable",
      "type": "function"
    },
    {
      "inputs": [
        {
          "internalType": "uint32",
          "name": "_index",
          "type": "uint32"
        }
      ],
      "name": "existedCandidateIndex",
      "outputs": [
        {
          "internalType": "bool",
          "name": "exist_",
          "type": "bool"
        }
      ],
      "stateMutability": "view",
      "type": "function"
    },
    {
      "inputs": [
        {
          "internalType": "uint32",
          "name": "_index",
          "type": "uint32"
        }
      ],
      "name": "existedLayer2Index",
      "outputs": [
        {
          "internalType": "bool",
          "name": "exist_",
          "type": "bool"
        }
      ],
      "stateMutability": "view",
      "type": "function"
    },
    {
      "inputs": [],
      "name": "getAllCandidates",
      "outputs": [
        {
          "internalType": "bytes32[]",
          "name": "candidateNames_",
          "type": "bytes32[]"
        },
        {
          "internalType": "uint32[]",
          "name": "candidateNamesIndexes_",
          "type": "uint32[]"
        },
        {
          "internalType": "bytes[]",
          "name": "infos_",
          "type": "bytes[]"
        }
      ],
      "stateMutability": "view",
      "type": "function"
    },
    {
      "inputs": [],
      "name": "getAllLayers",
      "outputs": [
        {
          "internalType": "bytes32[]",
          "name": "optimismSequencerNames_",
          "type": "bytes32[]"
        },
        {
          "internalType": "uint32[]",
          "name": "optimismSequencerIndexes_",
          "type": "uint32[]"
        },
        {
          "components": [
            {
              "internalType": "uint256",
              "name": "securityDeposit",
              "type": "uint256"
            },
            {
              "internalType": "uint256",
              "name": "seigs",
              "type": "uint256"
            }
          ],
          "internalType": "struct Layer2.Layer2Holdings[]",
          "name": "holdings_",
          "type": "tuple[]"
        },
        {
          "internalType": "bytes[]",
          "name": "infos_",
          "type": "bytes[]"
        }
      ],
      "stateMutability": "view",
      "type": "function"
    },
    {
      "inputs": [
        {
          "internalType": "bytes32",
          "name": "role",
          "type": "bytes32"
        }
      ],
      "name": "getRoleAdmin",
      "outputs": [
        {
          "internalType": "bytes32",
          "name": "",
          "type": "bytes32"
        }
      ],
      "stateMutability": "view",
      "type": "function"
    },
    {
      "inputs": [
        {
          "internalType": "bytes32",
          "name": "role",
          "type": "bytes32"
        },
        {
          "internalType": "address",
          "name": "account",
          "type": "address"
        }
      ],
      "name": "grantRole",
      "outputs": [],
      "stateMutability": "nonpayable",
      "type": "function"
    },
    {
      "inputs": [
        {
          "internalType": "bytes32",
          "name": "role",
          "type": "bytes32"
        },
        {
          "internalType": "address",
          "name": "account",
          "type": "address"
        }
      ],
      "name": "hasRole",
      "outputs": [
        {
          "internalType": "bool",
          "name": "",
          "type": "bool"
        }
      ],
      "stateMutability": "view",
      "type": "function"
    },
    {
      "inputs": [
        {
          "internalType": "uint32",
          "name": "",
          "type": "uint32"
        }
      ],
      "name": "holdings",
      "outputs": [
        {
          "internalType": "uint256",
          "name": "securityDeposit",
          "type": "uint256"
        },
        {
          "internalType": "uint256",
          "name": "seigs",
          "type": "uint256"
        }
      ],
      "stateMutability": "view",
      "type": "function"
    },
    {
      "inputs": [
        {
          "internalType": "uint32",
          "name": "_sequencerIndex",
          "type": "uint32"
        },
        {
          "internalType": "uint256",
          "name": "amount",
          "type": "uint256"
        }
      ],
      "name": "increaseSecurityDeposit",
      "outputs": [],
      "stateMutability": "nonpayable",
      "type": "function"
    },
    {
      "inputs": [],
      "name": "indexCandidates",
      "outputs": [
        {
          "internalType": "uint32",
          "name": "",
          "type": "uint32"
        }
      ],
      "stateMutability": "view",
      "type": "function"
    },
    {
      "inputs": [],
      "name": "indexSequencers",
      "outputs": [
        {
          "internalType": "uint32",
          "name": "",
          "type": "uint32"
        }
      ],
      "stateMutability": "view",
      "type": "function"
    },
    {
      "inputs": [
        {
          "internalType": "address",
          "name": "account",
          "type": "address"
        }
      ],
      "name": "isAdmin",
      "outputs": [
        {
          "internalType": "bool",
          "name": "",
          "type": "bool"
        }
      ],
      "stateMutability": "view",
      "type": "function"
    },
    {
      "inputs": [
        {
          "internalType": "uint32",
          "name": "layerKey_",
          "type": "uint32"
        }
      ],
      "name": "layerHoldings",
      "outputs": [
        {
          "components": [
            {
              "internalType": "uint256",
              "name": "securityDeposit",
              "type": "uint256"
            },
            {
              "internalType": "uint256",
              "name": "seigs",
              "type": "uint256"
            }
          ],
          "internalType": "struct Layer2.Layer2Holdings",
          "name": "",
          "type": "tuple"
        }
      ],
      "stateMutability": "view",
      "type": "function"
    },
    {
      "inputs": [
        {
          "internalType": "bytes32",
          "name": "",
          "type": "bytes32"
        }
      ],
      "name": "layerKeys",
      "outputs": [
        {
          "internalType": "bool",
          "name": "",
          "type": "bool"
        }
      ],
      "stateMutability": "view",
      "type": "function"
    },
    {
      "inputs": [],
      "name": "maxLayer2Count",
      "outputs": [
        {
          "internalType": "uint256",
          "name": "",
          "type": "uint256"
        }
      ],
      "stateMutability": "view",
      "type": "function"
    },
    {
      "inputs": [],
      "name": "minimumDepositForCandidate",
      "outputs": [
        {
          "internalType": "uint256",
          "name": "",
          "type": "uint256"
        }
      ],
      "stateMutability": "view",
      "type": "function"
    },
    {
      "inputs": [],
      "name": "minimumDepositForSequencer",
      "outputs": [
        {
          "internalType": "uint256",
          "name": "",
          "type": "uint256"
        }
      ],
      "stateMutability": "view",
      "type": "function"
    },
    {
      "inputs": [
        {
          "internalType": "address",
          "name": "l1Bridge",
          "type": "address"
        },
        {
          "internalType": "address",
          "name": "l2ton",
          "type": "address"
        }
      ],
      "name": "minimumSecurityDepositAmount",
      "outputs": [
        {
          "internalType": "uint256",
          "name": "amount",
          "type": "uint256"
        }
      ],
      "stateMutability": "view",
      "type": "function"
    },
    {
      "inputs": [],
      "name": "optimismSequencer",
      "outputs": [
        {
          "internalType": "address",
          "name": "",
          "type": "address"
        }
      ],
      "stateMutability": "view",
      "type": "function"
    },
    {
      "inputs": [
        {
          "internalType": "uint256",
          "name": "",
          "type": "uint256"
        }
      ],
      "name": "optimismSequencerIndexes",
      "outputs": [
        {
          "internalType": "uint32",
          "name": "",
          "type": "uint32"
        }
      ],
      "stateMutability": "view",
      "type": "function"
    },
    {
      "inputs": [
        {
          "internalType": "uint32",
          "name": "",
          "type": "uint32"
        }
      ],
      "name": "optimismSequencerNames",
      "outputs": [
        {
          "internalType": "bytes32",
          "name": "",
          "type": "bytes32"
        }
      ],
      "stateMutability": "view",
      "type": "function"
    },
    {
      "inputs": [],
      "name": "pauseProxy",
      "outputs": [
        {
          "internalType": "bool",
          "name": "",
          "type": "bool"
        }
      ],
      "stateMutability": "view",
      "type": "function"
    },
    {
      "inputs": [
        {
          "internalType": "uint256",
          "name": "",
          "type": "uint256"
        }
      ],
      "name": "proxyImplementation",
      "outputs": [
        {
          "internalType": "address",
          "name": "",
          "type": "address"
        }
      ],
      "stateMutability": "view",
      "type": "function"
    },
    {
      "inputs": [],
      "name": "ratioSecurityDepositOfTvl",
      "outputs": [
        {
          "internalType": "uint16",
          "name": "",
          "type": "uint16"
        }
      ],
      "stateMutability": "view",
      "type": "function"
    },
    {
      "inputs": [
        {
          "internalType": "address",
          "name": "account",
          "type": "address"
        }
      ],
      "name": "removeAdmin",
      "outputs": [],
      "stateMutability": "nonpayable",
      "type": "function"
    },
    {
      "inputs": [
        {
          "internalType": "bytes32",
          "name": "role",
          "type": "bytes32"
        },
        {
          "internalType": "address",
          "name": "account",
          "type": "address"
        }
      ],
      "name": "renounceRole",
      "outputs": [],
      "stateMutability": "nonpayable",
      "type": "function"
    },
    {
      "inputs": [
        {
          "internalType": "bytes32",
          "name": "role",
          "type": "bytes32"
        },
        {
          "internalType": "address",
          "name": "account",
          "type": "address"
        }
      ],
      "name": "revokeRole",
      "outputs": [],
      "stateMutability": "nonpayable",
      "type": "function"
    },
    {
      "inputs": [],
      "name": "seigManagerV2",
      "outputs": [
        {
          "internalType": "address",
          "name": "",
          "type": "address"
        }
      ],
      "stateMutability": "view",
      "type": "function"
    },
    {
      "inputs": [
        {
          "internalType": "bytes4",
          "name": "",
          "type": "bytes4"
        }
      ],
      "name": "selectorImplementation",
      "outputs": [
        {
          "internalType": "address",
          "name": "",
          "type": "address"
        }
      ],
      "stateMutability": "view",
      "type": "function"
    },
    {
      "inputs": [
        {
          "internalType": "uint32",
          "name": "_layerIndex",
          "type": "uint32"
        }
      ],
      "name": "sequencer",
      "outputs": [
        {
          "internalType": "address",
          "name": "sequencer_",
          "type": "address"
        }
      ],
      "stateMutability": "view",
      "type": "function"
    },
    {
      "inputs": [
        {
          "internalType": "uint256",
          "name": "_delayBlocksForWithdraw",
          "type": "uint256"
        }
      ],
      "name": "setDelayBlocksForWithdraw",
      "outputs": [],
      "stateMutability": "nonpayable",
      "type": "function"
    },
    {
      "inputs": [
        {
          "internalType": "uint256",
          "name": "_maxLayer2Count",
          "type": "uint256"
        }
      ],
      "name": "setMaxLayer2Count",
      "outputs": [],
      "stateMutability": "nonpayable",
      "type": "function"
    },
    {
      "inputs": [
        {
          "internalType": "uint256",
          "name": "_minimumDepositForCandidate",
          "type": "uint256"
        }
      ],
      "name": "setMinimumDepositForCandidate",
      "outputs": [],
      "stateMutability": "nonpayable",
      "type": "function"
    },
    {
      "inputs": [
        {
          "internalType": "uint256",
          "name": "_minimumDepositForSequencer",
          "type": "uint256"
        }
      ],
      "name": "setMinimumDepositForSequencer",
      "outputs": [],
      "stateMutability": "nonpayable",
      "type": "function"
    },
    {
      "inputs": [
        {
          "internalType": "uint16",
          "name": "_ratioSecurityDepositOfTvl",
          "type": "uint16"
        }
      ],
      "name": "setRatioSecurityDepositOfTvl",
      "outputs": [],
      "stateMutability": "nonpayable",
      "type": "function"
    },
    {
      "inputs": [
        {
          "internalType": "bytes4",
          "name": "interfaceId",
          "type": "bytes4"
        }
      ],
      "name": "supportsInterface",
      "outputs": [
        {
          "internalType": "bool",
          "name": "",
          "type": "bool"
        }
      ],
      "stateMutability": "view",
      "type": "function"
    },
    {
      "inputs": [],
      "name": "ton",
      "outputs": [
        {
          "internalType": "contract IERC20",
          "name": "",
          "type": "address"
        }
      ],
      "stateMutability": "view",
      "type": "function"
    },
    {
      "inputs": [],
      "name": "totalCandidates",
      "outputs": [
        {
          "internalType": "uint256",
          "name": "total",
          "type": "uint256"
        }
      ],
      "stateMutability": "view",
      "type": "function"
    },
    {
      "inputs": [],
      "name": "totalLayers",
      "outputs": [
        {
          "internalType": "uint256",
          "name": "total",
          "type": "uint256"
        }
      ],
      "stateMutability": "view",
      "type": "function"
    },
    {
      "inputs": [],
      "name": "totalSecurityDeposit",
      "outputs": [
        {
          "internalType": "uint256",
          "name": "",
          "type": "uint256"
        }
      ],
      "stateMutability": "view",
      "type": "function"
    },
    {
      "inputs": [],
      "name": "totalSeigs",
      "outputs": [
        {
          "internalType": "uint256",
          "name": "",
          "type": "uint256"
        }
      ],
      "stateMutability": "view",
      "type": "function"
    },
    {
      "inputs": [
        {
          "internalType": "address",
          "name": "newAdmin",
          "type": "address"
        }
      ],
      "name": "transferAdmin",
      "outputs": [],
      "stateMutability": "nonpayable",
      "type": "function"
    }
  ],
  "bytecode": "0x60806040526015805460ff60501b19166a010000000000000000000017905534801561002a57600080fd5b50613dfe8061003a6000396000f3fe608060405234801561001057600080fd5b50600436106103ba5760003560e01c806370480275116101f4578063b911135f1161011a578063da0dc135116100ad578063e99e36161161007c578063e99e36161461093c578063f2a7d7121461094f578063f71bf33a14610962578063fee539b71461096b57600080fd5b8063da0dc135146108f6578063e0ef2a7f14610909578063e12a62191461092c578063e4fc6b6d1461093457600080fd5b8063d37c6d69116100e9578063d37c6d69146108a7578063d48ddf04146108b0578063d547741f146108d0578063d639ff83146108e357600080fd5b8063b911135f1461083a578063c14241b914610863578063caef64e61461088b578063cc48b9471461089457600080fd5b80638d5d8e5511610192578063a4dd8b7d11610161578063a4dd8b7d146107ac578063a73ddaab146107b5578063ab8930a5146107c8578063ae9046ca1461082757600080fd5b80638d5d8e551461074a57806391d148541461075a578063963807a814610791578063a217fddf146107a457600080fd5b806375b238fc116101ce57806375b238fc146106f55780638935af9a1461071c5780638cc193a51461072f5780638d1f3d0a1461073757600080fd5b806370480275146106bc57806373469a7a146106cf57806375829def146106e257600080fd5b80633bd0c19f116102e457806357bc1df01161027757806363e6f0d81161024657806363e6f0d81461067b5780636b48235f146106835780636c8381f8146106965780636e1ef23a146106a957600080fd5b806357bc1df01461063a5780635b1f335f146106525780635d170f8f1461065b57806363a8fd891461066e57600080fd5b80634c76e6c8116102b35780634c76e6c8146105b05780634c7825bb146105c357806350d2a276146105d6578063550d01a31461061757600080fd5b80633bd0c19f1461054c5780634339da1c1461057457806346551ece14610587578063499ad9da146105a757600080fd5b80631c2833211161035c5780632e6997fe1161032b5780632e6997fe146105075780632f2ff15d1461051e57806336568abe146105315780633866965c1461054457600080fd5b80631c28332114610489578063229852461461049c578063248a9ca3146104d157806324d7806c146104f457600080fd5b8063091e3be311610398578063091e3be3146104385780631785f53c1461044b57806319a93b881461045e5780631a4f1eb91461047657600080fd5b806301ffc9a7146103bf57806304196138146103e75780630495189114610423575b600080fd5b6103d26103cd36600461366c565b61097e565b60405190151581526020015b60405180910390f35b61040e6103f53660046136aa565b6012602052600090815260409020805460019091015482565b604080519283526020830191909152016103de565b6104366104313660046136aa565b6109b5565b005b6104366104463660046136d7565b610b5d565b610436610459366004613707565b610c1a565b610466610c95565b6040516103de949392919061383a565b6104366104843660046138cd565b61100d565b6103d26104973660046138cd565b61109a565b6104c37ffb5864e8ff833c3cb2d2d08505e82ff02a43554c74a35d4f5a64e8526127831181565b6040519081526020016103de565b6104c36104df3660046138cd565b60009081526020819052604090206001015490565b6103d2610502366004613707565b61111d565b61050f61115d565b6040516103de939291906138e6565b61043661052c366004613929565b6113dd565b61043661053f366004613929565b611407565b6014546104c3565b61055f61055a3660046138cd565b611493565b60405163ffffffff90911681526020016103de565b61055f6105823660046138cd565b6114cd565b6104c36105953660046136aa565b60106020526000908152604090205481565b6104c3600e5481565b6104c36105be366004613959565b6114dd565b6104c36105d13660046136aa565b6115ad565b6105ff6105e436600461366c565b6004602052600090815260409020546001600160a01b031681565b6040516001600160a01b0390911681526020016103de565b6103d2610625366004613707565b60036020526000908152604090205460ff1681565b60155461055f90640100000000900463ffffffff1681565b6104c3600d5481565b6103d26106693660046136aa565b6115b8565b6001546103d29060ff1681565b600f546104c3565b610436610691366004613987565b6115df565b6008546105ff906001600160a01b031681565b6103d26106b73660046136aa565b611772565b6104366106ca366004613707565b611790565b6006546105ff906001600160a01b031681565b6104366106f0366004613707565b611808565b6104c37fdf8b4c520ffe197c5343c6f5aec59570151ef9a492f2c624fd45ddde6135ec4281565b61043661072a3660046138cd565b611958565b6104c36119e5565b6105ff6107453660046136aa565b611ac5565b60155461055f9063ffffffff1681565b6103d2610768366004613929565b6000918252602082815260408084206001600160a01b0393909316845291905290205460ff1690565b61043661079f3660046139b1565b611b4d565b6104c3600081565b6104c3600a5481565b6104366107c33660046138cd565b612138565b61081a6107d63660046136aa565b60408051808201909152600080825260208201525063ffffffff16600090815260126020908152604091829020825180840190935280548352600101549082015290565b6040516103de91906139f5565b6104c36108353660046136aa565b6121fc565b6105ff6108483660046138cd565b6002602052600090815260409020546001600160a01b031681565b60155461087890600160401b900461ffff1681565b60405161ffff90911681526020016103de565b6104c3600b5481565b6005546105ff906001600160a01b031681565b6104c3600c5481565b6104c36108be3660046136aa565b60116020526000908152604090205481565b6104366108de366004613929565b6122a4565b6104366108f13660046138cd565b6122c9565b6007546105ff906001600160a01b031681565b6103d26109173660046138cd565b60136020526000908152604090205460ff1681565b6104c3612356565b610436612372565b61043661094a366004613a0c565b61267a565b61043661095d366004613987565b612c93565b6104c360095481565b6104c3610979366004613707565b612fd1565b60006001600160e01b03198216637965db0b60e01b14806109af57506301ffc9a760e01b6001600160e01b03198316145b92915050565b63ffffffff811660009081526012602052604081206001015490819003610a235760405162461bcd60e51b815260206004820152601260248201527f6e6f20616d6f756e7420746f20636c61696d000000000000000000000000000060448201526064015b60405180910390fd5b6000610a2e83611ac5565b90506001600160a01b038116610a865760405162461bcd60e51b815260206004820152600e60248201527f7a65726f2073657175656e6365720000000000000000000000000000000000006044820152606401610a1a565b63ffffffff8316600090815260126020526040808220600101919091556006549051635569f64b60e11b81526001600160a01b038381166004830152602482018590529091169063aad3ec9690604401600060405180830381600087803b158015610af057600080fd5b505af1158015610b04573d6000803e3d6000fd5b50506040805163ffffffff871681526001600160a01b03851660208201529081018590527fdc8b8058bd26d719cc330a54461930fd9c312dd28447313fd5dc4641513e00749250606001905060405180910390a1505050565b610b663361111d565b610bab5760405162461bcd60e51b81526020600482015260226024820152600080516020613dd283398151915260448201526134b760f11b6064820152608401610a1a565b60155461ffff808316600160401b9092041603610bf35760405162461bcd60e51b8152600401610a1a9060208082526004908201526373616d6560e01b604082015260600190565b6015805461ffff909216600160401b0269ffff000000000000000019909216919091179055565b610c233361111d565b610c685760405162461bcd60e51b81526020600482015260226024820152600080516020613dd283398151915260448201526134b760f11b6064820152608401610a1a565b610c927fdf8b4c520ffe197c5343c6f5aec59570151ef9a492f2c624fd45ddde6135ec4282611407565b50565b600f546060908190819081908067ffffffffffffffff811115610cba57610cba613a7c565b604051908082528060200260200182016040528015610ce3578160200160208202803683370190505b50600f805460408051602080840282018101909252828152939850830182828015610d5957602002820191906000526020600020906000905b82829054906101000a900463ffffffff1663ffffffff1681526020019060040190602082600301049283019260010382029150808411610d1c5790505b505050505093508067ffffffffffffffff811115610d7957610d79613a7c565b604051908082528060200260200182016040528015610dbe57816020015b6040805180820190915260008082526020820152815260200190600190039081610d975790505b5092508067ffffffffffffffff811115610dda57610dda613a7c565b604051908082528060200260200182016040528015610e0d57816020015b6060815260200190600190039081610df85790505b50915060005b818110156110055760106000600f8381548110610e3257610e32613a92565b90600052602060002090600891828204019190066004029054906101000a900463ffffffff1663ffffffff1663ffffffff16815260200190815260200160002054868281518110610e8557610e85613a92565b60200260200101818152505060126000600f8381548110610ea857610ea8613a92565b90600052602060002090600891828204019190066004029054906101000a900463ffffffff1663ffffffff1663ffffffff16815260200190815260200160002060405180604001604052908160008201548152602001600182015481525050848281518110610f1957610f19613a92565b6020908102919091010152600754600f80546001600160a01b039092169163659ab820919084908110610f4e57610f4e613a92565b6000918252602090912060088204015460405160e084901b6001600160e01b0319168152600790921660049081026101000a90910463ffffffff1690820152602401600060405180830381865afa158015610fad573d6000803e3d6000fd5b505050506040513d6000823e601f3d908101601f19168201604052610fd59190810190613aa8565b838281518110610fe757610fe7613a92565b60200260200101819052508080610ffd90613b6b565b915050610e13565b505090919293565b6110163361111d565b61105b5760405162461bcd60e51b81526020600482015260226024820152600080516020613dd283398151915260448201526134b760f11b6064820152608401610a1a565b80600b54036110955760405162461bcd60e51b8152600401610a1a9060208082526004908201526373616d6560e01b604082015260600190565b600b55565b6006546000906001600160a01b031633146110f75760405162461bcd60e51b815260206004820152601b60248201527f63616c6c6572206973206e6f7420536569674d616e61676572563200000000006044820152606401610a1a565b81156111155781600e600082825461110f9190613b84565b90915550505b506001919050565b6001600160a01b03811660009081527f5cbfc8ee58ca47855df7bcf648dd304ddb6b932f9b87878bdf6318d7ec7ee5b7602052604081205460ff166109af565b601454606090819081908067ffffffffffffffff81111561118057611180613a7c565b6040519080825280602002602001820160405280156111a9578160200160208202803683370190505b50601480546040805160208084028201810190925282815293975083018282801561121f57602002820191906000526020600020906000905b82829054906101000a900463ffffffff1663ffffffff16815260200190600401906020826003010492830192600103820291508084116111e25790505b505050505092508067ffffffffffffffff81111561123f5761123f613a7c565b60405190808252806020026020018201604052801561127257816020015b606081526020019060019003908161125d5790505b50915060005b818110156113d657601160006014838154811061129757611297613a92565b90600052602060002090600891828204019190066004029054906101000a900463ffffffff1663ffffffff1663ffffffff168152602001908152602001600020548582815181106112ea576112ea613a92565b6020908102919091010152600854601480546001600160a01b039092169163659ab82091908490811061131f5761131f613a92565b6000918252602090912060088204015460405160e084901b6001600160e01b0319168152600790921660049081026101000a90910463ffffffff1690820152602401600060405180830381865afa15801561137e573d6000803e3d6000fd5b505050506040513d6000823e601f3d908101601f191682016040526113a69190810190613aa8565b8382815181106113b8576113b8613a92565b602002602001018190525080806113ce90613b6b565b915050611278565b5050909192565b6000828152602081905260409020600101546113f8816130c2565b61140283836130cc565b505050565b6001600160a01b03811633146114855760405162461bcd60e51b815260206004820152602f60248201527f416363657373436f6e74726f6c3a2063616e206f6e6c792072656e6f756e636560448201527f20726f6c657320666f722073656c6600000000000000000000000000000000006064820152608401610a1a565b61148f828261316a565b5050565b601481815481106114a357600080fd5b9060005260206000209060089182820401919006600402915054906101000a900463ffffffff1681565b600f81815481106114a357600080fd5b601554600090600160401b900461ffff1681036114fd57506009546109af565b60155460075460405163edcc217760e01b81526001600160a01b03868116600483015285811660248301526115a69361271093600160401b90910461ffff169291169063edcc217790604401602060405180830381865afa158015611566573d6000803e3d6000fd5b505050506040513d601f19601f8201168201806040525081019061158a9190613b97565b6115949190613bb0565b61159e9190613bc7565b6009546131e9565b9392505050565b60006109af826121fc565b60155460009063ffffffff6401000000009091048116908316116115da575060015b919050565b601554600160501b900460ff166116215760405162461bcd60e51b8152600401610a1a906020808252600490820152636c6f636b60e01b604082015260600190565b6015805460ff60501b191690558163ffffffff811660000361166a5760405162461bcd60e51b81526020600482015260026024820152615a3160f01b6044820152606401610a1a565b60155463ffffffff90811690841611156116b45760405162461bcd60e51b815260206004820152600b60248201526a0eee4dedcce40d2dcc8caf60ab1b6044820152606401610a1a565b6005546116cc906001600160a01b03163330856131ff565b63ffffffff831660009081526012602052604081208054909184918391906116f5908490613b84565b9250508190555082600d600082825461170e9190613b84565b90915550506040805163ffffffff861681523360208201529081018490527f75d95e3e2cd0899a7e9451555815404d25586e691502bc69417edacc489173a69060600160405180910390a150506015805460ff60501b1916600160501b1790555050565b60155460009063ffffffff908116908316116115da57506001919050565b6117993361111d565b6117de5760405162461bcd60e51b81526020600482015260226024820152600080516020613dd283398151915260448201526134b760f11b6064820152608401610a1a565b610c927fdf8b4c520ffe197c5343c6f5aec59570151ef9a492f2c624fd45ddde6135ec42826113dd565b6118113361111d565b6118565760405162461bcd60e51b81526020600482015260226024820152600080516020613dd283398151915260448201526134b760f11b6064820152608401610a1a565b6001600160a01b0381166118ac5760405162461bcd60e51b815260206004820152601860248201527f41636365737369626c653a207a65726f206164647265737300000000000000006044820152606401610a1a565b6001600160a01b03811633036119045760405162461bcd60e51b815260206004820152601660248201527f41636365737369626c653a2073616d652061646d696e000000000000000000006044820152606401610a1a565b61192e7fdf8b4c520ffe197c5343c6f5aec59570151ef9a492f2c624fd45ddde6135ec42826113dd565b610c927fdf8b4c520ffe197c5343c6f5aec59570151ef9a492f2c624fd45ddde6135ec4233611407565b6119613361111d565b6119a65760405162461bcd60e51b81526020600482015260226024820152600080516020613dd283398151915260448201526134b760f11b6064820152608401610a1a565b80600954036119e05760405162461bcd60e51b8152600401610a1a9060208082526004908201526373616d6560e01b604082015260600190565b600955565b600f54600090815b81811015611ac057600754600f80546001600160a01b03909216916341e5dbe8919084908110611a1f57611a1f613a92565b6000918252602090912060088204015460405160e084901b6001600160e01b0319168152600790921660049081026101000a90910463ffffffff1690820152602401602060405180830381865afa158015611a7e573d6000803e3d6000fd5b505050506040513d601f19601f82011682018060405250810190611aa29190613b97565b611aac9084613b84565b925080611ab881613b6b565b9150506119ed565b505090565b60155460009063ffffffff908116908316116115da5760075460405163468f9e8560e11b815263ffffffff841660048201526001600160a01b0390911690638d1f3d0a90602401602060405180830381865afa158015611b29573d6000803e3d6000fd5b505050506040513d601f19601f820116820180604052508101906109af9190613be9565b838063ffffffff16600003611b895760405162461bcd60e51b81526020600482015260026024820152615a3160f01b6044820152606401610a1a565b601554600160501b900460ff16611bcb5760405162461bcd60e51b8152600401610a1a906020808252600490820152636c6f636b60e01b604082015260600190565b6015805460ff60501b19811690915563ffffffff9081169086161115611c215760405162461bcd60e51b815260206004820152600b60248201526a0eee4dedcce40d2dcc8caf60ab1b6044820152606401610a1a565b604051633be35f5f60e21b815233600482015263ffffffff8616602482015260009073__$d436d56fec194dfaaabaf06742f0275c03$__9063ef8d7d7c90604401602060405180830381865af4158015611c7f573d6000803e3d6000fd5b505050506040513d601f19601f82011682018060405250810190611ca39190613b97565b60008181526013602052604090205490915060ff1615611cf75760405162461bcd60e51b815260206004820152600f60248201526e185b1c9958591e4818dc99585d1959608a1b6044820152606401610a1a565b600a54831015611d495760405162461bcd60e51b815260206004820152601f60248201527f7365637572697479206465706f73697420697320696e737566666963656e74006044820152606401610a1a565b6000818152601360205260408120805460ff1916600117905560158054600490611d819063ffffffff64010000000090910416613c06565b825461010092830a63ffffffff818102199092168383169182021790945560148054600181019091557fce6d7b5282bd9a3661ae061feed1dbda4e52ab073b1f9285be6e155d9c38d4ec60088204018054600790921660040290940a91820219169084021790915560009182526011602052604090912087905590508315611e1b57600554611e1b906001600160a01b03163330876131ff565b600554600854604051636eb1769f60e11b81523060048201526001600160a01b0391821660248201528692919091169063dd62ed3e90604401602060405180830381865afa158015611e71573d6000803e3d6000fd5b505050506040513d601f19601f82011682018060405250810190611e959190613b97565b1015611f8757600554600854604080516318160ddd60e01b815290516001600160a01b039384169363095ea7b393169184916318160ddd916004808201926020929091908290030181865afa158015611ef2573d6000803e3d6000fd5b505050506040513d601f19601f82011682018060405250810190611f169190613b97565b6040516001600160e01b031960e085901b1681526001600160a01b03909216600483015260248201526044016020604051808303816000875af1158015611f61573d6000803e3d6000fd5b505050506040513d601f19601f82011682018060405250810190611f859190613c29565b505b600854604080513360601b6bffffffffffffffffffffffff1916602082015260e08a901b6001600160e01b031916603482015260f088901b7fffff000000000000000000000000000000000000000000000000000000000000166038820152603a80820188905282518083039091018152605a820192839052630df2b42960e41b9092526001600160a01b039092169163df2b42909161202c91859190605e01613c4b565b6020604051808303816000875af115801561204b573d6000803e3d6000fd5b505050506040513d601f19601f8201168201806040525081019061206f9190613c29565b6120bb5760405162461bcd60e51b815260206004820152601460248201527f4661696c2063726561746543616e6469646174650000000000000000000000006044820152606401610a1a565b6040805163ffffffff8084168252336020830152918101889052908816606082015261ffff8616608082015260a081018590527f342dd5ffb5ac74e51a17692939edd209c3e7b77cba98cdc874b1563f60ad0b889060c0015b60405180910390a150506015805460ff60501b1916600160501b1790555050505050565b808060000361216e5760405162461bcd60e51b81526020600482015260026024820152615a3160f01b6044820152606401610a1a565b6121773361111d565b6121bc5760405162461bcd60e51b81526020600482015260226024820152600080516020613dd283398151915260448201526134b760f11b6064820152608401610a1a565b81600c54036121f65760405162461bcd60e51b8152600401610a1a9060208082526004908201526373616d6560e01b604082015260600190565b50600c55565b60075460405163083cbb7d60e31b815263ffffffff831660048201526000916001600160a01b0316906341e5dbe890602401602060405180830381865afa925050508015612267575060408051601f3d908101601f1916820190925261226491810190613b97565b60015b6109af573d808015612295576040519150601f19603f3d011682016040523d82523d6000602084013e61229a565b606091505b5060009392505050565b6000828152602081905260409020600101546122bf816130c2565b611402838361316a565b6122d23361111d565b6123175760405162461bcd60e51b81526020600482015260226024820152600080516020613dd283398151915260448201526134b760f11b6064820152608401610a1a565b80600a54036123515760405162461bcd60e51b8152600401610a1a9060208082526004908201526373616d6560e01b604082015260600190565b600a55565b6000600d546123636119e5565b61236d9190613b84565b905090565b600e546000036123c45760405162461bcd60e51b815260206004820152601760248201527f6e6f2064697374726962757461626c6520616d6f756e740000000000000000006044820152606401610a1a565b600f546000808267ffffffffffffffff8111156123e3576123e3613a7c565b60405190808252806020026020018201604052801561240c578160200160208202803683370190505b50905060005b83811015612525576000600f828154811061242f5761242f613a92565b6000918252602080832060088304015460079092166004026101000a90910463ffffffff16808352601282526040928390208351808501909452805480855260019091015492840192909252600954909350116124b95761248f826121fc565b8484815181106124a1576124a1613a92565b602002602001018181516124b59190613b84565b9052505b80600001518484815181106124d0576124d0613a92565b602002602001018181516124e49190613b84565b90525083518490849081106124fb576124fb613a92565b60200260200101518561250e9190613b84565b94505050808061251d90613b6b565b915050612412565b50600082156126385760005b84811015612619576000600f828154811061254e5761254e613a92565b6000918252602080832060088304015460079092166004026101000a90910463ffffffff168083526012909152604082208651919350919086908590811061259857612598613a92565b60200260200101511115612604576000868685815181106125bb576125bb613a92565b6020026020010151600e546125d09190613bb0565b6125da9190613bc7565b9050808260010160008282546125f09190613b84565b9091555061260090508186613b84565b9450505b5050808061261190613b6b565b915050612531565b5080156126385780600e60008282546126329190613c72565b90915550505b600e5460408051918252602082018390527f97791d3ac1343e05805a2f905fa80b249c2ca58cf9fef455d4fa7ec13ce58321910160405180910390a150505050565b601554600160501b900460ff166126bc5760405162461bcd60e51b8152600401610a1a906020808252600490820152636c6f636b60e01b604082015260600190565b6015805460ff60501b1916905560405163bf40fac160e01b815260206004820152600d60248201527f4f564d5f53657175656e6365720000000000000000000000000000000000000060448201526001600160a01b0386169063bf40fac190606401602060405180830381865afa15801561273b573d6000803e3d6000fd5b505050506040513d601f19601f8201168201806040525081019061275f9190613be9565b6001600160a01b0316336001600160a01b0316146127bf5760405162461bcd60e51b815260206004820152600d60248201527f4e4f542053657175656e636572000000000000000000000000000000000000006044820152606401610a1a565b600c5460155463ffffffff16106128185760405162461bcd60e51b815260206004820152601760248201527f6578636565646564206d61784c6179657232436f756e740000000000000000006044820152606401610a1a565b6001600160a01b0385161580159061283857506001600160a01b03841615155b801561284c57506001600160a01b03831615155b801561286057506001600160a01b03821615155b6128ac5760405162461bcd60e51b815260206004820152600c60248201527f7a65726f206164647265737300000000000000000000000000000000000000006044820152606401610a1a565b60405163cd13ec8760e01b81526001600160a01b038087166004830152808616602483015280851660448301528316606482015260009073__$35081dc60fc26376aafbbba403b8b17c43$__9063cd13ec8790608401602060405180830381865af415801561291f573d6000803e3d6000fd5b505050506040513d601f19601f820116820180604052508101906129439190613b97565b60008181526013602052604090205490915060ff16156129975760405162461bcd60e51b815260206004820152600f60248201526e185b1c9958591e4818dc99585d1959608a1b6044820152606401610a1a565b6129a184846114dd565b8210156129f05760405162461bcd60e51b815260206004820152601f60248201527f7365637572697479206465706f73697420697320696e737566666963656e74006044820152606401610a1a565b6000818152601360205260408120805460ff19166001179055601580548290612a1e9063ffffffff16613c06565b91906101000a81548163ffffffff021916908363ffffffff1602179055905082600d6000828254612a4f9190613b84565b9091555050600f805460018101909155600881047f8d1108e10bcb7c27dddfc02ed9d693a074039d026cf4ea4240b40f7d581ac80201805463ffffffff80851660046007958616026101000a81810292021990921617909155600090815260126020908152604080832087815560108352928190208c90559254925191926001600160a01b03169163df2b4290918591612b27918d918d918d918d9101606094851b6bffffffffffffffffffffffff19908116825293851b8416601482015291841b8316602883015290921b16603c82015260500190565b6040516020818303038152906040526040518363ffffffff1660e01b8152600401612b53929190613c4b565b6020604051808303816000875af1158015612b72573d6000803e3d6000fd5b505050506040513d601f19601f82011682018060405250810190612b969190613c29565b612be25760405162461bcd60e51b815260206004820152601c60248201527f4661696c206372656174654f7074696d69736d53657175656e636572000000006044820152606401610a1a565b8315612c0057600554612c00906001600160a01b03163330876131ff565b6040805163ffffffff841681523360208201529081018a90526001600160a01b03808a166060830152808916608083015280881660a0830152861660c082015260e081018590527f83d9a9b76130ffa963fa4c558a5ab61c74726896c79673e9d620739aebf93953906101000160405180910390a150506015805460ff60501b1916600160501b17905550505050505050565b601554600160501b900460ff16612cd55760405162461bcd60e51b8152600401610a1a906020808252600490820152636c6f636b60e01b604082015260600190565b6015805460ff60501b191690558163ffffffff8116600003612d1e5760405162461bcd60e51b81526020600482015260026024820152615a3160f01b6044820152606401610a1a565b60155463ffffffff9081169084161115612d685760405162461bcd60e51b815260206004820152600b60248201526a0eee4dedcce40d2dcc8caf60ab1b6044820152606401610a1a565b600754604051638c6f1b3960e01b815263ffffffff851660048201526000916001600160a01b031690638c6f1b3990602401608060405180830381865afa158015612db7573d6000803e3d6000fd5b505050506040513d601f19601f82011682018060405250810190612ddb9190613c85565b6007548151604051635d0c7b2b60e01b81526001600160a01b039182166004820152929350600092911690635d0c7b2b90602401602060405180830381865afa158015612e2c573d6000803e3d6000fd5b505050506040513d601f19601f82011682018060405250810190612e509190613be9565b90506001600160a01b03811615801590612e7257506001600160a01b03811633145b612ebe5760405162461bcd60e51b815260206004820181905260248201527f73657175656e636572206973207a65726f206f72206e6f742063616c6c65722e6044820152606401610a1a565b6000612ed2836040015184606001516114dd565b63ffffffff87166000908152601260205260409020805491925090612ef78388613b84565b1115612f455760405162461bcd60e51b815260206004820152601460248201527f696e73756666696369656e74206465706f7369740000000000000000000000006044820152606401610a1a565b85816000016000828254612f599190613c72565b9250508190555085600d6000828254612f729190613c72565b9091555050600554612f8e906001600160a01b03163388613323565b6040805163ffffffff891681523360208201529081018790527f15842789f01ee00184461198846223c315588d35fc8202916432ef78775d62c090606001612114565b600f54600090815b818110156130bb57600754600f80546001600160a01b0390921691635f1b989e91908490811061300b5761300b613a92565b6000918252602090912060088204015460405160e084901b6001600160e01b0319168152600790921660049081026101000a90910463ffffffff16908201526001600160a01b0387166024820152604401602060405180830381865afa158015613079573d6000803e3d6000fd5b505050506040513d601f19601f8201168201806040525081019061309d9190613b97565b6130a79084613b84565b9250806130b381613b6b565b915050612fd9565b5050919050565b610c92813361343e565b6000828152602081815260408083206001600160a01b038516845290915290205460ff1661148f576000828152602081815260408083206001600160a01b03851684529091529020805460ff191660011790556131263390565b6001600160a01b0316816001600160a01b0316837f2f8788117e7eff1d82e926ec794901d17c78024a50270940304540a733656f0d60405160405180910390a45050565b6000828152602081815260408083206001600160a01b038516845290915290205460ff161561148f576000828152602081815260408083206001600160a01b0385168085529252808320805460ff1916905551339285917ff6391f5c32d9c69d2a47ea670b442974b53935d1edc7fd64eb21e047a839171b9190a45050565b60008183116131f857816115a6565b5090919050565b604080516001600160a01b0385811660248301528481166044830152606480830185905283518084039091018152608490920183526020820180516001600160e01b03166323b872dd60e01b17905291516000928392908816916132639190613d0a565b6000604051808303816000865af19150503d80600081146132a0576040519150601f19603f3d011682016040523d82523d6000602084013e6132a5565b606091505b50915091508180156132cf5750805115806132cf5750808060200190518101906132cf9190613c29565b61331b5760405162461bcd60e51b815260206004820152601460248201527f5452414e534645525f46524f4d5f4641494c45440000000000000000000000006044820152606401610a1a565b505050505050565b604080516001600160a01b038481166024830152604480830185905283518084039091018152606490920183526020820180516001600160e01b031663a9059cbb60e01b179052915160009283929087169161337f9190613d0a565b6000604051808303816000865af19150503d80600081146133bc576040519150601f19603f3d011682016040523d82523d6000602084013e6133c1565b606091505b50915091508180156133eb5750805115806133eb5750808060200190518101906133eb9190613c29565b6134375760405162461bcd60e51b815260206004820152600f60248201527f5452414e534645525f4641494c454400000000000000000000000000000000006044820152606401610a1a565b5050505050565b6000828152602081815260408083206001600160a01b038516845290915290205460ff1661148f5761346f816134b1565b61347a8360206134c3565b60405160200161348b929190613d26565b60408051601f198184030181529082905262461bcd60e51b8252610a1a91600401613da7565b60606109af6001600160a01b03831660145b606060006134d2836002613bb0565b6134dd906002613b84565b67ffffffffffffffff8111156134f5576134f5613a7c565b6040519080825280601f01601f19166020018201604052801561351f576020820181803683370190505b509050600360fc1b8160008151811061353a5761353a613a92565b60200101906001600160f81b031916908160001a905350600f60fb1b8160018151811061356957613569613a92565b60200101906001600160f81b031916908160001a905350600061358d846002613bb0565b613598906001613b84565b90505b600181111561361d577f303132333435363738396162636465660000000000000000000000000000000085600f16601081106135d9576135d9613a92565b1a60f81b8282815181106135ef576135ef613a92565b60200101906001600160f81b031916908160001a90535060049490941c9361361681613dba565b905061359b565b5083156115a65760405162461bcd60e51b815260206004820181905260248201527f537472696e67733a20686578206c656e67746820696e73756666696369656e746044820152606401610a1a565b60006020828403121561367e57600080fd5b81356001600160e01b0319811681146115a657600080fd5b803563ffffffff811681146115da57600080fd5b6000602082840312156136bc57600080fd5b6115a682613696565b803561ffff811681146115da57600080fd5b6000602082840312156136e957600080fd5b6115a6826136c5565b6001600160a01b0381168114610c9257600080fd5b60006020828403121561371957600080fd5b81356115a6816136f2565b600081518084526020808501945080840160005b8381101561375457815187529582019590820190600101613738565b509495945050505050565b600081518084526020808501945080840160005b8381101561375457815163ffffffff1687529582019590820190600101613773565b60005b838110156137b0578181015183820152602001613798565b50506000910152565b600081518084526137d1816020860160208601613795565b601f01601f19169290920160200192915050565b600081518084526020808501808196508360051b8101915082860160005b8581101561382d57828403895261381b8483516137b9565b98850198935090840190600101613803565b5091979650505050505050565b60808152600061384d6080830187613724565b602083820381850152613860828861375f565b91506040848303818601528287518085528385019150838901945060005b818110156138ab5761389b83875180518252602090810151910152565b948401949183019160010161387e565b505085810360608701526138bf81886137e5565b9a9950505050505050505050565b6000602082840312156138df57600080fd5b5035919050565b6060815260006138f96060830186613724565b828103602084015261390b818661375f565b9050828103604084015261391f81856137e5565b9695505050505050565b6000806040838503121561393c57600080fd5b82359150602083013561394e816136f2565b809150509250929050565b6000806040838503121561396c57600080fd5b8235613977816136f2565b9150602083013561394e816136f2565b6000806040838503121561399a57600080fd5b6139a383613696565b946020939093013593505050565b600080600080608085870312156139c757600080fd5b6139d085613696565b9350602085013592506139e5604086016136c5565b9396929550929360600135925050565b8151815260208083015190820152604081016109af565b60008060008060008060c08789031215613a2557600080fd5b863595506020870135613a37816136f2565b94506040870135613a47816136f2565b93506060870135613a57816136f2565b92506080870135613a67816136f2565b8092505060a087013590509295509295509295565b634e487b7160e01b600052604160045260246000fd5b634e487b7160e01b600052603260045260246000fd5b600060208284031215613aba57600080fd5b815167ffffffffffffffff80821115613ad257600080fd5b818401915084601f830112613ae657600080fd5b815181811115613af857613af8613a7c565b604051601f8201601f19908116603f01168101908382118183101715613b2057613b20613a7c565b81604052828152876020848701011115613b3957600080fd5b613b4a836020830160208801613795565b979650505050505050565b634e487b7160e01b600052601160045260246000fd5b600060018201613b7d57613b7d613b55565b5060010190565b808201808211156109af576109af613b55565b600060208284031215613ba957600080fd5b5051919050565b80820281158282048414176109af576109af613b55565b600082613be457634e487b7160e01b600052601260045260246000fd5b500490565b600060208284031215613bfb57600080fd5b81516115a6816136f2565b600063ffffffff808316818103613c1f57613c1f613b55565b6001019392505050565b600060208284031215613c3b57600080fd5b815180151581146115a657600080fd5b63ffffffff83168152604060208201526000613c6a60408301846137b9565b949350505050565b818103818111156109af576109af613b55565b600060808284031215613c9757600080fd5b6040516080810181811067ffffffffffffffff82111715613cba57613cba613a7c565b6040528251613cc8816136f2565b81526020830151613cd8816136f2565b60208201526040830151613ceb816136f2565b60408201526060830151613cfe816136f2565b60608201529392505050565b60008251613d1c818460208701613795565b9190910192915050565b7f416363657373436f6e74726f6c3a206163636f756e7420000000000000000000815260008351613d5e816017850160208801613795565b7f206973206d697373696e6720726f6c65200000000000000000000000000000006017918401918201528351613d9b816028840160208801613795565b01602801949350505050565b6020815260006115a660208301846137b9565b600081613dc957613dc9613b55565b50600019019056fe41636365737369626c653a2043616c6c6572206973206e6f7420616e2061646da164736f6c6343000812000a",
  "linkReferences": {
    "contracts/libraries/LibOperator.sol": {
      "LibOperator": [
        {
          "length": 20,
          "start": 7295
        }
      ]
    },
    "contracts/libraries/LibOptimism.sol": {
      "LibOptimism": [
        {
          "length": 20,
          "start": 10527
        }
      ]
    }
  },
  "deployedLinkReferences": {
    "contracts/libraries/LibOperator.sol": {
      "LibOperator": [
        {
          "length": 20,
          "start": 7237
        }
      ]
    },
    "contracts/libraries/LibOptimism.sol": {
      "LibOptimism": [
        {
          "length": 20,
          "start": 10469
        }
      ]
    }
  }
}