{
  "_format": "hh-sol-artifact-1",
  "contractName": "WTON",
  "sourceName": "contracts/test/WTON.sol",
  "abi": [
    {
      "inputs": [
        {
          "internalType": "contract ERC20Mintable",
          "name": "_ton",
          "type": "address"
        }
      ],
      "stateMutability": "nonpayable",
      "type": "constructor"
    },
    {
      "anonymous": false,
      "inputs": [
        {
          "indexed": true,
          "internalType": "address",
          "name": "owner",
          "type": "address"
        },
        {
          "indexed": true,
          "internalType": "address",
          "name": "spender",
          "type": "address"
        },
        {
          "indexed": false,
          "internalType": "uint256",
          "name": "value",
          "type": "uint256"
        }
      ],
      "name": "Approval",
      "type": "event"
    },
    {
      "anonymous": false,
      "inputs": [
        {
          "indexed": true,
          "internalType": "address",
          "name": "account",
          "type": "address"
        }
      ],
      "name": "MinterAdded",
      "type": "event"
    },
    {
      "anonymous": false,
      "inputs": [
        {
          "indexed": true,
          "internalType": "address",
          "name": "account",
          "type": "address"
        }
      ],
      "name": "MinterRemoved",
      "type": "event"
    },
    {
      "anonymous": false,
      "inputs": [
        {
          "indexed": true,
          "internalType": "address",
          "name": "previousOwner",
          "type": "address"
        },
        {
          "indexed": true,
          "internalType": "address",
          "name": "newOwner",
          "type": "address"
        }
      ],
      "name": "OwnershipTransferred",
      "type": "event"
    },
    {
      "anonymous": false,
      "inputs": [
        {
          "indexed": true,
          "internalType": "address",
          "name": "from",
          "type": "address"
        },
        {
          "indexed": true,
          "internalType": "address",
          "name": "to",
          "type": "address"
        },
        {
          "indexed": false,
          "internalType": "uint256",
          "name": "value",
          "type": "uint256"
        }
      ],
      "name": "Transfer",
      "type": "event"
    },
    {
      "inputs": [
        {
          "internalType": "address",
          "name": "account",
          "type": "address"
        }
      ],
      "name": "addMinter",
      "outputs": [],
      "stateMutability": "nonpayable",
      "type": "function"
    },
    {
      "inputs": [
        {
          "internalType": "address",
          "name": "owner",
          "type": "address"
        },
        {
          "internalType": "address",
          "name": "spender",
          "type": "address"
        }
      ],
      "name": "allowance",
      "outputs": [
        {
          "internalType": "uint256",
          "name": "",
          "type": "uint256"
        }
      ],
      "stateMutability": "view",
      "type": "function"
    },
    {
      "inputs": [
        {
          "internalType": "address",
          "name": "spender",
          "type": "address"
        },
        {
          "internalType": "uint256",
          "name": "amount",
          "type": "uint256"
        }
      ],
      "name": "approve",
      "outputs": [
        {
          "internalType": "bool",
          "name": "",
          "type": "bool"
        }
      ],
      "stateMutability": "nonpayable",
      "type": "function"
    },
    {
      "inputs": [
        {
          "internalType": "address",
          "name": "spender",
          "type": "address"
        },
        {
          "internalType": "uint256",
          "name": "amount",
          "type": "uint256"
        },
        {
          "internalType": "bytes",
          "name": "data",
          "type": "bytes"
        }
      ],
      "name": "approveAndCall",
      "outputs": [
        {
          "internalType": "bool",
          "name": "",
          "type": "bool"
        }
      ],
      "stateMutability": "nonpayable",
      "type": "function"
    },
    {
      "inputs": [
        {
          "internalType": "address",
          "name": "account",
          "type": "address"
        }
      ],
      "name": "balanceOf",
      "outputs": [
        {
          "internalType": "uint256",
          "name": "",
          "type": "uint256"
        }
      ],
      "stateMutability": "view",
      "type": "function"
    },
    {
      "inputs": [
        {
          "internalType": "address",
          "name": "account",
          "type": "address"
        },
        {
          "internalType": "uint256",
          "name": "amount",
          "type": "uint256"
        }
      ],
      "name": "burnFrom",
      "outputs": [],
      "stateMutability": "nonpayable",
      "type": "function"
    },
    {
      "inputs": [],
      "name": "callbackEnabled",
      "outputs": [
        {
          "internalType": "bool",
          "name": "",
          "type": "bool"
        }
      ],
      "stateMutability": "view",
      "type": "function"
    },
    {
      "inputs": [],
      "name": "decimals",
      "outputs": [
        {
          "internalType": "uint8",
          "name": "",
          "type": "uint8"
        }
      ],
      "stateMutability": "view",
      "type": "function"
    },
    {
      "inputs": [
        {
          "internalType": "address",
          "name": "spender",
          "type": "address"
        },
        {
          "internalType": "uint256",
          "name": "subtractedValue",
          "type": "uint256"
        }
      ],
      "name": "decreaseAllowance",
      "outputs": [
        {
          "internalType": "bool",
          "name": "",
          "type": "bool"
        }
      ],
      "stateMutability": "nonpayable",
      "type": "function"
    },
    {
      "inputs": [
        {
          "internalType": "bool",
          "name": "_callbackEnabled",
          "type": "bool"
        }
      ],
      "name": "enableCallback",
      "outputs": [],
      "stateMutability": "nonpayable",
      "type": "function"
    },
    {
      "inputs": [
        {
          "internalType": "address",
          "name": "spender",
          "type": "address"
        },
        {
          "internalType": "uint256",
          "name": "addedValue",
          "type": "uint256"
        }
      ],
      "name": "increaseAllowance",
      "outputs": [
        {
          "internalType": "bool",
          "name": "",
          "type": "bool"
        }
      ],
      "stateMutability": "nonpayable",
      "type": "function"
    },
    {
      "inputs": [
        {
          "internalType": "address",
          "name": "account",
          "type": "address"
        }
      ],
      "name": "isMinter",
      "outputs": [
        {
          "internalType": "bool",
          "name": "",
          "type": "bool"
        }
      ],
      "stateMutability": "view",
      "type": "function"
    },
    {
      "inputs": [],
      "name": "isOwner",
      "outputs": [
        {
          "internalType": "bool",
          "name": "",
          "type": "bool"
        }
      ],
      "stateMutability": "view",
      "type": "function"
    },
    {
      "inputs": [
        {
          "internalType": "address",
          "name": "account",
          "type": "address"
        },
        {
          "internalType": "uint256",
          "name": "amount",
          "type": "uint256"
        }
      ],
      "name": "mint",
      "outputs": [
        {
          "internalType": "bool",
          "name": "",
          "type": "bool"
        }
      ],
      "stateMutability": "nonpayable",
      "type": "function"
    },
    {
      "inputs": [],
      "name": "name",
      "outputs": [
        {
          "internalType": "string",
          "name": "",
          "type": "string"
        }
      ],
      "stateMutability": "view",
      "type": "function"
    },
    {
      "inputs": [
        {
          "internalType": "address",
          "name": "owner",
          "type": "address"
        },
        {
          "internalType": "address",
          "name": "spender",
          "type": "address"
        },
        {
          "internalType": "uint256",
          "name": "tonAmount",
          "type": "uint256"
        },
        {
          "internalType": "bytes",
          "name": "data",
          "type": "bytes"
        }
      ],
      "name": "onApprove",
      "outputs": [
        {
          "internalType": "bool",
          "name": "",
          "type": "bool"
        }
      ],
      "stateMutability": "nonpayable",
      "type": "function"
    },
    {
      "inputs": [],
      "name": "owner",
      "outputs": [
        {
          "internalType": "address",
          "name": "",
          "type": "address"
        }
      ],
      "stateMutability": "view",
      "type": "function"
    },
    {
      "inputs": [
        {
          "internalType": "address",
          "name": "target",
          "type": "address"
        }
      ],
      "name": "renounceMinter",
      "outputs": [],
      "stateMutability": "nonpayable",
      "type": "function"
    },
    {
      "inputs": [],
      "name": "renounceMinter",
      "outputs": [],
      "stateMutability": "nonpayable",
      "type": "function"
    },
    {
      "inputs": [
        {
          "internalType": "address",
          "name": "target",
          "type": "address"
        }
      ],
      "name": "renounceOwnership",
      "outputs": [],
      "stateMutability": "nonpayable",
      "type": "function"
    },
    {
      "inputs": [],
      "name": "renounceOwnership",
      "outputs": [],
      "stateMutability": "nonpayable",
      "type": "function"
    },
    {
      "inputs": [
        {
          "internalType": "address",
          "name": "target",
          "type": "address"
        }
      ],
      "name": "renouncePauser",
      "outputs": [],
      "stateMutability": "nonpayable",
      "type": "function"
    },
    {
      "inputs": [],
      "name": "renounceTonMinter",
      "outputs": [],
      "stateMutability": "nonpayable",
      "type": "function"
    },
    {
      "inputs": [],
      "name": "seigManager",
      "outputs": [
        {
          "internalType": "contract SeigManagerI",
          "name": "",
          "type": "address"
        }
      ],
      "stateMutability": "view",
      "type": "function"
    },
    {
      "inputs": [
        {
          "internalType": "contract SeigManagerI",
          "name": "_seigManager",
          "type": "address"
        }
      ],
      "name": "setSeigManager",
      "outputs": [],
      "stateMutability": "nonpayable",
      "type": "function"
    },
    {
      "inputs": [
        {
          "internalType": "bytes4",
          "name": "interfaceId",
          "type": "bytes4"
        }
      ],
      "name": "supportsInterface",
      "outputs": [
        {
          "internalType": "bool",
          "name": "",
          "type": "bool"
        }
      ],
      "stateMutability": "view",
      "type": "function"
    },
    {
      "inputs": [
        {
          "internalType": "uint256",
          "name": "tonAmount",
          "type": "uint256"
        }
      ],
      "name": "swapFromTON",
      "outputs": [
        {
          "internalType": "bool",
          "name": "",
          "type": "bool"
        }
      ],
      "stateMutability": "nonpayable",
      "type": "function"
    },
    {
      "inputs": [
        {
          "internalType": "address",
          "name": "to",
          "type": "address"
        },
        {
          "internalType": "uint256",
          "name": "tonAmount",
          "type": "uint256"
        }
      ],
      "name": "swapFromTONAndTransfer",
      "outputs": [
        {
          "internalType": "bool",
          "name": "",
          "type": "bool"
        }
      ],
      "stateMutability": "nonpayable",
      "type": "function"
    },
    {
      "inputs": [
        {
          "internalType": "uint256",
          "name": "wtonAmount",
          "type": "uint256"
        }
      ],
      "name": "swapToTON",
      "outputs": [
        {
          "internalType": "bool",
          "name": "",
          "type": "bool"
        }
      ],
      "stateMutability": "nonpayable",
      "type": "function"
    },
    {
      "inputs": [
        {
          "internalType": "address",
          "name": "to",
          "type": "address"
        },
        {
          "internalType": "uint256",
          "name": "wtonAmount",
          "type": "uint256"
        }
      ],
      "name": "swapToTONAndTransfer",
      "outputs": [
        {
          "internalType": "bool",
          "name": "",
          "type": "bool"
        }
      ],
      "stateMutability": "nonpayable",
      "type": "function"
    },
    {
      "inputs": [],
      "name": "symbol",
      "outputs": [
        {
          "internalType": "string",
          "name": "",
          "type": "string"
        }
      ],
      "stateMutability": "view",
      "type": "function"
    },
    {
      "inputs": [],
      "name": "ton",
      "outputs": [
        {
          "internalType": "contract ERC20Mintable",
          "name": "",
          "type": "address"
        }
      ],
      "stateMutability": "view",
      "type": "function"
    },
    {
      "inputs": [],
      "name": "totalSupply",
      "outputs": [
        {
          "internalType": "uint256",
          "name": "",
          "type": "uint256"
        }
      ],
      "stateMutability": "view",
      "type": "function"
    },
    {
      "inputs": [
        {
          "internalType": "address",
          "name": "recipient",
          "type": "address"
        },
        {
          "internalType": "uint256",
          "name": "amount",
          "type": "uint256"
        }
      ],
      "name": "transfer",
      "outputs": [
        {
          "internalType": "bool",
          "name": "",
          "type": "bool"
        }
      ],
      "stateMutability": "nonpayable",
      "type": "function"
    },
    {
      "inputs": [
        {
          "internalType": "address",
          "name": "sender",
          "type": "address"
        },
        {
          "internalType": "address",
          "name": "recipient",
          "type": "address"
        },
        {
          "internalType": "uint256",
          "name": "amount",
          "type": "uint256"
        }
      ],
      "name": "transferFrom",
      "outputs": [
        {
          "internalType": "bool",
          "name": "",
          "type": "bool"
        }
      ],
      "stateMutability": "nonpayable",
      "type": "function"
    },
    {
      "inputs": [
        {
          "internalType": "address",
          "name": "target",
          "type": "address"
        },
        {
          "internalType": "address",
          "name": "newOwner",
          "type": "address"
        }
      ],
      "name": "transferOwnership",
      "outputs": [],
      "stateMutability": "nonpayable",
      "type": "function"
    },
    {
      "inputs": [
        {
          "internalType": "address",
          "name": "newOwner",
          "type": "address"
        }
      ],
      "name": "transferOwnership",
      "outputs": [],
      "stateMutability": "nonpayable",
      "type": "function"
    }
  ],
  "bytecode": "0x60806040523480156200001157600080fd5b5060405162002dd238038062002dd28339810160408190526200003491620003f9565b604080518082018252600b81526a2bb930b83832b2102a27a760a91b602080830191909152825180840190935260048352632baa27a760e11b908301526000805460ff19166001178155909190601b906200008c3390565b600480546001600160a01b0319166001600160a01b038316908117909155604051919250906000907f8be0079c531659141344cd1fd0a4f28419497f9722a3daafe3b4186f6b6457e0908290a350620000e53362000221565b6006620000f38482620004d0565b506007620001028382620004d0565b506008805460ff191660ff92909216919091179055506200012c90506301ffc9a760e01b62000273565b6200013e632139e50b60e11b62000273565b806001600160a01b031663313ce5676040518163ffffffff1660e01b8152600401602060405180830381865afa1580156200017d573d6000803e3d6000fd5b505050506040513d601f19601f82011682018060405250810190620001a391906200059c565b60ff16601214620001fb5760405162461bcd60e51b815260206004820181905260248201527f57544f4e3a20646563696d616c73206f6620544f4e206d75737420626520313860448201526064015b60405180910390fd5b600a80546001600160a01b0319166001600160a01b0392909216919091179055620005c1565b6200023c816005620002f460201b620010501790919060201c565b6040516001600160a01b038216907f6ae172837ea30b801fbfcdd4108aa1d5bf8ff775444fd70256b44e6bf3dfc3f690600090a250565b6001600160e01b03198082169003620002cf5760405162461bcd60e51b815260206004820152601c60248201527f4552433136353a20696e76616c696420696e74657266616365206964000000006044820152606401620001f2565b6001600160e01b0319166000908152600960205260409020805460ff19166001179055565b62000300828262000374565b156200034f5760405162461bcd60e51b815260206004820152601f60248201527f526f6c65733a206163636f756e7420616c72656164792068617320726f6c65006044820152606401620001f2565b6001600160a01b0316600090815260209190915260409020805460ff19166001179055565b60006001600160a01b038216620003d95760405162461bcd60e51b815260206004820152602260248201527f526f6c65733a206163636f756e7420697320746865207a65726f206164647265604482015261737360f01b6064820152608401620001f2565b506001600160a01b03166000908152602091909152604090205460ff1690565b6000602082840312156200040c57600080fd5b81516001600160a01b03811681146200042457600080fd5b9392505050565b634e487b7160e01b600052604160045260246000fd5b600181811c908216806200045657607f821691505b6020821081036200047757634e487b7160e01b600052602260045260246000fd5b50919050565b601f821115620004cb57600081815260208120601f850160051c81016020861015620004a65750805b601f850160051c820191505b81811015620004c757828155600101620004b2565b5050505b505050565b81516001600160401b03811115620004ec57620004ec6200042b565b6200050481620004fd845462000441565b846200047d565b602080601f8311600181146200053c5760008415620005235750858301515b600019600386901b1c1916600185901b178555620004c7565b600085815260208120601f198616915b828110156200056d578886015182559484019460019091019084016200054c565b50858210156200058c5787850151600019600388901b60f8161c191681555b5050505050600190811b01905550565b600060208284031215620005af57600080fd5b815160ff811681146200042457600080fd5b61280180620005d16000396000f3fe608060405234801561001057600080fd5b50600436106102775760003560e01c806370a0823111610160578063a457c2d7116100d8578063dd62ed3e1161008c578063e3b99e8511610071578063e3b99e8514610562578063f2fde38b14610575578063f53fe70f1461058857600080fd5b8063dd62ed3e14610516578063e34869d71461054f57600080fd5b8063aa271e1a116100bd578063aa271e1a146104dd578063cae9ca51146104f0578063cc48b9471461050357600080fd5b8063a457c2d7146104b7578063a9059cbb146104ca57600080fd5b80638da5cb5b1161012f57806395d89b411161011457806395d89b4114610494578063983b2d561461049c57806398650275146104af57600080fd5b80638da5cb5b146104705780638f32d59b1461048157600080fd5b806370a0823114610419578063715018a6146104425780637657f20a1461044a57806379cc67901461045d57600080fd5b806339509351116101f3578063588420b7116101c257806363380113116101a757806363380113146103c25780636d435421146103d65780636fb7f558146103e957600080fd5b8063588420b71461039c5780635f112c68146103af57600080fd5b8063395093511461035057806340c10f191461036357806341eb24bb146103765780634273ca161461038957600080fd5b806318160ddd1161024a5780633113ed5c1161022f5780633113ed5c14610315578063313ce5671461032857806338bf3cfa1461033d57600080fd5b806318160ddd146102f057806323b872dd1461030257600080fd5b806301ffc9a71461027c57806305eeb9f7146102be57806306fdde03146102c8578063095ea7b3146102dd575b600080fd5b6102a961028a3660046122b3565b6001600160e01b03191660009081526009602052604090205460ff1690565b60405190151581526020015b60405180910390f35b6102c661059b565b005b6102d06105ff565b6040516102b5919061232d565b6102a96102eb366004612355565b610691565b6003545b6040519081526020016102b5565b6102a9610310366004612381565b6106a8565b6102c66103233660046123d0565b61074e565b60085460405160ff90911681526020016102b5565b6102c661034b3660046123ed565b6107cf565b6102a961035e366004612355565b61086d565b6102a9610371366004612355565b6108a8565b6102c66103843660046123ed565b610922565b6102a961039736600461240a565b6109a5565b6102a96103aa366004612355565b610aa4565b6102c66103bd3660046123ed565b610b21565b6008546102a990600160a81b900460ff1681565b6102c66103e43660046124a9565b610ba4565b6008546104019061010090046001600160a01b031681565b6040516001600160a01b0390911681526020016102b5565b6102f46104273660046123ed565b6001600160a01b031660009081526001602052604090205490565b6102c6610c4b565b6102c66104583660046123ed565b610cea565b6102c661046b366004612355565b610d67565b6004546001600160a01b0316610401565b6004546001600160a01b031633146102a9565b6102d0610d8d565b6102c66104aa3660046123ed565b610d9c565b6102c6610e16565b6102a96104c5366004612355565b610e1f565b6102a96104d8366004612355565b610e6e565b6102a96104eb3660046123ed565b610e7b565b6102a96104fe3660046124f8565b610e88565b600a54610401906001600160a01b031681565b6102f46105243660046124a9565b6001600160a01b03918216600090815260026020908152604080832093909416825291909152205490565b6102a961055d3660046125c5565b610eb3565b6102a9610570366004612355565b610f2f565b6102c66105833660046123ed565b610f97565b6102a96105963660046125c5565b610fe8565b6004546001600160a01b031633146105e85760405162461bcd60e51b8152602060048201819052602482015260008051602061278c83398151915260448201526064015b60405180910390fd5b600a546105fd906001600160a01b0316610b21565b565b60606006805461060e906125de565b80601f016020809104026020016040519081016040528092919081815260200182805461063a906125de565b80156106875780601f1061065c57610100808354040283529160200191610687565b820191906000526020600020905b81548152906001019060200180831161066a57829003601f168201915b5050505050905090565b600061069e3384846110cc565b5060015b92915050565b6000336001600160a01b03851614806106c95750336001600160a01b038416145b61073b5760405162461bcd60e51b815260206004820152603060248201527f53656967546f6b656e3a206f6e6c792073656e646572206f722072656369706960448201527f656e742063616e207472616e736665720000000000000000000000000000000060648201526084016105df565b6107468484846111f1565b949350505050565b6004546001600160a01b031633146107965760405162461bcd60e51b8152602060048201819052602482015260008051602061278c83398151915260448201526064016105df565b60088054911515600160a81b027fffffffffffffffffffff00ffffffffffffffffffffffffffffffffffffffffff909216919091179055565b6004546001600160a01b031633146108175760405162461bcd60e51b8152602060048201819052602482015260008051602061278c83398151915260448201526064016105df565b806001600160a01b031663715018a66040518163ffffffff1660e01b8152600401600060405180830381600087803b15801561085257600080fd5b505af1158015610866573d6000803e3d6000fd5b5050505050565b3360008181526002602090815260408083206001600160a01b0387168452909152812054909161069e9185906108a3908661125c565b6110cc565b60006108b333610e7b565b6109185760405162461bcd60e51b815260206004820152603060248201527f4d696e746572526f6c653a2063616c6c657220646f6573206e6f74206861766560448201526f20746865204d696e74657220726f6c6560801b60648201526084016105df565b61069e83836112c2565b6004546001600160a01b0316331461096a5760405162461bcd60e51b8152602060048201819052602482015260008051602061278c83398151915260448201526064016105df565b806001600160a01b0316636ef8d66d6040518163ffffffff1660e01b8152600401600060405180830381600087803b15801561085257600080fd5b600a546000906001600160a01b03163314610a115760405162461bcd60e51b815260206004820152602660248201527f57544f4e3a206f6e6c792061636365707420544f4e20617070726f76652063616044820152656c6c6261636b60d01b60648201526084016105df565b610a1c868786611387565b506000610a28856113b3565b9050600080610a6c86868080601f0160208091040260200160405190810160405280939291908181526020018383808284376000920191909152506113c392505050565b91509150610a7b8983856110cc565b6000610a86826113e5565b9050610a948a84868461140f565b5060019998505050505050505050565b6000805460ff16610af75760405162461bcd60e51b815260206004820152601f60248201527f5265656e7472616e637947756172643a207265656e7472616e742063616c6c0060448201526064016105df565b6000805460ff19169055610b0c338484611387565b90506000805460ff1916600117905592915050565b6004546001600160a01b03163314610b695760405162461bcd60e51b8152602060048201819052602482015260008051602061278c83398151915260448201526064016105df565b806001600160a01b031663986502756040518163ffffffff1660e01b8152600401600060405180830381600087803b15801561085257600080fd5b6004546001600160a01b03163314610bec5760405162461bcd60e51b8152602060048201819052602482015260008051602061278c83398151915260448201526064016105df565b60405163f2fde38b60e01b81526001600160a01b03828116600483015283169063f2fde38b90602401600060405180830381600087803b158015610c2f57600080fd5b505af1158015610c43573d6000803e3d6000fd5b505050505050565b6004546001600160a01b03163314610c935760405162461bcd60e51b8152602060048201819052602482015260008051602061278c83398151915260448201526064016105df565b6004546040516000916001600160a01b0316907f8be0079c531659141344cd1fd0a4f28419497f9722a3daafe3b4186f6b6457e0908390a36004805473ffffffffffffffffffffffffffffffffffffffff19169055565b6004546001600160a01b03163314610d325760405162461bcd60e51b8152602060048201819052602482015260008051602061278c83398151915260448201526064016105df565b600880546001600160a01b039092166101000274ffffffffffffffffffffffffffffffffffffffff0019909216919091179055565b610d7033610e7b565b15610d8357610d7f82826115cc565b5050565b610d7f8282611649565b60606007805461060e906125de565b610da533610e7b565b610e0a5760405162461bcd60e51b815260206004820152603060248201527f4d696e746572526f6c653a2063616c6c657220646f6573206e6f74206861766560448201526f20746865204d696e74657220726f6c6560801b60648201526084016105df565b610e1381611694565b50565b6105fd336116d6565b600061069e33846108a3856040518060600160405280602581526020016127d0602591393360009081526002602090815260408083206001600160a01b038d1684529091529020549190611718565b600061069e338484611752565b60006106a260058361181d565b6000610e948484610691565b610e9d57600080fd5b610ea93385858561140f565b5060019392505050565b6000805460ff16610f065760405162461bcd60e51b815260206004820152601f60248201527f5265656e7472616e637947756172643a207265656e7472616e742063616c6c0060448201526064016105df565b6000805460ff19169055610f1b338084611387565b90506000805460ff19166001179055919050565b6000805460ff16610f825760405162461bcd60e51b815260206004820152601f60248201527f5265656e7472616e637947756172643a207265656e7472616e742063616c6c0060448201526064016105df565b6000805460ff19169055610b0c8333846118a0565b6004546001600160a01b03163314610fdf5760405162461bcd60e51b8152602060048201819052602482015260008051602061278c83398151915260448201526064016105df565b610e13816119e3565b6000805460ff1661103b5760405162461bcd60e51b815260206004820152601f60248201527f5265656e7472616e637947756172643a207265656e7472616e742063616c6c0060448201526064016105df565b6000805460ff19169055610f1b3380846118a0565b61105a828261181d565b156110a75760405162461bcd60e51b815260206004820152601f60248201527f526f6c65733a206163636f756e7420616c72656164792068617320726f6c650060448201526064016105df565b6001600160a01b0316600090815260209190915260409020805460ff19166001179055565b6001600160a01b03831661112e5760405162461bcd60e51b8152602060048201526024808201527f45524332303a20617070726f76652066726f6d20746865207a65726f206164646044820152637265737360e01b60648201526084016105df565b6001600160a01b03821661118f5760405162461bcd60e51b815260206004820152602260248201527f45524332303a20617070726f766520746f20746865207a65726f206164647265604482015261737360f01b60648201526084016105df565b6001600160a01b0383811660008181526002602090815260408083209487168084529482529182902085905590518481527f8c5be1e5ebec7d5bd14f71427d1e84f3dd0314c0f7b2291e5b200ac8c7c3b92591015b60405180910390a3505050565b60006111fe848484611752565b610ea984336108a385604051806060016040528060288152602001612764602891396001600160a01b038a16600090815260026020526040812090335b6001600160a01b031681526020810191909152604001600020549190611718565b600080611269838561262e565b9050838110156112bb5760405162461bcd60e51b815260206004820152601b60248201527f536166654d6174683a206164646974696f6e206f766572666c6f77000000000060448201526064016105df565b9392505050565b6112cc8282611ab1565b600854600160a81b900460ff1680156112f4575060085461010090046001600160a01b031615155b15610d7f57600854604051634a39314960e01b8152600060048201526001600160a01b0384811660248301526044820184905261010090920490911690634a393149906064015b6020604051808303816000875af115801561135a573d6000803e3d6000fd5b505050506040513d601f19601f8201168201806040525081019061137e9190612641565b610d7f57600080fd5b600061139b83611396846113b3565b6112c2565b600a54610ea9906001600160a01b0316853085611b97565b60006106a282633b9aca0061265e565b60008082516040146113d457600080fd5b505060208101516040909101519091565b60408051602080825281830190925260609160208201818036833750505060208101929092525090565b632139e50b60e11b6114218482611c08565b6114935760405162461bcd60e51b815260206004820152603160248201527f45524332304f6e417070726f76653a207370656e64657220646f65736e27742060448201527f737570706f7274206f6e417070726f766500000000000000000000000000000060648201526084016105df565b600080856001600160a01b031683888888886040516024016114b89493929190612675565b60408051601f198184030181529181526020820180516001600160e01b03166001600160e01b03199094169390931790925290516114f691906126b1565b6000604051808303816000865af19150503d8060008114611533576040519150601f19603f3d011682016040523d82523d6000602084013e611538565b606091505b509150915081819061155d5760405162461bcd60e51b81526004016105df919061232d565b5060208101519150816115c35760405162461bcd60e51b815260206004820152602860248201527f45524332304f6e417070726f76653a206661696c656420746f2063616c6c206f6044820152676e417070726f766560c01b60648201526084016105df565b50505050505050565b6115d68282611c24565b600854600160a81b900460ff1680156115fe575060085461010090046001600160a01b031615155b15610d7f57600854604051634a39314960e01b81526001600160a01b038481166004830152600060248301526044820184905261010090920490911690634a3931499060640161133b565b61165382826115cc565b610d7f82336108a3846040518060600160405280602481526020016127ac602491396001600160a01b0388166000908152600260205260408120903361123b565b61169f600582611050565b6040516001600160a01b038216907f6ae172837ea30b801fbfcdd4108aa1d5bf8ff775444fd70256b44e6bf3dfc3f690600090a250565b6116e1600582611d28565b6040516001600160a01b038216907fe94479a9f7e1952cc78f2d6baab678adc1b772d936c6583def489e524cb6669290600090a250565b6000818484111561173c5760405162461bcd60e51b81526004016105df919061232d565b50600061174984866126cd565b95945050505050565b61175d838383611daa565b600854600160a81b900460ff168015611785575060085461010090046001600160a01b031615155b1561181857600854604051634a39314960e01b81526001600160a01b03858116600483015284811660248301526044820184905261010090920490911690634a393149906064016020604051808303816000875af11580156117eb573d6000803e3d6000fd5b505050506040513d601f19601f8201168201806040525081019061180f9190612641565b61181857600080fd5b505050565b60006001600160a01b0382166118805760405162461bcd60e51b815260206004820152602260248201527f526f6c65733a206163636f756e7420697320746865207a65726f206164647265604482015261737360f01b60648201526084016105df565b506001600160a01b03166000908152602091909152604090205460ff1690565b60006118ac83836115cc565b60006118b783611f30565b600a546040516370a0823160e01b81523060048201529192506000916001600160a01b03909116906370a0823190602401602060405180830381865afa158015611905573d6000803e3d6000fd5b505050506040513d601f19601f8201168201806040525081019061192991906126e0565b9050818110156119c057600a546001600160a01b03166340c10f193061194f84866126cd565b6040516001600160e01b031960e085901b1681526001600160a01b03909216600483015260248201526044016020604051808303816000875af115801561199a573d6000803e3d6000fd5b505050506040513d601f19601f820116820180604052508101906119be9190612641565b505b600a546119d7906001600160a01b03168784611f40565b50600195945050505050565b6001600160a01b038116611a485760405162461bcd60e51b815260206004820152602660248201527f4f776e61626c653a206e6577206f776e657220697320746865207a65726f206160448201526564647265737360d01b60648201526084016105df565b6004546040516001600160a01b038084169216907f8be0079c531659141344cd1fd0a4f28419497f9722a3daafe3b4186f6b6457e090600090a36004805473ffffffffffffffffffffffffffffffffffffffff19166001600160a01b0392909216919091179055565b6001600160a01b038216611b075760405162461bcd60e51b815260206004820152601f60248201527f45524332303a206d696e7420746f20746865207a65726f20616464726573730060448201526064016105df565b600354611b14908261125c565b6003556001600160a01b038216600090815260016020526040902054611b3a908261125c565b6001600160a01b0383166000818152600160205260408082209390935591519091907fddf252ad1be2c89b69c2b068fc378daa952ba7f163c4a11628f55a4df523b3ef90611b8b9085815260200190565b60405180910390a35050565b6040516001600160a01b0380851660248301528316604482015260648101829052611c029085906323b872dd60e01b906084015b60408051601f198184030181529190526020810180516001600160e01b03166001600160e01b031990931692909217909152611f70565b50505050565b6000611c13836120f7565b80156112bb57506112bb838361212a565b6001600160a01b038216611c845760405162461bcd60e51b815260206004820152602160248201527f45524332303a206275726e2066726f6d20746865207a65726f206164647265736044820152607360f81b60648201526084016105df565b611cc18160405180606001604052806022815260200161271c602291396001600160a01b0385166000908152600160205260409020549190611718565b6001600160a01b038316600090815260016020526040902055600354611ce7908261214d565b6003556040518181526000906001600160a01b038416907fddf252ad1be2c89b69c2b068fc378daa952ba7f163c4a11628f55a4df523b3ef90602001611b8b565b611d32828261181d565b611d885760405162461bcd60e51b815260206004820152602160248201527f526f6c65733a206163636f756e7420646f6573206e6f74206861766520726f6c6044820152606560f81b60648201526084016105df565b6001600160a01b0316600090815260209190915260409020805460ff19169055565b6001600160a01b038316611e0e5760405162461bcd60e51b815260206004820152602560248201527f45524332303a207472616e736665722066726f6d20746865207a65726f206164604482015264647265737360d81b60648201526084016105df565b6001600160a01b038216611e705760405162461bcd60e51b815260206004820152602360248201527f45524332303a207472616e7366657220746f20746865207a65726f206164647260448201526265737360e81b60648201526084016105df565b611ead8160405180606001604052806026815260200161273e602691396001600160a01b0386166000908152600160205260409020549190611718565b6001600160a01b038085166000908152600160205260408082209390935590841681522054611edc908261125c565b6001600160a01b0380841660008181526001602052604090819020939093559151908516907fddf252ad1be2c89b69c2b068fc378daa952ba7f163c4a11628f55a4df523b3ef906111e49085815260200190565b60006106a2633b9aca00836126f9565b6040516001600160a01b03831660248201526044810182905261181890849063a9059cbb60e01b90606401611bcb565b611f82826001600160a01b031661218f565b611fce5760405162461bcd60e51b815260206004820152601f60248201527f5361666545524332303a2063616c6c20746f206e6f6e2d636f6e74726163740060448201526064016105df565b600080836001600160a01b031683604051611fe991906126b1565b6000604051808303816000865af19150503d8060008114612026576040519150601f19603f3d011682016040523d82523d6000602084013e61202b565b606091505b50915091508161207d5760405162461bcd60e51b815260206004820181905260248201527f5361666545524332303a206c6f772d6c6576656c2063616c6c206661696c656460448201526064016105df565b805115611c0257808060200190518101906120989190612641565b611c025760405162461bcd60e51b815260206004820152602a60248201527f5361666545524332303a204552433230206f7065726174696f6e20646964206e6044820152691bdd081cdd58d8d9595960b21b60648201526084016105df565b600061210a826301ffc9a760e01b61212a565b80156106a25750612123826001600160e01b031961212a565b1592915050565b600080600061213985856121c8565b915091508180156117495750949350505050565b60006112bb83836040518060400160405280601e81526020017f536166654d6174683a207375627472616374696f6e206f766572666c6f770000815250611718565b6000813f7fc5d2460186f7233c927e7db2dcc703c0e500b653ca82273b7bfad8045d85a470818114801590610746575050151592915050565b604080516001600160e01b0319831660248083019190915282518083039091018152604490910182526020810180516001600160e01b03166301ffc9a760e01b17905290516000918291829081906001600160a01b03881690617530906122309086906126b1565b6000604051808303818686fa925050503d806000811461226c576040519150601f19603f3d011682016040523d82523d6000602084013e612271565b606091505b509150915060208151101561228f57600080945094505050506122ac565b81818060200190518101906122a49190612641565b945094505050505b9250929050565b6000602082840312156122c557600080fd5b81356001600160e01b0319811681146112bb57600080fd5b60005b838110156122f85781810151838201526020016122e0565b50506000910152565b600081518084526123198160208601602086016122dd565b601f01601f19169290920160200192915050565b6020815260006112bb6020830184612301565b6001600160a01b0381168114610e1357600080fd5b6000806040838503121561236857600080fd5b823561237381612340565b946020939093013593505050565b60008060006060848603121561239657600080fd5b83356123a181612340565b925060208401356123b181612340565b929592945050506040919091013590565b8015158114610e1357600080fd5b6000602082840312156123e257600080fd5b81356112bb816123c2565b6000602082840312156123ff57600080fd5b81356112bb81612340565b60008060008060006080868803121561242257600080fd5b853561242d81612340565b9450602086013561243d81612340565b935060408601359250606086013567ffffffffffffffff8082111561246157600080fd5b818801915088601f83011261247557600080fd5b81358181111561248457600080fd5b89602082850101111561249657600080fd5b9699959850939650602001949392505050565b600080604083850312156124bc57600080fd5b82356124c781612340565b915060208301356124d781612340565b809150509250929050565b634e487b7160e01b600052604160045260246000fd5b60008060006060848603121561250d57600080fd5b833561251881612340565b925060208401359150604084013567ffffffffffffffff8082111561253c57600080fd5b818601915086601f83011261255057600080fd5b813581811115612562576125626124e2565b604051601f8201601f19908116603f0116810190838211818310171561258a5761258a6124e2565b816040528281528960208487010111156125a357600080fd5b8260208601602083013760006020848301015280955050505050509250925092565b6000602082840312156125d757600080fd5b5035919050565b600181811c908216806125f257607f821691505b60208210810361261257634e487b7160e01b600052602260045260246000fd5b50919050565b634e487b7160e01b600052601160045260246000fd5b808201808211156106a2576106a2612618565b60006020828403121561265357600080fd5b81516112bb816123c2565b80820281158282048414176106a2576106a2612618565b60006001600160a01b038087168352808616602084015250836040830152608060608301526126a76080830184612301565b9695505050505050565b600082516126c38184602087016122dd565b9190910192915050565b818103818111156106a2576106a2612618565b6000602082840312156126f257600080fd5b5051919050565b60008261271657634e487b7160e01b600052601260045260246000fd5b50049056fe45524332303a206275726e20616d6f756e7420657863656564732062616c616e636545524332303a207472616e7366657220616d6f756e7420657863656564732062616c616e636545524332303a207472616e7366657220616d6f756e74206578636565647320616c6c6f77616e63654f776e61626c653a2063616c6c6572206973206e6f7420746865206f776e657245524332303a206275726e20616d6f756e74206578636565647320616c6c6f77616e636545524332303a2064656372656173656420616c6c6f77616e63652062656c6f77207a65726fa164736f6c6343000812000a",
  "linkReferences": {},
  "deployedLinkReferences": {}
}