{
  "_format": "hh-sol-artifact-1",
  "contractName": "SeigManagerV2Initialize",
  "sourceName": "contracts/fixInitialize/SeigManagerV2Initialize.sol",
  "abi": [
    {
      "inputs": [],
      "stateMutability": "nonpayable",
      "type": "constructor"
    },
    {
      "anonymous": false,
      "inputs": [
        {
          "indexed": true,
          "internalType": "bytes32",
          "name": "role",
          "type": "bytes32"
        },
        {
          "indexed": true,
          "internalType": "bytes32",
          "name": "previousAdminRole",
          "type": "bytes32"
        },
        {
          "indexed": true,
          "internalType": "bytes32",
          "name": "newAdminRole",
          "type": "bytes32"
        }
      ],
      "name": "RoleAdminChanged",
      "type": "event"
    },
    {
      "anonymous": false,
      "inputs": [
        {
          "indexed": true,
          "internalType": "bytes32",
          "name": "role",
          "type": "bytes32"
        },
        {
          "indexed": true,
          "internalType": "address",
          "name": "account",
          "type": "address"
        },
        {
          "indexed": true,
          "internalType": "address",
          "name": "sender",
          "type": "address"
        }
      ],
      "name": "RoleGranted",
      "type": "event"
    },
    {
      "anonymous": false,
      "inputs": [
        {
          "indexed": true,
          "internalType": "bytes32",
          "name": "role",
          "type": "bytes32"
        },
        {
          "indexed": true,
          "internalType": "address",
          "name": "account",
          "type": "address"
        },
        {
          "indexed": true,
          "internalType": "address",
          "name": "sender",
          "type": "address"
        }
      ],
      "name": "RoleRevoked",
      "type": "event"
    },
    {
      "inputs": [],
      "name": "ADMIN_ROLE",
      "outputs": [
        {
          "internalType": "bytes32",
          "name": "",
          "type": "bytes32"
        }
      ],
      "stateMutability": "view",
      "type": "function"
    },
    {
      "inputs": [],
      "name": "DEFAULT_ADMIN_ROLE",
      "outputs": [
        {
          "internalType": "bytes32",
          "name": "",
          "type": "bytes32"
        }
      ],
      "stateMutability": "view",
      "type": "function"
    },
    {
      "inputs": [],
      "name": "POLICY_ROLE",
      "outputs": [
        {
          "internalType": "bytes32",
          "name": "",
          "type": "bytes32"
        }
      ],
      "stateMutability": "view",
      "type": "function"
    },
    {
      "inputs": [
        {
          "internalType": "address",
          "name": "account",
          "type": "address"
        }
      ],
      "name": "addAdmin",
      "outputs": [],
      "stateMutability": "nonpayable",
      "type": "function"
    },
    {
      "inputs": [
        {
          "internalType": "address",
          "name": "",
          "type": "address"
        }
      ],
      "name": "aliveImplementation",
      "outputs": [
        {
          "internalType": "bool",
          "name": "",
          "type": "bool"
        }
      ],
      "stateMutability": "view",
      "type": "function"
    },
    {
      "inputs": [],
      "name": "candidate",
      "outputs": [
        {
          "internalType": "address",
          "name": "",
          "type": "address"
        }
      ],
      "stateMutability": "view",
      "type": "function"
    },
    {
      "inputs": [],
      "name": "dao",
      "outputs": [
        {
          "internalType": "address",
          "name": "",
          "type": "address"
        }
      ],
      "stateMutability": "view",
      "type": "function"
    },
    {
      "inputs": [
        {
          "internalType": "address",
          "name": "_ton",
          "type": "address"
        },
        {
          "internalType": "address",
          "name": "_wton",
          "type": "address"
        },
        {
          "internalType": "address",
          "name": "_tot",
          "type": "address"
        },
        {
          "internalType": "address[4]",
          "name": "addr",
          "type": "address[4]"
        },
        {
          "internalType": "uint256",
          "name": "_seigPerBlock",
          "type": "uint256"
        },
        {
          "internalType": "uint32",
          "name": "_minimumBlocksForUpdateSeig",
          "type": "uint32"
        },
        {
          "internalType": "uint16[4]",
          "name": "_rates",
          "type": "uint16[4]"
        }
      ],
      "name": "fixInitialize",
      "outputs": [],
      "stateMutability": "nonpayable",
      "type": "function"
    },
    {
      "inputs": [
        {
          "internalType": "bytes32",
          "name": "role",
          "type": "bytes32"
        }
      ],
      "name": "getRoleAdmin",
      "outputs": [
        {
          "internalType": "bytes32",
          "name": "",
          "type": "bytes32"
        }
      ],
      "stateMutability": "view",
      "type": "function"
    },
    {
      "inputs": [
        {
          "internalType": "bytes32",
          "name": "role",
          "type": "bytes32"
        },
        {
          "internalType": "address",
          "name": "account",
          "type": "address"
        }
      ],
      "name": "grantRole",
      "outputs": [],
      "stateMutability": "nonpayable",
      "type": "function"
    },
    {
      "inputs": [
        {
          "internalType": "bytes32",
          "name": "role",
          "type": "bytes32"
        },
        {
          "internalType": "address",
          "name": "account",
          "type": "address"
        }
      ],
      "name": "hasRole",
      "outputs": [
        {
          "internalType": "bool",
          "name": "",
          "type": "bool"
        }
      ],
      "stateMutability": "view",
      "type": "function"
    },
    {
      "inputs": [
        {
          "internalType": "address",
          "name": "account",
          "type": "address"
        }
      ],
      "name": "isAdmin",
      "outputs": [
        {
          "internalType": "bool",
          "name": "",
          "type": "bool"
        }
      ],
      "stateMutability": "view",
      "type": "function"
    },
    {
      "inputs": [],
      "name": "lastSeigBlock",
      "outputs": [
        {
          "internalType": "uint256",
          "name": "",
          "type": "uint256"
        }
      ],
      "stateMutability": "view",
      "type": "function"
    },
    {
      "inputs": [],
      "name": "layer2Manager",
      "outputs": [
        {
          "internalType": "address",
          "name": "",
          "type": "address"
        }
      ],
      "stateMutability": "view",
      "type": "function"
    },
    {
      "inputs": [],
      "name": "minimumBlocksForUpdateSeig",
      "outputs": [
        {
          "internalType": "uint32",
          "name": "",
          "type": "uint32"
        }
      ],
      "stateMutability": "view",
      "type": "function"
    },
    {
      "inputs": [],
      "name": "optimismL2Operator",
      "outputs": [
        {
          "internalType": "address",
          "name": "",
          "type": "address"
        }
      ],
      "stateMutability": "view",
      "type": "function"
    },
    {
      "inputs": [],
      "name": "pauseProxy",
      "outputs": [
        {
          "internalType": "bool",
          "name": "",
          "type": "bool"
        }
      ],
      "stateMutability": "view",
      "type": "function"
    },
    {
      "inputs": [
        {
          "internalType": "uint256",
          "name": "",
          "type": "uint256"
        }
      ],
      "name": "proxyImplementation",
      "outputs": [
        {
          "internalType": "address",
          "name": "",
          "type": "address"
        }
      ],
      "stateMutability": "view",
      "type": "function"
    },
    {
      "inputs": [],
      "name": "ratesDao",
      "outputs": [
        {
          "internalType": "uint16",
          "name": "",
          "type": "uint16"
        }
      ],
      "stateMutability": "view",
      "type": "function"
    },
    {
      "inputs": [],
      "name": "ratesStosHolders",
      "outputs": [
        {
          "internalType": "uint16",
          "name": "",
          "type": "uint16"
        }
      ],
      "stateMutability": "view",
      "type": "function"
    },
    {
      "inputs": [],
      "name": "ratesTonStakers",
      "outputs": [
        {
          "internalType": "uint16",
          "name": "",
          "type": "uint16"
        }
      ],
      "stateMutability": "view",
      "type": "function"
    },
    {
      "inputs": [],
      "name": "ratesUnits",
      "outputs": [
        {
          "internalType": "uint16",
          "name": "",
          "type": "uint16"
        }
      ],
      "stateMutability": "view",
      "type": "function"
    },
    {
      "inputs": [
        {
          "internalType": "address",
          "name": "account",
          "type": "address"
        }
      ],
      "name": "removeAdmin",
      "outputs": [],
      "stateMutability": "nonpayable",
      "type": "function"
    },
    {
      "inputs": [
        {
          "internalType": "bytes32",
          "name": "role",
          "type": "bytes32"
        },
        {
          "internalType": "address",
          "name": "account",
          "type": "address"
        }
      ],
      "name": "renounceRole",
      "outputs": [],
      "stateMutability": "nonpayable",
      "type": "function"
    },
    {
      "inputs": [
        {
          "internalType": "bytes32",
          "name": "role",
          "type": "bytes32"
        },
        {
          "internalType": "address",
          "name": "account",
          "type": "address"
        }
      ],
      "name": "revokeRole",
      "outputs": [],
      "stateMutability": "nonpayable",
      "type": "function"
    },
    {
      "inputs": [],
      "name": "seigManagerV1",
      "outputs": [
        {
          "internalType": "address",
          "name": "",
          "type": "address"
        }
      ],
      "stateMutability": "view",
      "type": "function"
    },
    {
      "inputs": [],
      "name": "seigPerBlock",
      "outputs": [
        {
          "internalType": "uint256",
          "name": "",
          "type": "uint256"
        }
      ],
      "stateMutability": "view",
      "type": "function"
    },
    {
      "inputs": [
        {
          "internalType": "bytes4",
          "name": "",
          "type": "bytes4"
        }
      ],
      "name": "selectorImplementation",
      "outputs": [
        {
          "internalType": "address",
          "name": "",
          "type": "address"
        }
      ],
      "stateMutability": "view",
      "type": "function"
    },
    {
      "inputs": [
        {
          "internalType": "uint256",
          "name": "",
          "type": "uint256"
        }
      ],
      "name": "snapshotTime",
      "outputs": [
        {
          "internalType": "uint32",
          "name": "",
          "type": "uint32"
        }
      ],
      "stateMutability": "view",
      "type": "function"
    },
    {
      "inputs": [],
      "name": "startBlock",
      "outputs": [
        {
          "internalType": "uint256",
          "name": "",
          "type": "uint256"
        }
      ],
      "stateMutability": "view",
      "type": "function"
    },
    {
      "inputs": [],
      "name": "stosDistribute",
      "outputs": [
        {
          "internalType": "address",
          "name": "",
          "type": "address"
        }
      ],
      "stateMutability": "view",
      "type": "function"
    },
    {
      "inputs": [
        {
          "internalType": "bytes4",
          "name": "interfaceId",
          "type": "bytes4"
        }
      ],
      "name": "supportsInterface",
      "outputs": [
        {
          "internalType": "bool",
          "name": "",
          "type": "bool"
        }
      ],
      "stateMutability": "view",
      "type": "function"
    },
    {
      "inputs": [],
      "name": "ton",
      "outputs": [
        {
          "internalType": "contract IERC20",
          "name": "",
          "type": "address"
        }
      ],
      "stateMutability": "view",
      "type": "function"
    },
    {
      "inputs": [],
      "name": "tot",
      "outputs": [
        {
          "internalType": "address",
          "name": "",
          "type": "address"
        }
      ],
      "stateMutability": "view",
      "type": "function"
    },
    {
      "inputs": [
        {
          "internalType": "address",
          "name": "newAdmin",
          "type": "address"
        }
      ],
      "name": "transferAdmin",
      "outputs": [],
      "stateMutability": "nonpayable",
      "type": "function"
    },
    {
      "inputs": [],
      "name": "wton",
      "outputs": [
        {
          "internalType": "address",
          "name": "",
          "type": "address"
        }
      ],
      "stateMutability": "view",
      "type": "function"
    }
  ],
  "bytecode": "0x60806040526011805460ff60601b19166c0100000000000000000000000017905534801561002c57600080fd5b506112688061003c6000396000f3fe608060405234801561001057600080fd5b506004361061025c5760003560e01c806363a8fd8911610145578063a16d6aa7116100bd578063d547741f1161008c578063f1ae4e9f11610071578063f1ae4e9f146105be578063f35c89e8146105cc578063fb7d324d146105d557600080fd5b8063d547741f14610598578063ec558b16146105ab57600080fd5b8063a16d6aa714610541578063a217fddf14610554578063b911135f1461055c578063cc48b9471461058557600080fd5b806375b238fc116101145780638cab73d6116100f95780638cab73d6146104e45780638d62d949146104f757806391d148541461050a57600080fd5b806375b238fc146104a55780638b95087b146104cc57600080fd5b806363a8fd891461045f5780636c8381f81461046c578063704802751461047f57806375829def1461049257600080fd5b80632f2ff15d116101d85780634ab6b462116101a7578063550d01a31161018c578063550d01a3146104205780635f40a3491461044357806363a3a2f51461044c57600080fd5b80634ab6b462146103db57806350d2a276146103f757600080fd5b80632f2ff15d1461039957806336568abe146103ac5780634162169f146103bf57806348cd4cb1146103d257600080fd5b8063229852461161022f578063248a9ca311610214578063248a9ca31461034d57806324d7806c1461037057806325dea4b01461038357600080fd5b806322985246146102f1578063247e55451461032657600080fd5b806301ffc9a71461026157806316b5d5bd146102895780631785f53c146102b45780631dc0f9bb146102c9575b600080fd5b61027461026f366004610f96565b6105e8565b60405190151581526020015b60405180910390f35b600b5461029c906001600160a01b031681565b6040516001600160a01b039091168152602001610280565b6102c76102c2366004610fdc565b61061f565b005b6102dc6102d7366004610ff7565b6106b1565b60405163ffffffff9091168152602001610280565b6103187ffb5864e8ff833c3cb2d2d08505e82ff02a43554c74a35d4f5a64e8526127831181565b604051908152602001610280565b60115461033a9062010000900461ffff1681565b60405161ffff9091168152602001610280565b61031861035b366004610ff7565b60009081526020819052604090206001015490565b61027461037e366004610fdc565b6106eb565b60115461033a90640100000000900461ffff1681565b6102c76103a7366004611010565b61072b565b6102c76103ba366004611010565b610755565b60075461029c906001600160a01b031681565b61031860105481565b6011546102dc9068010000000000000000900463ffffffff1681565b61029c610405366004610f96565b6004602052600090815260409020546001600160a01b031681565b61027461042e366004610fdc565b60036020526000908152604090205460ff1681565b610318600e5481565b60095461029c906001600160a01b031681565b6001546102749060ff1681565b600d5461029c906001600160a01b031681565b6102c761048d366004610fdc565b6107e1565b6102c76104a0366004610fdc565b61086b565b6103187fdf8b4c520ffe197c5343c6f5aec59570151ef9a492f2c624fd45ddde6135ec4281565b60115461033a906601000000000000900461ffff1681565b6102c76104f236600461104d565b6109cd565b60065461029c906001600160a01b031681565b610274610518366004611010565b6000918252602082815260408084206001600160a01b0393909316845291905290205460ff1690565b600a5461029c906001600160a01b031681565b610318600081565b61029c61056a366004610ff7565b6002602052600090815260409020546001600160a01b031681565b60055461029c906001600160a01b031681565b6102c76105a6366004611010565b610c15565b600c5461029c906001600160a01b031681565b60115461033a9061ffff1681565b610318600f5481565b60085461029c906001600160a01b031681565b60006001600160e01b03198216637965db0b60e01b148061061957506301ffc9a760e01b6001600160e01b03198316145b92915050565b610628336106eb565b6106845760405162461bcd60e51b815260206004820152602260248201527f41636365737369626c653a2043616c6c6572206973206e6f7420616e2061646d60448201526134b760f11b60648201526084015b60405180910390fd5b6106ae7fdf8b4c520ffe197c5343c6f5aec59570151ef9a492f2c624fd45ddde6135ec4282610755565b50565b601681815481106106c157600080fd5b9060005260206000209060089182820401919006600402915054906101000a900463ffffffff1681565b6001600160a01b03811660009081527f5cbfc8ee58ca47855df7bcf648dd304ddb6b932f9b87878bdf6318d7ec7ee5b7602052604081205460ff16610619565b60008281526020819052604090206001015461074681610c3a565b6107508383610c44565b505050565b6001600160a01b03811633146107d35760405162461bcd60e51b815260206004820152602f60248201527f416363657373436f6e74726f6c3a2063616e206f6e6c792072656e6f756e636560448201527f20726f6c657320666f722073656c660000000000000000000000000000000000606482015260840161067b565b6107dd8282610ce2565b5050565b6107ea336106eb565b6108415760405162461bcd60e51b815260206004820152602260248201527f41636365737369626c653a2043616c6c6572206973206e6f7420616e2061646d60448201526134b760f11b606482015260840161067b565b6106ae7fdf8b4c520ffe197c5343c6f5aec59570151ef9a492f2c624fd45ddde6135ec428261072b565b610874336106eb565b6108cb5760405162461bcd60e51b815260206004820152602260248201527f41636365737369626c653a2043616c6c6572206973206e6f7420616e2061646d60448201526134b760f11b606482015260840161067b565b6001600160a01b0381166109215760405162461bcd60e51b815260206004820152601860248201527f41636365737369626c653a207a65726f20616464726573730000000000000000604482015260640161067b565b6001600160a01b03811633036109795760405162461bcd60e51b815260206004820152601660248201527f41636365737369626c653a2073616d652061646d696e00000000000000000000604482015260640161067b565b6109a37fdf8b4c520ffe197c5343c6f5aec59570151ef9a492f2c624fd45ddde6135ec428261072b565b6106ae7fdf8b4c520ffe197c5343c6f5aec59570151ef9a492f2c624fd45ddde6135ec4233610755565b6109d6336106eb565b610a2d5760405162461bcd60e51b815260206004820152602260248201527f41636365737369626c653a2043616c6c6572206973206e6f7420616e2061646d60448201526134b760f11b606482015260840161067b565b610a3d60808201606083016110f2565b6011805461ffff9290921666010000000000000267ffff00000000000019909216919091179055610a7160208201826110f2565b6011805461ffff191661ffff92909216919091179055610a9760408201602083016110f2565b6011805461ffff92909216620100000263ffff000019909216919091179055610ac660608201604083016110f2565b6011805461ffff929092166401000000000265ffff0000000019909216919091179055610af66020850185610fdc565b600980546001600160a01b03199081166001600160a01b03938416179091556005805482168a8416179055600680548216898416179055600a8054909116918716919091179055610b4d6040850160208601610fdc565b600b80546001600160a01b0319166001600160a01b0392909216919091179055610b7d6060850160408601610fdc565b600c80546001600160a01b0319166001600160a01b0392909216919091179055610bad6080850160608601610fdc565b600d80546001600160a01b0319166001600160a01b039290921691909117905550600e91909155601180546bffffffff000000000000000019166801000000000000000063ffffffff909316929092029190911790555050670de0b6b3a76400006013555050565b600082815260208190526040902060010154610c3081610c3a565b6107508383610ce2565b6106ae8133610d61565b6000828152602081815260408083206001600160a01b038516845290915290205460ff166107dd576000828152602081815260408083206001600160a01b03851684529091529020805460ff19166001179055610c9e3390565b6001600160a01b0316816001600160a01b0316837f2f8788117e7eff1d82e926ec794901d17c78024a50270940304540a733656f0d60405160405180910390a45050565b6000828152602081815260408083206001600160a01b038516845290915290205460ff16156107dd576000828152602081815260408083206001600160a01b0385168085529252808320805460ff1916905551339285917ff6391f5c32d9c69d2a47ea670b442974b53935d1edc7fd64eb21e047a839171b9190a45050565b6000828152602081815260408083206001600160a01b038516845290915290205460ff166107dd57610d9281610dd4565b610d9d836020610de6565b604051602001610dae92919061113a565b60408051601f198184030181529082905262461bcd60e51b825261067b916004016111bb565b60606106196001600160a01b03831660145b60606000610df5836002611204565b610e0090600261121b565b67ffffffffffffffff811115610e1857610e1861122e565b6040519080825280601f01601f191660200182016040528015610e42576020820181803683370190505b509050600360fc1b81600081518110610e5d57610e5d6110dc565b60200101906001600160f81b031916908160001a905350600f60fb1b81600181518110610e8c57610e8c6110dc565b60200101906001600160f81b031916908160001a9053506000610eb0846002611204565b610ebb90600161121b565b90505b6001811115610f40577f303132333435363738396162636465660000000000000000000000000000000085600f1660108110610efc57610efc6110dc565b1a60f81b828281518110610f1257610f126110dc565b60200101906001600160f81b031916908160001a90535060049490941c93610f3981611244565b9050610ebe565b508315610f8f5760405162461bcd60e51b815260206004820181905260248201527f537472696e67733a20686578206c656e67746820696e73756666696369656e74604482015260640161067b565b9392505050565b600060208284031215610fa857600080fd5b81356001600160e01b031981168114610f8f57600080fd5b80356001600160a01b0381168114610fd757600080fd5b919050565b600060208284031215610fee57600080fd5b610f8f82610fc0565b60006020828403121561100957600080fd5b5035919050565b6000806040838503121561102357600080fd5b8235915061103360208401610fc0565b90509250929050565b806080810183101561061957600080fd5b60008060008060008060006101a0888a03121561106957600080fd5b61107288610fc0565b965061108060208901610fc0565b955061108e60408901610fc0565b945061109d8960608a0161103c565b935060e0880135925061010088013563ffffffff811681146110be57600080fd5b91506110ce896101208a0161103c565b905092959891949750929550565b634e487b7160e01b600052603260045260246000fd5b60006020828403121561110457600080fd5b813561ffff81168114610f8f57600080fd5b60005b83811015611131578181015183820152602001611119565b50506000910152565b7f416363657373436f6e74726f6c3a206163636f756e7420000000000000000000815260008351611172816017850160208801611116565b7f206973206d697373696e6720726f6c652000000000000000000000000000000060179184019182015283516111af816028840160208801611116565b01602801949350505050565b60208152600082518060208401526111da816040850160208701611116565b601f01601f19169190910160400192915050565b634e487b7160e01b600052601160045260246000fd5b8082028115828204841417610619576106196111ee565b80820180821115610619576106196111ee565b634e487b7160e01b600052604160045260246000fd5b600081611253576112536111ee565b50600019019056fea164736f6c6343000812000a",
  "linkReferences": {},
  "deployedLinkReferences": {}
}