{
  "_format": "hh-sol-artifact-1",
  "contractName": "SeigManagerV2Initialize",
  "sourceName": "contracts/fixInitialize/SeigManagerV2Initialize.sol",
  "abi": [
    {
      "inputs": [],
      "stateMutability": "nonpayable",
      "type": "constructor"
    },
    {
      "anonymous": false,
      "inputs": [
        {
          "indexed": true,
          "internalType": "bytes32",
          "name": "role",
          "type": "bytes32"
        },
        {
          "indexed": true,
          "internalType": "bytes32",
          "name": "previousAdminRole",
          "type": "bytes32"
        },
        {
          "indexed": true,
          "internalType": "bytes32",
          "name": "newAdminRole",
          "type": "bytes32"
        }
      ],
      "name": "RoleAdminChanged",
      "type": "event"
    },
    {
      "anonymous": false,
      "inputs": [
        {
          "indexed": true,
          "internalType": "bytes32",
          "name": "role",
          "type": "bytes32"
        },
        {
          "indexed": true,
          "internalType": "address",
          "name": "account",
          "type": "address"
        },
        {
          "indexed": true,
          "internalType": "address",
          "name": "sender",
          "type": "address"
        }
      ],
      "name": "RoleGranted",
      "type": "event"
    },
    {
      "anonymous": false,
      "inputs": [
        {
          "indexed": true,
          "internalType": "bytes32",
          "name": "role",
          "type": "bytes32"
        },
        {
          "indexed": true,
          "internalType": "address",
          "name": "account",
          "type": "address"
        },
        {
          "indexed": true,
          "internalType": "address",
          "name": "sender",
          "type": "address"
        }
      ],
      "name": "RoleRevoked",
      "type": "event"
    },
    {
      "inputs": [],
      "name": "ADMIN_ROLE",
      "outputs": [
        {
          "internalType": "bytes32",
          "name": "",
          "type": "bytes32"
        }
      ],
      "stateMutability": "view",
      "type": "function"
    },
    {
      "inputs": [],
      "name": "DEFAULT_ADMIN_ROLE",
      "outputs": [
        {
          "internalType": "bytes32",
          "name": "",
          "type": "bytes32"
        }
      ],
      "stateMutability": "view",
      "type": "function"
    },
    {
      "inputs": [],
      "name": "POLICY_ROLE",
      "outputs": [
        {
          "internalType": "bytes32",
          "name": "",
          "type": "bytes32"
        }
      ],
      "stateMutability": "view",
      "type": "function"
    },
    {
      "inputs": [
        {
          "internalType": "address",
          "name": "account",
          "type": "address"
        }
      ],
      "name": "addAdmin",
      "outputs": [],
      "stateMutability": "nonpayable",
      "type": "function"
    },
    {
      "inputs": [
        {
          "internalType": "address",
          "name": "",
          "type": "address"
        }
      ],
      "name": "aliveImplementation",
      "outputs": [
        {
          "internalType": "bool",
          "name": "",
          "type": "bool"
        }
      ],
      "stateMutability": "view",
      "type": "function"
    },
    {
      "inputs": [],
      "name": "candidate",
      "outputs": [
        {
          "internalType": "address",
          "name": "",
          "type": "address"
        }
      ],
      "stateMutability": "view",
      "type": "function"
    },
    {
      "inputs": [],
      "name": "claimedSeigsOfIndexLton",
      "outputs": [
        {
          "internalType": "uint256",
          "name": "",
          "type": "uint256"
        }
      ],
      "stateMutability": "view",
      "type": "function"
    },
    {
      "inputs": [],
      "name": "claimedSeigsOfOperators",
      "outputs": [
        {
          "internalType": "uint256",
          "name": "",
          "type": "uint256"
        }
      ],
      "stateMutability": "view",
      "type": "function"
    },
    {
      "inputs": [],
      "name": "cumulativeSeigsOfIndexLton",
      "outputs": [
        {
          "internalType": "uint256",
          "name": "",
          "type": "uint256"
        }
      ],
      "stateMutability": "view",
      "type": "function"
    },
    {
      "inputs": [],
      "name": "cumulativeSeigsOfOperators",
      "outputs": [
        {
          "internalType": "uint256",
          "name": "",
          "type": "uint256"
        }
      ],
      "stateMutability": "view",
      "type": "function"
    },
    {
      "inputs": [],
      "name": "dao",
      "outputs": [
        {
          "internalType": "address",
          "name": "",
          "type": "address"
        }
      ],
      "stateMutability": "view",
      "type": "function"
    },
    {
      "inputs": [
        {
          "internalType": "address",
          "name": "_ton",
          "type": "address"
        },
        {
          "internalType": "address",
          "name": "_wton",
          "type": "address"
        },
        {
          "internalType": "address",
          "name": "_tot",
          "type": "address"
        },
        {
          "internalType": "address[4]",
          "name": "addr",
          "type": "address[4]"
        },
        {
          "internalType": "uint256",
          "name": "_seigPerBlock",
          "type": "uint256"
        },
        {
          "internalType": "uint32",
          "name": "_minimumBlocksForUpdateSeig",
          "type": "uint32"
        }
      ],
      "name": "fixInitialize",
      "outputs": [],
      "stateMutability": "nonpayable",
      "type": "function"
    },
    {
      "inputs": [
        {
          "internalType": "bytes32",
          "name": "role",
          "type": "bytes32"
        }
      ],
      "name": "getRoleAdmin",
      "outputs": [
        {
          "internalType": "bytes32",
          "name": "",
          "type": "bytes32"
        }
      ],
      "stateMutability": "view",
      "type": "function"
    },
    {
      "inputs": [
        {
          "internalType": "bytes32",
          "name": "role",
          "type": "bytes32"
        },
        {
          "internalType": "address",
          "name": "account",
          "type": "address"
        }
      ],
      "name": "grantRole",
      "outputs": [],
      "stateMutability": "nonpayable",
      "type": "function"
    },
    {
      "inputs": [
        {
          "internalType": "bytes32",
          "name": "role",
          "type": "bytes32"
        },
        {
          "internalType": "address",
          "name": "account",
          "type": "address"
        }
      ],
      "name": "hasRole",
      "outputs": [
        {
          "internalType": "bool",
          "name": "",
          "type": "bool"
        }
      ],
      "stateMutability": "view",
      "type": "function"
    },
    {
      "inputs": [
        {
          "internalType": "address",
          "name": "account",
          "type": "address"
        }
      ],
      "name": "isAdmin",
      "outputs": [
        {
          "internalType": "bool",
          "name": "",
          "type": "bool"
        }
      ],
      "stateMutability": "view",
      "type": "function"
    },
    {
      "inputs": [],
      "name": "lastSeigBlock",
      "outputs": [
        {
          "internalType": "uint256",
          "name": "",
          "type": "uint256"
        }
      ],
      "stateMutability": "view",
      "type": "function"
    },
    {
      "inputs": [],
      "name": "layer2Manager",
      "outputs": [
        {
          "internalType": "address",
          "name": "",
          "type": "address"
        }
      ],
      "stateMutability": "view",
      "type": "function"
    },
    {
      "inputs": [],
      "name": "minimumBlocksForUpdateSeig",
      "outputs": [
        {
          "internalType": "uint32",
          "name": "",
          "type": "uint32"
        }
      ],
      "stateMutability": "view",
      "type": "function"
    },
    {
      "inputs": [],
      "name": "optimismL2Operator",
      "outputs": [
        {
          "internalType": "address",
          "name": "",
          "type": "address"
        }
      ],
      "stateMutability": "view",
      "type": "function"
    },
    {
      "inputs": [],
      "name": "pauseProxy",
      "outputs": [
        {
          "internalType": "bool",
          "name": "",
          "type": "bool"
        }
      ],
      "stateMutability": "view",
      "type": "function"
    },
    {
      "inputs": [
        {
          "internalType": "uint256",
          "name": "",
          "type": "uint256"
        }
      ],
      "name": "proxyImplementation",
      "outputs": [
        {
          "internalType": "address",
          "name": "",
          "type": "address"
        }
      ],
      "stateMutability": "view",
      "type": "function"
    },
    {
      "inputs": [
        {
          "internalType": "address",
          "name": "account",
          "type": "address"
        }
      ],
      "name": "removeAdmin",
      "outputs": [],
      "stateMutability": "nonpayable",
      "type": "function"
    },
    {
      "inputs": [
        {
          "internalType": "bytes32",
          "name": "role",
          "type": "bytes32"
        },
        {
          "internalType": "address",
          "name": "account",
          "type": "address"
        }
      ],
      "name": "renounceRole",
      "outputs": [],
      "stateMutability": "nonpayable",
      "type": "function"
    },
    {
      "inputs": [
        {
          "internalType": "bytes32",
          "name": "role",
          "type": "bytes32"
        },
        {
          "internalType": "address",
          "name": "account",
          "type": "address"
        }
      ],
      "name": "revokeRole",
      "outputs": [],
      "stateMutability": "nonpayable",
      "type": "function"
    },
    {
      "inputs": [],
      "name": "seigManagerV1",
      "outputs": [
        {
          "internalType": "address",
          "name": "",
          "type": "address"
        }
      ],
      "stateMutability": "view",
      "type": "function"
    },
    {
      "inputs": [],
      "name": "seigPerBlock",
      "outputs": [
        {
          "internalType": "uint256",
          "name": "",
          "type": "uint256"
        }
      ],
      "stateMutability": "view",
      "type": "function"
    },
    {
      "inputs": [
        {
          "internalType": "bytes4",
          "name": "",
          "type": "bytes4"
        }
      ],
      "name": "selectorImplementation",
      "outputs": [
        {
          "internalType": "address",
          "name": "",
          "type": "address"
        }
      ],
      "stateMutability": "view",
      "type": "function"
    },
    {
      "inputs": [
        {
          "internalType": "uint256",
          "name": "",
          "type": "uint256"
        }
      ],
      "name": "snapshotTime",
      "outputs": [
        {
          "internalType": "uint32",
          "name": "",
          "type": "uint32"
        }
      ],
      "stateMutability": "view",
      "type": "function"
    },
    {
      "inputs": [],
      "name": "startBlock",
      "outputs": [
        {
          "internalType": "uint256",
          "name": "",
          "type": "uint256"
        }
      ],
      "stateMutability": "view",
      "type": "function"
    },
    {
      "inputs": [
        {
          "internalType": "bytes4",
          "name": "interfaceId",
          "type": "bytes4"
        }
      ],
      "name": "supportsInterface",
      "outputs": [
        {
          "internalType": "bool",
          "name": "",
          "type": "bool"
        }
      ],
      "stateMutability": "view",
      "type": "function"
    },
    {
      "inputs": [],
      "name": "ton",
      "outputs": [
        {
          "internalType": "contract IERC20",
          "name": "",
          "type": "address"
        }
      ],
      "stateMutability": "view",
      "type": "function"
    },
    {
      "inputs": [],
      "name": "tot",
      "outputs": [
        {
          "internalType": "address",
          "name": "",
          "type": "address"
        }
      ],
      "stateMutability": "view",
      "type": "function"
    },
    {
      "inputs": [
        {
          "internalType": "address",
          "name": "newAdmin",
          "type": "address"
        }
      ],
      "name": "transferAdmin",
      "outputs": [],
      "stateMutability": "nonpayable",
      "type": "function"
    },
    {
      "inputs": [],
      "name": "wton",
      "outputs": [
        {
          "internalType": "address",
          "name": "",
          "type": "address"
        }
      ],
      "stateMutability": "view",
      "type": "function"
    }
  ],
  "bytecode": "0x60806040526015805460ff1916600117905534801561001d57600080fd5b506110d98061002d6000396000f3fe608060405234801561001057600080fd5b50600436106102415760003560e01c806363a3a2f511610145578063a16d6aa7116100bd578063d547741f1161008c578063ec558b1611610071578063ec558b161461054a578063f2854fc41461055d578063f35c89e81461056657600080fd5b8063d547741f14610524578063dbe1704f1461053757600080fd5b8063a16d6aa7146104cd578063a217fddf146104e0578063b911135f146104e8578063cc48b9471461051157600080fd5b8063704802751161011457806375b238fc116100f957806375b238fc1461045c5780638d62d9491461048357806391d148541461049657600080fd5b8063704802751461043657806375829def1461044957600080fd5b806363a3a2f5146103fa57806363a8fd891461040d5780636c8381f81461041a5780636fab0d4f1461042d57600080fd5b806336568abe116101d857806350d2a276116101a75780635c7f252c1161018c5780635c7f252c146103df5780635f40a349146103e85780636342661b146103f157600080fd5b806350d2a27614610393578063550d01a3146103bc57600080fd5b806336568abe146103545780634162169f1461036757806348cd4cb11461037a5780634ab6b4621461038357600080fd5b8063229852461161021457806322985246146102d6578063248a9ca31461030b57806324d7806c1461032e5780632f2ff15d1461034157600080fd5b806301ffc9a71461024657806316b5d5bd1461026e5780631785f53c146102995780631dc0f9bb146102ae575b600080fd5b610259610254366004610e4a565b61056f565b60405190151581526020015b60405180910390f35b600a54610281906001600160a01b031681565b6040516001600160a01b039091168152602001610265565b6102ac6102a7366004610e90565b6105a6565b005b6102c16102bc366004610eab565b610638565b60405163ffffffff9091168152602001610265565b6102fd7ffb5864e8ff833c3cb2d2d08505e82ff02a43554c74a35d4f5a64e8526127831181565b604051908152602001610265565b6102fd610319366004610eab565b60009081526020819052604090206001015490565b61025961033c366004610e90565b610672565b6102ac61034f366004610ec4565b6106b2565b6102ac610362366004610ec4565b6106dc565b600754610281906001600160a01b031681565b6102fd600f5481565b6010546102c19063ffffffff1681565b6102816103a1366004610e4a565b6004602052600090815260409020546001600160a01b031681565b6102596103ca366004610e90565b60036020526000908152604090205460ff1681565b6102fd60125481565b6102fd600d5481565b6102fd60115481565b600854610281906001600160a01b031681565b6001546102599060ff1681565b600c54610281906001600160a01b031681565b6102fd60135481565b6102ac610444366004610e90565b610768565b6102ac610457366004610e90565b6107f2565b6102fd7fdf8b4c520ffe197c5343c6f5aec59570151ef9a492f2c624fd45ddde6135ec4281565b600654610281906001600160a01b031681565b6102596104a4366004610ec4565b6000918252602082815260408084206001600160a01b0393909316845291905290205460ff1690565b600954610281906001600160a01b031681565b6102fd600081565b6102816104f6366004610eab565b6002602052600090815260409020546001600160a01b031681565b600554610281906001600160a01b031681565b6102ac610532366004610ec4565b610954565b6102ac610545366004610ef0565b610979565b600b54610281906001600160a01b031681565b6102fd60145481565b6102fd600e5481565b60006001600160e01b03198216637965db0b60e01b14806105a057506301ffc9a760e01b6001600160e01b03198316145b92915050565b6105af33610672565b61060b5760405162461bcd60e51b815260206004820152602260248201527f41636365737369626c653a2043616c6c6572206973206e6f7420616e2061646d60448201526134b760f11b60648201526084015b60405180910390fd5b6106357fdf8b4c520ffe197c5343c6f5aec59570151ef9a492f2c624fd45ddde6135ec42826106dc565b50565b601a818154811061064857600080fd5b9060005260206000209060089182820401919006600402915054906101000a900463ffffffff1681565b6001600160a01b03811660009081527f5cbfc8ee58ca47855df7bcf648dd304ddb6b932f9b87878bdf6318d7ec7ee5b7602052604081205460ff166105a0565b6000828152602081905260409020600101546106cd81610aee565b6106d78383610af8565b505050565b6001600160a01b038116331461075a5760405162461bcd60e51b815260206004820152602f60248201527f416363657373436f6e74726f6c3a2063616e206f6e6c792072656e6f756e636560448201527f20726f6c657320666f722073656c6600000000000000000000000000000000006064820152608401610602565b6107648282610b96565b5050565b61077133610672565b6107c85760405162461bcd60e51b815260206004820152602260248201527f41636365737369626c653a2043616c6c6572206973206e6f7420616e2061646d60448201526134b760f11b6064820152608401610602565b6106357fdf8b4c520ffe197c5343c6f5aec59570151ef9a492f2c624fd45ddde6135ec42826106b2565b6107fb33610672565b6108525760405162461bcd60e51b815260206004820152602260248201527f41636365737369626c653a2043616c6c6572206973206e6f7420616e2061646d60448201526134b760f11b6064820152608401610602565b6001600160a01b0381166108a85760405162461bcd60e51b815260206004820152601860248201527f41636365737369626c653a207a65726f206164647265737300000000000000006044820152606401610602565b6001600160a01b03811633036109005760405162461bcd60e51b815260206004820152601660248201527f41636365737369626c653a2073616d652061646d696e000000000000000000006044820152606401610602565b61092a7fdf8b4c520ffe197c5343c6f5aec59570151ef9a492f2c624fd45ddde6135ec42826106b2565b6106357fdf8b4c520ffe197c5343c6f5aec59570151ef9a492f2c624fd45ddde6135ec42336106dc565b60008281526020819052604090206001015461096f81610aee565b6106d78383610b96565b61098233610672565b6109d95760405162461bcd60e51b815260206004820152602260248201527f41636365737369626c653a2043616c6c6572206973206e6f7420616e2061646d60448201526134b760f11b6064820152608401610602565b6109e66020840184610e90565b600880546001600160a01b03199081166001600160a01b039384161790915560058054821689841617905560068054821688841617905560098054909116918616919091179055610a3d6040840160208501610e90565b600a80546001600160a01b0319166001600160a01b0392909216919091179055610a6d6060840160408501610e90565b600b80546001600160a01b0319166001600160a01b0392909216919091179055610a9d6080840160608501610e90565b600c80546001600160a01b0319166001600160a01b0392909216919091179055600d919091556010805463ffffffff191663ffffffff9092169190911790555050670de0b6b3a76400006017555050565b6106358133610c15565b6000828152602081815260408083206001600160a01b038516845290915290205460ff16610764576000828152602081815260408083206001600160a01b03851684529091529020805460ff19166001179055610b523390565b6001600160a01b0316816001600160a01b0316837f2f8788117e7eff1d82e926ec794901d17c78024a50270940304540a733656f0d60405160405180910390a45050565b6000828152602081815260408083206001600160a01b038516845290915290205460ff1615610764576000828152602081815260408083206001600160a01b0385168085529252808320805460ff1916905551339285917ff6391f5c32d9c69d2a47ea670b442974b53935d1edc7fd64eb21e047a839171b9190a45050565b6000828152602081815260408083206001600160a01b038516845290915290205460ff1661076457610c4681610c88565b610c51836020610c9a565b604051602001610c62929190610fab565b60408051601f198184030181529082905262461bcd60e51b82526106029160040161102c565b60606105a06001600160a01b03831660145b60606000610ca9836002611075565b610cb490600261108c565b67ffffffffffffffff811115610ccc57610ccc61109f565b6040519080825280601f01601f191660200182016040528015610cf6576020820181803683370190505b509050600360fc1b81600081518110610d1157610d11610f71565b60200101906001600160f81b031916908160001a905350600f60fb1b81600181518110610d4057610d40610f71565b60200101906001600160f81b031916908160001a9053506000610d64846002611075565b610d6f90600161108c565b90505b6001811115610df4577f303132333435363738396162636465660000000000000000000000000000000085600f1660108110610db057610db0610f71565b1a60f81b828281518110610dc657610dc6610f71565b60200101906001600160f81b031916908160001a90535060049490941c93610ded816110b5565b9050610d72565b508315610e435760405162461bcd60e51b815260206004820181905260248201527f537472696e67733a20686578206c656e67746820696e73756666696369656e746044820152606401610602565b9392505050565b600060208284031215610e5c57600080fd5b81356001600160e01b031981168114610e4357600080fd5b80356001600160a01b0381168114610e8b57600080fd5b919050565b600060208284031215610ea257600080fd5b610e4382610e74565b600060208284031215610ebd57600080fd5b5035919050565b60008060408385031215610ed757600080fd5b82359150610ee760208401610e74565b90509250929050565b6000806000806000806101208789031215610f0a57600080fd5b610f1387610e74565b9550610f2160208801610e74565b9450610f2f60408801610e74565b935060e0870188811115610f4257600080fd5b60608801935035915061010087013563ffffffff81168114610f6357600080fd5b809150509295509295509295565b634e487b7160e01b600052603260045260246000fd5b60005b83811015610fa2578181015183820152602001610f8a565b50506000910152565b7f416363657373436f6e74726f6c3a206163636f756e7420000000000000000000815260008351610fe3816017850160208801610f87565b7f206973206d697373696e6720726f6c65200000000000000000000000000000006017918401918201528351611020816028840160208801610f87565b01602801949350505050565b602081526000825180602084015261104b816040850160208701610f87565b601f01601f19169190910160400192915050565b634e487b7160e01b600052601160045260246000fd5b80820281158282048414176105a0576105a061105f565b808201808211156105a0576105a061105f565b634e487b7160e01b600052604160045260246000fd5b6000816110c4576110c461105f565b50600019019056fea164736f6c6343000812000a",
  "linkReferences": {},
  "deployedLinkReferences": {}
}