{
  "_format": "hh-sol-artifact-1",
  "contractName": "BaseProxy",
  "sourceName": "contracts/proxy/BaseProxy.sol",
  "abi": [
    {
      "inputs": [],
      "stateMutability": "nonpayable",
      "type": "constructor"
    },
    {
      "anonymous": false,
      "inputs": [
        {
          "indexed": true,
          "internalType": "bytes32",
          "name": "role",
          "type": "bytes32"
        },
        {
          "indexed": true,
          "internalType": "bytes32",
          "name": "previousAdminRole",
          "type": "bytes32"
        },
        {
          "indexed": true,
          "internalType": "bytes32",
          "name": "newAdminRole",
          "type": "bytes32"
        }
      ],
      "name": "RoleAdminChanged",
      "type": "event"
    },
    {
      "anonymous": false,
      "inputs": [
        {
          "indexed": true,
          "internalType": "bytes32",
          "name": "role",
          "type": "bytes32"
        },
        {
          "indexed": true,
          "internalType": "address",
          "name": "account",
          "type": "address"
        },
        {
          "indexed": true,
          "internalType": "address",
          "name": "sender",
          "type": "address"
        }
      ],
      "name": "RoleGranted",
      "type": "event"
    },
    {
      "anonymous": false,
      "inputs": [
        {
          "indexed": true,
          "internalType": "bytes32",
          "name": "role",
          "type": "bytes32"
        },
        {
          "indexed": true,
          "internalType": "address",
          "name": "account",
          "type": "address"
        },
        {
          "indexed": true,
          "internalType": "address",
          "name": "sender",
          "type": "address"
        }
      ],
      "name": "RoleRevoked",
      "type": "event"
    },
    {
      "anonymous": false,
      "inputs": [
        {
          "indexed": true,
          "internalType": "address",
          "name": "impl",
          "type": "address"
        },
        {
          "indexed": false,
          "internalType": "bool",
          "name": "alive",
          "type": "bool"
        }
      ],
      "name": "SetAliveImplementation",
      "type": "event"
    },
    {
      "anonymous": false,
      "inputs": [
        {
          "indexed": true,
          "internalType": "bytes4",
          "name": "selector",
          "type": "bytes4"
        },
        {
          "indexed": true,
          "internalType": "address",
          "name": "impl",
          "type": "address"
        }
      ],
      "name": "SetSelectorImplementation",
      "type": "event"
    },
    {
      "anonymous": false,
      "inputs": [
        {
          "indexed": true,
          "internalType": "address",
          "name": "implementation",
          "type": "address"
        }
      ],
      "name": "Upgraded",
      "type": "event"
    },
    {
      "stateMutability": "payable",
      "type": "fallback"
    },
    {
      "inputs": [],
      "name": "ADMIN_ROLE",
      "outputs": [
        {
          "internalType": "bytes32",
          "name": "",
          "type": "bytes32"
        }
      ],
      "stateMutability": "view",
      "type": "function"
    },
    {
      "inputs": [],
      "name": "DEFAULT_ADMIN_ROLE",
      "outputs": [
        {
          "internalType": "bytes32",
          "name": "",
          "type": "bytes32"
        }
      ],
      "stateMutability": "view",
      "type": "function"
    },
    {
      "inputs": [],
      "name": "POLICY_ROLE",
      "outputs": [
        {
          "internalType": "bytes32",
          "name": "",
          "type": "bytes32"
        }
      ],
      "stateMutability": "view",
      "type": "function"
    },
    {
      "inputs": [
        {
          "internalType": "address",
          "name": "account",
          "type": "address"
        }
      ],
      "name": "addAdmin",
      "outputs": [],
      "stateMutability": "nonpayable",
      "type": "function"
    },
    {
      "inputs": [
        {
          "internalType": "address",
          "name": "",
          "type": "address"
        }
      ],
      "name": "aliveImplementation",
      "outputs": [
        {
          "internalType": "bool",
          "name": "",
          "type": "bool"
        }
      ],
      "stateMutability": "view",
      "type": "function"
    },
    {
      "inputs": [
        {
          "internalType": "bytes32",
          "name": "role",
          "type": "bytes32"
        }
      ],
      "name": "getRoleAdmin",
      "outputs": [
        {
          "internalType": "bytes32",
          "name": "",
          "type": "bytes32"
        }
      ],
      "stateMutability": "view",
      "type": "function"
    },
    {
      "inputs": [
        {
          "internalType": "bytes4",
          "name": "_selector",
          "type": "bytes4"
        }
      ],
      "name": "getSelectorImplementation2",
      "outputs": [
        {
          "internalType": "address",
          "name": "impl",
          "type": "address"
        }
      ],
      "stateMutability": "view",
      "type": "function"
    },
    {
      "inputs": [
        {
          "internalType": "bytes32",
          "name": "role",
          "type": "bytes32"
        },
        {
          "internalType": "address",
          "name": "account",
          "type": "address"
        }
      ],
      "name": "grantRole",
      "outputs": [],
      "stateMutability": "nonpayable",
      "type": "function"
    },
    {
      "inputs": [
        {
          "internalType": "bytes32",
          "name": "role",
          "type": "bytes32"
        },
        {
          "internalType": "address",
          "name": "account",
          "type": "address"
        }
      ],
      "name": "hasRole",
      "outputs": [
        {
          "internalType": "bool",
          "name": "",
          "type": "bool"
        }
      ],
      "stateMutability": "view",
      "type": "function"
    },
    {
      "inputs": [],
      "name": "implementation",
      "outputs": [
        {
          "internalType": "address",
          "name": "",
          "type": "address"
        }
      ],
      "stateMutability": "view",
      "type": "function"
    },
    {
      "inputs": [
        {
          "internalType": "uint256",
          "name": "_index",
          "type": "uint256"
        }
      ],
      "name": "implementation2",
      "outputs": [
        {
          "internalType": "address",
          "name": "",
          "type": "address"
        }
      ],
      "stateMutability": "view",
      "type": "function"
    },
    {
      "inputs": [
        {
          "internalType": "address",
          "name": "account",
          "type": "address"
        }
      ],
      "name": "isAdmin",
      "outputs": [
        {
          "internalType": "bool",
          "name": "",
          "type": "bool"
        }
      ],
      "stateMutability": "view",
      "type": "function"
    },
    {
      "inputs": [],
      "name": "pauseProxy",
      "outputs": [
        {
          "internalType": "bool",
          "name": "",
          "type": "bool"
        }
      ],
      "stateMutability": "view",
      "type": "function"
    },
    {
      "inputs": [
        {
          "internalType": "uint256",
          "name": "",
          "type": "uint256"
        }
      ],
      "name": "proxyImplementation",
      "outputs": [
        {
          "internalType": "address",
          "name": "",
          "type": "address"
        }
      ],
      "stateMutability": "view",
      "type": "function"
    },
    {
      "inputs": [
        {
          "internalType": "address",
          "name": "account",
          "type": "address"
        }
      ],
      "name": "removeAdmin",
      "outputs": [],
      "stateMutability": "nonpayable",
      "type": "function"
    },
    {
      "inputs": [
        {
          "internalType": "bytes32",
          "name": "role",
          "type": "bytes32"
        },
        {
          "internalType": "address",
          "name": "account",
          "type": "address"
        }
      ],
      "name": "renounceRole",
      "outputs": [],
      "stateMutability": "nonpayable",
      "type": "function"
    },
    {
      "inputs": [
        {
          "internalType": "bytes32",
          "name": "role",
          "type": "bytes32"
        },
        {
          "internalType": "address",
          "name": "account",
          "type": "address"
        }
      ],
      "name": "revokeRole",
      "outputs": [],
      "stateMutability": "nonpayable",
      "type": "function"
    },
    {
      "inputs": [
        {
          "internalType": "bytes4",
          "name": "",
          "type": "bytes4"
        }
      ],
      "name": "selectorImplementation",
      "outputs": [
        {
          "internalType": "address",
          "name": "",
          "type": "address"
        }
      ],
      "stateMutability": "view",
      "type": "function"
    },
    {
      "inputs": [
        {
          "internalType": "address",
          "name": "newImplementation",
          "type": "address"
        },
        {
          "internalType": "bool",
          "name": "_alive",
          "type": "bool"
        }
      ],
      "name": "setAliveImplementation2",
      "outputs": [],
      "stateMutability": "nonpayable",
      "type": "function"
    },
    {
      "inputs": [
        {
          "internalType": "address",
          "name": "newImplementation",
          "type": "address"
        },
        {
          "internalType": "uint256",
          "name": "_index",
          "type": "uint256"
        },
        {
          "internalType": "bool",
          "name": "_alive",
          "type": "bool"
        }
      ],
      "name": "setImplementation2",
      "outputs": [],
      "stateMutability": "nonpayable",
      "type": "function"
    },
    {
      "inputs": [
        {
          "internalType": "bool",
          "name": "_pause",
          "type": "bool"
        }
      ],
      "name": "setProxyPause",
      "outputs": [],
      "stateMutability": "nonpayable",
      "type": "function"
    },
    {
      "inputs": [
        {
          "internalType": "bytes4[]",
          "name": "_selectors",
          "type": "bytes4[]"
        },
        {
          "internalType": "address",
          "name": "_imp",
          "type": "address"
        }
      ],
      "name": "setSelectorImplementations2",
      "outputs": [],
      "stateMutability": "nonpayable",
      "type": "function"
    },
    {
      "inputs": [
        {
          "internalType": "bytes4",
          "name": "interfaceId",
          "type": "bytes4"
        }
      ],
      "name": "supportsInterface",
      "outputs": [
        {
          "internalType": "bool",
          "name": "",
          "type": "bool"
        }
      ],
      "stateMutability": "view",
      "type": "function"
    },
    {
      "inputs": [
        {
          "internalType": "address",
          "name": "newAdmin",
          "type": "address"
        }
      ],
      "name": "transferAdmin",
      "outputs": [],
      "stateMutability": "nonpayable",
      "type": "function"
    },
    {
      "inputs": [
        {
          "internalType": "address",
          "name": "impl",
          "type": "address"
        }
      ],
      "name": "upgradeTo",
      "outputs": [],
      "stateMutability": "nonpayable",
      "type": "function"
    },
    {
      "stateMutability": "payable",
      "type": "receive"
    }
  ],
  "bytecode": "0x60806040523480156200001157600080fd5b506200002d6000805160206200196f833981519152806200005b565b620000486000805160206200196f83398151915233620000a6565b62000055600033620000a6565b62000156565b600082815260208190526040808220600101805490849055905190918391839186917fbd79b86ffe0ab8e8776151514217cd7cacd52c909f66475c3af44e129f0b00ff9190a4505050565b620000b28282620000b6565b5050565b6000828152602081815260408083206001600160a01b038516845290915290205460ff16620000b2576000828152602081815260408083206001600160a01b03851684529091529020805460ff19166001179055620001123390565b6001600160a01b0316816001600160a01b0316837f2f8788117e7eff1d82e926ec794901d17c78024a50270940304540a733656f0d60405160405180910390a45050565b61180980620001666000396000f3fe60806040526004361061019a5760003560e01c80635cc797d8116100e15780637cd5f6631161008a57806391d148541161006457806391d148541461054f578063a217fddf14610593578063b911135f146105a8578063d547741f146105de576101ec565b80637cd5f663146104ef5780638b8f4a651461050f5780638d4fdb401461052f576101ec565b806375829def116100bb57806375829def1461047b57806375b238fc1461049b5780637cb00d25146104cf576101ec565b80635cc797d81461042157806363a8fd8914610441578063704802751461045b576101ec565b806336568abe1161014357806350d2a2761161011d57806350d2a2761461035d578063550d01a3146103ab5780635c60da1b146103db576101ec565b806336568abe146102fd5780633659cfe61461031d5780634a5df50f1461033d576101ec565b8063248a9ca311610174578063248a9ca31461028d57806324d7806c146102bd5780632f2ff15d146102dd576101ec565b806301ffc9a7146101f65780631785f53c1461022b578063229852461461024b576101ec565b366101ec5760405162461bcd60e51b815260206004820152601460248201527f63616e6e6f74207265636569766520457468657200000000000000000000000060448201526064015b60405180910390fd5b6101f46105fe565b005b34801561020257600080fd5b506102166102113660046114bb565b6106a7565b60405190151581526020015b60405180910390f35b34801561023757600080fd5b506101f46102463660046114fc565b6106de565b34801561025757600080fd5b5061027f7ffb5864e8ff833c3cb2d2d08505e82ff02a43554c74a35d4f5a64e8526127831181565b604051908152602001610222565b34801561029957600080fd5b5061027f6102a8366004611517565b60009081526020819052604090206001015490565b3480156102c957600080fd5b506102166102d83660046114fc565b610759565b3480156102e957600080fd5b506101f46102f8366004611530565b610799565b34801561030957600080fd5b506101f4610318366004611530565b6107be565b34801561032957600080fd5b506101f46103383660046114fc565b61084a565b34801561034957600080fd5b506101f461035836600461155c565b6109a3565b34801561036957600080fd5b506103936103783660046114bb565b6004602052600090815260409020546001600160a01b031681565b6040516001600160a01b039091168152602001610222565b3480156103b757600080fd5b506102166103c63660046114fc565b60036020526000908152604090205460ff1681565b3480156103e757600080fd5b506000805260026020527fac33ff75c19e70fe83507db0d683fd3465c996598dc972688b7ace676c89077b546001600160a01b0316610393565b34801561042d57600080fd5b506101f461043c3660046115f0565b610c50565b34801561044d57600080fd5b506001546102169060ff1681565b34801561046757600080fd5b506101f46104763660046114fc565b610ca8565b34801561048757600080fd5b506101f46104963660046114fc565b610d20565b3480156104a757600080fd5b5061027f7fdf8b4c520ffe197c5343c6f5aec59570151ef9a492f2c624fd45ddde6135ec4281565b3480156104db57600080fd5b506101f46104ea36600461161a565b610e70565b3480156104fb57600080fd5b506101f461050a366004611635565b610ed1565b34801561051b57600080fd5b5061039361052a366004611517565b610f2a565b34801561053b57600080fd5b5061039361054a3660046114bb565b610f47565b34801561055b57600080fd5b5061021661056a366004611530565b6000918252602082815260408084206001600160a01b0393909316845291905290205460ff1690565b34801561059f57600080fd5b5061027f600081565b3480156105b457600080fd5b506103936105c3366004611517565b6002602052600090815260409020546001600160a01b031681565b3480156105ea57600080fd5b506101f46105f9366004611530565b611043565b60006106156000356001600160e01b031916610f47565b90506001600160a01b03811615801590610632575060015460ff16155b61067e5760405162461bcd60e51b815260206004820152601d60248201527f50726f78793a20696d706c204f522070726f78792069732066616c736500000060448201526064016101e3565b3660008037600080366000845af43d6000803e80801561069d573d6000f35b3d6000fd5b505050565b60006001600160e01b03198216637965db0b60e01b14806106d857506301ffc9a760e01b6001600160e01b03198316145b92915050565b6106e733610759565b61072c5760405162461bcd60e51b815260206004820152602260248201526000805160206117dd83398151915260448201526134b760f11b60648201526084016101e3565b6107567fdf8b4c520ffe197c5343c6f5aec59570151ef9a492f2c624fd45ddde6135ec42826107be565b50565b6001600160a01b03811660009081527f5cbfc8ee58ca47855df7bcf648dd304ddb6b932f9b87878bdf6318d7ec7ee5b7602052604081205460ff166106d8565b6000828152602081905260409020600101546107b481611068565b6106a28383611072565b6001600160a01b038116331461083c5760405162461bcd60e51b815260206004820152602f60248201527f416363657373436f6e74726f6c3a2063616e206f6e6c792072656e6f756e636560448201527f20726f6c657320666f722073656c66000000000000000000000000000000000060648201526084016101e3565b6108468282611110565b5050565b61085333610759565b6108985760405162461bcd60e51b815260206004820152602260248201526000805160206117dd83398151915260448201526134b760f11b60648201526084016101e3565b6001600160a01b0381166108ee5760405162461bcd60e51b815260206004820152600d60248201527f696e707574206973207a65726f0000000000000000000000000000000000000060448201526064016101e3565b6000805260026020527fac33ff75c19e70fe83507db0d683fd3465c996598dc972688b7ace676c89077b546001600160a01b0382811691160361095f5760405162461bcd60e51b815260206004820152600960248201526839b0b6b29030b2323960b91b60448201526064016101e3565b61096c816000600161118f565b6040516001600160a01b038216907fbc7cd75a20ee27fd9adebab32041f755214dbc6bffa90cc0225b39da2e5c2d3b90600090a250565b6109ac33610759565b6109f15760405162461bcd60e51b815260206004820152602260248201526000805160206117dd83398151915260448201526134b760f11b60648201526084016101e3565b81610a3e5760405162461bcd60e51b815260206004820181905260248201527f50726f78793a205f73656c6563746f727327732073697a65206973207a65726f60448201526064016101e3565b6001600160a01b03811660009081526003602052604090205460ff16610aa65760405162461bcd60e51b815260206004820152601860248201527f50726f78793a205f696d70206973206e6f7420616c697665000000000000000060448201526064016101e3565b60005b82811015610c4a57816001600160a01b031660046000868685818110610ad157610ad1611668565b9050602002016020810190610ae691906114bb565b6001600160e01b03191681526020810191909152604001600020546001600160a01b031603610b575760405162461bcd60e51b815260206004820152601d60248201527f4c69717569646974795661756c7450726f78793a2073616d6520696d7000000060448201526064016101e3565b8160046000868685818110610b6e57610b6e611668565b9050602002016020810190610b8391906114bb565b6001600160e01b03191681526020810191909152604001600020805473ffffffffffffffffffffffffffffffffffffffff19166001600160a01b039283161790558216848483818110610bd857610bd8611668565b9050602002016020810190610bed91906114bb565b7bffffffffffffffffffffffffffffffffffffffffffffffffffffffff19167f14ebc1c32aa68f4d766e89f3e546cee249f7df25183fc10ab1568d91c2ce9b7b60405160405180910390a380610c4281611694565b915050610aa9565b50505050565b610c5933610759565b610c9e5760405162461bcd60e51b815260206004820152602260248201526000805160206117dd83398151915260448201526134b760f11b60648201526084016101e3565b6108468282611227565b610cb133610759565b610cf65760405162461bcd60e51b815260206004820152602260248201526000805160206117dd83398151915260448201526134b760f11b60648201526084016101e3565b6107567fdf8b4c520ffe197c5343c6f5aec59570151ef9a492f2c624fd45ddde6135ec4282610799565b610d2933610759565b610d6e5760405162461bcd60e51b815260206004820152602260248201526000805160206117dd83398151915260448201526134b760f11b60648201526084016101e3565b6001600160a01b038116610dc45760405162461bcd60e51b815260206004820152601860248201527f41636365737369626c653a207a65726f2061646472657373000000000000000060448201526064016101e3565b6001600160a01b0381163303610e1c5760405162461bcd60e51b815260206004820152601660248201527f41636365737369626c653a2073616d652061646d696e0000000000000000000060448201526064016101e3565b610e467fdf8b4c520ffe197c5343c6f5aec59570151ef9a492f2c624fd45ddde6135ec4282610799565b6107567fdf8b4c520ffe197c5343c6f5aec59570151ef9a492f2c624fd45ddde6135ec42336107be565b610e7933610759565b610ebe5760405162461bcd60e51b815260206004820152602260248201526000805160206117dd83398151915260448201526134b760f11b60648201526084016101e3565b6001805460ff1916911515919091179055565b610eda33610759565b610f1f5760405162461bcd60e51b815260206004820152602260248201526000805160206117dd83398151915260448201526134b760f11b60648201526084016101e3565b6106a283838361118f565b6000818152600260205260408120546001600160a01b03166106d8565b6001600160e01b031981166000908152600460205260408120546001600160a01b0316610fa75750506000805260026020527fac33ff75c19e70fe83507db0d683fd3465c996598dc972688b7ace676c89077b546001600160a01b031690565b6001600160e01b031982166000908152600460209081526040808320546001600160a01b03168352600390915290205460ff161561100557506001600160e01b0319166000908152600460205260409020546001600160a01b031690565b50506000805260026020527fac33ff75c19e70fe83507db0d683fd3465c996598dc972688b7ace676c89077b546001600160a01b031690565b919050565b60008281526020819052604090206001015461105e81611068565b6106a28383611110565b6107568133611286565b6000828152602081815260408083206001600160a01b038516845290915290205460ff16610846576000828152602081815260408083206001600160a01b03851684529091529020805460ff191660011790556110cc3390565b6001600160a01b0316816001600160a01b0316837f2f8788117e7eff1d82e926ec794901d17c78024a50270940304540a733656f0d60405160405180910390a45050565b6000828152602081815260408083206001600160a01b038516845290915290205460ff1615610846576000828152602081815260408083206001600160a01b0385168085529252808320805460ff1916905551339285917ff6391f5c32d9c69d2a47ea670b442974b53935d1edc7fd64eb21e047a839171b9190a45050565b6001600160a01b0383163b6111e65760405162461bcd60e51b815260206004820152601b60248201527f50726f78793a206e6f7420636f6e74726163742061646472657373000000000060448201526064016101e3565b8015611221576000828152600260205260409020805473ffffffffffffffffffffffffffffffffffffffff19166001600160a01b0385161790555b6106a283825b6001600160a01b038216600081815260036020908152604091829020805460ff191685151590811790915591519182527f72558d9bfba4210f9ef095c782589484151f6d90f7a81bb3cb9b33efc695d324910160405180910390a25050565b6000828152602081815260408083206001600160a01b038516845290915290205460ff16610846576112b7816112f9565b6112c283602061130b565b6040516020016112d39291906116d1565b60408051601f198184030181529082905262461bcd60e51b82526101e391600401611752565b60606106d86001600160a01b03831660145b6060600061131a836002611785565b61132590600261179c565b67ffffffffffffffff81111561133d5761133d6117af565b6040519080825280601f01601f191660200182016040528015611367576020820181803683370190505b509050600360fc1b8160008151811061138257611382611668565b60200101906001600160f81b031916908160001a905350600f60fb1b816001815181106113b1576113b1611668565b60200101906001600160f81b031916908160001a90535060006113d5846002611785565b6113e090600161179c565b90505b6001811115611465577f303132333435363738396162636465660000000000000000000000000000000085600f166010811061142157611421611668565b1a60f81b82828151811061143757611437611668565b60200101906001600160f81b031916908160001a90535060049490941c9361145e816117c5565b90506113e3565b5083156114b45760405162461bcd60e51b815260206004820181905260248201527f537472696e67733a20686578206c656e67746820696e73756666696369656e7460448201526064016101e3565b9392505050565b6000602082840312156114cd57600080fd5b81356001600160e01b0319811681146114b457600080fd5b80356001600160a01b038116811461103e57600080fd5b60006020828403121561150e57600080fd5b6114b4826114e5565b60006020828403121561152957600080fd5b5035919050565b6000806040838503121561154357600080fd5b82359150611553602084016114e5565b90509250929050565b60008060006040848603121561157157600080fd5b833567ffffffffffffffff8082111561158957600080fd5b818601915086601f83011261159d57600080fd5b8135818111156115ac57600080fd5b8760208260051b85010111156115c157600080fd5b6020928301955093506115d791860190506114e5565b90509250925092565b8035801515811461103e57600080fd5b6000806040838503121561160357600080fd5b61160c836114e5565b9150611553602084016115e0565b60006020828403121561162c57600080fd5b6114b4826115e0565b60008060006060848603121561164a57600080fd5b611653846114e5565b9250602084013591506115d7604085016115e0565b634e487b7160e01b600052603260045260246000fd5b634e487b7160e01b600052601160045260246000fd5b6000600182016116a6576116a661167e565b5060010190565b60005b838110156116c85781810151838201526020016116b0565b50506000910152565b7f416363657373436f6e74726f6c3a206163636f756e74200000000000000000008152600083516117098160178501602088016116ad565b7f206973206d697373696e6720726f6c652000000000000000000000000000000060179184019182015283516117468160288401602088016116ad565b01602801949350505050565b60208152600082518060208401526117718160408501602087016116ad565b601f01601f19169190910160400192915050565b80820281158282048414176106d8576106d861167e565b808201808211156106d8576106d861167e565b634e487b7160e01b600052604160045260246000fd5b6000816117d4576117d461167e565b50600019019056fe41636365737369626c653a2043616c6c6572206973206e6f7420616e2061646da164736f6c6343000812000adf8b4c520ffe197c5343c6f5aec59570151ef9a492f2c624fd45ddde6135ec42",
  "linkReferences": {},
  "deployedLinkReferences": {}
}