{
  "_format": "hh-sol-artifact-1",
  "contractName": "FwReceiptProxy",
  "sourceName": "contracts/proxy/FwReceiptProxy.sol",
  "abi": [
    {
      "inputs": [],
      "stateMutability": "nonpayable",
      "type": "constructor"
    },
    {
      "anonymous": false,
      "inputs": [
        {
          "indexed": true,
          "internalType": "bytes32",
          "name": "role",
          "type": "bytes32"
        },
        {
          "indexed": true,
          "internalType": "bytes32",
          "name": "previousAdminRole",
          "type": "bytes32"
        },
        {
          "indexed": true,
          "internalType": "bytes32",
          "name": "newAdminRole",
          "type": "bytes32"
        }
      ],
      "name": "RoleAdminChanged",
      "type": "event"
    },
    {
      "anonymous": false,
      "inputs": [
        {
          "indexed": true,
          "internalType": "bytes32",
          "name": "role",
          "type": "bytes32"
        },
        {
          "indexed": true,
          "internalType": "address",
          "name": "account",
          "type": "address"
        },
        {
          "indexed": true,
          "internalType": "address",
          "name": "sender",
          "type": "address"
        }
      ],
      "name": "RoleGranted",
      "type": "event"
    },
    {
      "anonymous": false,
      "inputs": [
        {
          "indexed": true,
          "internalType": "bytes32",
          "name": "role",
          "type": "bytes32"
        },
        {
          "indexed": true,
          "internalType": "address",
          "name": "account",
          "type": "address"
        },
        {
          "indexed": true,
          "internalType": "address",
          "name": "sender",
          "type": "address"
        }
      ],
      "name": "RoleRevoked",
      "type": "event"
    },
    {
      "anonymous": false,
      "inputs": [
        {
          "indexed": true,
          "internalType": "address",
          "name": "impl",
          "type": "address"
        },
        {
          "indexed": false,
          "internalType": "bool",
          "name": "alive",
          "type": "bool"
        }
      ],
      "name": "SetAliveImplementation",
      "type": "event"
    },
    {
      "anonymous": false,
      "inputs": [
        {
          "indexed": true,
          "internalType": "bytes4",
          "name": "selector",
          "type": "bytes4"
        },
        {
          "indexed": true,
          "internalType": "address",
          "name": "impl",
          "type": "address"
        }
      ],
      "name": "SetSelectorImplementation",
      "type": "event"
    },
    {
      "anonymous": false,
      "inputs": [
        {
          "indexed": true,
          "internalType": "address",
          "name": "implementation",
          "type": "address"
        }
      ],
      "name": "Upgraded",
      "type": "event"
    },
    {
      "stateMutability": "payable",
      "type": "fallback"
    },
    {
      "inputs": [],
      "name": "ADMIN_ROLE",
      "outputs": [
        {
          "internalType": "bytes32",
          "name": "",
          "type": "bytes32"
        }
      ],
      "stateMutability": "view",
      "type": "function"
    },
    {
      "inputs": [],
      "name": "DEFAULT_ADMIN_ROLE",
      "outputs": [
        {
          "internalType": "bytes32",
          "name": "",
          "type": "bytes32"
        }
      ],
      "stateMutability": "view",
      "type": "function"
    },
    {
      "inputs": [],
      "name": "POLICY_ROLE",
      "outputs": [
        {
          "internalType": "bytes32",
          "name": "",
          "type": "bytes32"
        }
      ],
      "stateMutability": "view",
      "type": "function"
    },
    {
      "inputs": [
        {
          "internalType": "address",
          "name": "account",
          "type": "address"
        }
      ],
      "name": "addAdmin",
      "outputs": [],
      "stateMutability": "nonpayable",
      "type": "function"
    },
    {
      "inputs": [
        {
          "internalType": "address",
          "name": "",
          "type": "address"
        }
      ],
      "name": "aliveImplementation",
      "outputs": [
        {
          "internalType": "bool",
          "name": "",
          "type": "bool"
        }
      ],
      "stateMutability": "view",
      "type": "function"
    },
    {
      "inputs": [],
      "name": "candidate",
      "outputs": [
        {
          "internalType": "address",
          "name": "",
          "type": "address"
        }
      ],
      "stateMutability": "view",
      "type": "function"
    },
    {
      "inputs": [
        {
          "internalType": "bytes32",
          "name": "role",
          "type": "bytes32"
        }
      ],
      "name": "getRoleAdmin",
      "outputs": [
        {
          "internalType": "bytes32",
          "name": "",
          "type": "bytes32"
        }
      ],
      "stateMutability": "view",
      "type": "function"
    },
    {
      "inputs": [
        {
          "internalType": "bytes4",
          "name": "_selector",
          "type": "bytes4"
        }
      ],
      "name": "getSelectorImplementation2",
      "outputs": [
        {
          "internalType": "address",
          "name": "impl",
          "type": "address"
        }
      ],
      "stateMutability": "view",
      "type": "function"
    },
    {
      "inputs": [
        {
          "internalType": "bytes32",
          "name": "role",
          "type": "bytes32"
        },
        {
          "internalType": "address",
          "name": "account",
          "type": "address"
        }
      ],
      "name": "grantRole",
      "outputs": [],
      "stateMutability": "nonpayable",
      "type": "function"
    },
    {
      "inputs": [
        {
          "internalType": "bytes32",
          "name": "role",
          "type": "bytes32"
        },
        {
          "internalType": "address",
          "name": "account",
          "type": "address"
        }
      ],
      "name": "hasRole",
      "outputs": [
        {
          "internalType": "bool",
          "name": "",
          "type": "bool"
        }
      ],
      "stateMutability": "view",
      "type": "function"
    },
    {
      "inputs": [],
      "name": "implementation",
      "outputs": [
        {
          "internalType": "address",
          "name": "",
          "type": "address"
        }
      ],
      "stateMutability": "view",
      "type": "function"
    },
    {
      "inputs": [
        {
          "internalType": "uint256",
          "name": "_index",
          "type": "uint256"
        }
      ],
      "name": "implementation2",
      "outputs": [
        {
          "internalType": "address",
          "name": "",
          "type": "address"
        }
      ],
      "stateMutability": "view",
      "type": "function"
    },
    {
      "inputs": [
        {
          "internalType": "address",
          "name": "_ton",
          "type": "address"
        },
        {
          "internalType": "address",
          "name": "_l1CrossDomainMessenger",
          "type": "address"
        },
        {
          "internalType": "address",
          "name": "_seigManagerV2",
          "type": "address"
        },
        {
          "internalType": "address",
          "name": "_optimismSequencer",
          "type": "address"
        },
        {
          "internalType": "address",
          "name": "_candidate",
          "type": "address"
        }
      ],
      "name": "initialize",
      "outputs": [],
      "stateMutability": "nonpayable",
      "type": "function"
    },
    {
      "inputs": [
        {
          "internalType": "address",
          "name": "account",
          "type": "address"
        }
      ],
      "name": "isAdmin",
      "outputs": [
        {
          "internalType": "bool",
          "name": "",
          "type": "bool"
        }
      ],
      "stateMutability": "view",
      "type": "function"
    },
    {
      "inputs": [],
      "name": "l1CrossDomainMessenger",
      "outputs": [
        {
          "internalType": "address",
          "name": "",
          "type": "address"
        }
      ],
      "stateMutability": "view",
      "type": "function"
    },
    {
      "inputs": [
        {
          "internalType": "bytes32",
          "name": "",
          "type": "bytes32"
        }
      ],
      "name": "messages",
      "outputs": [
        {
          "internalType": "uint8",
          "name": "status",
          "type": "uint8"
        },
        {
          "internalType": "bytes",
          "name": "data",
          "type": "bytes"
        },
        {
          "internalType": "bytes",
          "name": "liquidities",
          "type": "bytes"
        }
      ],
      "stateMutability": "view",
      "type": "function"
    },
    {
      "inputs": [],
      "name": "optimismSequencer",
      "outputs": [
        {
          "internalType": "address",
          "name": "",
          "type": "address"
        }
      ],
      "stateMutability": "view",
      "type": "function"
    },
    {
      "inputs": [],
      "name": "pauseProxy",
      "outputs": [
        {
          "internalType": "bool",
          "name": "",
          "type": "bool"
        }
      ],
      "stateMutability": "view",
      "type": "function"
    },
    {
      "inputs": [
        {
          "internalType": "uint256",
          "name": "",
          "type": "uint256"
        }
      ],
      "name": "proxyImplementation",
      "outputs": [
        {
          "internalType": "address",
          "name": "",
          "type": "address"
        }
      ],
      "stateMutability": "view",
      "type": "function"
    },
    {
      "inputs": [],
      "name": "receiptNo",
      "outputs": [
        {
          "internalType": "uint256",
          "name": "",
          "type": "uint256"
        }
      ],
      "stateMutability": "view",
      "type": "function"
    },
    {
      "inputs": [
        {
          "internalType": "address",
          "name": "account",
          "type": "address"
        }
      ],
      "name": "removeAdmin",
      "outputs": [],
      "stateMutability": "nonpayable",
      "type": "function"
    },
    {
      "inputs": [
        {
          "internalType": "bytes32",
          "name": "role",
          "type": "bytes32"
        },
        {
          "internalType": "address",
          "name": "account",
          "type": "address"
        }
      ],
      "name": "renounceRole",
      "outputs": [],
      "stateMutability": "nonpayable",
      "type": "function"
    },
    {
      "inputs": [
        {
          "internalType": "bytes32",
          "name": "role",
          "type": "bytes32"
        },
        {
          "internalType": "address",
          "name": "account",
          "type": "address"
        }
      ],
      "name": "revokeRole",
      "outputs": [],
      "stateMutability": "nonpayable",
      "type": "function"
    },
    {
      "inputs": [],
      "name": "seigManagerV2",
      "outputs": [
        {
          "internalType": "address",
          "name": "",
          "type": "address"
        }
      ],
      "stateMutability": "view",
      "type": "function"
    },
    {
      "inputs": [
        {
          "internalType": "bytes4",
          "name": "",
          "type": "bytes4"
        }
      ],
      "name": "selectorImplementation",
      "outputs": [
        {
          "internalType": "address",
          "name": "",
          "type": "address"
        }
      ],
      "stateMutability": "view",
      "type": "function"
    },
    {
      "inputs": [
        {
          "internalType": "address",
          "name": "newImplementation",
          "type": "address"
        },
        {
          "internalType": "bool",
          "name": "_alive",
          "type": "bool"
        }
      ],
      "name": "setAliveImplementation2",
      "outputs": [],
      "stateMutability": "nonpayable",
      "type": "function"
    },
    {
      "inputs": [
        {
          "internalType": "address",
          "name": "newImplementation",
          "type": "address"
        },
        {
          "internalType": "uint256",
          "name": "_index",
          "type": "uint256"
        },
        {
          "internalType": "bool",
          "name": "_alive",
          "type": "bool"
        }
      ],
      "name": "setImplementation2",
      "outputs": [],
      "stateMutability": "nonpayable",
      "type": "function"
    },
    {
      "inputs": [
        {
          "internalType": "bool",
          "name": "_pause",
          "type": "bool"
        }
      ],
      "name": "setProxyPause",
      "outputs": [],
      "stateMutability": "nonpayable",
      "type": "function"
    },
    {
      "inputs": [
        {
          "internalType": "bytes4[]",
          "name": "_selectors",
          "type": "bytes4[]"
        },
        {
          "internalType": "address",
          "name": "_imp",
          "type": "address"
        }
      ],
      "name": "setSelectorImplementations2",
      "outputs": [],
      "stateMutability": "nonpayable",
      "type": "function"
    },
    {
      "inputs": [
        {
          "internalType": "bytes4",
          "name": "interfaceId",
          "type": "bytes4"
        }
      ],
      "name": "supportsInterface",
      "outputs": [
        {
          "internalType": "bool",
          "name": "",
          "type": "bool"
        }
      ],
      "stateMutability": "view",
      "type": "function"
    },
    {
      "inputs": [],
      "name": "ton",
      "outputs": [
        {
          "internalType": "address",
          "name": "",
          "type": "address"
        }
      ],
      "stateMutability": "view",
      "type": "function"
    },
    {
      "inputs": [
        {
          "internalType": "address",
          "name": "newAdmin",
          "type": "address"
        }
      ],
      "name": "transferAdmin",
      "outputs": [],
      "stateMutability": "nonpayable",
      "type": "function"
    },
    {
      "inputs": [
        {
          "internalType": "address",
          "name": "impl",
          "type": "address"
        }
      ],
      "name": "upgradeTo",
      "outputs": [],
      "stateMutability": "nonpayable",
      "type": "function"
    },
    {
      "stateMutability": "payable",
      "type": "receive"
    }
  ],
  "bytecode": "0x6080604052600f805460ff191660011790553480156200001e57600080fd5b506200003a60008051602062001f218339815191528062000068565b6200005560008051602062001f2183398151915233620000b3565b62000062600033620000b3565b62000163565b600082815260208190526040808220600101805490849055905190918391839186917fbd79b86ffe0ab8e8776151514217cd7cacd52c909f66475c3af44e129f0b00ff9190a4505050565b620000bf8282620000c3565b5050565b6000828152602081815260408083206001600160a01b038516845290915290205460ff16620000bf576000828152602081815260408083206001600160a01b03851684529091529020805460ff191660011790556200011f3390565b6001600160a01b0316816001600160a01b0316837f2f8788117e7eff1d82e926ec794901d17c78024a50270940304540a733656f0d60405160405180910390a45050565b611dae80620001736000396000f3fe6080604052600436106102025760003560e01c806363a8fd891161011d5780638b8f4a65116100b0578063a71198691161007f578063cc48b94711610064578063cc48b9471461070b578063d547741f1461072b578063da0dc1351461074b57610254565b8063a7119869146106b5578063b911135f146106d557610254565b80638b8f4a651461061c5780638d4fdb401461063c57806391d148541461065c578063a217fddf146106a057610254565b806375829def116100ec57806375829def1461058857806375b238fc146105a85780637cb00d25146105dc5780637cd5f663146105fc57610254565b806363a8fd891461050e5780636c8381f814610528578063704802751461054857806373469a7a1461056857610254565b806336568abe11610195578063550d01a311610164578063550d01a3146104625780635c475a2f146104925780635c60da1b146104a85780635cc797d8146104ee57610254565b806336568abe146103b45780633659cfe6146103d45780634a5df50f146103f457806350d2a2761461041457610254565b8063248a9ca3116101d1578063248a9ca31461031557806324d7806c146103455780632bbd59ca146103655780632f2ff15d1461039457610254565b806301ffc9a71461025e5780631459457a146102935780631785f53c146102b357806322985246146102d357610254565b366102545760405162461bcd60e51b815260206004820152601460248201527f63616e6e6f74207265636569766520457468657200000000000000000000000060448201526064015b60405180910390fd5b61025c61076b565b005b34801561026a57600080fd5b5061027e61027936600461197d565b610814565b60405190151581526020015b60405180910390f35b34801561029f57600080fd5b5061025c6102ae3660046119be565b61084b565b3480156102bf57600080fd5b5061025c6102ce366004611a23565b610a83565b3480156102df57600080fd5b506103077ffb5864e8ff833c3cb2d2d08505e82ff02a43554c74a35d4f5a64e8526127831181565b60405190815260200161028a565b34801561032157600080fd5b50610307610330366004611a3e565b60009081526020819052604090206001015490565b34801561035157600080fd5b5061027e610360366004611a23565b610afe565b34801561037157600080fd5b50610385610380366004611a3e565b610b3e565b60405161028a93929190611aa7565b3480156103a057600080fd5b5061025c6103af366004611adf565b610c75565b3480156103c057600080fd5b5061025c6103cf366004611adf565b610c9a565b3480156103e057600080fd5b5061025c6103ef366004611a23565b610d26565b34801561040057600080fd5b5061025c61040f366004611b0b565b610e7f565b34801561042057600080fd5b5061044a61042f36600461197d565b6004602052600090815260409020546001600160a01b031681565b6040516001600160a01b03909116815260200161028a565b34801561046e57600080fd5b5061027e61047d366004611a23565b60036020526000908152604090205460ff1681565b34801561049e57600080fd5b50610307600a5481565b3480156104b457600080fd5b506000805260026020527fac33ff75c19e70fe83507db0d683fd3465c996598dc972688b7ace676c89077b546001600160a01b031661044a565b3480156104fa57600080fd5b5061025c610509366004611b9f565b61111f565b34801561051a57600080fd5b5060015461027e9060ff1681565b34801561053457600080fd5b5060095461044a906001600160a01b031681565b34801561055457600080fd5b5061025c610563366004611a23565b611177565b34801561057457600080fd5b5060075461044a906001600160a01b031681565b34801561059457600080fd5b5061025c6105a3366004611a23565b6111ef565b3480156105b457600080fd5b506103077fdf8b4c520ffe197c5343c6f5aec59570151ef9a492f2c624fd45ddde6135ec4281565b3480156105e857600080fd5b5061025c6105f7366004611bc9565b61133f565b34801561060857600080fd5b5061025c610617366004611be4565b6113a0565b34801561062857600080fd5b5061044a610637366004611a3e565b6113f9565b34801561064857600080fd5b5061044a61065736600461197d565b611416565b34801561066857600080fd5b5061027e610677366004611adf565b6000918252602082815260408084206001600160a01b0393909316845291905290205460ff1690565b3480156106ac57600080fd5b50610307600081565b3480156106c157600080fd5b5060065461044a906001600160a01b031681565b3480156106e157600080fd5b5061044a6106f0366004611a3e565b6002602052600090815260409020546001600160a01b031681565b34801561071757600080fd5b5060055461044a906001600160a01b031681565b34801561073757600080fd5b5061025c610746366004611adf565b611512565b34801561075757600080fd5b5060085461044a906001600160a01b031681565b60006107826000356001600160e01b031916611416565b90506001600160a01b0381161580159061079f575060015460ff16155b6107eb5760405162461bcd60e51b815260206004820152601d60248201527f50726f78793a20696d706c204f522070726f78792069732066616c7365000000604482015260640161024b565b3660008037600080366000845af43d6000803e80801561080a573d6000f35b3d6000fd5b505050565b60006001600160e01b03198216637965db0b60e01b148061084557506301ffc9a760e01b6001600160e01b03198316145b92915050565b61085433610afe565b6108995760405162461bcd60e51b81526020600482015260226024820152600080516020611d8283398151915260448201526134b760f11b606482015260840161024b565b846001600160a01b0381166108d55760405162461bcd60e51b81526020600482015260026024820152612d1960f11b604482015260640161024b565b836001600160a01b0381166109115760405162461bcd60e51b81526020600482015260026024820152612d1960f11b604482015260640161024b565b856001600160a01b03811661094d5760405162461bcd60e51b81526020600482015260026024820152612d1960f11b604482015260640161024b565b846001600160a01b0381166109895760405162461bcd60e51b81526020600482015260026024820152612d1960f11b604482015260640161024b565b846001600160a01b0381166109c55760405162461bcd60e51b81526020600482015260026024820152612d1960f11b604482015260640161024b565b6005546001600160a01b031615610a1e5760405162461bcd60e51b815260206004820152601260248201527f616c726561647920696e697469616c697a650000000000000000000000000000604482015260640161024b565b5050600580546001600160a01b03199081166001600160a01b039a8b1617909155600680548216988a16989098179097555050600780548616948716949094179093556008805485169286169290921790915560098054909316931692909217905550565b610a8c33610afe565b610ad15760405162461bcd60e51b81526020600482015260226024820152600080516020611d8283398151915260448201526134b760f11b606482015260840161024b565b610afb7fdf8b4c520ffe197c5343c6f5aec59570151ef9a492f2c624fd45ddde6135ec4282610c9a565b50565b6001600160a01b03811660009081527f5cbfc8ee58ca47855df7bcf648dd304ddb6b932f9b87878bdf6318d7ec7ee5b7602052604081205460ff16610845565b600b602052600090815260409020805460018201805460ff9092169291610b6490611c17565b80601f0160208091040260200160405190810160405280929190818152602001828054610b9090611c17565b8015610bdd5780601f10610bb257610100808354040283529160200191610bdd565b820191906000526020600020905b815481529060010190602001808311610bc057829003601f168201915b505050505090806002018054610bf290611c17565b80601f0160208091040260200160405190810160405280929190818152602001828054610c1e90611c17565b8015610c6b5780601f10610c4057610100808354040283529160200191610c6b565b820191906000526020600020905b815481529060010190602001808311610c4e57829003601f168201915b5050505050905083565b600082815260208190526040902060010154610c9081611537565b61080f8383611541565b6001600160a01b0381163314610d185760405162461bcd60e51b815260206004820152602f60248201527f416363657373436f6e74726f6c3a2063616e206f6e6c792072656e6f756e636560448201527f20726f6c657320666f722073656c660000000000000000000000000000000000606482015260840161024b565b610d2282826115df565b5050565b610d2f33610afe565b610d745760405162461bcd60e51b81526020600482015260226024820152600080516020611d8283398151915260448201526134b760f11b606482015260840161024b565b6001600160a01b038116610dca5760405162461bcd60e51b815260206004820152600d60248201527f696e707574206973207a65726f00000000000000000000000000000000000000604482015260640161024b565b6000805260026020527fac33ff75c19e70fe83507db0d683fd3465c996598dc972688b7ace676c89077b546001600160a01b03828116911603610e3b5760405162461bcd60e51b815260206004820152600960248201526839b0b6b29030b2323960b91b604482015260640161024b565b610e48816000600161165e565b6040516001600160a01b038216907fbc7cd75a20ee27fd9adebab32041f755214dbc6bffa90cc0225b39da2e5c2d3b90600090a250565b610e8833610afe565b610ecd5760405162461bcd60e51b81526020600482015260226024820152600080516020611d8283398151915260448201526134b760f11b606482015260840161024b565b81610f1a5760405162461bcd60e51b815260206004820181905260248201527f50726f78793a205f73656c6563746f727327732073697a65206973207a65726f604482015260640161024b565b6001600160a01b03811660009081526003602052604090205460ff16610f825760405162461bcd60e51b815260206004820152601860248201527f50726f78793a205f696d70206973206e6f7420616c6976650000000000000000604482015260640161024b565b60005b8281101561111957816001600160a01b031660046000868685818110610fad57610fad611c51565b9050602002016020810190610fc2919061197d565b6001600160e01b03191681526020810191909152604001600020546001600160a01b0316036110335760405162461bcd60e51b815260206004820152601d60248201527f4c69717569646974795661756c7450726f78793a2073616d6520696d70000000604482015260640161024b565b816004600086868581811061104a5761104a611c51565b905060200201602081019061105f919061197d565b6001600160e01b0319168152602081019190915260400160002080546001600160a01b0319166001600160a01b0392831617905582168484838181106110a7576110a7611c51565b90506020020160208101906110bc919061197d565b7bffffffffffffffffffffffffffffffffffffffffffffffffffffffff19167f14ebc1c32aa68f4d766e89f3e546cee249f7df25183fc10ab1568d91c2ce9b7b60405160405180910390a38061111181611c7d565b915050610f85565b50505050565b61112833610afe565b61116d5760405162461bcd60e51b81526020600482015260226024820152600080516020611d8283398151915260448201526134b760f11b606482015260840161024b565b610d2282826116e9565b61118033610afe565b6111c55760405162461bcd60e51b81526020600482015260226024820152600080516020611d8283398151915260448201526134b760f11b606482015260840161024b565b610afb7fdf8b4c520ffe197c5343c6f5aec59570151ef9a492f2c624fd45ddde6135ec4282610c75565b6111f833610afe565b61123d5760405162461bcd60e51b81526020600482015260226024820152600080516020611d8283398151915260448201526134b760f11b606482015260840161024b565b6001600160a01b0381166112935760405162461bcd60e51b815260206004820152601860248201527f41636365737369626c653a207a65726f20616464726573730000000000000000604482015260640161024b565b6001600160a01b03811633036112eb5760405162461bcd60e51b815260206004820152601660248201527f41636365737369626c653a2073616d652061646d696e00000000000000000000604482015260640161024b565b6113157fdf8b4c520ffe197c5343c6f5aec59570151ef9a492f2c624fd45ddde6135ec4282610c75565b610afb7fdf8b4c520ffe197c5343c6f5aec59570151ef9a492f2c624fd45ddde6135ec4233610c9a565b61134833610afe565b61138d5760405162461bcd60e51b81526020600482015260226024820152600080516020611d8283398151915260448201526134b760f11b606482015260840161024b565b6001805460ff1916911515919091179055565b6113a933610afe565b6113ee5760405162461bcd60e51b81526020600482015260226024820152600080516020611d8283398151915260448201526134b760f11b606482015260840161024b565b61080f83838361165e565b6000818152600260205260408120546001600160a01b0316610845565b6001600160e01b031981166000908152600460205260408120546001600160a01b03166114765750506000805260026020527fac33ff75c19e70fe83507db0d683fd3465c996598dc972688b7ace676c89077b546001600160a01b031690565b6001600160e01b031982166000908152600460209081526040808320546001600160a01b03168352600390915290205460ff16156114d457506001600160e01b0319166000908152600460205260409020546001600160a01b031690565b50506000805260026020527fac33ff75c19e70fe83507db0d683fd3465c996598dc972688b7ace676c89077b546001600160a01b031690565b919050565b60008281526020819052604090206001015461152d81611537565b61080f83836115df565b610afb8133611748565b6000828152602081815260408083206001600160a01b038516845290915290205460ff16610d22576000828152602081815260408083206001600160a01b03851684529091529020805460ff1916600117905561159b3390565b6001600160a01b0316816001600160a01b0316837f2f8788117e7eff1d82e926ec794901d17c78024a50270940304540a733656f0d60405160405180910390a45050565b6000828152602081815260408083206001600160a01b038516845290915290205460ff1615610d22576000828152602081815260408083206001600160a01b0385168085529252808320805460ff1916905551339285917ff6391f5c32d9c69d2a47ea670b442974b53935d1edc7fd64eb21e047a839171b9190a45050565b6001600160a01b0383163b6116b55760405162461bcd60e51b815260206004820152601b60248201527f50726f78793a206e6f7420636f6e747261637420616464726573730000000000604482015260640161024b565b80156116e357600082815260026020526040902080546001600160a01b0319166001600160a01b0385161790555b61080f83825b6001600160a01b038216600081815260036020908152604091829020805460ff191685151590811790915591519182527f72558d9bfba4210f9ef095c782589484151f6d90f7a81bb3cb9b33efc695d324910160405180910390a25050565b6000828152602081815260408083206001600160a01b038516845290915290205460ff16610d2257611779816117bb565b6117848360206117cd565b604051602001611795929190611c96565b60408051601f198184030181529082905262461bcd60e51b825261024b91600401611d17565b60606108456001600160a01b03831660145b606060006117dc836002611d2a565b6117e7906002611d41565b67ffffffffffffffff8111156117ff576117ff611d54565b6040519080825280601f01601f191660200182016040528015611829576020820181803683370190505b509050600360fc1b8160008151811061184457611844611c51565b60200101906001600160f81b031916908160001a905350600f60fb1b8160018151811061187357611873611c51565b60200101906001600160f81b031916908160001a9053506000611897846002611d2a565b6118a2906001611d41565b90505b6001811115611927577f303132333435363738396162636465660000000000000000000000000000000085600f16601081106118e3576118e3611c51565b1a60f81b8282815181106118f9576118f9611c51565b60200101906001600160f81b031916908160001a90535060049490941c9361192081611d6a565b90506118a5565b5083156119765760405162461bcd60e51b815260206004820181905260248201527f537472696e67733a20686578206c656e67746820696e73756666696369656e74604482015260640161024b565b9392505050565b60006020828403121561198f57600080fd5b81356001600160e01b03198116811461197657600080fd5b80356001600160a01b038116811461150d57600080fd5b600080600080600060a086880312156119d657600080fd5b6119df866119a7565b94506119ed602087016119a7565b93506119fb604087016119a7565b9250611a09606087016119a7565b9150611a17608087016119a7565b90509295509295909350565b600060208284031215611a3557600080fd5b611976826119a7565b600060208284031215611a5057600080fd5b5035919050565b60005b83811015611a72578181015183820152602001611a5a565b50506000910152565b60008151808452611a93816020860160208601611a57565b601f01601f19169290920160200192915050565b60ff84168152606060208201526000611ac36060830185611a7b565b8281036040840152611ad58185611a7b565b9695505050505050565b60008060408385031215611af257600080fd5b82359150611b02602084016119a7565b90509250929050565b600080600060408486031215611b2057600080fd5b833567ffffffffffffffff80821115611b3857600080fd5b818601915086601f830112611b4c57600080fd5b813581811115611b5b57600080fd5b8760208260051b8501011115611b7057600080fd5b602092830195509350611b8691860190506119a7565b90509250925092565b8035801515811461150d57600080fd5b60008060408385031215611bb257600080fd5b611bbb836119a7565b9150611b0260208401611b8f565b600060208284031215611bdb57600080fd5b61197682611b8f565b600080600060608486031215611bf957600080fd5b611c02846119a7565b925060208401359150611b8660408501611b8f565b600181811c90821680611c2b57607f821691505b602082108103611c4b57634e487b7160e01b600052602260045260246000fd5b50919050565b634e487b7160e01b600052603260045260246000fd5b634e487b7160e01b600052601160045260246000fd5b600060018201611c8f57611c8f611c67565b5060010190565b7f416363657373436f6e74726f6c3a206163636f756e7420000000000000000000815260008351611cce816017850160208801611a57565b7f206973206d697373696e6720726f6c65200000000000000000000000000000006017918401918201528351611d0b816028840160208801611a57565b01602801949350505050565b6020815260006119766020830184611a7b565b808202811582820484141761084557610845611c67565b8082018082111561084557610845611c67565b634e487b7160e01b600052604160045260246000fd5b600081611d7957611d79611c67565b50600019019056fe41636365737369626c653a2043616c6c6572206973206e6f7420616e2061646da164736f6c6343000812000adf8b4c520ffe197c5343c6f5aec59570151ef9a492f2c624fd45ddde6135ec42",
  "linkReferences": {},
  "deployedLinkReferences": {}
}