{
  "_format": "hh-sol-artifact-1",
  "contractName": "FwReceiptProxy",
  "sourceName": "contracts/proxy/FwReceiptProxy.sol",
  "abi": [
    {
      "inputs": [],
      "stateMutability": "nonpayable",
      "type": "constructor"
    },
    {
      "anonymous": false,
      "inputs": [
        {
          "indexed": true,
          "internalType": "bytes32",
          "name": "role",
          "type": "bytes32"
        },
        {
          "indexed": true,
          "internalType": "bytes32",
          "name": "previousAdminRole",
          "type": "bytes32"
        },
        {
          "indexed": true,
          "internalType": "bytes32",
          "name": "newAdminRole",
          "type": "bytes32"
        }
      ],
      "name": "RoleAdminChanged",
      "type": "event"
    },
    {
      "anonymous": false,
      "inputs": [
        {
          "indexed": true,
          "internalType": "bytes32",
          "name": "role",
          "type": "bytes32"
        },
        {
          "indexed": true,
          "internalType": "address",
          "name": "account",
          "type": "address"
        },
        {
          "indexed": true,
          "internalType": "address",
          "name": "sender",
          "type": "address"
        }
      ],
      "name": "RoleGranted",
      "type": "event"
    },
    {
      "anonymous": false,
      "inputs": [
        {
          "indexed": true,
          "internalType": "bytes32",
          "name": "role",
          "type": "bytes32"
        },
        {
          "indexed": true,
          "internalType": "address",
          "name": "account",
          "type": "address"
        },
        {
          "indexed": true,
          "internalType": "address",
          "name": "sender",
          "type": "address"
        }
      ],
      "name": "RoleRevoked",
      "type": "event"
    },
    {
      "anonymous": false,
      "inputs": [
        {
          "indexed": true,
          "internalType": "address",
          "name": "impl",
          "type": "address"
        },
        {
          "indexed": false,
          "internalType": "bool",
          "name": "alive",
          "type": "bool"
        }
      ],
      "name": "SetAliveImplementation",
      "type": "event"
    },
    {
      "anonymous": false,
      "inputs": [
        {
          "indexed": true,
          "internalType": "bytes4",
          "name": "selector",
          "type": "bytes4"
        },
        {
          "indexed": true,
          "internalType": "address",
          "name": "impl",
          "type": "address"
        }
      ],
      "name": "SetSelectorImplementation",
      "type": "event"
    },
    {
      "anonymous": false,
      "inputs": [
        {
          "indexed": true,
          "internalType": "address",
          "name": "implementation",
          "type": "address"
        }
      ],
      "name": "Upgraded",
      "type": "event"
    },
    {
      "stateMutability": "payable",
      "type": "fallback"
    },
    {
      "inputs": [],
      "name": "ADMIN_ROLE",
      "outputs": [
        {
          "internalType": "bytes32",
          "name": "",
          "type": "bytes32"
        }
      ],
      "stateMutability": "view",
      "type": "function"
    },
    {
      "inputs": [],
      "name": "DEFAULT_ADMIN_ROLE",
      "outputs": [
        {
          "internalType": "bytes32",
          "name": "",
          "type": "bytes32"
        }
      ],
      "stateMutability": "view",
      "type": "function"
    },
    {
      "inputs": [],
      "name": "POLICY_ROLE",
      "outputs": [
        {
          "internalType": "bytes32",
          "name": "",
          "type": "bytes32"
        }
      ],
      "stateMutability": "view",
      "type": "function"
    },
    {
      "inputs": [
        {
          "internalType": "address",
          "name": "account",
          "type": "address"
        }
      ],
      "name": "addAdmin",
      "outputs": [],
      "stateMutability": "nonpayable",
      "type": "function"
    },
    {
      "inputs": [
        {
          "internalType": "address",
          "name": "",
          "type": "address"
        }
      ],
      "name": "aliveImplementation",
      "outputs": [
        {
          "internalType": "bool",
          "name": "",
          "type": "bool"
        }
      ],
      "stateMutability": "view",
      "type": "function"
    },
    {
      "inputs": [],
      "name": "candidate",
      "outputs": [
        {
          "internalType": "address",
          "name": "",
          "type": "address"
        }
      ],
      "stateMutability": "view",
      "type": "function"
    },
    {
      "inputs": [
        {
          "internalType": "bytes32",
          "name": "role",
          "type": "bytes32"
        }
      ],
      "name": "getRoleAdmin",
      "outputs": [
        {
          "internalType": "bytes32",
          "name": "",
          "type": "bytes32"
        }
      ],
      "stateMutability": "view",
      "type": "function"
    },
    {
      "inputs": [
        {
          "internalType": "bytes4",
          "name": "_selector",
          "type": "bytes4"
        }
      ],
      "name": "getSelectorImplementation2",
      "outputs": [
        {
          "internalType": "address",
          "name": "impl",
          "type": "address"
        }
      ],
      "stateMutability": "view",
      "type": "function"
    },
    {
      "inputs": [
        {
          "internalType": "bytes32",
          "name": "role",
          "type": "bytes32"
        },
        {
          "internalType": "address",
          "name": "account",
          "type": "address"
        }
      ],
      "name": "grantRole",
      "outputs": [],
      "stateMutability": "nonpayable",
      "type": "function"
    },
    {
      "inputs": [
        {
          "internalType": "bytes32",
          "name": "role",
          "type": "bytes32"
        },
        {
          "internalType": "address",
          "name": "account",
          "type": "address"
        }
      ],
      "name": "hasRole",
      "outputs": [
        {
          "internalType": "bool",
          "name": "",
          "type": "bool"
        }
      ],
      "stateMutability": "view",
      "type": "function"
    },
    {
      "inputs": [],
      "name": "implementation",
      "outputs": [
        {
          "internalType": "address",
          "name": "",
          "type": "address"
        }
      ],
      "stateMutability": "view",
      "type": "function"
    },
    {
      "inputs": [
        {
          "internalType": "uint256",
          "name": "_index",
          "type": "uint256"
        }
      ],
      "name": "implementation2",
      "outputs": [
        {
          "internalType": "address",
          "name": "",
          "type": "address"
        }
      ],
      "stateMutability": "view",
      "type": "function"
    },
    {
      "inputs": [
        {
          "internalType": "address",
          "name": "_ton",
          "type": "address"
        },
        {
          "internalType": "address",
          "name": "_l1CrossDomainMessenger",
          "type": "address"
        },
        {
          "internalType": "address",
          "name": "_seigManagerV2",
          "type": "address"
        },
        {
          "internalType": "address",
          "name": "_optimismSequencer",
          "type": "address"
        },
        {
          "internalType": "address",
          "name": "_candidate",
          "type": "address"
        }
      ],
      "name": "initialize",
      "outputs": [],
      "stateMutability": "nonpayable",
      "type": "function"
    },
    {
      "inputs": [
        {
          "internalType": "address",
          "name": "account",
          "type": "address"
        }
      ],
      "name": "isAdmin",
      "outputs": [
        {
          "internalType": "bool",
          "name": "",
          "type": "bool"
        }
      ],
      "stateMutability": "view",
      "type": "function"
    },
    {
      "inputs": [],
      "name": "l1CrossDomainMessenger",
      "outputs": [
        {
          "internalType": "address",
          "name": "",
          "type": "address"
        }
      ],
      "stateMutability": "view",
      "type": "function"
    },
    {
      "inputs": [
        {
          "internalType": "bytes32",
          "name": "",
          "type": "bytes32"
        }
      ],
      "name": "messages",
      "outputs": [
        {
          "internalType": "uint8",
          "name": "status",
          "type": "uint8"
        },
        {
          "internalType": "bytes",
          "name": "data",
          "type": "bytes"
        },
        {
          "internalType": "bytes",
          "name": "liquidities",
          "type": "bytes"
        }
      ],
      "stateMutability": "view",
      "type": "function"
    },
    {
      "inputs": [],
      "name": "optimismSequencer",
      "outputs": [
        {
          "internalType": "address",
          "name": "",
          "type": "address"
        }
      ],
      "stateMutability": "view",
      "type": "function"
    },
    {
      "inputs": [],
      "name": "pauseProxy",
      "outputs": [
        {
          "internalType": "bool",
          "name": "",
          "type": "bool"
        }
      ],
      "stateMutability": "view",
      "type": "function"
    },
    {
      "inputs": [
        {
          "internalType": "uint256",
          "name": "",
          "type": "uint256"
        }
      ],
      "name": "proxyImplementation",
      "outputs": [
        {
          "internalType": "address",
          "name": "",
          "type": "address"
        }
      ],
      "stateMutability": "view",
      "type": "function"
    },
    {
      "inputs": [
        {
          "internalType": "address",
          "name": "account",
          "type": "address"
        }
      ],
      "name": "removeAdmin",
      "outputs": [],
      "stateMutability": "nonpayable",
      "type": "function"
    },
    {
      "inputs": [
        {
          "internalType": "bytes32",
          "name": "role",
          "type": "bytes32"
        },
        {
          "internalType": "address",
          "name": "account",
          "type": "address"
        }
      ],
      "name": "renounceRole",
      "outputs": [],
      "stateMutability": "nonpayable",
      "type": "function"
    },
    {
      "inputs": [
        {
          "internalType": "bytes32",
          "name": "role",
          "type": "bytes32"
        },
        {
          "internalType": "address",
          "name": "account",
          "type": "address"
        }
      ],
      "name": "revokeRole",
      "outputs": [],
      "stateMutability": "nonpayable",
      "type": "function"
    },
    {
      "inputs": [],
      "name": "seigManagerV2",
      "outputs": [
        {
          "internalType": "address",
          "name": "",
          "type": "address"
        }
      ],
      "stateMutability": "view",
      "type": "function"
    },
    {
      "inputs": [
        {
          "internalType": "bytes4",
          "name": "",
          "type": "bytes4"
        }
      ],
      "name": "selectorImplementation",
      "outputs": [
        {
          "internalType": "address",
          "name": "",
          "type": "address"
        }
      ],
      "stateMutability": "view",
      "type": "function"
    },
    {
      "inputs": [
        {
          "internalType": "address",
          "name": "newImplementation",
          "type": "address"
        },
        {
          "internalType": "bool",
          "name": "_alive",
          "type": "bool"
        }
      ],
      "name": "setAliveImplementation2",
      "outputs": [],
      "stateMutability": "nonpayable",
      "type": "function"
    },
    {
      "inputs": [
        {
          "internalType": "address",
          "name": "newImplementation",
          "type": "address"
        },
        {
          "internalType": "uint256",
          "name": "_index",
          "type": "uint256"
        },
        {
          "internalType": "bool",
          "name": "_alive",
          "type": "bool"
        }
      ],
      "name": "setImplementation2",
      "outputs": [],
      "stateMutability": "nonpayable",
      "type": "function"
    },
    {
      "inputs": [
        {
          "internalType": "bool",
          "name": "_pause",
          "type": "bool"
        }
      ],
      "name": "setProxyPause",
      "outputs": [],
      "stateMutability": "nonpayable",
      "type": "function"
    },
    {
      "inputs": [
        {
          "internalType": "bytes4[]",
          "name": "_selectors",
          "type": "bytes4[]"
        },
        {
          "internalType": "address",
          "name": "_imp",
          "type": "address"
        }
      ],
      "name": "setSelectorImplementations2",
      "outputs": [],
      "stateMutability": "nonpayable",
      "type": "function"
    },
    {
      "inputs": [
        {
          "internalType": "bytes4",
          "name": "interfaceId",
          "type": "bytes4"
        }
      ],
      "name": "supportsInterface",
      "outputs": [
        {
          "internalType": "bool",
          "name": "",
          "type": "bool"
        }
      ],
      "stateMutability": "view",
      "type": "function"
    },
    {
      "inputs": [],
      "name": "ton",
      "outputs": [
        {
          "internalType": "address",
          "name": "",
          "type": "address"
        }
      ],
      "stateMutability": "view",
      "type": "function"
    },
    {
      "inputs": [
        {
          "internalType": "address",
          "name": "newAdmin",
          "type": "address"
        }
      ],
      "name": "transferAdmin",
      "outputs": [],
      "stateMutability": "nonpayable",
      "type": "function"
    },
    {
      "inputs": [
        {
          "internalType": "address",
          "name": "impl",
          "type": "address"
        }
      ],
      "name": "upgradeTo",
      "outputs": [],
      "stateMutability": "nonpayable",
      "type": "function"
    },
    {
      "stateMutability": "payable",
      "type": "receive"
    }
  ],
  "bytecode": "0x6080604052600e805460ff191660011790553480156200001e57600080fd5b506200003a60008051602062001ef08339815191528062000068565b6200005560008051602062001ef083398151915233620000b3565b62000062600033620000b3565b62000163565b600082815260208190526040808220600101805490849055905190918391839186917fbd79b86ffe0ab8e8776151514217cd7cacd52c909f66475c3af44e129f0b00ff9190a4505050565b620000bf8282620000c3565b5050565b6000828152602081815260408083206001600160a01b038516845290915290205460ff16620000bf576000828152602081815260408083206001600160a01b03851684529091529020805460ff191660011790556200011f3390565b6001600160a01b0316816001600160a01b0316837f2f8788117e7eff1d82e926ec794901d17c78024a50270940304540a733656f0d60405160405180910390a45050565b611d7d80620001736000396000f3fe6080604052600436106101e75760003560e01c80636c8381f8116101025780638d4fdb4011610095578063b911135f11610064578063b911135f146106a4578063cc48b947146106da578063d547741f146106fa578063da0dc1351461071a57610239565b80638d4fdb401461060b57806391d148541461062b578063a217fddf1461066f578063a71198691461068457610239565b806375b238fc116100d157806375b238fc146105775780637cb00d25146105ab5780637cd5f663146105cb5780638b8f4a65146105eb57610239565b80636c8381f8146104f7578063704802751461051757806373469a7a1461053757806375829def1461055757610239565b806336568abe1161017a578063550d01a311610149578063550d01a3146104475780635c60da1b146104775780635cc797d8146104bd57806363a8fd89146104dd57610239565b806336568abe146103995780633659cfe6146103b95780634a5df50f146103d957806350d2a276146103f957610239565b8063248a9ca3116101b6578063248a9ca3146102fa57806324d7806c1461032a5780632bbd59ca1461034a5780632f2ff15d1461037957610239565b806301ffc9a7146102435780631459457a146102785780631785f53c1461029857806322985246146102b857610239565b366102395760405162461bcd60e51b815260206004820152601460248201527f63616e6e6f74207265636569766520457468657200000000000000000000000060448201526064015b60405180910390fd5b61024161073a565b005b34801561024f57600080fd5b5061026361025e36600461194c565b6107e3565b60405190151581526020015b60405180910390f35b34801561028457600080fd5b5061024161029336600461198d565b61081a565b3480156102a457600080fd5b506102416102b33660046119f2565b610a52565b3480156102c457600080fd5b506102ec7ffb5864e8ff833c3cb2d2d08505e82ff02a43554c74a35d4f5a64e8526127831181565b60405190815260200161026f565b34801561030657600080fd5b506102ec610315366004611a0d565b60009081526020819052604090206001015490565b34801561033657600080fd5b506102636103453660046119f2565b610acd565b34801561035657600080fd5b5061036a610365366004611a0d565b610b0d565b60405161026f93929190611a76565b34801561038557600080fd5b50610241610394366004611aae565b610c44565b3480156103a557600080fd5b506102416103b4366004611aae565b610c69565b3480156103c557600080fd5b506102416103d43660046119f2565b610cf5565b3480156103e557600080fd5b506102416103f4366004611ada565b610e4e565b34801561040557600080fd5b5061042f61041436600461194c565b6004602052600090815260409020546001600160a01b031681565b6040516001600160a01b03909116815260200161026f565b34801561045357600080fd5b506102636104623660046119f2565b60036020526000908152604090205460ff1681565b34801561048357600080fd5b506000805260026020527fac33ff75c19e70fe83507db0d683fd3465c996598dc972688b7ace676c89077b546001600160a01b031661042f565b3480156104c957600080fd5b506102416104d8366004611b6e565b6110ee565b3480156104e957600080fd5b506001546102639060ff1681565b34801561050357600080fd5b5060095461042f906001600160a01b031681565b34801561052357600080fd5b506102416105323660046119f2565b611146565b34801561054357600080fd5b5060075461042f906001600160a01b031681565b34801561056357600080fd5b506102416105723660046119f2565b6111be565b34801561058357600080fd5b506102ec7fdf8b4c520ffe197c5343c6f5aec59570151ef9a492f2c624fd45ddde6135ec4281565b3480156105b757600080fd5b506102416105c6366004611b98565b61130e565b3480156105d757600080fd5b506102416105e6366004611bb3565b61136f565b3480156105f757600080fd5b5061042f610606366004611a0d565b6113c8565b34801561061757600080fd5b5061042f61062636600461194c565b6113e5565b34801561063757600080fd5b50610263610646366004611aae565b6000918252602082815260408084206001600160a01b0393909316845291905290205460ff1690565b34801561067b57600080fd5b506102ec600081565b34801561069057600080fd5b5060065461042f906001600160a01b031681565b3480156106b057600080fd5b5061042f6106bf366004611a0d565b6002602052600090815260409020546001600160a01b031681565b3480156106e657600080fd5b5060055461042f906001600160a01b031681565b34801561070657600080fd5b50610241610715366004611aae565b6114e1565b34801561072657600080fd5b5060085461042f906001600160a01b031681565b60006107516000356001600160e01b0319166113e5565b90506001600160a01b0381161580159061076e575060015460ff16155b6107ba5760405162461bcd60e51b815260206004820152601d60248201527f50726f78793a20696d706c204f522070726f78792069732066616c73650000006044820152606401610230565b3660008037600080366000845af43d6000803e8080156107d9573d6000f35b3d6000fd5b505050565b60006001600160e01b03198216637965db0b60e01b148061081457506301ffc9a760e01b6001600160e01b03198316145b92915050565b61082333610acd565b6108685760405162461bcd60e51b81526020600482015260226024820152600080516020611d5183398151915260448201526134b760f11b6064820152608401610230565b846001600160a01b0381166108a45760405162461bcd60e51b81526020600482015260026024820152612d1960f11b6044820152606401610230565b836001600160a01b0381166108e05760405162461bcd60e51b81526020600482015260026024820152612d1960f11b6044820152606401610230565b856001600160a01b03811661091c5760405162461bcd60e51b81526020600482015260026024820152612d1960f11b6044820152606401610230565b846001600160a01b0381166109585760405162461bcd60e51b81526020600482015260026024820152612d1960f11b6044820152606401610230565b846001600160a01b0381166109945760405162461bcd60e51b81526020600482015260026024820152612d1960f11b6044820152606401610230565b6005546001600160a01b0316156109ed5760405162461bcd60e51b815260206004820152601260248201527f616c726561647920696e697469616c697a6500000000000000000000000000006044820152606401610230565b5050600580546001600160a01b03199081166001600160a01b039a8b1617909155600680548216988a16989098179097555050600780548616948716949094179093556008805485169286169290921790915560098054909316931692909217905550565b610a5b33610acd565b610aa05760405162461bcd60e51b81526020600482015260226024820152600080516020611d5183398151915260448201526134b760f11b6064820152608401610230565b610aca7fdf8b4c520ffe197c5343c6f5aec59570151ef9a492f2c624fd45ddde6135ec4282610c69565b50565b6001600160a01b03811660009081527f5cbfc8ee58ca47855df7bcf648dd304ddb6b932f9b87878bdf6318d7ec7ee5b7602052604081205460ff16610814565b600a602052600090815260409020805460018201805460ff9092169291610b3390611be6565b80601f0160208091040260200160405190810160405280929190818152602001828054610b5f90611be6565b8015610bac5780601f10610b8157610100808354040283529160200191610bac565b820191906000526020600020905b815481529060010190602001808311610b8f57829003601f168201915b505050505090806002018054610bc190611be6565b80601f0160208091040260200160405190810160405280929190818152602001828054610bed90611be6565b8015610c3a5780601f10610c0f57610100808354040283529160200191610c3a565b820191906000526020600020905b815481529060010190602001808311610c1d57829003601f168201915b5050505050905083565b600082815260208190526040902060010154610c5f81611506565b6107de8383611510565b6001600160a01b0381163314610ce75760405162461bcd60e51b815260206004820152602f60248201527f416363657373436f6e74726f6c3a2063616e206f6e6c792072656e6f756e636560448201527f20726f6c657320666f722073656c6600000000000000000000000000000000006064820152608401610230565b610cf182826115ae565b5050565b610cfe33610acd565b610d435760405162461bcd60e51b81526020600482015260226024820152600080516020611d5183398151915260448201526134b760f11b6064820152608401610230565b6001600160a01b038116610d995760405162461bcd60e51b815260206004820152600d60248201527f696e707574206973207a65726f000000000000000000000000000000000000006044820152606401610230565b6000805260026020527fac33ff75c19e70fe83507db0d683fd3465c996598dc972688b7ace676c89077b546001600160a01b03828116911603610e0a5760405162461bcd60e51b815260206004820152600960248201526839b0b6b29030b2323960b91b6044820152606401610230565b610e17816000600161162d565b6040516001600160a01b038216907fbc7cd75a20ee27fd9adebab32041f755214dbc6bffa90cc0225b39da2e5c2d3b90600090a250565b610e5733610acd565b610e9c5760405162461bcd60e51b81526020600482015260226024820152600080516020611d5183398151915260448201526134b760f11b6064820152608401610230565b81610ee95760405162461bcd60e51b815260206004820181905260248201527f50726f78793a205f73656c6563746f727327732073697a65206973207a65726f6044820152606401610230565b6001600160a01b03811660009081526003602052604090205460ff16610f515760405162461bcd60e51b815260206004820152601860248201527f50726f78793a205f696d70206973206e6f7420616c69766500000000000000006044820152606401610230565b60005b828110156110e857816001600160a01b031660046000868685818110610f7c57610f7c611c20565b9050602002016020810190610f91919061194c565b6001600160e01b03191681526020810191909152604001600020546001600160a01b0316036110025760405162461bcd60e51b815260206004820152601d60248201527f4c69717569646974795661756c7450726f78793a2073616d6520696d700000006044820152606401610230565b816004600086868581811061101957611019611c20565b905060200201602081019061102e919061194c565b6001600160e01b0319168152602081019190915260400160002080546001600160a01b0319166001600160a01b03928316179055821684848381811061107657611076611c20565b905060200201602081019061108b919061194c565b7bffffffffffffffffffffffffffffffffffffffffffffffffffffffff19167f14ebc1c32aa68f4d766e89f3e546cee249f7df25183fc10ab1568d91c2ce9b7b60405160405180910390a3806110e081611c4c565b915050610f54565b50505050565b6110f733610acd565b61113c5760405162461bcd60e51b81526020600482015260226024820152600080516020611d5183398151915260448201526134b760f11b6064820152608401610230565b610cf182826116b8565b61114f33610acd565b6111945760405162461bcd60e51b81526020600482015260226024820152600080516020611d5183398151915260448201526134b760f11b6064820152608401610230565b610aca7fdf8b4c520ffe197c5343c6f5aec59570151ef9a492f2c624fd45ddde6135ec4282610c44565b6111c733610acd565b61120c5760405162461bcd60e51b81526020600482015260226024820152600080516020611d5183398151915260448201526134b760f11b6064820152608401610230565b6001600160a01b0381166112625760405162461bcd60e51b815260206004820152601860248201527f41636365737369626c653a207a65726f206164647265737300000000000000006044820152606401610230565b6001600160a01b03811633036112ba5760405162461bcd60e51b815260206004820152601660248201527f41636365737369626c653a2073616d652061646d696e000000000000000000006044820152606401610230565b6112e47fdf8b4c520ffe197c5343c6f5aec59570151ef9a492f2c624fd45ddde6135ec4282610c44565b610aca7fdf8b4c520ffe197c5343c6f5aec59570151ef9a492f2c624fd45ddde6135ec4233610c69565b61131733610acd565b61135c5760405162461bcd60e51b81526020600482015260226024820152600080516020611d5183398151915260448201526134b760f11b6064820152608401610230565b6001805460ff1916911515919091179055565b61137833610acd565b6113bd5760405162461bcd60e51b81526020600482015260226024820152600080516020611d5183398151915260448201526134b760f11b6064820152608401610230565b6107de83838361162d565b6000818152600260205260408120546001600160a01b0316610814565b6001600160e01b031981166000908152600460205260408120546001600160a01b03166114455750506000805260026020527fac33ff75c19e70fe83507db0d683fd3465c996598dc972688b7ace676c89077b546001600160a01b031690565b6001600160e01b031982166000908152600460209081526040808320546001600160a01b03168352600390915290205460ff16156114a357506001600160e01b0319166000908152600460205260409020546001600160a01b031690565b50506000805260026020527fac33ff75c19e70fe83507db0d683fd3465c996598dc972688b7ace676c89077b546001600160a01b031690565b919050565b6000828152602081905260409020600101546114fc81611506565b6107de83836115ae565b610aca8133611717565b6000828152602081815260408083206001600160a01b038516845290915290205460ff16610cf1576000828152602081815260408083206001600160a01b03851684529091529020805460ff1916600117905561156a3390565b6001600160a01b0316816001600160a01b0316837f2f8788117e7eff1d82e926ec794901d17c78024a50270940304540a733656f0d60405160405180910390a45050565b6000828152602081815260408083206001600160a01b038516845290915290205460ff1615610cf1576000828152602081815260408083206001600160a01b0385168085529252808320805460ff1916905551339285917ff6391f5c32d9c69d2a47ea670b442974b53935d1edc7fd64eb21e047a839171b9190a45050565b6001600160a01b0383163b6116845760405162461bcd60e51b815260206004820152601b60248201527f50726f78793a206e6f7420636f6e7472616374206164647265737300000000006044820152606401610230565b80156116b257600082815260026020526040902080546001600160a01b0319166001600160a01b0385161790555b6107de83825b6001600160a01b038216600081815260036020908152604091829020805460ff191685151590811790915591519182527f72558d9bfba4210f9ef095c782589484151f6d90f7a81bb3cb9b33efc695d324910160405180910390a25050565b6000828152602081815260408083206001600160a01b038516845290915290205460ff16610cf1576117488161178a565b61175383602061179c565b604051602001611764929190611c65565b60408051601f198184030181529082905262461bcd60e51b825261023091600401611ce6565b60606108146001600160a01b03831660145b606060006117ab836002611cf9565b6117b6906002611d10565b67ffffffffffffffff8111156117ce576117ce611d23565b6040519080825280601f01601f1916602001820160405280156117f8576020820181803683370190505b509050600360fc1b8160008151811061181357611813611c20565b60200101906001600160f81b031916908160001a905350600f60fb1b8160018151811061184257611842611c20565b60200101906001600160f81b031916908160001a9053506000611866846002611cf9565b611871906001611d10565b90505b60018111156118f6577f303132333435363738396162636465660000000000000000000000000000000085600f16601081106118b2576118b2611c20565b1a60f81b8282815181106118c8576118c8611c20565b60200101906001600160f81b031916908160001a90535060049490941c936118ef81611d39565b9050611874565b5083156119455760405162461bcd60e51b815260206004820181905260248201527f537472696e67733a20686578206c656e67746820696e73756666696369656e746044820152606401610230565b9392505050565b60006020828403121561195e57600080fd5b81356001600160e01b03198116811461194557600080fd5b80356001600160a01b03811681146114dc57600080fd5b600080600080600060a086880312156119a557600080fd5b6119ae86611976565b94506119bc60208701611976565b93506119ca60408701611976565b92506119d860608701611976565b91506119e660808701611976565b90509295509295909350565b600060208284031215611a0457600080fd5b61194582611976565b600060208284031215611a1f57600080fd5b5035919050565b60005b83811015611a41578181015183820152602001611a29565b50506000910152565b60008151808452611a62816020860160208601611a26565b601f01601f19169290920160200192915050565b60ff84168152606060208201526000611a926060830185611a4a565b8281036040840152611aa48185611a4a565b9695505050505050565b60008060408385031215611ac157600080fd5b82359150611ad160208401611976565b90509250929050565b600080600060408486031215611aef57600080fd5b833567ffffffffffffffff80821115611b0757600080fd5b818601915086601f830112611b1b57600080fd5b813581811115611b2a57600080fd5b8760208260051b8501011115611b3f57600080fd5b602092830195509350611b559186019050611976565b90509250925092565b803580151581146114dc57600080fd5b60008060408385031215611b8157600080fd5b611b8a83611976565b9150611ad160208401611b5e565b600060208284031215611baa57600080fd5b61194582611b5e565b600080600060608486031215611bc857600080fd5b611bd184611976565b925060208401359150611b5560408501611b5e565b600181811c90821680611bfa57607f821691505b602082108103611c1a57634e487b7160e01b600052602260045260246000fd5b50919050565b634e487b7160e01b600052603260045260246000fd5b634e487b7160e01b600052601160045260246000fd5b600060018201611c5e57611c5e611c36565b5060010190565b7f416363657373436f6e74726f6c3a206163636f756e7420000000000000000000815260008351611c9d816017850160208801611a26565b7f206973206d697373696e6720726f6c65200000000000000000000000000000006017918401918201528351611cda816028840160208801611a26565b01602801949350505050565b6020815260006119456020830184611a4a565b808202811582820484141761081457610814611c36565b8082018082111561081457610814611c36565b634e487b7160e01b600052604160045260246000fd5b600081611d4857611d48611c36565b50600019019056fe41636365737369626c653a2043616c6c6572206973206e6f7420616e2061646da164736f6c6343000812000adf8b4c520ffe197c5343c6f5aec59570151ef9a492f2c624fd45ddde6135ec42",
  "linkReferences": {},
  "deployedLinkReferences": {}
}