{
  "_format": "hh-sol-artifact-1",
  "contractName": "FwReceiptProxy",
  "sourceName": "contracts/proxy/FwReceiptProxy.sol",
  "abi": [
    {
      "inputs": [],
      "stateMutability": "nonpayable",
      "type": "constructor"
    },
    {
      "anonymous": false,
      "inputs": [
        {
          "indexed": true,
          "internalType": "bytes32",
          "name": "role",
          "type": "bytes32"
        },
        {
          "indexed": true,
          "internalType": "bytes32",
          "name": "previousAdminRole",
          "type": "bytes32"
        },
        {
          "indexed": true,
          "internalType": "bytes32",
          "name": "newAdminRole",
          "type": "bytes32"
        }
      ],
      "name": "RoleAdminChanged",
      "type": "event"
    },
    {
      "anonymous": false,
      "inputs": [
        {
          "indexed": true,
          "internalType": "bytes32",
          "name": "role",
          "type": "bytes32"
        },
        {
          "indexed": true,
          "internalType": "address",
          "name": "account",
          "type": "address"
        },
        {
          "indexed": true,
          "internalType": "address",
          "name": "sender",
          "type": "address"
        }
      ],
      "name": "RoleGranted",
      "type": "event"
    },
    {
      "anonymous": false,
      "inputs": [
        {
          "indexed": true,
          "internalType": "bytes32",
          "name": "role",
          "type": "bytes32"
        },
        {
          "indexed": true,
          "internalType": "address",
          "name": "account",
          "type": "address"
        },
        {
          "indexed": true,
          "internalType": "address",
          "name": "sender",
          "type": "address"
        }
      ],
      "name": "RoleRevoked",
      "type": "event"
    },
    {
      "anonymous": false,
      "inputs": [
        {
          "indexed": true,
          "internalType": "address",
          "name": "impl",
          "type": "address"
        },
        {
          "indexed": false,
          "internalType": "bool",
          "name": "alive",
          "type": "bool"
        }
      ],
      "name": "SetAliveImplementation",
      "type": "event"
    },
    {
      "anonymous": false,
      "inputs": [
        {
          "indexed": true,
          "internalType": "bytes4",
          "name": "selector",
          "type": "bytes4"
        },
        {
          "indexed": true,
          "internalType": "address",
          "name": "impl",
          "type": "address"
        }
      ],
      "name": "SetSelectorImplementation",
      "type": "event"
    },
    {
      "anonymous": false,
      "inputs": [
        {
          "indexed": true,
          "internalType": "address",
          "name": "implementation",
          "type": "address"
        }
      ],
      "name": "Upgraded",
      "type": "event"
    },
    {
      "stateMutability": "payable",
      "type": "fallback"
    },
    {
      "inputs": [],
      "name": "ADMIN_ROLE",
      "outputs": [
        {
          "internalType": "bytes32",
          "name": "",
          "type": "bytes32"
        }
      ],
      "stateMutability": "view",
      "type": "function"
    },
    {
      "inputs": [],
      "name": "DEFAULT_ADMIN_ROLE",
      "outputs": [
        {
          "internalType": "bytes32",
          "name": "",
          "type": "bytes32"
        }
      ],
      "stateMutability": "view",
      "type": "function"
    },
    {
      "inputs": [],
      "name": "POLICY_ROLE",
      "outputs": [
        {
          "internalType": "bytes32",
          "name": "",
          "type": "bytes32"
        }
      ],
      "stateMutability": "view",
      "type": "function"
    },
    {
      "inputs": [
        {
          "internalType": "address",
          "name": "account",
          "type": "address"
        }
      ],
      "name": "addAdmin",
      "outputs": [],
      "stateMutability": "nonpayable",
      "type": "function"
    },
    {
      "inputs": [
        {
          "internalType": "address",
          "name": "",
          "type": "address"
        }
      ],
      "name": "aliveImplementation",
      "outputs": [
        {
          "internalType": "bool",
          "name": "",
          "type": "bool"
        }
      ],
      "stateMutability": "view",
      "type": "function"
    },
    {
      "inputs": [],
      "name": "candidate",
      "outputs": [
        {
          "internalType": "address",
          "name": "",
          "type": "address"
        }
      ],
      "stateMutability": "view",
      "type": "function"
    },
    {
      "inputs": [
        {
          "internalType": "bytes32",
          "name": "role",
          "type": "bytes32"
        }
      ],
      "name": "getRoleAdmin",
      "outputs": [
        {
          "internalType": "bytes32",
          "name": "",
          "type": "bytes32"
        }
      ],
      "stateMutability": "view",
      "type": "function"
    },
    {
      "inputs": [
        {
          "internalType": "bytes4",
          "name": "_selector",
          "type": "bytes4"
        }
      ],
      "name": "getSelectorImplementation2",
      "outputs": [
        {
          "internalType": "address",
          "name": "impl",
          "type": "address"
        }
      ],
      "stateMutability": "view",
      "type": "function"
    },
    {
      "inputs": [
        {
          "internalType": "bytes32",
          "name": "role",
          "type": "bytes32"
        },
        {
          "internalType": "address",
          "name": "account",
          "type": "address"
        }
      ],
      "name": "grantRole",
      "outputs": [],
      "stateMutability": "nonpayable",
      "type": "function"
    },
    {
      "inputs": [
        {
          "internalType": "bytes32",
          "name": "role",
          "type": "bytes32"
        },
        {
          "internalType": "address",
          "name": "account",
          "type": "address"
        }
      ],
      "name": "hasRole",
      "outputs": [
        {
          "internalType": "bool",
          "name": "",
          "type": "bool"
        }
      ],
      "stateMutability": "view",
      "type": "function"
    },
    {
      "inputs": [],
      "name": "implementation",
      "outputs": [
        {
          "internalType": "address",
          "name": "",
          "type": "address"
        }
      ],
      "stateMutability": "view",
      "type": "function"
    },
    {
      "inputs": [
        {
          "internalType": "uint256",
          "name": "_index",
          "type": "uint256"
        }
      ],
      "name": "implementation2",
      "outputs": [
        {
          "internalType": "address",
          "name": "",
          "type": "address"
        }
      ],
      "stateMutability": "view",
      "type": "function"
    },
    {
      "inputs": [
        {
          "internalType": "address",
          "name": "_ton",
          "type": "address"
        },
        {
          "internalType": "address",
          "name": "_seigManagerV2",
          "type": "address"
        },
        {
          "internalType": "address",
          "name": "_optimismL2Operator",
          "type": "address"
        },
        {
          "internalType": "address",
          "name": "_candidate",
          "type": "address"
        }
      ],
      "name": "initialize",
      "outputs": [],
      "stateMutability": "nonpayable",
      "type": "function"
    },
    {
      "inputs": [
        {
          "internalType": "address",
          "name": "account",
          "type": "address"
        }
      ],
      "name": "isAdmin",
      "outputs": [
        {
          "internalType": "bool",
          "name": "",
          "type": "bool"
        }
      ],
      "stateMutability": "view",
      "type": "function"
    },
    {
      "inputs": [
        {
          "internalType": "bytes32",
          "name": "",
          "type": "bytes32"
        }
      ],
      "name": "messages",
      "outputs": [
        {
          "internalType": "uint8",
          "name": "status",
          "type": "uint8"
        },
        {
          "internalType": "bytes",
          "name": "data",
          "type": "bytes"
        },
        {
          "internalType": "bytes",
          "name": "liquidities",
          "type": "bytes"
        }
      ],
      "stateMutability": "view",
      "type": "function"
    },
    {
      "inputs": [],
      "name": "optimismL2Operator",
      "outputs": [
        {
          "internalType": "address",
          "name": "",
          "type": "address"
        }
      ],
      "stateMutability": "view",
      "type": "function"
    },
    {
      "inputs": [],
      "name": "pauseProxy",
      "outputs": [
        {
          "internalType": "bool",
          "name": "",
          "type": "bool"
        }
      ],
      "stateMutability": "view",
      "type": "function"
    },
    {
      "inputs": [
        {
          "internalType": "uint256",
          "name": "",
          "type": "uint256"
        }
      ],
      "name": "proxyImplementation",
      "outputs": [
        {
          "internalType": "address",
          "name": "",
          "type": "address"
        }
      ],
      "stateMutability": "view",
      "type": "function"
    },
    {
      "inputs": [
        {
          "internalType": "address",
          "name": "account",
          "type": "address"
        }
      ],
      "name": "removeAdmin",
      "outputs": [],
      "stateMutability": "nonpayable",
      "type": "function"
    },
    {
      "inputs": [
        {
          "internalType": "bytes32",
          "name": "role",
          "type": "bytes32"
        },
        {
          "internalType": "address",
          "name": "account",
          "type": "address"
        }
      ],
      "name": "renounceRole",
      "outputs": [],
      "stateMutability": "nonpayable",
      "type": "function"
    },
    {
      "inputs": [
        {
          "internalType": "bytes32",
          "name": "role",
          "type": "bytes32"
        },
        {
          "internalType": "address",
          "name": "account",
          "type": "address"
        }
      ],
      "name": "revokeRole",
      "outputs": [],
      "stateMutability": "nonpayable",
      "type": "function"
    },
    {
      "inputs": [],
      "name": "seigManagerV2",
      "outputs": [
        {
          "internalType": "address",
          "name": "",
          "type": "address"
        }
      ],
      "stateMutability": "view",
      "type": "function"
    },
    {
      "inputs": [
        {
          "internalType": "bytes4",
          "name": "",
          "type": "bytes4"
        }
      ],
      "name": "selectorImplementation",
      "outputs": [
        {
          "internalType": "address",
          "name": "",
          "type": "address"
        }
      ],
      "stateMutability": "view",
      "type": "function"
    },
    {
      "inputs": [
        {
          "internalType": "address",
          "name": "newImplementation",
          "type": "address"
        },
        {
          "internalType": "bool",
          "name": "_alive",
          "type": "bool"
        }
      ],
      "name": "setAliveImplementation2",
      "outputs": [],
      "stateMutability": "nonpayable",
      "type": "function"
    },
    {
      "inputs": [
        {
          "internalType": "address",
          "name": "newImplementation",
          "type": "address"
        },
        {
          "internalType": "uint256",
          "name": "_index",
          "type": "uint256"
        },
        {
          "internalType": "bool",
          "name": "_alive",
          "type": "bool"
        }
      ],
      "name": "setImplementation2",
      "outputs": [],
      "stateMutability": "nonpayable",
      "type": "function"
    },
    {
      "inputs": [
        {
          "internalType": "bool",
          "name": "_pause",
          "type": "bool"
        }
      ],
      "name": "setProxyPause",
      "outputs": [],
      "stateMutability": "nonpayable",
      "type": "function"
    },
    {
      "inputs": [
        {
          "internalType": "bytes4[]",
          "name": "_selectors",
          "type": "bytes4[]"
        },
        {
          "internalType": "address",
          "name": "_imp",
          "type": "address"
        }
      ],
      "name": "setSelectorImplementations2",
      "outputs": [],
      "stateMutability": "nonpayable",
      "type": "function"
    },
    {
      "inputs": [
        {
          "internalType": "bytes4",
          "name": "interfaceId",
          "type": "bytes4"
        }
      ],
      "name": "supportsInterface",
      "outputs": [
        {
          "internalType": "bool",
          "name": "",
          "type": "bool"
        }
      ],
      "stateMutability": "view",
      "type": "function"
    },
    {
      "inputs": [],
      "name": "ton",
      "outputs": [
        {
          "internalType": "address",
          "name": "",
          "type": "address"
        }
      ],
      "stateMutability": "view",
      "type": "function"
    },
    {
      "inputs": [
        {
          "internalType": "address",
          "name": "newAdmin",
          "type": "address"
        }
      ],
      "name": "transferAdmin",
      "outputs": [],
      "stateMutability": "nonpayable",
      "type": "function"
    },
    {
      "inputs": [
        {
          "internalType": "address",
          "name": "impl",
          "type": "address"
        }
      ],
      "name": "upgradeTo",
      "outputs": [],
      "stateMutability": "nonpayable",
      "type": "function"
    },
    {
      "stateMutability": "payable",
      "type": "receive"
    }
  ],
  "bytecode": "0x6080604052600d805460ff191660011790553480156200001e57600080fd5b506200003a60008051602062001e678339815191528062000068565b6200005560008051602062001e6783398151915233620000b3565b62000062600033620000b3565b62000163565b600082815260208190526040808220600101805490849055905190918391839186917fbd79b86ffe0ab8e8776151514217cd7cacd52c909f66475c3af44e129f0b00ff9190a4505050565b620000bf8282620000c3565b5050565b6000828152602081815260408083206001600160a01b038516845290915290205460ff16620000bf576000828152602081815260408083206001600160a01b03851684529091529020805460ff191660011790556200011f3390565b6001600160a01b0316816001600160a01b0316837f2f8788117e7eff1d82e926ec794901d17c78024a50270940304540a733656f0d60405160405180910390a45050565b611cf480620001736000396000f3fe6080604052600436106101dc5760003560e01c80636c8381f8116101025780638d4fdb4011610095578063cc48b94711610064578063cc48b9471461068f578063d547741f146106af578063ec558b16146106cf578063f8c8765e146106ef5761022e565b80638d4fdb40146105e057806391d1485414610600578063a217fddf14610644578063b911135f146106595761022e565b806375b238fc116100d157806375b238fc1461054c5780637cb00d25146105805780637cd5f663146105a05780638b8f4a65146105c05761022e565b80636c8381f8146104cc57806370480275146104ec57806373469a7a1461050c57806375829def1461052c5761022e565b806336568abe1161017a578063550d01a311610149578063550d01a31461041c5780635c60da1b1461044c5780635cc797d81461049257806363a8fd89146104b25761022e565b806336568abe1461036e5780633659cfe61461038e5780634a5df50f146103ae57806350d2a276146103ce5761022e565b8063248a9ca3116101b6578063248a9ca3146102cf57806324d7806c146102ff5780632bbd59ca1461031f5780632f2ff15d1461034e5761022e565b806301ffc9a7146102385780631785f53c1461026d578063229852461461028d5761022e565b3661022e5760405162461bcd60e51b815260206004820152601460248201527f63616e6e6f74207265636569766520457468657200000000000000000000000060448201526064015b60405180910390fd5b61023661070f565b005b34801561024457600080fd5b506102586102533660046118d4565b6107b8565b60405190151581526020015b60405180910390f35b34801561027957600080fd5b50610236610288366004611915565b6107ef565b34801561029957600080fd5b506102c17ffb5864e8ff833c3cb2d2d08505e82ff02a43554c74a35d4f5a64e8526127831181565b604051908152602001610264565b3480156102db57600080fd5b506102c16102ea366004611930565b60009081526020819052604090206001015490565b34801561030b57600080fd5b5061025861031a366004611915565b61086a565b34801561032b57600080fd5b5061033f61033a366004611930565b6108aa565b60405161026493929190611999565b34801561035a57600080fd5b506102366103693660046119d1565b6109e1565b34801561037a57600080fd5b506102366103893660046119d1565b610a06565b34801561039a57600080fd5b506102366103a9366004611915565b610a92565b3480156103ba57600080fd5b506102366103c93660046119fd565b610beb565b3480156103da57600080fd5b506104046103e93660046118d4565b6004602052600090815260409020546001600160a01b031681565b6040516001600160a01b039091168152602001610264565b34801561042857600080fd5b50610258610437366004611915565b60036020526000908152604090205460ff1681565b34801561045857600080fd5b506000805260026020527fac33ff75c19e70fe83507db0d683fd3465c996598dc972688b7ace676c89077b546001600160a01b0316610404565b34801561049e57600080fd5b506102366104ad366004611a91565b610e8b565b3480156104be57600080fd5b506001546102589060ff1681565b3480156104d857600080fd5b50600854610404906001600160a01b031681565b3480156104f857600080fd5b50610236610507366004611915565b610ee3565b34801561051857600080fd5b50600654610404906001600160a01b031681565b34801561053857600080fd5b50610236610547366004611915565b610f5b565b34801561055857600080fd5b506102c17fdf8b4c520ffe197c5343c6f5aec59570151ef9a492f2c624fd45ddde6135ec4281565b34801561058c57600080fd5b5061023661059b366004611abb565b6110ab565b3480156105ac57600080fd5b506102366105bb366004611ad6565b61110c565b3480156105cc57600080fd5b506104046105db366004611930565b611165565b3480156105ec57600080fd5b506104046105fb3660046118d4565b611182565b34801561060c57600080fd5b5061025861061b3660046119d1565b6000918252602082815260408084206001600160a01b0393909316845291905290205460ff1690565b34801561065057600080fd5b506102c1600081565b34801561066557600080fd5b50610404610674366004611930565b6002602052600090815260409020546001600160a01b031681565b34801561069b57600080fd5b50600554610404906001600160a01b031681565b3480156106bb57600080fd5b506102366106ca3660046119d1565b61127e565b3480156106db57600080fd5b50600754610404906001600160a01b031681565b3480156106fb57600080fd5b5061023661070a366004611b09565b6112a3565b60006107266000356001600160e01b031916611182565b90506001600160a01b03811615801590610743575060015460ff16155b61078f5760405162461bcd60e51b815260206004820152601d60248201527f50726f78793a20696d706c204f522070726f78792069732066616c73650000006044820152606401610225565b3660008037600080366000845af43d6000803e8080156107ae573d6000f35b3d6000fd5b505050565b60006001600160e01b03198216637965db0b60e01b14806107e957506301ffc9a760e01b6001600160e01b03198316145b92915050565b6107f83361086a565b61083d5760405162461bcd60e51b81526020600482015260226024820152600080516020611cc883398151915260448201526134b760f11b6064820152608401610225565b6108677fdf8b4c520ffe197c5343c6f5aec59570151ef9a492f2c624fd45ddde6135ec4282610a06565b50565b6001600160a01b03811660009081527f5cbfc8ee58ca47855df7bcf648dd304ddb6b932f9b87878bdf6318d7ec7ee5b7602052604081205460ff166107e9565b6009602052600090815260409020805460018201805460ff90921692916108d090611b5d565b80601f01602080910402602001604051908101604052809291908181526020018280546108fc90611b5d565b80156109495780601f1061091e57610100808354040283529160200191610949565b820191906000526020600020905b81548152906001019060200180831161092c57829003601f168201915b50505050509080600201805461095e90611b5d565b80601f016020809104026020016040519081016040528092919081815260200182805461098a90611b5d565b80156109d75780601f106109ac576101008083540402835291602001916109d7565b820191906000526020600020905b8154815290600101906020018083116109ba57829003601f168201915b5050505050905083565b6000828152602081905260409020600101546109fc8161148e565b6107b38383611498565b6001600160a01b0381163314610a845760405162461bcd60e51b815260206004820152602f60248201527f416363657373436f6e74726f6c3a2063616e206f6e6c792072656e6f756e636560448201527f20726f6c657320666f722073656c6600000000000000000000000000000000006064820152608401610225565b610a8e8282611536565b5050565b610a9b3361086a565b610ae05760405162461bcd60e51b81526020600482015260226024820152600080516020611cc883398151915260448201526134b760f11b6064820152608401610225565b6001600160a01b038116610b365760405162461bcd60e51b815260206004820152600d60248201527f696e707574206973207a65726f000000000000000000000000000000000000006044820152606401610225565b6000805260026020527fac33ff75c19e70fe83507db0d683fd3465c996598dc972688b7ace676c89077b546001600160a01b03828116911603610ba75760405162461bcd60e51b815260206004820152600960248201526839b0b6b29030b2323960b91b6044820152606401610225565b610bb481600060016115b5565b6040516001600160a01b038216907fbc7cd75a20ee27fd9adebab32041f755214dbc6bffa90cc0225b39da2e5c2d3b90600090a250565b610bf43361086a565b610c395760405162461bcd60e51b81526020600482015260226024820152600080516020611cc883398151915260448201526134b760f11b6064820152608401610225565b81610c865760405162461bcd60e51b815260206004820181905260248201527f50726f78793a205f73656c6563746f727327732073697a65206973207a65726f6044820152606401610225565b6001600160a01b03811660009081526003602052604090205460ff16610cee5760405162461bcd60e51b815260206004820152601860248201527f50726f78793a205f696d70206973206e6f7420616c69766500000000000000006044820152606401610225565b60005b82811015610e8557816001600160a01b031660046000868685818110610d1957610d19611b97565b9050602002016020810190610d2e91906118d4565b6001600160e01b03191681526020810191909152604001600020546001600160a01b031603610d9f5760405162461bcd60e51b815260206004820152601d60248201527f4c69717569646974795661756c7450726f78793a2073616d6520696d700000006044820152606401610225565b8160046000868685818110610db657610db6611b97565b9050602002016020810190610dcb91906118d4565b6001600160e01b0319168152602081019190915260400160002080546001600160a01b0319166001600160a01b039283161790558216848483818110610e1357610e13611b97565b9050602002016020810190610e2891906118d4565b7bffffffffffffffffffffffffffffffffffffffffffffffffffffffff19167f14ebc1c32aa68f4d766e89f3e546cee249f7df25183fc10ab1568d91c2ce9b7b60405160405180910390a380610e7d81611bc3565b915050610cf1565b50505050565b610e943361086a565b610ed95760405162461bcd60e51b81526020600482015260226024820152600080516020611cc883398151915260448201526134b760f11b6064820152608401610225565b610a8e8282611640565b610eec3361086a565b610f315760405162461bcd60e51b81526020600482015260226024820152600080516020611cc883398151915260448201526134b760f11b6064820152608401610225565b6108677fdf8b4c520ffe197c5343c6f5aec59570151ef9a492f2c624fd45ddde6135ec42826109e1565b610f643361086a565b610fa95760405162461bcd60e51b81526020600482015260226024820152600080516020611cc883398151915260448201526134b760f11b6064820152608401610225565b6001600160a01b038116610fff5760405162461bcd60e51b815260206004820152601860248201527f41636365737369626c653a207a65726f206164647265737300000000000000006044820152606401610225565b6001600160a01b03811633036110575760405162461bcd60e51b815260206004820152601660248201527f41636365737369626c653a2073616d652061646d696e000000000000000000006044820152606401610225565b6110817fdf8b4c520ffe197c5343c6f5aec59570151ef9a492f2c624fd45ddde6135ec42826109e1565b6108677fdf8b4c520ffe197c5343c6f5aec59570151ef9a492f2c624fd45ddde6135ec4233610a06565b6110b43361086a565b6110f95760405162461bcd60e51b81526020600482015260226024820152600080516020611cc883398151915260448201526134b760f11b6064820152608401610225565b6001805460ff1916911515919091179055565b6111153361086a565b61115a5760405162461bcd60e51b81526020600482015260226024820152600080516020611cc883398151915260448201526134b760f11b6064820152608401610225565b6107b38383836115b5565b6000818152600260205260408120546001600160a01b03166107e9565b6001600160e01b031981166000908152600460205260408120546001600160a01b03166111e25750506000805260026020527fac33ff75c19e70fe83507db0d683fd3465c996598dc972688b7ace676c89077b546001600160a01b031690565b6001600160e01b031982166000908152600460209081526040808320546001600160a01b03168352600390915290205460ff161561124057506001600160e01b0319166000908152600460205260409020546001600160a01b031690565b50506000805260026020527fac33ff75c19e70fe83507db0d683fd3465c996598dc972688b7ace676c89077b546001600160a01b031690565b919050565b6000828152602081905260409020600101546112998161148e565b6107b38383611536565b6112ac3361086a565b6112f15760405162461bcd60e51b81526020600482015260226024820152600080516020611cc883398151915260448201526134b760f11b6064820152608401610225565b836001600160a01b03811661132d5760405162461bcd60e51b81526020600482015260026024820152612d1960f11b6044820152606401610225565b836001600160a01b0381166113695760405162461bcd60e51b81526020600482015260026024820152612d1960f11b6044820152606401610225565b836001600160a01b0381166113a55760405162461bcd60e51b81526020600482015260026024820152612d1960f11b6044820152606401610225565b836001600160a01b0381166113e15760405162461bcd60e51b81526020600482015260026024820152612d1960f11b6044820152606401610225565b6005546001600160a01b03161561143a5760405162461bcd60e51b815260206004820152601260248201527f616c726561647920696e697469616c697a6500000000000000000000000000006044820152606401610225565b5050600580546001600160a01b039788166001600160a01b03199182161790915560068054968816968216969096179095555050600780549285169284169290921790915560088054919093169116179055565b610867813361169f565b6000828152602081815260408083206001600160a01b038516845290915290205460ff16610a8e576000828152602081815260408083206001600160a01b03851684529091529020805460ff191660011790556114f23390565b6001600160a01b0316816001600160a01b0316837f2f8788117e7eff1d82e926ec794901d17c78024a50270940304540a733656f0d60405160405180910390a45050565b6000828152602081815260408083206001600160a01b038516845290915290205460ff1615610a8e576000828152602081815260408083206001600160a01b0385168085529252808320805460ff1916905551339285917ff6391f5c32d9c69d2a47ea670b442974b53935d1edc7fd64eb21e047a839171b9190a45050565b6001600160a01b0383163b61160c5760405162461bcd60e51b815260206004820152601b60248201527f50726f78793a206e6f7420636f6e7472616374206164647265737300000000006044820152606401610225565b801561163a57600082815260026020526040902080546001600160a01b0319166001600160a01b0385161790555b6107b383825b6001600160a01b038216600081815260036020908152604091829020805460ff191685151590811790915591519182527f72558d9bfba4210f9ef095c782589484151f6d90f7a81bb3cb9b33efc695d324910160405180910390a25050565b6000828152602081815260408083206001600160a01b038516845290915290205460ff16610a8e576116d081611712565b6116db836020611724565b6040516020016116ec929190611bdc565b60408051601f198184030181529082905262461bcd60e51b825261022591600401611c5d565b60606107e96001600160a01b03831660145b60606000611733836002611c70565b61173e906002611c87565b67ffffffffffffffff81111561175657611756611c9a565b6040519080825280601f01601f191660200182016040528015611780576020820181803683370190505b509050600360fc1b8160008151811061179b5761179b611b97565b60200101906001600160f81b031916908160001a905350600f60fb1b816001815181106117ca576117ca611b97565b60200101906001600160f81b031916908160001a90535060006117ee846002611c70565b6117f9906001611c87565b90505b600181111561187e577f303132333435363738396162636465660000000000000000000000000000000085600f166010811061183a5761183a611b97565b1a60f81b82828151811061185057611850611b97565b60200101906001600160f81b031916908160001a90535060049490941c9361187781611cb0565b90506117fc565b5083156118cd5760405162461bcd60e51b815260206004820181905260248201527f537472696e67733a20686578206c656e67746820696e73756666696369656e746044820152606401610225565b9392505050565b6000602082840312156118e657600080fd5b81356001600160e01b0319811681146118cd57600080fd5b80356001600160a01b038116811461127957600080fd5b60006020828403121561192757600080fd5b6118cd826118fe565b60006020828403121561194257600080fd5b5035919050565b60005b8381101561196457818101518382015260200161194c565b50506000910152565b60008151808452611985816020860160208601611949565b601f01601f19169290920160200192915050565b60ff841681526060602082015260006119b5606083018561196d565b82810360408401526119c7818561196d565b9695505050505050565b600080604083850312156119e457600080fd5b823591506119f4602084016118fe565b90509250929050565b600080600060408486031215611a1257600080fd5b833567ffffffffffffffff80821115611a2a57600080fd5b818601915086601f830112611a3e57600080fd5b813581811115611a4d57600080fd5b8760208260051b8501011115611a6257600080fd5b602092830195509350611a7891860190506118fe565b90509250925092565b8035801515811461127957600080fd5b60008060408385031215611aa457600080fd5b611aad836118fe565b91506119f460208401611a81565b600060208284031215611acd57600080fd5b6118cd82611a81565b600080600060608486031215611aeb57600080fd5b611af4846118fe565b925060208401359150611a7860408501611a81565b60008060008060808587031215611b1f57600080fd5b611b28856118fe565b9350611b36602086016118fe565b9250611b44604086016118fe565b9150611b52606086016118fe565b905092959194509250565b600181811c90821680611b7157607f821691505b602082108103611b9157634e487b7160e01b600052602260045260246000fd5b50919050565b634e487b7160e01b600052603260045260246000fd5b634e487b7160e01b600052601160045260246000fd5b600060018201611bd557611bd5611bad565b5060010190565b7f416363657373436f6e74726f6c3a206163636f756e7420000000000000000000815260008351611c14816017850160208801611949565b7f206973206d697373696e6720726f6c65200000000000000000000000000000006017918401918201528351611c51816028840160208801611949565b01602801949350505050565b6020815260006118cd602083018461196d565b80820281158282048414176107e9576107e9611bad565b808201808211156107e9576107e9611bad565b634e487b7160e01b600052604160045260246000fd5b600081611cbf57611cbf611bad565b50600019019056fe41636365737369626c653a2043616c6c6572206973206e6f7420616e2061646da164736f6c6343000812000adf8b4c520ffe197c5343c6f5aec59570151ef9a492f2c624fd45ddde6135ec42",
  "linkReferences": {},
  "deployedLinkReferences": {}
}