{
  "_format": "hh-sol-artifact-1",
  "contractName": "FwReceiptProxy",
  "sourceName": "contracts/proxy/FwReceiptProxy.sol",
  "abi": [
    {
      "inputs": [],
      "stateMutability": "nonpayable",
      "type": "constructor"
    },
    {
      "anonymous": false,
      "inputs": [
        {
          "indexed": true,
          "internalType": "bytes32",
          "name": "role",
          "type": "bytes32"
        },
        {
          "indexed": true,
          "internalType": "bytes32",
          "name": "previousAdminRole",
          "type": "bytes32"
        },
        {
          "indexed": true,
          "internalType": "bytes32",
          "name": "newAdminRole",
          "type": "bytes32"
        }
      ],
      "name": "RoleAdminChanged",
      "type": "event"
    },
    {
      "anonymous": false,
      "inputs": [
        {
          "indexed": true,
          "internalType": "bytes32",
          "name": "role",
          "type": "bytes32"
        },
        {
          "indexed": true,
          "internalType": "address",
          "name": "account",
          "type": "address"
        },
        {
          "indexed": true,
          "internalType": "address",
          "name": "sender",
          "type": "address"
        }
      ],
      "name": "RoleGranted",
      "type": "event"
    },
    {
      "anonymous": false,
      "inputs": [
        {
          "indexed": true,
          "internalType": "bytes32",
          "name": "role",
          "type": "bytes32"
        },
        {
          "indexed": true,
          "internalType": "address",
          "name": "account",
          "type": "address"
        },
        {
          "indexed": true,
          "internalType": "address",
          "name": "sender",
          "type": "address"
        }
      ],
      "name": "RoleRevoked",
      "type": "event"
    },
    {
      "anonymous": false,
      "inputs": [
        {
          "indexed": true,
          "internalType": "address",
          "name": "impl",
          "type": "address"
        },
        {
          "indexed": false,
          "internalType": "bool",
          "name": "alive",
          "type": "bool"
        }
      ],
      "name": "SetAliveImplementation",
      "type": "event"
    },
    {
      "anonymous": false,
      "inputs": [
        {
          "indexed": true,
          "internalType": "bytes4",
          "name": "selector",
          "type": "bytes4"
        },
        {
          "indexed": true,
          "internalType": "address",
          "name": "impl",
          "type": "address"
        }
      ],
      "name": "SetSelectorImplementation",
      "type": "event"
    },
    {
      "anonymous": false,
      "inputs": [
        {
          "indexed": true,
          "internalType": "address",
          "name": "implementation",
          "type": "address"
        }
      ],
      "name": "Upgraded",
      "type": "event"
    },
    {
      "stateMutability": "payable",
      "type": "fallback"
    },
    {
      "inputs": [],
      "name": "ADMIN_ROLE",
      "outputs": [
        {
          "internalType": "bytes32",
          "name": "",
          "type": "bytes32"
        }
      ],
      "stateMutability": "view",
      "type": "function"
    },
    {
      "inputs": [],
      "name": "DEFAULT_ADMIN_ROLE",
      "outputs": [
        {
          "internalType": "bytes32",
          "name": "",
          "type": "bytes32"
        }
      ],
      "stateMutability": "view",
      "type": "function"
    },
    {
      "inputs": [],
      "name": "POLICY_ROLE",
      "outputs": [
        {
          "internalType": "bytes32",
          "name": "",
          "type": "bytes32"
        }
      ],
      "stateMutability": "view",
      "type": "function"
    },
    {
      "inputs": [
        {
          "internalType": "address",
          "name": "account",
          "type": "address"
        }
      ],
      "name": "addAdmin",
      "outputs": [],
      "stateMutability": "nonpayable",
      "type": "function"
    },
    {
      "inputs": [
        {
          "internalType": "address",
          "name": "",
          "type": "address"
        }
      ],
      "name": "aliveImplementation",
      "outputs": [
        {
          "internalType": "bool",
          "name": "",
          "type": "bool"
        }
      ],
      "stateMutability": "view",
      "type": "function"
    },
    {
      "inputs": [
        {
          "internalType": "bytes32",
          "name": "role",
          "type": "bytes32"
        }
      ],
      "name": "getRoleAdmin",
      "outputs": [
        {
          "internalType": "bytes32",
          "name": "",
          "type": "bytes32"
        }
      ],
      "stateMutability": "view",
      "type": "function"
    },
    {
      "inputs": [
        {
          "internalType": "bytes4",
          "name": "_selector",
          "type": "bytes4"
        }
      ],
      "name": "getSelectorImplementation2",
      "outputs": [
        {
          "internalType": "address",
          "name": "impl",
          "type": "address"
        }
      ],
      "stateMutability": "view",
      "type": "function"
    },
    {
      "inputs": [
        {
          "internalType": "bytes32",
          "name": "role",
          "type": "bytes32"
        },
        {
          "internalType": "address",
          "name": "account",
          "type": "address"
        }
      ],
      "name": "grantRole",
      "outputs": [],
      "stateMutability": "nonpayable",
      "type": "function"
    },
    {
      "inputs": [
        {
          "internalType": "bytes32",
          "name": "role",
          "type": "bytes32"
        },
        {
          "internalType": "address",
          "name": "account",
          "type": "address"
        }
      ],
      "name": "hasRole",
      "outputs": [
        {
          "internalType": "bool",
          "name": "",
          "type": "bool"
        }
      ],
      "stateMutability": "view",
      "type": "function"
    },
    {
      "inputs": [],
      "name": "implementation",
      "outputs": [
        {
          "internalType": "address",
          "name": "",
          "type": "address"
        }
      ],
      "stateMutability": "view",
      "type": "function"
    },
    {
      "inputs": [
        {
          "internalType": "uint256",
          "name": "_index",
          "type": "uint256"
        }
      ],
      "name": "implementation2",
      "outputs": [
        {
          "internalType": "address",
          "name": "",
          "type": "address"
        }
      ],
      "stateMutability": "view",
      "type": "function"
    },
    {
      "inputs": [
        {
          "internalType": "address",
          "name": "_ton",
          "type": "address"
        },
        {
          "internalType": "address",
          "name": "_optimismSequencer",
          "type": "address"
        }
      ],
      "name": "initialize",
      "outputs": [],
      "stateMutability": "nonpayable",
      "type": "function"
    },
    {
      "inputs": [
        {
          "internalType": "address",
          "name": "account",
          "type": "address"
        }
      ],
      "name": "isAdmin",
      "outputs": [
        {
          "internalType": "bool",
          "name": "",
          "type": "bool"
        }
      ],
      "stateMutability": "view",
      "type": "function"
    },
    {
      "inputs": [
        {
          "internalType": "bytes32",
          "name": "",
          "type": "bytes32"
        }
      ],
      "name": "messages",
      "outputs": [
        {
          "internalType": "uint8",
          "name": "status",
          "type": "uint8"
        },
        {
          "internalType": "address",
          "name": "provider",
          "type": "address"
        },
        {
          "internalType": "bytes",
          "name": "data",
          "type": "bytes"
        }
      ],
      "stateMutability": "view",
      "type": "function"
    },
    {
      "inputs": [],
      "name": "optimismSequencer",
      "outputs": [
        {
          "internalType": "address",
          "name": "",
          "type": "address"
        }
      ],
      "stateMutability": "view",
      "type": "function"
    },
    {
      "inputs": [],
      "name": "pauseProxy",
      "outputs": [
        {
          "internalType": "bool",
          "name": "",
          "type": "bool"
        }
      ],
      "stateMutability": "view",
      "type": "function"
    },
    {
      "inputs": [
        {
          "internalType": "uint256",
          "name": "",
          "type": "uint256"
        }
      ],
      "name": "proxyImplementation",
      "outputs": [
        {
          "internalType": "address",
          "name": "",
          "type": "address"
        }
      ],
      "stateMutability": "view",
      "type": "function"
    },
    {
      "inputs": [],
      "name": "receiptNo",
      "outputs": [
        {
          "internalType": "uint256",
          "name": "",
          "type": "uint256"
        }
      ],
      "stateMutability": "view",
      "type": "function"
    },
    {
      "inputs": [
        {
          "internalType": "address",
          "name": "account",
          "type": "address"
        }
      ],
      "name": "removeAdmin",
      "outputs": [],
      "stateMutability": "nonpayable",
      "type": "function"
    },
    {
      "inputs": [
        {
          "internalType": "bytes32",
          "name": "role",
          "type": "bytes32"
        },
        {
          "internalType": "address",
          "name": "account",
          "type": "address"
        }
      ],
      "name": "renounceRole",
      "outputs": [],
      "stateMutability": "nonpayable",
      "type": "function"
    },
    {
      "inputs": [
        {
          "internalType": "bytes32",
          "name": "role",
          "type": "bytes32"
        },
        {
          "internalType": "address",
          "name": "account",
          "type": "address"
        }
      ],
      "name": "revokeRole",
      "outputs": [],
      "stateMutability": "nonpayable",
      "type": "function"
    },
    {
      "inputs": [
        {
          "internalType": "bytes4",
          "name": "",
          "type": "bytes4"
        }
      ],
      "name": "selectorImplementation",
      "outputs": [
        {
          "internalType": "address",
          "name": "",
          "type": "address"
        }
      ],
      "stateMutability": "view",
      "type": "function"
    },
    {
      "inputs": [
        {
          "internalType": "address",
          "name": "newImplementation",
          "type": "address"
        },
        {
          "internalType": "bool",
          "name": "_alive",
          "type": "bool"
        }
      ],
      "name": "setAliveImplementation2",
      "outputs": [],
      "stateMutability": "nonpayable",
      "type": "function"
    },
    {
      "inputs": [
        {
          "internalType": "address",
          "name": "newImplementation",
          "type": "address"
        },
        {
          "internalType": "uint256",
          "name": "_index",
          "type": "uint256"
        },
        {
          "internalType": "bool",
          "name": "_alive",
          "type": "bool"
        }
      ],
      "name": "setImplementation2",
      "outputs": [],
      "stateMutability": "nonpayable",
      "type": "function"
    },
    {
      "inputs": [
        {
          "internalType": "bool",
          "name": "_pause",
          "type": "bool"
        }
      ],
      "name": "setProxyPause",
      "outputs": [],
      "stateMutability": "nonpayable",
      "type": "function"
    },
    {
      "inputs": [
        {
          "internalType": "bytes4[]",
          "name": "_selectors",
          "type": "bytes4[]"
        },
        {
          "internalType": "address",
          "name": "_imp",
          "type": "address"
        }
      ],
      "name": "setSelectorImplementations2",
      "outputs": [],
      "stateMutability": "nonpayable",
      "type": "function"
    },
    {
      "inputs": [
        {
          "internalType": "bytes4",
          "name": "interfaceId",
          "type": "bytes4"
        }
      ],
      "name": "supportsInterface",
      "outputs": [
        {
          "internalType": "bool",
          "name": "",
          "type": "bool"
        }
      ],
      "stateMutability": "view",
      "type": "function"
    },
    {
      "inputs": [],
      "name": "ton",
      "outputs": [
        {
          "internalType": "address",
          "name": "",
          "type": "address"
        }
      ],
      "stateMutability": "view",
      "type": "function"
    },
    {
      "inputs": [
        {
          "internalType": "address",
          "name": "newAdmin",
          "type": "address"
        }
      ],
      "name": "transferAdmin",
      "outputs": [],
      "stateMutability": "nonpayable",
      "type": "function"
    },
    {
      "inputs": [
        {
          "internalType": "address",
          "name": "impl",
          "type": "address"
        }
      ],
      "name": "upgradeTo",
      "outputs": [],
      "stateMutability": "nonpayable",
      "type": "function"
    },
    {
      "stateMutability": "payable",
      "type": "receive"
    }
  ],
  "bytecode": "0x60806040523480156200001157600080fd5b506200002d60008051602062001cdd833981519152806200005b565b6200004860008051602062001cdd83398151915233620000a6565b62000055600033620000a6565b62000156565b600082815260208190526040808220600101805490849055905190918391839186917fbd79b86ffe0ab8e8776151514217cd7cacd52c909f66475c3af44e129f0b00ff9190a4505050565b620000b28282620000b6565b5050565b6000828152602081815260408083206001600160a01b038516845290915290205460ff16620000b2576000828152602081815260408083206001600160a01b03851684529091529020805460ff19166001179055620001123390565b6001600160a01b0316816001600160a01b0316837f2f8788117e7eff1d82e926ec794901d17c78024a50270940304540a733656f0d60405160405180910390a45050565b611b7780620001666000396000f3fe6080604052600436106101d15760003560e01c80635cc797d8116100f75780638b8f4a6511610095578063b911135f11610064578063b911135f14610644578063cc48b9471461067a578063d547741f1461069a578063da0dc135146106ba57610223565b80638b8f4a65146105ab5780638d4fdb40146105cb57806391d14854146105eb578063a217fddf1461062f57610223565b806375829def116100d157806375829def1461051757806375b238fc146105375780637cb00d251461056b5780637cd5f6631461058b57610223565b80635cc797d8146104bd57806363a8fd89146104dd57806370480275146104f757610223565b806336568abe1161016f57806350d2a2761161013e57806350d2a276146103e3578063550d01a3146104315780635c475a2f146104615780635c60da1b1461047757610223565b806336568abe146103635780633659cfe614610383578063485cc955146103a35780634a5df50f146103c357610223565b8063248a9ca3116101ab578063248a9ca3146102c457806324d7806c146102f45780632bbd59ca146103145780632f2ff15d1461034357610223565b806301ffc9a71461022d5780631785f53c14610262578063229852461461028257610223565b366102235760405162461bcd60e51b815260206004820152601460248201527f63616e6e6f74207265636569766520457468657200000000000000000000000060448201526064015b60405180910390fd5b61022b6106da565b005b34801561023957600080fd5b5061024d610248366004611785565b610783565b60405190151581526020015b60405180910390f35b34801561026e57600080fd5b5061022b61027d3660046117c6565b6107ba565b34801561028e57600080fd5b506102b67ffb5864e8ff833c3cb2d2d08505e82ff02a43554c74a35d4f5a64e8526127831181565b604051908152602001610259565b3480156102d057600080fd5b506102b66102df3660046117e1565b60009081526020819052604090206001015490565b34801561030057600080fd5b5061024d61030f3660046117c6565b610835565b34801561032057600080fd5b5061033461032f3660046117e1565b610875565b6040516102599392919061184a565b34801561034f57600080fd5b5061022b61035e36600461187e565b61092e565b34801561036f57600080fd5b5061022b61037e36600461187e565b610953565b34801561038f57600080fd5b5061022b61039e3660046117c6565b6109df565b3480156103af57600080fd5b5061022b6103be3660046118aa565b610b38565b3480156103cf57600080fd5b5061022b6103de3660046118d4565b610c87565b3480156103ef57600080fd5b506104196103fe366004611785565b6004602052600090815260409020546001600160a01b031681565b6040516001600160a01b039091168152602001610259565b34801561043d57600080fd5b5061024d61044c3660046117c6565b60036020526000908152604090205460ff1681565b34801561046d57600080fd5b506102b660075481565b34801561048357600080fd5b506000805260026020527fac33ff75c19e70fe83507db0d683fd3465c996598dc972688b7ace676c89077b546001600160a01b0316610419565b3480156104c957600080fd5b5061022b6104d8366004611968565b610f27565b3480156104e957600080fd5b5060015461024d9060ff1681565b34801561050357600080fd5b5061022b6105123660046117c6565b610f7f565b34801561052357600080fd5b5061022b6105323660046117c6565b610ff7565b34801561054357600080fd5b506102b67fdf8b4c520ffe197c5343c6f5aec59570151ef9a492f2c624fd45ddde6135ec4281565b34801561057757600080fd5b5061022b610586366004611992565b611147565b34801561059757600080fd5b5061022b6105a63660046119ad565b6111a8565b3480156105b757600080fd5b506104196105c63660046117e1565b611201565b3480156105d757600080fd5b506104196105e6366004611785565b61121e565b3480156105f757600080fd5b5061024d61060636600461187e565b6000918252602082815260408084206001600160a01b0393909316845291905290205460ff1690565b34801561063b57600080fd5b506102b6600081565b34801561065057600080fd5b5061041961065f3660046117e1565b6002602052600090815260409020546001600160a01b031681565b34801561068657600080fd5b50600554610419906001600160a01b031681565b3480156106a657600080fd5b5061022b6106b536600461187e565b61131a565b3480156106c657600080fd5b50600654610419906001600160a01b031681565b60006106f16000356001600160e01b03191661121e565b90506001600160a01b0381161580159061070e575060015460ff16155b61075a5760405162461bcd60e51b815260206004820152601d60248201527f50726f78793a20696d706c204f522070726f78792069732066616c7365000000604482015260640161021a565b3660008037600080366000845af43d6000803e808015610779573d6000f35b3d6000fd5b505050565b60006001600160e01b03198216637965db0b60e01b14806107b457506301ffc9a760e01b6001600160e01b03198316145b92915050565b6107c333610835565b6108085760405162461bcd60e51b81526020600482015260226024820152600080516020611b4b83398151915260448201526134b760f11b606482015260840161021a565b6108327fdf8b4c520ffe197c5343c6f5aec59570151ef9a492f2c624fd45ddde6135ec4282610953565b50565b6001600160a01b03811660009081527f5cbfc8ee58ca47855df7bcf648dd304ddb6b932f9b87878bdf6318d7ec7ee5b7602052604081205460ff166107b4565b6008602052600090815260409020805460018201805460ff8316936101009093046001600160a01b03169291906108ab906119e0565b80601f01602080910402602001604051908101604052809291908181526020018280546108d7906119e0565b80156109245780601f106108f957610100808354040283529160200191610924565b820191906000526020600020905b81548152906001019060200180831161090757829003601f168201915b5050505050905083565b6000828152602081905260409020600101546109498161133f565b61077e8383611349565b6001600160a01b03811633146109d15760405162461bcd60e51b815260206004820152602f60248201527f416363657373436f6e74726f6c3a2063616e206f6e6c792072656e6f756e636560448201527f20726f6c657320666f722073656c660000000000000000000000000000000000606482015260840161021a565b6109db82826113e7565b5050565b6109e833610835565b610a2d5760405162461bcd60e51b81526020600482015260226024820152600080516020611b4b83398151915260448201526134b760f11b606482015260840161021a565b6001600160a01b038116610a835760405162461bcd60e51b815260206004820152600d60248201527f696e707574206973207a65726f00000000000000000000000000000000000000604482015260640161021a565b6000805260026020527fac33ff75c19e70fe83507db0d683fd3465c996598dc972688b7ace676c89077b546001600160a01b03828116911603610af45760405162461bcd60e51b815260206004820152600960248201526839b0b6b29030b2323960b91b604482015260640161021a565b610b018160006001611466565b6040516001600160a01b038216907fbc7cd75a20ee27fd9adebab32041f755214dbc6bffa90cc0225b39da2e5c2d3b90600090a250565b610b4133610835565b610b865760405162461bcd60e51b81526020600482015260226024820152600080516020611b4b83398151915260448201526134b760f11b606482015260840161021a565b816001600160a01b038116610bc25760405162461bcd60e51b81526020600482015260026024820152612d1960f11b604482015260640161021a565b816001600160a01b038116610bfe5760405162461bcd60e51b81526020600482015260026024820152612d1960f11b604482015260640161021a565b6005546001600160a01b031615610c575760405162461bcd60e51b815260206004820152601260248201527f616c726561647920696e697469616c697a650000000000000000000000000000604482015260640161021a565b5050600580546001600160a01b039384166001600160a01b03199182161790915560068054929093169116179055565b610c9033610835565b610cd55760405162461bcd60e51b81526020600482015260226024820152600080516020611b4b83398151915260448201526134b760f11b606482015260840161021a565b81610d225760405162461bcd60e51b815260206004820181905260248201527f50726f78793a205f73656c6563746f727327732073697a65206973207a65726f604482015260640161021a565b6001600160a01b03811660009081526003602052604090205460ff16610d8a5760405162461bcd60e51b815260206004820152601860248201527f50726f78793a205f696d70206973206e6f7420616c6976650000000000000000604482015260640161021a565b60005b82811015610f2157816001600160a01b031660046000868685818110610db557610db5611a1a565b9050602002016020810190610dca9190611785565b6001600160e01b03191681526020810191909152604001600020546001600160a01b031603610e3b5760405162461bcd60e51b815260206004820152601d60248201527f4c69717569646974795661756c7450726f78793a2073616d6520696d70000000604482015260640161021a565b8160046000868685818110610e5257610e52611a1a565b9050602002016020810190610e679190611785565b6001600160e01b0319168152602081019190915260400160002080546001600160a01b0319166001600160a01b039283161790558216848483818110610eaf57610eaf611a1a565b9050602002016020810190610ec49190611785565b7bffffffffffffffffffffffffffffffffffffffffffffffffffffffff19167f14ebc1c32aa68f4d766e89f3e546cee249f7df25183fc10ab1568d91c2ce9b7b60405160405180910390a380610f1981611a46565b915050610d8d565b50505050565b610f3033610835565b610f755760405162461bcd60e51b81526020600482015260226024820152600080516020611b4b83398151915260448201526134b760f11b606482015260840161021a565b6109db82826114f1565b610f8833610835565b610fcd5760405162461bcd60e51b81526020600482015260226024820152600080516020611b4b83398151915260448201526134b760f11b606482015260840161021a565b6108327fdf8b4c520ffe197c5343c6f5aec59570151ef9a492f2c624fd45ddde6135ec428261092e565b61100033610835565b6110455760405162461bcd60e51b81526020600482015260226024820152600080516020611b4b83398151915260448201526134b760f11b606482015260840161021a565b6001600160a01b03811661109b5760405162461bcd60e51b815260206004820152601860248201527f41636365737369626c653a207a65726f20616464726573730000000000000000604482015260640161021a565b6001600160a01b03811633036110f35760405162461bcd60e51b815260206004820152601660248201527f41636365737369626c653a2073616d652061646d696e00000000000000000000604482015260640161021a565b61111d7fdf8b4c520ffe197c5343c6f5aec59570151ef9a492f2c624fd45ddde6135ec428261092e565b6108327fdf8b4c520ffe197c5343c6f5aec59570151ef9a492f2c624fd45ddde6135ec4233610953565b61115033610835565b6111955760405162461bcd60e51b81526020600482015260226024820152600080516020611b4b83398151915260448201526134b760f11b606482015260840161021a565b6001805460ff1916911515919091179055565b6111b133610835565b6111f65760405162461bcd60e51b81526020600482015260226024820152600080516020611b4b83398151915260448201526134b760f11b606482015260840161021a565b61077e838383611466565b6000818152600260205260408120546001600160a01b03166107b4565b6001600160e01b031981166000908152600460205260408120546001600160a01b031661127e5750506000805260026020527fac33ff75c19e70fe83507db0d683fd3465c996598dc972688b7ace676c89077b546001600160a01b031690565b6001600160e01b031982166000908152600460209081526040808320546001600160a01b03168352600390915290205460ff16156112dc57506001600160e01b0319166000908152600460205260409020546001600160a01b031690565b50506000805260026020527fac33ff75c19e70fe83507db0d683fd3465c996598dc972688b7ace676c89077b546001600160a01b031690565b919050565b6000828152602081905260409020600101546113358161133f565b61077e83836113e7565b6108328133611550565b6000828152602081815260408083206001600160a01b038516845290915290205460ff166109db576000828152602081815260408083206001600160a01b03851684529091529020805460ff191660011790556113a33390565b6001600160a01b0316816001600160a01b0316837f2f8788117e7eff1d82e926ec794901d17c78024a50270940304540a733656f0d60405160405180910390a45050565b6000828152602081815260408083206001600160a01b038516845290915290205460ff16156109db576000828152602081815260408083206001600160a01b0385168085529252808320805460ff1916905551339285917ff6391f5c32d9c69d2a47ea670b442974b53935d1edc7fd64eb21e047a839171b9190a45050565b6001600160a01b0383163b6114bd5760405162461bcd60e51b815260206004820152601b60248201527f50726f78793a206e6f7420636f6e747261637420616464726573730000000000604482015260640161021a565b80156114eb57600082815260026020526040902080546001600160a01b0319166001600160a01b0385161790555b61077e83825b6001600160a01b038216600081815260036020908152604091829020805460ff191685151590811790915591519182527f72558d9bfba4210f9ef095c782589484151f6d90f7a81bb3cb9b33efc695d324910160405180910390a25050565b6000828152602081815260408083206001600160a01b038516845290915290205460ff166109db57611581816115c3565b61158c8360206115d5565b60405160200161159d929190611a5f565b60408051601f198184030181529082905262461bcd60e51b825261021a91600401611ae0565b60606107b46001600160a01b03831660145b606060006115e4836002611af3565b6115ef906002611b0a565b67ffffffffffffffff81111561160757611607611b1d565b6040519080825280601f01601f191660200182016040528015611631576020820181803683370190505b509050600360fc1b8160008151811061164c5761164c611a1a565b60200101906001600160f81b031916908160001a905350600f60fb1b8160018151811061167b5761167b611a1a565b60200101906001600160f81b031916908160001a905350600061169f846002611af3565b6116aa906001611b0a565b90505b600181111561172f577f303132333435363738396162636465660000000000000000000000000000000085600f16601081106116eb576116eb611a1a565b1a60f81b82828151811061170157611701611a1a565b60200101906001600160f81b031916908160001a90535060049490941c9361172881611b33565b90506116ad565b50831561177e5760405162461bcd60e51b815260206004820181905260248201527f537472696e67733a20686578206c656e67746820696e73756666696369656e74604482015260640161021a565b9392505050565b60006020828403121561179757600080fd5b81356001600160e01b03198116811461177e57600080fd5b80356001600160a01b038116811461131557600080fd5b6000602082840312156117d857600080fd5b61177e826117af565b6000602082840312156117f357600080fd5b5035919050565b60005b838110156118155781810151838201526020016117fd565b50506000910152565b600081518084526118368160208601602086016117fa565b601f01601f19169290920160200192915050565b60ff841681526001600160a01b0383166020820152606060408201526000611875606083018461181e565b95945050505050565b6000806040838503121561189157600080fd5b823591506118a1602084016117af565b90509250929050565b600080604083850312156118bd57600080fd5b6118c6836117af565b91506118a1602084016117af565b6000806000604084860312156118e957600080fd5b833567ffffffffffffffff8082111561190157600080fd5b818601915086601f83011261191557600080fd5b81358181111561192457600080fd5b8760208260051b850101111561193957600080fd5b60209283019550935061194f91860190506117af565b90509250925092565b8035801515811461131557600080fd5b6000806040838503121561197b57600080fd5b611984836117af565b91506118a160208401611958565b6000602082840312156119a457600080fd5b61177e82611958565b6000806000606084860312156119c257600080fd5b6119cb846117af565b92506020840135915061194f60408501611958565b600181811c908216806119f457607f821691505b602082108103611a1457634e487b7160e01b600052602260045260246000fd5b50919050565b634e487b7160e01b600052603260045260246000fd5b634e487b7160e01b600052601160045260246000fd5b600060018201611a5857611a58611a30565b5060010190565b7f416363657373436f6e74726f6c3a206163636f756e7420000000000000000000815260008351611a978160178501602088016117fa565b7f206973206d697373696e6720726f6c65200000000000000000000000000000006017918401918201528351611ad48160288401602088016117fa565b01602801949350505050565b60208152600061177e602083018461181e565b80820281158282048414176107b4576107b4611a30565b808201808211156107b4576107b4611a30565b634e487b7160e01b600052604160045260246000fd5b600081611b4257611b42611a30565b50600019019056fe41636365737369626c653a2043616c6c6572206973206e6f7420616e2061646da164736f6c6343000812000adf8b4c520ffe197c5343c6f5aec59570151ef9a492f2c624fd45ddde6135ec42",
  "linkReferences": {},
  "deployedLinkReferences": {}
}