{
  "_format": "hh-sol-artifact-1",
  "contractName": "Staking",
  "sourceName": "contracts/Staking.sol",
  "abi": [
    {
      "inputs": [],
      "stateMutability": "nonpayable",
      "type": "constructor"
    },
    {
      "anonymous": false,
      "inputs": [
        {
          "indexed": false,
          "internalType": "uint32",
          "name": "_index",
          "type": "uint32"
        },
        {
          "indexed": false,
          "internalType": "address",
          "name": "sender",
          "type": "address"
        },
        {
          "indexed": false,
          "internalType": "uint256",
          "name": "amount",
          "type": "uint256"
        },
        {
          "indexed": false,
          "internalType": "uint256",
          "name": "lton",
          "type": "uint256"
        }
      ],
      "name": "Restaked",
      "type": "event"
    },
    {
      "anonymous": false,
      "inputs": [
        {
          "indexed": true,
          "internalType": "bytes32",
          "name": "role",
          "type": "bytes32"
        },
        {
          "indexed": true,
          "internalType": "bytes32",
          "name": "previousAdminRole",
          "type": "bytes32"
        },
        {
          "indexed": true,
          "internalType": "bytes32",
          "name": "newAdminRole",
          "type": "bytes32"
        }
      ],
      "name": "RoleAdminChanged",
      "type": "event"
    },
    {
      "anonymous": false,
      "inputs": [
        {
          "indexed": true,
          "internalType": "bytes32",
          "name": "role",
          "type": "bytes32"
        },
        {
          "indexed": true,
          "internalType": "address",
          "name": "account",
          "type": "address"
        },
        {
          "indexed": true,
          "internalType": "address",
          "name": "sender",
          "type": "address"
        }
      ],
      "name": "RoleGranted",
      "type": "event"
    },
    {
      "anonymous": false,
      "inputs": [
        {
          "indexed": true,
          "internalType": "bytes32",
          "name": "role",
          "type": "bytes32"
        },
        {
          "indexed": true,
          "internalType": "address",
          "name": "account",
          "type": "address"
        },
        {
          "indexed": true,
          "internalType": "address",
          "name": "sender",
          "type": "address"
        }
      ],
      "name": "RoleRevoked",
      "type": "event"
    },
    {
      "anonymous": false,
      "inputs": [
        {
          "indexed": false,
          "internalType": "uint32",
          "name": "_index",
          "type": "uint32"
        },
        {
          "indexed": false,
          "internalType": "address",
          "name": "sender",
          "type": "address"
        },
        {
          "indexed": false,
          "internalType": "uint256",
          "name": "amount",
          "type": "uint256"
        },
        {
          "indexed": false,
          "internalType": "uint256",
          "name": "lton",
          "type": "uint256"
        }
      ],
      "name": "Staked",
      "type": "event"
    },
    {
      "anonymous": false,
      "inputs": [
        {
          "indexed": false,
          "internalType": "uint32",
          "name": "_index",
          "type": "uint32"
        },
        {
          "indexed": false,
          "internalType": "address",
          "name": "sender",
          "type": "address"
        },
        {
          "indexed": false,
          "internalType": "uint256",
          "name": "amount",
          "type": "uint256"
        },
        {
          "indexed": false,
          "internalType": "uint256",
          "name": "lton",
          "type": "uint256"
        }
      ],
      "name": "Unstaked",
      "type": "event"
    },
    {
      "anonymous": false,
      "inputs": [
        {
          "indexed": false,
          "internalType": "uint32",
          "name": "_index",
          "type": "uint32"
        },
        {
          "indexed": false,
          "internalType": "address",
          "name": "sender",
          "type": "address"
        },
        {
          "indexed": false,
          "internalType": "uint256",
          "name": "amount",
          "type": "uint256"
        }
      ],
      "name": "Withdrawal",
      "type": "event"
    },
    {
      "inputs": [],
      "name": "ADMIN_ROLE",
      "outputs": [
        {
          "internalType": "bytes32",
          "name": "",
          "type": "bytes32"
        }
      ],
      "stateMutability": "view",
      "type": "function"
    },
    {
      "inputs": [],
      "name": "DEFAULT_ADMIN_ROLE",
      "outputs": [
        {
          "internalType": "bytes32",
          "name": "",
          "type": "bytes32"
        }
      ],
      "stateMutability": "view",
      "type": "function"
    },
    {
      "inputs": [],
      "name": "POLICY_ROLE",
      "outputs": [
        {
          "internalType": "bytes32",
          "name": "",
          "type": "bytes32"
        }
      ],
      "stateMutability": "view",
      "type": "function"
    },
    {
      "inputs": [
        {
          "internalType": "address",
          "name": "account",
          "type": "address"
        }
      ],
      "name": "addAdmin",
      "outputs": [],
      "stateMutability": "nonpayable",
      "type": "function"
    },
    {
      "inputs": [
        {
          "internalType": "address",
          "name": "",
          "type": "address"
        }
      ],
      "name": "aliveImplementation",
      "outputs": [
        {
          "internalType": "bool",
          "name": "",
          "type": "bool"
        }
      ],
      "stateMutability": "view",
      "type": "function"
    },
    {
      "inputs": [
        {
          "internalType": "uint32",
          "name": "layerIndex",
          "type": "uint32"
        },
        {
          "internalType": "address",
          "name": "account",
          "type": "address"
        }
      ],
      "name": "amountOfPendings",
      "outputs": [
        {
          "internalType": "uint256",
          "name": "amount",
          "type": "uint256"
        },
        {
          "internalType": "uint32",
          "name": "startIndex",
          "type": "uint32"
        },
        {
          "internalType": "uint32",
          "name": "len",
          "type": "uint32"
        },
        {
          "internalType": "uint32",
          "name": "nextWithdrawableBlockNumber",
          "type": "uint32"
        }
      ],
      "stateMutability": "view",
      "type": "function"
    },
    {
      "inputs": [
        {
          "internalType": "uint32",
          "name": "_index",
          "type": "uint32"
        },
        {
          "internalType": "address",
          "name": "account",
          "type": "address"
        }
      ],
      "name": "availableWithdraw",
      "outputs": [
        {
          "internalType": "uint256",
          "name": "amount",
          "type": "uint256"
        },
        {
          "internalType": "uint32",
          "name": "startIndex",
          "type": "uint32"
        },
        {
          "internalType": "uint32",
          "name": "len",
          "type": "uint32"
        }
      ],
      "stateMutability": "view",
      "type": "function"
    },
    {
      "inputs": [
        {
          "internalType": "uint32",
          "name": "_index",
          "type": "uint32"
        },
        {
          "internalType": "address",
          "name": "account",
          "type": "address"
        }
      ],
      "name": "balanceOf",
      "outputs": [
        {
          "internalType": "uint256",
          "name": "amount",
          "type": "uint256"
        }
      ],
      "stateMutability": "view",
      "type": "function"
    },
    {
      "inputs": [
        {
          "internalType": "uint32",
          "name": "_index",
          "type": "uint32"
        },
        {
          "internalType": "address",
          "name": "account",
          "type": "address"
        }
      ],
      "name": "balanceOfLton",
      "outputs": [
        {
          "internalType": "uint256",
          "name": "amount",
          "type": "uint256"
        }
      ],
      "stateMutability": "view",
      "type": "function"
    },
    {
      "inputs": [
        {
          "internalType": "uint32",
          "name": "_index",
          "type": "uint32"
        }
      ],
      "name": "balanceOfLton",
      "outputs": [
        {
          "internalType": "uint256",
          "name": "amount",
          "type": "uint256"
        }
      ],
      "stateMutability": "view",
      "type": "function"
    },
    {
      "inputs": [
        {
          "internalType": "uint32",
          "name": "_index",
          "type": "uint32"
        },
        {
          "internalType": "address",
          "name": "account",
          "type": "address"
        }
      ],
      "name": "getLayerStakes",
      "outputs": [
        {
          "components": [
            {
              "internalType": "uint256",
              "name": "stakePrincipal",
              "type": "uint256"
            },
            {
              "internalType": "uint256",
              "name": "bondPrincipal",
              "type": "uint256"
            },
            {
              "internalType": "uint256",
              "name": "stakelton",
              "type": "uint256"
            },
            {
              "internalType": "uint256",
              "name": "bondlton",
              "type": "uint256"
            },
            {
              "internalType": "bool",
              "name": "stake",
              "type": "bool"
            },
            {
              "internalType": "uint16",
              "name": "fwFee",
              "type": "uint16"
            }
          ],
          "internalType": "struct LibStake.StakeInfo",
          "name": "info",
          "type": "tuple"
        }
      ],
      "stateMutability": "view",
      "type": "function"
    },
    {
      "inputs": [
        {
          "internalType": "uint32",
          "name": "_index",
          "type": "uint32"
        },
        {
          "internalType": "address",
          "name": "account",
          "type": "address"
        }
      ],
      "name": "getPendingUnstakedAmount",
      "outputs": [
        {
          "internalType": "uint256",
          "name": "",
          "type": "uint256"
        }
      ],
      "stateMutability": "view",
      "type": "function"
    },
    {
      "inputs": [
        {
          "internalType": "bytes32",
          "name": "role",
          "type": "bytes32"
        }
      ],
      "name": "getRoleAdmin",
      "outputs": [
        {
          "internalType": "bytes32",
          "name": "",
          "type": "bytes32"
        }
      ],
      "stateMutability": "view",
      "type": "function"
    },
    {
      "inputs": [],
      "name": "getStakeAccountList",
      "outputs": [
        {
          "internalType": "address[]",
          "name": "",
          "type": "address[]"
        }
      ],
      "stateMutability": "view",
      "type": "function"
    },
    {
      "inputs": [],
      "name": "getTotalLton",
      "outputs": [
        {
          "internalType": "uint256",
          "name": "",
          "type": "uint256"
        }
      ],
      "stateMutability": "view",
      "type": "function"
    },
    {
      "inputs": [
        {
          "internalType": "bytes32",
          "name": "role",
          "type": "bytes32"
        },
        {
          "internalType": "address",
          "name": "account",
          "type": "address"
        }
      ],
      "name": "grantRole",
      "outputs": [],
      "stateMutability": "nonpayable",
      "type": "function"
    },
    {
      "inputs": [
        {
          "internalType": "bytes32",
          "name": "role",
          "type": "bytes32"
        },
        {
          "internalType": "address",
          "name": "account",
          "type": "address"
        }
      ],
      "name": "hasRole",
      "outputs": [
        {
          "internalType": "bool",
          "name": "",
          "type": "bool"
        }
      ],
      "stateMutability": "view",
      "type": "function"
    },
    {
      "inputs": [
        {
          "internalType": "address",
          "name": "account",
          "type": "address"
        }
      ],
      "name": "isAdmin",
      "outputs": [
        {
          "internalType": "bool",
          "name": "",
          "type": "bool"
        }
      ],
      "stateMutability": "view",
      "type": "function"
    },
    {
      "inputs": [
        {
          "internalType": "uint32",
          "name": "_index",
          "type": "uint32"
        }
      ],
      "name": "layer2Deposits",
      "outputs": [
        {
          "internalType": "uint256",
          "name": "amount",
          "type": "uint256"
        }
      ],
      "stateMutability": "view",
      "type": "function"
    },
    {
      "inputs": [],
      "name": "layer2Manager",
      "outputs": [
        {
          "internalType": "address",
          "name": "",
          "type": "address"
        }
      ],
      "stateMutability": "view",
      "type": "function"
    },
    {
      "inputs": [
        {
          "internalType": "uint32",
          "name": "",
          "type": "uint32"
        }
      ],
      "name": "layerInfo",
      "outputs": [
        {
          "internalType": "bytes",
          "name": "",
          "type": "bytes"
        }
      ],
      "stateMutability": "view",
      "type": "function"
    },
    {
      "inputs": [
        {
          "internalType": "uint32",
          "name": "",
          "type": "uint32"
        }
      ],
      "name": "layerStakedLton",
      "outputs": [
        {
          "internalType": "uint256",
          "name": "",
          "type": "uint256"
        }
      ],
      "stateMutability": "view",
      "type": "function"
    },
    {
      "inputs": [
        {
          "internalType": "uint32",
          "name": "",
          "type": "uint32"
        },
        {
          "internalType": "address",
          "name": "",
          "type": "address"
        }
      ],
      "name": "layerStakes",
      "outputs": [
        {
          "internalType": "uint256",
          "name": "stakePrincipal",
          "type": "uint256"
        },
        {
          "internalType": "uint256",
          "name": "bondPrincipal",
          "type": "uint256"
        },
        {
          "internalType": "uint256",
          "name": "stakelton",
          "type": "uint256"
        },
        {
          "internalType": "uint256",
          "name": "bondlton",
          "type": "uint256"
        },
        {
          "internalType": "bool",
          "name": "stake",
          "type": "bool"
        },
        {
          "internalType": "uint16",
          "name": "fwFee",
          "type": "uint16"
        }
      ],
      "stateMutability": "view",
      "type": "function"
    },
    {
      "inputs": [
        {
          "internalType": "uint32",
          "name": "layerIndex",
          "type": "uint32"
        },
        {
          "internalType": "address",
          "name": "account",
          "type": "address"
        }
      ],
      "name": "numberOfPendings",
      "outputs": [
        {
          "internalType": "uint256",
          "name": "totalRequests",
          "type": "uint256"
        },
        {
          "internalType": "uint256",
          "name": "withdrawIndex",
          "type": "uint256"
        },
        {
          "internalType": "uint256",
          "name": "pendingLength",
          "type": "uint256"
        }
      ],
      "stateMutability": "view",
      "type": "function"
    },
    {
      "inputs": [],
      "name": "pauseProxy",
      "outputs": [
        {
          "internalType": "bool",
          "name": "",
          "type": "bool"
        }
      ],
      "stateMutability": "view",
      "type": "function"
    },
    {
      "inputs": [
        {
          "internalType": "uint32",
          "name": "",
          "type": "uint32"
        },
        {
          "internalType": "address",
          "name": "",
          "type": "address"
        }
      ],
      "name": "pendingUnstaked",
      "outputs": [
        {
          "internalType": "uint256",
          "name": "",
          "type": "uint256"
        }
      ],
      "stateMutability": "view",
      "type": "function"
    },
    {
      "inputs": [
        {
          "internalType": "address",
          "name": "",
          "type": "address"
        }
      ],
      "name": "pendingUnstakedAccount",
      "outputs": [
        {
          "internalType": "uint256",
          "name": "",
          "type": "uint256"
        }
      ],
      "stateMutability": "view",
      "type": "function"
    },
    {
      "inputs": [
        {
          "internalType": "uint32",
          "name": "",
          "type": "uint32"
        }
      ],
      "name": "pendingUnstakedLayer2",
      "outputs": [
        {
          "internalType": "uint256",
          "name": "",
          "type": "uint256"
        }
      ],
      "stateMutability": "view",
      "type": "function"
    },
    {
      "inputs": [
        {
          "internalType": "uint256",
          "name": "",
          "type": "uint256"
        }
      ],
      "name": "proxyImplementation",
      "outputs": [
        {
          "internalType": "address",
          "name": "",
          "type": "address"
        }
      ],
      "stateMutability": "view",
      "type": "function"
    },
    {
      "inputs": [
        {
          "internalType": "address",
          "name": "account",
          "type": "address"
        }
      ],
      "name": "removeAdmin",
      "outputs": [],
      "stateMutability": "nonpayable",
      "type": "function"
    },
    {
      "inputs": [
        {
          "internalType": "bytes32",
          "name": "role",
          "type": "bytes32"
        },
        {
          "internalType": "address",
          "name": "account",
          "type": "address"
        }
      ],
      "name": "renounceRole",
      "outputs": [],
      "stateMutability": "nonpayable",
      "type": "function"
    },
    {
      "inputs": [
        {
          "internalType": "uint32",
          "name": "_index",
          "type": "uint32"
        }
      ],
      "name": "restake",
      "outputs": [],
      "stateMutability": "nonpayable",
      "type": "function"
    },
    {
      "inputs": [
        {
          "internalType": "uint32",
          "name": "_index",
          "type": "uint32"
        },
        {
          "internalType": "uint256",
          "name": "n",
          "type": "uint256"
        }
      ],
      "name": "restakeMulti",
      "outputs": [],
      "stateMutability": "nonpayable",
      "type": "function"
    },
    {
      "inputs": [
        {
          "internalType": "bytes32",
          "name": "role",
          "type": "bytes32"
        },
        {
          "internalType": "address",
          "name": "account",
          "type": "address"
        }
      ],
      "name": "revokeRole",
      "outputs": [],
      "stateMutability": "nonpayable",
      "type": "function"
    },
    {
      "inputs": [],
      "name": "seigManagerV2",
      "outputs": [
        {
          "internalType": "address",
          "name": "",
          "type": "address"
        }
      ],
      "stateMutability": "view",
      "type": "function"
    },
    {
      "inputs": [
        {
          "internalType": "bytes4",
          "name": "",
          "type": "bytes4"
        }
      ],
      "name": "selectorImplementation",
      "outputs": [
        {
          "internalType": "address",
          "name": "",
          "type": "address"
        }
      ],
      "stateMutability": "view",
      "type": "function"
    },
    {
      "inputs": [
        {
          "internalType": "uint256",
          "name": "",
          "type": "uint256"
        }
      ],
      "name": "stakeAccountList",
      "outputs": [
        {
          "internalType": "address",
          "name": "",
          "type": "address"
        }
      ],
      "stateMutability": "view",
      "type": "function"
    },
    {
      "inputs": [
        {
          "internalType": "bytes4",
          "name": "interfaceId",
          "type": "bytes4"
        }
      ],
      "name": "supportsInterface",
      "outputs": [
        {
          "internalType": "bool",
          "name": "",
          "type": "bool"
        }
      ],
      "stateMutability": "view",
      "type": "function"
    },
    {
      "inputs": [],
      "name": "ton",
      "outputs": [
        {
          "internalType": "address",
          "name": "",
          "type": "address"
        }
      ],
      "stateMutability": "view",
      "type": "function"
    },
    {
      "inputs": [],
      "name": "totalLayer2Deposits",
      "outputs": [
        {
          "internalType": "uint256",
          "name": "amount",
          "type": "uint256"
        }
      ],
      "stateMutability": "view",
      "type": "function"
    },
    {
      "inputs": [],
      "name": "totalStakeAccountList",
      "outputs": [
        {
          "internalType": "uint256",
          "name": "",
          "type": "uint256"
        }
      ],
      "stateMutability": "view",
      "type": "function"
    },
    {
      "inputs": [],
      "name": "totalStakedLton",
      "outputs": [
        {
          "internalType": "uint256",
          "name": "",
          "type": "uint256"
        }
      ],
      "stateMutability": "view",
      "type": "function"
    },
    {
      "inputs": [
        {
          "internalType": "address",
          "name": "newAdmin",
          "type": "address"
        }
      ],
      "name": "transferAdmin",
      "outputs": [],
      "stateMutability": "nonpayable",
      "type": "function"
    },
    {
      "inputs": [
        {
          "internalType": "uint32",
          "name": "_index",
          "type": "uint32"
        }
      ],
      "name": "withdraw",
      "outputs": [],
      "stateMutability": "nonpayable",
      "type": "function"
    },
    {
      "inputs": [
        {
          "internalType": "uint32",
          "name": "",
          "type": "uint32"
        },
        {
          "internalType": "address",
          "name": "",
          "type": "address"
        }
      ],
      "name": "withdrawalRequestIndex",
      "outputs": [
        {
          "internalType": "uint256",
          "name": "",
          "type": "uint256"
        }
      ],
      "stateMutability": "view",
      "type": "function"
    },
    {
      "inputs": [
        {
          "internalType": "uint32",
          "name": "",
          "type": "uint32"
        },
        {
          "internalType": "address",
          "name": "",
          "type": "address"
        },
        {
          "internalType": "uint256",
          "name": "",
          "type": "uint256"
        }
      ],
      "name": "withdrawalRequests",
      "outputs": [
        {
          "internalType": "uint32",
          "name": "withdrawableBlockNumber",
          "type": "uint32"
        },
        {
          "internalType": "uint128",
          "name": "amount",
          "type": "uint128"
        },
        {
          "internalType": "bool",
          "name": "processed",
          "type": "bool"
        }
      ],
      "stateMutability": "view",
      "type": "function"
    }
  ],
  "bytecode": "0x60806040526006805460ff1916600117905534801561001d57600080fd5b5061266f8061002d6000396000f3fe608060405234801561001057600080fd5b506004361061030a5760003560e01c806373469a7a1161019c5780639c656e26116100ee578063b911135f11610097578063cc48b94711610071578063cc48b94714610951578063d547741f14610969578063ec110d451461097c57600080fd5b8063b911135f14610900578063b969fbef14610929578063b9cab9711461093157600080fd5b8063aa9224cd116100c8578063aa9224cd146108b7578063b413b37a146108ca578063b6a2f99d146108d257600080fd5b80639c656e2614610806578063a0b2a9131461088f578063a217fddf146108af57600080fd5b80638afec9fc116101505780638ddd87fe1161012a5780638ddd87fe1461077e57806391d14854146107bc57806394c89b2c146107f357600080fd5b80638afec9fc146107105780638c71762d146107365780638d99e1ca1461076b57600080fd5b806375829def1161018157806375829def146106ab57806375b238fc146106be5780637cf1587c146106e557600080fd5b806373469a7a14610685578063744a35611461069857600080fd5b806346bcdb49116102605780635f1b989e116102095780636d1ef103116101e35780636d1ef10314610613578063704802751461065257806370619cf91461066557600080fd5b80635f1b989e1461055c57806363a8fd89146105e6578063659ab820146105f357600080fd5b806350d2a2761161023a57806350d2a276146104e5578063550d01a31461050e5780635e2cfe451461053157600080fd5b806346bcdb49146104bf5780634de131ca146104c75780634e1a264d146104dc57600080fd5b80631f760d01116102c257806324d7806c1161029c57806324d7806c146104865780632f2ff15d1461049957806336568abe146104ac57600080fd5b80631f760d01146103ef578063229852461461042e578063248a9ca31461046357600080fd5b806316b5d5bd116102f357806316b5d5bd1461034c5780631785f53c146103775780631ed944951461038a57600080fd5b806301ffc9a71461030f578063118e29d114610337575b600080fd5b61032261031d366004612268565b61098f565b60405190151581526020015b60405180910390f35b61034a6103453660046122ab565b6109c6565b005b60085461035f906001600160a01b031681565b6040516001600160a01b03909116815260200161032e565b61034a6103853660046122dd565b610a3b565b61039d6103983660046122f8565b610ac8565b60405161032e9190600060c0820190508251825260208301516020830152604083015160408301526060830151606083015260808301511515608083015261ffff60a08401511660a083015292915050565b6104026103fd3660046122f8565b610b86565b6040805194855263ffffffff93841660208601529183169184019190915216606082015260800161032e565b6104557ffb5864e8ff833c3cb2d2d08505e82ff02a43554c74a35d4f5a64e8526127831181565b60405190815260200161032e565b61045561047136600461232b565b60009081526020819052604090206001015490565b6103226104943660046122dd565b610cc4565b61034a6104a7366004612344565b610d04565b61034a6104ba366004612344565b610d2e565b601254610455565b6104cf610db6565b60405161032e9190612367565b61045560095481565b61035f6104f3366004612268565b6004602052600090815260409020546001600160a01b031681565b61032261051c3660046122dd565b60036020526000908152604090205460ff1681565b61045561053f3660046122f8565b600e60209081526000928352604080842090915290825290205481565b61045561056a3660046122f8565b63ffffffff9091166000908152600b602090815260408083206001600160a01b03909416835292815290829020825160c081018452815481526001820154928101929092526002810154928201839052600381015460608301526004015460ff81161515608083015261ffff6101009091041660a09091015290565b6001546103229060ff1681565b6106066106013660046122ab565b610e18565b60405161032e9190612404565b610626610621366004612417565b610eb2565b6040805163ffffffff90941684526001600160801b03909216602084015215159082015260600161032e565b61034a6106603660046122dd565b610f11565b6104556106733660046122ab565b600a6020526000908152604090205481565b60075461035f906001600160a01b031681565b61034a6106a6366004612453565b610f9b565b61034a6106b93660046122dd565b611006565b6104557fdf8b4c520ffe197c5343c6f5aec59570151ef9a492f2c624fd45ddde6135ec4281565b6104556106f33660046122f8565b600d60209081526000928352604080842090915290825290205481565b61045561071e3660046122ab565b63ffffffff166000908152600a602052604090205490565b6107496107443660046122f8565b611168565b6040805193845263ffffffff928316602085015291169082015260600161032e565b6104556107793660046122ab565b6112a5565b61045561078c3660046122f8565b63ffffffff82166000908152600e602090815260408083206001600160a01b038516845290915290205492915050565b6103226107ca366004612344565b6000918252602082815260408084206001600160a01b0393909316845291905290205460ff1690565b6104556108013660046122f8565b611318565b61085c6108143660046122f8565b600b602090815260009283526040808420909152908252902080546001820154600283015460038401546004909401549293919290919060ff811690610100900461ffff1686565b6040805196875260208701959095529385019290925260608401521515608083015261ffff1660a082015260c00161032e565b61045561089d3660046122dd565b60106020526000908152604090205481565b610455600081565b61034a6108c53660046122ab565b611404565b600954610455565b6108e56108e03660046122f8565b611819565b6040805193845260208401929092529082015260600161032e565b61035f61090e36600461232b565b6002602052600090815260409020546001600160a01b031681565b610455611874565b61045561093f3660046122ab565b600f6020526000908152604090205481565b60065461035f9061010090046001600160a01b031681565b61034a610977366004612344565b6118e7565b61035f61098a36600461232b565b61190c565b60006001600160e01b03198216637965db0b60e01b14806109c057506301ffc9a760e01b6001600160e01b03198316145b92915050565b63ffffffff81166000908152600d6020908152604080832033808552925290912054906109f7908390836001611936565b610a375760405162461bcd60e51b815260206004820152600c60248201526b534c5f455f52455354414b4560a01b60448201526064015b60405180910390fd5b5050565b610a4433610cc4565b610a9b5760405162461bcd60e51b815260206004820152602260248201527f41636365737369626c653a2043616c6c6572206973206e6f7420616e2061646d60448201526134b760f11b6064820152608401610a2e565b610ac57fdf8b4c520ffe197c5343c6f5aec59570151ef9a492f2c624fd45ddde6135ec4282610d2e565b50565b610b076040518060c0016040528060008152602001600081526020016000815260200160008152602001600015158152602001600061ffff1681525090565b5063ffffffff9091166000908152600b602090815260408083206001600160a01b03909416835292815290829020825160c081018452815481526001820154928101929092526002810154928201929092526003820154606082015260049091015460ff81161515608083015261ffff6101009091041660a082015290565b63ffffffff8083166000818152600c602090815260408083206001600160a01b03871680855290835281842054948452600d835281842090845290915281205490929091839182919084165b81811015610cb95763ffffffff88166000908152600c602090815260408083206001600160a01b038b1684529091528120805483908110610c1557610c1561247d565b6000918252602080832060408051606081018252939091015463ffffffff8116845264010000000081046001600160801b031692840192909252600160a01b90910460ff1615159082018190529092509003610ca6578363ffffffff16600003610c7e57805193505b6020810151610c96906001600160801b0316886124a9565b9650610ca36001866124bc565b94505b5080610cb1816124e0565b915050610bd2565b505092959194509250565b6001600160a01b03811660009081527f5cbfc8ee58ca47855df7bcf648dd304ddb6b932f9b87878bdf6318d7ec7ee5b7602052604081205460ff166109c0565b600082815260208190526040902060010154610d1f81611de3565b610d298383611ded565b505050565b6001600160a01b0381163314610dac5760405162461bcd60e51b815260206004820152602f60248201527f416363657373436f6e74726f6c3a2063616e206f6e6c792072656e6f756e636560448201527f20726f6c657320666f722073656c6600000000000000000000000000000000006064820152608401610a2e565b610a378282611e8b565b60606012805480602002602001604051908101604052809291908181526020018280548015610e0e57602002820191906000526020600020905b81546001600160a01b03168152600190910190602001808311610df0575b5050505050905090565b60116020526000908152604090208054610e31906124f9565b80601f0160208091040260200160405190810160405280929190818152602001828054610e5d906124f9565b8015610eaa5780601f10610e7f57610100808354040283529160200191610eaa565b820191906000526020600020905b815481529060010190602001808311610e8d57829003601f168201915b505050505081565b600c6020528260005260406000206020528160005260406000208181548110610eda57600080fd5b60009182526020909120015463ffffffff8116935064010000000081046001600160801b03169250600160a01b900460ff16905083565b610f1a33610cc4565b610f715760405162461bcd60e51b815260206004820152602260248201527f41636365737369626c653a2043616c6c6572206973206e6f7420616e2061646d60448201526134b760f11b6064820152608401610a2e565b610ac57fdf8b4c520ffe197c5343c6f5aec59570151ef9a492f2c624fd45ddde6135ec4282610d04565b63ffffffff82166000908152600d602090815260408083203380855292529091205490610fcb9084908385611936565b610d295760405162461bcd60e51b815260206004820152600c60248201526b534c5f455f52455354414b4560a01b6044820152606401610a2e565b61100f33610cc4565b6110665760405162461bcd60e51b815260206004820152602260248201527f41636365737369626c653a2043616c6c6572206973206e6f7420616e2061646d60448201526134b760f11b6064820152608401610a2e565b6001600160a01b0381166110bc5760405162461bcd60e51b815260206004820152601860248201527f41636365737369626c653a207a65726f206164647265737300000000000000006044820152606401610a2e565b6001600160a01b03811633036111145760405162461bcd60e51b815260206004820152601660248201527f41636365737369626c653a2073616d652061646d696e000000000000000000006044820152606401610a2e565b61113e7fdf8b4c520ffe197c5343c6f5aec59570151ef9a492f2c624fd45ddde6135ec4282610d04565b610ac57fdf8b4c520ffe197c5343c6f5aec59570151ef9a492f2c624fd45ddde6135ec4233610d2e565b63ffffffff8083166000818152600c602090815260408083206001600160a01b03871680855290835281842054948452600d835281842090845290915281205490929091839183165b8181101561129c5763ffffffff87166000908152600c602090815260408083206001600160a01b038a16845290915281208054839081106111f4576111f461247d565b600091825260209182902060408051606081018252929091015463ffffffff811680845264010000000082046001600160801b031694840194909452600160a01b900460ff1615159082015291504311801561125257506040810151155b1561128357602081015161126f906001600160801b0316876124a9565b955061127c6001856124bc565b9350611289565b5061129c565b5080611294816124e0565b9150506111b1565b50509250925092565b6008546040516346ccf0e560e11b815263ffffffff831660048201526000916001600160a01b031690638d99e1ca90602401602060405180830381865afa1580156112f4573d6000803e3d6000fd5b505050506040513d601f19601f820116820180604052508101906109c09190612533565b60075463ffffffff83166000908152600b602090815260408083206001600160a01b038681168552908352818420825160c081018452815481526001820154948101949094526002810154928401839052600381015460608501526004015460ff811615156080850152610100900461ffff1660a0909301929092529192169063cdf68009906040518263ffffffff1660e01b81526004016113bc91815260200190565b602060405180830381865afa1580156113d9573d6000803e3d6000fd5b505050506040513d601f19601f820116820180604052508101906113fd9190612533565b9392505050565b60065460ff1661143f5760405162461bcd60e51b8152600401610a2e906020808252600490820152636c6f636b60e01b604082015260600190565b6006805460ff1916905563ffffffff81166000818152600c602090815260408083203380855290835281842054948452600d83528184208185529092528220549092919081905b838110156115585763ffffffff86166000908152600c602090815260408083206001600160a01b038916845290915281208054839081106114c9576114c961247d565b600091825260209091200180549091504363ffffffff9091161080156114f857508054600160a01b900460ff16155b1561153f57805460ff60a01b1916600160a01b1780825561152b906001600160801b0364010000000090910416846124a9565b925083611537816124e0565b945050611545565b50611558565b5080611550816124e0565b915050611486565b50600081116115a95760405162461bcd60e51b815260206004820181905260248201527f7a65726f20617661696c61626c65207769746864726177616c20616d6f756e746044820152606401610a2e565b63ffffffff85166000908152600d602090815260408083206001600160a01b0388168452909152812080548492906115e29084906124a9565b909155505063ffffffff85166000908152600e602090815260408083206001600160a01b03881684529091528120805483929061162090849061254c565b909155505063ffffffff85166000908152600f60205260408120805483929061164a90849061254c565b90915550506001600160a01b0384166000908152601060205260408120805483929061167790849061254c565b90915550506006546040516370a0823160e01b815230600482015260009161010090046001600160a01b0316906370a0823190602401602060405180830381865afa1580156116ca573d6000803e3d6000fd5b505050506040513d601f19601f820116820180604052508101906116ee9190612533565b90508181101561179957801561171a5760065461171a9061010090046001600160a01b03168683611f0a565b6007546001600160a01b031663aad3ec9686611736848661254c565b6040516001600160e01b031960e085901b1681526001600160a01b0390921660048301526024820152604401600060405180830381600087803b15801561177c57600080fd5b505af1158015611790573d6000803e3d6000fd5b505050506117b5565b6006546117b59061010090046001600160a01b03168684611f0a565b6040805163ffffffff881681526001600160a01b03871660208201529081018390527f2d6eb139d2002caa088da5527d9d62f2f23bdf4504f5559a112535c436c6ee599060600160405180910390a150506006805460ff1916600117905550505050565b63ffffffff82166000818152600c602090815260408083206001600160a01b03861680855290835281842054948452600d83528184209084529091528120549081831061186d5761186a828461254c565b90505b9250925092565b6008546040805163b969fbef60e01b815290516000926001600160a01b03169163b969fbef9160048083019260209291908290030181865afa1580156118be573d6000803e3d6000fd5b505050506040513d601f19601f820116820180604052508101906118e29190612533565b905090565b60008281526020819052604090206001015461190281611de3565b610d298383611e8b565b6012818154811061191c57600080fd5b6000918252602090912001546001600160a01b0316905081565b60065460009060ff166119745760405162461bcd60e51b8152600401610a2e906020808252600490820152636c6f636b60e01b604082015260600190565b6006805460ff1916905563ffffffff85166000908152600c602090815260408083206001600160a01b0388168452909152812054806119e25760405162461bcd60e51b815260206004820152600a6024820152696e6f20756e7374616b6560b01b6044820152606401610a2e565b836119ed868361254c565b1015611a3b5760405162461bcd60e51b815260206004820152601860248201527f6e2065786365656473206e756d206f662070656e64696e6700000000000000006044820152606401610a2e565b6000611a4785876124a9565b90505b80861015611b3d5763ffffffff88166000908152600c602090815260408083206001600160a01b038b1684529091528120805488908110611a8d57611a8d61247d565b6000918252602090912001805490915064010000000081046001600160801b031690600160a01b900460ff1615611b065760405162461bcd60e51b815260206004820152601260248201527f616c7265616479207769746864726177616c00000000000000000000000000006044820152606401610a2e565b8015611b1957611b1681866124a9565b94505b50805460ff60a01b1916600160a01b17905585611b35816124e0565b965050611a4a565b60008311611b8d5760405162461bcd60e51b815260206004820152601760248201527f6e6f2076616c69642072657374616b6520616d6f756e740000000000000000006044820152606401610a2e565b600754604051636a2fb1f560e01b8152600481018590526000916001600160a01b031690636a2fb1f590602401602060405180830381865afa158015611bd7573d6000803e3d6000fd5b505050506040513d601f19601f82011682018060405250810190611bfb9190612533565b63ffffffff8a166000908152600b602090815260408083206001600160a01b038d168452909152812080549293509186918391611c399084906124a9565b9250508190555081816002016000828254611c5491906124a9565b909155505063ffffffff8a166000908152600a602052604081208054849290611c7e9084906124a9565b925050819055508160096000828254611c9791906124a9565b909155505063ffffffff8a166000908152600e602090815260408083206001600160a01b038d16845290915281208054879290611cd590849061254c565b909155505063ffffffff8a166000908152600f602052604081208054879290611cff90849061254c565b90915550506001600160a01b03891660009081526010602052604081208054879290611d2c90849061254c565b909155505063ffffffff8a166000908152600d602090815260408083206001600160a01b038d16845290915281208054899290611d6a9084906124a9565b90915550506040805163ffffffff8c1681526001600160a01b038b166020820152908101869052606081018390527f34981dc0486069d2abbaddbc42e10b97cb24e4bce60ee4457e1d5062dfc0b4299060800160405180910390a16001955050505050506006805460ff19166001179055949350505050565b610ac5813361203a565b6000828152602081815260408083206001600160a01b038516845290915290205460ff16610a37576000828152602081815260408083206001600160a01b03851684529091529020805460ff19166001179055611e473390565b6001600160a01b0316816001600160a01b0316837f2f8788117e7eff1d82e926ec794901d17c78024a50270940304540a733656f0d60405160405180910390a45050565b6000828152602081815260408083206001600160a01b038516845290915290205460ff1615610a37576000828152602081815260408083206001600160a01b0385168085529252808320805460ff1916905551339285917ff6391f5c32d9c69d2a47ea670b442974b53935d1edc7fd64eb21e047a839171b9190a45050565b604080516001600160a01b038481166024830152604480830185905283518084039091018152606490920183526020820180517bffffffffffffffffffffffffffffffffffffffffffffffffffffffff1663a9059cbb60e01b1790529151600092839290871691611f7b919061255f565b6000604051808303816000865af19150503d8060008114611fb8576040519150601f19603f3d011682016040523d82523d6000602084013e611fbd565b606091505b5091509150818015611fe7575080511580611fe7575080806020019051810190611fe7919061257b565b6120335760405162461bcd60e51b815260206004820152600f60248201527f5452414e534645525f4641494c454400000000000000000000000000000000006044820152606401610a2e565b5050505050565b6000828152602081815260408083206001600160a01b038516845290915290205460ff16610a375761206b816120ad565b6120768360206120bf565b60405160200161208792919061259d565b60408051601f198184030181529082905262461bcd60e51b8252610a2e91600401612404565b60606109c06001600160a01b03831660145b606060006120ce83600261261e565b6120d99060026124a9565b67ffffffffffffffff8111156120f1576120f1612635565b6040519080825280601f01601f19166020018201604052801561211b576020820181803683370190505b509050600360fc1b816000815181106121365761213661247d565b60200101906001600160f81b031916908160001a905350600f60fb1b816001815181106121655761216561247d565b60200101906001600160f81b031916908160001a905350600061218984600261261e565b6121949060016124a9565b90505b6001811115612219577f303132333435363738396162636465660000000000000000000000000000000085600f16601081106121d5576121d561247d565b1a60f81b8282815181106121eb576121eb61247d565b60200101906001600160f81b031916908160001a90535060049490941c936122128161264b565b9050612197565b5083156113fd5760405162461bcd60e51b815260206004820181905260248201527f537472696e67733a20686578206c656e67746820696e73756666696369656e746044820152606401610a2e565b60006020828403121561227a57600080fd5b81356001600160e01b0319811681146113fd57600080fd5b803563ffffffff811681146122a657600080fd5b919050565b6000602082840312156122bd57600080fd5b6113fd82612292565b80356001600160a01b03811681146122a657600080fd5b6000602082840312156122ef57600080fd5b6113fd826122c6565b6000806040838503121561230b57600080fd5b61231483612292565b9150612322602084016122c6565b90509250929050565b60006020828403121561233d57600080fd5b5035919050565b6000806040838503121561235757600080fd5b82359150612322602084016122c6565b6020808252825182820181905260009190848201906040850190845b818110156123a85783516001600160a01b031683529284019291840191600101612383565b50909695505050505050565b60005b838110156123cf5781810151838201526020016123b7565b50506000910152565b600081518084526123f08160208601602086016123b4565b601f01601f19169290920160200192915050565b6020815260006113fd60208301846123d8565b60008060006060848603121561242c57600080fd5b61243584612292565b9250612443602085016122c6565b9150604084013590509250925092565b6000806040838503121561246657600080fd5b61246f83612292565b946020939093013593505050565b634e487b7160e01b600052603260045260246000fd5b634e487b7160e01b600052601160045260246000fd5b808201808211156109c0576109c0612493565b63ffffffff8181168382160190808211156124d9576124d9612493565b5092915050565b6000600182016124f2576124f2612493565b5060010190565b600181811c9082168061250d57607f821691505b60208210810361252d57634e487b7160e01b600052602260045260246000fd5b50919050565b60006020828403121561254557600080fd5b5051919050565b818103818111156109c0576109c0612493565b600082516125718184602087016123b4565b9190910192915050565b60006020828403121561258d57600080fd5b815180151581146113fd57600080fd5b7f416363657373436f6e74726f6c3a206163636f756e74200000000000000000008152600083516125d58160178501602088016123b4565b7f206973206d697373696e6720726f6c652000000000000000000000000000000060179184019182015283516126128160288401602088016123b4565b01602801949350505050565b80820281158282048414176109c0576109c0612493565b634e487b7160e01b600052604160045260246000fd5b60008161265a5761265a612493565b50600019019056fea164736f6c6343000812000a",
  "linkReferences": {},
  "deployedLinkReferences": {}
}