{
  "_format": "hh-sol-artifact-1",
  "contractName": "Staking",
  "sourceName": "contracts/Staking.sol",
  "abi": [
    {
      "inputs": [],
      "stateMutability": "nonpayable",
      "type": "constructor"
    },
    {
      "anonymous": false,
      "inputs": [
        {
          "indexed": false,
          "internalType": "uint32",
          "name": "_index",
          "type": "uint32"
        },
        {
          "indexed": false,
          "internalType": "address",
          "name": "sender",
          "type": "address"
        },
        {
          "indexed": false,
          "internalType": "uint256",
          "name": "amount",
          "type": "uint256"
        },
        {
          "indexed": false,
          "internalType": "uint256",
          "name": "lton",
          "type": "uint256"
        }
      ],
      "name": "Restaked",
      "type": "event"
    },
    {
      "anonymous": false,
      "inputs": [
        {
          "indexed": true,
          "internalType": "bytes32",
          "name": "role",
          "type": "bytes32"
        },
        {
          "indexed": true,
          "internalType": "bytes32",
          "name": "previousAdminRole",
          "type": "bytes32"
        },
        {
          "indexed": true,
          "internalType": "bytes32",
          "name": "newAdminRole",
          "type": "bytes32"
        }
      ],
      "name": "RoleAdminChanged",
      "type": "event"
    },
    {
      "anonymous": false,
      "inputs": [
        {
          "indexed": true,
          "internalType": "bytes32",
          "name": "role",
          "type": "bytes32"
        },
        {
          "indexed": true,
          "internalType": "address",
          "name": "account",
          "type": "address"
        },
        {
          "indexed": true,
          "internalType": "address",
          "name": "sender",
          "type": "address"
        }
      ],
      "name": "RoleGranted",
      "type": "event"
    },
    {
      "anonymous": false,
      "inputs": [
        {
          "indexed": true,
          "internalType": "bytes32",
          "name": "role",
          "type": "bytes32"
        },
        {
          "indexed": true,
          "internalType": "address",
          "name": "account",
          "type": "address"
        },
        {
          "indexed": true,
          "internalType": "address",
          "name": "sender",
          "type": "address"
        }
      ],
      "name": "RoleRevoked",
      "type": "event"
    },
    {
      "anonymous": false,
      "inputs": [
        {
          "indexed": false,
          "internalType": "uint32",
          "name": "_index",
          "type": "uint32"
        },
        {
          "indexed": false,
          "internalType": "address",
          "name": "sender",
          "type": "address"
        },
        {
          "indexed": false,
          "internalType": "uint256",
          "name": "amount",
          "type": "uint256"
        },
        {
          "indexed": false,
          "internalType": "uint256",
          "name": "lton",
          "type": "uint256"
        },
        {
          "indexed": false,
          "internalType": "address",
          "name": "commissionTo",
          "type": "address"
        },
        {
          "indexed": false,
          "internalType": "uint16",
          "name": "commission",
          "type": "uint16"
        }
      ],
      "name": "Staked",
      "type": "event"
    },
    {
      "anonymous": false,
      "inputs": [
        {
          "indexed": false,
          "internalType": "uint32",
          "name": "_index",
          "type": "uint32"
        },
        {
          "indexed": false,
          "internalType": "address",
          "name": "sender",
          "type": "address"
        },
        {
          "indexed": false,
          "internalType": "uint256",
          "name": "amount",
          "type": "uint256"
        },
        {
          "indexed": false,
          "internalType": "uint256",
          "name": "lton",
          "type": "uint256"
        }
      ],
      "name": "Unstaked",
      "type": "event"
    },
    {
      "anonymous": false,
      "inputs": [
        {
          "indexed": false,
          "internalType": "uint32",
          "name": "_index",
          "type": "uint32"
        },
        {
          "indexed": false,
          "internalType": "address",
          "name": "sender",
          "type": "address"
        },
        {
          "indexed": false,
          "internalType": "uint256",
          "name": "amount",
          "type": "uint256"
        }
      ],
      "name": "Withdrawal",
      "type": "event"
    },
    {
      "inputs": [],
      "name": "ADMIN_ROLE",
      "outputs": [
        {
          "internalType": "bytes32",
          "name": "",
          "type": "bytes32"
        }
      ],
      "stateMutability": "view",
      "type": "function"
    },
    {
      "inputs": [],
      "name": "DEFAULT_ADMIN_ROLE",
      "outputs": [
        {
          "internalType": "bytes32",
          "name": "",
          "type": "bytes32"
        }
      ],
      "stateMutability": "view",
      "type": "function"
    },
    {
      "inputs": [],
      "name": "POLICY_ROLE",
      "outputs": [
        {
          "internalType": "bytes32",
          "name": "",
          "type": "bytes32"
        }
      ],
      "stateMutability": "view",
      "type": "function"
    },
    {
      "inputs": [
        {
          "internalType": "address",
          "name": "account",
          "type": "address"
        }
      ],
      "name": "addAdmin",
      "outputs": [],
      "stateMutability": "nonpayable",
      "type": "function"
    },
    {
      "inputs": [
        {
          "internalType": "address",
          "name": "",
          "type": "address"
        }
      ],
      "name": "aliveImplementation",
      "outputs": [
        {
          "internalType": "bool",
          "name": "",
          "type": "bool"
        }
      ],
      "stateMutability": "view",
      "type": "function"
    },
    {
      "inputs": [
        {
          "internalType": "uint32",
          "name": "layerIndex",
          "type": "uint32"
        },
        {
          "internalType": "address",
          "name": "account",
          "type": "address"
        }
      ],
      "name": "amountOfPendings",
      "outputs": [
        {
          "internalType": "uint256",
          "name": "amount",
          "type": "uint256"
        },
        {
          "internalType": "uint32",
          "name": "startIndex",
          "type": "uint32"
        },
        {
          "internalType": "uint32",
          "name": "len",
          "type": "uint32"
        },
        {
          "internalType": "uint32",
          "name": "nextWithdrawableBlockNumber",
          "type": "uint32"
        }
      ],
      "stateMutability": "view",
      "type": "function"
    },
    {
      "inputs": [
        {
          "internalType": "uint32",
          "name": "_index",
          "type": "uint32"
        },
        {
          "internalType": "address",
          "name": "account",
          "type": "address"
        }
      ],
      "name": "availableWithdraw",
      "outputs": [
        {
          "internalType": "uint256",
          "name": "amount",
          "type": "uint256"
        },
        {
          "internalType": "uint32",
          "name": "startIndex",
          "type": "uint32"
        },
        {
          "internalType": "uint32",
          "name": "len",
          "type": "uint32"
        }
      ],
      "stateMutability": "view",
      "type": "function"
    },
    {
      "inputs": [
        {
          "internalType": "uint32",
          "name": "_index",
          "type": "uint32"
        },
        {
          "internalType": "address",
          "name": "account",
          "type": "address"
        }
      ],
      "name": "balanceOf",
      "outputs": [
        {
          "internalType": "uint256",
          "name": "amount",
          "type": "uint256"
        }
      ],
      "stateMutability": "view",
      "type": "function"
    },
    {
      "inputs": [
        {
          "internalType": "uint32",
          "name": "_index",
          "type": "uint32"
        },
        {
          "internalType": "address",
          "name": "account",
          "type": "address"
        }
      ],
      "name": "balanceOfLton",
      "outputs": [
        {
          "internalType": "uint256",
          "name": "amount",
          "type": "uint256"
        }
      ],
      "stateMutability": "view",
      "type": "function"
    },
    {
      "inputs": [
        {
          "internalType": "uint32",
          "name": "_index",
          "type": "uint32"
        }
      ],
      "name": "balanceOfLton",
      "outputs": [
        {
          "internalType": "uint256",
          "name": "amount",
          "type": "uint256"
        }
      ],
      "stateMutability": "view",
      "type": "function"
    },
    {
      "inputs": [],
      "name": "fwReceipt",
      "outputs": [
        {
          "internalType": "address",
          "name": "",
          "type": "address"
        }
      ],
      "stateMutability": "view",
      "type": "function"
    },
    {
      "inputs": [
        {
          "internalType": "uint32",
          "name": "_index",
          "type": "uint32"
        },
        {
          "internalType": "address",
          "name": "account",
          "type": "address"
        }
      ],
      "name": "getLayerStakes",
      "outputs": [
        {
          "components": [
            {
              "internalType": "uint256",
              "name": "stakePrincipal",
              "type": "uint256"
            },
            {
              "internalType": "uint256",
              "name": "bondPrincipal",
              "type": "uint256"
            },
            {
              "internalType": "uint256",
              "name": "stakelton",
              "type": "uint256"
            },
            {
              "internalType": "uint256",
              "name": "bondlton",
              "type": "uint256"
            },
            {
              "internalType": "bool",
              "name": "stake",
              "type": "bool"
            },
            {
              "internalType": "uint16",
              "name": "fwFee",
              "type": "uint16"
            }
          ],
          "internalType": "struct LibStake.StakeInfo",
          "name": "info",
          "type": "tuple"
        }
      ],
      "stateMutability": "view",
      "type": "function"
    },
    {
      "inputs": [
        {
          "internalType": "uint32",
          "name": "_index",
          "type": "uint32"
        },
        {
          "internalType": "address",
          "name": "account",
          "type": "address"
        }
      ],
      "name": "getPendingUnstakedAmount",
      "outputs": [
        {
          "internalType": "uint256",
          "name": "",
          "type": "uint256"
        }
      ],
      "stateMutability": "view",
      "type": "function"
    },
    {
      "inputs": [
        {
          "internalType": "bytes32",
          "name": "role",
          "type": "bytes32"
        }
      ],
      "name": "getRoleAdmin",
      "outputs": [
        {
          "internalType": "bytes32",
          "name": "",
          "type": "bytes32"
        }
      ],
      "stateMutability": "view",
      "type": "function"
    },
    {
      "inputs": [],
      "name": "getStakeAccountList",
      "outputs": [
        {
          "internalType": "address[]",
          "name": "",
          "type": "address[]"
        }
      ],
      "stateMutability": "view",
      "type": "function"
    },
    {
      "inputs": [],
      "name": "getTotalLton",
      "outputs": [
        {
          "internalType": "uint256",
          "name": "",
          "type": "uint256"
        }
      ],
      "stateMutability": "view",
      "type": "function"
    },
    {
      "inputs": [
        {
          "internalType": "bytes32",
          "name": "role",
          "type": "bytes32"
        },
        {
          "internalType": "address",
          "name": "account",
          "type": "address"
        }
      ],
      "name": "grantRole",
      "outputs": [],
      "stateMutability": "nonpayable",
      "type": "function"
    },
    {
      "inputs": [
        {
          "internalType": "bytes32",
          "name": "role",
          "type": "bytes32"
        },
        {
          "internalType": "address",
          "name": "account",
          "type": "address"
        }
      ],
      "name": "hasRole",
      "outputs": [
        {
          "internalType": "bool",
          "name": "",
          "type": "bool"
        }
      ],
      "stateMutability": "view",
      "type": "function"
    },
    {
      "inputs": [
        {
          "internalType": "address",
          "name": "account",
          "type": "address"
        }
      ],
      "name": "isAdmin",
      "outputs": [
        {
          "internalType": "bool",
          "name": "",
          "type": "bool"
        }
      ],
      "stateMutability": "view",
      "type": "function"
    },
    {
      "inputs": [
        {
          "internalType": "uint32",
          "name": "_index",
          "type": "uint32"
        }
      ],
      "name": "layer2Deposits",
      "outputs": [
        {
          "internalType": "uint256",
          "name": "amount",
          "type": "uint256"
        }
      ],
      "stateMutability": "view",
      "type": "function"
    },
    {
      "inputs": [],
      "name": "layer2Manager",
      "outputs": [
        {
          "internalType": "address",
          "name": "",
          "type": "address"
        }
      ],
      "stateMutability": "view",
      "type": "function"
    },
    {
      "inputs": [
        {
          "internalType": "uint32",
          "name": "",
          "type": "uint32"
        }
      ],
      "name": "layerInfo",
      "outputs": [
        {
          "internalType": "bytes",
          "name": "",
          "type": "bytes"
        }
      ],
      "stateMutability": "view",
      "type": "function"
    },
    {
      "inputs": [
        {
          "internalType": "uint32",
          "name": "",
          "type": "uint32"
        }
      ],
      "name": "layerStakedLton",
      "outputs": [
        {
          "internalType": "uint256",
          "name": "",
          "type": "uint256"
        }
      ],
      "stateMutability": "view",
      "type": "function"
    },
    {
      "inputs": [
        {
          "internalType": "uint32",
          "name": "",
          "type": "uint32"
        },
        {
          "internalType": "address",
          "name": "",
          "type": "address"
        }
      ],
      "name": "layerStakes",
      "outputs": [
        {
          "internalType": "uint256",
          "name": "stakePrincipal",
          "type": "uint256"
        },
        {
          "internalType": "uint256",
          "name": "bondPrincipal",
          "type": "uint256"
        },
        {
          "internalType": "uint256",
          "name": "stakelton",
          "type": "uint256"
        },
        {
          "internalType": "uint256",
          "name": "bondlton",
          "type": "uint256"
        },
        {
          "internalType": "bool",
          "name": "stake",
          "type": "bool"
        },
        {
          "internalType": "uint16",
          "name": "fwFee",
          "type": "uint16"
        }
      ],
      "stateMutability": "view",
      "type": "function"
    },
    {
      "inputs": [
        {
          "internalType": "uint32",
          "name": "layerIndex",
          "type": "uint32"
        },
        {
          "internalType": "address",
          "name": "account",
          "type": "address"
        }
      ],
      "name": "numberOfPendings",
      "outputs": [
        {
          "internalType": "uint256",
          "name": "totalRequests",
          "type": "uint256"
        },
        {
          "internalType": "uint256",
          "name": "withdrawIndex",
          "type": "uint256"
        },
        {
          "internalType": "uint256",
          "name": "pendingLength",
          "type": "uint256"
        }
      ],
      "stateMutability": "view",
      "type": "function"
    },
    {
      "inputs": [],
      "name": "pauseProxy",
      "outputs": [
        {
          "internalType": "bool",
          "name": "",
          "type": "bool"
        }
      ],
      "stateMutability": "view",
      "type": "function"
    },
    {
      "inputs": [
        {
          "internalType": "uint32",
          "name": "",
          "type": "uint32"
        },
        {
          "internalType": "address",
          "name": "",
          "type": "address"
        }
      ],
      "name": "pendingUnstaked",
      "outputs": [
        {
          "internalType": "uint256",
          "name": "",
          "type": "uint256"
        }
      ],
      "stateMutability": "view",
      "type": "function"
    },
    {
      "inputs": [
        {
          "internalType": "address",
          "name": "",
          "type": "address"
        }
      ],
      "name": "pendingUnstakedAccount",
      "outputs": [
        {
          "internalType": "uint256",
          "name": "",
          "type": "uint256"
        }
      ],
      "stateMutability": "view",
      "type": "function"
    },
    {
      "inputs": [
        {
          "internalType": "uint32",
          "name": "",
          "type": "uint32"
        }
      ],
      "name": "pendingUnstakedLayer2",
      "outputs": [
        {
          "internalType": "uint256",
          "name": "",
          "type": "uint256"
        }
      ],
      "stateMutability": "view",
      "type": "function"
    },
    {
      "inputs": [
        {
          "internalType": "uint256",
          "name": "",
          "type": "uint256"
        }
      ],
      "name": "proxyImplementation",
      "outputs": [
        {
          "internalType": "address",
          "name": "",
          "type": "address"
        }
      ],
      "stateMutability": "view",
      "type": "function"
    },
    {
      "inputs": [
        {
          "internalType": "address",
          "name": "account",
          "type": "address"
        }
      ],
      "name": "removeAdmin",
      "outputs": [],
      "stateMutability": "nonpayable",
      "type": "function"
    },
    {
      "inputs": [
        {
          "internalType": "bytes32",
          "name": "role",
          "type": "bytes32"
        },
        {
          "internalType": "address",
          "name": "account",
          "type": "address"
        }
      ],
      "name": "renounceRole",
      "outputs": [],
      "stateMutability": "nonpayable",
      "type": "function"
    },
    {
      "inputs": [
        {
          "internalType": "uint32",
          "name": "_index",
          "type": "uint32"
        }
      ],
      "name": "restake",
      "outputs": [],
      "stateMutability": "nonpayable",
      "type": "function"
    },
    {
      "inputs": [
        {
          "internalType": "uint32",
          "name": "_index",
          "type": "uint32"
        },
        {
          "internalType": "uint256",
          "name": "n",
          "type": "uint256"
        }
      ],
      "name": "restakeMulti",
      "outputs": [],
      "stateMutability": "nonpayable",
      "type": "function"
    },
    {
      "inputs": [
        {
          "internalType": "bytes32",
          "name": "role",
          "type": "bytes32"
        },
        {
          "internalType": "address",
          "name": "account",
          "type": "address"
        }
      ],
      "name": "revokeRole",
      "outputs": [],
      "stateMutability": "nonpayable",
      "type": "function"
    },
    {
      "inputs": [],
      "name": "seigManagerV2",
      "outputs": [
        {
          "internalType": "address",
          "name": "",
          "type": "address"
        }
      ],
      "stateMutability": "view",
      "type": "function"
    },
    {
      "inputs": [
        {
          "internalType": "bytes4",
          "name": "",
          "type": "bytes4"
        }
      ],
      "name": "selectorImplementation",
      "outputs": [
        {
          "internalType": "address",
          "name": "",
          "type": "address"
        }
      ],
      "stateMutability": "view",
      "type": "function"
    },
    {
      "inputs": [
        {
          "internalType": "uint256",
          "name": "",
          "type": "uint256"
        }
      ],
      "name": "stakeAccountList",
      "outputs": [
        {
          "internalType": "address",
          "name": "",
          "type": "address"
        }
      ],
      "stateMutability": "view",
      "type": "function"
    },
    {
      "inputs": [
        {
          "internalType": "bytes4",
          "name": "interfaceId",
          "type": "bytes4"
        }
      ],
      "name": "supportsInterface",
      "outputs": [
        {
          "internalType": "bool",
          "name": "",
          "type": "bool"
        }
      ],
      "stateMutability": "view",
      "type": "function"
    },
    {
      "inputs": [],
      "name": "ton",
      "outputs": [
        {
          "internalType": "address",
          "name": "",
          "type": "address"
        }
      ],
      "stateMutability": "view",
      "type": "function"
    },
    {
      "inputs": [],
      "name": "totalLayer2Deposits",
      "outputs": [
        {
          "internalType": "uint256",
          "name": "amount",
          "type": "uint256"
        }
      ],
      "stateMutability": "view",
      "type": "function"
    },
    {
      "inputs": [],
      "name": "totalStakeAccountList",
      "outputs": [
        {
          "internalType": "uint256",
          "name": "",
          "type": "uint256"
        }
      ],
      "stateMutability": "view",
      "type": "function"
    },
    {
      "inputs": [],
      "name": "totalStakedLton",
      "outputs": [
        {
          "internalType": "uint256",
          "name": "",
          "type": "uint256"
        }
      ],
      "stateMutability": "view",
      "type": "function"
    },
    {
      "inputs": [
        {
          "internalType": "address",
          "name": "newAdmin",
          "type": "address"
        }
      ],
      "name": "transferAdmin",
      "outputs": [],
      "stateMutability": "nonpayable",
      "type": "function"
    },
    {
      "inputs": [
        {
          "internalType": "uint32",
          "name": "_index",
          "type": "uint32"
        }
      ],
      "name": "withdraw",
      "outputs": [],
      "stateMutability": "nonpayable",
      "type": "function"
    },
    {
      "inputs": [
        {
          "internalType": "uint32",
          "name": "",
          "type": "uint32"
        },
        {
          "internalType": "address",
          "name": "",
          "type": "address"
        }
      ],
      "name": "withdrawalRequestIndex",
      "outputs": [
        {
          "internalType": "uint256",
          "name": "",
          "type": "uint256"
        }
      ],
      "stateMutability": "view",
      "type": "function"
    },
    {
      "inputs": [
        {
          "internalType": "uint32",
          "name": "",
          "type": "uint32"
        },
        {
          "internalType": "address",
          "name": "",
          "type": "address"
        },
        {
          "internalType": "uint256",
          "name": "",
          "type": "uint256"
        }
      ],
      "name": "withdrawalRequests",
      "outputs": [
        {
          "internalType": "uint32",
          "name": "withdrawableBlockNumber",
          "type": "uint32"
        },
        {
          "internalType": "uint128",
          "name": "amount",
          "type": "uint128"
        },
        {
          "internalType": "bool",
          "name": "processed",
          "type": "bool"
        }
      ],
      "stateMutability": "view",
      "type": "function"
    }
  ],
  "bytecode": "0x60806040526006805460ff1916600117905534801561001d57600080fd5b5061268d8061002d6000396000f3fe608060405234801561001057600080fd5b50600436106103155760003560e01c806373469a7a116101a7578063a0b2a913116100ee578063b969fbef11610097578063d07918f111610071578063d07918f114610974578063d547741f14610987578063ec110d451461099a57600080fd5b8063b969fbef14610934578063b9cab9711461093c578063cc48b9471461095c57600080fd5b8063b413b37a116100c8578063b413b37a146108d5578063b6a2f99d146108dd578063b911135f1461090b57600080fd5b8063a0b2a9131461089a578063a217fddf146108ba578063aa9224cd146108c257600080fd5b80638c71762d1161015057806391d148541161012a57806391d14854146107c757806394c89b2c146107fe5780639c656e261461081157600080fd5b80638c71762d146107415780638d99e1ca146107765780638ddd87fe1461078957600080fd5b806375b238fc1161018157806375b238fc146106c95780637cf1587c146106f05780638afec9fc1461071b57600080fd5b806373469a7a14610690578063744a3561146106a357806375829def146106b657600080fd5b806346bcdb491161026b5780635f1b989e116102145780636d1ef103116101ee5780636d1ef1031461061e578063704802751461065d57806370619cf91461067057600080fd5b80635f1b989e1461056757806363a8fd89146105f1578063659ab820146105fe57600080fd5b806350d2a2761161024557806350d2a276146104f0578063550d01a3146105195780635e2cfe451461053c57600080fd5b806346bcdb49146104ca5780634de131ca146104d25780634e1a264d146104e757600080fd5b80631f760d01116102cd57806324d7806c116102a757806324d7806c146104915780632f2ff15d146104a457806336568abe146104b757600080fd5b80631f760d01146103fa5780632298524614610439578063248a9ca31461046e57600080fd5b806316b5d5bd116102fe57806316b5d5bd146103575780631785f53c146103825780631ed944951461039557600080fd5b806301ffc9a71461031a578063118e29d114610342575b600080fd5b61032d610328366004612286565b6109ad565b60405190151581526020015b60405180910390f35b6103556103503660046122c9565b6109e4565b005b60085461036a906001600160a01b031681565b6040516001600160a01b039091168152602001610339565b6103556103903660046122fb565b610a59565b6103a86103a3366004612316565b610ae6565b6040516103399190600060c0820190508251825260208301516020830152604083015160408301526060830151606083015260808301511515608083015261ffff60a08401511660a083015292915050565b61040d610408366004612316565b610ba4565b6040805194855263ffffffff938416602086015291831691840191909152166060820152608001610339565b6104607ffb5864e8ff833c3cb2d2d08505e82ff02a43554c74a35d4f5a64e8526127831181565b604051908152602001610339565b61046061047c366004612349565b60009081526020819052604090206001015490565b61032d61049f3660046122fb565b610ce2565b6103556104b2366004612362565b610d22565b6103556104c5366004612362565b610d4c565b601254610460565b6104da610dd4565b6040516103399190612385565b61046060095481565b61036a6104fe366004612286565b6004602052600090815260409020546001600160a01b031681565b61032d6105273660046122fb565b60036020526000908152604090205460ff1681565b61046061054a366004612316565b600e60209081526000928352604080842090915290825290205481565b610460610575366004612316565b63ffffffff9091166000908152600b602090815260408083206001600160a01b03909416835292815290829020825160c081018452815481526001820154928101929092526002810154928201839052600381015460608301526004015460ff81161515608083015261ffff6101009091041660a09091015290565b60015461032d9060ff1681565b61061161060c3660046122c9565b610e36565b6040516103399190612422565b61063161062c366004612435565b610ed0565b6040805163ffffffff90941684526001600160801b039092166020840152151590820152606001610339565b61035561066b3660046122fb565b610f2f565b61046061067e3660046122c9565b600a6020526000908152604090205481565b60075461036a906001600160a01b031681565b6103556106b1366004612471565b610fb9565b6103556106c43660046122fb565b611024565b6104607fdf8b4c520ffe197c5343c6f5aec59570151ef9a492f2c624fd45ddde6135ec4281565b6104606106fe366004612316565b600d60209081526000928352604080842090915290825290205481565b6104606107293660046122c9565b63ffffffff166000908152600a602052604090205490565b61075461074f366004612316565b611186565b6040805193845263ffffffff9283166020850152911690820152606001610339565b6104606107843660046122c9565b6112c3565b610460610797366004612316565b63ffffffff82166000908152600e602090815260408083206001600160a01b038516845290915290205492915050565b61032d6107d5366004612362565b6000918252602082815260408084206001600160a01b0393909316845291905290205460ff1690565b61046061080c366004612316565b611336565b61086761081f366004612316565b600b602090815260009283526040808420909152908252902080546001820154600283015460038401546004909401549293919290919060ff811690610100900461ffff1686565b6040805196875260208701959095529385019290925260608401521515608083015261ffff1660a082015260c001610339565b6104606108a83660046122fb565b60106020526000908152604090205481565b610460600081565b6103556108d03660046122c9565b611422565b600954610460565b6108f06108eb366004612316565b611837565b60408051938452602084019290925290820152606001610339565b61036a610919366004612349565b6002602052600090815260409020546001600160a01b031681565b610460611892565b61046061094a3660046122c9565b600f6020526000908152604090205481565b60065461036a9061010090046001600160a01b031681565b60135461036a906001600160a01b031681565b610355610995366004612362565b611905565b61036a6109a8366004612349565b61192a565b60006001600160e01b03198216637965db0b60e01b14806109de57506301ffc9a760e01b6001600160e01b03198316145b92915050565b63ffffffff81166000908152600d602090815260408083203380855292529091205490610a15908390836001611954565b610a555760405162461bcd60e51b815260206004820152600c60248201526b534c5f455f52455354414b4560a01b60448201526064015b60405180910390fd5b5050565b610a6233610ce2565b610ab95760405162461bcd60e51b815260206004820152602260248201527f41636365737369626c653a2043616c6c6572206973206e6f7420616e2061646d60448201526134b760f11b6064820152608401610a4c565b610ae37fdf8b4c520ffe197c5343c6f5aec59570151ef9a492f2c624fd45ddde6135ec4282610d4c565b50565b610b256040518060c0016040528060008152602001600081526020016000815260200160008152602001600015158152602001600061ffff1681525090565b5063ffffffff9091166000908152600b602090815260408083206001600160a01b03909416835292815290829020825160c081018452815481526001820154928101929092526002810154928201929092526003820154606082015260049091015460ff81161515608083015261ffff6101009091041660a082015290565b63ffffffff8083166000818152600c602090815260408083206001600160a01b03871680855290835281842054948452600d835281842090845290915281205490929091839182919084165b81811015610cd75763ffffffff88166000908152600c602090815260408083206001600160a01b038b1684529091528120805483908110610c3357610c3361249b565b6000918252602080832060408051606081018252939091015463ffffffff8116845264010000000081046001600160801b031692840192909252600160a01b90910460ff1615159082018190529092509003610cc4578363ffffffff16600003610c9c57805193505b6020810151610cb4906001600160801b0316886124c7565b9650610cc16001866124da565b94505b5080610ccf816124fe565b915050610bf0565b505092959194509250565b6001600160a01b03811660009081527f5cbfc8ee58ca47855df7bcf648dd304ddb6b932f9b87878bdf6318d7ec7ee5b7602052604081205460ff166109de565b600082815260208190526040902060010154610d3d81611e01565b610d478383611e0b565b505050565b6001600160a01b0381163314610dca5760405162461bcd60e51b815260206004820152602f60248201527f416363657373436f6e74726f6c3a2063616e206f6e6c792072656e6f756e636560448201527f20726f6c657320666f722073656c6600000000000000000000000000000000006064820152608401610a4c565b610a558282611ea9565b60606012805480602002602001604051908101604052809291908181526020018280548015610e2c57602002820191906000526020600020905b81546001600160a01b03168152600190910190602001808311610e0e575b5050505050905090565b60116020526000908152604090208054610e4f90612517565b80601f0160208091040260200160405190810160405280929190818152602001828054610e7b90612517565b8015610ec85780601f10610e9d57610100808354040283529160200191610ec8565b820191906000526020600020905b815481529060010190602001808311610eab57829003601f168201915b505050505081565b600c6020528260005260406000206020528160005260406000208181548110610ef857600080fd5b60009182526020909120015463ffffffff8116935064010000000081046001600160801b03169250600160a01b900460ff16905083565b610f3833610ce2565b610f8f5760405162461bcd60e51b815260206004820152602260248201527f41636365737369626c653a2043616c6c6572206973206e6f7420616e2061646d60448201526134b760f11b6064820152608401610a4c565b610ae37fdf8b4c520ffe197c5343c6f5aec59570151ef9a492f2c624fd45ddde6135ec4282610d22565b63ffffffff82166000908152600d602090815260408083203380855292529091205490610fe99084908385611954565b610d475760405162461bcd60e51b815260206004820152600c60248201526b534c5f455f52455354414b4560a01b6044820152606401610a4c565b61102d33610ce2565b6110845760405162461bcd60e51b815260206004820152602260248201527f41636365737369626c653a2043616c6c6572206973206e6f7420616e2061646d60448201526134b760f11b6064820152608401610a4c565b6001600160a01b0381166110da5760405162461bcd60e51b815260206004820152601860248201527f41636365737369626c653a207a65726f206164647265737300000000000000006044820152606401610a4c565b6001600160a01b03811633036111325760405162461bcd60e51b815260206004820152601660248201527f41636365737369626c653a2073616d652061646d696e000000000000000000006044820152606401610a4c565b61115c7fdf8b4c520ffe197c5343c6f5aec59570151ef9a492f2c624fd45ddde6135ec4282610d22565b610ae37fdf8b4c520ffe197c5343c6f5aec59570151ef9a492f2c624fd45ddde6135ec4233610d4c565b63ffffffff8083166000818152600c602090815260408083206001600160a01b03871680855290835281842054948452600d835281842090845290915281205490929091839183165b818110156112ba5763ffffffff87166000908152600c602090815260408083206001600160a01b038a16845290915281208054839081106112125761121261249b565b600091825260209182902060408051606081018252929091015463ffffffff811680845264010000000082046001600160801b031694840194909452600160a01b900460ff1615159082015291504311801561127057506040810151155b156112a157602081015161128d906001600160801b0316876124c7565b955061129a6001856124da565b93506112a7565b506112ba565b50806112b2816124fe565b9150506111cf565b50509250925092565b6008546040516346ccf0e560e11b815263ffffffff831660048201526000916001600160a01b031690638d99e1ca90602401602060405180830381865afa158015611312573d6000803e3d6000fd5b505050506040513d601f19601f820116820180604052508101906109de9190612551565b60075463ffffffff83166000908152600b602090815260408083206001600160a01b038681168552908352818420825160c081018452815481526001820154948101949094526002810154928401839052600381015460608501526004015460ff811615156080850152610100900461ffff1660a0909301929092529192169063cdf68009906040518263ffffffff1660e01b81526004016113da91815260200190565b602060405180830381865afa1580156113f7573d6000803e3d6000fd5b505050506040513d601f19601f8201168201806040525081019061141b9190612551565b9392505050565b60065460ff1661145d5760405162461bcd60e51b8152600401610a4c906020808252600490820152636c6f636b60e01b604082015260600190565b6006805460ff1916905563ffffffff81166000818152600c602090815260408083203380855290835281842054948452600d83528184208185529092528220549092919081905b838110156115765763ffffffff86166000908152600c602090815260408083206001600160a01b038916845290915281208054839081106114e7576114e761249b565b600091825260209091200180549091504363ffffffff90911610801561151657508054600160a01b900460ff16155b1561155d57805460ff60a01b1916600160a01b17808255611549906001600160801b0364010000000090910416846124c7565b925083611555816124fe565b945050611563565b50611576565b508061156e816124fe565b9150506114a4565b50600081116115c75760405162461bcd60e51b815260206004820181905260248201527f7a65726f20617661696c61626c65207769746864726177616c20616d6f756e746044820152606401610a4c565b63ffffffff85166000908152600d602090815260408083206001600160a01b0388168452909152812080548492906116009084906124c7565b909155505063ffffffff85166000908152600e602090815260408083206001600160a01b03881684529091528120805483929061163e90849061256a565b909155505063ffffffff85166000908152600f60205260408120805483929061166890849061256a565b90915550506001600160a01b0384166000908152601060205260408120805483929061169590849061256a565b90915550506006546040516370a0823160e01b815230600482015260009161010090046001600160a01b0316906370a0823190602401602060405180830381865afa1580156116e8573d6000803e3d6000fd5b505050506040513d601f19601f8201168201806040525081019061170c9190612551565b9050818110156117b7578015611738576006546117389061010090046001600160a01b03168683611f28565b6007546001600160a01b031663aad3ec9686611754848661256a565b6040516001600160e01b031960e085901b1681526001600160a01b0390921660048301526024820152604401600060405180830381600087803b15801561179a57600080fd5b505af11580156117ae573d6000803e3d6000fd5b505050506117d3565b6006546117d39061010090046001600160a01b03168684611f28565b6040805163ffffffff881681526001600160a01b03871660208201529081018390527f2d6eb139d2002caa088da5527d9d62f2f23bdf4504f5559a112535c436c6ee599060600160405180910390a150506006805460ff1916600117905550505050565b63ffffffff82166000818152600c602090815260408083206001600160a01b03861680855290835281842054948452600d83528184209084529091528120549081831061188b57611888828461256a565b90505b9250925092565b6008546040805163b969fbef60e01b815290516000926001600160a01b03169163b969fbef9160048083019260209291908290030181865afa1580156118dc573d6000803e3d6000fd5b505050506040513d601f19601f820116820180604052508101906119009190612551565b905090565b60008281526020819052604090206001015461192081611e01565b610d478383611ea9565b6012818154811061193a57600080fd5b6000918252602090912001546001600160a01b0316905081565b60065460009060ff166119925760405162461bcd60e51b8152600401610a4c906020808252600490820152636c6f636b60e01b604082015260600190565b6006805460ff1916905563ffffffff85166000908152600c602090815260408083206001600160a01b038816845290915281205480611a005760405162461bcd60e51b815260206004820152600a6024820152696e6f20756e7374616b6560b01b6044820152606401610a4c565b83611a0b868361256a565b1015611a595760405162461bcd60e51b815260206004820152601860248201527f6e2065786365656473206e756d206f662070656e64696e6700000000000000006044820152606401610a4c565b6000611a6585876124c7565b90505b80861015611b5b5763ffffffff88166000908152600c602090815260408083206001600160a01b038b1684529091528120805488908110611aab57611aab61249b565b6000918252602090912001805490915064010000000081046001600160801b031690600160a01b900460ff1615611b245760405162461bcd60e51b815260206004820152601260248201527f616c7265616479207769746864726177616c00000000000000000000000000006044820152606401610a4c565b8015611b3757611b3481866124c7565b94505b50805460ff60a01b1916600160a01b17905585611b53816124fe565b965050611a68565b60008311611bab5760405162461bcd60e51b815260206004820152601760248201527f6e6f2076616c69642072657374616b6520616d6f756e740000000000000000006044820152606401610a4c565b600754604051636a2fb1f560e01b8152600481018590526000916001600160a01b031690636a2fb1f590602401602060405180830381865afa158015611bf5573d6000803e3d6000fd5b505050506040513d601f19601f82011682018060405250810190611c199190612551565b63ffffffff8a166000908152600b602090815260408083206001600160a01b038d168452909152812080549293509186918391611c579084906124c7565b9250508190555081816002016000828254611c7291906124c7565b909155505063ffffffff8a166000908152600a602052604081208054849290611c9c9084906124c7565b925050819055508160096000828254611cb591906124c7565b909155505063ffffffff8a166000908152600e602090815260408083206001600160a01b038d16845290915281208054879290611cf390849061256a565b909155505063ffffffff8a166000908152600f602052604081208054879290611d1d90849061256a565b90915550506001600160a01b03891660009081526010602052604081208054879290611d4a90849061256a565b909155505063ffffffff8a166000908152600d602090815260408083206001600160a01b038d16845290915281208054899290611d889084906124c7565b90915550506040805163ffffffff8c1681526001600160a01b038b166020820152908101869052606081018390527f34981dc0486069d2abbaddbc42e10b97cb24e4bce60ee4457e1d5062dfc0b4299060800160405180910390a16001955050505050506006805460ff19166001179055949350505050565b610ae38133612058565b6000828152602081815260408083206001600160a01b038516845290915290205460ff16610a55576000828152602081815260408083206001600160a01b03851684529091529020805460ff19166001179055611e653390565b6001600160a01b0316816001600160a01b0316837f2f8788117e7eff1d82e926ec794901d17c78024a50270940304540a733656f0d60405160405180910390a45050565b6000828152602081815260408083206001600160a01b038516845290915290205460ff1615610a55576000828152602081815260408083206001600160a01b0385168085529252808320805460ff1916905551339285917ff6391f5c32d9c69d2a47ea670b442974b53935d1edc7fd64eb21e047a839171b9190a45050565b604080516001600160a01b038481166024830152604480830185905283518084039091018152606490920183526020820180517bffffffffffffffffffffffffffffffffffffffffffffffffffffffff1663a9059cbb60e01b1790529151600092839290871691611f99919061257d565b6000604051808303816000865af19150503d8060008114611fd6576040519150601f19603f3d011682016040523d82523d6000602084013e611fdb565b606091505b50915091508180156120055750805115806120055750808060200190518101906120059190612599565b6120515760405162461bcd60e51b815260206004820152600f60248201527f5452414e534645525f4641494c454400000000000000000000000000000000006044820152606401610a4c565b5050505050565b6000828152602081815260408083206001600160a01b038516845290915290205460ff16610a5557612089816120cb565b6120948360206120dd565b6040516020016120a59291906125bb565b60408051601f198184030181529082905262461bcd60e51b8252610a4c91600401612422565b60606109de6001600160a01b03831660145b606060006120ec83600261263c565b6120f79060026124c7565b67ffffffffffffffff81111561210f5761210f612653565b6040519080825280601f01601f191660200182016040528015612139576020820181803683370190505b509050600360fc1b816000815181106121545761215461249b565b60200101906001600160f81b031916908160001a905350600f60fb1b816001815181106121835761218361249b565b60200101906001600160f81b031916908160001a90535060006121a784600261263c565b6121b29060016124c7565b90505b6001811115612237577f303132333435363738396162636465660000000000000000000000000000000085600f16601081106121f3576121f361249b565b1a60f81b8282815181106122095761220961249b565b60200101906001600160f81b031916908160001a90535060049490941c9361223081612669565b90506121b5565b50831561141b5760405162461bcd60e51b815260206004820181905260248201527f537472696e67733a20686578206c656e67746820696e73756666696369656e746044820152606401610a4c565b60006020828403121561229857600080fd5b81356001600160e01b03198116811461141b57600080fd5b803563ffffffff811681146122c457600080fd5b919050565b6000602082840312156122db57600080fd5b61141b826122b0565b80356001600160a01b03811681146122c457600080fd5b60006020828403121561230d57600080fd5b61141b826122e4565b6000806040838503121561232957600080fd5b612332836122b0565b9150612340602084016122e4565b90509250929050565b60006020828403121561235b57600080fd5b5035919050565b6000806040838503121561237557600080fd5b82359150612340602084016122e4565b6020808252825182820181905260009190848201906040850190845b818110156123c65783516001600160a01b0316835292840192918401916001016123a1565b50909695505050505050565b60005b838110156123ed5781810151838201526020016123d5565b50506000910152565b6000815180845261240e8160208601602086016123d2565b601f01601f19169290920160200192915050565b60208152600061141b60208301846123f6565b60008060006060848603121561244a57600080fd5b612453846122b0565b9250612461602085016122e4565b9150604084013590509250925092565b6000806040838503121561248457600080fd5b61248d836122b0565b946020939093013593505050565b634e487b7160e01b600052603260045260246000fd5b634e487b7160e01b600052601160045260246000fd5b808201808211156109de576109de6124b1565b63ffffffff8181168382160190808211156124f7576124f76124b1565b5092915050565b600060018201612510576125106124b1565b5060010190565b600181811c9082168061252b57607f821691505b60208210810361254b57634e487b7160e01b600052602260045260246000fd5b50919050565b60006020828403121561256357600080fd5b5051919050565b818103818111156109de576109de6124b1565b6000825161258f8184602087016123d2565b9190910192915050565b6000602082840312156125ab57600080fd5b8151801515811461141b57600080fd5b7f416363657373436f6e74726f6c3a206163636f756e74200000000000000000008152600083516125f38160178501602088016123d2565b7f206973206d697373696e6720726f6c652000000000000000000000000000000060179184019182015283516126308160288401602088016123d2565b01602801949350505050565b80820281158282048414176109de576109de6124b1565b634e487b7160e01b600052604160045260246000fd5b600081612678576126786124b1565b50600019019056fea164736f6c6343000812000a",
  "linkReferences": {},
  "deployedLinkReferences": {}
}