{
  "_format": "hh-sol-artifact-1",
  "contractName": "Staking",
  "sourceName": "contracts/Staking.sol",
  "abi": [
    {
      "inputs": [],
      "stateMutability": "nonpayable",
      "type": "constructor"
    },
    {
      "anonymous": false,
      "inputs": [
        {
          "indexed": false,
          "internalType": "uint32",
          "name": "layerIndex",
          "type": "uint32"
        },
        {
          "indexed": false,
          "internalType": "address",
          "name": "from",
          "type": "address"
        },
        {
          "indexed": false,
          "internalType": "address",
          "name": "to",
          "type": "address"
        },
        {
          "indexed": false,
          "internalType": "uint256",
          "name": "amount",
          "type": "uint256"
        }
      ],
      "name": "FastWithdrawalClaim",
      "type": "event"
    },
    {
      "anonymous": false,
      "inputs": [
        {
          "indexed": false,
          "internalType": "uint32",
          "name": "layerIndex",
          "type": "uint32"
        },
        {
          "indexed": false,
          "internalType": "address",
          "name": "staker",
          "type": "address"
        },
        {
          "indexed": false,
          "internalType": "uint256",
          "name": "amount",
          "type": "uint256"
        },
        {
          "indexed": false,
          "internalType": "uint256",
          "name": "lton",
          "type": "uint256"
        }
      ],
      "name": "FastWithdrawalStaked",
      "type": "event"
    },
    {
      "anonymous": false,
      "inputs": [
        {
          "indexed": false,
          "internalType": "uint32",
          "name": "_index",
          "type": "uint32"
        },
        {
          "indexed": false,
          "internalType": "address",
          "name": "sender",
          "type": "address"
        },
        {
          "indexed": false,
          "internalType": "uint256",
          "name": "amount",
          "type": "uint256"
        },
        {
          "indexed": false,
          "internalType": "uint256",
          "name": "lton",
          "type": "uint256"
        }
      ],
      "name": "Restaked",
      "type": "event"
    },
    {
      "anonymous": false,
      "inputs": [
        {
          "indexed": true,
          "internalType": "bytes32",
          "name": "role",
          "type": "bytes32"
        },
        {
          "indexed": true,
          "internalType": "bytes32",
          "name": "previousAdminRole",
          "type": "bytes32"
        },
        {
          "indexed": true,
          "internalType": "bytes32",
          "name": "newAdminRole",
          "type": "bytes32"
        }
      ],
      "name": "RoleAdminChanged",
      "type": "event"
    },
    {
      "anonymous": false,
      "inputs": [
        {
          "indexed": true,
          "internalType": "bytes32",
          "name": "role",
          "type": "bytes32"
        },
        {
          "indexed": true,
          "internalType": "address",
          "name": "account",
          "type": "address"
        },
        {
          "indexed": true,
          "internalType": "address",
          "name": "sender",
          "type": "address"
        }
      ],
      "name": "RoleGranted",
      "type": "event"
    },
    {
      "anonymous": false,
      "inputs": [
        {
          "indexed": true,
          "internalType": "bytes32",
          "name": "role",
          "type": "bytes32"
        },
        {
          "indexed": true,
          "internalType": "address",
          "name": "account",
          "type": "address"
        },
        {
          "indexed": true,
          "internalType": "address",
          "name": "sender",
          "type": "address"
        }
      ],
      "name": "RoleRevoked",
      "type": "event"
    },
    {
      "anonymous": false,
      "inputs": [
        {
          "indexed": false,
          "internalType": "uint32",
          "name": "_index",
          "type": "uint32"
        },
        {
          "indexed": false,
          "internalType": "address",
          "name": "sender",
          "type": "address"
        },
        {
          "indexed": false,
          "internalType": "uint256",
          "name": "amount",
          "type": "uint256"
        },
        {
          "indexed": false,
          "internalType": "uint256",
          "name": "lton",
          "type": "uint256"
        },
        {
          "indexed": false,
          "internalType": "address",
          "name": "commissionTo",
          "type": "address"
        },
        {
          "indexed": false,
          "internalType": "uint16",
          "name": "commission",
          "type": "uint16"
        }
      ],
      "name": "Staked",
      "type": "event"
    },
    {
      "anonymous": false,
      "inputs": [
        {
          "indexed": false,
          "internalType": "uint32",
          "name": "_index",
          "type": "uint32"
        },
        {
          "indexed": false,
          "internalType": "address",
          "name": "sender",
          "type": "address"
        },
        {
          "indexed": false,
          "internalType": "uint256",
          "name": "amount",
          "type": "uint256"
        },
        {
          "indexed": false,
          "internalType": "uint256",
          "name": "lton",
          "type": "uint256"
        }
      ],
      "name": "Unstaked",
      "type": "event"
    },
    {
      "anonymous": false,
      "inputs": [
        {
          "indexed": false,
          "internalType": "uint32",
          "name": "_index",
          "type": "uint32"
        },
        {
          "indexed": false,
          "internalType": "address",
          "name": "sender",
          "type": "address"
        },
        {
          "indexed": false,
          "internalType": "uint256",
          "name": "amount",
          "type": "uint256"
        }
      ],
      "name": "Withdrawal",
      "type": "event"
    },
    {
      "inputs": [],
      "name": "ADMIN_ROLE",
      "outputs": [
        {
          "internalType": "bytes32",
          "name": "",
          "type": "bytes32"
        }
      ],
      "stateMutability": "view",
      "type": "function"
    },
    {
      "inputs": [],
      "name": "DEFAULT_ADMIN_ROLE",
      "outputs": [
        {
          "internalType": "bytes32",
          "name": "",
          "type": "bytes32"
        }
      ],
      "stateMutability": "view",
      "type": "function"
    },
    {
      "inputs": [],
      "name": "POLICY_ROLE",
      "outputs": [
        {
          "internalType": "bytes32",
          "name": "",
          "type": "bytes32"
        }
      ],
      "stateMutability": "view",
      "type": "function"
    },
    {
      "inputs": [
        {
          "internalType": "address",
          "name": "account",
          "type": "address"
        }
      ],
      "name": "addAdmin",
      "outputs": [],
      "stateMutability": "nonpayable",
      "type": "function"
    },
    {
      "inputs": [
        {
          "internalType": "address",
          "name": "",
          "type": "address"
        }
      ],
      "name": "aliveImplementation",
      "outputs": [
        {
          "internalType": "bool",
          "name": "",
          "type": "bool"
        }
      ],
      "stateMutability": "view",
      "type": "function"
    },
    {
      "inputs": [
        {
          "internalType": "uint32",
          "name": "layerIndex",
          "type": "uint32"
        },
        {
          "internalType": "address",
          "name": "account",
          "type": "address"
        }
      ],
      "name": "amountOfPendings",
      "outputs": [
        {
          "internalType": "uint256",
          "name": "amount",
          "type": "uint256"
        },
        {
          "internalType": "uint32",
          "name": "startIndex",
          "type": "uint32"
        },
        {
          "internalType": "uint32",
          "name": "len",
          "type": "uint32"
        },
        {
          "internalType": "uint32",
          "name": "nextWithdrawableBlockNumber",
          "type": "uint32"
        }
      ],
      "stateMutability": "view",
      "type": "function"
    },
    {
      "inputs": [
        {
          "internalType": "uint32",
          "name": "_index",
          "type": "uint32"
        },
        {
          "internalType": "address",
          "name": "account",
          "type": "address"
        }
      ],
      "name": "availableWithdraw",
      "outputs": [
        {
          "internalType": "uint256",
          "name": "amount",
          "type": "uint256"
        },
        {
          "internalType": "uint32",
          "name": "startIndex",
          "type": "uint32"
        },
        {
          "internalType": "uint32",
          "name": "len",
          "type": "uint32"
        }
      ],
      "stateMutability": "view",
      "type": "function"
    },
    {
      "inputs": [
        {
          "internalType": "uint32",
          "name": "_index",
          "type": "uint32"
        },
        {
          "internalType": "address",
          "name": "account",
          "type": "address"
        }
      ],
      "name": "balanceOf",
      "outputs": [
        {
          "internalType": "uint256",
          "name": "amount",
          "type": "uint256"
        }
      ],
      "stateMutability": "view",
      "type": "function"
    },
    {
      "inputs": [
        {
          "internalType": "uint32",
          "name": "_index",
          "type": "uint32"
        },
        {
          "internalType": "address",
          "name": "account",
          "type": "address"
        }
      ],
      "name": "balanceOfLton",
      "outputs": [
        {
          "internalType": "uint256",
          "name": "amount",
          "type": "uint256"
        }
      ],
      "stateMutability": "view",
      "type": "function"
    },
    {
      "inputs": [
        {
          "internalType": "uint32",
          "name": "_index",
          "type": "uint32"
        }
      ],
      "name": "balanceOfLton",
      "outputs": [
        {
          "internalType": "uint256",
          "name": "amount",
          "type": "uint256"
        }
      ],
      "stateMutability": "view",
      "type": "function"
    },
    {
      "inputs": [
        {
          "internalType": "uint32",
          "name": "layerIndex",
          "type": "uint32"
        },
        {
          "internalType": "address",
          "name": "from",
          "type": "address"
        },
        {
          "internalType": "address",
          "name": "to",
          "type": "address"
        },
        {
          "internalType": "uint256",
          "name": "amount",
          "type": "uint256"
        }
      ],
      "name": "fastWithdrawClaim",
      "outputs": [
        {
          "internalType": "bool",
          "name": "",
          "type": "bool"
        }
      ],
      "stateMutability": "nonpayable",
      "type": "function"
    },
    {
      "inputs": [
        {
          "internalType": "uint32",
          "name": "layerIndex",
          "type": "uint32"
        },
        {
          "internalType": "address",
          "name": "staker",
          "type": "address"
        },
        {
          "internalType": "uint256",
          "name": "_amount",
          "type": "uint256"
        }
      ],
      "name": "fastWithdrawStake",
      "outputs": [
        {
          "internalType": "bool",
          "name": "",
          "type": "bool"
        }
      ],
      "stateMutability": "nonpayable",
      "type": "function"
    },
    {
      "inputs": [],
      "name": "fwReceipt",
      "outputs": [
        {
          "internalType": "address",
          "name": "",
          "type": "address"
        }
      ],
      "stateMutability": "view",
      "type": "function"
    },
    {
      "inputs": [
        {
          "internalType": "uint32",
          "name": "_index",
          "type": "uint32"
        },
        {
          "internalType": "address",
          "name": "account",
          "type": "address"
        }
      ],
      "name": "getLayerStakes",
      "outputs": [
        {
          "components": [
            {
              "internalType": "uint256",
              "name": "stakePrincipal",
              "type": "uint256"
            },
            {
              "internalType": "uint256",
              "name": "bondPrincipal",
              "type": "uint256"
            },
            {
              "internalType": "uint256",
              "name": "stakelton",
              "type": "uint256"
            },
            {
              "internalType": "bool",
              "name": "stake",
              "type": "bool"
            }
          ],
          "internalType": "struct LibStake.StakeInfo",
          "name": "info",
          "type": "tuple"
        }
      ],
      "stateMutability": "view",
      "type": "function"
    },
    {
      "inputs": [
        {
          "internalType": "uint32",
          "name": "_index",
          "type": "uint32"
        },
        {
          "internalType": "address",
          "name": "account",
          "type": "address"
        }
      ],
      "name": "getPendingUnstakedAmount",
      "outputs": [
        {
          "internalType": "uint256",
          "name": "",
          "type": "uint256"
        }
      ],
      "stateMutability": "view",
      "type": "function"
    },
    {
      "inputs": [
        {
          "internalType": "bytes32",
          "name": "role",
          "type": "bytes32"
        }
      ],
      "name": "getRoleAdmin",
      "outputs": [
        {
          "internalType": "bytes32",
          "name": "",
          "type": "bytes32"
        }
      ],
      "stateMutability": "view",
      "type": "function"
    },
    {
      "inputs": [],
      "name": "getStakeAccountList",
      "outputs": [
        {
          "internalType": "address[]",
          "name": "",
          "type": "address[]"
        }
      ],
      "stateMutability": "view",
      "type": "function"
    },
    {
      "inputs": [],
      "name": "getTotalLton",
      "outputs": [
        {
          "internalType": "uint256",
          "name": "",
          "type": "uint256"
        }
      ],
      "stateMutability": "view",
      "type": "function"
    },
    {
      "inputs": [
        {
          "internalType": "bytes32",
          "name": "role",
          "type": "bytes32"
        },
        {
          "internalType": "address",
          "name": "account",
          "type": "address"
        }
      ],
      "name": "grantRole",
      "outputs": [],
      "stateMutability": "nonpayable",
      "type": "function"
    },
    {
      "inputs": [
        {
          "internalType": "bytes32",
          "name": "role",
          "type": "bytes32"
        },
        {
          "internalType": "address",
          "name": "account",
          "type": "address"
        }
      ],
      "name": "hasRole",
      "outputs": [
        {
          "internalType": "bool",
          "name": "",
          "type": "bool"
        }
      ],
      "stateMutability": "view",
      "type": "function"
    },
    {
      "inputs": [
        {
          "internalType": "address",
          "name": "account",
          "type": "address"
        }
      ],
      "name": "isAdmin",
      "outputs": [
        {
          "internalType": "bool",
          "name": "",
          "type": "bool"
        }
      ],
      "stateMutability": "view",
      "type": "function"
    },
    {
      "inputs": [
        {
          "internalType": "uint32",
          "name": "_index",
          "type": "uint32"
        }
      ],
      "name": "layer2Deposits",
      "outputs": [
        {
          "internalType": "uint256",
          "name": "amount",
          "type": "uint256"
        }
      ],
      "stateMutability": "view",
      "type": "function"
    },
    {
      "inputs": [],
      "name": "layer2Manager",
      "outputs": [
        {
          "internalType": "address",
          "name": "",
          "type": "address"
        }
      ],
      "stateMutability": "view",
      "type": "function"
    },
    {
      "inputs": [
        {
          "internalType": "uint32",
          "name": "",
          "type": "uint32"
        }
      ],
      "name": "layerInfo",
      "outputs": [
        {
          "internalType": "bytes",
          "name": "",
          "type": "bytes"
        }
      ],
      "stateMutability": "view",
      "type": "function"
    },
    {
      "inputs": [
        {
          "internalType": "uint32",
          "name": "",
          "type": "uint32"
        }
      ],
      "name": "layerStakedLton",
      "outputs": [
        {
          "internalType": "uint256",
          "name": "",
          "type": "uint256"
        }
      ],
      "stateMutability": "view",
      "type": "function"
    },
    {
      "inputs": [
        {
          "internalType": "uint32",
          "name": "",
          "type": "uint32"
        },
        {
          "internalType": "address",
          "name": "",
          "type": "address"
        }
      ],
      "name": "layerStakes",
      "outputs": [
        {
          "internalType": "uint256",
          "name": "stakePrincipal",
          "type": "uint256"
        },
        {
          "internalType": "uint256",
          "name": "bondPrincipal",
          "type": "uint256"
        },
        {
          "internalType": "uint256",
          "name": "stakelton",
          "type": "uint256"
        },
        {
          "internalType": "bool",
          "name": "stake",
          "type": "bool"
        }
      ],
      "stateMutability": "view",
      "type": "function"
    },
    {
      "inputs": [
        {
          "internalType": "uint32",
          "name": "layerIndex",
          "type": "uint32"
        },
        {
          "internalType": "address",
          "name": "account",
          "type": "address"
        }
      ],
      "name": "numberOfPendings",
      "outputs": [
        {
          "internalType": "uint256",
          "name": "totalRequests",
          "type": "uint256"
        },
        {
          "internalType": "uint256",
          "name": "withdrawIndex",
          "type": "uint256"
        },
        {
          "internalType": "uint256",
          "name": "pendingLength",
          "type": "uint256"
        }
      ],
      "stateMutability": "view",
      "type": "function"
    },
    {
      "inputs": [],
      "name": "pauseProxy",
      "outputs": [
        {
          "internalType": "bool",
          "name": "",
          "type": "bool"
        }
      ],
      "stateMutability": "view",
      "type": "function"
    },
    {
      "inputs": [
        {
          "internalType": "uint32",
          "name": "",
          "type": "uint32"
        },
        {
          "internalType": "address",
          "name": "",
          "type": "address"
        }
      ],
      "name": "pendingUnstaked",
      "outputs": [
        {
          "internalType": "uint256",
          "name": "",
          "type": "uint256"
        }
      ],
      "stateMutability": "view",
      "type": "function"
    },
    {
      "inputs": [
        {
          "internalType": "address",
          "name": "",
          "type": "address"
        }
      ],
      "name": "pendingUnstakedAccount",
      "outputs": [
        {
          "internalType": "uint256",
          "name": "",
          "type": "uint256"
        }
      ],
      "stateMutability": "view",
      "type": "function"
    },
    {
      "inputs": [
        {
          "internalType": "uint32",
          "name": "",
          "type": "uint32"
        }
      ],
      "name": "pendingUnstakedLayer2",
      "outputs": [
        {
          "internalType": "uint256",
          "name": "",
          "type": "uint256"
        }
      ],
      "stateMutability": "view",
      "type": "function"
    },
    {
      "inputs": [
        {
          "internalType": "uint256",
          "name": "",
          "type": "uint256"
        }
      ],
      "name": "proxyImplementation",
      "outputs": [
        {
          "internalType": "address",
          "name": "",
          "type": "address"
        }
      ],
      "stateMutability": "view",
      "type": "function"
    },
    {
      "inputs": [
        {
          "internalType": "address",
          "name": "account",
          "type": "address"
        }
      ],
      "name": "removeAdmin",
      "outputs": [],
      "stateMutability": "nonpayable",
      "type": "function"
    },
    {
      "inputs": [
        {
          "internalType": "bytes32",
          "name": "role",
          "type": "bytes32"
        },
        {
          "internalType": "address",
          "name": "account",
          "type": "address"
        }
      ],
      "name": "renounceRole",
      "outputs": [],
      "stateMutability": "nonpayable",
      "type": "function"
    },
    {
      "inputs": [
        {
          "internalType": "uint32",
          "name": "_index",
          "type": "uint32"
        }
      ],
      "name": "restake",
      "outputs": [],
      "stateMutability": "nonpayable",
      "type": "function"
    },
    {
      "inputs": [
        {
          "internalType": "uint32",
          "name": "_index",
          "type": "uint32"
        },
        {
          "internalType": "uint256",
          "name": "n",
          "type": "uint256"
        }
      ],
      "name": "restakeMulti",
      "outputs": [],
      "stateMutability": "nonpayable",
      "type": "function"
    },
    {
      "inputs": [
        {
          "internalType": "bytes32",
          "name": "role",
          "type": "bytes32"
        },
        {
          "internalType": "address",
          "name": "account",
          "type": "address"
        }
      ],
      "name": "revokeRole",
      "outputs": [],
      "stateMutability": "nonpayable",
      "type": "function"
    },
    {
      "inputs": [],
      "name": "seigManagerV2",
      "outputs": [
        {
          "internalType": "address",
          "name": "",
          "type": "address"
        }
      ],
      "stateMutability": "view",
      "type": "function"
    },
    {
      "inputs": [
        {
          "internalType": "bytes4",
          "name": "",
          "type": "bytes4"
        }
      ],
      "name": "selectorImplementation",
      "outputs": [
        {
          "internalType": "address",
          "name": "",
          "type": "address"
        }
      ],
      "stateMutability": "view",
      "type": "function"
    },
    {
      "inputs": [
        {
          "internalType": "uint256",
          "name": "",
          "type": "uint256"
        }
      ],
      "name": "stakeAccountList",
      "outputs": [
        {
          "internalType": "address",
          "name": "",
          "type": "address"
        }
      ],
      "stateMutability": "view",
      "type": "function"
    },
    {
      "inputs": [
        {
          "internalType": "bytes4",
          "name": "interfaceId",
          "type": "bytes4"
        }
      ],
      "name": "supportsInterface",
      "outputs": [
        {
          "internalType": "bool",
          "name": "",
          "type": "bool"
        }
      ],
      "stateMutability": "view",
      "type": "function"
    },
    {
      "inputs": [],
      "name": "ton",
      "outputs": [
        {
          "internalType": "address",
          "name": "",
          "type": "address"
        }
      ],
      "stateMutability": "view",
      "type": "function"
    },
    {
      "inputs": [],
      "name": "totalLayer2Deposits",
      "outputs": [
        {
          "internalType": "uint256",
          "name": "amount",
          "type": "uint256"
        }
      ],
      "stateMutability": "view",
      "type": "function"
    },
    {
      "inputs": [],
      "name": "totalStakeAccountList",
      "outputs": [
        {
          "internalType": "uint256",
          "name": "",
          "type": "uint256"
        }
      ],
      "stateMutability": "view",
      "type": "function"
    },
    {
      "inputs": [],
      "name": "totalStakedLton",
      "outputs": [
        {
          "internalType": "uint256",
          "name": "",
          "type": "uint256"
        }
      ],
      "stateMutability": "view",
      "type": "function"
    },
    {
      "inputs": [
        {
          "internalType": "address",
          "name": "newAdmin",
          "type": "address"
        }
      ],
      "name": "transferAdmin",
      "outputs": [],
      "stateMutability": "nonpayable",
      "type": "function"
    },
    {
      "inputs": [
        {
          "internalType": "uint32",
          "name": "_index",
          "type": "uint32"
        }
      ],
      "name": "withdraw",
      "outputs": [],
      "stateMutability": "nonpayable",
      "type": "function"
    },
    {
      "inputs": [
        {
          "internalType": "uint32",
          "name": "",
          "type": "uint32"
        },
        {
          "internalType": "address",
          "name": "",
          "type": "address"
        }
      ],
      "name": "withdrawalRequestIndex",
      "outputs": [
        {
          "internalType": "uint256",
          "name": "",
          "type": "uint256"
        }
      ],
      "stateMutability": "view",
      "type": "function"
    },
    {
      "inputs": [
        {
          "internalType": "uint32",
          "name": "",
          "type": "uint32"
        },
        {
          "internalType": "address",
          "name": "",
          "type": "address"
        },
        {
          "internalType": "uint256",
          "name": "",
          "type": "uint256"
        }
      ],
      "name": "withdrawalRequests",
      "outputs": [
        {
          "internalType": "uint32",
          "name": "withdrawableBlockNumber",
          "type": "uint32"
        },
        {
          "internalType": "uint128",
          "name": "amount",
          "type": "uint128"
        },
        {
          "internalType": "bool",
          "name": "processed",
          "type": "bool"
        }
      ],
      "stateMutability": "view",
      "type": "function"
    }
  ],
  "bytecode": "0x60806040526006805460ff1916600117905534801561001d57600080fd5b50612aca8061002d6000396000f3fe608060405234801561001057600080fd5b506004361061032b5760003560e01c806373469a7a116101b25780639c656e26116100f9578063b911135f116100a2578063cc48b9471161007c578063cc48b9471461093d578063d07918f114610955578063d547741f14610968578063ec110d451461097b57600080fd5b8063b911135f146108ec578063b969fbef14610915578063b9cab9711461091d57600080fd5b8063aa9224cd116100d3578063aa9224cd146108a3578063b413b37a146108b6578063b6a2f99d146108be57600080fd5b80639c656e2614610816578063a0b2a9131461087b578063a217fddf1461089b57600080fd5b80638afec9fc1161015b5780638ddd87fe116101355780638ddd87fe1461078e57806391d14854146107cc57806394c89b2c1461080357600080fd5b80638afec9fc146107205780638c71762d146107465780638d99e1ca1461077b57600080fd5b806375b238fc1161018c57806375b238fc146106bb5780637c356816146106e25780637cf1587c146106f557600080fd5b806373469a7a14610682578063744a35611461069557806375829def146106a857600080fd5b80634de131ca1161027657806360254e331161021f5780636d1ef103116101f95780636d1ef10314610610578063704802751461064f57806370619cf91461066257600080fd5b806360254e33146105d057806363a8fd89146105e3578063659ab820146105f057600080fd5b8063550d01a311610250578063550d01a3146105125780635e2cfe45146105355780635f1b989e1461056057600080fd5b80634de131ca146104cb5780634e1a264d146104e057806350d2a276146104e957600080fd5b806322985246116102d85780632f2ff15d116102b25780632f2ff15d1461049d57806336568abe146104b057806346bcdb49146104c357600080fd5b80632298524614610432578063248a9ca31461046757806324d7806c1461048a57600080fd5b80631785f53c116103095780631785f53c146103985780631ed94495146103ab5780631f760d01146103f357600080fd5b806301ffc9a714610330578063118e29d11461035857806316b5d5bd1461036d575b600080fd5b61034361033e366004612678565b61098e565b60405190151581526020015b60405180910390f35b61036b6103663660046126bb565b6109c5565b005b600854610380906001600160a01b031681565b6040516001600160a01b03909116815260200161034f565b61036b6103a63660046126ed565b610a3a565b6103be6103b9366004612708565b610ac7565b60405161034f919081518152602080830151908201526040808301519082015260609182015115159181019190915260800190565b610406610401366004612708565b610b59565b6040805194855263ffffffff93841660208601529183169184019190915216606082015260800161034f565b6104597ffb5864e8ff833c3cb2d2d08505e82ff02a43554c74a35d4f5a64e8526127831181565b60405190815260200161034f565b61045961047536600461273b565b60009081526020819052604090206001015490565b6103436104983660046126ed565b610c97565b61036b6104ab366004612754565b610cd7565b61036b6104be366004612754565b610d01565b601354610459565b6104d3610d89565b60405161034f9190612777565b610459600a5481565b6103806104f7366004612678565b6004602052600090815260409020546001600160a01b031681565b6103436105203660046126ed565b60036020526000908152604090205460ff1681565b610459610543366004612708565b600f60209081526000928352604080842090915290825290205481565b61045961056e366004612708565b63ffffffff9091166000908152600c602090815260408083206001600160a01b0390941683529281529082902082516080810184528154815260018201549281019290925260028101549282018390526003015460ff16151560609091015290565b6103436105de3660046127c4565b610deb565b6001546103439060ff1681565b6106036105fe3660046126bb565b610fad565b60405161034f9190612850565b61062361061e3660046127c4565b611047565b6040805163ffffffff90941684526001600160801b03909216602084015215159082015260600161034f565b61036b61065d3660046126ed565b6110a6565b6104596106703660046126bb565b600b6020526000908152604090205481565b600754610380906001600160a01b031681565b61036b6106a3366004612863565b611130565b61036b6106b63660046126ed565b61119b565b6104597fdf8b4c520ffe197c5343c6f5aec59570151ef9a492f2c624fd45ddde6135ec4281565b6103436106f036600461288d565b6112fd565b610459610703366004612708565b600e60209081526000928352604080842090915290825290205481565b61045961072e3660046126bb565b63ffffffff166000908152600b602052604090205490565b610759610754366004612708565b611591565b6040805193845263ffffffff928316602085015291169082015260600161034f565b6104596107893660046126bb565b6116ce565b61045961079c366004612708565b63ffffffff82166000908152600f602090815260408083206001600160a01b038516845290915290205492915050565b6103436107da366004612754565b6000918252602082815260408084206001600160a01b0393909316845291905290205460ff1690565b610459610811366004612708565b611741565b610859610824366004612708565b600c60209081526000928352604080842090915290825290208054600182015460028301546003909301549192909160ff1684565b604080519485526020850193909352918301521515606082015260800161034f565b6104596108893660046126ed565b60116020526000908152604090205481565b610459600081565b61036b6108b13660046126bb565b611814565b600a54610459565b6108d16108cc366004612708565b611c29565b6040805193845260208401929092529082015260600161034f565b6103806108fa36600461273b565b6002602052600090815260409020546001600160a01b031681565b610459611c84565b61045961092b3660046126bb565b60106020526000908152604090205481565b6006546103809061010090046001600160a01b031681565b600954610380906001600160a01b031681565b61036b610976366004612754565b611cf7565b61038061098936600461273b565b611d1c565b60006001600160e01b03198216637965db0b60e01b14806109bf57506301ffc9a760e01b6001600160e01b03198316145b92915050565b63ffffffff81166000908152600e6020908152604080832033808552925290912054906109f6908390836001611d46565b610a365760405162461bcd60e51b815260206004820152600c60248201526b534c5f455f52455354414b4560a01b60448201526064015b60405180910390fd5b5050565b610a4333610c97565b610a9a5760405162461bcd60e51b815260206004820152602260248201527f41636365737369626c653a2043616c6c6572206973206e6f7420616e2061646d60448201526134b760f11b6064820152608401610a2d565b610ac47fdf8b4c520ffe197c5343c6f5aec59570151ef9a492f2c624fd45ddde6135ec4282610d01565b50565b610af460405180608001604052806000815260200160008152602001600081526020016000151581525090565b5063ffffffff9091166000908152600c602090815260408083206001600160a01b0390941683529281529082902082516080810184528154815260018201549281019290925260028101549282019290925260039091015460ff161515606082015290565b63ffffffff8083166000818152600d602090815260408083206001600160a01b03871680855290835281842054948452600e835281842090845290915281205490929091839182919084165b81811015610c8c5763ffffffff88166000908152600d602090815260408083206001600160a01b038b1684529091528120805483908110610be857610be86128d8565b6000918252602080832060408051606081018252939091015463ffffffff8116845264010000000081046001600160801b031692840192909252600160a01b90910460ff1615159082018190529092509003610c79578363ffffffff16600003610c5157805193505b6020810151610c69906001600160801b031688612904565b9650610c76600186612917565b94505b5080610c848161293b565b915050610ba5565b505092959194509250565b6001600160a01b03811660009081527f5cbfc8ee58ca47855df7bcf648dd304ddb6b932f9b87878bdf6318d7ec7ee5b7602052604081205460ff166109bf565b600082815260208190526040902060010154610cf2816121f3565b610cfc83836121fd565b505050565b6001600160a01b0381163314610d7f5760405162461bcd60e51b815260206004820152602f60248201527f416363657373436f6e74726f6c3a2063616e206f6e6c792072656e6f756e636560448201527f20726f6c657320666f722073656c6600000000000000000000000000000000006064820152608401610a2d565b610a36828261229b565b60606013805480602002602001604051908101604052809291908181526020018280548015610de157602002820191906000526020600020905b81546001600160a01b03168152600190910190602001808311610dc3575b5050505050905090565b6009546000906001600160a01b03163314610e385760405162461bcd60e51b815260206004820152600d60248201526c232bafa1a0a62622a92fa2a92960991b6044820152606401610a2d565b600754604051636a2fb1f560e01b8152600481018490526000916001600160a01b031690636a2fb1f590602401602060405180830381865afa158015610e82573d6000803e3d6000fd5b505050506040513d601f19601f82011682018060405250810190610ea69190612954565b63ffffffff86166000908152600b6020526040812080549293508392909190610ed0908490612904565b9250508190555080600a6000828254610ee99190612904565b909155505063ffffffff85166000908152600c602090815260408083206001600160a01b03881684529091528120805490918591839190610f2b908490612904565b9250508190555081816002016000828254610f469190612904565b90915550506040805163ffffffff881681526001600160a01b0387166020820152908101859052606081018390527fd5f2b548f2958cb2c0fb52f3e60e93ae5d5bece5191c580d1912068409ab92479060800160405180910390a150600195945050505050565b60126020526000908152604090208054610fc69061296d565b80601f0160208091040260200160405190810160405280929190818152602001828054610ff29061296d565b801561103f5780601f106110145761010080835404028352916020019161103f565b820191906000526020600020905b81548152906001019060200180831161102257829003601f168201915b505050505081565b600d602052826000526040600020602052816000526040600020818154811061106f57600080fd5b60009182526020909120015463ffffffff8116935064010000000081046001600160801b03169250600160a01b900460ff16905083565b6110af33610c97565b6111065760405162461bcd60e51b815260206004820152602260248201527f41636365737369626c653a2043616c6c6572206973206e6f7420616e2061646d60448201526134b760f11b6064820152608401610a2d565b610ac47fdf8b4c520ffe197c5343c6f5aec59570151ef9a492f2c624fd45ddde6135ec4282610cd7565b63ffffffff82166000908152600e6020908152604080832033808552925290912054906111609084908385611d46565b610cfc5760405162461bcd60e51b815260206004820152600c60248201526b534c5f455f52455354414b4560a01b6044820152606401610a2d565b6111a433610c97565b6111fb5760405162461bcd60e51b815260206004820152602260248201527f41636365737369626c653a2043616c6c6572206973206e6f7420616e2061646d60448201526134b760f11b6064820152608401610a2d565b6001600160a01b0381166112515760405162461bcd60e51b815260206004820152601860248201527f41636365737369626c653a207a65726f206164647265737300000000000000006044820152606401610a2d565b6001600160a01b03811633036112a95760405162461bcd60e51b815260206004820152601660248201527f41636365737369626c653a2073616d652061646d696e000000000000000000006044820152606401610a2d565b6112d37fdf8b4c520ffe197c5343c6f5aec59570151ef9a492f2c624fd45ddde6135ec4282610cd7565b610ac47fdf8b4c520ffe197c5343c6f5aec59570151ef9a492f2c624fd45ddde6135ec4233610d01565b60065460009060ff1661133b5760405162461bcd60e51b8152600401610a2d906020808252600490820152636c6f636b60e01b604082015260600190565b6006805460ff191690556009546001600160a01b0316331461138f5760405162461bcd60e51b815260206004820152600d60248201526c232bafa1a0a62622a92fa2a92960991b6044820152606401610a2d565b8161139a8686611741565b10156113e85760405162461bcd60e51b815260206004820152601960248201527f6c697175696469747920697320696e73756666696369656e74000000000000006044820152606401610a2d565b6006546040516370a0823160e01b815230600482015260009161010090046001600160a01b0316906370a0823190602401602060405180830381865afa158015611436573d6000803e3d6000fd5b505050506040513d601f19601f8201168201806040525081019061145a9190612954565b905082811015611505578015611486576006546114869061010090046001600160a01b0316858361231a565b6007546001600160a01b031663aad3ec96856114a284876129a7565b6040516001600160e01b031960e085901b1681526001600160a01b0390921660048301526024820152604401600060405180830381600087803b1580156114e857600080fd5b505af11580156114fc573d6000803e3d6000fd5b50505050611521565b6006546115219061010090046001600160a01b0316858561231a565b6040805163ffffffff881681526001600160a01b0387811660208301528616818301526060810185905290517f1300548f98fb4f42be29e3431413715ef6ef84ba22e8eb7717bfb05164cfdd9f9181900360800190a160019150506006805460ff19166001179055949350505050565b63ffffffff8083166000818152600d602090815260408083206001600160a01b03871680855290835281842054948452600e835281842090845290915281205490929091839183165b818110156116c55763ffffffff87166000908152600d602090815260408083206001600160a01b038a168452909152812080548390811061161d5761161d6128d8565b600091825260209182902060408051606081018252929091015463ffffffff811680845264010000000082046001600160801b031694840194909452600160a01b900460ff1615159082015291504311801561167b57506040810151155b156116ac576020810151611698906001600160801b031687612904565b95506116a5600185612917565b93506116b2565b506116c5565b50806116bd8161293b565b9150506115da565b50509250925092565b6008546040516346ccf0e560e11b815263ffffffff831660048201526000916001600160a01b031690638d99e1ca90602401602060405180830381865afa15801561171d573d6000803e3d6000fd5b505050506040513d601f19601f820116820180604052508101906109bf9190612954565b60075463ffffffff83166000908152600c602090815260408083206001600160a01b03868116855290835281842082516080810184528154815260018201549481019490945260028101549284018390526003015460ff1615156060909301929092529192169063cdf68009906040518263ffffffff1660e01b81526004016117cc91815260200190565b602060405180830381865afa1580156117e9573d6000803e3d6000fd5b505050506040513d601f19601f8201168201806040525081019061180d9190612954565b9392505050565b60065460ff1661184f5760405162461bcd60e51b8152600401610a2d906020808252600490820152636c6f636b60e01b604082015260600190565b6006805460ff1916905563ffffffff81166000818152600d602090815260408083203380855290835281842054948452600e83528184208185529092528220549092919081905b838110156119685763ffffffff86166000908152600d602090815260408083206001600160a01b038916845290915281208054839081106118d9576118d96128d8565b600091825260209091200180549091504363ffffffff90911610801561190857508054600160a01b900460ff16155b1561194f57805460ff60a01b1916600160a01b1780825561193b906001600160801b036401000000009091041684612904565b9250836119478161293b565b945050611955565b50611968565b50806119608161293b565b915050611896565b50600081116119b95760405162461bcd60e51b815260206004820181905260248201527f7a65726f20617661696c61626c65207769746864726177616c20616d6f756e746044820152606401610a2d565b63ffffffff85166000908152600e602090815260408083206001600160a01b0388168452909152812080548492906119f2908490612904565b909155505063ffffffff85166000908152600f602090815260408083206001600160a01b038816845290915281208054839290611a309084906129a7565b909155505063ffffffff851660009081526010602052604081208054839290611a5a9084906129a7565b90915550506001600160a01b03841660009081526011602052604081208054839290611a879084906129a7565b90915550506006546040516370a0823160e01b815230600482015260009161010090046001600160a01b0316906370a0823190602401602060405180830381865afa158015611ada573d6000803e3d6000fd5b505050506040513d601f19601f82011682018060405250810190611afe9190612954565b905081811015611ba9578015611b2a57600654611b2a9061010090046001600160a01b0316868361231a565b6007546001600160a01b031663aad3ec9686611b4684866129a7565b6040516001600160e01b031960e085901b1681526001600160a01b0390921660048301526024820152604401600060405180830381600087803b158015611b8c57600080fd5b505af1158015611ba0573d6000803e3d6000fd5b50505050611bc5565b600654611bc59061010090046001600160a01b0316868461231a565b6040805163ffffffff881681526001600160a01b03871660208201529081018390527f2d6eb139d2002caa088da5527d9d62f2f23bdf4504f5559a112535c436c6ee599060600160405180910390a150506006805460ff1916600117905550505050565b63ffffffff82166000818152600d602090815260408083206001600160a01b03861680855290835281842054948452600e835281842090845290915281205490818310611c7d57611c7a82846129a7565b90505b9250925092565b6008546040805163b969fbef60e01b815290516000926001600160a01b03169163b969fbef9160048083019260209291908290030181865afa158015611cce573d6000803e3d6000fd5b505050506040513d601f19601f82011682018060405250810190611cf29190612954565b905090565b600082815260208190526040902060010154611d12816121f3565b610cfc838361229b565b60138181548110611d2c57600080fd5b6000918252602090912001546001600160a01b0316905081565b60065460009060ff16611d845760405162461bcd60e51b8152600401610a2d906020808252600490820152636c6f636b60e01b604082015260600190565b6006805460ff1916905563ffffffff85166000908152600d602090815260408083206001600160a01b038816845290915281205480611df25760405162461bcd60e51b815260206004820152600a6024820152696e6f20756e7374616b6560b01b6044820152606401610a2d565b83611dfd86836129a7565b1015611e4b5760405162461bcd60e51b815260206004820152601860248201527f6e2065786365656473206e756d206f662070656e64696e6700000000000000006044820152606401610a2d565b6000611e578587612904565b90505b80861015611f4d5763ffffffff88166000908152600d602090815260408083206001600160a01b038b1684529091528120805488908110611e9d57611e9d6128d8565b6000918252602090912001805490915064010000000081046001600160801b031690600160a01b900460ff1615611f165760405162461bcd60e51b815260206004820152601260248201527f616c7265616479207769746864726177616c00000000000000000000000000006044820152606401610a2d565b8015611f2957611f268186612904565b94505b50805460ff60a01b1916600160a01b17905585611f458161293b565b965050611e5a565b60008311611f9d5760405162461bcd60e51b815260206004820152601760248201527f6e6f2076616c69642072657374616b6520616d6f756e740000000000000000006044820152606401610a2d565b600754604051636a2fb1f560e01b8152600481018590526000916001600160a01b031690636a2fb1f590602401602060405180830381865afa158015611fe7573d6000803e3d6000fd5b505050506040513d601f19601f8201168201806040525081019061200b9190612954565b63ffffffff8a166000908152600c602090815260408083206001600160a01b038d168452909152812080549293509186918391612049908490612904565b92505081905550818160020160008282546120649190612904565b909155505063ffffffff8a166000908152600b60205260408120805484929061208e908490612904565b9250508190555081600a60008282546120a79190612904565b909155505063ffffffff8a166000908152600f602090815260408083206001600160a01b038d168452909152812080548792906120e59084906129a7565b909155505063ffffffff8a166000908152601060205260408120805487929061210f9084906129a7565b90915550506001600160a01b0389166000908152601160205260408120805487929061213c9084906129a7565b909155505063ffffffff8a166000908152600e602090815260408083206001600160a01b038d1684529091528120805489929061217a908490612904565b90915550506040805163ffffffff8c1681526001600160a01b038b166020820152908101869052606081018390527f34981dc0486069d2abbaddbc42e10b97cb24e4bce60ee4457e1d5062dfc0b4299060800160405180910390a16001955050505050506006805460ff19166001179055949350505050565b610ac4813361244a565b6000828152602081815260408083206001600160a01b038516845290915290205460ff16610a36576000828152602081815260408083206001600160a01b03851684529091529020805460ff191660011790556122573390565b6001600160a01b0316816001600160a01b0316837f2f8788117e7eff1d82e926ec794901d17c78024a50270940304540a733656f0d60405160405180910390a45050565b6000828152602081815260408083206001600160a01b038516845290915290205460ff1615610a36576000828152602081815260408083206001600160a01b0385168085529252808320805460ff1916905551339285917ff6391f5c32d9c69d2a47ea670b442974b53935d1edc7fd64eb21e047a839171b9190a45050565b604080516001600160a01b038481166024830152604480830185905283518084039091018152606490920183526020820180517bffffffffffffffffffffffffffffffffffffffffffffffffffffffff1663a9059cbb60e01b179052915160009283929087169161238b91906129ba565b6000604051808303816000865af19150503d80600081146123c8576040519150601f19603f3d011682016040523d82523d6000602084013e6123cd565b606091505b50915091508180156123f75750805115806123f75750808060200190518101906123f791906129d6565b6124435760405162461bcd60e51b815260206004820152600f60248201527f5452414e534645525f4641494c454400000000000000000000000000000000006044820152606401610a2d565b5050505050565b6000828152602081815260408083206001600160a01b038516845290915290205460ff16610a365761247b816124bd565b6124868360206124cf565b6040516020016124979291906129f8565b60408051601f198184030181529082905262461bcd60e51b8252610a2d91600401612850565b60606109bf6001600160a01b03831660145b606060006124de836002612a79565b6124e9906002612904565b67ffffffffffffffff81111561250157612501612a90565b6040519080825280601f01601f19166020018201604052801561252b576020820181803683370190505b509050600360fc1b81600081518110612546576125466128d8565b60200101906001600160f81b031916908160001a905350600f60fb1b81600181518110612575576125756128d8565b60200101906001600160f81b031916908160001a9053506000612599846002612a79565b6125a4906001612904565b90505b6001811115612629577f303132333435363738396162636465660000000000000000000000000000000085600f16601081106125e5576125e56128d8565b1a60f81b8282815181106125fb576125fb6128d8565b60200101906001600160f81b031916908160001a90535060049490941c9361262281612aa6565b90506125a7565b50831561180d5760405162461bcd60e51b815260206004820181905260248201527f537472696e67733a20686578206c656e67746820696e73756666696369656e746044820152606401610a2d565b60006020828403121561268a57600080fd5b81356001600160e01b03198116811461180d57600080fd5b803563ffffffff811681146126b657600080fd5b919050565b6000602082840312156126cd57600080fd5b61180d826126a2565b80356001600160a01b03811681146126b657600080fd5b6000602082840312156126ff57600080fd5b61180d826126d6565b6000806040838503121561271b57600080fd5b612724836126a2565b9150612732602084016126d6565b90509250929050565b60006020828403121561274d57600080fd5b5035919050565b6000806040838503121561276757600080fd5b82359150612732602084016126d6565b6020808252825182820181905260009190848201906040850190845b818110156127b85783516001600160a01b031683529284019291840191600101612793565b50909695505050505050565b6000806000606084860312156127d957600080fd5b6127e2846126a2565b92506127f0602085016126d6565b9150604084013590509250925092565b60005b8381101561281b578181015183820152602001612803565b50506000910152565b6000815180845261283c816020860160208601612800565b601f01601f19169290920160200192915050565b60208152600061180d6020830184612824565b6000806040838503121561287657600080fd5b61287f836126a2565b946020939093013593505050565b600080600080608085870312156128a357600080fd5b6128ac856126a2565b93506128ba602086016126d6565b92506128c8604086016126d6565b9396929550929360600135925050565b634e487b7160e01b600052603260045260246000fd5b634e487b7160e01b600052601160045260246000fd5b808201808211156109bf576109bf6128ee565b63ffffffff818116838216019080821115612934576129346128ee565b5092915050565b60006001820161294d5761294d6128ee565b5060010190565b60006020828403121561296657600080fd5b5051919050565b600181811c9082168061298157607f821691505b6020821081036129a157634e487b7160e01b600052602260045260246000fd5b50919050565b818103818111156109bf576109bf6128ee565b600082516129cc818460208701612800565b9190910192915050565b6000602082840312156129e857600080fd5b8151801515811461180d57600080fd5b7f416363657373436f6e74726f6c3a206163636f756e7420000000000000000000815260008351612a30816017850160208801612800565b7f206973206d697373696e6720726f6c65200000000000000000000000000000006017918401918201528351612a6d816028840160208801612800565b01602801949350505050565b80820281158282048414176109bf576109bf6128ee565b634e487b7160e01b600052604160045260246000fd5b600081612ab557612ab56128ee565b50600019019056fea164736f6c6343000812000a",
  "linkReferences": {},
  "deployedLinkReferences": {}
}