{
  "_format": "hh-sol-artifact-1",
  "contractName": "Staking",
  "sourceName": "contracts/Staking.sol",
  "abi": [
    {
      "inputs": [],
      "stateMutability": "nonpayable",
      "type": "constructor"
    },
    {
      "anonymous": false,
      "inputs": [
        {
          "indexed": false,
          "internalType": "bytes32",
          "name": "hashMessage",
          "type": "bytes32"
        },
        {
          "indexed": false,
          "internalType": "uint32",
          "name": "layerIndex",
          "type": "uint32"
        },
        {
          "indexed": false,
          "internalType": "address",
          "name": "from",
          "type": "address"
        },
        {
          "indexed": false,
          "internalType": "address",
          "name": "to",
          "type": "address"
        },
        {
          "indexed": false,
          "internalType": "uint256",
          "name": "amount",
          "type": "uint256"
        }
      ],
      "name": "FastWithdrawalClaim",
      "type": "event"
    },
    {
      "anonymous": false,
      "inputs": [
        {
          "indexed": false,
          "internalType": "bytes32",
          "name": "hashMessage",
          "type": "bytes32"
        },
        {
          "indexed": false,
          "internalType": "uint32",
          "name": "layerIndex",
          "type": "uint32"
        },
        {
          "indexed": false,
          "internalType": "address",
          "name": "staker",
          "type": "address"
        },
        {
          "indexed": false,
          "internalType": "uint256",
          "name": "amount",
          "type": "uint256"
        },
        {
          "indexed": false,
          "internalType": "uint256",
          "name": "lton",
          "type": "uint256"
        }
      ],
      "name": "FastWithdrawalStaked",
      "type": "event"
    },
    {
      "anonymous": false,
      "inputs": [
        {
          "indexed": false,
          "internalType": "uint32",
          "name": "_index",
          "type": "uint32"
        },
        {
          "indexed": false,
          "internalType": "address",
          "name": "sender",
          "type": "address"
        },
        {
          "indexed": false,
          "internalType": "uint256",
          "name": "amount",
          "type": "uint256"
        },
        {
          "indexed": false,
          "internalType": "uint256",
          "name": "lton",
          "type": "uint256"
        }
      ],
      "name": "Restaked",
      "type": "event"
    },
    {
      "anonymous": false,
      "inputs": [
        {
          "indexed": true,
          "internalType": "bytes32",
          "name": "role",
          "type": "bytes32"
        },
        {
          "indexed": true,
          "internalType": "bytes32",
          "name": "previousAdminRole",
          "type": "bytes32"
        },
        {
          "indexed": true,
          "internalType": "bytes32",
          "name": "newAdminRole",
          "type": "bytes32"
        }
      ],
      "name": "RoleAdminChanged",
      "type": "event"
    },
    {
      "anonymous": false,
      "inputs": [
        {
          "indexed": true,
          "internalType": "bytes32",
          "name": "role",
          "type": "bytes32"
        },
        {
          "indexed": true,
          "internalType": "address",
          "name": "account",
          "type": "address"
        },
        {
          "indexed": true,
          "internalType": "address",
          "name": "sender",
          "type": "address"
        }
      ],
      "name": "RoleGranted",
      "type": "event"
    },
    {
      "anonymous": false,
      "inputs": [
        {
          "indexed": true,
          "internalType": "bytes32",
          "name": "role",
          "type": "bytes32"
        },
        {
          "indexed": true,
          "internalType": "address",
          "name": "account",
          "type": "address"
        },
        {
          "indexed": true,
          "internalType": "address",
          "name": "sender",
          "type": "address"
        }
      ],
      "name": "RoleRevoked",
      "type": "event"
    },
    {
      "anonymous": false,
      "inputs": [
        {
          "indexed": false,
          "internalType": "uint32",
          "name": "_index",
          "type": "uint32"
        },
        {
          "indexed": false,
          "internalType": "address",
          "name": "sender",
          "type": "address"
        },
        {
          "indexed": false,
          "internalType": "uint256",
          "name": "amount",
          "type": "uint256"
        },
        {
          "indexed": false,
          "internalType": "uint256",
          "name": "lton",
          "type": "uint256"
        },
        {
          "indexed": false,
          "internalType": "address",
          "name": "commissionTo",
          "type": "address"
        },
        {
          "indexed": false,
          "internalType": "uint16",
          "name": "commission",
          "type": "uint16"
        }
      ],
      "name": "Staked",
      "type": "event"
    },
    {
      "anonymous": false,
      "inputs": [
        {
          "indexed": false,
          "internalType": "uint32",
          "name": "_index",
          "type": "uint32"
        },
        {
          "indexed": false,
          "internalType": "address",
          "name": "sender",
          "type": "address"
        },
        {
          "indexed": false,
          "internalType": "uint256",
          "name": "amount",
          "type": "uint256"
        },
        {
          "indexed": false,
          "internalType": "uint256",
          "name": "lton",
          "type": "uint256"
        }
      ],
      "name": "Unstaked",
      "type": "event"
    },
    {
      "anonymous": false,
      "inputs": [
        {
          "indexed": false,
          "internalType": "uint32",
          "name": "_index",
          "type": "uint32"
        },
        {
          "indexed": false,
          "internalType": "address",
          "name": "sender",
          "type": "address"
        },
        {
          "indexed": false,
          "internalType": "uint256",
          "name": "amount",
          "type": "uint256"
        }
      ],
      "name": "Withdrawal",
      "type": "event"
    },
    {
      "inputs": [],
      "name": "ADMIN_ROLE",
      "outputs": [
        {
          "internalType": "bytes32",
          "name": "",
          "type": "bytes32"
        }
      ],
      "stateMutability": "view",
      "type": "function"
    },
    {
      "inputs": [],
      "name": "DEFAULT_ADMIN_ROLE",
      "outputs": [
        {
          "internalType": "bytes32",
          "name": "",
          "type": "bytes32"
        }
      ],
      "stateMutability": "view",
      "type": "function"
    },
    {
      "inputs": [],
      "name": "POLICY_ROLE",
      "outputs": [
        {
          "internalType": "bytes32",
          "name": "",
          "type": "bytes32"
        }
      ],
      "stateMutability": "view",
      "type": "function"
    },
    {
      "inputs": [
        {
          "internalType": "address",
          "name": "account",
          "type": "address"
        }
      ],
      "name": "addAdmin",
      "outputs": [],
      "stateMutability": "nonpayable",
      "type": "function"
    },
    {
      "inputs": [
        {
          "internalType": "address",
          "name": "",
          "type": "address"
        }
      ],
      "name": "aliveImplementation",
      "outputs": [
        {
          "internalType": "bool",
          "name": "",
          "type": "bool"
        }
      ],
      "stateMutability": "view",
      "type": "function"
    },
    {
      "inputs": [
        {
          "internalType": "uint32",
          "name": "layerIndex",
          "type": "uint32"
        },
        {
          "internalType": "address",
          "name": "account",
          "type": "address"
        }
      ],
      "name": "amountOfPendings",
      "outputs": [
        {
          "internalType": "uint256",
          "name": "amount",
          "type": "uint256"
        },
        {
          "internalType": "uint32",
          "name": "startIndex",
          "type": "uint32"
        },
        {
          "internalType": "uint32",
          "name": "len",
          "type": "uint32"
        },
        {
          "internalType": "uint32",
          "name": "nextWithdrawableBlockNumber",
          "type": "uint32"
        }
      ],
      "stateMutability": "view",
      "type": "function"
    },
    {
      "inputs": [
        {
          "internalType": "uint32",
          "name": "_index",
          "type": "uint32"
        },
        {
          "internalType": "address",
          "name": "account",
          "type": "address"
        }
      ],
      "name": "availableWithdraw",
      "outputs": [
        {
          "internalType": "uint256",
          "name": "amount",
          "type": "uint256"
        },
        {
          "internalType": "uint32",
          "name": "startIndex",
          "type": "uint32"
        },
        {
          "internalType": "uint32",
          "name": "len",
          "type": "uint32"
        }
      ],
      "stateMutability": "view",
      "type": "function"
    },
    {
      "inputs": [
        {
          "internalType": "uint32",
          "name": "_index",
          "type": "uint32"
        },
        {
          "internalType": "address",
          "name": "account",
          "type": "address"
        }
      ],
      "name": "balanceOf",
      "outputs": [
        {
          "internalType": "uint256",
          "name": "amount",
          "type": "uint256"
        }
      ],
      "stateMutability": "view",
      "type": "function"
    },
    {
      "inputs": [
        {
          "internalType": "uint32",
          "name": "_index",
          "type": "uint32"
        },
        {
          "internalType": "address",
          "name": "account",
          "type": "address"
        },
        {
          "internalType": "uint256",
          "name": "snapshotId",
          "type": "uint256"
        }
      ],
      "name": "balanceOfAt",
      "outputs": [
        {
          "internalType": "uint256",
          "name": "amount",
          "type": "uint256"
        }
      ],
      "stateMutability": "view",
      "type": "function"
    },
    {
      "inputs": [
        {
          "internalType": "uint32",
          "name": "_index",
          "type": "uint32"
        },
        {
          "internalType": "address",
          "name": "account",
          "type": "address"
        }
      ],
      "name": "balanceOfLton",
      "outputs": [
        {
          "internalType": "uint256",
          "name": "amount",
          "type": "uint256"
        }
      ],
      "stateMutability": "view",
      "type": "function"
    },
    {
      "inputs": [
        {
          "internalType": "uint32",
          "name": "_index",
          "type": "uint32"
        }
      ],
      "name": "balanceOfLton",
      "outputs": [
        {
          "internalType": "uint256",
          "name": "amount",
          "type": "uint256"
        }
      ],
      "stateMutability": "view",
      "type": "function"
    },
    {
      "inputs": [
        {
          "internalType": "uint32",
          "name": "_index",
          "type": "uint32"
        },
        {
          "internalType": "address",
          "name": "account",
          "type": "address"
        },
        {
          "internalType": "uint256",
          "name": "snapshotId",
          "type": "uint256"
        }
      ],
      "name": "balanceOfLtonAt",
      "outputs": [
        {
          "internalType": "uint256",
          "name": "amount",
          "type": "uint256"
        }
      ],
      "stateMutability": "view",
      "type": "function"
    },
    {
      "inputs": [
        {
          "internalType": "uint32",
          "name": "_index",
          "type": "uint32"
        },
        {
          "internalType": "uint256",
          "name": "snapshotId",
          "type": "uint256"
        }
      ],
      "name": "balanceOfLtonAt",
      "outputs": [
        {
          "internalType": "uint256",
          "name": "amount",
          "type": "uint256"
        }
      ],
      "stateMutability": "view",
      "type": "function"
    },
    {
      "inputs": [
        {
          "internalType": "uint32",
          "name": "_index",
          "type": "uint32"
        },
        {
          "internalType": "uint256",
          "name": "snapshotId",
          "type": "uint256"
        }
      ],
      "name": "balanceOfLtonAtSnapshot",
      "outputs": [
        {
          "internalType": "bool",
          "name": "snapshotted",
          "type": "bool"
        },
        {
          "internalType": "uint256",
          "name": "amount",
          "type": "uint256"
        }
      ],
      "stateMutability": "view",
      "type": "function"
    },
    {
      "inputs": [
        {
          "internalType": "uint32",
          "name": "_index",
          "type": "uint32"
        },
        {
          "internalType": "address",
          "name": "account",
          "type": "address"
        },
        {
          "internalType": "uint256",
          "name": "snapshotId",
          "type": "uint256"
        }
      ],
      "name": "balanceOfLtonAtSnapshot",
      "outputs": [
        {
          "internalType": "bool",
          "name": "snapshotted",
          "type": "bool"
        },
        {
          "internalType": "uint256",
          "name": "amount",
          "type": "uint256"
        }
      ],
      "stateMutability": "view",
      "type": "function"
    },
    {
      "inputs": [
        {
          "internalType": "bytes32",
          "name": "hashMessage",
          "type": "bytes32"
        },
        {
          "internalType": "uint32",
          "name": "layerIndex",
          "type": "uint32"
        },
        {
          "internalType": "address",
          "name": "from",
          "type": "address"
        },
        {
          "internalType": "address",
          "name": "to",
          "type": "address"
        },
        {
          "internalType": "uint256",
          "name": "amount",
          "type": "uint256"
        }
      ],
      "name": "fastWithdrawClaim",
      "outputs": [
        {
          "internalType": "bool",
          "name": "",
          "type": "bool"
        }
      ],
      "stateMutability": "nonpayable",
      "type": "function"
    },
    {
      "inputs": [
        {
          "internalType": "bytes32",
          "name": "hashMessage",
          "type": "bytes32"
        },
        {
          "internalType": "uint32",
          "name": "layerIndex",
          "type": "uint32"
        },
        {
          "internalType": "address",
          "name": "staker",
          "type": "address"
        },
        {
          "internalType": "uint256",
          "name": "_amount",
          "type": "uint256"
        }
      ],
      "name": "fastWithdrawStake",
      "outputs": [
        {
          "internalType": "bool",
          "name": "",
          "type": "bool"
        }
      ],
      "stateMutability": "nonpayable",
      "type": "function"
    },
    {
      "inputs": [],
      "name": "fwReceipt",
      "outputs": [
        {
          "internalType": "address",
          "name": "",
          "type": "address"
        }
      ],
      "stateMutability": "view",
      "type": "function"
    },
    {
      "inputs": [],
      "name": "getCurrentSnapshotId",
      "outputs": [
        {
          "internalType": "uint256",
          "name": "",
          "type": "uint256"
        }
      ],
      "stateMutability": "view",
      "type": "function"
    },
    {
      "inputs": [
        {
          "internalType": "uint32",
          "name": "_index",
          "type": "uint32"
        },
        {
          "internalType": "address",
          "name": "account",
          "type": "address"
        }
      ],
      "name": "getLayerStakes",
      "outputs": [
        {
          "components": [
            {
              "internalType": "uint256",
              "name": "stakePrincipal",
              "type": "uint256"
            },
            {
              "internalType": "uint256",
              "name": "stakelton",
              "type": "uint256"
            },
            {
              "internalType": "bool",
              "name": "stake",
              "type": "bool"
            }
          ],
          "internalType": "struct LibStake.StakeInfo",
          "name": "info",
          "type": "tuple"
        }
      ],
      "stateMutability": "view",
      "type": "function"
    },
    {
      "inputs": [
        {
          "internalType": "uint32",
          "name": "_index",
          "type": "uint32"
        },
        {
          "internalType": "address",
          "name": "account",
          "type": "address"
        }
      ],
      "name": "getPendingUnstakedAmount",
      "outputs": [
        {
          "internalType": "uint256",
          "name": "",
          "type": "uint256"
        }
      ],
      "stateMutability": "view",
      "type": "function"
    },
    {
      "inputs": [
        {
          "internalType": "bytes32",
          "name": "role",
          "type": "bytes32"
        }
      ],
      "name": "getRoleAdmin",
      "outputs": [
        {
          "internalType": "bytes32",
          "name": "",
          "type": "bytes32"
        }
      ],
      "stateMutability": "view",
      "type": "function"
    },
    {
      "inputs": [],
      "name": "getStakeAccountList",
      "outputs": [
        {
          "internalType": "address[]",
          "name": "",
          "type": "address[]"
        }
      ],
      "stateMutability": "view",
      "type": "function"
    },
    {
      "inputs": [],
      "name": "getTotalLton",
      "outputs": [
        {
          "internalType": "uint256",
          "name": "",
          "type": "uint256"
        }
      ],
      "stateMutability": "view",
      "type": "function"
    },
    {
      "inputs": [
        {
          "internalType": "bytes32",
          "name": "role",
          "type": "bytes32"
        },
        {
          "internalType": "address",
          "name": "account",
          "type": "address"
        }
      ],
      "name": "grantRole",
      "outputs": [],
      "stateMutability": "nonpayable",
      "type": "function"
    },
    {
      "inputs": [
        {
          "internalType": "bytes32",
          "name": "role",
          "type": "bytes32"
        },
        {
          "internalType": "address",
          "name": "account",
          "type": "address"
        }
      ],
      "name": "hasRole",
      "outputs": [
        {
          "internalType": "bool",
          "name": "",
          "type": "bool"
        }
      ],
      "stateMutability": "view",
      "type": "function"
    },
    {
      "inputs": [
        {
          "internalType": "address",
          "name": "account",
          "type": "address"
        }
      ],
      "name": "isAdmin",
      "outputs": [
        {
          "internalType": "bool",
          "name": "",
          "type": "bool"
        }
      ],
      "stateMutability": "view",
      "type": "function"
    },
    {
      "inputs": [
        {
          "internalType": "uint32",
          "name": "_index",
          "type": "uint32"
        }
      ],
      "name": "layer2Deposits",
      "outputs": [
        {
          "internalType": "uint256",
          "name": "amount",
          "type": "uint256"
        }
      ],
      "stateMutability": "view",
      "type": "function"
    },
    {
      "inputs": [],
      "name": "layer2Manager",
      "outputs": [
        {
          "internalType": "address",
          "name": "",
          "type": "address"
        }
      ],
      "stateMutability": "view",
      "type": "function"
    },
    {
      "inputs": [
        {
          "internalType": "uint32",
          "name": "",
          "type": "uint32"
        }
      ],
      "name": "layerInfo",
      "outputs": [
        {
          "internalType": "bytes",
          "name": "",
          "type": "bytes"
        }
      ],
      "stateMutability": "view",
      "type": "function"
    },
    {
      "inputs": [
        {
          "internalType": "uint32",
          "name": "",
          "type": "uint32"
        }
      ],
      "name": "layerStakedLton",
      "outputs": [
        {
          "internalType": "uint256",
          "name": "",
          "type": "uint256"
        }
      ],
      "stateMutability": "view",
      "type": "function"
    },
    {
      "inputs": [
        {
          "internalType": "uint32",
          "name": "",
          "type": "uint32"
        },
        {
          "internalType": "address",
          "name": "",
          "type": "address"
        }
      ],
      "name": "layerStakes",
      "outputs": [
        {
          "internalType": "uint256",
          "name": "stakePrincipal",
          "type": "uint256"
        },
        {
          "internalType": "uint256",
          "name": "stakelton",
          "type": "uint256"
        },
        {
          "internalType": "bool",
          "name": "stake",
          "type": "bool"
        }
      ],
      "stateMutability": "view",
      "type": "function"
    },
    {
      "inputs": [
        {
          "internalType": "uint32",
          "name": "layerIndex",
          "type": "uint32"
        },
        {
          "internalType": "address",
          "name": "account",
          "type": "address"
        }
      ],
      "name": "numberOfPendings",
      "outputs": [
        {
          "internalType": "uint256",
          "name": "totalRequests",
          "type": "uint256"
        },
        {
          "internalType": "uint256",
          "name": "withdrawIndex",
          "type": "uint256"
        },
        {
          "internalType": "uint256",
          "name": "pendingLength",
          "type": "uint256"
        }
      ],
      "stateMutability": "view",
      "type": "function"
    },
    {
      "inputs": [],
      "name": "pauseProxy",
      "outputs": [
        {
          "internalType": "bool",
          "name": "",
          "type": "bool"
        }
      ],
      "stateMutability": "view",
      "type": "function"
    },
    {
      "inputs": [
        {
          "internalType": "uint32",
          "name": "",
          "type": "uint32"
        },
        {
          "internalType": "address",
          "name": "",
          "type": "address"
        }
      ],
      "name": "pendingUnstaked",
      "outputs": [
        {
          "internalType": "uint256",
          "name": "",
          "type": "uint256"
        }
      ],
      "stateMutability": "view",
      "type": "function"
    },
    {
      "inputs": [
        {
          "internalType": "address",
          "name": "",
          "type": "address"
        }
      ],
      "name": "pendingUnstakedAccount",
      "outputs": [
        {
          "internalType": "uint256",
          "name": "",
          "type": "uint256"
        }
      ],
      "stateMutability": "view",
      "type": "function"
    },
    {
      "inputs": [
        {
          "internalType": "uint32",
          "name": "",
          "type": "uint32"
        }
      ],
      "name": "pendingUnstakedLayer2",
      "outputs": [
        {
          "internalType": "uint256",
          "name": "",
          "type": "uint256"
        }
      ],
      "stateMutability": "view",
      "type": "function"
    },
    {
      "inputs": [
        {
          "internalType": "uint256",
          "name": "",
          "type": "uint256"
        }
      ],
      "name": "proxyImplementation",
      "outputs": [
        {
          "internalType": "address",
          "name": "",
          "type": "address"
        }
      ],
      "stateMutability": "view",
      "type": "function"
    },
    {
      "inputs": [
        {
          "internalType": "address",
          "name": "account",
          "type": "address"
        }
      ],
      "name": "removeAdmin",
      "outputs": [],
      "stateMutability": "nonpayable",
      "type": "function"
    },
    {
      "inputs": [
        {
          "internalType": "bytes32",
          "name": "role",
          "type": "bytes32"
        },
        {
          "internalType": "address",
          "name": "account",
          "type": "address"
        }
      ],
      "name": "renounceRole",
      "outputs": [],
      "stateMutability": "nonpayable",
      "type": "function"
    },
    {
      "inputs": [
        {
          "internalType": "uint32",
          "name": "_index",
          "type": "uint32"
        }
      ],
      "name": "restake",
      "outputs": [],
      "stateMutability": "nonpayable",
      "type": "function"
    },
    {
      "inputs": [
        {
          "internalType": "uint32",
          "name": "_index",
          "type": "uint32"
        },
        {
          "internalType": "uint256",
          "name": "n",
          "type": "uint256"
        }
      ],
      "name": "restakeMulti",
      "outputs": [],
      "stateMutability": "nonpayable",
      "type": "function"
    },
    {
      "inputs": [
        {
          "internalType": "bytes32",
          "name": "role",
          "type": "bytes32"
        },
        {
          "internalType": "address",
          "name": "account",
          "type": "address"
        }
      ],
      "name": "revokeRole",
      "outputs": [],
      "stateMutability": "nonpayable",
      "type": "function"
    },
    {
      "inputs": [],
      "name": "seigManagerV2",
      "outputs": [
        {
          "internalType": "address",
          "name": "",
          "type": "address"
        }
      ],
      "stateMutability": "view",
      "type": "function"
    },
    {
      "inputs": [
        {
          "internalType": "bytes4",
          "name": "",
          "type": "bytes4"
        }
      ],
      "name": "selectorImplementation",
      "outputs": [
        {
          "internalType": "address",
          "name": "",
          "type": "address"
        }
      ],
      "stateMutability": "view",
      "type": "function"
    },
    {
      "inputs": [
        {
          "internalType": "uint256",
          "name": "",
          "type": "uint256"
        }
      ],
      "name": "stakeAccountList",
      "outputs": [
        {
          "internalType": "address",
          "name": "",
          "type": "address"
        }
      ],
      "stateMutability": "view",
      "type": "function"
    },
    {
      "inputs": [
        {
          "internalType": "bytes4",
          "name": "interfaceId",
          "type": "bytes4"
        }
      ],
      "name": "supportsInterface",
      "outputs": [
        {
          "internalType": "bool",
          "name": "",
          "type": "bool"
        }
      ],
      "stateMutability": "view",
      "type": "function"
    },
    {
      "inputs": [],
      "name": "ton",
      "outputs": [
        {
          "internalType": "address",
          "name": "",
          "type": "address"
        }
      ],
      "stateMutability": "view",
      "type": "function"
    },
    {
      "inputs": [],
      "name": "totalLayer2Deposits",
      "outputs": [
        {
          "internalType": "uint256",
          "name": "amount",
          "type": "uint256"
        }
      ],
      "stateMutability": "view",
      "type": "function"
    },
    {
      "inputs": [],
      "name": "totalStakeAccountList",
      "outputs": [
        {
          "internalType": "uint256",
          "name": "",
          "type": "uint256"
        }
      ],
      "stateMutability": "view",
      "type": "function"
    },
    {
      "inputs": [],
      "name": "totalStakedLton",
      "outputs": [
        {
          "internalType": "uint256",
          "name": "amount",
          "type": "uint256"
        }
      ],
      "stateMutability": "view",
      "type": "function"
    },
    {
      "inputs": [
        {
          "internalType": "uint256",
          "name": "snapshotId",
          "type": "uint256"
        }
      ],
      "name": "totalStakedLtonAt",
      "outputs": [
        {
          "internalType": "uint256",
          "name": "amount",
          "type": "uint256"
        }
      ],
      "stateMutability": "view",
      "type": "function"
    },
    {
      "inputs": [
        {
          "internalType": "uint256",
          "name": "snapshotId",
          "type": "uint256"
        }
      ],
      "name": "totalStakedLtonAtSnapshot",
      "outputs": [
        {
          "internalType": "bool",
          "name": "snapshotted",
          "type": "bool"
        },
        {
          "internalType": "uint256",
          "name": "amount",
          "type": "uint256"
        }
      ],
      "stateMutability": "view",
      "type": "function"
    },
    {
      "inputs": [
        {
          "internalType": "address",
          "name": "newAdmin",
          "type": "address"
        }
      ],
      "name": "transferAdmin",
      "outputs": [],
      "stateMutability": "nonpayable",
      "type": "function"
    },
    {
      "inputs": [
        {
          "internalType": "uint32",
          "name": "_index",
          "type": "uint32"
        }
      ],
      "name": "withdraw",
      "outputs": [],
      "stateMutability": "nonpayable",
      "type": "function"
    },
    {
      "inputs": [
        {
          "internalType": "uint32",
          "name": "",
          "type": "uint32"
        },
        {
          "internalType": "address",
          "name": "",
          "type": "address"
        }
      ],
      "name": "withdrawalRequestIndex",
      "outputs": [
        {
          "internalType": "uint256",
          "name": "",
          "type": "uint256"
        }
      ],
      "stateMutability": "view",
      "type": "function"
    },
    {
      "inputs": [
        {
          "internalType": "uint32",
          "name": "",
          "type": "uint32"
        },
        {
          "internalType": "address",
          "name": "",
          "type": "address"
        },
        {
          "internalType": "uint256",
          "name": "",
          "type": "uint256"
        }
      ],
      "name": "withdrawalRequests",
      "outputs": [
        {
          "internalType": "uint32",
          "name": "withdrawableBlockNumber",
          "type": "uint32"
        },
        {
          "internalType": "uint128",
          "name": "amount",
          "type": "uint128"
        },
        {
          "internalType": "bool",
          "name": "processed",
          "type": "bool"
        }
      ],
      "stateMutability": "view",
      "type": "function"
    }
  ],
  "bytecode": "0x60806040526006805460ff1916600117905534801561001d57600080fd5b506131ff8061002d6000396000f3fe608060405234801561001057600080fd5b50600436106103835760003560e01c806373469a7a116101de578063a0b2a9131161010f578063b9cab971116100ad578063d547741f1161007c578063d547741f14610a0f578063e4f6815514610a22578063ec110d4514610a35578063f8d437ae14610a4857600080fd5b8063b9cab971146109b1578063cc48b947146109d1578063cdc76cf9146109e9578063d07918f1146109fc57600080fd5b8063b413b37a116100e9578063b413b37a1461053a578063b6a2f99d14610952578063b911135f14610980578063b969fbef146109a957600080fd5b8063a0b2a91314610917578063a217fddf14610937578063aa9224cd1461093f57600080fd5b80638c71762d1161017c57806391d148541161015657806391d148541461086057806394c89b2c1461089757806398238355146108aa5780639c656e26146108bd57600080fd5b80638c71762d146107da5780638d99e1ca1461080f5780638ddd87fe1461082257600080fd5b806375b238fc116101b857806375b238fc1461074f5780637cf1587c1461077657806385b9e485146107a15780638afec9fc146107b457600080fd5b806373469a7a14610716578063744a35611461072957806375829def1461073c57600080fd5b80634e1a264d116102b857806363a8fd89116102565780636d1ef103116102305780636d1ef1031461069157806370480275146106d057806370619cf9146106e35780637138c7921461070357600080fd5b806363a8fd8914610651578063659ab8201461065e5780636818a32b1461067e57600080fd5b80635439ad86116102925780635439ad8614610595578063550d01a31461059d5780635e2cfe45146105c05780635f1b989e146105eb57600080fd5b80634e1a264d1461053a5780634ec2f04b1461054257806350d2a2761461056c57600080fd5b8063248a9ca3116103255780632f2ff15d116102ff5780632f2ff15d146104f757806336568abe1461050a57806346bcdb491461051d5780634de131ca1461052557600080fd5b8063248a9ca3146104ae57806324d7806c146104d157806329637c1c146104e457600080fd5b80631785f53c116103615780631785f53c146103f05780631ed94495146104035780631f760d011461043a578063229852461461047957600080fd5b806301ffc9a714610388578063118e29d1146103b057806316b5d5bd146103c5575b600080fd5b61039b610396366004612d42565b610a5b565b60405190151581526020015b60405180910390f35b6103c36103be366004612d80565b610a92565b005b6008546103d8906001600160a01b031681565b6040516001600160a01b0390911681526020016103a7565b6103c36103fe366004612db2565b610b07565b610416610411366004612dcd565b610b94565b604080518251815260208084015190820152918101511515908201526060016103a7565b61044d610448366004612dcd565b610c13565b6040805194855263ffffffff9384166020860152918316918401919091521660608201526080016103a7565b6104a07ffb5864e8ff833c3cb2d2d08505e82ff02a43554c74a35d4f5a64e8526127831181565b6040519081526020016103a7565b6104a06104bc366004612e00565b60009081526020819052604090206001015490565b61039b6104df366004612db2565b610d51565b6104a06104f2366004612e19565b610d91565b6103c3610505366004612e55565b610e20565b6103c3610518366004612e55565b610e4a565b6017546104a0565b61052d610ed2565b6040516103a79190612e78565b600a546104a0565b610555610550366004612ec5565b610f34565b6040805192151583526020830191909152016103a7565b6103d861057a366004612d42565b6004602052600090815260409020546001600160a01b031681565b6104a0610f62565b61039b6105ab366004612db2565b60036020526000908152604090205460ff1681565b6104a06105ce366004612dcd565b601360209081526000928352604080842090915290825290205481565b6104a06105f9366004612dcd565b63ffffffff9091166000908152600f602090815260408083206001600160a01b03909416835292815290829020825160608101845281548152600182015492810183905260029091015460ff16151592019190915290565b60015461039b9060ff1681565b61067161066c366004612d80565b610fd5565b6040516103a79190612f3f565b6104a061068c366004612e19565b61106f565b6106a461069f366004612e19565b611113565b6040805163ffffffff90941684526001600160801b0390921660208401521515908201526060016103a7565b6103c36106de366004612db2565b611172565b6104a06106f1366004612d80565b600d6020526000908152604090205481565b61039b610711366004612f52565b6111fc565b6007546103d8906001600160a01b031681565b6103c3610737366004612ec5565b6113ce565b6103c361074a366004612db2565b611439565b6104a07fdf8b4c520ffe197c5343c6f5aec59570151ef9a492f2c624fd45ddde6135ec4281565b6104a0610784366004612dcd565b601260209081526000928352604080842090915290825290205481565b61039b6107af366004612f96565b61159b565b6104a06107c2366004612d80565b63ffffffff166000908152600d602052604090205490565b6107ed6107e8366004612dcd565b611840565b6040805193845263ffffffff92831660208501529116908201526060016103a7565b6104a061081d366004612d80565b61197d565b6104a0610830366004612dcd565b63ffffffff821660009081526013602090815260408083206001600160a01b038516845290915290205492915050565b61039b61086e366004612e55565b6000918252602082815260408084206001600160a01b0393909316845291905290205460ff1690565b6104a06108a5366004612dcd565b6119f0565b6105556108b8366004612e19565b611ab0565b6108fa6108cb366004612dcd565b600f60209081526000928352604080842090915290825290208054600182015460029092015490919060ff1683565b6040805193845260208401929092521515908201526060016103a7565b6104a0610925366004612db2565b60156020526000908152604090205481565b6104a0600081565b6103c361094d366004612d80565b611af2565b610965610960366004612dcd565b611f07565b604080519384526020840192909252908201526060016103a7565b6103d861098e366004612e00565b6002602052600090815260409020546001600160a01b031681565b6104a0611f62565b6104a06109bf366004612d80565b60146020526000908152604090205481565b6006546103d89061010090046001600160a01b031681565b6104a06109f7366004612ec5565b611fac565b6009546103d8906001600160a01b031681565b6103c3610a1d366004612e55565b611fff565b6104a0610a30366004612e00565b612024565b6103d8610a43366004612e00565b612045565b610555610a56366004612e00565b61206f565b60006001600160e01b03198216637965db0b60e01b1480610a8c57506301ffc9a760e01b6001600160e01b03198316145b92915050565b63ffffffff811660009081526012602090815260408083203380855292529091205490610ac3908390836001612086565b610b035760405162461bcd60e51b815260206004820152600c60248201526b534c5f455f52455354414b4560a01b60448201526064015b60405180910390fd5b5050565b610b1033610d51565b610b675760405162461bcd60e51b815260206004820152602260248201527f41636365737369626c653a2043616c6c6572206973206e6f7420616e2061646d60448201526134b760f11b6064820152608401610afa565b610b917fdf8b4c520ffe197c5343c6f5aec59570151ef9a492f2c624fd45ddde6135ec4282610e4a565b50565b610bba604051806060016040528060008152602001600081526020016000151581525090565b5063ffffffff9091166000908152600f602090815260408083206001600160a01b039094168352928152908290208251606081018452815481526001820154928101929092526002015460ff1615159181019190915290565b63ffffffff80831660008181526011602090815260408083206001600160a01b038716808552908352818420549484526012835281842090845290915281205490929091839182919084165b81811015610d465763ffffffff881660009081526011602090815260408083206001600160a01b038b1684529091528120805483908110610ca257610ca2612feb565b6000918252602080832060408051606081018252939091015463ffffffff8116845264010000000081046001600160801b031692840192909252600160a01b90910460ff1615159082018190529092509003610d33578363ffffffff16600003610d0b57805193505b6020810151610d23906001600160801b031688613017565b9650610d3060018661302a565b94505b5080610d3e8161304e565b915050610c5f565b505092959194509250565b6001600160a01b03811660009081527f5cbfc8ee58ca47855df7bcf648dd304ddb6b932f9b87878bdf6318d7ec7ee5b7602052604081205460ff16610a8c565b6007546000906001600160a01b0316638df40b2c610db086868661106f565b846040518363ffffffff1660e01b8152600401610dd7929190918252602082015260400190565b602060405180830381865afa158015610df4573d6000803e3d6000fd5b505050506040513d601f19601f82011682018060405250810190610e189190613067565b949350505050565b600082815260208190526040902060010154610e3b8161253d565b610e458383612547565b505050565b6001600160a01b0381163314610ec85760405162461bcd60e51b815260206004820152602f60248201527f416363657373436f6e74726f6c3a2063616e206f6e6c792072656e6f756e636560448201527f20726f6c657320666f722073656c6600000000000000000000000000000000006064820152608401610afa565b610b0382826125e5565b60606017805480602002602001604051908101604052809291908181526020018280548015610f2a57602002820191906000526020600020905b81546001600160a01b03168152600190910190602001808311610f0c575b5050505050905090565b63ffffffff82166000908152600e602052604081208190610f56908490612664565b915091505b9250929050565b60075460408051632a1cd6c360e11b815290516000926001600160a01b031691635439ad869160048083019260209291908290030181865afa158015610fac573d6000803e3d6000fd5b505050506040513d601f19601f82011682018060405250810190610fd09190613067565b905090565b60166020526000908152604090208054610fee90613080565b80601f016020809104026020016040519081016040528092919081815260200182805461101a90613080565b80156110675780601f1061103c57610100808354040283529160200191611067565b820191906000526020600020905b81548152906001019060200180831161104a57829003601f168201915b505050505081565b63ffffffff831660009081526010602090815260408083206001600160a01b03861684529091528120819081906110a7908590612664565b91509150816111075763ffffffff86166000908152600f602090815260408083206001600160a01b0389168452825291829020825160608101845281548152600182015492810183905260029091015460ff161515920191909152611109565b805b9695505050505050565b6011602052826000526040600020602052816000526040600020818154811061113b57600080fd5b60009182526020909120015463ffffffff8116935064010000000081046001600160801b03169250600160a01b900460ff16905083565b61117b33610d51565b6111d25760405162461bcd60e51b815260206004820152602260248201527f41636365737369626c653a2043616c6c6572206973206e6f7420616e2061646d60448201526134b760f11b6064820152608401610afa565b610b917fdf8b4c520ffe197c5343c6f5aec59570151ef9a492f2c624fd45ddde6135ec4282610e20565b6009546000906001600160a01b031633146112495760405162461bcd60e51b815260206004820152600d60248201526c232bafa1a0a62622a92fa2a92960991b6044820152606401610afa565b6112538484612787565b600754604051636a2fb1f560e01b8152600481018490526000916001600160a01b031690636a2fb1f590602401602060405180830381865afa15801561129d573d6000803e3d6000fd5b505050506040513d601f19601f820116820180604052508101906112c19190613067565b63ffffffff86166000908152600d60205260408120805492935083929091906112eb908490613017565b9250508190555080600a60008282546113049190613017565b909155505063ffffffff85166000908152600f602090815260408083206001600160a01b03881684529091528120805490918591839190611346908490613017565b92505081905550818160010160008282546113619190613017565b90915550506040805188815263ffffffff881660208201526001600160a01b03871681830152606081018690526080810184905290517f8cf204c07a4ce065cdd0c90963672bd384e5479ada88179bca8eb6075c02731f9181900360a00190a15060019695505050505050565b63ffffffff8216600090815260126020908152604080832033808552925290912054906113fe9084908385612086565b610e455760405162461bcd60e51b815260206004820152600c60248201526b534c5f455f52455354414b4560a01b6044820152606401610afa565b61144233610d51565b6114995760405162461bcd60e51b815260206004820152602260248201527f41636365737369626c653a2043616c6c6572206973206e6f7420616e2061646d60448201526134b760f11b6064820152608401610afa565b6001600160a01b0381166114ef5760405162461bcd60e51b815260206004820152601860248201527f41636365737369626c653a207a65726f206164647265737300000000000000006044820152606401610afa565b6001600160a01b03811633036115475760405162461bcd60e51b815260206004820152601660248201527f41636365737369626c653a2073616d652061646d696e000000000000000000006044820152606401610afa565b6115717fdf8b4c520ffe197c5343c6f5aec59570151ef9a492f2c624fd45ddde6135ec4282610e20565b610b917fdf8b4c520ffe197c5343c6f5aec59570151ef9a492f2c624fd45ddde6135ec4233610e4a565b60065460009060ff166115d95760405162461bcd60e51b8152600401610afa906020808252600490820152636c6f636b60e01b604082015260600190565b6006805460ff191690556009546001600160a01b0316331461162d5760405162461bcd60e51b815260206004820152600d60248201526c232bafa1a0a62622a92fa2a92960991b6044820152606401610afa565b8161163886866119f0565b10156116865760405162461bcd60e51b815260206004820152601960248201527f6c697175696469747920697320696e73756666696369656e74000000000000006044820152606401610afa565b6116908585612787565b6006546040516370a0823160e01b815230600482015260009161010090046001600160a01b0316906370a0823190602401602060405180830381865afa1580156116de573d6000803e3d6000fd5b505050506040513d601f19601f820116820180604052508101906117029190613067565b9050828110156117ad57801561172e5760065461172e9061010090046001600160a01b03168583612835565b6007546001600160a01b031663aad3ec968561174a84876130ba565b6040516001600160e01b031960e085901b1681526001600160a01b0390921660048301526024820152604401600060405180830381600087803b15801561179057600080fd5b505af11580156117a4573d6000803e3d6000fd5b505050506117c9565b6006546117c99061010090046001600160a01b03168585612835565b6040805188815263ffffffff881660208201526001600160a01b0387811682840152861660608201526080810185905290517f77fbf71434da34ef2aa8382e2b751b6b2de7bd18d96a07ff7f4dae7dae9237619181900360a00190a160019150506006805460ff1916600117905595945050505050565b63ffffffff80831660008181526011602090815260408083206001600160a01b038716808552908352818420549484526012835281842090845290915281205490929091839183165b818110156119745763ffffffff871660009081526011602090815260408083206001600160a01b038a16845290915281208054839081106118cc576118cc612feb565b600091825260209182902060408051606081018252929091015463ffffffff811680845264010000000082046001600160801b031694840194909452600160a01b900460ff1615159082015291504311801561192a57506040810151155b1561195b576020810151611947906001600160801b031687613017565b955061195460018561302a565b9350611961565b50611974565b508061196c8161304e565b915050611889565b50509250925092565b6008546040516346ccf0e560e11b815263ffffffff831660048201526000916001600160a01b031690638d99e1ca90602401602060405180830381865afa1580156119cc573d6000803e3d6000fd5b505050506040513d601f19601f82011682018060405250810190610a8c9190613067565b60075463ffffffff83166000908152600f602090815260408083206001600160a01b038681168552908352818420825160608101845281548152600182015494810185905260029091015460ff16151590830152905163cdf6800960e01b815260048101929092529192919091169063cdf6800990602401602060405180830381865afa158015611a85573d6000803e3d6000fd5b505050506040513d601f19601f82011682018060405250810190611aa99190613067565b9392505050565b63ffffffff831660009081526010602090815260408083206001600160a01b038616845290915281208190611ae6908490612664565b91509150935093915050565b60065460ff16611b2d5760405162461bcd60e51b8152600401610afa906020808252600490820152636c6f636b60e01b604082015260600190565b6006805460ff1916905563ffffffff811660008181526011602090815260408083203380855290835281842054948452601283528184208185529092528220549092919081905b83811015611c465763ffffffff861660009081526011602090815260408083206001600160a01b03891684529091528120805483908110611bb757611bb7612feb565b600091825260209091200180549091504363ffffffff909116108015611be657508054600160a01b900460ff16155b15611c2d57805460ff60a01b1916600160a01b17808255611c19906001600160801b036401000000009091041684613017565b925083611c258161304e565b945050611c33565b50611c46565b5080611c3e8161304e565b915050611b74565b5060008111611c975760405162461bcd60e51b815260206004820181905260248201527f7a65726f20617661696c61626c65207769746864726177616c20616d6f756e746044820152606401610afa565b63ffffffff851660009081526012602090815260408083206001600160a01b038816845290915281208054849290611cd0908490613017565b909155505063ffffffff851660009081526013602090815260408083206001600160a01b038816845290915281208054839290611d0e9084906130ba565b909155505063ffffffff851660009081526014602052604081208054839290611d389084906130ba565b90915550506001600160a01b03841660009081526015602052604081208054839290611d659084906130ba565b90915550506006546040516370a0823160e01b815230600482015260009161010090046001600160a01b0316906370a0823190602401602060405180830381865afa158015611db8573d6000803e3d6000fd5b505050506040513d601f19601f82011682018060405250810190611ddc9190613067565b905081811015611e87578015611e0857600654611e089061010090046001600160a01b03168683612835565b6007546001600160a01b031663aad3ec9686611e2484866130ba565b6040516001600160e01b031960e085901b1681526001600160a01b0390921660048301526024820152604401600060405180830381600087803b158015611e6a57600080fd5b505af1158015611e7e573d6000803e3d6000fd5b50505050611ea3565b600654611ea39061010090046001600160a01b03168684612835565b6040805163ffffffff881681526001600160a01b03871660208201529081018390527f2d6eb139d2002caa088da5527d9d62f2f23bdf4504f5559a112535c436c6ee599060600160405180910390a150506006805460ff1916600117905550505050565b63ffffffff821660008181526011602090815260408083206001600160a01b038616808552908352818420549484526012835281842090845290915281205490818310611f5b57611f5882846130ba565b90505b9250925092565b6008546040805163b969fbef60e01b815290516000926001600160a01b03169163b969fbef9160048083019260209291908290030181865afa158015610fac573d6000803e3d6000fd5b63ffffffff82166000908152600e6020526040812081908190611fd0908590612664565b9150915081611ff45763ffffffff85166000908152600d6020526040902054611ff6565b805b95945050505050565b60008281526020819052604090206001015461201a8161253d565b610e4583836125e5565b600080600061203484600b612664565b9150915081611aa957600a54610e18565b6017818154811061205557600080fd5b6000918252602090912001546001600160a01b0316905081565b60008061207d83600b612664565b91509150915091565b60065460009060ff166120c45760405162461bcd60e51b8152600401610afa906020808252600490820152636c6f636b60e01b604082015260600190565b6006805460ff191690556120d88585612787565b63ffffffff851660009081526011602090815260408083206001600160a01b03881684529091528120548061213c5760405162461bcd60e51b815260206004820152600a6024820152696e6f20756e7374616b6560b01b6044820152606401610afa565b8361214786836130ba565b10156121955760405162461bcd60e51b815260206004820152601860248201527f6e2065786365656473206e756d206f662070656e64696e6700000000000000006044820152606401610afa565b60006121a18587613017565b90505b808610156122975763ffffffff881660009081526011602090815260408083206001600160a01b038b16845290915281208054889081106121e7576121e7612feb565b6000918252602090912001805490915064010000000081046001600160801b031690600160a01b900460ff16156122605760405162461bcd60e51b815260206004820152601260248201527f616c7265616479207769746864726177616c00000000000000000000000000006044820152606401610afa565b8015612273576122708186613017565b94505b50805460ff60a01b1916600160a01b1790558561228f8161304e565b9650506121a4565b600083116122e75760405162461bcd60e51b815260206004820152601760248201527f6e6f2076616c69642072657374616b6520616d6f756e740000000000000000006044820152606401610afa565b600754604051636a2fb1f560e01b8152600481018590526000916001600160a01b031690636a2fb1f590602401602060405180830381865afa158015612331573d6000803e3d6000fd5b505050506040513d601f19601f820116820180604052508101906123559190613067565b63ffffffff8a166000908152600f602090815260408083206001600160a01b038d168452909152812080549293509186918391612393908490613017565b92505081905550818160010160008282546123ae9190613017565b909155505063ffffffff8a166000908152600d6020526040812080548492906123d8908490613017565b9250508190555081600a60008282546123f19190613017565b909155505063ffffffff8a1660009081526013602090815260408083206001600160a01b038d1684529091528120805487929061242f9084906130ba565b909155505063ffffffff8a16600090815260146020526040812080548792906124599084906130ba565b90915550506001600160a01b038916600090815260156020526040812080548792906124869084906130ba565b909155505063ffffffff8a1660009081526012602090815260408083206001600160a01b038d168452909152812080548992906124c4908490613017565b90915550506040805163ffffffff8c1681526001600160a01b038b166020820152908101869052606081018390527f34981dc0486069d2abbaddbc42e10b97cb24e4bce60ee4457e1d5062dfc0b4299060800160405180910390a16001955050505050506006805460ff19166001179055949350505050565b610b918133612965565b6000828152602081815260408083206001600160a01b038516845290915290205460ff16610b03576000828152602081815260408083206001600160a01b03851684529091529020805460ff191660011790556125a13390565b6001600160a01b0316816001600160a01b0316837f2f8788117e7eff1d82e926ec794901d17c78024a50270940304540a733656f0d60405160405180910390a45050565b6000828152602081815260408083206001600160a01b038516845290915290205460ff1615610b03576000828152602081815260408083206001600160a01b0385168085529252808320805460ff1916905551339285917ff6391f5c32d9c69d2a47ea670b442974b53935d1edc7fd64eb21e047a839171b9190a45050565b60008061266f610f62565b8411156126be5760405162461bcd60e51b815260206004820152601860248201527f536e617073686f743a206e6f6e6578697374656e7420696400000000000000006044820152606401610afa565b8254158015906126f75750825483906126d9906001906130ba565b815481106126e9576126e9612feb565b906000526020600020015484115b1561273557825460009060018086019161271191906130ba565b8154811061272157612721612feb565b906000526020600020015491509150610f5b565b600061274184866129d8565b84549091508110612759576000809250925050610f5b565b600184600101828154811061277057612770612feb565b906000526020600020015492509250509250929050565b61279a600b612795600a5490565b612ae8565b63ffffffff82166000908152600e60209081526040808320600d909252909120546127c59190612ae8565b63ffffffff821660008181526010602090815260408083206001600160a01b038616808552908352818420948452600f8352818420908452825291829020825160608101845281548152600182015492810183905260029091015460ff161515920191909152610b039190612ae8565b604080516001600160a01b038481166024830152604480830185905283518084039091018152606490920183526020820180517bffffffffffffffffffffffffffffffffffffffffffffffffffffffff1663a9059cbb60e01b17905291516000928392908716916128a691906130cd565b6000604051808303816000865af19150503d80600081146128e3576040519150601f19603f3d011682016040523d82523d6000602084013e6128e8565b606091505b509150915081801561291257508051158061291257508080602001905181019061291291906130e9565b61295e5760405162461bcd60e51b815260206004820152600f60248201527f5452414e534645525f4641494c454400000000000000000000000000000000006044820152606401610afa565b5050505050565b6000828152602081815260408083206001600160a01b038516845290915290205460ff16610b035761299681612b3d565b6129a1836020612b4f565b6040516020016129b292919061310b565b60408051601f198184030181529082905262461bcd60e51b8252610afa91600401612f3f565b815460009081036129eb57506000610a8c565b825483906129fb906001906130ba565b81548110612a0b57612a0b612feb565b90600052602060002001548210612a31578254612a2a906001906130ba565b9050610a8c565b82600081548110612a4457612a44612feb565b9060005260206000200154821015612a5e57506000610a8c565b82546000908190612a71906001906130ba565b90505b81811115612ae05760006002612a8a8484613017565b612a95906001613017565b612a9f919061318c565b905084868281548110612ab457612ab4612feb565b906000526020600020015411612acc57809250612ada565b612ad76001826130ba565b91505b50612a74565b509392505050565b6000612af2610f62565b83549091501580612b0a575080612b0884612cf8565b105b15610e45578254600180820185556000858152602080822090930193909355938401805494850181558252902090910155565b6060610a8c6001600160a01b03831660145b60606000612b5e8360026131ae565b612b69906002613017565b67ffffffffffffffff811115612b8157612b816131c5565b6040519080825280601f01601f191660200182016040528015612bab576020820181803683370190505b509050600360fc1b81600081518110612bc657612bc6612feb565b60200101906001600160f81b031916908160001a905350600f60fb1b81600181518110612bf557612bf5612feb565b60200101906001600160f81b031916908160001a9053506000612c198460026131ae565b612c24906001613017565b90505b6001811115612ca9577f303132333435363738396162636465660000000000000000000000000000000085600f1660108110612c6557612c65612feb565b1a60f81b828281518110612c7b57612c7b612feb565b60200101906001600160f81b031916908160001a90535060049490941c93612ca2816131db565b9050612c27565b508315611aa95760405162461bcd60e51b815260206004820181905260248201527f537472696e67733a20686578206c656e67746820696e73756666696369656e746044820152606401610afa565b80546000908103612d0b57506000919050565b81548290612d1b906001906130ba565b81548110612d2b57612d2b612feb565b90600052602060002001549050919050565b919050565b600060208284031215612d5457600080fd5b81356001600160e01b031981168114611aa957600080fd5b803563ffffffff81168114612d3d57600080fd5b600060208284031215612d9257600080fd5b611aa982612d6c565b80356001600160a01b0381168114612d3d57600080fd5b600060208284031215612dc457600080fd5b611aa982612d9b565b60008060408385031215612de057600080fd5b612de983612d6c565b9150612df760208401612d9b565b90509250929050565b600060208284031215612e1257600080fd5b5035919050565b600080600060608486031215612e2e57600080fd5b612e3784612d6c565b9250612e4560208501612d9b565b9150604084013590509250925092565b60008060408385031215612e6857600080fd5b82359150612df760208401612d9b565b6020808252825182820181905260009190848201906040850190845b81811015612eb95783516001600160a01b031683529284019291840191600101612e94565b50909695505050505050565b60008060408385031215612ed857600080fd5b612ee183612d6c565b946020939093013593505050565b60005b83811015612f0a578181015183820152602001612ef2565b50506000910152565b60008151808452612f2b816020860160208601612eef565b601f01601f19169290920160200192915050565b602081526000611aa96020830184612f13565b60008060008060808587031215612f6857600080fd5b84359350612f7860208601612d6c565b9250612f8660408601612d9b565b9396929550929360600135925050565b600080600080600060a08688031215612fae57600080fd5b85359450612fbe60208701612d6c565b9350612fcc60408701612d9b565b9250612fda60608701612d9b565b949793965091946080013592915050565b634e487b7160e01b600052603260045260246000fd5b634e487b7160e01b600052601160045260246000fd5b80820180821115610a8c57610a8c613001565b63ffffffff81811683821601908082111561304757613047613001565b5092915050565b60006001820161306057613060613001565b5060010190565b60006020828403121561307957600080fd5b5051919050565b600181811c9082168061309457607f821691505b6020821081036130b457634e487b7160e01b600052602260045260246000fd5b50919050565b81810381811115610a8c57610a8c613001565b600082516130df818460208701612eef565b9190910192915050565b6000602082840312156130fb57600080fd5b81518015158114611aa957600080fd5b7f416363657373436f6e74726f6c3a206163636f756e7420000000000000000000815260008351613143816017850160208801612eef565b7f206973206d697373696e6720726f6c65200000000000000000000000000000006017918401918201528351613180816028840160208801612eef565b01602801949350505050565b6000826131a957634e487b7160e01b600052601260045260246000fd5b500490565b8082028115828204841417610a8c57610a8c613001565b634e487b7160e01b600052604160045260246000fd5b6000816131ea576131ea613001565b50600019019056fea164736f6c6343000812000a",
  "linkReferences": {},
  "deployedLinkReferences": {}
}