{
  "_format": "hh-sol-artifact-1",
  "contractName": "Staking",
  "sourceName": "contracts/Staking.sol",
  "abi": [
    {
      "inputs": [],
      "stateMutability": "nonpayable",
      "type": "constructor"
    },
    {
      "anonymous": false,
      "inputs": [
        {
          "indexed": false,
          "internalType": "bytes32",
          "name": "hashMessage",
          "type": "bytes32"
        },
        {
          "indexed": false,
          "internalType": "uint32",
          "name": "layerIndex",
          "type": "uint32"
        },
        {
          "indexed": false,
          "internalType": "address",
          "name": "from",
          "type": "address"
        },
        {
          "indexed": false,
          "internalType": "address",
          "name": "to",
          "type": "address"
        },
        {
          "indexed": false,
          "internalType": "uint256",
          "name": "amount",
          "type": "uint256"
        }
      ],
      "name": "FastWithdrawalClaim",
      "type": "event"
    },
    {
      "anonymous": false,
      "inputs": [
        {
          "indexed": false,
          "internalType": "bytes32",
          "name": "hashMessage",
          "type": "bytes32"
        },
        {
          "indexed": false,
          "internalType": "uint32",
          "name": "layerIndex",
          "type": "uint32"
        },
        {
          "indexed": false,
          "internalType": "address",
          "name": "staker",
          "type": "address"
        },
        {
          "indexed": false,
          "internalType": "uint256",
          "name": "amount",
          "type": "uint256"
        },
        {
          "indexed": false,
          "internalType": "uint256",
          "name": "lton",
          "type": "uint256"
        }
      ],
      "name": "FastWithdrawalStaked",
      "type": "event"
    },
    {
      "anonymous": false,
      "inputs": [
        {
          "indexed": false,
          "internalType": "uint32",
          "name": "_index",
          "type": "uint32"
        },
        {
          "indexed": false,
          "internalType": "address",
          "name": "sender",
          "type": "address"
        },
        {
          "indexed": false,
          "internalType": "uint256",
          "name": "amount",
          "type": "uint256"
        },
        {
          "indexed": false,
          "internalType": "uint256",
          "name": "lton",
          "type": "uint256"
        }
      ],
      "name": "Restaked",
      "type": "event"
    },
    {
      "anonymous": false,
      "inputs": [
        {
          "indexed": true,
          "internalType": "bytes32",
          "name": "role",
          "type": "bytes32"
        },
        {
          "indexed": true,
          "internalType": "bytes32",
          "name": "previousAdminRole",
          "type": "bytes32"
        },
        {
          "indexed": true,
          "internalType": "bytes32",
          "name": "newAdminRole",
          "type": "bytes32"
        }
      ],
      "name": "RoleAdminChanged",
      "type": "event"
    },
    {
      "anonymous": false,
      "inputs": [
        {
          "indexed": true,
          "internalType": "bytes32",
          "name": "role",
          "type": "bytes32"
        },
        {
          "indexed": true,
          "internalType": "address",
          "name": "account",
          "type": "address"
        },
        {
          "indexed": true,
          "internalType": "address",
          "name": "sender",
          "type": "address"
        }
      ],
      "name": "RoleGranted",
      "type": "event"
    },
    {
      "anonymous": false,
      "inputs": [
        {
          "indexed": true,
          "internalType": "bytes32",
          "name": "role",
          "type": "bytes32"
        },
        {
          "indexed": true,
          "internalType": "address",
          "name": "account",
          "type": "address"
        },
        {
          "indexed": true,
          "internalType": "address",
          "name": "sender",
          "type": "address"
        }
      ],
      "name": "RoleRevoked",
      "type": "event"
    },
    {
      "anonymous": false,
      "inputs": [
        {
          "indexed": false,
          "internalType": "uint32",
          "name": "_index",
          "type": "uint32"
        },
        {
          "indexed": false,
          "internalType": "address",
          "name": "sender",
          "type": "address"
        },
        {
          "indexed": false,
          "internalType": "uint256",
          "name": "amount",
          "type": "uint256"
        },
        {
          "indexed": false,
          "internalType": "uint256",
          "name": "lton",
          "type": "uint256"
        },
        {
          "indexed": false,
          "internalType": "address",
          "name": "commissionTo",
          "type": "address"
        },
        {
          "indexed": false,
          "internalType": "uint16",
          "name": "commission",
          "type": "uint16"
        }
      ],
      "name": "Staked",
      "type": "event"
    },
    {
      "anonymous": false,
      "inputs": [
        {
          "indexed": false,
          "internalType": "uint32",
          "name": "_index",
          "type": "uint32"
        },
        {
          "indexed": false,
          "internalType": "address",
          "name": "sender",
          "type": "address"
        },
        {
          "indexed": false,
          "internalType": "uint256",
          "name": "amount",
          "type": "uint256"
        },
        {
          "indexed": false,
          "internalType": "uint256",
          "name": "lton",
          "type": "uint256"
        }
      ],
      "name": "Unstaked",
      "type": "event"
    },
    {
      "anonymous": false,
      "inputs": [
        {
          "indexed": false,
          "internalType": "uint32",
          "name": "_index",
          "type": "uint32"
        },
        {
          "indexed": false,
          "internalType": "address",
          "name": "sender",
          "type": "address"
        },
        {
          "indexed": false,
          "internalType": "uint256",
          "name": "amount",
          "type": "uint256"
        }
      ],
      "name": "Withdrawal",
      "type": "event"
    },
    {
      "inputs": [],
      "name": "ADMIN_ROLE",
      "outputs": [
        {
          "internalType": "bytes32",
          "name": "",
          "type": "bytes32"
        }
      ],
      "stateMutability": "view",
      "type": "function"
    },
    {
      "inputs": [],
      "name": "DEFAULT_ADMIN_ROLE",
      "outputs": [
        {
          "internalType": "bytes32",
          "name": "",
          "type": "bytes32"
        }
      ],
      "stateMutability": "view",
      "type": "function"
    },
    {
      "inputs": [],
      "name": "POLICY_ROLE",
      "outputs": [
        {
          "internalType": "bytes32",
          "name": "",
          "type": "bytes32"
        }
      ],
      "stateMutability": "view",
      "type": "function"
    },
    {
      "inputs": [
        {
          "internalType": "address",
          "name": "account",
          "type": "address"
        }
      ],
      "name": "addAdmin",
      "outputs": [],
      "stateMutability": "nonpayable",
      "type": "function"
    },
    {
      "inputs": [
        {
          "internalType": "address",
          "name": "",
          "type": "address"
        }
      ],
      "name": "aliveImplementation",
      "outputs": [
        {
          "internalType": "bool",
          "name": "",
          "type": "bool"
        }
      ],
      "stateMutability": "view",
      "type": "function"
    },
    {
      "inputs": [
        {
          "internalType": "uint32",
          "name": "layerIndex",
          "type": "uint32"
        },
        {
          "internalType": "address",
          "name": "account",
          "type": "address"
        }
      ],
      "name": "amountOfPendings",
      "outputs": [
        {
          "internalType": "uint256",
          "name": "amount",
          "type": "uint256"
        },
        {
          "internalType": "uint32",
          "name": "startIndex",
          "type": "uint32"
        },
        {
          "internalType": "uint32",
          "name": "len",
          "type": "uint32"
        },
        {
          "internalType": "uint32",
          "name": "nextWithdrawableBlockNumber",
          "type": "uint32"
        }
      ],
      "stateMutability": "view",
      "type": "function"
    },
    {
      "inputs": [
        {
          "internalType": "uint32",
          "name": "_index",
          "type": "uint32"
        },
        {
          "internalType": "address",
          "name": "account",
          "type": "address"
        }
      ],
      "name": "availableWithdraw",
      "outputs": [
        {
          "internalType": "uint256",
          "name": "amount",
          "type": "uint256"
        },
        {
          "internalType": "uint32",
          "name": "startIndex",
          "type": "uint32"
        },
        {
          "internalType": "uint32",
          "name": "len",
          "type": "uint32"
        }
      ],
      "stateMutability": "view",
      "type": "function"
    },
    {
      "inputs": [
        {
          "internalType": "uint32",
          "name": "_index",
          "type": "uint32"
        },
        {
          "internalType": "address",
          "name": "account",
          "type": "address"
        }
      ],
      "name": "balanceOf",
      "outputs": [
        {
          "internalType": "uint256",
          "name": "amount",
          "type": "uint256"
        }
      ],
      "stateMutability": "view",
      "type": "function"
    },
    {
      "inputs": [
        {
          "internalType": "uint32",
          "name": "_index",
          "type": "uint32"
        },
        {
          "internalType": "address",
          "name": "account",
          "type": "address"
        }
      ],
      "name": "balanceOfLton",
      "outputs": [
        {
          "internalType": "uint256",
          "name": "amount",
          "type": "uint256"
        }
      ],
      "stateMutability": "view",
      "type": "function"
    },
    {
      "inputs": [
        {
          "internalType": "uint32",
          "name": "_index",
          "type": "uint32"
        }
      ],
      "name": "balanceOfLton",
      "outputs": [
        {
          "internalType": "uint256",
          "name": "amount",
          "type": "uint256"
        }
      ],
      "stateMutability": "view",
      "type": "function"
    },
    {
      "inputs": [
        {
          "internalType": "bytes32",
          "name": "hashMessage",
          "type": "bytes32"
        },
        {
          "internalType": "uint32",
          "name": "layerIndex",
          "type": "uint32"
        },
        {
          "internalType": "address",
          "name": "from",
          "type": "address"
        },
        {
          "internalType": "address",
          "name": "to",
          "type": "address"
        },
        {
          "internalType": "uint256",
          "name": "amount",
          "type": "uint256"
        }
      ],
      "name": "fastWithdrawClaim",
      "outputs": [
        {
          "internalType": "bool",
          "name": "",
          "type": "bool"
        }
      ],
      "stateMutability": "nonpayable",
      "type": "function"
    },
    {
      "inputs": [
        {
          "internalType": "bytes32",
          "name": "hashMessage",
          "type": "bytes32"
        },
        {
          "internalType": "uint32",
          "name": "layerIndex",
          "type": "uint32"
        },
        {
          "internalType": "address",
          "name": "staker",
          "type": "address"
        },
        {
          "internalType": "uint256",
          "name": "_amount",
          "type": "uint256"
        }
      ],
      "name": "fastWithdrawStake",
      "outputs": [
        {
          "internalType": "bool",
          "name": "",
          "type": "bool"
        }
      ],
      "stateMutability": "nonpayable",
      "type": "function"
    },
    {
      "inputs": [],
      "name": "fwReceipt",
      "outputs": [
        {
          "internalType": "address",
          "name": "",
          "type": "address"
        }
      ],
      "stateMutability": "view",
      "type": "function"
    },
    {
      "inputs": [
        {
          "internalType": "uint32",
          "name": "_index",
          "type": "uint32"
        },
        {
          "internalType": "address",
          "name": "account",
          "type": "address"
        }
      ],
      "name": "getLayerStakes",
      "outputs": [
        {
          "components": [
            {
              "internalType": "uint256",
              "name": "stakePrincipal",
              "type": "uint256"
            },
            {
              "internalType": "uint256",
              "name": "bondPrincipal",
              "type": "uint256"
            },
            {
              "internalType": "uint256",
              "name": "stakelton",
              "type": "uint256"
            },
            {
              "internalType": "bool",
              "name": "stake",
              "type": "bool"
            }
          ],
          "internalType": "struct LibStake.StakeInfo",
          "name": "info",
          "type": "tuple"
        }
      ],
      "stateMutability": "view",
      "type": "function"
    },
    {
      "inputs": [
        {
          "internalType": "uint32",
          "name": "_index",
          "type": "uint32"
        },
        {
          "internalType": "address",
          "name": "account",
          "type": "address"
        }
      ],
      "name": "getPendingUnstakedAmount",
      "outputs": [
        {
          "internalType": "uint256",
          "name": "",
          "type": "uint256"
        }
      ],
      "stateMutability": "view",
      "type": "function"
    },
    {
      "inputs": [
        {
          "internalType": "bytes32",
          "name": "role",
          "type": "bytes32"
        }
      ],
      "name": "getRoleAdmin",
      "outputs": [
        {
          "internalType": "bytes32",
          "name": "",
          "type": "bytes32"
        }
      ],
      "stateMutability": "view",
      "type": "function"
    },
    {
      "inputs": [],
      "name": "getStakeAccountList",
      "outputs": [
        {
          "internalType": "address[]",
          "name": "",
          "type": "address[]"
        }
      ],
      "stateMutability": "view",
      "type": "function"
    },
    {
      "inputs": [],
      "name": "getTotalLton",
      "outputs": [
        {
          "internalType": "uint256",
          "name": "",
          "type": "uint256"
        }
      ],
      "stateMutability": "view",
      "type": "function"
    },
    {
      "inputs": [
        {
          "internalType": "bytes32",
          "name": "role",
          "type": "bytes32"
        },
        {
          "internalType": "address",
          "name": "account",
          "type": "address"
        }
      ],
      "name": "grantRole",
      "outputs": [],
      "stateMutability": "nonpayable",
      "type": "function"
    },
    {
      "inputs": [
        {
          "internalType": "bytes32",
          "name": "role",
          "type": "bytes32"
        },
        {
          "internalType": "address",
          "name": "account",
          "type": "address"
        }
      ],
      "name": "hasRole",
      "outputs": [
        {
          "internalType": "bool",
          "name": "",
          "type": "bool"
        }
      ],
      "stateMutability": "view",
      "type": "function"
    },
    {
      "inputs": [
        {
          "internalType": "address",
          "name": "account",
          "type": "address"
        }
      ],
      "name": "isAdmin",
      "outputs": [
        {
          "internalType": "bool",
          "name": "",
          "type": "bool"
        }
      ],
      "stateMutability": "view",
      "type": "function"
    },
    {
      "inputs": [
        {
          "internalType": "uint32",
          "name": "_index",
          "type": "uint32"
        }
      ],
      "name": "layer2Deposits",
      "outputs": [
        {
          "internalType": "uint256",
          "name": "amount",
          "type": "uint256"
        }
      ],
      "stateMutability": "view",
      "type": "function"
    },
    {
      "inputs": [],
      "name": "layer2Manager",
      "outputs": [
        {
          "internalType": "address",
          "name": "",
          "type": "address"
        }
      ],
      "stateMutability": "view",
      "type": "function"
    },
    {
      "inputs": [
        {
          "internalType": "uint32",
          "name": "",
          "type": "uint32"
        }
      ],
      "name": "layerInfo",
      "outputs": [
        {
          "internalType": "bytes",
          "name": "",
          "type": "bytes"
        }
      ],
      "stateMutability": "view",
      "type": "function"
    },
    {
      "inputs": [
        {
          "internalType": "uint32",
          "name": "",
          "type": "uint32"
        }
      ],
      "name": "layerStakedLton",
      "outputs": [
        {
          "internalType": "uint256",
          "name": "",
          "type": "uint256"
        }
      ],
      "stateMutability": "view",
      "type": "function"
    },
    {
      "inputs": [
        {
          "internalType": "uint32",
          "name": "",
          "type": "uint32"
        },
        {
          "internalType": "address",
          "name": "",
          "type": "address"
        }
      ],
      "name": "layerStakes",
      "outputs": [
        {
          "internalType": "uint256",
          "name": "stakePrincipal",
          "type": "uint256"
        },
        {
          "internalType": "uint256",
          "name": "bondPrincipal",
          "type": "uint256"
        },
        {
          "internalType": "uint256",
          "name": "stakelton",
          "type": "uint256"
        },
        {
          "internalType": "bool",
          "name": "stake",
          "type": "bool"
        }
      ],
      "stateMutability": "view",
      "type": "function"
    },
    {
      "inputs": [
        {
          "internalType": "uint32",
          "name": "layerIndex",
          "type": "uint32"
        },
        {
          "internalType": "address",
          "name": "account",
          "type": "address"
        }
      ],
      "name": "numberOfPendings",
      "outputs": [
        {
          "internalType": "uint256",
          "name": "totalRequests",
          "type": "uint256"
        },
        {
          "internalType": "uint256",
          "name": "withdrawIndex",
          "type": "uint256"
        },
        {
          "internalType": "uint256",
          "name": "pendingLength",
          "type": "uint256"
        }
      ],
      "stateMutability": "view",
      "type": "function"
    },
    {
      "inputs": [],
      "name": "pauseProxy",
      "outputs": [
        {
          "internalType": "bool",
          "name": "",
          "type": "bool"
        }
      ],
      "stateMutability": "view",
      "type": "function"
    },
    {
      "inputs": [
        {
          "internalType": "uint32",
          "name": "",
          "type": "uint32"
        },
        {
          "internalType": "address",
          "name": "",
          "type": "address"
        }
      ],
      "name": "pendingUnstaked",
      "outputs": [
        {
          "internalType": "uint256",
          "name": "",
          "type": "uint256"
        }
      ],
      "stateMutability": "view",
      "type": "function"
    },
    {
      "inputs": [
        {
          "internalType": "address",
          "name": "",
          "type": "address"
        }
      ],
      "name": "pendingUnstakedAccount",
      "outputs": [
        {
          "internalType": "uint256",
          "name": "",
          "type": "uint256"
        }
      ],
      "stateMutability": "view",
      "type": "function"
    },
    {
      "inputs": [
        {
          "internalType": "uint32",
          "name": "",
          "type": "uint32"
        }
      ],
      "name": "pendingUnstakedLayer2",
      "outputs": [
        {
          "internalType": "uint256",
          "name": "",
          "type": "uint256"
        }
      ],
      "stateMutability": "view",
      "type": "function"
    },
    {
      "inputs": [
        {
          "internalType": "uint256",
          "name": "",
          "type": "uint256"
        }
      ],
      "name": "proxyImplementation",
      "outputs": [
        {
          "internalType": "address",
          "name": "",
          "type": "address"
        }
      ],
      "stateMutability": "view",
      "type": "function"
    },
    {
      "inputs": [
        {
          "internalType": "address",
          "name": "account",
          "type": "address"
        }
      ],
      "name": "removeAdmin",
      "outputs": [],
      "stateMutability": "nonpayable",
      "type": "function"
    },
    {
      "inputs": [
        {
          "internalType": "bytes32",
          "name": "role",
          "type": "bytes32"
        },
        {
          "internalType": "address",
          "name": "account",
          "type": "address"
        }
      ],
      "name": "renounceRole",
      "outputs": [],
      "stateMutability": "nonpayable",
      "type": "function"
    },
    {
      "inputs": [
        {
          "internalType": "uint32",
          "name": "_index",
          "type": "uint32"
        }
      ],
      "name": "restake",
      "outputs": [],
      "stateMutability": "nonpayable",
      "type": "function"
    },
    {
      "inputs": [
        {
          "internalType": "uint32",
          "name": "_index",
          "type": "uint32"
        },
        {
          "internalType": "uint256",
          "name": "n",
          "type": "uint256"
        }
      ],
      "name": "restakeMulti",
      "outputs": [],
      "stateMutability": "nonpayable",
      "type": "function"
    },
    {
      "inputs": [
        {
          "internalType": "bytes32",
          "name": "role",
          "type": "bytes32"
        },
        {
          "internalType": "address",
          "name": "account",
          "type": "address"
        }
      ],
      "name": "revokeRole",
      "outputs": [],
      "stateMutability": "nonpayable",
      "type": "function"
    },
    {
      "inputs": [],
      "name": "seigManagerV2",
      "outputs": [
        {
          "internalType": "address",
          "name": "",
          "type": "address"
        }
      ],
      "stateMutability": "view",
      "type": "function"
    },
    {
      "inputs": [
        {
          "internalType": "bytes4",
          "name": "",
          "type": "bytes4"
        }
      ],
      "name": "selectorImplementation",
      "outputs": [
        {
          "internalType": "address",
          "name": "",
          "type": "address"
        }
      ],
      "stateMutability": "view",
      "type": "function"
    },
    {
      "inputs": [
        {
          "internalType": "uint256",
          "name": "",
          "type": "uint256"
        }
      ],
      "name": "stakeAccountList",
      "outputs": [
        {
          "internalType": "address",
          "name": "",
          "type": "address"
        }
      ],
      "stateMutability": "view",
      "type": "function"
    },
    {
      "inputs": [
        {
          "internalType": "bytes4",
          "name": "interfaceId",
          "type": "bytes4"
        }
      ],
      "name": "supportsInterface",
      "outputs": [
        {
          "internalType": "bool",
          "name": "",
          "type": "bool"
        }
      ],
      "stateMutability": "view",
      "type": "function"
    },
    {
      "inputs": [],
      "name": "ton",
      "outputs": [
        {
          "internalType": "address",
          "name": "",
          "type": "address"
        }
      ],
      "stateMutability": "view",
      "type": "function"
    },
    {
      "inputs": [],
      "name": "totalLayer2Deposits",
      "outputs": [
        {
          "internalType": "uint256",
          "name": "amount",
          "type": "uint256"
        }
      ],
      "stateMutability": "view",
      "type": "function"
    },
    {
      "inputs": [],
      "name": "totalStakeAccountList",
      "outputs": [
        {
          "internalType": "uint256",
          "name": "",
          "type": "uint256"
        }
      ],
      "stateMutability": "view",
      "type": "function"
    },
    {
      "inputs": [],
      "name": "totalStakedLton",
      "outputs": [
        {
          "internalType": "uint256",
          "name": "",
          "type": "uint256"
        }
      ],
      "stateMutability": "view",
      "type": "function"
    },
    {
      "inputs": [
        {
          "internalType": "address",
          "name": "newAdmin",
          "type": "address"
        }
      ],
      "name": "transferAdmin",
      "outputs": [],
      "stateMutability": "nonpayable",
      "type": "function"
    },
    {
      "inputs": [
        {
          "internalType": "uint32",
          "name": "_index",
          "type": "uint32"
        }
      ],
      "name": "withdraw",
      "outputs": [],
      "stateMutability": "nonpayable",
      "type": "function"
    },
    {
      "inputs": [
        {
          "internalType": "uint32",
          "name": "",
          "type": "uint32"
        },
        {
          "internalType": "address",
          "name": "",
          "type": "address"
        }
      ],
      "name": "withdrawalRequestIndex",
      "outputs": [
        {
          "internalType": "uint256",
          "name": "",
          "type": "uint256"
        }
      ],
      "stateMutability": "view",
      "type": "function"
    },
    {
      "inputs": [
        {
          "internalType": "uint32",
          "name": "",
          "type": "uint32"
        },
        {
          "internalType": "address",
          "name": "",
          "type": "address"
        },
        {
          "internalType": "uint256",
          "name": "",
          "type": "uint256"
        }
      ],
      "name": "withdrawalRequests",
      "outputs": [
        {
          "internalType": "uint32",
          "name": "withdrawableBlockNumber",
          "type": "uint32"
        },
        {
          "internalType": "uint128",
          "name": "amount",
          "type": "uint128"
        },
        {
          "internalType": "bool",
          "name": "processed",
          "type": "bool"
        }
      ],
      "stateMutability": "view",
      "type": "function"
    }
  ],
  "bytecode": "0x60806040526006805460ff1916600117905534801561001d57600080fd5b50612b258061002d6000396000f3fe608060405234801561001057600080fd5b506004361061032b5760003560e01c806373469a7a116101b25780639c656e26116100f9578063b911135f116100a2578063cc48b9471161007c578063cc48b9471461093d578063d07918f114610955578063d547741f14610968578063ec110d451461097b57600080fd5b8063b911135f146108ec578063b969fbef14610915578063b9cab9711461091d57600080fd5b8063aa9224cd116100d3578063aa9224cd146108a3578063b413b37a146108b6578063b6a2f99d146108be57600080fd5b80639c656e2614610816578063a0b2a9131461087b578063a217fddf1461089b57600080fd5b80638afec9fc1161015b5780638ddd87fe116101355780638ddd87fe1461078e57806391d14854146107cc57806394c89b2c1461080357600080fd5b80638afec9fc146107205780638c71762d146107465780638d99e1ca1461077b57600080fd5b806375b238fc1161018c57806375b238fc146106bb5780637cf1587c146106e257806385b9e4851461070d57600080fd5b806373469a7a14610682578063744a35611461069557806375829def146106a857600080fd5b80634de131ca1161027657806363a8fd891161021f57806370480275116101f9578063704802751461063c57806370619cf91461064f5780637138c7921461066f57600080fd5b806363a8fd89146105d0578063659ab820146105dd5780636d1ef103146105fd57600080fd5b8063550d01a311610250578063550d01a3146105125780635e2cfe45146105355780635f1b989e1461056057600080fd5b80634de131ca146104cb5780634e1a264d146104e057806350d2a276146104e957600080fd5b806322985246116102d85780632f2ff15d116102b25780632f2ff15d1461049d57806336568abe146104b057806346bcdb49146104c357600080fd5b80632298524614610432578063248a9ca31461046757806324d7806c1461048a57600080fd5b80631785f53c116103095780631785f53c146103985780631ed94495146103ab5780631f760d01146103f357600080fd5b806301ffc9a714610330578063118e29d11461035857806316b5d5bd1461036d575b600080fd5b61034361033e366004612685565b61098e565b60405190151581526020015b60405180910390f35b61036b6103663660046126c8565b6109c5565b005b600854610380906001600160a01b031681565b6040516001600160a01b03909116815260200161034f565b61036b6103a63660046126fa565b610a3a565b6103be6103b9366004612715565b610ac7565b60405161034f919081518152602080830151908201526040808301519082015260609182015115159181019190915260800190565b610406610401366004612715565b610b59565b6040805194855263ffffffff93841660208601529183169184019190915216606082015260800161034f565b6104597ffb5864e8ff833c3cb2d2d08505e82ff02a43554c74a35d4f5a64e8526127831181565b60405190815260200161034f565b610459610475366004612748565b60009081526020819052604090206001015490565b6103436104983660046126fa565b610c97565b61036b6104ab366004612761565b610cd7565b61036b6104be366004612761565b610d01565b601354610459565b6104d3610d89565b60405161034f9190612784565b610459600a5481565b6103806104f7366004612685565b6004602052600090815260409020546001600160a01b031681565b6103436105203660046126fa565b60036020526000908152604090205460ff1681565b610459610543366004612715565b600f60209081526000928352604080842090915290825290205481565b61045961056e366004612715565b63ffffffff9091166000908152600c602090815260408083206001600160a01b0390941683529281529082902082516080810184528154815260018201549281019290925260028101549282018390526003015460ff16151560609091015290565b6001546103439060ff1681565b6105f06105eb3660046126c8565b610deb565b60405161034f9190612821565b61061061060b366004612834565b610e85565b6040805163ffffffff90941684526001600160801b03909216602084015215159082015260600161034f565b61036b61064a3660046126fa565b610ee4565b61045961065d3660046126c8565b600b6020526000908152604090205481565b61034361067d366004612870565b610f6e565b600754610380906001600160a01b031681565b61036b6106a33660046128b4565b611136565b61036b6106b63660046126fa565b6111a1565b6104597fdf8b4c520ffe197c5343c6f5aec59570151ef9a492f2c624fd45ddde6135ec4281565b6104596106f0366004612715565b600e60209081526000928352604080842090915290825290205481565b61034361071b3660046128de565b611303565b61045961072e3660046126c8565b63ffffffff166000908152600b602052604090205490565b610759610754366004612715565b61159e565b6040805193845263ffffffff928316602085015291169082015260600161034f565b6104596107893660046126c8565b6116db565b61045961079c366004612715565b63ffffffff82166000908152600f602090815260408083206001600160a01b038516845290915290205492915050565b6103436107da366004612761565b6000918252602082815260408084206001600160a01b0393909316845291905290205460ff1690565b610459610811366004612715565b61174e565b610859610824366004612715565b600c60209081526000928352604080842090915290825290208054600182015460028301546003909301549192909160ff1684565b604080519485526020850193909352918301521515606082015260800161034f565b6104596108893660046126fa565b60116020526000908152604090205481565b610459600081565b61036b6108b13660046126c8565b611821565b600a54610459565b6108d16108cc366004612715565b611c36565b6040805193845260208401929092529082015260600161034f565b6103806108fa366004612748565b6002602052600090815260409020546001600160a01b031681565b610459611c91565b61045961092b3660046126c8565b60106020526000908152604090205481565b6006546103809061010090046001600160a01b031681565b600954610380906001600160a01b031681565b61036b610976366004612761565b611d04565b610380610989366004612748565b611d29565b60006001600160e01b03198216637965db0b60e01b14806109bf57506301ffc9a760e01b6001600160e01b03198316145b92915050565b63ffffffff81166000908152600e6020908152604080832033808552925290912054906109f6908390836001611d53565b610a365760405162461bcd60e51b815260206004820152600c60248201526b534c5f455f52455354414b4560a01b60448201526064015b60405180910390fd5b5050565b610a4333610c97565b610a9a5760405162461bcd60e51b815260206004820152602260248201527f41636365737369626c653a2043616c6c6572206973206e6f7420616e2061646d60448201526134b760f11b6064820152608401610a2d565b610ac47fdf8b4c520ffe197c5343c6f5aec59570151ef9a492f2c624fd45ddde6135ec4282610d01565b50565b610af460405180608001604052806000815260200160008152602001600081526020016000151581525090565b5063ffffffff9091166000908152600c602090815260408083206001600160a01b0390941683529281529082902082516080810184528154815260018201549281019290925260028101549282019290925260039091015460ff161515606082015290565b63ffffffff8083166000818152600d602090815260408083206001600160a01b03871680855290835281842054948452600e835281842090845290915281205490929091839182919084165b81811015610c8c5763ffffffff88166000908152600d602090815260408083206001600160a01b038b1684529091528120805483908110610be857610be8612933565b6000918252602080832060408051606081018252939091015463ffffffff8116845264010000000081046001600160801b031692840192909252600160a01b90910460ff1615159082018190529092509003610c79578363ffffffff16600003610c5157805193505b6020810151610c69906001600160801b03168861295f565b9650610c76600186612972565b94505b5080610c8481612996565b915050610ba5565b505092959194509250565b6001600160a01b03811660009081527f5cbfc8ee58ca47855df7bcf648dd304ddb6b932f9b87878bdf6318d7ec7ee5b7602052604081205460ff166109bf565b600082815260208190526040902060010154610cf281612200565b610cfc838361220a565b505050565b6001600160a01b0381163314610d7f5760405162461bcd60e51b815260206004820152602f60248201527f416363657373436f6e74726f6c3a2063616e206f6e6c792072656e6f756e636560448201527f20726f6c657320666f722073656c6600000000000000000000000000000000006064820152608401610a2d565b610a3682826122a8565b60606013805480602002602001604051908101604052809291908181526020018280548015610de157602002820191906000526020600020905b81546001600160a01b03168152600190910190602001808311610dc3575b5050505050905090565b60126020526000908152604090208054610e04906129af565b80601f0160208091040260200160405190810160405280929190818152602001828054610e30906129af565b8015610e7d5780601f10610e5257610100808354040283529160200191610e7d565b820191906000526020600020905b815481529060010190602001808311610e6057829003601f168201915b505050505081565b600d6020528260005260406000206020528160005260406000208181548110610ead57600080fd5b60009182526020909120015463ffffffff8116935064010000000081046001600160801b03169250600160a01b900460ff16905083565b610eed33610c97565b610f445760405162461bcd60e51b815260206004820152602260248201527f41636365737369626c653a2043616c6c6572206973206e6f7420616e2061646d60448201526134b760f11b6064820152608401610a2d565b610ac47fdf8b4c520ffe197c5343c6f5aec59570151ef9a492f2c624fd45ddde6135ec4282610cd7565b6009546000906001600160a01b03163314610fbb5760405162461bcd60e51b815260206004820152600d60248201526c232bafa1a0a62622a92fa2a92960991b6044820152606401610a2d565b600754604051636a2fb1f560e01b8152600481018490526000916001600160a01b031690636a2fb1f590602401602060405180830381865afa158015611005573d6000803e3d6000fd5b505050506040513d601f19601f8201168201806040525081019061102991906129e9565b63ffffffff86166000908152600b602052604081208054929350839290919061105390849061295f565b9250508190555080600a600082825461106c919061295f565b909155505063ffffffff85166000908152600c602090815260408083206001600160a01b038816845290915281208054909185918391906110ae90849061295f565b92505081905550818160020160008282546110c9919061295f565b90915550506040805188815263ffffffff881660208201526001600160a01b03871681830152606081018690526080810184905290517f8cf204c07a4ce065cdd0c90963672bd384e5479ada88179bca8eb6075c02731f9181900360a00190a15060019695505050505050565b63ffffffff82166000908152600e6020908152604080832033808552925290912054906111669084908385611d53565b610cfc5760405162461bcd60e51b815260206004820152600c60248201526b534c5f455f52455354414b4560a01b6044820152606401610a2d565b6111aa33610c97565b6112015760405162461bcd60e51b815260206004820152602260248201527f41636365737369626c653a2043616c6c6572206973206e6f7420616e2061646d60448201526134b760f11b6064820152608401610a2d565b6001600160a01b0381166112575760405162461bcd60e51b815260206004820152601860248201527f41636365737369626c653a207a65726f206164647265737300000000000000006044820152606401610a2d565b6001600160a01b03811633036112af5760405162461bcd60e51b815260206004820152601660248201527f41636365737369626c653a2073616d652061646d696e000000000000000000006044820152606401610a2d565b6112d97fdf8b4c520ffe197c5343c6f5aec59570151ef9a492f2c624fd45ddde6135ec4282610cd7565b610ac47fdf8b4c520ffe197c5343c6f5aec59570151ef9a492f2c624fd45ddde6135ec4233610d01565b60065460009060ff166113415760405162461bcd60e51b8152600401610a2d906020808252600490820152636c6f636b60e01b604082015260600190565b6006805460ff191690556009546001600160a01b031633146113955760405162461bcd60e51b815260206004820152600d60248201526c232bafa1a0a62622a92fa2a92960991b6044820152606401610a2d565b816113a0868661174e565b10156113ee5760405162461bcd60e51b815260206004820152601960248201527f6c697175696469747920697320696e73756666696369656e74000000000000006044820152606401610a2d565b6006546040516370a0823160e01b815230600482015260009161010090046001600160a01b0316906370a0823190602401602060405180830381865afa15801561143c573d6000803e3d6000fd5b505050506040513d601f19601f8201168201806040525081019061146091906129e9565b90508281101561150b57801561148c5760065461148c9061010090046001600160a01b03168583612327565b6007546001600160a01b031663aad3ec96856114a88487612a02565b6040516001600160e01b031960e085901b1681526001600160a01b0390921660048301526024820152604401600060405180830381600087803b1580156114ee57600080fd5b505af1158015611502573d6000803e3d6000fd5b50505050611527565b6006546115279061010090046001600160a01b03168585612327565b6040805188815263ffffffff881660208201526001600160a01b0387811682840152861660608201526080810185905290517f77fbf71434da34ef2aa8382e2b751b6b2de7bd18d96a07ff7f4dae7dae9237619181900360a00190a160019150506006805460ff1916600117905595945050505050565b63ffffffff8083166000818152600d602090815260408083206001600160a01b03871680855290835281842054948452600e835281842090845290915281205490929091839183165b818110156116d25763ffffffff87166000908152600d602090815260408083206001600160a01b038a168452909152812080548390811061162a5761162a612933565b600091825260209182902060408051606081018252929091015463ffffffff811680845264010000000082046001600160801b031694840194909452600160a01b900460ff1615159082015291504311801561168857506040810151155b156116b95760208101516116a5906001600160801b03168761295f565b95506116b2600185612972565b93506116bf565b506116d2565b50806116ca81612996565b9150506115e7565b50509250925092565b6008546040516346ccf0e560e11b815263ffffffff831660048201526000916001600160a01b031690638d99e1ca90602401602060405180830381865afa15801561172a573d6000803e3d6000fd5b505050506040513d601f19601f820116820180604052508101906109bf91906129e9565b60075463ffffffff83166000908152600c602090815260408083206001600160a01b03868116855290835281842082516080810184528154815260018201549481019490945260028101549284018390526003015460ff1615156060909301929092529192169063cdf68009906040518263ffffffff1660e01b81526004016117d991815260200190565b602060405180830381865afa1580156117f6573d6000803e3d6000fd5b505050506040513d601f19601f8201168201806040525081019061181a91906129e9565b9392505050565b60065460ff1661185c5760405162461bcd60e51b8152600401610a2d906020808252600490820152636c6f636b60e01b604082015260600190565b6006805460ff1916905563ffffffff81166000818152600d602090815260408083203380855290835281842054948452600e83528184208185529092528220549092919081905b838110156119755763ffffffff86166000908152600d602090815260408083206001600160a01b038916845290915281208054839081106118e6576118e6612933565b600091825260209091200180549091504363ffffffff90911610801561191557508054600160a01b900460ff16155b1561195c57805460ff60a01b1916600160a01b17808255611948906001600160801b03640100000000909104168461295f565b92508361195481612996565b945050611962565b50611975565b508061196d81612996565b9150506118a3565b50600081116119c65760405162461bcd60e51b815260206004820181905260248201527f7a65726f20617661696c61626c65207769746864726177616c20616d6f756e746044820152606401610a2d565b63ffffffff85166000908152600e602090815260408083206001600160a01b0388168452909152812080548492906119ff90849061295f565b909155505063ffffffff85166000908152600f602090815260408083206001600160a01b038816845290915281208054839290611a3d908490612a02565b909155505063ffffffff851660009081526010602052604081208054839290611a67908490612a02565b90915550506001600160a01b03841660009081526011602052604081208054839290611a94908490612a02565b90915550506006546040516370a0823160e01b815230600482015260009161010090046001600160a01b0316906370a0823190602401602060405180830381865afa158015611ae7573d6000803e3d6000fd5b505050506040513d601f19601f82011682018060405250810190611b0b91906129e9565b905081811015611bb6578015611b3757600654611b379061010090046001600160a01b03168683612327565b6007546001600160a01b031663aad3ec9686611b538486612a02565b6040516001600160e01b031960e085901b1681526001600160a01b0390921660048301526024820152604401600060405180830381600087803b158015611b9957600080fd5b505af1158015611bad573d6000803e3d6000fd5b50505050611bd2565b600654611bd29061010090046001600160a01b03168684612327565b6040805163ffffffff881681526001600160a01b03871660208201529081018390527f2d6eb139d2002caa088da5527d9d62f2f23bdf4504f5559a112535c436c6ee599060600160405180910390a150506006805460ff1916600117905550505050565b63ffffffff82166000818152600d602090815260408083206001600160a01b03861680855290835281842054948452600e835281842090845290915281205490818310611c8a57611c878284612a02565b90505b9250925092565b6008546040805163b969fbef60e01b815290516000926001600160a01b03169163b969fbef9160048083019260209291908290030181865afa158015611cdb573d6000803e3d6000fd5b505050506040513d601f19601f82011682018060405250810190611cff91906129e9565b905090565b600082815260208190526040902060010154611d1f81612200565b610cfc83836122a8565b60138181548110611d3957600080fd5b6000918252602090912001546001600160a01b0316905081565b60065460009060ff16611d915760405162461bcd60e51b8152600401610a2d906020808252600490820152636c6f636b60e01b604082015260600190565b6006805460ff1916905563ffffffff85166000908152600d602090815260408083206001600160a01b038816845290915281205480611dff5760405162461bcd60e51b815260206004820152600a6024820152696e6f20756e7374616b6560b01b6044820152606401610a2d565b83611e0a8683612a02565b1015611e585760405162461bcd60e51b815260206004820152601860248201527f6e2065786365656473206e756d206f662070656e64696e6700000000000000006044820152606401610a2d565b6000611e64858761295f565b90505b80861015611f5a5763ffffffff88166000908152600d602090815260408083206001600160a01b038b1684529091528120805488908110611eaa57611eaa612933565b6000918252602090912001805490915064010000000081046001600160801b031690600160a01b900460ff1615611f235760405162461bcd60e51b815260206004820152601260248201527f616c7265616479207769746864726177616c00000000000000000000000000006044820152606401610a2d565b8015611f3657611f33818661295f565b94505b50805460ff60a01b1916600160a01b17905585611f5281612996565b965050611e67565b60008311611faa5760405162461bcd60e51b815260206004820152601760248201527f6e6f2076616c69642072657374616b6520616d6f756e740000000000000000006044820152606401610a2d565b600754604051636a2fb1f560e01b8152600481018590526000916001600160a01b031690636a2fb1f590602401602060405180830381865afa158015611ff4573d6000803e3d6000fd5b505050506040513d601f19601f8201168201806040525081019061201891906129e9565b63ffffffff8a166000908152600c602090815260408083206001600160a01b038d16845290915281208054929350918691839161205690849061295f565b9250508190555081816002016000828254612071919061295f565b909155505063ffffffff8a166000908152600b60205260408120805484929061209b90849061295f565b9250508190555081600a60008282546120b4919061295f565b909155505063ffffffff8a166000908152600f602090815260408083206001600160a01b038d168452909152812080548792906120f2908490612a02565b909155505063ffffffff8a166000908152601060205260408120805487929061211c908490612a02565b90915550506001600160a01b03891660009081526011602052604081208054879290612149908490612a02565b909155505063ffffffff8a166000908152600e602090815260408083206001600160a01b038d1684529091528120805489929061218790849061295f565b90915550506040805163ffffffff8c1681526001600160a01b038b166020820152908101869052606081018390527f34981dc0486069d2abbaddbc42e10b97cb24e4bce60ee4457e1d5062dfc0b4299060800160405180910390a16001955050505050506006805460ff19166001179055949350505050565b610ac48133612457565b6000828152602081815260408083206001600160a01b038516845290915290205460ff16610a36576000828152602081815260408083206001600160a01b03851684529091529020805460ff191660011790556122643390565b6001600160a01b0316816001600160a01b0316837f2f8788117e7eff1d82e926ec794901d17c78024a50270940304540a733656f0d60405160405180910390a45050565b6000828152602081815260408083206001600160a01b038516845290915290205460ff1615610a36576000828152602081815260408083206001600160a01b0385168085529252808320805460ff1916905551339285917ff6391f5c32d9c69d2a47ea670b442974b53935d1edc7fd64eb21e047a839171b9190a45050565b604080516001600160a01b038481166024830152604480830185905283518084039091018152606490920183526020820180517bffffffffffffffffffffffffffffffffffffffffffffffffffffffff1663a9059cbb60e01b17905291516000928392908716916123989190612a15565b6000604051808303816000865af19150503d80600081146123d5576040519150601f19603f3d011682016040523d82523d6000602084013e6123da565b606091505b50915091508180156124045750805115806124045750808060200190518101906124049190612a31565b6124505760405162461bcd60e51b815260206004820152600f60248201527f5452414e534645525f4641494c454400000000000000000000000000000000006044820152606401610a2d565b5050505050565b6000828152602081815260408083206001600160a01b038516845290915290205460ff16610a3657612488816124ca565b6124938360206124dc565b6040516020016124a4929190612a53565b60408051601f198184030181529082905262461bcd60e51b8252610a2d91600401612821565b60606109bf6001600160a01b03831660145b606060006124eb836002612ad4565b6124f690600261295f565b67ffffffffffffffff81111561250e5761250e612aeb565b6040519080825280601f01601f191660200182016040528015612538576020820181803683370190505b509050600360fc1b8160008151811061255357612553612933565b60200101906001600160f81b031916908160001a905350600f60fb1b8160018151811061258257612582612933565b60200101906001600160f81b031916908160001a90535060006125a6846002612ad4565b6125b190600161295f565b90505b6001811115612636577f303132333435363738396162636465660000000000000000000000000000000085600f16601081106125f2576125f2612933565b1a60f81b82828151811061260857612608612933565b60200101906001600160f81b031916908160001a90535060049490941c9361262f81612b01565b90506125b4565b50831561181a5760405162461bcd60e51b815260206004820181905260248201527f537472696e67733a20686578206c656e67746820696e73756666696369656e746044820152606401610a2d565b60006020828403121561269757600080fd5b81356001600160e01b03198116811461181a57600080fd5b803563ffffffff811681146126c357600080fd5b919050565b6000602082840312156126da57600080fd5b61181a826126af565b80356001600160a01b03811681146126c357600080fd5b60006020828403121561270c57600080fd5b61181a826126e3565b6000806040838503121561272857600080fd5b612731836126af565b915061273f602084016126e3565b90509250929050565b60006020828403121561275a57600080fd5b5035919050565b6000806040838503121561277457600080fd5b8235915061273f602084016126e3565b6020808252825182820181905260009190848201906040850190845b818110156127c55783516001600160a01b0316835292840192918401916001016127a0565b50909695505050505050565b60005b838110156127ec5781810151838201526020016127d4565b50506000910152565b6000815180845261280d8160208601602086016127d1565b601f01601f19169290920160200192915050565b60208152600061181a60208301846127f5565b60008060006060848603121561284957600080fd5b612852846126af565b9250612860602085016126e3565b9150604084013590509250925092565b6000806000806080858703121561288657600080fd5b84359350612896602086016126af565b92506128a4604086016126e3565b9396929550929360600135925050565b600080604083850312156128c757600080fd5b6128d0836126af565b946020939093013593505050565b600080600080600060a086880312156128f657600080fd5b85359450612906602087016126af565b9350612914604087016126e3565b9250612922606087016126e3565b949793965091946080013592915050565b634e487b7160e01b600052603260045260246000fd5b634e487b7160e01b600052601160045260246000fd5b808201808211156109bf576109bf612949565b63ffffffff81811683821601908082111561298f5761298f612949565b5092915050565b6000600182016129a8576129a8612949565b5060010190565b600181811c908216806129c357607f821691505b6020821081036129e357634e487b7160e01b600052602260045260246000fd5b50919050565b6000602082840312156129fb57600080fd5b5051919050565b818103818111156109bf576109bf612949565b60008251612a278184602087016127d1565b9190910192915050565b600060208284031215612a4357600080fd5b8151801515811461181a57600080fd5b7f416363657373436f6e74726f6c3a206163636f756e7420000000000000000000815260008351612a8b8160178501602088016127d1565b7f206973206d697373696e6720726f6c65200000000000000000000000000000006017918401918201528351612ac88160288401602088016127d1565b01602801949350505050565b80820281158282048414176109bf576109bf612949565b634e487b7160e01b600052604160045260246000fd5b600081612b1057612b10612949565b50600019019056fea164736f6c6343000812000a",
  "linkReferences": {},
  "deployedLinkReferences": {}
}