{
  "_format": "hh-sol-artifact-1",
  "contractName": "Staking",
  "sourceName": "contracts/Staking.sol",
  "abi": [
    {
      "inputs": [],
      "stateMutability": "nonpayable",
      "type": "constructor"
    },
    {
      "anonymous": false,
      "inputs": [
        {
          "indexed": false,
          "internalType": "bytes32",
          "name": "hashMessage",
          "type": "bytes32"
        },
        {
          "indexed": false,
          "internalType": "uint32",
          "name": "layerIndex",
          "type": "uint32"
        },
        {
          "indexed": false,
          "internalType": "address",
          "name": "from",
          "type": "address"
        },
        {
          "indexed": false,
          "internalType": "address",
          "name": "to",
          "type": "address"
        },
        {
          "indexed": false,
          "internalType": "uint256",
          "name": "amount",
          "type": "uint256"
        }
      ],
      "name": "FastWithdrawalClaim",
      "type": "event"
    },
    {
      "anonymous": false,
      "inputs": [
        {
          "indexed": false,
          "internalType": "bytes32",
          "name": "hashMessage",
          "type": "bytes32"
        },
        {
          "indexed": false,
          "internalType": "uint32",
          "name": "layerIndex",
          "type": "uint32"
        },
        {
          "indexed": false,
          "internalType": "address",
          "name": "staker",
          "type": "address"
        },
        {
          "indexed": false,
          "internalType": "uint256",
          "name": "amount",
          "type": "uint256"
        },
        {
          "indexed": false,
          "internalType": "uint256",
          "name": "lwton",
          "type": "uint256"
        }
      ],
      "name": "FastWithdrawalStaked",
      "type": "event"
    },
    {
      "anonymous": false,
      "inputs": [
        {
          "indexed": false,
          "internalType": "uint32",
          "name": "_index",
          "type": "uint32"
        },
        {
          "indexed": false,
          "internalType": "address",
          "name": "sender",
          "type": "address"
        },
        {
          "indexed": false,
          "internalType": "uint256",
          "name": "amount",
          "type": "uint256"
        },
        {
          "indexed": false,
          "internalType": "uint256",
          "name": "lwton",
          "type": "uint256"
        }
      ],
      "name": "Restaked",
      "type": "event"
    },
    {
      "anonymous": false,
      "inputs": [
        {
          "indexed": true,
          "internalType": "bytes32",
          "name": "role",
          "type": "bytes32"
        },
        {
          "indexed": true,
          "internalType": "bytes32",
          "name": "previousAdminRole",
          "type": "bytes32"
        },
        {
          "indexed": true,
          "internalType": "bytes32",
          "name": "newAdminRole",
          "type": "bytes32"
        }
      ],
      "name": "RoleAdminChanged",
      "type": "event"
    },
    {
      "anonymous": false,
      "inputs": [
        {
          "indexed": true,
          "internalType": "bytes32",
          "name": "role",
          "type": "bytes32"
        },
        {
          "indexed": true,
          "internalType": "address",
          "name": "account",
          "type": "address"
        },
        {
          "indexed": true,
          "internalType": "address",
          "name": "sender",
          "type": "address"
        }
      ],
      "name": "RoleGranted",
      "type": "event"
    },
    {
      "anonymous": false,
      "inputs": [
        {
          "indexed": true,
          "internalType": "bytes32",
          "name": "role",
          "type": "bytes32"
        },
        {
          "indexed": true,
          "internalType": "address",
          "name": "account",
          "type": "address"
        },
        {
          "indexed": true,
          "internalType": "address",
          "name": "sender",
          "type": "address"
        }
      ],
      "name": "RoleRevoked",
      "type": "event"
    },
    {
      "anonymous": false,
      "inputs": [
        {
          "indexed": false,
          "internalType": "uint32",
          "name": "_index",
          "type": "uint32"
        },
        {
          "indexed": false,
          "internalType": "address",
          "name": "sender",
          "type": "address"
        },
        {
          "indexed": false,
          "internalType": "uint256",
          "name": "amount",
          "type": "uint256"
        },
        {
          "indexed": false,
          "internalType": "uint256",
          "name": "lwton",
          "type": "uint256"
        },
        {
          "indexed": false,
          "internalType": "address",
          "name": "commissionTo",
          "type": "address"
        },
        {
          "indexed": false,
          "internalType": "uint16",
          "name": "commission",
          "type": "uint16"
        }
      ],
      "name": "Staked",
      "type": "event"
    },
    {
      "anonymous": false,
      "inputs": [
        {
          "indexed": false,
          "internalType": "uint32",
          "name": "_index",
          "type": "uint32"
        },
        {
          "indexed": false,
          "internalType": "address",
          "name": "sender",
          "type": "address"
        },
        {
          "indexed": false,
          "internalType": "uint256",
          "name": "amount",
          "type": "uint256"
        },
        {
          "indexed": false,
          "internalType": "uint256",
          "name": "lwton",
          "type": "uint256"
        }
      ],
      "name": "Unstaked",
      "type": "event"
    },
    {
      "anonymous": false,
      "inputs": [
        {
          "indexed": false,
          "internalType": "uint32",
          "name": "_index",
          "type": "uint32"
        },
        {
          "indexed": false,
          "internalType": "address",
          "name": "sender",
          "type": "address"
        },
        {
          "indexed": false,
          "internalType": "uint256",
          "name": "amount",
          "type": "uint256"
        }
      ],
      "name": "Withdrawal",
      "type": "event"
    },
    {
      "inputs": [],
      "name": "ADMIN_ROLE",
      "outputs": [
        {
          "internalType": "bytes32",
          "name": "",
          "type": "bytes32"
        }
      ],
      "stateMutability": "view",
      "type": "function"
    },
    {
      "inputs": [],
      "name": "DEFAULT_ADMIN_ROLE",
      "outputs": [
        {
          "internalType": "bytes32",
          "name": "",
          "type": "bytes32"
        }
      ],
      "stateMutability": "view",
      "type": "function"
    },
    {
      "inputs": [],
      "name": "POLICY_ROLE",
      "outputs": [
        {
          "internalType": "bytes32",
          "name": "",
          "type": "bytes32"
        }
      ],
      "stateMutability": "view",
      "type": "function"
    },
    {
      "inputs": [
        {
          "internalType": "address",
          "name": "account",
          "type": "address"
        }
      ],
      "name": "addAdmin",
      "outputs": [],
      "stateMutability": "nonpayable",
      "type": "function"
    },
    {
      "inputs": [
        {
          "internalType": "address",
          "name": "",
          "type": "address"
        }
      ],
      "name": "aliveImplementation",
      "outputs": [
        {
          "internalType": "bool",
          "name": "",
          "type": "bool"
        }
      ],
      "stateMutability": "view",
      "type": "function"
    },
    {
      "inputs": [
        {
          "internalType": "uint32",
          "name": "layerIndex",
          "type": "uint32"
        },
        {
          "internalType": "address",
          "name": "account",
          "type": "address"
        }
      ],
      "name": "amountOfPendings",
      "outputs": [
        {
          "internalType": "uint256",
          "name": "amount",
          "type": "uint256"
        },
        {
          "internalType": "uint32",
          "name": "startIndex",
          "type": "uint32"
        },
        {
          "internalType": "uint32",
          "name": "len",
          "type": "uint32"
        },
        {
          "internalType": "uint32",
          "name": "nextWithdrawableBlockNumber",
          "type": "uint32"
        }
      ],
      "stateMutability": "view",
      "type": "function"
    },
    {
      "inputs": [
        {
          "internalType": "uint32",
          "name": "_index",
          "type": "uint32"
        },
        {
          "internalType": "address",
          "name": "account",
          "type": "address"
        }
      ],
      "name": "availableWithdraw",
      "outputs": [
        {
          "internalType": "uint256",
          "name": "amount",
          "type": "uint256"
        },
        {
          "internalType": "uint32",
          "name": "startIndex",
          "type": "uint32"
        },
        {
          "internalType": "uint32",
          "name": "len",
          "type": "uint32"
        }
      ],
      "stateMutability": "view",
      "type": "function"
    },
    {
      "inputs": [
        {
          "internalType": "uint32",
          "name": "_index",
          "type": "uint32"
        },
        {
          "internalType": "address",
          "name": "account",
          "type": "address"
        }
      ],
      "name": "balanceOf",
      "outputs": [
        {
          "internalType": "uint256",
          "name": "amount",
          "type": "uint256"
        }
      ],
      "stateMutability": "view",
      "type": "function"
    },
    {
      "inputs": [
        {
          "internalType": "uint32",
          "name": "_index",
          "type": "uint32"
        },
        {
          "internalType": "address",
          "name": "account",
          "type": "address"
        },
        {
          "internalType": "uint256",
          "name": "snapshotId",
          "type": "uint256"
        }
      ],
      "name": "balanceOfAt",
      "outputs": [
        {
          "internalType": "uint256",
          "name": "amount",
          "type": "uint256"
        }
      ],
      "stateMutability": "view",
      "type": "function"
    },
    {
      "inputs": [
        {
          "internalType": "uint32",
          "name": "_index",
          "type": "uint32"
        }
      ],
      "name": "balanceOfLwton",
      "outputs": [
        {
          "internalType": "uint256",
          "name": "amount",
          "type": "uint256"
        }
      ],
      "stateMutability": "view",
      "type": "function"
    },
    {
      "inputs": [
        {
          "internalType": "uint32",
          "name": "_index",
          "type": "uint32"
        },
        {
          "internalType": "address",
          "name": "account",
          "type": "address"
        }
      ],
      "name": "balanceOfLwton",
      "outputs": [
        {
          "internalType": "uint256",
          "name": "amount",
          "type": "uint256"
        }
      ],
      "stateMutability": "view",
      "type": "function"
    },
    {
      "inputs": [
        {
          "internalType": "uint32",
          "name": "_index",
          "type": "uint32"
        },
        {
          "internalType": "address",
          "name": "account",
          "type": "address"
        },
        {
          "internalType": "uint256",
          "name": "snapshotId",
          "type": "uint256"
        }
      ],
      "name": "balanceOfLwtonAt",
      "outputs": [
        {
          "internalType": "uint256",
          "name": "amount",
          "type": "uint256"
        }
      ],
      "stateMutability": "view",
      "type": "function"
    },
    {
      "inputs": [
        {
          "internalType": "uint32",
          "name": "_index",
          "type": "uint32"
        },
        {
          "internalType": "uint256",
          "name": "snapshotId",
          "type": "uint256"
        }
      ],
      "name": "balanceOfLwtonAt",
      "outputs": [
        {
          "internalType": "uint256",
          "name": "amount",
          "type": "uint256"
        }
      ],
      "stateMutability": "view",
      "type": "function"
    },
    {
      "inputs": [
        {
          "internalType": "uint32",
          "name": "_index",
          "type": "uint32"
        },
        {
          "internalType": "uint256",
          "name": "snapshotId",
          "type": "uint256"
        }
      ],
      "name": "balanceOfLwtonAtSnapshot",
      "outputs": [
        {
          "internalType": "bool",
          "name": "snapshotted",
          "type": "bool"
        },
        {
          "internalType": "uint256",
          "name": "amount",
          "type": "uint256"
        }
      ],
      "stateMutability": "view",
      "type": "function"
    },
    {
      "inputs": [
        {
          "internalType": "uint32",
          "name": "_index",
          "type": "uint32"
        },
        {
          "internalType": "address",
          "name": "account",
          "type": "address"
        },
        {
          "internalType": "uint256",
          "name": "snapshotId",
          "type": "uint256"
        }
      ],
      "name": "balanceOfLwtonAtSnapshot",
      "outputs": [
        {
          "internalType": "bool",
          "name": "snapshotted",
          "type": "bool"
        },
        {
          "internalType": "uint256",
          "name": "amount",
          "type": "uint256"
        }
      ],
      "stateMutability": "view",
      "type": "function"
    },
    {
      "inputs": [
        {
          "internalType": "bytes32",
          "name": "hashMessage",
          "type": "bytes32"
        },
        {
          "internalType": "uint32",
          "name": "layerIndex",
          "type": "uint32"
        },
        {
          "internalType": "address",
          "name": "from",
          "type": "address"
        },
        {
          "internalType": "address",
          "name": "to",
          "type": "address"
        },
        {
          "internalType": "uint256",
          "name": "amount",
          "type": "uint256"
        }
      ],
      "name": "fastWithdrawClaim",
      "outputs": [
        {
          "internalType": "bool",
          "name": "",
          "type": "bool"
        }
      ],
      "stateMutability": "nonpayable",
      "type": "function"
    },
    {
      "inputs": [
        {
          "internalType": "bytes32",
          "name": "hashMessage",
          "type": "bytes32"
        },
        {
          "internalType": "uint32",
          "name": "layerIndex",
          "type": "uint32"
        },
        {
          "internalType": "address",
          "name": "staker",
          "type": "address"
        },
        {
          "internalType": "uint256",
          "name": "_amount",
          "type": "uint256"
        }
      ],
      "name": "fastWithdrawStake",
      "outputs": [
        {
          "internalType": "bool",
          "name": "",
          "type": "bool"
        }
      ],
      "stateMutability": "nonpayable",
      "type": "function"
    },
    {
      "inputs": [],
      "name": "fwReceipt",
      "outputs": [
        {
          "internalType": "address",
          "name": "",
          "type": "address"
        }
      ],
      "stateMutability": "view",
      "type": "function"
    },
    {
      "inputs": [],
      "name": "getCurrentSnapshotId",
      "outputs": [
        {
          "internalType": "uint256",
          "name": "",
          "type": "uint256"
        }
      ],
      "stateMutability": "view",
      "type": "function"
    },
    {
      "inputs": [
        {
          "internalType": "uint32",
          "name": "_index",
          "type": "uint32"
        },
        {
          "internalType": "address",
          "name": "account",
          "type": "address"
        }
      ],
      "name": "getLayerStakes",
      "outputs": [
        {
          "components": [
            {
              "internalType": "uint256",
              "name": "stakePrincipal",
              "type": "uint256"
            },
            {
              "internalType": "uint256",
              "name": "stakelwton",
              "type": "uint256"
            },
            {
              "internalType": "bool",
              "name": "stake",
              "type": "bool"
            }
          ],
          "internalType": "struct LibStake.StakeInfo",
          "name": "info",
          "type": "tuple"
        }
      ],
      "stateMutability": "view",
      "type": "function"
    },
    {
      "inputs": [
        {
          "internalType": "uint32",
          "name": "_index",
          "type": "uint32"
        },
        {
          "internalType": "address",
          "name": "account",
          "type": "address"
        }
      ],
      "name": "getPendingUnstakedAmount",
      "outputs": [
        {
          "internalType": "uint256",
          "name": "",
          "type": "uint256"
        }
      ],
      "stateMutability": "view",
      "type": "function"
    },
    {
      "inputs": [
        {
          "internalType": "bytes32",
          "name": "role",
          "type": "bytes32"
        }
      ],
      "name": "getRoleAdmin",
      "outputs": [
        {
          "internalType": "bytes32",
          "name": "",
          "type": "bytes32"
        }
      ],
      "stateMutability": "view",
      "type": "function"
    },
    {
      "inputs": [],
      "name": "getStakeAccountList",
      "outputs": [
        {
          "internalType": "address[]",
          "name": "",
          "type": "address[]"
        }
      ],
      "stateMutability": "view",
      "type": "function"
    },
    {
      "inputs": [],
      "name": "getTotalLwton",
      "outputs": [
        {
          "internalType": "uint256",
          "name": "",
          "type": "uint256"
        }
      ],
      "stateMutability": "view",
      "type": "function"
    },
    {
      "inputs": [
        {
          "internalType": "bytes32",
          "name": "role",
          "type": "bytes32"
        },
        {
          "internalType": "address",
          "name": "account",
          "type": "address"
        }
      ],
      "name": "grantRole",
      "outputs": [],
      "stateMutability": "nonpayable",
      "type": "function"
    },
    {
      "inputs": [
        {
          "internalType": "bytes32",
          "name": "role",
          "type": "bytes32"
        },
        {
          "internalType": "address",
          "name": "account",
          "type": "address"
        }
      ],
      "name": "hasRole",
      "outputs": [
        {
          "internalType": "bool",
          "name": "",
          "type": "bool"
        }
      ],
      "stateMutability": "view",
      "type": "function"
    },
    {
      "inputs": [
        {
          "internalType": "address",
          "name": "account",
          "type": "address"
        }
      ],
      "name": "isAdmin",
      "outputs": [
        {
          "internalType": "bool",
          "name": "",
          "type": "bool"
        }
      ],
      "stateMutability": "view",
      "type": "function"
    },
    {
      "inputs": [
        {
          "internalType": "uint32",
          "name": "_index",
          "type": "uint32"
        }
      ],
      "name": "layer2Deposits",
      "outputs": [
        {
          "internalType": "uint256",
          "name": "amount",
          "type": "uint256"
        }
      ],
      "stateMutability": "view",
      "type": "function"
    },
    {
      "inputs": [],
      "name": "layer2Manager",
      "outputs": [
        {
          "internalType": "address",
          "name": "",
          "type": "address"
        }
      ],
      "stateMutability": "view",
      "type": "function"
    },
    {
      "inputs": [
        {
          "internalType": "uint32",
          "name": "",
          "type": "uint32"
        }
      ],
      "name": "layerInfo",
      "outputs": [
        {
          "internalType": "bytes",
          "name": "",
          "type": "bytes"
        }
      ],
      "stateMutability": "view",
      "type": "function"
    },
    {
      "inputs": [
        {
          "internalType": "uint32",
          "name": "",
          "type": "uint32"
        }
      ],
      "name": "layerStakedLwton",
      "outputs": [
        {
          "internalType": "uint256",
          "name": "",
          "type": "uint256"
        }
      ],
      "stateMutability": "view",
      "type": "function"
    },
    {
      "inputs": [
        {
          "internalType": "uint32",
          "name": "",
          "type": "uint32"
        },
        {
          "internalType": "address",
          "name": "",
          "type": "address"
        }
      ],
      "name": "layerStakes",
      "outputs": [
        {
          "internalType": "uint256",
          "name": "stakePrincipal",
          "type": "uint256"
        },
        {
          "internalType": "uint256",
          "name": "stakelwton",
          "type": "uint256"
        },
        {
          "internalType": "bool",
          "name": "stake",
          "type": "bool"
        }
      ],
      "stateMutability": "view",
      "type": "function"
    },
    {
      "inputs": [
        {
          "internalType": "uint32",
          "name": "layerIndex",
          "type": "uint32"
        },
        {
          "internalType": "address",
          "name": "account",
          "type": "address"
        }
      ],
      "name": "numberOfPendings",
      "outputs": [
        {
          "internalType": "uint256",
          "name": "totalRequests",
          "type": "uint256"
        },
        {
          "internalType": "uint256",
          "name": "withdrawIndex",
          "type": "uint256"
        },
        {
          "internalType": "uint256",
          "name": "pendingLength",
          "type": "uint256"
        }
      ],
      "stateMutability": "view",
      "type": "function"
    },
    {
      "inputs": [],
      "name": "pauseProxy",
      "outputs": [
        {
          "internalType": "bool",
          "name": "",
          "type": "bool"
        }
      ],
      "stateMutability": "view",
      "type": "function"
    },
    {
      "inputs": [
        {
          "internalType": "uint32",
          "name": "",
          "type": "uint32"
        },
        {
          "internalType": "address",
          "name": "",
          "type": "address"
        }
      ],
      "name": "pendingUnstaked",
      "outputs": [
        {
          "internalType": "uint256",
          "name": "",
          "type": "uint256"
        }
      ],
      "stateMutability": "view",
      "type": "function"
    },
    {
      "inputs": [
        {
          "internalType": "address",
          "name": "",
          "type": "address"
        }
      ],
      "name": "pendingUnstakedAccount",
      "outputs": [
        {
          "internalType": "uint256",
          "name": "",
          "type": "uint256"
        }
      ],
      "stateMutability": "view",
      "type": "function"
    },
    {
      "inputs": [
        {
          "internalType": "uint32",
          "name": "",
          "type": "uint32"
        }
      ],
      "name": "pendingUnstakedLayer2",
      "outputs": [
        {
          "internalType": "uint256",
          "name": "",
          "type": "uint256"
        }
      ],
      "stateMutability": "view",
      "type": "function"
    },
    {
      "inputs": [
        {
          "internalType": "uint256",
          "name": "",
          "type": "uint256"
        }
      ],
      "name": "proxyImplementation",
      "outputs": [
        {
          "internalType": "address",
          "name": "",
          "type": "address"
        }
      ],
      "stateMutability": "view",
      "type": "function"
    },
    {
      "inputs": [
        {
          "internalType": "address",
          "name": "account",
          "type": "address"
        }
      ],
      "name": "removeAdmin",
      "outputs": [],
      "stateMutability": "nonpayable",
      "type": "function"
    },
    {
      "inputs": [
        {
          "internalType": "bytes32",
          "name": "role",
          "type": "bytes32"
        },
        {
          "internalType": "address",
          "name": "account",
          "type": "address"
        }
      ],
      "name": "renounceRole",
      "outputs": [],
      "stateMutability": "nonpayable",
      "type": "function"
    },
    {
      "inputs": [
        {
          "internalType": "uint32",
          "name": "_index",
          "type": "uint32"
        }
      ],
      "name": "restake",
      "outputs": [],
      "stateMutability": "nonpayable",
      "type": "function"
    },
    {
      "inputs": [
        {
          "internalType": "uint32",
          "name": "_index",
          "type": "uint32"
        },
        {
          "internalType": "uint256",
          "name": "n",
          "type": "uint256"
        }
      ],
      "name": "restakeMulti",
      "outputs": [],
      "stateMutability": "nonpayable",
      "type": "function"
    },
    {
      "inputs": [
        {
          "internalType": "bytes32",
          "name": "role",
          "type": "bytes32"
        },
        {
          "internalType": "address",
          "name": "account",
          "type": "address"
        }
      ],
      "name": "revokeRole",
      "outputs": [],
      "stateMutability": "nonpayable",
      "type": "function"
    },
    {
      "inputs": [],
      "name": "seigManagerV2",
      "outputs": [
        {
          "internalType": "address",
          "name": "",
          "type": "address"
        }
      ],
      "stateMutability": "view",
      "type": "function"
    },
    {
      "inputs": [
        {
          "internalType": "bytes4",
          "name": "",
          "type": "bytes4"
        }
      ],
      "name": "selectorImplementation",
      "outputs": [
        {
          "internalType": "address",
          "name": "",
          "type": "address"
        }
      ],
      "stateMutability": "view",
      "type": "function"
    },
    {
      "inputs": [
        {
          "internalType": "uint256",
          "name": "",
          "type": "uint256"
        }
      ],
      "name": "stakeAccountList",
      "outputs": [
        {
          "internalType": "address",
          "name": "",
          "type": "address"
        }
      ],
      "stateMutability": "view",
      "type": "function"
    },
    {
      "inputs": [
        {
          "internalType": "bytes4",
          "name": "interfaceId",
          "type": "bytes4"
        }
      ],
      "name": "supportsInterface",
      "outputs": [
        {
          "internalType": "bool",
          "name": "",
          "type": "bool"
        }
      ],
      "stateMutability": "view",
      "type": "function"
    },
    {
      "inputs": [],
      "name": "totalLayer2Deposits",
      "outputs": [
        {
          "internalType": "uint256",
          "name": "amount",
          "type": "uint256"
        }
      ],
      "stateMutability": "view",
      "type": "function"
    },
    {
      "inputs": [],
      "name": "totalStakeAccountList",
      "outputs": [
        {
          "internalType": "uint256",
          "name": "",
          "type": "uint256"
        }
      ],
      "stateMutability": "view",
      "type": "function"
    },
    {
      "inputs": [],
      "name": "totalStakedLwton",
      "outputs": [
        {
          "internalType": "uint256",
          "name": "amount",
          "type": "uint256"
        }
      ],
      "stateMutability": "view",
      "type": "function"
    },
    {
      "inputs": [
        {
          "internalType": "uint256",
          "name": "snapshotId",
          "type": "uint256"
        }
      ],
      "name": "totalStakedLwtonAt",
      "outputs": [
        {
          "internalType": "uint256",
          "name": "amount",
          "type": "uint256"
        }
      ],
      "stateMutability": "view",
      "type": "function"
    },
    {
      "inputs": [
        {
          "internalType": "uint256",
          "name": "snapshotId",
          "type": "uint256"
        }
      ],
      "name": "totalStakedLwtonAtSnapshot",
      "outputs": [
        {
          "internalType": "bool",
          "name": "snapshotted",
          "type": "bool"
        },
        {
          "internalType": "uint256",
          "name": "amount",
          "type": "uint256"
        }
      ],
      "stateMutability": "view",
      "type": "function"
    },
    {
      "inputs": [
        {
          "internalType": "address",
          "name": "newAdmin",
          "type": "address"
        }
      ],
      "name": "transferAdmin",
      "outputs": [],
      "stateMutability": "nonpayable",
      "type": "function"
    },
    {
      "inputs": [
        {
          "internalType": "uint32",
          "name": "_index",
          "type": "uint32"
        }
      ],
      "name": "withdraw",
      "outputs": [],
      "stateMutability": "nonpayable",
      "type": "function"
    },
    {
      "inputs": [
        {
          "internalType": "uint32",
          "name": "",
          "type": "uint32"
        },
        {
          "internalType": "address",
          "name": "",
          "type": "address"
        }
      ],
      "name": "withdrawalRequestIndex",
      "outputs": [
        {
          "internalType": "uint256",
          "name": "",
          "type": "uint256"
        }
      ],
      "stateMutability": "view",
      "type": "function"
    },
    {
      "inputs": [
        {
          "internalType": "uint32",
          "name": "",
          "type": "uint32"
        },
        {
          "internalType": "address",
          "name": "",
          "type": "address"
        },
        {
          "internalType": "uint256",
          "name": "",
          "type": "uint256"
        }
      ],
      "name": "withdrawalRequests",
      "outputs": [
        {
          "internalType": "uint32",
          "name": "withdrawableBlockNumber",
          "type": "uint32"
        },
        {
          "internalType": "uint128",
          "name": "amount",
          "type": "uint128"
        },
        {
          "internalType": "bool",
          "name": "processed",
          "type": "bool"
        }
      ],
      "stateMutability": "view",
      "type": "function"
    },
    {
      "inputs": [],
      "name": "wton",
      "outputs": [
        {
          "internalType": "address",
          "name": "",
          "type": "address"
        }
      ],
      "stateMutability": "view",
      "type": "function"
    }
  ],
  "bytecode": "0x60806040526006805460ff1916600117905534801561001d57600080fd5b506131fe8061002d6000396000f3fe608060405234801561001057600080fd5b50600436106103825760003560e01c806373469a7a116101de5780639c656e261161010f578063b969fbef116100ad578063d547741f1161007c578063d547741f14610a0e578063ec110d4514610a21578063f54dea8314610a34578063f6b9c5b214610a4757600080fd5b8063b969fbef1461096d578063b9cab97114610975578063ba5adc6b14610995578063d07918f1146109fb57600080fd5b8063aa40362f116100e9578063aa40362f146108f0578063aa9224cd14610903578063b6a2f99d14610916578063b911135f1461094457600080fd5b80639c656e261461086e578063a0b2a913146108c8578063a217fddf146108e857600080fd5b80638c71762d1161017c5780638ddd87fe116101565780638ddd87fe146107d357806391d148541461081157806394c89b2c14610848578063962b59a41461085b57600080fd5b80638c71762d146107735780638d62d949146107a85780638d99e1ca146107c057600080fd5b806375b238fc116101b857806375b238fc146106fb5780637cf1587c1461072257806380b0eb021461074d57806385b9e4851461076057600080fd5b806373469a7a146106c2578063744a3561146106d557806375829def146106e857600080fd5b806336568abe116102b8578063550d01a311610256578063659ab82011610230578063659ab8201461063d5780636d1ef1031461065d578063704802751461069c5780637138c792146106af57600080fd5b8063550d01a3146105e25780635e2cfe451461060557806363a8fd891461063057600080fd5b80634c69a65f116102925780634c69a65f1461057c5780634de131ca1461059c57806350d2a276146105b15780635439ad86146105da57600080fd5b806336568abe1461056157806336e3579f1461053357806346bcdb491461057457600080fd5b80631f760d011161032557806324d7806c116102ff57806324d7806c14610520578063275be97d1461053357806329637c1c1461053b5780632f2ff15d1461054e57600080fd5b80631f760d011461049757806322985246146104d6578063248a9ca3146104fd57600080fd5b8063128dfbab11610361578063128dfbab146103f857806316b5d5bd146104225780631785f53c1461044d5780631ed944951461046057600080fd5b806207c7851461038757806301ffc9a7146103c0578063118e29d1146103e3575b600080fd5b6103ad610395366004612d55565b63ffffffff166000908152600d602052604090205490565b6040519081526020015b60405180910390f35b6103d36103ce366004612d70565b610a5a565b60405190151581526020016103b7565b6103f66103f1366004612d55565b610a91565b005b61040b610406366004612d9a565b610b06565b6040805192151583526020830191909152016103b7565b600854610435906001600160a01b031681565b6040516001600160a01b0390911681526020016103b7565b6103f661045b366004612ddb565b610b34565b61047361046e366004612df6565b610bc1565b604080518251815260208084015190820152918101511515908201526060016103b7565b6104aa6104a5366004612df6565b610c40565b6040805194855263ffffffff9384166020860152918316918401919091521660608201526080016103b7565b6103ad7ffb5864e8ff833c3cb2d2d08505e82ff02a43554c74a35d4f5a64e8526127831181565b6103ad61050b366004612e29565b60009081526020819052604090206001015490565b6103d361052e366004612ddb565b610d7e565b600a546103ad565b6103ad610549366004612e42565b610dbe565b6103f661055c366004612e7e565b610e4d565b6103f661056f366004612e7e565b610e77565b6017546103ad565b6103ad61058a366004612d55565b600d6020526000908152604090205481565b6105a4610eff565b6040516103b79190612ea1565b6104356105bf366004612d70565b6004602052600090815260409020546001600160a01b031681565b6103ad610f61565b6103d36105f0366004612ddb565b60036020526000908152604090205460ff1681565b6103ad610613366004612df6565b601360209081526000928352604080842090915290825290205481565b6001546103d39060ff1681565b61065061064b366004612d55565b610fd4565b6040516103b79190612f3e565b61067061066b366004612e42565b61106e565b6040805163ffffffff90941684526001600160801b0390921660208401521515908201526060016103b7565b6103f66106aa366004612ddb565b6110cd565b6103d36106bd366004612f51565b611157565b600754610435906001600160a01b031681565b6103f66106e3366004612d9a565b611329565b6103f66106f6366004612ddb565b611394565b6103ad7fdf8b4c520ffe197c5343c6f5aec59570151ef9a492f2c624fd45ddde6135ec4281565b6103ad610730366004612df6565b601260209081526000928352604080842090915290825290205481565b6103ad61075b366004612e42565b6114f6565b6103d361076e366004612f95565b61159a565b610786610781366004612df6565b61183f565b6040805193845263ffffffff92831660208501529116908201526060016103b7565b6006546104359061010090046001600160a01b031681565b6103ad6107ce366004612d55565b61197c565b6103ad6107e1366004612df6565b63ffffffff821660009081526013602090815260408083206001600160a01b038516845290915290205492915050565b6103d361081f366004612e7e565b6000918252602082815260408084206001600160a01b0393909316845291905290205460ff1690565b6103ad610856366004612df6565b6119ef565b6103ad610869366004612d9a565b611aaf565b6108ab61087c366004612df6565b600f60209081526000928352604080842090915290825290208054600182015460029092015490919060ff1683565b6040805193845260208401929092521515908201526060016103b7565b6103ad6108d6366004612ddb565b60156020526000908152604090205481565b6103ad600081565b61040b6108fe366004612e29565b611b02565b6103f6610911366004612d55565b611b19565b610929610924366004612df6565b611f2e565b604080519384526020840192909252908201526060016103b7565b610435610952366004612e29565b6002602052600090815260409020546001600160a01b031681565b6103ad611f89565b6103ad610983366004612d55565b60146020526000908152604090205481565b6103ad6109a3366004612df6565b63ffffffff9091166000908152600f602090815260408083206001600160a01b03909416835292815290829020825160608101845281548152600182015492810183905260029091015460ff16151592019190915290565b600954610435906001600160a01b031681565b6103f6610a1c366004612e7e565b611fd3565b610435610a2f366004612e29565b611ff8565b61040b610a42366004612e42565b612022565b6103ad610a55366004612e29565b612064565b60006001600160e01b03198216637965db0b60e01b1480610a8b57506301ffc9a760e01b6001600160e01b03198316145b92915050565b63ffffffff811660009081526012602090815260408083203380855292529091205490610ac2908390836001612085565b610b025760405162461bcd60e51b815260206004820152600c60248201526b534c5f455f52455354414b4560a01b60448201526064015b60405180910390fd5b5050565b63ffffffff82166000908152600e602052604081208190610b2890849061253c565b915091505b9250929050565b610b3d33610d7e565b610b945760405162461bcd60e51b815260206004820152602260248201527f41636365737369626c653a2043616c6c6572206973206e6f7420616e2061646d60448201526134b760f11b6064820152608401610af9565b610bbe7fdf8b4c520ffe197c5343c6f5aec59570151ef9a492f2c624fd45ddde6135ec4282610e77565b50565b610be7604051806060016040528060008152602001600081526020016000151581525090565b5063ffffffff9091166000908152600f602090815260408083206001600160a01b039094168352928152908290208251606081018452815481526001820154928101929092526002015460ff1615159181019190915290565b63ffffffff80831660008181526011602090815260408083206001600160a01b038716808552908352818420549484526012835281842090845290915281205490929091839182919084165b81811015610d735763ffffffff881660009081526011602090815260408083206001600160a01b038b1684529091528120805483908110610ccf57610ccf612fea565b6000918252602080832060408051606081018252939091015463ffffffff8116845264010000000081046001600160801b031692840192909252600160a01b90910460ff1615159082018190529092509003610d60578363ffffffff16600003610d3857805193505b6020810151610d50906001600160801b031688613016565b9650610d5d600186613029565b94505b5080610d6b8161304d565b915050610c8c565b505092959194509250565b6001600160a01b03811660009081527f5cbfc8ee58ca47855df7bcf648dd304ddb6b932f9b87878bdf6318d7ec7ee5b7602052604081205460ff16610a8b565b6007546000906001600160a01b03166301792de1610ddd8686866114f6565b846040518363ffffffff1660e01b8152600401610e04929190918252602082015260400190565b602060405180830381865afa158015610e21573d6000803e3d6000fd5b505050506040513d601f19601f82011682018060405250810190610e459190613066565b949350505050565b600082815260208190526040902060010154610e688161265f565b610e728383612669565b505050565b6001600160a01b0381163314610ef55760405162461bcd60e51b815260206004820152602f60248201527f416363657373436f6e74726f6c3a2063616e206f6e6c792072656e6f756e636560448201527f20726f6c657320666f722073656c6600000000000000000000000000000000006064820152608401610af9565b610b028282612707565b60606017805480602002602001604051908101604052809291908181526020018280548015610f5757602002820191906000526020600020905b81546001600160a01b03168152600190910190602001808311610f39575b5050505050905090565b60075460408051632a1cd6c360e11b815290516000926001600160a01b031691635439ad869160048083019260209291908290030181865afa158015610fab573d6000803e3d6000fd5b505050506040513d601f19601f82011682018060405250810190610fcf9190613066565b905090565b60166020526000908152604090208054610fed9061307f565b80601f01602080910402602001604051908101604052809291908181526020018280546110199061307f565b80156110665780601f1061103b57610100808354040283529160200191611066565b820191906000526020600020905b81548152906001019060200180831161104957829003601f168201915b505050505081565b6011602052826000526040600020602052816000526040600020818154811061109657600080fd5b60009182526020909120015463ffffffff8116935064010000000081046001600160801b03169250600160a01b900460ff16905083565b6110d633610d7e565b61112d5760405162461bcd60e51b815260206004820152602260248201527f41636365737369626c653a2043616c6c6572206973206e6f7420616e2061646d60448201526134b760f11b6064820152608401610af9565b610bbe7fdf8b4c520ffe197c5343c6f5aec59570151ef9a492f2c624fd45ddde6135ec4282610e4d565b6009546000906001600160a01b031633146111a45760405162461bcd60e51b815260206004820152600d60248201526c232bafa1a0a62622a92fa2a92960991b6044820152606401610af9565b6111ae8484612786565b600754604051630dd1da2b60e41b8152600481018490526000916001600160a01b03169063dd1da2b090602401602060405180830381865afa1580156111f8573d6000803e3d6000fd5b505050506040513d601f19601f8201168201806040525081019061121c9190613066565b63ffffffff86166000908152600d6020526040812080549293508392909190611246908490613016565b9250508190555080600a600082825461125f9190613016565b909155505063ffffffff85166000908152600f602090815260408083206001600160a01b038816845290915281208054909185918391906112a1908490613016565b92505081905550818160010160008282546112bc9190613016565b90915550506040805188815263ffffffff881660208201526001600160a01b03871681830152606081018690526080810184905290517f8cf204c07a4ce065cdd0c90963672bd384e5479ada88179bca8eb6075c02731f9181900360a00190a15060019695505050505050565b63ffffffff8216600090815260126020908152604080832033808552925290912054906113599084908385612085565b610e725760405162461bcd60e51b815260206004820152600c60248201526b534c5f455f52455354414b4560a01b6044820152606401610af9565b61139d33610d7e565b6113f45760405162461bcd60e51b815260206004820152602260248201527f41636365737369626c653a2043616c6c6572206973206e6f7420616e2061646d60448201526134b760f11b6064820152608401610af9565b6001600160a01b03811661144a5760405162461bcd60e51b815260206004820152601860248201527f41636365737369626c653a207a65726f206164647265737300000000000000006044820152606401610af9565b6001600160a01b03811633036114a25760405162461bcd60e51b815260206004820152601660248201527f41636365737369626c653a2073616d652061646d696e000000000000000000006044820152606401610af9565b6114cc7fdf8b4c520ffe197c5343c6f5aec59570151ef9a492f2c624fd45ddde6135ec4282610e4d565b610bbe7fdf8b4c520ffe197c5343c6f5aec59570151ef9a492f2c624fd45ddde6135ec4233610e77565b63ffffffff831660009081526010602090815260408083206001600160a01b038616845290915281208190819061152e90859061253c565b915091508161158e5763ffffffff86166000908152600f602090815260408083206001600160a01b0389168452825291829020825160608101845281548152600182015492810183905260029091015460ff161515920191909152611590565b805b9695505050505050565b60065460009060ff166115d85760405162461bcd60e51b8152600401610af9906020808252600490820152636c6f636b60e01b604082015260600190565b6006805460ff191690556009546001600160a01b0316331461162c5760405162461bcd60e51b815260206004820152600d60248201526c232bafa1a0a62622a92fa2a92960991b6044820152606401610af9565b8161163786866119ef565b10156116855760405162461bcd60e51b815260206004820152601960248201527f6c697175696469747920697320696e73756666696369656e74000000000000006044820152606401610af9565b61168f8585612786565b6006546040516370a0823160e01b815230600482015260009161010090046001600160a01b0316906370a0823190602401602060405180830381865afa1580156116dd573d6000803e3d6000fd5b505050506040513d601f19601f820116820180604052508101906117019190613066565b9050828110156117ac57801561172d5760065461172d9061010090046001600160a01b03168583612834565b6007546001600160a01b031663aad3ec968561174984876130b9565b6040516001600160e01b031960e085901b1681526001600160a01b0390921660048301526024820152604401600060405180830381600087803b15801561178f57600080fd5b505af11580156117a3573d6000803e3d6000fd5b505050506117c8565b6006546117c89061010090046001600160a01b03168585612834565b6040805188815263ffffffff881660208201526001600160a01b0387811682840152861660608201526080810185905290517f77fbf71434da34ef2aa8382e2b751b6b2de7bd18d96a07ff7f4dae7dae9237619181900360a00190a160019150506006805460ff1916600117905595945050505050565b63ffffffff80831660008181526011602090815260408083206001600160a01b038716808552908352818420549484526012835281842090845290915281205490929091839183165b818110156119735763ffffffff871660009081526011602090815260408083206001600160a01b038a16845290915281208054839081106118cb576118cb612fea565b600091825260209182902060408051606081018252929091015463ffffffff811680845264010000000082046001600160801b031694840194909452600160a01b900460ff1615159082015291504311801561192957506040810151155b1561195a576020810151611946906001600160801b031687613016565b9550611953600185613029565b9350611960565b50611973565b508061196b8161304d565b915050611888565b50509250925092565b6008546040516346ccf0e560e11b815263ffffffff831660048201526000916001600160a01b031690638d99e1ca90602401602060405180830381865afa1580156119cb573d6000803e3d6000fd5b505050506040513d601f19601f82011682018060405250810190610a8b9190613066565b60075463ffffffff83166000908152600f602090815260408083206001600160a01b038681168552908352818420825160608101845281548152600182015494810185905260029091015460ff16151590830152905163257397a560e11b8152600481019290925291929190911690634ae72f4a90602401602060405180830381865afa158015611a84573d6000803e3d6000fd5b505050506040513d601f19601f82011682018060405250810190611aa89190613066565b9392505050565b63ffffffff82166000908152600e6020526040812081908190611ad390859061253c565b9150915081611af75763ffffffff85166000908152600d6020526040902054611af9565b805b95945050505050565b600080611b1083600b61253c565b91509150915091565b60065460ff16611b545760405162461bcd60e51b8152600401610af9906020808252600490820152636c6f636b60e01b604082015260600190565b6006805460ff1916905563ffffffff811660008181526011602090815260408083203380855290835281842054948452601283528184208185529092528220549092919081905b83811015611c6d5763ffffffff861660009081526011602090815260408083206001600160a01b03891684529091528120805483908110611bde57611bde612fea565b600091825260209091200180549091504363ffffffff909116108015611c0d57508054600160a01b900460ff16155b15611c5457805460ff60a01b1916600160a01b17808255611c40906001600160801b036401000000009091041684613016565b925083611c4c8161304d565b945050611c5a565b50611c6d565b5080611c658161304d565b915050611b9b565b5060008111611cbe5760405162461bcd60e51b815260206004820181905260248201527f7a65726f20617661696c61626c65207769746864726177616c20616d6f756e746044820152606401610af9565b63ffffffff851660009081526012602090815260408083206001600160a01b038816845290915281208054849290611cf7908490613016565b909155505063ffffffff851660009081526013602090815260408083206001600160a01b038816845290915281208054839290611d359084906130b9565b909155505063ffffffff851660009081526014602052604081208054839290611d5f9084906130b9565b90915550506001600160a01b03841660009081526015602052604081208054839290611d8c9084906130b9565b90915550506006546040516370a0823160e01b815230600482015260009161010090046001600160a01b0316906370a0823190602401602060405180830381865afa158015611ddf573d6000803e3d6000fd5b505050506040513d601f19601f82011682018060405250810190611e039190613066565b905081811015611eae578015611e2f57600654611e2f9061010090046001600160a01b03168683612834565b6007546001600160a01b031663aad3ec9686611e4b84866130b9565b6040516001600160e01b031960e085901b1681526001600160a01b0390921660048301526024820152604401600060405180830381600087803b158015611e9157600080fd5b505af1158015611ea5573d6000803e3d6000fd5b50505050611eca565b600654611eca9061010090046001600160a01b03168684612834565b6040805163ffffffff881681526001600160a01b03871660208201529081018390527f2d6eb139d2002caa088da5527d9d62f2f23bdf4504f5559a112535c436c6ee599060600160405180910390a150506006805460ff1916600117905550505050565b63ffffffff821660008181526011602090815260408083206001600160a01b038616808552908352818420549484526012835281842090845290915281205490818310611f8257611f7f82846130b9565b90505b9250925092565b6008546040805163b969fbef60e01b815290516000926001600160a01b03169163b969fbef9160048083019260209291908290030181865afa158015610fab573d6000803e3d6000fd5b600082815260208190526040902060010154611fee8161265f565b610e728383612707565b6017818154811061200857600080fd5b6000918252602090912001546001600160a01b0316905081565b63ffffffff831660009081526010602090815260408083206001600160a01b03861684529091528120819061205890849061253c565b91509150935093915050565b600080600061207484600b61253c565b9150915081611aa857600a54610e45565b60065460009060ff166120c35760405162461bcd60e51b8152600401610af9906020808252600490820152636c6f636b60e01b604082015260600190565b6006805460ff191690556120d78585612786565b63ffffffff851660009081526011602090815260408083206001600160a01b03881684529091528120548061213b5760405162461bcd60e51b815260206004820152600a6024820152696e6f20756e7374616b6560b01b6044820152606401610af9565b8361214686836130b9565b10156121945760405162461bcd60e51b815260206004820152601860248201527f6e2065786365656473206e756d206f662070656e64696e6700000000000000006044820152606401610af9565b60006121a08587613016565b90505b808610156122965763ffffffff881660009081526011602090815260408083206001600160a01b038b16845290915281208054889081106121e6576121e6612fea565b6000918252602090912001805490915064010000000081046001600160801b031690600160a01b900460ff161561225f5760405162461bcd60e51b815260206004820152601260248201527f616c7265616479207769746864726177616c00000000000000000000000000006044820152606401610af9565b80156122725761226f8186613016565b94505b50805460ff60a01b1916600160a01b1790558561228e8161304d565b9650506121a3565b600083116122e65760405162461bcd60e51b815260206004820152601760248201527f6e6f2076616c69642072657374616b6520616d6f756e740000000000000000006044820152606401610af9565b600754604051630dd1da2b60e41b8152600481018590526000916001600160a01b03169063dd1da2b090602401602060405180830381865afa158015612330573d6000803e3d6000fd5b505050506040513d601f19601f820116820180604052508101906123549190613066565b63ffffffff8a166000908152600f602090815260408083206001600160a01b038d168452909152812080549293509186918391612392908490613016565b92505081905550818160010160008282546123ad9190613016565b909155505063ffffffff8a166000908152600d6020526040812080548492906123d7908490613016565b9250508190555081600a60008282546123f09190613016565b909155505063ffffffff8a1660009081526013602090815260408083206001600160a01b038d1684529091528120805487929061242e9084906130b9565b909155505063ffffffff8a16600090815260146020526040812080548792906124589084906130b9565b90915550506001600160a01b038916600090815260156020526040812080548792906124859084906130b9565b909155505063ffffffff8a1660009081526012602090815260408083206001600160a01b038d168452909152812080548992906124c3908490613016565b90915550506040805163ffffffff8c1681526001600160a01b038b166020820152908101869052606081018390527f34981dc0486069d2abbaddbc42e10b97cb24e4bce60ee4457e1d5062dfc0b4299060800160405180910390a16001955050505050506006805460ff19166001179055949350505050565b600080612547610f61565b8411156125965760405162461bcd60e51b815260206004820152601860248201527f536e617073686f743a206e6f6e6578697374656e7420696400000000000000006044820152606401610af9565b8254158015906125cf5750825483906125b1906001906130b9565b815481106125c1576125c1612fea565b906000526020600020015484115b1561260d5782546000906001808601916125e991906130b9565b815481106125f9576125f9612fea565b906000526020600020015491509150610b2d565b60006126198486612964565b84549091508110612631576000809250925050610b2d565b600184600101828154811061264857612648612fea565b906000526020600020015492509250509250929050565b610bbe8133612a74565b6000828152602081815260408083206001600160a01b038516845290915290205460ff16610b02576000828152602081815260408083206001600160a01b03851684529091529020805460ff191660011790556126c33390565b6001600160a01b0316816001600160a01b0316837f2f8788117e7eff1d82e926ec794901d17c78024a50270940304540a733656f0d60405160405180910390a45050565b6000828152602081815260408083206001600160a01b038516845290915290205460ff1615610b02576000828152602081815260408083206001600160a01b0385168085529252808320805460ff1916905551339285917ff6391f5c32d9c69d2a47ea670b442974b53935d1edc7fd64eb21e047a839171b9190a45050565b612799600b612794600a5490565b612ae7565b63ffffffff82166000908152600e60209081526040808320600d909252909120546127c49190612ae7565b63ffffffff821660008181526010602090815260408083206001600160a01b038616808552908352818420948452600f8352818420908452825291829020825160608101845281548152600182015492810183905260029091015460ff161515920191909152610b029190612ae7565b604080516001600160a01b038481166024830152604480830185905283518084039091018152606490920183526020820180517bffffffffffffffffffffffffffffffffffffffffffffffffffffffff1663a9059cbb60e01b17905291516000928392908716916128a591906130cc565b6000604051808303816000865af19150503d80600081146128e2576040519150601f19603f3d011682016040523d82523d6000602084013e6128e7565b606091505b509150915081801561291157508051158061291157508080602001905181019061291191906130e8565b61295d5760405162461bcd60e51b815260206004820152600f60248201527f5452414e534645525f4641494c454400000000000000000000000000000000006044820152606401610af9565b5050505050565b8154600090810361297757506000610a8b565b82548390612987906001906130b9565b8154811061299757612997612fea565b906000526020600020015482106129bd5782546129b6906001906130b9565b9050610a8b565b826000815481106129d0576129d0612fea565b90600052602060002001548210156129ea57506000610a8b565b825460009081906129fd906001906130b9565b90505b81811115612a6c5760006002612a168484613016565b612a21906001613016565b612a2b919061310a565b905084868281548110612a4057612a40612fea565b906000526020600020015411612a5857809250612a66565b612a636001826130b9565b91505b50612a00565b509392505050565b6000828152602081815260408083206001600160a01b038516845290915290205460ff16610b0257612aa581612b3c565b612ab0836020612b4e565b604051602001612ac192919061312c565b60408051601f198184030181529082905262461bcd60e51b8252610af991600401612f3e565b6000612af1610f61565b83549091501580612b09575080612b0784612cf7565b105b15610e72578254600180820185556000858152602080822090930193909355938401805494850181558252902090910155565b6060610a8b6001600160a01b03831660145b60606000612b5d8360026131ad565b612b68906002613016565b67ffffffffffffffff811115612b8057612b806131c4565b6040519080825280601f01601f191660200182016040528015612baa576020820181803683370190505b509050600360fc1b81600081518110612bc557612bc5612fea565b60200101906001600160f81b031916908160001a905350600f60fb1b81600181518110612bf457612bf4612fea565b60200101906001600160f81b031916908160001a9053506000612c188460026131ad565b612c23906001613016565b90505b6001811115612ca8577f303132333435363738396162636465660000000000000000000000000000000085600f1660108110612c6457612c64612fea565b1a60f81b828281518110612c7a57612c7a612fea565b60200101906001600160f81b031916908160001a90535060049490941c93612ca1816131da565b9050612c26565b508315611aa85760405162461bcd60e51b815260206004820181905260248201527f537472696e67733a20686578206c656e67746820696e73756666696369656e746044820152606401610af9565b80546000908103612d0a57506000919050565b81548290612d1a906001906130b9565b81548110612d2a57612d2a612fea565b90600052602060002001549050919050565b919050565b803563ffffffff81168114612d3c57600080fd5b600060208284031215612d6757600080fd5b611aa882612d41565b600060208284031215612d8257600080fd5b81356001600160e01b031981168114611aa857600080fd5b60008060408385031215612dad57600080fd5b612db683612d41565b946020939093013593505050565b80356001600160a01b0381168114612d3c57600080fd5b600060208284031215612ded57600080fd5b611aa882612dc4565b60008060408385031215612e0957600080fd5b612e1283612d41565b9150612e2060208401612dc4565b90509250929050565b600060208284031215612e3b57600080fd5b5035919050565b600080600060608486031215612e5757600080fd5b612e6084612d41565b9250612e6e60208501612dc4565b9150604084013590509250925092565b60008060408385031215612e9157600080fd5b82359150612e2060208401612dc4565b6020808252825182820181905260009190848201906040850190845b81811015612ee25783516001600160a01b031683529284019291840191600101612ebd565b50909695505050505050565b60005b83811015612f09578181015183820152602001612ef1565b50506000910152565b60008151808452612f2a816020860160208601612eee565b601f01601f19169290920160200192915050565b602081526000611aa86020830184612f12565b60008060008060808587031215612f6757600080fd5b84359350612f7760208601612d41565b9250612f8560408601612dc4565b9396929550929360600135925050565b600080600080600060a08688031215612fad57600080fd5b85359450612fbd60208701612d41565b9350612fcb60408701612dc4565b9250612fd960608701612dc4565b949793965091946080013592915050565b634e487b7160e01b600052603260045260246000fd5b634e487b7160e01b600052601160045260246000fd5b80820180821115610a8b57610a8b613000565b63ffffffff81811683821601908082111561304657613046613000565b5092915050565b60006001820161305f5761305f613000565b5060010190565b60006020828403121561307857600080fd5b5051919050565b600181811c9082168061309357607f821691505b6020821081036130b357634e487b7160e01b600052602260045260246000fd5b50919050565b81810381811115610a8b57610a8b613000565b600082516130de818460208701612eee565b9190910192915050565b6000602082840312156130fa57600080fd5b81518015158114611aa857600080fd5b60008261312757634e487b7160e01b600052601260045260246000fd5b500490565b7f416363657373436f6e74726f6c3a206163636f756e7420000000000000000000815260008351613164816017850160208801612eee565b7f206973206d697373696e6720726f6c652000000000000000000000000000000060179184019182015283516131a1816028840160208801612eee565b01602801949350505050565b8082028115828204841417610a8b57610a8b613000565b634e487b7160e01b600052604160045260246000fd5b6000816131e9576131e9613000565b50600019019056fea164736f6c6343000812000a",
  "linkReferences": {},
  "deployedLinkReferences": {}
}