{
  "_format": "hh-sol-artifact-1",
  "contractName": "Staking",
  "sourceName": "contracts/Staking.sol",
  "abi": [
    {
      "inputs": [],
      "stateMutability": "nonpayable",
      "type": "constructor"
    },
    {
      "anonymous": false,
      "inputs": [
        {
          "indexed": false,
          "internalType": "bytes32",
          "name": "hashMessage",
          "type": "bytes32"
        },
        {
          "indexed": false,
          "internalType": "uint32",
          "name": "layerIndex",
          "type": "uint32"
        },
        {
          "indexed": false,
          "internalType": "address",
          "name": "from",
          "type": "address"
        },
        {
          "indexed": false,
          "internalType": "address",
          "name": "to",
          "type": "address"
        },
        {
          "indexed": false,
          "internalType": "uint256",
          "name": "amount",
          "type": "uint256"
        }
      ],
      "name": "FastWithdrawalClaim",
      "type": "event"
    },
    {
      "anonymous": false,
      "inputs": [
        {
          "indexed": false,
          "internalType": "bytes32",
          "name": "hashMessage",
          "type": "bytes32"
        },
        {
          "indexed": false,
          "internalType": "uint32",
          "name": "layerIndex",
          "type": "uint32"
        },
        {
          "indexed": false,
          "internalType": "address",
          "name": "staker",
          "type": "address"
        },
        {
          "indexed": false,
          "internalType": "uint256",
          "name": "amount",
          "type": "uint256"
        },
        {
          "indexed": false,
          "internalType": "uint256",
          "name": "lton",
          "type": "uint256"
        }
      ],
      "name": "FastWithdrawalStaked",
      "type": "event"
    },
    {
      "anonymous": false,
      "inputs": [
        {
          "indexed": false,
          "internalType": "uint32",
          "name": "sequencerIndex",
          "type": "uint32"
        },
        {
          "indexed": false,
          "internalType": "uint32",
          "name": "candidateIndex",
          "type": "uint32"
        },
        {
          "indexed": false,
          "internalType": "address",
          "name": "sender",
          "type": "address"
        },
        {
          "indexed": false,
          "internalType": "uint256",
          "name": "amount",
          "type": "uint256"
        },
        {
          "indexed": false,
          "internalType": "uint256",
          "name": "lton",
          "type": "uint256"
        }
      ],
      "name": "Restaked",
      "type": "event"
    },
    {
      "anonymous": false,
      "inputs": [
        {
          "indexed": true,
          "internalType": "bytes32",
          "name": "role",
          "type": "bytes32"
        },
        {
          "indexed": true,
          "internalType": "bytes32",
          "name": "previousAdminRole",
          "type": "bytes32"
        },
        {
          "indexed": true,
          "internalType": "bytes32",
          "name": "newAdminRole",
          "type": "bytes32"
        }
      ],
      "name": "RoleAdminChanged",
      "type": "event"
    },
    {
      "anonymous": false,
      "inputs": [
        {
          "indexed": true,
          "internalType": "bytes32",
          "name": "role",
          "type": "bytes32"
        },
        {
          "indexed": true,
          "internalType": "address",
          "name": "account",
          "type": "address"
        },
        {
          "indexed": true,
          "internalType": "address",
          "name": "sender",
          "type": "address"
        }
      ],
      "name": "RoleGranted",
      "type": "event"
    },
    {
      "anonymous": false,
      "inputs": [
        {
          "indexed": true,
          "internalType": "bytes32",
          "name": "role",
          "type": "bytes32"
        },
        {
          "indexed": true,
          "internalType": "address",
          "name": "account",
          "type": "address"
        },
        {
          "indexed": true,
          "internalType": "address",
          "name": "sender",
          "type": "address"
        }
      ],
      "name": "RoleRevoked",
      "type": "event"
    },
    {
      "anonymous": false,
      "inputs": [
        {
          "indexed": false,
          "internalType": "uint32",
          "name": "sequencerIndex",
          "type": "uint32"
        },
        {
          "indexed": false,
          "internalType": "uint32",
          "name": "candidateIndex",
          "type": "uint32"
        },
        {
          "indexed": false,
          "internalType": "address",
          "name": "sender",
          "type": "address"
        },
        {
          "indexed": false,
          "internalType": "uint256",
          "name": "amount",
          "type": "uint256"
        },
        {
          "indexed": false,
          "internalType": "uint256",
          "name": "lton",
          "type": "uint256"
        },
        {
          "indexed": false,
          "internalType": "address",
          "name": "commissionTo",
          "type": "address"
        },
        {
          "indexed": false,
          "internalType": "uint16",
          "name": "commission",
          "type": "uint16"
        }
      ],
      "name": "Staked",
      "type": "event"
    },
    {
      "anonymous": false,
      "inputs": [
        {
          "indexed": false,
          "internalType": "uint32",
          "name": "sequencerIndex",
          "type": "uint32"
        },
        {
          "indexed": false,
          "internalType": "uint32",
          "name": "candidateIndex",
          "type": "uint32"
        },
        {
          "indexed": false,
          "internalType": "address",
          "name": "sender",
          "type": "address"
        },
        {
          "indexed": false,
          "internalType": "uint256",
          "name": "amount",
          "type": "uint256"
        },
        {
          "indexed": false,
          "internalType": "uint256",
          "name": "lton",
          "type": "uint256"
        }
      ],
      "name": "Unstaked",
      "type": "event"
    },
    {
      "anonymous": false,
      "inputs": [
        {
          "indexed": false,
          "internalType": "uint32",
          "name": "sequencerIndex",
          "type": "uint32"
        },
        {
          "indexed": false,
          "internalType": "uint32",
          "name": "candidateIndex",
          "type": "uint32"
        },
        {
          "indexed": false,
          "internalType": "address",
          "name": "sender",
          "type": "address"
        },
        {
          "indexed": false,
          "internalType": "uint256",
          "name": "amount",
          "type": "uint256"
        }
      ],
      "name": "Withdrawal",
      "type": "event"
    },
    {
      "inputs": [],
      "name": "ADMIN_ROLE",
      "outputs": [
        {
          "internalType": "bytes32",
          "name": "",
          "type": "bytes32"
        }
      ],
      "stateMutability": "view",
      "type": "function"
    },
    {
      "inputs": [],
      "name": "DEFAULT_ADMIN_ROLE",
      "outputs": [
        {
          "internalType": "bytes32",
          "name": "",
          "type": "bytes32"
        }
      ],
      "stateMutability": "view",
      "type": "function"
    },
    {
      "inputs": [],
      "name": "POLICY_ROLE",
      "outputs": [
        {
          "internalType": "bytes32",
          "name": "",
          "type": "bytes32"
        }
      ],
      "stateMutability": "view",
      "type": "function"
    },
    {
      "inputs": [
        {
          "internalType": "address",
          "name": "account",
          "type": "address"
        }
      ],
      "name": "addAdmin",
      "outputs": [],
      "stateMutability": "nonpayable",
      "type": "function"
    },
    {
      "inputs": [
        {
          "internalType": "address",
          "name": "",
          "type": "address"
        }
      ],
      "name": "aliveImplementation",
      "outputs": [
        {
          "internalType": "bool",
          "name": "",
          "type": "bool"
        }
      ],
      "stateMutability": "view",
      "type": "function"
    },
    {
      "inputs": [
        {
          "internalType": "uint32",
          "name": "layerIndex",
          "type": "uint32"
        },
        {
          "internalType": "address",
          "name": "account",
          "type": "address"
        }
      ],
      "name": "amountOfPendings",
      "outputs": [
        {
          "internalType": "uint256",
          "name": "amount",
          "type": "uint256"
        },
        {
          "internalType": "uint32",
          "name": "startIndex",
          "type": "uint32"
        },
        {
          "internalType": "uint32",
          "name": "len",
          "type": "uint32"
        },
        {
          "internalType": "uint32",
          "name": "nextWithdrawableBlockNumber",
          "type": "uint32"
        }
      ],
      "stateMutability": "view",
      "type": "function"
    },
    {
      "inputs": [
        {
          "internalType": "uint32",
          "name": "_index",
          "type": "uint32"
        },
        {
          "internalType": "address",
          "name": "account",
          "type": "address"
        }
      ],
      "name": "availableWithdraw",
      "outputs": [
        {
          "internalType": "uint256",
          "name": "amount",
          "type": "uint256"
        },
        {
          "internalType": "uint32",
          "name": "startIndex",
          "type": "uint32"
        },
        {
          "internalType": "uint32",
          "name": "len",
          "type": "uint32"
        }
      ],
      "stateMutability": "view",
      "type": "function"
    },
    {
      "inputs": [
        {
          "internalType": "uint32",
          "name": "_index",
          "type": "uint32"
        },
        {
          "internalType": "address",
          "name": "account",
          "type": "address"
        }
      ],
      "name": "balanceOf",
      "outputs": [
        {
          "internalType": "uint256",
          "name": "amount",
          "type": "uint256"
        }
      ],
      "stateMutability": "view",
      "type": "function"
    },
    {
      "inputs": [
        {
          "internalType": "uint32",
          "name": "_index",
          "type": "uint32"
        },
        {
          "internalType": "address",
          "name": "account",
          "type": "address"
        },
        {
          "internalType": "uint256",
          "name": "snapshotId",
          "type": "uint256"
        }
      ],
      "name": "balanceOfAt",
      "outputs": [
        {
          "internalType": "uint256",
          "name": "amount",
          "type": "uint256"
        }
      ],
      "stateMutability": "view",
      "type": "function"
    },
    {
      "inputs": [
        {
          "internalType": "uint32",
          "name": "_index",
          "type": "uint32"
        },
        {
          "internalType": "address",
          "name": "account",
          "type": "address"
        }
      ],
      "name": "balanceOfLton",
      "outputs": [
        {
          "internalType": "uint256",
          "name": "amount",
          "type": "uint256"
        }
      ],
      "stateMutability": "view",
      "type": "function"
    },
    {
      "inputs": [
        {
          "internalType": "uint32",
          "name": "_index",
          "type": "uint32"
        }
      ],
      "name": "balanceOfLton",
      "outputs": [
        {
          "internalType": "uint256",
          "name": "amount",
          "type": "uint256"
        }
      ],
      "stateMutability": "view",
      "type": "function"
    },
    {
      "inputs": [
        {
          "internalType": "uint32",
          "name": "_index",
          "type": "uint32"
        },
        {
          "internalType": "address",
          "name": "account",
          "type": "address"
        },
        {
          "internalType": "uint256",
          "name": "snapshotId",
          "type": "uint256"
        }
      ],
      "name": "balanceOfLtonAt",
      "outputs": [
        {
          "internalType": "uint256",
          "name": "amount",
          "type": "uint256"
        }
      ],
      "stateMutability": "view",
      "type": "function"
    },
    {
      "inputs": [
        {
          "internalType": "uint32",
          "name": "_index",
          "type": "uint32"
        },
        {
          "internalType": "uint256",
          "name": "snapshotId",
          "type": "uint256"
        }
      ],
      "name": "balanceOfLtonAt",
      "outputs": [
        {
          "internalType": "uint256",
          "name": "amount",
          "type": "uint256"
        }
      ],
      "stateMutability": "view",
      "type": "function"
    },
    {
      "inputs": [
        {
          "internalType": "uint32",
          "name": "_index",
          "type": "uint32"
        },
        {
          "internalType": "uint256",
          "name": "snapshotId",
          "type": "uint256"
        }
      ],
      "name": "balanceOfLtonAtSnapshot",
      "outputs": [
        {
          "internalType": "bool",
          "name": "snapshotted",
          "type": "bool"
        },
        {
          "internalType": "uint256",
          "name": "amount",
          "type": "uint256"
        }
      ],
      "stateMutability": "view",
      "type": "function"
    },
    {
      "inputs": [
        {
          "internalType": "uint32",
          "name": "_index",
          "type": "uint32"
        },
        {
          "internalType": "address",
          "name": "account",
          "type": "address"
        },
        {
          "internalType": "uint256",
          "name": "snapshotId",
          "type": "uint256"
        }
      ],
      "name": "balanceOfLtonAtSnapshot",
      "outputs": [
        {
          "internalType": "bool",
          "name": "snapshotted",
          "type": "bool"
        },
        {
          "internalType": "uint256",
          "name": "amount",
          "type": "uint256"
        }
      ],
      "stateMutability": "view",
      "type": "function"
    },
    {
      "inputs": [
        {
          "internalType": "bytes32",
          "name": "hashMessage",
          "type": "bytes32"
        },
        {
          "internalType": "uint32",
          "name": "layerIndex",
          "type": "uint32"
        },
        {
          "internalType": "address",
          "name": "from",
          "type": "address"
        },
        {
          "internalType": "address",
          "name": "to",
          "type": "address"
        },
        {
          "internalType": "uint256",
          "name": "amount",
          "type": "uint256"
        }
      ],
      "name": "fastWithdrawClaim",
      "outputs": [
        {
          "internalType": "bool",
          "name": "",
          "type": "bool"
        }
      ],
      "stateMutability": "nonpayable",
      "type": "function"
    },
    {
      "inputs": [
        {
          "internalType": "bytes32",
          "name": "hashMessage",
          "type": "bytes32"
        },
        {
          "internalType": "uint32",
          "name": "layerIndex",
          "type": "uint32"
        },
        {
          "internalType": "address",
          "name": "staker",
          "type": "address"
        },
        {
          "internalType": "uint256",
          "name": "_amount",
          "type": "uint256"
        }
      ],
      "name": "fastWithdrawStake",
      "outputs": [
        {
          "internalType": "bool",
          "name": "",
          "type": "bool"
        }
      ],
      "stateMutability": "nonpayable",
      "type": "function"
    },
    {
      "inputs": [],
      "name": "fwReceipt",
      "outputs": [
        {
          "internalType": "address",
          "name": "",
          "type": "address"
        }
      ],
      "stateMutability": "view",
      "type": "function"
    },
    {
      "inputs": [],
      "name": "getCurrentSnapshotId",
      "outputs": [
        {
          "internalType": "uint256",
          "name": "",
          "type": "uint256"
        }
      ],
      "stateMutability": "view",
      "type": "function"
    },
    {
      "inputs": [
        {
          "internalType": "uint32",
          "name": "_index",
          "type": "uint32"
        },
        {
          "internalType": "address",
          "name": "account",
          "type": "address"
        }
      ],
      "name": "getLayerStakes",
      "outputs": [
        {
          "components": [
            {
              "internalType": "uint256",
              "name": "stakePrincipal",
              "type": "uint256"
            },
            {
              "internalType": "uint256",
              "name": "stakelton",
              "type": "uint256"
            },
            {
              "internalType": "bool",
              "name": "stake",
              "type": "bool"
            }
          ],
          "internalType": "struct LibStake.StakeInfo",
          "name": "info",
          "type": "tuple"
        }
      ],
      "stateMutability": "view",
      "type": "function"
    },
    {
      "inputs": [
        {
          "internalType": "uint32",
          "name": "_index",
          "type": "uint32"
        },
        {
          "internalType": "address",
          "name": "account",
          "type": "address"
        }
      ],
      "name": "getPendingUnstakedAmount",
      "outputs": [
        {
          "internalType": "uint256",
          "name": "",
          "type": "uint256"
        }
      ],
      "stateMutability": "view",
      "type": "function"
    },
    {
      "inputs": [
        {
          "internalType": "bytes32",
          "name": "role",
          "type": "bytes32"
        }
      ],
      "name": "getRoleAdmin",
      "outputs": [
        {
          "internalType": "bytes32",
          "name": "",
          "type": "bytes32"
        }
      ],
      "stateMutability": "view",
      "type": "function"
    },
    {
      "inputs": [],
      "name": "getStakeAccountList",
      "outputs": [
        {
          "internalType": "address[]",
          "name": "",
          "type": "address[]"
        }
      ],
      "stateMutability": "view",
      "type": "function"
    },
    {
      "inputs": [],
      "name": "getTotalLton",
      "outputs": [
        {
          "internalType": "uint256",
          "name": "",
          "type": "uint256"
        }
      ],
      "stateMutability": "view",
      "type": "function"
    },
    {
      "inputs": [
        {
          "internalType": "bytes32",
          "name": "role",
          "type": "bytes32"
        },
        {
          "internalType": "address",
          "name": "account",
          "type": "address"
        }
      ],
      "name": "grantRole",
      "outputs": [],
      "stateMutability": "nonpayable",
      "type": "function"
    },
    {
      "inputs": [
        {
          "internalType": "bytes32",
          "name": "role",
          "type": "bytes32"
        },
        {
          "internalType": "address",
          "name": "account",
          "type": "address"
        }
      ],
      "name": "hasRole",
      "outputs": [
        {
          "internalType": "bool",
          "name": "",
          "type": "bool"
        }
      ],
      "stateMutability": "view",
      "type": "function"
    },
    {
      "inputs": [
        {
          "internalType": "address",
          "name": "account",
          "type": "address"
        }
      ],
      "name": "isAdmin",
      "outputs": [
        {
          "internalType": "bool",
          "name": "",
          "type": "bool"
        }
      ],
      "stateMutability": "view",
      "type": "function"
    },
    {
      "inputs": [
        {
          "internalType": "uint32",
          "name": "_index",
          "type": "uint32"
        }
      ],
      "name": "layer2Deposits",
      "outputs": [
        {
          "internalType": "uint256",
          "name": "amount",
          "type": "uint256"
        }
      ],
      "stateMutability": "view",
      "type": "function"
    },
    {
      "inputs": [],
      "name": "layer2Manager",
      "outputs": [
        {
          "internalType": "address",
          "name": "",
          "type": "address"
        }
      ],
      "stateMutability": "view",
      "type": "function"
    },
    {
      "inputs": [
        {
          "internalType": "uint32",
          "name": "",
          "type": "uint32"
        }
      ],
      "name": "layerInfo",
      "outputs": [
        {
          "internalType": "bytes",
          "name": "",
          "type": "bytes"
        }
      ],
      "stateMutability": "view",
      "type": "function"
    },
    {
      "inputs": [
        {
          "internalType": "uint32",
          "name": "",
          "type": "uint32"
        }
      ],
      "name": "layerStakedLton",
      "outputs": [
        {
          "internalType": "uint256",
          "name": "",
          "type": "uint256"
        }
      ],
      "stateMutability": "view",
      "type": "function"
    },
    {
      "inputs": [
        {
          "internalType": "uint32",
          "name": "",
          "type": "uint32"
        },
        {
          "internalType": "address",
          "name": "",
          "type": "address"
        }
      ],
      "name": "layerStakes",
      "outputs": [
        {
          "internalType": "uint256",
          "name": "stakePrincipal",
          "type": "uint256"
        },
        {
          "internalType": "uint256",
          "name": "stakelton",
          "type": "uint256"
        },
        {
          "internalType": "bool",
          "name": "stake",
          "type": "bool"
        }
      ],
      "stateMutability": "view",
      "type": "function"
    },
    {
      "inputs": [
        {
          "internalType": "uint32",
          "name": "layerIndex",
          "type": "uint32"
        },
        {
          "internalType": "address",
          "name": "account",
          "type": "address"
        }
      ],
      "name": "numberOfPendings",
      "outputs": [
        {
          "internalType": "uint256",
          "name": "totalRequests",
          "type": "uint256"
        },
        {
          "internalType": "uint256",
          "name": "withdrawIndex",
          "type": "uint256"
        },
        {
          "internalType": "uint256",
          "name": "pendingLength",
          "type": "uint256"
        }
      ],
      "stateMutability": "view",
      "type": "function"
    },
    {
      "inputs": [],
      "name": "pauseProxy",
      "outputs": [
        {
          "internalType": "bool",
          "name": "",
          "type": "bool"
        }
      ],
      "stateMutability": "view",
      "type": "function"
    },
    {
      "inputs": [
        {
          "internalType": "uint32",
          "name": "",
          "type": "uint32"
        },
        {
          "internalType": "address",
          "name": "",
          "type": "address"
        }
      ],
      "name": "pendingUnstaked",
      "outputs": [
        {
          "internalType": "uint256",
          "name": "",
          "type": "uint256"
        }
      ],
      "stateMutability": "view",
      "type": "function"
    },
    {
      "inputs": [
        {
          "internalType": "address",
          "name": "",
          "type": "address"
        }
      ],
      "name": "pendingUnstakedAccount",
      "outputs": [
        {
          "internalType": "uint256",
          "name": "",
          "type": "uint256"
        }
      ],
      "stateMutability": "view",
      "type": "function"
    },
    {
      "inputs": [
        {
          "internalType": "uint32",
          "name": "",
          "type": "uint32"
        }
      ],
      "name": "pendingUnstakedLayer2",
      "outputs": [
        {
          "internalType": "uint256",
          "name": "",
          "type": "uint256"
        }
      ],
      "stateMutability": "view",
      "type": "function"
    },
    {
      "inputs": [
        {
          "internalType": "uint256",
          "name": "",
          "type": "uint256"
        }
      ],
      "name": "proxyImplementation",
      "outputs": [
        {
          "internalType": "address",
          "name": "",
          "type": "address"
        }
      ],
      "stateMutability": "view",
      "type": "function"
    },
    {
      "inputs": [
        {
          "internalType": "address",
          "name": "account",
          "type": "address"
        }
      ],
      "name": "removeAdmin",
      "outputs": [],
      "stateMutability": "nonpayable",
      "type": "function"
    },
    {
      "inputs": [
        {
          "internalType": "bytes32",
          "name": "role",
          "type": "bytes32"
        },
        {
          "internalType": "address",
          "name": "account",
          "type": "address"
        }
      ],
      "name": "renounceRole",
      "outputs": [],
      "stateMutability": "nonpayable",
      "type": "function"
    },
    {
      "inputs": [
        {
          "internalType": "uint32",
          "name": "_index",
          "type": "uint32"
        },
        {
          "internalType": "bool",
          "name": "isCandidate",
          "type": "bool"
        }
      ],
      "name": "restake",
      "outputs": [],
      "stateMutability": "nonpayable",
      "type": "function"
    },
    {
      "inputs": [
        {
          "internalType": "uint32",
          "name": "_index",
          "type": "uint32"
        },
        {
          "internalType": "uint256",
          "name": "n",
          "type": "uint256"
        },
        {
          "internalType": "bool",
          "name": "isCandidate",
          "type": "bool"
        }
      ],
      "name": "restakeMulti",
      "outputs": [],
      "stateMutability": "nonpayable",
      "type": "function"
    },
    {
      "inputs": [
        {
          "internalType": "bytes32",
          "name": "role",
          "type": "bytes32"
        },
        {
          "internalType": "address",
          "name": "account",
          "type": "address"
        }
      ],
      "name": "revokeRole",
      "outputs": [],
      "stateMutability": "nonpayable",
      "type": "function"
    },
    {
      "inputs": [],
      "name": "seigManagerV2",
      "outputs": [
        {
          "internalType": "address",
          "name": "",
          "type": "address"
        }
      ],
      "stateMutability": "view",
      "type": "function"
    },
    {
      "inputs": [
        {
          "internalType": "bytes4",
          "name": "",
          "type": "bytes4"
        }
      ],
      "name": "selectorImplementation",
      "outputs": [
        {
          "internalType": "address",
          "name": "",
          "type": "address"
        }
      ],
      "stateMutability": "view",
      "type": "function"
    },
    {
      "inputs": [
        {
          "internalType": "uint256",
          "name": "",
          "type": "uint256"
        }
      ],
      "name": "stakeAccountList",
      "outputs": [
        {
          "internalType": "address",
          "name": "",
          "type": "address"
        }
      ],
      "stateMutability": "view",
      "type": "function"
    },
    {
      "inputs": [
        {
          "internalType": "bytes4",
          "name": "interfaceId",
          "type": "bytes4"
        }
      ],
      "name": "supportsInterface",
      "outputs": [
        {
          "internalType": "bool",
          "name": "",
          "type": "bool"
        }
      ],
      "stateMutability": "view",
      "type": "function"
    },
    {
      "inputs": [],
      "name": "ton",
      "outputs": [
        {
          "internalType": "address",
          "name": "",
          "type": "address"
        }
      ],
      "stateMutability": "view",
      "type": "function"
    },
    {
      "inputs": [],
      "name": "totalLayer2Deposits",
      "outputs": [
        {
          "internalType": "uint256",
          "name": "amount",
          "type": "uint256"
        }
      ],
      "stateMutability": "view",
      "type": "function"
    },
    {
      "inputs": [],
      "name": "totalStakeAccountList",
      "outputs": [
        {
          "internalType": "uint256",
          "name": "",
          "type": "uint256"
        }
      ],
      "stateMutability": "view",
      "type": "function"
    },
    {
      "inputs": [],
      "name": "totalStakedLton",
      "outputs": [
        {
          "internalType": "uint256",
          "name": "amount",
          "type": "uint256"
        }
      ],
      "stateMutability": "view",
      "type": "function"
    },
    {
      "inputs": [
        {
          "internalType": "uint256",
          "name": "snapshotId",
          "type": "uint256"
        }
      ],
      "name": "totalStakedLtonAt",
      "outputs": [
        {
          "internalType": "uint256",
          "name": "amount",
          "type": "uint256"
        }
      ],
      "stateMutability": "view",
      "type": "function"
    },
    {
      "inputs": [
        {
          "internalType": "uint256",
          "name": "snapshotId",
          "type": "uint256"
        }
      ],
      "name": "totalStakedLtonAtSnapshot",
      "outputs": [
        {
          "internalType": "bool",
          "name": "snapshotted",
          "type": "bool"
        },
        {
          "internalType": "uint256",
          "name": "amount",
          "type": "uint256"
        }
      ],
      "stateMutability": "view",
      "type": "function"
    },
    {
      "inputs": [
        {
          "internalType": "address",
          "name": "newAdmin",
          "type": "address"
        }
      ],
      "name": "transferAdmin",
      "outputs": [],
      "stateMutability": "nonpayable",
      "type": "function"
    },
    {
      "inputs": [
        {
          "internalType": "uint32",
          "name": "_index",
          "type": "uint32"
        },
        {
          "internalType": "bool",
          "name": "isCandidate",
          "type": "bool"
        }
      ],
      "name": "withdraw",
      "outputs": [],
      "stateMutability": "nonpayable",
      "type": "function"
    },
    {
      "inputs": [
        {
          "internalType": "uint32",
          "name": "",
          "type": "uint32"
        },
        {
          "internalType": "address",
          "name": "",
          "type": "address"
        }
      ],
      "name": "withdrawalRequestIndex",
      "outputs": [
        {
          "internalType": "uint256",
          "name": "",
          "type": "uint256"
        }
      ],
      "stateMutability": "view",
      "type": "function"
    },
    {
      "inputs": [
        {
          "internalType": "uint32",
          "name": "",
          "type": "uint32"
        },
        {
          "internalType": "address",
          "name": "",
          "type": "address"
        },
        {
          "internalType": "uint256",
          "name": "",
          "type": "uint256"
        }
      ],
      "name": "withdrawalRequests",
      "outputs": [
        {
          "internalType": "uint32",
          "name": "withdrawableBlockNumber",
          "type": "uint32"
        },
        {
          "internalType": "uint128",
          "name": "amount",
          "type": "uint128"
        },
        {
          "internalType": "bool",
          "name": "processed",
          "type": "bool"
        }
      ],
      "stateMutability": "view",
      "type": "function"
    }
  ],
  "bytecode": "0x60806040526006805460ff1916600117905534801561001d57600080fd5b506133718061002d6000396000f3fe608060405234801561001057600080fd5b50600436106103835760003560e01c806373469a7a116101de578063a0b2a9131161010f578063cc48b947116100ad578063e4f681551161007c578063e4f6815514610a0f578063ec110d4514610a22578063f2b9ddfc14610a35578063f8d437ae14610a4857600080fd5b8063cc48b947146109be578063cdc76cf9146109d6578063d07918f1146109e9578063d547741f146109fc57600080fd5b8063b6a2f99d116100e9578063b6a2f99d1461093f578063b911135f1461096d578063b969fbef14610996578063b9cab9711461099e57600080fd5b8063a0b2a91314610917578063a217fddf14610937578063b413b37a1461053a57600080fd5b80638d99e1ca1161017c57806394c89b2c1161015657806394c89b2c1461088457806398238355146108975780639c2f7f3b146108aa5780639c656e26146108bd57600080fd5b80638d99e1ca146107fc5780638ddd87fe1461080f57806391d148541461084d57600080fd5b80637cf1587c116101b85780637cf1587c1461076357806385b9e4851461078e5780638afec9fc146107a15780638c71762d146107c757600080fd5b806373469a7a1461071657806375829def1461072957806375b238fc1461073c57600080fd5b80634e1a264d116102b857806363a8fd89116102565780636d1ef103116102305780636d1ef1031461069157806370480275146106d057806370619cf9146106e35780637138c7921461070357600080fd5b806363a8fd8914610651578063659ab8201461065e5780636818a32b1461067e57600080fd5b80635439ad86116102925780635439ad8614610595578063550d01a31461059d5780635e2cfe45146105c05780635f1b989e146105eb57600080fd5b80634e1a264d1461053a5780634ec2f04b1461054257806350d2a2761461056c57600080fd5b8063248a9ca3116103255780632f2ff15d116102ff5780632f2ff15d146104f757806336568abe1461050a57806346bcdb491461051d5780634de131ca1461052557600080fd5b8063248a9ca3146104ae57806324d7806c146104d157806329637c1c146104e457600080fd5b80631785f53c116103615780631785f53c146103f05780631ed94495146104035780631f760d011461043a578063229852461461047957600080fd5b806301ffc9a71461038857806312702597146103b057806316b5d5bd146103c5575b600080fd5b61039b610396366004612e34565b610a5b565b60405190151581526020015b60405180910390f35b6103c36103be366004612e80565b610a92565b005b6008546103d8906001600160a01b031681565b6040516001600160a01b0390911681526020016103a7565b6103c36103fe366004612ece565b610f18565b610416610411366004612ee9565b610fa5565b604080518251815260208084015190820152918101511515908201526060016103a7565b61044d610448366004612ee9565b611024565b6040805194855263ffffffff9384166020860152918316918401919091521660608201526080016103a7565b6104a07ffb5864e8ff833c3cb2d2d08505e82ff02a43554c74a35d4f5a64e8526127831181565b6040519081526020016103a7565b6104a06104bc366004612f1c565b60009081526020819052604090206001015490565b61039b6104df366004612ece565b611162565b6104a06104f2366004612f35565b6111a2565b6103c3610505366004612f71565b611231565b6103c3610518366004612f71565b61125b565b6017546104a0565b61052d6112e7565b6040516103a79190612f94565b600a546104a0565b610555610550366004612fe1565b611349565b6040805192151583526020830191909152016103a7565b6103d861057a366004612e34565b6004602052600090815260409020546001600160a01b031681565b6104a0611377565b61039b6105ab366004612ece565b60036020526000908152604090205460ff1681565b6104a06105ce366004612ee9565b601360209081526000928352604080842090915290825290205481565b6104a06105f9366004612ee9565b63ffffffff9091166000908152600f602090815260408083206001600160a01b03909416835292815290829020825160608101845281548152600182015492810183905260029091015460ff16151592019190915290565b60015461039b9060ff1681565b61067161066c36600461300b565b6113ea565b6040516103a79190613076565b6104a061068c366004612f35565b611484565b6106a461069f366004612f35565b611528565b6040805163ffffffff90941684526001600160801b0390921660208401521515908201526060016103a7565b6103c36106de366004612ece565b611587565b6104a06106f136600461300b565b600d6020526000908152604090205481565b61039b610711366004613089565b611611565b6007546103d8906001600160a01b031681565b6103c3610737366004612ece565b6117e3565b6104a07fdf8b4c520ffe197c5343c6f5aec59570151ef9a492f2c624fd45ddde6135ec4281565b6104a0610771366004612ee9565b601260209081526000928352604080842090915290825290205481565b61039b61079c3660046130cd565b611945565b6104a06107af36600461300b565b63ffffffff166000908152600d602052604090205490565b6107da6107d5366004612ee9565b611bea565b6040805193845263ffffffff92831660208501529116908201526060016103a7565b6104a061080a36600461300b565b611d27565b6104a061081d366004612ee9565b63ffffffff821660009081526013602090815260408083206001600160a01b038516845290915290205492915050565b61039b61085b366004612f71565b6000918252602082815260408084206001600160a01b0393909316845291905290205460ff1690565b6104a0610892366004612ee9565b611d9a565b6105556108a5366004612f35565b611e5a565b6103c36108b8366004612e80565b611e9c565b6108fa6108cb366004612ee9565b600f60209081526000928352604080842090915290825290208054600182015460029092015490919060ff1683565b6040805193845260208401929092521515908201526060016103a7565b6104a0610925366004612ece565b60156020526000908152604090205481565b6104a0600081565b61095261094d366004612ee9565b611f1c565b604080519384526020840192909252908201526060016103a7565b6103d861097b366004612f1c565b6002602052600090815260409020546001600160a01b031681565b6104a0611f77565b6104a06109ac36600461300b565b60146020526000908152604090205481565b6006546103d89061010090046001600160a01b031681565b6104a06109e4366004612fe1565b611fc1565b6009546103d8906001600160a01b031681565b6103c3610a0a366004612f71565b612014565b6104a0610a1d366004612f1c565b612039565b6103d8610a30366004612f1c565b61205a565b6103c3610a43366004613122565b612084565b610555610a56366004612f1c565b612148565b60006001600160e01b03198216637965db0b60e01b1480610a8c57506301ffc9a760e01b6001600160e01b03198316145b92915050565b60065460ff16610ad65760405162461bcd60e51b8152600401610acd906020808252600490820152636c6f636b60e01b604082015260600190565b60405180910390fd5b6006805460ff1916905563ffffffff821660008181526011602090815260408083203380855290835281842054948452601283528184208185529092528220549092919081905b83811015610bef5763ffffffff871660009081526011602090815260408083206001600160a01b03891684529091528120805483908110610b6057610b60613162565b600091825260209091200180549091504363ffffffff909116108015610b8f57508054600160a01b900460ff16155b15610bd657805460ff60a01b1916600160a01b17808255610bc2906001600160801b03640100000000909104168461318e565b925083610bce816131a1565b945050610bdc565b50610bef565b5080610be7816131a1565b915050610b1d565b5060008111610c405760405162461bcd60e51b815260206004820181905260248201527f7a65726f20617661696c61626c65207769746864726177616c20616d6f756e746044820152606401610acd565b63ffffffff861660009081526012602090815260408083206001600160a01b038816845290915281208054849290610c7990849061318e565b909155505063ffffffff861660009081526013602090815260408083206001600160a01b038816845290915281208054839290610cb79084906131ba565b909155505063ffffffff861660009081526014602052604081208054839290610ce19084906131ba565b90915550506001600160a01b03841660009081526015602052604081208054839290610d0e9084906131ba565b90915550506006546040516370a0823160e01b815230600482015260009161010090046001600160a01b0316906370a0823190602401602060405180830381865afa158015610d61573d6000803e3d6000fd5b505050506040513d601f19601f82011682018060405250810190610d8591906131cd565b905081811015610e30578015610db157600654610db19061010090046001600160a01b0316868361215f565b6007546001600160a01b031663aad3ec9686610dcd84866131ba565b6040516001600160e01b031960e085901b1681526001600160a01b0390921660048301526024820152604401600060405180830381600087803b158015610e1357600080fd5b505af1158015610e27573d6000803e3d6000fd5b50505050610e4c565b600654610e4c9061010090046001600160a01b0316868461215f565b8515610eac57604080516000815263ffffffff891660208201526001600160a01b038716818301526060810184905290517fb791c1a058894ea979a242d29f1379dab41dcc3b829ac9136b73308ea52d58d39181900360800190a1610f02565b6040805163ffffffff89168152600060208201526001600160a01b038716818301526060810184905290517fb791c1a058894ea979a242d29f1379dab41dcc3b829ac9136b73308ea52d58d39181900360800190a15b50506006805460ff191660011790555050505050565b610f2133611162565b610f785760405162461bcd60e51b815260206004820152602260248201527f41636365737369626c653a2043616c6c6572206973206e6f7420616e2061646d60448201526134b760f11b6064820152608401610acd565b610fa27fdf8b4c520ffe197c5343c6f5aec59570151ef9a492f2c624fd45ddde6135ec428261125b565b50565b610fcb604051806060016040528060008152602001600081526020016000151581525090565b5063ffffffff9091166000908152600f602090815260408083206001600160a01b039094168352928152908290208251606081018452815481526001820154928101929092526002015460ff1615159181019190915290565b63ffffffff80831660008181526011602090815260408083206001600160a01b038716808552908352818420549484526012835281842090845290915281205490929091839182919084165b818110156111575763ffffffff881660009081526011602090815260408083206001600160a01b038b16845290915281208054839081106110b3576110b3613162565b6000918252602080832060408051606081018252939091015463ffffffff8116845264010000000081046001600160801b031692840192909252600160a01b90910460ff1615159082018190529092509003611144578363ffffffff1660000361111c57805193505b6020810151611134906001600160801b03168861318e565b96506111416001866131e6565b94505b508061114f816131a1565b915050611070565b505092959194509250565b6001600160a01b03811660009081527f5cbfc8ee58ca47855df7bcf648dd304ddb6b932f9b87878bdf6318d7ec7ee5b7602052604081205460ff16610a8c565b6007546000906001600160a01b0316638df40b2c6111c1868686611484565b846040518363ffffffff1660e01b81526004016111e8929190918252602082015260400190565b602060405180830381865afa158015611205573d6000803e3d6000fd5b505050506040513d601f19601f8201168201806040525081019061122991906131cd565b949350505050565b60008281526020819052604090206001015461124c8161228f565b6112568383612299565b505050565b6001600160a01b03811633146112d95760405162461bcd60e51b815260206004820152602f60248201527f416363657373436f6e74726f6c3a2063616e206f6e6c792072656e6f756e636560448201527f20726f6c657320666f722073656c6600000000000000000000000000000000006064820152608401610acd565b6112e38282612337565b5050565b6060601780548060200260200160405190810160405280929190818152602001828054801561133f57602002820191906000526020600020905b81546001600160a01b03168152600190910190602001808311611321575b5050505050905090565b63ffffffff82166000908152600e60205260408120819061136b9084906123b6565b915091505b9250929050565b60075460408051632a1cd6c360e11b815290516000926001600160a01b031691635439ad869160048083019260209291908290030181865afa1580156113c1573d6000803e3d6000fd5b505050506040513d601f19601f820116820180604052508101906113e591906131cd565b905090565b601660205260009081526040902080546114039061320a565b80601f016020809104026020016040519081016040528092919081815260200182805461142f9061320a565b801561147c5780601f106114515761010080835404028352916020019161147c565b820191906000526020600020905b81548152906001019060200180831161145f57829003601f168201915b505050505081565b63ffffffff831660009081526010602090815260408083206001600160a01b03861684529091528120819081906114bc9085906123b6565b915091508161151c5763ffffffff86166000908152600f602090815260408083206001600160a01b0389168452825291829020825160608101845281548152600182015492810183905260029091015460ff16151592019190915261151e565b805b9695505050505050565b6011602052826000526040600020602052816000526040600020818154811061155057600080fd5b60009182526020909120015463ffffffff8116935064010000000081046001600160801b03169250600160a01b900460ff16905083565b61159033611162565b6115e75760405162461bcd60e51b815260206004820152602260248201527f41636365737369626c653a2043616c6c6572206973206e6f7420616e2061646d60448201526134b760f11b6064820152608401610acd565b610fa27fdf8b4c520ffe197c5343c6f5aec59570151ef9a492f2c624fd45ddde6135ec4282611231565b6009546000906001600160a01b0316331461165e5760405162461bcd60e51b815260206004820152600d60248201526c232bafa1a0a62622a92fa2a92960991b6044820152606401610acd565b61166884846124d9565b600754604051636a2fb1f560e01b8152600481018490526000916001600160a01b031690636a2fb1f590602401602060405180830381865afa1580156116b2573d6000803e3d6000fd5b505050506040513d601f19601f820116820180604052508101906116d691906131cd565b63ffffffff86166000908152600d602052604081208054929350839290919061170090849061318e565b9250508190555080600a6000828254611719919061318e565b909155505063ffffffff85166000908152600f602090815260408083206001600160a01b0388168452909152812080549091859183919061175b90849061318e565b9250508190555081816001016000828254611776919061318e565b90915550506040805188815263ffffffff881660208201526001600160a01b03871681830152606081018690526080810184905290517f8cf204c07a4ce065cdd0c90963672bd384e5479ada88179bca8eb6075c02731f9181900360a00190a15060019695505050505050565b6117ec33611162565b6118435760405162461bcd60e51b815260206004820152602260248201527f41636365737369626c653a2043616c6c6572206973206e6f7420616e2061646d60448201526134b760f11b6064820152608401610acd565b6001600160a01b0381166118995760405162461bcd60e51b815260206004820152601860248201527f41636365737369626c653a207a65726f206164647265737300000000000000006044820152606401610acd565b6001600160a01b03811633036118f15760405162461bcd60e51b815260206004820152601660248201527f41636365737369626c653a2073616d652061646d696e000000000000000000006044820152606401610acd565b61191b7fdf8b4c520ffe197c5343c6f5aec59570151ef9a492f2c624fd45ddde6135ec4282611231565b610fa27fdf8b4c520ffe197c5343c6f5aec59570151ef9a492f2c624fd45ddde6135ec423361125b565b60065460009060ff166119835760405162461bcd60e51b8152600401610acd906020808252600490820152636c6f636b60e01b604082015260600190565b6006805460ff191690556009546001600160a01b031633146119d75760405162461bcd60e51b815260206004820152600d60248201526c232bafa1a0a62622a92fa2a92960991b6044820152606401610acd565b816119e28686611d9a565b1015611a305760405162461bcd60e51b815260206004820152601960248201527f6c697175696469747920697320696e73756666696369656e74000000000000006044820152606401610acd565b611a3a85856124d9565b6006546040516370a0823160e01b815230600482015260009161010090046001600160a01b0316906370a0823190602401602060405180830381865afa158015611a88573d6000803e3d6000fd5b505050506040513d601f19601f82011682018060405250810190611aac91906131cd565b905082811015611b57578015611ad857600654611ad89061010090046001600160a01b0316858361215f565b6007546001600160a01b031663aad3ec9685611af484876131ba565b6040516001600160e01b031960e085901b1681526001600160a01b0390921660048301526024820152604401600060405180830381600087803b158015611b3a57600080fd5b505af1158015611b4e573d6000803e3d6000fd5b50505050611b73565b600654611b739061010090046001600160a01b0316858561215f565b6040805188815263ffffffff881660208201526001600160a01b0387811682840152861660608201526080810185905290517f77fbf71434da34ef2aa8382e2b751b6b2de7bd18d96a07ff7f4dae7dae9237619181900360a00190a160019150506006805460ff1916600117905595945050505050565b63ffffffff80831660008181526011602090815260408083206001600160a01b038716808552908352818420549484526012835281842090845290915281205490929091839183165b81811015611d1e5763ffffffff871660009081526011602090815260408083206001600160a01b038a1684529091528120805483908110611c7657611c76613162565b600091825260209182902060408051606081018252929091015463ffffffff811680845264010000000082046001600160801b031694840194909452600160a01b900460ff16151590820152915043118015611cd457506040810151155b15611d05576020810151611cf1906001600160801b03168761318e565b9550611cfe6001856131e6565b9350611d0b565b50611d1e565b5080611d16816131a1565b915050611c33565b50509250925092565b6008546040516346ccf0e560e11b815263ffffffff831660048201526000916001600160a01b031690638d99e1ca90602401602060405180830381865afa158015611d76573d6000803e3d6000fd5b505050506040513d601f19601f82011682018060405250810190610a8c91906131cd565b60075463ffffffff83166000908152600f602090815260408083206001600160a01b038681168552908352818420825160608101845281548152600182015494810185905260029091015460ff16151590830152905163cdf6800960e01b815260048101929092529192919091169063cdf6800990602401602060405180830381865afa158015611e2f573d6000803e3d6000fd5b505050506040513d601f19601f82011682018060405250810190611e5391906131cd565b9392505050565b63ffffffff831660009081526010602090815260408083206001600160a01b038616845290915281208190611e909084906123b6565b91509150935093915050565b63ffffffff821660009081526012602090815260408083203384529091529020548115611f0d57611ed260008433846001612587565b6112565760405162461bcd60e51b815260206004820152600c60248201526b534c5f455f52455354414b4560a01b6044820152606401610acd565b611ed283600033846001612587565b63ffffffff821660008181526011602090815260408083206001600160a01b038616808552908352818420549484526012835281842090845290915281205490818310611f7057611f6d82846131ba565b90505b9250925092565b6008546040805163b969fbef60e01b815290516000926001600160a01b03169163b969fbef9160048083019260209291908290030181865afa1580156113c1573d6000803e3d6000fd5b63ffffffff82166000908152600e6020526040812081908190611fe59085906123b6565b91509150816120095763ffffffff85166000908152600d602052604090205461200b565b805b95945050505050565b60008281526020819052604090206001015461202f8161228f565b6112568383612337565b600080600061204984600b6123b6565b9150915081611e5357600a54611229565b6017818154811061206a57600080fd5b6000918252602090912001546001600160a01b0316905081565b63ffffffff8316600090815260126020908152604080832033845290915290205481156120f9576120b9600085338487612587565b6120f45760405162461bcd60e51b815260206004820152600c60248201526b534c5f455f52455354414b4560a01b6044820152606401610acd565b612142565b612107846000338487612587565b6121425760405162461bcd60e51b815260206004820152600c60248201526b534c5f455f52455354414b4560a01b6044820152606401610acd565b50505050565b60008061215683600b6123b6565b91509150915091565b604080516001600160a01b038481166024830152604480830185905283518084039091018152606490920183526020820180517bffffffffffffffffffffffffffffffffffffffffffffffffffffffff1663a9059cbb60e01b17905291516000928392908716916121d09190613244565b6000604051808303816000865af19150503d806000811461220d576040519150601f19603f3d011682016040523d82523d6000602084013e612212565b606091505b509150915081801561223c57508051158061223c57508080602001905181019061223c9190613260565b6122885760405162461bcd60e51b815260206004820152600f60248201527f5452414e534645525f4641494c454400000000000000000000000000000000006044820152606401610acd565b5050505050565b610fa28133612a57565b6000828152602081815260408083206001600160a01b038516845290915290205460ff166112e3576000828152602081815260408083206001600160a01b03851684529091529020805460ff191660011790556122f33390565b6001600160a01b0316816001600160a01b0316837f2f8788117e7eff1d82e926ec794901d17c78024a50270940304540a733656f0d60405160405180910390a45050565b6000828152602081815260408083206001600160a01b038516845290915290205460ff16156112e3576000828152602081815260408083206001600160a01b0385168085529252808320805460ff1916905551339285917ff6391f5c32d9c69d2a47ea670b442974b53935d1edc7fd64eb21e047a839171b9190a45050565b6000806123c1611377565b8411156124105760405162461bcd60e51b815260206004820152601860248201527f536e617073686f743a206e6f6e6578697374656e7420696400000000000000006044820152606401610acd565b82541580159061244957508254839061242b906001906131ba565b8154811061243b5761243b613162565b906000526020600020015484115b1561248757825460009060018086019161246391906131ba565b8154811061247357612473613162565b906000526020600020015491509150611370565b60006124938486612aca565b845490915081106124ab576000809250925050611370565b60018460010182815481106124c2576124c2613162565b906000526020600020015492509250509250929050565b6124ec600b6124e7600a5490565b612bda565b63ffffffff82166000908152600e60209081526040808320600d909252909120546125179190612bda565b63ffffffff821660008181526010602090815260408083206001600160a01b038616808552908352818420948452600f8352818420908452825291829020825160608101845281548152600182015492810183905260029091015460ff1615159201919091526112e39190612bda565b60065460009060ff166125c55760405162461bcd60e51b8152600401610acd906020808252600490820152636c6f636b60e01b604082015260600190565b6006805460ff191690558563ffffffff8616156125df5750845b6125e981866124d9565b63ffffffff811660009081526011602090815260408083206001600160a01b03891684529091528120548061264d5760405162461bcd60e51b815260206004820152600a6024820152696e6f20756e7374616b6560b01b6044820152606401610acd565b8461265887836131ba565b10156126a65760405162461bcd60e51b815260206004820152601860248201527f6e2065786365656473206e756d206f662070656e64696e6700000000000000006044820152606401610acd565b60006126b2868861318e565b90505b808710156127a85763ffffffff841660009081526011602090815260408083206001600160a01b038c16845290915281208054899081106126f8576126f8613162565b6000918252602090912001805490915064010000000081046001600160801b031690600160a01b900460ff16156127715760405162461bcd60e51b815260206004820152601260248201527f616c7265616479207769746864726177616c00000000000000000000000000006044820152606401610acd565b801561278457612781818661318e565b94505b50805460ff60a01b1916600160a01b179055866127a0816131a1565b9750506126b5565b600083116127f85760405162461bcd60e51b815260206004820152601760248201527f6e6f2076616c69642072657374616b6520616d6f756e740000000000000000006044820152606401610acd565b600754604051636a2fb1f560e01b8152600481018590526000916001600160a01b031690636a2fb1f590602401602060405180830381865afa158015612842573d6000803e3d6000fd5b505050506040513d601f19601f8201168201806040525081019061286691906131cd565b63ffffffff86166000908152600f602090815260408083206001600160a01b038e1684529091528120805492935091869183916128a490849061318e565b92505081905550818160010160008282546128bf919061318e565b909155505063ffffffff86166000908152600d6020526040812080548492906128e990849061318e565b9250508190555081600a6000828254612902919061318e565b909155505063ffffffff861660009081526013602090815260408083206001600160a01b038e168452909152812080548792906129409084906131ba565b909155505063ffffffff86166000908152601460205260408120805487929061296a9084906131ba565b90915550506001600160a01b038a16600090815260156020526040812080548792906129979084906131ba565b909155505063ffffffff861660009081526012602090815260408083206001600160a01b038e168452909152812080548a92906129d590849061318e565b90915550506040805163ffffffff8e811682528d1660208201526001600160a01b038c1681830152606081018790526080810184905290517f8106ff2b1b597b91194fe4d8ede5c73f76baaad464c7020d87b22ea5a716157f9181900360a00190a1600196505050505050506006805460ff1916600117905595945050505050565b6000828152602081815260408083206001600160a01b038516845290915290205460ff166112e357612a8881612c2f565b612a93836020612c41565b604051602001612aa492919061327d565b60408051601f198184030181529082905262461bcd60e51b8252610acd91600401613076565b81546000908103612add57506000610a8c565b82548390612aed906001906131ba565b81548110612afd57612afd613162565b90600052602060002001548210612b23578254612b1c906001906131ba565b9050610a8c565b82600081548110612b3657612b36613162565b9060005260206000200154821015612b5057506000610a8c565b82546000908190612b63906001906131ba565b90505b81811115612bd25760006002612b7c848461318e565b612b8790600161318e565b612b9191906132fe565b905084868281548110612ba657612ba6613162565b906000526020600020015411612bbe57809250612bcc565b612bc96001826131ba565b91505b50612b66565b509392505050565b6000612be4611377565b83549091501580612bfc575080612bfa84612dea565b105b15611256578254600180820185556000858152602080822090930193909355938401805494850181558252902090910155565b6060610a8c6001600160a01b03831660145b60606000612c50836002613320565b612c5b90600261318e565b67ffffffffffffffff811115612c7357612c73613337565b6040519080825280601f01601f191660200182016040528015612c9d576020820181803683370190505b509050600360fc1b81600081518110612cb857612cb8613162565b60200101906001600160f81b031916908160001a905350600f60fb1b81600181518110612ce757612ce7613162565b60200101906001600160f81b031916908160001a9053506000612d0b846002613320565b612d1690600161318e565b90505b6001811115612d9b577f303132333435363738396162636465660000000000000000000000000000000085600f1660108110612d5757612d57613162565b1a60f81b828281518110612d6d57612d6d613162565b60200101906001600160f81b031916908160001a90535060049490941c93612d948161334d565b9050612d19565b508315611e535760405162461bcd60e51b815260206004820181905260248201527f537472696e67733a20686578206c656e67746820696e73756666696369656e746044820152606401610acd565b80546000908103612dfd57506000919050565b81548290612e0d906001906131ba565b81548110612e1d57612e1d613162565b90600052602060002001549050919050565b919050565b600060208284031215612e4657600080fd5b81356001600160e01b031981168114611e5357600080fd5b803563ffffffff81168114612e2f57600080fd5b8015158114610fa257600080fd5b60008060408385031215612e9357600080fd5b612e9c83612e5e565b91506020830135612eac81612e72565b809150509250929050565b80356001600160a01b0381168114612e2f57600080fd5b600060208284031215612ee057600080fd5b611e5382612eb7565b60008060408385031215612efc57600080fd5b612f0583612e5e565b9150612f1360208401612eb7565b90509250929050565b600060208284031215612f2e57600080fd5b5035919050565b600080600060608486031215612f4a57600080fd5b612f5384612e5e565b9250612f6160208501612eb7565b9150604084013590509250925092565b60008060408385031215612f8457600080fd5b82359150612f1360208401612eb7565b6020808252825182820181905260009190848201906040850190845b81811015612fd55783516001600160a01b031683529284019291840191600101612fb0565b50909695505050505050565b60008060408385031215612ff457600080fd5b612ffd83612e5e565b946020939093013593505050565b60006020828403121561301d57600080fd5b611e5382612e5e565b60005b83811015613041578181015183820152602001613029565b50506000910152565b60008151808452613062816020860160208601613026565b601f01601f19169290920160200192915050565b602081526000611e53602083018461304a565b6000806000806080858703121561309f57600080fd5b843593506130af60208601612e5e565b92506130bd60408601612eb7565b9396929550929360600135925050565b600080600080600060a086880312156130e557600080fd5b853594506130f560208701612e5e565b935061310360408701612eb7565b925061311160608701612eb7565b949793965091946080013592915050565b60008060006060848603121561313757600080fd5b61314084612e5e565b925060208401359150604084013561315781612e72565b809150509250925092565b634e487b7160e01b600052603260045260246000fd5b634e487b7160e01b600052601160045260246000fd5b80820180821115610a8c57610a8c613178565b6000600182016131b3576131b3613178565b5060010190565b81810381811115610a8c57610a8c613178565b6000602082840312156131df57600080fd5b5051919050565b63ffffffff81811683821601908082111561320357613203613178565b5092915050565b600181811c9082168061321e57607f821691505b60208210810361323e57634e487b7160e01b600052602260045260246000fd5b50919050565b60008251613256818460208701613026565b9190910192915050565b60006020828403121561327257600080fd5b8151611e5381612e72565b7f416363657373436f6e74726f6c3a206163636f756e74200000000000000000008152600083516132b5816017850160208801613026565b7f206973206d697373696e6720726f6c652000000000000000000000000000000060179184019182015283516132f2816028840160208801613026565b01602801949350505050565b60008261331b57634e487b7160e01b600052601260045260246000fd5b500490565b8082028115828204841417610a8c57610a8c613178565b634e487b7160e01b600052604160045260246000fd5b60008161335c5761335c613178565b50600019019056fea164736f6c6343000812000a",
  "linkReferences": {},
  "deployedLinkReferences": {}
}