{
  "_format": "hh-sol-artifact-1",
  "contractName": "Candidate",
  "sourceName": "contracts/Candidate.sol",
  "abi": [
    {
      "inputs": [],
      "stateMutability": "nonpayable",
      "type": "constructor"
    },
    {
      "anonymous": false,
      "inputs": [
        {
          "indexed": false,
          "internalType": "uint32",
          "name": "layerIndex",
          "type": "uint32"
        },
        {
          "indexed": false,
          "internalType": "address",
          "name": "from",
          "type": "address"
        },
        {
          "indexed": false,
          "internalType": "address",
          "name": "to",
          "type": "address"
        },
        {
          "indexed": false,
          "internalType": "uint256",
          "name": "amount",
          "type": "uint256"
        }
      ],
      "name": "FastWithdrawalClaim",
      "type": "event"
    },
    {
      "anonymous": false,
      "inputs": [
        {
          "indexed": false,
          "internalType": "uint32",
          "name": "layerIndex",
          "type": "uint32"
        },
        {
          "indexed": false,
          "internalType": "address",
          "name": "staker",
          "type": "address"
        },
        {
          "indexed": false,
          "internalType": "uint256",
          "name": "amount",
          "type": "uint256"
        },
        {
          "indexed": false,
          "internalType": "uint256",
          "name": "lton",
          "type": "uint256"
        }
      ],
      "name": "FastWithdrawalStaked",
      "type": "event"
    },
    {
      "anonymous": false,
      "inputs": [
        {
          "indexed": false,
          "internalType": "uint32",
          "name": "_index",
          "type": "uint32"
        },
        {
          "indexed": false,
          "internalType": "address",
          "name": "sender",
          "type": "address"
        },
        {
          "indexed": false,
          "internalType": "uint256",
          "name": "amount",
          "type": "uint256"
        },
        {
          "indexed": false,
          "internalType": "uint256",
          "name": "lton",
          "type": "uint256"
        }
      ],
      "name": "Restaked",
      "type": "event"
    },
    {
      "anonymous": false,
      "inputs": [
        {
          "indexed": true,
          "internalType": "bytes32",
          "name": "role",
          "type": "bytes32"
        },
        {
          "indexed": true,
          "internalType": "bytes32",
          "name": "previousAdminRole",
          "type": "bytes32"
        },
        {
          "indexed": true,
          "internalType": "bytes32",
          "name": "newAdminRole",
          "type": "bytes32"
        }
      ],
      "name": "RoleAdminChanged",
      "type": "event"
    },
    {
      "anonymous": false,
      "inputs": [
        {
          "indexed": true,
          "internalType": "bytes32",
          "name": "role",
          "type": "bytes32"
        },
        {
          "indexed": true,
          "internalType": "address",
          "name": "account",
          "type": "address"
        },
        {
          "indexed": true,
          "internalType": "address",
          "name": "sender",
          "type": "address"
        }
      ],
      "name": "RoleGranted",
      "type": "event"
    },
    {
      "anonymous": false,
      "inputs": [
        {
          "indexed": true,
          "internalType": "bytes32",
          "name": "role",
          "type": "bytes32"
        },
        {
          "indexed": true,
          "internalType": "address",
          "name": "account",
          "type": "address"
        },
        {
          "indexed": true,
          "internalType": "address",
          "name": "sender",
          "type": "address"
        }
      ],
      "name": "RoleRevoked",
      "type": "event"
    },
    {
      "anonymous": false,
      "inputs": [
        {
          "indexed": false,
          "internalType": "uint32",
          "name": "_index",
          "type": "uint32"
        },
        {
          "indexed": false,
          "internalType": "address",
          "name": "sender",
          "type": "address"
        },
        {
          "indexed": false,
          "internalType": "uint256",
          "name": "amount",
          "type": "uint256"
        },
        {
          "indexed": false,
          "internalType": "uint256",
          "name": "lton",
          "type": "uint256"
        },
        {
          "indexed": false,
          "internalType": "address",
          "name": "commissionTo",
          "type": "address"
        },
        {
          "indexed": false,
          "internalType": "uint16",
          "name": "commission",
          "type": "uint16"
        }
      ],
      "name": "Staked",
      "type": "event"
    },
    {
      "anonymous": false,
      "inputs": [
        {
          "indexed": false,
          "internalType": "uint32",
          "name": "_index",
          "type": "uint32"
        },
        {
          "indexed": false,
          "internalType": "address",
          "name": "sender",
          "type": "address"
        },
        {
          "indexed": false,
          "internalType": "uint256",
          "name": "amount",
          "type": "uint256"
        },
        {
          "indexed": false,
          "internalType": "uint256",
          "name": "lton",
          "type": "uint256"
        }
      ],
      "name": "Unstaked",
      "type": "event"
    },
    {
      "anonymous": false,
      "inputs": [
        {
          "indexed": false,
          "internalType": "uint32",
          "name": "_index",
          "type": "uint32"
        },
        {
          "indexed": false,
          "internalType": "address",
          "name": "sender",
          "type": "address"
        },
        {
          "indexed": false,
          "internalType": "uint256",
          "name": "amount",
          "type": "uint256"
        }
      ],
      "name": "Withdrawal",
      "type": "event"
    },
    {
      "inputs": [],
      "name": "ADMIN_ROLE",
      "outputs": [
        {
          "internalType": "bytes32",
          "name": "",
          "type": "bytes32"
        }
      ],
      "stateMutability": "view",
      "type": "function"
    },
    {
      "inputs": [],
      "name": "DEFAULT_ADMIN_ROLE",
      "outputs": [
        {
          "internalType": "bytes32",
          "name": "",
          "type": "bytes32"
        }
      ],
      "stateMutability": "view",
      "type": "function"
    },
    {
      "inputs": [],
      "name": "POLICY_ROLE",
      "outputs": [
        {
          "internalType": "bytes32",
          "name": "",
          "type": "bytes32"
        }
      ],
      "stateMutability": "view",
      "type": "function"
    },
    {
      "inputs": [
        {
          "internalType": "address",
          "name": "account",
          "type": "address"
        }
      ],
      "name": "addAdmin",
      "outputs": [],
      "stateMutability": "nonpayable",
      "type": "function"
    },
    {
      "inputs": [
        {
          "internalType": "address",
          "name": "",
          "type": "address"
        }
      ],
      "name": "aliveImplementation",
      "outputs": [
        {
          "internalType": "bool",
          "name": "",
          "type": "bool"
        }
      ],
      "stateMutability": "view",
      "type": "function"
    },
    {
      "inputs": [
        {
          "internalType": "uint32",
          "name": "layerIndex",
          "type": "uint32"
        },
        {
          "internalType": "address",
          "name": "account",
          "type": "address"
        }
      ],
      "name": "amountOfPendings",
      "outputs": [
        {
          "internalType": "uint256",
          "name": "amount",
          "type": "uint256"
        },
        {
          "internalType": "uint32",
          "name": "startIndex",
          "type": "uint32"
        },
        {
          "internalType": "uint32",
          "name": "len",
          "type": "uint32"
        },
        {
          "internalType": "uint32",
          "name": "nextWithdrawableBlockNumber",
          "type": "uint32"
        }
      ],
      "stateMutability": "view",
      "type": "function"
    },
    {
      "inputs": [
        {
          "internalType": "uint32",
          "name": "_index",
          "type": "uint32"
        },
        {
          "internalType": "address",
          "name": "account",
          "type": "address"
        }
      ],
      "name": "availableWithdraw",
      "outputs": [
        {
          "internalType": "uint256",
          "name": "amount",
          "type": "uint256"
        },
        {
          "internalType": "uint32",
          "name": "startIndex",
          "type": "uint32"
        },
        {
          "internalType": "uint32",
          "name": "len",
          "type": "uint32"
        }
      ],
      "stateMutability": "view",
      "type": "function"
    },
    {
      "inputs": [
        {
          "internalType": "uint32",
          "name": "_index",
          "type": "uint32"
        },
        {
          "internalType": "address",
          "name": "account",
          "type": "address"
        }
      ],
      "name": "balanceOf",
      "outputs": [
        {
          "internalType": "uint256",
          "name": "amount",
          "type": "uint256"
        }
      ],
      "stateMutability": "view",
      "type": "function"
    },
    {
      "inputs": [
        {
          "internalType": "uint32",
          "name": "_index",
          "type": "uint32"
        },
        {
          "internalType": "address",
          "name": "account",
          "type": "address"
        }
      ],
      "name": "balanceOfLton",
      "outputs": [
        {
          "internalType": "uint256",
          "name": "amount",
          "type": "uint256"
        }
      ],
      "stateMutability": "view",
      "type": "function"
    },
    {
      "inputs": [
        {
          "internalType": "uint32",
          "name": "_index",
          "type": "uint32"
        }
      ],
      "name": "balanceOfLton",
      "outputs": [
        {
          "internalType": "uint256",
          "name": "amount",
          "type": "uint256"
        }
      ],
      "stateMutability": "view",
      "type": "function"
    },
    {
      "inputs": [
        {
          "internalType": "uint32",
          "name": "_candidateIndex",
          "type": "uint32"
        },
        {
          "internalType": "bytes",
          "name": "_info",
          "type": "bytes"
        }
      ],
      "name": "create",
      "outputs": [
        {
          "internalType": "bool",
          "name": "",
          "type": "bool"
        }
      ],
      "stateMutability": "nonpayable",
      "type": "function"
    },
    {
      "inputs": [
        {
          "internalType": "uint32",
          "name": "_index",
          "type": "uint32"
        }
      ],
      "name": "existedIndex",
      "outputs": [
        {
          "internalType": "bool",
          "name": "",
          "type": "bool"
        }
      ],
      "stateMutability": "view",
      "type": "function"
    },
    {
      "inputs": [
        {
          "internalType": "uint32",
          "name": "layerIndex",
          "type": "uint32"
        },
        {
          "internalType": "address",
          "name": "from",
          "type": "address"
        },
        {
          "internalType": "address",
          "name": "to",
          "type": "address"
        },
        {
          "internalType": "uint256",
          "name": "amount",
          "type": "uint256"
        }
      ],
      "name": "fastWithdrawClaim",
      "outputs": [
        {
          "internalType": "bool",
          "name": "",
          "type": "bool"
        }
      ],
      "stateMutability": "nonpayable",
      "type": "function"
    },
    {
      "inputs": [
        {
          "internalType": "uint32",
          "name": "layerIndex",
          "type": "uint32"
        },
        {
          "internalType": "address",
          "name": "staker",
          "type": "address"
        },
        {
          "internalType": "uint256",
          "name": "_amount",
          "type": "uint256"
        }
      ],
      "name": "fastWithdrawStake",
      "outputs": [
        {
          "internalType": "bool",
          "name": "",
          "type": "bool"
        }
      ],
      "stateMutability": "nonpayable",
      "type": "function"
    },
    {
      "inputs": [],
      "name": "fwReceipt",
      "outputs": [
        {
          "internalType": "address",
          "name": "",
          "type": "address"
        }
      ],
      "stateMutability": "view",
      "type": "function"
    },
    {
      "inputs": [
        {
          "internalType": "uint32",
          "name": "_index",
          "type": "uint32"
        }
      ],
      "name": "getCandidateInfo",
      "outputs": [
        {
          "components": [
            {
              "internalType": "address",
              "name": "operator",
              "type": "address"
            },
            {
              "internalType": "uint32",
              "name": "sequencerIndex",
              "type": "uint32"
            },
            {
              "internalType": "uint16",
              "name": "commission",
              "type": "uint16"
            }
          ],
          "internalType": "struct LibOperator.Info",
          "name": "info",
          "type": "tuple"
        }
      ],
      "stateMutability": "view",
      "type": "function"
    },
    {
      "inputs": [
        {
          "internalType": "uint32",
          "name": "_index",
          "type": "uint32"
        }
      ],
      "name": "getCandidateKey",
      "outputs": [
        {
          "internalType": "bytes32",
          "name": "layerKey_",
          "type": "bytes32"
        }
      ],
      "stateMutability": "view",
      "type": "function"
    },
    {
      "inputs": [
        {
          "internalType": "uint32",
          "name": "_index",
          "type": "uint32"
        },
        {
          "internalType": "address",
          "name": "account",
          "type": "address"
        }
      ],
      "name": "getLayerStakes",
      "outputs": [
        {
          "components": [
            {
              "internalType": "uint256",
              "name": "stakePrincipal",
              "type": "uint256"
            },
            {
              "internalType": "uint256",
              "name": "bondPrincipal",
              "type": "uint256"
            },
            {
              "internalType": "uint256",
              "name": "stakelton",
              "type": "uint256"
            },
            {
              "internalType": "uint256",
              "name": "bondlton",
              "type": "uint256"
            },
            {
              "internalType": "bool",
              "name": "stake",
              "type": "bool"
            },
            {
              "internalType": "uint16",
              "name": "fwFee",
              "type": "uint16"
            }
          ],
          "internalType": "struct LibStake.StakeInfo",
          "name": "info",
          "type": "tuple"
        }
      ],
      "stateMutability": "view",
      "type": "function"
    },
    {
      "inputs": [
        {
          "internalType": "uint32",
          "name": "_index",
          "type": "uint32"
        },
        {
          "internalType": "address",
          "name": "account",
          "type": "address"
        }
      ],
      "name": "getPendingUnstakedAmount",
      "outputs": [
        {
          "internalType": "uint256",
          "name": "",
          "type": "uint256"
        }
      ],
      "stateMutability": "view",
      "type": "function"
    },
    {
      "inputs": [
        {
          "internalType": "bytes32",
          "name": "role",
          "type": "bytes32"
        }
      ],
      "name": "getRoleAdmin",
      "outputs": [
        {
          "internalType": "bytes32",
          "name": "",
          "type": "bytes32"
        }
      ],
      "stateMutability": "view",
      "type": "function"
    },
    {
      "inputs": [],
      "name": "getStakeAccountList",
      "outputs": [
        {
          "internalType": "address[]",
          "name": "",
          "type": "address[]"
        }
      ],
      "stateMutability": "view",
      "type": "function"
    },
    {
      "inputs": [],
      "name": "getTotalLton",
      "outputs": [
        {
          "internalType": "uint256",
          "name": "",
          "type": "uint256"
        }
      ],
      "stateMutability": "view",
      "type": "function"
    },
    {
      "inputs": [
        {
          "internalType": "bytes32",
          "name": "role",
          "type": "bytes32"
        },
        {
          "internalType": "address",
          "name": "account",
          "type": "address"
        }
      ],
      "name": "grantRole",
      "outputs": [],
      "stateMutability": "nonpayable",
      "type": "function"
    },
    {
      "inputs": [
        {
          "internalType": "bytes32",
          "name": "role",
          "type": "bytes32"
        },
        {
          "internalType": "address",
          "name": "account",
          "type": "address"
        }
      ],
      "name": "hasRole",
      "outputs": [
        {
          "internalType": "bool",
          "name": "",
          "type": "bool"
        }
      ],
      "stateMutability": "view",
      "type": "function"
    },
    {
      "inputs": [
        {
          "internalType": "address",
          "name": "account",
          "type": "address"
        }
      ],
      "name": "isAdmin",
      "outputs": [
        {
          "internalType": "bool",
          "name": "",
          "type": "bool"
        }
      ],
      "stateMutability": "view",
      "type": "function"
    },
    {
      "inputs": [
        {
          "internalType": "uint32",
          "name": "_index",
          "type": "uint32"
        }
      ],
      "name": "layer2Deposits",
      "outputs": [
        {
          "internalType": "uint256",
          "name": "amount",
          "type": "uint256"
        }
      ],
      "stateMutability": "view",
      "type": "function"
    },
    {
      "inputs": [],
      "name": "layer2Manager",
      "outputs": [
        {
          "internalType": "address",
          "name": "",
          "type": "address"
        }
      ],
      "stateMutability": "view",
      "type": "function"
    },
    {
      "inputs": [
        {
          "internalType": "uint32",
          "name": "",
          "type": "uint32"
        }
      ],
      "name": "layerInfo",
      "outputs": [
        {
          "internalType": "bytes",
          "name": "",
          "type": "bytes"
        }
      ],
      "stateMutability": "view",
      "type": "function"
    },
    {
      "inputs": [
        {
          "internalType": "uint32",
          "name": "",
          "type": "uint32"
        }
      ],
      "name": "layerStakedLton",
      "outputs": [
        {
          "internalType": "uint256",
          "name": "",
          "type": "uint256"
        }
      ],
      "stateMutability": "view",
      "type": "function"
    },
    {
      "inputs": [
        {
          "internalType": "uint32",
          "name": "",
          "type": "uint32"
        },
        {
          "internalType": "address",
          "name": "",
          "type": "address"
        }
      ],
      "name": "layerStakes",
      "outputs": [
        {
          "internalType": "uint256",
          "name": "stakePrincipal",
          "type": "uint256"
        },
        {
          "internalType": "uint256",
          "name": "bondPrincipal",
          "type": "uint256"
        },
        {
          "internalType": "uint256",
          "name": "stakelton",
          "type": "uint256"
        },
        {
          "internalType": "uint256",
          "name": "bondlton",
          "type": "uint256"
        },
        {
          "internalType": "bool",
          "name": "stake",
          "type": "bool"
        },
        {
          "internalType": "uint16",
          "name": "fwFee",
          "type": "uint16"
        }
      ],
      "stateMutability": "view",
      "type": "function"
    },
    {
      "inputs": [
        {
          "internalType": "uint32",
          "name": "layerIndex",
          "type": "uint32"
        },
        {
          "internalType": "address",
          "name": "account",
          "type": "address"
        }
      ],
      "name": "numberOfPendings",
      "outputs": [
        {
          "internalType": "uint256",
          "name": "totalRequests",
          "type": "uint256"
        },
        {
          "internalType": "uint256",
          "name": "withdrawIndex",
          "type": "uint256"
        },
        {
          "internalType": "uint256",
          "name": "pendingLength",
          "type": "uint256"
        }
      ],
      "stateMutability": "view",
      "type": "function"
    },
    {
      "inputs": [
        {
          "internalType": "address",
          "name": "sender",
          "type": "address"
        },
        {
          "internalType": "address",
          "name": "spender",
          "type": "address"
        },
        {
          "internalType": "uint256",
          "name": "amount",
          "type": "uint256"
        },
        {
          "internalType": "bytes",
          "name": "data",
          "type": "bytes"
        }
      ],
      "name": "onApprove",
      "outputs": [
        {
          "internalType": "bool",
          "name": "",
          "type": "bool"
        }
      ],
      "stateMutability": "nonpayable",
      "type": "function"
    },
    {
      "inputs": [
        {
          "internalType": "uint32",
          "name": "_index",
          "type": "uint32"
        }
      ],
      "name": "operator",
      "outputs": [
        {
          "internalType": "address",
          "name": "operator_",
          "type": "address"
        }
      ],
      "stateMutability": "view",
      "type": "function"
    },
    {
      "inputs": [
        {
          "internalType": "uint32",
          "name": "",
          "type": "uint32"
        },
        {
          "internalType": "address",
          "name": "",
          "type": "address"
        }
      ],
      "name": "operators",
      "outputs": [
        {
          "internalType": "uint32",
          "name": "",
          "type": "uint32"
        }
      ],
      "stateMutability": "view",
      "type": "function"
    },
    {
      "inputs": [],
      "name": "pauseProxy",
      "outputs": [
        {
          "internalType": "bool",
          "name": "",
          "type": "bool"
        }
      ],
      "stateMutability": "view",
      "type": "function"
    },
    {
      "inputs": [
        {
          "internalType": "uint32",
          "name": "",
          "type": "uint32"
        },
        {
          "internalType": "address",
          "name": "",
          "type": "address"
        }
      ],
      "name": "pendingUnstaked",
      "outputs": [
        {
          "internalType": "uint256",
          "name": "",
          "type": "uint256"
        }
      ],
      "stateMutability": "view",
      "type": "function"
    },
    {
      "inputs": [
        {
          "internalType": "address",
          "name": "",
          "type": "address"
        }
      ],
      "name": "pendingUnstakedAccount",
      "outputs": [
        {
          "internalType": "uint256",
          "name": "",
          "type": "uint256"
        }
      ],
      "stateMutability": "view",
      "type": "function"
    },
    {
      "inputs": [
        {
          "internalType": "uint32",
          "name": "",
          "type": "uint32"
        }
      ],
      "name": "pendingUnstakedLayer2",
      "outputs": [
        {
          "internalType": "uint256",
          "name": "",
          "type": "uint256"
        }
      ],
      "stateMutability": "view",
      "type": "function"
    },
    {
      "inputs": [
        {
          "internalType": "uint256",
          "name": "",
          "type": "uint256"
        }
      ],
      "name": "proxyImplementation",
      "outputs": [
        {
          "internalType": "address",
          "name": "",
          "type": "address"
        }
      ],
      "stateMutability": "view",
      "type": "function"
    },
    {
      "inputs": [
        {
          "internalType": "address",
          "name": "account",
          "type": "address"
        }
      ],
      "name": "removeAdmin",
      "outputs": [],
      "stateMutability": "nonpayable",
      "type": "function"
    },
    {
      "inputs": [
        {
          "internalType": "bytes32",
          "name": "role",
          "type": "bytes32"
        },
        {
          "internalType": "address",
          "name": "account",
          "type": "address"
        }
      ],
      "name": "renounceRole",
      "outputs": [],
      "stateMutability": "nonpayable",
      "type": "function"
    },
    {
      "inputs": [
        {
          "internalType": "uint32",
          "name": "_index",
          "type": "uint32"
        }
      ],
      "name": "restake",
      "outputs": [],
      "stateMutability": "nonpayable",
      "type": "function"
    },
    {
      "inputs": [
        {
          "internalType": "uint32",
          "name": "_index",
          "type": "uint32"
        },
        {
          "internalType": "uint256",
          "name": "n",
          "type": "uint256"
        }
      ],
      "name": "restakeMulti",
      "outputs": [],
      "stateMutability": "nonpayable",
      "type": "function"
    },
    {
      "inputs": [
        {
          "internalType": "bytes32",
          "name": "role",
          "type": "bytes32"
        },
        {
          "internalType": "address",
          "name": "account",
          "type": "address"
        }
      ],
      "name": "revokeRole",
      "outputs": [],
      "stateMutability": "nonpayable",
      "type": "function"
    },
    {
      "inputs": [],
      "name": "seigManagerV2",
      "outputs": [
        {
          "internalType": "address",
          "name": "",
          "type": "address"
        }
      ],
      "stateMutability": "view",
      "type": "function"
    },
    {
      "inputs": [
        {
          "internalType": "bytes4",
          "name": "",
          "type": "bytes4"
        }
      ],
      "name": "selectorImplementation",
      "outputs": [
        {
          "internalType": "address",
          "name": "",
          "type": "address"
        }
      ],
      "stateMutability": "view",
      "type": "function"
    },
    {
      "inputs": [
        {
          "internalType": "uint32",
          "name": "_index",
          "type": "uint32"
        },
        {
          "internalType": "uint256",
          "name": "amount",
          "type": "uint256"
        }
      ],
      "name": "stake",
      "outputs": [],
      "stateMutability": "nonpayable",
      "type": "function"
    },
    {
      "inputs": [
        {
          "internalType": "uint256",
          "name": "",
          "type": "uint256"
        }
      ],
      "name": "stakeAccountList",
      "outputs": [
        {
          "internalType": "address",
          "name": "",
          "type": "address"
        }
      ],
      "stateMutability": "view",
      "type": "function"
    },
    {
      "inputs": [
        {
          "internalType": "bytes4",
          "name": "interfaceId",
          "type": "bytes4"
        }
      ],
      "name": "supportsInterface",
      "outputs": [
        {
          "internalType": "bool",
          "name": "",
          "type": "bool"
        }
      ],
      "stateMutability": "view",
      "type": "function"
    },
    {
      "inputs": [],
      "name": "ton",
      "outputs": [
        {
          "internalType": "address",
          "name": "",
          "type": "address"
        }
      ],
      "stateMutability": "view",
      "type": "function"
    },
    {
      "inputs": [],
      "name": "totalLayer2Deposits",
      "outputs": [
        {
          "internalType": "uint256",
          "name": "amount",
          "type": "uint256"
        }
      ],
      "stateMutability": "view",
      "type": "function"
    },
    {
      "inputs": [],
      "name": "totalStakeAccountList",
      "outputs": [
        {
          "internalType": "uint256",
          "name": "",
          "type": "uint256"
        }
      ],
      "stateMutability": "view",
      "type": "function"
    },
    {
      "inputs": [],
      "name": "totalStakedLton",
      "outputs": [
        {
          "internalType": "uint256",
          "name": "",
          "type": "uint256"
        }
      ],
      "stateMutability": "view",
      "type": "function"
    },
    {
      "inputs": [
        {
          "internalType": "address",
          "name": "newAdmin",
          "type": "address"
        }
      ],
      "name": "transferAdmin",
      "outputs": [],
      "stateMutability": "nonpayable",
      "type": "function"
    },
    {
      "inputs": [
        {
          "internalType": "uint32",
          "name": "_index",
          "type": "uint32"
        },
        {
          "internalType": "uint256",
          "name": "lton_",
          "type": "uint256"
        }
      ],
      "name": "unstake",
      "outputs": [],
      "stateMutability": "nonpayable",
      "type": "function"
    },
    {
      "inputs": [
        {
          "internalType": "uint32",
          "name": "_index",
          "type": "uint32"
        }
      ],
      "name": "withdraw",
      "outputs": [],
      "stateMutability": "nonpayable",
      "type": "function"
    },
    {
      "inputs": [
        {
          "internalType": "uint32",
          "name": "",
          "type": "uint32"
        },
        {
          "internalType": "address",
          "name": "",
          "type": "address"
        }
      ],
      "name": "withdrawalRequestIndex",
      "outputs": [
        {
          "internalType": "uint256",
          "name": "",
          "type": "uint256"
        }
      ],
      "stateMutability": "view",
      "type": "function"
    },
    {
      "inputs": [
        {
          "internalType": "uint32",
          "name": "",
          "type": "uint32"
        },
        {
          "internalType": "address",
          "name": "",
          "type": "address"
        },
        {
          "internalType": "uint256",
          "name": "",
          "type": "uint256"
        }
      ],
      "name": "withdrawalRequests",
      "outputs": [
        {
          "internalType": "uint32",
          "name": "withdrawableBlockNumber",
          "type": "uint32"
        },
        {
          "internalType": "uint128",
          "name": "amount",
          "type": "uint128"
        },
        {
          "internalType": "bool",
          "name": "processed",
          "type": "bool"
        }
      ],
      "stateMutability": "view",
      "type": "function"
    }
  ],
  "bytecode": "0x60806040526006805460ff1916600117905534801561001d57600080fd5b506148a38061002d6000396000f3fe608060405234801561001057600080fd5b506004361061038e5760003560e01c806375b238fc116101de5780639c656e261161010f578063b969fbef116100ad578063d547741f1161007c578063d547741f14610ae0578063df2b429014610af3578063ec110d4514610b06578063fde4819714610b1957600080fd5b8063b969fbef14610a8d578063b9cab97114610a95578063cc48b94714610ab5578063d07918f114610acd57600080fd5b8063aa9224cd116100e9578063aa9224cd14610a1b578063b413b37a14610a2e578063b6a2f99d14610a36578063b911135f14610a6457600080fd5b80639c656e261461096a578063a0b2a913146109f3578063a217fddf14610a1357600080fd5b80638afec9fc1161017c5780638ddd87fe116101565780638ddd87fe146108cf57806391d148541461090d57806394c89b2c146109445780639c2f614f1461095757600080fd5b80638afec9fc146108615780638c71762d146108875780638d99e1ca146108bc57600080fd5b80637cf1587c116101b85780637cf1587c146107fd5780637d211a1c146108285780637ec6840f1461083b57806387dd8bd01461084e57600080fd5b806375b238fc146107b0578063763936c7146107d75780637c356816146107ea57600080fd5b80634e1a264d116102c357806363a8fd891161026157806370619cf91161023057806370619cf91461075757806373469a7a14610777578063744a35611461078a57806375829def1461079d57600080fd5b806363a8fd89146106d8578063659ab820146106e55780636d1ef10314610705578063704802751461074457600080fd5b8063550d01a31161029d578063550d01a3146105ed5780635e2cfe45146106105780635f1b989e1461063b57806360254e33146106c557600080fd5b80634e1a264d146105735780634f818d0c1461057c57806350d2a276146105c457600080fd5b8063248a9ca31161033057806336568abe1161030a57806336568abe146105305780634273ca161461054357806346bcdb49146105565780634de131ca1461055e57600080fd5b8063248a9ca3146104e757806324d7806c1461050a5780632f2ff15d1461051d57600080fd5b80631785f53c1161036c5780631785f53c146103fb5780631ed944951461040e5780631f760d011461047357806322985246146104b257600080fd5b806301ffc9a714610393578063118e29d1146103bb57806316b5d5bd146103d0575b600080fd5b6103a66103a1366004614059565b610b5f565b60405190151581526020015b60405180910390f35b6103ce6103c9366004614095565b610b96565b005b6008546103e3906001600160a01b031681565b6040516001600160a01b0390911681526020016103b2565b6103ce6104093660046140c7565b610c0b565b61042161041c3660046140e4565b610c98565b6040516103b29190600060c0820190508251825260208301516020830152604083015160408301526060830151606083015260808301511515608083015261ffff60a08401511660a083015292915050565b6104866104813660046140e4565b610d56565b6040805194855263ffffffff9384166020860152918316918401919091521660608201526080016103b2565b6104d97ffb5864e8ff833c3cb2d2d08505e82ff02a43554c74a35d4f5a64e8526127831181565b6040519081526020016103b2565b6104d96104f536600461411d565b60009081526020819052604090206001015490565b6103a66105183660046140c7565b610e94565b6103ce61052b366004614136565b610ed4565b6103ce61053e366004614136565b610efe565b6103a661055136600461415b565b610f86565b6012546104d9565b610566611136565b6040516103b291906141fa565b6104d960095481565b61058f61058a366004614095565b611198565b6040805182516001600160a01b0316815260208084015163ffffffff16908201529181015161ffff16908201526060016103b2565b6103e36105d2366004614059565b6004602052600090815260409020546001600160a01b031681565b6103a66105fb3660046140c7565b60036020526000908152604090205460ff1681565b6104d961061e3660046140e4565b600e60209081526000928352604080842090915290825290205481565b6104d96106493660046140e4565b63ffffffff9091166000908152600b602090815260408083206001600160a01b03909416835292815290829020825160c081018452815481526001820154928101929092526002810154928201839052600381015460608301526004015460ff81161515608083015261ffff6101009091041660a09091015290565b6103a66106d3366004614247565b61123c565b6001546103a69060ff1681565b6106f86106f3366004614095565b6113fe565b6040516103b291906142d8565b610718610713366004614247565b611498565b6040805163ffffffff90941684526001600160801b0390921660208401521515908201526060016103b2565b6103ce6107523660046140c7565b6114f7565b6104d9610765366004614095565b600a6020526000908152604090205481565b6007546103e3906001600160a01b031681565b6103ce6107983660046142eb565b611581565b6103ce6107ab3660046140c7565b6115ec565b6104d97fdf8b4c520ffe197c5343c6f5aec59570151ef9a492f2c624fd45ddde6135ec4281565b6103e36107e5366004614095565b61174e565b6103a66107f8366004614317565b61180f565b6104d961080b3660046140e4565b600d60209081526000928352604080842090915290825290205481565b6103a6610836366004614095565b611aa3565b6103ce6108493660046142eb565b611b6a565b6104d961085c366004614095565b611c12565b6104d961086f366004614095565b63ffffffff166000908152600a602052604090205490565b61089a6108953660046140e4565b611cfd565b6040805193845263ffffffff92831660208501529116908201526060016103b2565b6104d96108ca366004614095565b611e3a565b6104d96108dd3660046140e4565b63ffffffff82166000908152600e602090815260408083206001600160a01b038516845290915290205492915050565b6103a661091b366004614136565b6000918252602082815260408084206001600160a01b0393909316845291905290205460ff1690565b6104d96109523660046140e4565b611ead565b6103ce6109653660046142eb565b611f99565b6109c06109783660046140e4565b600b602090815260009283526040808420909152908252902080546001820154600283015460038401546004909401549293919290919060ff811690610100900461ffff1686565b6040805196875260208701959095529385019290925260608401521515608083015261ffff1660a082015260c0016103b2565b6104d9610a013660046140c7565b60106020526000908152604090205481565b6104d9600081565b6103ce610a29366004614095565b6120c9565b6009546104d9565b610a49610a443660046140e4565b6124de565b604080519384526020840192909252908201526060016103b2565b6103e3610a7236600461411d565b6002602052600090815260409020546001600160a01b031681565b6104d9612539565b6104d9610aa3366004614095565b600f6020526000908152604090205481565b6006546103e39061010090046001600160a01b031681565b6013546103e3906001600160a01b031681565b6103ce610aee366004614136565b6125ac565b6103a6610b013660046143af565b6125d1565b6103e3610b1436600461411d565b61292a565b610b4a610b273660046140e4565b601460209081526000928352604080842090915290825290205463ffffffff1681565b60405163ffffffff90911681526020016103b2565b60006001600160e01b03198216637965db0b60e01b1480610b9057506301ffc9a760e01b6001600160e01b03198316145b92915050565b63ffffffff81166000908152600d602090815260408083203380855292529091205490610bc7908390836001612954565b610c075760405162461bcd60e51b815260206004820152600c60248201526b534c5f455f52455354414b4560a01b60448201526064015b60405180910390fd5b5050565b610c1433610e94565b610c6b5760405162461bcd60e51b815260206004820152602260248201527f41636365737369626c653a2043616c6c6572206973206e6f7420616e2061646d60448201526134b760f11b6064820152608401610bfe565b610c957fdf8b4c520ffe197c5343c6f5aec59570151ef9a492f2c624fd45ddde6135ec4282610efe565b50565b610cd76040518060c0016040528060008152602001600081526020016000815260200160008152602001600015158152602001600061ffff1681525090565b5063ffffffff9091166000908152600b602090815260408083206001600160a01b03909416835292815290829020825160c081018452815481526001820154928101929092526002810154928201929092526003820154606082015260049091015460ff81161515608083015261ffff6101009091041660a082015290565b63ffffffff8083166000818152600c602090815260408083206001600160a01b03871680855290835281842054948452600d835281842090845290915281205490929091839182919084165b81811015610e895763ffffffff88166000908152600c602090815260408083206001600160a01b038b1684529091528120805483908110610de557610de5614457565b6000918252602080832060408051606081018252939091015463ffffffff8116845264010000000081046001600160801b031692840192909252600160a01b90910460ff1615159082018190529092509003610e76578363ffffffff16600003610e4e57805193505b6020810151610e66906001600160801b031688614483565b9650610e73600186614496565b94505b5080610e81816144ba565b915050610da2565b505092959194509250565b6001600160a01b03811660009081527f5cbfc8ee58ca47855df7bcf648dd304ddb6b932f9b87878bdf6318d7ec7ee5b7602052604081205460ff16610b90565b600082815260208190526040902060010154610eef81612e01565b610ef98383612e0b565b505050565b6001600160a01b0381163314610f7c5760405162461bcd60e51b815260206004820152602f60248201527f416363657373436f6e74726f6c3a2063616e206f6e6c792072656e6f756e636560448201527f20726f6c657320666f722073656c6600000000000000000000000000000000006064820152608401610bfe565b610c078282612ea9565b60065460009061010090046001600160a01b03163314610fcd5760405162461bcd60e51b8152602060048201526002602482015261454160f01b6044820152606401610bfe565b611014610836600085858080601f0160208091040260200160405190810160405280939291908181526020018383808284376000920191909152509293925050612f289050565b6110605760405162461bcd60e51b815260206004820152601860248201527f6e6f6e2d726567697374657265642063616e64696461746500000000000000006044820152606401610bfe565b60006110a6600085858080601f0160208091040260200160405190810160405280939291908181526020018383808284376000920191909152509293925050612f289050565b905084156110cb576006546110cb9061010090046001600160a01b0316883088612fe8565b60006110d682611198565b9050806040015161ffff16600014806110fb575080516001600160a01b038981169116145b156111135761110e82898860008061310c565b611128565b6111288289888460000151856040015161310c565b506001979650505050505050565b6060601280548060200260200160405190810160405280929190818152602001828054801561118e57602002820191906000526020600020905b81546001600160a01b03168152600190910190602001808311611170575b5050505050905090565b604080516060810182526000808252602080830182905282840182905263ffffffff8516825260119052829020915163186ca86f60e21b8152909173__$d436d56fec194dfaaabaf06742f0275c03$__916361b2a1bc916111fb91600401614507565b606060405180830381865af4158015611218573d6000803e3d6000fd5b505050506040513d601f19601f82011682018060405250810190610b909190614592565b6013546000906001600160a01b031633146112895760405162461bcd60e51b815260206004820152600d60248201526c232bafa1a0a62622a92fa2a92960991b6044820152606401610bfe565b600754604051636a2fb1f560e01b8152600481018490526000916001600160a01b031690636a2fb1f590602401602060405180830381865afa1580156112d3573d6000803e3d6000fd5b505050506040513d601f19601f820116820180604052508101906112f7919061460b565b63ffffffff86166000908152600a6020526040812080549293508392909190611321908490614483565b92505081905550806009600082825461133a9190614483565b909155505063ffffffff85166000908152600b602090815260408083206001600160a01b0388168452909152812080549091859183919061137c908490614483565b92505081905550818160020160008282546113979190614483565b90915550506040805163ffffffff881681526001600160a01b0387166020820152908101859052606081018390527fd5f2b548f2958cb2c0fb52f3e60e93ae5d5bece5191c580d1912068409ab92479060800160405180910390a150600195945050505050565b60116020526000908152604090208054611417906144d3565b80601f0160208091040260200160405190810160405280929190818152602001828054611443906144d3565b80156114905780601f1061146557610100808354040283529160200191611490565b820191906000526020600020905b81548152906001019060200180831161147357829003601f168201915b505050505081565b600c60205282600052604060002060205281600052604060002081815481106114c057600080fd5b60009182526020909120015463ffffffff8116935064010000000081046001600160801b03169250600160a01b900460ff16905083565b61150033610e94565b6115575760405162461bcd60e51b815260206004820152602260248201527f41636365737369626c653a2043616c6c6572206973206e6f7420616e2061646d60448201526134b760f11b6064820152608401610bfe565b610c957fdf8b4c520ffe197c5343c6f5aec59570151ef9a492f2c624fd45ddde6135ec4282610ed4565b63ffffffff82166000908152600d6020908152604080832033808552925290912054906115b19084908385612954565b610ef95760405162461bcd60e51b815260206004820152600c60248201526b534c5f455f52455354414b4560a01b6044820152606401610bfe565b6115f533610e94565b61164c5760405162461bcd60e51b815260206004820152602260248201527f41636365737369626c653a2043616c6c6572206973206e6f7420616e2061646d60448201526134b760f11b6064820152608401610bfe565b6001600160a01b0381166116a25760405162461bcd60e51b815260206004820152601860248201527f41636365737369626c653a207a65726f206164647265737300000000000000006044820152606401610bfe565b6001600160a01b03811633036116fa5760405162461bcd60e51b815260206004820152601660248201527f41636365737369626c653a2073616d652061646d696e000000000000000000006044820152606401610bfe565b6117247fdf8b4c520ffe197c5343c6f5aec59570151ef9a492f2c624fd45ddde6135ec4282610ed4565b610c957fdf8b4c520ffe197c5343c6f5aec59570151ef9a492f2c624fd45ddde6135ec4233610efe565b63ffffffff811660009081526011602052604081208054829190611771906144d3565b80601f016020809104026020016040519081016040528092919081815260200182805461179d906144d3565b80156117ea5780601f106117bf576101008083540402835291602001916117ea565b820191906000526020600020905b8154815290600101906020018083116117cd57829003601f168201915b5050505050905060178151111561180957611806816000613500565b91505b50919050565b60065460009060ff1661184d5760405162461bcd60e51b8152600401610bfe906020808252600490820152636c6f636b60e01b604082015260600190565b6006805460ff191690556013546001600160a01b031633146118a15760405162461bcd60e51b815260206004820152600d60248201526c232bafa1a0a62622a92fa2a92960991b6044820152606401610bfe565b816118ac8686611ead565b10156118fa5760405162461bcd60e51b815260206004820152601960248201527f6c697175696469747920697320696e73756666696369656e74000000000000006044820152606401610bfe565b6006546040516370a0823160e01b815230600482015260009161010090046001600160a01b0316906370a0823190602401602060405180830381865afa158015611948573d6000803e3d6000fd5b505050506040513d601f19601f8201168201806040525081019061196c919061460b565b905082811015611a17578015611998576006546119989061010090046001600160a01b031685836135c0565b6007546001600160a01b031663aad3ec96856119b48487614624565b6040516001600160e01b031960e085901b1681526001600160a01b0390921660048301526024820152604401600060405180830381600087803b1580156119fa57600080fd5b505af1158015611a0e573d6000803e3d6000fd5b50505050611a33565b600654611a339061010090046001600160a01b031685856135c0565b6040805163ffffffff881681526001600160a01b0387811660208301528616818301526060810185905290517f1300548f98fb4f42be29e3431413715ef6ef84ba22e8eb7717bfb05164cfdd9f9181900360800190a160019150506006805460ff19166001179055949350505050565b600854604051635d170f8f60e01b815263ffffffff831660048201526000916001600160a01b031690635d170f8f90602401602060405180830381865afa158015611af2573d6000803e3d6000fd5b505050506040513d601f19601f82011682018060405250810190611b169190614637565b611b625760405162461bcd60e51b815260206004820152601460248201527f6e6f6e2d72656769737465726564206c617965720000000000000000000000006044820152606401610bfe565b506001919050565b611b7382611aa3565b611bbf5760405162461bcd60e51b815260206004820152601860248201527f6e6f6e2d726567697374657265642063616e64696461746500000000000000006044820152606401610bfe565b6000611bca83611198565b9050806040015161ffff1660001480611bec575080516001600160a01b031633145b15611bfe57610ef983836000806136db565b610ef98383836000015184604001516136db565b63ffffffff811660009081526011602052604081208054829190611c35906144d3565b80601f0160208091040260200160405190810160405280929190818152602001828054611c61906144d3565b8015611cae5780601f10611c8357610100808354040283529160200191611cae565b820191906000526020600020905b815481529060010190602001808311611c9157829003601f168201915b50505050509050611ccc600060188361370b9092919063ffffffff16565b6000604051602001611cdf929190614659565b60405160208183030381529060405280519060200120915050919050565b63ffffffff8083166000818152600c602090815260408083206001600160a01b03871680855290835281842054948452600d835281842090845290915281205490929091839183165b81811015611e315763ffffffff87166000908152600c602090815260408083206001600160a01b038a1684529091528120805483908110611d8957611d89614457565b600091825260209182902060408051606081018252929091015463ffffffff811680845264010000000082046001600160801b031694840194909452600160a01b900460ff16151590820152915043118015611de757506040810151155b15611e18576020810151611e04906001600160801b031687614483565b9550611e11600185614496565b9350611e1e565b50611e31565b5080611e29816144ba565b915050611d46565b50509250925092565b6008546040516346ccf0e560e11b815263ffffffff831660048201526000916001600160a01b031690638d99e1ca90602401602060405180830381865afa158015611e89573d6000803e3d6000fd5b505050506040513d601f19601f82011682018060405250810190610b90919061460b565b60075463ffffffff83166000908152600b602090815260408083206001600160a01b038681168552908352818420825160c081018452815481526001820154948101949094526002810154928401839052600381015460608501526004015460ff811615156080850152610100900461ffff1660a0909301929092529192169063cdf68009906040518263ffffffff1660e01b8152600401611f5191815260200190565b602060405180830381865afa158015611f6e573d6000803e3d6000fd5b505050506040513d601f19601f82011682018060405250810190611f92919061460b565b9392505050565b601354604051630265991f60e61b81526001600482015263ffffffff841660248201523360448201526000916001600160a01b03169063996647c090606401602060405180830381865afa158015611ff5573d6000803e3d6000fd5b505050506040513d601f19601f82011682018060405250810190612019919061460b565b90506120248361174e565b6001600160a01b031633036120be57610ef98383600860009054906101000a90046001600160a01b03166001600160a01b031663a4dd8b7d6040518163ffffffff1660e01b8152600401602060405180830381865afa15801561208b573d6000803e3d6000fd5b505050506040513d601f19601f820116820180604052508101906120af919061460b565b6120b99085614483565b61386e565b610ef983838361386e565b60065460ff166121045760405162461bcd60e51b8152600401610bfe906020808252600490820152636c6f636b60e01b604082015260600190565b6006805460ff1916905563ffffffff81166000818152600c602090815260408083203380855290835281842054948452600d83528184208185529092528220549092919081905b8381101561221d5763ffffffff86166000908152600c602090815260408083206001600160a01b0389168452909152812080548390811061218e5761218e614457565b600091825260209091200180549091504363ffffffff9091161080156121bd57508054600160a01b900460ff16155b1561220457805460ff60a01b1916600160a01b178082556121f0906001600160801b036401000000009091041684614483565b9250836121fc816144ba565b94505061220a565b5061221d565b5080612215816144ba565b91505061214b565b506000811161226e5760405162461bcd60e51b815260206004820181905260248201527f7a65726f20617661696c61626c65207769746864726177616c20616d6f756e746044820152606401610bfe565b63ffffffff85166000908152600d602090815260408083206001600160a01b0388168452909152812080548492906122a7908490614483565b909155505063ffffffff85166000908152600e602090815260408083206001600160a01b0388168452909152812080548392906122e5908490614624565b909155505063ffffffff85166000908152600f60205260408120805483929061230f908490614624565b90915550506001600160a01b0384166000908152601060205260408120805483929061233c908490614624565b90915550506006546040516370a0823160e01b815230600482015260009161010090046001600160a01b0316906370a0823190602401602060405180830381865afa15801561238f573d6000803e3d6000fd5b505050506040513d601f19601f820116820180604052508101906123b3919061460b565b90508181101561245e5780156123df576006546123df9061010090046001600160a01b031686836135c0565b6007546001600160a01b031663aad3ec96866123fb8486614624565b6040516001600160e01b031960e085901b1681526001600160a01b0390921660048301526024820152604401600060405180830381600087803b15801561244157600080fd5b505af1158015612455573d6000803e3d6000fd5b5050505061247a565b60065461247a9061010090046001600160a01b031686846135c0565b6040805163ffffffff881681526001600160a01b03871660208201529081018390527f2d6eb139d2002caa088da5527d9d62f2f23bdf4504f5559a112535c436c6ee599060600160405180910390a150506006805460ff1916600117905550505050565b63ffffffff82166000818152600c602090815260408083206001600160a01b03861680855290835281842054948452600d8352818420908452909152812054908183106125325761252f8284614624565b90505b9250925092565b6008546040805163b969fbef60e01b815290516000926001600160a01b03169163b969fbef9160048083019260209291908290030181865afa158015612583573d6000803e3d6000fd5b505050506040513d601f19601f820116820180604052508101906125a7919061460b565b905090565b6000828152602081905260409020600101546125c781612e01565b610ef98383612ea9565b6008546000906001600160a01b0316331461262e5760405162461bcd60e51b815260206004820152601160248201527f6e6f74204c61796572324d616e616765720000000000000000000000000000006044820152606401610bfe565b63ffffffff83166000908152601160205260409020805461264e906144d3565b15905061269d5760405162461bcd60e51b815260206004820152600f60248201527f616c7265616479206372656174656400000000000000000000000000000000006044820152606401610bfe565b60398251116126ee5760405162461bcd60e51b815260206004820152600b60248201527f77726f6e67205f696e666f0000000000000000000000000000000000000000006044820152606401610bfe565b60405163186ca86f60e21b815260009073__$d436d56fec194dfaaabaf06742f0275c03$__906361b2a1bc906127289086906004016142d8565b606060405180830381865af4158015612745573d6000803e3d6000fd5b505050506040513d601f19601f820116820180604052508101906127699190614592565b60208082015163ffffffff908116600090815260148352604080822085516001600160a01b03168352909352919091205491925016156127eb5760405162461bcd60e51b815260206004820152600e60248201527f616c7265616420657869737465640000000000000000000000000000000000006044820152606401610bfe565b61271061ffff16816040015161ffff16106128485760405162461bcd60e51b815260206004820152600e60248201527f636f6d6d697373696f6e206572720000000000000000000000000000000000006044820152606401610bfe565b600061285584601a613d6b565b9050612864846000601a61370b565b60405160200161287491906146a3565b60408051601f1981840301815291815263ffffffff87166000908152601160205220906128a19082614705565b5060208281015163ffffffff908116600090815260148352604080822086516001600160a01b0316835290935291909120805463ffffffff1916918716919091179055801561291f5760085460065461290d916001600160a01b03610100909204821691163084612fe8565b61291f8583600001518360008061310c565b506001949350505050565b6012818154811061293a57600080fd5b6000918252602090912001546001600160a01b0316905081565b60065460009060ff166129925760405162461bcd60e51b8152600401610bfe906020808252600490820152636c6f636b60e01b604082015260600190565b6006805460ff1916905563ffffffff85166000908152600c602090815260408083206001600160a01b038816845290915281205480612a005760405162461bcd60e51b815260206004820152600a6024820152696e6f20756e7374616b6560b01b6044820152606401610bfe565b83612a0b8683614624565b1015612a595760405162461bcd60e51b815260206004820152601860248201527f6e2065786365656473206e756d206f662070656e64696e6700000000000000006044820152606401610bfe565b6000612a658587614483565b90505b80861015612b5b5763ffffffff88166000908152600c602090815260408083206001600160a01b038b1684529091528120805488908110612aab57612aab614457565b6000918252602090912001805490915064010000000081046001600160801b031690600160a01b900460ff1615612b245760405162461bcd60e51b815260206004820152601260248201527f616c7265616479207769746864726177616c00000000000000000000000000006044820152606401610bfe565b8015612b3757612b348186614483565b94505b50805460ff60a01b1916600160a01b17905585612b53816144ba565b965050612a68565b60008311612bab5760405162461bcd60e51b815260206004820152601760248201527f6e6f2076616c69642072657374616b6520616d6f756e740000000000000000006044820152606401610bfe565b600754604051636a2fb1f560e01b8152600481018590526000916001600160a01b031690636a2fb1f590602401602060405180830381865afa158015612bf5573d6000803e3d6000fd5b505050506040513d601f19601f82011682018060405250810190612c19919061460b565b63ffffffff8a166000908152600b602090815260408083206001600160a01b038d168452909152812080549293509186918391612c57908490614483565b9250508190555081816002016000828254612c729190614483565b909155505063ffffffff8a166000908152600a602052604081208054849290612c9c908490614483565b925050819055508160096000828254612cb59190614483565b909155505063ffffffff8a166000908152600e602090815260408083206001600160a01b038d16845290915281208054879290612cf3908490614624565b909155505063ffffffff8a166000908152600f602052604081208054879290612d1d908490614624565b90915550506001600160a01b03891660009081526010602052604081208054879290612d4a908490614624565b909155505063ffffffff8a166000908152600d602090815260408083206001600160a01b038d16845290915281208054899290612d88908490614483565b90915550506040805163ffffffff8c1681526001600160a01b038b166020820152908101869052606081018390527f34981dc0486069d2abbaddbc42e10b97cb24e4bce60ee4457e1d5062dfc0b4299060800160405180910390a16001955050505050506006805460ff19166001179055949350505050565b610c958133613e2b565b6000828152602081815260408083206001600160a01b038516845290915290205460ff16610c07576000828152602081815260408083206001600160a01b03851684529091529020805460ff19166001179055612e653390565b6001600160a01b0316816001600160a01b0316837f2f8788117e7eff1d82e926ec794901d17c78024a50270940304540a733656f0d60405160405180910390a45050565b6000828152602081815260408083206001600160a01b038516845290915290205460ff1615610c07576000828152602081815260408083206001600160a01b0385168085529252808320805460ff1916905551339285917ff6391f5c32d9c69d2a47ea670b442974b53935d1edc7fd64eb21e047a839171b9190a45050565b600081612f36816004614483565b1015612f845760405162461bcd60e51b815260206004820152601160248201527f746f55696e7433325f6f766572666c6f770000000000000000000000000000006044820152606401610bfe565b612f8f826004614483565b83511015612fdf5760405162461bcd60e51b815260206004820152601460248201527f746f55696e7433325f6f75744f66426f756e64730000000000000000000000006044820152606401610bfe565b50016004015190565b604080516001600160a01b0385811660248301528481166044830152606480830185905283518084039091018152608490920183526020820180516001600160e01b03166323b872dd60e01b179052915160009283929088169161304c91906146a3565b6000604051808303816000865af19150503d8060008114613089576040519150601f19603f3d011682016040523d82523d6000602084013e61308e565b606091505b50915091508180156130b85750805115806130b85750808060200190518101906130b89190614637565b6131045760405162461bcd60e51b815260206004820152601460248201527f5452414e534645525f46524f4d5f4641494c45440000000000000000000000006044820152606401610bfe565b505050505050565b60065460ff166131475760405162461bcd60e51b8152600401610bfe906020808252600490820152636c6f636b60e01b604082015260600190565b6006805460ff191690558260008190036131885760405162461bcd60e51b81526020600482015260026024820152615a3160f01b6044820152606401610bfe565b600754604051636a2fb1f560e01b8152600481018690526000916001600160a01b031690636a2fb1f590602401602060405180830381865afa1580156131d2573d6000803e3d6000fd5b505050506040513d601f19601f820116820180604052508101906131f6919061460b565b63ffffffff88166000908152600a6020526040812080549293508392909190613220908490614483565b9250508190555080600960008282546132399190614483565b909155505063ffffffff87166000908152600b602090815260408083206001600160a01b038a1684529091529020600481015460ff166132db57600481018054600160ff1990911681179091556012805491820181556000527fbb8a6a4669ba250d26cd7a459eca9d215f8307e33aebe50379bc5a3617ec344401805473ffffffffffffffffffffffffffffffffffffffff19166001600160a01b0389161790555b600061ffff8516158015906132f857506001600160a01b03861615155b801561330957506127108561ffff16105b1561344c5761271061331f61ffff8716856147c5565b61332991906147dc565b90506133358184614624565b60075460405163cdf6800960e01b8152600481018390529194506000916001600160a01b039091169063cdf6800990602401602060405180830381865afa158015613384573d6000803e3d6000fd5b505050506040513d601f19601f820116820180604052508101906133a8919061460b565b9050808360000160008282546133be9190614483565b92505081905550838360020160008282546133d99190614483565b909155505063ffffffff8a166000908152600b602090815260408083206001600160a01b038b1684529091529020613411828a614624565b8160000160008282546134249190614483565b925050819055508281600201600082825461343f9190614483565b9091555061348192505050565b868260000160008282546134609190614483565b925050819055508282600201600082825461347b9190614483565b90915550505b6040805163ffffffff8b1681526001600160a01b038a811660208301528183018a9052606082018690528816608082015261ffff871660a082015290517f318dab784577ac2e7d86f88c3f2a80520b447b822b8a756158648e0f917d16a09181900360c00190a150506006805460ff1916600117905550505050505050565b60008161350e816014614483565b101561355c5760405162461bcd60e51b815260206004820152601260248201527f746f416464726573735f6f766572666c6f7700000000000000000000000000006044820152606401610bfe565b613567826014614483565b835110156135b75760405162461bcd60e51b815260206004820152601560248201527f746f416464726573735f6f75744f66426f756e647300000000000000000000006044820152606401610bfe565b50016014015190565b604080516001600160a01b038481166024830152604480830185905283518084039091018152606490920183526020820180516001600160e01b031663a9059cbb60e01b179052915160009283929087169161361c91906146a3565b6000604051808303816000865af19150503d8060008114613659576040519150601f19603f3d011682016040523d82523d6000602084013e61365e565b606091505b50915091508180156136885750805115806136885750808060200190518101906136889190614637565b6136d45760405162461bcd60e51b815260206004820152600f60248201527f5452414e534645525f4641494c454400000000000000000000000000000000006044820152606401610bfe565b5050505050565b6006546136f89061010090046001600160a01b0316333086612fe8565b613705843385858561310c565b50505050565b60608161371981601f614483565b10156137585760405162461bcd60e51b815260206004820152600e60248201526d736c6963655f6f766572666c6f7760901b6044820152606401610bfe565b826137638382614483565b10156137a25760405162461bcd60e51b815260206004820152600e60248201526d736c6963655f6f766572666c6f7760901b6044820152606401610bfe565b6137ac8284614483565b845110156137fc5760405162461bcd60e51b815260206004820152601160248201527f736c6963655f6f75744f66426f756e64730000000000000000000000000000006044820152606401610bfe565b60608215801561381b5760405191506000825260208201604052613865565b6040519150601f8416801560200281840101858101878315602002848b0101015b8183101561385457805183526020928301920161383c565b5050858452601f01601f1916604052505b50949350505050565b60065460ff166138a95760405162461bcd60e51b8152600401610bfe906020808252600490820152636c6f636b60e01b604082015260600190565b6006805460ff191690558160008190036138ea5760405162461bcd60e51b81526020600482015260026024820152615a3160f01b6044820152606401610bfe565b60075460405163cdf6800960e01b81526004810185905233916000916001600160a01b039091169063cdf6800990602401602060405180830381865afa158015613938573d6000803e3d6000fd5b505050506040513d601f19601f8201168201806040525081019061395c919061460b565b63ffffffff87166000908152600b602090815260408083206001600160a01b038716845290915290209091508415613a5d576002810154600754604051636a2fb1f560e01b8152600481018890526001600160a01b0390911690636a2fb1f590602401602060405180830381865afa1580156139dc573d6000803e3d6000fd5b505050506040513d601f19601f82011682018060405250810190613a00919061460b565b613a0a9088614483565b1115613a585760405162461bcd60e51b815260206004820152600d60248201527f756e7374616b655f6572725f31000000000000000000000000000000000000006044820152606401610bfe565b613ab1565b8060020154861115613ab15760405162461bcd60e51b815260206004820152600d60248201527f756e7374616b655f6572725f32000000000000000000000000000000000000006044820152606401610bfe565b85816002016000828254613ac59190614624565b90915550508054821115613adc5760008155613af6565b81816000016000828254613af09190614624565b90915550505b63ffffffff87166000908152600a602052604081208054889290613b1b908490614624565b925050819055508560096000828254613b349190614624565b909155505060085460408051636577b27360e11b815290516000926001600160a01b03169163caef64e69160048083019260209291908290030181865afa158015613b83573d6000803e3d6000fd5b505050506040513d601f19601f82011682018060405250810190613ba7919061460b565b63ffffffff89166000908152600c602090815260408083206001600160a01b03891684529091529081902081516060810190925291925080613be98443614483565b63ffffffff90811682526001600160801b0380881660208085019190915260006040948501819052865460018101885596815281812086519701805487840151978701511515600160a01b0260ff60a01b19989095166401000000000273ffffffffffffffffffffffffffffffffffffffff19909116988616989098179790971795909516919091179094558b168252600e83528082206001600160a01b03881683529092529081208054859290613ca2908490614483565b909155505063ffffffff88166000908152600f602052604081208054859290613ccc908490614483565b90915550506001600160a01b03841660009081526010602052604081208054859290613cf9908490614483565b90915550506040805163ffffffff8a1681526001600160a01b0386166020820152908101849052606081018890527f869a01319d83bb921803a22e3e95d0cb8b08e708d3fb144e2c25a563bf8650d39060800160405180910390a150506006805460ff19166001179055505050505050565b600081613d79816020614483565b1015613dc75760405162461bcd60e51b815260206004820152601260248201527f746f55696e743235365f6f766572666c6f7700000000000000000000000000006044820152606401610bfe565b613dd2826020614483565b83511015613e225760405162461bcd60e51b815260206004820152601560248201527f746f55696e743235365f6f75744f66426f756e647300000000000000000000006044820152606401610bfe565b50016020015190565b6000828152602081815260408083206001600160a01b038516845290915290205460ff16610c0757613e5c81613e9e565b613e67836020613eb0565b604051602001613e789291906147fe565b60408051601f198184030181529082905262461bcd60e51b8252610bfe916004016142d8565b6060610b906001600160a01b03831660145b60606000613ebf8360026147c5565b613eca906002614483565b67ffffffffffffffff811115613ee257613ee2614368565b6040519080825280601f01601f191660200182016040528015613f0c576020820181803683370190505b509050600360fc1b81600081518110613f2757613f27614457565b60200101906001600160f81b031916908160001a905350600f60fb1b81600181518110613f5657613f56614457565b60200101906001600160f81b031916908160001a9053506000613f7a8460026147c5565b613f85906001614483565b90505b600181111561400a577f303132333435363738396162636465660000000000000000000000000000000085600f1660108110613fc657613fc6614457565b1a60f81b828281518110613fdc57613fdc614457565b60200101906001600160f81b031916908160001a90535060049490941c936140038161487f565b9050613f88565b508315611f925760405162461bcd60e51b815260206004820181905260248201527f537472696e67733a20686578206c656e67746820696e73756666696369656e746044820152606401610bfe565b60006020828403121561406b57600080fd5b81356001600160e01b031981168114611f9257600080fd5b63ffffffff81168114610c9557600080fd5b6000602082840312156140a757600080fd5b8135611f9281614083565b6001600160a01b0381168114610c9557600080fd5b6000602082840312156140d957600080fd5b8135611f92816140b2565b600080604083850312156140f757600080fd5b823561410281614083565b91506020830135614112816140b2565b809150509250929050565b60006020828403121561412f57600080fd5b5035919050565b6000806040838503121561414957600080fd5b823591506020830135614112816140b2565b60008060008060006080868803121561417357600080fd5b853561417e816140b2565b9450602086013561418e816140b2565b935060408601359250606086013567ffffffffffffffff808211156141b257600080fd5b818801915088601f8301126141c657600080fd5b8135818111156141d557600080fd5b8960208285010111156141e757600080fd5b9699959850939650602001949392505050565b6020808252825182820181905260009190848201906040850190845b8181101561423b5783516001600160a01b031683529284019291840191600101614216565b50909695505050505050565b60008060006060848603121561425c57600080fd5b833561426781614083565b92506020840135614277816140b2565b929592945050506040919091013590565b60005b838110156142a357818101518382015260200161428b565b50506000910152565b600081518084526142c4816020860160208601614288565b601f01601f19169290920160200192915050565b602081526000611f9260208301846142ac565b600080604083850312156142fe57600080fd5b823561430981614083565b946020939093013593505050565b6000806000806080858703121561432d57600080fd5b843561433881614083565b93506020850135614348816140b2565b92506040850135614358816140b2565b9396929550929360600135925050565b634e487b7160e01b600052604160045260246000fd5b604051601f8201601f1916810167ffffffffffffffff811182821017156143a7576143a7614368565b604052919050565b600080604083850312156143c257600080fd5b82356143cd81614083565b915060208381013567ffffffffffffffff808211156143eb57600080fd5b818601915086601f8301126143ff57600080fd5b81358181111561441157614411614368565b614423601f8201601f1916850161437e565b9150808252878482850101111561443957600080fd5b80848401858401376000848284010152508093505050509250929050565b634e487b7160e01b600052603260045260246000fd5b634e487b7160e01b600052601160045260246000fd5b80820180821115610b9057610b9061446d565b63ffffffff8181168382160190808211156144b3576144b361446d565b5092915050565b6000600182016144cc576144cc61446d565b5060010190565b600181811c908216806144e757607f821691505b60208210810361180957634e487b7160e01b600052602260045260246000fd5b600060208083526000845461451b816144d3565b8084870152604060018084166000811461453c576001811461455657614584565b60ff1985168984015283151560051b890183019550614584565b896000528660002060005b8581101561457c5781548b8201860152908301908801614561565b8a0184019650505b509398975050505050505050565b6000606082840312156145a457600080fd5b6040516060810181811067ffffffffffffffff821117156145c7576145c7614368565b60405282516145d5816140b2565b815260208301516145e581614083565b6020820152604083015161ffff811681146145ff57600080fd5b60408201529392505050565b60006020828403121561461d57600080fd5b5051919050565b81810381811115610b9057610b9061446d565b60006020828403121561464957600080fd5b81518015158114611f9257600080fd5b6000835161466b818460208801614288565b60f09390931b7fffff000000000000000000000000000000000000000000000000000000000000169190920190815260020192915050565b600082516146b5818460208701614288565b9190910192915050565b601f821115610ef957600081815260208120601f850160051c810160208610156146e65750805b601f850160051c820191505b81811015613104578281556001016146f2565b815167ffffffffffffffff81111561471f5761471f614368565b6147338161472d84546144d3565b846146bf565b602080601f83116001811461476857600084156147505750858301515b600019600386901b1c1916600185901b178555613104565b600085815260208120601f198616915b8281101561479757888601518255948401946001909101908401614778565b50858210156147b55787850151600019600388901b60f8161c191681555b5050505050600190811b01905550565b8082028115828204841417610b9057610b9061446d565b6000826147f957634e487b7160e01b600052601260045260246000fd5b500490565b7f416363657373436f6e74726f6c3a206163636f756e7420000000000000000000815260008351614836816017850160208801614288565b7f206973206d697373696e6720726f6c65200000000000000000000000000000006017918401918201528351614873816028840160208801614288565b01602801949350505050565b60008161488e5761488e61446d565b50600019019056fea164736f6c6343000812000a",
  "linkReferences": {
    "contracts/libraries/LibOperator.sol": {
      "LibOperator": [
        {
          "length": 20,
          "start": 4610
        },
        {
          "length": 20,
          "start": 10029
        }
      ]
    }
  },
  "deployedLinkReferences": {
    "contracts/libraries/LibOperator.sol": {
      "LibOperator": [
        {
          "length": 20,
          "start": 4565
        },
        {
          "length": 20,
          "start": 9984
        }
      ]
    }
  }
}