{
  "_format": "hh-sol-artifact-1",
  "contractName": "Candidate",
  "sourceName": "contracts/Candidate.sol",
  "abi": [
    {
      "inputs": [],
      "stateMutability": "nonpayable",
      "type": "constructor"
    },
    {
      "anonymous": false,
      "inputs": [
        {
          "indexed": false,
          "internalType": "uint32",
          "name": "layerIndex",
          "type": "uint32"
        },
        {
          "indexed": false,
          "internalType": "address",
          "name": "from",
          "type": "address"
        },
        {
          "indexed": false,
          "internalType": "address",
          "name": "to",
          "type": "address"
        },
        {
          "indexed": false,
          "internalType": "uint256",
          "name": "amount",
          "type": "uint256"
        }
      ],
      "name": "FastWithdrawalClaim",
      "type": "event"
    },
    {
      "anonymous": false,
      "inputs": [
        {
          "indexed": false,
          "internalType": "uint32",
          "name": "layerIndex",
          "type": "uint32"
        },
        {
          "indexed": false,
          "internalType": "address",
          "name": "staker",
          "type": "address"
        },
        {
          "indexed": false,
          "internalType": "uint256",
          "name": "amount",
          "type": "uint256"
        },
        {
          "indexed": false,
          "internalType": "uint256",
          "name": "lton",
          "type": "uint256"
        }
      ],
      "name": "FastWithdrawalStaked",
      "type": "event"
    },
    {
      "anonymous": false,
      "inputs": [
        {
          "indexed": false,
          "internalType": "uint32",
          "name": "_index",
          "type": "uint32"
        },
        {
          "indexed": false,
          "internalType": "address",
          "name": "sender",
          "type": "address"
        },
        {
          "indexed": false,
          "internalType": "uint256",
          "name": "amount",
          "type": "uint256"
        },
        {
          "indexed": false,
          "internalType": "uint256",
          "name": "lton",
          "type": "uint256"
        }
      ],
      "name": "Restaked",
      "type": "event"
    },
    {
      "anonymous": false,
      "inputs": [
        {
          "indexed": true,
          "internalType": "bytes32",
          "name": "role",
          "type": "bytes32"
        },
        {
          "indexed": true,
          "internalType": "bytes32",
          "name": "previousAdminRole",
          "type": "bytes32"
        },
        {
          "indexed": true,
          "internalType": "bytes32",
          "name": "newAdminRole",
          "type": "bytes32"
        }
      ],
      "name": "RoleAdminChanged",
      "type": "event"
    },
    {
      "anonymous": false,
      "inputs": [
        {
          "indexed": true,
          "internalType": "bytes32",
          "name": "role",
          "type": "bytes32"
        },
        {
          "indexed": true,
          "internalType": "address",
          "name": "account",
          "type": "address"
        },
        {
          "indexed": true,
          "internalType": "address",
          "name": "sender",
          "type": "address"
        }
      ],
      "name": "RoleGranted",
      "type": "event"
    },
    {
      "anonymous": false,
      "inputs": [
        {
          "indexed": true,
          "internalType": "bytes32",
          "name": "role",
          "type": "bytes32"
        },
        {
          "indexed": true,
          "internalType": "address",
          "name": "account",
          "type": "address"
        },
        {
          "indexed": true,
          "internalType": "address",
          "name": "sender",
          "type": "address"
        }
      ],
      "name": "RoleRevoked",
      "type": "event"
    },
    {
      "anonymous": false,
      "inputs": [
        {
          "indexed": false,
          "internalType": "uint32",
          "name": "_index",
          "type": "uint32"
        },
        {
          "indexed": false,
          "internalType": "address",
          "name": "sender",
          "type": "address"
        },
        {
          "indexed": false,
          "internalType": "uint256",
          "name": "amount",
          "type": "uint256"
        },
        {
          "indexed": false,
          "internalType": "uint256",
          "name": "lton",
          "type": "uint256"
        },
        {
          "indexed": false,
          "internalType": "address",
          "name": "commissionTo",
          "type": "address"
        },
        {
          "indexed": false,
          "internalType": "uint16",
          "name": "commission",
          "type": "uint16"
        }
      ],
      "name": "Staked",
      "type": "event"
    },
    {
      "anonymous": false,
      "inputs": [
        {
          "indexed": false,
          "internalType": "uint32",
          "name": "_index",
          "type": "uint32"
        },
        {
          "indexed": false,
          "internalType": "address",
          "name": "sender",
          "type": "address"
        },
        {
          "indexed": false,
          "internalType": "uint256",
          "name": "amount",
          "type": "uint256"
        },
        {
          "indexed": false,
          "internalType": "uint256",
          "name": "lton",
          "type": "uint256"
        }
      ],
      "name": "Unstaked",
      "type": "event"
    },
    {
      "anonymous": false,
      "inputs": [
        {
          "indexed": false,
          "internalType": "uint32",
          "name": "_index",
          "type": "uint32"
        },
        {
          "indexed": false,
          "internalType": "address",
          "name": "sender",
          "type": "address"
        },
        {
          "indexed": false,
          "internalType": "uint256",
          "name": "amount",
          "type": "uint256"
        }
      ],
      "name": "Withdrawal",
      "type": "event"
    },
    {
      "inputs": [],
      "name": "ADMIN_ROLE",
      "outputs": [
        {
          "internalType": "bytes32",
          "name": "",
          "type": "bytes32"
        }
      ],
      "stateMutability": "view",
      "type": "function"
    },
    {
      "inputs": [],
      "name": "DEFAULT_ADMIN_ROLE",
      "outputs": [
        {
          "internalType": "bytes32",
          "name": "",
          "type": "bytes32"
        }
      ],
      "stateMutability": "view",
      "type": "function"
    },
    {
      "inputs": [],
      "name": "POLICY_ROLE",
      "outputs": [
        {
          "internalType": "bytes32",
          "name": "",
          "type": "bytes32"
        }
      ],
      "stateMutability": "view",
      "type": "function"
    },
    {
      "inputs": [
        {
          "internalType": "address",
          "name": "account",
          "type": "address"
        }
      ],
      "name": "addAdmin",
      "outputs": [],
      "stateMutability": "nonpayable",
      "type": "function"
    },
    {
      "inputs": [
        {
          "internalType": "address",
          "name": "",
          "type": "address"
        }
      ],
      "name": "aliveImplementation",
      "outputs": [
        {
          "internalType": "bool",
          "name": "",
          "type": "bool"
        }
      ],
      "stateMutability": "view",
      "type": "function"
    },
    {
      "inputs": [
        {
          "internalType": "uint32",
          "name": "layerIndex",
          "type": "uint32"
        },
        {
          "internalType": "address",
          "name": "account",
          "type": "address"
        }
      ],
      "name": "amountOfPendings",
      "outputs": [
        {
          "internalType": "uint256",
          "name": "amount",
          "type": "uint256"
        },
        {
          "internalType": "uint32",
          "name": "startIndex",
          "type": "uint32"
        },
        {
          "internalType": "uint32",
          "name": "len",
          "type": "uint32"
        },
        {
          "internalType": "uint32",
          "name": "nextWithdrawableBlockNumber",
          "type": "uint32"
        }
      ],
      "stateMutability": "view",
      "type": "function"
    },
    {
      "inputs": [
        {
          "internalType": "uint32",
          "name": "_index",
          "type": "uint32"
        },
        {
          "internalType": "address",
          "name": "account",
          "type": "address"
        }
      ],
      "name": "availableWithdraw",
      "outputs": [
        {
          "internalType": "uint256",
          "name": "amount",
          "type": "uint256"
        },
        {
          "internalType": "uint32",
          "name": "startIndex",
          "type": "uint32"
        },
        {
          "internalType": "uint32",
          "name": "len",
          "type": "uint32"
        }
      ],
      "stateMutability": "view",
      "type": "function"
    },
    {
      "inputs": [
        {
          "internalType": "uint32",
          "name": "_index",
          "type": "uint32"
        },
        {
          "internalType": "address",
          "name": "account",
          "type": "address"
        }
      ],
      "name": "balanceOf",
      "outputs": [
        {
          "internalType": "uint256",
          "name": "amount",
          "type": "uint256"
        }
      ],
      "stateMutability": "view",
      "type": "function"
    },
    {
      "inputs": [
        {
          "internalType": "uint32",
          "name": "_index",
          "type": "uint32"
        },
        {
          "internalType": "address",
          "name": "account",
          "type": "address"
        }
      ],
      "name": "balanceOfLton",
      "outputs": [
        {
          "internalType": "uint256",
          "name": "amount",
          "type": "uint256"
        }
      ],
      "stateMutability": "view",
      "type": "function"
    },
    {
      "inputs": [
        {
          "internalType": "uint32",
          "name": "_index",
          "type": "uint32"
        }
      ],
      "name": "balanceOfLton",
      "outputs": [
        {
          "internalType": "uint256",
          "name": "amount",
          "type": "uint256"
        }
      ],
      "stateMutability": "view",
      "type": "function"
    },
    {
      "inputs": [
        {
          "internalType": "uint32",
          "name": "_candidateIndex",
          "type": "uint32"
        },
        {
          "internalType": "bytes",
          "name": "_info",
          "type": "bytes"
        }
      ],
      "name": "create",
      "outputs": [
        {
          "internalType": "bool",
          "name": "",
          "type": "bool"
        }
      ],
      "stateMutability": "nonpayable",
      "type": "function"
    },
    {
      "inputs": [
        {
          "internalType": "uint32",
          "name": "_index",
          "type": "uint32"
        }
      ],
      "name": "existedIndex",
      "outputs": [
        {
          "internalType": "bool",
          "name": "",
          "type": "bool"
        }
      ],
      "stateMutability": "view",
      "type": "function"
    },
    {
      "inputs": [
        {
          "internalType": "uint32",
          "name": "layerIndex",
          "type": "uint32"
        },
        {
          "internalType": "address",
          "name": "from",
          "type": "address"
        },
        {
          "internalType": "address",
          "name": "to",
          "type": "address"
        },
        {
          "internalType": "uint256",
          "name": "amount",
          "type": "uint256"
        }
      ],
      "name": "fastWithdrawClaim",
      "outputs": [
        {
          "internalType": "bool",
          "name": "",
          "type": "bool"
        }
      ],
      "stateMutability": "nonpayable",
      "type": "function"
    },
    {
      "inputs": [
        {
          "internalType": "uint32",
          "name": "layerIndex",
          "type": "uint32"
        },
        {
          "internalType": "address",
          "name": "staker",
          "type": "address"
        },
        {
          "internalType": "uint256",
          "name": "_amount",
          "type": "uint256"
        }
      ],
      "name": "fastWithdrawStake",
      "outputs": [
        {
          "internalType": "bool",
          "name": "",
          "type": "bool"
        }
      ],
      "stateMutability": "nonpayable",
      "type": "function"
    },
    {
      "inputs": [],
      "name": "fwReceipt",
      "outputs": [
        {
          "internalType": "address",
          "name": "",
          "type": "address"
        }
      ],
      "stateMutability": "view",
      "type": "function"
    },
    {
      "inputs": [
        {
          "internalType": "uint32",
          "name": "_index",
          "type": "uint32"
        }
      ],
      "name": "getCandidateInfo",
      "outputs": [
        {
          "components": [
            {
              "internalType": "address",
              "name": "operator",
              "type": "address"
            },
            {
              "internalType": "uint32",
              "name": "sequencerIndex",
              "type": "uint32"
            },
            {
              "internalType": "uint16",
              "name": "commission",
              "type": "uint16"
            }
          ],
          "internalType": "struct LibOperator.Info",
          "name": "info",
          "type": "tuple"
        }
      ],
      "stateMutability": "view",
      "type": "function"
    },
    {
      "inputs": [
        {
          "internalType": "uint32",
          "name": "_index",
          "type": "uint32"
        }
      ],
      "name": "getCandidateKey",
      "outputs": [
        {
          "internalType": "bytes32",
          "name": "layerKey_",
          "type": "bytes32"
        }
      ],
      "stateMutability": "view",
      "type": "function"
    },
    {
      "inputs": [
        {
          "internalType": "uint32",
          "name": "_index",
          "type": "uint32"
        },
        {
          "internalType": "address",
          "name": "account",
          "type": "address"
        }
      ],
      "name": "getLayerStakes",
      "outputs": [
        {
          "components": [
            {
              "internalType": "uint256",
              "name": "stakePrincipal",
              "type": "uint256"
            },
            {
              "internalType": "uint256",
              "name": "bondPrincipal",
              "type": "uint256"
            },
            {
              "internalType": "uint256",
              "name": "stakelton",
              "type": "uint256"
            },
            {
              "internalType": "bool",
              "name": "stake",
              "type": "bool"
            }
          ],
          "internalType": "struct LibStake.StakeInfo",
          "name": "info",
          "type": "tuple"
        }
      ],
      "stateMutability": "view",
      "type": "function"
    },
    {
      "inputs": [
        {
          "internalType": "uint32",
          "name": "_index",
          "type": "uint32"
        },
        {
          "internalType": "address",
          "name": "account",
          "type": "address"
        }
      ],
      "name": "getPendingUnstakedAmount",
      "outputs": [
        {
          "internalType": "uint256",
          "name": "",
          "type": "uint256"
        }
      ],
      "stateMutability": "view",
      "type": "function"
    },
    {
      "inputs": [
        {
          "internalType": "bytes32",
          "name": "role",
          "type": "bytes32"
        }
      ],
      "name": "getRoleAdmin",
      "outputs": [
        {
          "internalType": "bytes32",
          "name": "",
          "type": "bytes32"
        }
      ],
      "stateMutability": "view",
      "type": "function"
    },
    {
      "inputs": [],
      "name": "getStakeAccountList",
      "outputs": [
        {
          "internalType": "address[]",
          "name": "",
          "type": "address[]"
        }
      ],
      "stateMutability": "view",
      "type": "function"
    },
    {
      "inputs": [],
      "name": "getTotalLton",
      "outputs": [
        {
          "internalType": "uint256",
          "name": "",
          "type": "uint256"
        }
      ],
      "stateMutability": "view",
      "type": "function"
    },
    {
      "inputs": [
        {
          "internalType": "bytes32",
          "name": "role",
          "type": "bytes32"
        },
        {
          "internalType": "address",
          "name": "account",
          "type": "address"
        }
      ],
      "name": "grantRole",
      "outputs": [],
      "stateMutability": "nonpayable",
      "type": "function"
    },
    {
      "inputs": [
        {
          "internalType": "bytes32",
          "name": "role",
          "type": "bytes32"
        },
        {
          "internalType": "address",
          "name": "account",
          "type": "address"
        }
      ],
      "name": "hasRole",
      "outputs": [
        {
          "internalType": "bool",
          "name": "",
          "type": "bool"
        }
      ],
      "stateMutability": "view",
      "type": "function"
    },
    {
      "inputs": [
        {
          "internalType": "address",
          "name": "account",
          "type": "address"
        }
      ],
      "name": "isAdmin",
      "outputs": [
        {
          "internalType": "bool",
          "name": "",
          "type": "bool"
        }
      ],
      "stateMutability": "view",
      "type": "function"
    },
    {
      "inputs": [
        {
          "internalType": "uint32",
          "name": "_index",
          "type": "uint32"
        }
      ],
      "name": "layer2Deposits",
      "outputs": [
        {
          "internalType": "uint256",
          "name": "amount",
          "type": "uint256"
        }
      ],
      "stateMutability": "view",
      "type": "function"
    },
    {
      "inputs": [],
      "name": "layer2Manager",
      "outputs": [
        {
          "internalType": "address",
          "name": "",
          "type": "address"
        }
      ],
      "stateMutability": "view",
      "type": "function"
    },
    {
      "inputs": [
        {
          "internalType": "uint32",
          "name": "",
          "type": "uint32"
        }
      ],
      "name": "layerInfo",
      "outputs": [
        {
          "internalType": "bytes",
          "name": "",
          "type": "bytes"
        }
      ],
      "stateMutability": "view",
      "type": "function"
    },
    {
      "inputs": [
        {
          "internalType": "uint32",
          "name": "",
          "type": "uint32"
        }
      ],
      "name": "layerStakedLton",
      "outputs": [
        {
          "internalType": "uint256",
          "name": "",
          "type": "uint256"
        }
      ],
      "stateMutability": "view",
      "type": "function"
    },
    {
      "inputs": [
        {
          "internalType": "uint32",
          "name": "",
          "type": "uint32"
        },
        {
          "internalType": "address",
          "name": "",
          "type": "address"
        }
      ],
      "name": "layerStakes",
      "outputs": [
        {
          "internalType": "uint256",
          "name": "stakePrincipal",
          "type": "uint256"
        },
        {
          "internalType": "uint256",
          "name": "bondPrincipal",
          "type": "uint256"
        },
        {
          "internalType": "uint256",
          "name": "stakelton",
          "type": "uint256"
        },
        {
          "internalType": "bool",
          "name": "stake",
          "type": "bool"
        }
      ],
      "stateMutability": "view",
      "type": "function"
    },
    {
      "inputs": [
        {
          "internalType": "uint32",
          "name": "layerIndex",
          "type": "uint32"
        },
        {
          "internalType": "address",
          "name": "account",
          "type": "address"
        }
      ],
      "name": "numberOfPendings",
      "outputs": [
        {
          "internalType": "uint256",
          "name": "totalRequests",
          "type": "uint256"
        },
        {
          "internalType": "uint256",
          "name": "withdrawIndex",
          "type": "uint256"
        },
        {
          "internalType": "uint256",
          "name": "pendingLength",
          "type": "uint256"
        }
      ],
      "stateMutability": "view",
      "type": "function"
    },
    {
      "inputs": [
        {
          "internalType": "address",
          "name": "sender",
          "type": "address"
        },
        {
          "internalType": "address",
          "name": "spender",
          "type": "address"
        },
        {
          "internalType": "uint256",
          "name": "amount",
          "type": "uint256"
        },
        {
          "internalType": "bytes",
          "name": "data",
          "type": "bytes"
        }
      ],
      "name": "onApprove",
      "outputs": [
        {
          "internalType": "bool",
          "name": "",
          "type": "bool"
        }
      ],
      "stateMutability": "nonpayable",
      "type": "function"
    },
    {
      "inputs": [
        {
          "internalType": "uint32",
          "name": "_index",
          "type": "uint32"
        }
      ],
      "name": "operator",
      "outputs": [
        {
          "internalType": "address",
          "name": "operator_",
          "type": "address"
        }
      ],
      "stateMutability": "view",
      "type": "function"
    },
    {
      "inputs": [
        {
          "internalType": "uint32",
          "name": "",
          "type": "uint32"
        },
        {
          "internalType": "address",
          "name": "",
          "type": "address"
        }
      ],
      "name": "operators",
      "outputs": [
        {
          "internalType": "uint32",
          "name": "",
          "type": "uint32"
        }
      ],
      "stateMutability": "view",
      "type": "function"
    },
    {
      "inputs": [],
      "name": "pauseProxy",
      "outputs": [
        {
          "internalType": "bool",
          "name": "",
          "type": "bool"
        }
      ],
      "stateMutability": "view",
      "type": "function"
    },
    {
      "inputs": [
        {
          "internalType": "uint32",
          "name": "",
          "type": "uint32"
        },
        {
          "internalType": "address",
          "name": "",
          "type": "address"
        }
      ],
      "name": "pendingUnstaked",
      "outputs": [
        {
          "internalType": "uint256",
          "name": "",
          "type": "uint256"
        }
      ],
      "stateMutability": "view",
      "type": "function"
    },
    {
      "inputs": [
        {
          "internalType": "address",
          "name": "",
          "type": "address"
        }
      ],
      "name": "pendingUnstakedAccount",
      "outputs": [
        {
          "internalType": "uint256",
          "name": "",
          "type": "uint256"
        }
      ],
      "stateMutability": "view",
      "type": "function"
    },
    {
      "inputs": [
        {
          "internalType": "uint32",
          "name": "",
          "type": "uint32"
        }
      ],
      "name": "pendingUnstakedLayer2",
      "outputs": [
        {
          "internalType": "uint256",
          "name": "",
          "type": "uint256"
        }
      ],
      "stateMutability": "view",
      "type": "function"
    },
    {
      "inputs": [
        {
          "internalType": "uint256",
          "name": "",
          "type": "uint256"
        }
      ],
      "name": "proxyImplementation",
      "outputs": [
        {
          "internalType": "address",
          "name": "",
          "type": "address"
        }
      ],
      "stateMutability": "view",
      "type": "function"
    },
    {
      "inputs": [
        {
          "internalType": "address",
          "name": "account",
          "type": "address"
        }
      ],
      "name": "removeAdmin",
      "outputs": [],
      "stateMutability": "nonpayable",
      "type": "function"
    },
    {
      "inputs": [
        {
          "internalType": "bytes32",
          "name": "role",
          "type": "bytes32"
        },
        {
          "internalType": "address",
          "name": "account",
          "type": "address"
        }
      ],
      "name": "renounceRole",
      "outputs": [],
      "stateMutability": "nonpayable",
      "type": "function"
    },
    {
      "inputs": [
        {
          "internalType": "uint32",
          "name": "_index",
          "type": "uint32"
        }
      ],
      "name": "restake",
      "outputs": [],
      "stateMutability": "nonpayable",
      "type": "function"
    },
    {
      "inputs": [
        {
          "internalType": "uint32",
          "name": "_index",
          "type": "uint32"
        },
        {
          "internalType": "uint256",
          "name": "n",
          "type": "uint256"
        }
      ],
      "name": "restakeMulti",
      "outputs": [],
      "stateMutability": "nonpayable",
      "type": "function"
    },
    {
      "inputs": [
        {
          "internalType": "bytes32",
          "name": "role",
          "type": "bytes32"
        },
        {
          "internalType": "address",
          "name": "account",
          "type": "address"
        }
      ],
      "name": "revokeRole",
      "outputs": [],
      "stateMutability": "nonpayable",
      "type": "function"
    },
    {
      "inputs": [],
      "name": "seigManagerV2",
      "outputs": [
        {
          "internalType": "address",
          "name": "",
          "type": "address"
        }
      ],
      "stateMutability": "view",
      "type": "function"
    },
    {
      "inputs": [
        {
          "internalType": "bytes4",
          "name": "",
          "type": "bytes4"
        }
      ],
      "name": "selectorImplementation",
      "outputs": [
        {
          "internalType": "address",
          "name": "",
          "type": "address"
        }
      ],
      "stateMutability": "view",
      "type": "function"
    },
    {
      "inputs": [
        {
          "internalType": "uint32",
          "name": "_index",
          "type": "uint32"
        },
        {
          "internalType": "uint256",
          "name": "amount",
          "type": "uint256"
        }
      ],
      "name": "stake",
      "outputs": [],
      "stateMutability": "nonpayable",
      "type": "function"
    },
    {
      "inputs": [
        {
          "internalType": "uint256",
          "name": "",
          "type": "uint256"
        }
      ],
      "name": "stakeAccountList",
      "outputs": [
        {
          "internalType": "address",
          "name": "",
          "type": "address"
        }
      ],
      "stateMutability": "view",
      "type": "function"
    },
    {
      "inputs": [
        {
          "internalType": "bytes4",
          "name": "interfaceId",
          "type": "bytes4"
        }
      ],
      "name": "supportsInterface",
      "outputs": [
        {
          "internalType": "bool",
          "name": "",
          "type": "bool"
        }
      ],
      "stateMutability": "view",
      "type": "function"
    },
    {
      "inputs": [],
      "name": "ton",
      "outputs": [
        {
          "internalType": "address",
          "name": "",
          "type": "address"
        }
      ],
      "stateMutability": "view",
      "type": "function"
    },
    {
      "inputs": [],
      "name": "totalLayer2Deposits",
      "outputs": [
        {
          "internalType": "uint256",
          "name": "amount",
          "type": "uint256"
        }
      ],
      "stateMutability": "view",
      "type": "function"
    },
    {
      "inputs": [],
      "name": "totalStakeAccountList",
      "outputs": [
        {
          "internalType": "uint256",
          "name": "",
          "type": "uint256"
        }
      ],
      "stateMutability": "view",
      "type": "function"
    },
    {
      "inputs": [],
      "name": "totalStakedLton",
      "outputs": [
        {
          "internalType": "uint256",
          "name": "",
          "type": "uint256"
        }
      ],
      "stateMutability": "view",
      "type": "function"
    },
    {
      "inputs": [
        {
          "internalType": "address",
          "name": "newAdmin",
          "type": "address"
        }
      ],
      "name": "transferAdmin",
      "outputs": [],
      "stateMutability": "nonpayable",
      "type": "function"
    },
    {
      "inputs": [
        {
          "internalType": "uint32",
          "name": "_index",
          "type": "uint32"
        },
        {
          "internalType": "uint256",
          "name": "lton_",
          "type": "uint256"
        }
      ],
      "name": "unstake",
      "outputs": [],
      "stateMutability": "nonpayable",
      "type": "function"
    },
    {
      "inputs": [
        {
          "internalType": "uint32",
          "name": "_index",
          "type": "uint32"
        }
      ],
      "name": "withdraw",
      "outputs": [],
      "stateMutability": "nonpayable",
      "type": "function"
    },
    {
      "inputs": [
        {
          "internalType": "uint32",
          "name": "",
          "type": "uint32"
        },
        {
          "internalType": "address",
          "name": "",
          "type": "address"
        }
      ],
      "name": "withdrawalRequestIndex",
      "outputs": [
        {
          "internalType": "uint256",
          "name": "",
          "type": "uint256"
        }
      ],
      "stateMutability": "view",
      "type": "function"
    },
    {
      "inputs": [
        {
          "internalType": "uint32",
          "name": "",
          "type": "uint32"
        },
        {
          "internalType": "address",
          "name": "",
          "type": "address"
        },
        {
          "internalType": "uint256",
          "name": "",
          "type": "uint256"
        }
      ],
      "name": "withdrawalRequests",
      "outputs": [
        {
          "internalType": "uint32",
          "name": "withdrawableBlockNumber",
          "type": "uint32"
        },
        {
          "internalType": "uint128",
          "name": "amount",
          "type": "uint128"
        },
        {
          "internalType": "bool",
          "name": "processed",
          "type": "bool"
        }
      ],
      "stateMutability": "view",
      "type": "function"
    }
  ],
  "bytecode": "0x60806040526006805460ff1916600117905534801561001d57600080fd5b506148038061002d6000396000f3fe608060405234801561001057600080fd5b506004361061038e5760003560e01c806375b238fc116101de5780639c656e261161010f578063b969fbef116100ad578063d547741f1161007c578063d547741f14610a85578063df2b429014610a98578063ec110d4514610aab578063fde4819714610abe57600080fd5b8063b969fbef14610a32578063b9cab97114610a3a578063cc48b94714610a5a578063d07918f114610a7257600080fd5b8063aa9224cd116100e9578063aa9224cd146109c0578063b413b37a146109d3578063b6a2f99d146109db578063b911135f14610a0957600080fd5b80639c656e2614610933578063a0b2a91314610998578063a217fddf146109b857600080fd5b80638afec9fc1161017c5780638ddd87fe116101565780638ddd87fe1461089857806391d14854146108d657806394c89b2c1461090d5780639c2f614f1461092057600080fd5b80638afec9fc1461082a5780638c71762d146108505780638d99e1ca1461088557600080fd5b80637cf1587c116101b85780637cf1587c146107c65780637d211a1c146107f15780637ec6840f1461080457806387dd8bd01461081757600080fd5b806375b238fc14610779578063763936c7146107a05780637c356816146107b357600080fd5b80634e1a264d116102c357806363a8fd891161026157806370619cf91161023057806370619cf91461072057806373469a7a14610740578063744a35611461075357806375829def1461076657600080fd5b806363a8fd89146106a1578063659ab820146106ae5780636d1ef103146106ce578063704802751461070d57600080fd5b8063550d01a31161029d578063550d01a3146105d05780635e2cfe45146105f35780635f1b989e1461061e57806360254e331461068e57600080fd5b80634e1a264d146105565780634f818d0c1461055f57806350d2a276146105a757600080fd5b8063248a9ca31161033057806336568abe1161030a57806336568abe146105135780634273ca161461052657806346bcdb49146105395780634de131ca1461054157600080fd5b8063248a9ca3146104ca57806324d7806c146104ed5780632f2ff15d1461050057600080fd5b80631785f53c1161036c5780631785f53c146103fb5780631ed944951461040e5780631f760d0114610456578063229852461461049557600080fd5b806301ffc9a714610393578063118e29d1146103bb57806316b5d5bd146103d0575b600080fd5b6103a66103a1366004613fb9565b610b04565b60405190151581526020015b60405180910390f35b6103ce6103c9366004613ff5565b610b3b565b005b6008546103e3906001600160a01b031681565b6040516001600160a01b0390911681526020016103b2565b6103ce610409366004614027565b610bb0565b61042161041c366004614044565b610c3d565b6040516103b2919081518152602080830151908201526040808301519082015260609182015115159181019190915260800190565b610469610464366004614044565b610ccf565b6040805194855263ffffffff9384166020860152918316918401919091521660608201526080016103b2565b6104bc7ffb5864e8ff833c3cb2d2d08505e82ff02a43554c74a35d4f5a64e8526127831181565b6040519081526020016103b2565b6104bc6104d836600461407d565b60009081526020819052604090206001015490565b6103a66104fb366004614027565b610e0d565b6103ce61050e366004614096565b610e4d565b6103ce610521366004614096565b610e77565b6103a66105343660046140bb565b610eff565b6013546104bc565b6105496110af565b6040516103b2919061415a565b6104bc600a5481565b61057261056d366004613ff5565b611111565b6040805182516001600160a01b0316815260208084015163ffffffff16908201529181015161ffff16908201526060016103b2565b6103e36105b5366004613fb9565b6004602052600090815260409020546001600160a01b031681565b6103a66105de366004614027565b60036020526000908152604090205460ff1681565b6104bc610601366004614044565b600f60209081526000928352604080842090915290825290205481565b6104bc61062c366004614044565b63ffffffff9091166000908152600c602090815260408083206001600160a01b0390941683529281529082902082516080810184528154815260018201549281019290925260028101549282018390526003015460ff16151560609091015290565b6103a661069c3660046141a7565b6111b5565b6001546103a69060ff1681565b6106c16106bc366004613ff5565b611377565b6040516103b29190614238565b6106e16106dc3660046141a7565b611411565b6040805163ffffffff90941684526001600160801b0390921660208401521515908201526060016103b2565b6103ce61071b366004614027565b611470565b6104bc61072e366004613ff5565b600b6020526000908152604090205481565b6007546103e3906001600160a01b031681565b6103ce61076136600461424b565b6114fa565b6103ce610774366004614027565b611565565b6104bc7fdf8b4c520ffe197c5343c6f5aec59570151ef9a492f2c624fd45ddde6135ec4281565b6103e36107ae366004613ff5565b6116c7565b6103a66107c1366004614277565b611788565b6104bc6107d4366004614044565b600e60209081526000928352604080842090915290825290205481565b6103a66107ff366004613ff5565b611a1c565b6103ce61081236600461424b565b611ae3565b6104bc610825366004613ff5565b611b8b565b6104bc610838366004613ff5565b63ffffffff166000908152600b602052604090205490565b61086361085e366004614044565b611c76565b6040805193845263ffffffff92831660208501529116908201526060016103b2565b6104bc610893366004613ff5565b611db3565b6104bc6108a6366004614044565b63ffffffff82166000908152600f602090815260408083206001600160a01b038516845290915290205492915050565b6103a66108e4366004614096565b6000918252602082815260408084206001600160a01b0393909316845291905290205460ff1690565b6104bc61091b366004614044565b611e26565b6103ce61092e36600461424b565b611ef9565b610976610941366004614044565b600c60209081526000928352604080842090915290825290208054600182015460028301546003909301549192909160ff1684565b60408051948552602085019390935291830152151560608201526080016103b2565b6104bc6109a6366004614027565b60116020526000908152604090205481565b6104bc600081565b6103ce6109ce366004613ff5565b612029565b600a546104bc565b6109ee6109e9366004614044565b61243e565b604080519384526020840192909252908201526060016103b2565b6103e3610a1736600461407d565b6002602052600090815260409020546001600160a01b031681565b6104bc612499565b6104bc610a48366004613ff5565b60106020526000908152604090205481565b6006546103e39061010090046001600160a01b031681565b6009546103e3906001600160a01b031681565b6103ce610a93366004614096565b61250c565b6103a6610aa636600461430f565b612531565b6103e3610ab936600461407d565b61288a565b610aef610acc366004614044565b601460209081526000928352604080842090915290825290205463ffffffff1681565b60405163ffffffff90911681526020016103b2565b60006001600160e01b03198216637965db0b60e01b1480610b3557506301ffc9a760e01b6001600160e01b03198316145b92915050565b63ffffffff81166000908152600e602090815260408083203380855292529091205490610b6c9083908360016128b4565b610bac5760405162461bcd60e51b815260206004820152600c60248201526b534c5f455f52455354414b4560a01b60448201526064015b60405180910390fd5b5050565b610bb933610e0d565b610c105760405162461bcd60e51b815260206004820152602260248201527f41636365737369626c653a2043616c6c6572206973206e6f7420616e2061646d60448201526134b760f11b6064820152608401610ba3565b610c3a7fdf8b4c520ffe197c5343c6f5aec59570151ef9a492f2c624fd45ddde6135ec4282610e77565b50565b610c6a60405180608001604052806000815260200160008152602001600081526020016000151581525090565b5063ffffffff9091166000908152600c602090815260408083206001600160a01b0390941683529281529082902082516080810184528154815260018201549281019290925260028101549282019290925260039091015460ff161515606082015290565b63ffffffff8083166000818152600d602090815260408083206001600160a01b03871680855290835281842054948452600e835281842090845290915281205490929091839182919084165b81811015610e025763ffffffff88166000908152600d602090815260408083206001600160a01b038b1684529091528120805483908110610d5e57610d5e6143b7565b6000918252602080832060408051606081018252939091015463ffffffff8116845264010000000081046001600160801b031692840192909252600160a01b90910460ff1615159082018190529092509003610def578363ffffffff16600003610dc757805193505b6020810151610ddf906001600160801b0316886143e3565b9650610dec6001866143f6565b94505b5080610dfa8161441a565b915050610d1b565b505092959194509250565b6001600160a01b03811660009081527f5cbfc8ee58ca47855df7bcf648dd304ddb6b932f9b87878bdf6318d7ec7ee5b7602052604081205460ff16610b35565b600082815260208190526040902060010154610e6881612d61565b610e728383612d6b565b505050565b6001600160a01b0381163314610ef55760405162461bcd60e51b815260206004820152602f60248201527f416363657373436f6e74726f6c3a2063616e206f6e6c792072656e6f756e636560448201527f20726f6c657320666f722073656c6600000000000000000000000000000000006064820152608401610ba3565b610bac8282612e09565b60065460009061010090046001600160a01b03163314610f465760405162461bcd60e51b8152602060048201526002602482015261454160f01b6044820152606401610ba3565b610f8d6107ff600085858080601f0160208091040260200160405190810160405280939291908181526020018383808284376000920191909152509293925050612e889050565b610fd95760405162461bcd60e51b815260206004820152601860248201527f6e6f6e2d726567697374657265642063616e64696461746500000000000000006044820152606401610ba3565b600061101f600085858080601f0160208091040260200160405190810160405280939291908181526020018383808284376000920191909152509293925050612e889050565b90508415611044576006546110449061010090046001600160a01b0316883088612f48565b600061104f82611111565b9050806040015161ffff1660001480611074575080516001600160a01b038981169116145b1561108c5761108782898860008061306c565b6110a1565b6110a18289888460000151856040015161306c565b506001979650505050505050565b6060601380548060200260200160405190810160405280929190818152602001828054801561110757602002820191906000526020600020905b81546001600160a01b031681526001909101906020018083116110e9575b5050505050905090565b604080516060810182526000808252602080830182905282840182905263ffffffff8516825260129052829020915163186ca86f60e21b8152909173__$d436d56fec194dfaaabaf06742f0275c03$__916361b2a1bc9161117491600401614467565b606060405180830381865af4158015611191573d6000803e3d6000fd5b505050506040513d601f19601f82011682018060405250810190610b3591906144f2565b6009546000906001600160a01b031633146112025760405162461bcd60e51b815260206004820152600d60248201526c232bafa1a0a62622a92fa2a92960991b6044820152606401610ba3565b600754604051636a2fb1f560e01b8152600481018490526000916001600160a01b031690636a2fb1f590602401602060405180830381865afa15801561124c573d6000803e3d6000fd5b505050506040513d601f19601f82011682018060405250810190611270919061456b565b63ffffffff86166000908152600b602052604081208054929350839290919061129a9084906143e3565b9250508190555080600a60008282546112b391906143e3565b909155505063ffffffff85166000908152600c602090815260408083206001600160a01b038816845290915281208054909185918391906112f59084906143e3565b925050819055508181600201600082825461131091906143e3565b90915550506040805163ffffffff881681526001600160a01b0387166020820152908101859052606081018390527fd5f2b548f2958cb2c0fb52f3e60e93ae5d5bece5191c580d1912068409ab92479060800160405180910390a150600195945050505050565b6012602052600090815260409020805461139090614433565b80601f01602080910402602001604051908101604052809291908181526020018280546113bc90614433565b80156114095780601f106113de57610100808354040283529160200191611409565b820191906000526020600020905b8154815290600101906020018083116113ec57829003601f168201915b505050505081565b600d602052826000526040600020602052816000526040600020818154811061143957600080fd5b60009182526020909120015463ffffffff8116935064010000000081046001600160801b03169250600160a01b900460ff16905083565b61147933610e0d565b6114d05760405162461bcd60e51b815260206004820152602260248201527f41636365737369626c653a2043616c6c6572206973206e6f7420616e2061646d60448201526134b760f11b6064820152608401610ba3565b610c3a7fdf8b4c520ffe197c5343c6f5aec59570151ef9a492f2c624fd45ddde6135ec4282610e4d565b63ffffffff82166000908152600e60209081526040808320338085529252909120549061152a90849083856128b4565b610e725760405162461bcd60e51b815260206004820152600c60248201526b534c5f455f52455354414b4560a01b6044820152606401610ba3565b61156e33610e0d565b6115c55760405162461bcd60e51b815260206004820152602260248201527f41636365737369626c653a2043616c6c6572206973206e6f7420616e2061646d60448201526134b760f11b6064820152608401610ba3565b6001600160a01b03811661161b5760405162461bcd60e51b815260206004820152601860248201527f41636365737369626c653a207a65726f206164647265737300000000000000006044820152606401610ba3565b6001600160a01b03811633036116735760405162461bcd60e51b815260206004820152601660248201527f41636365737369626c653a2073616d652061646d696e000000000000000000006044820152606401610ba3565b61169d7fdf8b4c520ffe197c5343c6f5aec59570151ef9a492f2c624fd45ddde6135ec4282610e4d565b610c3a7fdf8b4c520ffe197c5343c6f5aec59570151ef9a492f2c624fd45ddde6135ec4233610e77565b63ffffffff8116600090815260126020526040812080548291906116ea90614433565b80601f016020809104026020016040519081016040528092919081815260200182805461171690614433565b80156117635780601f1061173857610100808354040283529160200191611763565b820191906000526020600020905b81548152906001019060200180831161174657829003601f168201915b505050505090506017815111156117825761177f816000613460565b91505b50919050565b60065460009060ff166117c65760405162461bcd60e51b8152600401610ba3906020808252600490820152636c6f636b60e01b604082015260600190565b6006805460ff191690556009546001600160a01b0316331461181a5760405162461bcd60e51b815260206004820152600d60248201526c232bafa1a0a62622a92fa2a92960991b6044820152606401610ba3565b816118258686611e26565b10156118735760405162461bcd60e51b815260206004820152601960248201527f6c697175696469747920697320696e73756666696369656e74000000000000006044820152606401610ba3565b6006546040516370a0823160e01b815230600482015260009161010090046001600160a01b0316906370a0823190602401602060405180830381865afa1580156118c1573d6000803e3d6000fd5b505050506040513d601f19601f820116820180604052508101906118e5919061456b565b905082811015611990578015611911576006546119119061010090046001600160a01b03168583613520565b6007546001600160a01b031663aad3ec968561192d8487614584565b6040516001600160e01b031960e085901b1681526001600160a01b0390921660048301526024820152604401600060405180830381600087803b15801561197357600080fd5b505af1158015611987573d6000803e3d6000fd5b505050506119ac565b6006546119ac9061010090046001600160a01b03168585613520565b6040805163ffffffff881681526001600160a01b0387811660208301528616818301526060810185905290517f1300548f98fb4f42be29e3431413715ef6ef84ba22e8eb7717bfb05164cfdd9f9181900360800190a160019150506006805460ff19166001179055949350505050565b600854604051635d170f8f60e01b815263ffffffff831660048201526000916001600160a01b031690635d170f8f90602401602060405180830381865afa158015611a6b573d6000803e3d6000fd5b505050506040513d601f19601f82011682018060405250810190611a8f9190614597565b611adb5760405162461bcd60e51b815260206004820152601460248201527f6e6f6e2d72656769737465726564206c617965720000000000000000000000006044820152606401610ba3565b506001919050565b611aec82611a1c565b611b385760405162461bcd60e51b815260206004820152601860248201527f6e6f6e2d726567697374657265642063616e64696461746500000000000000006044820152606401610ba3565b6000611b4383611111565b9050806040015161ffff1660001480611b65575080516001600160a01b031633145b15611b7757610e72838360008061363b565b610e7283838360000151846040015161363b565b63ffffffff811660009081526012602052604081208054829190611bae90614433565b80601f0160208091040260200160405190810160405280929190818152602001828054611bda90614433565b8015611c275780601f10611bfc57610100808354040283529160200191611c27565b820191906000526020600020905b815481529060010190602001808311611c0a57829003601f168201915b50505050509050611c45600060188361366b9092919063ffffffff16565b6000604051602001611c589291906145b9565b60405160208183030381529060405280519060200120915050919050565b63ffffffff8083166000818152600d602090815260408083206001600160a01b03871680855290835281842054948452600e835281842090845290915281205490929091839183165b81811015611daa5763ffffffff87166000908152600d602090815260408083206001600160a01b038a1684529091528120805483908110611d0257611d026143b7565b600091825260209182902060408051606081018252929091015463ffffffff811680845264010000000082046001600160801b031694840194909452600160a01b900460ff16151590820152915043118015611d6057506040810151155b15611d91576020810151611d7d906001600160801b0316876143e3565b9550611d8a6001856143f6565b9350611d97565b50611daa565b5080611da28161441a565b915050611cbf565b50509250925092565b6008546040516346ccf0e560e11b815263ffffffff831660048201526000916001600160a01b031690638d99e1ca90602401602060405180830381865afa158015611e02573d6000803e3d6000fd5b505050506040513d601f19601f82011682018060405250810190610b35919061456b565b60075463ffffffff83166000908152600c602090815260408083206001600160a01b03868116855290835281842082516080810184528154815260018201549481019490945260028101549284018390526003015460ff1615156060909301929092529192169063cdf68009906040518263ffffffff1660e01b8152600401611eb191815260200190565b602060405180830381865afa158015611ece573d6000803e3d6000fd5b505050506040513d601f19601f82011682018060405250810190611ef2919061456b565b9392505050565b600954604051630265991f60e61b81526001600482015263ffffffff841660248201523360448201526000916001600160a01b03169063996647c090606401602060405180830381865afa158015611f55573d6000803e3d6000fd5b505050506040513d601f19601f82011682018060405250810190611f79919061456b565b9050611f84836116c7565b6001600160a01b0316330361201e57610e728383600860009054906101000a90046001600160a01b03166001600160a01b031663a4dd8b7d6040518163ffffffff1660e01b8152600401602060405180830381865afa158015611feb573d6000803e3d6000fd5b505050506040513d601f19601f8201168201806040525081019061200f919061456b565b61201990856143e3565b6137ce565b610e728383836137ce565b60065460ff166120645760405162461bcd60e51b8152600401610ba3906020808252600490820152636c6f636b60e01b604082015260600190565b6006805460ff1916905563ffffffff81166000818152600d602090815260408083203380855290835281842054948452600e83528184208185529092528220549092919081905b8381101561217d5763ffffffff86166000908152600d602090815260408083206001600160a01b038916845290915281208054839081106120ee576120ee6143b7565b600091825260209091200180549091504363ffffffff90911610801561211d57508054600160a01b900460ff16155b1561216457805460ff60a01b1916600160a01b17808255612150906001600160801b0364010000000090910416846143e3565b92508361215c8161441a565b94505061216a565b5061217d565b50806121758161441a565b9150506120ab565b50600081116121ce5760405162461bcd60e51b815260206004820181905260248201527f7a65726f20617661696c61626c65207769746864726177616c20616d6f756e746044820152606401610ba3565b63ffffffff85166000908152600e602090815260408083206001600160a01b0388168452909152812080548492906122079084906143e3565b909155505063ffffffff85166000908152600f602090815260408083206001600160a01b038816845290915281208054839290612245908490614584565b909155505063ffffffff85166000908152601060205260408120805483929061226f908490614584565b90915550506001600160a01b0384166000908152601160205260408120805483929061229c908490614584565b90915550506006546040516370a0823160e01b815230600482015260009161010090046001600160a01b0316906370a0823190602401602060405180830381865afa1580156122ef573d6000803e3d6000fd5b505050506040513d601f19601f82011682018060405250810190612313919061456b565b9050818110156123be57801561233f5760065461233f9061010090046001600160a01b03168683613520565b6007546001600160a01b031663aad3ec968661235b8486614584565b6040516001600160e01b031960e085901b1681526001600160a01b0390921660048301526024820152604401600060405180830381600087803b1580156123a157600080fd5b505af11580156123b5573d6000803e3d6000fd5b505050506123da565b6006546123da9061010090046001600160a01b03168684613520565b6040805163ffffffff881681526001600160a01b03871660208201529081018390527f2d6eb139d2002caa088da5527d9d62f2f23bdf4504f5559a112535c436c6ee599060600160405180910390a150506006805460ff1916600117905550505050565b63ffffffff82166000818152600d602090815260408083206001600160a01b03861680855290835281842054948452600e8352818420908452909152812054908183106124925761248f8284614584565b90505b9250925092565b6008546040805163b969fbef60e01b815290516000926001600160a01b03169163b969fbef9160048083019260209291908290030181865afa1580156124e3573d6000803e3d6000fd5b505050506040513d601f19601f82011682018060405250810190612507919061456b565b905090565b60008281526020819052604090206001015461252781612d61565b610e728383612e09565b6008546000906001600160a01b0316331461258e5760405162461bcd60e51b815260206004820152601160248201527f6e6f74204c61796572324d616e616765720000000000000000000000000000006044820152606401610ba3565b63ffffffff8316600090815260126020526040902080546125ae90614433565b1590506125fd5760405162461bcd60e51b815260206004820152600f60248201527f616c7265616479206372656174656400000000000000000000000000000000006044820152606401610ba3565b603982511161264e5760405162461bcd60e51b815260206004820152600b60248201527f77726f6e67205f696e666f0000000000000000000000000000000000000000006044820152606401610ba3565b60405163186ca86f60e21b815260009073__$d436d56fec194dfaaabaf06742f0275c03$__906361b2a1bc90612688908690600401614238565b606060405180830381865af41580156126a5573d6000803e3d6000fd5b505050506040513d601f19601f820116820180604052508101906126c991906144f2565b60208082015163ffffffff908116600090815260148352604080822085516001600160a01b031683529093529190912054919250161561274b5760405162461bcd60e51b815260206004820152600e60248201527f616c7265616420657869737465640000000000000000000000000000000000006044820152606401610ba3565b61271061ffff16816040015161ffff16106127a85760405162461bcd60e51b815260206004820152600e60248201527f636f6d6d697373696f6e206572720000000000000000000000000000000000006044820152606401610ba3565b60006127b584601a613ccb565b90506127c4846000601a61366b565b6040516020016127d49190614603565b60408051601f1981840301815291815263ffffffff87166000908152601260205220906128019082614665565b5060208281015163ffffffff908116600090815260148352604080822086516001600160a01b0316835290935291909120805463ffffffff1916918716919091179055801561287f5760085460065461286d916001600160a01b03610100909204821691163084612f48565b61287f8583600001518360008061306c565b506001949350505050565b6013818154811061289a57600080fd5b6000918252602090912001546001600160a01b0316905081565b60065460009060ff166128f25760405162461bcd60e51b8152600401610ba3906020808252600490820152636c6f636b60e01b604082015260600190565b6006805460ff1916905563ffffffff85166000908152600d602090815260408083206001600160a01b0388168452909152812054806129605760405162461bcd60e51b815260206004820152600a6024820152696e6f20756e7374616b6560b01b6044820152606401610ba3565b8361296b8683614584565b10156129b95760405162461bcd60e51b815260206004820152601860248201527f6e2065786365656473206e756d206f662070656e64696e6700000000000000006044820152606401610ba3565b60006129c585876143e3565b90505b80861015612abb5763ffffffff88166000908152600d602090815260408083206001600160a01b038b1684529091528120805488908110612a0b57612a0b6143b7565b6000918252602090912001805490915064010000000081046001600160801b031690600160a01b900460ff1615612a845760405162461bcd60e51b815260206004820152601260248201527f616c7265616479207769746864726177616c00000000000000000000000000006044820152606401610ba3565b8015612a9757612a9481866143e3565b94505b50805460ff60a01b1916600160a01b17905585612ab38161441a565b9650506129c8565b60008311612b0b5760405162461bcd60e51b815260206004820152601760248201527f6e6f2076616c69642072657374616b6520616d6f756e740000000000000000006044820152606401610ba3565b600754604051636a2fb1f560e01b8152600481018590526000916001600160a01b031690636a2fb1f590602401602060405180830381865afa158015612b55573d6000803e3d6000fd5b505050506040513d601f19601f82011682018060405250810190612b79919061456b565b63ffffffff8a166000908152600c602090815260408083206001600160a01b038d168452909152812080549293509186918391612bb79084906143e3565b9250508190555081816002016000828254612bd291906143e3565b909155505063ffffffff8a166000908152600b602052604081208054849290612bfc9084906143e3565b9250508190555081600a6000828254612c1591906143e3565b909155505063ffffffff8a166000908152600f602090815260408083206001600160a01b038d16845290915281208054879290612c53908490614584565b909155505063ffffffff8a1660009081526010602052604081208054879290612c7d908490614584565b90915550506001600160a01b03891660009081526011602052604081208054879290612caa908490614584565b909155505063ffffffff8a166000908152600e602090815260408083206001600160a01b038d16845290915281208054899290612ce89084906143e3565b90915550506040805163ffffffff8c1681526001600160a01b038b166020820152908101869052606081018390527f34981dc0486069d2abbaddbc42e10b97cb24e4bce60ee4457e1d5062dfc0b4299060800160405180910390a16001955050505050506006805460ff19166001179055949350505050565b610c3a8133613d8b565b6000828152602081815260408083206001600160a01b038516845290915290205460ff16610bac576000828152602081815260408083206001600160a01b03851684529091529020805460ff19166001179055612dc53390565b6001600160a01b0316816001600160a01b0316837f2f8788117e7eff1d82e926ec794901d17c78024a50270940304540a733656f0d60405160405180910390a45050565b6000828152602081815260408083206001600160a01b038516845290915290205460ff1615610bac576000828152602081815260408083206001600160a01b0385168085529252808320805460ff1916905551339285917ff6391f5c32d9c69d2a47ea670b442974b53935d1edc7fd64eb21e047a839171b9190a45050565b600081612e968160046143e3565b1015612ee45760405162461bcd60e51b815260206004820152601160248201527f746f55696e7433325f6f766572666c6f770000000000000000000000000000006044820152606401610ba3565b612eef8260046143e3565b83511015612f3f5760405162461bcd60e51b815260206004820152601460248201527f746f55696e7433325f6f75744f66426f756e64730000000000000000000000006044820152606401610ba3565b50016004015190565b604080516001600160a01b0385811660248301528481166044830152606480830185905283518084039091018152608490920183526020820180516001600160e01b03166323b872dd60e01b1790529151600092839290881691612fac9190614603565b6000604051808303816000865af19150503d8060008114612fe9576040519150601f19603f3d011682016040523d82523d6000602084013e612fee565b606091505b50915091508180156130185750805115806130185750808060200190518101906130189190614597565b6130645760405162461bcd60e51b815260206004820152601460248201527f5452414e534645525f46524f4d5f4641494c45440000000000000000000000006044820152606401610ba3565b505050505050565b60065460ff166130a75760405162461bcd60e51b8152600401610ba3906020808252600490820152636c6f636b60e01b604082015260600190565b6006805460ff191690558260008190036130e85760405162461bcd60e51b81526020600482015260026024820152615a3160f01b6044820152606401610ba3565b600754604051636a2fb1f560e01b8152600481018690526000916001600160a01b031690636a2fb1f590602401602060405180830381865afa158015613132573d6000803e3d6000fd5b505050506040513d601f19601f82011682018060405250810190613156919061456b565b63ffffffff88166000908152600b60205260408120805492935083929091906131809084906143e3565b9250508190555080600a600082825461319991906143e3565b909155505063ffffffff87166000908152600c602090815260408083206001600160a01b038a1684529091529020600381015460ff1661323b57600381018054600160ff1990911681179091556013805491820181556000527f66de8ffda797e3de9c05e8fc57b3bf0ec28a930d40b0d285d93c06501cf6a09001805473ffffffffffffffffffffffffffffffffffffffff19166001600160a01b0389161790555b600061ffff85161580159061325857506001600160a01b03861615155b801561326957506127108561ffff16105b156133ac5761271061327f61ffff871685614725565b613289919061473c565b90506132958184614584565b60075460405163cdf6800960e01b8152600481018390529194506000916001600160a01b039091169063cdf6800990602401602060405180830381865afa1580156132e4573d6000803e3d6000fd5b505050506040513d601f19601f82011682018060405250810190613308919061456b565b90508083600001600082825461331e91906143e3565b925050819055508383600201600082825461333991906143e3565b909155505063ffffffff8a166000908152600c602090815260408083206001600160a01b038b1684529091529020613371828a614584565b81600001600082825461338491906143e3565b925050819055508281600201600082825461339f91906143e3565b909155506133e192505050565b868260000160008282546133c091906143e3565b92505081905550828260020160008282546133db91906143e3565b90915550505b6040805163ffffffff8b1681526001600160a01b038a811660208301528183018a9052606082018690528816608082015261ffff871660a082015290517f318dab784577ac2e7d86f88c3f2a80520b447b822b8a756158648e0f917d16a09181900360c00190a150506006805460ff1916600117905550505050505050565b60008161346e8160146143e3565b10156134bc5760405162461bcd60e51b815260206004820152601260248201527f746f416464726573735f6f766572666c6f7700000000000000000000000000006044820152606401610ba3565b6134c78260146143e3565b835110156135175760405162461bcd60e51b815260206004820152601560248201527f746f416464726573735f6f75744f66426f756e647300000000000000000000006044820152606401610ba3565b50016014015190565b604080516001600160a01b038481166024830152604480830185905283518084039091018152606490920183526020820180516001600160e01b031663a9059cbb60e01b179052915160009283929087169161357c9190614603565b6000604051808303816000865af19150503d80600081146135b9576040519150601f19603f3d011682016040523d82523d6000602084013e6135be565b606091505b50915091508180156135e85750805115806135e85750808060200190518101906135e89190614597565b6136345760405162461bcd60e51b815260206004820152600f60248201527f5452414e534645525f4641494c454400000000000000000000000000000000006044820152606401610ba3565b5050505050565b6006546136589061010090046001600160a01b0316333086612f48565b613665843385858561306c565b50505050565b60608161367981601f6143e3565b10156136b85760405162461bcd60e51b815260206004820152600e60248201526d736c6963655f6f766572666c6f7760901b6044820152606401610ba3565b826136c383826143e3565b10156137025760405162461bcd60e51b815260206004820152600e60248201526d736c6963655f6f766572666c6f7760901b6044820152606401610ba3565b61370c82846143e3565b8451101561375c5760405162461bcd60e51b815260206004820152601160248201527f736c6963655f6f75744f66426f756e64730000000000000000000000000000006044820152606401610ba3565b60608215801561377b57604051915060008252602082016040526137c5565b6040519150601f8416801560200281840101858101878315602002848b0101015b818310156137b457805183526020928301920161379c565b5050858452601f01601f1916604052505b50949350505050565b60065460ff166138095760405162461bcd60e51b8152600401610ba3906020808252600490820152636c6f636b60e01b604082015260600190565b6006805460ff1916905581600081900361384a5760405162461bcd60e51b81526020600482015260026024820152615a3160f01b6044820152606401610ba3565b60075460405163cdf6800960e01b81526004810185905233916000916001600160a01b039091169063cdf6800990602401602060405180830381865afa158015613898573d6000803e3d6000fd5b505050506040513d601f19601f820116820180604052508101906138bc919061456b565b63ffffffff87166000908152600c602090815260408083206001600160a01b0387168452909152902090915084156139bd576002810154600754604051636a2fb1f560e01b8152600481018890526001600160a01b0390911690636a2fb1f590602401602060405180830381865afa15801561393c573d6000803e3d6000fd5b505050506040513d601f19601f82011682018060405250810190613960919061456b565b61396a90886143e3565b11156139b85760405162461bcd60e51b815260206004820152600d60248201527f756e7374616b655f6572725f31000000000000000000000000000000000000006044820152606401610ba3565b613a11565b8060020154861115613a115760405162461bcd60e51b815260206004820152600d60248201527f756e7374616b655f6572725f32000000000000000000000000000000000000006044820152606401610ba3565b85816002016000828254613a259190614584565b90915550508054821115613a3c5760008155613a56565b81816000016000828254613a509190614584565b90915550505b63ffffffff87166000908152600b602052604081208054889290613a7b908490614584565b9250508190555085600a6000828254613a949190614584565b909155505060085460408051636577b27360e11b815290516000926001600160a01b03169163caef64e69160048083019260209291908290030181865afa158015613ae3573d6000803e3d6000fd5b505050506040513d601f19601f82011682018060405250810190613b07919061456b565b63ffffffff89166000908152600d602090815260408083206001600160a01b03891684529091529081902081516060810190925291925080613b4984436143e3565b63ffffffff90811682526001600160801b0380881660208085019190915260006040948501819052865460018101885596815281812086519701805487840151978701511515600160a01b0260ff60a01b19989095166401000000000273ffffffffffffffffffffffffffffffffffffffff19909116988616989098179790971795909516919091179094558b168252600f83528082206001600160a01b03881683529092529081208054859290613c029084906143e3565b909155505063ffffffff881660009081526010602052604081208054859290613c2c9084906143e3565b90915550506001600160a01b03841660009081526011602052604081208054859290613c599084906143e3565b90915550506040805163ffffffff8a1681526001600160a01b0386166020820152908101849052606081018890527f869a01319d83bb921803a22e3e95d0cb8b08e708d3fb144e2c25a563bf8650d39060800160405180910390a150506006805460ff19166001179055505050505050565b600081613cd98160206143e3565b1015613d275760405162461bcd60e51b815260206004820152601260248201527f746f55696e743235365f6f766572666c6f7700000000000000000000000000006044820152606401610ba3565b613d328260206143e3565b83511015613d825760405162461bcd60e51b815260206004820152601560248201527f746f55696e743235365f6f75744f66426f756e647300000000000000000000006044820152606401610ba3565b50016020015190565b6000828152602081815260408083206001600160a01b038516845290915290205460ff16610bac57613dbc81613dfe565b613dc7836020613e10565b604051602001613dd892919061475e565b60408051601f198184030181529082905262461bcd60e51b8252610ba391600401614238565b6060610b356001600160a01b03831660145b60606000613e1f836002614725565b613e2a9060026143e3565b67ffffffffffffffff811115613e4257613e426142c8565b6040519080825280601f01601f191660200182016040528015613e6c576020820181803683370190505b509050600360fc1b81600081518110613e8757613e876143b7565b60200101906001600160f81b031916908160001a905350600f60fb1b81600181518110613eb657613eb66143b7565b60200101906001600160f81b031916908160001a9053506000613eda846002614725565b613ee59060016143e3565b90505b6001811115613f6a577f303132333435363738396162636465660000000000000000000000000000000085600f1660108110613f2657613f266143b7565b1a60f81b828281518110613f3c57613f3c6143b7565b60200101906001600160f81b031916908160001a90535060049490941c93613f63816147df565b9050613ee8565b508315611ef25760405162461bcd60e51b815260206004820181905260248201527f537472696e67733a20686578206c656e67746820696e73756666696369656e746044820152606401610ba3565b600060208284031215613fcb57600080fd5b81356001600160e01b031981168114611ef257600080fd5b63ffffffff81168114610c3a57600080fd5b60006020828403121561400757600080fd5b8135611ef281613fe3565b6001600160a01b0381168114610c3a57600080fd5b60006020828403121561403957600080fd5b8135611ef281614012565b6000806040838503121561405757600080fd5b823561406281613fe3565b9150602083013561407281614012565b809150509250929050565b60006020828403121561408f57600080fd5b5035919050565b600080604083850312156140a957600080fd5b82359150602083013561407281614012565b6000806000806000608086880312156140d357600080fd5b85356140de81614012565b945060208601356140ee81614012565b935060408601359250606086013567ffffffffffffffff8082111561411257600080fd5b818801915088601f83011261412657600080fd5b81358181111561413557600080fd5b89602082850101111561414757600080fd5b9699959850939650602001949392505050565b6020808252825182820181905260009190848201906040850190845b8181101561419b5783516001600160a01b031683529284019291840191600101614176565b50909695505050505050565b6000806000606084860312156141bc57600080fd5b83356141c781613fe3565b925060208401356141d781614012565b929592945050506040919091013590565b60005b838110156142035781810151838201526020016141eb565b50506000910152565b600081518084526142248160208601602086016141e8565b601f01601f19169290920160200192915050565b602081526000611ef2602083018461420c565b6000806040838503121561425e57600080fd5b823561426981613fe3565b946020939093013593505050565b6000806000806080858703121561428d57600080fd5b843561429881613fe3565b935060208501356142a881614012565b925060408501356142b881614012565b9396929550929360600135925050565b634e487b7160e01b600052604160045260246000fd5b604051601f8201601f1916810167ffffffffffffffff81118282101715614307576143076142c8565b604052919050565b6000806040838503121561432257600080fd5b823561432d81613fe3565b915060208381013567ffffffffffffffff8082111561434b57600080fd5b818601915086601f83011261435f57600080fd5b813581811115614371576143716142c8565b614383601f8201601f191685016142de565b9150808252878482850101111561439957600080fd5b80848401858401376000848284010152508093505050509250929050565b634e487b7160e01b600052603260045260246000fd5b634e487b7160e01b600052601160045260246000fd5b80820180821115610b3557610b356143cd565b63ffffffff818116838216019080821115614413576144136143cd565b5092915050565b60006001820161442c5761442c6143cd565b5060010190565b600181811c9082168061444757607f821691505b60208210810361178257634e487b7160e01b600052602260045260246000fd5b600060208083526000845461447b81614433565b8084870152604060018084166000811461449c57600181146144b6576144e4565b60ff1985168984015283151560051b8901830195506144e4565b896000528660002060005b858110156144dc5781548b82018601529083019088016144c1565b8a0184019650505b509398975050505050505050565b60006060828403121561450457600080fd5b6040516060810181811067ffffffffffffffff82111715614527576145276142c8565b604052825161453581614012565b8152602083015161454581613fe3565b6020820152604083015161ffff8116811461455f57600080fd5b60408201529392505050565b60006020828403121561457d57600080fd5b5051919050565b81810381811115610b3557610b356143cd565b6000602082840312156145a957600080fd5b81518015158114611ef257600080fd5b600083516145cb8184602088016141e8565b60f09390931b7fffff000000000000000000000000000000000000000000000000000000000000169190920190815260020192915050565b600082516146158184602087016141e8565b9190910192915050565b601f821115610e7257600081815260208120601f850160051c810160208610156146465750805b601f850160051c820191505b8181101561306457828155600101614652565b815167ffffffffffffffff81111561467f5761467f6142c8565b6146938161468d8454614433565b8461461f565b602080601f8311600181146146c857600084156146b05750858301515b600019600386901b1c1916600185901b178555613064565b600085815260208120601f198616915b828110156146f7578886015182559484019460019091019084016146d8565b50858210156147155787850151600019600388901b60f8161c191681555b5050505050600190811b01905550565b8082028115828204841417610b3557610b356143cd565b60008261475957634e487b7160e01b600052601260045260246000fd5b500490565b7f416363657373436f6e74726f6c3a206163636f756e74200000000000000000008152600083516147968160178501602088016141e8565b7f206973206d697373696e6720726f6c652000000000000000000000000000000060179184019182015283516147d38160288401602088016141e8565b01602801949350505050565b6000816147ee576147ee6143cd565b50600019019056fea164736f6c6343000812000a",
  "linkReferences": {
    "contracts/libraries/LibOperator.sol": {
      "LibOperator": [
        {
          "length": 20,
          "start": 4475
        },
        {
          "length": 20,
          "start": 9869
        }
      ]
    }
  },
  "deployedLinkReferences": {
    "contracts/libraries/LibOperator.sol": {
      "LibOperator": [
        {
          "length": 20,
          "start": 4430
        },
        {
          "length": 20,
          "start": 9824
        }
      ]
    }
  }
}