{
  "_format": "hh-sol-artifact-1",
  "contractName": "Candidate",
  "sourceName": "contracts/Candidate.sol",
  "abi": [
    {
      "inputs": [],
      "stateMutability": "nonpayable",
      "type": "constructor"
    },
    {
      "anonymous": false,
      "inputs": [
        {
          "indexed": false,
          "internalType": "bytes32",
          "name": "hashMessage",
          "type": "bytes32"
        },
        {
          "indexed": false,
          "internalType": "uint32",
          "name": "layerIndex",
          "type": "uint32"
        },
        {
          "indexed": false,
          "internalType": "address",
          "name": "from",
          "type": "address"
        },
        {
          "indexed": false,
          "internalType": "address",
          "name": "to",
          "type": "address"
        },
        {
          "indexed": false,
          "internalType": "uint256",
          "name": "amount",
          "type": "uint256"
        }
      ],
      "name": "FastWithdrawalClaim",
      "type": "event"
    },
    {
      "anonymous": false,
      "inputs": [
        {
          "indexed": false,
          "internalType": "bytes32",
          "name": "hashMessage",
          "type": "bytes32"
        },
        {
          "indexed": false,
          "internalType": "uint32",
          "name": "layerIndex",
          "type": "uint32"
        },
        {
          "indexed": false,
          "internalType": "address",
          "name": "staker",
          "type": "address"
        },
        {
          "indexed": false,
          "internalType": "uint256",
          "name": "amount",
          "type": "uint256"
        },
        {
          "indexed": false,
          "internalType": "uint256",
          "name": "lton",
          "type": "uint256"
        }
      ],
      "name": "FastWithdrawalStaked",
      "type": "event"
    },
    {
      "anonymous": false,
      "inputs": [
        {
          "indexed": false,
          "internalType": "uint32",
          "name": "operatorIndex",
          "type": "uint32"
        },
        {
          "indexed": false,
          "internalType": "uint32",
          "name": "candidateIndex",
          "type": "uint32"
        },
        {
          "indexed": false,
          "internalType": "address",
          "name": "sender",
          "type": "address"
        },
        {
          "indexed": false,
          "internalType": "uint256",
          "name": "amount",
          "type": "uint256"
        },
        {
          "indexed": false,
          "internalType": "uint256",
          "name": "lton",
          "type": "uint256"
        }
      ],
      "name": "Restaked",
      "type": "event"
    },
    {
      "anonymous": false,
      "inputs": [
        {
          "indexed": true,
          "internalType": "bytes32",
          "name": "role",
          "type": "bytes32"
        },
        {
          "indexed": true,
          "internalType": "bytes32",
          "name": "previousAdminRole",
          "type": "bytes32"
        },
        {
          "indexed": true,
          "internalType": "bytes32",
          "name": "newAdminRole",
          "type": "bytes32"
        }
      ],
      "name": "RoleAdminChanged",
      "type": "event"
    },
    {
      "anonymous": false,
      "inputs": [
        {
          "indexed": true,
          "internalType": "bytes32",
          "name": "role",
          "type": "bytes32"
        },
        {
          "indexed": true,
          "internalType": "address",
          "name": "account",
          "type": "address"
        },
        {
          "indexed": true,
          "internalType": "address",
          "name": "sender",
          "type": "address"
        }
      ],
      "name": "RoleGranted",
      "type": "event"
    },
    {
      "anonymous": false,
      "inputs": [
        {
          "indexed": true,
          "internalType": "bytes32",
          "name": "role",
          "type": "bytes32"
        },
        {
          "indexed": true,
          "internalType": "address",
          "name": "account",
          "type": "address"
        },
        {
          "indexed": true,
          "internalType": "address",
          "name": "sender",
          "type": "address"
        }
      ],
      "name": "RoleRevoked",
      "type": "event"
    },
    {
      "anonymous": false,
      "inputs": [
        {
          "indexed": false,
          "internalType": "uint32",
          "name": "operatorIndex",
          "type": "uint32"
        },
        {
          "indexed": false,
          "internalType": "uint32",
          "name": "candidateIndex",
          "type": "uint32"
        },
        {
          "indexed": false,
          "internalType": "address",
          "name": "sender",
          "type": "address"
        },
        {
          "indexed": false,
          "internalType": "uint256",
          "name": "amount",
          "type": "uint256"
        },
        {
          "indexed": false,
          "internalType": "uint256",
          "name": "lton",
          "type": "uint256"
        },
        {
          "indexed": false,
          "internalType": "address",
          "name": "commissionTo",
          "type": "address"
        },
        {
          "indexed": false,
          "internalType": "uint256",
          "name": "commissionLton",
          "type": "uint256"
        }
      ],
      "name": "Staked",
      "type": "event"
    },
    {
      "anonymous": false,
      "inputs": [
        {
          "indexed": false,
          "internalType": "uint32",
          "name": "operatorIndex",
          "type": "uint32"
        },
        {
          "indexed": false,
          "internalType": "uint32",
          "name": "candidateIndex",
          "type": "uint32"
        },
        {
          "indexed": false,
          "internalType": "address",
          "name": "sender",
          "type": "address"
        },
        {
          "indexed": false,
          "internalType": "uint256",
          "name": "amount",
          "type": "uint256"
        },
        {
          "indexed": false,
          "internalType": "uint256",
          "name": "lton",
          "type": "uint256"
        }
      ],
      "name": "Unstaked",
      "type": "event"
    },
    {
      "anonymous": false,
      "inputs": [
        {
          "indexed": false,
          "internalType": "uint32",
          "name": "operatorIndex",
          "type": "uint32"
        },
        {
          "indexed": false,
          "internalType": "uint32",
          "name": "candidateIndex",
          "type": "uint32"
        },
        {
          "indexed": false,
          "internalType": "address",
          "name": "sender",
          "type": "address"
        },
        {
          "indexed": false,
          "internalType": "uint256",
          "name": "amount",
          "type": "uint256"
        }
      ],
      "name": "Withdrawal",
      "type": "event"
    },
    {
      "inputs": [],
      "name": "ADMIN_ROLE",
      "outputs": [
        {
          "internalType": "bytes32",
          "name": "",
          "type": "bytes32"
        }
      ],
      "stateMutability": "view",
      "type": "function"
    },
    {
      "inputs": [],
      "name": "DEFAULT_ADMIN_ROLE",
      "outputs": [
        {
          "internalType": "bytes32",
          "name": "",
          "type": "bytes32"
        }
      ],
      "stateMutability": "view",
      "type": "function"
    },
    {
      "inputs": [],
      "name": "POLICY_ROLE",
      "outputs": [
        {
          "internalType": "bytes32",
          "name": "",
          "type": "bytes32"
        }
      ],
      "stateMutability": "view",
      "type": "function"
    },
    {
      "inputs": [
        {
          "internalType": "address",
          "name": "account",
          "type": "address"
        }
      ],
      "name": "addAdmin",
      "outputs": [],
      "stateMutability": "nonpayable",
      "type": "function"
    },
    {
      "inputs": [
        {
          "internalType": "address",
          "name": "",
          "type": "address"
        }
      ],
      "name": "aliveImplementation",
      "outputs": [
        {
          "internalType": "bool",
          "name": "",
          "type": "bool"
        }
      ],
      "stateMutability": "view",
      "type": "function"
    },
    {
      "inputs": [
        {
          "internalType": "uint32",
          "name": "layerIndex",
          "type": "uint32"
        },
        {
          "internalType": "address",
          "name": "account",
          "type": "address"
        }
      ],
      "name": "amountOfPendings",
      "outputs": [
        {
          "internalType": "uint256",
          "name": "amount",
          "type": "uint256"
        },
        {
          "internalType": "uint32",
          "name": "startIndex",
          "type": "uint32"
        },
        {
          "internalType": "uint32",
          "name": "len",
          "type": "uint32"
        },
        {
          "internalType": "uint32",
          "name": "nextWithdrawableBlockNumber",
          "type": "uint32"
        }
      ],
      "stateMutability": "view",
      "type": "function"
    },
    {
      "inputs": [
        {
          "internalType": "uint32",
          "name": "_index",
          "type": "uint32"
        },
        {
          "internalType": "address",
          "name": "account",
          "type": "address"
        }
      ],
      "name": "availableWithdraw",
      "outputs": [
        {
          "internalType": "uint256",
          "name": "amount",
          "type": "uint256"
        },
        {
          "internalType": "uint32",
          "name": "startIndex",
          "type": "uint32"
        },
        {
          "internalType": "uint32",
          "name": "len",
          "type": "uint32"
        }
      ],
      "stateMutability": "view",
      "type": "function"
    },
    {
      "inputs": [
        {
          "internalType": "uint32",
          "name": "_index",
          "type": "uint32"
        },
        {
          "internalType": "address",
          "name": "account",
          "type": "address"
        }
      ],
      "name": "balanceOf",
      "outputs": [
        {
          "internalType": "uint256",
          "name": "amount",
          "type": "uint256"
        }
      ],
      "stateMutability": "view",
      "type": "function"
    },
    {
      "inputs": [
        {
          "internalType": "uint32",
          "name": "_index",
          "type": "uint32"
        },
        {
          "internalType": "address",
          "name": "account",
          "type": "address"
        },
        {
          "internalType": "uint256",
          "name": "snapshotId",
          "type": "uint256"
        }
      ],
      "name": "balanceOfAt",
      "outputs": [
        {
          "internalType": "uint256",
          "name": "amount",
          "type": "uint256"
        }
      ],
      "stateMutability": "view",
      "type": "function"
    },
    {
      "inputs": [
        {
          "internalType": "uint32",
          "name": "_index",
          "type": "uint32"
        },
        {
          "internalType": "address",
          "name": "account",
          "type": "address"
        }
      ],
      "name": "balanceOfLton",
      "outputs": [
        {
          "internalType": "uint256",
          "name": "amount",
          "type": "uint256"
        }
      ],
      "stateMutability": "view",
      "type": "function"
    },
    {
      "inputs": [
        {
          "internalType": "uint32",
          "name": "_index",
          "type": "uint32"
        }
      ],
      "name": "balanceOfLton",
      "outputs": [
        {
          "internalType": "uint256",
          "name": "amount",
          "type": "uint256"
        }
      ],
      "stateMutability": "view",
      "type": "function"
    },
    {
      "inputs": [
        {
          "internalType": "uint32",
          "name": "_index",
          "type": "uint32"
        },
        {
          "internalType": "address",
          "name": "account",
          "type": "address"
        },
        {
          "internalType": "uint256",
          "name": "snapshotId",
          "type": "uint256"
        }
      ],
      "name": "balanceOfLtonAt",
      "outputs": [
        {
          "internalType": "uint256",
          "name": "amount",
          "type": "uint256"
        }
      ],
      "stateMutability": "view",
      "type": "function"
    },
    {
      "inputs": [
        {
          "internalType": "uint32",
          "name": "_index",
          "type": "uint32"
        },
        {
          "internalType": "uint256",
          "name": "snapshotId",
          "type": "uint256"
        }
      ],
      "name": "balanceOfLtonAt",
      "outputs": [
        {
          "internalType": "uint256",
          "name": "amount",
          "type": "uint256"
        }
      ],
      "stateMutability": "view",
      "type": "function"
    },
    {
      "inputs": [
        {
          "internalType": "uint32",
          "name": "_index",
          "type": "uint32"
        },
        {
          "internalType": "uint256",
          "name": "snapshotId",
          "type": "uint256"
        }
      ],
      "name": "balanceOfLtonAtSnapshot",
      "outputs": [
        {
          "internalType": "bool",
          "name": "snapshotted",
          "type": "bool"
        },
        {
          "internalType": "uint256",
          "name": "amount",
          "type": "uint256"
        }
      ],
      "stateMutability": "view",
      "type": "function"
    },
    {
      "inputs": [
        {
          "internalType": "uint32",
          "name": "_index",
          "type": "uint32"
        },
        {
          "internalType": "address",
          "name": "account",
          "type": "address"
        },
        {
          "internalType": "uint256",
          "name": "snapshotId",
          "type": "uint256"
        }
      ],
      "name": "balanceOfLtonAtSnapshot",
      "outputs": [
        {
          "internalType": "bool",
          "name": "snapshotted",
          "type": "bool"
        },
        {
          "internalType": "uint256",
          "name": "amount",
          "type": "uint256"
        }
      ],
      "stateMutability": "view",
      "type": "function"
    },
    {
      "inputs": [
        {
          "internalType": "uint32",
          "name": "_candidateIndex",
          "type": "uint32"
        },
        {
          "internalType": "bytes",
          "name": "_info",
          "type": "bytes"
        }
      ],
      "name": "create",
      "outputs": [
        {
          "internalType": "bool",
          "name": "",
          "type": "bool"
        }
      ],
      "stateMutability": "nonpayable",
      "type": "function"
    },
    {
      "inputs": [
        {
          "internalType": "uint32",
          "name": "_index",
          "type": "uint32"
        }
      ],
      "name": "existedIndex",
      "outputs": [
        {
          "internalType": "bool",
          "name": "",
          "type": "bool"
        }
      ],
      "stateMutability": "view",
      "type": "function"
    },
    {
      "inputs": [
        {
          "internalType": "bytes32",
          "name": "hashMessage",
          "type": "bytes32"
        },
        {
          "internalType": "uint32",
          "name": "layerIndex",
          "type": "uint32"
        },
        {
          "internalType": "address",
          "name": "from",
          "type": "address"
        },
        {
          "internalType": "address",
          "name": "to",
          "type": "address"
        },
        {
          "internalType": "uint256",
          "name": "amount",
          "type": "uint256"
        }
      ],
      "name": "fastWithdrawClaim",
      "outputs": [
        {
          "internalType": "bool",
          "name": "",
          "type": "bool"
        }
      ],
      "stateMutability": "nonpayable",
      "type": "function"
    },
    {
      "inputs": [
        {
          "internalType": "bytes32",
          "name": "hashMessage",
          "type": "bytes32"
        },
        {
          "internalType": "uint32",
          "name": "layerIndex",
          "type": "uint32"
        },
        {
          "internalType": "address",
          "name": "staker",
          "type": "address"
        },
        {
          "internalType": "uint256",
          "name": "_amount",
          "type": "uint256"
        }
      ],
      "name": "fastWithdrawStake",
      "outputs": [
        {
          "internalType": "bool",
          "name": "",
          "type": "bool"
        }
      ],
      "stateMutability": "nonpayable",
      "type": "function"
    },
    {
      "inputs": [],
      "name": "fwReceipt",
      "outputs": [
        {
          "internalType": "address",
          "name": "",
          "type": "address"
        }
      ],
      "stateMutability": "view",
      "type": "function"
    },
    {
      "inputs": [
        {
          "internalType": "uint32",
          "name": "_index",
          "type": "uint32"
        }
      ],
      "name": "getCandidateInfo",
      "outputs": [
        {
          "components": [
            {
              "internalType": "address",
              "name": "operator",
              "type": "address"
            },
            {
              "internalType": "uint32",
              "name": "operatorIndex",
              "type": "uint32"
            },
            {
              "internalType": "uint16",
              "name": "commission",
              "type": "uint16"
            }
          ],
          "internalType": "struct LibOperator.Info",
          "name": "info",
          "type": "tuple"
        }
      ],
      "stateMutability": "view",
      "type": "function"
    },
    {
      "inputs": [
        {
          "internalType": "uint32",
          "name": "_index",
          "type": "uint32"
        }
      ],
      "name": "getCandidateKey",
      "outputs": [
        {
          "internalType": "bytes32",
          "name": "layerKey_",
          "type": "bytes32"
        }
      ],
      "stateMutability": "view",
      "type": "function"
    },
    {
      "inputs": [],
      "name": "getCurrentSnapshotId",
      "outputs": [
        {
          "internalType": "uint256",
          "name": "",
          "type": "uint256"
        }
      ],
      "stateMutability": "view",
      "type": "function"
    },
    {
      "inputs": [
        {
          "internalType": "uint32",
          "name": "_index",
          "type": "uint32"
        },
        {
          "internalType": "address",
          "name": "account",
          "type": "address"
        }
      ],
      "name": "getLayerStakes",
      "outputs": [
        {
          "components": [
            {
              "internalType": "uint256",
              "name": "stakePrincipal",
              "type": "uint256"
            },
            {
              "internalType": "uint256",
              "name": "stakelton",
              "type": "uint256"
            },
            {
              "internalType": "bool",
              "name": "stake",
              "type": "bool"
            }
          ],
          "internalType": "struct LibStake.StakeInfo",
          "name": "info",
          "type": "tuple"
        }
      ],
      "stateMutability": "view",
      "type": "function"
    },
    {
      "inputs": [
        {
          "internalType": "uint32",
          "name": "_index",
          "type": "uint32"
        },
        {
          "internalType": "address",
          "name": "account",
          "type": "address"
        }
      ],
      "name": "getPendingUnstakedAmount",
      "outputs": [
        {
          "internalType": "uint256",
          "name": "",
          "type": "uint256"
        }
      ],
      "stateMutability": "view",
      "type": "function"
    },
    {
      "inputs": [
        {
          "internalType": "bytes32",
          "name": "role",
          "type": "bytes32"
        }
      ],
      "name": "getRoleAdmin",
      "outputs": [
        {
          "internalType": "bytes32",
          "name": "",
          "type": "bytes32"
        }
      ],
      "stateMutability": "view",
      "type": "function"
    },
    {
      "inputs": [],
      "name": "getStakeAccountList",
      "outputs": [
        {
          "internalType": "address[]",
          "name": "",
          "type": "address[]"
        }
      ],
      "stateMutability": "view",
      "type": "function"
    },
    {
      "inputs": [],
      "name": "getTotalLton",
      "outputs": [
        {
          "internalType": "uint256",
          "name": "",
          "type": "uint256"
        }
      ],
      "stateMutability": "view",
      "type": "function"
    },
    {
      "inputs": [
        {
          "internalType": "bytes32",
          "name": "role",
          "type": "bytes32"
        },
        {
          "internalType": "address",
          "name": "account",
          "type": "address"
        }
      ],
      "name": "grantRole",
      "outputs": [],
      "stateMutability": "nonpayable",
      "type": "function"
    },
    {
      "inputs": [
        {
          "internalType": "bytes32",
          "name": "role",
          "type": "bytes32"
        },
        {
          "internalType": "address",
          "name": "account",
          "type": "address"
        }
      ],
      "name": "hasRole",
      "outputs": [
        {
          "internalType": "bool",
          "name": "",
          "type": "bool"
        }
      ],
      "stateMutability": "view",
      "type": "function"
    },
    {
      "inputs": [
        {
          "internalType": "address",
          "name": "account",
          "type": "address"
        }
      ],
      "name": "isAdmin",
      "outputs": [
        {
          "internalType": "bool",
          "name": "",
          "type": "bool"
        }
      ],
      "stateMutability": "view",
      "type": "function"
    },
    {
      "inputs": [
        {
          "internalType": "uint32",
          "name": "_index",
          "type": "uint32"
        }
      ],
      "name": "layer2Deposits",
      "outputs": [
        {
          "internalType": "uint256",
          "name": "amount",
          "type": "uint256"
        }
      ],
      "stateMutability": "view",
      "type": "function"
    },
    {
      "inputs": [],
      "name": "layer2Manager",
      "outputs": [
        {
          "internalType": "address",
          "name": "",
          "type": "address"
        }
      ],
      "stateMutability": "view",
      "type": "function"
    },
    {
      "inputs": [
        {
          "internalType": "uint32",
          "name": "",
          "type": "uint32"
        }
      ],
      "name": "layerInfo",
      "outputs": [
        {
          "internalType": "bytes",
          "name": "",
          "type": "bytes"
        }
      ],
      "stateMutability": "view",
      "type": "function"
    },
    {
      "inputs": [
        {
          "internalType": "uint32",
          "name": "",
          "type": "uint32"
        }
      ],
      "name": "layerStakedLton",
      "outputs": [
        {
          "internalType": "uint256",
          "name": "",
          "type": "uint256"
        }
      ],
      "stateMutability": "view",
      "type": "function"
    },
    {
      "inputs": [
        {
          "internalType": "uint32",
          "name": "",
          "type": "uint32"
        },
        {
          "internalType": "address",
          "name": "",
          "type": "address"
        }
      ],
      "name": "layerStakes",
      "outputs": [
        {
          "internalType": "uint256",
          "name": "stakePrincipal",
          "type": "uint256"
        },
        {
          "internalType": "uint256",
          "name": "stakelton",
          "type": "uint256"
        },
        {
          "internalType": "bool",
          "name": "stake",
          "type": "bool"
        }
      ],
      "stateMutability": "view",
      "type": "function"
    },
    {
      "inputs": [
        {
          "internalType": "uint32",
          "name": "layerIndex",
          "type": "uint32"
        },
        {
          "internalType": "address",
          "name": "account",
          "type": "address"
        }
      ],
      "name": "numberOfPendings",
      "outputs": [
        {
          "internalType": "uint256",
          "name": "totalRequests",
          "type": "uint256"
        },
        {
          "internalType": "uint256",
          "name": "withdrawIndex",
          "type": "uint256"
        },
        {
          "internalType": "uint256",
          "name": "pendingLength",
          "type": "uint256"
        }
      ],
      "stateMutability": "view",
      "type": "function"
    },
    {
      "inputs": [
        {
          "internalType": "address",
          "name": "sender",
          "type": "address"
        },
        {
          "internalType": "address",
          "name": "spender",
          "type": "address"
        },
        {
          "internalType": "uint256",
          "name": "amount",
          "type": "uint256"
        },
        {
          "internalType": "bytes",
          "name": "data",
          "type": "bytes"
        }
      ],
      "name": "onApprove",
      "outputs": [
        {
          "internalType": "bool",
          "name": "",
          "type": "bool"
        }
      ],
      "stateMutability": "nonpayable",
      "type": "function"
    },
    {
      "inputs": [
        {
          "internalType": "uint32",
          "name": "_index",
          "type": "uint32"
        }
      ],
      "name": "operator",
      "outputs": [
        {
          "internalType": "address",
          "name": "operator_",
          "type": "address"
        }
      ],
      "stateMutability": "view",
      "type": "function"
    },
    {
      "inputs": [
        {
          "internalType": "uint32",
          "name": "",
          "type": "uint32"
        },
        {
          "internalType": "address",
          "name": "",
          "type": "address"
        }
      ],
      "name": "operators",
      "outputs": [
        {
          "internalType": "uint32",
          "name": "",
          "type": "uint32"
        }
      ],
      "stateMutability": "view",
      "type": "function"
    },
    {
      "inputs": [],
      "name": "pauseProxy",
      "outputs": [
        {
          "internalType": "bool",
          "name": "",
          "type": "bool"
        }
      ],
      "stateMutability": "view",
      "type": "function"
    },
    {
      "inputs": [
        {
          "internalType": "uint32",
          "name": "",
          "type": "uint32"
        },
        {
          "internalType": "address",
          "name": "",
          "type": "address"
        }
      ],
      "name": "pendingUnstaked",
      "outputs": [
        {
          "internalType": "uint256",
          "name": "",
          "type": "uint256"
        }
      ],
      "stateMutability": "view",
      "type": "function"
    },
    {
      "inputs": [
        {
          "internalType": "address",
          "name": "",
          "type": "address"
        }
      ],
      "name": "pendingUnstakedAccount",
      "outputs": [
        {
          "internalType": "uint256",
          "name": "",
          "type": "uint256"
        }
      ],
      "stateMutability": "view",
      "type": "function"
    },
    {
      "inputs": [
        {
          "internalType": "uint32",
          "name": "",
          "type": "uint32"
        }
      ],
      "name": "pendingUnstakedLayer2",
      "outputs": [
        {
          "internalType": "uint256",
          "name": "",
          "type": "uint256"
        }
      ],
      "stateMutability": "view",
      "type": "function"
    },
    {
      "inputs": [
        {
          "internalType": "uint256",
          "name": "",
          "type": "uint256"
        }
      ],
      "name": "proxyImplementation",
      "outputs": [
        {
          "internalType": "address",
          "name": "",
          "type": "address"
        }
      ],
      "stateMutability": "view",
      "type": "function"
    },
    {
      "inputs": [
        {
          "internalType": "address",
          "name": "account",
          "type": "address"
        }
      ],
      "name": "removeAdmin",
      "outputs": [],
      "stateMutability": "nonpayable",
      "type": "function"
    },
    {
      "inputs": [
        {
          "internalType": "bytes32",
          "name": "role",
          "type": "bytes32"
        },
        {
          "internalType": "address",
          "name": "account",
          "type": "address"
        }
      ],
      "name": "renounceRole",
      "outputs": [],
      "stateMutability": "nonpayable",
      "type": "function"
    },
    {
      "inputs": [
        {
          "internalType": "uint32",
          "name": "_index",
          "type": "uint32"
        },
        {
          "internalType": "bool",
          "name": "isCandidate",
          "type": "bool"
        }
      ],
      "name": "restake",
      "outputs": [],
      "stateMutability": "nonpayable",
      "type": "function"
    },
    {
      "inputs": [
        {
          "internalType": "uint32",
          "name": "_index",
          "type": "uint32"
        },
        {
          "internalType": "uint256",
          "name": "n",
          "type": "uint256"
        },
        {
          "internalType": "bool",
          "name": "isCandidate",
          "type": "bool"
        }
      ],
      "name": "restakeMulti",
      "outputs": [],
      "stateMutability": "nonpayable",
      "type": "function"
    },
    {
      "inputs": [
        {
          "internalType": "bytes32",
          "name": "role",
          "type": "bytes32"
        },
        {
          "internalType": "address",
          "name": "account",
          "type": "address"
        }
      ],
      "name": "revokeRole",
      "outputs": [],
      "stateMutability": "nonpayable",
      "type": "function"
    },
    {
      "inputs": [],
      "name": "seigManagerV2",
      "outputs": [
        {
          "internalType": "address",
          "name": "",
          "type": "address"
        }
      ],
      "stateMutability": "view",
      "type": "function"
    },
    {
      "inputs": [
        {
          "internalType": "bytes4",
          "name": "",
          "type": "bytes4"
        }
      ],
      "name": "selectorImplementation",
      "outputs": [
        {
          "internalType": "address",
          "name": "",
          "type": "address"
        }
      ],
      "stateMutability": "view",
      "type": "function"
    },
    {
      "inputs": [
        {
          "internalType": "uint32",
          "name": "_index",
          "type": "uint32"
        },
        {
          "internalType": "uint256",
          "name": "amount",
          "type": "uint256"
        }
      ],
      "name": "stake",
      "outputs": [],
      "stateMutability": "nonpayable",
      "type": "function"
    },
    {
      "inputs": [
        {
          "internalType": "uint256",
          "name": "",
          "type": "uint256"
        }
      ],
      "name": "stakeAccountList",
      "outputs": [
        {
          "internalType": "address",
          "name": "",
          "type": "address"
        }
      ],
      "stateMutability": "view",
      "type": "function"
    },
    {
      "inputs": [
        {
          "internalType": "bytes4",
          "name": "interfaceId",
          "type": "bytes4"
        }
      ],
      "name": "supportsInterface",
      "outputs": [
        {
          "internalType": "bool",
          "name": "",
          "type": "bool"
        }
      ],
      "stateMutability": "view",
      "type": "function"
    },
    {
      "inputs": [],
      "name": "ton",
      "outputs": [
        {
          "internalType": "address",
          "name": "",
          "type": "address"
        }
      ],
      "stateMutability": "view",
      "type": "function"
    },
    {
      "inputs": [],
      "name": "totalLayer2Deposits",
      "outputs": [
        {
          "internalType": "uint256",
          "name": "amount",
          "type": "uint256"
        }
      ],
      "stateMutability": "view",
      "type": "function"
    },
    {
      "inputs": [],
      "name": "totalStakeAccountList",
      "outputs": [
        {
          "internalType": "uint256",
          "name": "",
          "type": "uint256"
        }
      ],
      "stateMutability": "view",
      "type": "function"
    },
    {
      "inputs": [],
      "name": "totalStakedLton",
      "outputs": [
        {
          "internalType": "uint256",
          "name": "amount",
          "type": "uint256"
        }
      ],
      "stateMutability": "view",
      "type": "function"
    },
    {
      "inputs": [
        {
          "internalType": "uint256",
          "name": "snapshotId",
          "type": "uint256"
        }
      ],
      "name": "totalStakedLtonAt",
      "outputs": [
        {
          "internalType": "uint256",
          "name": "amount",
          "type": "uint256"
        }
      ],
      "stateMutability": "view",
      "type": "function"
    },
    {
      "inputs": [
        {
          "internalType": "uint256",
          "name": "snapshotId",
          "type": "uint256"
        }
      ],
      "name": "totalStakedLtonAtSnapshot",
      "outputs": [
        {
          "internalType": "bool",
          "name": "snapshotted",
          "type": "bool"
        },
        {
          "internalType": "uint256",
          "name": "amount",
          "type": "uint256"
        }
      ],
      "stateMutability": "view",
      "type": "function"
    },
    {
      "inputs": [
        {
          "internalType": "address",
          "name": "newAdmin",
          "type": "address"
        }
      ],
      "name": "transferAdmin",
      "outputs": [],
      "stateMutability": "nonpayable",
      "type": "function"
    },
    {
      "inputs": [
        {
          "internalType": "uint32",
          "name": "_index",
          "type": "uint32"
        },
        {
          "internalType": "uint256",
          "name": "lton_",
          "type": "uint256"
        }
      ],
      "name": "unstake",
      "outputs": [],
      "stateMutability": "nonpayable",
      "type": "function"
    },
    {
      "inputs": [
        {
          "internalType": "uint32",
          "name": "_index",
          "type": "uint32"
        },
        {
          "internalType": "bool",
          "name": "isCandidate",
          "type": "bool"
        }
      ],
      "name": "withdraw",
      "outputs": [],
      "stateMutability": "nonpayable",
      "type": "function"
    },
    {
      "inputs": [
        {
          "internalType": "uint32",
          "name": "",
          "type": "uint32"
        },
        {
          "internalType": "address",
          "name": "",
          "type": "address"
        }
      ],
      "name": "withdrawalRequestIndex",
      "outputs": [
        {
          "internalType": "uint256",
          "name": "",
          "type": "uint256"
        }
      ],
      "stateMutability": "view",
      "type": "function"
    },
    {
      "inputs": [
        {
          "internalType": "uint32",
          "name": "",
          "type": "uint32"
        },
        {
          "internalType": "address",
          "name": "",
          "type": "address"
        },
        {
          "internalType": "uint256",
          "name": "",
          "type": "uint256"
        }
      ],
      "name": "withdrawalRequests",
      "outputs": [
        {
          "internalType": "uint32",
          "name": "withdrawableBlockNumber",
          "type": "uint32"
        },
        {
          "internalType": "uint128",
          "name": "amount",
          "type": "uint128"
        },
        {
          "internalType": "bool",
          "name": "processed",
          "type": "bool"
        }
      ],
      "stateMutability": "view",
      "type": "function"
    }
  ],
  "bytecode": "0x60806040526006805460ff1916600117905534801561001d57600080fd5b506151da8061002d6000396000f3fe608060405234801561001057600080fd5b50600436106104065760003560e01c8063763936c71161021a578063a0b2a91311610135578063cdc76cf9116100c8578063e4f6815511610097578063f2b9ddfc1161007c578063f2b9ddfc14610b85578063f8d437ae14610b98578063fde4819714610bab57600080fd5b8063e4f6815514610b5f578063ec110d4514610b7257600080fd5b8063cdc76cf914610b13578063d07918f114610b26578063d547741f14610b39578063df2b429014610b4c57600080fd5b8063b911135f11610104578063b911135f14610aaa578063b969fbef14610ad3578063b9cab97114610adb578063cc48b94714610afb57600080fd5b8063a0b2a91314610a54578063a217fddf14610a74578063b413b37a146105d0578063b6a2f99d14610a7c57600080fd5b80638d99e1ca116101ad578063982383551161017c57806398238355146109c15780639c2f614f146109d45780639c2f7f3b146109e75780639c656e26146109fa57600080fd5b80638d99e1ca146109265780638ddd87fe1461093957806391d148541461097757806394c89b2c146109ae57600080fd5b806385b9e485116101e957806385b9e485146108a557806387dd8bd0146108b85780638afec9fc146108cb5780638c71762d146108f157600080fd5b8063763936c7146108415780637cf1587c146108545780637d211a1c1461087f5780637ec6840f1461089257600080fd5b80634ec2f04b11610325578063659ab820116102b857806370619cf91161028757806373469a7a1161026c57806373469a7a146107f457806375829def1461080757806375b238fc1461081a57600080fd5b806370619cf9146107c15780637138c792146107e157600080fd5b8063659ab8201461073c5780636818a32b1461075c5780636d1ef1031461076f57806370480275146107ae57600080fd5b8063550d01a3116102f4578063550d01a31461067b5780635e2cfe451461069e5780635f1b989e146106c957806363a8fd891461072f57600080fd5b80634ec2f04b146105d85780634f818d0c1461060257806350d2a2761461064a5780635439ad861461067357600080fd5b806324d7806c1161039d5780634273ca161161036c5780634273ca16146105a057806346bcdb49146105b35780634de131ca146105bb5780634e1a264d146105d057600080fd5b806324d7806c1461055457806329637c1c146105675780632f2ff15d1461057a57806336568abe1461058d57600080fd5b80631ed94495116103d95780631ed94495146104865780631f760d01146104bd57806322985246146104fc578063248a9ca31461053157600080fd5b806301ffc9a71461040b578063127025971461043357806316b5d5bd146104485780631785f53c14610473575b600080fd5b61041e6104193660046148c5565b610bf1565b60405190151581526020015b60405180910390f35b61044661044136600461490f565b610c28565b005b60085461045b906001600160a01b031681565b6040516001600160a01b03909116815260200161042a565b61044661048136600461495d565b6110ae565b61049961049436600461497a565b61113b565b6040805182518152602080840151908201529181015115159082015260600161042a565b6104d06104cb36600461497a565b6111ba565b6040805194855263ffffffff93841660208601529183169184019190915216606082015260800161042a565b6105237ffb5864e8ff833c3cb2d2d08505e82ff02a43554c74a35d4f5a64e8526127831181565b60405190815260200161042a565b61052361053f3660046149a8565b60009081526020819052604090206001015490565b61041e61056236600461495d565b6112f8565b6105236105753660046149c1565b611338565b610446610588366004614a02565b6113c7565b61044661059b366004614a02565b6113f1565b61041e6105ae366004614a27565b61147d565b601754610523565b6105c3611631565b60405161042a9190614ac6565b600a54610523565b6105eb6105e6366004614b13565b611693565b60408051921515835260208301919091520161042a565b610615610610366004614b3f565b6116c1565b6040805182516001600160a01b0316815260208084015163ffffffff16908201529181015161ffff169082015260600161042a565b61045b6106583660046148c5565b6004602052600090815260409020546001600160a01b031681565b610523611765565b61041e61068936600461495d565b60036020526000908152604090205460ff1681565b6105236106ac36600461497a565b601360209081526000928352604080842090915290825290205481565b6105236106d736600461497a565b63ffffffff9091166000908152600f602090815260408083206001600160a01b03909416835292815290829020825160608101845281548152600182015492810183905260029091015460ff16151592019190915290565b60015461041e9060ff1681565b61074f61074a366004614b3f565b6117d8565b60405161042a9190614bac565b61052361076a3660046149c1565b611872565b61078261077d3660046149c1565b611916565b6040805163ffffffff90941684526001600160801b03909216602084015215159082015260600161042a565b6104466107bc36600461495d565b611975565b6105236107cf366004614b3f565b600d6020526000908152604090205481565b61041e6107ef366004614bbf565b6119ff565b60075461045b906001600160a01b031681565b61044661081536600461495d565b611bd1565b6105237fdf8b4c520ffe197c5343c6f5aec59570151ef9a492f2c624fd45ddde6135ec4281565b61045b61084f366004614b3f565b611d33565b61052361086236600461497a565b601260209081526000928352604080842090915290825290205481565b61041e61088d366004614b3f565b611df4565b6104466108a0366004614b13565b611ebb565b61041e6108b3366004614c07565b612052565b6105236108c6366004614b3f565b6122f7565b6105236108d9366004614b3f565b63ffffffff166000908152600d602052604090205490565b6109046108ff36600461497a565b6123e2565b6040805193845263ffffffff928316602085015291169082015260600161042a565b610523610934366004614b3f565b61251f565b61052361094736600461497a565b63ffffffff821660009081526013602090815260408083206001600160a01b038516845290915290205492915050565b61041e610985366004614a02565b6000918252602082815260408084206001600160a01b0393909316845291905290205460ff1690565b6105236109bc36600461497a565b612592565b6105eb6109cf3660046149c1565b612652565b6104466109e2366004614b13565b612694565b6104466109f536600461490f565b6127c8565b610a37610a0836600461497a565b600f60209081526000928352604080842090915290825290208054600182015460029092015490919060ff1683565b60408051938452602084019290925215159082015260600161042a565b610523610a6236600461495d565b60156020526000908152604090205481565b610523600081565b610a8f610a8a36600461497a565b612848565b6040805193845260208401929092529082015260600161042a565b61045b610ab83660046149a8565b6002602052600090815260409020546001600160a01b031681565b6105236128a3565b610523610ae9366004614b3f565b60146020526000908152604090205481565b60065461045b9061010090046001600160a01b031681565b610523610b21366004614b13565b6128ed565b60095461045b906001600160a01b031681565b610446610b47366004614a02565b612940565b61041e610b5a366004614ca9565b612965565b610523610b6d3660046149a8565b612cc0565b61045b610b803660046149a8565b612ce1565b610446610b93366004614d51565b612d0b565b6105eb610ba63660046149a8565b612dcf565b610bdc610bb936600461497a565b601860209081526000928352604080842090915290825290205463ffffffff1681565b60405163ffffffff909116815260200161042a565b60006001600160e01b03198216637965db0b60e01b1480610c2257506301ffc9a760e01b6001600160e01b03198316145b92915050565b60065460ff16610c6c5760405162461bcd60e51b8152600401610c63906020808252600490820152636c6f636b60e01b604082015260600190565b60405180910390fd5b6006805460ff1916905563ffffffff821660008181526011602090815260408083203380855290835281842054948452601283528184208185529092528220549092919081905b83811015610d855763ffffffff871660009081526011602090815260408083206001600160a01b03891684529091528120805483908110610cf657610cf6614d93565b600091825260209091200180549091504363ffffffff909116108015610d2557508054600160a01b900460ff16155b15610d6c57805460ff60a01b1916600160a01b17808255610d58906001600160801b036401000000009091041684614dbf565b925083610d6481614dd2565b945050610d72565b50610d85565b5080610d7d81614dd2565b915050610cb3565b5060008111610dd65760405162461bcd60e51b815260206004820181905260248201527f7a65726f20617661696c61626c65207769746864726177616c20616d6f756e746044820152606401610c63565b63ffffffff861660009081526012602090815260408083206001600160a01b038816845290915281208054849290610e0f908490614dbf565b909155505063ffffffff861660009081526013602090815260408083206001600160a01b038816845290915281208054839290610e4d908490614deb565b909155505063ffffffff861660009081526014602052604081208054839290610e77908490614deb565b90915550506001600160a01b03841660009081526015602052604081208054839290610ea4908490614deb565b90915550506006546040516370a0823160e01b815230600482015260009161010090046001600160a01b0316906370a0823190602401602060405180830381865afa158015610ef7573d6000803e3d6000fd5b505050506040513d601f19601f82011682018060405250810190610f1b9190614dfe565b905081811015610fc6578015610f4757600654610f479061010090046001600160a01b03168683612de6565b6007546001600160a01b031663e7d9456c86610f638486614deb565b6040516001600160e01b031960e085901b1681526001600160a01b0390921660048301526024820152604401600060405180830381600087803b158015610fa957600080fd5b505af1158015610fbd573d6000803e3d6000fd5b50505050610fe2565b600654610fe29061010090046001600160a01b03168684612de6565b851561104257604080516000815263ffffffff891660208201526001600160a01b038716818301526060810184905290517fb791c1a058894ea979a242d29f1379dab41dcc3b829ac9136b73308ea52d58d39181900360800190a1611098565b6040805163ffffffff89168152600060208201526001600160a01b038716818301526060810184905290517fb791c1a058894ea979a242d29f1379dab41dcc3b829ac9136b73308ea52d58d39181900360800190a15b50506006805460ff191660011790555050505050565b6110b7336112f8565b61110e5760405162461bcd60e51b815260206004820152602260248201527f41636365737369626c653a2043616c6c6572206973206e6f7420616e2061646d60448201526134b760f11b6064820152608401610c63565b6111387fdf8b4c520ffe197c5343c6f5aec59570151ef9a492f2c624fd45ddde6135ec42826113f1565b50565b611161604051806060016040528060008152602001600081526020016000151581525090565b5063ffffffff9091166000908152600f602090815260408083206001600160a01b039094168352928152908290208251606081018452815481526001820154928101929092526002015460ff1615159181019190915290565b63ffffffff80831660008181526011602090815260408083206001600160a01b038716808552908352818420549484526012835281842090845290915281205490929091839182919084165b818110156112ed5763ffffffff881660009081526011602090815260408083206001600160a01b038b168452909152812080548390811061124957611249614d93565b6000918252602080832060408051606081018252939091015463ffffffff8116845264010000000081046001600160801b031692840192909252600160a01b90910460ff16151590820181905290925090036112da578363ffffffff166000036112b257805193505b60208101516112ca906001600160801b031688614dbf565b96506112d7600186614e17565b94505b50806112e581614dd2565b915050611206565b505092959194509250565b6001600160a01b03811660009081527f5cbfc8ee58ca47855df7bcf648dd304ddb6b932f9b87878bdf6318d7ec7ee5b7602052604081205460ff16610c22565b6007546000906001600160a01b0316638df40b2c611357868686611872565b846040518363ffffffff1660e01b815260040161137e929190918252602082015260400190565b602060405180830381865afa15801561139b573d6000803e3d6000fd5b505050506040513d601f19601f820116820180604052508101906113bf9190614dfe565b949350505050565b6000828152602081905260409020600101546113e281612f01565b6113ec8383612f0b565b505050565b6001600160a01b038116331461146f5760405162461bcd60e51b815260206004820152602f60248201527f416363657373436f6e74726f6c3a2063616e206f6e6c792072656e6f756e636560448201527f20726f6c657320666f722073656c6600000000000000000000000000000000006064820152608401610c63565b6114798282612fa9565b5050565b60065460009061010090046001600160a01b031633146114c45760405162461bcd60e51b8152602060048201526002602482015261454160f01b6044820152606401610c63565b61150b61088d600085858080601f01602080910402602001604051908101604052809392919081815260200183838082843760009201919091525092939250506130289050565b6115575760405162461bcd60e51b815260206004820152601860248201527f6e6f6e2d726567697374657265642063616e64696461746500000000000000006044820152606401610c63565b600061159d600085858080601f01602080910402602001604051908101604052809392919081815260200183838082843760009201919091525092939250506130289050565b905084156115c2576006546115c29061010090046001600160a01b03168830886130e8565b60006115cd826116c1565b9050806040015161ffff16600014806115f2575080516001600160a01b038981169116145b1561160c576116076000838a8960008061320c565b611623565b6116236000838a898560000151866040015161320c565b506001979650505050505050565b6060601780548060200260200160405190810160405280929190818152602001828054801561168957602002820191906000526020600020905b81546001600160a01b0316815260019091019060200180831161166b575b5050505050905090565b63ffffffff82166000908152600e6020526040812081906116b5908490613621565b915091505b9250929050565b604080516060810182526000808252602080830182905282840182905263ffffffff8516825260169052829020915163186ca86f60e21b8152909173__$d436d56fec194dfaaabaf06742f0275c03$__916361b2a1bc9161172491600401614e6f565b606060405180830381865af4158015611741573d6000803e3d6000fd5b505050506040513d601f19601f82011682018060405250810190610c229190614efa565b60075460408051632a1cd6c360e11b815290516000926001600160a01b031691635439ad869160048083019260209291908290030181865afa1580156117af573d6000803e3d6000fd5b505050506040513d601f19601f820116820180604052508101906117d39190614dfe565b905090565b601660205260009081526040902080546117f190614e3b565b80601f016020809104026020016040519081016040528092919081815260200182805461181d90614e3b565b801561186a5780601f1061183f5761010080835404028352916020019161186a565b820191906000526020600020905b81548152906001019060200180831161184d57829003601f168201915b505050505081565b63ffffffff831660009081526010602090815260408083206001600160a01b03861684529091528120819081906118aa908590613621565b915091508161190a5763ffffffff86166000908152600f602090815260408083206001600160a01b0389168452825291829020825160608101845281548152600182015492810183905260029091015460ff16151592019190915261190c565b805b9695505050505050565b6011602052826000526040600020602052816000526040600020818154811061193e57600080fd5b60009182526020909120015463ffffffff8116935064010000000081046001600160801b03169250600160a01b900460ff16905083565b61197e336112f8565b6119d55760405162461bcd60e51b815260206004820152602260248201527f41636365737369626c653a2043616c6c6572206973206e6f7420616e2061646d60448201526134b760f11b6064820152608401610c63565b6111387fdf8b4c520ffe197c5343c6f5aec59570151ef9a492f2c624fd45ddde6135ec42826113c7565b6009546000906001600160a01b03163314611a4c5760405162461bcd60e51b815260206004820152600d60248201526c232bafa1a0a62622a92fa2a92960991b6044820152606401610c63565b611a568484613744565b600754604051636a2fb1f560e01b8152600481018490526000916001600160a01b031690636a2fb1f590602401602060405180830381865afa158015611aa0573d6000803e3d6000fd5b505050506040513d601f19601f82011682018060405250810190611ac49190614dfe565b63ffffffff86166000908152600d6020526040812080549293508392909190611aee908490614dbf565b9250508190555080600a6000828254611b079190614dbf565b909155505063ffffffff85166000908152600f602090815260408083206001600160a01b03881684529091528120805490918591839190611b49908490614dbf565b9250508190555081816001016000828254611b649190614dbf565b90915550506040805188815263ffffffff881660208201526001600160a01b03871681830152606081018690526080810184905290517f8cf204c07a4ce065cdd0c90963672bd384e5479ada88179bca8eb6075c02731f9181900360a00190a15060019695505050505050565b611bda336112f8565b611c315760405162461bcd60e51b815260206004820152602260248201527f41636365737369626c653a2043616c6c6572206973206e6f7420616e2061646d60448201526134b760f11b6064820152608401610c63565b6001600160a01b038116611c875760405162461bcd60e51b815260206004820152601860248201527f41636365737369626c653a207a65726f206164647265737300000000000000006044820152606401610c63565b6001600160a01b0381163303611cdf5760405162461bcd60e51b815260206004820152601660248201527f41636365737369626c653a2073616d652061646d696e000000000000000000006044820152606401610c63565b611d097fdf8b4c520ffe197c5343c6f5aec59570151ef9a492f2c624fd45ddde6135ec42826113c7565b6111387fdf8b4c520ffe197c5343c6f5aec59570151ef9a492f2c624fd45ddde6135ec42336113f1565b63ffffffff811660009081526016602052604081208054829190611d5690614e3b565b80601f0160208091040260200160405190810160405280929190818152602001828054611d8290614e3b565b8015611dcf5780601f10611da457610100808354040283529160200191611dcf565b820191906000526020600020905b815481529060010190602001808311611db257829003601f168201915b50505050509050601781511115611dee57611deb8160006137f2565b91505b50919050565b600854604051635d170f8f60e01b815263ffffffff831660048201526000916001600160a01b031690635d170f8f90602401602060405180830381865afa158015611e43573d6000803e3d6000fd5b505050506040513d601f19601f82011682018060405250810190611e679190614f73565b611eb35760405162461bcd60e51b815260206004820152601460248201527f6e6f6e2d72656769737465726564206c617965720000000000000000000000006044820152606401610c63565b506001919050565b611ec482611df4565b611f105760405162461bcd60e51b815260206004820152601860248201527f6e6f6e2d726567697374657265642063616e64696461746500000000000000006044820152606401610c63565b600654604051636eb1769f60e11b81523360048201523060248201526101009091046001600160a01b03169063dd62ed3e90604401602060405180830381865afa158015611f62573d6000803e3d6000fd5b505050506040513d601f19601f82011682018060405250810190611f869190614dfe565b811015611ffb5760405162461bcd60e51b815260206004820152603360248201527f616c6c6f77616e636520616c6c6f77616e636520697320696e7375666669636960448201527f656e7420697320696e73756666696369656e74000000000000000000000000006064820152608401610c63565b6000612006836116c1565b9050806040015161ffff1660001480612028575080516001600160a01b031633145b1561203c576113ec600084846000806138b2565b6113ec60008484846000015185604001516138b2565b60065460009060ff166120905760405162461bcd60e51b8152600401610c63906020808252600490820152636c6f636b60e01b604082015260600190565b6006805460ff191690556009546001600160a01b031633146120e45760405162461bcd60e51b815260206004820152600d60248201526c232bafa1a0a62622a92fa2a92960991b6044820152606401610c63565b816120ef8686612592565b101561213d5760405162461bcd60e51b815260206004820152601960248201527f6c697175696469747920697320696e73756666696369656e74000000000000006044820152606401610c63565b6121478585613744565b6006546040516370a0823160e01b815230600482015260009161010090046001600160a01b0316906370a0823190602401602060405180830381865afa158015612195573d6000803e3d6000fd5b505050506040513d601f19601f820116820180604052508101906121b99190614dfe565b9050828110156122645780156121e5576006546121e59061010090046001600160a01b03168583612de6565b6007546001600160a01b031663e7d9456c856122018487614deb565b6040516001600160e01b031960e085901b1681526001600160a01b0390921660048301526024820152604401600060405180830381600087803b15801561224757600080fd5b505af115801561225b573d6000803e3d6000fd5b50505050612280565b6006546122809061010090046001600160a01b03168585612de6565b6040805188815263ffffffff881660208201526001600160a01b0387811682840152861660608201526080810185905290517f77fbf71434da34ef2aa8382e2b751b6b2de7bd18d96a07ff7f4dae7dae9237619181900360a00190a160019150506006805460ff1916600117905595945050505050565b63ffffffff81166000908152601660205260408120805482919061231a90614e3b565b80601f016020809104026020016040519081016040528092919081815260200182805461234690614e3b565b80156123935780601f1061236857610100808354040283529160200191612393565b820191906000526020600020905b81548152906001019060200180831161237657829003601f168201915b505050505090506123b160006018836138dd9092919063ffffffff16565b60006040516020016123c4929190614f90565b60405160208183030381529060405280519060200120915050919050565b63ffffffff80831660008181526011602090815260408083206001600160a01b038716808552908352818420549484526012835281842090845290915281205490929091839183165b818110156125165763ffffffff871660009081526011602090815260408083206001600160a01b038a168452909152812080548390811061246e5761246e614d93565b600091825260209182902060408051606081018252929091015463ffffffff811680845264010000000082046001600160801b031694840194909452600160a01b900460ff161515908201529150431180156124cc57506040810151155b156124fd5760208101516124e9906001600160801b031687614dbf565b95506124f6600185614e17565b9350612503565b50612516565b508061250e81614dd2565b91505061242b565b50509250925092565b6008546040516346ccf0e560e11b815263ffffffff831660048201526000916001600160a01b031690638d99e1ca90602401602060405180830381865afa15801561256e573d6000803e3d6000fd5b505050506040513d601f19601f82011682018060405250810190610c229190614dfe565b60075463ffffffff83166000908152600f602090815260408083206001600160a01b038681168552908352818420825160608101845281548152600182015494810185905260029091015460ff16151590830152905163cdf6800960e01b815260048101929092529192919091169063cdf6800990602401602060405180830381865afa158015612627573d6000803e3d6000fd5b505050506040513d601f19601f8201168201806040525081019061264b9190614dfe565b9392505050565b63ffffffff831660009081526010602090815260408083206001600160a01b038616845290915281208190612688908490613621565b91509150935093915050565b600954604051630265991f60e61b81526001600482015263ffffffff841660248201523360448201526000916001600160a01b03169063996647c090606401602060405180830381865afa1580156126f0573d6000803e3d6000fd5b505050506040513d601f19601f820116820180604052508101906127149190614dfe565b905061271f83611d33565b6001600160a01b031633036127bb576113ec60008484600860009054906101000a90046001600160a01b03166001600160a01b031663a4dd8b7d6040518163ffffffff1660e01b8152600401602060405180830381865afa158015612788573d6000803e3d6000fd5b505050506040513d601f19601f820116820180604052508101906127ac9190614dfe565b6127b69086614dbf565b613a40565b6113ec6000848484613a40565b63ffffffff821660009081526012602090815260408083203384529091529020548115612839576127fe60008433846001613f5d565b6113ec5760405162461bcd60e51b815260206004820152600c60248201526b534c5f455f52455354414b4560a01b6044820152606401610c63565b6127fe83600033846001613f5d565b63ffffffff821660008181526011602090815260408083206001600160a01b03861680855290835281842054948452601283528184209084529091528120549081831061289c576128998284614deb565b90505b9250925092565b6008546040805163b969fbef60e01b815290516000926001600160a01b03169163b969fbef9160048083019260209291908290030181865afa1580156117af573d6000803e3d6000fd5b63ffffffff82166000908152600e6020526040812081908190612911908590613621565b91509150816129355763ffffffff85166000908152600d6020526040902054612937565b805b95945050505050565b60008281526020819052604090206001015461295b81612f01565b6113ec8383612fa9565b6008546000906001600160a01b031633146129c25760405162461bcd60e51b815260206004820152601160248201527f6e6f74204c61796572324d616e616765720000000000000000000000000000006044820152606401610c63565b63ffffffff8316600090815260166020526040902080546129e290614e3b565b159050612a315760405162461bcd60e51b815260206004820152600f60248201527f616c7265616479206372656174656400000000000000000000000000000000006044820152606401610c63565b6039825111612a825760405162461bcd60e51b815260206004820152600b60248201527f77726f6e67205f696e666f0000000000000000000000000000000000000000006044820152606401610c63565b60405163186ca86f60e21b815260009073__$d436d56fec194dfaaabaf06742f0275c03$__906361b2a1bc90612abc908690600401614bac565b606060405180830381865af4158015612ad9573d6000803e3d6000fd5b505050506040513d601f19601f82011682018060405250810190612afd9190614efa565b60208082015163ffffffff908116600090815260188352604080822085516001600160a01b0316835290935291909120549192501615612b7f5760405162461bcd60e51b815260206004820152600e60248201527f616c7265616420657869737465640000000000000000000000000000000000006044820152606401610c63565b61271061ffff16816040015161ffff1610612bdc5760405162461bcd60e51b815260206004820152600e60248201527f636f6d6d697373696f6e206572720000000000000000000000000000000000006044820152606401610c63565b6000612be984601a61442d565b9050612bf8846000601a6138dd565b604051602001612c089190614fda565b60408051601f1981840301815291815263ffffffff8716600090815260166020522090612c35908261503c565b5060208281015163ffffffff908116600090815260188352604080822086516001600160a01b0316835290935291909120805463ffffffff19169187169190911790558015612cb557600854600654612ca1916001600160a01b036101009092048216911630846130e8565b612cb560008684600001518460008061320c565b506001949350505050565b6000806000612cd084600b613621565b915091508161264b57600a546113bf565b60178181548110612cf157600080fd5b6000918252602090912001546001600160a01b0316905081565b63ffffffff831660009081526012602090815260408083203384529091529020548115612d8057612d40600085338487613f5d565b612d7b5760405162461bcd60e51b815260206004820152600c60248201526b534c5f455f52455354414b4560a01b6044820152606401610c63565b612dc9565b612d8e846000338487613f5d565b612dc95760405162461bcd60e51b815260206004820152600c60248201526b534c5f455f52455354414b4560a01b6044820152606401610c63565b50505050565b600080612ddd83600b613621565b91509150915091565b604080516001600160a01b038481166024830152604480830185905283518084039091018152606490920183526020820180516001600160e01b031663a9059cbb60e01b1790529151600092839290871691612e429190614fda565b6000604051808303816000865af19150503d8060008114612e7f576040519150601f19603f3d011682016040523d82523d6000602084013e612e84565b606091505b5091509150818015612eae575080511580612eae575080806020019051810190612eae9190614f73565b612efa5760405162461bcd60e51b815260206004820152600f60248201527f5452414e534645525f4641494c454400000000000000000000000000000000006044820152606401610c63565b5050505050565b61113881336144ed565b6000828152602081815260408083206001600160a01b038516845290915290205460ff16611479576000828152602081815260408083206001600160a01b03851684529091529020805460ff19166001179055612f653390565b6001600160a01b0316816001600160a01b0316837f2f8788117e7eff1d82e926ec794901d17c78024a50270940304540a733656f0d60405160405180910390a45050565b6000828152602081815260408083206001600160a01b038516845290915290205460ff1615611479576000828152602081815260408083206001600160a01b0385168085529252808320805460ff1916905551339285917ff6391f5c32d9c69d2a47ea670b442974b53935d1edc7fd64eb21e047a839171b9190a45050565b600081613036816004614dbf565b10156130845760405162461bcd60e51b815260206004820152601160248201527f746f55696e7433325f6f766572666c6f770000000000000000000000000000006044820152606401610c63565b61308f826004614dbf565b835110156130df5760405162461bcd60e51b815260206004820152601460248201527f746f55696e7433325f6f75744f66426f756e64730000000000000000000000006044820152606401610c63565b50016004015190565b604080516001600160a01b0385811660248301528481166044830152606480830185905283518084039091018152608490920183526020820180516001600160e01b03166323b872dd60e01b179052915160009283929088169161314c9190614fda565b6000604051808303816000865af19150503d8060008114613189576040519150601f19603f3d011682016040523d82523d6000602084013e61318e565b606091505b50915091508180156131b85750805115806131b85750808060200190518101906131b89190614f73565b6132045760405162461bcd60e51b815260206004820152601460248201527f5452414e534645525f46524f4d5f4641494c45440000000000000000000000006044820152606401610c63565b505050505050565b60065460ff166132475760405162461bcd60e51b8152600401610c63906020808252600490820152636c6f636b60e01b604082015260600190565b6006805460ff191690558260008190036132885760405162461bcd60e51b81526020600482015260026024820152615a3160f01b6044820152606401610c63565b8663ffffffff8716156132985750855b6132a28187613744565b600754604051636a2fb1f560e01b8152600481018790526000916001600160a01b031690636a2fb1f590602401602060405180830381865afa1580156132ec573d6000803e3d6000fd5b505050506040513d601f19601f820116820180604052508101906133109190614dfe565b63ffffffff83166000908152600d602052604081208054929350839290919061333a908490614dbf565b9250508190555080600a60008282546133539190614dbf565b909155505063ffffffff82166000908152600f602090815260408083206001600160a01b038b1684529091529020600281015460ff166133f557600281018054600160ff1990911681179091556017805491820181556000527fc624b66cc0138b8fabc209247f72d758e1cf3343756d543badbf24212bed8c1501805473ffffffffffffffffffffffffffffffffffffffff19166001600160a01b038a161790555b600061ffff86161580159061341257506001600160a01b03871615155b801561342357506127108661ffff16105b156135665761271061343961ffff8816856150fc565b6134439190615113565b905061344f8184614deb565b60075460405163cdf6800960e01b8152600481018390529194506000916001600160a01b039091169063cdf6800990602401602060405180830381865afa15801561349e573d6000803e3d6000fd5b505050506040513d601f19601f820116820180604052508101906134c29190614dfe565b9050808360000160008282546134d89190614dbf565b92505081905550838360010160008282546134f39190614dbf565b909155505063ffffffff85166000908152600f602090815260408083206001600160a01b038c168452909152902061352b828b614deb565b81600001600082825461353e9190614dbf565b92505081905550828160010160008282546135599190614dbf565b9091555061359b92505050565b8782600001600082825461357a9190614dbf565b92505081905550828260010160008282546135959190614dbf565b90915550505b6040805163ffffffff8d811682528c1660208201526001600160a01b038b811682840152606082018b905260808201869052891660a082015260c0810183905290517f927470b6d7513b8823f6edf25bfa0c3728c09ee0a83039a78ea0b073ea8fcd0b9181900360e00190a150506006805460ff19166001179055505050505050505050565b60008061362c611765565b84111561367b5760405162461bcd60e51b815260206004820152601860248201527f536e617073686f743a206e6f6e6578697374656e7420696400000000000000006044820152606401610c63565b8254158015906136b457508254839061369690600190614deb565b815481106136a6576136a6614d93565b906000526020600020015484115b156136f25782546000906001808601916136ce9190614deb565b815481106136de576136de614d93565b9060005260206000200154915091506116ba565b60006136fe8486614560565b845490915081106137165760008092509250506116ba565b600184600101828154811061372d5761372d614d93565b906000526020600020015492509250509250929050565b613757600b613752600a5490565b614670565b63ffffffff82166000908152600e60209081526040808320600d909252909120546137829190614670565b63ffffffff821660008181526010602090815260408083206001600160a01b038616808552908352818420948452600f8352818420908452825291829020825160608101845281548152600182015492810183905260029091015460ff1615159201919091526114799190614670565b600081613800816014614dbf565b101561384e5760405162461bcd60e51b815260206004820152601260248201527f746f416464726573735f6f766572666c6f7700000000000000000000000000006044820152606401610c63565b613859826014614dbf565b835110156138a95760405162461bcd60e51b815260206004820152601560248201527f746f416464726573735f6f75744f66426f756e647300000000000000000000006044820152606401610c63565b50016014015190565b6006546138cf9061010090046001600160a01b03163330866130e8565b612efa85853386868661320c565b6060816138eb81601f614dbf565b101561392a5760405162461bcd60e51b815260206004820152600e60248201526d736c6963655f6f766572666c6f7760901b6044820152606401610c63565b826139358382614dbf565b10156139745760405162461bcd60e51b815260206004820152600e60248201526d736c6963655f6f766572666c6f7760901b6044820152606401610c63565b61397e8284614dbf565b845110156139ce5760405162461bcd60e51b815260206004820152601160248201527f736c6963655f6f75744f66426f756e64730000000000000000000000000000006044820152606401610c63565b6060821580156139ed5760405191506000825260208201604052613a37565b6040519150601f8416801560200281840101858101878315602002848b0101015b81831015613a26578051835260209283019201613a0e565b5050858452601f01601f1916604052505b50949350505050565b60065460ff16613a7b5760405162461bcd60e51b8152600401610c63906020808252600490820152636c6f636b60e01b604082015260600190565b6006805460ff19169055816000819003613abc5760405162461bcd60e51b81526020600482015260026024820152615a3160f01b6044820152606401610c63565b8463ffffffff851615613acc5750835b33613ad78282613744565b60075460405163cdf6800960e01b8152600481018790526000916001600160a01b03169063cdf6800990602401602060405180830381865afa158015613b21573d6000803e3d6000fd5b505050506040513d601f19601f82011682018060405250810190613b459190614dfe565b63ffffffff84166000908152600f602090815260408083206001600160a01b038716845290915290209091508515613c46576001810154600754604051636a2fb1f560e01b8152600481018990526001600160a01b0390911690636a2fb1f590602401602060405180830381865afa158015613bc5573d6000803e3d6000fd5b505050506040513d601f19601f82011682018060405250810190613be99190614dfe565b613bf39089614dbf565b1115613c415760405162461bcd60e51b815260206004820152600d60248201527f756e7374616b655f6572725f31000000000000000000000000000000000000006044820152606401610c63565b613c9a565b8060010154871115613c9a5760405162461bcd60e51b815260206004820152600d60248201527f756e7374616b655f6572725f32000000000000000000000000000000000000006044820152606401610c63565b86816001016000828254613cae9190614deb565b90915550508054821115613cc55760008155613cdf565b81816000016000828254613cd99190614deb565b90915550505b63ffffffff84166000908152600d602052604081208054899290613d04908490614deb565b9250508190555086600a6000828254613d1d9190614deb565b909155505060085460408051636577b27360e11b815290516000926001600160a01b03169163caef64e69160048083019260209291908290030181865afa158015613d6c573d6000803e3d6000fd5b505050506040513d601f19601f82011682018060405250810190613d909190614dfe565b63ffffffff861660009081526011602090815260408083206001600160a01b03891684529091529081902081516060810190925291925080613dd28443614dbf565b63ffffffff90811682526001600160801b0380881660208085019190915260006040948501819052865460018101885596815281812086519701805487840151978701511515600160a01b0260ff60a01b19989095166401000000000273ffffffffffffffffffffffffffffffffffffffff199091169886169890981797909717959095169190911790945588168252601383528082206001600160a01b03881683529092529081208054859290613e8b908490614dbf565b909155505063ffffffff851660009081526014602052604081208054859290613eb5908490614dbf565b90915550506001600160a01b03841660009081526015602052604081208054859290613ee2908490614dbf565b90915550506040805163ffffffff8c811682528b1660208201526001600160a01b0386168183015260608101859052608081018a905290517f201778b9e426c04a92e6d1bf5a4d1705c4a30568ae25eef5fa5231092af295259181900360a00190a150506006805460ff191660011790555050505050505050565b60065460009060ff16613f9b5760405162461bcd60e51b8152600401610c63906020808252600490820152636c6f636b60e01b604082015260600190565b6006805460ff191690558563ffffffff861615613fb55750845b613fbf8186613744565b63ffffffff811660009081526011602090815260408083206001600160a01b0389168452909152812054806140235760405162461bcd60e51b815260206004820152600a6024820152696e6f20756e7374616b6560b01b6044820152606401610c63565b8461402e8783614deb565b101561407c5760405162461bcd60e51b815260206004820152601860248201527f6e2065786365656473206e756d206f662070656e64696e6700000000000000006044820152606401610c63565b60006140888688614dbf565b90505b8087101561417e5763ffffffff841660009081526011602090815260408083206001600160a01b038c16845290915281208054899081106140ce576140ce614d93565b6000918252602090912001805490915064010000000081046001600160801b031690600160a01b900460ff16156141475760405162461bcd60e51b815260206004820152601260248201527f616c7265616479207769746864726177616c00000000000000000000000000006044820152606401610c63565b801561415a576141578186614dbf565b94505b50805460ff60a01b1916600160a01b1790558661417681614dd2565b97505061408b565b600083116141ce5760405162461bcd60e51b815260206004820152601760248201527f6e6f2076616c69642072657374616b6520616d6f756e740000000000000000006044820152606401610c63565b600754604051636a2fb1f560e01b8152600481018590526000916001600160a01b031690636a2fb1f590602401602060405180830381865afa158015614218573d6000803e3d6000fd5b505050506040513d601f19601f8201168201806040525081019061423c9190614dfe565b63ffffffff86166000908152600f602090815260408083206001600160a01b038e16845290915281208054929350918691839161427a908490614dbf565b92505081905550818160010160008282546142959190614dbf565b909155505063ffffffff86166000908152600d6020526040812080548492906142bf908490614dbf565b9250508190555081600a60008282546142d89190614dbf565b909155505063ffffffff861660009081526013602090815260408083206001600160a01b038e16845290915281208054879290614316908490614deb565b909155505063ffffffff861660009081526014602052604081208054879290614340908490614deb565b90915550506001600160a01b038a166000908152601560205260408120805487929061436d908490614deb565b909155505063ffffffff861660009081526012602090815260408083206001600160a01b038e168452909152812080548a92906143ab908490614dbf565b90915550506040805163ffffffff8e811682528d1660208201526001600160a01b038c1681830152606081018790526080810184905290517f8106ff2b1b597b91194fe4d8ede5c73f76baaad464c7020d87b22ea5a716157f9181900360a00190a1600196505050505050506006805460ff1916600117905595945050505050565b60008161443b816020614dbf565b10156144895760405162461bcd60e51b815260206004820152601260248201527f746f55696e743235365f6f766572666c6f7700000000000000000000000000006044820152606401610c63565b614494826020614dbf565b835110156144e45760405162461bcd60e51b815260206004820152601560248201527f746f55696e743235365f6f75744f66426f756e647300000000000000000000006044820152606401610c63565b50016020015190565b6000828152602081815260408083206001600160a01b038516845290915290205460ff166114795761451e816146c5565b6145298360206146d7565b60405160200161453a929190615135565b60408051601f198184030181529082905262461bcd60e51b8252610c6391600401614bac565b8154600090810361457357506000610c22565b8254839061458390600190614deb565b8154811061459357614593614d93565b906000526020600020015482106145b95782546145b290600190614deb565b9050610c22565b826000815481106145cc576145cc614d93565b90600052602060002001548210156145e657506000610c22565b825460009081906145f990600190614deb565b90505b8181111561466857600060026146128484614dbf565b61461d906001614dbf565b6146279190615113565b90508486828154811061463c5761463c614d93565b90600052602060002001541161465457809250614662565b61465f600182614deb565b91505b506145fc565b509392505050565b600061467a611765565b8354909150158061469257508061469084614880565b105b156113ec578254600180820185556000858152602080822090930193909355938401805494850181558252902090910155565b6060610c226001600160a01b03831660145b606060006146e68360026150fc565b6146f1906002614dbf565b67ffffffffffffffff81111561470957614709614c62565b6040519080825280601f01601f191660200182016040528015614733576020820181803683370190505b509050600360fc1b8160008151811061474e5761474e614d93565b60200101906001600160f81b031916908160001a905350600f60fb1b8160018151811061477d5761477d614d93565b60200101906001600160f81b031916908160001a90535060006147a18460026150fc565b6147ac906001614dbf565b90505b6001811115614831577f303132333435363738396162636465660000000000000000000000000000000085600f16601081106147ed576147ed614d93565b1a60f81b82828151811061480357614803614d93565b60200101906001600160f81b031916908160001a90535060049490941c9361482a816151b6565b90506147af565b50831561264b5760405162461bcd60e51b815260206004820181905260248201527f537472696e67733a20686578206c656e67746820696e73756666696369656e746044820152606401610c63565b8054600090810361489357506000919050565b815482906148a390600190614deb565b815481106148b3576148b3614d93565b90600052602060002001549050919050565b6000602082840312156148d757600080fd5b81356001600160e01b03198116811461264b57600080fd5b63ffffffff8116811461113857600080fd5b801515811461113857600080fd5b6000806040838503121561492257600080fd5b823561492d816148ef565b9150602083013561493d81614901565b809150509250929050565b6001600160a01b038116811461113857600080fd5b60006020828403121561496f57600080fd5b813561264b81614948565b6000806040838503121561498d57600080fd5b8235614998816148ef565b9150602083013561493d81614948565b6000602082840312156149ba57600080fd5b5035919050565b6000806000606084860312156149d657600080fd5b83356149e1816148ef565b925060208401356149f181614948565b929592945050506040919091013590565b60008060408385031215614a1557600080fd5b82359150602083013561493d81614948565b600080600080600060808688031215614a3f57600080fd5b8535614a4a81614948565b94506020860135614a5a81614948565b935060408601359250606086013567ffffffffffffffff80821115614a7e57600080fd5b818801915088601f830112614a9257600080fd5b813581811115614aa157600080fd5b896020828501011115614ab357600080fd5b9699959850939650602001949392505050565b6020808252825182820181905260009190848201906040850190845b81811015614b075783516001600160a01b031683529284019291840191600101614ae2565b50909695505050505050565b60008060408385031215614b2657600080fd5b8235614b31816148ef565b946020939093013593505050565b600060208284031215614b5157600080fd5b813561264b816148ef565b60005b83811015614b77578181015183820152602001614b5f565b50506000910152565b60008151808452614b98816020860160208601614b5c565b601f01601f19169290920160200192915050565b60208152600061264b6020830184614b80565b60008060008060808587031215614bd557600080fd5b843593506020850135614be7816148ef565b92506040850135614bf781614948565b9396929550929360600135925050565b600080600080600060a08688031215614c1f57600080fd5b853594506020860135614c31816148ef565b93506040860135614c4181614948565b92506060860135614c5181614948565b949793965091946080013592915050565b634e487b7160e01b600052604160045260246000fd5b604051601f8201601f1916810167ffffffffffffffff81118282101715614ca157614ca1614c62565b604052919050565b60008060408385031215614cbc57600080fd5b8235614cc7816148ef565b915060208381013567ffffffffffffffff80821115614ce557600080fd5b818601915086601f830112614cf957600080fd5b813581811115614d0b57614d0b614c62565b614d1d601f8201601f19168501614c78565b91508082528784828501011115614d3357600080fd5b80848401858401376000848284010152508093505050509250929050565b600080600060608486031215614d6657600080fd5b8335614d71816148ef565b9250602084013591506040840135614d8881614901565b809150509250925092565b634e487b7160e01b600052603260045260246000fd5b634e487b7160e01b600052601160045260246000fd5b80820180821115610c2257610c22614da9565b600060018201614de457614de4614da9565b5060010190565b81810381811115610c2257610c22614da9565b600060208284031215614e1057600080fd5b5051919050565b63ffffffff818116838216019080821115614e3457614e34614da9565b5092915050565b600181811c90821680614e4f57607f821691505b602082108103611dee57634e487b7160e01b600052602260045260246000fd5b6000602080835260008454614e8381614e3b565b80848701526040600180841660008114614ea45760018114614ebe57614eec565b60ff1985168984015283151560051b890183019550614eec565b896000528660002060005b85811015614ee45781548b8201860152908301908801614ec9565b8a0184019650505b509398975050505050505050565b600060608284031215614f0c57600080fd5b6040516060810181811067ffffffffffffffff82111715614f2f57614f2f614c62565b6040528251614f3d81614948565b81526020830151614f4d816148ef565b6020820152604083015161ffff81168114614f6757600080fd5b60408201529392505050565b600060208284031215614f8557600080fd5b815161264b81614901565b60008351614fa2818460208801614b5c565b60f09390931b7fffff000000000000000000000000000000000000000000000000000000000000169190920190815260020192915050565b60008251614fec818460208701614b5c565b9190910192915050565b601f8211156113ec57600081815260208120601f850160051c8101602086101561501d5750805b601f850160051c820191505b8181101561320457828155600101615029565b815167ffffffffffffffff81111561505657615056614c62565b61506a816150648454614e3b565b84614ff6565b602080601f83116001811461509f57600084156150875750858301515b600019600386901b1c1916600185901b178555613204565b600085815260208120601f198616915b828110156150ce578886015182559484019460019091019084016150af565b50858210156150ec5787850151600019600388901b60f8161c191681555b5050505050600190811b01905550565b8082028115828204841417610c2257610c22614da9565b60008261513057634e487b7160e01b600052601260045260246000fd5b500490565b7f416363657373436f6e74726f6c3a206163636f756e742000000000000000000081526000835161516d816017850160208801614b5c565b7f206973206d697373696e6720726f6c652000000000000000000000000000000060179184019182015283516151aa816028840160208801614b5c565b01602801949350505050565b6000816151c5576151c5614da9565b50600019019056fea164736f6c6343000812000a",
  "linkReferences": {
    "contracts/libraries/LibOperator.sol": {
      "LibOperator": [
        {
          "length": 20,
          "start": 5931
        },
        {
          "length": 20,
          "start": 10945
        }
      ]
    }
  },
  "deployedLinkReferences": {
    "contracts/libraries/LibOperator.sol": {
      "LibOperator": [
        {
          "length": 20,
          "start": 5886
        },
        {
          "length": 20,
          "start": 10900
        }
      ]
    }
  }
}