{
  "_format": "hh-sol-artifact-1",
  "contractName": "Candidate",
  "sourceName": "contracts/Candidate.sol",
  "abi": [
    {
      "inputs": [],
      "stateMutability": "nonpayable",
      "type": "constructor"
    },
    {
      "anonymous": false,
      "inputs": [
        {
          "indexed": false,
          "internalType": "uint32",
          "name": "_index",
          "type": "uint32"
        },
        {
          "indexed": false,
          "internalType": "address",
          "name": "sender",
          "type": "address"
        },
        {
          "indexed": false,
          "internalType": "uint256",
          "name": "amount",
          "type": "uint256"
        },
        {
          "indexed": false,
          "internalType": "uint256",
          "name": "lton",
          "type": "uint256"
        }
      ],
      "name": "Restaked",
      "type": "event"
    },
    {
      "anonymous": false,
      "inputs": [
        {
          "indexed": true,
          "internalType": "bytes32",
          "name": "role",
          "type": "bytes32"
        },
        {
          "indexed": true,
          "internalType": "bytes32",
          "name": "previousAdminRole",
          "type": "bytes32"
        },
        {
          "indexed": true,
          "internalType": "bytes32",
          "name": "newAdminRole",
          "type": "bytes32"
        }
      ],
      "name": "RoleAdminChanged",
      "type": "event"
    },
    {
      "anonymous": false,
      "inputs": [
        {
          "indexed": true,
          "internalType": "bytes32",
          "name": "role",
          "type": "bytes32"
        },
        {
          "indexed": true,
          "internalType": "address",
          "name": "account",
          "type": "address"
        },
        {
          "indexed": true,
          "internalType": "address",
          "name": "sender",
          "type": "address"
        }
      ],
      "name": "RoleGranted",
      "type": "event"
    },
    {
      "anonymous": false,
      "inputs": [
        {
          "indexed": true,
          "internalType": "bytes32",
          "name": "role",
          "type": "bytes32"
        },
        {
          "indexed": true,
          "internalType": "address",
          "name": "account",
          "type": "address"
        },
        {
          "indexed": true,
          "internalType": "address",
          "name": "sender",
          "type": "address"
        }
      ],
      "name": "RoleRevoked",
      "type": "event"
    },
    {
      "anonymous": false,
      "inputs": [
        {
          "indexed": false,
          "internalType": "uint32",
          "name": "_index",
          "type": "uint32"
        },
        {
          "indexed": false,
          "internalType": "address",
          "name": "sender",
          "type": "address"
        },
        {
          "indexed": false,
          "internalType": "uint256",
          "name": "amount",
          "type": "uint256"
        },
        {
          "indexed": false,
          "internalType": "uint256",
          "name": "lton",
          "type": "uint256"
        },
        {
          "indexed": false,
          "internalType": "address",
          "name": "commissionTo",
          "type": "address"
        },
        {
          "indexed": false,
          "internalType": "uint16",
          "name": "commission",
          "type": "uint16"
        }
      ],
      "name": "Staked",
      "type": "event"
    },
    {
      "anonymous": false,
      "inputs": [
        {
          "indexed": false,
          "internalType": "uint32",
          "name": "_index",
          "type": "uint32"
        },
        {
          "indexed": false,
          "internalType": "address",
          "name": "sender",
          "type": "address"
        },
        {
          "indexed": false,
          "internalType": "uint256",
          "name": "amount",
          "type": "uint256"
        },
        {
          "indexed": false,
          "internalType": "uint256",
          "name": "lton",
          "type": "uint256"
        }
      ],
      "name": "Unstaked",
      "type": "event"
    },
    {
      "anonymous": false,
      "inputs": [
        {
          "indexed": false,
          "internalType": "uint32",
          "name": "_index",
          "type": "uint32"
        },
        {
          "indexed": false,
          "internalType": "address",
          "name": "sender",
          "type": "address"
        },
        {
          "indexed": false,
          "internalType": "uint256",
          "name": "amount",
          "type": "uint256"
        }
      ],
      "name": "Withdrawal",
      "type": "event"
    },
    {
      "inputs": [],
      "name": "ADMIN_ROLE",
      "outputs": [
        {
          "internalType": "bytes32",
          "name": "",
          "type": "bytes32"
        }
      ],
      "stateMutability": "view",
      "type": "function"
    },
    {
      "inputs": [],
      "name": "DEFAULT_ADMIN_ROLE",
      "outputs": [
        {
          "internalType": "bytes32",
          "name": "",
          "type": "bytes32"
        }
      ],
      "stateMutability": "view",
      "type": "function"
    },
    {
      "inputs": [],
      "name": "POLICY_ROLE",
      "outputs": [
        {
          "internalType": "bytes32",
          "name": "",
          "type": "bytes32"
        }
      ],
      "stateMutability": "view",
      "type": "function"
    },
    {
      "inputs": [
        {
          "internalType": "address",
          "name": "account",
          "type": "address"
        }
      ],
      "name": "addAdmin",
      "outputs": [],
      "stateMutability": "nonpayable",
      "type": "function"
    },
    {
      "inputs": [
        {
          "internalType": "address",
          "name": "",
          "type": "address"
        }
      ],
      "name": "aliveImplementation",
      "outputs": [
        {
          "internalType": "bool",
          "name": "",
          "type": "bool"
        }
      ],
      "stateMutability": "view",
      "type": "function"
    },
    {
      "inputs": [
        {
          "internalType": "uint32",
          "name": "layerIndex",
          "type": "uint32"
        },
        {
          "internalType": "address",
          "name": "account",
          "type": "address"
        }
      ],
      "name": "amountOfPendings",
      "outputs": [
        {
          "internalType": "uint256",
          "name": "amount",
          "type": "uint256"
        },
        {
          "internalType": "uint32",
          "name": "startIndex",
          "type": "uint32"
        },
        {
          "internalType": "uint32",
          "name": "len",
          "type": "uint32"
        },
        {
          "internalType": "uint32",
          "name": "nextWithdrawableBlockNumber",
          "type": "uint32"
        }
      ],
      "stateMutability": "view",
      "type": "function"
    },
    {
      "inputs": [
        {
          "internalType": "uint32",
          "name": "_index",
          "type": "uint32"
        },
        {
          "internalType": "address",
          "name": "account",
          "type": "address"
        }
      ],
      "name": "availableWithdraw",
      "outputs": [
        {
          "internalType": "uint256",
          "name": "amount",
          "type": "uint256"
        },
        {
          "internalType": "uint32",
          "name": "startIndex",
          "type": "uint32"
        },
        {
          "internalType": "uint32",
          "name": "len",
          "type": "uint32"
        }
      ],
      "stateMutability": "view",
      "type": "function"
    },
    {
      "inputs": [
        {
          "internalType": "uint32",
          "name": "_index",
          "type": "uint32"
        },
        {
          "internalType": "address",
          "name": "account",
          "type": "address"
        }
      ],
      "name": "balanceOf",
      "outputs": [
        {
          "internalType": "uint256",
          "name": "amount",
          "type": "uint256"
        }
      ],
      "stateMutability": "view",
      "type": "function"
    },
    {
      "inputs": [
        {
          "internalType": "uint32",
          "name": "_index",
          "type": "uint32"
        },
        {
          "internalType": "address",
          "name": "account",
          "type": "address"
        }
      ],
      "name": "balanceOfLton",
      "outputs": [
        {
          "internalType": "uint256",
          "name": "amount",
          "type": "uint256"
        }
      ],
      "stateMutability": "view",
      "type": "function"
    },
    {
      "inputs": [
        {
          "internalType": "uint32",
          "name": "_index",
          "type": "uint32"
        }
      ],
      "name": "balanceOfLton",
      "outputs": [
        {
          "internalType": "uint256",
          "name": "amount",
          "type": "uint256"
        }
      ],
      "stateMutability": "view",
      "type": "function"
    },
    {
      "inputs": [
        {
          "internalType": "uint32",
          "name": "_candidateIndex",
          "type": "uint32"
        },
        {
          "internalType": "bytes",
          "name": "_info",
          "type": "bytes"
        }
      ],
      "name": "create",
      "outputs": [
        {
          "internalType": "bool",
          "name": "",
          "type": "bool"
        }
      ],
      "stateMutability": "nonpayable",
      "type": "function"
    },
    {
      "inputs": [
        {
          "internalType": "uint32",
          "name": "_index",
          "type": "uint32"
        }
      ],
      "name": "existedIndex",
      "outputs": [
        {
          "internalType": "bool",
          "name": "",
          "type": "bool"
        }
      ],
      "stateMutability": "view",
      "type": "function"
    },
    {
      "inputs": [
        {
          "internalType": "uint32",
          "name": "_index",
          "type": "uint32"
        }
      ],
      "name": "getCandidateInfo",
      "outputs": [
        {
          "components": [
            {
              "internalType": "address",
              "name": "operator",
              "type": "address"
            },
            {
              "internalType": "uint32",
              "name": "sequencerIndex",
              "type": "uint32"
            },
            {
              "internalType": "uint16",
              "name": "commission",
              "type": "uint16"
            }
          ],
          "internalType": "struct LibOperator.Info",
          "name": "info",
          "type": "tuple"
        }
      ],
      "stateMutability": "view",
      "type": "function"
    },
    {
      "inputs": [
        {
          "internalType": "uint32",
          "name": "_index",
          "type": "uint32"
        }
      ],
      "name": "getCandidateKey",
      "outputs": [
        {
          "internalType": "bytes32",
          "name": "layerKey_",
          "type": "bytes32"
        }
      ],
      "stateMutability": "view",
      "type": "function"
    },
    {
      "inputs": [
        {
          "internalType": "uint32",
          "name": "_index",
          "type": "uint32"
        },
        {
          "internalType": "address",
          "name": "account",
          "type": "address"
        }
      ],
      "name": "getLayerStakes",
      "outputs": [
        {
          "components": [
            {
              "internalType": "uint256",
              "name": "stakePrincipal",
              "type": "uint256"
            },
            {
              "internalType": "uint256",
              "name": "bondPrincipal",
              "type": "uint256"
            },
            {
              "internalType": "uint256",
              "name": "stakelton",
              "type": "uint256"
            },
            {
              "internalType": "uint256",
              "name": "bondlton",
              "type": "uint256"
            },
            {
              "internalType": "bool",
              "name": "stake",
              "type": "bool"
            },
            {
              "internalType": "uint16",
              "name": "fwFee",
              "type": "uint16"
            }
          ],
          "internalType": "struct LibStake.StakeInfo",
          "name": "info",
          "type": "tuple"
        }
      ],
      "stateMutability": "view",
      "type": "function"
    },
    {
      "inputs": [
        {
          "internalType": "uint32",
          "name": "_index",
          "type": "uint32"
        },
        {
          "internalType": "address",
          "name": "account",
          "type": "address"
        }
      ],
      "name": "getPendingUnstakedAmount",
      "outputs": [
        {
          "internalType": "uint256",
          "name": "",
          "type": "uint256"
        }
      ],
      "stateMutability": "view",
      "type": "function"
    },
    {
      "inputs": [
        {
          "internalType": "bytes32",
          "name": "role",
          "type": "bytes32"
        }
      ],
      "name": "getRoleAdmin",
      "outputs": [
        {
          "internalType": "bytes32",
          "name": "",
          "type": "bytes32"
        }
      ],
      "stateMutability": "view",
      "type": "function"
    },
    {
      "inputs": [],
      "name": "getStakeAccountList",
      "outputs": [
        {
          "internalType": "address[]",
          "name": "",
          "type": "address[]"
        }
      ],
      "stateMutability": "view",
      "type": "function"
    },
    {
      "inputs": [],
      "name": "getTotalLton",
      "outputs": [
        {
          "internalType": "uint256",
          "name": "",
          "type": "uint256"
        }
      ],
      "stateMutability": "view",
      "type": "function"
    },
    {
      "inputs": [
        {
          "internalType": "bytes32",
          "name": "role",
          "type": "bytes32"
        },
        {
          "internalType": "address",
          "name": "account",
          "type": "address"
        }
      ],
      "name": "grantRole",
      "outputs": [],
      "stateMutability": "nonpayable",
      "type": "function"
    },
    {
      "inputs": [
        {
          "internalType": "bytes32",
          "name": "role",
          "type": "bytes32"
        },
        {
          "internalType": "address",
          "name": "account",
          "type": "address"
        }
      ],
      "name": "hasRole",
      "outputs": [
        {
          "internalType": "bool",
          "name": "",
          "type": "bool"
        }
      ],
      "stateMutability": "view",
      "type": "function"
    },
    {
      "inputs": [
        {
          "internalType": "address",
          "name": "account",
          "type": "address"
        }
      ],
      "name": "isAdmin",
      "outputs": [
        {
          "internalType": "bool",
          "name": "",
          "type": "bool"
        }
      ],
      "stateMutability": "view",
      "type": "function"
    },
    {
      "inputs": [
        {
          "internalType": "uint32",
          "name": "_index",
          "type": "uint32"
        }
      ],
      "name": "layer2Deposits",
      "outputs": [
        {
          "internalType": "uint256",
          "name": "amount",
          "type": "uint256"
        }
      ],
      "stateMutability": "view",
      "type": "function"
    },
    {
      "inputs": [],
      "name": "layer2Manager",
      "outputs": [
        {
          "internalType": "address",
          "name": "",
          "type": "address"
        }
      ],
      "stateMutability": "view",
      "type": "function"
    },
    {
      "inputs": [
        {
          "internalType": "uint32",
          "name": "",
          "type": "uint32"
        }
      ],
      "name": "layerInfo",
      "outputs": [
        {
          "internalType": "bytes",
          "name": "",
          "type": "bytes"
        }
      ],
      "stateMutability": "view",
      "type": "function"
    },
    {
      "inputs": [
        {
          "internalType": "uint32",
          "name": "",
          "type": "uint32"
        }
      ],
      "name": "layerStakedLton",
      "outputs": [
        {
          "internalType": "uint256",
          "name": "",
          "type": "uint256"
        }
      ],
      "stateMutability": "view",
      "type": "function"
    },
    {
      "inputs": [
        {
          "internalType": "uint32",
          "name": "",
          "type": "uint32"
        },
        {
          "internalType": "address",
          "name": "",
          "type": "address"
        }
      ],
      "name": "layerStakes",
      "outputs": [
        {
          "internalType": "uint256",
          "name": "stakePrincipal",
          "type": "uint256"
        },
        {
          "internalType": "uint256",
          "name": "bondPrincipal",
          "type": "uint256"
        },
        {
          "internalType": "uint256",
          "name": "stakelton",
          "type": "uint256"
        },
        {
          "internalType": "uint256",
          "name": "bondlton",
          "type": "uint256"
        },
        {
          "internalType": "bool",
          "name": "stake",
          "type": "bool"
        },
        {
          "internalType": "uint16",
          "name": "fwFee",
          "type": "uint16"
        }
      ],
      "stateMutability": "view",
      "type": "function"
    },
    {
      "inputs": [
        {
          "internalType": "uint32",
          "name": "layerIndex",
          "type": "uint32"
        },
        {
          "internalType": "address",
          "name": "account",
          "type": "address"
        }
      ],
      "name": "numberOfPendings",
      "outputs": [
        {
          "internalType": "uint256",
          "name": "totalRequests",
          "type": "uint256"
        },
        {
          "internalType": "uint256",
          "name": "withdrawIndex",
          "type": "uint256"
        },
        {
          "internalType": "uint256",
          "name": "pendingLength",
          "type": "uint256"
        }
      ],
      "stateMutability": "view",
      "type": "function"
    },
    {
      "inputs": [
        {
          "internalType": "address",
          "name": "sender",
          "type": "address"
        },
        {
          "internalType": "address",
          "name": "spender",
          "type": "address"
        },
        {
          "internalType": "uint256",
          "name": "amount",
          "type": "uint256"
        },
        {
          "internalType": "bytes",
          "name": "data",
          "type": "bytes"
        }
      ],
      "name": "onApprove",
      "outputs": [
        {
          "internalType": "bool",
          "name": "",
          "type": "bool"
        }
      ],
      "stateMutability": "nonpayable",
      "type": "function"
    },
    {
      "inputs": [
        {
          "internalType": "uint32",
          "name": "_index",
          "type": "uint32"
        }
      ],
      "name": "operator",
      "outputs": [
        {
          "internalType": "address",
          "name": "operator_",
          "type": "address"
        }
      ],
      "stateMutability": "view",
      "type": "function"
    },
    {
      "inputs": [
        {
          "internalType": "uint32",
          "name": "",
          "type": "uint32"
        },
        {
          "internalType": "address",
          "name": "",
          "type": "address"
        }
      ],
      "name": "operators",
      "outputs": [
        {
          "internalType": "uint32",
          "name": "",
          "type": "uint32"
        }
      ],
      "stateMutability": "view",
      "type": "function"
    },
    {
      "inputs": [],
      "name": "pauseProxy",
      "outputs": [
        {
          "internalType": "bool",
          "name": "",
          "type": "bool"
        }
      ],
      "stateMutability": "view",
      "type": "function"
    },
    {
      "inputs": [
        {
          "internalType": "uint32",
          "name": "",
          "type": "uint32"
        },
        {
          "internalType": "address",
          "name": "",
          "type": "address"
        }
      ],
      "name": "pendingUnstaked",
      "outputs": [
        {
          "internalType": "uint256",
          "name": "",
          "type": "uint256"
        }
      ],
      "stateMutability": "view",
      "type": "function"
    },
    {
      "inputs": [
        {
          "internalType": "address",
          "name": "",
          "type": "address"
        }
      ],
      "name": "pendingUnstakedAccount",
      "outputs": [
        {
          "internalType": "uint256",
          "name": "",
          "type": "uint256"
        }
      ],
      "stateMutability": "view",
      "type": "function"
    },
    {
      "inputs": [
        {
          "internalType": "uint32",
          "name": "",
          "type": "uint32"
        }
      ],
      "name": "pendingUnstakedLayer2",
      "outputs": [
        {
          "internalType": "uint256",
          "name": "",
          "type": "uint256"
        }
      ],
      "stateMutability": "view",
      "type": "function"
    },
    {
      "inputs": [
        {
          "internalType": "uint256",
          "name": "",
          "type": "uint256"
        }
      ],
      "name": "proxyImplementation",
      "outputs": [
        {
          "internalType": "address",
          "name": "",
          "type": "address"
        }
      ],
      "stateMutability": "view",
      "type": "function"
    },
    {
      "inputs": [
        {
          "internalType": "address",
          "name": "account",
          "type": "address"
        }
      ],
      "name": "removeAdmin",
      "outputs": [],
      "stateMutability": "nonpayable",
      "type": "function"
    },
    {
      "inputs": [
        {
          "internalType": "bytes32",
          "name": "role",
          "type": "bytes32"
        },
        {
          "internalType": "address",
          "name": "account",
          "type": "address"
        }
      ],
      "name": "renounceRole",
      "outputs": [],
      "stateMutability": "nonpayable",
      "type": "function"
    },
    {
      "inputs": [
        {
          "internalType": "uint32",
          "name": "_index",
          "type": "uint32"
        }
      ],
      "name": "restake",
      "outputs": [],
      "stateMutability": "nonpayable",
      "type": "function"
    },
    {
      "inputs": [
        {
          "internalType": "uint32",
          "name": "_index",
          "type": "uint32"
        },
        {
          "internalType": "uint256",
          "name": "n",
          "type": "uint256"
        }
      ],
      "name": "restakeMulti",
      "outputs": [],
      "stateMutability": "nonpayable",
      "type": "function"
    },
    {
      "inputs": [
        {
          "internalType": "bytes32",
          "name": "role",
          "type": "bytes32"
        },
        {
          "internalType": "address",
          "name": "account",
          "type": "address"
        }
      ],
      "name": "revokeRole",
      "outputs": [],
      "stateMutability": "nonpayable",
      "type": "function"
    },
    {
      "inputs": [],
      "name": "seigManagerV2",
      "outputs": [
        {
          "internalType": "address",
          "name": "",
          "type": "address"
        }
      ],
      "stateMutability": "view",
      "type": "function"
    },
    {
      "inputs": [
        {
          "internalType": "bytes4",
          "name": "",
          "type": "bytes4"
        }
      ],
      "name": "selectorImplementation",
      "outputs": [
        {
          "internalType": "address",
          "name": "",
          "type": "address"
        }
      ],
      "stateMutability": "view",
      "type": "function"
    },
    {
      "inputs": [
        {
          "internalType": "uint32",
          "name": "_index",
          "type": "uint32"
        },
        {
          "internalType": "uint256",
          "name": "amount",
          "type": "uint256"
        }
      ],
      "name": "stake",
      "outputs": [],
      "stateMutability": "nonpayable",
      "type": "function"
    },
    {
      "inputs": [
        {
          "internalType": "uint256",
          "name": "",
          "type": "uint256"
        }
      ],
      "name": "stakeAccountList",
      "outputs": [
        {
          "internalType": "address",
          "name": "",
          "type": "address"
        }
      ],
      "stateMutability": "view",
      "type": "function"
    },
    {
      "inputs": [
        {
          "internalType": "bytes4",
          "name": "interfaceId",
          "type": "bytes4"
        }
      ],
      "name": "supportsInterface",
      "outputs": [
        {
          "internalType": "bool",
          "name": "",
          "type": "bool"
        }
      ],
      "stateMutability": "view",
      "type": "function"
    },
    {
      "inputs": [],
      "name": "ton",
      "outputs": [
        {
          "internalType": "address",
          "name": "",
          "type": "address"
        }
      ],
      "stateMutability": "view",
      "type": "function"
    },
    {
      "inputs": [],
      "name": "totalLayer2Deposits",
      "outputs": [
        {
          "internalType": "uint256",
          "name": "amount",
          "type": "uint256"
        }
      ],
      "stateMutability": "view",
      "type": "function"
    },
    {
      "inputs": [],
      "name": "totalStakeAccountList",
      "outputs": [
        {
          "internalType": "uint256",
          "name": "",
          "type": "uint256"
        }
      ],
      "stateMutability": "view",
      "type": "function"
    },
    {
      "inputs": [],
      "name": "totalStakedLton",
      "outputs": [
        {
          "internalType": "uint256",
          "name": "",
          "type": "uint256"
        }
      ],
      "stateMutability": "view",
      "type": "function"
    },
    {
      "inputs": [
        {
          "internalType": "address",
          "name": "newAdmin",
          "type": "address"
        }
      ],
      "name": "transferAdmin",
      "outputs": [],
      "stateMutability": "nonpayable",
      "type": "function"
    },
    {
      "inputs": [
        {
          "internalType": "uint32",
          "name": "_index",
          "type": "uint32"
        },
        {
          "internalType": "uint256",
          "name": "lton_",
          "type": "uint256"
        }
      ],
      "name": "unstake",
      "outputs": [],
      "stateMutability": "nonpayable",
      "type": "function"
    },
    {
      "inputs": [
        {
          "internalType": "uint32",
          "name": "_index",
          "type": "uint32"
        }
      ],
      "name": "withdraw",
      "outputs": [],
      "stateMutability": "nonpayable",
      "type": "function"
    },
    {
      "inputs": [
        {
          "internalType": "uint32",
          "name": "",
          "type": "uint32"
        },
        {
          "internalType": "address",
          "name": "",
          "type": "address"
        }
      ],
      "name": "withdrawalRequestIndex",
      "outputs": [
        {
          "internalType": "uint256",
          "name": "",
          "type": "uint256"
        }
      ],
      "stateMutability": "view",
      "type": "function"
    },
    {
      "inputs": [
        {
          "internalType": "uint32",
          "name": "",
          "type": "uint32"
        },
        {
          "internalType": "address",
          "name": "",
          "type": "address"
        },
        {
          "internalType": "uint256",
          "name": "",
          "type": "uint256"
        }
      ],
      "name": "withdrawalRequests",
      "outputs": [
        {
          "internalType": "uint32",
          "name": "withdrawableBlockNumber",
          "type": "uint32"
        },
        {
          "internalType": "uint128",
          "name": "amount",
          "type": "uint128"
        },
        {
          "internalType": "bool",
          "name": "processed",
          "type": "bool"
        }
      ],
      "stateMutability": "view",
      "type": "function"
    }
  ],
  "bytecode": "0x60806040526006805460ff1916600117905534801561001d57600080fd5b506143348061002d6000396000f3fe608060405234801561001057600080fd5b506004361061036d5760003560e01c806375829def116101d35780639c656e2611610104578063b969fbef116100a2578063d547741f1161007c578063d547741f14610a86578063df2b429014610a99578063ec110d4514610aac578063fde4819714610abf57600080fd5b8063b969fbef14610a46578063b9cab97114610a4e578063cc48b94714610a6e57600080fd5b8063aa9224cd116100de578063aa9224cd146109d4578063b413b37a146109e7578063b6a2f99d146109ef578063b911135f14610a1d57600080fd5b80639c656e2614610923578063a0b2a913146109ac578063a217fddf146109cc57600080fd5b80638afec9fc116101715780638ddd87fe1161014b5780638ddd87fe1461088857806391d14854146108c657806394c89b2c146108fd5780639c2f614f1461091057600080fd5b80638afec9fc1461081a5780638c71762d146108405780638d99e1ca1461087557600080fd5b80637cf1587c116101ad5780637cf1587c146107b65780637d211a1c146107e15780637ec6840f146107f457806387dd8bd01461080757600080fd5b806375829def1461076957806375b238fc1461077c578063763936c7146107a357600080fd5b80634de131ca116102ad57806363a8fd891161024b5780637048027511610225578063704802751461071057806370619cf91461072357806373469a7a14610743578063744a35611461075657600080fd5b806363a8fd89146106a4578063659ab820146106b15780636d1ef103146106d157600080fd5b806350d2a2761161028757806350d2a276146105a3578063550d01a3146105cc5780635e2cfe45146105ef5780635f1b989e1461061a57600080fd5b80634de131ca1461053d5780634e1a264d146105525780634f818d0c1461055b57600080fd5b8063229852461161031a5780632f2ff15d116102f45780632f2ff15d146104fc57806336568abe1461050f5780634273ca161461052257806346bcdb491461053557600080fd5b80632298524614610491578063248a9ca3146104c657806324d7806c146104e957600080fd5b80631785f53c1161034b5780631785f53c146103da5780631ed94495146103ed5780631f760d011461045257600080fd5b806301ffc9a714610372578063118e29d11461039a57806316b5d5bd146103af575b600080fd5b610385610380366004613b3b565b610b05565b60405190151581526020015b60405180910390f35b6103ad6103a8366004613b77565b610b3c565b005b6008546103c2906001600160a01b031681565b6040516001600160a01b039091168152602001610391565b6103ad6103e8366004613ba9565b610bb1565b6104006103fb366004613bc6565b610c3e565b6040516103919190600060c0820190508251825260208301516020830152604083015160408301526060830151606083015260808301511515608083015261ffff60a08401511660a083015292915050565b610465610460366004613bc6565b610cfc565b6040805194855263ffffffff938416602086015291831691840191909152166060820152608001610391565b6104b87ffb5864e8ff833c3cb2d2d08505e82ff02a43554c74a35d4f5a64e8526127831181565b604051908152602001610391565b6104b86104d4366004613bff565b60009081526020819052604090206001015490565b6103856104f7366004613ba9565b610e3a565b6103ad61050a366004613c18565b610e7a565b6103ad61051d366004613c18565b610ea4565b610385610530366004613c3d565b610f2c565b6012546104b8565b6105456110e9565b6040516103919190613cdc565b6104b860095481565b61056e610569366004613b77565b61114b565b6040805182516001600160a01b0316815260208084015163ffffffff16908201529181015161ffff1690820152606001610391565b6103c26105b1366004613b3b565b6004602052600090815260409020546001600160a01b031681565b6103856105da366004613ba9565b60036020526000908152604090205460ff1681565b6104b86105fd366004613bc6565b600e60209081526000928352604080842090915290825290205481565b6104b8610628366004613bc6565b63ffffffff9091166000908152600b602090815260408083206001600160a01b03909416835292815290829020825160c081018452815481526001820154928101929092526002810154928201839052600381015460608301526004015460ff81161515608083015261ffff6101009091041660a09091015290565b6001546103859060ff1681565b6106c46106bf366004613b77565b6111ef565b6040516103919190613d79565b6106e46106df366004613d8c565b611289565b6040805163ffffffff90941684526001600160801b039092166020840152151590820152606001610391565b6103ad61071e366004613ba9565b6112e8565b6104b8610731366004613b77565b600a6020526000908152604090205481565b6007546103c2906001600160a01b031681565b6103ad610764366004613dcd565b611372565b6103ad610777366004613ba9565b6113dd565b6104b87fdf8b4c520ffe197c5343c6f5aec59570151ef9a492f2c624fd45ddde6135ec4281565b6103c26107b1366004613b77565b61153f565b6104b86107c4366004613bc6565b600d60209081526000928352604080842090915290825290205481565b6103856107ef366004613b77565b611600565b6103ad610802366004613dcd565b6116c7565b6104b8610815366004613b77565b61176f565b6104b8610828366004613b77565b63ffffffff166000908152600a602052604090205490565b61085361084e366004613bc6565b61185a565b6040805193845263ffffffff9283166020850152911690820152606001610391565b6104b8610883366004613b77565b611997565b6104b8610896366004613bc6565b63ffffffff82166000908152600e602090815260408083206001600160a01b038516845290915290205492915050565b6103856108d4366004613c18565b6000918252602082815260408084206001600160a01b0393909316845291905290205460ff1690565b6104b861090b366004613bc6565b611a0a565b6103ad61091e366004613dcd565b611af6565b610979610931366004613bc6565b600b602090815260009283526040808420909152908252902080546001820154600283015460038401546004909401549293919290919060ff811690610100900461ffff1686565b6040805196875260208701959095529385019290925260608401521515608083015261ffff1660a082015260c001610391565b6104b86109ba366004613ba9565b60106020526000908152604090205481565b6104b8600081565b6103ad6109e2366004613b77565b611b9b565b6009546104b8565b610a026109fd366004613bc6565b611fb0565b60408051938452602084019290925290820152606001610391565b6103c2610a2b366004613bff565b6002602052600090815260409020546001600160a01b031681565b6104b861200b565b6104b8610a5c366004613b77565b600f6020526000908152604090205481565b6006546103c29061010090046001600160a01b031681565b6103ad610a94366004613c18565b61207e565b610385610aa7366004613e40565b6120a3565b6103c2610aba366004613bff565b6123fc565b610af0610acd366004613bc6565b601360209081526000928352604080842090915290825290205463ffffffff1681565b60405163ffffffff9091168152602001610391565b60006001600160e01b03198216637965db0b60e01b1480610b3657506301ffc9a760e01b6001600160e01b03198316145b92915050565b63ffffffff81166000908152600d602090815260408083203380855292529091205490610b6d908390836001612426565b610bad5760405162461bcd60e51b815260206004820152600c60248201526b534c5f455f52455354414b4560a01b60448201526064015b60405180910390fd5b5050565b610bba33610e3a565b610c115760405162461bcd60e51b815260206004820152602260248201527f41636365737369626c653a2043616c6c6572206973206e6f7420616e2061646d60448201526134b760f11b6064820152608401610ba4565b610c3b7fdf8b4c520ffe197c5343c6f5aec59570151ef9a492f2c624fd45ddde6135ec4282610ea4565b50565b610c7d6040518060c0016040528060008152602001600081526020016000815260200160008152602001600015158152602001600061ffff1681525090565b5063ffffffff9091166000908152600b602090815260408083206001600160a01b03909416835292815290829020825160c081018452815481526001820154928101929092526002810154928201929092526003820154606082015260049091015460ff81161515608083015261ffff6101009091041660a082015290565b63ffffffff8083166000818152600c602090815260408083206001600160a01b03871680855290835281842054948452600d835281842090845290915281205490929091839182919084165b81811015610e2f5763ffffffff88166000908152600c602090815260408083206001600160a01b038b1684529091528120805483908110610d8b57610d8b613ee8565b6000918252602080832060408051606081018252939091015463ffffffff8116845264010000000081046001600160801b031692840192909252600160a01b90910460ff1615159082018190529092509003610e1c578363ffffffff16600003610df457805193505b6020810151610e0c906001600160801b031688613f14565b9650610e19600186613f27565b94505b5080610e2781613f4b565b915050610d48565b505092959194509250565b6001600160a01b03811660009081527f5cbfc8ee58ca47855df7bcf648dd304ddb6b932f9b87878bdf6318d7ec7ee5b7602052604081205460ff16610b36565b600082815260208190526040902060010154610e95816128d3565b610e9f83836128dd565b505050565b6001600160a01b0381163314610f225760405162461bcd60e51b815260206004820152602f60248201527f416363657373436f6e74726f6c3a2063616e206f6e6c792072656e6f756e636560448201527f20726f6c657320666f722073656c6600000000000000000000000000000000006064820152608401610ba4565b610bad828261297b565b60065460009061010090046001600160a01b03163314610f735760405162461bcd60e51b8152602060048201526002602482015261454160f01b6044820152606401610ba4565b610fc3610fba600085858080601f01602080910402602001604051908101604052809392919081815260200183838082843760009201919091525092939250506129fa9050565b61ffff16611600565b61100f5760405162461bcd60e51b815260206004820152601860248201527f6e6f6e2d726567697374657265642063616e64696461746500000000000000006044820152606401610ba4565b6000611055600085858080601f01602080910402602001604051908101604052809392919081815260200183838082843760009201919091525092939250506129fa9050565b61ffff169050841561107e5760065461107e9061010090046001600160a01b0316883088612aba565b60006110898261114b565b9050806040015161ffff16600014806110ae575080516001600160a01b038981169116145b156110c6576110c1828988600080612bde565b6110db565b6110db82898884600001518560400151612bde565b506001979650505050505050565b6060601280548060200260200160405190810160405280929190818152602001828054801561114157602002820191906000526020600020905b81546001600160a01b03168152600190910190602001808311611123575b5050505050905090565b604080516060810182526000808252602080830182905282840182905263ffffffff8516825260119052829020915163186ca86f60e21b8152909173__$d436d56fec194dfaaabaf06742f0275c03$__916361b2a1bc916111ae91600401613f98565b606060405180830381865af41580156111cb573d6000803e3d6000fd5b505050506040513d601f19601f82011682018060405250810190610b369190614023565b6011602052600090815260409020805461120890613f64565b80601f016020809104026020016040519081016040528092919081815260200182805461123490613f64565b80156112815780601f1061125657610100808354040283529160200191611281565b820191906000526020600020905b81548152906001019060200180831161126457829003601f168201915b505050505081565b600c60205282600052604060002060205281600052604060002081815481106112b157600080fd5b60009182526020909120015463ffffffff8116935064010000000081046001600160801b03169250600160a01b900460ff16905083565b6112f133610e3a565b6113485760405162461bcd60e51b815260206004820152602260248201527f41636365737369626c653a2043616c6c6572206973206e6f7420616e2061646d60448201526134b760f11b6064820152608401610ba4565b610c3b7fdf8b4c520ffe197c5343c6f5aec59570151ef9a492f2c624fd45ddde6135ec4282610e7a565b63ffffffff82166000908152600d6020908152604080832033808552925290912054906113a29084908385612426565b610e9f5760405162461bcd60e51b815260206004820152600c60248201526b534c5f455f52455354414b4560a01b6044820152606401610ba4565b6113e633610e3a565b61143d5760405162461bcd60e51b815260206004820152602260248201527f41636365737369626c653a2043616c6c6572206973206e6f7420616e2061646d60448201526134b760f11b6064820152608401610ba4565b6001600160a01b0381166114935760405162461bcd60e51b815260206004820152601860248201527f41636365737369626c653a207a65726f206164647265737300000000000000006044820152606401610ba4565b6001600160a01b03811633036114eb5760405162461bcd60e51b815260206004820152601660248201527f41636365737369626c653a2073616d652061646d696e000000000000000000006044820152606401610ba4565b6115157fdf8b4c520ffe197c5343c6f5aec59570151ef9a492f2c624fd45ddde6135ec4282610e7a565b610c3b7fdf8b4c520ffe197c5343c6f5aec59570151ef9a492f2c624fd45ddde6135ec4233610ea4565b63ffffffff81166000908152601160205260408120805482919061156290613f64565b80601f016020809104026020016040519081016040528092919081815260200182805461158e90613f64565b80156115db5780601f106115b0576101008083540402835291602001916115db565b820191906000526020600020905b8154815290600101906020018083116115be57829003601f168201915b505050505090506017815111156115fa576115f7816000612fd2565b91505b50919050565b600854604051635d170f8f60e01b815263ffffffff831660048201526000916001600160a01b031690635d170f8f90602401602060405180830381865afa15801561164f573d6000803e3d6000fd5b505050506040513d601f19601f82011682018060405250810190611673919061409c565b6116bf5760405162461bcd60e51b815260206004820152601460248201527f6e6f6e2d72656769737465726564206c617965720000000000000000000000006044820152606401610ba4565b506001919050565b6116d082611600565b61171c5760405162461bcd60e51b815260206004820152601860248201527f6e6f6e2d726567697374657265642063616e64696461746500000000000000006044820152606401610ba4565b60006117278361114b565b9050806040015161ffff1660001480611749575080516001600160a01b031633145b1561175b57610e9f83836000806130a2565b610e9f8383836000015184604001516130a2565b63ffffffff81166000908152601160205260408120805482919061179290613f64565b80601f01602080910402602001604051908101604052809291908181526020018280546117be90613f64565b801561180b5780601f106117e05761010080835404028352916020019161180b565b820191906000526020600020905b8154815290600101906020018083116117ee57829003601f168201915b5050505050905061182960006018836130d29092919063ffffffff16565b600060405160200161183c9291906140be565b60405160208183030381529060405280519060200120915050919050565b63ffffffff8083166000818152600c602090815260408083206001600160a01b03871680855290835281842054948452600d835281842090845290915281205490929091839183165b8181101561198e5763ffffffff87166000908152600c602090815260408083206001600160a01b038a16845290915281208054839081106118e6576118e6613ee8565b600091825260209182902060408051606081018252929091015463ffffffff811680845264010000000082046001600160801b031694840194909452600160a01b900460ff1615159082015291504311801561194457506040810151155b15611975576020810151611961906001600160801b031687613f14565b955061196e600185613f27565b935061197b565b5061198e565b508061198681613f4b565b9150506118a3565b50509250925092565b6008546040516346ccf0e560e11b815263ffffffff831660048201526000916001600160a01b031690638d99e1ca90602401602060405180830381865afa1580156119e6573d6000803e3d6000fd5b505050506040513d601f19601f82011682018060405250810190610b369190614108565b60075463ffffffff83166000908152600b602090815260408083206001600160a01b038681168552908352818420825160c081018452815481526001820154948101949094526002810154928401839052600381015460608501526004015460ff811615156080850152610100900461ffff1660a0909301929092529192169063cdf68009906040518263ffffffff1660e01b8152600401611aae91815260200190565b602060405180830381865afa158015611acb573d6000803e3d6000fd5b505050506040513d601f19601f82011682018060405250810190611aef9190614108565b9392505050565b611aff8261153f565b6001600160a01b03163303611b8f57610bad8282600860009054906101000a90046001600160a01b03166001600160a01b031663a4dd8b7d6040518163ffffffff1660e01b8152600401602060405180830381865afa158015611b66573d6000803e3d6000fd5b505050506040513d601f19601f82011682018060405250810190611b8a9190614108565b613235565b610bad82826000613235565b60065460ff16611bd65760405162461bcd60e51b8152600401610ba4906020808252600490820152636c6f636b60e01b604082015260600190565b6006805460ff1916905563ffffffff81166000818152600c602090815260408083203380855290835281842054948452600d83528184208185529092528220549092919081905b83811015611cef5763ffffffff86166000908152600c602090815260408083206001600160a01b03891684529091528120805483908110611c6057611c60613ee8565b600091825260209091200180549091504363ffffffff909116108015611c8f57508054600160a01b900460ff16155b15611cd657805460ff60a01b1916600160a01b17808255611cc2906001600160801b036401000000009091041684613f14565b925083611cce81613f4b565b945050611cdc565b50611cef565b5080611ce781613f4b565b915050611c1d565b5060008111611d405760405162461bcd60e51b815260206004820181905260248201527f7a65726f20617661696c61626c65207769746864726177616c20616d6f756e746044820152606401610ba4565b63ffffffff85166000908152600d602090815260408083206001600160a01b038816845290915281208054849290611d79908490613f14565b909155505063ffffffff85166000908152600e602090815260408083206001600160a01b038816845290915281208054839290611db7908490614121565b909155505063ffffffff85166000908152600f602052604081208054839290611de1908490614121565b90915550506001600160a01b03841660009081526010602052604081208054839290611e0e908490614121565b90915550506006546040516370a0823160e01b815230600482015260009161010090046001600160a01b0316906370a0823190602401602060405180830381865afa158015611e61573d6000803e3d6000fd5b505050506040513d601f19601f82011682018060405250810190611e859190614108565b905081811015611f30578015611eb157600654611eb19061010090046001600160a01b03168683613732565b6007546001600160a01b031663aad3ec9686611ecd8486614121565b6040516001600160e01b031960e085901b1681526001600160a01b0390921660048301526024820152604401600060405180830381600087803b158015611f1357600080fd5b505af1158015611f27573d6000803e3d6000fd5b50505050611f4c565b600654611f4c9061010090046001600160a01b03168684613732565b6040805163ffffffff881681526001600160a01b03871660208201529081018390527f2d6eb139d2002caa088da5527d9d62f2f23bdf4504f5559a112535c436c6ee599060600160405180910390a150506006805460ff1916600117905550505050565b63ffffffff82166000818152600c602090815260408083206001600160a01b03861680855290835281842054948452600d835281842090845290915281205490818310612004576120018284614121565b90505b9250925092565b6008546040805163b969fbef60e01b815290516000926001600160a01b03169163b969fbef9160048083019260209291908290030181865afa158015612055573d6000803e3d6000fd5b505050506040513d601f19601f820116820180604052508101906120799190614108565b905090565b600082815260208190526040902060010154612099816128d3565b610e9f838361297b565b6008546000906001600160a01b031633146121005760405162461bcd60e51b815260206004820152601160248201527f6e6f74204c61796572324d616e616765720000000000000000000000000000006044820152606401610ba4565b63ffffffff83166000908152601160205260409020805461212090613f64565b15905061216f5760405162461bcd60e51b815260206004820152600f60248201527f616c7265616479206372656174656400000000000000000000000000000000006044820152606401610ba4565b60398251116121c05760405162461bcd60e51b815260206004820152600b60248201527f77726f6e67205f696e666f0000000000000000000000000000000000000000006044820152606401610ba4565b60405163186ca86f60e21b815260009073__$d436d56fec194dfaaabaf06742f0275c03$__906361b2a1bc906121fa908690600401613d79565b606060405180830381865af4158015612217573d6000803e3d6000fd5b505050506040513d601f19601f8201168201806040525081019061223b9190614023565b60208082015163ffffffff908116600090815260138352604080822085516001600160a01b03168352909352919091205491925016156122bd5760405162461bcd60e51b815260206004820152600e60248201527f616c7265616420657869737465640000000000000000000000000000000000006044820152606401610ba4565b61271061ffff16816040015161ffff161061231a5760405162461bcd60e51b815260206004820152600e60248201527f636f6d6d697373696f6e206572720000000000000000000000000000000000006044820152606401610ba4565b600061232784601a61384d565b9050612336846000601a6130d2565b6040516020016123469190614134565b60408051601f1981840301815291815263ffffffff87166000908152601160205220906123739082614196565b5060208281015163ffffffff908116600090815260138352604080822086516001600160a01b0316835290935291909120805463ffffffff191691871691909117905580156123f1576008546006546123df916001600160a01b03610100909204821691163084612aba565b6123f185836000015183600080612bde565b506001949350505050565b6012818154811061240c57600080fd5b6000918252602090912001546001600160a01b0316905081565b60065460009060ff166124645760405162461bcd60e51b8152600401610ba4906020808252600490820152636c6f636b60e01b604082015260600190565b6006805460ff1916905563ffffffff85166000908152600c602090815260408083206001600160a01b0388168452909152812054806124d25760405162461bcd60e51b815260206004820152600a6024820152696e6f20756e7374616b6560b01b6044820152606401610ba4565b836124dd8683614121565b101561252b5760405162461bcd60e51b815260206004820152601860248201527f6e2065786365656473206e756d206f662070656e64696e6700000000000000006044820152606401610ba4565b60006125378587613f14565b90505b8086101561262d5763ffffffff88166000908152600c602090815260408083206001600160a01b038b168452909152812080548890811061257d5761257d613ee8565b6000918252602090912001805490915064010000000081046001600160801b031690600160a01b900460ff16156125f65760405162461bcd60e51b815260206004820152601260248201527f616c7265616479207769746864726177616c00000000000000000000000000006044820152606401610ba4565b8015612609576126068186613f14565b94505b50805460ff60a01b1916600160a01b1790558561262581613f4b565b96505061253a565b6000831161267d5760405162461bcd60e51b815260206004820152601760248201527f6e6f2076616c69642072657374616b6520616d6f756e740000000000000000006044820152606401610ba4565b600754604051636a2fb1f560e01b8152600481018590526000916001600160a01b031690636a2fb1f590602401602060405180830381865afa1580156126c7573d6000803e3d6000fd5b505050506040513d601f19601f820116820180604052508101906126eb9190614108565b63ffffffff8a166000908152600b602090815260408083206001600160a01b038d168452909152812080549293509186918391612729908490613f14565b92505081905550818160020160008282546127449190613f14565b909155505063ffffffff8a166000908152600a60205260408120805484929061276e908490613f14565b9250508190555081600960008282546127879190613f14565b909155505063ffffffff8a166000908152600e602090815260408083206001600160a01b038d168452909152812080548792906127c5908490614121565b909155505063ffffffff8a166000908152600f6020526040812080548792906127ef908490614121565b90915550506001600160a01b0389166000908152601060205260408120805487929061281c908490614121565b909155505063ffffffff8a166000908152600d602090815260408083206001600160a01b038d1684529091528120805489929061285a908490613f14565b90915550506040805163ffffffff8c1681526001600160a01b038b166020820152908101869052606081018390527f34981dc0486069d2abbaddbc42e10b97cb24e4bce60ee4457e1d5062dfc0b4299060800160405180910390a16001955050505050506006805460ff19166001179055949350505050565b610c3b813361390d565b6000828152602081815260408083206001600160a01b038516845290915290205460ff16610bad576000828152602081815260408083206001600160a01b03851684529091529020805460ff191660011790556129373390565b6001600160a01b0316816001600160a01b0316837f2f8788117e7eff1d82e926ec794901d17c78024a50270940304540a733656f0d60405160405180910390a45050565b6000828152602081815260408083206001600160a01b038516845290915290205460ff1615610bad576000828152602081815260408083206001600160a01b0385168085529252808320805460ff1916905551339285917ff6391f5c32d9c69d2a47ea670b442974b53935d1edc7fd64eb21e047a839171b9190a45050565b600081612a08816004613f14565b1015612a565760405162461bcd60e51b815260206004820152601160248201527f746f55696e7431365f6f766572666c6f770000000000000000000000000000006044820152606401610ba4565b612a61826004613f14565b83511015612ab15760405162461bcd60e51b815260206004820152601460248201527f746f55696e7431365f6f75744f66426f756e64730000000000000000000000006044820152606401610ba4565b50016004015190565b604080516001600160a01b0385811660248301528481166044830152606480830185905283518084039091018152608490920183526020820180516001600160e01b03166323b872dd60e01b1790529151600092839290881691612b1e9190614134565b6000604051808303816000865af19150503d8060008114612b5b576040519150601f19603f3d011682016040523d82523d6000602084013e612b60565b606091505b5091509150818015612b8a575080511580612b8a575080806020019051810190612b8a919061409c565b612bd65760405162461bcd60e51b815260206004820152601460248201527f5452414e534645525f46524f4d5f4641494c45440000000000000000000000006044820152606401610ba4565b505050505050565b60065460ff16612c195760405162461bcd60e51b8152600401610ba4906020808252600490820152636c6f636b60e01b604082015260600190565b6006805460ff19169055826000819003612c5a5760405162461bcd60e51b81526020600482015260026024820152615a3160f01b6044820152606401610ba4565b600754604051636a2fb1f560e01b8152600481018690526000916001600160a01b031690636a2fb1f590602401602060405180830381865afa158015612ca4573d6000803e3d6000fd5b505050506040513d601f19601f82011682018060405250810190612cc89190614108565b63ffffffff88166000908152600a6020526040812080549293508392909190612cf2908490613f14565b925050819055508060096000828254612d0b9190613f14565b909155505063ffffffff87166000908152600b602090815260408083206001600160a01b038a1684529091529020600481015460ff16612dad57600481018054600160ff1990911681179091556012805491820181556000527fbb8a6a4669ba250d26cd7a459eca9d215f8307e33aebe50379bc5a3617ec344401805473ffffffffffffffffffffffffffffffffffffffff19166001600160a01b0389161790555b600061ffff851615801590612dca57506001600160a01b03861615155b8015612ddb57506127108561ffff16105b15612f1e57612710612df161ffff871685614256565b612dfb919061426d565b9050612e078184614121565b60075460405163cdf6800960e01b8152600481018390529194506000916001600160a01b039091169063cdf6800990602401602060405180830381865afa158015612e56573d6000803e3d6000fd5b505050506040513d601f19601f82011682018060405250810190612e7a9190614108565b905080836000016000828254612e909190613f14565b9250508190555083836002016000828254612eab9190613f14565b909155505063ffffffff8a166000908152600b602090815260408083206001600160a01b038b1684529091529020612ee3828a614121565b816000016000828254612ef69190613f14565b9250508190555082816002016000828254612f119190613f14565b90915550612f5392505050565b86826000016000828254612f329190613f14565b9250508190555082826002016000828254612f4d9190613f14565b90915550505b6040805163ffffffff8b1681526001600160a01b038a811660208301528183018a9052606082018690528816608082015261ffff871660a082015290517f318dab784577ac2e7d86f88c3f2a80520b447b822b8a756158648e0f917d16a09181900360c00190a150506006805460ff1916600117905550505050505050565b600081612fe0816014613f14565b101561302e5760405162461bcd60e51b815260206004820152601260248201527f746f416464726573735f6f766572666c6f7700000000000000000000000000006044820152606401610ba4565b613039826014613f14565b835110156130895760405162461bcd60e51b815260206004820152601560248201527f746f416464726573735f6f75744f66426f756e647300000000000000000000006044820152606401610ba4565b5001602001516c01000000000000000000000000900490565b6006546130bf9061010090046001600160a01b0316333086612aba565b6130cc8433858585612bde565b50505050565b6060816130e081601f613f14565b101561311f5760405162461bcd60e51b815260206004820152600e60248201526d736c6963655f6f766572666c6f7760901b6044820152606401610ba4565b8261312a8382613f14565b10156131695760405162461bcd60e51b815260206004820152600e60248201526d736c6963655f6f766572666c6f7760901b6044820152606401610ba4565b6131738284613f14565b845110156131c35760405162461bcd60e51b815260206004820152601160248201527f736c6963655f6f75744f66426f756e64730000000000000000000000000000006044820152606401610ba4565b6060821580156131e2576040519150600082526020820160405261322c565b6040519150601f8416801560200281840101858101878315602002848b0101015b8183101561321b578051835260209283019201613203565b5050858452601f01601f1916604052505b50949350505050565b60065460ff166132705760405162461bcd60e51b8152600401610ba4906020808252600490820152636c6f636b60e01b604082015260600190565b6006805460ff191690558160008190036132b15760405162461bcd60e51b81526020600482015260026024820152615a3160f01b6044820152606401610ba4565b60075460405163cdf6800960e01b81526004810185905233916000916001600160a01b039091169063cdf6800990602401602060405180830381865afa1580156132ff573d6000803e3d6000fd5b505050506040513d601f19601f820116820180604052508101906133239190614108565b63ffffffff87166000908152600b602090815260408083206001600160a01b038716845290915290209091508415613424576002810154600754604051636a2fb1f560e01b8152600481018890526001600160a01b0390911690636a2fb1f590602401602060405180830381865afa1580156133a3573d6000803e3d6000fd5b505050506040513d601f19601f820116820180604052508101906133c79190614108565b6133d19088613f14565b111561341f5760405162461bcd60e51b815260206004820152600d60248201527f756e7374616b655f6572725f31000000000000000000000000000000000000006044820152606401610ba4565b613478565b80600201548611156134785760405162461bcd60e51b815260206004820152600d60248201527f756e7374616b655f6572725f32000000000000000000000000000000000000006044820152606401610ba4565b8581600201600082825461348c9190614121565b909155505080548211156134a357600081556134bd565b818160000160008282546134b79190614121565b90915550505b63ffffffff87166000908152600a6020526040812080548892906134e2908490614121565b9250508190555085600960008282546134fb9190614121565b909155505060085460408051636577b27360e11b815290516000926001600160a01b03169163caef64e69160048083019260209291908290030181865afa15801561354a573d6000803e3d6000fd5b505050506040513d601f19601f8201168201806040525081019061356e9190614108565b63ffffffff89166000908152600c602090815260408083206001600160a01b038916845290915290819020815160608101909252919250806135b08443613f14565b63ffffffff90811682526001600160801b0380881660208085019190915260006040948501819052865460018101885596815281812086519701805487840151978701511515600160a01b0260ff60a01b19989095166401000000000273ffffffffffffffffffffffffffffffffffffffff19909116988616989098179790971795909516919091179094558b168252600e83528082206001600160a01b03881683529092529081208054859290613669908490613f14565b909155505063ffffffff88166000908152600f602052604081208054859290613693908490613f14565b90915550506001600160a01b038416600090815260106020526040812080548592906136c0908490613f14565b90915550506040805163ffffffff8a1681526001600160a01b0386166020820152908101849052606081018890527f869a01319d83bb921803a22e3e95d0cb8b08e708d3fb144e2c25a563bf8650d39060800160405180910390a150506006805460ff19166001179055505050505050565b604080516001600160a01b038481166024830152604480830185905283518084039091018152606490920183526020820180516001600160e01b031663a9059cbb60e01b179052915160009283929087169161378e9190614134565b6000604051808303816000865af19150503d80600081146137cb576040519150601f19603f3d011682016040523d82523d6000602084013e6137d0565b606091505b50915091508180156137fa5750805115806137fa5750808060200190518101906137fa919061409c565b6138465760405162461bcd60e51b815260206004820152600f60248201527f5452414e534645525f4641494c454400000000000000000000000000000000006044820152606401610ba4565b5050505050565b60008161385b816020613f14565b10156138a95760405162461bcd60e51b815260206004820152601260248201527f746f55696e743235365f6f766572666c6f7700000000000000000000000000006044820152606401610ba4565b6138b4826020613f14565b835110156139045760405162461bcd60e51b815260206004820152601560248201527f746f55696e743235365f6f75744f66426f756e647300000000000000000000006044820152606401610ba4565b50016020015190565b6000828152602081815260408083206001600160a01b038516845290915290205460ff16610bad5761393e81613980565b613949836020613992565b60405160200161395a92919061428f565b60408051601f198184030181529082905262461bcd60e51b8252610ba491600401613d79565b6060610b366001600160a01b03831660145b606060006139a1836002614256565b6139ac906002613f14565b67ffffffffffffffff8111156139c4576139c4613df9565b6040519080825280601f01601f1916602001820160405280156139ee576020820181803683370190505b509050600360fc1b81600081518110613a0957613a09613ee8565b60200101906001600160f81b031916908160001a905350600f60fb1b81600181518110613a3857613a38613ee8565b60200101906001600160f81b031916908160001a9053506000613a5c846002614256565b613a67906001613f14565b90505b6001811115613aec577f303132333435363738396162636465660000000000000000000000000000000085600f1660108110613aa857613aa8613ee8565b1a60f81b828281518110613abe57613abe613ee8565b60200101906001600160f81b031916908160001a90535060049490941c93613ae581614310565b9050613a6a565b508315611aef5760405162461bcd60e51b815260206004820181905260248201527f537472696e67733a20686578206c656e67746820696e73756666696369656e746044820152606401610ba4565b600060208284031215613b4d57600080fd5b81356001600160e01b031981168114611aef57600080fd5b63ffffffff81168114610c3b57600080fd5b600060208284031215613b8957600080fd5b8135611aef81613b65565b6001600160a01b0381168114610c3b57600080fd5b600060208284031215613bbb57600080fd5b8135611aef81613b94565b60008060408385031215613bd957600080fd5b8235613be481613b65565b91506020830135613bf481613b94565b809150509250929050565b600060208284031215613c1157600080fd5b5035919050565b60008060408385031215613c2b57600080fd5b823591506020830135613bf481613b94565b600080600080600060808688031215613c5557600080fd5b8535613c6081613b94565b94506020860135613c7081613b94565b935060408601359250606086013567ffffffffffffffff80821115613c9457600080fd5b818801915088601f830112613ca857600080fd5b813581811115613cb757600080fd5b896020828501011115613cc957600080fd5b9699959850939650602001949392505050565b6020808252825182820181905260009190848201906040850190845b81811015613d1d5783516001600160a01b031683529284019291840191600101613cf8565b50909695505050505050565b60005b83811015613d44578181015183820152602001613d2c565b50506000910152565b60008151808452613d65816020860160208601613d29565b601f01601f19169290920160200192915050565b602081526000611aef6020830184613d4d565b600080600060608486031215613da157600080fd5b8335613dac81613b65565b92506020840135613dbc81613b94565b929592945050506040919091013590565b60008060408385031215613de057600080fd5b8235613deb81613b65565b946020939093013593505050565b634e487b7160e01b600052604160045260246000fd5b604051601f8201601f1916810167ffffffffffffffff81118282101715613e3857613e38613df9565b604052919050565b60008060408385031215613e5357600080fd5b8235613e5e81613b65565b915060208381013567ffffffffffffffff80821115613e7c57600080fd5b818601915086601f830112613e9057600080fd5b813581811115613ea257613ea2613df9565b613eb4601f8201601f19168501613e0f565b91508082528784828501011115613eca57600080fd5b80848401858401376000848284010152508093505050509250929050565b634e487b7160e01b600052603260045260246000fd5b634e487b7160e01b600052601160045260246000fd5b80820180821115610b3657610b36613efe565b63ffffffff818116838216019080821115613f4457613f44613efe565b5092915050565b600060018201613f5d57613f5d613efe565b5060010190565b600181811c90821680613f7857607f821691505b6020821081036115fa57634e487b7160e01b600052602260045260246000fd5b6000602080835260008454613fac81613f64565b80848701526040600180841660008114613fcd5760018114613fe757614015565b60ff1985168984015283151560051b890183019550614015565b896000528660002060005b8581101561400d5781548b8201860152908301908801613ff2565b8a0184019650505b509398975050505050505050565b60006060828403121561403557600080fd5b6040516060810181811067ffffffffffffffff8211171561405857614058613df9565b604052825161406681613b94565b8152602083015161407681613b65565b6020820152604083015161ffff8116811461409057600080fd5b60408201529392505050565b6000602082840312156140ae57600080fd5b81518015158114611aef57600080fd5b600083516140d0818460208801613d29565b60f09390931b7fffff000000000000000000000000000000000000000000000000000000000000169190920190815260020192915050565b60006020828403121561411a57600080fd5b5051919050565b81810381811115610b3657610b36613efe565b60008251614146818460208701613d29565b9190910192915050565b601f821115610e9f57600081815260208120601f850160051c810160208610156141775750805b601f850160051c820191505b81811015612bd657828155600101614183565b815167ffffffffffffffff8111156141b0576141b0613df9565b6141c4816141be8454613f64565b84614150565b602080601f8311600181146141f957600084156141e15750858301515b600019600386901b1c1916600185901b178555612bd6565b600085815260208120601f198616915b8281101561422857888601518255948401946001909101908401614209565b50858210156142465787850151600019600388901b60f8161c191681555b5050505050600190811b01905550565b8082028115828204841417610b3657610b36613efe565b60008261428a57634e487b7160e01b600052601260045260246000fd5b500490565b7f416363657373436f6e74726f6c3a206163636f756e74200000000000000000008152600083516142c7816017850160208801613d29565b7f206973206d697373696e6720726f6c65200000000000000000000000000000006017918401918201528351614304816028840160208801613d29565b01602801949350505050565b60008161431f5761431f613efe565b50600019019056fea164736f6c6343000812000a",
  "linkReferences": {
    "contracts/libraries/LibOperator.sol": {
      "LibOperator": [
        {
          "length": 20,
          "start": 4533
        },
        {
          "length": 20,
          "start": 8703
        }
      ]
    }
  },
  "deployedLinkReferences": {
    "contracts/libraries/LibOperator.sol": {
      "LibOperator": [
        {
          "length": 20,
          "start": 4488
        },
        {
          "length": 20,
          "start": 8658
        }
      ]
    }
  }
}