{
  "_format": "hh-sol-artifact-1",
  "contractName": "Candidate",
  "sourceName": "contracts/Candidate.sol",
  "abi": [
    {
      "inputs": [],
      "stateMutability": "nonpayable",
      "type": "constructor"
    },
    {
      "anonymous": false,
      "inputs": [
        {
          "indexed": false,
          "internalType": "uint32",
          "name": "_index",
          "type": "uint32"
        },
        {
          "indexed": false,
          "internalType": "address",
          "name": "sender",
          "type": "address"
        },
        {
          "indexed": false,
          "internalType": "uint256",
          "name": "amount",
          "type": "uint256"
        },
        {
          "indexed": false,
          "internalType": "uint256",
          "name": "lton",
          "type": "uint256"
        }
      ],
      "name": "Restaked",
      "type": "event"
    },
    {
      "anonymous": false,
      "inputs": [
        {
          "indexed": true,
          "internalType": "bytes32",
          "name": "role",
          "type": "bytes32"
        },
        {
          "indexed": true,
          "internalType": "bytes32",
          "name": "previousAdminRole",
          "type": "bytes32"
        },
        {
          "indexed": true,
          "internalType": "bytes32",
          "name": "newAdminRole",
          "type": "bytes32"
        }
      ],
      "name": "RoleAdminChanged",
      "type": "event"
    },
    {
      "anonymous": false,
      "inputs": [
        {
          "indexed": true,
          "internalType": "bytes32",
          "name": "role",
          "type": "bytes32"
        },
        {
          "indexed": true,
          "internalType": "address",
          "name": "account",
          "type": "address"
        },
        {
          "indexed": true,
          "internalType": "address",
          "name": "sender",
          "type": "address"
        }
      ],
      "name": "RoleGranted",
      "type": "event"
    },
    {
      "anonymous": false,
      "inputs": [
        {
          "indexed": true,
          "internalType": "bytes32",
          "name": "role",
          "type": "bytes32"
        },
        {
          "indexed": true,
          "internalType": "address",
          "name": "account",
          "type": "address"
        },
        {
          "indexed": true,
          "internalType": "address",
          "name": "sender",
          "type": "address"
        }
      ],
      "name": "RoleRevoked",
      "type": "event"
    },
    {
      "anonymous": false,
      "inputs": [
        {
          "indexed": false,
          "internalType": "uint32",
          "name": "_index",
          "type": "uint32"
        },
        {
          "indexed": false,
          "internalType": "address",
          "name": "sender",
          "type": "address"
        },
        {
          "indexed": false,
          "internalType": "uint256",
          "name": "amount",
          "type": "uint256"
        },
        {
          "indexed": false,
          "internalType": "uint256",
          "name": "lton",
          "type": "uint256"
        }
      ],
      "name": "Staked",
      "type": "event"
    },
    {
      "anonymous": false,
      "inputs": [
        {
          "indexed": false,
          "internalType": "uint32",
          "name": "_index",
          "type": "uint32"
        },
        {
          "indexed": false,
          "internalType": "address",
          "name": "sender",
          "type": "address"
        },
        {
          "indexed": false,
          "internalType": "uint256",
          "name": "amount",
          "type": "uint256"
        },
        {
          "indexed": false,
          "internalType": "uint256",
          "name": "lton",
          "type": "uint256"
        }
      ],
      "name": "Unstaked",
      "type": "event"
    },
    {
      "anonymous": false,
      "inputs": [
        {
          "indexed": false,
          "internalType": "uint32",
          "name": "_index",
          "type": "uint32"
        },
        {
          "indexed": false,
          "internalType": "address",
          "name": "sender",
          "type": "address"
        },
        {
          "indexed": false,
          "internalType": "uint256",
          "name": "amount",
          "type": "uint256"
        }
      ],
      "name": "Withdrawal",
      "type": "event"
    },
    {
      "inputs": [],
      "name": "ADMIN_ROLE",
      "outputs": [
        {
          "internalType": "bytes32",
          "name": "",
          "type": "bytes32"
        }
      ],
      "stateMutability": "view",
      "type": "function"
    },
    {
      "inputs": [],
      "name": "DEFAULT_ADMIN_ROLE",
      "outputs": [
        {
          "internalType": "bytes32",
          "name": "",
          "type": "bytes32"
        }
      ],
      "stateMutability": "view",
      "type": "function"
    },
    {
      "inputs": [],
      "name": "POLICY_ROLE",
      "outputs": [
        {
          "internalType": "bytes32",
          "name": "",
          "type": "bytes32"
        }
      ],
      "stateMutability": "view",
      "type": "function"
    },
    {
      "inputs": [
        {
          "internalType": "address",
          "name": "account",
          "type": "address"
        }
      ],
      "name": "addAdmin",
      "outputs": [],
      "stateMutability": "nonpayable",
      "type": "function"
    },
    {
      "inputs": [
        {
          "internalType": "address",
          "name": "",
          "type": "address"
        }
      ],
      "name": "aliveImplementation",
      "outputs": [
        {
          "internalType": "bool",
          "name": "",
          "type": "bool"
        }
      ],
      "stateMutability": "view",
      "type": "function"
    },
    {
      "inputs": [
        {
          "internalType": "uint32",
          "name": "layerIndex",
          "type": "uint32"
        },
        {
          "internalType": "address",
          "name": "account",
          "type": "address"
        }
      ],
      "name": "amountOfPendings",
      "outputs": [
        {
          "internalType": "uint256",
          "name": "amount",
          "type": "uint256"
        },
        {
          "internalType": "uint32",
          "name": "startIndex",
          "type": "uint32"
        },
        {
          "internalType": "uint32",
          "name": "len",
          "type": "uint32"
        },
        {
          "internalType": "uint32",
          "name": "nextWithdrawableBlockNumber",
          "type": "uint32"
        }
      ],
      "stateMutability": "view",
      "type": "function"
    },
    {
      "inputs": [
        {
          "internalType": "uint32",
          "name": "_index",
          "type": "uint32"
        },
        {
          "internalType": "address",
          "name": "account",
          "type": "address"
        }
      ],
      "name": "availableWithdraw",
      "outputs": [
        {
          "internalType": "uint256",
          "name": "amount",
          "type": "uint256"
        },
        {
          "internalType": "uint32",
          "name": "startIndex",
          "type": "uint32"
        },
        {
          "internalType": "uint32",
          "name": "len",
          "type": "uint32"
        }
      ],
      "stateMutability": "view",
      "type": "function"
    },
    {
      "inputs": [
        {
          "internalType": "uint32",
          "name": "_index",
          "type": "uint32"
        },
        {
          "internalType": "address",
          "name": "account",
          "type": "address"
        }
      ],
      "name": "balanceOf",
      "outputs": [
        {
          "internalType": "uint256",
          "name": "amount",
          "type": "uint256"
        }
      ],
      "stateMutability": "view",
      "type": "function"
    },
    {
      "inputs": [
        {
          "internalType": "uint32",
          "name": "_index",
          "type": "uint32"
        },
        {
          "internalType": "address",
          "name": "account",
          "type": "address"
        }
      ],
      "name": "balanceOfLton",
      "outputs": [
        {
          "internalType": "uint256",
          "name": "amount",
          "type": "uint256"
        }
      ],
      "stateMutability": "view",
      "type": "function"
    },
    {
      "inputs": [
        {
          "internalType": "uint32",
          "name": "_index",
          "type": "uint32"
        }
      ],
      "name": "balanceOfLton",
      "outputs": [
        {
          "internalType": "uint256",
          "name": "amount",
          "type": "uint256"
        }
      ],
      "stateMutability": "view",
      "type": "function"
    },
    {
      "inputs": [
        {
          "internalType": "uint32",
          "name": "",
          "type": "uint32"
        }
      ],
      "name": "commissions",
      "outputs": [
        {
          "internalType": "uint16",
          "name": "",
          "type": "uint16"
        }
      ],
      "stateMutability": "view",
      "type": "function"
    },
    {
      "inputs": [
        {
          "internalType": "uint32",
          "name": "_candidateIndex",
          "type": "uint32"
        },
        {
          "internalType": "bytes",
          "name": "_info",
          "type": "bytes"
        }
      ],
      "name": "create",
      "outputs": [
        {
          "internalType": "bool",
          "name": "",
          "type": "bool"
        }
      ],
      "stateMutability": "nonpayable",
      "type": "function"
    },
    {
      "inputs": [
        {
          "internalType": "uint32",
          "name": "_index",
          "type": "uint32"
        }
      ],
      "name": "existedIndex",
      "outputs": [
        {
          "internalType": "bool",
          "name": "",
          "type": "bool"
        }
      ],
      "stateMutability": "view",
      "type": "function"
    },
    {
      "inputs": [
        {
          "internalType": "uint32",
          "name": "_index",
          "type": "uint32"
        }
      ],
      "name": "getCandidateInfo",
      "outputs": [
        {
          "components": [
            {
              "internalType": "address",
              "name": "operator",
              "type": "address"
            },
            {
              "internalType": "uint32",
              "name": "sequencerIndex",
              "type": "uint32"
            },
            {
              "internalType": "uint16",
              "name": "commission",
              "type": "uint16"
            }
          ],
          "internalType": "struct LibOperator.Info",
          "name": "_layerInfo",
          "type": "tuple"
        }
      ],
      "stateMutability": "view",
      "type": "function"
    },
    {
      "inputs": [
        {
          "internalType": "uint32",
          "name": "_index",
          "type": "uint32"
        }
      ],
      "name": "getCandidateKey",
      "outputs": [
        {
          "internalType": "bytes32",
          "name": "layerKey_",
          "type": "bytes32"
        }
      ],
      "stateMutability": "view",
      "type": "function"
    },
    {
      "inputs": [
        {
          "internalType": "uint32",
          "name": "_index",
          "type": "uint32"
        },
        {
          "internalType": "address",
          "name": "account",
          "type": "address"
        }
      ],
      "name": "getLayerStakes",
      "outputs": [
        {
          "components": [
            {
              "internalType": "uint256",
              "name": "stakePrincipal",
              "type": "uint256"
            },
            {
              "internalType": "uint256",
              "name": "bondPrincipal",
              "type": "uint256"
            },
            {
              "internalType": "uint256",
              "name": "stakelton",
              "type": "uint256"
            },
            {
              "internalType": "uint256",
              "name": "bondlton",
              "type": "uint256"
            },
            {
              "internalType": "bool",
              "name": "stake",
              "type": "bool"
            },
            {
              "internalType": "uint16",
              "name": "fwFee",
              "type": "uint16"
            }
          ],
          "internalType": "struct LibStake.StakeInfo",
          "name": "info",
          "type": "tuple"
        }
      ],
      "stateMutability": "view",
      "type": "function"
    },
    {
      "inputs": [
        {
          "internalType": "uint32",
          "name": "_index",
          "type": "uint32"
        },
        {
          "internalType": "address",
          "name": "account",
          "type": "address"
        }
      ],
      "name": "getPendingUnstakedAmount",
      "outputs": [
        {
          "internalType": "uint256",
          "name": "",
          "type": "uint256"
        }
      ],
      "stateMutability": "view",
      "type": "function"
    },
    {
      "inputs": [
        {
          "internalType": "bytes32",
          "name": "role",
          "type": "bytes32"
        }
      ],
      "name": "getRoleAdmin",
      "outputs": [
        {
          "internalType": "bytes32",
          "name": "",
          "type": "bytes32"
        }
      ],
      "stateMutability": "view",
      "type": "function"
    },
    {
      "inputs": [],
      "name": "getStakeAccountList",
      "outputs": [
        {
          "internalType": "address[]",
          "name": "",
          "type": "address[]"
        }
      ],
      "stateMutability": "view",
      "type": "function"
    },
    {
      "inputs": [],
      "name": "getTotalLton",
      "outputs": [
        {
          "internalType": "uint256",
          "name": "",
          "type": "uint256"
        }
      ],
      "stateMutability": "view",
      "type": "function"
    },
    {
      "inputs": [
        {
          "internalType": "bytes32",
          "name": "role",
          "type": "bytes32"
        },
        {
          "internalType": "address",
          "name": "account",
          "type": "address"
        }
      ],
      "name": "grantRole",
      "outputs": [],
      "stateMutability": "nonpayable",
      "type": "function"
    },
    {
      "inputs": [
        {
          "internalType": "bytes32",
          "name": "role",
          "type": "bytes32"
        },
        {
          "internalType": "address",
          "name": "account",
          "type": "address"
        }
      ],
      "name": "hasRole",
      "outputs": [
        {
          "internalType": "bool",
          "name": "",
          "type": "bool"
        }
      ],
      "stateMutability": "view",
      "type": "function"
    },
    {
      "inputs": [
        {
          "internalType": "address",
          "name": "account",
          "type": "address"
        }
      ],
      "name": "isAdmin",
      "outputs": [
        {
          "internalType": "bool",
          "name": "",
          "type": "bool"
        }
      ],
      "stateMutability": "view",
      "type": "function"
    },
    {
      "inputs": [
        {
          "internalType": "uint32",
          "name": "_index",
          "type": "uint32"
        }
      ],
      "name": "layer2Deposits",
      "outputs": [
        {
          "internalType": "uint256",
          "name": "amount",
          "type": "uint256"
        }
      ],
      "stateMutability": "view",
      "type": "function"
    },
    {
      "inputs": [],
      "name": "layer2Manager",
      "outputs": [
        {
          "internalType": "address",
          "name": "",
          "type": "address"
        }
      ],
      "stateMutability": "view",
      "type": "function"
    },
    {
      "inputs": [
        {
          "internalType": "uint32",
          "name": "",
          "type": "uint32"
        }
      ],
      "name": "layerInfo",
      "outputs": [
        {
          "internalType": "bytes",
          "name": "",
          "type": "bytes"
        }
      ],
      "stateMutability": "view",
      "type": "function"
    },
    {
      "inputs": [
        {
          "internalType": "uint32",
          "name": "",
          "type": "uint32"
        }
      ],
      "name": "layerStakedLton",
      "outputs": [
        {
          "internalType": "uint256",
          "name": "",
          "type": "uint256"
        }
      ],
      "stateMutability": "view",
      "type": "function"
    },
    {
      "inputs": [
        {
          "internalType": "uint32",
          "name": "",
          "type": "uint32"
        },
        {
          "internalType": "address",
          "name": "",
          "type": "address"
        }
      ],
      "name": "layerStakes",
      "outputs": [
        {
          "internalType": "uint256",
          "name": "stakePrincipal",
          "type": "uint256"
        },
        {
          "internalType": "uint256",
          "name": "bondPrincipal",
          "type": "uint256"
        },
        {
          "internalType": "uint256",
          "name": "stakelton",
          "type": "uint256"
        },
        {
          "internalType": "uint256",
          "name": "bondlton",
          "type": "uint256"
        },
        {
          "internalType": "bool",
          "name": "stake",
          "type": "bool"
        },
        {
          "internalType": "uint16",
          "name": "fwFee",
          "type": "uint16"
        }
      ],
      "stateMutability": "view",
      "type": "function"
    },
    {
      "inputs": [
        {
          "internalType": "uint32",
          "name": "layerIndex",
          "type": "uint32"
        },
        {
          "internalType": "address",
          "name": "account",
          "type": "address"
        }
      ],
      "name": "numberOfPendings",
      "outputs": [
        {
          "internalType": "uint256",
          "name": "totalRequests",
          "type": "uint256"
        },
        {
          "internalType": "uint256",
          "name": "withdrawIndex",
          "type": "uint256"
        },
        {
          "internalType": "uint256",
          "name": "pendingLength",
          "type": "uint256"
        }
      ],
      "stateMutability": "view",
      "type": "function"
    },
    {
      "inputs": [
        {
          "internalType": "address",
          "name": "sender",
          "type": "address"
        },
        {
          "internalType": "address",
          "name": "spender",
          "type": "address"
        },
        {
          "internalType": "uint256",
          "name": "amount",
          "type": "uint256"
        },
        {
          "internalType": "bytes",
          "name": "data",
          "type": "bytes"
        }
      ],
      "name": "onApprove",
      "outputs": [
        {
          "internalType": "bool",
          "name": "",
          "type": "bool"
        }
      ],
      "stateMutability": "nonpayable",
      "type": "function"
    },
    {
      "inputs": [
        {
          "internalType": "uint32",
          "name": "_index",
          "type": "uint32"
        }
      ],
      "name": "operator",
      "outputs": [
        {
          "internalType": "address",
          "name": "operator_",
          "type": "address"
        }
      ],
      "stateMutability": "view",
      "type": "function"
    },
    {
      "inputs": [],
      "name": "pauseProxy",
      "outputs": [
        {
          "internalType": "bool",
          "name": "",
          "type": "bool"
        }
      ],
      "stateMutability": "view",
      "type": "function"
    },
    {
      "inputs": [
        {
          "internalType": "uint32",
          "name": "",
          "type": "uint32"
        },
        {
          "internalType": "address",
          "name": "",
          "type": "address"
        }
      ],
      "name": "pendingUnstaked",
      "outputs": [
        {
          "internalType": "uint256",
          "name": "",
          "type": "uint256"
        }
      ],
      "stateMutability": "view",
      "type": "function"
    },
    {
      "inputs": [
        {
          "internalType": "address",
          "name": "",
          "type": "address"
        }
      ],
      "name": "pendingUnstakedAccount",
      "outputs": [
        {
          "internalType": "uint256",
          "name": "",
          "type": "uint256"
        }
      ],
      "stateMutability": "view",
      "type": "function"
    },
    {
      "inputs": [
        {
          "internalType": "uint32",
          "name": "",
          "type": "uint32"
        }
      ],
      "name": "pendingUnstakedLayer2",
      "outputs": [
        {
          "internalType": "uint256",
          "name": "",
          "type": "uint256"
        }
      ],
      "stateMutability": "view",
      "type": "function"
    },
    {
      "inputs": [
        {
          "internalType": "uint256",
          "name": "",
          "type": "uint256"
        }
      ],
      "name": "proxyImplementation",
      "outputs": [
        {
          "internalType": "address",
          "name": "",
          "type": "address"
        }
      ],
      "stateMutability": "view",
      "type": "function"
    },
    {
      "inputs": [
        {
          "internalType": "address",
          "name": "account",
          "type": "address"
        }
      ],
      "name": "removeAdmin",
      "outputs": [],
      "stateMutability": "nonpayable",
      "type": "function"
    },
    {
      "inputs": [
        {
          "internalType": "bytes32",
          "name": "role",
          "type": "bytes32"
        },
        {
          "internalType": "address",
          "name": "account",
          "type": "address"
        }
      ],
      "name": "renounceRole",
      "outputs": [],
      "stateMutability": "nonpayable",
      "type": "function"
    },
    {
      "inputs": [
        {
          "internalType": "uint32",
          "name": "_index",
          "type": "uint32"
        }
      ],
      "name": "restake",
      "outputs": [],
      "stateMutability": "nonpayable",
      "type": "function"
    },
    {
      "inputs": [
        {
          "internalType": "uint32",
          "name": "_index",
          "type": "uint32"
        },
        {
          "internalType": "uint256",
          "name": "n",
          "type": "uint256"
        }
      ],
      "name": "restakeMulti",
      "outputs": [],
      "stateMutability": "nonpayable",
      "type": "function"
    },
    {
      "inputs": [
        {
          "internalType": "bytes32",
          "name": "role",
          "type": "bytes32"
        },
        {
          "internalType": "address",
          "name": "account",
          "type": "address"
        }
      ],
      "name": "revokeRole",
      "outputs": [],
      "stateMutability": "nonpayable",
      "type": "function"
    },
    {
      "inputs": [],
      "name": "seigManagerV2",
      "outputs": [
        {
          "internalType": "address",
          "name": "",
          "type": "address"
        }
      ],
      "stateMutability": "view",
      "type": "function"
    },
    {
      "inputs": [
        {
          "internalType": "bytes4",
          "name": "",
          "type": "bytes4"
        }
      ],
      "name": "selectorImplementation",
      "outputs": [
        {
          "internalType": "address",
          "name": "",
          "type": "address"
        }
      ],
      "stateMutability": "view",
      "type": "function"
    },
    {
      "inputs": [
        {
          "internalType": "uint32",
          "name": "_index",
          "type": "uint32"
        },
        {
          "internalType": "uint256",
          "name": "amount",
          "type": "uint256"
        }
      ],
      "name": "stake",
      "outputs": [],
      "stateMutability": "nonpayable",
      "type": "function"
    },
    {
      "inputs": [
        {
          "internalType": "uint256",
          "name": "",
          "type": "uint256"
        }
      ],
      "name": "stakeAccountList",
      "outputs": [
        {
          "internalType": "address",
          "name": "",
          "type": "address"
        }
      ],
      "stateMutability": "view",
      "type": "function"
    },
    {
      "inputs": [
        {
          "internalType": "bytes4",
          "name": "interfaceId",
          "type": "bytes4"
        }
      ],
      "name": "supportsInterface",
      "outputs": [
        {
          "internalType": "bool",
          "name": "",
          "type": "bool"
        }
      ],
      "stateMutability": "view",
      "type": "function"
    },
    {
      "inputs": [],
      "name": "ton",
      "outputs": [
        {
          "internalType": "address",
          "name": "",
          "type": "address"
        }
      ],
      "stateMutability": "view",
      "type": "function"
    },
    {
      "inputs": [],
      "name": "totalLayer2Deposits",
      "outputs": [
        {
          "internalType": "uint256",
          "name": "amount",
          "type": "uint256"
        }
      ],
      "stateMutability": "view",
      "type": "function"
    },
    {
      "inputs": [],
      "name": "totalStakeAccountList",
      "outputs": [
        {
          "internalType": "uint256",
          "name": "",
          "type": "uint256"
        }
      ],
      "stateMutability": "view",
      "type": "function"
    },
    {
      "inputs": [],
      "name": "totalStakedLton",
      "outputs": [
        {
          "internalType": "uint256",
          "name": "",
          "type": "uint256"
        }
      ],
      "stateMutability": "view",
      "type": "function"
    },
    {
      "inputs": [
        {
          "internalType": "address",
          "name": "newAdmin",
          "type": "address"
        }
      ],
      "name": "transferAdmin",
      "outputs": [],
      "stateMutability": "nonpayable",
      "type": "function"
    },
    {
      "inputs": [
        {
          "internalType": "uint32",
          "name": "_index",
          "type": "uint32"
        },
        {
          "internalType": "uint256",
          "name": "lton_",
          "type": "uint256"
        }
      ],
      "name": "unstake",
      "outputs": [],
      "stateMutability": "nonpayable",
      "type": "function"
    },
    {
      "inputs": [
        {
          "internalType": "uint32",
          "name": "_index",
          "type": "uint32"
        }
      ],
      "name": "withdraw",
      "outputs": [],
      "stateMutability": "nonpayable",
      "type": "function"
    },
    {
      "inputs": [
        {
          "internalType": "uint32",
          "name": "",
          "type": "uint32"
        },
        {
          "internalType": "address",
          "name": "",
          "type": "address"
        }
      ],
      "name": "withdrawalRequestIndex",
      "outputs": [
        {
          "internalType": "uint256",
          "name": "",
          "type": "uint256"
        }
      ],
      "stateMutability": "view",
      "type": "function"
    },
    {
      "inputs": [
        {
          "internalType": "uint32",
          "name": "",
          "type": "uint32"
        },
        {
          "internalType": "address",
          "name": "",
          "type": "address"
        },
        {
          "internalType": "uint256",
          "name": "",
          "type": "uint256"
        }
      ],
      "name": "withdrawalRequests",
      "outputs": [
        {
          "internalType": "uint32",
          "name": "withdrawableBlockNumber",
          "type": "uint32"
        },
        {
          "internalType": "uint128",
          "name": "amount",
          "type": "uint128"
        },
        {
          "internalType": "bool",
          "name": "processed",
          "type": "bool"
        }
      ],
      "stateMutability": "view",
      "type": "function"
    }
  ],
  "bytecode": "0x60806040526006805460ff1916600117905534801561001d57600080fd5b50613f108061002d6000396000f3fe608060405234801561001057600080fd5b506004361061036d5760003560e01c806375829def116101d35780639c656e2611610104578063b911135f116100a2578063cc48b9471161007c578063cc48b94714610a2e578063d547741f14610a46578063df2b429014610a59578063ec110d4514610a6c57600080fd5b8063b911135f146109dd578063b969fbef14610a06578063b9cab97114610a0e57600080fd5b8063a217fddf116100de578063a217fddf1461098c578063aa9224cd14610994578063b413b37a146109a7578063b6a2f99d146109af57600080fd5b80639c656e26146108ac578063a0392c0414610935578063a0b2a9131461096c57600080fd5b80638afec9fc116101715780638ddd87fe1161014b5780638ddd87fe1461081157806391d148541461084f57806394c89b2c146108865780639c2f614f1461089957600080fd5b80638afec9fc146107a35780638c71762d146107c95780638d99e1ca146107fe57600080fd5b80637cf1587c116101ad5780637cf1587c1461073f5780637d211a1c1461076a5780637ec6840f1461077d57806387dd8bd01461079057600080fd5b806375829def146106f257806375b238fc14610705578063763936c71461072c57600080fd5b80634de131ca116102ad57806363a8fd891161024b5780637048027511610225578063704802751461069957806370619cf9146106ac57806373469a7a146106cc578063744a3561146106df57600080fd5b806363a8fd891461062d578063659ab8201461063a5780636d1ef1031461065a57600080fd5b806350d2a2761161028757806350d2a276146105a3578063550d01a3146105cc5780635e2cfe45146105ef5780635f1b989e1461061a57600080fd5b80634de131ca1461053d5780634e1a264d146105525780634f818d0c1461055b57600080fd5b8063229852461161031a5780632f2ff15d116102f45780632f2ff15d146104fc57806336568abe1461050f5780634273ca161461052257806346bcdb491461053557600080fd5b80632298524614610491578063248a9ca3146104c657806324d7806c146104e957600080fd5b80631785f53c1161034b5780631785f53c146103da5780631ed94495146103ed5780631f760d011461045257600080fd5b806301ffc9a714610372578063118e29d11461039a57806316b5d5bd146103af575b600080fd5b610385610380366004613862565b610a7f565b60405190151581526020015b60405180910390f35b6103ad6103a83660046138a5565b610ab6565b005b6008546103c2906001600160a01b031681565b6040516001600160a01b039091168152602001610391565b6103ad6103e83660046138d7565b610b2b565b6104006103fb3660046138f2565b610bb8565b6040516103919190600060c0820190508251825260208301516020830152604083015160408301526060830151606083015260808301511515608083015261ffff60a08401511660a083015292915050565b6104656104603660046138f2565b610c76565b6040805194855263ffffffff938416602086015291831691840191909152166060820152608001610391565b6104b87ffb5864e8ff833c3cb2d2d08505e82ff02a43554c74a35d4f5a64e8526127831181565b604051908152602001610391565b6104b86104d4366004613925565b60009081526020819052604090206001015490565b6103856104f73660046138d7565b610db4565b6103ad61050a36600461393e565b610df4565b6103ad61051d36600461393e565b610e1e565b610385610530366004613961565b610ea6565b6012546104b8565b610545610f5b565b60405161039191906139fc565b6104b860095481565b61056e6105693660046138a5565b610fbd565b6040805182516001600160a01b0316815260208084015163ffffffff16908201529181015161ffff1690820152606001610391565b6103c26105b1366004613862565b6004602052600090815260409020546001600160a01b031681565b6103856105da3660046138d7565b60036020526000908152604090205460ff1681565b6104b86105fd3660046138f2565b600e60209081526000928352604080842090915290825290205481565b6104b86106283660046138f2565b6110d7565b6001546103859060ff1681565b61064d6106483660046138a5565b611153565b6040516103919190613a99565b61066d610668366004613aac565b6111ed565b6040805163ffffffff90941684526001600160801b039092166020840152151590820152606001610391565b6103ad6106a73660046138d7565b61124c565b6104b86106ba3660046138a5565b600a6020526000908152604090205481565b6007546103c2906001600160a01b031681565b6103ad6106ed366004613ae8565b6112d6565b6103ad6107003660046138d7565b611341565b6104b87fdf8b4c520ffe197c5343c6f5aec59570151ef9a492f2c624fd45ddde6135ec4281565b6103c261073a3660046138a5565b6114a3565b6104b861074d3660046138f2565b600d60209081526000928352604080842090915290825290205481565b6103856107783660046138a5565b611562565b6103ad61078b366004613ae8565b611629565b6104b861079e3660046138a5565b611688565b6104b86107b13660046138a5565b63ffffffff166000908152600a602052604090205490565b6107dc6107d73660046138f2565b611773565b6040805193845263ffffffff9283166020850152911690820152606001610391565b6104b861080c3660046138a5565b6118b0565b6104b861081f3660046138f2565b63ffffffff82166000908152600e602090815260408083206001600160a01b038516845290915290205492915050565b61038561085d36600461393e565b6000918252602082815260408084206001600160a01b0393909316845291905290205460ff1690565b6104b86108943660046138f2565b611923565b6103ad6108a7366004613ae8565b6119a0565b6109026108ba3660046138f2565b600b602090815260009283526040808420909152908252902080546001820154600283015460038401546004909401549293919290919060ff811690610100900461ffff1686565b6040805196875260208701959095529385019290925260608401521515608083015261ffff1660a082015260c001610391565b6109596109433660046138a5565b60136020526000908152604090205461ffff1681565b60405161ffff9091168152602001610391565b6104b861097a3660046138d7565b60106020526000908152604090205481565b6104b8600081565b6103ad6109a23660046138a5565b611b04565b6009546104b8565b6109c26109bd3660046138f2565b611f1a565b60408051938452602084019290925290820152606001610391565b6103c26109eb366004613925565b6002602052600090815260409020546001600160a01b031681565b6104b8611f75565b6104b8610a1c3660046138a5565b600f6020526000908152604090205481565b6006546103c29061010090046001600160a01b031681565b6103ad610a5436600461393e565b611fe8565b610385610a67366004613b28565b61200d565b6103c2610a7a366004613925565b612205565b60006001600160e01b03198216637965db0b60e01b1480610ab057506301ffc9a760e01b6001600160e01b03198316145b92915050565b63ffffffff81166000908152600d602090815260408083203380855292529091205490610ae790839083600161222f565b610b275760405162461bcd60e51b815260206004820152600c60248201526b534c5f455f52455354414b4560a01b60448201526064015b60405180910390fd5b5050565b610b3433610db4565b610b8b5760405162461bcd60e51b815260206004820152602260248201527f41636365737369626c653a2043616c6c6572206973206e6f7420616e2061646d60448201526134b760f11b6064820152608401610b1e565b610bb57fdf8b4c520ffe197c5343c6f5aec59570151ef9a492f2c624fd45ddde6135ec4282610e1e565b50565b610bf76040518060c0016040528060008152602001600081526020016000815260200160008152602001600015158152602001600061ffff1681525090565b5063ffffffff9091166000908152600b602090815260408083206001600160a01b03909416835292815290829020825160c081018452815481526001820154928101929092526002810154928201929092526003820154606082015260049091015460ff81161515608083015261ffff6101009091041660a082015290565b63ffffffff8083166000818152600c602090815260408083206001600160a01b03871680855290835281842054948452600d835281842090845290915281205490929091839182919084165b81811015610da95763ffffffff88166000908152600c602090815260408083206001600160a01b038b1684529091528120805483908110610d0557610d05613bea565b6000918252602080832060408051606081018252939091015463ffffffff8116845264010000000081046001600160801b031692840192909252600160a01b90910460ff1615159082018190529092509003610d96578363ffffffff16600003610d6e57805193505b6020810151610d86906001600160801b031688613c16565b9650610d93600186613c29565b94505b5080610da181613c4d565b915050610cc2565b505092959194509250565b6001600160a01b03811660009081527f5cbfc8ee58ca47855df7bcf648dd304ddb6b932f9b87878bdf6318d7ec7ee5b7602052604081205460ff16610ab0565b600082815260208190526040902060010154610e0f816126dc565b610e1983836126e6565b505050565b6001600160a01b0381163314610e9c5760405162461bcd60e51b815260206004820152602f60248201527f416363657373436f6e74726f6c3a2063616e206f6e6c792072656e6f756e636560448201527f20726f6c657320666f722073656c6600000000000000000000000000000000006064820152608401610b1e565b610b278282612784565b6000610ef8610eef600085858080601f01602080910402602001604051908101604052809392919081815260200183838082843760009201919091525092939250506128039050565b61ffff16611562565b610f445760405162461bcd60e51b815260206004820152601860248201527f6e6f6e2d726567697374657265642063616e64696461746500000000000000006044820152606401610b1e565b610f5186868686866128b7565b9695505050505050565b60606012805480602002602001604051908101604052809291908181526020018280548015610fb357602002820191906000526020600020905b81546001600160a01b03168152600190910190602001808311610f95575b5050505050905090565b604080516060810182526000808252602082018190529181019190915263ffffffff821660009081526011602052604081208054610ffa90613c66565b80601f016020809104026020016040519081016040528092919081815260200182805461102690613c66565b80156110735780601f1061104857610100808354040283529160200191611073565b820191906000526020600020905b81548152906001019060200180831161105657829003601f168201915b505050505090506019815111156110d15760408051606081019091528061109b836000612982565b6001600160a01b031681526020016110b4836014612803565b61ffff1681526020016110c8836018612a52565b61ffff16905291505b50919050565b63ffffffff9091166000908152600b602090815260408083206001600160a01b03909416835292815290829020825160c081018452815481526001820154928101929092526002810154928201839052600381015460608301526004015460ff81161515608083015261ffff6101009091041660a09091015290565b6011602052600090815260409020805461116c90613c66565b80601f016020809104026020016040519081016040528092919081815260200182805461119890613c66565b80156111e55780601f106111ba576101008083540402835291602001916111e5565b820191906000526020600020905b8154815290600101906020018083116111c857829003601f168201915b505050505081565b600c602052826000526040600020602052816000526040600020818154811061121557600080fd5b60009182526020909120015463ffffffff8116935064010000000081046001600160801b03169250600160a01b900460ff16905083565b61125533610db4565b6112ac5760405162461bcd60e51b815260206004820152602260248201527f41636365737369626c653a2043616c6c6572206973206e6f7420616e2061646d60448201526134b760f11b6064820152608401610b1e565b610bb57fdf8b4c520ffe197c5343c6f5aec59570151ef9a492f2c624fd45ddde6135ec4282610df4565b63ffffffff82166000908152600d602090815260408083203380855292529091205490611306908490838561222f565b610e195760405162461bcd60e51b815260206004820152600c60248201526b534c5f455f52455354414b4560a01b6044820152606401610b1e565b61134a33610db4565b6113a15760405162461bcd60e51b815260206004820152602260248201527f41636365737369626c653a2043616c6c6572206973206e6f7420616e2061646d60448201526134b760f11b6064820152608401610b1e565b6001600160a01b0381166113f75760405162461bcd60e51b815260206004820152601860248201527f41636365737369626c653a207a65726f206164647265737300000000000000006044820152606401610b1e565b6001600160a01b038116330361144f5760405162461bcd60e51b815260206004820152601660248201527f41636365737369626c653a2073616d652061646d696e000000000000000000006044820152606401610b1e565b6114797fdf8b4c520ffe197c5343c6f5aec59570151ef9a492f2c624fd45ddde6135ec4282610df4565b610bb57fdf8b4c520ffe197c5343c6f5aec59570151ef9a492f2c624fd45ddde6135ec4233610e1e565b63ffffffff8116600090815260116020526040812080548291906114c690613c66565b80601f01602080910402602001604051908101604052809291908181526020018280546114f290613c66565b801561153f5780601f106115145761010080835404028352916020019161153f565b820191906000526020600020905b81548152906001019060200180831161152257829003601f168201915b505050505090506017815111156110d15761155b816000612982565b9392505050565b600854604051635d170f8f60e01b815263ffffffff831660048201526000916001600160a01b031690635d170f8f90602401602060405180830381865afa1580156115b1573d6000803e3d6000fd5b505050506040513d601f19601f820116820180604052508101906115d59190613c9a565b6116215760405162461bcd60e51b815260206004820152601460248201527f6e6f6e2d72656769737465726564206c617965720000000000000000000000006044820152606401610b1e565b506001919050565b61163282611562565b61167e5760405162461bcd60e51b815260206004820152601860248201527f6e6f6e2d726567697374657265642063616e64696461746500000000000000006044820152606401610b1e565b610b278282612b06565b63ffffffff8116600090815260116020526040812080548291906116ab90613c66565b80601f01602080910402602001604051908101604052809291908181526020018280546116d790613c66565b80156117245780601f106116f957610100808354040283529160200191611724565b820191906000526020600020905b81548152906001019060200180831161170757829003601f168201915b505050505090506117426000601883612b6c9092919063ffffffff16565b6000604051602001611755929190613cbc565b60405160208183030381529060405280519060200120915050919050565b63ffffffff8083166000818152600c602090815260408083206001600160a01b03871680855290835281842054948452600d835281842090845290915281205490929091839183165b818110156118a75763ffffffff87166000908152600c602090815260408083206001600160a01b038a16845290915281208054839081106117ff576117ff613bea565b600091825260209182902060408051606081018252929091015463ffffffff811680845264010000000082046001600160801b031694840194909452600160a01b900460ff1615159082015291504311801561185d57506040810151155b1561188e57602081015161187a906001600160801b031687613c16565b9550611887600185613c29565b9350611894565b506118a7565b508061189f81613c4d565b9150506117bc565b50509250925092565b6008546040516346ccf0e560e11b815263ffffffff831660048201526000916001600160a01b031690638d99e1ca90602401602060405180830381865afa1580156118ff573d6000803e3d6000fd5b505050506040513d601f19601f82011682018060405250810190610ab09190613d06565b6007546000906001600160a01b031663cdf6800961194185856110d7565b6040518263ffffffff1660e01b815260040161195f91815260200190565b602060405180830381865afa15801561197c573d6000803e3d6000fd5b505050506040513d601f19601f8201168201806040525081019061155b9190613d06565b6119a9826114a3565b6001600160a01b03163303611afa576007546008546040805163a4dd8b7d60e01b815290516000936001600160a01b0390811693636a2fb1f59391169163a4dd8b7d916004808201926020929091908290030181865afa158015611a11573d6000803e3d6000fd5b505050506040513d601f19601f82011682018060405250810190611a359190613d06565b6040518263ffffffff1660e01b8152600401611a5391815260200190565b602060405180830381865afa158015611a70573d6000803e3d6000fd5b505050506040513d601f19601f82011682018060405250810190611a949190613d06565b9050611aa083336110d7565b611aaa8284613c16565b1115611af85760405162461bcd60e51b815260206004820152601d60248201527f6d696e696d756d4465706f736974466f7243616e6469646174652045310000006044820152606401610b1e565b505b610b278282612ccf565b60065460ff16611b3f5760405162461bcd60e51b8152600401610b1e906020808252600490820152636c6f636b60e01b604082015260600190565b6006805460ff1916905563ffffffff81166000818152600c602090815260408083203380855290835281842054948452600d83528184208185529092528220549092919081905b83811015611c585763ffffffff86166000908152600c602090815260408083206001600160a01b03891684529091528120805483908110611bc957611bc9613bea565b600091825260209091200180549091504363ffffffff909116108015611bf857508054600160a01b900460ff16155b15611c3f57805460ff60a01b1916600160a01b17808255611c2b906001600160801b036401000000009091041684613c16565b925083611c3781613c4d565b945050611c45565b50611c58565b5080611c5081613c4d565b915050611b86565b5060008111611ca95760405162461bcd60e51b815260206004820181905260248201527f7a65726f20617661696c61626c65207769746864726177616c20616d6f756e746044820152606401610b1e565b63ffffffff85166000908152600d602090815260408083206001600160a01b038816845290915281208054849290611ce2908490613c16565b909155505063ffffffff85166000908152600e602090815260408083206001600160a01b038816845290915281208054839290611d20908490613d1f565b909155505063ffffffff85166000908152600f602052604081208054839290611d4a908490613d1f565b90915550506001600160a01b03841660009081526010602052604081208054839290611d77908490613d1f565b90915550506006546040516370a0823160e01b815230600482015260009161010090046001600160a01b0316906370a0823190602401602060405180830381865afa158015611dca573d6000803e3d6000fd5b505050506040513d601f19601f82011682018060405250810190611dee9190613d06565b905081811015611e99578015611e1a57600654611e1a9061010090046001600160a01b031686836130e0565b6007546001600160a01b031663aad3ec9686611e368486613d1f565b6040516001600160e01b031960e085901b1681526001600160a01b0390921660048301526024820152604401600060405180830381600087803b158015611e7c57600080fd5b505af1158015611e90573d6000803e3d6000fd5b50505050611eb5565b600654611eb59061010090046001600160a01b031686846130e0565b6040805163ffffffff881681526001600160a01b03871660208201529081018390527f2d6eb139d2002caa088da5527d9d62f2f23bdf4504f5559a112535c436c6ee59906060015b60405180910390a150506006805460ff1916600117905550505050565b63ffffffff82166000818152600c602090815260408083206001600160a01b03861680855290835281842054948452600d835281842090845290915281205490818310611f6e57611f6b8284613d1f565b90505b9250925092565b6008546040805163b969fbef60e01b815290516000926001600160a01b03169163b969fbef9160048083019260209291908290030181865afa158015611fbf573d6000803e3d6000fd5b505050506040513d601f19601f82011682018060405250810190611fe39190613d06565b905090565b600082815260208190526040902060010154612003816126dc565b610e198383612784565b6008546000906001600160a01b0316331461206a5760405162461bcd60e51b815260206004820152601160248201527f6e6f74204c61796572324d616e616765720000000000000000000000000000006044820152606401610b1e565b63ffffffff83166000908152601160205260409020805461208a90613c66565b1590506120d95760405162461bcd60e51b815260206004820152600f60248201527f616c7265616479206372656174656400000000000000000000000000000000006044820152606401610b1e565b603982511161212a5760405162461bcd60e51b815260206004820152600b60248201527f77726f6e67205f696e666f0000000000000000000000000000000000000000006044820152606401610b1e565b6000612137836018612a52565b905061ffff8116156121685763ffffffff84166000908152601360205260409020805461ffff191661ffff83161790555b600061217584601a6131fb565b9050612184846000601a612b6c565b6040516020016121949190613d32565b60408051601f1981840301815291815263ffffffff87166000908152601160205220906121c19082613d94565b506008546006546121e5916001600160a01b036101009092048216911630846132bb565b6121fa856121f4866000612982565b836133df565b506001949350505050565b6012818154811061221557600080fd5b6000918252602090912001546001600160a01b0316905081565b60065460009060ff1661226d5760405162461bcd60e51b8152600401610b1e906020808252600490820152636c6f636b60e01b604082015260600190565b6006805460ff1916905563ffffffff85166000908152600c602090815260408083206001600160a01b0388168452909152812054806122db5760405162461bcd60e51b815260206004820152600a6024820152696e6f20756e7374616b6560b01b6044820152606401610b1e565b836122e68683613d1f565b10156123345760405162461bcd60e51b815260206004820152601860248201527f6e2065786365656473206e756d206f662070656e64696e6700000000000000006044820152606401610b1e565b60006123408587613c16565b90505b808610156124365763ffffffff88166000908152600c602090815260408083206001600160a01b038b168452909152812080548890811061238657612386613bea565b6000918252602090912001805490915064010000000081046001600160801b031690600160a01b900460ff16156123ff5760405162461bcd60e51b815260206004820152601260248201527f616c7265616479207769746864726177616c00000000000000000000000000006044820152606401610b1e565b80156124125761240f8186613c16565b94505b50805460ff60a01b1916600160a01b1790558561242e81613c4d565b965050612343565b600083116124865760405162461bcd60e51b815260206004820152601760248201527f6e6f2076616c69642072657374616b6520616d6f756e740000000000000000006044820152606401610b1e565b600754604051636a2fb1f560e01b8152600481018590526000916001600160a01b031690636a2fb1f590602401602060405180830381865afa1580156124d0573d6000803e3d6000fd5b505050506040513d601f19601f820116820180604052508101906124f49190613d06565b63ffffffff8a166000908152600b602090815260408083206001600160a01b038d168452909152812080549293509186918391612532908490613c16565b925050819055508181600201600082825461254d9190613c16565b909155505063ffffffff8a166000908152600a602052604081208054849290612577908490613c16565b9250508190555081600960008282546125909190613c16565b909155505063ffffffff8a166000908152600e602090815260408083206001600160a01b038d168452909152812080548792906125ce908490613d1f565b909155505063ffffffff8a166000908152600f6020526040812080548792906125f8908490613d1f565b90915550506001600160a01b03891660009081526010602052604081208054879290612625908490613d1f565b909155505063ffffffff8a166000908152600d602090815260408083206001600160a01b038d16845290915281208054899290612663908490613c16565b90915550506040805163ffffffff8c1681526001600160a01b038b166020820152908101869052606081018390527f34981dc0486069d2abbaddbc42e10b97cb24e4bce60ee4457e1d5062dfc0b4299060800160405180910390a16001955050505050506006805460ff19166001179055949350505050565b610bb58133613634565b6000828152602081815260408083206001600160a01b038516845290915290205460ff16610b27576000828152602081815260408083206001600160a01b03851684529091529020805460ff191660011790556127403390565b6001600160a01b0316816001600160a01b0316837f2f8788117e7eff1d82e926ec794901d17c78024a50270940304540a733656f0d60405160405180910390a45050565b6000828152602081815260408083206001600160a01b038516845290915290205460ff1615610b27576000828152602081815260408083206001600160a01b0385168085529252808320805460ff1916905551339285917ff6391f5c32d9c69d2a47ea670b442974b53935d1edc7fd64eb21e047a839171b9190a45050565b600081612811816004613c16565b10156128535760405162461bcd60e51b8152602060048201526011602482015270746f55696e7431365f6f766572666c6f7760781b6044820152606401610b1e565b61285e826004613c16565b835110156128ae5760405162461bcd60e51b815260206004820152601460248201527f746f55696e7431365f6f75744f66426f756e64730000000000000000000000006044820152606401610b1e565b50016004015190565b60065460009061010090046001600160a01b031633146128fe5760405162461bcd60e51b8152602060048201526002602482015261454160f01b6044820152606401610b1e565b6000612944600085858080601f01602080910402602001604051908101604052809392919081815260200183838082843760009201919091525092939250506128039050565b60065461ffff91909116915061296a9061010090046001600160a01b03168830886132bb565b6129758188876133df565b5060019695505050505050565b600081612990816014613c16565b10156129de5760405162461bcd60e51b815260206004820152601260248201527f746f416464726573735f6f766572666c6f7700000000000000000000000000006044820152606401610b1e565b6129e9826014613c16565b83511015612a395760405162461bcd60e51b815260206004820152601560248201527f746f416464726573735f6f75744f66426f756e647300000000000000000000006044820152606401610b1e565b5001602001516c01000000000000000000000000900490565b600081612a60816002613c16565b1015612aa25760405162461bcd60e51b8152602060048201526011602482015270746f55696e7431365f6f766572666c6f7760781b6044820152606401610b1e565b612aad826002613c16565b83511015612afd5760405162461bcd60e51b815260206004820152601460248201527f746f55696e7431365f6f75744f66426f756e64730000000000000000000000006044820152606401610b1e565b50016002015190565b8080600003612b3c5760405162461bcd60e51b81526020600482015260026024820152615a3160f01b6044820152606401610b1e565b6006543390612b5b9061010090046001600160a01b03168230866132bb565b612b668482856133df565b50505050565b606081612b7a81601f613c16565b1015612bb95760405162461bcd60e51b815260206004820152600e60248201526d736c6963655f6f766572666c6f7760901b6044820152606401610b1e565b82612bc48382613c16565b1015612c035760405162461bcd60e51b815260206004820152600e60248201526d736c6963655f6f766572666c6f7760901b6044820152606401610b1e565b612c0d8284613c16565b84511015612c5d5760405162461bcd60e51b815260206004820152601160248201527f736c6963655f6f75744f66426f756e64730000000000000000000000000000006044820152606401610b1e565b606082158015612c7c5760405191506000825260208201604052612cc6565b6040519150601f8416801560200281840101858101878315602002848b0101015b81831015612cb5578051835260209283019201612c9d565b5050858452601f01601f1916604052505b50949350505050565b60065460ff16612d0a5760405162461bcd60e51b8152600401610b1e906020808252600490820152636c6f636b60e01b604082015260600190565b6006805460ff19169055806000819003612d4b5760405162461bcd60e51b81526020600482015260026024820152615a3160f01b6044820152606401610b1e565b60075460405163cdf6800960e01b81526004810184905233916000916001600160a01b039091169063cdf6800990602401602060405180830381865afa158015612d99573d6000803e3d6000fd5b505050506040513d601f19601f82011682018060405250810190612dbd9190613d06565b63ffffffff86166000908152600b602090815260408083206001600160a01b03871684529091529020600281015491925090851115612e275760405162461bcd60e51b8152600401610b1e90602080825260049082015263534c5f3160e01b604082015260600190565b84816002016000828254612e3b9190613d1f565b90915550508054821115612e525760008155612e6c565b81816000016000828254612e669190613d1f565b90915550505b63ffffffff86166000908152600a602052604081208054879290612e91908490613d1f565b925050819055508460096000828254612eaa9190613d1f565b909155505060085460408051636577b27360e11b815290516000926001600160a01b03169163caef64e69160048083019260209291908290030181865afa158015612ef9573d6000803e3d6000fd5b505050506040513d601f19601f82011682018060405250810190612f1d9190613d06565b63ffffffff88166000908152600c602090815260408083206001600160a01b03891684529091529081902081516060810190925291925080612f5f8443613c16565b63ffffffff90811682526001600160801b0380881660208085019190915260006040948501819052865460018101885596815281812086519701805487840151978701511515600160a01b0260ff60a01b19989095166401000000000273ffffffffffffffffffffffffffffffffffffffff19909116988616989098179790971795909516919091179094558a168252600e83528082206001600160a01b03881683529092529081208054859290613018908490613c16565b909155505063ffffffff87166000908152600f602052604081208054859290613042908490613c16565b90915550506001600160a01b0384166000908152601060205260408120805485929061306f908490613c16565b90915550506040805163ffffffff891681526001600160a01b0386166020820152908101849052606081018790527f869a01319d83bb921803a22e3e95d0cb8b08e708d3fb144e2c25a563bf8650d39060800160405180910390a150506006805460ff191660011790555050505050565b604080516001600160a01b038481166024830152604480830185905283518084039091018152606490920183526020820180516001600160e01b031663a9059cbb60e01b179052915160009283929087169161313c9190613d32565b6000604051808303816000865af19150503d8060008114613179576040519150601f19603f3d011682016040523d82523d6000602084013e61317e565b606091505b50915091508180156131a85750805115806131a85750808060200190518101906131a89190613c9a565b6131f45760405162461bcd60e51b815260206004820152600f60248201527f5452414e534645525f4641494c454400000000000000000000000000000000006044820152606401610b1e565b5050505050565b600081613209816020613c16565b10156132575760405162461bcd60e51b815260206004820152601260248201527f746f55696e743235365f6f766572666c6f7700000000000000000000000000006044820152606401610b1e565b613262826020613c16565b835110156132b25760405162461bcd60e51b815260206004820152601560248201527f746f55696e743235365f6f75744f66426f756e647300000000000000000000006044820152606401610b1e565b50016020015190565b604080516001600160a01b0385811660248301528481166044830152606480830185905283518084039091018152608490920183526020820180516001600160e01b03166323b872dd60e01b179052915160009283929088169161331f9190613d32565b6000604051808303816000865af19150503d806000811461335c576040519150601f19603f3d011682016040523d82523d6000602084013e613361565b606091505b509150915081801561338b57508051158061338b57508080602001905181019061338b9190613c9a565b6133d75760405162461bcd60e51b815260206004820152601460248201527f5452414e534645525f46524f4d5f4641494c45440000000000000000000000006044820152606401610b1e565b505050505050565b60065460ff1661341a5760405162461bcd60e51b8152600401610b1e906020808252600490820152636c6f636b60e01b604082015260600190565b6006805460ff1916905580600081900361345b5760405162461bcd60e51b81526020600482015260026024820152615a3160f01b6044820152606401610b1e565b600754604051636a2fb1f560e01b8152600481018490526000916001600160a01b031690636a2fb1f590602401602060405180830381865afa1580156134a5573d6000803e3d6000fd5b505050506040513d601f19601f820116820180604052508101906134c99190613d06565b63ffffffff86166000908152600b602090815260408083206001600160a01b0389168452909152902060048101549192509060ff1661356a57600481018054600160ff1990911681179091556012805491820181556000527fbb8a6a4669ba250d26cd7a459eca9d215f8307e33aebe50379bc5a3617ec344401805473ffffffffffffffffffffffffffffffffffffffff19166001600160a01b0387161790555b8381600001600082825461357e9190613c16565b92505081905550818160020160008282546135999190613c16565b909155505063ffffffff86166000908152600a6020526040812080548492906135c3908490613c16565b9250508190555081600960008282546135dc9190613c16565b90915550506040805163ffffffff881681526001600160a01b0387166020820152908101859052606081018390527fa2a62e1cc3e20f8692b7a85ee11f09e9c0f0c2cd028ba26400f65c7bd55361ee90608001611efd565b6000828152602081815260408083206001600160a01b038516845290915290205460ff16610b2757613665816136a7565b6136708360206136b9565b604051602001613681929190613e54565b60408051601f198184030181529082905262461bcd60e51b8252610b1e91600401613a99565b6060610ab06001600160a01b03831660145b606060006136c8836002613ed5565b6136d3906002613c16565b67ffffffffffffffff8111156136eb576136eb613b12565b6040519080825280601f01601f191660200182016040528015613715576020820181803683370190505b509050600360fc1b8160008151811061373057613730613bea565b60200101906001600160f81b031916908160001a905350600f60fb1b8160018151811061375f5761375f613bea565b60200101906001600160f81b031916908160001a9053506000613783846002613ed5565b61378e906001613c16565b90505b6001811115613813577f303132333435363738396162636465660000000000000000000000000000000085600f16601081106137cf576137cf613bea565b1a60f81b8282815181106137e5576137e5613bea565b60200101906001600160f81b031916908160001a90535060049490941c9361380c81613eec565b9050613791565b50831561155b5760405162461bcd60e51b815260206004820181905260248201527f537472696e67733a20686578206c656e67746820696e73756666696369656e746044820152606401610b1e565b60006020828403121561387457600080fd5b81356001600160e01b03198116811461155b57600080fd5b803563ffffffff811681146138a057600080fd5b919050565b6000602082840312156138b757600080fd5b61155b8261388c565b80356001600160a01b03811681146138a057600080fd5b6000602082840312156138e957600080fd5b61155b826138c0565b6000806040838503121561390557600080fd5b61390e8361388c565b915061391c602084016138c0565b90509250929050565b60006020828403121561393757600080fd5b5035919050565b6000806040838503121561395157600080fd5b8235915061391c602084016138c0565b60008060008060006080868803121561397957600080fd5b613982866138c0565b9450613990602087016138c0565b935060408601359250606086013567ffffffffffffffff808211156139b457600080fd5b818801915088601f8301126139c857600080fd5b8135818111156139d757600080fd5b8960208285010111156139e957600080fd5b9699959850939650602001949392505050565b6020808252825182820181905260009190848201906040850190845b81811015613a3d5783516001600160a01b031683529284019291840191600101613a18565b50909695505050505050565b60005b83811015613a64578181015183820152602001613a4c565b50506000910152565b60008151808452613a85816020860160208601613a49565b601f01601f19169290920160200192915050565b60208152600061155b6020830184613a6d565b600080600060608486031215613ac157600080fd5b613aca8461388c565b9250613ad8602085016138c0565b9150604084013590509250925092565b60008060408385031215613afb57600080fd5b613b048361388c565b946020939093013593505050565b634e487b7160e01b600052604160045260246000fd5b60008060408385031215613b3b57600080fd5b613b448361388c565b9150602083013567ffffffffffffffff80821115613b6157600080fd5b818501915085601f830112613b7557600080fd5b813581811115613b8757613b87613b12565b604051601f8201601f19908116603f01168101908382118183101715613baf57613baf613b12565b81604052828152886020848701011115613bc857600080fd5b8260208601602083013760006020848301015280955050505050509250929050565b634e487b7160e01b600052603260045260246000fd5b634e487b7160e01b600052601160045260246000fd5b80820180821115610ab057610ab0613c00565b63ffffffff818116838216019080821115613c4657613c46613c00565b5092915050565b600060018201613c5f57613c5f613c00565b5060010190565b600181811c90821680613c7a57607f821691505b6020821081036110d157634e487b7160e01b600052602260045260246000fd5b600060208284031215613cac57600080fd5b8151801515811461155b57600080fd5b60008351613cce818460208801613a49565b60f09390931b7fffff000000000000000000000000000000000000000000000000000000000000169190920190815260020192915050565b600060208284031215613d1857600080fd5b5051919050565b81810381811115610ab057610ab0613c00565b60008251613d44818460208701613a49565b9190910192915050565b601f821115610e1957600081815260208120601f850160051c81016020861015613d755750805b601f850160051c820191505b818110156133d757828155600101613d81565b815167ffffffffffffffff811115613dae57613dae613b12565b613dc281613dbc8454613c66565b84613d4e565b602080601f831160018114613df75760008415613ddf5750858301515b600019600386901b1c1916600185901b1785556133d7565b600085815260208120601f198616915b82811015613e2657888601518255948401946001909101908401613e07565b5085821015613e445787850151600019600388901b60f8161c191681555b5050505050600190811b01905550565b7f416363657373436f6e74726f6c3a206163636f756e7420000000000000000000815260008351613e8c816017850160208801613a49565b7f206973206d697373696e6720726f6c65200000000000000000000000000000006017918401918201528351613ec9816028840160208801613a49565b01602801949350505050565b8082028115828204841417610ab057610ab0613c00565b600081613efb57613efb613c00565b50600019019056fea164736f6c6343000812000a",
  "linkReferences": {},
  "deployedLinkReferences": {}
}