{
  "_format": "hh-sol-artifact-1",
  "contractName": "Candidate",
  "sourceName": "contracts/Candidate.sol",
  "abi": [
    {
      "inputs": [],
      "stateMutability": "nonpayable",
      "type": "constructor"
    },
    {
      "anonymous": false,
      "inputs": [
        {
          "indexed": false,
          "internalType": "uint32",
          "name": "_index",
          "type": "uint32"
        },
        {
          "indexed": false,
          "internalType": "address",
          "name": "sender",
          "type": "address"
        },
        {
          "indexed": false,
          "internalType": "uint256",
          "name": "amount",
          "type": "uint256"
        },
        {
          "indexed": false,
          "internalType": "uint256",
          "name": "lton",
          "type": "uint256"
        }
      ],
      "name": "Restaked",
      "type": "event"
    },
    {
      "anonymous": false,
      "inputs": [
        {
          "indexed": true,
          "internalType": "bytes32",
          "name": "role",
          "type": "bytes32"
        },
        {
          "indexed": true,
          "internalType": "bytes32",
          "name": "previousAdminRole",
          "type": "bytes32"
        },
        {
          "indexed": true,
          "internalType": "bytes32",
          "name": "newAdminRole",
          "type": "bytes32"
        }
      ],
      "name": "RoleAdminChanged",
      "type": "event"
    },
    {
      "anonymous": false,
      "inputs": [
        {
          "indexed": true,
          "internalType": "bytes32",
          "name": "role",
          "type": "bytes32"
        },
        {
          "indexed": true,
          "internalType": "address",
          "name": "account",
          "type": "address"
        },
        {
          "indexed": true,
          "internalType": "address",
          "name": "sender",
          "type": "address"
        }
      ],
      "name": "RoleGranted",
      "type": "event"
    },
    {
      "anonymous": false,
      "inputs": [
        {
          "indexed": true,
          "internalType": "bytes32",
          "name": "role",
          "type": "bytes32"
        },
        {
          "indexed": true,
          "internalType": "address",
          "name": "account",
          "type": "address"
        },
        {
          "indexed": true,
          "internalType": "address",
          "name": "sender",
          "type": "address"
        }
      ],
      "name": "RoleRevoked",
      "type": "event"
    },
    {
      "anonymous": false,
      "inputs": [
        {
          "indexed": false,
          "internalType": "uint32",
          "name": "_index",
          "type": "uint32"
        },
        {
          "indexed": false,
          "internalType": "address",
          "name": "sender",
          "type": "address"
        },
        {
          "indexed": false,
          "internalType": "uint256",
          "name": "amount",
          "type": "uint256"
        },
        {
          "indexed": false,
          "internalType": "uint256",
          "name": "lton",
          "type": "uint256"
        },
        {
          "indexed": false,
          "internalType": "address",
          "name": "commissionTo",
          "type": "address"
        },
        {
          "indexed": false,
          "internalType": "uint16",
          "name": "commission",
          "type": "uint16"
        }
      ],
      "name": "Staked",
      "type": "event"
    },
    {
      "anonymous": false,
      "inputs": [
        {
          "indexed": false,
          "internalType": "uint32",
          "name": "_index",
          "type": "uint32"
        },
        {
          "indexed": false,
          "internalType": "address",
          "name": "sender",
          "type": "address"
        },
        {
          "indexed": false,
          "internalType": "uint256",
          "name": "amount",
          "type": "uint256"
        },
        {
          "indexed": false,
          "internalType": "uint256",
          "name": "lton",
          "type": "uint256"
        }
      ],
      "name": "Unstaked",
      "type": "event"
    },
    {
      "anonymous": false,
      "inputs": [
        {
          "indexed": false,
          "internalType": "uint32",
          "name": "_index",
          "type": "uint32"
        },
        {
          "indexed": false,
          "internalType": "address",
          "name": "sender",
          "type": "address"
        },
        {
          "indexed": false,
          "internalType": "uint256",
          "name": "amount",
          "type": "uint256"
        }
      ],
      "name": "Withdrawal",
      "type": "event"
    },
    {
      "inputs": [],
      "name": "ADMIN_ROLE",
      "outputs": [
        {
          "internalType": "bytes32",
          "name": "",
          "type": "bytes32"
        }
      ],
      "stateMutability": "view",
      "type": "function"
    },
    {
      "inputs": [],
      "name": "DEFAULT_ADMIN_ROLE",
      "outputs": [
        {
          "internalType": "bytes32",
          "name": "",
          "type": "bytes32"
        }
      ],
      "stateMutability": "view",
      "type": "function"
    },
    {
      "inputs": [],
      "name": "POLICY_ROLE",
      "outputs": [
        {
          "internalType": "bytes32",
          "name": "",
          "type": "bytes32"
        }
      ],
      "stateMutability": "view",
      "type": "function"
    },
    {
      "inputs": [
        {
          "internalType": "address",
          "name": "account",
          "type": "address"
        }
      ],
      "name": "addAdmin",
      "outputs": [],
      "stateMutability": "nonpayable",
      "type": "function"
    },
    {
      "inputs": [
        {
          "internalType": "address",
          "name": "",
          "type": "address"
        }
      ],
      "name": "aliveImplementation",
      "outputs": [
        {
          "internalType": "bool",
          "name": "",
          "type": "bool"
        }
      ],
      "stateMutability": "view",
      "type": "function"
    },
    {
      "inputs": [
        {
          "internalType": "uint32",
          "name": "layerIndex",
          "type": "uint32"
        },
        {
          "internalType": "address",
          "name": "account",
          "type": "address"
        }
      ],
      "name": "amountOfPendings",
      "outputs": [
        {
          "internalType": "uint256",
          "name": "amount",
          "type": "uint256"
        },
        {
          "internalType": "uint32",
          "name": "startIndex",
          "type": "uint32"
        },
        {
          "internalType": "uint32",
          "name": "len",
          "type": "uint32"
        },
        {
          "internalType": "uint32",
          "name": "nextWithdrawableBlockNumber",
          "type": "uint32"
        }
      ],
      "stateMutability": "view",
      "type": "function"
    },
    {
      "inputs": [
        {
          "internalType": "uint32",
          "name": "_index",
          "type": "uint32"
        },
        {
          "internalType": "address",
          "name": "account",
          "type": "address"
        }
      ],
      "name": "availableWithdraw",
      "outputs": [
        {
          "internalType": "uint256",
          "name": "amount",
          "type": "uint256"
        },
        {
          "internalType": "uint32",
          "name": "startIndex",
          "type": "uint32"
        },
        {
          "internalType": "uint32",
          "name": "len",
          "type": "uint32"
        }
      ],
      "stateMutability": "view",
      "type": "function"
    },
    {
      "inputs": [
        {
          "internalType": "uint32",
          "name": "_index",
          "type": "uint32"
        },
        {
          "internalType": "address",
          "name": "account",
          "type": "address"
        }
      ],
      "name": "balanceOf",
      "outputs": [
        {
          "internalType": "uint256",
          "name": "amount",
          "type": "uint256"
        }
      ],
      "stateMutability": "view",
      "type": "function"
    },
    {
      "inputs": [
        {
          "internalType": "uint32",
          "name": "_index",
          "type": "uint32"
        },
        {
          "internalType": "address",
          "name": "account",
          "type": "address"
        }
      ],
      "name": "balanceOfLton",
      "outputs": [
        {
          "internalType": "uint256",
          "name": "amount",
          "type": "uint256"
        }
      ],
      "stateMutability": "view",
      "type": "function"
    },
    {
      "inputs": [
        {
          "internalType": "uint32",
          "name": "_index",
          "type": "uint32"
        }
      ],
      "name": "balanceOfLton",
      "outputs": [
        {
          "internalType": "uint256",
          "name": "amount",
          "type": "uint256"
        }
      ],
      "stateMutability": "view",
      "type": "function"
    },
    {
      "inputs": [
        {
          "internalType": "uint32",
          "name": "_candidateIndex",
          "type": "uint32"
        },
        {
          "internalType": "bytes",
          "name": "_info",
          "type": "bytes"
        }
      ],
      "name": "create",
      "outputs": [
        {
          "internalType": "bool",
          "name": "",
          "type": "bool"
        }
      ],
      "stateMutability": "nonpayable",
      "type": "function"
    },
    {
      "inputs": [
        {
          "internalType": "uint32",
          "name": "_index",
          "type": "uint32"
        }
      ],
      "name": "existedIndex",
      "outputs": [
        {
          "internalType": "bool",
          "name": "",
          "type": "bool"
        }
      ],
      "stateMutability": "view",
      "type": "function"
    },
    {
      "inputs": [
        {
          "internalType": "uint32",
          "name": "_index",
          "type": "uint32"
        }
      ],
      "name": "getCandidateInfo",
      "outputs": [
        {
          "components": [
            {
              "internalType": "address",
              "name": "operator",
              "type": "address"
            },
            {
              "internalType": "uint32",
              "name": "sequencerIndex",
              "type": "uint32"
            },
            {
              "internalType": "uint16",
              "name": "commission",
              "type": "uint16"
            }
          ],
          "internalType": "struct LibOperator.Info",
          "name": "_layerInfo",
          "type": "tuple"
        }
      ],
      "stateMutability": "view",
      "type": "function"
    },
    {
      "inputs": [
        {
          "internalType": "uint32",
          "name": "_index",
          "type": "uint32"
        }
      ],
      "name": "getCandidateKey",
      "outputs": [
        {
          "internalType": "bytes32",
          "name": "layerKey_",
          "type": "bytes32"
        }
      ],
      "stateMutability": "view",
      "type": "function"
    },
    {
      "inputs": [
        {
          "internalType": "uint32",
          "name": "_index",
          "type": "uint32"
        },
        {
          "internalType": "address",
          "name": "account",
          "type": "address"
        }
      ],
      "name": "getLayerStakes",
      "outputs": [
        {
          "components": [
            {
              "internalType": "uint256",
              "name": "stakePrincipal",
              "type": "uint256"
            },
            {
              "internalType": "uint256",
              "name": "bondPrincipal",
              "type": "uint256"
            },
            {
              "internalType": "uint256",
              "name": "stakelton",
              "type": "uint256"
            },
            {
              "internalType": "uint256",
              "name": "bondlton",
              "type": "uint256"
            },
            {
              "internalType": "bool",
              "name": "stake",
              "type": "bool"
            },
            {
              "internalType": "uint16",
              "name": "fwFee",
              "type": "uint16"
            }
          ],
          "internalType": "struct LibStake.StakeInfo",
          "name": "info",
          "type": "tuple"
        }
      ],
      "stateMutability": "view",
      "type": "function"
    },
    {
      "inputs": [
        {
          "internalType": "uint32",
          "name": "_index",
          "type": "uint32"
        },
        {
          "internalType": "address",
          "name": "account",
          "type": "address"
        }
      ],
      "name": "getPendingUnstakedAmount",
      "outputs": [
        {
          "internalType": "uint256",
          "name": "",
          "type": "uint256"
        }
      ],
      "stateMutability": "view",
      "type": "function"
    },
    {
      "inputs": [
        {
          "internalType": "bytes32",
          "name": "role",
          "type": "bytes32"
        }
      ],
      "name": "getRoleAdmin",
      "outputs": [
        {
          "internalType": "bytes32",
          "name": "",
          "type": "bytes32"
        }
      ],
      "stateMutability": "view",
      "type": "function"
    },
    {
      "inputs": [],
      "name": "getStakeAccountList",
      "outputs": [
        {
          "internalType": "address[]",
          "name": "",
          "type": "address[]"
        }
      ],
      "stateMutability": "view",
      "type": "function"
    },
    {
      "inputs": [],
      "name": "getTotalLton",
      "outputs": [
        {
          "internalType": "uint256",
          "name": "",
          "type": "uint256"
        }
      ],
      "stateMutability": "view",
      "type": "function"
    },
    {
      "inputs": [
        {
          "internalType": "bytes32",
          "name": "role",
          "type": "bytes32"
        },
        {
          "internalType": "address",
          "name": "account",
          "type": "address"
        }
      ],
      "name": "grantRole",
      "outputs": [],
      "stateMutability": "nonpayable",
      "type": "function"
    },
    {
      "inputs": [
        {
          "internalType": "bytes32",
          "name": "role",
          "type": "bytes32"
        },
        {
          "internalType": "address",
          "name": "account",
          "type": "address"
        }
      ],
      "name": "hasRole",
      "outputs": [
        {
          "internalType": "bool",
          "name": "",
          "type": "bool"
        }
      ],
      "stateMutability": "view",
      "type": "function"
    },
    {
      "inputs": [
        {
          "internalType": "address",
          "name": "account",
          "type": "address"
        }
      ],
      "name": "isAdmin",
      "outputs": [
        {
          "internalType": "bool",
          "name": "",
          "type": "bool"
        }
      ],
      "stateMutability": "view",
      "type": "function"
    },
    {
      "inputs": [
        {
          "internalType": "uint32",
          "name": "_index",
          "type": "uint32"
        }
      ],
      "name": "layer2Deposits",
      "outputs": [
        {
          "internalType": "uint256",
          "name": "amount",
          "type": "uint256"
        }
      ],
      "stateMutability": "view",
      "type": "function"
    },
    {
      "inputs": [],
      "name": "layer2Manager",
      "outputs": [
        {
          "internalType": "address",
          "name": "",
          "type": "address"
        }
      ],
      "stateMutability": "view",
      "type": "function"
    },
    {
      "inputs": [
        {
          "internalType": "uint32",
          "name": "",
          "type": "uint32"
        }
      ],
      "name": "layerInfo",
      "outputs": [
        {
          "internalType": "bytes",
          "name": "",
          "type": "bytes"
        }
      ],
      "stateMutability": "view",
      "type": "function"
    },
    {
      "inputs": [
        {
          "internalType": "uint32",
          "name": "",
          "type": "uint32"
        }
      ],
      "name": "layerStakedLton",
      "outputs": [
        {
          "internalType": "uint256",
          "name": "",
          "type": "uint256"
        }
      ],
      "stateMutability": "view",
      "type": "function"
    },
    {
      "inputs": [
        {
          "internalType": "uint32",
          "name": "",
          "type": "uint32"
        },
        {
          "internalType": "address",
          "name": "",
          "type": "address"
        }
      ],
      "name": "layerStakes",
      "outputs": [
        {
          "internalType": "uint256",
          "name": "stakePrincipal",
          "type": "uint256"
        },
        {
          "internalType": "uint256",
          "name": "bondPrincipal",
          "type": "uint256"
        },
        {
          "internalType": "uint256",
          "name": "stakelton",
          "type": "uint256"
        },
        {
          "internalType": "uint256",
          "name": "bondlton",
          "type": "uint256"
        },
        {
          "internalType": "bool",
          "name": "stake",
          "type": "bool"
        },
        {
          "internalType": "uint16",
          "name": "fwFee",
          "type": "uint16"
        }
      ],
      "stateMutability": "view",
      "type": "function"
    },
    {
      "inputs": [
        {
          "internalType": "uint32",
          "name": "layerIndex",
          "type": "uint32"
        },
        {
          "internalType": "address",
          "name": "account",
          "type": "address"
        }
      ],
      "name": "numberOfPendings",
      "outputs": [
        {
          "internalType": "uint256",
          "name": "totalRequests",
          "type": "uint256"
        },
        {
          "internalType": "uint256",
          "name": "withdrawIndex",
          "type": "uint256"
        },
        {
          "internalType": "uint256",
          "name": "pendingLength",
          "type": "uint256"
        }
      ],
      "stateMutability": "view",
      "type": "function"
    },
    {
      "inputs": [
        {
          "internalType": "address",
          "name": "sender",
          "type": "address"
        },
        {
          "internalType": "address",
          "name": "spender",
          "type": "address"
        },
        {
          "internalType": "uint256",
          "name": "amount",
          "type": "uint256"
        },
        {
          "internalType": "bytes",
          "name": "data",
          "type": "bytes"
        }
      ],
      "name": "onApprove",
      "outputs": [
        {
          "internalType": "bool",
          "name": "",
          "type": "bool"
        }
      ],
      "stateMutability": "nonpayable",
      "type": "function"
    },
    {
      "inputs": [
        {
          "internalType": "uint32",
          "name": "_index",
          "type": "uint32"
        }
      ],
      "name": "operator",
      "outputs": [
        {
          "internalType": "address",
          "name": "operator_",
          "type": "address"
        }
      ],
      "stateMutability": "view",
      "type": "function"
    },
    {
      "inputs": [],
      "name": "pauseProxy",
      "outputs": [
        {
          "internalType": "bool",
          "name": "",
          "type": "bool"
        }
      ],
      "stateMutability": "view",
      "type": "function"
    },
    {
      "inputs": [
        {
          "internalType": "uint32",
          "name": "",
          "type": "uint32"
        },
        {
          "internalType": "address",
          "name": "",
          "type": "address"
        }
      ],
      "name": "pendingUnstaked",
      "outputs": [
        {
          "internalType": "uint256",
          "name": "",
          "type": "uint256"
        }
      ],
      "stateMutability": "view",
      "type": "function"
    },
    {
      "inputs": [
        {
          "internalType": "address",
          "name": "",
          "type": "address"
        }
      ],
      "name": "pendingUnstakedAccount",
      "outputs": [
        {
          "internalType": "uint256",
          "name": "",
          "type": "uint256"
        }
      ],
      "stateMutability": "view",
      "type": "function"
    },
    {
      "inputs": [
        {
          "internalType": "uint32",
          "name": "",
          "type": "uint32"
        }
      ],
      "name": "pendingUnstakedLayer2",
      "outputs": [
        {
          "internalType": "uint256",
          "name": "",
          "type": "uint256"
        }
      ],
      "stateMutability": "view",
      "type": "function"
    },
    {
      "inputs": [
        {
          "internalType": "uint256",
          "name": "",
          "type": "uint256"
        }
      ],
      "name": "proxyImplementation",
      "outputs": [
        {
          "internalType": "address",
          "name": "",
          "type": "address"
        }
      ],
      "stateMutability": "view",
      "type": "function"
    },
    {
      "inputs": [
        {
          "internalType": "address",
          "name": "account",
          "type": "address"
        }
      ],
      "name": "removeAdmin",
      "outputs": [],
      "stateMutability": "nonpayable",
      "type": "function"
    },
    {
      "inputs": [
        {
          "internalType": "bytes32",
          "name": "role",
          "type": "bytes32"
        },
        {
          "internalType": "address",
          "name": "account",
          "type": "address"
        }
      ],
      "name": "renounceRole",
      "outputs": [],
      "stateMutability": "nonpayable",
      "type": "function"
    },
    {
      "inputs": [
        {
          "internalType": "uint32",
          "name": "_index",
          "type": "uint32"
        }
      ],
      "name": "restake",
      "outputs": [],
      "stateMutability": "nonpayable",
      "type": "function"
    },
    {
      "inputs": [
        {
          "internalType": "uint32",
          "name": "_index",
          "type": "uint32"
        },
        {
          "internalType": "uint256",
          "name": "n",
          "type": "uint256"
        }
      ],
      "name": "restakeMulti",
      "outputs": [],
      "stateMutability": "nonpayable",
      "type": "function"
    },
    {
      "inputs": [
        {
          "internalType": "bytes32",
          "name": "role",
          "type": "bytes32"
        },
        {
          "internalType": "address",
          "name": "account",
          "type": "address"
        }
      ],
      "name": "revokeRole",
      "outputs": [],
      "stateMutability": "nonpayable",
      "type": "function"
    },
    {
      "inputs": [],
      "name": "seigManagerV2",
      "outputs": [
        {
          "internalType": "address",
          "name": "",
          "type": "address"
        }
      ],
      "stateMutability": "view",
      "type": "function"
    },
    {
      "inputs": [
        {
          "internalType": "bytes4",
          "name": "",
          "type": "bytes4"
        }
      ],
      "name": "selectorImplementation",
      "outputs": [
        {
          "internalType": "address",
          "name": "",
          "type": "address"
        }
      ],
      "stateMutability": "view",
      "type": "function"
    },
    {
      "inputs": [
        {
          "internalType": "uint32",
          "name": "_index",
          "type": "uint32"
        },
        {
          "internalType": "uint256",
          "name": "amount",
          "type": "uint256"
        }
      ],
      "name": "stake",
      "outputs": [],
      "stateMutability": "nonpayable",
      "type": "function"
    },
    {
      "inputs": [
        {
          "internalType": "uint256",
          "name": "",
          "type": "uint256"
        }
      ],
      "name": "stakeAccountList",
      "outputs": [
        {
          "internalType": "address",
          "name": "",
          "type": "address"
        }
      ],
      "stateMutability": "view",
      "type": "function"
    },
    {
      "inputs": [
        {
          "internalType": "bytes4",
          "name": "interfaceId",
          "type": "bytes4"
        }
      ],
      "name": "supportsInterface",
      "outputs": [
        {
          "internalType": "bool",
          "name": "",
          "type": "bool"
        }
      ],
      "stateMutability": "view",
      "type": "function"
    },
    {
      "inputs": [],
      "name": "ton",
      "outputs": [
        {
          "internalType": "address",
          "name": "",
          "type": "address"
        }
      ],
      "stateMutability": "view",
      "type": "function"
    },
    {
      "inputs": [],
      "name": "totalLayer2Deposits",
      "outputs": [
        {
          "internalType": "uint256",
          "name": "amount",
          "type": "uint256"
        }
      ],
      "stateMutability": "view",
      "type": "function"
    },
    {
      "inputs": [],
      "name": "totalStakeAccountList",
      "outputs": [
        {
          "internalType": "uint256",
          "name": "",
          "type": "uint256"
        }
      ],
      "stateMutability": "view",
      "type": "function"
    },
    {
      "inputs": [],
      "name": "totalStakedLton",
      "outputs": [
        {
          "internalType": "uint256",
          "name": "",
          "type": "uint256"
        }
      ],
      "stateMutability": "view",
      "type": "function"
    },
    {
      "inputs": [
        {
          "internalType": "address",
          "name": "newAdmin",
          "type": "address"
        }
      ],
      "name": "transferAdmin",
      "outputs": [],
      "stateMutability": "nonpayable",
      "type": "function"
    },
    {
      "inputs": [
        {
          "internalType": "uint32",
          "name": "_index",
          "type": "uint32"
        },
        {
          "internalType": "uint256",
          "name": "lton_",
          "type": "uint256"
        }
      ],
      "name": "unstake",
      "outputs": [],
      "stateMutability": "nonpayable",
      "type": "function"
    },
    {
      "inputs": [
        {
          "internalType": "uint32",
          "name": "_index",
          "type": "uint32"
        }
      ],
      "name": "withdraw",
      "outputs": [],
      "stateMutability": "nonpayable",
      "type": "function"
    },
    {
      "inputs": [
        {
          "internalType": "uint32",
          "name": "",
          "type": "uint32"
        },
        {
          "internalType": "address",
          "name": "",
          "type": "address"
        }
      ],
      "name": "withdrawalRequestIndex",
      "outputs": [
        {
          "internalType": "uint256",
          "name": "",
          "type": "uint256"
        }
      ],
      "stateMutability": "view",
      "type": "function"
    },
    {
      "inputs": [
        {
          "internalType": "uint32",
          "name": "",
          "type": "uint32"
        },
        {
          "internalType": "address",
          "name": "",
          "type": "address"
        },
        {
          "internalType": "uint256",
          "name": "",
          "type": "uint256"
        }
      ],
      "name": "withdrawalRequests",
      "outputs": [
        {
          "internalType": "uint32",
          "name": "withdrawableBlockNumber",
          "type": "uint32"
        },
        {
          "internalType": "uint128",
          "name": "amount",
          "type": "uint128"
        },
        {
          "internalType": "bool",
          "name": "processed",
          "type": "bool"
        }
      ],
      "stateMutability": "view",
      "type": "function"
    }
  ],
  "bytecode": "0x60806040526006805460ff1916600117905534801561001d57600080fd5b5061410d8061002d6000396000f3fe608060405234801561001057600080fd5b50600436106103625760003560e01c806375829def116101c85780639c2f614f11610104578063b911135f116100a2578063cc48b9471161007c578063cc48b947146109ec578063d547741f14610a04578063df2b429014610a17578063ec110d4514610a2a57600080fd5b8063b911135f1461099b578063b969fbef146109c4578063b9cab971146109cc57600080fd5b8063a217fddf116100de578063a217fddf1461094a578063aa9224cd14610952578063b413b37a14610965578063b6a2f99d1461096d57600080fd5b80639c2f614f1461088e5780639c656e26146108a1578063a0b2a9131461092a57600080fd5b806387dd8bd0116101715780638d99e1ca1161014b5780638d99e1ca146107f35780638ddd87fe1461080657806391d148541461084457806394c89b2c1461087b57600080fd5b806387dd8bd0146107855780638afec9fc146107985780638c71762d146107be57600080fd5b80637cf1587c116101a25780637cf1587c146107345780637d211a1c1461075f5780637ec6840f1461077257600080fd5b806375829def146106e757806375b238fc146106fa578063763936c71461072157600080fd5b80634de131ca116102a257806363a8fd8911610240578063704802751161021a578063704802751461068e57806370619cf9146106a157806373469a7a146106c1578063744a3561146106d457600080fd5b806363a8fd8914610622578063659ab8201461062f5780636d1ef1031461064f57600080fd5b806350d2a2761161027c57806350d2a27614610598578063550d01a3146105c15780635e2cfe45146105e45780635f1b989e1461060f57600080fd5b80634de131ca146105325780634e1a264d146105475780634f818d0c1461055057600080fd5b8063229852461161030f5780632f2ff15d116102e95780632f2ff15d146104f157806336568abe146105045780634273ca161461051757806346bcdb491461052a57600080fd5b80632298524614610486578063248a9ca3146104bb57806324d7806c146104de57600080fd5b80631785f53c116103405780631785f53c146103cf5780631ed94495146103e25780631f760d011461044757600080fd5b806301ffc9a714610367578063118e29d11461038f57806316b5d5bd146103a4575b600080fd5b61037a610375366004613a3d565b610a3d565b60405190151581526020015b60405180910390f35b6103a261039d366004613a80565b610a74565b005b6008546103b7906001600160a01b031681565b6040516001600160a01b039091168152602001610386565b6103a26103dd366004613ab2565b610ae9565b6103f56103f0366004613acd565b610b76565b6040516103869190600060c0820190508251825260208301516020830152604083015160408301526060830151606083015260808301511515608083015261ffff60a08401511660a083015292915050565b61045a610455366004613acd565b610c34565b6040805194855263ffffffff938416602086015291831691840191909152166060820152608001610386565b6104ad7ffb5864e8ff833c3cb2d2d08505e82ff02a43554c74a35d4f5a64e8526127831181565b604051908152602001610386565b6104ad6104c9366004613b00565b60009081526020819052604090206001015490565b61037a6104ec366004613ab2565b610d72565b6103a26104ff366004613b19565b610db2565b6103a2610512366004613b19565b610ddc565b61037a610525366004613b3c565b610e64565b6012546104ad565b61053a611021565b6040516103869190613bd7565b6104ad60095481565b61056361055e366004613a80565b611083565b6040805182516001600160a01b0316815260208084015163ffffffff16908201529181015161ffff1690820152606001610386565b6103b76105a6366004613a3d565b6004602052600090815260409020546001600160a01b031681565b61037a6105cf366004613ab2565b60036020526000908152604090205460ff1681565b6104ad6105f2366004613acd565b600e60209081526000928352604080842090915290825290205481565b6104ad61061d366004613acd565b61119d565b60015461037a9060ff1681565b61064261063d366004613a80565b611219565b6040516103869190613c74565b61066261065d366004613c87565b6112b3565b6040805163ffffffff90941684526001600160801b039092166020840152151590820152606001610386565b6103a261069c366004613ab2565b611312565b6104ad6106af366004613a80565b600a6020526000908152604090205481565b6007546103b7906001600160a01b031681565b6103a26106e2366004613cc3565b61139c565b6103a26106f5366004613ab2565b611407565b6104ad7fdf8b4c520ffe197c5343c6f5aec59570151ef9a492f2c624fd45ddde6135ec4281565b6103b761072f366004613a80565b611569565b6104ad610742366004613acd565b600d60209081526000928352604080842090915290825290205481565b61037a61076d366004613a80565b611628565b6103a2610780366004613cc3565b6116ef565b6104ad610793366004613a80565b611797565b6104ad6107a6366004613a80565b63ffffffff166000908152600a602052604090205490565b6107d16107cc366004613acd565b611882565b6040805193845263ffffffff9283166020850152911690820152606001610386565b6104ad610801366004613a80565b6119bf565b6104ad610814366004613acd565b63ffffffff82166000908152600e602090815260408083206001600160a01b038516845290915290205492915050565b61037a610852366004613b19565b6000918252602082815260408084206001600160a01b0393909316845291905290205460ff1690565b6104ad610889366004613acd565b611a32565b6103a261089c366004613cc3565b611aaf565b6108f76108af366004613acd565b600b602090815260009283526040808420909152908252902080546001820154600283015460038401546004909401549293919290919060ff811690610100900461ffff1686565b6040805196875260208701959095529385019290925260608401521515608083015261ffff1660a082015260c001610386565b6104ad610938366004613ab2565b60106020526000908152604090205481565b6104ad600081565b6103a2610960366004613a80565b611c13565b6009546104ad565b61098061097b366004613acd565b612028565b60408051938452602084019290925290820152606001610386565b6103b76109a9366004613b00565b6002602052600090815260409020546001600160a01b031681565b6104ad612083565b6104ad6109da366004613a80565b600f6020526000908152604090205481565b6006546103b79061010090046001600160a01b031681565b6103a2610a12366004613b19565b6120f6565b61037a610a25366004613d03565b61211b565b6103b7610a38366004613b00565b612342565b60006001600160e01b03198216637965db0b60e01b1480610a6e57506301ffc9a760e01b6001600160e01b03198316145b92915050565b63ffffffff81166000908152600d602090815260408083203380855292529091205490610aa590839083600161236c565b610ae55760405162461bcd60e51b815260206004820152600c60248201526b534c5f455f52455354414b4560a01b60448201526064015b60405180910390fd5b5050565b610af233610d72565b610b495760405162461bcd60e51b815260206004820152602260248201527f41636365737369626c653a2043616c6c6572206973206e6f7420616e2061646d60448201526134b760f11b6064820152608401610adc565b610b737fdf8b4c520ffe197c5343c6f5aec59570151ef9a492f2c624fd45ddde6135ec4282610ddc565b50565b610bb56040518060c0016040528060008152602001600081526020016000815260200160008152602001600015158152602001600061ffff1681525090565b5063ffffffff9091166000908152600b602090815260408083206001600160a01b03909416835292815290829020825160c081018452815481526001820154928101929092526002810154928201929092526003820154606082015260049091015460ff81161515608083015261ffff6101009091041660a082015290565b63ffffffff8083166000818152600c602090815260408083206001600160a01b03871680855290835281842054948452600d835281842090845290915281205490929091839182919084165b81811015610d675763ffffffff88166000908152600c602090815260408083206001600160a01b038b1684529091528120805483908110610cc357610cc3613dc5565b6000918252602080832060408051606081018252939091015463ffffffff8116845264010000000081046001600160801b031692840192909252600160a01b90910460ff1615159082018190529092509003610d54578363ffffffff16600003610d2c57805193505b6020810151610d44906001600160801b031688613df1565b9650610d51600186613e04565b94505b5080610d5f81613e28565b915050610c80565b505092959194509250565b6001600160a01b03811660009081527f5cbfc8ee58ca47855df7bcf648dd304ddb6b932f9b87878bdf6318d7ec7ee5b7602052604081205460ff16610a6e565b600082815260208190526040902060010154610dcd81612819565b610dd78383612823565b505050565b6001600160a01b0381163314610e5a5760405162461bcd60e51b815260206004820152602f60248201527f416363657373436f6e74726f6c3a2063616e206f6e6c792072656e6f756e636560448201527f20726f6c657320666f722073656c6600000000000000000000000000000000006064820152608401610adc565b610ae582826128c1565b60065460009061010090046001600160a01b03163314610eab5760405162461bcd60e51b8152602060048201526002602482015261454160f01b6044820152606401610adc565b610efb610ef2600085858080601f01602080910402602001604051908101604052809392919081815260200183838082843760009201919091525092939250506129409050565b61ffff16611628565b610f475760405162461bcd60e51b815260206004820152601860248201527f6e6f6e2d726567697374657265642063616e64696461746500000000000000006044820152606401610adc565b6000610f8d600085858080601f01602080910402602001604051908101604052809392919081815260200183838082843760009201919091525092939250506129409050565b61ffff1690508415610fb657600654610fb69061010090046001600160a01b03168830886129f4565b6000610fc182611083565b9050806040015161ffff1660001480610fe6575080516001600160a01b038981169116145b15610ffe57610ff9828988600080612b18565b611013565b61101382898884600001518560400151612b18565b506001979650505050505050565b6060601280548060200260200160405190810160405280929190818152602001828054801561107957602002820191906000526020600020905b81546001600160a01b0316815260019091019060200180831161105b575b5050505050905090565b604080516060810182526000808252602082018190529181019190915263ffffffff8216600090815260116020526040812080546110c090613e41565b80601f01602080910402602001604051908101604052809291908181526020018280546110ec90613e41565b80156111395780601f1061110e57610100808354040283529160200191611139565b820191906000526020600020905b81548152906001019060200180831161111c57829003601f168201915b5050505050905060198151111561119757604080516060810190915280611161836000612f0c565b6001600160a01b0316815260200161117a836014612940565b61ffff16815260200161118e836018612fdc565b61ffff16905291505b50919050565b63ffffffff9091166000908152600b602090815260408083206001600160a01b03909416835292815290829020825160c081018452815481526001820154928101929092526002810154928201839052600381015460608301526004015460ff81161515608083015261ffff6101009091041660a09091015290565b6011602052600090815260409020805461123290613e41565b80601f016020809104026020016040519081016040528092919081815260200182805461125e90613e41565b80156112ab5780601f10611280576101008083540402835291602001916112ab565b820191906000526020600020905b81548152906001019060200180831161128e57829003601f168201915b505050505081565b600c60205282600052604060002060205281600052604060002081815481106112db57600080fd5b60009182526020909120015463ffffffff8116935064010000000081046001600160801b03169250600160a01b900460ff16905083565b61131b33610d72565b6113725760405162461bcd60e51b815260206004820152602260248201527f41636365737369626c653a2043616c6c6572206973206e6f7420616e2061646d60448201526134b760f11b6064820152608401610adc565b610b737fdf8b4c520ffe197c5343c6f5aec59570151ef9a492f2c624fd45ddde6135ec4282610db2565b63ffffffff82166000908152600d6020908152604080832033808552925290912054906113cc908490838561236c565b610dd75760405162461bcd60e51b815260206004820152600c60248201526b534c5f455f52455354414b4560a01b6044820152606401610adc565b61141033610d72565b6114675760405162461bcd60e51b815260206004820152602260248201527f41636365737369626c653a2043616c6c6572206973206e6f7420616e2061646d60448201526134b760f11b6064820152608401610adc565b6001600160a01b0381166114bd5760405162461bcd60e51b815260206004820152601860248201527f41636365737369626c653a207a65726f206164647265737300000000000000006044820152606401610adc565b6001600160a01b03811633036115155760405162461bcd60e51b815260206004820152601660248201527f41636365737369626c653a2073616d652061646d696e000000000000000000006044820152606401610adc565b61153f7fdf8b4c520ffe197c5343c6f5aec59570151ef9a492f2c624fd45ddde6135ec4282610db2565b610b737fdf8b4c520ffe197c5343c6f5aec59570151ef9a492f2c624fd45ddde6135ec4233610ddc565b63ffffffff81166000908152601160205260408120805482919061158c90613e41565b80601f01602080910402602001604051908101604052809291908181526020018280546115b890613e41565b80156116055780601f106115da57610100808354040283529160200191611605565b820191906000526020600020905b8154815290600101906020018083116115e857829003601f168201915b5050505050905060178151111561119757611621816000612f0c565b9392505050565b600854604051635d170f8f60e01b815263ffffffff831660048201526000916001600160a01b031690635d170f8f90602401602060405180830381865afa158015611677573d6000803e3d6000fd5b505050506040513d601f19601f8201168201806040525081019061169b9190613e75565b6116e75760405162461bcd60e51b815260206004820152601460248201527f6e6f6e2d72656769737465726564206c617965720000000000000000000000006044820152606401610adc565b506001919050565b6116f882611628565b6117445760405162461bcd60e51b815260206004820152601860248201527f6e6f6e2d726567697374657265642063616e64696461746500000000000000006044820152606401610adc565b600061174f83611083565b9050806040015161ffff1660001480611771575080516001600160a01b031633145b1561178357610dd78383600080613090565b610dd7838383600001518460400151613090565b63ffffffff8116600090815260116020526040812080548291906117ba90613e41565b80601f01602080910402602001604051908101604052809291908181526020018280546117e690613e41565b80156118335780601f1061180857610100808354040283529160200191611833565b820191906000526020600020905b81548152906001019060200180831161181657829003601f168201915b5050505050905061185160006018836130c09092919063ffffffff16565b6000604051602001611864929190613e97565b60405160208183030381529060405280519060200120915050919050565b63ffffffff8083166000818152600c602090815260408083206001600160a01b03871680855290835281842054948452600d835281842090845290915281205490929091839183165b818110156119b65763ffffffff87166000908152600c602090815260408083206001600160a01b038a168452909152812080548390811061190e5761190e613dc5565b600091825260209182902060408051606081018252929091015463ffffffff811680845264010000000082046001600160801b031694840194909452600160a01b900460ff1615159082015291504311801561196c57506040810151155b1561199d576020810151611989906001600160801b031687613df1565b9550611996600185613e04565b93506119a3565b506119b6565b50806119ae81613e28565b9150506118cb565b50509250925092565b6008546040516346ccf0e560e11b815263ffffffff831660048201526000916001600160a01b031690638d99e1ca90602401602060405180830381865afa158015611a0e573d6000803e3d6000fd5b505050506040513d601f19601f82011682018060405250810190610a6e9190613ee1565b6007546000906001600160a01b031663cdf68009611a50858561119d565b6040518263ffffffff1660e01b8152600401611a6e91815260200190565b602060405180830381865afa158015611a8b573d6000803e3d6000fd5b505050506040513d601f19601f820116820180604052508101906116219190613ee1565b611ab882611569565b6001600160a01b03163303611c09576007546008546040805163a4dd8b7d60e01b815290516000936001600160a01b0390811693636a2fb1f59391169163a4dd8b7d916004808201926020929091908290030181865afa158015611b20573d6000803e3d6000fd5b505050506040513d601f19601f82011682018060405250810190611b449190613ee1565b6040518263ffffffff1660e01b8152600401611b6291815260200190565b602060405180830381865afa158015611b7f573d6000803e3d6000fd5b505050506040513d601f19601f82011682018060405250810190611ba39190613ee1565b9050611baf833361119d565b611bb98284613df1565b1115611c075760405162461bcd60e51b815260206004820152601d60248201527f6d696e696d756d4465706f736974466f7243616e6469646174652045310000006044820152606401610adc565b505b610ae58282613223565b60065460ff16611c4e5760405162461bcd60e51b8152600401610adc906020808252600490820152636c6f636b60e01b604082015260600190565b6006805460ff1916905563ffffffff81166000818152600c602090815260408083203380855290835281842054948452600d83528184208185529092528220549092919081905b83811015611d675763ffffffff86166000908152600c602090815260408083206001600160a01b03891684529091528120805483908110611cd857611cd8613dc5565b600091825260209091200180549091504363ffffffff909116108015611d0757508054600160a01b900460ff16155b15611d4e57805460ff60a01b1916600160a01b17808255611d3a906001600160801b036401000000009091041684613df1565b925083611d4681613e28565b945050611d54565b50611d67565b5080611d5f81613e28565b915050611c95565b5060008111611db85760405162461bcd60e51b815260206004820181905260248201527f7a65726f20617661696c61626c65207769746864726177616c20616d6f756e746044820152606401610adc565b63ffffffff85166000908152600d602090815260408083206001600160a01b038816845290915281208054849290611df1908490613df1565b909155505063ffffffff85166000908152600e602090815260408083206001600160a01b038816845290915281208054839290611e2f908490613efa565b909155505063ffffffff85166000908152600f602052604081208054839290611e59908490613efa565b90915550506001600160a01b03841660009081526010602052604081208054839290611e86908490613efa565b90915550506006546040516370a0823160e01b815230600482015260009161010090046001600160a01b0316906370a0823190602401602060405180830381865afa158015611ed9573d6000803e3d6000fd5b505050506040513d601f19601f82011682018060405250810190611efd9190613ee1565b905081811015611fa8578015611f2957600654611f299061010090046001600160a01b03168683613634565b6007546001600160a01b031663aad3ec9686611f458486613efa565b6040516001600160e01b031960e085901b1681526001600160a01b0390921660048301526024820152604401600060405180830381600087803b158015611f8b57600080fd5b505af1158015611f9f573d6000803e3d6000fd5b50505050611fc4565b600654611fc49061010090046001600160a01b03168684613634565b6040805163ffffffff881681526001600160a01b03871660208201529081018390527f2d6eb139d2002caa088da5527d9d62f2f23bdf4504f5559a112535c436c6ee599060600160405180910390a150506006805460ff1916600117905550505050565b63ffffffff82166000818152600c602090815260408083206001600160a01b03861680855290835281842054948452600d83528184209084529091528120549081831061207c576120798284613efa565b90505b9250925092565b6008546040805163b969fbef60e01b815290516000926001600160a01b03169163b969fbef9160048083019260209291908290030181865afa1580156120cd573d6000803e3d6000fd5b505050506040513d601f19601f820116820180604052508101906120f19190613ee1565b905090565b60008281526020819052604090206001015461211181612819565b610dd783836128c1565b6008546000906001600160a01b031633146121785760405162461bcd60e51b815260206004820152601160248201527f6e6f74204c61796572324d616e616765720000000000000000000000000000006044820152606401610adc565b63ffffffff83166000908152601160205260409020805461219890613e41565b1590506121e75760405162461bcd60e51b815260206004820152600f60248201527f616c7265616479206372656174656400000000000000000000000000000000006044820152606401610adc565b60398251116122385760405162461bcd60e51b815260206004820152600b60248201527f77726f6e67205f696e666f0000000000000000000000000000000000000000006044820152606401610adc565b6000612245836018612fdc565b905061271061ffff82161061229c5760405162461bcd60e51b815260206004820152600e60248201527f636f6d6d697373696f6e206572720000000000000000000000000000000000006044820152606401610adc565b60006122a984601a61374f565b90506122b8846000601a6130c0565b6040516020016122c89190613f0d565b60408051601f1981840301815291815263ffffffff87166000908152601160205220906122f59082613f6f565b5080156123375760085460065461231f916001600160a01b036101009092048216911630846129f4565b6123378561232e866000612f0c565b83600080612b18565b506001949350505050565b6012818154811061235257600080fd5b6000918252602090912001546001600160a01b0316905081565b60065460009060ff166123aa5760405162461bcd60e51b8152600401610adc906020808252600490820152636c6f636b60e01b604082015260600190565b6006805460ff1916905563ffffffff85166000908152600c602090815260408083206001600160a01b0388168452909152812054806124185760405162461bcd60e51b815260206004820152600a6024820152696e6f20756e7374616b6560b01b6044820152606401610adc565b836124238683613efa565b10156124715760405162461bcd60e51b815260206004820152601860248201527f6e2065786365656473206e756d206f662070656e64696e6700000000000000006044820152606401610adc565b600061247d8587613df1565b90505b808610156125735763ffffffff88166000908152600c602090815260408083206001600160a01b038b16845290915281208054889081106124c3576124c3613dc5565b6000918252602090912001805490915064010000000081046001600160801b031690600160a01b900460ff161561253c5760405162461bcd60e51b815260206004820152601260248201527f616c7265616479207769746864726177616c00000000000000000000000000006044820152606401610adc565b801561254f5761254c8186613df1565b94505b50805460ff60a01b1916600160a01b1790558561256b81613e28565b965050612480565b600083116125c35760405162461bcd60e51b815260206004820152601760248201527f6e6f2076616c69642072657374616b6520616d6f756e740000000000000000006044820152606401610adc565b600754604051636a2fb1f560e01b8152600481018590526000916001600160a01b031690636a2fb1f590602401602060405180830381865afa15801561260d573d6000803e3d6000fd5b505050506040513d601f19601f820116820180604052508101906126319190613ee1565b63ffffffff8a166000908152600b602090815260408083206001600160a01b038d16845290915281208054929350918691839161266f908490613df1565b925050819055508181600201600082825461268a9190613df1565b909155505063ffffffff8a166000908152600a6020526040812080548492906126b4908490613df1565b9250508190555081600960008282546126cd9190613df1565b909155505063ffffffff8a166000908152600e602090815260408083206001600160a01b038d1684529091528120805487929061270b908490613efa565b909155505063ffffffff8a166000908152600f602052604081208054879290612735908490613efa565b90915550506001600160a01b03891660009081526010602052604081208054879290612762908490613efa565b909155505063ffffffff8a166000908152600d602090815260408083206001600160a01b038d168452909152812080548992906127a0908490613df1565b90915550506040805163ffffffff8c1681526001600160a01b038b166020820152908101869052606081018390527f34981dc0486069d2abbaddbc42e10b97cb24e4bce60ee4457e1d5062dfc0b4299060800160405180910390a16001955050505050506006805460ff19166001179055949350505050565b610b73813361380f565b6000828152602081815260408083206001600160a01b038516845290915290205460ff16610ae5576000828152602081815260408083206001600160a01b03851684529091529020805460ff1916600117905561287d3390565b6001600160a01b0316816001600160a01b0316837f2f8788117e7eff1d82e926ec794901d17c78024a50270940304540a733656f0d60405160405180910390a45050565b6000828152602081815260408083206001600160a01b038516845290915290205460ff1615610ae5576000828152602081815260408083206001600160a01b0385168085529252808320805460ff1916905551339285917ff6391f5c32d9c69d2a47ea670b442974b53935d1edc7fd64eb21e047a839171b9190a45050565b60008161294e816004613df1565b10156129905760405162461bcd60e51b8152602060048201526011602482015270746f55696e7431365f6f766572666c6f7760781b6044820152606401610adc565b61299b826004613df1565b835110156129eb5760405162461bcd60e51b815260206004820152601460248201527f746f55696e7431365f6f75744f66426f756e64730000000000000000000000006044820152606401610adc565b50016004015190565b604080516001600160a01b0385811660248301528481166044830152606480830185905283518084039091018152608490920183526020820180516001600160e01b03166323b872dd60e01b1790529151600092839290881691612a589190613f0d565b6000604051808303816000865af19150503d8060008114612a95576040519150601f19603f3d011682016040523d82523d6000602084013e612a9a565b606091505b5091509150818015612ac4575080511580612ac4575080806020019051810190612ac49190613e75565b612b105760405162461bcd60e51b815260206004820152601460248201527f5452414e534645525f46524f4d5f4641494c45440000000000000000000000006044820152606401610adc565b505050505050565b60065460ff16612b535760405162461bcd60e51b8152600401610adc906020808252600490820152636c6f636b60e01b604082015260600190565b6006805460ff19169055826000819003612b945760405162461bcd60e51b81526020600482015260026024820152615a3160f01b6044820152606401610adc565b600754604051636a2fb1f560e01b8152600481018690526000916001600160a01b031690636a2fb1f590602401602060405180830381865afa158015612bde573d6000803e3d6000fd5b505050506040513d601f19601f82011682018060405250810190612c029190613ee1565b63ffffffff88166000908152600a6020526040812080549293508392909190612c2c908490613df1565b925050819055508060096000828254612c459190613df1565b909155505063ffffffff87166000908152600b602090815260408083206001600160a01b038a1684529091529020600481015460ff16612ce757600481018054600160ff1990911681179091556012805491820181556000527fbb8a6a4669ba250d26cd7a459eca9d215f8307e33aebe50379bc5a3617ec344401805473ffffffffffffffffffffffffffffffffffffffff19166001600160a01b0389161790555b600061ffff851615801590612d0457506001600160a01b03861615155b8015612d1557506127108561ffff16105b15612e5857612710612d2b61ffff87168561402f565b612d359190614046565b9050612d418184613efa565b60075460405163cdf6800960e01b8152600481018390529194506000916001600160a01b039091169063cdf6800990602401602060405180830381865afa158015612d90573d6000803e3d6000fd5b505050506040513d601f19601f82011682018060405250810190612db49190613ee1565b905080836000016000828254612dca9190613df1565b9250508190555083836002016000828254612de59190613df1565b909155505063ffffffff8a166000908152600b602090815260408083206001600160a01b038b1684529091529020612e1d828a613efa565b816000016000828254612e309190613df1565b9250508190555082816002016000828254612e4b9190613df1565b90915550612e8d92505050565b86826000016000828254612e6c9190613df1565b9250508190555082826002016000828254612e879190613df1565b90915550505b6040805163ffffffff8b1681526001600160a01b038a811660208301528183018a9052606082018690528816608082015261ffff871660a082015290517f318dab784577ac2e7d86f88c3f2a80520b447b822b8a756158648e0f917d16a09181900360c00190a150506006805460ff1916600117905550505050505050565b600081612f1a816014613df1565b1015612f685760405162461bcd60e51b815260206004820152601260248201527f746f416464726573735f6f766572666c6f7700000000000000000000000000006044820152606401610adc565b612f73826014613df1565b83511015612fc35760405162461bcd60e51b815260206004820152601560248201527f746f416464726573735f6f75744f66426f756e647300000000000000000000006044820152606401610adc565b5001602001516c01000000000000000000000000900490565b600081612fea816002613df1565b101561302c5760405162461bcd60e51b8152602060048201526011602482015270746f55696e7431365f6f766572666c6f7760781b6044820152606401610adc565b613037826002613df1565b835110156130875760405162461bcd60e51b815260206004820152601460248201527f746f55696e7431365f6f75744f66426f756e64730000000000000000000000006044820152606401610adc565b50016002015190565b6006546130ad9061010090046001600160a01b03163330866129f4565b6130ba8433858585612b18565b50505050565b6060816130ce81601f613df1565b101561310d5760405162461bcd60e51b815260206004820152600e60248201526d736c6963655f6f766572666c6f7760901b6044820152606401610adc565b826131188382613df1565b10156131575760405162461bcd60e51b815260206004820152600e60248201526d736c6963655f6f766572666c6f7760901b6044820152606401610adc565b6131618284613df1565b845110156131b15760405162461bcd60e51b815260206004820152601160248201527f736c6963655f6f75744f66426f756e64730000000000000000000000000000006044820152606401610adc565b6060821580156131d0576040519150600082526020820160405261321a565b6040519150601f8416801560200281840101858101878315602002848b0101015b818310156132095780518352602092830192016131f1565b5050858452601f01601f1916604052505b50949350505050565b60065460ff1661325e5760405162461bcd60e51b8152600401610adc906020808252600490820152636c6f636b60e01b604082015260600190565b6006805460ff1916905580600081900361329f5760405162461bcd60e51b81526020600482015260026024820152615a3160f01b6044820152606401610adc565b60075460405163cdf6800960e01b81526004810184905233916000916001600160a01b039091169063cdf6800990602401602060405180830381865afa1580156132ed573d6000803e3d6000fd5b505050506040513d601f19601f820116820180604052508101906133119190613ee1565b63ffffffff86166000908152600b602090815260408083206001600160a01b0387168452909152902060028101549192509085111561337b5760405162461bcd60e51b8152600401610adc90602080825260049082015263534c5f3160e01b604082015260600190565b8481600201600082825461338f9190613efa565b909155505080548211156133a657600081556133c0565b818160000160008282546133ba9190613efa565b90915550505b63ffffffff86166000908152600a6020526040812080548792906133e5908490613efa565b9250508190555084600960008282546133fe9190613efa565b909155505060085460408051636577b27360e11b815290516000926001600160a01b03169163caef64e69160048083019260209291908290030181865afa15801561344d573d6000803e3d6000fd5b505050506040513d601f19601f820116820180604052508101906134719190613ee1565b63ffffffff88166000908152600c602090815260408083206001600160a01b038916845290915290819020815160608101909252919250806134b38443613df1565b63ffffffff90811682526001600160801b0380881660208085019190915260006040948501819052865460018101885596815281812086519701805487840151978701511515600160a01b0260ff60a01b19989095166401000000000273ffffffffffffffffffffffffffffffffffffffff19909116988616989098179790971795909516919091179094558a168252600e83528082206001600160a01b0388168352909252908120805485929061356c908490613df1565b909155505063ffffffff87166000908152600f602052604081208054859290613596908490613df1565b90915550506001600160a01b038416600090815260106020526040812080548592906135c3908490613df1565b90915550506040805163ffffffff891681526001600160a01b0386166020820152908101849052606081018790527f869a01319d83bb921803a22e3e95d0cb8b08e708d3fb144e2c25a563bf8650d39060800160405180910390a150506006805460ff191660011790555050505050565b604080516001600160a01b038481166024830152604480830185905283518084039091018152606490920183526020820180516001600160e01b031663a9059cbb60e01b17905291516000928392908716916136909190613f0d565b6000604051808303816000865af19150503d80600081146136cd576040519150601f19603f3d011682016040523d82523d6000602084013e6136d2565b606091505b50915091508180156136fc5750805115806136fc5750808060200190518101906136fc9190613e75565b6137485760405162461bcd60e51b815260206004820152600f60248201527f5452414e534645525f4641494c454400000000000000000000000000000000006044820152606401610adc565b5050505050565b60008161375d816020613df1565b10156137ab5760405162461bcd60e51b815260206004820152601260248201527f746f55696e743235365f6f766572666c6f7700000000000000000000000000006044820152606401610adc565b6137b6826020613df1565b835110156138065760405162461bcd60e51b815260206004820152601560248201527f746f55696e743235365f6f75744f66426f756e647300000000000000000000006044820152606401610adc565b50016020015190565b6000828152602081815260408083206001600160a01b038516845290915290205460ff16610ae55761384081613882565b61384b836020613894565b60405160200161385c929190614068565b60408051601f198184030181529082905262461bcd60e51b8252610adc91600401613c74565b6060610a6e6001600160a01b03831660145b606060006138a383600261402f565b6138ae906002613df1565b67ffffffffffffffff8111156138c6576138c6613ced565b6040519080825280601f01601f1916602001820160405280156138f0576020820181803683370190505b509050600360fc1b8160008151811061390b5761390b613dc5565b60200101906001600160f81b031916908160001a905350600f60fb1b8160018151811061393a5761393a613dc5565b60200101906001600160f81b031916908160001a905350600061395e84600261402f565b613969906001613df1565b90505b60018111156139ee577f303132333435363738396162636465660000000000000000000000000000000085600f16601081106139aa576139aa613dc5565b1a60f81b8282815181106139c0576139c0613dc5565b60200101906001600160f81b031916908160001a90535060049490941c936139e7816140e9565b905061396c565b5083156116215760405162461bcd60e51b815260206004820181905260248201527f537472696e67733a20686578206c656e67746820696e73756666696369656e746044820152606401610adc565b600060208284031215613a4f57600080fd5b81356001600160e01b03198116811461162157600080fd5b803563ffffffff81168114613a7b57600080fd5b919050565b600060208284031215613a9257600080fd5b61162182613a67565b80356001600160a01b0381168114613a7b57600080fd5b600060208284031215613ac457600080fd5b61162182613a9b565b60008060408385031215613ae057600080fd5b613ae983613a67565b9150613af760208401613a9b565b90509250929050565b600060208284031215613b1257600080fd5b5035919050565b60008060408385031215613b2c57600080fd5b82359150613af760208401613a9b565b600080600080600060808688031215613b5457600080fd5b613b5d86613a9b565b9450613b6b60208701613a9b565b935060408601359250606086013567ffffffffffffffff80821115613b8f57600080fd5b818801915088601f830112613ba357600080fd5b813581811115613bb257600080fd5b896020828501011115613bc457600080fd5b9699959850939650602001949392505050565b6020808252825182820181905260009190848201906040850190845b81811015613c185783516001600160a01b031683529284019291840191600101613bf3565b50909695505050505050565b60005b83811015613c3f578181015183820152602001613c27565b50506000910152565b60008151808452613c60816020860160208601613c24565b601f01601f19169290920160200192915050565b6020815260006116216020830184613c48565b600080600060608486031215613c9c57600080fd5b613ca584613a67565b9250613cb360208501613a9b565b9150604084013590509250925092565b60008060408385031215613cd657600080fd5b613cdf83613a67565b946020939093013593505050565b634e487b7160e01b600052604160045260246000fd5b60008060408385031215613d1657600080fd5b613d1f83613a67565b9150602083013567ffffffffffffffff80821115613d3c57600080fd5b818501915085601f830112613d5057600080fd5b813581811115613d6257613d62613ced565b604051601f8201601f19908116603f01168101908382118183101715613d8a57613d8a613ced565b81604052828152886020848701011115613da357600080fd5b8260208601602083013760006020848301015280955050505050509250929050565b634e487b7160e01b600052603260045260246000fd5b634e487b7160e01b600052601160045260246000fd5b80820180821115610a6e57610a6e613ddb565b63ffffffff818116838216019080821115613e2157613e21613ddb565b5092915050565b600060018201613e3a57613e3a613ddb565b5060010190565b600181811c90821680613e5557607f821691505b60208210810361119757634e487b7160e01b600052602260045260246000fd5b600060208284031215613e8757600080fd5b8151801515811461162157600080fd5b60008351613ea9818460208801613c24565b60f09390931b7fffff000000000000000000000000000000000000000000000000000000000000169190920190815260020192915050565b600060208284031215613ef357600080fd5b5051919050565b81810381811115610a6e57610a6e613ddb565b60008251613f1f818460208701613c24565b9190910192915050565b601f821115610dd757600081815260208120601f850160051c81016020861015613f505750805b601f850160051c820191505b81811015612b1057828155600101613f5c565b815167ffffffffffffffff811115613f8957613f89613ced565b613f9d81613f978454613e41565b84613f29565b602080601f831160018114613fd25760008415613fba5750858301515b600019600386901b1c1916600185901b178555612b10565b600085815260208120601f198616915b8281101561400157888601518255948401946001909101908401613fe2565b508582101561401f5787850151600019600388901b60f8161c191681555b5050505050600190811b01905550565b8082028115828204841417610a6e57610a6e613ddb565b60008261406357634e487b7160e01b600052601260045260246000fd5b500490565b7f416363657373436f6e74726f6c3a206163636f756e74200000000000000000008152600083516140a0816017850160208801613c24565b7f206973206d697373696e6720726f6c652000000000000000000000000000000060179184019182015283516140dd816028840160208801613c24565b01602801949350505050565b6000816140f8576140f8613ddb565b50600019019056fea164736f6c6343000812000a",
  "linkReferences": {},
  "deployedLinkReferences": {}
}