{
  "_format": "hh-sol-artifact-1",
  "contractName": "Candidate",
  "sourceName": "contracts/Candidate.sol",
  "abi": [
    {
      "inputs": [],
      "stateMutability": "nonpayable",
      "type": "constructor"
    },
    {
      "anonymous": false,
      "inputs": [
        {
          "indexed": false,
          "internalType": "uint32",
          "name": "layerIndex",
          "type": "uint32"
        },
        {
          "indexed": false,
          "internalType": "address",
          "name": "sender",
          "type": "address"
        },
        {
          "indexed": false,
          "internalType": "uint256",
          "name": "amount",
          "type": "uint256"
        },
        {
          "indexed": false,
          "internalType": "uint256",
          "name": "lton",
          "type": "uint256"
        }
      ],
      "name": "Restaked",
      "type": "event"
    },
    {
      "anonymous": false,
      "inputs": [
        {
          "indexed": true,
          "internalType": "bytes32",
          "name": "role",
          "type": "bytes32"
        },
        {
          "indexed": true,
          "internalType": "bytes32",
          "name": "previousAdminRole",
          "type": "bytes32"
        },
        {
          "indexed": true,
          "internalType": "bytes32",
          "name": "newAdminRole",
          "type": "bytes32"
        }
      ],
      "name": "RoleAdminChanged",
      "type": "event"
    },
    {
      "anonymous": false,
      "inputs": [
        {
          "indexed": true,
          "internalType": "bytes32",
          "name": "role",
          "type": "bytes32"
        },
        {
          "indexed": true,
          "internalType": "address",
          "name": "account",
          "type": "address"
        },
        {
          "indexed": true,
          "internalType": "address",
          "name": "sender",
          "type": "address"
        }
      ],
      "name": "RoleGranted",
      "type": "event"
    },
    {
      "anonymous": false,
      "inputs": [
        {
          "indexed": true,
          "internalType": "bytes32",
          "name": "role",
          "type": "bytes32"
        },
        {
          "indexed": true,
          "internalType": "address",
          "name": "account",
          "type": "address"
        },
        {
          "indexed": true,
          "internalType": "address",
          "name": "sender",
          "type": "address"
        }
      ],
      "name": "RoleRevoked",
      "type": "event"
    },
    {
      "anonymous": false,
      "inputs": [
        {
          "indexed": false,
          "internalType": "uint32",
          "name": "layerIndex",
          "type": "uint32"
        },
        {
          "indexed": false,
          "internalType": "address",
          "name": "sender",
          "type": "address"
        },
        {
          "indexed": false,
          "internalType": "uint256",
          "name": "amount",
          "type": "uint256"
        },
        {
          "indexed": false,
          "internalType": "uint256",
          "name": "lton",
          "type": "uint256"
        }
      ],
      "name": "Staked",
      "type": "event"
    },
    {
      "anonymous": false,
      "inputs": [
        {
          "indexed": false,
          "internalType": "uint32",
          "name": "layerIndex",
          "type": "uint32"
        },
        {
          "indexed": false,
          "internalType": "address",
          "name": "sender",
          "type": "address"
        },
        {
          "indexed": false,
          "internalType": "uint256",
          "name": "amount",
          "type": "uint256"
        },
        {
          "indexed": false,
          "internalType": "uint256",
          "name": "lton",
          "type": "uint256"
        }
      ],
      "name": "Unstaked",
      "type": "event"
    },
    {
      "anonymous": false,
      "inputs": [
        {
          "indexed": false,
          "internalType": "uint32",
          "name": "layerIndex",
          "type": "uint32"
        },
        {
          "indexed": false,
          "internalType": "address",
          "name": "sender",
          "type": "address"
        },
        {
          "indexed": false,
          "internalType": "uint256",
          "name": "amount",
          "type": "uint256"
        }
      ],
      "name": "Withdrawal",
      "type": "event"
    },
    {
      "inputs": [],
      "name": "ADMIN_ROLE",
      "outputs": [
        {
          "internalType": "bytes32",
          "name": "",
          "type": "bytes32"
        }
      ],
      "stateMutability": "view",
      "type": "function"
    },
    {
      "inputs": [],
      "name": "DEFAULT_ADMIN_ROLE",
      "outputs": [
        {
          "internalType": "bytes32",
          "name": "",
          "type": "bytes32"
        }
      ],
      "stateMutability": "view",
      "type": "function"
    },
    {
      "inputs": [],
      "name": "POLICY_ROLE",
      "outputs": [
        {
          "internalType": "bytes32",
          "name": "",
          "type": "bytes32"
        }
      ],
      "stateMutability": "view",
      "type": "function"
    },
    {
      "inputs": [
        {
          "internalType": "uint32",
          "name": "",
          "type": "uint32"
        },
        {
          "internalType": "address",
          "name": "",
          "type": "address"
        }
      ],
      "name": "_pendingUnstaked",
      "outputs": [
        {
          "internalType": "uint256",
          "name": "",
          "type": "uint256"
        }
      ],
      "stateMutability": "view",
      "type": "function"
    },
    {
      "inputs": [
        {
          "internalType": "address",
          "name": "",
          "type": "address"
        }
      ],
      "name": "_pendingUnstakedAccount",
      "outputs": [
        {
          "internalType": "uint256",
          "name": "",
          "type": "uint256"
        }
      ],
      "stateMutability": "view",
      "type": "function"
    },
    {
      "inputs": [
        {
          "internalType": "uint32",
          "name": "",
          "type": "uint32"
        }
      ],
      "name": "_pendingUnstakedLayer2",
      "outputs": [
        {
          "internalType": "uint256",
          "name": "",
          "type": "uint256"
        }
      ],
      "stateMutability": "view",
      "type": "function"
    },
    {
      "inputs": [
        {
          "internalType": "address",
          "name": "account",
          "type": "address"
        }
      ],
      "name": "addAdmin",
      "outputs": [],
      "stateMutability": "nonpayable",
      "type": "function"
    },
    {
      "inputs": [
        {
          "internalType": "address",
          "name": "",
          "type": "address"
        }
      ],
      "name": "aliveImplementation",
      "outputs": [
        {
          "internalType": "bool",
          "name": "",
          "type": "bool"
        }
      ],
      "stateMutability": "view",
      "type": "function"
    },
    {
      "inputs": [
        {
          "internalType": "uint32",
          "name": "layerIndex",
          "type": "uint32"
        },
        {
          "internalType": "address",
          "name": "account",
          "type": "address"
        }
      ],
      "name": "amountOfPendings",
      "outputs": [
        {
          "internalType": "uint256",
          "name": "amount",
          "type": "uint256"
        },
        {
          "internalType": "uint32",
          "name": "startIndex",
          "type": "uint32"
        },
        {
          "internalType": "uint32",
          "name": "len",
          "type": "uint32"
        },
        {
          "internalType": "uint32",
          "name": "nextWithdrawableBlockNumber",
          "type": "uint32"
        }
      ],
      "stateMutability": "view",
      "type": "function"
    },
    {
      "inputs": [
        {
          "internalType": "uint32",
          "name": "_index",
          "type": "uint32"
        },
        {
          "internalType": "address",
          "name": "account",
          "type": "address"
        }
      ],
      "name": "availableWithdraw",
      "outputs": [
        {
          "internalType": "uint256",
          "name": "amount",
          "type": "uint256"
        },
        {
          "internalType": "uint32",
          "name": "startIndex",
          "type": "uint32"
        },
        {
          "internalType": "uint32",
          "name": "len",
          "type": "uint32"
        }
      ],
      "stateMutability": "view",
      "type": "function"
    },
    {
      "inputs": [
        {
          "internalType": "uint32",
          "name": "_index",
          "type": "uint32"
        },
        {
          "internalType": "address",
          "name": "account",
          "type": "address"
        }
      ],
      "name": "balanceOf",
      "outputs": [
        {
          "internalType": "uint256",
          "name": "amount",
          "type": "uint256"
        }
      ],
      "stateMutability": "view",
      "type": "function"
    },
    {
      "inputs": [
        {
          "internalType": "uint32",
          "name": "_index",
          "type": "uint32"
        },
        {
          "internalType": "address",
          "name": "account",
          "type": "address"
        }
      ],
      "name": "balanceOfLton",
      "outputs": [
        {
          "internalType": "uint256",
          "name": "amount",
          "type": "uint256"
        }
      ],
      "stateMutability": "view",
      "type": "function"
    },
    {
      "inputs": [
        {
          "internalType": "uint32",
          "name": "_index",
          "type": "uint32"
        }
      ],
      "name": "balanceOfLton",
      "outputs": [
        {
          "internalType": "uint256",
          "name": "amount",
          "type": "uint256"
        }
      ],
      "stateMutability": "view",
      "type": "function"
    },
    {
      "inputs": [
        {
          "internalType": "uint32",
          "name": "_candidateIndex",
          "type": "uint32"
        },
        {
          "internalType": "bytes",
          "name": "_info",
          "type": "bytes"
        }
      ],
      "name": "create",
      "outputs": [
        {
          "internalType": "bool",
          "name": "",
          "type": "bool"
        }
      ],
      "stateMutability": "nonpayable",
      "type": "function"
    },
    {
      "inputs": [
        {
          "internalType": "uint32",
          "name": "_index",
          "type": "uint32"
        }
      ],
      "name": "existedIndex",
      "outputs": [
        {
          "internalType": "bool",
          "name": "",
          "type": "bool"
        }
      ],
      "stateMutability": "view",
      "type": "function"
    },
    {
      "inputs": [
        {
          "internalType": "uint32",
          "name": "_index",
          "type": "uint32"
        }
      ],
      "name": "getCandidateInfo",
      "outputs": [
        {
          "components": [
            {
              "internalType": "address",
              "name": "operator",
              "type": "address"
            },
            {
              "internalType": "uint32",
              "name": "sequencerIndex",
              "type": "uint32"
            },
            {
              "internalType": "uint16",
              "name": "commission",
              "type": "uint16"
            }
          ],
          "internalType": "struct LibOperator.Info",
          "name": "_layerInfo",
          "type": "tuple"
        }
      ],
      "stateMutability": "view",
      "type": "function"
    },
    {
      "inputs": [
        {
          "internalType": "uint32",
          "name": "_index",
          "type": "uint32"
        }
      ],
      "name": "getCandidateKey",
      "outputs": [
        {
          "internalType": "bytes32",
          "name": "layerKey_",
          "type": "bytes32"
        }
      ],
      "stateMutability": "view",
      "type": "function"
    },
    {
      "inputs": [
        {
          "internalType": "uint32",
          "name": "_index",
          "type": "uint32"
        },
        {
          "internalType": "address",
          "name": "account",
          "type": "address"
        }
      ],
      "name": "getLayerStakes",
      "outputs": [
        {
          "components": [
            {
              "internalType": "uint256",
              "name": "stakePrincipal",
              "type": "uint256"
            },
            {
              "internalType": "uint256",
              "name": "bondPrincipal",
              "type": "uint256"
            },
            {
              "internalType": "uint256",
              "name": "stakelton",
              "type": "uint256"
            },
            {
              "internalType": "uint256",
              "name": "bondlton",
              "type": "uint256"
            },
            {
              "internalType": "bool",
              "name": "stake",
              "type": "bool"
            },
            {
              "internalType": "uint16",
              "name": "fwFee",
              "type": "uint16"
            }
          ],
          "internalType": "struct LibStake.StakeInfo",
          "name": "info",
          "type": "tuple"
        }
      ],
      "stateMutability": "view",
      "type": "function"
    },
    {
      "inputs": [
        {
          "internalType": "bytes32",
          "name": "role",
          "type": "bytes32"
        }
      ],
      "name": "getRoleAdmin",
      "outputs": [
        {
          "internalType": "bytes32",
          "name": "",
          "type": "bytes32"
        }
      ],
      "stateMutability": "view",
      "type": "function"
    },
    {
      "inputs": [],
      "name": "getTotalLton",
      "outputs": [
        {
          "internalType": "uint256",
          "name": "",
          "type": "uint256"
        }
      ],
      "stateMutability": "view",
      "type": "function"
    },
    {
      "inputs": [
        {
          "internalType": "bytes32",
          "name": "role",
          "type": "bytes32"
        },
        {
          "internalType": "address",
          "name": "account",
          "type": "address"
        }
      ],
      "name": "grantRole",
      "outputs": [],
      "stateMutability": "nonpayable",
      "type": "function"
    },
    {
      "inputs": [
        {
          "internalType": "bytes32",
          "name": "role",
          "type": "bytes32"
        },
        {
          "internalType": "address",
          "name": "account",
          "type": "address"
        }
      ],
      "name": "hasRole",
      "outputs": [
        {
          "internalType": "bool",
          "name": "",
          "type": "bool"
        }
      ],
      "stateMutability": "view",
      "type": "function"
    },
    {
      "inputs": [
        {
          "internalType": "address",
          "name": "account",
          "type": "address"
        }
      ],
      "name": "isAdmin",
      "outputs": [
        {
          "internalType": "bool",
          "name": "",
          "type": "bool"
        }
      ],
      "stateMutability": "view",
      "type": "function"
    },
    {
      "inputs": [
        {
          "internalType": "uint32",
          "name": "_index",
          "type": "uint32"
        }
      ],
      "name": "layer2Deposits",
      "outputs": [
        {
          "internalType": "uint256",
          "name": "amount",
          "type": "uint256"
        }
      ],
      "stateMutability": "view",
      "type": "function"
    },
    {
      "inputs": [],
      "name": "layer2Manager",
      "outputs": [
        {
          "internalType": "address",
          "name": "",
          "type": "address"
        }
      ],
      "stateMutability": "view",
      "type": "function"
    },
    {
      "inputs": [
        {
          "internalType": "uint32",
          "name": "",
          "type": "uint32"
        }
      ],
      "name": "layerInfo",
      "outputs": [
        {
          "internalType": "bytes",
          "name": "",
          "type": "bytes"
        }
      ],
      "stateMutability": "view",
      "type": "function"
    },
    {
      "inputs": [
        {
          "internalType": "uint32",
          "name": "",
          "type": "uint32"
        }
      ],
      "name": "layerStakedLton",
      "outputs": [
        {
          "internalType": "uint256",
          "name": "",
          "type": "uint256"
        }
      ],
      "stateMutability": "view",
      "type": "function"
    },
    {
      "inputs": [
        {
          "internalType": "uint32",
          "name": "",
          "type": "uint32"
        },
        {
          "internalType": "address",
          "name": "",
          "type": "address"
        }
      ],
      "name": "layerStakes",
      "outputs": [
        {
          "internalType": "uint256",
          "name": "stakePrincipal",
          "type": "uint256"
        },
        {
          "internalType": "uint256",
          "name": "bondPrincipal",
          "type": "uint256"
        },
        {
          "internalType": "uint256",
          "name": "stakelton",
          "type": "uint256"
        },
        {
          "internalType": "uint256",
          "name": "bondlton",
          "type": "uint256"
        },
        {
          "internalType": "bool",
          "name": "stake",
          "type": "bool"
        },
        {
          "internalType": "uint16",
          "name": "fwFee",
          "type": "uint16"
        }
      ],
      "stateMutability": "view",
      "type": "function"
    },
    {
      "inputs": [
        {
          "internalType": "uint32",
          "name": "layerIndex",
          "type": "uint32"
        },
        {
          "internalType": "address",
          "name": "account",
          "type": "address"
        }
      ],
      "name": "numberOfPendings",
      "outputs": [
        {
          "internalType": "uint256",
          "name": "totalRequests",
          "type": "uint256"
        },
        {
          "internalType": "uint256",
          "name": "withdrawIndex",
          "type": "uint256"
        },
        {
          "internalType": "uint256",
          "name": "pendingLength",
          "type": "uint256"
        }
      ],
      "stateMutability": "view",
      "type": "function"
    },
    {
      "inputs": [
        {
          "internalType": "address",
          "name": "sender",
          "type": "address"
        },
        {
          "internalType": "address",
          "name": "spender",
          "type": "address"
        },
        {
          "internalType": "uint256",
          "name": "amount",
          "type": "uint256"
        },
        {
          "internalType": "bytes",
          "name": "data",
          "type": "bytes"
        }
      ],
      "name": "onApprove",
      "outputs": [
        {
          "internalType": "bool",
          "name": "",
          "type": "bool"
        }
      ],
      "stateMutability": "nonpayable",
      "type": "function"
    },
    {
      "inputs": [
        {
          "internalType": "uint32",
          "name": "_index",
          "type": "uint32"
        }
      ],
      "name": "operator",
      "outputs": [
        {
          "internalType": "address",
          "name": "operator_",
          "type": "address"
        }
      ],
      "stateMutability": "view",
      "type": "function"
    },
    {
      "inputs": [],
      "name": "pauseProxy",
      "outputs": [
        {
          "internalType": "bool",
          "name": "",
          "type": "bool"
        }
      ],
      "stateMutability": "view",
      "type": "function"
    },
    {
      "inputs": [
        {
          "internalType": "uint256",
          "name": "",
          "type": "uint256"
        }
      ],
      "name": "proxyImplementation",
      "outputs": [
        {
          "internalType": "address",
          "name": "",
          "type": "address"
        }
      ],
      "stateMutability": "view",
      "type": "function"
    },
    {
      "inputs": [
        {
          "internalType": "address",
          "name": "account",
          "type": "address"
        }
      ],
      "name": "removeAdmin",
      "outputs": [],
      "stateMutability": "nonpayable",
      "type": "function"
    },
    {
      "inputs": [
        {
          "internalType": "bytes32",
          "name": "role",
          "type": "bytes32"
        },
        {
          "internalType": "address",
          "name": "account",
          "type": "address"
        }
      ],
      "name": "renounceRole",
      "outputs": [],
      "stateMutability": "nonpayable",
      "type": "function"
    },
    {
      "inputs": [
        {
          "internalType": "uint32",
          "name": "_index",
          "type": "uint32"
        }
      ],
      "name": "restake",
      "outputs": [],
      "stateMutability": "nonpayable",
      "type": "function"
    },
    {
      "inputs": [
        {
          "internalType": "uint32",
          "name": "_index",
          "type": "uint32"
        },
        {
          "internalType": "uint256",
          "name": "n",
          "type": "uint256"
        }
      ],
      "name": "restakeMulti",
      "outputs": [],
      "stateMutability": "nonpayable",
      "type": "function"
    },
    {
      "inputs": [
        {
          "internalType": "bytes32",
          "name": "role",
          "type": "bytes32"
        },
        {
          "internalType": "address",
          "name": "account",
          "type": "address"
        }
      ],
      "name": "revokeRole",
      "outputs": [],
      "stateMutability": "nonpayable",
      "type": "function"
    },
    {
      "inputs": [],
      "name": "seigManagerV2",
      "outputs": [
        {
          "internalType": "address",
          "name": "",
          "type": "address"
        }
      ],
      "stateMutability": "view",
      "type": "function"
    },
    {
      "inputs": [
        {
          "internalType": "bytes4",
          "name": "",
          "type": "bytes4"
        }
      ],
      "name": "selectorImplementation",
      "outputs": [
        {
          "internalType": "address",
          "name": "",
          "type": "address"
        }
      ],
      "stateMutability": "view",
      "type": "function"
    },
    {
      "inputs": [
        {
          "internalType": "uint32",
          "name": "_index",
          "type": "uint32"
        },
        {
          "internalType": "uint256",
          "name": "amount",
          "type": "uint256"
        }
      ],
      "name": "stake",
      "outputs": [],
      "stateMutability": "nonpayable",
      "type": "function"
    },
    {
      "inputs": [
        {
          "internalType": "uint256",
          "name": "",
          "type": "uint256"
        }
      ],
      "name": "stakeAccountList",
      "outputs": [
        {
          "internalType": "address",
          "name": "",
          "type": "address"
        }
      ],
      "stateMutability": "view",
      "type": "function"
    },
    {
      "inputs": [
        {
          "internalType": "bytes4",
          "name": "interfaceId",
          "type": "bytes4"
        }
      ],
      "name": "supportsInterface",
      "outputs": [
        {
          "internalType": "bool",
          "name": "",
          "type": "bool"
        }
      ],
      "stateMutability": "view",
      "type": "function"
    },
    {
      "inputs": [],
      "name": "ton",
      "outputs": [
        {
          "internalType": "address",
          "name": "",
          "type": "address"
        }
      ],
      "stateMutability": "view",
      "type": "function"
    },
    {
      "inputs": [],
      "name": "totalLayer2Deposits",
      "outputs": [
        {
          "internalType": "uint256",
          "name": "amount",
          "type": "uint256"
        }
      ],
      "stateMutability": "view",
      "type": "function"
    },
    {
      "inputs": [],
      "name": "totalStakeAccountList",
      "outputs": [
        {
          "internalType": "uint256",
          "name": "",
          "type": "uint256"
        }
      ],
      "stateMutability": "view",
      "type": "function"
    },
    {
      "inputs": [],
      "name": "totalStakedLton",
      "outputs": [
        {
          "internalType": "uint256",
          "name": "",
          "type": "uint256"
        }
      ],
      "stateMutability": "view",
      "type": "function"
    },
    {
      "inputs": [
        {
          "internalType": "address",
          "name": "newAdmin",
          "type": "address"
        }
      ],
      "name": "transferAdmin",
      "outputs": [],
      "stateMutability": "nonpayable",
      "type": "function"
    },
    {
      "inputs": [],
      "name": "u",
      "outputs": [
        {
          "internalType": "bool",
          "name": "",
          "type": "bool"
        }
      ],
      "stateMutability": "view",
      "type": "function"
    },
    {
      "inputs": [
        {
          "internalType": "uint32",
          "name": "_index",
          "type": "uint32"
        },
        {
          "internalType": "uint256",
          "name": "lton_",
          "type": "uint256"
        }
      ],
      "name": "unstake",
      "outputs": [],
      "stateMutability": "nonpayable",
      "type": "function"
    },
    {
      "inputs": [
        {
          "internalType": "uint32",
          "name": "_index",
          "type": "uint32"
        }
      ],
      "name": "withdraw",
      "outputs": [],
      "stateMutability": "nonpayable",
      "type": "function"
    },
    {
      "inputs": [
        {
          "internalType": "uint32",
          "name": "",
          "type": "uint32"
        },
        {
          "internalType": "address",
          "name": "",
          "type": "address"
        }
      ],
      "name": "withdrawalRequestIndex",
      "outputs": [
        {
          "internalType": "uint256",
          "name": "",
          "type": "uint256"
        }
      ],
      "stateMutability": "view",
      "type": "function"
    },
    {
      "inputs": [
        {
          "internalType": "uint32",
          "name": "",
          "type": "uint32"
        },
        {
          "internalType": "address",
          "name": "",
          "type": "address"
        },
        {
          "internalType": "uint256",
          "name": "",
          "type": "uint256"
        }
      ],
      "name": "withdrawalRequests",
      "outputs": [
        {
          "internalType": "uint32",
          "name": "withdrawableBlockNumber",
          "type": "uint32"
        },
        {
          "internalType": "uint128",
          "name": "amount",
          "type": "uint128"
        },
        {
          "internalType": "bool",
          "name": "processed",
          "type": "bool"
        }
      ],
      "stateMutability": "view",
      "type": "function"
    }
  ],
  "bytecode": "0x60806040526006805460ff1916600117905534801561001d57600080fd5b50613ed28061002d6000396000f3fe608060405234801561001057600080fd5b50600436106103575760003560e01c806375829def116101c85780639c2f614f11610104578063b969fbef116100a2578063cc48b9471161007c578063cc48b947146109a0578063d547741f146109b9578063df2b4290146109cc578063ec110d45146109df57600080fd5b8063b969fbef14610966578063c5dd39931461096e578063c6a898c51461098e57600080fd5b8063aa9224cd116100de578063aa9224cd146108f4578063b413b37a14610907578063b6a2f99d1461090f578063b911135f1461093d57600080fd5b80639c2f614f146108505780639c656e2614610863578063a217fddf146108ec57600080fd5b806387dd8bd0116101715780638d99e1ca1161014b5780638d99e1ca146107d357806391d14854146107e657806394c89b2c1461081d578063979119701461083057600080fd5b806387dd8bd0146107655780638afec9fc146107785780638c71762d1461079e57600080fd5b80637cf1587c116101a25780637cf1587c146107145780637d211a1c1461073f5780637ec6840f1461075257600080fd5b806375829def146106c757806375b238fc146106da578063763936c71461070157600080fd5b806346bcdb491161029757806363a8fd8911610240578063704802751161021a578063704802751461066e57806370619cf91461068157806373469a7a146106a1578063744a3561146106b457600080fd5b806363a8fd8914610602578063659ab8201461060f5780636d1ef1031461062f57600080fd5b806350d2a2761161027157806350d2a276146105a3578063550d01a3146105cc5780635f1b989e146105ef57600080fd5b806346bcdb491461054a5780634e1a264d146105525780634f818d0c1461055b57600080fd5b80631f760d011161030457806324d7806c116102de57806324d7806c146104fe5780632f2ff15d1461051157806336568abe146105245780634273ca161461053757600080fd5b80631f760d011461047557806322985246146104b4578063248a9ca3146104db57600080fd5b806316b5d5bd1161033557806316b5d5bd146103d25780631785f53c146103fd5780631ed944951461041057600080fd5b806301ffc9a71461035c578063064fe96614610384578063118e29d1146103bd575b600080fd5b61036f61036a366004613874565b6109f2565b60405190151581526020015b60405180910390f35b6103af6103923660046138ce565b600e60209081526000928352604080842090915290825290205481565b60405190815260200161037b565b6103d06103cb366004613901565b610a29565b005b6008546103e5906001600160a01b031681565b6040516001600160a01b03909116815260200161037b565b6103d061040b36600461391c565b610b55565b61042361041e3660046138ce565b610be2565b60405161037b9190600060c0820190508251825260208301516020830152604083015160408301526060830151606083015260808301511515608083015261ffff60a08401511660a083015292915050565b6104886104833660046138ce565b610ca0565b6040805194855263ffffffff93841660208601529183169184019190915216606082015260800161037b565b6103af7ffb5864e8ff833c3cb2d2d08505e82ff02a43554c74a35d4f5a64e8526127831181565b6103af6104e9366004613937565b60009081526020819052604090206001015490565b61036f61050c36600461391c565b610dde565b6103d061051f366004613950565b610e1e565b6103d0610532366004613950565b610e48565b61036f610545366004613973565b610ed0565b6012546103af565b6103af60095481565b61056e610569366004613901565b610f85565b6040805182516001600160a01b0316815260208084015163ffffffff16908201529181015161ffff169082015260600161037b565b6103e56105b1366004613874565b6004602052600090815260409020546001600160a01b031681565b61036f6105da36600461391c565b60036020526000908152604090205460ff1681565b6103af6105fd3660046138ce565b61109f565b60015461036f9060ff1681565b61062261061d366004613901565b61111b565b60405161037b9190613a5e565b61064261063d366004613a71565b6111b5565b6040805163ffffffff90941684526001600160801b03909216602084015215159082015260600161037b565b6103d061067c36600461391c565b611214565b6103af61068f366004613901565b600a6020526000908152604090205481565b6007546103e5906001600160a01b031681565b6103d06106c2366004613aad565b61129e565b6103d06106d536600461391c565b6113c0565b6103af7fdf8b4c520ffe197c5343c6f5aec59570151ef9a492f2c624fd45ddde6135ec4281565b6103e561070f366004613901565b611522565b6103af6107223660046138ce565b600d60209081526000928352604080842090915290825290205481565b61036f61074d366004613901565b6115e1565b6103d0610760366004613aad565b6116a8565b6103af610773366004613901565b611707565b6103af610786366004613901565b63ffffffff166000908152600a602052604090205490565b6107b16107ac3660046138ce565b6117ba565b6040805193845263ffffffff928316602085015291169082015260600161037b565b6103af6107e1366004613901565b6118f7565b61036f6107f4366004613950565b6000918252602082815260408084206001600160a01b0393909316845291905290205460ff1690565b6103af61082b3660046138ce565b61196a565b6103af61083e36600461391c565b60106020526000908152604090205481565b6103d061085e366004613aad565b6119e7565b6108b96108713660046138ce565b600b602090815260009283526040808420909152908252902080546001820154600283015460038401546004909401549293919290919060ff811690610100900461ffff1686565b6040805196875260208701959095529385019290925260608401521515608083015261ffff1660a082015260c00161037b565b6103af600081565b6103d0610902366004613901565b611b4b565b6009546103af565b61092261091d3660046138ce565b611f64565b6040805193845260208401929092529082015260600161037b565b6103e561094b366004613937565b6002602052600090815260409020546001600160a01b031681565b6103af611fbf565b6103af61097c366004613901565b600f6020526000908152604090205481565b60065461036f90610100900460ff1681565b6006546103e5906201000090046001600160a01b031681565b6103d06109c7366004613950565b612032565b61036f6109da366004613aed565b612057565b6103e56109ed366004613937565b612214565b60006001600160e01b03198216637965db0b60e01b1480610a2357506301ffc9a760e01b6001600160e01b03198316145b92915050565b600760009054906101000a90046001600160a01b03166001600160a01b031663764a78566040518163ffffffff1660e01b81526004016020604051808303816000875af1158015610a7e573d6000803e3d6000fd5b505050506040513d601f19601f82011682018060405250810190610aa29190613baf565b610ae55760405162461bcd60e51b815260206004820152600f60248201526e6661696c207570646174655365696760881b60448201526064015b60405180910390fd5b63ffffffff81166000908152600d602090815260408083203380855292529091205490610b1690839083600161223e565b610b515760405162461bcd60e51b815260206004820152600c60248201526b534c5f455f52455354414b4560a01b6044820152606401610adc565b5050565b610b5e33610dde565b610bb55760405162461bcd60e51b815260206004820152602260248201527f41636365737369626c653a2043616c6c6572206973206e6f7420616e2061646d60448201526134b760f11b6064820152608401610adc565b610bdf7fdf8b4c520ffe197c5343c6f5aec59570151ef9a492f2c624fd45ddde6135ec4282610e48565b50565b610c216040518060c0016040528060008152602001600081526020016000815260200160008152602001600015158152602001600061ffff1681525090565b5063ffffffff9091166000908152600b602090815260408083206001600160a01b03909416835292815290829020825160c081018452815481526001820154928101929092526002810154928201929092526003820154606082015260049091015460ff81161515608083015261ffff6101009091041660a082015290565b63ffffffff8083166000818152600c602090815260408083206001600160a01b03871680855290835281842054948452600d835281842090845290915281205490929091839182919084165b81811015610dd35763ffffffff88166000908152600c602090815260408083206001600160a01b038b1684529091528120805483908110610d2f57610d2f613bd1565b6000918252602080832060408051606081018252939091015463ffffffff8116845264010000000081046001600160801b031692840192909252600160a01b90910460ff1615159082018190529092509003610dc0578363ffffffff16600003610d9857805193505b6020810151610db0906001600160801b031688613bfd565b9650610dbd600186613c10565b94505b5080610dcb81613c34565b915050610cec565b505092959194509250565b6001600160a01b03811660009081527f5cbfc8ee58ca47855df7bcf648dd304ddb6b932f9b87878bdf6318d7ec7ee5b7602052604081205460ff16610a23565b600082815260208190526040902060010154610e39816126eb565b610e4383836126f5565b505050565b6001600160a01b0381163314610ec65760405162461bcd60e51b815260206004820152602f60248201527f416363657373436f6e74726f6c3a2063616e206f6e6c792072656e6f756e636560448201527f20726f6c657320666f722073656c6600000000000000000000000000000000006064820152608401610adc565b610b518282612793565b6000610f22610f19600085858080601f01602080910402602001604051908101604052809392919081815260200183838082843760009201919091525092939250506128129050565b61ffff166115e1565b610f6e5760405162461bcd60e51b815260206004820152601860248201527f6e6f6e2d726567697374657265642063616e64696461746500000000000000006044820152606401610adc565b610f7b86868686866128c6565b9695505050505050565b604080516060810182526000808252602082018190529181019190915263ffffffff821660009081526011602052604081208054610fc290613c4d565b80601f0160208091040260200160405190810160405280929190818152602001828054610fee90613c4d565b801561103b5780601f106110105761010080835404028352916020019161103b565b820191906000526020600020905b81548152906001019060200180831161101e57829003601f168201915b5050505050905060198151111561109957604080516060810190915280611063836000612993565b6001600160a01b0316815260200161107c836014612812565b61ffff168152602001611090836018612a63565b61ffff16905291505b50919050565b63ffffffff9091166000908152600b602090815260408083206001600160a01b03909416835292815290829020825160c081018452815481526001820154928101929092526002810154928201839052600381015460608301526004015460ff81161515608083015261ffff6101009091041660a09091015290565b6011602052600090815260409020805461113490613c4d565b80601f016020809104026020016040519081016040528092919081815260200182805461116090613c4d565b80156111ad5780601f10611182576101008083540402835291602001916111ad565b820191906000526020600020905b81548152906001019060200180831161119057829003601f168201915b505050505081565b600c60205282600052604060002060205281600052604060002081815481106111dd57600080fd5b60009182526020909120015463ffffffff8116935064010000000081046001600160801b03169250600160a01b900460ff16905083565b61121d33610dde565b6112745760405162461bcd60e51b815260206004820152602260248201527f41636365737369626c653a2043616c6c6572206973206e6f7420616e2061646d60448201526134b760f11b6064820152608401610adc565b610bdf7fdf8b4c520ffe197c5343c6f5aec59570151ef9a492f2c624fd45ddde6135ec4282610e1e565b600760009054906101000a90046001600160a01b03166001600160a01b031663764a78566040518163ffffffff1660e01b81526004016020604051808303816000875af11580156112f3573d6000803e3d6000fd5b505050506040513d601f19601f820116820180604052508101906113179190613baf565b6113555760405162461bcd60e51b815260206004820152600f60248201526e6661696c207570646174655365696760881b6044820152606401610adc565b63ffffffff82166000908152600d602090815260408083203380855292529091205490611385908490838561223e565b610e435760405162461bcd60e51b815260206004820152600c60248201526b534c5f455f52455354414b4560a01b6044820152606401610adc565b6113c933610dde565b6114205760405162461bcd60e51b815260206004820152602260248201527f41636365737369626c653a2043616c6c6572206973206e6f7420616e2061646d60448201526134b760f11b6064820152608401610adc565b6001600160a01b0381166114765760405162461bcd60e51b815260206004820152601860248201527f41636365737369626c653a207a65726f206164647265737300000000000000006044820152606401610adc565b6001600160a01b03811633036114ce5760405162461bcd60e51b815260206004820152601660248201527f41636365737369626c653a2073616d652061646d696e000000000000000000006044820152606401610adc565b6114f87fdf8b4c520ffe197c5343c6f5aec59570151ef9a492f2c624fd45ddde6135ec4282610e1e565b610bdf7fdf8b4c520ffe197c5343c6f5aec59570151ef9a492f2c624fd45ddde6135ec4233610e48565b63ffffffff81166000908152601160205260408120805482919061154590613c4d565b80601f016020809104026020016040519081016040528092919081815260200182805461157190613c4d565b80156115be5780601f10611593576101008083540402835291602001916115be565b820191906000526020600020905b8154815290600101906020018083116115a157829003601f168201915b50505050509050601781511115611099576115da816000612993565b9392505050565b600854604051635d170f8f60e01b815263ffffffff831660048201526000916001600160a01b031690635d170f8f90602401602060405180830381865afa158015611630573d6000803e3d6000fd5b505050506040513d601f19601f820116820180604052508101906116549190613baf565b6116a05760405162461bcd60e51b815260206004820152601460248201527f6e6f6e2d72656769737465726564206c617965720000000000000000000000006044820152606401610adc565b506001919050565b6116b1826115e1565b6116fd5760405162461bcd60e51b815260206004820152601860248201527f6e6f6e2d726567697374657265642063616e64696461746500000000000000006044820152606401610adc565b610b518282612b17565b63ffffffff81166000908152601160205260408120805482919061172a90613c4d565b80601f016020809104026020016040519081016040528092919081815260200182805461175690613c4d565b80156117a35780601f10611778576101008083540402835291602001916117a3565b820191906000526020600020905b81548152906001019060200180831161178657829003601f168201915b505050505090508080519060200120915050919050565b63ffffffff8083166000818152600c602090815260408083206001600160a01b03871680855290835281842054948452600d835281842090845290915281205490929091839183165b818110156118ee5763ffffffff87166000908152600c602090815260408083206001600160a01b038a168452909152812080548390811061184657611846613bd1565b600091825260209182902060408051606081018252929091015463ffffffff811680845264010000000082046001600160801b031694840194909452600160a01b900460ff161515908201529150431180156118a457506040810151155b156118d55760208101516118c1906001600160801b031687613bfd565b95506118ce600185613c10565b93506118db565b506118ee565b50806118e681613c34565b915050611803565b50509250925092565b6008546040516346ccf0e560e11b815263ffffffff831660048201526000916001600160a01b031690638d99e1ca90602401602060405180830381865afa158015611946573d6000803e3d6000fd5b505050506040513d601f19601f82011682018060405250810190610a239190613c81565b6007546000906001600160a01b031663cdf68009611988858561109f565b6040518263ffffffff1660e01b81526004016119a691815260200190565b602060405180830381865afa1580156119c3573d6000803e3d6000fd5b505050506040513d601f19601f820116820180604052508101906115da9190613c81565b6119f082611522565b6001600160a01b03163303611b41576007546008546040805163a4dd8b7d60e01b815290516000936001600160a01b0390811693636a2fb1f59391169163a4dd8b7d916004808201926020929091908290030181865afa158015611a58573d6000803e3d6000fd5b505050506040513d601f19601f82011682018060405250810190611a7c9190613c81565b6040518263ffffffff1660e01b8152600401611a9a91815260200190565b602060405180830381865afa158015611ab7573d6000803e3d6000fd5b505050506040513d601f19601f82011682018060405250810190611adb9190613c81565b9050611ae7833361109f565b611af18284613bfd565b1115611b3f5760405162461bcd60e51b815260206004820152601d60248201527f6d696e696d756d4465706f736974466f7243616e6469646174652045310000006044820152606401610adc565b505b610b518282612b7e565b60065460ff16611b865760405162461bcd60e51b8152600401610adc906020808252600490820152636c6f636b60e01b604082015260600190565b6006805460ff1916905563ffffffff81166000818152600c602090815260408083203380855290835281842054948452600d83528184208185529092528220549092919081905b83811015611c9f5763ffffffff86166000908152600c602090815260408083206001600160a01b03891684529091528120805483908110611c1057611c10613bd1565b600091825260209091200180549091504363ffffffff909116108015611c3f57508054600160a01b900460ff16155b15611c8657805460ff60a01b1916600160a01b17808255611c72906001600160801b036401000000009091041684613bfd565b925083611c7e81613c34565b945050611c8c565b50611c9f565b5080611c9781613c34565b915050611bcd565b5060008111611cf05760405162461bcd60e51b815260206004820181905260248201527f7a65726f20617661696c61626c65207769746864726177616c20616d6f756e746044820152606401610adc565b63ffffffff85166000908152600d602090815260408083206001600160a01b038816845290915281208054849290611d29908490613bfd565b909155505063ffffffff85166000908152600e602090815260408083206001600160a01b038816845290915281208054839290611d67908490613c9a565b909155505063ffffffff85166000908152600f602052604081208054839290611d91908490613c9a565b90915550506001600160a01b03841660009081526010602052604081208054839290611dbe908490613c9a565b90915550506006546040516370a0823160e01b81523060048201526000916201000090046001600160a01b0316906370a0823190602401602060405180830381865afa158015611e12573d6000803e3d6000fd5b505050506040513d601f19601f82011682018060405250810190611e369190613c81565b905081811015611ee2578015611e6357600654611e63906201000090046001600160a01b03168683612f8f565b6007546001600160a01b031663aad3ec9686611e7f8486613c9a565b6040516001600160e01b031960e085901b1681526001600160a01b0390921660048301526024820152604401600060405180830381600087803b158015611ec557600080fd5b505af1158015611ed9573d6000803e3d6000fd5b50505050611eff565b600654611eff906201000090046001600160a01b03168684612f8f565b6040805163ffffffff881681526001600160a01b03871660208201529081018390527f2d6eb139d2002caa088da5527d9d62f2f23bdf4504f5559a112535c436c6ee59906060015b60405180910390a150506006805460ff1916600117905550505050565b63ffffffff82166000818152600c602090815260408083206001600160a01b03861680855290835281842054948452600d835281842090845290915281205490818310611fb857611fb58284613c9a565b90505b9250925092565b6008546040805163b969fbef60e01b815290516000926001600160a01b03169163b969fbef9160048083019260209291908290030181865afa158015612009573d6000803e3d6000fd5b505050506040513d601f19601f8201168201806040525081019061202d9190613c81565b905090565b60008281526020819052604090206001015461204d816126eb565b610e438383612793565b6008546000906001600160a01b031633146120b45760405162461bcd60e51b815260206004820152601160248201527f6e6f74204c61796572324d616e616765720000000000000000000000000000006044820152606401610adc565b63ffffffff8316600090815260116020526040902080546120d490613c4d565b1590506121235760405162461bcd60e51b815260206004820152600f60248201527f616c7265616479206372656174656400000000000000000000000000000000006044820152606401610adc565b60378251116121745760405162461bcd60e51b815260206004820152600b60248201527f77726f6e67205f696e666f0000000000000000000000000000000000000000006044820152606401610adc565b60006121818360186130aa565b9050612190836000601861316a565b6040516121a39190600090602001613cad565b60408051601f1981840301815291815263ffffffff86166000908152601160205220906121d09082613d3a565b506008546006546121f5916001600160a01b03620100009092048216911630846132cd565b61220a84612204856000612993565b836133f1565b5060019392505050565b6012818154811061222457600080fd5b6000918252602090912001546001600160a01b0316905081565b60065460009060ff1661227c5760405162461bcd60e51b8152600401610adc906020808252600490820152636c6f636b60e01b604082015260600190565b6006805460ff1916905563ffffffff85166000908152600c602090815260408083206001600160a01b0388168452909152812054806122ea5760405162461bcd60e51b815260206004820152600a6024820152696e6f20756e7374616b6560b01b6044820152606401610adc565b836122f58683613c9a565b10156123435760405162461bcd60e51b815260206004820152601860248201527f6e2065786365656473206e756d206f662070656e64696e6700000000000000006044820152606401610adc565b600061234f8587613bfd565b90505b808610156124455763ffffffff88166000908152600c602090815260408083206001600160a01b038b168452909152812080548890811061239557612395613bd1565b6000918252602090912001805490915064010000000081046001600160801b031690600160a01b900460ff161561240e5760405162461bcd60e51b815260206004820152601260248201527f616c7265616479207769746864726177616c00000000000000000000000000006044820152606401610adc565b80156124215761241e8186613bfd565b94505b50805460ff60a01b1916600160a01b1790558561243d81613c34565b965050612352565b600083116124955760405162461bcd60e51b815260206004820152601760248201527f6e6f2076616c69642072657374616b6520616d6f756e740000000000000000006044820152606401610adc565b600754604051636a2fb1f560e01b8152600481018590526000916001600160a01b031690636a2fb1f590602401602060405180830381865afa1580156124df573d6000803e3d6000fd5b505050506040513d601f19601f820116820180604052508101906125039190613c81565b63ffffffff8a166000908152600b602090815260408083206001600160a01b038d168452909152812080549293509186918391612541908490613bfd565b925050819055508181600201600082825461255c9190613bfd565b909155505063ffffffff8a166000908152600a602052604081208054849290612586908490613bfd565b92505081905550816009600082825461259f9190613bfd565b909155505063ffffffff8a166000908152600e602090815260408083206001600160a01b038d168452909152812080548792906125dd908490613c9a565b909155505063ffffffff8a166000908152600f602052604081208054879290612607908490613c9a565b90915550506001600160a01b03891660009081526010602052604081208054879290612634908490613c9a565b909155505063ffffffff8a166000908152600d602090815260408083206001600160a01b038d16845290915281208054899290612672908490613bfd565b90915550506040805163ffffffff8c1681526001600160a01b038b166020820152908101869052606081018390527f34981dc0486069d2abbaddbc42e10b97cb24e4bce60ee4457e1d5062dfc0b4299060800160405180910390a16001955050505050506006805460ff19166001179055949350505050565b610bdf8133613646565b6000828152602081815260408083206001600160a01b038516845290915290205460ff16610b51576000828152602081815260408083206001600160a01b03851684529091529020805460ff1916600117905561274f3390565b6001600160a01b0316816001600160a01b0316837f2f8788117e7eff1d82e926ec794901d17c78024a50270940304540a733656f0d60405160405180910390a45050565b6000828152602081815260408083206001600160a01b038516845290915290205460ff1615610b51576000828152602081815260408083206001600160a01b0385168085529252808320805460ff1916905551339285917ff6391f5c32d9c69d2a47ea670b442974b53935d1edc7fd64eb21e047a839171b9190a45050565b600081612820816004613bfd565b10156128625760405162461bcd60e51b8152602060048201526011602482015270746f55696e7431365f6f766572666c6f7760781b6044820152606401610adc565b61286d826004613bfd565b835110156128bd5760405162461bcd60e51b815260206004820152601460248201527f746f55696e7431365f6f75744f66426f756e64730000000000000000000000006044820152606401610adc565b50016004015190565b6006546000906201000090046001600160a01b0316331461290e5760405162461bcd60e51b8152602060048201526002602482015261454160f01b6044820152606401610adc565b6000612954600085858080601f01602080910402602001604051908101604052809392919081815260200183838082843760009201919091525092939250506128129050565b60065461ffff91909116915061297b906201000090046001600160a01b03168830886132cd565b6129868188876133f1565b5060019695505050505050565b6000816129a1816014613bfd565b10156129ef5760405162461bcd60e51b815260206004820152601260248201527f746f416464726573735f6f766572666c6f7700000000000000000000000000006044820152606401610adc565b6129fa826014613bfd565b83511015612a4a5760405162461bcd60e51b815260206004820152601560248201527f746f416464726573735f6f75744f66426f756e647300000000000000000000006044820152606401610adc565b5001602001516c01000000000000000000000000900490565b600081612a71816002613bfd565b1015612ab35760405162461bcd60e51b8152602060048201526011602482015270746f55696e7431365f6f766572666c6f7760781b6044820152606401610adc565b612abe826002613bfd565b83511015612b0e5760405162461bcd60e51b815260206004820152601460248201527f746f55696e7431365f6f75744f66426f756e64730000000000000000000000006044820152606401610adc565b50016002015190565b8080600003612b4d5760405162461bcd60e51b81526020600482015260026024820152615a3160f01b6044820152606401610adc565b6006543390612b6d906201000090046001600160a01b03168230866132cd565b612b788482856133f1565b50505050565b60065460ff16612bb95760405162461bcd60e51b8152600401610adc906020808252600490820152636c6f636b60e01b604082015260600190565b6006805460ff19169055806000819003612bfa5760405162461bcd60e51b81526020600482015260026024820152615a3160f01b6044820152606401610adc565b60075460405163cdf6800960e01b81526004810184905233916000916001600160a01b039091169063cdf6800990602401602060405180830381865afa158015612c48573d6000803e3d6000fd5b505050506040513d601f19601f82011682018060405250810190612c6c9190613c81565b63ffffffff86166000908152600b602090815260408083206001600160a01b03871684529091529020600281015491925090851115612cd65760405162461bcd60e51b8152600401610adc90602080825260049082015263534c5f3160e01b604082015260600190565b84816002016000828254612cea9190613c9a565b90915550508054821115612d015760008155612d1b565b81816000016000828254612d159190613c9a565b90915550505b63ffffffff86166000908152600a602052604081208054879290612d40908490613c9a565b925050819055508460096000828254612d599190613c9a565b909155505060085460408051636577b27360e11b815290516000926001600160a01b03169163caef64e69160048083019260209291908290030181865afa158015612da8573d6000803e3d6000fd5b505050506040513d601f19601f82011682018060405250810190612dcc9190613c81565b63ffffffff88166000908152600c602090815260408083206001600160a01b03891684529091529081902081516060810190925291925080612e0e8443613bfd565b63ffffffff90811682526001600160801b0380881660208085019190915260006040948501819052865460018101885596815281812086519701805487840151978701511515600160a01b0260ff60a01b19989095166401000000000273ffffffffffffffffffffffffffffffffffffffff19909116988616989098179790971795909516919091179094558a168252600e83528082206001600160a01b03881683529092529081208054859290612ec7908490613bfd565b909155505063ffffffff87166000908152600f602052604081208054859290612ef1908490613bfd565b90915550506001600160a01b03841660009081526010602052604081208054859290612f1e908490613bfd565b90915550506040805163ffffffff891681526001600160a01b0386166020820152908101849052606081018790527f869a01319d83bb921803a22e3e95d0cb8b08e708d3fb144e2c25a563bf8650d39060800160405180910390a150506006805460ff191660011790555050505050565b604080516001600160a01b038481166024830152604480830185905283518084039091018152606490920183526020820180516001600160e01b031663a9059cbb60e01b1790529151600092839290871691612feb9190613dfa565b6000604051808303816000865af19150503d8060008114613028576040519150601f19603f3d011682016040523d82523d6000602084013e61302d565b606091505b50915091508180156130575750805115806130575750808060200190518101906130579190613baf565b6130a35760405162461bcd60e51b815260206004820152600f60248201527f5452414e534645525f4641494c454400000000000000000000000000000000006044820152606401610adc565b5050505050565b6000816130b8816020613bfd565b10156131065760405162461bcd60e51b815260206004820152601260248201527f746f55696e743235365f6f766572666c6f7700000000000000000000000000006044820152606401610adc565b613111826020613bfd565b835110156131615760405162461bcd60e51b815260206004820152601560248201527f746f55696e743235365f6f75744f66426f756e647300000000000000000000006044820152606401610adc565b50016020015190565b60608161317881601f613bfd565b10156131b75760405162461bcd60e51b815260206004820152600e60248201526d736c6963655f6f766572666c6f7760901b6044820152606401610adc565b826131c28382613bfd565b10156132015760405162461bcd60e51b815260206004820152600e60248201526d736c6963655f6f766572666c6f7760901b6044820152606401610adc565b61320b8284613bfd565b8451101561325b5760405162461bcd60e51b815260206004820152601160248201527f736c6963655f6f75744f66426f756e64730000000000000000000000000000006044820152606401610adc565b60608215801561327a57604051915060008252602082016040526132c4565b6040519150601f8416801560200281840101858101878315602002848b0101015b818310156132b357805183526020928301920161329b565b5050858452601f01601f1916604052505b50949350505050565b604080516001600160a01b0385811660248301528481166044830152606480830185905283518084039091018152608490920183526020820180516001600160e01b03166323b872dd60e01b17905291516000928392908816916133319190613dfa565b6000604051808303816000865af19150503d806000811461336e576040519150601f19603f3d011682016040523d82523d6000602084013e613373565b606091505b509150915081801561339d57508051158061339d57508080602001905181019061339d9190613baf565b6133e95760405162461bcd60e51b815260206004820152601460248201527f5452414e534645525f46524f4d5f4641494c45440000000000000000000000006044820152606401610adc565b505050505050565b60065460ff1661342c5760405162461bcd60e51b8152600401610adc906020808252600490820152636c6f636b60e01b604082015260600190565b6006805460ff1916905580600081900361346d5760405162461bcd60e51b81526020600482015260026024820152615a3160f01b6044820152606401610adc565b600754604051636a2fb1f560e01b8152600481018490526000916001600160a01b031690636a2fb1f590602401602060405180830381865afa1580156134b7573d6000803e3d6000fd5b505050506040513d601f19601f820116820180604052508101906134db9190613c81565b63ffffffff86166000908152600b602090815260408083206001600160a01b0389168452909152902060048101549192509060ff1661357c57600481018054600160ff1990911681179091556012805491820181556000527fbb8a6a4669ba250d26cd7a459eca9d215f8307e33aebe50379bc5a3617ec344401805473ffffffffffffffffffffffffffffffffffffffff19166001600160a01b0387161790555b838160000160008282546135909190613bfd565b92505081905550818160020160008282546135ab9190613bfd565b909155505063ffffffff86166000908152600a6020526040812080548492906135d5908490613bfd565b9250508190555081600960008282546135ee9190613bfd565b90915550506040805163ffffffff881681526001600160a01b0387166020820152908101859052606081018390527fa2a62e1cc3e20f8692b7a85ee11f09e9c0f0c2cd028ba26400f65c7bd55361ee90608001611f47565b6000828152602081815260408083206001600160a01b038516845290915290205460ff16610b5157613677816136b9565b6136828360206136cb565b604051602001613693929190613e16565b60408051601f198184030181529082905262461bcd60e51b8252610adc91600401613a5e565b6060610a236001600160a01b03831660145b606060006136da836002613e97565b6136e5906002613bfd565b67ffffffffffffffff8111156136fd576136fd613ad7565b6040519080825280601f01601f191660200182016040528015613727576020820181803683370190505b509050600360fc1b8160008151811061374257613742613bd1565b60200101906001600160f81b031916908160001a905350600f60fb1b8160018151811061377157613771613bd1565b60200101906001600160f81b031916908160001a9053506000613795846002613e97565b6137a0906001613bfd565b90505b6001811115613825577f303132333435363738396162636465660000000000000000000000000000000085600f16601081106137e1576137e1613bd1565b1a60f81b8282815181106137f7576137f7613bd1565b60200101906001600160f81b031916908160001a90535060049490941c9361381e81613eae565b90506137a3565b5083156115da5760405162461bcd60e51b815260206004820181905260248201527f537472696e67733a20686578206c656e67746820696e73756666696369656e746044820152606401610adc565b60006020828403121561388657600080fd5b81356001600160e01b0319811681146115da57600080fd5b803563ffffffff811681146138b257600080fd5b919050565b80356001600160a01b03811681146138b257600080fd5b600080604083850312156138e157600080fd5b6138ea8361389e565b91506138f8602084016138b7565b90509250929050565b60006020828403121561391357600080fd5b6115da8261389e565b60006020828403121561392e57600080fd5b6115da826138b7565b60006020828403121561394957600080fd5b5035919050565b6000806040838503121561396357600080fd5b823591506138f8602084016138b7565b60008060008060006080868803121561398b57600080fd5b613994866138b7565b94506139a2602087016138b7565b935060408601359250606086013567ffffffffffffffff808211156139c657600080fd5b818801915088601f8301126139da57600080fd5b8135818111156139e957600080fd5b8960208285010111156139fb57600080fd5b9699959850939650602001949392505050565b60005b83811015613a29578181015183820152602001613a11565b50506000910152565b60008151808452613a4a816020860160208601613a0e565b601f01601f19169290920160200192915050565b6020815260006115da6020830184613a32565b600080600060608486031215613a8657600080fd5b613a8f8461389e565b9250613a9d602085016138b7565b9150604084013590509250925092565b60008060408385031215613ac057600080fd5b613ac98361389e565b946020939093013593505050565b634e487b7160e01b600052604160045260246000fd5b60008060408385031215613b0057600080fd5b613b098361389e565b9150602083013567ffffffffffffffff80821115613b2657600080fd5b818501915085601f830112613b3a57600080fd5b813581811115613b4c57613b4c613ad7565b604051601f8201601f19908116603f01168101908382118183101715613b7457613b74613ad7565b81604052828152886020848701011115613b8d57600080fd5b8260208601602083013760006020848301015280955050505050509250929050565b600060208284031215613bc157600080fd5b815180151581146115da57600080fd5b634e487b7160e01b600052603260045260246000fd5b634e487b7160e01b600052601160045260246000fd5b80820180821115610a2357610a23613be7565b63ffffffff818116838216019080821115613c2d57613c2d613be7565b5092915050565b600060018201613c4657613c46613be7565b5060010190565b600181811c90821680613c6157607f821691505b60208210810361109957634e487b7160e01b600052602260045260246000fd5b600060208284031215613c9357600080fd5b5051919050565b81810381811115610a2357610a23613be7565b60008351613cbf818460208801613a0e565b7fffff000000000000000000000000000000000000000000000000000000000000939093169190920190815260020192915050565b601f821115610e4357600081815260208120601f850160051c81016020861015613d1b5750805b601f850160051c820191505b818110156133e957828155600101613d27565b815167ffffffffffffffff811115613d5457613d54613ad7565b613d6881613d628454613c4d565b84613cf4565b602080601f831160018114613d9d5760008415613d855750858301515b600019600386901b1c1916600185901b1785556133e9565b600085815260208120601f198616915b82811015613dcc57888601518255948401946001909101908401613dad565b5085821015613dea5787850151600019600388901b60f8161c191681555b5050505050600190811b01905550565b60008251613e0c818460208701613a0e565b9190910192915050565b7f416363657373436f6e74726f6c3a206163636f756e7420000000000000000000815260008351613e4e816017850160208801613a0e565b7f206973206d697373696e6720726f6c65200000000000000000000000000000006017918401918201528351613e8b816028840160208801613a0e565b01602801949350505050565b8082028115828204841417610a2357610a23613be7565b600081613ebd57613ebd613be7565b50600019019056fea164736f6c6343000812000a",
  "linkReferences": {},
  "deployedLinkReferences": {}
}