{
  "_format": "hh-sol-artifact-1",
  "contractName": "Candidate",
  "sourceName": "contracts/Candidate.sol",
  "abi": [
    {
      "inputs": [],
      "stateMutability": "nonpayable",
      "type": "constructor"
    },
    {
      "anonymous": false,
      "inputs": [
        {
          "indexed": false,
          "internalType": "uint32",
          "name": "_index",
          "type": "uint32"
        },
        {
          "indexed": false,
          "internalType": "address",
          "name": "sender",
          "type": "address"
        },
        {
          "indexed": false,
          "internalType": "uint256",
          "name": "amount",
          "type": "uint256"
        },
        {
          "indexed": false,
          "internalType": "uint256",
          "name": "lton",
          "type": "uint256"
        }
      ],
      "name": "Restaked",
      "type": "event"
    },
    {
      "anonymous": false,
      "inputs": [
        {
          "indexed": true,
          "internalType": "bytes32",
          "name": "role",
          "type": "bytes32"
        },
        {
          "indexed": true,
          "internalType": "bytes32",
          "name": "previousAdminRole",
          "type": "bytes32"
        },
        {
          "indexed": true,
          "internalType": "bytes32",
          "name": "newAdminRole",
          "type": "bytes32"
        }
      ],
      "name": "RoleAdminChanged",
      "type": "event"
    },
    {
      "anonymous": false,
      "inputs": [
        {
          "indexed": true,
          "internalType": "bytes32",
          "name": "role",
          "type": "bytes32"
        },
        {
          "indexed": true,
          "internalType": "address",
          "name": "account",
          "type": "address"
        },
        {
          "indexed": true,
          "internalType": "address",
          "name": "sender",
          "type": "address"
        }
      ],
      "name": "RoleGranted",
      "type": "event"
    },
    {
      "anonymous": false,
      "inputs": [
        {
          "indexed": true,
          "internalType": "bytes32",
          "name": "role",
          "type": "bytes32"
        },
        {
          "indexed": true,
          "internalType": "address",
          "name": "account",
          "type": "address"
        },
        {
          "indexed": true,
          "internalType": "address",
          "name": "sender",
          "type": "address"
        }
      ],
      "name": "RoleRevoked",
      "type": "event"
    },
    {
      "anonymous": false,
      "inputs": [
        {
          "indexed": false,
          "internalType": "uint32",
          "name": "_index",
          "type": "uint32"
        },
        {
          "indexed": false,
          "internalType": "address",
          "name": "sender",
          "type": "address"
        },
        {
          "indexed": false,
          "internalType": "uint256",
          "name": "amount",
          "type": "uint256"
        },
        {
          "indexed": false,
          "internalType": "uint256",
          "name": "lton",
          "type": "uint256"
        }
      ],
      "name": "Staked",
      "type": "event"
    },
    {
      "anonymous": false,
      "inputs": [
        {
          "indexed": false,
          "internalType": "uint32",
          "name": "_index",
          "type": "uint32"
        },
        {
          "indexed": false,
          "internalType": "address",
          "name": "sender",
          "type": "address"
        },
        {
          "indexed": false,
          "internalType": "uint256",
          "name": "amount",
          "type": "uint256"
        },
        {
          "indexed": false,
          "internalType": "uint256",
          "name": "lton",
          "type": "uint256"
        }
      ],
      "name": "Unstaked",
      "type": "event"
    },
    {
      "anonymous": false,
      "inputs": [
        {
          "indexed": false,
          "internalType": "uint32",
          "name": "_index",
          "type": "uint32"
        },
        {
          "indexed": false,
          "internalType": "address",
          "name": "sender",
          "type": "address"
        },
        {
          "indexed": false,
          "internalType": "uint256",
          "name": "amount",
          "type": "uint256"
        }
      ],
      "name": "Withdrawal",
      "type": "event"
    },
    {
      "inputs": [],
      "name": "ADMIN_ROLE",
      "outputs": [
        {
          "internalType": "bytes32",
          "name": "",
          "type": "bytes32"
        }
      ],
      "stateMutability": "view",
      "type": "function"
    },
    {
      "inputs": [],
      "name": "DEFAULT_ADMIN_ROLE",
      "outputs": [
        {
          "internalType": "bytes32",
          "name": "",
          "type": "bytes32"
        }
      ],
      "stateMutability": "view",
      "type": "function"
    },
    {
      "inputs": [],
      "name": "POLICY_ROLE",
      "outputs": [
        {
          "internalType": "bytes32",
          "name": "",
          "type": "bytes32"
        }
      ],
      "stateMutability": "view",
      "type": "function"
    },
    {
      "inputs": [
        {
          "internalType": "address",
          "name": "account",
          "type": "address"
        }
      ],
      "name": "addAdmin",
      "outputs": [],
      "stateMutability": "nonpayable",
      "type": "function"
    },
    {
      "inputs": [
        {
          "internalType": "address",
          "name": "",
          "type": "address"
        }
      ],
      "name": "aliveImplementation",
      "outputs": [
        {
          "internalType": "bool",
          "name": "",
          "type": "bool"
        }
      ],
      "stateMutability": "view",
      "type": "function"
    },
    {
      "inputs": [
        {
          "internalType": "uint32",
          "name": "layerIndex",
          "type": "uint32"
        },
        {
          "internalType": "address",
          "name": "account",
          "type": "address"
        }
      ],
      "name": "amountOfPendings",
      "outputs": [
        {
          "internalType": "uint256",
          "name": "amount",
          "type": "uint256"
        },
        {
          "internalType": "uint32",
          "name": "startIndex",
          "type": "uint32"
        },
        {
          "internalType": "uint32",
          "name": "len",
          "type": "uint32"
        },
        {
          "internalType": "uint32",
          "name": "nextWithdrawableBlockNumber",
          "type": "uint32"
        }
      ],
      "stateMutability": "view",
      "type": "function"
    },
    {
      "inputs": [
        {
          "internalType": "uint32",
          "name": "_index",
          "type": "uint32"
        },
        {
          "internalType": "address",
          "name": "account",
          "type": "address"
        }
      ],
      "name": "availableWithdraw",
      "outputs": [
        {
          "internalType": "uint256",
          "name": "amount",
          "type": "uint256"
        },
        {
          "internalType": "uint32",
          "name": "startIndex",
          "type": "uint32"
        },
        {
          "internalType": "uint32",
          "name": "len",
          "type": "uint32"
        }
      ],
      "stateMutability": "view",
      "type": "function"
    },
    {
      "inputs": [
        {
          "internalType": "uint32",
          "name": "_index",
          "type": "uint32"
        },
        {
          "internalType": "address",
          "name": "account",
          "type": "address"
        }
      ],
      "name": "balanceOf",
      "outputs": [
        {
          "internalType": "uint256",
          "name": "amount",
          "type": "uint256"
        }
      ],
      "stateMutability": "view",
      "type": "function"
    },
    {
      "inputs": [
        {
          "internalType": "uint32",
          "name": "_index",
          "type": "uint32"
        },
        {
          "internalType": "address",
          "name": "account",
          "type": "address"
        }
      ],
      "name": "balanceOfLton",
      "outputs": [
        {
          "internalType": "uint256",
          "name": "amount",
          "type": "uint256"
        }
      ],
      "stateMutability": "view",
      "type": "function"
    },
    {
      "inputs": [
        {
          "internalType": "uint32",
          "name": "_index",
          "type": "uint32"
        }
      ],
      "name": "balanceOfLton",
      "outputs": [
        {
          "internalType": "uint256",
          "name": "amount",
          "type": "uint256"
        }
      ],
      "stateMutability": "view",
      "type": "function"
    },
    {
      "inputs": [
        {
          "internalType": "uint32",
          "name": "_candidateIndex",
          "type": "uint32"
        },
        {
          "internalType": "bytes",
          "name": "_info",
          "type": "bytes"
        }
      ],
      "name": "create",
      "outputs": [
        {
          "internalType": "bool",
          "name": "",
          "type": "bool"
        }
      ],
      "stateMutability": "nonpayable",
      "type": "function"
    },
    {
      "inputs": [
        {
          "internalType": "uint32",
          "name": "_index",
          "type": "uint32"
        }
      ],
      "name": "existedIndex",
      "outputs": [
        {
          "internalType": "bool",
          "name": "",
          "type": "bool"
        }
      ],
      "stateMutability": "view",
      "type": "function"
    },
    {
      "inputs": [
        {
          "internalType": "uint32",
          "name": "_index",
          "type": "uint32"
        }
      ],
      "name": "getCandidateInfo",
      "outputs": [
        {
          "components": [
            {
              "internalType": "address",
              "name": "operator",
              "type": "address"
            },
            {
              "internalType": "uint32",
              "name": "sequencerIndex",
              "type": "uint32"
            },
            {
              "internalType": "uint16",
              "name": "commission",
              "type": "uint16"
            }
          ],
          "internalType": "struct LibOperator.Info",
          "name": "_layerInfo",
          "type": "tuple"
        }
      ],
      "stateMutability": "view",
      "type": "function"
    },
    {
      "inputs": [
        {
          "internalType": "uint32",
          "name": "_index",
          "type": "uint32"
        }
      ],
      "name": "getCandidateKey",
      "outputs": [
        {
          "internalType": "bytes32",
          "name": "layerKey_",
          "type": "bytes32"
        }
      ],
      "stateMutability": "view",
      "type": "function"
    },
    {
      "inputs": [
        {
          "internalType": "uint32",
          "name": "_index",
          "type": "uint32"
        },
        {
          "internalType": "address",
          "name": "account",
          "type": "address"
        }
      ],
      "name": "getLayerStakes",
      "outputs": [
        {
          "components": [
            {
              "internalType": "uint256",
              "name": "stakePrincipal",
              "type": "uint256"
            },
            {
              "internalType": "uint256",
              "name": "bondPrincipal",
              "type": "uint256"
            },
            {
              "internalType": "uint256",
              "name": "stakelton",
              "type": "uint256"
            },
            {
              "internalType": "uint256",
              "name": "bondlton",
              "type": "uint256"
            },
            {
              "internalType": "bool",
              "name": "stake",
              "type": "bool"
            },
            {
              "internalType": "uint16",
              "name": "fwFee",
              "type": "uint16"
            }
          ],
          "internalType": "struct LibStake.StakeInfo",
          "name": "info",
          "type": "tuple"
        }
      ],
      "stateMutability": "view",
      "type": "function"
    },
    {
      "inputs": [
        {
          "internalType": "uint32",
          "name": "_index",
          "type": "uint32"
        },
        {
          "internalType": "address",
          "name": "account",
          "type": "address"
        }
      ],
      "name": "getPendingUnstakedAmount",
      "outputs": [
        {
          "internalType": "uint256",
          "name": "",
          "type": "uint256"
        }
      ],
      "stateMutability": "view",
      "type": "function"
    },
    {
      "inputs": [
        {
          "internalType": "bytes32",
          "name": "role",
          "type": "bytes32"
        }
      ],
      "name": "getRoleAdmin",
      "outputs": [
        {
          "internalType": "bytes32",
          "name": "",
          "type": "bytes32"
        }
      ],
      "stateMutability": "view",
      "type": "function"
    },
    {
      "inputs": [],
      "name": "getStakeAccountList",
      "outputs": [
        {
          "internalType": "address[]",
          "name": "",
          "type": "address[]"
        }
      ],
      "stateMutability": "view",
      "type": "function"
    },
    {
      "inputs": [],
      "name": "getTotalLton",
      "outputs": [
        {
          "internalType": "uint256",
          "name": "",
          "type": "uint256"
        }
      ],
      "stateMutability": "view",
      "type": "function"
    },
    {
      "inputs": [
        {
          "internalType": "bytes32",
          "name": "role",
          "type": "bytes32"
        },
        {
          "internalType": "address",
          "name": "account",
          "type": "address"
        }
      ],
      "name": "grantRole",
      "outputs": [],
      "stateMutability": "nonpayable",
      "type": "function"
    },
    {
      "inputs": [
        {
          "internalType": "bytes32",
          "name": "role",
          "type": "bytes32"
        },
        {
          "internalType": "address",
          "name": "account",
          "type": "address"
        }
      ],
      "name": "hasRole",
      "outputs": [
        {
          "internalType": "bool",
          "name": "",
          "type": "bool"
        }
      ],
      "stateMutability": "view",
      "type": "function"
    },
    {
      "inputs": [
        {
          "internalType": "address",
          "name": "account",
          "type": "address"
        }
      ],
      "name": "isAdmin",
      "outputs": [
        {
          "internalType": "bool",
          "name": "",
          "type": "bool"
        }
      ],
      "stateMutability": "view",
      "type": "function"
    },
    {
      "inputs": [
        {
          "internalType": "uint32",
          "name": "_index",
          "type": "uint32"
        }
      ],
      "name": "layer2Deposits",
      "outputs": [
        {
          "internalType": "uint256",
          "name": "amount",
          "type": "uint256"
        }
      ],
      "stateMutability": "view",
      "type": "function"
    },
    {
      "inputs": [],
      "name": "layer2Manager",
      "outputs": [
        {
          "internalType": "address",
          "name": "",
          "type": "address"
        }
      ],
      "stateMutability": "view",
      "type": "function"
    },
    {
      "inputs": [
        {
          "internalType": "uint32",
          "name": "",
          "type": "uint32"
        }
      ],
      "name": "layerInfo",
      "outputs": [
        {
          "internalType": "bytes",
          "name": "",
          "type": "bytes"
        }
      ],
      "stateMutability": "view",
      "type": "function"
    },
    {
      "inputs": [
        {
          "internalType": "uint32",
          "name": "",
          "type": "uint32"
        }
      ],
      "name": "layerStakedLton",
      "outputs": [
        {
          "internalType": "uint256",
          "name": "",
          "type": "uint256"
        }
      ],
      "stateMutability": "view",
      "type": "function"
    },
    {
      "inputs": [
        {
          "internalType": "uint32",
          "name": "",
          "type": "uint32"
        },
        {
          "internalType": "address",
          "name": "",
          "type": "address"
        }
      ],
      "name": "layerStakes",
      "outputs": [
        {
          "internalType": "uint256",
          "name": "stakePrincipal",
          "type": "uint256"
        },
        {
          "internalType": "uint256",
          "name": "bondPrincipal",
          "type": "uint256"
        },
        {
          "internalType": "uint256",
          "name": "stakelton",
          "type": "uint256"
        },
        {
          "internalType": "uint256",
          "name": "bondlton",
          "type": "uint256"
        },
        {
          "internalType": "bool",
          "name": "stake",
          "type": "bool"
        },
        {
          "internalType": "uint16",
          "name": "fwFee",
          "type": "uint16"
        }
      ],
      "stateMutability": "view",
      "type": "function"
    },
    {
      "inputs": [
        {
          "internalType": "uint32",
          "name": "layerIndex",
          "type": "uint32"
        },
        {
          "internalType": "address",
          "name": "account",
          "type": "address"
        }
      ],
      "name": "numberOfPendings",
      "outputs": [
        {
          "internalType": "uint256",
          "name": "totalRequests",
          "type": "uint256"
        },
        {
          "internalType": "uint256",
          "name": "withdrawIndex",
          "type": "uint256"
        },
        {
          "internalType": "uint256",
          "name": "pendingLength",
          "type": "uint256"
        }
      ],
      "stateMutability": "view",
      "type": "function"
    },
    {
      "inputs": [
        {
          "internalType": "address",
          "name": "sender",
          "type": "address"
        },
        {
          "internalType": "address",
          "name": "spender",
          "type": "address"
        },
        {
          "internalType": "uint256",
          "name": "amount",
          "type": "uint256"
        },
        {
          "internalType": "bytes",
          "name": "data",
          "type": "bytes"
        }
      ],
      "name": "onApprove",
      "outputs": [
        {
          "internalType": "bool",
          "name": "",
          "type": "bool"
        }
      ],
      "stateMutability": "nonpayable",
      "type": "function"
    },
    {
      "inputs": [
        {
          "internalType": "uint32",
          "name": "_index",
          "type": "uint32"
        }
      ],
      "name": "operator",
      "outputs": [
        {
          "internalType": "address",
          "name": "operator_",
          "type": "address"
        }
      ],
      "stateMutability": "view",
      "type": "function"
    },
    {
      "inputs": [],
      "name": "pauseProxy",
      "outputs": [
        {
          "internalType": "bool",
          "name": "",
          "type": "bool"
        }
      ],
      "stateMutability": "view",
      "type": "function"
    },
    {
      "inputs": [
        {
          "internalType": "uint32",
          "name": "",
          "type": "uint32"
        },
        {
          "internalType": "address",
          "name": "",
          "type": "address"
        }
      ],
      "name": "pendingUnstaked",
      "outputs": [
        {
          "internalType": "uint256",
          "name": "",
          "type": "uint256"
        }
      ],
      "stateMutability": "view",
      "type": "function"
    },
    {
      "inputs": [
        {
          "internalType": "address",
          "name": "",
          "type": "address"
        }
      ],
      "name": "pendingUnstakedAccount",
      "outputs": [
        {
          "internalType": "uint256",
          "name": "",
          "type": "uint256"
        }
      ],
      "stateMutability": "view",
      "type": "function"
    },
    {
      "inputs": [
        {
          "internalType": "uint32",
          "name": "",
          "type": "uint32"
        }
      ],
      "name": "pendingUnstakedLayer2",
      "outputs": [
        {
          "internalType": "uint256",
          "name": "",
          "type": "uint256"
        }
      ],
      "stateMutability": "view",
      "type": "function"
    },
    {
      "inputs": [
        {
          "internalType": "uint256",
          "name": "",
          "type": "uint256"
        }
      ],
      "name": "proxyImplementation",
      "outputs": [
        {
          "internalType": "address",
          "name": "",
          "type": "address"
        }
      ],
      "stateMutability": "view",
      "type": "function"
    },
    {
      "inputs": [
        {
          "internalType": "address",
          "name": "account",
          "type": "address"
        }
      ],
      "name": "removeAdmin",
      "outputs": [],
      "stateMutability": "nonpayable",
      "type": "function"
    },
    {
      "inputs": [
        {
          "internalType": "bytes32",
          "name": "role",
          "type": "bytes32"
        },
        {
          "internalType": "address",
          "name": "account",
          "type": "address"
        }
      ],
      "name": "renounceRole",
      "outputs": [],
      "stateMutability": "nonpayable",
      "type": "function"
    },
    {
      "inputs": [
        {
          "internalType": "uint32",
          "name": "_index",
          "type": "uint32"
        }
      ],
      "name": "restake",
      "outputs": [],
      "stateMutability": "nonpayable",
      "type": "function"
    },
    {
      "inputs": [
        {
          "internalType": "uint32",
          "name": "_index",
          "type": "uint32"
        },
        {
          "internalType": "uint256",
          "name": "n",
          "type": "uint256"
        }
      ],
      "name": "restakeMulti",
      "outputs": [],
      "stateMutability": "nonpayable",
      "type": "function"
    },
    {
      "inputs": [
        {
          "internalType": "bytes32",
          "name": "role",
          "type": "bytes32"
        },
        {
          "internalType": "address",
          "name": "account",
          "type": "address"
        }
      ],
      "name": "revokeRole",
      "outputs": [],
      "stateMutability": "nonpayable",
      "type": "function"
    },
    {
      "inputs": [],
      "name": "seigManagerV2",
      "outputs": [
        {
          "internalType": "address",
          "name": "",
          "type": "address"
        }
      ],
      "stateMutability": "view",
      "type": "function"
    },
    {
      "inputs": [
        {
          "internalType": "bytes4",
          "name": "",
          "type": "bytes4"
        }
      ],
      "name": "selectorImplementation",
      "outputs": [
        {
          "internalType": "address",
          "name": "",
          "type": "address"
        }
      ],
      "stateMutability": "view",
      "type": "function"
    },
    {
      "inputs": [
        {
          "internalType": "uint32",
          "name": "_index",
          "type": "uint32"
        },
        {
          "internalType": "uint256",
          "name": "amount",
          "type": "uint256"
        }
      ],
      "name": "stake",
      "outputs": [],
      "stateMutability": "nonpayable",
      "type": "function"
    },
    {
      "inputs": [
        {
          "internalType": "uint256",
          "name": "",
          "type": "uint256"
        }
      ],
      "name": "stakeAccountList",
      "outputs": [
        {
          "internalType": "address",
          "name": "",
          "type": "address"
        }
      ],
      "stateMutability": "view",
      "type": "function"
    },
    {
      "inputs": [
        {
          "internalType": "bytes4",
          "name": "interfaceId",
          "type": "bytes4"
        }
      ],
      "name": "supportsInterface",
      "outputs": [
        {
          "internalType": "bool",
          "name": "",
          "type": "bool"
        }
      ],
      "stateMutability": "view",
      "type": "function"
    },
    {
      "inputs": [],
      "name": "ton",
      "outputs": [
        {
          "internalType": "address",
          "name": "",
          "type": "address"
        }
      ],
      "stateMutability": "view",
      "type": "function"
    },
    {
      "inputs": [],
      "name": "totalLayer2Deposits",
      "outputs": [
        {
          "internalType": "uint256",
          "name": "amount",
          "type": "uint256"
        }
      ],
      "stateMutability": "view",
      "type": "function"
    },
    {
      "inputs": [],
      "name": "totalStakeAccountList",
      "outputs": [
        {
          "internalType": "uint256",
          "name": "",
          "type": "uint256"
        }
      ],
      "stateMutability": "view",
      "type": "function"
    },
    {
      "inputs": [],
      "name": "totalStakedLton",
      "outputs": [
        {
          "internalType": "uint256",
          "name": "",
          "type": "uint256"
        }
      ],
      "stateMutability": "view",
      "type": "function"
    },
    {
      "inputs": [
        {
          "internalType": "address",
          "name": "newAdmin",
          "type": "address"
        }
      ],
      "name": "transferAdmin",
      "outputs": [],
      "stateMutability": "nonpayable",
      "type": "function"
    },
    {
      "inputs": [
        {
          "internalType": "uint32",
          "name": "_index",
          "type": "uint32"
        },
        {
          "internalType": "uint256",
          "name": "lton_",
          "type": "uint256"
        }
      ],
      "name": "unstake",
      "outputs": [],
      "stateMutability": "nonpayable",
      "type": "function"
    },
    {
      "inputs": [
        {
          "internalType": "uint32",
          "name": "_index",
          "type": "uint32"
        }
      ],
      "name": "withdraw",
      "outputs": [],
      "stateMutability": "nonpayable",
      "type": "function"
    },
    {
      "inputs": [
        {
          "internalType": "uint32",
          "name": "",
          "type": "uint32"
        },
        {
          "internalType": "address",
          "name": "",
          "type": "address"
        }
      ],
      "name": "withdrawalRequestIndex",
      "outputs": [
        {
          "internalType": "uint256",
          "name": "",
          "type": "uint256"
        }
      ],
      "stateMutability": "view",
      "type": "function"
    },
    {
      "inputs": [
        {
          "internalType": "uint32",
          "name": "",
          "type": "uint32"
        },
        {
          "internalType": "address",
          "name": "",
          "type": "address"
        },
        {
          "internalType": "uint256",
          "name": "",
          "type": "uint256"
        }
      ],
      "name": "withdrawalRequests",
      "outputs": [
        {
          "internalType": "uint32",
          "name": "withdrawableBlockNumber",
          "type": "uint32"
        },
        {
          "internalType": "uint128",
          "name": "amount",
          "type": "uint128"
        },
        {
          "internalType": "bool",
          "name": "processed",
          "type": "bool"
        }
      ],
      "stateMutability": "view",
      "type": "function"
    }
  ],
  "bytecode": "0x60806040526006805460ff1916600117905534801561001d57600080fd5b50613e578061002d6000396000f3fe608060405234801561001057600080fd5b50600436106103625760003560e01c806375829def116101c85780639c2f614f11610104578063b911135f116100a2578063cc48b9471161007c578063cc48b947146109ec578063d547741f14610a04578063df2b429014610a17578063ec110d4514610a2a57600080fd5b8063b911135f1461099b578063b969fbef146109c4578063b9cab971146109cc57600080fd5b8063a217fddf116100de578063a217fddf1461094a578063aa9224cd14610952578063b413b37a14610965578063b6a2f99d1461096d57600080fd5b80639c2f614f1461088e5780639c656e26146108a1578063a0b2a9131461092a57600080fd5b806387dd8bd0116101715780638d99e1ca1161014b5780638d99e1ca146107f35780638ddd87fe1461080657806391d148541461084457806394c89b2c1461087b57600080fd5b806387dd8bd0146107855780638afec9fc146107985780638c71762d146107be57600080fd5b80637cf1587c116101a25780637cf1587c146107345780637d211a1c1461075f5780637ec6840f1461077257600080fd5b806375829def146106e757806375b238fc146106fa578063763936c71461072157600080fd5b80634de131ca116102a257806363a8fd8911610240578063704802751161021a578063704802751461068e57806370619cf9146106a157806373469a7a146106c1578063744a3561146106d457600080fd5b806363a8fd8914610622578063659ab8201461062f5780636d1ef1031461064f57600080fd5b806350d2a2761161027c57806350d2a27614610598578063550d01a3146105c15780635e2cfe45146105e45780635f1b989e1461060f57600080fd5b80634de131ca146105325780634e1a264d146105475780634f818d0c1461055057600080fd5b8063229852461161030f5780632f2ff15d116102e95780632f2ff15d146104f157806336568abe146105045780634273ca161461051757806346bcdb491461052a57600080fd5b80632298524614610486578063248a9ca3146104bb57806324d7806c146104de57600080fd5b80631785f53c116103405780631785f53c146103cf5780631ed94495146103e25780631f760d011461044757600080fd5b806301ffc9a714610367578063118e29d11461038f57806316b5d5bd146103a4575b600080fd5b61037a6103753660046137ac565b610a3d565b60405190151581526020015b60405180910390f35b6103a261039d3660046137ef565b610a74565b005b6008546103b7906001600160a01b031681565b6040516001600160a01b039091168152602001610386565b6103a26103dd366004613821565b610ae9565b6103f56103f036600461383c565b610b76565b6040516103869190600060c0820190508251825260208301516020830152604083015160408301526060830151606083015260808301511515608083015261ffff60a08401511660a083015292915050565b61045a61045536600461383c565b610c34565b6040805194855263ffffffff938416602086015291831691840191909152166060820152608001610386565b6104ad7ffb5864e8ff833c3cb2d2d08505e82ff02a43554c74a35d4f5a64e8526127831181565b604051908152602001610386565b6104ad6104c936600461386f565b60009081526020819052604090206001015490565b61037a6104ec366004613821565b610d72565b6103a26104ff366004613888565b610db2565b6103a2610512366004613888565b610ddc565b61037a6105253660046138ab565b610e64565b6012546104ad565b61053a610f19565b6040516103869190613946565b6104ad60095481565b61056361055e3660046137ef565b610f7b565b6040805182516001600160a01b0316815260208084015163ffffffff16908201529181015161ffff1690820152606001610386565b6103b76105a63660046137ac565b6004602052600090815260409020546001600160a01b031681565b61037a6105cf366004613821565b60036020526000908152604090205460ff1681565b6104ad6105f236600461383c565b600e60209081526000928352604080842090915290825290205481565b6104ad61061d36600461383c565b611095565b60015461037a9060ff1681565b61064261063d3660046137ef565b611111565b60405161038691906139e3565b61066261065d3660046139f6565b6111ab565b6040805163ffffffff90941684526001600160801b039092166020840152151590820152606001610386565b6103a261069c366004613821565b61120a565b6104ad6106af3660046137ef565b600a6020526000908152604090205481565b6007546103b7906001600160a01b031681565b6103a26106e2366004613a32565b611294565b6103a26106f5366004613821565b6112ff565b6104ad7fdf8b4c520ffe197c5343c6f5aec59570151ef9a492f2c624fd45ddde6135ec4281565b6103b761072f3660046137ef565b611461565b6104ad61074236600461383c565b600d60209081526000928352604080842090915290825290205481565b61037a61076d3660046137ef565b611520565b6103a2610780366004613a32565b6115e7565b6104ad6107933660046137ef565b611646565b6104ad6107a63660046137ef565b63ffffffff166000908152600a602052604090205490565b6107d16107cc36600461383c565b6116f9565b6040805193845263ffffffff9283166020850152911690820152606001610386565b6104ad6108013660046137ef565b611836565b6104ad61081436600461383c565b63ffffffff82166000908152600e602090815260408083206001600160a01b038516845290915290205492915050565b61037a610852366004613888565b6000918252602082815260408084206001600160a01b0393909316845291905290205460ff1690565b6104ad61088936600461383c565b6118a9565b6103a261089c366004613a32565b611926565b6108f76108af36600461383c565b600b602090815260009283526040808420909152908252902080546001820154600283015460038401546004909401549293919290919060ff811690610100900461ffff1686565b6040805196875260208701959095529385019290925260608401521515608083015261ffff1660a082015260c001610386565b6104ad610938366004613821565b60106020526000908152604090205481565b6104ad600081565b6103a26109603660046137ef565b611a8a565b6009546104ad565b61098061097b36600461383c565b611ea0565b60408051938452602084019290925290820152606001610386565b6103b76109a936600461386f565b6002602052600090815260409020546001600160a01b031681565b6104ad611efb565b6104ad6109da3660046137ef565b600f6020526000908152604090205481565b6006546103b79061010090046001600160a01b031681565b6103a2610a12366004613888565b611f6e565b61037a610a25366004613a72565b611f93565b6103b7610a3836600461386f565b61214f565b60006001600160e01b03198216637965db0b60e01b1480610a6e57506301ffc9a760e01b6001600160e01b03198316145b92915050565b63ffffffff81166000908152600d602090815260408083203380855292529091205490610aa5908390836001612179565b610ae55760405162461bcd60e51b815260206004820152600c60248201526b534c5f455f52455354414b4560a01b60448201526064015b60405180910390fd5b5050565b610af233610d72565b610b495760405162461bcd60e51b815260206004820152602260248201527f41636365737369626c653a2043616c6c6572206973206e6f7420616e2061646d60448201526134b760f11b6064820152608401610adc565b610b737fdf8b4c520ffe197c5343c6f5aec59570151ef9a492f2c624fd45ddde6135ec4282610ddc565b50565b610bb56040518060c0016040528060008152602001600081526020016000815260200160008152602001600015158152602001600061ffff1681525090565b5063ffffffff9091166000908152600b602090815260408083206001600160a01b03909416835292815290829020825160c081018452815481526001820154928101929092526002810154928201929092526003820154606082015260049091015460ff81161515608083015261ffff6101009091041660a082015290565b63ffffffff8083166000818152600c602090815260408083206001600160a01b03871680855290835281842054948452600d835281842090845290915281205490929091839182919084165b81811015610d675763ffffffff88166000908152600c602090815260408083206001600160a01b038b1684529091528120805483908110610cc357610cc3613b34565b6000918252602080832060408051606081018252939091015463ffffffff8116845264010000000081046001600160801b031692840192909252600160a01b90910460ff1615159082018190529092509003610d54578363ffffffff16600003610d2c57805193505b6020810151610d44906001600160801b031688613b60565b9650610d51600186613b73565b94505b5080610d5f81613b97565b915050610c80565b505092959194509250565b6001600160a01b03811660009081527f5cbfc8ee58ca47855df7bcf648dd304ddb6b932f9b87878bdf6318d7ec7ee5b7602052604081205460ff16610a6e565b600082815260208190526040902060010154610dcd81612626565b610dd78383612630565b505050565b6001600160a01b0381163314610e5a5760405162461bcd60e51b815260206004820152602f60248201527f416363657373436f6e74726f6c3a2063616e206f6e6c792072656e6f756e636560448201527f20726f6c657320666f722073656c6600000000000000000000000000000000006064820152608401610adc565b610ae582826126ce565b6000610eb6610ead600085858080601f016020809104026020016040519081016040528093929190818152602001838380828437600092019190915250929392505061274d9050565b61ffff16611520565b610f025760405162461bcd60e51b815260206004820152601860248201527f6e6f6e2d726567697374657265642063616e64696461746500000000000000006044820152606401610adc565b610f0f8686868686612801565b9695505050505050565b60606012805480602002602001604051908101604052809291908181526020018280548015610f7157602002820191906000526020600020905b81546001600160a01b03168152600190910190602001808311610f53575b5050505050905090565b604080516060810182526000808252602082018190529181019190915263ffffffff821660009081526011602052604081208054610fb890613bb0565b80601f0160208091040260200160405190810160405280929190818152602001828054610fe490613bb0565b80156110315780601f1061100657610100808354040283529160200191611031565b820191906000526020600020905b81548152906001019060200180831161101457829003601f168201915b5050505050905060198151111561108f576040805160608101909152806110598360006128cc565b6001600160a01b0316815260200161107283601461274d565b61ffff16815260200161108683601861299c565b61ffff16905291505b50919050565b63ffffffff9091166000908152600b602090815260408083206001600160a01b03909416835292815290829020825160c081018452815481526001820154928101929092526002810154928201839052600381015460608301526004015460ff81161515608083015261ffff6101009091041660a09091015290565b6011602052600090815260409020805461112a90613bb0565b80601f016020809104026020016040519081016040528092919081815260200182805461115690613bb0565b80156111a35780601f10611178576101008083540402835291602001916111a3565b820191906000526020600020905b81548152906001019060200180831161118657829003601f168201915b505050505081565b600c60205282600052604060002060205281600052604060002081815481106111d357600080fd5b60009182526020909120015463ffffffff8116935064010000000081046001600160801b03169250600160a01b900460ff16905083565b61121333610d72565b61126a5760405162461bcd60e51b815260206004820152602260248201527f41636365737369626c653a2043616c6c6572206973206e6f7420616e2061646d60448201526134b760f11b6064820152608401610adc565b610b737fdf8b4c520ffe197c5343c6f5aec59570151ef9a492f2c624fd45ddde6135ec4282610db2565b63ffffffff82166000908152600d6020908152604080832033808552925290912054906112c49084908385612179565b610dd75760405162461bcd60e51b815260206004820152600c60248201526b534c5f455f52455354414b4560a01b6044820152606401610adc565b61130833610d72565b61135f5760405162461bcd60e51b815260206004820152602260248201527f41636365737369626c653a2043616c6c6572206973206e6f7420616e2061646d60448201526134b760f11b6064820152608401610adc565b6001600160a01b0381166113b55760405162461bcd60e51b815260206004820152601860248201527f41636365737369626c653a207a65726f206164647265737300000000000000006044820152606401610adc565b6001600160a01b038116330361140d5760405162461bcd60e51b815260206004820152601660248201527f41636365737369626c653a2073616d652061646d696e000000000000000000006044820152606401610adc565b6114377fdf8b4c520ffe197c5343c6f5aec59570151ef9a492f2c624fd45ddde6135ec4282610db2565b610b737fdf8b4c520ffe197c5343c6f5aec59570151ef9a492f2c624fd45ddde6135ec4233610ddc565b63ffffffff81166000908152601160205260408120805482919061148490613bb0565b80601f01602080910402602001604051908101604052809291908181526020018280546114b090613bb0565b80156114fd5780601f106114d2576101008083540402835291602001916114fd565b820191906000526020600020905b8154815290600101906020018083116114e057829003601f168201915b5050505050905060178151111561108f576115198160006128cc565b9392505050565b600854604051635d170f8f60e01b815263ffffffff831660048201526000916001600160a01b031690635d170f8f90602401602060405180830381865afa15801561156f573d6000803e3d6000fd5b505050506040513d601f19601f820116820180604052508101906115939190613be4565b6115df5760405162461bcd60e51b815260206004820152601460248201527f6e6f6e2d72656769737465726564206c617965720000000000000000000000006044820152606401610adc565b506001919050565b6115f082611520565b61163c5760405162461bcd60e51b815260206004820152601860248201527f6e6f6e2d726567697374657265642063616e64696461746500000000000000006044820152606401610adc565b610ae58282612a50565b63ffffffff81166000908152601160205260408120805482919061166990613bb0565b80601f016020809104026020016040519081016040528092919081815260200182805461169590613bb0565b80156116e25780601f106116b7576101008083540402835291602001916116e2565b820191906000526020600020905b8154815290600101906020018083116116c557829003601f168201915b505050505090508080519060200120915050919050565b63ffffffff8083166000818152600c602090815260408083206001600160a01b03871680855290835281842054948452600d835281842090845290915281205490929091839183165b8181101561182d5763ffffffff87166000908152600c602090815260408083206001600160a01b038a168452909152812080548390811061178557611785613b34565b600091825260209182902060408051606081018252929091015463ffffffff811680845264010000000082046001600160801b031694840194909452600160a01b900460ff161515908201529150431180156117e357506040810151155b15611814576020810151611800906001600160801b031687613b60565b955061180d600185613b73565b935061181a565b5061182d565b508061182581613b97565b915050611742565b50509250925092565b6008546040516346ccf0e560e11b815263ffffffff831660048201526000916001600160a01b031690638d99e1ca90602401602060405180830381865afa158015611885573d6000803e3d6000fd5b505050506040513d601f19601f82011682018060405250810190610a6e9190613c06565b6007546000906001600160a01b031663cdf680096118c78585611095565b6040518263ffffffff1660e01b81526004016118e591815260200190565b602060405180830381865afa158015611902573d6000803e3d6000fd5b505050506040513d601f19601f820116820180604052508101906115199190613c06565b61192f82611461565b6001600160a01b03163303611a80576007546008546040805163a4dd8b7d60e01b815290516000936001600160a01b0390811693636a2fb1f59391169163a4dd8b7d916004808201926020929091908290030181865afa158015611997573d6000803e3d6000fd5b505050506040513d601f19601f820116820180604052508101906119bb9190613c06565b6040518263ffffffff1660e01b81526004016119d991815260200190565b602060405180830381865afa1580156119f6573d6000803e3d6000fd5b505050506040513d601f19601f82011682018060405250810190611a1a9190613c06565b9050611a268333611095565b611a308284613b60565b1115611a7e5760405162461bcd60e51b815260206004820152601d60248201527f6d696e696d756d4465706f736974466f7243616e6469646174652045310000006044820152606401610adc565b505b610ae58282612ab6565b60065460ff16611ac55760405162461bcd60e51b8152600401610adc906020808252600490820152636c6f636b60e01b604082015260600190565b6006805460ff1916905563ffffffff81166000818152600c602090815260408083203380855290835281842054948452600d83528184208185529092528220549092919081905b83811015611bde5763ffffffff86166000908152600c602090815260408083206001600160a01b03891684529091528120805483908110611b4f57611b4f613b34565b600091825260209091200180549091504363ffffffff909116108015611b7e57508054600160a01b900460ff16155b15611bc557805460ff60a01b1916600160a01b17808255611bb1906001600160801b036401000000009091041684613b60565b925083611bbd81613b97565b945050611bcb565b50611bde565b5080611bd681613b97565b915050611b0c565b5060008111611c2f5760405162461bcd60e51b815260206004820181905260248201527f7a65726f20617661696c61626c65207769746864726177616c20616d6f756e746044820152606401610adc565b63ffffffff85166000908152600d602090815260408083206001600160a01b038816845290915281208054849290611c68908490613b60565b909155505063ffffffff85166000908152600e602090815260408083206001600160a01b038816845290915281208054839290611ca6908490613c1f565b909155505063ffffffff85166000908152600f602052604081208054839290611cd0908490613c1f565b90915550506001600160a01b03841660009081526010602052604081208054839290611cfd908490613c1f565b90915550506006546040516370a0823160e01b815230600482015260009161010090046001600160a01b0316906370a0823190602401602060405180830381865afa158015611d50573d6000803e3d6000fd5b505050506040513d601f19601f82011682018060405250810190611d749190613c06565b905081811015611e1f578015611da057600654611da09061010090046001600160a01b03168683612ec7565b6007546001600160a01b031663aad3ec9686611dbc8486613c1f565b6040516001600160e01b031960e085901b1681526001600160a01b0390921660048301526024820152604401600060405180830381600087803b158015611e0257600080fd5b505af1158015611e16573d6000803e3d6000fd5b50505050611e3b565b600654611e3b9061010090046001600160a01b03168684612ec7565b6040805163ffffffff881681526001600160a01b03871660208201529081018390527f2d6eb139d2002caa088da5527d9d62f2f23bdf4504f5559a112535c436c6ee59906060015b60405180910390a150506006805460ff1916600117905550505050565b63ffffffff82166000818152600c602090815260408083206001600160a01b03861680855290835281842054948452600d835281842090845290915281205490818310611ef457611ef18284613c1f565b90505b9250925092565b6008546040805163b969fbef60e01b815290516000926001600160a01b03169163b969fbef9160048083019260209291908290030181865afa158015611f45573d6000803e3d6000fd5b505050506040513d601f19601f82011682018060405250810190611f699190613c06565b905090565b600082815260208190526040902060010154611f8981612626565b610dd783836126ce565b6008546000906001600160a01b03163314611ff05760405162461bcd60e51b815260206004820152601160248201527f6e6f74204c61796572324d616e616765720000000000000000000000000000006044820152606401610adc565b63ffffffff83166000908152601160205260409020805461201090613bb0565b15905061205f5760405162461bcd60e51b815260206004820152600f60248201527f616c7265616479206372656174656400000000000000000000000000000000006044820152606401610adc565b60378251116120b05760405162461bcd60e51b815260206004820152600b60248201527f77726f6e67205f696e666f0000000000000000000000000000000000000000006044820152606401610adc565b60006120bd836018612fe2565b90506120cc83600060186130a2565b6040516120df9190600090602001613c32565b60408051601f1981840301815291815263ffffffff861660009081526011602052209061210c9082613cbf565b50600854600654612130916001600160a01b03610100909204821691163084613205565b6121458461213f8560006128cc565b83613329565b5060019392505050565b6012818154811061215f57600080fd5b6000918252602090912001546001600160a01b0316905081565b60065460009060ff166121b75760405162461bcd60e51b8152600401610adc906020808252600490820152636c6f636b60e01b604082015260600190565b6006805460ff1916905563ffffffff85166000908152600c602090815260408083206001600160a01b0388168452909152812054806122255760405162461bcd60e51b815260206004820152600a6024820152696e6f20756e7374616b6560b01b6044820152606401610adc565b836122308683613c1f565b101561227e5760405162461bcd60e51b815260206004820152601860248201527f6e2065786365656473206e756d206f662070656e64696e6700000000000000006044820152606401610adc565b600061228a8587613b60565b90505b808610156123805763ffffffff88166000908152600c602090815260408083206001600160a01b038b16845290915281208054889081106122d0576122d0613b34565b6000918252602090912001805490915064010000000081046001600160801b031690600160a01b900460ff16156123495760405162461bcd60e51b815260206004820152601260248201527f616c7265616479207769746864726177616c00000000000000000000000000006044820152606401610adc565b801561235c576123598186613b60565b94505b50805460ff60a01b1916600160a01b1790558561237881613b97565b96505061228d565b600083116123d05760405162461bcd60e51b815260206004820152601760248201527f6e6f2076616c69642072657374616b6520616d6f756e740000000000000000006044820152606401610adc565b600754604051636a2fb1f560e01b8152600481018590526000916001600160a01b031690636a2fb1f590602401602060405180830381865afa15801561241a573d6000803e3d6000fd5b505050506040513d601f19601f8201168201806040525081019061243e9190613c06565b63ffffffff8a166000908152600b602090815260408083206001600160a01b038d16845290915281208054929350918691839161247c908490613b60565b92505081905550818160020160008282546124979190613b60565b909155505063ffffffff8a166000908152600a6020526040812080548492906124c1908490613b60565b9250508190555081600960008282546124da9190613b60565b909155505063ffffffff8a166000908152600e602090815260408083206001600160a01b038d16845290915281208054879290612518908490613c1f565b909155505063ffffffff8a166000908152600f602052604081208054879290612542908490613c1f565b90915550506001600160a01b0389166000908152601060205260408120805487929061256f908490613c1f565b909155505063ffffffff8a166000908152600d602090815260408083206001600160a01b038d168452909152812080548992906125ad908490613b60565b90915550506040805163ffffffff8c1681526001600160a01b038b166020820152908101869052606081018390527f34981dc0486069d2abbaddbc42e10b97cb24e4bce60ee4457e1d5062dfc0b4299060800160405180910390a16001955050505050506006805460ff19166001179055949350505050565b610b73813361357e565b6000828152602081815260408083206001600160a01b038516845290915290205460ff16610ae5576000828152602081815260408083206001600160a01b03851684529091529020805460ff1916600117905561268a3390565b6001600160a01b0316816001600160a01b0316837f2f8788117e7eff1d82e926ec794901d17c78024a50270940304540a733656f0d60405160405180910390a45050565b6000828152602081815260408083206001600160a01b038516845290915290205460ff1615610ae5576000828152602081815260408083206001600160a01b0385168085529252808320805460ff1916905551339285917ff6391f5c32d9c69d2a47ea670b442974b53935d1edc7fd64eb21e047a839171b9190a45050565b60008161275b816004613b60565b101561279d5760405162461bcd60e51b8152602060048201526011602482015270746f55696e7431365f6f766572666c6f7760781b6044820152606401610adc565b6127a8826004613b60565b835110156127f85760405162461bcd60e51b815260206004820152601460248201527f746f55696e7431365f6f75744f66426f756e64730000000000000000000000006044820152606401610adc565b50016004015190565b60065460009061010090046001600160a01b031633146128485760405162461bcd60e51b8152602060048201526002602482015261454160f01b6044820152606401610adc565b600061288e600085858080601f016020809104026020016040519081016040528093929190818152602001838380828437600092019190915250929392505061274d9050565b60065461ffff9190911691506128b49061010090046001600160a01b0316883088613205565b6128bf818887613329565b5060019695505050505050565b6000816128da816014613b60565b10156129285760405162461bcd60e51b815260206004820152601260248201527f746f416464726573735f6f766572666c6f7700000000000000000000000000006044820152606401610adc565b612933826014613b60565b835110156129835760405162461bcd60e51b815260206004820152601560248201527f746f416464726573735f6f75744f66426f756e647300000000000000000000006044820152606401610adc565b5001602001516c01000000000000000000000000900490565b6000816129aa816002613b60565b10156129ec5760405162461bcd60e51b8152602060048201526011602482015270746f55696e7431365f6f766572666c6f7760781b6044820152606401610adc565b6129f7826002613b60565b83511015612a475760405162461bcd60e51b815260206004820152601460248201527f746f55696e7431365f6f75744f66426f756e64730000000000000000000000006044820152606401610adc565b50016002015190565b8080600003612a865760405162461bcd60e51b81526020600482015260026024820152615a3160f01b6044820152606401610adc565b6006543390612aa59061010090046001600160a01b0316823086613205565b612ab0848285613329565b50505050565b60065460ff16612af15760405162461bcd60e51b8152600401610adc906020808252600490820152636c6f636b60e01b604082015260600190565b6006805460ff19169055806000819003612b325760405162461bcd60e51b81526020600482015260026024820152615a3160f01b6044820152606401610adc565b60075460405163cdf6800960e01b81526004810184905233916000916001600160a01b039091169063cdf6800990602401602060405180830381865afa158015612b80573d6000803e3d6000fd5b505050506040513d601f19601f82011682018060405250810190612ba49190613c06565b63ffffffff86166000908152600b602090815260408083206001600160a01b03871684529091529020600281015491925090851115612c0e5760405162461bcd60e51b8152600401610adc90602080825260049082015263534c5f3160e01b604082015260600190565b84816002016000828254612c229190613c1f565b90915550508054821115612c395760008155612c53565b81816000016000828254612c4d9190613c1f565b90915550505b63ffffffff86166000908152600a602052604081208054879290612c78908490613c1f565b925050819055508460096000828254612c919190613c1f565b909155505060085460408051636577b27360e11b815290516000926001600160a01b03169163caef64e69160048083019260209291908290030181865afa158015612ce0573d6000803e3d6000fd5b505050506040513d601f19601f82011682018060405250810190612d049190613c06565b63ffffffff88166000908152600c602090815260408083206001600160a01b03891684529091529081902081516060810190925291925080612d468443613b60565b63ffffffff90811682526001600160801b0380881660208085019190915260006040948501819052865460018101885596815281812086519701805487840151978701511515600160a01b0260ff60a01b19989095166401000000000273ffffffffffffffffffffffffffffffffffffffff19909116988616989098179790971795909516919091179094558a168252600e83528082206001600160a01b03881683529092529081208054859290612dff908490613b60565b909155505063ffffffff87166000908152600f602052604081208054859290612e29908490613b60565b90915550506001600160a01b03841660009081526010602052604081208054859290612e56908490613b60565b90915550506040805163ffffffff891681526001600160a01b0386166020820152908101849052606081018790527f869a01319d83bb921803a22e3e95d0cb8b08e708d3fb144e2c25a563bf8650d39060800160405180910390a150506006805460ff191660011790555050505050565b604080516001600160a01b038481166024830152604480830185905283518084039091018152606490920183526020820180516001600160e01b031663a9059cbb60e01b1790529151600092839290871691612f239190613d7f565b6000604051808303816000865af19150503d8060008114612f60576040519150601f19603f3d011682016040523d82523d6000602084013e612f65565b606091505b5091509150818015612f8f575080511580612f8f575080806020019051810190612f8f9190613be4565b612fdb5760405162461bcd60e51b815260206004820152600f60248201527f5452414e534645525f4641494c454400000000000000000000000000000000006044820152606401610adc565b5050505050565b600081612ff0816020613b60565b101561303e5760405162461bcd60e51b815260206004820152601260248201527f746f55696e743235365f6f766572666c6f7700000000000000000000000000006044820152606401610adc565b613049826020613b60565b835110156130995760405162461bcd60e51b815260206004820152601560248201527f746f55696e743235365f6f75744f66426f756e647300000000000000000000006044820152606401610adc565b50016020015190565b6060816130b081601f613b60565b10156130ef5760405162461bcd60e51b815260206004820152600e60248201526d736c6963655f6f766572666c6f7760901b6044820152606401610adc565b826130fa8382613b60565b10156131395760405162461bcd60e51b815260206004820152600e60248201526d736c6963655f6f766572666c6f7760901b6044820152606401610adc565b6131438284613b60565b845110156131935760405162461bcd60e51b815260206004820152601160248201527f736c6963655f6f75744f66426f756e64730000000000000000000000000000006044820152606401610adc565b6060821580156131b257604051915060008252602082016040526131fc565b6040519150601f8416801560200281840101858101878315602002848b0101015b818310156131eb5780518352602092830192016131d3565b5050858452601f01601f1916604052505b50949350505050565b604080516001600160a01b0385811660248301528481166044830152606480830185905283518084039091018152608490920183526020820180516001600160e01b03166323b872dd60e01b17905291516000928392908816916132699190613d7f565b6000604051808303816000865af19150503d80600081146132a6576040519150601f19603f3d011682016040523d82523d6000602084013e6132ab565b606091505b50915091508180156132d55750805115806132d55750808060200190518101906132d59190613be4565b6133215760405162461bcd60e51b815260206004820152601460248201527f5452414e534645525f46524f4d5f4641494c45440000000000000000000000006044820152606401610adc565b505050505050565b60065460ff166133645760405162461bcd60e51b8152600401610adc906020808252600490820152636c6f636b60e01b604082015260600190565b6006805460ff191690558060008190036133a55760405162461bcd60e51b81526020600482015260026024820152615a3160f01b6044820152606401610adc565b600754604051636a2fb1f560e01b8152600481018490526000916001600160a01b031690636a2fb1f590602401602060405180830381865afa1580156133ef573d6000803e3d6000fd5b505050506040513d601f19601f820116820180604052508101906134139190613c06565b63ffffffff86166000908152600b602090815260408083206001600160a01b0389168452909152902060048101549192509060ff166134b457600481018054600160ff1990911681179091556012805491820181556000527fbb8a6a4669ba250d26cd7a459eca9d215f8307e33aebe50379bc5a3617ec344401805473ffffffffffffffffffffffffffffffffffffffff19166001600160a01b0387161790555b838160000160008282546134c89190613b60565b92505081905550818160020160008282546134e39190613b60565b909155505063ffffffff86166000908152600a60205260408120805484929061350d908490613b60565b9250508190555081600960008282546135269190613b60565b90915550506040805163ffffffff881681526001600160a01b0387166020820152908101859052606081018390527fa2a62e1cc3e20f8692b7a85ee11f09e9c0f0c2cd028ba26400f65c7bd55361ee90608001611e83565b6000828152602081815260408083206001600160a01b038516845290915290205460ff16610ae5576135af816135f1565b6135ba836020613603565b6040516020016135cb929190613d9b565b60408051601f198184030181529082905262461bcd60e51b8252610adc916004016139e3565b6060610a6e6001600160a01b03831660145b60606000613612836002613e1c565b61361d906002613b60565b67ffffffffffffffff81111561363557613635613a5c565b6040519080825280601f01601f19166020018201604052801561365f576020820181803683370190505b509050600360fc1b8160008151811061367a5761367a613b34565b60200101906001600160f81b031916908160001a905350600f60fb1b816001815181106136a9576136a9613b34565b60200101906001600160f81b031916908160001a90535060006136cd846002613e1c565b6136d8906001613b60565b90505b600181111561375d577f303132333435363738396162636465660000000000000000000000000000000085600f166010811061371957613719613b34565b1a60f81b82828151811061372f5761372f613b34565b60200101906001600160f81b031916908160001a90535060049490941c9361375681613e33565b90506136db565b5083156115195760405162461bcd60e51b815260206004820181905260248201527f537472696e67733a20686578206c656e67746820696e73756666696369656e746044820152606401610adc565b6000602082840312156137be57600080fd5b81356001600160e01b03198116811461151957600080fd5b803563ffffffff811681146137ea57600080fd5b919050565b60006020828403121561380157600080fd5b611519826137d6565b80356001600160a01b03811681146137ea57600080fd5b60006020828403121561383357600080fd5b6115198261380a565b6000806040838503121561384f57600080fd5b613858836137d6565b91506138666020840161380a565b90509250929050565b60006020828403121561388157600080fd5b5035919050565b6000806040838503121561389b57600080fd5b823591506138666020840161380a565b6000806000806000608086880312156138c357600080fd5b6138cc8661380a565b94506138da6020870161380a565b935060408601359250606086013567ffffffffffffffff808211156138fe57600080fd5b818801915088601f83011261391257600080fd5b81358181111561392157600080fd5b89602082850101111561393357600080fd5b9699959850939650602001949392505050565b6020808252825182820181905260009190848201906040850190845b818110156139875783516001600160a01b031683529284019291840191600101613962565b50909695505050505050565b60005b838110156139ae578181015183820152602001613996565b50506000910152565b600081518084526139cf816020860160208601613993565b601f01601f19169290920160200192915050565b60208152600061151960208301846139b7565b600080600060608486031215613a0b57600080fd5b613a14846137d6565b9250613a226020850161380a565b9150604084013590509250925092565b60008060408385031215613a4557600080fd5b613a4e836137d6565b946020939093013593505050565b634e487b7160e01b600052604160045260246000fd5b60008060408385031215613a8557600080fd5b613a8e836137d6565b9150602083013567ffffffffffffffff80821115613aab57600080fd5b818501915085601f830112613abf57600080fd5b813581811115613ad157613ad1613a5c565b604051601f8201601f19908116603f01168101908382118183101715613af957613af9613a5c565b81604052828152886020848701011115613b1257600080fd5b8260208601602083013760006020848301015280955050505050509250929050565b634e487b7160e01b600052603260045260246000fd5b634e487b7160e01b600052601160045260246000fd5b80820180821115610a6e57610a6e613b4a565b63ffffffff818116838216019080821115613b9057613b90613b4a565b5092915050565b600060018201613ba957613ba9613b4a565b5060010190565b600181811c90821680613bc457607f821691505b60208210810361108f57634e487b7160e01b600052602260045260246000fd5b600060208284031215613bf657600080fd5b8151801515811461151957600080fd5b600060208284031215613c1857600080fd5b5051919050565b81810381811115610a6e57610a6e613b4a565b60008351613c44818460208801613993565b7fffff000000000000000000000000000000000000000000000000000000000000939093169190920190815260020192915050565b601f821115610dd757600081815260208120601f850160051c81016020861015613ca05750805b601f850160051c820191505b8181101561332157828155600101613cac565b815167ffffffffffffffff811115613cd957613cd9613a5c565b613ced81613ce78454613bb0565b84613c79565b602080601f831160018114613d225760008415613d0a5750858301515b600019600386901b1c1916600185901b178555613321565b600085815260208120601f198616915b82811015613d5157888601518255948401946001909101908401613d32565b5085821015613d6f5787850151600019600388901b60f8161c191681555b5050505050600190811b01905550565b60008251613d91818460208701613993565b9190910192915050565b7f416363657373436f6e74726f6c3a206163636f756e7420000000000000000000815260008351613dd3816017850160208801613993565b7f206973206d697373696e6720726f6c65200000000000000000000000000000006017918401918201528351613e10816028840160208801613993565b01602801949350505050565b8082028115828204841417610a6e57610a6e613b4a565b600081613e4257613e42613b4a565b50600019019056fea164736f6c6343000812000a",
  "linkReferences": {},
  "deployedLinkReferences": {}
}