{
  "_format": "hh-sol-artifact-1",
  "contractName": "Candidate",
  "sourceName": "contracts/Candidate.sol",
  "abi": [
    {
      "inputs": [],
      "stateMutability": "nonpayable",
      "type": "constructor"
    },
    {
      "anonymous": false,
      "inputs": [
        {
          "indexed": false,
          "internalType": "bytes32",
          "name": "hashMessage",
          "type": "bytes32"
        },
        {
          "indexed": false,
          "internalType": "uint32",
          "name": "layerIndex",
          "type": "uint32"
        },
        {
          "indexed": false,
          "internalType": "address",
          "name": "from",
          "type": "address"
        },
        {
          "indexed": false,
          "internalType": "address",
          "name": "to",
          "type": "address"
        },
        {
          "indexed": false,
          "internalType": "uint256",
          "name": "amount",
          "type": "uint256"
        }
      ],
      "name": "FastWithdrawalClaim",
      "type": "event"
    },
    {
      "anonymous": false,
      "inputs": [
        {
          "indexed": false,
          "internalType": "bytes32",
          "name": "hashMessage",
          "type": "bytes32"
        },
        {
          "indexed": false,
          "internalType": "uint32",
          "name": "layerIndex",
          "type": "uint32"
        },
        {
          "indexed": false,
          "internalType": "address",
          "name": "staker",
          "type": "address"
        },
        {
          "indexed": false,
          "internalType": "uint256",
          "name": "amount",
          "type": "uint256"
        },
        {
          "indexed": false,
          "internalType": "uint256",
          "name": "lwton",
          "type": "uint256"
        }
      ],
      "name": "FastWithdrawalStaked",
      "type": "event"
    },
    {
      "anonymous": false,
      "inputs": [
        {
          "indexed": false,
          "internalType": "uint32",
          "name": "_index",
          "type": "uint32"
        },
        {
          "indexed": false,
          "internalType": "address",
          "name": "sender",
          "type": "address"
        },
        {
          "indexed": false,
          "internalType": "uint256",
          "name": "amount",
          "type": "uint256"
        },
        {
          "indexed": false,
          "internalType": "uint256",
          "name": "lwton",
          "type": "uint256"
        }
      ],
      "name": "Restaked",
      "type": "event"
    },
    {
      "anonymous": false,
      "inputs": [
        {
          "indexed": true,
          "internalType": "bytes32",
          "name": "role",
          "type": "bytes32"
        },
        {
          "indexed": true,
          "internalType": "bytes32",
          "name": "previousAdminRole",
          "type": "bytes32"
        },
        {
          "indexed": true,
          "internalType": "bytes32",
          "name": "newAdminRole",
          "type": "bytes32"
        }
      ],
      "name": "RoleAdminChanged",
      "type": "event"
    },
    {
      "anonymous": false,
      "inputs": [
        {
          "indexed": true,
          "internalType": "bytes32",
          "name": "role",
          "type": "bytes32"
        },
        {
          "indexed": true,
          "internalType": "address",
          "name": "account",
          "type": "address"
        },
        {
          "indexed": true,
          "internalType": "address",
          "name": "sender",
          "type": "address"
        }
      ],
      "name": "RoleGranted",
      "type": "event"
    },
    {
      "anonymous": false,
      "inputs": [
        {
          "indexed": true,
          "internalType": "bytes32",
          "name": "role",
          "type": "bytes32"
        },
        {
          "indexed": true,
          "internalType": "address",
          "name": "account",
          "type": "address"
        },
        {
          "indexed": true,
          "internalType": "address",
          "name": "sender",
          "type": "address"
        }
      ],
      "name": "RoleRevoked",
      "type": "event"
    },
    {
      "anonymous": false,
      "inputs": [
        {
          "indexed": false,
          "internalType": "uint32",
          "name": "_index",
          "type": "uint32"
        },
        {
          "indexed": false,
          "internalType": "address",
          "name": "sender",
          "type": "address"
        },
        {
          "indexed": false,
          "internalType": "uint256",
          "name": "amount",
          "type": "uint256"
        },
        {
          "indexed": false,
          "internalType": "uint256",
          "name": "lwton",
          "type": "uint256"
        },
        {
          "indexed": false,
          "internalType": "address",
          "name": "commissionTo",
          "type": "address"
        },
        {
          "indexed": false,
          "internalType": "uint16",
          "name": "commission",
          "type": "uint16"
        }
      ],
      "name": "Staked",
      "type": "event"
    },
    {
      "anonymous": false,
      "inputs": [
        {
          "indexed": false,
          "internalType": "uint32",
          "name": "_index",
          "type": "uint32"
        },
        {
          "indexed": false,
          "internalType": "address",
          "name": "sender",
          "type": "address"
        },
        {
          "indexed": false,
          "internalType": "uint256",
          "name": "amount",
          "type": "uint256"
        },
        {
          "indexed": false,
          "internalType": "uint256",
          "name": "lwton",
          "type": "uint256"
        }
      ],
      "name": "Unstaked",
      "type": "event"
    },
    {
      "anonymous": false,
      "inputs": [
        {
          "indexed": false,
          "internalType": "uint32",
          "name": "_index",
          "type": "uint32"
        },
        {
          "indexed": false,
          "internalType": "address",
          "name": "sender",
          "type": "address"
        },
        {
          "indexed": false,
          "internalType": "uint256",
          "name": "amount",
          "type": "uint256"
        }
      ],
      "name": "Withdrawal",
      "type": "event"
    },
    {
      "inputs": [],
      "name": "ADMIN_ROLE",
      "outputs": [
        {
          "internalType": "bytes32",
          "name": "",
          "type": "bytes32"
        }
      ],
      "stateMutability": "view",
      "type": "function"
    },
    {
      "inputs": [],
      "name": "DEFAULT_ADMIN_ROLE",
      "outputs": [
        {
          "internalType": "bytes32",
          "name": "",
          "type": "bytes32"
        }
      ],
      "stateMutability": "view",
      "type": "function"
    },
    {
      "inputs": [],
      "name": "POLICY_ROLE",
      "outputs": [
        {
          "internalType": "bytes32",
          "name": "",
          "type": "bytes32"
        }
      ],
      "stateMutability": "view",
      "type": "function"
    },
    {
      "inputs": [
        {
          "internalType": "address",
          "name": "account",
          "type": "address"
        }
      ],
      "name": "addAdmin",
      "outputs": [],
      "stateMutability": "nonpayable",
      "type": "function"
    },
    {
      "inputs": [
        {
          "internalType": "address",
          "name": "",
          "type": "address"
        }
      ],
      "name": "aliveImplementation",
      "outputs": [
        {
          "internalType": "bool",
          "name": "",
          "type": "bool"
        }
      ],
      "stateMutability": "view",
      "type": "function"
    },
    {
      "inputs": [
        {
          "internalType": "uint32",
          "name": "layerIndex",
          "type": "uint32"
        },
        {
          "internalType": "address",
          "name": "account",
          "type": "address"
        }
      ],
      "name": "amountOfPendings",
      "outputs": [
        {
          "internalType": "uint256",
          "name": "amount",
          "type": "uint256"
        },
        {
          "internalType": "uint32",
          "name": "startIndex",
          "type": "uint32"
        },
        {
          "internalType": "uint32",
          "name": "len",
          "type": "uint32"
        },
        {
          "internalType": "uint32",
          "name": "nextWithdrawableBlockNumber",
          "type": "uint32"
        }
      ],
      "stateMutability": "view",
      "type": "function"
    },
    {
      "inputs": [
        {
          "internalType": "uint32",
          "name": "_index",
          "type": "uint32"
        },
        {
          "internalType": "address",
          "name": "account",
          "type": "address"
        }
      ],
      "name": "availableWithdraw",
      "outputs": [
        {
          "internalType": "uint256",
          "name": "amount",
          "type": "uint256"
        },
        {
          "internalType": "uint32",
          "name": "startIndex",
          "type": "uint32"
        },
        {
          "internalType": "uint32",
          "name": "len",
          "type": "uint32"
        }
      ],
      "stateMutability": "view",
      "type": "function"
    },
    {
      "inputs": [
        {
          "internalType": "uint32",
          "name": "_index",
          "type": "uint32"
        },
        {
          "internalType": "address",
          "name": "account",
          "type": "address"
        }
      ],
      "name": "balanceOf",
      "outputs": [
        {
          "internalType": "uint256",
          "name": "amount",
          "type": "uint256"
        }
      ],
      "stateMutability": "view",
      "type": "function"
    },
    {
      "inputs": [
        {
          "internalType": "uint32",
          "name": "_index",
          "type": "uint32"
        },
        {
          "internalType": "address",
          "name": "account",
          "type": "address"
        },
        {
          "internalType": "uint256",
          "name": "snapshotId",
          "type": "uint256"
        }
      ],
      "name": "balanceOfAt",
      "outputs": [
        {
          "internalType": "uint256",
          "name": "amount",
          "type": "uint256"
        }
      ],
      "stateMutability": "view",
      "type": "function"
    },
    {
      "inputs": [
        {
          "internalType": "uint32",
          "name": "_index",
          "type": "uint32"
        }
      ],
      "name": "balanceOfLwton",
      "outputs": [
        {
          "internalType": "uint256",
          "name": "amount",
          "type": "uint256"
        }
      ],
      "stateMutability": "view",
      "type": "function"
    },
    {
      "inputs": [
        {
          "internalType": "uint32",
          "name": "_index",
          "type": "uint32"
        },
        {
          "internalType": "address",
          "name": "account",
          "type": "address"
        }
      ],
      "name": "balanceOfLwton",
      "outputs": [
        {
          "internalType": "uint256",
          "name": "amount",
          "type": "uint256"
        }
      ],
      "stateMutability": "view",
      "type": "function"
    },
    {
      "inputs": [
        {
          "internalType": "uint32",
          "name": "_index",
          "type": "uint32"
        },
        {
          "internalType": "address",
          "name": "account",
          "type": "address"
        },
        {
          "internalType": "uint256",
          "name": "snapshotId",
          "type": "uint256"
        }
      ],
      "name": "balanceOfLwtonAt",
      "outputs": [
        {
          "internalType": "uint256",
          "name": "amount",
          "type": "uint256"
        }
      ],
      "stateMutability": "view",
      "type": "function"
    },
    {
      "inputs": [
        {
          "internalType": "uint32",
          "name": "_index",
          "type": "uint32"
        },
        {
          "internalType": "uint256",
          "name": "snapshotId",
          "type": "uint256"
        }
      ],
      "name": "balanceOfLwtonAt",
      "outputs": [
        {
          "internalType": "uint256",
          "name": "amount",
          "type": "uint256"
        }
      ],
      "stateMutability": "view",
      "type": "function"
    },
    {
      "inputs": [
        {
          "internalType": "uint32",
          "name": "_index",
          "type": "uint32"
        },
        {
          "internalType": "uint256",
          "name": "snapshotId",
          "type": "uint256"
        }
      ],
      "name": "balanceOfLwtonAtSnapshot",
      "outputs": [
        {
          "internalType": "bool",
          "name": "snapshotted",
          "type": "bool"
        },
        {
          "internalType": "uint256",
          "name": "amount",
          "type": "uint256"
        }
      ],
      "stateMutability": "view",
      "type": "function"
    },
    {
      "inputs": [
        {
          "internalType": "uint32",
          "name": "_index",
          "type": "uint32"
        },
        {
          "internalType": "address",
          "name": "account",
          "type": "address"
        },
        {
          "internalType": "uint256",
          "name": "snapshotId",
          "type": "uint256"
        }
      ],
      "name": "balanceOfLwtonAtSnapshot",
      "outputs": [
        {
          "internalType": "bool",
          "name": "snapshotted",
          "type": "bool"
        },
        {
          "internalType": "uint256",
          "name": "amount",
          "type": "uint256"
        }
      ],
      "stateMutability": "view",
      "type": "function"
    },
    {
      "inputs": [
        {
          "internalType": "uint32",
          "name": "_candidateIndex",
          "type": "uint32"
        },
        {
          "internalType": "bytes",
          "name": "_info",
          "type": "bytes"
        }
      ],
      "name": "create",
      "outputs": [
        {
          "internalType": "bool",
          "name": "",
          "type": "bool"
        }
      ],
      "stateMutability": "nonpayable",
      "type": "function"
    },
    {
      "inputs": [
        {
          "internalType": "uint32",
          "name": "_index",
          "type": "uint32"
        }
      ],
      "name": "existedIndex",
      "outputs": [
        {
          "internalType": "bool",
          "name": "",
          "type": "bool"
        }
      ],
      "stateMutability": "view",
      "type": "function"
    },
    {
      "inputs": [
        {
          "internalType": "bytes32",
          "name": "hashMessage",
          "type": "bytes32"
        },
        {
          "internalType": "uint32",
          "name": "layerIndex",
          "type": "uint32"
        },
        {
          "internalType": "address",
          "name": "from",
          "type": "address"
        },
        {
          "internalType": "address",
          "name": "to",
          "type": "address"
        },
        {
          "internalType": "uint256",
          "name": "amount",
          "type": "uint256"
        }
      ],
      "name": "fastWithdrawClaim",
      "outputs": [
        {
          "internalType": "bool",
          "name": "",
          "type": "bool"
        }
      ],
      "stateMutability": "nonpayable",
      "type": "function"
    },
    {
      "inputs": [
        {
          "internalType": "bytes32",
          "name": "hashMessage",
          "type": "bytes32"
        },
        {
          "internalType": "uint32",
          "name": "layerIndex",
          "type": "uint32"
        },
        {
          "internalType": "address",
          "name": "staker",
          "type": "address"
        },
        {
          "internalType": "uint256",
          "name": "_amount",
          "type": "uint256"
        }
      ],
      "name": "fastWithdrawStake",
      "outputs": [
        {
          "internalType": "bool",
          "name": "",
          "type": "bool"
        }
      ],
      "stateMutability": "nonpayable",
      "type": "function"
    },
    {
      "inputs": [],
      "name": "fwReceipt",
      "outputs": [
        {
          "internalType": "address",
          "name": "",
          "type": "address"
        }
      ],
      "stateMutability": "view",
      "type": "function"
    },
    {
      "inputs": [
        {
          "internalType": "uint32",
          "name": "_index",
          "type": "uint32"
        }
      ],
      "name": "getCandidateInfo",
      "outputs": [
        {
          "components": [
            {
              "internalType": "address",
              "name": "operator",
              "type": "address"
            },
            {
              "internalType": "uint32",
              "name": "sequencerIndex",
              "type": "uint32"
            },
            {
              "internalType": "uint16",
              "name": "commission",
              "type": "uint16"
            }
          ],
          "internalType": "struct LibOperator.Info",
          "name": "info",
          "type": "tuple"
        }
      ],
      "stateMutability": "view",
      "type": "function"
    },
    {
      "inputs": [
        {
          "internalType": "uint32",
          "name": "_index",
          "type": "uint32"
        }
      ],
      "name": "getCandidateKey",
      "outputs": [
        {
          "internalType": "bytes32",
          "name": "layerKey_",
          "type": "bytes32"
        }
      ],
      "stateMutability": "view",
      "type": "function"
    },
    {
      "inputs": [],
      "name": "getCurrentSnapshotId",
      "outputs": [
        {
          "internalType": "uint256",
          "name": "",
          "type": "uint256"
        }
      ],
      "stateMutability": "view",
      "type": "function"
    },
    {
      "inputs": [
        {
          "internalType": "uint32",
          "name": "_index",
          "type": "uint32"
        },
        {
          "internalType": "address",
          "name": "account",
          "type": "address"
        }
      ],
      "name": "getLayerStakes",
      "outputs": [
        {
          "components": [
            {
              "internalType": "uint256",
              "name": "stakePrincipal",
              "type": "uint256"
            },
            {
              "internalType": "uint256",
              "name": "stakelwton",
              "type": "uint256"
            },
            {
              "internalType": "bool",
              "name": "stake",
              "type": "bool"
            }
          ],
          "internalType": "struct LibStake.StakeInfo",
          "name": "info",
          "type": "tuple"
        }
      ],
      "stateMutability": "view",
      "type": "function"
    },
    {
      "inputs": [
        {
          "internalType": "uint32",
          "name": "_index",
          "type": "uint32"
        },
        {
          "internalType": "address",
          "name": "account",
          "type": "address"
        }
      ],
      "name": "getPendingUnstakedAmount",
      "outputs": [
        {
          "internalType": "uint256",
          "name": "",
          "type": "uint256"
        }
      ],
      "stateMutability": "view",
      "type": "function"
    },
    {
      "inputs": [
        {
          "internalType": "bytes32",
          "name": "role",
          "type": "bytes32"
        }
      ],
      "name": "getRoleAdmin",
      "outputs": [
        {
          "internalType": "bytes32",
          "name": "",
          "type": "bytes32"
        }
      ],
      "stateMutability": "view",
      "type": "function"
    },
    {
      "inputs": [],
      "name": "getStakeAccountList",
      "outputs": [
        {
          "internalType": "address[]",
          "name": "",
          "type": "address[]"
        }
      ],
      "stateMutability": "view",
      "type": "function"
    },
    {
      "inputs": [],
      "name": "getTotalLwton",
      "outputs": [
        {
          "internalType": "uint256",
          "name": "",
          "type": "uint256"
        }
      ],
      "stateMutability": "view",
      "type": "function"
    },
    {
      "inputs": [
        {
          "internalType": "bytes32",
          "name": "role",
          "type": "bytes32"
        },
        {
          "internalType": "address",
          "name": "account",
          "type": "address"
        }
      ],
      "name": "grantRole",
      "outputs": [],
      "stateMutability": "nonpayable",
      "type": "function"
    },
    {
      "inputs": [
        {
          "internalType": "bytes32",
          "name": "role",
          "type": "bytes32"
        },
        {
          "internalType": "address",
          "name": "account",
          "type": "address"
        }
      ],
      "name": "hasRole",
      "outputs": [
        {
          "internalType": "bool",
          "name": "",
          "type": "bool"
        }
      ],
      "stateMutability": "view",
      "type": "function"
    },
    {
      "inputs": [
        {
          "internalType": "address",
          "name": "account",
          "type": "address"
        }
      ],
      "name": "isAdmin",
      "outputs": [
        {
          "internalType": "bool",
          "name": "",
          "type": "bool"
        }
      ],
      "stateMutability": "view",
      "type": "function"
    },
    {
      "inputs": [
        {
          "internalType": "uint32",
          "name": "_index",
          "type": "uint32"
        }
      ],
      "name": "layer2Deposits",
      "outputs": [
        {
          "internalType": "uint256",
          "name": "amount",
          "type": "uint256"
        }
      ],
      "stateMutability": "view",
      "type": "function"
    },
    {
      "inputs": [],
      "name": "layer2Manager",
      "outputs": [
        {
          "internalType": "address",
          "name": "",
          "type": "address"
        }
      ],
      "stateMutability": "view",
      "type": "function"
    },
    {
      "inputs": [
        {
          "internalType": "uint32",
          "name": "",
          "type": "uint32"
        }
      ],
      "name": "layerInfo",
      "outputs": [
        {
          "internalType": "bytes",
          "name": "",
          "type": "bytes"
        }
      ],
      "stateMutability": "view",
      "type": "function"
    },
    {
      "inputs": [
        {
          "internalType": "uint32",
          "name": "",
          "type": "uint32"
        }
      ],
      "name": "layerStakedLwton",
      "outputs": [
        {
          "internalType": "uint256",
          "name": "",
          "type": "uint256"
        }
      ],
      "stateMutability": "view",
      "type": "function"
    },
    {
      "inputs": [
        {
          "internalType": "uint32",
          "name": "",
          "type": "uint32"
        },
        {
          "internalType": "address",
          "name": "",
          "type": "address"
        }
      ],
      "name": "layerStakes",
      "outputs": [
        {
          "internalType": "uint256",
          "name": "stakePrincipal",
          "type": "uint256"
        },
        {
          "internalType": "uint256",
          "name": "stakelwton",
          "type": "uint256"
        },
        {
          "internalType": "bool",
          "name": "stake",
          "type": "bool"
        }
      ],
      "stateMutability": "view",
      "type": "function"
    },
    {
      "inputs": [
        {
          "internalType": "uint32",
          "name": "layerIndex",
          "type": "uint32"
        },
        {
          "internalType": "address",
          "name": "account",
          "type": "address"
        }
      ],
      "name": "numberOfPendings",
      "outputs": [
        {
          "internalType": "uint256",
          "name": "totalRequests",
          "type": "uint256"
        },
        {
          "internalType": "uint256",
          "name": "withdrawIndex",
          "type": "uint256"
        },
        {
          "internalType": "uint256",
          "name": "pendingLength",
          "type": "uint256"
        }
      ],
      "stateMutability": "view",
      "type": "function"
    },
    {
      "inputs": [
        {
          "internalType": "address",
          "name": "sender",
          "type": "address"
        },
        {
          "internalType": "address",
          "name": "spender",
          "type": "address"
        },
        {
          "internalType": "uint256",
          "name": "amount",
          "type": "uint256"
        },
        {
          "internalType": "bytes",
          "name": "data",
          "type": "bytes"
        }
      ],
      "name": "onApprove",
      "outputs": [
        {
          "internalType": "bool",
          "name": "",
          "type": "bool"
        }
      ],
      "stateMutability": "nonpayable",
      "type": "function"
    },
    {
      "inputs": [
        {
          "internalType": "uint32",
          "name": "_index",
          "type": "uint32"
        }
      ],
      "name": "operator",
      "outputs": [
        {
          "internalType": "address",
          "name": "operator_",
          "type": "address"
        }
      ],
      "stateMutability": "view",
      "type": "function"
    },
    {
      "inputs": [
        {
          "internalType": "uint32",
          "name": "",
          "type": "uint32"
        },
        {
          "internalType": "address",
          "name": "",
          "type": "address"
        }
      ],
      "name": "operators",
      "outputs": [
        {
          "internalType": "uint32",
          "name": "",
          "type": "uint32"
        }
      ],
      "stateMutability": "view",
      "type": "function"
    },
    {
      "inputs": [],
      "name": "pauseProxy",
      "outputs": [
        {
          "internalType": "bool",
          "name": "",
          "type": "bool"
        }
      ],
      "stateMutability": "view",
      "type": "function"
    },
    {
      "inputs": [
        {
          "internalType": "uint32",
          "name": "",
          "type": "uint32"
        },
        {
          "internalType": "address",
          "name": "",
          "type": "address"
        }
      ],
      "name": "pendingUnstaked",
      "outputs": [
        {
          "internalType": "uint256",
          "name": "",
          "type": "uint256"
        }
      ],
      "stateMutability": "view",
      "type": "function"
    },
    {
      "inputs": [
        {
          "internalType": "address",
          "name": "",
          "type": "address"
        }
      ],
      "name": "pendingUnstakedAccount",
      "outputs": [
        {
          "internalType": "uint256",
          "name": "",
          "type": "uint256"
        }
      ],
      "stateMutability": "view",
      "type": "function"
    },
    {
      "inputs": [
        {
          "internalType": "uint32",
          "name": "",
          "type": "uint32"
        }
      ],
      "name": "pendingUnstakedLayer2",
      "outputs": [
        {
          "internalType": "uint256",
          "name": "",
          "type": "uint256"
        }
      ],
      "stateMutability": "view",
      "type": "function"
    },
    {
      "inputs": [
        {
          "internalType": "uint256",
          "name": "",
          "type": "uint256"
        }
      ],
      "name": "proxyImplementation",
      "outputs": [
        {
          "internalType": "address",
          "name": "",
          "type": "address"
        }
      ],
      "stateMutability": "view",
      "type": "function"
    },
    {
      "inputs": [
        {
          "internalType": "address",
          "name": "account",
          "type": "address"
        }
      ],
      "name": "removeAdmin",
      "outputs": [],
      "stateMutability": "nonpayable",
      "type": "function"
    },
    {
      "inputs": [
        {
          "internalType": "bytes32",
          "name": "role",
          "type": "bytes32"
        },
        {
          "internalType": "address",
          "name": "account",
          "type": "address"
        }
      ],
      "name": "renounceRole",
      "outputs": [],
      "stateMutability": "nonpayable",
      "type": "function"
    },
    {
      "inputs": [
        {
          "internalType": "uint32",
          "name": "_index",
          "type": "uint32"
        }
      ],
      "name": "restake",
      "outputs": [],
      "stateMutability": "nonpayable",
      "type": "function"
    },
    {
      "inputs": [
        {
          "internalType": "uint32",
          "name": "_index",
          "type": "uint32"
        },
        {
          "internalType": "uint256",
          "name": "n",
          "type": "uint256"
        }
      ],
      "name": "restakeMulti",
      "outputs": [],
      "stateMutability": "nonpayable",
      "type": "function"
    },
    {
      "inputs": [
        {
          "internalType": "bytes32",
          "name": "role",
          "type": "bytes32"
        },
        {
          "internalType": "address",
          "name": "account",
          "type": "address"
        }
      ],
      "name": "revokeRole",
      "outputs": [],
      "stateMutability": "nonpayable",
      "type": "function"
    },
    {
      "inputs": [],
      "name": "seigManagerV2",
      "outputs": [
        {
          "internalType": "address",
          "name": "",
          "type": "address"
        }
      ],
      "stateMutability": "view",
      "type": "function"
    },
    {
      "inputs": [
        {
          "internalType": "bytes4",
          "name": "",
          "type": "bytes4"
        }
      ],
      "name": "selectorImplementation",
      "outputs": [
        {
          "internalType": "address",
          "name": "",
          "type": "address"
        }
      ],
      "stateMutability": "view",
      "type": "function"
    },
    {
      "inputs": [
        {
          "internalType": "uint32",
          "name": "_index",
          "type": "uint32"
        },
        {
          "internalType": "uint256",
          "name": "amount",
          "type": "uint256"
        }
      ],
      "name": "stake",
      "outputs": [],
      "stateMutability": "nonpayable",
      "type": "function"
    },
    {
      "inputs": [
        {
          "internalType": "uint256",
          "name": "",
          "type": "uint256"
        }
      ],
      "name": "stakeAccountList",
      "outputs": [
        {
          "internalType": "address",
          "name": "",
          "type": "address"
        }
      ],
      "stateMutability": "view",
      "type": "function"
    },
    {
      "inputs": [
        {
          "internalType": "bytes4",
          "name": "interfaceId",
          "type": "bytes4"
        }
      ],
      "name": "supportsInterface",
      "outputs": [
        {
          "internalType": "bool",
          "name": "",
          "type": "bool"
        }
      ],
      "stateMutability": "view",
      "type": "function"
    },
    {
      "inputs": [],
      "name": "totalLayer2Deposits",
      "outputs": [
        {
          "internalType": "uint256",
          "name": "amount",
          "type": "uint256"
        }
      ],
      "stateMutability": "view",
      "type": "function"
    },
    {
      "inputs": [],
      "name": "totalStakeAccountList",
      "outputs": [
        {
          "internalType": "uint256",
          "name": "",
          "type": "uint256"
        }
      ],
      "stateMutability": "view",
      "type": "function"
    },
    {
      "inputs": [],
      "name": "totalStakedLwton",
      "outputs": [
        {
          "internalType": "uint256",
          "name": "amount",
          "type": "uint256"
        }
      ],
      "stateMutability": "view",
      "type": "function"
    },
    {
      "inputs": [
        {
          "internalType": "uint256",
          "name": "snapshotId",
          "type": "uint256"
        }
      ],
      "name": "totalStakedLwtonAt",
      "outputs": [
        {
          "internalType": "uint256",
          "name": "amount",
          "type": "uint256"
        }
      ],
      "stateMutability": "view",
      "type": "function"
    },
    {
      "inputs": [
        {
          "internalType": "uint256",
          "name": "snapshotId",
          "type": "uint256"
        }
      ],
      "name": "totalStakedLwtonAtSnapshot",
      "outputs": [
        {
          "internalType": "bool",
          "name": "snapshotted",
          "type": "bool"
        },
        {
          "internalType": "uint256",
          "name": "amount",
          "type": "uint256"
        }
      ],
      "stateMutability": "view",
      "type": "function"
    },
    {
      "inputs": [
        {
          "internalType": "address",
          "name": "newAdmin",
          "type": "address"
        }
      ],
      "name": "transferAdmin",
      "outputs": [],
      "stateMutability": "nonpayable",
      "type": "function"
    },
    {
      "inputs": [
        {
          "internalType": "uint32",
          "name": "_index",
          "type": "uint32"
        },
        {
          "internalType": "uint256",
          "name": "lwton_",
          "type": "uint256"
        }
      ],
      "name": "unstake",
      "outputs": [],
      "stateMutability": "nonpayable",
      "type": "function"
    },
    {
      "inputs": [
        {
          "internalType": "uint32",
          "name": "_index",
          "type": "uint32"
        }
      ],
      "name": "withdraw",
      "outputs": [],
      "stateMutability": "nonpayable",
      "type": "function"
    },
    {
      "inputs": [
        {
          "internalType": "uint32",
          "name": "",
          "type": "uint32"
        },
        {
          "internalType": "address",
          "name": "",
          "type": "address"
        }
      ],
      "name": "withdrawalRequestIndex",
      "outputs": [
        {
          "internalType": "uint256",
          "name": "",
          "type": "uint256"
        }
      ],
      "stateMutability": "view",
      "type": "function"
    },
    {
      "inputs": [
        {
          "internalType": "uint32",
          "name": "",
          "type": "uint32"
        },
        {
          "internalType": "address",
          "name": "",
          "type": "address"
        },
        {
          "internalType": "uint256",
          "name": "",
          "type": "uint256"
        }
      ],
      "name": "withdrawalRequests",
      "outputs": [
        {
          "internalType": "uint32",
          "name": "withdrawableBlockNumber",
          "type": "uint32"
        },
        {
          "internalType": "uint128",
          "name": "amount",
          "type": "uint128"
        },
        {
          "internalType": "bool",
          "name": "processed",
          "type": "bool"
        }
      ],
      "stateMutability": "view",
      "type": "function"
    },
    {
      "inputs": [],
      "name": "wton",
      "outputs": [
        {
          "internalType": "address",
          "name": "",
          "type": "address"
        }
      ],
      "stateMutability": "view",
      "type": "function"
    }
  ],
  "bytecode": "0x60806040526006805460ff1916600117905534801561001d57600080fd5b50614f478061002d6000396000f3fe608060405234801561001057600080fd5b50600436106104055760003560e01c806375b238fc1161021a5780639c656e2611610135578063b9cab971116100c8578063df2b429011610097578063f54dea831161007c578063f54dea8314610b84578063f6b9c5b214610b97578063fde4819714610baa57600080fd5b8063df2b429014610b5e578063ec110d4514610b7157600080fd5b8063b9cab97114610ab2578063ba5adc6b14610ad2578063d07918f114610b38578063d547741f14610b4b57600080fd5b8063aa9224cd11610104578063aa9224cd14610a40578063b6a2f99d14610a53578063b911135f14610a81578063b969fbef14610aaa57600080fd5b80639c656e26146109ab578063a0b2a91314610a05578063a217fddf14610a25578063aa40362f14610a2d57600080fd5b80638c71762d116101ad57806391d148541161017c57806391d148541461093b57806394c89b2c14610972578063962b59a4146109855780639c2f614f1461099857600080fd5b80638c71762d1461089d5780638d62d949146108d25780638d99e1ca146108ea5780638ddd87fe146108fd57600080fd5b80637ec6840f116101e95780637ec6840f1461085157806380b0eb021461086457806385b9e4851461087757806387dd8bd01461088a57600080fd5b806375b238fc146107d9578063763936c7146108005780637cf1587c146108135780637d211a1c1461083e57600080fd5b80634273ca16116103255780635e2cfe45116102b8578063704802751161028757806373469a7a1161026c57806373469a7a146107a0578063744a3561146107b357806375829def146107c657600080fd5b8063704802751461077a5780637138c7921461078d57600080fd5b80635e2cfe45146106e357806363a8fd891461070e578063659ab8201461071b5780636d1ef1031461073b57600080fd5b80634f818d0c116102f45780634f818d0c1461064757806350d2a2761461068f5780635439ad86146106b8578063550d01a3146106c057600080fd5b80634273ca16146105f757806346bcdb491461060a5780634c69a65f146106125780634de131ca1461063257600080fd5b8063229852461161039d57806329637c1c1161036c57806329637c1c146105be5780632f2ff15d146105d157806336568abe146105e457806336e3579f146105b657600080fd5b80632298524614610559578063248a9ca31461058057806324d7806c146105a3578063275be97d146105b657600080fd5b806316b5d5bd116103d957806316b5d5bd146104a55780631785f53c146104d05780631ed94495146104e35780631f760d011461051a57600080fd5b806207c7851461040a57806301ffc9a714610443578063118e29d114610466578063128dfbab1461047b575b600080fd5b6104306104183660046146bd565b63ffffffff166000908152600d602052604090205490565b6040519081526020015b60405180910390f35b6104566104513660046146da565b610bf0565b604051901515815260200161043a565b6104796104743660046146bd565b610c27565b005b61048e610489366004614704565b610c9c565b60408051921515835260208301919091520161043a565b6008546104b8906001600160a01b031681565b6040516001600160a01b03909116815260200161043a565b6104796104de366004614745565b610cca565b6104f66104f1366004614762565b610d57565b6040805182518152602080840151908201529181015115159082015260600161043a565b61052d610528366004614762565b610dd6565b6040805194855263ffffffff93841660208601529183169184019190915216606082015260800161043a565b6104307ffb5864e8ff833c3cb2d2d08505e82ff02a43554c74a35d4f5a64e8526127831181565b61043061058e36600461479b565b60009081526020819052604090206001015490565b6104566105b1366004614745565b610f14565b600a54610430565b6104306105cc3660046147b4565b610f54565b6104796105df3660046147f5565b610fe3565b6104796105f23660046147f5565b61100d565b61045661060536600461481a565b611095565b601754610430565b6104306106203660046146bd565b600d6020526000908152604090205481565b61063a611245565b60405161043a91906148b9565b61065a6106553660046146bd565b6112a7565b6040805182516001600160a01b0316815260208084015163ffffffff16908201529181015161ffff169082015260600161043a565b6104b861069d3660046146da565b6004602052600090815260409020546001600160a01b031681565b61043061134b565b6104566106ce366004614745565b60036020526000908152604090205460ff1681565b6104306106f1366004614762565b601360209081526000928352604080842090915290825290205481565b6001546104569060ff1681565b61072e6107293660046146bd565b6113be565b60405161043a9190614956565b61074e6107493660046147b4565b611458565b6040805163ffffffff90941684526001600160801b03909216602084015215159082015260600161043a565b610479610788366004614745565b6114b7565b61045661079b366004614969565b611541565b6007546104b8906001600160a01b031681565b6104796107c1366004614704565b611713565b6104796107d4366004614745565b61177e565b6104307fdf8b4c520ffe197c5343c6f5aec59570151ef9a492f2c624fd45ddde6135ec4281565b6104b861080e3660046146bd565b6118e0565b610430610821366004614762565b601260209081526000928352604080842090915290825290205481565b61045661084c3660046146bd565b6119a1565b61047961085f366004614704565b611a68565b6104306108723660046147b4565b611b10565b6104566108853660046149b1565b611bb4565b6104306108983660046146bd565b611e59565b6108b06108ab366004614762565b611f44565b6040805193845263ffffffff928316602085015291169082015260600161043a565b6006546104b89061010090046001600160a01b031681565b6104306108f83660046146bd565b612081565b61043061090b366004614762565b63ffffffff821660009081526013602090815260408083206001600160a01b038516845290915290205492915050565b6104566109493660046147f5565b6000918252602082815260408084206001600160a01b0393909316845291905290205460ff1690565b610430610980366004614762565b6120f4565b610430610993366004614704565b6121b4565b6104796109a6366004614704565b612207565b6109e86109b9366004614762565b600f60209081526000928352604080842090915290825290208054600182015460029092015490919060ff1683565b60408051938452602084019290925215159082015260600161043a565b610430610a13366004614745565b60156020526000908152604090205481565b610430600081565b61048e610a3b36600461479b565b612337565b610479610a4e3660046146bd565b61234e565b610a66610a61366004614762565b612763565b6040805193845260208401929092529082015260600161043a565b6104b8610a8f36600461479b565b6002602052600090815260409020546001600160a01b031681565b6104306127be565b610430610ac03660046146bd565b60146020526000908152604090205481565b610430610ae0366004614762565b63ffffffff9091166000908152600f602090815260408083206001600160a01b03909416835292815290829020825160608101845281548152600182015492810183905260029091015460ff16151592019190915290565b6009546104b8906001600160a01b031681565b610479610b593660046147f5565b612808565b610456610b6c366004614a53565b61282d565b6104b8610b7f36600461479b565b612b83565b61048e610b923660046147b4565b612bad565b610430610ba536600461479b565b612bef565b610bdb610bb8366004614762565b601860209081526000928352604080842090915290825290205463ffffffff1681565b60405163ffffffff909116815260200161043a565b60006001600160e01b03198216637965db0b60e01b1480610c2157506301ffc9a760e01b6001600160e01b03198316145b92915050565b63ffffffff811660009081526012602090815260408083203380855292529091205490610c58908390836001612c10565b610c985760405162461bcd60e51b815260206004820152600c60248201526b534c5f455f52455354414b4560a01b60448201526064015b60405180910390fd5b5050565b63ffffffff82166000908152600e602052604081208190610cbe9084906130c7565b915091505b9250929050565b610cd333610f14565b610d2a5760405162461bcd60e51b815260206004820152602260248201527f41636365737369626c653a2043616c6c6572206973206e6f7420616e2061646d60448201526134b760f11b6064820152608401610c8f565b610d547fdf8b4c520ffe197c5343c6f5aec59570151ef9a492f2c624fd45ddde6135ec428261100d565b50565b610d7d604051806060016040528060008152602001600081526020016000151581525090565b5063ffffffff9091166000908152600f602090815260408083206001600160a01b039094168352928152908290208251606081018452815481526001820154928101929092526002015460ff1615159181019190915290565b63ffffffff80831660008181526011602090815260408083206001600160a01b038716808552908352818420549484526012835281842090845290915281205490929091839182919084165b81811015610f095763ffffffff881660009081526011602090815260408083206001600160a01b038b1684529091528120805483908110610e6557610e65614afb565b6000918252602080832060408051606081018252939091015463ffffffff8116845264010000000081046001600160801b031692840192909252600160a01b90910460ff1615159082018190529092509003610ef6578363ffffffff16600003610ece57805193505b6020810151610ee6906001600160801b031688614b27565b9650610ef3600186614b3a565b94505b5080610f0181614b5e565b915050610e22565b505092959194509250565b6001600160a01b03811660009081527f5cbfc8ee58ca47855df7bcf648dd304ddb6b932f9b87878bdf6318d7ec7ee5b7602052604081205460ff16610c21565b6007546000906001600160a01b03166301792de1610f73868686611b10565b846040518363ffffffff1660e01b8152600401610f9a929190918252602082015260400190565b602060405180830381865afa158015610fb7573d6000803e3d6000fd5b505050506040513d601f19601f82011682018060405250810190610fdb9190614b77565b949350505050565b600082815260208190526040902060010154610ffe816131ea565b61100883836131f4565b505050565b6001600160a01b038116331461108b5760405162461bcd60e51b815260206004820152602f60248201527f416363657373436f6e74726f6c3a2063616e206f6e6c792072656e6f756e636560448201527f20726f6c657320666f722073656c6600000000000000000000000000000000006064820152608401610c8f565b610c988282613292565b60065460009061010090046001600160a01b031633146110dc5760405162461bcd60e51b8152602060048201526002602482015261454160f01b6044820152606401610c8f565b61112361084c600085858080601f01602080910402602001604051908101604052809392919081815260200183838082843760009201919091525092939250506133119050565b61116f5760405162461bcd60e51b815260206004820152601860248201527f6e6f6e2d726567697374657265642063616e64696461746500000000000000006044820152606401610c8f565b60006111b5600085858080601f01602080910402602001604051908101604052809392919081815260200183838082843760009201919091525092939250506133119050565b905084156111da576006546111da9061010090046001600160a01b03168830886133d1565b60006111e5826112a7565b9050806040015161ffff166000148061120a575080516001600160a01b038981169116145b156112225761121d8289886000806134f5565b611237565b611237828988846000015185604001516134f5565b506001979650505050505050565b6060601780548060200260200160405190810160405280929190818152602001828054801561129d57602002820191906000526020600020905b81546001600160a01b0316815260019091019060200180831161127f575b5050505050905090565b604080516060810182526000808252602080830182905282840182905263ffffffff8516825260169052829020915163186ca86f60e21b8152909173__$d436d56fec194dfaaabaf06742f0275c03$__916361b2a1bc9161130a91600401614bc4565b606060405180830381865af4158015611327573d6000803e3d6000fd5b505050506040513d601f19601f82011682018060405250810190610c219190614c4f565b60075460408051632a1cd6c360e11b815290516000926001600160a01b031691635439ad869160048083019260209291908290030181865afa158015611395573d6000803e3d6000fd5b505050506040513d601f19601f820116820180604052508101906113b99190614b77565b905090565b601660205260009081526040902080546113d790614b90565b80601f016020809104026020016040519081016040528092919081815260200182805461140390614b90565b80156114505780601f1061142557610100808354040283529160200191611450565b820191906000526020600020905b81548152906001019060200180831161143357829003601f168201915b505050505081565b6011602052826000526040600020602052816000526040600020818154811061148057600080fd5b60009182526020909120015463ffffffff8116935064010000000081046001600160801b03169250600160a01b900460ff16905083565b6114c033610f14565b6115175760405162461bcd60e51b815260206004820152602260248201527f41636365737369626c653a2043616c6c6572206973206e6f7420616e2061646d60448201526134b760f11b6064820152608401610c8f565b610d547fdf8b4c520ffe197c5343c6f5aec59570151ef9a492f2c624fd45ddde6135ec4282610fe3565b6009546000906001600160a01b0316331461158e5760405162461bcd60e51b815260206004820152600d60248201526c232bafa1a0a62622a92fa2a92960991b6044820152606401610c8f565b61159884846138f3565b600754604051630dd1da2b60e41b8152600481018490526000916001600160a01b03169063dd1da2b090602401602060405180830381865afa1580156115e2573d6000803e3d6000fd5b505050506040513d601f19601f820116820180604052508101906116069190614b77565b63ffffffff86166000908152600d6020526040812080549293508392909190611630908490614b27565b9250508190555080600a60008282546116499190614b27565b909155505063ffffffff85166000908152600f602090815260408083206001600160a01b0388168452909152812080549091859183919061168b908490614b27565b92505081905550818160010160008282546116a69190614b27565b90915550506040805188815263ffffffff881660208201526001600160a01b03871681830152606081018690526080810184905290517f8cf204c07a4ce065cdd0c90963672bd384e5479ada88179bca8eb6075c02731f9181900360a00190a15060019695505050505050565b63ffffffff8216600090815260126020908152604080832033808552925290912054906117439084908385612c10565b6110085760405162461bcd60e51b815260206004820152600c60248201526b534c5f455f52455354414b4560a01b6044820152606401610c8f565b61178733610f14565b6117de5760405162461bcd60e51b815260206004820152602260248201527f41636365737369626c653a2043616c6c6572206973206e6f7420616e2061646d60448201526134b760f11b6064820152608401610c8f565b6001600160a01b0381166118345760405162461bcd60e51b815260206004820152601860248201527f41636365737369626c653a207a65726f206164647265737300000000000000006044820152606401610c8f565b6001600160a01b038116330361188c5760405162461bcd60e51b815260206004820152601660248201527f41636365737369626c653a2073616d652061646d696e000000000000000000006044820152606401610c8f565b6118b67fdf8b4c520ffe197c5343c6f5aec59570151ef9a492f2c624fd45ddde6135ec4282610fe3565b610d547fdf8b4c520ffe197c5343c6f5aec59570151ef9a492f2c624fd45ddde6135ec423361100d565b63ffffffff81166000908152601660205260408120805482919061190390614b90565b80601f016020809104026020016040519081016040528092919081815260200182805461192f90614b90565b801561197c5780601f106119515761010080835404028352916020019161197c565b820191906000526020600020905b81548152906001019060200180831161195f57829003601f168201915b5050505050905060178151111561199b576119988160006139a1565b91505b50919050565b600854604051635d170f8f60e01b815263ffffffff831660048201526000916001600160a01b031690635d170f8f90602401602060405180830381865afa1580156119f0573d6000803e3d6000fd5b505050506040513d601f19601f82011682018060405250810190611a149190614cc8565b611a605760405162461bcd60e51b815260206004820152601460248201527f6e6f6e2d72656769737465726564206c617965720000000000000000000000006044820152606401610c8f565b506001919050565b611a71826119a1565b611abd5760405162461bcd60e51b815260206004820152601860248201527f6e6f6e2d726567697374657265642063616e64696461746500000000000000006044820152606401610c8f565b6000611ac8836112a7565b9050806040015161ffff1660001480611aea575080516001600160a01b031633145b15611afc576110088383600080613a61565b611008838383600001518460400151613a61565b63ffffffff831660009081526010602090815260408083206001600160a01b0386168452909152812081908190611b489085906130c7565b9150915081611ba85763ffffffff86166000908152600f602090815260408083206001600160a01b0389168452825291829020825160608101845281548152600182015492810183905260029091015460ff161515920191909152611baa565b805b9695505050505050565b60065460009060ff16611bf25760405162461bcd60e51b8152600401610c8f906020808252600490820152636c6f636b60e01b604082015260600190565b6006805460ff191690556009546001600160a01b03163314611c465760405162461bcd60e51b815260206004820152600d60248201526c232bafa1a0a62622a92fa2a92960991b6044820152606401610c8f565b81611c5186866120f4565b1015611c9f5760405162461bcd60e51b815260206004820152601960248201527f6c697175696469747920697320696e73756666696369656e74000000000000006044820152606401610c8f565b611ca985856138f3565b6006546040516370a0823160e01b815230600482015260009161010090046001600160a01b0316906370a0823190602401602060405180830381865afa158015611cf7573d6000803e3d6000fd5b505050506040513d601f19601f82011682018060405250810190611d1b9190614b77565b905082811015611dc6578015611d4757600654611d479061010090046001600160a01b03168583613a91565b6007546001600160a01b031663aad3ec9685611d638487614cea565b6040516001600160e01b031960e085901b1681526001600160a01b0390921660048301526024820152604401600060405180830381600087803b158015611da957600080fd5b505af1158015611dbd573d6000803e3d6000fd5b50505050611de2565b600654611de29061010090046001600160a01b03168585613a91565b6040805188815263ffffffff881660208201526001600160a01b0387811682840152861660608201526080810185905290517f77fbf71434da34ef2aa8382e2b751b6b2de7bd18d96a07ff7f4dae7dae9237619181900360a00190a160019150506006805460ff1916600117905595945050505050565b63ffffffff811660009081526016602052604081208054829190611e7c90614b90565b80601f0160208091040260200160405190810160405280929190818152602001828054611ea890614b90565b8015611ef55780601f10611eca57610100808354040283529160200191611ef5565b820191906000526020600020905b815481529060010190602001808311611ed857829003601f168201915b50505050509050611f136000601883613bac9092919063ffffffff16565b6000604051602001611f26929190614cfd565b60405160208183030381529060405280519060200120915050919050565b63ffffffff80831660008181526011602090815260408083206001600160a01b038716808552908352818420549484526012835281842090845290915281205490929091839183165b818110156120785763ffffffff871660009081526011602090815260408083206001600160a01b038a1684529091528120805483908110611fd057611fd0614afb565b600091825260209182902060408051606081018252929091015463ffffffff811680845264010000000082046001600160801b031694840194909452600160a01b900460ff1615159082015291504311801561202e57506040810151155b1561205f57602081015161204b906001600160801b031687614b27565b9550612058600185614b3a565b9350612065565b50612078565b508061207081614b5e565b915050611f8d565b50509250925092565b6008546040516346ccf0e560e11b815263ffffffff831660048201526000916001600160a01b031690638d99e1ca90602401602060405180830381865afa1580156120d0573d6000803e3d6000fd5b505050506040513d601f19601f82011682018060405250810190610c219190614b77565b60075463ffffffff83166000908152600f602090815260408083206001600160a01b038681168552908352818420825160608101845281548152600182015494810185905260029091015460ff16151590830152905163257397a560e11b8152600481019290925291929190911690634ae72f4a90602401602060405180830381865afa158015612189573d6000803e3d6000fd5b505050506040513d601f19601f820116820180604052508101906121ad9190614b77565b9392505050565b63ffffffff82166000908152600e60205260408120819081906121d89085906130c7565b91509150816121fc5763ffffffff85166000908152600d60205260409020546121fe565b805b95945050505050565b600954604051630265991f60e61b81526001600482015263ffffffff841660248201523360448201526000916001600160a01b03169063996647c090606401602060405180830381865afa158015612263573d6000803e3d6000fd5b505050506040513d601f19601f820116820180604052508101906122879190614b77565b9050612292836118e0565b6001600160a01b0316330361232c576110088383600860009054906101000a90046001600160a01b03166001600160a01b031663a4dd8b7d6040518163ffffffff1660e01b8152600401602060405180830381865afa1580156122f9573d6000803e3d6000fd5b505050506040513d601f19601f8201168201806040525081019061231d9190614b77565b6123279085614b27565b613d0f565b611008838383613d0f565b60008061234583600b6130c7565b91509150915091565b60065460ff166123895760405162461bcd60e51b8152600401610c8f906020808252600490820152636c6f636b60e01b604082015260600190565b6006805460ff1916905563ffffffff811660008181526011602090815260408083203380855290835281842054948452601283528184208185529092528220549092919081905b838110156124a25763ffffffff861660009081526011602090815260408083206001600160a01b0389168452909152812080548390811061241357612413614afb565b600091825260209091200180549091504363ffffffff90911610801561244257508054600160a01b900460ff16155b1561248957805460ff60a01b1916600160a01b17808255612475906001600160801b036401000000009091041684614b27565b92508361248181614b5e565b94505061248f565b506124a2565b508061249a81614b5e565b9150506123d0565b50600081116124f35760405162461bcd60e51b815260206004820181905260248201527f7a65726f20617661696c61626c65207769746864726177616c20616d6f756e746044820152606401610c8f565b63ffffffff851660009081526012602090815260408083206001600160a01b03881684529091528120805484929061252c908490614b27565b909155505063ffffffff851660009081526013602090815260408083206001600160a01b03881684529091528120805483929061256a908490614cea565b909155505063ffffffff851660009081526014602052604081208054839290612594908490614cea565b90915550506001600160a01b038416600090815260156020526040812080548392906125c1908490614cea565b90915550506006546040516370a0823160e01b815230600482015260009161010090046001600160a01b0316906370a0823190602401602060405180830381865afa158015612614573d6000803e3d6000fd5b505050506040513d601f19601f820116820180604052508101906126389190614b77565b9050818110156126e3578015612664576006546126649061010090046001600160a01b03168683613a91565b6007546001600160a01b031663aad3ec96866126808486614cea565b6040516001600160e01b031960e085901b1681526001600160a01b0390921660048301526024820152604401600060405180830381600087803b1580156126c657600080fd5b505af11580156126da573d6000803e3d6000fd5b505050506126ff565b6006546126ff9061010090046001600160a01b03168684613a91565b6040805163ffffffff881681526001600160a01b03871660208201529081018390527f2d6eb139d2002caa088da5527d9d62f2f23bdf4504f5559a112535c436c6ee599060600160405180910390a150506006805460ff1916600117905550505050565b63ffffffff821660008181526011602090815260408083206001600160a01b0386168085529083528184205494845260128352818420908452909152812054908183106127b7576127b48284614cea565b90505b9250925092565b6008546040805163b969fbef60e01b815290516000926001600160a01b03169163b969fbef9160048083019260209291908290030181865afa158015611395573d6000803e3d6000fd5b600082815260208190526040902060010154612823816131ea565b6110088383613292565b6008546000906001600160a01b0316331461288a5760405162461bcd60e51b815260206004820152601160248201527f6e6f74204c61796572324d616e616765720000000000000000000000000000006044820152606401610c8f565b63ffffffff8316600090815260166020526040902080546128aa90614b90565b1590506128f95760405162461bcd60e51b815260206004820152600f60248201527f616c7265616479206372656174656400000000000000000000000000000000006044820152606401610c8f565b603982511161294a5760405162461bcd60e51b815260206004820152600b60248201527f77726f6e67205f696e666f0000000000000000000000000000000000000000006044820152606401610c8f565b60405163186ca86f60e21b815260009073__$d436d56fec194dfaaabaf06742f0275c03$__906361b2a1bc90612984908690600401614956565b606060405180830381865af41580156129a1573d6000803e3d6000fd5b505050506040513d601f19601f820116820180604052508101906129c59190614c4f565b60208082015163ffffffff908116600090815260188352604080822085516001600160a01b0316835290935291909120549192501615612a475760405162461bcd60e51b815260206004820152600e60248201527f616c7265616420657869737465640000000000000000000000000000000000006044820152606401610c8f565b61271061ffff16816040015161ffff1610612aa45760405162461bcd60e51b815260206004820152600e60248201527f636f6d6d697373696f6e206572720000000000000000000000000000000000006044820152606401610c8f565b6000612ab184601a614213565b9050612ac0846000601a613bac565b604051602001612ad09190614d47565b60408051601f1981840301815291815263ffffffff8716600090815260166020522090612afd9082614da9565b5060208281015163ffffffff908116600090815260188352604080822086516001600160a01b0316835290935291909120805463ffffffff19169187169190911790558015612b78578151600654612b66916101009091046001600160a01b03169030846133d1565b612b78858360000151836000806134f5565b506001949350505050565b60178181548110612b9357600080fd5b6000918252602090912001546001600160a01b0316905081565b63ffffffff831660009081526010602090815260408083206001600160a01b038616845290915281208190612be39084906130c7565b91509150935093915050565b6000806000612bff84600b6130c7565b91509150816121ad57600a54610fdb565b60065460009060ff16612c4e5760405162461bcd60e51b8152600401610c8f906020808252600490820152636c6f636b60e01b604082015260600190565b6006805460ff19169055612c6285856138f3565b63ffffffff851660009081526011602090815260408083206001600160a01b038816845290915281205480612cc65760405162461bcd60e51b815260206004820152600a6024820152696e6f20756e7374616b6560b01b6044820152606401610c8f565b83612cd18683614cea565b1015612d1f5760405162461bcd60e51b815260206004820152601860248201527f6e2065786365656473206e756d206f662070656e64696e6700000000000000006044820152606401610c8f565b6000612d2b8587614b27565b90505b80861015612e215763ffffffff881660009081526011602090815260408083206001600160a01b038b1684529091528120805488908110612d7157612d71614afb565b6000918252602090912001805490915064010000000081046001600160801b031690600160a01b900460ff1615612dea5760405162461bcd60e51b815260206004820152601260248201527f616c7265616479207769746864726177616c00000000000000000000000000006044820152606401610c8f565b8015612dfd57612dfa8186614b27565b94505b50805460ff60a01b1916600160a01b17905585612e1981614b5e565b965050612d2e565b60008311612e715760405162461bcd60e51b815260206004820152601760248201527f6e6f2076616c69642072657374616b6520616d6f756e740000000000000000006044820152606401610c8f565b600754604051630dd1da2b60e41b8152600481018590526000916001600160a01b03169063dd1da2b090602401602060405180830381865afa158015612ebb573d6000803e3d6000fd5b505050506040513d601f19601f82011682018060405250810190612edf9190614b77565b63ffffffff8a166000908152600f602090815260408083206001600160a01b038d168452909152812080549293509186918391612f1d908490614b27565b9250508190555081816001016000828254612f389190614b27565b909155505063ffffffff8a166000908152600d602052604081208054849290612f62908490614b27565b9250508190555081600a6000828254612f7b9190614b27565b909155505063ffffffff8a1660009081526013602090815260408083206001600160a01b038d16845290915281208054879290612fb9908490614cea565b909155505063ffffffff8a1660009081526014602052604081208054879290612fe3908490614cea565b90915550506001600160a01b03891660009081526015602052604081208054879290613010908490614cea565b909155505063ffffffff8a1660009081526012602090815260408083206001600160a01b038d1684529091528120805489929061304e908490614b27565b90915550506040805163ffffffff8c1681526001600160a01b038b166020820152908101869052606081018390527f34981dc0486069d2abbaddbc42e10b97cb24e4bce60ee4457e1d5062dfc0b4299060800160405180910390a16001955050505050506006805460ff19166001179055949350505050565b6000806130d261134b565b8411156131215760405162461bcd60e51b815260206004820152601860248201527f536e617073686f743a206e6f6e6578697374656e7420696400000000000000006044820152606401610c8f565b82541580159061315a57508254839061313c90600190614cea565b8154811061314c5761314c614afb565b906000526020600020015484115b156131985782546000906001808601916131749190614cea565b8154811061318457613184614afb565b906000526020600020015491509150610cc3565b60006131a484866142d3565b845490915081106131bc576000809250925050610cc3565b60018460010182815481106131d3576131d3614afb565b906000526020600020015492509250509250929050565b610d5481336143e3565b6000828152602081815260408083206001600160a01b038516845290915290205460ff16610c98576000828152602081815260408083206001600160a01b03851684529091529020805460ff1916600117905561324e3390565b6001600160a01b0316816001600160a01b0316837f2f8788117e7eff1d82e926ec794901d17c78024a50270940304540a733656f0d60405160405180910390a45050565b6000828152602081815260408083206001600160a01b038516845290915290205460ff1615610c98576000828152602081815260408083206001600160a01b0385168085529252808320805460ff1916905551339285917ff6391f5c32d9c69d2a47ea670b442974b53935d1edc7fd64eb21e047a839171b9190a45050565b60008161331f816004614b27565b101561336d5760405162461bcd60e51b815260206004820152601160248201527f746f55696e7433325f6f766572666c6f770000000000000000000000000000006044820152606401610c8f565b613378826004614b27565b835110156133c85760405162461bcd60e51b815260206004820152601460248201527f746f55696e7433325f6f75744f66426f756e64730000000000000000000000006044820152606401610c8f565b50016004015190565b604080516001600160a01b0385811660248301528481166044830152606480830185905283518084039091018152608490920183526020820180516001600160e01b03166323b872dd60e01b17905291516000928392908816916134359190614d47565b6000604051808303816000865af19150503d8060008114613472576040519150601f19603f3d011682016040523d82523d6000602084013e613477565b606091505b50915091508180156134a15750805115806134a15750808060200190518101906134a19190614cc8565b6134ed5760405162461bcd60e51b815260206004820152601460248201527f5452414e534645525f46524f4d5f4641494c45440000000000000000000000006044820152606401610c8f565b505050505050565b60065460ff166135305760405162461bcd60e51b8152600401610c8f906020808252600490820152636c6f636b60e01b604082015260600190565b6006805460ff191690558260008190036135715760405162461bcd60e51b81526020600482015260026024820152615a3160f01b6044820152606401610c8f565b61357b86866138f3565b600754604051630dd1da2b60e41b8152600481018690526000916001600160a01b03169063dd1da2b090602401602060405180830381865afa1580156135c5573d6000803e3d6000fd5b505050506040513d601f19601f820116820180604052508101906135e99190614b77565b63ffffffff88166000908152600d6020526040812080549293508392909190613613908490614b27565b9250508190555080600a600082825461362c9190614b27565b909155505063ffffffff87166000908152600f602090815260408083206001600160a01b038a1684529091529020600281015460ff166136ce57600281018054600160ff1990911681179091556017805491820181556000527fc624b66cc0138b8fabc209247f72d758e1cf3343756d543badbf24212bed8c1501805473ffffffffffffffffffffffffffffffffffffffff19166001600160a01b0389161790555b600061ffff8516158015906136eb57506001600160a01b03861615155b80156136fc57506127108561ffff16105b1561383f5761271061371261ffff871685614e69565b61371c9190614e80565b90506137288184614cea565b60075460405163257397a560e11b8152600481018390529194506000916001600160a01b0390911690634ae72f4a90602401602060405180830381865afa158015613777573d6000803e3d6000fd5b505050506040513d601f19601f8201168201806040525081019061379b9190614b77565b9050808360000160008282546137b19190614b27565b92505081905550838360010160008282546137cc9190614b27565b909155505063ffffffff8a166000908152600f602090815260408083206001600160a01b038b1684529091529020613804828a614cea565b8160000160008282546138179190614b27565b92505081905550828160010160008282546138329190614b27565b9091555061387492505050565b868260000160008282546138539190614b27565b925050819055508282600101600082825461386e9190614b27565b90915550505b6040805163ffffffff8b1681526001600160a01b038a811660208301528183018a9052606082018690528816608082015261ffff871660a082015290517f318dab784577ac2e7d86f88c3f2a80520b447b822b8a756158648e0f917d16a09181900360c00190a150506006805460ff1916600117905550505050505050565b613906600b613901600a5490565b614456565b63ffffffff82166000908152600e60209081526040808320600d909252909120546139319190614456565b63ffffffff821660008181526010602090815260408083206001600160a01b038616808552908352818420948452600f8352818420908452825291829020825160608101845281548152600182015492810183905260029091015460ff161515920191909152610c989190614456565b6000816139af816014614b27565b10156139fd5760405162461bcd60e51b815260206004820152601260248201527f746f416464726573735f6f766572666c6f7700000000000000000000000000006044820152606401610c8f565b613a08826014614b27565b83511015613a585760405162461bcd60e51b815260206004820152601560248201527f746f416464726573735f6f75744f66426f756e647300000000000000000000006044820152606401610c8f565b50016014015190565b600654613a7e9061010090046001600160a01b03163330866133d1565b613a8b84338585856134f5565b50505050565b604080516001600160a01b038481166024830152604480830185905283518084039091018152606490920183526020820180516001600160e01b031663a9059cbb60e01b1790529151600092839290871691613aed9190614d47565b6000604051808303816000865af19150503d8060008114613b2a576040519150601f19603f3d011682016040523d82523d6000602084013e613b2f565b606091505b5091509150818015613b59575080511580613b59575080806020019051810190613b599190614cc8565b613ba55760405162461bcd60e51b815260206004820152600f60248201527f5452414e534645525f4641494c454400000000000000000000000000000000006044820152606401610c8f565b5050505050565b606081613bba81601f614b27565b1015613bf95760405162461bcd60e51b815260206004820152600e60248201526d736c6963655f6f766572666c6f7760901b6044820152606401610c8f565b82613c048382614b27565b1015613c435760405162461bcd60e51b815260206004820152600e60248201526d736c6963655f6f766572666c6f7760901b6044820152606401610c8f565b613c4d8284614b27565b84511015613c9d5760405162461bcd60e51b815260206004820152601160248201527f736c6963655f6f75744f66426f756e64730000000000000000000000000000006044820152606401610c8f565b606082158015613cbc5760405191506000825260208201604052613d06565b6040519150601f8416801560200281840101858101878315602002848b0101015b81831015613cf5578051835260209283019201613cdd565b5050858452601f01601f1916604052505b50949350505050565b60065460ff16613d4a5760405162461bcd60e51b8152600401610c8f906020808252600490820152636c6f636b60e01b604082015260600190565b6006805460ff19169055816000819003613d8b5760405162461bcd60e51b81526020600482015260026024820152615a3160f01b6044820152606401610c8f565b33613d9685826138f3565b60075460405163257397a560e11b8152600481018690526000916001600160a01b031690634ae72f4a90602401602060405180830381865afa158015613de0573d6000803e3d6000fd5b505050506040513d601f19601f82011682018060405250810190613e049190614b77565b63ffffffff87166000908152600f602090815260408083206001600160a01b038716845290915290209091508415613f05576001810154600754604051630dd1da2b60e41b8152600481018890526001600160a01b039091169063dd1da2b090602401602060405180830381865afa158015613e84573d6000803e3d6000fd5b505050506040513d601f19601f82011682018060405250810190613ea89190614b77565b613eb29088614b27565b1115613f005760405162461bcd60e51b815260206004820152600d60248201527f756e7374616b655f6572725f31000000000000000000000000000000000000006044820152606401610c8f565b613f59565b8060010154861115613f595760405162461bcd60e51b815260206004820152600d60248201527f756e7374616b655f6572725f32000000000000000000000000000000000000006044820152606401610c8f565b85816001016000828254613f6d9190614cea565b90915550508054821115613f845760008155613f9e565b81816000016000828254613f989190614cea565b90915550505b63ffffffff87166000908152600d602052604081208054889290613fc3908490614cea565b9250508190555085600a6000828254613fdc9190614cea565b909155505060085460408051636577b27360e11b815290516000926001600160a01b03169163caef64e69160048083019260209291908290030181865afa15801561402b573d6000803e3d6000fd5b505050506040513d601f19601f8201168201806040525081019061404f9190614b77565b63ffffffff891660009081526011602090815260408083206001600160a01b038916845290915290819020815160608101909252919250806140918443614b27565b63ffffffff90811682526001600160801b0380881660208085019190915260006040948501819052865460018101885596815281812086519701805487840151978701511515600160a01b0260ff60a01b19989095166401000000000273ffffffffffffffffffffffffffffffffffffffff19909116988616989098179790971795909516919091179094558b168252601383528082206001600160a01b0388168352909252908120805485929061414a908490614b27565b909155505063ffffffff881660009081526014602052604081208054859290614174908490614b27565b90915550506001600160a01b038416600090815260156020526040812080548592906141a1908490614b27565b90915550506040805163ffffffff8a1681526001600160a01b0386166020820152908101849052606081018890527f869a01319d83bb921803a22e3e95d0cb8b08e708d3fb144e2c25a563bf8650d39060800160405180910390a150506006805460ff19166001179055505050505050565b600081614221816020614b27565b101561426f5760405162461bcd60e51b815260206004820152601260248201527f746f55696e743235365f6f766572666c6f7700000000000000000000000000006044820152606401610c8f565b61427a826020614b27565b835110156142ca5760405162461bcd60e51b815260206004820152601560248201527f746f55696e743235365f6f75744f66426f756e647300000000000000000000006044820152606401610c8f565b50016020015190565b815460009081036142e657506000610c21565b825483906142f690600190614cea565b8154811061430657614306614afb565b9060005260206000200154821061432c57825461432590600190614cea565b9050610c21565b8260008154811061433f5761433f614afb565b906000526020600020015482101561435957506000610c21565b8254600090819061436c90600190614cea565b90505b818111156143db57600060026143858484614b27565b614390906001614b27565b61439a9190614e80565b9050848682815481106143af576143af614afb565b9060005260206000200154116143c7578092506143d5565b6143d2600182614cea565b91505b5061436f565b509392505050565b6000828152602081815260408083206001600160a01b038516845290915290205460ff16610c9857614414816144ab565b61441f8360206144bd565b604051602001614430929190614ea2565b60408051601f198184030181529082905262461bcd60e51b8252610c8f91600401614956565b600061446061134b565b8354909150158061447857508061447684614666565b105b15611008578254600180820185556000858152602080822090930193909355938401805494850181558252902090910155565b6060610c216001600160a01b03831660145b606060006144cc836002614e69565b6144d7906002614b27565b67ffffffffffffffff8111156144ef576144ef614a0c565b6040519080825280601f01601f191660200182016040528015614519576020820181803683370190505b509050600360fc1b8160008151811061453457614534614afb565b60200101906001600160f81b031916908160001a905350600f60fb1b8160018151811061456357614563614afb565b60200101906001600160f81b031916908160001a9053506000614587846002614e69565b614592906001614b27565b90505b6001811115614617577f303132333435363738396162636465660000000000000000000000000000000085600f16601081106145d3576145d3614afb565b1a60f81b8282815181106145e9576145e9614afb565b60200101906001600160f81b031916908160001a90535060049490941c9361461081614f23565b9050614595565b5083156121ad5760405162461bcd60e51b815260206004820181905260248201527f537472696e67733a20686578206c656e67746820696e73756666696369656e746044820152606401610c8f565b8054600090810361467957506000919050565b8154829061468990600190614cea565b8154811061469957614699614afb565b90600052602060002001549050919050565b63ffffffff81168114610d5457600080fd5b6000602082840312156146cf57600080fd5b81356121ad816146ab565b6000602082840312156146ec57600080fd5b81356001600160e01b0319811681146121ad57600080fd5b6000806040838503121561471757600080fd5b8235614722816146ab565b946020939093013593505050565b6001600160a01b0381168114610d5457600080fd5b60006020828403121561475757600080fd5b81356121ad81614730565b6000806040838503121561477557600080fd5b8235614780816146ab565b9150602083013561479081614730565b809150509250929050565b6000602082840312156147ad57600080fd5b5035919050565b6000806000606084860312156147c957600080fd5b83356147d4816146ab565b925060208401356147e481614730565b929592945050506040919091013590565b6000806040838503121561480857600080fd5b82359150602083013561479081614730565b60008060008060006080868803121561483257600080fd5b853561483d81614730565b9450602086013561484d81614730565b935060408601359250606086013567ffffffffffffffff8082111561487157600080fd5b818801915088601f83011261488557600080fd5b81358181111561489457600080fd5b8960208285010111156148a657600080fd5b9699959850939650602001949392505050565b6020808252825182820181905260009190848201906040850190845b818110156148fa5783516001600160a01b0316835292840192918401916001016148d5565b50909695505050505050565b60005b83811015614921578181015183820152602001614909565b50506000910152565b60008151808452614942816020860160208601614906565b601f01601f19169290920160200192915050565b6020815260006121ad602083018461492a565b6000806000806080858703121561497f57600080fd5b843593506020850135614991816146ab565b925060408501356149a181614730565b9396929550929360600135925050565b600080600080600060a086880312156149c957600080fd5b8535945060208601356149db816146ab565b935060408601356149eb81614730565b925060608601356149fb81614730565b949793965091946080013592915050565b634e487b7160e01b600052604160045260246000fd5b604051601f8201601f1916810167ffffffffffffffff81118282101715614a4b57614a4b614a0c565b604052919050565b60008060408385031215614a6657600080fd5b8235614a71816146ab565b915060208381013567ffffffffffffffff80821115614a8f57600080fd5b818601915086601f830112614aa357600080fd5b813581811115614ab557614ab5614a0c565b614ac7601f8201601f19168501614a22565b91508082528784828501011115614add57600080fd5b80848401858401376000848284010152508093505050509250929050565b634e487b7160e01b600052603260045260246000fd5b634e487b7160e01b600052601160045260246000fd5b80820180821115610c2157610c21614b11565b63ffffffff818116838216019080821115614b5757614b57614b11565b5092915050565b600060018201614b7057614b70614b11565b5060010190565b600060208284031215614b8957600080fd5b5051919050565b600181811c90821680614ba457607f821691505b60208210810361199b57634e487b7160e01b600052602260045260246000fd5b6000602080835260008454614bd881614b90565b80848701526040600180841660008114614bf95760018114614c1357614c41565b60ff1985168984015283151560051b890183019550614c41565b896000528660002060005b85811015614c395781548b8201860152908301908801614c1e565b8a0184019650505b509398975050505050505050565b600060608284031215614c6157600080fd5b6040516060810181811067ffffffffffffffff82111715614c8457614c84614a0c565b6040528251614c9281614730565b81526020830151614ca2816146ab565b6020820152604083015161ffff81168114614cbc57600080fd5b60408201529392505050565b600060208284031215614cda57600080fd5b815180151581146121ad57600080fd5b81810381811115610c2157610c21614b11565b60008351614d0f818460208801614906565b60f09390931b7fffff000000000000000000000000000000000000000000000000000000000000169190920190815260020192915050565b60008251614d59818460208701614906565b9190910192915050565b601f82111561100857600081815260208120601f850160051c81016020861015614d8a5750805b601f850160051c820191505b818110156134ed57828155600101614d96565b815167ffffffffffffffff811115614dc357614dc3614a0c565b614dd781614dd18454614b90565b84614d63565b602080601f831160018114614e0c5760008415614df45750858301515b600019600386901b1c1916600185901b1785556134ed565b600085815260208120601f198616915b82811015614e3b57888601518255948401946001909101908401614e1c565b5085821015614e595787850151600019600388901b60f8161c191681555b5050505050600190811b01905550565b8082028115828204841417610c2157610c21614b11565b600082614e9d57634e487b7160e01b600052601260045260246000fd5b500490565b7f416363657373436f6e74726f6c3a206163636f756e7420000000000000000000815260008351614eda816017850160208801614906565b7f206973206d697373696e6720726f6c65200000000000000000000000000000006017918401918201528351614f17816028840160208801614906565b01602801949350505050565b600081614f3257614f32614b11565b50600019019056fea164736f6c6343000812000a",
  "linkReferences": {
    "contracts/libraries/LibOperator.sol": {
      "LibOperator": [
        {
          "length": 20,
          "start": 4881
        },
        {
          "length": 20,
          "start": 10633
        }
      ]
    }
  },
  "deployedLinkReferences": {
    "contracts/libraries/LibOperator.sol": {
      "LibOperator": [
        {
          "length": 20,
          "start": 4836
        },
        {
          "length": 20,
          "start": 10588
        }
      ]
    }
  }
}