{
  "_format": "hh-sol-artifact-1",
  "contractName": "Candidate",
  "sourceName": "contracts/Candidate.sol",
  "abi": [
    {
      "inputs": [],
      "stateMutability": "nonpayable",
      "type": "constructor"
    },
    {
      "anonymous": false,
      "inputs": [
        {
          "indexed": false,
          "internalType": "bytes32",
          "name": "hashMessage",
          "type": "bytes32"
        },
        {
          "indexed": false,
          "internalType": "uint32",
          "name": "layerIndex",
          "type": "uint32"
        },
        {
          "indexed": false,
          "internalType": "address",
          "name": "from",
          "type": "address"
        },
        {
          "indexed": false,
          "internalType": "address",
          "name": "to",
          "type": "address"
        },
        {
          "indexed": false,
          "internalType": "uint256",
          "name": "amount",
          "type": "uint256"
        }
      ],
      "name": "FastWithdrawalClaim",
      "type": "event"
    },
    {
      "anonymous": false,
      "inputs": [
        {
          "indexed": false,
          "internalType": "bytes32",
          "name": "hashMessage",
          "type": "bytes32"
        },
        {
          "indexed": false,
          "internalType": "uint32",
          "name": "layerIndex",
          "type": "uint32"
        },
        {
          "indexed": false,
          "internalType": "address",
          "name": "staker",
          "type": "address"
        },
        {
          "indexed": false,
          "internalType": "uint256",
          "name": "amount",
          "type": "uint256"
        },
        {
          "indexed": false,
          "internalType": "uint256",
          "name": "lton",
          "type": "uint256"
        }
      ],
      "name": "FastWithdrawalStaked",
      "type": "event"
    },
    {
      "anonymous": false,
      "inputs": [
        {
          "indexed": false,
          "internalType": "uint32",
          "name": "_index",
          "type": "uint32"
        },
        {
          "indexed": false,
          "internalType": "address",
          "name": "sender",
          "type": "address"
        },
        {
          "indexed": false,
          "internalType": "uint256",
          "name": "amount",
          "type": "uint256"
        },
        {
          "indexed": false,
          "internalType": "uint256",
          "name": "lton",
          "type": "uint256"
        }
      ],
      "name": "Restaked",
      "type": "event"
    },
    {
      "anonymous": false,
      "inputs": [
        {
          "indexed": true,
          "internalType": "bytes32",
          "name": "role",
          "type": "bytes32"
        },
        {
          "indexed": true,
          "internalType": "bytes32",
          "name": "previousAdminRole",
          "type": "bytes32"
        },
        {
          "indexed": true,
          "internalType": "bytes32",
          "name": "newAdminRole",
          "type": "bytes32"
        }
      ],
      "name": "RoleAdminChanged",
      "type": "event"
    },
    {
      "anonymous": false,
      "inputs": [
        {
          "indexed": true,
          "internalType": "bytes32",
          "name": "role",
          "type": "bytes32"
        },
        {
          "indexed": true,
          "internalType": "address",
          "name": "account",
          "type": "address"
        },
        {
          "indexed": true,
          "internalType": "address",
          "name": "sender",
          "type": "address"
        }
      ],
      "name": "RoleGranted",
      "type": "event"
    },
    {
      "anonymous": false,
      "inputs": [
        {
          "indexed": true,
          "internalType": "bytes32",
          "name": "role",
          "type": "bytes32"
        },
        {
          "indexed": true,
          "internalType": "address",
          "name": "account",
          "type": "address"
        },
        {
          "indexed": true,
          "internalType": "address",
          "name": "sender",
          "type": "address"
        }
      ],
      "name": "RoleRevoked",
      "type": "event"
    },
    {
      "anonymous": false,
      "inputs": [
        {
          "indexed": false,
          "internalType": "uint32",
          "name": "_index",
          "type": "uint32"
        },
        {
          "indexed": false,
          "internalType": "address",
          "name": "sender",
          "type": "address"
        },
        {
          "indexed": false,
          "internalType": "uint256",
          "name": "amount",
          "type": "uint256"
        },
        {
          "indexed": false,
          "internalType": "uint256",
          "name": "lton",
          "type": "uint256"
        },
        {
          "indexed": false,
          "internalType": "address",
          "name": "commissionTo",
          "type": "address"
        },
        {
          "indexed": false,
          "internalType": "uint16",
          "name": "commission",
          "type": "uint16"
        }
      ],
      "name": "Staked",
      "type": "event"
    },
    {
      "anonymous": false,
      "inputs": [
        {
          "indexed": false,
          "internalType": "uint32",
          "name": "_index",
          "type": "uint32"
        },
        {
          "indexed": false,
          "internalType": "address",
          "name": "sender",
          "type": "address"
        },
        {
          "indexed": false,
          "internalType": "uint256",
          "name": "amount",
          "type": "uint256"
        },
        {
          "indexed": false,
          "internalType": "uint256",
          "name": "lton",
          "type": "uint256"
        }
      ],
      "name": "Unstaked",
      "type": "event"
    },
    {
      "anonymous": false,
      "inputs": [
        {
          "indexed": false,
          "internalType": "uint32",
          "name": "_index",
          "type": "uint32"
        },
        {
          "indexed": false,
          "internalType": "address",
          "name": "sender",
          "type": "address"
        },
        {
          "indexed": false,
          "internalType": "uint256",
          "name": "amount",
          "type": "uint256"
        }
      ],
      "name": "Withdrawal",
      "type": "event"
    },
    {
      "inputs": [],
      "name": "ADMIN_ROLE",
      "outputs": [
        {
          "internalType": "bytes32",
          "name": "",
          "type": "bytes32"
        }
      ],
      "stateMutability": "view",
      "type": "function"
    },
    {
      "inputs": [],
      "name": "DEFAULT_ADMIN_ROLE",
      "outputs": [
        {
          "internalType": "bytes32",
          "name": "",
          "type": "bytes32"
        }
      ],
      "stateMutability": "view",
      "type": "function"
    },
    {
      "inputs": [],
      "name": "POLICY_ROLE",
      "outputs": [
        {
          "internalType": "bytes32",
          "name": "",
          "type": "bytes32"
        }
      ],
      "stateMutability": "view",
      "type": "function"
    },
    {
      "inputs": [
        {
          "internalType": "address",
          "name": "account",
          "type": "address"
        }
      ],
      "name": "addAdmin",
      "outputs": [],
      "stateMutability": "nonpayable",
      "type": "function"
    },
    {
      "inputs": [
        {
          "internalType": "address",
          "name": "",
          "type": "address"
        }
      ],
      "name": "aliveImplementation",
      "outputs": [
        {
          "internalType": "bool",
          "name": "",
          "type": "bool"
        }
      ],
      "stateMutability": "view",
      "type": "function"
    },
    {
      "inputs": [
        {
          "internalType": "uint32",
          "name": "layerIndex",
          "type": "uint32"
        },
        {
          "internalType": "address",
          "name": "account",
          "type": "address"
        }
      ],
      "name": "amountOfPendings",
      "outputs": [
        {
          "internalType": "uint256",
          "name": "amount",
          "type": "uint256"
        },
        {
          "internalType": "uint32",
          "name": "startIndex",
          "type": "uint32"
        },
        {
          "internalType": "uint32",
          "name": "len",
          "type": "uint32"
        },
        {
          "internalType": "uint32",
          "name": "nextWithdrawableBlockNumber",
          "type": "uint32"
        }
      ],
      "stateMutability": "view",
      "type": "function"
    },
    {
      "inputs": [
        {
          "internalType": "uint32",
          "name": "_index",
          "type": "uint32"
        },
        {
          "internalType": "address",
          "name": "account",
          "type": "address"
        }
      ],
      "name": "availableWithdraw",
      "outputs": [
        {
          "internalType": "uint256",
          "name": "amount",
          "type": "uint256"
        },
        {
          "internalType": "uint32",
          "name": "startIndex",
          "type": "uint32"
        },
        {
          "internalType": "uint32",
          "name": "len",
          "type": "uint32"
        }
      ],
      "stateMutability": "view",
      "type": "function"
    },
    {
      "inputs": [
        {
          "internalType": "uint32",
          "name": "_index",
          "type": "uint32"
        },
        {
          "internalType": "address",
          "name": "account",
          "type": "address"
        }
      ],
      "name": "balanceOf",
      "outputs": [
        {
          "internalType": "uint256",
          "name": "amount",
          "type": "uint256"
        }
      ],
      "stateMutability": "view",
      "type": "function"
    },
    {
      "inputs": [
        {
          "internalType": "uint32",
          "name": "_index",
          "type": "uint32"
        },
        {
          "internalType": "address",
          "name": "account",
          "type": "address"
        }
      ],
      "name": "balanceOfLton",
      "outputs": [
        {
          "internalType": "uint256",
          "name": "amount",
          "type": "uint256"
        }
      ],
      "stateMutability": "view",
      "type": "function"
    },
    {
      "inputs": [
        {
          "internalType": "uint32",
          "name": "_index",
          "type": "uint32"
        }
      ],
      "name": "balanceOfLton",
      "outputs": [
        {
          "internalType": "uint256",
          "name": "amount",
          "type": "uint256"
        }
      ],
      "stateMutability": "view",
      "type": "function"
    },
    {
      "inputs": [
        {
          "internalType": "uint32",
          "name": "_candidateIndex",
          "type": "uint32"
        },
        {
          "internalType": "bytes",
          "name": "_info",
          "type": "bytes"
        }
      ],
      "name": "create",
      "outputs": [
        {
          "internalType": "bool",
          "name": "",
          "type": "bool"
        }
      ],
      "stateMutability": "nonpayable",
      "type": "function"
    },
    {
      "inputs": [
        {
          "internalType": "uint32",
          "name": "_index",
          "type": "uint32"
        }
      ],
      "name": "existedIndex",
      "outputs": [
        {
          "internalType": "bool",
          "name": "",
          "type": "bool"
        }
      ],
      "stateMutability": "view",
      "type": "function"
    },
    {
      "inputs": [
        {
          "internalType": "bytes32",
          "name": "hashMessage",
          "type": "bytes32"
        },
        {
          "internalType": "uint32",
          "name": "layerIndex",
          "type": "uint32"
        },
        {
          "internalType": "address",
          "name": "from",
          "type": "address"
        },
        {
          "internalType": "address",
          "name": "to",
          "type": "address"
        },
        {
          "internalType": "uint256",
          "name": "amount",
          "type": "uint256"
        }
      ],
      "name": "fastWithdrawClaim",
      "outputs": [
        {
          "internalType": "bool",
          "name": "",
          "type": "bool"
        }
      ],
      "stateMutability": "nonpayable",
      "type": "function"
    },
    {
      "inputs": [
        {
          "internalType": "bytes32",
          "name": "hashMessage",
          "type": "bytes32"
        },
        {
          "internalType": "uint32",
          "name": "layerIndex",
          "type": "uint32"
        },
        {
          "internalType": "address",
          "name": "staker",
          "type": "address"
        },
        {
          "internalType": "uint256",
          "name": "_amount",
          "type": "uint256"
        }
      ],
      "name": "fastWithdrawStake",
      "outputs": [
        {
          "internalType": "bool",
          "name": "",
          "type": "bool"
        }
      ],
      "stateMutability": "nonpayable",
      "type": "function"
    },
    {
      "inputs": [],
      "name": "fwReceipt",
      "outputs": [
        {
          "internalType": "address",
          "name": "",
          "type": "address"
        }
      ],
      "stateMutability": "view",
      "type": "function"
    },
    {
      "inputs": [
        {
          "internalType": "uint32",
          "name": "_index",
          "type": "uint32"
        }
      ],
      "name": "getCandidateInfo",
      "outputs": [
        {
          "components": [
            {
              "internalType": "address",
              "name": "operator",
              "type": "address"
            },
            {
              "internalType": "uint32",
              "name": "sequencerIndex",
              "type": "uint32"
            },
            {
              "internalType": "uint16",
              "name": "commission",
              "type": "uint16"
            }
          ],
          "internalType": "struct LibOperator.Info",
          "name": "info",
          "type": "tuple"
        }
      ],
      "stateMutability": "view",
      "type": "function"
    },
    {
      "inputs": [
        {
          "internalType": "uint32",
          "name": "_index",
          "type": "uint32"
        }
      ],
      "name": "getCandidateKey",
      "outputs": [
        {
          "internalType": "bytes32",
          "name": "layerKey_",
          "type": "bytes32"
        }
      ],
      "stateMutability": "view",
      "type": "function"
    },
    {
      "inputs": [
        {
          "internalType": "uint32",
          "name": "_index",
          "type": "uint32"
        },
        {
          "internalType": "address",
          "name": "account",
          "type": "address"
        }
      ],
      "name": "getLayerStakes",
      "outputs": [
        {
          "components": [
            {
              "internalType": "uint256",
              "name": "stakePrincipal",
              "type": "uint256"
            },
            {
              "internalType": "uint256",
              "name": "bondPrincipal",
              "type": "uint256"
            },
            {
              "internalType": "uint256",
              "name": "stakelton",
              "type": "uint256"
            },
            {
              "internalType": "bool",
              "name": "stake",
              "type": "bool"
            }
          ],
          "internalType": "struct LibStake.StakeInfo",
          "name": "info",
          "type": "tuple"
        }
      ],
      "stateMutability": "view",
      "type": "function"
    },
    {
      "inputs": [
        {
          "internalType": "uint32",
          "name": "_index",
          "type": "uint32"
        },
        {
          "internalType": "address",
          "name": "account",
          "type": "address"
        }
      ],
      "name": "getPendingUnstakedAmount",
      "outputs": [
        {
          "internalType": "uint256",
          "name": "",
          "type": "uint256"
        }
      ],
      "stateMutability": "view",
      "type": "function"
    },
    {
      "inputs": [
        {
          "internalType": "bytes32",
          "name": "role",
          "type": "bytes32"
        }
      ],
      "name": "getRoleAdmin",
      "outputs": [
        {
          "internalType": "bytes32",
          "name": "",
          "type": "bytes32"
        }
      ],
      "stateMutability": "view",
      "type": "function"
    },
    {
      "inputs": [],
      "name": "getStakeAccountList",
      "outputs": [
        {
          "internalType": "address[]",
          "name": "",
          "type": "address[]"
        }
      ],
      "stateMutability": "view",
      "type": "function"
    },
    {
      "inputs": [],
      "name": "getTotalLton",
      "outputs": [
        {
          "internalType": "uint256",
          "name": "",
          "type": "uint256"
        }
      ],
      "stateMutability": "view",
      "type": "function"
    },
    {
      "inputs": [
        {
          "internalType": "bytes32",
          "name": "role",
          "type": "bytes32"
        },
        {
          "internalType": "address",
          "name": "account",
          "type": "address"
        }
      ],
      "name": "grantRole",
      "outputs": [],
      "stateMutability": "nonpayable",
      "type": "function"
    },
    {
      "inputs": [
        {
          "internalType": "bytes32",
          "name": "role",
          "type": "bytes32"
        },
        {
          "internalType": "address",
          "name": "account",
          "type": "address"
        }
      ],
      "name": "hasRole",
      "outputs": [
        {
          "internalType": "bool",
          "name": "",
          "type": "bool"
        }
      ],
      "stateMutability": "view",
      "type": "function"
    },
    {
      "inputs": [
        {
          "internalType": "address",
          "name": "account",
          "type": "address"
        }
      ],
      "name": "isAdmin",
      "outputs": [
        {
          "internalType": "bool",
          "name": "",
          "type": "bool"
        }
      ],
      "stateMutability": "view",
      "type": "function"
    },
    {
      "inputs": [
        {
          "internalType": "uint32",
          "name": "_index",
          "type": "uint32"
        }
      ],
      "name": "layer2Deposits",
      "outputs": [
        {
          "internalType": "uint256",
          "name": "amount",
          "type": "uint256"
        }
      ],
      "stateMutability": "view",
      "type": "function"
    },
    {
      "inputs": [],
      "name": "layer2Manager",
      "outputs": [
        {
          "internalType": "address",
          "name": "",
          "type": "address"
        }
      ],
      "stateMutability": "view",
      "type": "function"
    },
    {
      "inputs": [
        {
          "internalType": "uint32",
          "name": "",
          "type": "uint32"
        }
      ],
      "name": "layerInfo",
      "outputs": [
        {
          "internalType": "bytes",
          "name": "",
          "type": "bytes"
        }
      ],
      "stateMutability": "view",
      "type": "function"
    },
    {
      "inputs": [
        {
          "internalType": "uint32",
          "name": "",
          "type": "uint32"
        }
      ],
      "name": "layerStakedLton",
      "outputs": [
        {
          "internalType": "uint256",
          "name": "",
          "type": "uint256"
        }
      ],
      "stateMutability": "view",
      "type": "function"
    },
    {
      "inputs": [
        {
          "internalType": "uint32",
          "name": "",
          "type": "uint32"
        },
        {
          "internalType": "address",
          "name": "",
          "type": "address"
        }
      ],
      "name": "layerStakes",
      "outputs": [
        {
          "internalType": "uint256",
          "name": "stakePrincipal",
          "type": "uint256"
        },
        {
          "internalType": "uint256",
          "name": "bondPrincipal",
          "type": "uint256"
        },
        {
          "internalType": "uint256",
          "name": "stakelton",
          "type": "uint256"
        },
        {
          "internalType": "bool",
          "name": "stake",
          "type": "bool"
        }
      ],
      "stateMutability": "view",
      "type": "function"
    },
    {
      "inputs": [
        {
          "internalType": "uint32",
          "name": "layerIndex",
          "type": "uint32"
        },
        {
          "internalType": "address",
          "name": "account",
          "type": "address"
        }
      ],
      "name": "numberOfPendings",
      "outputs": [
        {
          "internalType": "uint256",
          "name": "totalRequests",
          "type": "uint256"
        },
        {
          "internalType": "uint256",
          "name": "withdrawIndex",
          "type": "uint256"
        },
        {
          "internalType": "uint256",
          "name": "pendingLength",
          "type": "uint256"
        }
      ],
      "stateMutability": "view",
      "type": "function"
    },
    {
      "inputs": [
        {
          "internalType": "address",
          "name": "sender",
          "type": "address"
        },
        {
          "internalType": "address",
          "name": "spender",
          "type": "address"
        },
        {
          "internalType": "uint256",
          "name": "amount",
          "type": "uint256"
        },
        {
          "internalType": "bytes",
          "name": "data",
          "type": "bytes"
        }
      ],
      "name": "onApprove",
      "outputs": [
        {
          "internalType": "bool",
          "name": "",
          "type": "bool"
        }
      ],
      "stateMutability": "nonpayable",
      "type": "function"
    },
    {
      "inputs": [
        {
          "internalType": "uint32",
          "name": "_index",
          "type": "uint32"
        }
      ],
      "name": "operator",
      "outputs": [
        {
          "internalType": "address",
          "name": "operator_",
          "type": "address"
        }
      ],
      "stateMutability": "view",
      "type": "function"
    },
    {
      "inputs": [
        {
          "internalType": "uint32",
          "name": "",
          "type": "uint32"
        },
        {
          "internalType": "address",
          "name": "",
          "type": "address"
        }
      ],
      "name": "operators",
      "outputs": [
        {
          "internalType": "uint32",
          "name": "",
          "type": "uint32"
        }
      ],
      "stateMutability": "view",
      "type": "function"
    },
    {
      "inputs": [],
      "name": "pauseProxy",
      "outputs": [
        {
          "internalType": "bool",
          "name": "",
          "type": "bool"
        }
      ],
      "stateMutability": "view",
      "type": "function"
    },
    {
      "inputs": [
        {
          "internalType": "uint32",
          "name": "",
          "type": "uint32"
        },
        {
          "internalType": "address",
          "name": "",
          "type": "address"
        }
      ],
      "name": "pendingUnstaked",
      "outputs": [
        {
          "internalType": "uint256",
          "name": "",
          "type": "uint256"
        }
      ],
      "stateMutability": "view",
      "type": "function"
    },
    {
      "inputs": [
        {
          "internalType": "address",
          "name": "",
          "type": "address"
        }
      ],
      "name": "pendingUnstakedAccount",
      "outputs": [
        {
          "internalType": "uint256",
          "name": "",
          "type": "uint256"
        }
      ],
      "stateMutability": "view",
      "type": "function"
    },
    {
      "inputs": [
        {
          "internalType": "uint32",
          "name": "",
          "type": "uint32"
        }
      ],
      "name": "pendingUnstakedLayer2",
      "outputs": [
        {
          "internalType": "uint256",
          "name": "",
          "type": "uint256"
        }
      ],
      "stateMutability": "view",
      "type": "function"
    },
    {
      "inputs": [
        {
          "internalType": "uint256",
          "name": "",
          "type": "uint256"
        }
      ],
      "name": "proxyImplementation",
      "outputs": [
        {
          "internalType": "address",
          "name": "",
          "type": "address"
        }
      ],
      "stateMutability": "view",
      "type": "function"
    },
    {
      "inputs": [
        {
          "internalType": "address",
          "name": "account",
          "type": "address"
        }
      ],
      "name": "removeAdmin",
      "outputs": [],
      "stateMutability": "nonpayable",
      "type": "function"
    },
    {
      "inputs": [
        {
          "internalType": "bytes32",
          "name": "role",
          "type": "bytes32"
        },
        {
          "internalType": "address",
          "name": "account",
          "type": "address"
        }
      ],
      "name": "renounceRole",
      "outputs": [],
      "stateMutability": "nonpayable",
      "type": "function"
    },
    {
      "inputs": [
        {
          "internalType": "uint32",
          "name": "_index",
          "type": "uint32"
        }
      ],
      "name": "restake",
      "outputs": [],
      "stateMutability": "nonpayable",
      "type": "function"
    },
    {
      "inputs": [
        {
          "internalType": "uint32",
          "name": "_index",
          "type": "uint32"
        },
        {
          "internalType": "uint256",
          "name": "n",
          "type": "uint256"
        }
      ],
      "name": "restakeMulti",
      "outputs": [],
      "stateMutability": "nonpayable",
      "type": "function"
    },
    {
      "inputs": [
        {
          "internalType": "bytes32",
          "name": "role",
          "type": "bytes32"
        },
        {
          "internalType": "address",
          "name": "account",
          "type": "address"
        }
      ],
      "name": "revokeRole",
      "outputs": [],
      "stateMutability": "nonpayable",
      "type": "function"
    },
    {
      "inputs": [],
      "name": "seigManagerV2",
      "outputs": [
        {
          "internalType": "address",
          "name": "",
          "type": "address"
        }
      ],
      "stateMutability": "view",
      "type": "function"
    },
    {
      "inputs": [
        {
          "internalType": "bytes4",
          "name": "",
          "type": "bytes4"
        }
      ],
      "name": "selectorImplementation",
      "outputs": [
        {
          "internalType": "address",
          "name": "",
          "type": "address"
        }
      ],
      "stateMutability": "view",
      "type": "function"
    },
    {
      "inputs": [
        {
          "internalType": "uint32",
          "name": "_index",
          "type": "uint32"
        },
        {
          "internalType": "uint256",
          "name": "amount",
          "type": "uint256"
        }
      ],
      "name": "stake",
      "outputs": [],
      "stateMutability": "nonpayable",
      "type": "function"
    },
    {
      "inputs": [
        {
          "internalType": "uint256",
          "name": "",
          "type": "uint256"
        }
      ],
      "name": "stakeAccountList",
      "outputs": [
        {
          "internalType": "address",
          "name": "",
          "type": "address"
        }
      ],
      "stateMutability": "view",
      "type": "function"
    },
    {
      "inputs": [
        {
          "internalType": "bytes4",
          "name": "interfaceId",
          "type": "bytes4"
        }
      ],
      "name": "supportsInterface",
      "outputs": [
        {
          "internalType": "bool",
          "name": "",
          "type": "bool"
        }
      ],
      "stateMutability": "view",
      "type": "function"
    },
    {
      "inputs": [],
      "name": "ton",
      "outputs": [
        {
          "internalType": "address",
          "name": "",
          "type": "address"
        }
      ],
      "stateMutability": "view",
      "type": "function"
    },
    {
      "inputs": [],
      "name": "totalLayer2Deposits",
      "outputs": [
        {
          "internalType": "uint256",
          "name": "amount",
          "type": "uint256"
        }
      ],
      "stateMutability": "view",
      "type": "function"
    },
    {
      "inputs": [],
      "name": "totalStakeAccountList",
      "outputs": [
        {
          "internalType": "uint256",
          "name": "",
          "type": "uint256"
        }
      ],
      "stateMutability": "view",
      "type": "function"
    },
    {
      "inputs": [],
      "name": "totalStakedLton",
      "outputs": [
        {
          "internalType": "uint256",
          "name": "",
          "type": "uint256"
        }
      ],
      "stateMutability": "view",
      "type": "function"
    },
    {
      "inputs": [
        {
          "internalType": "address",
          "name": "newAdmin",
          "type": "address"
        }
      ],
      "name": "transferAdmin",
      "outputs": [],
      "stateMutability": "nonpayable",
      "type": "function"
    },
    {
      "inputs": [
        {
          "internalType": "uint32",
          "name": "_index",
          "type": "uint32"
        },
        {
          "internalType": "uint256",
          "name": "lton_",
          "type": "uint256"
        }
      ],
      "name": "unstake",
      "outputs": [],
      "stateMutability": "nonpayable",
      "type": "function"
    },
    {
      "inputs": [
        {
          "internalType": "uint32",
          "name": "_index",
          "type": "uint32"
        }
      ],
      "name": "withdraw",
      "outputs": [],
      "stateMutability": "nonpayable",
      "type": "function"
    },
    {
      "inputs": [
        {
          "internalType": "uint32",
          "name": "",
          "type": "uint32"
        },
        {
          "internalType": "address",
          "name": "",
          "type": "address"
        }
      ],
      "name": "withdrawalRequestIndex",
      "outputs": [
        {
          "internalType": "uint256",
          "name": "",
          "type": "uint256"
        }
      ],
      "stateMutability": "view",
      "type": "function"
    },
    {
      "inputs": [
        {
          "internalType": "uint32",
          "name": "",
          "type": "uint32"
        },
        {
          "internalType": "address",
          "name": "",
          "type": "address"
        },
        {
          "internalType": "uint256",
          "name": "",
          "type": "uint256"
        }
      ],
      "name": "withdrawalRequests",
      "outputs": [
        {
          "internalType": "uint32",
          "name": "withdrawableBlockNumber",
          "type": "uint32"
        },
        {
          "internalType": "uint128",
          "name": "amount",
          "type": "uint128"
        },
        {
          "internalType": "bool",
          "name": "processed",
          "type": "bool"
        }
      ],
      "stateMutability": "view",
      "type": "function"
    }
  ],
  "bytecode": "0x60806040526006805460ff1916600117905534801561001d57600080fd5b506148628061002d6000396000f3fe608060405234801561001057600080fd5b506004361061038e5760003560e01c806375b238fc116101de5780639c656e261161010f578063b969fbef116100ad578063d547741f1161007c578063d547741f14610a85578063df2b429014610a98578063ec110d4514610aab578063fde4819714610abe57600080fd5b8063b969fbef14610a32578063b9cab97114610a3a578063cc48b94714610a5a578063d07918f114610a7257600080fd5b8063aa9224cd116100e9578063aa9224cd146109c0578063b413b37a146109d3578063b6a2f99d146109db578063b911135f14610a0957600080fd5b80639c656e2614610933578063a0b2a91314610998578063a217fddf146109b857600080fd5b80638afec9fc1161017c5780638ddd87fe116101565780638ddd87fe1461089857806391d14854146108d657806394c89b2c1461090d5780639c2f614f1461092057600080fd5b80638afec9fc1461082a5780638c71762d146108505780638d99e1ca1461088557600080fd5b80637d211a1c116101b85780637d211a1c146107de5780637ec6840f146107f157806385b9e4851461080457806387dd8bd01461081757600080fd5b806375b238fc14610779578063763936c7146107a05780637cf1587c146107b357600080fd5b80634e1a264d116102c3578063659ab820116102615780637138c792116102305780637138c7921461072d57806373469a7a14610740578063744a35611461075357806375829def1461076657600080fd5b8063659ab8201461069b5780636d1ef103146106bb57806370480275146106fa57806370619cf91461070d57600080fd5b8063550d01a31161029d578063550d01a3146105d05780635e2cfe45146105f35780635f1b989e1461061e57806363a8fd891461068e57600080fd5b80634e1a264d146105565780634f818d0c1461055f57806350d2a276146105a757600080fd5b8063248a9ca31161033057806336568abe1161030a57806336568abe146105135780634273ca161461052657806346bcdb49146105395780634de131ca1461054157600080fd5b8063248a9ca3146104ca57806324d7806c146104ed5780632f2ff15d1461050057600080fd5b80631785f53c1161036c5780631785f53c146103fb5780631ed944951461040e5780631f760d0114610456578063229852461461049557600080fd5b806301ffc9a714610393578063118e29d1146103bb57806316b5d5bd146103d0575b600080fd5b6103a66103a1366004613fc6565b610b04565b60405190151581526020015b60405180910390f35b6103ce6103c9366004614002565b610b3b565b005b6008546103e3906001600160a01b031681565b6040516001600160a01b0390911681526020016103b2565b6103ce610409366004614034565b610bb0565b61042161041c366004614051565b610c3d565b6040516103b2919081518152602080830151908201526040808301519082015260609182015115159181019190915260800190565b610469610464366004614051565b610ccf565b6040805194855263ffffffff9384166020860152918316918401919091521660608201526080016103b2565b6104bc7ffb5864e8ff833c3cb2d2d08505e82ff02a43554c74a35d4f5a64e8526127831181565b6040519081526020016103b2565b6104bc6104d836600461408a565b60009081526020819052604090206001015490565b6103a66104fb366004614034565b610e0d565b6103ce61050e3660046140a3565b610e4d565b6103ce6105213660046140a3565b610e77565b6103a66105343660046140c8565b610eff565b6013546104bc565b6105496110af565b6040516103b29190614167565b6104bc600a5481565b61057261056d366004614002565b611111565b6040805182516001600160a01b0316815260208084015163ffffffff16908201529181015161ffff16908201526060016103b2565b6103e36105b5366004613fc6565b6004602052600090815260409020546001600160a01b031681565b6103a66105de366004614034565b60036020526000908152604090205460ff1681565b6104bc610601366004614051565b600f60209081526000928352604080842090915290825290205481565b6104bc61062c366004614051565b63ffffffff9091166000908152600c602090815260408083206001600160a01b0390941683529281529082902082516080810184528154815260018201549281019290925260028101549282018390526003015460ff16151560609091015290565b6001546103a69060ff1681565b6106ae6106a9366004614002565b6111b5565b6040516103b29190614204565b6106ce6106c9366004614217565b61124f565b6040805163ffffffff90941684526001600160801b0390921660208401521515908201526060016103b2565b6103ce610708366004614034565b6112ae565b6104bc61071b366004614002565b600b6020526000908152604090205481565b6103a661073b366004614258565b611338565b6007546103e3906001600160a01b031681565b6103ce6107613660046142a0565b611500565b6103ce610774366004614034565b61156b565b6104bc7fdf8b4c520ffe197c5343c6f5aec59570151ef9a492f2c624fd45ddde6135ec4281565b6103e36107ae366004614002565b6116cd565b6104bc6107c1366004614051565b600e60209081526000928352604080842090915290825290205481565b6103a66107ec366004614002565b61178e565b6103ce6107ff3660046142a0565b611855565b6103a66108123660046142cc565b6118fd565b6104bc610825366004614002565b611b98565b6104bc610838366004614002565b63ffffffff166000908152600b602052604090205490565b61086361085e366004614051565b611c83565b6040805193845263ffffffff92831660208501529116908201526060016103b2565b6104bc610893366004614002565b611dc0565b6104bc6108a6366004614051565b63ffffffff82166000908152600f602090815260408083206001600160a01b038516845290915290205492915050565b6103a66108e43660046140a3565b6000918252602082815260408084206001600160a01b0393909316845291905290205460ff1690565b6104bc61091b366004614051565b611e33565b6103ce61092e3660046142a0565b611f06565b610976610941366004614051565b600c60209081526000928352604080842090915290825290208054600182015460028301546003909301549192909160ff1684565b60408051948552602085019390935291830152151560608201526080016103b2565b6104bc6109a6366004614034565b60116020526000908152604090205481565b6104bc600081565b6103ce6109ce366004614002565b612036565b600a546104bc565b6109ee6109e9366004614051565b61244b565b604080519384526020840192909252908201526060016103b2565b6103e3610a1736600461408a565b6002602052600090815260409020546001600160a01b031681565b6104bc6124a6565b6104bc610a48366004614002565b60106020526000908152604090205481565b6006546103e39061010090046001600160a01b031681565b6009546103e3906001600160a01b031681565b6103ce610a933660046140a3565b612519565b6103a6610aa636600461436e565b61253e565b6103e3610ab936600461408a565b612897565b610aef610acc366004614051565b601460209081526000928352604080842090915290825290205463ffffffff1681565b60405163ffffffff90911681526020016103b2565b60006001600160e01b03198216637965db0b60e01b1480610b3557506301ffc9a760e01b6001600160e01b03198316145b92915050565b63ffffffff81166000908152600e602090815260408083203380855292529091205490610b6c9083908360016128c1565b610bac5760405162461bcd60e51b815260206004820152600c60248201526b534c5f455f52455354414b4560a01b60448201526064015b60405180910390fd5b5050565b610bb933610e0d565b610c105760405162461bcd60e51b815260206004820152602260248201527f41636365737369626c653a2043616c6c6572206973206e6f7420616e2061646d60448201526134b760f11b6064820152608401610ba3565b610c3a7fdf8b4c520ffe197c5343c6f5aec59570151ef9a492f2c624fd45ddde6135ec4282610e77565b50565b610c6a60405180608001604052806000815260200160008152602001600081526020016000151581525090565b5063ffffffff9091166000908152600c602090815260408083206001600160a01b0390941683529281529082902082516080810184528154815260018201549281019290925260028101549282019290925260039091015460ff161515606082015290565b63ffffffff8083166000818152600d602090815260408083206001600160a01b03871680855290835281842054948452600e835281842090845290915281205490929091839182919084165b81811015610e025763ffffffff88166000908152600d602090815260408083206001600160a01b038b1684529091528120805483908110610d5e57610d5e614416565b6000918252602080832060408051606081018252939091015463ffffffff8116845264010000000081046001600160801b031692840192909252600160a01b90910460ff1615159082018190529092509003610def578363ffffffff16600003610dc757805193505b6020810151610ddf906001600160801b031688614442565b9650610dec600186614455565b94505b5080610dfa81614479565b915050610d1b565b505092959194509250565b6001600160a01b03811660009081527f5cbfc8ee58ca47855df7bcf648dd304ddb6b932f9b87878bdf6318d7ec7ee5b7602052604081205460ff16610b35565b600082815260208190526040902060010154610e6881612d6e565b610e728383612d78565b505050565b6001600160a01b0381163314610ef55760405162461bcd60e51b815260206004820152602f60248201527f416363657373436f6e74726f6c3a2063616e206f6e6c792072656e6f756e636560448201527f20726f6c657320666f722073656c6600000000000000000000000000000000006064820152608401610ba3565b610bac8282612e16565b60065460009061010090046001600160a01b03163314610f465760405162461bcd60e51b8152602060048201526002602482015261454160f01b6044820152606401610ba3565b610f8d6107ec600085858080601f0160208091040260200160405190810160405280939291908181526020018383808284376000920191909152509293925050612e959050565b610fd95760405162461bcd60e51b815260206004820152601860248201527f6e6f6e2d726567697374657265642063616e64696461746500000000000000006044820152606401610ba3565b600061101f600085858080601f0160208091040260200160405190810160405280939291908181526020018383808284376000920191909152509293925050612e959050565b90508415611044576006546110449061010090046001600160a01b0316883088612f55565b600061104f82611111565b9050806040015161ffff1660001480611074575080516001600160a01b038981169116145b1561108c57611087828988600080613079565b6110a1565b6110a182898884600001518560400151613079565b506001979650505050505050565b6060601380548060200260200160405190810160405280929190818152602001828054801561110757602002820191906000526020600020905b81546001600160a01b031681526001909101906020018083116110e9575b5050505050905090565b604080516060810182526000808252602080830182905282840182905263ffffffff8516825260129052829020915163186ca86f60e21b8152909173__$d436d56fec194dfaaabaf06742f0275c03$__916361b2a1bc91611174916004016144c6565b606060405180830381865af4158015611191573d6000803e3d6000fd5b505050506040513d601f19601f82011682018060405250810190610b359190614551565b601260205260009081526040902080546111ce90614492565b80601f01602080910402602001604051908101604052809291908181526020018280546111fa90614492565b80156112475780601f1061121c57610100808354040283529160200191611247565b820191906000526020600020905b81548152906001019060200180831161122a57829003601f168201915b505050505081565b600d602052826000526040600020602052816000526040600020818154811061127757600080fd5b60009182526020909120015463ffffffff8116935064010000000081046001600160801b03169250600160a01b900460ff16905083565b6112b733610e0d565b61130e5760405162461bcd60e51b815260206004820152602260248201527f41636365737369626c653a2043616c6c6572206973206e6f7420616e2061646d60448201526134b760f11b6064820152608401610ba3565b610c3a7fdf8b4c520ffe197c5343c6f5aec59570151ef9a492f2c624fd45ddde6135ec4282610e4d565b6009546000906001600160a01b031633146113855760405162461bcd60e51b815260206004820152600d60248201526c232bafa1a0a62622a92fa2a92960991b6044820152606401610ba3565b600754604051636a2fb1f560e01b8152600481018490526000916001600160a01b031690636a2fb1f590602401602060405180830381865afa1580156113cf573d6000803e3d6000fd5b505050506040513d601f19601f820116820180604052508101906113f391906145ca565b63ffffffff86166000908152600b602052604081208054929350839290919061141d908490614442565b9250508190555080600a60008282546114369190614442565b909155505063ffffffff85166000908152600c602090815260408083206001600160a01b03881684529091528120805490918591839190611478908490614442565b92505081905550818160020160008282546114939190614442565b90915550506040805188815263ffffffff881660208201526001600160a01b03871681830152606081018690526080810184905290517f8cf204c07a4ce065cdd0c90963672bd384e5479ada88179bca8eb6075c02731f9181900360a00190a15060019695505050505050565b63ffffffff82166000908152600e60209081526040808320338085529252909120549061153090849083856128c1565b610e725760405162461bcd60e51b815260206004820152600c60248201526b534c5f455f52455354414b4560a01b6044820152606401610ba3565b61157433610e0d565b6115cb5760405162461bcd60e51b815260206004820152602260248201527f41636365737369626c653a2043616c6c6572206973206e6f7420616e2061646d60448201526134b760f11b6064820152608401610ba3565b6001600160a01b0381166116215760405162461bcd60e51b815260206004820152601860248201527f41636365737369626c653a207a65726f206164647265737300000000000000006044820152606401610ba3565b6001600160a01b03811633036116795760405162461bcd60e51b815260206004820152601660248201527f41636365737369626c653a2073616d652061646d696e000000000000000000006044820152606401610ba3565b6116a37fdf8b4c520ffe197c5343c6f5aec59570151ef9a492f2c624fd45ddde6135ec4282610e4d565b610c3a7fdf8b4c520ffe197c5343c6f5aec59570151ef9a492f2c624fd45ddde6135ec4233610e77565b63ffffffff8116600090815260126020526040812080548291906116f090614492565b80601f016020809104026020016040519081016040528092919081815260200182805461171c90614492565b80156117695780601f1061173e57610100808354040283529160200191611769565b820191906000526020600020905b81548152906001019060200180831161174c57829003601f168201915b505050505090506017815111156117885761178581600061346d565b91505b50919050565b600854604051635d170f8f60e01b815263ffffffff831660048201526000916001600160a01b031690635d170f8f90602401602060405180830381865afa1580156117dd573d6000803e3d6000fd5b505050506040513d601f19601f8201168201806040525081019061180191906145e3565b61184d5760405162461bcd60e51b815260206004820152601460248201527f6e6f6e2d72656769737465726564206c617965720000000000000000000000006044820152606401610ba3565b506001919050565b61185e8261178e565b6118aa5760405162461bcd60e51b815260206004820152601860248201527f6e6f6e2d726567697374657265642063616e64696461746500000000000000006044820152606401610ba3565b60006118b583611111565b9050806040015161ffff16600014806118d7575080516001600160a01b031633145b156118e957610e72838360008061352d565b610e7283838360000151846040015161352d565b60065460009060ff1661193b5760405162461bcd60e51b8152600401610ba3906020808252600490820152636c6f636b60e01b604082015260600190565b6006805460ff191690556009546001600160a01b0316331461198f5760405162461bcd60e51b815260206004820152600d60248201526c232bafa1a0a62622a92fa2a92960991b6044820152606401610ba3565b8161199a8686611e33565b10156119e85760405162461bcd60e51b815260206004820152601960248201527f6c697175696469747920697320696e73756666696369656e74000000000000006044820152606401610ba3565b6006546040516370a0823160e01b815230600482015260009161010090046001600160a01b0316906370a0823190602401602060405180830381865afa158015611a36573d6000803e3d6000fd5b505050506040513d601f19601f82011682018060405250810190611a5a91906145ca565b905082811015611b05578015611a8657600654611a869061010090046001600160a01b0316858361355d565b6007546001600160a01b031663aad3ec9685611aa28487614605565b6040516001600160e01b031960e085901b1681526001600160a01b0390921660048301526024820152604401600060405180830381600087803b158015611ae857600080fd5b505af1158015611afc573d6000803e3d6000fd5b50505050611b21565b600654611b219061010090046001600160a01b0316858561355d565b6040805188815263ffffffff881660208201526001600160a01b0387811682840152861660608201526080810185905290517f77fbf71434da34ef2aa8382e2b751b6b2de7bd18d96a07ff7f4dae7dae9237619181900360a00190a160019150506006805460ff1916600117905595945050505050565b63ffffffff811660009081526012602052604081208054829190611bbb90614492565b80601f0160208091040260200160405190810160405280929190818152602001828054611be790614492565b8015611c345780601f10611c0957610100808354040283529160200191611c34565b820191906000526020600020905b815481529060010190602001808311611c1757829003601f168201915b50505050509050611c5260006018836136789092919063ffffffff16565b6000604051602001611c65929190614618565b60405160208183030381529060405280519060200120915050919050565b63ffffffff8083166000818152600d602090815260408083206001600160a01b03871680855290835281842054948452600e835281842090845290915281205490929091839183165b81811015611db75763ffffffff87166000908152600d602090815260408083206001600160a01b038a1684529091528120805483908110611d0f57611d0f614416565b600091825260209182902060408051606081018252929091015463ffffffff811680845264010000000082046001600160801b031694840194909452600160a01b900460ff16151590820152915043118015611d6d57506040810151155b15611d9e576020810151611d8a906001600160801b031687614442565b9550611d97600185614455565b9350611da4565b50611db7565b5080611daf81614479565b915050611ccc565b50509250925092565b6008546040516346ccf0e560e11b815263ffffffff831660048201526000916001600160a01b031690638d99e1ca90602401602060405180830381865afa158015611e0f573d6000803e3d6000fd5b505050506040513d601f19601f82011682018060405250810190610b3591906145ca565b60075463ffffffff83166000908152600c602090815260408083206001600160a01b03868116855290835281842082516080810184528154815260018201549481019490945260028101549284018390526003015460ff1615156060909301929092529192169063cdf68009906040518263ffffffff1660e01b8152600401611ebe91815260200190565b602060405180830381865afa158015611edb573d6000803e3d6000fd5b505050506040513d601f19601f82011682018060405250810190611eff91906145ca565b9392505050565b600954604051630265991f60e61b81526001600482015263ffffffff841660248201523360448201526000916001600160a01b03169063996647c090606401602060405180830381865afa158015611f62573d6000803e3d6000fd5b505050506040513d601f19601f82011682018060405250810190611f8691906145ca565b9050611f91836116cd565b6001600160a01b0316330361202b57610e728383600860009054906101000a90046001600160a01b03166001600160a01b031663a4dd8b7d6040518163ffffffff1660e01b8152600401602060405180830381865afa158015611ff8573d6000803e3d6000fd5b505050506040513d601f19601f8201168201806040525081019061201c91906145ca565b6120269085614442565b6137db565b610e728383836137db565b60065460ff166120715760405162461bcd60e51b8152600401610ba3906020808252600490820152636c6f636b60e01b604082015260600190565b6006805460ff1916905563ffffffff81166000818152600d602090815260408083203380855290835281842054948452600e83528184208185529092528220549092919081905b8381101561218a5763ffffffff86166000908152600d602090815260408083206001600160a01b038916845290915281208054839081106120fb576120fb614416565b600091825260209091200180549091504363ffffffff90911610801561212a57508054600160a01b900460ff16155b1561217157805460ff60a01b1916600160a01b1780825561215d906001600160801b036401000000009091041684614442565b92508361216981614479565b945050612177565b5061218a565b508061218281614479565b9150506120b8565b50600081116121db5760405162461bcd60e51b815260206004820181905260248201527f7a65726f20617661696c61626c65207769746864726177616c20616d6f756e746044820152606401610ba3565b63ffffffff85166000908152600e602090815260408083206001600160a01b038816845290915281208054849290612214908490614442565b909155505063ffffffff85166000908152600f602090815260408083206001600160a01b038816845290915281208054839290612252908490614605565b909155505063ffffffff85166000908152601060205260408120805483929061227c908490614605565b90915550506001600160a01b038416600090815260116020526040812080548392906122a9908490614605565b90915550506006546040516370a0823160e01b815230600482015260009161010090046001600160a01b0316906370a0823190602401602060405180830381865afa1580156122fc573d6000803e3d6000fd5b505050506040513d601f19601f8201168201806040525081019061232091906145ca565b9050818110156123cb57801561234c5760065461234c9061010090046001600160a01b0316868361355d565b6007546001600160a01b031663aad3ec96866123688486614605565b6040516001600160e01b031960e085901b1681526001600160a01b0390921660048301526024820152604401600060405180830381600087803b1580156123ae57600080fd5b505af11580156123c2573d6000803e3d6000fd5b505050506123e7565b6006546123e79061010090046001600160a01b0316868461355d565b6040805163ffffffff881681526001600160a01b03871660208201529081018390527f2d6eb139d2002caa088da5527d9d62f2f23bdf4504f5559a112535c436c6ee599060600160405180910390a150506006805460ff1916600117905550505050565b63ffffffff82166000818152600d602090815260408083206001600160a01b03861680855290835281842054948452600e83528184209084529091528120549081831061249f5761249c8284614605565b90505b9250925092565b6008546040805163b969fbef60e01b815290516000926001600160a01b03169163b969fbef9160048083019260209291908290030181865afa1580156124f0573d6000803e3d6000fd5b505050506040513d601f19601f8201168201806040525081019061251491906145ca565b905090565b60008281526020819052604090206001015461253481612d6e565b610e728383612e16565b6008546000906001600160a01b0316331461259b5760405162461bcd60e51b815260206004820152601160248201527f6e6f74204c61796572324d616e616765720000000000000000000000000000006044820152606401610ba3565b63ffffffff8316600090815260126020526040902080546125bb90614492565b15905061260a5760405162461bcd60e51b815260206004820152600f60248201527f616c7265616479206372656174656400000000000000000000000000000000006044820152606401610ba3565b603982511161265b5760405162461bcd60e51b815260206004820152600b60248201527f77726f6e67205f696e666f0000000000000000000000000000000000000000006044820152606401610ba3565b60405163186ca86f60e21b815260009073__$d436d56fec194dfaaabaf06742f0275c03$__906361b2a1bc90612695908690600401614204565b606060405180830381865af41580156126b2573d6000803e3d6000fd5b505050506040513d601f19601f820116820180604052508101906126d69190614551565b60208082015163ffffffff908116600090815260148352604080822085516001600160a01b03168352909352919091205491925016156127585760405162461bcd60e51b815260206004820152600e60248201527f616c7265616420657869737465640000000000000000000000000000000000006044820152606401610ba3565b61271061ffff16816040015161ffff16106127b55760405162461bcd60e51b815260206004820152600e60248201527f636f6d6d697373696f6e206572720000000000000000000000000000000000006044820152606401610ba3565b60006127c284601a613cd8565b90506127d1846000601a613678565b6040516020016127e19190614662565b60408051601f1981840301815291815263ffffffff871660009081526012602052209061280e90826146c4565b5060208281015163ffffffff908116600090815260148352604080822086516001600160a01b0316835290935291909120805463ffffffff1916918716919091179055801561288c5760085460065461287a916001600160a01b03610100909204821691163084612f55565b61288c85836000015183600080613079565b506001949350505050565b601381815481106128a757600080fd5b6000918252602090912001546001600160a01b0316905081565b60065460009060ff166128ff5760405162461bcd60e51b8152600401610ba3906020808252600490820152636c6f636b60e01b604082015260600190565b6006805460ff1916905563ffffffff85166000908152600d602090815260408083206001600160a01b03881684529091528120548061296d5760405162461bcd60e51b815260206004820152600a6024820152696e6f20756e7374616b6560b01b6044820152606401610ba3565b836129788683614605565b10156129c65760405162461bcd60e51b815260206004820152601860248201527f6e2065786365656473206e756d206f662070656e64696e6700000000000000006044820152606401610ba3565b60006129d28587614442565b90505b80861015612ac85763ffffffff88166000908152600d602090815260408083206001600160a01b038b1684529091528120805488908110612a1857612a18614416565b6000918252602090912001805490915064010000000081046001600160801b031690600160a01b900460ff1615612a915760405162461bcd60e51b815260206004820152601260248201527f616c7265616479207769746864726177616c00000000000000000000000000006044820152606401610ba3565b8015612aa457612aa18186614442565b94505b50805460ff60a01b1916600160a01b17905585612ac081614479565b9650506129d5565b60008311612b185760405162461bcd60e51b815260206004820152601760248201527f6e6f2076616c69642072657374616b6520616d6f756e740000000000000000006044820152606401610ba3565b600754604051636a2fb1f560e01b8152600481018590526000916001600160a01b031690636a2fb1f590602401602060405180830381865afa158015612b62573d6000803e3d6000fd5b505050506040513d601f19601f82011682018060405250810190612b8691906145ca565b63ffffffff8a166000908152600c602090815260408083206001600160a01b038d168452909152812080549293509186918391612bc4908490614442565b9250508190555081816002016000828254612bdf9190614442565b909155505063ffffffff8a166000908152600b602052604081208054849290612c09908490614442565b9250508190555081600a6000828254612c229190614442565b909155505063ffffffff8a166000908152600f602090815260408083206001600160a01b038d16845290915281208054879290612c60908490614605565b909155505063ffffffff8a1660009081526010602052604081208054879290612c8a908490614605565b90915550506001600160a01b03891660009081526011602052604081208054879290612cb7908490614605565b909155505063ffffffff8a166000908152600e602090815260408083206001600160a01b038d16845290915281208054899290612cf5908490614442565b90915550506040805163ffffffff8c1681526001600160a01b038b166020820152908101869052606081018390527f34981dc0486069d2abbaddbc42e10b97cb24e4bce60ee4457e1d5062dfc0b4299060800160405180910390a16001955050505050506006805460ff19166001179055949350505050565b610c3a8133613d98565b6000828152602081815260408083206001600160a01b038516845290915290205460ff16610bac576000828152602081815260408083206001600160a01b03851684529091529020805460ff19166001179055612dd23390565b6001600160a01b0316816001600160a01b0316837f2f8788117e7eff1d82e926ec794901d17c78024a50270940304540a733656f0d60405160405180910390a45050565b6000828152602081815260408083206001600160a01b038516845290915290205460ff1615610bac576000828152602081815260408083206001600160a01b0385168085529252808320805460ff1916905551339285917ff6391f5c32d9c69d2a47ea670b442974b53935d1edc7fd64eb21e047a839171b9190a45050565b600081612ea3816004614442565b1015612ef15760405162461bcd60e51b815260206004820152601160248201527f746f55696e7433325f6f766572666c6f770000000000000000000000000000006044820152606401610ba3565b612efc826004614442565b83511015612f4c5760405162461bcd60e51b815260206004820152601460248201527f746f55696e7433325f6f75744f66426f756e64730000000000000000000000006044820152606401610ba3565b50016004015190565b604080516001600160a01b0385811660248301528481166044830152606480830185905283518084039091018152608490920183526020820180516001600160e01b03166323b872dd60e01b1790529151600092839290881691612fb99190614662565b6000604051808303816000865af19150503d8060008114612ff6576040519150601f19603f3d011682016040523d82523d6000602084013e612ffb565b606091505b509150915081801561302557508051158061302557508080602001905181019061302591906145e3565b6130715760405162461bcd60e51b815260206004820152601460248201527f5452414e534645525f46524f4d5f4641494c45440000000000000000000000006044820152606401610ba3565b505050505050565b60065460ff166130b45760405162461bcd60e51b8152600401610ba3906020808252600490820152636c6f636b60e01b604082015260600190565b6006805460ff191690558260008190036130f55760405162461bcd60e51b81526020600482015260026024820152615a3160f01b6044820152606401610ba3565b600754604051636a2fb1f560e01b8152600481018690526000916001600160a01b031690636a2fb1f590602401602060405180830381865afa15801561313f573d6000803e3d6000fd5b505050506040513d601f19601f8201168201806040525081019061316391906145ca565b63ffffffff88166000908152600b602052604081208054929350839290919061318d908490614442565b9250508190555080600a60008282546131a69190614442565b909155505063ffffffff87166000908152600c602090815260408083206001600160a01b038a1684529091529020600381015460ff1661324857600381018054600160ff1990911681179091556013805491820181556000527f66de8ffda797e3de9c05e8fc57b3bf0ec28a930d40b0d285d93c06501cf6a09001805473ffffffffffffffffffffffffffffffffffffffff19166001600160a01b0389161790555b600061ffff85161580159061326557506001600160a01b03861615155b801561327657506127108561ffff16105b156133b95761271061328c61ffff871685614784565b613296919061479b565b90506132a28184614605565b60075460405163cdf6800960e01b8152600481018390529194506000916001600160a01b039091169063cdf6800990602401602060405180830381865afa1580156132f1573d6000803e3d6000fd5b505050506040513d601f19601f8201168201806040525081019061331591906145ca565b90508083600001600082825461332b9190614442565b92505081905550838360020160008282546133469190614442565b909155505063ffffffff8a166000908152600c602090815260408083206001600160a01b038b168452909152902061337e828a614605565b8160000160008282546133919190614442565b92505081905550828160020160008282546133ac9190614442565b909155506133ee92505050565b868260000160008282546133cd9190614442565b92505081905550828260020160008282546133e89190614442565b90915550505b6040805163ffffffff8b1681526001600160a01b038a811660208301528183018a9052606082018690528816608082015261ffff871660a082015290517f318dab784577ac2e7d86f88c3f2a80520b447b822b8a756158648e0f917d16a09181900360c00190a150506006805460ff1916600117905550505050505050565b60008161347b816014614442565b10156134c95760405162461bcd60e51b815260206004820152601260248201527f746f416464726573735f6f766572666c6f7700000000000000000000000000006044820152606401610ba3565b6134d4826014614442565b835110156135245760405162461bcd60e51b815260206004820152601560248201527f746f416464726573735f6f75744f66426f756e647300000000000000000000006044820152606401610ba3565b50016014015190565b60065461354a9061010090046001600160a01b0316333086612f55565b6135578433858585613079565b50505050565b604080516001600160a01b038481166024830152604480830185905283518084039091018152606490920183526020820180516001600160e01b031663a9059cbb60e01b17905291516000928392908716916135b99190614662565b6000604051808303816000865af19150503d80600081146135f6576040519150601f19603f3d011682016040523d82523d6000602084013e6135fb565b606091505b509150915081801561362557508051158061362557508080602001905181019061362591906145e3565b6136715760405162461bcd60e51b815260206004820152600f60248201527f5452414e534645525f4641494c454400000000000000000000000000000000006044820152606401610ba3565b5050505050565b60608161368681601f614442565b10156136c55760405162461bcd60e51b815260206004820152600e60248201526d736c6963655f6f766572666c6f7760901b6044820152606401610ba3565b826136d08382614442565b101561370f5760405162461bcd60e51b815260206004820152600e60248201526d736c6963655f6f766572666c6f7760901b6044820152606401610ba3565b6137198284614442565b845110156137695760405162461bcd60e51b815260206004820152601160248201527f736c6963655f6f75744f66426f756e64730000000000000000000000000000006044820152606401610ba3565b60608215801561378857604051915060008252602082016040526137d2565b6040519150601f8416801560200281840101858101878315602002848b0101015b818310156137c15780518352602092830192016137a9565b5050858452601f01601f1916604052505b50949350505050565b60065460ff166138165760405162461bcd60e51b8152600401610ba3906020808252600490820152636c6f636b60e01b604082015260600190565b6006805460ff191690558160008190036138575760405162461bcd60e51b81526020600482015260026024820152615a3160f01b6044820152606401610ba3565b60075460405163cdf6800960e01b81526004810185905233916000916001600160a01b039091169063cdf6800990602401602060405180830381865afa1580156138a5573d6000803e3d6000fd5b505050506040513d601f19601f820116820180604052508101906138c991906145ca565b63ffffffff87166000908152600c602090815260408083206001600160a01b0387168452909152902090915084156139ca576002810154600754604051636a2fb1f560e01b8152600481018890526001600160a01b0390911690636a2fb1f590602401602060405180830381865afa158015613949573d6000803e3d6000fd5b505050506040513d601f19601f8201168201806040525081019061396d91906145ca565b6139779088614442565b11156139c55760405162461bcd60e51b815260206004820152600d60248201527f756e7374616b655f6572725f31000000000000000000000000000000000000006044820152606401610ba3565b613a1e565b8060020154861115613a1e5760405162461bcd60e51b815260206004820152600d60248201527f756e7374616b655f6572725f32000000000000000000000000000000000000006044820152606401610ba3565b85816002016000828254613a329190614605565b90915550508054821115613a495760008155613a63565b81816000016000828254613a5d9190614605565b90915550505b63ffffffff87166000908152600b602052604081208054889290613a88908490614605565b9250508190555085600a6000828254613aa19190614605565b909155505060085460408051636577b27360e11b815290516000926001600160a01b03169163caef64e69160048083019260209291908290030181865afa158015613af0573d6000803e3d6000fd5b505050506040513d601f19601f82011682018060405250810190613b1491906145ca565b63ffffffff89166000908152600d602090815260408083206001600160a01b03891684529091529081902081516060810190925291925080613b568443614442565b63ffffffff90811682526001600160801b0380881660208085019190915260006040948501819052865460018101885596815281812086519701805487840151978701511515600160a01b0260ff60a01b19989095166401000000000273ffffffffffffffffffffffffffffffffffffffff19909116988616989098179790971795909516919091179094558b168252600f83528082206001600160a01b03881683529092529081208054859290613c0f908490614442565b909155505063ffffffff881660009081526010602052604081208054859290613c39908490614442565b90915550506001600160a01b03841660009081526011602052604081208054859290613c66908490614442565b90915550506040805163ffffffff8a1681526001600160a01b0386166020820152908101849052606081018890527f869a01319d83bb921803a22e3e95d0cb8b08e708d3fb144e2c25a563bf8650d39060800160405180910390a150506006805460ff19166001179055505050505050565b600081613ce6816020614442565b1015613d345760405162461bcd60e51b815260206004820152601260248201527f746f55696e743235365f6f766572666c6f7700000000000000000000000000006044820152606401610ba3565b613d3f826020614442565b83511015613d8f5760405162461bcd60e51b815260206004820152601560248201527f746f55696e743235365f6f75744f66426f756e647300000000000000000000006044820152606401610ba3565b50016020015190565b6000828152602081815260408083206001600160a01b038516845290915290205460ff16610bac57613dc981613e0b565b613dd4836020613e1d565b604051602001613de59291906147bd565b60408051601f198184030181529082905262461bcd60e51b8252610ba391600401614204565b6060610b356001600160a01b03831660145b60606000613e2c836002614784565b613e37906002614442565b67ffffffffffffffff811115613e4f57613e4f614327565b6040519080825280601f01601f191660200182016040528015613e79576020820181803683370190505b509050600360fc1b81600081518110613e9457613e94614416565b60200101906001600160f81b031916908160001a905350600f60fb1b81600181518110613ec357613ec3614416565b60200101906001600160f81b031916908160001a9053506000613ee7846002614784565b613ef2906001614442565b90505b6001811115613f77577f303132333435363738396162636465660000000000000000000000000000000085600f1660108110613f3357613f33614416565b1a60f81b828281518110613f4957613f49614416565b60200101906001600160f81b031916908160001a90535060049490941c93613f708161483e565b9050613ef5565b508315611eff5760405162461bcd60e51b815260206004820181905260248201527f537472696e67733a20686578206c656e67746820696e73756666696369656e746044820152606401610ba3565b600060208284031215613fd857600080fd5b81356001600160e01b031981168114611eff57600080fd5b63ffffffff81168114610c3a57600080fd5b60006020828403121561401457600080fd5b8135611eff81613ff0565b6001600160a01b0381168114610c3a57600080fd5b60006020828403121561404657600080fd5b8135611eff8161401f565b6000806040838503121561406457600080fd5b823561406f81613ff0565b9150602083013561407f8161401f565b809150509250929050565b60006020828403121561409c57600080fd5b5035919050565b600080604083850312156140b657600080fd5b82359150602083013561407f8161401f565b6000806000806000608086880312156140e057600080fd5b85356140eb8161401f565b945060208601356140fb8161401f565b935060408601359250606086013567ffffffffffffffff8082111561411f57600080fd5b818801915088601f83011261413357600080fd5b81358181111561414257600080fd5b89602082850101111561415457600080fd5b9699959850939650602001949392505050565b6020808252825182820181905260009190848201906040850190845b818110156141a85783516001600160a01b031683529284019291840191600101614183565b50909695505050505050565b60005b838110156141cf5781810151838201526020016141b7565b50506000910152565b600081518084526141f08160208601602086016141b4565b601f01601f19169290920160200192915050565b602081526000611eff60208301846141d8565b60008060006060848603121561422c57600080fd5b833561423781613ff0565b925060208401356142478161401f565b929592945050506040919091013590565b6000806000806080858703121561426e57600080fd5b84359350602085013561428081613ff0565b925060408501356142908161401f565b9396929550929360600135925050565b600080604083850312156142b357600080fd5b82356142be81613ff0565b946020939093013593505050565b600080600080600060a086880312156142e457600080fd5b8535945060208601356142f681613ff0565b935060408601356143068161401f565b925060608601356143168161401f565b949793965091946080013592915050565b634e487b7160e01b600052604160045260246000fd5b604051601f8201601f1916810167ffffffffffffffff8111828210171561436657614366614327565b604052919050565b6000806040838503121561438157600080fd5b823561438c81613ff0565b915060208381013567ffffffffffffffff808211156143aa57600080fd5b818601915086601f8301126143be57600080fd5b8135818111156143d0576143d0614327565b6143e2601f8201601f1916850161433d565b915080825287848285010111156143f857600080fd5b80848401858401376000848284010152508093505050509250929050565b634e487b7160e01b600052603260045260246000fd5b634e487b7160e01b600052601160045260246000fd5b80820180821115610b3557610b3561442c565b63ffffffff8181168382160190808211156144725761447261442c565b5092915050565b60006001820161448b5761448b61442c565b5060010190565b600181811c908216806144a657607f821691505b60208210810361178857634e487b7160e01b600052602260045260246000fd5b60006020808352600084546144da81614492565b808487015260406001808416600081146144fb576001811461451557614543565b60ff1985168984015283151560051b890183019550614543565b896000528660002060005b8581101561453b5781548b8201860152908301908801614520565b8a0184019650505b509398975050505050505050565b60006060828403121561456357600080fd5b6040516060810181811067ffffffffffffffff8211171561458657614586614327565b60405282516145948161401f565b815260208301516145a481613ff0565b6020820152604083015161ffff811681146145be57600080fd5b60408201529392505050565b6000602082840312156145dc57600080fd5b5051919050565b6000602082840312156145f557600080fd5b81518015158114611eff57600080fd5b81810381811115610b3557610b3561442c565b6000835161462a8184602088016141b4565b60f09390931b7fffff000000000000000000000000000000000000000000000000000000000000169190920190815260020192915050565b600082516146748184602087016141b4565b9190910192915050565b601f821115610e7257600081815260208120601f850160051c810160208610156146a55750805b601f850160051c820191505b81811015613071578281556001016146b1565b815167ffffffffffffffff8111156146de576146de614327565b6146f2816146ec8454614492565b8461467e565b602080601f831160018114614727576000841561470f5750858301515b600019600386901b1c1916600185901b178555613071565b600085815260208120601f198616915b8281101561475657888601518255948401946001909101908401614737565b50858210156147745787850151600019600388901b60f8161c191681555b5050505050600190811b01905550565b8082028115828204841417610b3557610b3561442c565b6000826147b857634e487b7160e01b600052601260045260246000fd5b500490565b7f416363657373436f6e74726f6c3a206163636f756e74200000000000000000008152600083516147f58160178501602088016141b4565b7f206973206d697373696e6720726f6c652000000000000000000000000000000060179184019182015283516148328160288401602088016141b4565b01602801949350505050565b60008161484d5761484d61442c565b50600019019056fea164736f6c6343000812000a",
  "linkReferences": {
    "contracts/libraries/LibOperator.sol": {
      "LibOperator": [
        {
          "length": 20,
          "start": 4475
        },
        {
          "length": 20,
          "start": 9882
        }
      ]
    }
  },
  "deployedLinkReferences": {
    "contracts/libraries/LibOperator.sol": {
      "LibOperator": [
        {
          "length": 20,
          "start": 4430
        },
        {
          "length": 20,
          "start": 9837
        }
      ]
    }
  }
}