{
  "_format": "hh-sol-artifact-1",
  "contractName": "Candidate",
  "sourceName": "contracts/Candidate.sol",
  "abi": [
    {
      "inputs": [],
      "stateMutability": "nonpayable",
      "type": "constructor"
    },
    {
      "anonymous": false,
      "inputs": [
        {
          "indexed": false,
          "internalType": "bytes32",
          "name": "hashMessage",
          "type": "bytes32"
        },
        {
          "indexed": false,
          "internalType": "uint32",
          "name": "layerIndex",
          "type": "uint32"
        },
        {
          "indexed": false,
          "internalType": "address",
          "name": "from",
          "type": "address"
        },
        {
          "indexed": false,
          "internalType": "address",
          "name": "to",
          "type": "address"
        },
        {
          "indexed": false,
          "internalType": "uint256",
          "name": "amount",
          "type": "uint256"
        }
      ],
      "name": "FastWithdrawalClaim",
      "type": "event"
    },
    {
      "anonymous": false,
      "inputs": [
        {
          "indexed": false,
          "internalType": "bytes32",
          "name": "hashMessage",
          "type": "bytes32"
        },
        {
          "indexed": false,
          "internalType": "uint32",
          "name": "layerIndex",
          "type": "uint32"
        },
        {
          "indexed": false,
          "internalType": "address",
          "name": "staker",
          "type": "address"
        },
        {
          "indexed": false,
          "internalType": "uint256",
          "name": "amount",
          "type": "uint256"
        },
        {
          "indexed": false,
          "internalType": "uint256",
          "name": "lton",
          "type": "uint256"
        }
      ],
      "name": "FastWithdrawalStaked",
      "type": "event"
    },
    {
      "anonymous": false,
      "inputs": [
        {
          "indexed": false,
          "internalType": "uint32",
          "name": "_index",
          "type": "uint32"
        },
        {
          "indexed": false,
          "internalType": "address",
          "name": "sender",
          "type": "address"
        },
        {
          "indexed": false,
          "internalType": "uint256",
          "name": "amount",
          "type": "uint256"
        },
        {
          "indexed": false,
          "internalType": "uint256",
          "name": "lton",
          "type": "uint256"
        }
      ],
      "name": "Restaked",
      "type": "event"
    },
    {
      "anonymous": false,
      "inputs": [
        {
          "indexed": true,
          "internalType": "bytes32",
          "name": "role",
          "type": "bytes32"
        },
        {
          "indexed": true,
          "internalType": "bytes32",
          "name": "previousAdminRole",
          "type": "bytes32"
        },
        {
          "indexed": true,
          "internalType": "bytes32",
          "name": "newAdminRole",
          "type": "bytes32"
        }
      ],
      "name": "RoleAdminChanged",
      "type": "event"
    },
    {
      "anonymous": false,
      "inputs": [
        {
          "indexed": true,
          "internalType": "bytes32",
          "name": "role",
          "type": "bytes32"
        },
        {
          "indexed": true,
          "internalType": "address",
          "name": "account",
          "type": "address"
        },
        {
          "indexed": true,
          "internalType": "address",
          "name": "sender",
          "type": "address"
        }
      ],
      "name": "RoleGranted",
      "type": "event"
    },
    {
      "anonymous": false,
      "inputs": [
        {
          "indexed": true,
          "internalType": "bytes32",
          "name": "role",
          "type": "bytes32"
        },
        {
          "indexed": true,
          "internalType": "address",
          "name": "account",
          "type": "address"
        },
        {
          "indexed": true,
          "internalType": "address",
          "name": "sender",
          "type": "address"
        }
      ],
      "name": "RoleRevoked",
      "type": "event"
    },
    {
      "anonymous": false,
      "inputs": [
        {
          "indexed": false,
          "internalType": "uint32",
          "name": "_index",
          "type": "uint32"
        },
        {
          "indexed": false,
          "internalType": "address",
          "name": "sender",
          "type": "address"
        },
        {
          "indexed": false,
          "internalType": "uint256",
          "name": "amount",
          "type": "uint256"
        },
        {
          "indexed": false,
          "internalType": "uint256",
          "name": "lton",
          "type": "uint256"
        },
        {
          "indexed": false,
          "internalType": "address",
          "name": "commissionTo",
          "type": "address"
        },
        {
          "indexed": false,
          "internalType": "uint16",
          "name": "commission",
          "type": "uint16"
        }
      ],
      "name": "Staked",
      "type": "event"
    },
    {
      "anonymous": false,
      "inputs": [
        {
          "indexed": false,
          "internalType": "uint32",
          "name": "_index",
          "type": "uint32"
        },
        {
          "indexed": false,
          "internalType": "address",
          "name": "sender",
          "type": "address"
        },
        {
          "indexed": false,
          "internalType": "uint256",
          "name": "amount",
          "type": "uint256"
        },
        {
          "indexed": false,
          "internalType": "uint256",
          "name": "lton",
          "type": "uint256"
        }
      ],
      "name": "Unstaked",
      "type": "event"
    },
    {
      "anonymous": false,
      "inputs": [
        {
          "indexed": false,
          "internalType": "uint32",
          "name": "_index",
          "type": "uint32"
        },
        {
          "indexed": false,
          "internalType": "address",
          "name": "sender",
          "type": "address"
        },
        {
          "indexed": false,
          "internalType": "uint256",
          "name": "amount",
          "type": "uint256"
        }
      ],
      "name": "Withdrawal",
      "type": "event"
    },
    {
      "inputs": [],
      "name": "ADMIN_ROLE",
      "outputs": [
        {
          "internalType": "bytes32",
          "name": "",
          "type": "bytes32"
        }
      ],
      "stateMutability": "view",
      "type": "function"
    },
    {
      "inputs": [],
      "name": "DEFAULT_ADMIN_ROLE",
      "outputs": [
        {
          "internalType": "bytes32",
          "name": "",
          "type": "bytes32"
        }
      ],
      "stateMutability": "view",
      "type": "function"
    },
    {
      "inputs": [],
      "name": "POLICY_ROLE",
      "outputs": [
        {
          "internalType": "bytes32",
          "name": "",
          "type": "bytes32"
        }
      ],
      "stateMutability": "view",
      "type": "function"
    },
    {
      "inputs": [
        {
          "internalType": "address",
          "name": "account",
          "type": "address"
        }
      ],
      "name": "addAdmin",
      "outputs": [],
      "stateMutability": "nonpayable",
      "type": "function"
    },
    {
      "inputs": [
        {
          "internalType": "address",
          "name": "",
          "type": "address"
        }
      ],
      "name": "aliveImplementation",
      "outputs": [
        {
          "internalType": "bool",
          "name": "",
          "type": "bool"
        }
      ],
      "stateMutability": "view",
      "type": "function"
    },
    {
      "inputs": [
        {
          "internalType": "uint32",
          "name": "layerIndex",
          "type": "uint32"
        },
        {
          "internalType": "address",
          "name": "account",
          "type": "address"
        }
      ],
      "name": "amountOfPendings",
      "outputs": [
        {
          "internalType": "uint256",
          "name": "amount",
          "type": "uint256"
        },
        {
          "internalType": "uint32",
          "name": "startIndex",
          "type": "uint32"
        },
        {
          "internalType": "uint32",
          "name": "len",
          "type": "uint32"
        },
        {
          "internalType": "uint32",
          "name": "nextWithdrawableBlockNumber",
          "type": "uint32"
        }
      ],
      "stateMutability": "view",
      "type": "function"
    },
    {
      "inputs": [
        {
          "internalType": "uint32",
          "name": "_index",
          "type": "uint32"
        },
        {
          "internalType": "address",
          "name": "account",
          "type": "address"
        }
      ],
      "name": "availableWithdraw",
      "outputs": [
        {
          "internalType": "uint256",
          "name": "amount",
          "type": "uint256"
        },
        {
          "internalType": "uint32",
          "name": "startIndex",
          "type": "uint32"
        },
        {
          "internalType": "uint32",
          "name": "len",
          "type": "uint32"
        }
      ],
      "stateMutability": "view",
      "type": "function"
    },
    {
      "inputs": [
        {
          "internalType": "uint32",
          "name": "_index",
          "type": "uint32"
        },
        {
          "internalType": "address",
          "name": "account",
          "type": "address"
        }
      ],
      "name": "balanceOf",
      "outputs": [
        {
          "internalType": "uint256",
          "name": "amount",
          "type": "uint256"
        }
      ],
      "stateMutability": "view",
      "type": "function"
    },
    {
      "inputs": [
        {
          "internalType": "uint32",
          "name": "_index",
          "type": "uint32"
        },
        {
          "internalType": "address",
          "name": "account",
          "type": "address"
        },
        {
          "internalType": "uint256",
          "name": "snapshotId",
          "type": "uint256"
        }
      ],
      "name": "balanceOfAt",
      "outputs": [
        {
          "internalType": "uint256",
          "name": "amount",
          "type": "uint256"
        }
      ],
      "stateMutability": "view",
      "type": "function"
    },
    {
      "inputs": [
        {
          "internalType": "uint32",
          "name": "_index",
          "type": "uint32"
        },
        {
          "internalType": "address",
          "name": "account",
          "type": "address"
        }
      ],
      "name": "balanceOfLton",
      "outputs": [
        {
          "internalType": "uint256",
          "name": "amount",
          "type": "uint256"
        }
      ],
      "stateMutability": "view",
      "type": "function"
    },
    {
      "inputs": [
        {
          "internalType": "uint32",
          "name": "_index",
          "type": "uint32"
        }
      ],
      "name": "balanceOfLton",
      "outputs": [
        {
          "internalType": "uint256",
          "name": "amount",
          "type": "uint256"
        }
      ],
      "stateMutability": "view",
      "type": "function"
    },
    {
      "inputs": [
        {
          "internalType": "uint32",
          "name": "_index",
          "type": "uint32"
        },
        {
          "internalType": "address",
          "name": "account",
          "type": "address"
        },
        {
          "internalType": "uint256",
          "name": "snapshotId",
          "type": "uint256"
        }
      ],
      "name": "balanceOfLtonAt",
      "outputs": [
        {
          "internalType": "uint256",
          "name": "amount",
          "type": "uint256"
        }
      ],
      "stateMutability": "view",
      "type": "function"
    },
    {
      "inputs": [
        {
          "internalType": "uint32",
          "name": "_index",
          "type": "uint32"
        },
        {
          "internalType": "uint256",
          "name": "snapshotId",
          "type": "uint256"
        }
      ],
      "name": "balanceOfLtonAt",
      "outputs": [
        {
          "internalType": "uint256",
          "name": "amount",
          "type": "uint256"
        }
      ],
      "stateMutability": "view",
      "type": "function"
    },
    {
      "inputs": [
        {
          "internalType": "uint32",
          "name": "_index",
          "type": "uint32"
        },
        {
          "internalType": "uint256",
          "name": "snapshotId",
          "type": "uint256"
        }
      ],
      "name": "balanceOfLtonAtSnapshot",
      "outputs": [
        {
          "internalType": "bool",
          "name": "snapshotted",
          "type": "bool"
        },
        {
          "internalType": "uint256",
          "name": "amount",
          "type": "uint256"
        }
      ],
      "stateMutability": "view",
      "type": "function"
    },
    {
      "inputs": [
        {
          "internalType": "uint32",
          "name": "_index",
          "type": "uint32"
        },
        {
          "internalType": "address",
          "name": "account",
          "type": "address"
        },
        {
          "internalType": "uint256",
          "name": "snapshotId",
          "type": "uint256"
        }
      ],
      "name": "balanceOfLtonAtSnapshot",
      "outputs": [
        {
          "internalType": "bool",
          "name": "snapshotted",
          "type": "bool"
        },
        {
          "internalType": "uint256",
          "name": "amount",
          "type": "uint256"
        }
      ],
      "stateMutability": "view",
      "type": "function"
    },
    {
      "inputs": [
        {
          "internalType": "uint32",
          "name": "_candidateIndex",
          "type": "uint32"
        },
        {
          "internalType": "bytes",
          "name": "_info",
          "type": "bytes"
        }
      ],
      "name": "create",
      "outputs": [
        {
          "internalType": "bool",
          "name": "",
          "type": "bool"
        }
      ],
      "stateMutability": "nonpayable",
      "type": "function"
    },
    {
      "inputs": [
        {
          "internalType": "uint32",
          "name": "_index",
          "type": "uint32"
        }
      ],
      "name": "existedIndex",
      "outputs": [
        {
          "internalType": "bool",
          "name": "",
          "type": "bool"
        }
      ],
      "stateMutability": "view",
      "type": "function"
    },
    {
      "inputs": [
        {
          "internalType": "bytes32",
          "name": "hashMessage",
          "type": "bytes32"
        },
        {
          "internalType": "uint32",
          "name": "layerIndex",
          "type": "uint32"
        },
        {
          "internalType": "address",
          "name": "from",
          "type": "address"
        },
        {
          "internalType": "address",
          "name": "to",
          "type": "address"
        },
        {
          "internalType": "uint256",
          "name": "amount",
          "type": "uint256"
        }
      ],
      "name": "fastWithdrawClaim",
      "outputs": [
        {
          "internalType": "bool",
          "name": "",
          "type": "bool"
        }
      ],
      "stateMutability": "nonpayable",
      "type": "function"
    },
    {
      "inputs": [
        {
          "internalType": "bytes32",
          "name": "hashMessage",
          "type": "bytes32"
        },
        {
          "internalType": "uint32",
          "name": "layerIndex",
          "type": "uint32"
        },
        {
          "internalType": "address",
          "name": "staker",
          "type": "address"
        },
        {
          "internalType": "uint256",
          "name": "_amount",
          "type": "uint256"
        }
      ],
      "name": "fastWithdrawStake",
      "outputs": [
        {
          "internalType": "bool",
          "name": "",
          "type": "bool"
        }
      ],
      "stateMutability": "nonpayable",
      "type": "function"
    },
    {
      "inputs": [],
      "name": "fwReceipt",
      "outputs": [
        {
          "internalType": "address",
          "name": "",
          "type": "address"
        }
      ],
      "stateMutability": "view",
      "type": "function"
    },
    {
      "inputs": [
        {
          "internalType": "uint32",
          "name": "_index",
          "type": "uint32"
        }
      ],
      "name": "getCandidateInfo",
      "outputs": [
        {
          "components": [
            {
              "internalType": "address",
              "name": "operator",
              "type": "address"
            },
            {
              "internalType": "uint32",
              "name": "sequencerIndex",
              "type": "uint32"
            },
            {
              "internalType": "uint16",
              "name": "commission",
              "type": "uint16"
            }
          ],
          "internalType": "struct LibOperator.Info",
          "name": "info",
          "type": "tuple"
        }
      ],
      "stateMutability": "view",
      "type": "function"
    },
    {
      "inputs": [
        {
          "internalType": "uint32",
          "name": "_index",
          "type": "uint32"
        }
      ],
      "name": "getCandidateKey",
      "outputs": [
        {
          "internalType": "bytes32",
          "name": "layerKey_",
          "type": "bytes32"
        }
      ],
      "stateMutability": "view",
      "type": "function"
    },
    {
      "inputs": [],
      "name": "getCurrentSnapshotId",
      "outputs": [
        {
          "internalType": "uint256",
          "name": "",
          "type": "uint256"
        }
      ],
      "stateMutability": "view",
      "type": "function"
    },
    {
      "inputs": [
        {
          "internalType": "uint32",
          "name": "_index",
          "type": "uint32"
        },
        {
          "internalType": "address",
          "name": "account",
          "type": "address"
        }
      ],
      "name": "getLayerStakes",
      "outputs": [
        {
          "components": [
            {
              "internalType": "uint256",
              "name": "stakePrincipal",
              "type": "uint256"
            },
            {
              "internalType": "uint256",
              "name": "stakelton",
              "type": "uint256"
            },
            {
              "internalType": "bool",
              "name": "stake",
              "type": "bool"
            }
          ],
          "internalType": "struct LibStake.StakeInfo",
          "name": "info",
          "type": "tuple"
        }
      ],
      "stateMutability": "view",
      "type": "function"
    },
    {
      "inputs": [
        {
          "internalType": "uint32",
          "name": "_index",
          "type": "uint32"
        },
        {
          "internalType": "address",
          "name": "account",
          "type": "address"
        }
      ],
      "name": "getPendingUnstakedAmount",
      "outputs": [
        {
          "internalType": "uint256",
          "name": "",
          "type": "uint256"
        }
      ],
      "stateMutability": "view",
      "type": "function"
    },
    {
      "inputs": [
        {
          "internalType": "bytes32",
          "name": "role",
          "type": "bytes32"
        }
      ],
      "name": "getRoleAdmin",
      "outputs": [
        {
          "internalType": "bytes32",
          "name": "",
          "type": "bytes32"
        }
      ],
      "stateMutability": "view",
      "type": "function"
    },
    {
      "inputs": [],
      "name": "getStakeAccountList",
      "outputs": [
        {
          "internalType": "address[]",
          "name": "",
          "type": "address[]"
        }
      ],
      "stateMutability": "view",
      "type": "function"
    },
    {
      "inputs": [],
      "name": "getTotalLton",
      "outputs": [
        {
          "internalType": "uint256",
          "name": "",
          "type": "uint256"
        }
      ],
      "stateMutability": "view",
      "type": "function"
    },
    {
      "inputs": [
        {
          "internalType": "bytes32",
          "name": "role",
          "type": "bytes32"
        },
        {
          "internalType": "address",
          "name": "account",
          "type": "address"
        }
      ],
      "name": "grantRole",
      "outputs": [],
      "stateMutability": "nonpayable",
      "type": "function"
    },
    {
      "inputs": [
        {
          "internalType": "bytes32",
          "name": "role",
          "type": "bytes32"
        },
        {
          "internalType": "address",
          "name": "account",
          "type": "address"
        }
      ],
      "name": "hasRole",
      "outputs": [
        {
          "internalType": "bool",
          "name": "",
          "type": "bool"
        }
      ],
      "stateMutability": "view",
      "type": "function"
    },
    {
      "inputs": [
        {
          "internalType": "address",
          "name": "account",
          "type": "address"
        }
      ],
      "name": "isAdmin",
      "outputs": [
        {
          "internalType": "bool",
          "name": "",
          "type": "bool"
        }
      ],
      "stateMutability": "view",
      "type": "function"
    },
    {
      "inputs": [
        {
          "internalType": "uint32",
          "name": "_index",
          "type": "uint32"
        }
      ],
      "name": "layer2Deposits",
      "outputs": [
        {
          "internalType": "uint256",
          "name": "amount",
          "type": "uint256"
        }
      ],
      "stateMutability": "view",
      "type": "function"
    },
    {
      "inputs": [],
      "name": "layer2Manager",
      "outputs": [
        {
          "internalType": "address",
          "name": "",
          "type": "address"
        }
      ],
      "stateMutability": "view",
      "type": "function"
    },
    {
      "inputs": [
        {
          "internalType": "uint32",
          "name": "",
          "type": "uint32"
        }
      ],
      "name": "layerInfo",
      "outputs": [
        {
          "internalType": "bytes",
          "name": "",
          "type": "bytes"
        }
      ],
      "stateMutability": "view",
      "type": "function"
    },
    {
      "inputs": [
        {
          "internalType": "uint32",
          "name": "",
          "type": "uint32"
        }
      ],
      "name": "layerStakedLton",
      "outputs": [
        {
          "internalType": "uint256",
          "name": "",
          "type": "uint256"
        }
      ],
      "stateMutability": "view",
      "type": "function"
    },
    {
      "inputs": [
        {
          "internalType": "uint32",
          "name": "",
          "type": "uint32"
        },
        {
          "internalType": "address",
          "name": "",
          "type": "address"
        }
      ],
      "name": "layerStakes",
      "outputs": [
        {
          "internalType": "uint256",
          "name": "stakePrincipal",
          "type": "uint256"
        },
        {
          "internalType": "uint256",
          "name": "stakelton",
          "type": "uint256"
        },
        {
          "internalType": "bool",
          "name": "stake",
          "type": "bool"
        }
      ],
      "stateMutability": "view",
      "type": "function"
    },
    {
      "inputs": [
        {
          "internalType": "uint32",
          "name": "layerIndex",
          "type": "uint32"
        },
        {
          "internalType": "address",
          "name": "account",
          "type": "address"
        }
      ],
      "name": "numberOfPendings",
      "outputs": [
        {
          "internalType": "uint256",
          "name": "totalRequests",
          "type": "uint256"
        },
        {
          "internalType": "uint256",
          "name": "withdrawIndex",
          "type": "uint256"
        },
        {
          "internalType": "uint256",
          "name": "pendingLength",
          "type": "uint256"
        }
      ],
      "stateMutability": "view",
      "type": "function"
    },
    {
      "inputs": [
        {
          "internalType": "address",
          "name": "sender",
          "type": "address"
        },
        {
          "internalType": "address",
          "name": "spender",
          "type": "address"
        },
        {
          "internalType": "uint256",
          "name": "amount",
          "type": "uint256"
        },
        {
          "internalType": "bytes",
          "name": "data",
          "type": "bytes"
        }
      ],
      "name": "onApprove",
      "outputs": [
        {
          "internalType": "bool",
          "name": "",
          "type": "bool"
        }
      ],
      "stateMutability": "nonpayable",
      "type": "function"
    },
    {
      "inputs": [
        {
          "internalType": "uint32",
          "name": "_index",
          "type": "uint32"
        }
      ],
      "name": "operator",
      "outputs": [
        {
          "internalType": "address",
          "name": "operator_",
          "type": "address"
        }
      ],
      "stateMutability": "view",
      "type": "function"
    },
    {
      "inputs": [
        {
          "internalType": "uint32",
          "name": "",
          "type": "uint32"
        },
        {
          "internalType": "address",
          "name": "",
          "type": "address"
        }
      ],
      "name": "operators",
      "outputs": [
        {
          "internalType": "uint32",
          "name": "",
          "type": "uint32"
        }
      ],
      "stateMutability": "view",
      "type": "function"
    },
    {
      "inputs": [],
      "name": "pauseProxy",
      "outputs": [
        {
          "internalType": "bool",
          "name": "",
          "type": "bool"
        }
      ],
      "stateMutability": "view",
      "type": "function"
    },
    {
      "inputs": [
        {
          "internalType": "uint32",
          "name": "",
          "type": "uint32"
        },
        {
          "internalType": "address",
          "name": "",
          "type": "address"
        }
      ],
      "name": "pendingUnstaked",
      "outputs": [
        {
          "internalType": "uint256",
          "name": "",
          "type": "uint256"
        }
      ],
      "stateMutability": "view",
      "type": "function"
    },
    {
      "inputs": [
        {
          "internalType": "address",
          "name": "",
          "type": "address"
        }
      ],
      "name": "pendingUnstakedAccount",
      "outputs": [
        {
          "internalType": "uint256",
          "name": "",
          "type": "uint256"
        }
      ],
      "stateMutability": "view",
      "type": "function"
    },
    {
      "inputs": [
        {
          "internalType": "uint32",
          "name": "",
          "type": "uint32"
        }
      ],
      "name": "pendingUnstakedLayer2",
      "outputs": [
        {
          "internalType": "uint256",
          "name": "",
          "type": "uint256"
        }
      ],
      "stateMutability": "view",
      "type": "function"
    },
    {
      "inputs": [
        {
          "internalType": "uint256",
          "name": "",
          "type": "uint256"
        }
      ],
      "name": "proxyImplementation",
      "outputs": [
        {
          "internalType": "address",
          "name": "",
          "type": "address"
        }
      ],
      "stateMutability": "view",
      "type": "function"
    },
    {
      "inputs": [
        {
          "internalType": "address",
          "name": "account",
          "type": "address"
        }
      ],
      "name": "removeAdmin",
      "outputs": [],
      "stateMutability": "nonpayable",
      "type": "function"
    },
    {
      "inputs": [
        {
          "internalType": "bytes32",
          "name": "role",
          "type": "bytes32"
        },
        {
          "internalType": "address",
          "name": "account",
          "type": "address"
        }
      ],
      "name": "renounceRole",
      "outputs": [],
      "stateMutability": "nonpayable",
      "type": "function"
    },
    {
      "inputs": [
        {
          "internalType": "uint32",
          "name": "_index",
          "type": "uint32"
        }
      ],
      "name": "restake",
      "outputs": [],
      "stateMutability": "nonpayable",
      "type": "function"
    },
    {
      "inputs": [
        {
          "internalType": "uint32",
          "name": "_index",
          "type": "uint32"
        },
        {
          "internalType": "uint256",
          "name": "n",
          "type": "uint256"
        }
      ],
      "name": "restakeMulti",
      "outputs": [],
      "stateMutability": "nonpayable",
      "type": "function"
    },
    {
      "inputs": [
        {
          "internalType": "bytes32",
          "name": "role",
          "type": "bytes32"
        },
        {
          "internalType": "address",
          "name": "account",
          "type": "address"
        }
      ],
      "name": "revokeRole",
      "outputs": [],
      "stateMutability": "nonpayable",
      "type": "function"
    },
    {
      "inputs": [],
      "name": "seigManagerV2",
      "outputs": [
        {
          "internalType": "address",
          "name": "",
          "type": "address"
        }
      ],
      "stateMutability": "view",
      "type": "function"
    },
    {
      "inputs": [
        {
          "internalType": "bytes4",
          "name": "",
          "type": "bytes4"
        }
      ],
      "name": "selectorImplementation",
      "outputs": [
        {
          "internalType": "address",
          "name": "",
          "type": "address"
        }
      ],
      "stateMutability": "view",
      "type": "function"
    },
    {
      "inputs": [
        {
          "internalType": "uint32",
          "name": "_index",
          "type": "uint32"
        },
        {
          "internalType": "uint256",
          "name": "amount",
          "type": "uint256"
        }
      ],
      "name": "stake",
      "outputs": [],
      "stateMutability": "nonpayable",
      "type": "function"
    },
    {
      "inputs": [
        {
          "internalType": "uint256",
          "name": "",
          "type": "uint256"
        }
      ],
      "name": "stakeAccountList",
      "outputs": [
        {
          "internalType": "address",
          "name": "",
          "type": "address"
        }
      ],
      "stateMutability": "view",
      "type": "function"
    },
    {
      "inputs": [
        {
          "internalType": "bytes4",
          "name": "interfaceId",
          "type": "bytes4"
        }
      ],
      "name": "supportsInterface",
      "outputs": [
        {
          "internalType": "bool",
          "name": "",
          "type": "bool"
        }
      ],
      "stateMutability": "view",
      "type": "function"
    },
    {
      "inputs": [],
      "name": "ton",
      "outputs": [
        {
          "internalType": "address",
          "name": "",
          "type": "address"
        }
      ],
      "stateMutability": "view",
      "type": "function"
    },
    {
      "inputs": [],
      "name": "totalLayer2Deposits",
      "outputs": [
        {
          "internalType": "uint256",
          "name": "amount",
          "type": "uint256"
        }
      ],
      "stateMutability": "view",
      "type": "function"
    },
    {
      "inputs": [],
      "name": "totalStakeAccountList",
      "outputs": [
        {
          "internalType": "uint256",
          "name": "",
          "type": "uint256"
        }
      ],
      "stateMutability": "view",
      "type": "function"
    },
    {
      "inputs": [],
      "name": "totalStakedLton",
      "outputs": [
        {
          "internalType": "uint256",
          "name": "amount",
          "type": "uint256"
        }
      ],
      "stateMutability": "view",
      "type": "function"
    },
    {
      "inputs": [
        {
          "internalType": "uint256",
          "name": "snapshotId",
          "type": "uint256"
        }
      ],
      "name": "totalStakedLtonAt",
      "outputs": [
        {
          "internalType": "uint256",
          "name": "amount",
          "type": "uint256"
        }
      ],
      "stateMutability": "view",
      "type": "function"
    },
    {
      "inputs": [
        {
          "internalType": "uint256",
          "name": "snapshotId",
          "type": "uint256"
        }
      ],
      "name": "totalStakedLtonAtSnapshot",
      "outputs": [
        {
          "internalType": "bool",
          "name": "snapshotted",
          "type": "bool"
        },
        {
          "internalType": "uint256",
          "name": "amount",
          "type": "uint256"
        }
      ],
      "stateMutability": "view",
      "type": "function"
    },
    {
      "inputs": [
        {
          "internalType": "address",
          "name": "newAdmin",
          "type": "address"
        }
      ],
      "name": "transferAdmin",
      "outputs": [],
      "stateMutability": "nonpayable",
      "type": "function"
    },
    {
      "inputs": [
        {
          "internalType": "uint32",
          "name": "_index",
          "type": "uint32"
        },
        {
          "internalType": "uint256",
          "name": "lton_",
          "type": "uint256"
        }
      ],
      "name": "unstake",
      "outputs": [],
      "stateMutability": "nonpayable",
      "type": "function"
    },
    {
      "inputs": [
        {
          "internalType": "uint32",
          "name": "_index",
          "type": "uint32"
        }
      ],
      "name": "withdraw",
      "outputs": [],
      "stateMutability": "nonpayable",
      "type": "function"
    },
    {
      "inputs": [
        {
          "internalType": "uint32",
          "name": "",
          "type": "uint32"
        },
        {
          "internalType": "address",
          "name": "",
          "type": "address"
        }
      ],
      "name": "withdrawalRequestIndex",
      "outputs": [
        {
          "internalType": "uint256",
          "name": "",
          "type": "uint256"
        }
      ],
      "stateMutability": "view",
      "type": "function"
    },
    {
      "inputs": [
        {
          "internalType": "uint32",
          "name": "",
          "type": "uint32"
        },
        {
          "internalType": "address",
          "name": "",
          "type": "address"
        },
        {
          "internalType": "uint256",
          "name": "",
          "type": "uint256"
        }
      ],
      "name": "withdrawalRequests",
      "outputs": [
        {
          "internalType": "uint32",
          "name": "withdrawableBlockNumber",
          "type": "uint32"
        },
        {
          "internalType": "uint128",
          "name": "amount",
          "type": "uint128"
        },
        {
          "internalType": "bool",
          "name": "processed",
          "type": "bool"
        }
      ],
      "stateMutability": "view",
      "type": "function"
    }
  ],
  "bytecode": "0x60806040526006805460ff1916600117905534801561001d57600080fd5b50614f4b8061002d6000396000f3fe608060405234801561001057600080fd5b50600436106104065760003560e01c806375b238fc1161021a578063a0b2a91311610135578063cc48b947116100c8578063df2b429011610097578063ec110d451161007c578063ec110d4514610b85578063f8d437ae14610b98578063fde4819714610bab57600080fd5b8063df2b429014610b5f578063e4f6815514610b7257600080fd5b8063cc48b94714610b0e578063cdc76cf914610b26578063d07918f114610b39578063d547741f14610b4c57600080fd5b8063b6a2f99d11610104578063b6a2f99d14610a8f578063b911135f14610abd578063b969fbef14610ae6578063b9cab97114610aee57600080fd5b8063a0b2a91314610a54578063a217fddf14610a74578063aa9224cd14610a7c578063b413b37a146105d057600080fd5b80638c71762d116101ad57806394c89b2c1161017c57806394c89b2c146109c157806398238355146109d45780639c2f614f146109e75780639c656e26146109fa57600080fd5b80638c71762d146109045780638d99e1ca146109395780638ddd87fe1461094c57806391d148541461098a57600080fd5b80637ec6840f116101e95780637ec6840f146108a557806385b9e485146108b857806387dd8bd0146108cb5780638afec9fc146108de57600080fd5b806375b238fc1461082d578063763936c7146108545780637cf1587c146108675780637d211a1c1461089257600080fd5b80634ec2f04b11610325578063659ab820116102b857806370619cf91161028757806373469a7a1161026c57806373469a7a146107f4578063744a35611461080757806375829def1461081a57600080fd5b806370619cf9146107c15780637138c792146107e157600080fd5b8063659ab8201461073c5780636818a32b1461075c5780636d1ef1031461076f57806370480275146107ae57600080fd5b8063550d01a3116102f4578063550d01a31461067b5780635e2cfe451461069e5780635f1b989e146106c957806363a8fd891461072f57600080fd5b80634ec2f04b146105d85780634f818d0c1461060257806350d2a2761461064a5780635439ad861461067357600080fd5b806324d7806c1161039d5780634273ca161161036c5780634273ca16146105a057806346bcdb49146105b35780634de131ca146105bb5780634e1a264d146105d057600080fd5b806324d7806c1461055457806329637c1c146105675780632f2ff15d1461057a57806336568abe1461058d57600080fd5b80631ed94495116103d95780631ed94495146104865780631f760d01146104bd57806322985246146104fc578063248a9ca31461053157600080fd5b806301ffc9a71461040b578063118e29d11461043357806316b5d5bd146104485780631785f53c14610473575b600080fd5b61041e6104193660046146af565b610bf1565b60405190151581526020015b60405180910390f35b6104466104413660046146eb565b610c28565b005b60085461045b906001600160a01b031681565b6040516001600160a01b03909116815260200161042a565b61044661048136600461471d565b610c9d565b61049961049436600461473a565b610d2a565b6040805182518152602080840151908201529181015115159082015260600161042a565b6104d06104cb36600461473a565b610da9565b6040805194855263ffffffff93841660208601529183169184019190915216606082015260800161042a565b6105237ffb5864e8ff833c3cb2d2d08505e82ff02a43554c74a35d4f5a64e8526127831181565b60405190815260200161042a565b61052361053f366004614773565b60009081526020819052604090206001015490565b61041e61056236600461471d565b610ee7565b61052361057536600461478c565b610f27565b6104466105883660046147cd565b610fb6565b61044661059b3660046147cd565b610fe0565b61041e6105ae3660046147f2565b611068565b601754610523565b6105c3611218565b60405161042a9190614891565b600a54610523565b6105eb6105e63660046148de565b61127a565b60408051921515835260208301919091520161042a565b6106156106103660046146eb565b6112a8565b6040805182516001600160a01b0316815260208084015163ffffffff16908201529181015161ffff169082015260600161042a565b61045b6106583660046146af565b6004602052600090815260409020546001600160a01b031681565b61052361134c565b61041e61068936600461471d565b60036020526000908152604090205460ff1681565b6105236106ac36600461473a565b601360209081526000928352604080842090915290825290205481565b6105236106d736600461473a565b63ffffffff9091166000908152600f602090815260408083206001600160a01b03909416835292815290829020825160608101845281548152600182015492810183905260029091015460ff16151592019190915290565b60015461041e9060ff1681565b61074f61074a3660046146eb565b6113bf565b60405161042a919061495a565b61052361076a36600461478c565b611459565b61078261077d36600461478c565b6114fd565b6040805163ffffffff90941684526001600160801b03909216602084015215159082015260600161042a565b6104466107bc36600461471d565b61155c565b6105236107cf3660046146eb565b600d6020526000908152604090205481565b61041e6107ef36600461496d565b6115e6565b60075461045b906001600160a01b031681565b6104466108153660046148de565b6117b8565b61044661082836600461471d565b611823565b6105237fdf8b4c520ffe197c5343c6f5aec59570151ef9a492f2c624fd45ddde6135ec4281565b61045b6108623660046146eb565b611985565b61052361087536600461473a565b601260209081526000928352604080842090915290825290205481565b61041e6108a03660046146eb565b611a46565b6104466108b33660046148de565b611b0d565b61041e6108c63660046149b5565b611bb5565b6105236108d93660046146eb565b611e5a565b6105236108ec3660046146eb565b63ffffffff166000908152600d602052604090205490565b61091761091236600461473a565b611f45565b6040805193845263ffffffff928316602085015291169082015260600161042a565b6105236109473660046146eb565b612082565b61052361095a36600461473a565b63ffffffff821660009081526013602090815260408083206001600160a01b038516845290915290205492915050565b61041e6109983660046147cd565b6000918252602082815260408084206001600160a01b0393909316845291905290205460ff1690565b6105236109cf36600461473a565b6120f5565b6105eb6109e236600461478c565b6121b5565b6104466109f53660046148de565b6121f7565b610a37610a0836600461473a565b600f60209081526000928352604080842090915290825290208054600182015460029092015490919060ff1683565b60408051938452602084019290925215159082015260600161042a565b610523610a6236600461471d565b60156020526000908152604090205481565b610523600081565b610446610a8a3660046146eb565b612327565b610aa2610a9d36600461473a565b61273c565b6040805193845260208401929092529082015260600161042a565b61045b610acb366004614773565b6002602052600090815260409020546001600160a01b031681565b610523612797565b610523610afc3660046146eb565b60146020526000908152604090205481565b60065461045b9061010090046001600160a01b031681565b610523610b343660046148de565b6127e1565b60095461045b906001600160a01b031681565b610446610b5a3660046147cd565b612834565b61041e610b6d366004614a57565b612859565b610523610b80366004614773565b612bb2565b61045b610b93366004614773565b612bd3565b6105eb610ba6366004614773565b612bfd565b610bdc610bb936600461473a565b601860209081526000928352604080842090915290825290205463ffffffff1681565b60405163ffffffff909116815260200161042a565b60006001600160e01b03198216637965db0b60e01b1480610c2257506301ffc9a760e01b6001600160e01b03198316145b92915050565b63ffffffff811660009081526012602090815260408083203380855292529091205490610c59908390836001612c14565b610c995760405162461bcd60e51b815260206004820152600c60248201526b534c5f455f52455354414b4560a01b60448201526064015b60405180910390fd5b5050565b610ca633610ee7565b610cfd5760405162461bcd60e51b815260206004820152602260248201527f41636365737369626c653a2043616c6c6572206973206e6f7420616e2061646d60448201526134b760f11b6064820152608401610c90565b610d277fdf8b4c520ffe197c5343c6f5aec59570151ef9a492f2c624fd45ddde6135ec4282610fe0565b50565b610d50604051806060016040528060008152602001600081526020016000151581525090565b5063ffffffff9091166000908152600f602090815260408083206001600160a01b039094168352928152908290208251606081018452815481526001820154928101929092526002015460ff1615159181019190915290565b63ffffffff80831660008181526011602090815260408083206001600160a01b038716808552908352818420549484526012835281842090845290915281205490929091839182919084165b81811015610edc5763ffffffff881660009081526011602090815260408083206001600160a01b038b1684529091528120805483908110610e3857610e38614aff565b6000918252602080832060408051606081018252939091015463ffffffff8116845264010000000081046001600160801b031692840192909252600160a01b90910460ff1615159082018190529092509003610ec9578363ffffffff16600003610ea157805193505b6020810151610eb9906001600160801b031688614b2b565b9650610ec6600186614b3e565b94505b5080610ed481614b62565b915050610df5565b505092959194509250565b6001600160a01b03811660009081527f5cbfc8ee58ca47855df7bcf648dd304ddb6b932f9b87878bdf6318d7ec7ee5b7602052604081205460ff16610c22565b6007546000906001600160a01b0316638df40b2c610f46868686611459565b846040518363ffffffff1660e01b8152600401610f6d929190918252602082015260400190565b602060405180830381865afa158015610f8a573d6000803e3d6000fd5b505050506040513d601f19601f82011682018060405250810190610fae9190614b7b565b949350505050565b600082815260208190526040902060010154610fd1816130cb565b610fdb83836130d5565b505050565b6001600160a01b038116331461105e5760405162461bcd60e51b815260206004820152602f60248201527f416363657373436f6e74726f6c3a2063616e206f6e6c792072656e6f756e636560448201527f20726f6c657320666f722073656c6600000000000000000000000000000000006064820152608401610c90565b610c998282613173565b60065460009061010090046001600160a01b031633146110af5760405162461bcd60e51b8152602060048201526002602482015261454160f01b6044820152606401610c90565b6110f66108a0600085858080601f01602080910402602001604051908101604052809392919081815260200183838082843760009201919091525092939250506131f29050565b6111425760405162461bcd60e51b815260206004820152601860248201527f6e6f6e2d726567697374657265642063616e64696461746500000000000000006044820152606401610c90565b6000611188600085858080601f01602080910402602001604051908101604052809392919081815260200183838082843760009201919091525092939250506131f29050565b905084156111ad576006546111ad9061010090046001600160a01b03168830886132b2565b60006111b8826112a8565b9050806040015161ffff16600014806111dd575080516001600160a01b038981169116145b156111f5576111f08289886000806133d6565b61120a565b61120a828988846000015185604001516133d6565b506001979650505050505050565b6060601780548060200260200160405190810160405280929190818152602001828054801561127057602002820191906000526020600020905b81546001600160a01b03168152600190910190602001808311611252575b5050505050905090565b63ffffffff82166000908152600e60205260408120819061129c9084906137d4565b915091505b9250929050565b604080516060810182526000808252602080830182905282840182905263ffffffff8516825260169052829020915163186ca86f60e21b8152909173__$d436d56fec194dfaaabaf06742f0275c03$__916361b2a1bc9161130b91600401614bc8565b606060405180830381865af4158015611328573d6000803e3d6000fd5b505050506040513d601f19601f82011682018060405250810190610c229190614c53565b60075460408051632a1cd6c360e11b815290516000926001600160a01b031691635439ad869160048083019260209291908290030181865afa158015611396573d6000803e3d6000fd5b505050506040513d601f19601f820116820180604052508101906113ba9190614b7b565b905090565b601660205260009081526040902080546113d890614b94565b80601f016020809104026020016040519081016040528092919081815260200182805461140490614b94565b80156114515780601f1061142657610100808354040283529160200191611451565b820191906000526020600020905b81548152906001019060200180831161143457829003601f168201915b505050505081565b63ffffffff831660009081526010602090815260408083206001600160a01b03861684529091528120819081906114919085906137d4565b91509150816114f15763ffffffff86166000908152600f602090815260408083206001600160a01b0389168452825291829020825160608101845281548152600182015492810183905260029091015460ff1615159201919091526114f3565b805b9695505050505050565b6011602052826000526040600020602052816000526040600020818154811061152557600080fd5b60009182526020909120015463ffffffff8116935064010000000081046001600160801b03169250600160a01b900460ff16905083565b61156533610ee7565b6115bc5760405162461bcd60e51b815260206004820152602260248201527f41636365737369626c653a2043616c6c6572206973206e6f7420616e2061646d60448201526134b760f11b6064820152608401610c90565b610d277fdf8b4c520ffe197c5343c6f5aec59570151ef9a492f2c624fd45ddde6135ec4282610fb6565b6009546000906001600160a01b031633146116335760405162461bcd60e51b815260206004820152600d60248201526c232bafa1a0a62622a92fa2a92960991b6044820152606401610c90565b61163d84846138f7565b600754604051636a2fb1f560e01b8152600481018490526000916001600160a01b031690636a2fb1f590602401602060405180830381865afa158015611687573d6000803e3d6000fd5b505050506040513d601f19601f820116820180604052508101906116ab9190614b7b565b63ffffffff86166000908152600d60205260408120805492935083929091906116d5908490614b2b565b9250508190555080600a60008282546116ee9190614b2b565b909155505063ffffffff85166000908152600f602090815260408083206001600160a01b03881684529091528120805490918591839190611730908490614b2b565b925050819055508181600101600082825461174b9190614b2b565b90915550506040805188815263ffffffff881660208201526001600160a01b03871681830152606081018690526080810184905290517f8cf204c07a4ce065cdd0c90963672bd384e5479ada88179bca8eb6075c02731f9181900360a00190a15060019695505050505050565b63ffffffff8216600090815260126020908152604080832033808552925290912054906117e89084908385612c14565b610fdb5760405162461bcd60e51b815260206004820152600c60248201526b534c5f455f52455354414b4560a01b6044820152606401610c90565b61182c33610ee7565b6118835760405162461bcd60e51b815260206004820152602260248201527f41636365737369626c653a2043616c6c6572206973206e6f7420616e2061646d60448201526134b760f11b6064820152608401610c90565b6001600160a01b0381166118d95760405162461bcd60e51b815260206004820152601860248201527f41636365737369626c653a207a65726f206164647265737300000000000000006044820152606401610c90565b6001600160a01b03811633036119315760405162461bcd60e51b815260206004820152601660248201527f41636365737369626c653a2073616d652061646d696e000000000000000000006044820152606401610c90565b61195b7fdf8b4c520ffe197c5343c6f5aec59570151ef9a492f2c624fd45ddde6135ec4282610fb6565b610d277fdf8b4c520ffe197c5343c6f5aec59570151ef9a492f2c624fd45ddde6135ec4233610fe0565b63ffffffff8116600090815260166020526040812080548291906119a890614b94565b80601f01602080910402602001604051908101604052809291908181526020018280546119d490614b94565b8015611a215780601f106119f657610100808354040283529160200191611a21565b820191906000526020600020905b815481529060010190602001808311611a0457829003601f168201915b50505050509050601781511115611a4057611a3d8160006139a5565b91505b50919050565b600854604051635d170f8f60e01b815263ffffffff831660048201526000916001600160a01b031690635d170f8f90602401602060405180830381865afa158015611a95573d6000803e3d6000fd5b505050506040513d601f19601f82011682018060405250810190611ab99190614ccc565b611b055760405162461bcd60e51b815260206004820152601460248201527f6e6f6e2d72656769737465726564206c617965720000000000000000000000006044820152606401610c90565b506001919050565b611b1682611a46565b611b625760405162461bcd60e51b815260206004820152601860248201527f6e6f6e2d726567697374657265642063616e64696461746500000000000000006044820152606401610c90565b6000611b6d836112a8565b9050806040015161ffff1660001480611b8f575080516001600160a01b031633145b15611ba157610fdb8383600080613a65565b610fdb838383600001518460400151613a65565b60065460009060ff16611bf35760405162461bcd60e51b8152600401610c90906020808252600490820152636c6f636b60e01b604082015260600190565b6006805460ff191690556009546001600160a01b03163314611c475760405162461bcd60e51b815260206004820152600d60248201526c232bafa1a0a62622a92fa2a92960991b6044820152606401610c90565b81611c5286866120f5565b1015611ca05760405162461bcd60e51b815260206004820152601960248201527f6c697175696469747920697320696e73756666696369656e74000000000000006044820152606401610c90565b611caa85856138f7565b6006546040516370a0823160e01b815230600482015260009161010090046001600160a01b0316906370a0823190602401602060405180830381865afa158015611cf8573d6000803e3d6000fd5b505050506040513d601f19601f82011682018060405250810190611d1c9190614b7b565b905082811015611dc7578015611d4857600654611d489061010090046001600160a01b03168583613a95565b6007546001600160a01b031663aad3ec9685611d648487614cee565b6040516001600160e01b031960e085901b1681526001600160a01b0390921660048301526024820152604401600060405180830381600087803b158015611daa57600080fd5b505af1158015611dbe573d6000803e3d6000fd5b50505050611de3565b600654611de39061010090046001600160a01b03168585613a95565b6040805188815263ffffffff881660208201526001600160a01b0387811682840152861660608201526080810185905290517f77fbf71434da34ef2aa8382e2b751b6b2de7bd18d96a07ff7f4dae7dae9237619181900360a00190a160019150506006805460ff1916600117905595945050505050565b63ffffffff811660009081526016602052604081208054829190611e7d90614b94565b80601f0160208091040260200160405190810160405280929190818152602001828054611ea990614b94565b8015611ef65780601f10611ecb57610100808354040283529160200191611ef6565b820191906000526020600020905b815481529060010190602001808311611ed957829003601f168201915b50505050509050611f146000601883613bb09092919063ffffffff16565b6000604051602001611f27929190614d01565b60405160208183030381529060405280519060200120915050919050565b63ffffffff80831660008181526011602090815260408083206001600160a01b038716808552908352818420549484526012835281842090845290915281205490929091839183165b818110156120795763ffffffff871660009081526011602090815260408083206001600160a01b038a1684529091528120805483908110611fd157611fd1614aff565b600091825260209182902060408051606081018252929091015463ffffffff811680845264010000000082046001600160801b031694840194909452600160a01b900460ff1615159082015291504311801561202f57506040810151155b1561206057602081015161204c906001600160801b031687614b2b565b9550612059600185614b3e565b9350612066565b50612079565b508061207181614b62565b915050611f8e565b50509250925092565b6008546040516346ccf0e560e11b815263ffffffff831660048201526000916001600160a01b031690638d99e1ca90602401602060405180830381865afa1580156120d1573d6000803e3d6000fd5b505050506040513d601f19601f82011682018060405250810190610c229190614b7b565b60075463ffffffff83166000908152600f602090815260408083206001600160a01b038681168552908352818420825160608101845281548152600182015494810185905260029091015460ff16151590830152905163cdf6800960e01b815260048101929092529192919091169063cdf6800990602401602060405180830381865afa15801561218a573d6000803e3d6000fd5b505050506040513d601f19601f820116820180604052508101906121ae9190614b7b565b9392505050565b63ffffffff831660009081526010602090815260408083206001600160a01b0386168452909152812081906121eb9084906137d4565b91509150935093915050565b600954604051630265991f60e61b81526001600482015263ffffffff841660248201523360448201526000916001600160a01b03169063996647c090606401602060405180830381865afa158015612253573d6000803e3d6000fd5b505050506040513d601f19601f820116820180604052508101906122779190614b7b565b905061228283611985565b6001600160a01b0316330361231c57610fdb8383600860009054906101000a90046001600160a01b03166001600160a01b031663a4dd8b7d6040518163ffffffff1660e01b8152600401602060405180830381865afa1580156122e9573d6000803e3d6000fd5b505050506040513d601f19601f8201168201806040525081019061230d9190614b7b565b6123179085614b2b565b613d13565b610fdb838383613d13565b60065460ff166123625760405162461bcd60e51b8152600401610c90906020808252600490820152636c6f636b60e01b604082015260600190565b6006805460ff1916905563ffffffff811660008181526011602090815260408083203380855290835281842054948452601283528184208185529092528220549092919081905b8381101561247b5763ffffffff861660009081526011602090815260408083206001600160a01b038916845290915281208054839081106123ec576123ec614aff565b600091825260209091200180549091504363ffffffff90911610801561241b57508054600160a01b900460ff16155b1561246257805460ff60a01b1916600160a01b1780825561244e906001600160801b036401000000009091041684614b2b565b92508361245a81614b62565b945050612468565b5061247b565b508061247381614b62565b9150506123a9565b50600081116124cc5760405162461bcd60e51b815260206004820181905260248201527f7a65726f20617661696c61626c65207769746864726177616c20616d6f756e746044820152606401610c90565b63ffffffff851660009081526012602090815260408083206001600160a01b038816845290915281208054849290612505908490614b2b565b909155505063ffffffff851660009081526013602090815260408083206001600160a01b038816845290915281208054839290612543908490614cee565b909155505063ffffffff85166000908152601460205260408120805483929061256d908490614cee565b90915550506001600160a01b0384166000908152601560205260408120805483929061259a908490614cee565b90915550506006546040516370a0823160e01b815230600482015260009161010090046001600160a01b0316906370a0823190602401602060405180830381865afa1580156125ed573d6000803e3d6000fd5b505050506040513d601f19601f820116820180604052508101906126119190614b7b565b9050818110156126bc57801561263d5760065461263d9061010090046001600160a01b03168683613a95565b6007546001600160a01b031663aad3ec96866126598486614cee565b6040516001600160e01b031960e085901b1681526001600160a01b0390921660048301526024820152604401600060405180830381600087803b15801561269f57600080fd5b505af11580156126b3573d6000803e3d6000fd5b505050506126d8565b6006546126d89061010090046001600160a01b03168684613a95565b6040805163ffffffff881681526001600160a01b03871660208201529081018390527f2d6eb139d2002caa088da5527d9d62f2f23bdf4504f5559a112535c436c6ee599060600160405180910390a150506006805460ff1916600117905550505050565b63ffffffff821660008181526011602090815260408083206001600160a01b0386168085529083528184205494845260128352818420908452909152812054908183106127905761278d8284614cee565b90505b9250925092565b6008546040805163b969fbef60e01b815290516000926001600160a01b03169163b969fbef9160048083019260209291908290030181865afa158015611396573d6000803e3d6000fd5b63ffffffff82166000908152600e60205260408120819081906128059085906137d4565b91509150816128295763ffffffff85166000908152600d602052604090205461282b565b805b95945050505050565b60008281526020819052604090206001015461284f816130cb565b610fdb8383613173565b6008546000906001600160a01b031633146128b65760405162461bcd60e51b815260206004820152601160248201527f6e6f74204c61796572324d616e616765720000000000000000000000000000006044820152606401610c90565b63ffffffff8316600090815260166020526040902080546128d690614b94565b1590506129255760405162461bcd60e51b815260206004820152600f60248201527f616c7265616479206372656174656400000000000000000000000000000000006044820152606401610c90565b60398251116129765760405162461bcd60e51b815260206004820152600b60248201527f77726f6e67205f696e666f0000000000000000000000000000000000000000006044820152606401610c90565b60405163186ca86f60e21b815260009073__$d436d56fec194dfaaabaf06742f0275c03$__906361b2a1bc906129b090869060040161495a565b606060405180830381865af41580156129cd573d6000803e3d6000fd5b505050506040513d601f19601f820116820180604052508101906129f19190614c53565b60208082015163ffffffff908116600090815260188352604080822085516001600160a01b0316835290935291909120549192501615612a735760405162461bcd60e51b815260206004820152600e60248201527f616c7265616420657869737465640000000000000000000000000000000000006044820152606401610c90565b61271061ffff16816040015161ffff1610612ad05760405162461bcd60e51b815260206004820152600e60248201527f636f6d6d697373696f6e206572720000000000000000000000000000000000006044820152606401610c90565b6000612add84601a614217565b9050612aec846000601a613bb0565b604051602001612afc9190614d4b565b60408051601f1981840301815291815263ffffffff8716600090815260166020522090612b299082614dad565b5060208281015163ffffffff908116600090815260188352604080822086516001600160a01b0316835290935291909120805463ffffffff19169187169190911790558015612ba757600854600654612b95916001600160a01b036101009092048216911630846132b2565b612ba7858360000151836000806133d6565b506001949350505050565b6000806000612bc284600b6137d4565b91509150816121ae57600a54610fae565b60178181548110612be357600080fd5b6000918252602090912001546001600160a01b0316905081565b600080612c0b83600b6137d4565b91509150915091565b60065460009060ff16612c525760405162461bcd60e51b8152600401610c90906020808252600490820152636c6f636b60e01b604082015260600190565b6006805460ff19169055612c6685856138f7565b63ffffffff851660009081526011602090815260408083206001600160a01b038816845290915281205480612cca5760405162461bcd60e51b815260206004820152600a6024820152696e6f20756e7374616b6560b01b6044820152606401610c90565b83612cd58683614cee565b1015612d235760405162461bcd60e51b815260206004820152601860248201527f6e2065786365656473206e756d206f662070656e64696e6700000000000000006044820152606401610c90565b6000612d2f8587614b2b565b90505b80861015612e255763ffffffff881660009081526011602090815260408083206001600160a01b038b1684529091528120805488908110612d7557612d75614aff565b6000918252602090912001805490915064010000000081046001600160801b031690600160a01b900460ff1615612dee5760405162461bcd60e51b815260206004820152601260248201527f616c7265616479207769746864726177616c00000000000000000000000000006044820152606401610c90565b8015612e0157612dfe8186614b2b565b94505b50805460ff60a01b1916600160a01b17905585612e1d81614b62565b965050612d32565b60008311612e755760405162461bcd60e51b815260206004820152601760248201527f6e6f2076616c69642072657374616b6520616d6f756e740000000000000000006044820152606401610c90565b600754604051636a2fb1f560e01b8152600481018590526000916001600160a01b031690636a2fb1f590602401602060405180830381865afa158015612ebf573d6000803e3d6000fd5b505050506040513d601f19601f82011682018060405250810190612ee39190614b7b565b63ffffffff8a166000908152600f602090815260408083206001600160a01b038d168452909152812080549293509186918391612f21908490614b2b565b9250508190555081816001016000828254612f3c9190614b2b565b909155505063ffffffff8a166000908152600d602052604081208054849290612f66908490614b2b565b9250508190555081600a6000828254612f7f9190614b2b565b909155505063ffffffff8a1660009081526013602090815260408083206001600160a01b038d16845290915281208054879290612fbd908490614cee565b909155505063ffffffff8a1660009081526014602052604081208054879290612fe7908490614cee565b90915550506001600160a01b03891660009081526015602052604081208054879290613014908490614cee565b909155505063ffffffff8a1660009081526012602090815260408083206001600160a01b038d16845290915281208054899290613052908490614b2b565b90915550506040805163ffffffff8c1681526001600160a01b038b166020820152908101869052606081018390527f34981dc0486069d2abbaddbc42e10b97cb24e4bce60ee4457e1d5062dfc0b4299060800160405180910390a16001955050505050506006805460ff19166001179055949350505050565b610d2781336142d7565b6000828152602081815260408083206001600160a01b038516845290915290205460ff16610c99576000828152602081815260408083206001600160a01b03851684529091529020805460ff1916600117905561312f3390565b6001600160a01b0316816001600160a01b0316837f2f8788117e7eff1d82e926ec794901d17c78024a50270940304540a733656f0d60405160405180910390a45050565b6000828152602081815260408083206001600160a01b038516845290915290205460ff1615610c99576000828152602081815260408083206001600160a01b0385168085529252808320805460ff1916905551339285917ff6391f5c32d9c69d2a47ea670b442974b53935d1edc7fd64eb21e047a839171b9190a45050565b600081613200816004614b2b565b101561324e5760405162461bcd60e51b815260206004820152601160248201527f746f55696e7433325f6f766572666c6f770000000000000000000000000000006044820152606401610c90565b613259826004614b2b565b835110156132a95760405162461bcd60e51b815260206004820152601460248201527f746f55696e7433325f6f75744f66426f756e64730000000000000000000000006044820152606401610c90565b50016004015190565b604080516001600160a01b0385811660248301528481166044830152606480830185905283518084039091018152608490920183526020820180516001600160e01b03166323b872dd60e01b17905291516000928392908816916133169190614d4b565b6000604051808303816000865af19150503d8060008114613353576040519150601f19603f3d011682016040523d82523d6000602084013e613358565b606091505b50915091508180156133825750805115806133825750808060200190518101906133829190614ccc565b6133ce5760405162461bcd60e51b815260206004820152601460248201527f5452414e534645525f46524f4d5f4641494c45440000000000000000000000006044820152606401610c90565b505050505050565b60065460ff166134115760405162461bcd60e51b8152600401610c90906020808252600490820152636c6f636b60e01b604082015260600190565b6006805460ff191690558260008190036134525760405162461bcd60e51b81526020600482015260026024820152615a3160f01b6044820152606401610c90565b61345c86866138f7565b600754604051636a2fb1f560e01b8152600481018690526000916001600160a01b031690636a2fb1f590602401602060405180830381865afa1580156134a6573d6000803e3d6000fd5b505050506040513d601f19601f820116820180604052508101906134ca9190614b7b565b63ffffffff88166000908152600d60205260408120805492935083929091906134f4908490614b2b565b9250508190555080600a600082825461350d9190614b2b565b909155505063ffffffff87166000908152600f602090815260408083206001600160a01b038a1684529091529020600281015460ff166135af57600281018054600160ff1990911681179091556017805491820181556000527fc624b66cc0138b8fabc209247f72d758e1cf3343756d543badbf24212bed8c1501805473ffffffffffffffffffffffffffffffffffffffff19166001600160a01b0389161790555b600061ffff8516158015906135cc57506001600160a01b03861615155b80156135dd57506127108561ffff16105b15613720576127106135f361ffff871685614e6d565b6135fd9190614e84565b90506136098184614cee565b60075460405163cdf6800960e01b8152600481018390529194506000916001600160a01b039091169063cdf6800990602401602060405180830381865afa158015613658573d6000803e3d6000fd5b505050506040513d601f19601f8201168201806040525081019061367c9190614b7b565b9050808360000160008282546136929190614b2b565b92505081905550838360010160008282546136ad9190614b2b565b909155505063ffffffff8a166000908152600f602090815260408083206001600160a01b038b16845290915290206136e5828a614cee565b8160000160008282546136f89190614b2b565b92505081905550828160010160008282546137139190614b2b565b9091555061375592505050565b868260000160008282546137349190614b2b565b925050819055508282600101600082825461374f9190614b2b565b90915550505b6040805163ffffffff8b1681526001600160a01b038a811660208301528183018a9052606082018690528816608082015261ffff871660a082015290517f318dab784577ac2e7d86f88c3f2a80520b447b822b8a756158648e0f917d16a09181900360c00190a150506006805460ff1916600117905550505050505050565b6000806137df61134c565b84111561382e5760405162461bcd60e51b815260206004820152601860248201527f536e617073686f743a206e6f6e6578697374656e7420696400000000000000006044820152606401610c90565b82541580159061386757508254839061384990600190614cee565b8154811061385957613859614aff565b906000526020600020015484115b156138a55782546000906001808601916138819190614cee565b8154811061389157613891614aff565b9060005260206000200154915091506112a1565b60006138b1848661434a565b845490915081106138c95760008092509250506112a1565b60018460010182815481106138e0576138e0614aff565b906000526020600020015492509250509250929050565b61390a600b613905600a5490565b61445a565b63ffffffff82166000908152600e60209081526040808320600d90925290912054613935919061445a565b63ffffffff821660008181526010602090815260408083206001600160a01b038616808552908352818420948452600f8352818420908452825291829020825160608101845281548152600182015492810183905260029091015460ff161515920191909152610c99919061445a565b6000816139b3816014614b2b565b1015613a015760405162461bcd60e51b815260206004820152601260248201527f746f416464726573735f6f766572666c6f7700000000000000000000000000006044820152606401610c90565b613a0c826014614b2b565b83511015613a5c5760405162461bcd60e51b815260206004820152601560248201527f746f416464726573735f6f75744f66426f756e647300000000000000000000006044820152606401610c90565b50016014015190565b600654613a829061010090046001600160a01b03163330866132b2565b613a8f84338585856133d6565b50505050565b604080516001600160a01b038481166024830152604480830185905283518084039091018152606490920183526020820180516001600160e01b031663a9059cbb60e01b1790529151600092839290871691613af19190614d4b565b6000604051808303816000865af19150503d8060008114613b2e576040519150601f19603f3d011682016040523d82523d6000602084013e613b33565b606091505b5091509150818015613b5d575080511580613b5d575080806020019051810190613b5d9190614ccc565b613ba95760405162461bcd60e51b815260206004820152600f60248201527f5452414e534645525f4641494c454400000000000000000000000000000000006044820152606401610c90565b5050505050565b606081613bbe81601f614b2b565b1015613bfd5760405162461bcd60e51b815260206004820152600e60248201526d736c6963655f6f766572666c6f7760901b6044820152606401610c90565b82613c088382614b2b565b1015613c475760405162461bcd60e51b815260206004820152600e60248201526d736c6963655f6f766572666c6f7760901b6044820152606401610c90565b613c518284614b2b565b84511015613ca15760405162461bcd60e51b815260206004820152601160248201527f736c6963655f6f75744f66426f756e64730000000000000000000000000000006044820152606401610c90565b606082158015613cc05760405191506000825260208201604052613d0a565b6040519150601f8416801560200281840101858101878315602002848b0101015b81831015613cf9578051835260209283019201613ce1565b5050858452601f01601f1916604052505b50949350505050565b60065460ff16613d4e5760405162461bcd60e51b8152600401610c90906020808252600490820152636c6f636b60e01b604082015260600190565b6006805460ff19169055816000819003613d8f5760405162461bcd60e51b81526020600482015260026024820152615a3160f01b6044820152606401610c90565b33613d9a85826138f7565b60075460405163cdf6800960e01b8152600481018690526000916001600160a01b03169063cdf6800990602401602060405180830381865afa158015613de4573d6000803e3d6000fd5b505050506040513d601f19601f82011682018060405250810190613e089190614b7b565b63ffffffff87166000908152600f602090815260408083206001600160a01b038716845290915290209091508415613f09576001810154600754604051636a2fb1f560e01b8152600481018890526001600160a01b0390911690636a2fb1f590602401602060405180830381865afa158015613e88573d6000803e3d6000fd5b505050506040513d601f19601f82011682018060405250810190613eac9190614b7b565b613eb69088614b2b565b1115613f045760405162461bcd60e51b815260206004820152600d60248201527f756e7374616b655f6572725f31000000000000000000000000000000000000006044820152606401610c90565b613f5d565b8060010154861115613f5d5760405162461bcd60e51b815260206004820152600d60248201527f756e7374616b655f6572725f32000000000000000000000000000000000000006044820152606401610c90565b85816001016000828254613f719190614cee565b90915550508054821115613f885760008155613fa2565b81816000016000828254613f9c9190614cee565b90915550505b63ffffffff87166000908152600d602052604081208054889290613fc7908490614cee565b9250508190555085600a6000828254613fe09190614cee565b909155505060085460408051636577b27360e11b815290516000926001600160a01b03169163caef64e69160048083019260209291908290030181865afa15801561402f573d6000803e3d6000fd5b505050506040513d601f19601f820116820180604052508101906140539190614b7b565b63ffffffff891660009081526011602090815260408083206001600160a01b038916845290915290819020815160608101909252919250806140958443614b2b565b63ffffffff90811682526001600160801b0380881660208085019190915260006040948501819052865460018101885596815281812086519701805487840151978701511515600160a01b0260ff60a01b19989095166401000000000273ffffffffffffffffffffffffffffffffffffffff19909116988616989098179790971795909516919091179094558b168252601383528082206001600160a01b0388168352909252908120805485929061414e908490614b2b565b909155505063ffffffff881660009081526014602052604081208054859290614178908490614b2b565b90915550506001600160a01b038416600090815260156020526040812080548592906141a5908490614b2b565b90915550506040805163ffffffff8a1681526001600160a01b0386166020820152908101849052606081018890527f869a01319d83bb921803a22e3e95d0cb8b08e708d3fb144e2c25a563bf8650d39060800160405180910390a150506006805460ff19166001179055505050505050565b600081614225816020614b2b565b10156142735760405162461bcd60e51b815260206004820152601260248201527f746f55696e743235365f6f766572666c6f7700000000000000000000000000006044820152606401610c90565b61427e826020614b2b565b835110156142ce5760405162461bcd60e51b815260206004820152601560248201527f746f55696e743235365f6f75744f66426f756e647300000000000000000000006044820152606401610c90565b50016020015190565b6000828152602081815260408083206001600160a01b038516845290915290205460ff16610c9957614308816144af565b6143138360206144c1565b604051602001614324929190614ea6565b60408051601f198184030181529082905262461bcd60e51b8252610c909160040161495a565b8154600090810361435d57506000610c22565b8254839061436d90600190614cee565b8154811061437d5761437d614aff565b906000526020600020015482106143a357825461439c90600190614cee565b9050610c22565b826000815481106143b6576143b6614aff565b90600052602060002001548210156143d057506000610c22565b825460009081906143e390600190614cee565b90505b8181111561445257600060026143fc8484614b2b565b614407906001614b2b565b6144119190614e84565b90508486828154811061442657614426614aff565b90600052602060002001541161443e5780925061444c565b614449600182614cee565b91505b506143e6565b509392505050565b600061446461134c565b8354909150158061447c57508061447a8461466a565b105b15610fdb578254600180820185556000858152602080822090930193909355938401805494850181558252902090910155565b6060610c226001600160a01b03831660145b606060006144d0836002614e6d565b6144db906002614b2b565b67ffffffffffffffff8111156144f3576144f3614a10565b6040519080825280601f01601f19166020018201604052801561451d576020820181803683370190505b509050600360fc1b8160008151811061453857614538614aff565b60200101906001600160f81b031916908160001a905350600f60fb1b8160018151811061456757614567614aff565b60200101906001600160f81b031916908160001a905350600061458b846002614e6d565b614596906001614b2b565b90505b600181111561461b577f303132333435363738396162636465660000000000000000000000000000000085600f16601081106145d7576145d7614aff565b1a60f81b8282815181106145ed576145ed614aff565b60200101906001600160f81b031916908160001a90535060049490941c9361461481614f27565b9050614599565b5083156121ae5760405162461bcd60e51b815260206004820181905260248201527f537472696e67733a20686578206c656e67746820696e73756666696369656e746044820152606401610c90565b8054600090810361467d57506000919050565b8154829061468d90600190614cee565b8154811061469d5761469d614aff565b90600052602060002001549050919050565b6000602082840312156146c157600080fd5b81356001600160e01b0319811681146121ae57600080fd5b63ffffffff81168114610d2757600080fd5b6000602082840312156146fd57600080fd5b81356121ae816146d9565b6001600160a01b0381168114610d2757600080fd5b60006020828403121561472f57600080fd5b81356121ae81614708565b6000806040838503121561474d57600080fd5b8235614758816146d9565b9150602083013561476881614708565b809150509250929050565b60006020828403121561478557600080fd5b5035919050565b6000806000606084860312156147a157600080fd5b83356147ac816146d9565b925060208401356147bc81614708565b929592945050506040919091013590565b600080604083850312156147e057600080fd5b82359150602083013561476881614708565b60008060008060006080868803121561480a57600080fd5b853561481581614708565b9450602086013561482581614708565b935060408601359250606086013567ffffffffffffffff8082111561484957600080fd5b818801915088601f83011261485d57600080fd5b81358181111561486c57600080fd5b89602082850101111561487e57600080fd5b9699959850939650602001949392505050565b6020808252825182820181905260009190848201906040850190845b818110156148d25783516001600160a01b0316835292840192918401916001016148ad565b50909695505050505050565b600080604083850312156148f157600080fd5b82356148fc816146d9565b946020939093013593505050565b60005b8381101561492557818101518382015260200161490d565b50506000910152565b6000815180845261494681602086016020860161490a565b601f01601f19169290920160200192915050565b6020815260006121ae602083018461492e565b6000806000806080858703121561498357600080fd5b843593506020850135614995816146d9565b925060408501356149a581614708565b9396929550929360600135925050565b600080600080600060a086880312156149cd57600080fd5b8535945060208601356149df816146d9565b935060408601356149ef81614708565b925060608601356149ff81614708565b949793965091946080013592915050565b634e487b7160e01b600052604160045260246000fd5b604051601f8201601f1916810167ffffffffffffffff81118282101715614a4f57614a4f614a10565b604052919050565b60008060408385031215614a6a57600080fd5b8235614a75816146d9565b915060208381013567ffffffffffffffff80821115614a9357600080fd5b818601915086601f830112614aa757600080fd5b813581811115614ab957614ab9614a10565b614acb601f8201601f19168501614a26565b91508082528784828501011115614ae157600080fd5b80848401858401376000848284010152508093505050509250929050565b634e487b7160e01b600052603260045260246000fd5b634e487b7160e01b600052601160045260246000fd5b80820180821115610c2257610c22614b15565b63ffffffff818116838216019080821115614b5b57614b5b614b15565b5092915050565b600060018201614b7457614b74614b15565b5060010190565b600060208284031215614b8d57600080fd5b5051919050565b600181811c90821680614ba857607f821691505b602082108103611a4057634e487b7160e01b600052602260045260246000fd5b6000602080835260008454614bdc81614b94565b80848701526040600180841660008114614bfd5760018114614c1757614c45565b60ff1985168984015283151560051b890183019550614c45565b896000528660002060005b85811015614c3d5781548b8201860152908301908801614c22565b8a0184019650505b509398975050505050505050565b600060608284031215614c6557600080fd5b6040516060810181811067ffffffffffffffff82111715614c8857614c88614a10565b6040528251614c9681614708565b81526020830151614ca6816146d9565b6020820152604083015161ffff81168114614cc057600080fd5b60408201529392505050565b600060208284031215614cde57600080fd5b815180151581146121ae57600080fd5b81810381811115610c2257610c22614b15565b60008351614d1381846020880161490a565b60f09390931b7fffff000000000000000000000000000000000000000000000000000000000000169190920190815260020192915050565b60008251614d5d81846020870161490a565b9190910192915050565b601f821115610fdb57600081815260208120601f850160051c81016020861015614d8e5750805b601f850160051c820191505b818110156133ce57828155600101614d9a565b815167ffffffffffffffff811115614dc757614dc7614a10565b614ddb81614dd58454614b94565b84614d67565b602080601f831160018114614e105760008415614df85750858301515b600019600386901b1c1916600185901b1785556133ce565b600085815260208120601f198616915b82811015614e3f57888601518255948401946001909101908401614e20565b5085821015614e5d5787850151600019600388901b60f8161c191681555b5050505050600190811b01905550565b8082028115828204841417610c2257610c22614b15565b600082614ea157634e487b7160e01b600052601260045260246000fd5b500490565b7f416363657373436f6e74726f6c3a206163636f756e7420000000000000000000815260008351614ede81601785016020880161490a565b7f206973206d697373696e6720726f6c65200000000000000000000000000000006017918401918201528351614f1b81602884016020880161490a565b01602801949350505050565b600081614f3657614f36614b15565b50600019019056fea164736f6c6343000812000a",
  "linkReferences": {
    "contracts/libraries/LibOperator.sol": {
      "LibOperator": [
        {
          "length": 20,
          "start": 4882
        },
        {
          "length": 20,
          "start": 10677
        }
      ]
    }
  },
  "deployedLinkReferences": {
    "contracts/libraries/LibOperator.sol": {
      "LibOperator": [
        {
          "length": 20,
          "start": 4837
        },
        {
          "length": 20,
          "start": 10632
        }
      ]
    }
  }
}