{
  "_format": "hh-sol-artifact-1",
  "contractName": "Candidate",
  "sourceName": "contracts/Candidate.sol",
  "abi": [
    {
      "inputs": [],
      "stateMutability": "nonpayable",
      "type": "constructor"
    },
    {
      "anonymous": false,
      "inputs": [
        {
          "indexed": false,
          "internalType": "bytes32",
          "name": "hashMessage",
          "type": "bytes32"
        },
        {
          "indexed": false,
          "internalType": "uint32",
          "name": "layerIndex",
          "type": "uint32"
        },
        {
          "indexed": false,
          "internalType": "address",
          "name": "from",
          "type": "address"
        },
        {
          "indexed": false,
          "internalType": "address",
          "name": "to",
          "type": "address"
        },
        {
          "indexed": false,
          "internalType": "uint256",
          "name": "amount",
          "type": "uint256"
        }
      ],
      "name": "FastWithdrawalClaim",
      "type": "event"
    },
    {
      "anonymous": false,
      "inputs": [
        {
          "indexed": false,
          "internalType": "bytes32",
          "name": "hashMessage",
          "type": "bytes32"
        },
        {
          "indexed": false,
          "internalType": "uint32",
          "name": "layerIndex",
          "type": "uint32"
        },
        {
          "indexed": false,
          "internalType": "address",
          "name": "staker",
          "type": "address"
        },
        {
          "indexed": false,
          "internalType": "uint256",
          "name": "amount",
          "type": "uint256"
        },
        {
          "indexed": false,
          "internalType": "uint256",
          "name": "lton",
          "type": "uint256"
        }
      ],
      "name": "FastWithdrawalStaked",
      "type": "event"
    },
    {
      "anonymous": false,
      "inputs": [
        {
          "indexed": false,
          "internalType": "uint32",
          "name": "sequencerIndex",
          "type": "uint32"
        },
        {
          "indexed": false,
          "internalType": "uint32",
          "name": "candidateIndex",
          "type": "uint32"
        },
        {
          "indexed": false,
          "internalType": "address",
          "name": "sender",
          "type": "address"
        },
        {
          "indexed": false,
          "internalType": "uint256",
          "name": "amount",
          "type": "uint256"
        },
        {
          "indexed": false,
          "internalType": "uint256",
          "name": "lton",
          "type": "uint256"
        }
      ],
      "name": "Restaked",
      "type": "event"
    },
    {
      "anonymous": false,
      "inputs": [
        {
          "indexed": true,
          "internalType": "bytes32",
          "name": "role",
          "type": "bytes32"
        },
        {
          "indexed": true,
          "internalType": "bytes32",
          "name": "previousAdminRole",
          "type": "bytes32"
        },
        {
          "indexed": true,
          "internalType": "bytes32",
          "name": "newAdminRole",
          "type": "bytes32"
        }
      ],
      "name": "RoleAdminChanged",
      "type": "event"
    },
    {
      "anonymous": false,
      "inputs": [
        {
          "indexed": true,
          "internalType": "bytes32",
          "name": "role",
          "type": "bytes32"
        },
        {
          "indexed": true,
          "internalType": "address",
          "name": "account",
          "type": "address"
        },
        {
          "indexed": true,
          "internalType": "address",
          "name": "sender",
          "type": "address"
        }
      ],
      "name": "RoleGranted",
      "type": "event"
    },
    {
      "anonymous": false,
      "inputs": [
        {
          "indexed": true,
          "internalType": "bytes32",
          "name": "role",
          "type": "bytes32"
        },
        {
          "indexed": true,
          "internalType": "address",
          "name": "account",
          "type": "address"
        },
        {
          "indexed": true,
          "internalType": "address",
          "name": "sender",
          "type": "address"
        }
      ],
      "name": "RoleRevoked",
      "type": "event"
    },
    {
      "anonymous": false,
      "inputs": [
        {
          "indexed": false,
          "internalType": "uint32",
          "name": "sequencerIndex",
          "type": "uint32"
        },
        {
          "indexed": false,
          "internalType": "uint32",
          "name": "candidateIndex",
          "type": "uint32"
        },
        {
          "indexed": false,
          "internalType": "address",
          "name": "sender",
          "type": "address"
        },
        {
          "indexed": false,
          "internalType": "uint256",
          "name": "amount",
          "type": "uint256"
        },
        {
          "indexed": false,
          "internalType": "uint256",
          "name": "lton",
          "type": "uint256"
        },
        {
          "indexed": false,
          "internalType": "address",
          "name": "commissionTo",
          "type": "address"
        },
        {
          "indexed": false,
          "internalType": "uint16",
          "name": "commission",
          "type": "uint16"
        }
      ],
      "name": "Staked",
      "type": "event"
    },
    {
      "anonymous": false,
      "inputs": [
        {
          "indexed": false,
          "internalType": "uint32",
          "name": "sequencerIndex",
          "type": "uint32"
        },
        {
          "indexed": false,
          "internalType": "uint32",
          "name": "candidateIndex",
          "type": "uint32"
        },
        {
          "indexed": false,
          "internalType": "address",
          "name": "sender",
          "type": "address"
        },
        {
          "indexed": false,
          "internalType": "uint256",
          "name": "amount",
          "type": "uint256"
        },
        {
          "indexed": false,
          "internalType": "uint256",
          "name": "lton",
          "type": "uint256"
        }
      ],
      "name": "Unstaked",
      "type": "event"
    },
    {
      "anonymous": false,
      "inputs": [
        {
          "indexed": false,
          "internalType": "uint32",
          "name": "sequencerIndex",
          "type": "uint32"
        },
        {
          "indexed": false,
          "internalType": "uint32",
          "name": "candidateIndex",
          "type": "uint32"
        },
        {
          "indexed": false,
          "internalType": "address",
          "name": "sender",
          "type": "address"
        },
        {
          "indexed": false,
          "internalType": "uint256",
          "name": "amount",
          "type": "uint256"
        }
      ],
      "name": "Withdrawal",
      "type": "event"
    },
    {
      "inputs": [],
      "name": "ADMIN_ROLE",
      "outputs": [
        {
          "internalType": "bytes32",
          "name": "",
          "type": "bytes32"
        }
      ],
      "stateMutability": "view",
      "type": "function"
    },
    {
      "inputs": [],
      "name": "DEFAULT_ADMIN_ROLE",
      "outputs": [
        {
          "internalType": "bytes32",
          "name": "",
          "type": "bytes32"
        }
      ],
      "stateMutability": "view",
      "type": "function"
    },
    {
      "inputs": [],
      "name": "POLICY_ROLE",
      "outputs": [
        {
          "internalType": "bytes32",
          "name": "",
          "type": "bytes32"
        }
      ],
      "stateMutability": "view",
      "type": "function"
    },
    {
      "inputs": [
        {
          "internalType": "address",
          "name": "account",
          "type": "address"
        }
      ],
      "name": "addAdmin",
      "outputs": [],
      "stateMutability": "nonpayable",
      "type": "function"
    },
    {
      "inputs": [
        {
          "internalType": "address",
          "name": "",
          "type": "address"
        }
      ],
      "name": "aliveImplementation",
      "outputs": [
        {
          "internalType": "bool",
          "name": "",
          "type": "bool"
        }
      ],
      "stateMutability": "view",
      "type": "function"
    },
    {
      "inputs": [
        {
          "internalType": "uint32",
          "name": "layerIndex",
          "type": "uint32"
        },
        {
          "internalType": "address",
          "name": "account",
          "type": "address"
        }
      ],
      "name": "amountOfPendings",
      "outputs": [
        {
          "internalType": "uint256",
          "name": "amount",
          "type": "uint256"
        },
        {
          "internalType": "uint32",
          "name": "startIndex",
          "type": "uint32"
        },
        {
          "internalType": "uint32",
          "name": "len",
          "type": "uint32"
        },
        {
          "internalType": "uint32",
          "name": "nextWithdrawableBlockNumber",
          "type": "uint32"
        }
      ],
      "stateMutability": "view",
      "type": "function"
    },
    {
      "inputs": [
        {
          "internalType": "uint32",
          "name": "_index",
          "type": "uint32"
        },
        {
          "internalType": "address",
          "name": "account",
          "type": "address"
        }
      ],
      "name": "availableWithdraw",
      "outputs": [
        {
          "internalType": "uint256",
          "name": "amount",
          "type": "uint256"
        },
        {
          "internalType": "uint32",
          "name": "startIndex",
          "type": "uint32"
        },
        {
          "internalType": "uint32",
          "name": "len",
          "type": "uint32"
        }
      ],
      "stateMutability": "view",
      "type": "function"
    },
    {
      "inputs": [
        {
          "internalType": "uint32",
          "name": "_index",
          "type": "uint32"
        },
        {
          "internalType": "address",
          "name": "account",
          "type": "address"
        }
      ],
      "name": "balanceOf",
      "outputs": [
        {
          "internalType": "uint256",
          "name": "amount",
          "type": "uint256"
        }
      ],
      "stateMutability": "view",
      "type": "function"
    },
    {
      "inputs": [
        {
          "internalType": "uint32",
          "name": "_index",
          "type": "uint32"
        },
        {
          "internalType": "address",
          "name": "account",
          "type": "address"
        },
        {
          "internalType": "uint256",
          "name": "snapshotId",
          "type": "uint256"
        }
      ],
      "name": "balanceOfAt",
      "outputs": [
        {
          "internalType": "uint256",
          "name": "amount",
          "type": "uint256"
        }
      ],
      "stateMutability": "view",
      "type": "function"
    },
    {
      "inputs": [
        {
          "internalType": "uint32",
          "name": "_index",
          "type": "uint32"
        },
        {
          "internalType": "address",
          "name": "account",
          "type": "address"
        }
      ],
      "name": "balanceOfLton",
      "outputs": [
        {
          "internalType": "uint256",
          "name": "amount",
          "type": "uint256"
        }
      ],
      "stateMutability": "view",
      "type": "function"
    },
    {
      "inputs": [
        {
          "internalType": "uint32",
          "name": "_index",
          "type": "uint32"
        }
      ],
      "name": "balanceOfLton",
      "outputs": [
        {
          "internalType": "uint256",
          "name": "amount",
          "type": "uint256"
        }
      ],
      "stateMutability": "view",
      "type": "function"
    },
    {
      "inputs": [
        {
          "internalType": "uint32",
          "name": "_index",
          "type": "uint32"
        },
        {
          "internalType": "address",
          "name": "account",
          "type": "address"
        },
        {
          "internalType": "uint256",
          "name": "snapshotId",
          "type": "uint256"
        }
      ],
      "name": "balanceOfLtonAt",
      "outputs": [
        {
          "internalType": "uint256",
          "name": "amount",
          "type": "uint256"
        }
      ],
      "stateMutability": "view",
      "type": "function"
    },
    {
      "inputs": [
        {
          "internalType": "uint32",
          "name": "_index",
          "type": "uint32"
        },
        {
          "internalType": "uint256",
          "name": "snapshotId",
          "type": "uint256"
        }
      ],
      "name": "balanceOfLtonAt",
      "outputs": [
        {
          "internalType": "uint256",
          "name": "amount",
          "type": "uint256"
        }
      ],
      "stateMutability": "view",
      "type": "function"
    },
    {
      "inputs": [
        {
          "internalType": "uint32",
          "name": "_index",
          "type": "uint32"
        },
        {
          "internalType": "uint256",
          "name": "snapshotId",
          "type": "uint256"
        }
      ],
      "name": "balanceOfLtonAtSnapshot",
      "outputs": [
        {
          "internalType": "bool",
          "name": "snapshotted",
          "type": "bool"
        },
        {
          "internalType": "uint256",
          "name": "amount",
          "type": "uint256"
        }
      ],
      "stateMutability": "view",
      "type": "function"
    },
    {
      "inputs": [
        {
          "internalType": "uint32",
          "name": "_index",
          "type": "uint32"
        },
        {
          "internalType": "address",
          "name": "account",
          "type": "address"
        },
        {
          "internalType": "uint256",
          "name": "snapshotId",
          "type": "uint256"
        }
      ],
      "name": "balanceOfLtonAtSnapshot",
      "outputs": [
        {
          "internalType": "bool",
          "name": "snapshotted",
          "type": "bool"
        },
        {
          "internalType": "uint256",
          "name": "amount",
          "type": "uint256"
        }
      ],
      "stateMutability": "view",
      "type": "function"
    },
    {
      "inputs": [
        {
          "internalType": "uint32",
          "name": "_candidateIndex",
          "type": "uint32"
        },
        {
          "internalType": "bytes",
          "name": "_info",
          "type": "bytes"
        }
      ],
      "name": "create",
      "outputs": [
        {
          "internalType": "bool",
          "name": "",
          "type": "bool"
        }
      ],
      "stateMutability": "nonpayable",
      "type": "function"
    },
    {
      "inputs": [
        {
          "internalType": "uint32",
          "name": "_index",
          "type": "uint32"
        }
      ],
      "name": "existedIndex",
      "outputs": [
        {
          "internalType": "bool",
          "name": "",
          "type": "bool"
        }
      ],
      "stateMutability": "view",
      "type": "function"
    },
    {
      "inputs": [
        {
          "internalType": "bytes32",
          "name": "hashMessage",
          "type": "bytes32"
        },
        {
          "internalType": "uint32",
          "name": "layerIndex",
          "type": "uint32"
        },
        {
          "internalType": "address",
          "name": "from",
          "type": "address"
        },
        {
          "internalType": "address",
          "name": "to",
          "type": "address"
        },
        {
          "internalType": "uint256",
          "name": "amount",
          "type": "uint256"
        }
      ],
      "name": "fastWithdrawClaim",
      "outputs": [
        {
          "internalType": "bool",
          "name": "",
          "type": "bool"
        }
      ],
      "stateMutability": "nonpayable",
      "type": "function"
    },
    {
      "inputs": [
        {
          "internalType": "bytes32",
          "name": "hashMessage",
          "type": "bytes32"
        },
        {
          "internalType": "uint32",
          "name": "layerIndex",
          "type": "uint32"
        },
        {
          "internalType": "address",
          "name": "staker",
          "type": "address"
        },
        {
          "internalType": "uint256",
          "name": "_amount",
          "type": "uint256"
        }
      ],
      "name": "fastWithdrawStake",
      "outputs": [
        {
          "internalType": "bool",
          "name": "",
          "type": "bool"
        }
      ],
      "stateMutability": "nonpayable",
      "type": "function"
    },
    {
      "inputs": [],
      "name": "fwReceipt",
      "outputs": [
        {
          "internalType": "address",
          "name": "",
          "type": "address"
        }
      ],
      "stateMutability": "view",
      "type": "function"
    },
    {
      "inputs": [
        {
          "internalType": "uint32",
          "name": "_index",
          "type": "uint32"
        }
      ],
      "name": "getCandidateInfo",
      "outputs": [
        {
          "components": [
            {
              "internalType": "address",
              "name": "operator",
              "type": "address"
            },
            {
              "internalType": "uint32",
              "name": "sequencerIndex",
              "type": "uint32"
            },
            {
              "internalType": "uint16",
              "name": "commission",
              "type": "uint16"
            }
          ],
          "internalType": "struct LibOperator.Info",
          "name": "info",
          "type": "tuple"
        }
      ],
      "stateMutability": "view",
      "type": "function"
    },
    {
      "inputs": [
        {
          "internalType": "uint32",
          "name": "_index",
          "type": "uint32"
        }
      ],
      "name": "getCandidateKey",
      "outputs": [
        {
          "internalType": "bytes32",
          "name": "layerKey_",
          "type": "bytes32"
        }
      ],
      "stateMutability": "view",
      "type": "function"
    },
    {
      "inputs": [],
      "name": "getCurrentSnapshotId",
      "outputs": [
        {
          "internalType": "uint256",
          "name": "",
          "type": "uint256"
        }
      ],
      "stateMutability": "view",
      "type": "function"
    },
    {
      "inputs": [
        {
          "internalType": "uint32",
          "name": "_index",
          "type": "uint32"
        },
        {
          "internalType": "address",
          "name": "account",
          "type": "address"
        }
      ],
      "name": "getLayerStakes",
      "outputs": [
        {
          "components": [
            {
              "internalType": "uint256",
              "name": "stakePrincipal",
              "type": "uint256"
            },
            {
              "internalType": "uint256",
              "name": "stakelton",
              "type": "uint256"
            },
            {
              "internalType": "bool",
              "name": "stake",
              "type": "bool"
            }
          ],
          "internalType": "struct LibStake.StakeInfo",
          "name": "info",
          "type": "tuple"
        }
      ],
      "stateMutability": "view",
      "type": "function"
    },
    {
      "inputs": [
        {
          "internalType": "uint32",
          "name": "_index",
          "type": "uint32"
        },
        {
          "internalType": "address",
          "name": "account",
          "type": "address"
        }
      ],
      "name": "getPendingUnstakedAmount",
      "outputs": [
        {
          "internalType": "uint256",
          "name": "",
          "type": "uint256"
        }
      ],
      "stateMutability": "view",
      "type": "function"
    },
    {
      "inputs": [
        {
          "internalType": "bytes32",
          "name": "role",
          "type": "bytes32"
        }
      ],
      "name": "getRoleAdmin",
      "outputs": [
        {
          "internalType": "bytes32",
          "name": "",
          "type": "bytes32"
        }
      ],
      "stateMutability": "view",
      "type": "function"
    },
    {
      "inputs": [],
      "name": "getStakeAccountList",
      "outputs": [
        {
          "internalType": "address[]",
          "name": "",
          "type": "address[]"
        }
      ],
      "stateMutability": "view",
      "type": "function"
    },
    {
      "inputs": [],
      "name": "getTotalLton",
      "outputs": [
        {
          "internalType": "uint256",
          "name": "",
          "type": "uint256"
        }
      ],
      "stateMutability": "view",
      "type": "function"
    },
    {
      "inputs": [
        {
          "internalType": "bytes32",
          "name": "role",
          "type": "bytes32"
        },
        {
          "internalType": "address",
          "name": "account",
          "type": "address"
        }
      ],
      "name": "grantRole",
      "outputs": [],
      "stateMutability": "nonpayable",
      "type": "function"
    },
    {
      "inputs": [
        {
          "internalType": "bytes32",
          "name": "role",
          "type": "bytes32"
        },
        {
          "internalType": "address",
          "name": "account",
          "type": "address"
        }
      ],
      "name": "hasRole",
      "outputs": [
        {
          "internalType": "bool",
          "name": "",
          "type": "bool"
        }
      ],
      "stateMutability": "view",
      "type": "function"
    },
    {
      "inputs": [
        {
          "internalType": "address",
          "name": "account",
          "type": "address"
        }
      ],
      "name": "isAdmin",
      "outputs": [
        {
          "internalType": "bool",
          "name": "",
          "type": "bool"
        }
      ],
      "stateMutability": "view",
      "type": "function"
    },
    {
      "inputs": [
        {
          "internalType": "uint32",
          "name": "_index",
          "type": "uint32"
        }
      ],
      "name": "layer2Deposits",
      "outputs": [
        {
          "internalType": "uint256",
          "name": "amount",
          "type": "uint256"
        }
      ],
      "stateMutability": "view",
      "type": "function"
    },
    {
      "inputs": [],
      "name": "layer2Manager",
      "outputs": [
        {
          "internalType": "address",
          "name": "",
          "type": "address"
        }
      ],
      "stateMutability": "view",
      "type": "function"
    },
    {
      "inputs": [
        {
          "internalType": "uint32",
          "name": "",
          "type": "uint32"
        }
      ],
      "name": "layerInfo",
      "outputs": [
        {
          "internalType": "bytes",
          "name": "",
          "type": "bytes"
        }
      ],
      "stateMutability": "view",
      "type": "function"
    },
    {
      "inputs": [
        {
          "internalType": "uint32",
          "name": "",
          "type": "uint32"
        }
      ],
      "name": "layerStakedLton",
      "outputs": [
        {
          "internalType": "uint256",
          "name": "",
          "type": "uint256"
        }
      ],
      "stateMutability": "view",
      "type": "function"
    },
    {
      "inputs": [
        {
          "internalType": "uint32",
          "name": "",
          "type": "uint32"
        },
        {
          "internalType": "address",
          "name": "",
          "type": "address"
        }
      ],
      "name": "layerStakes",
      "outputs": [
        {
          "internalType": "uint256",
          "name": "stakePrincipal",
          "type": "uint256"
        },
        {
          "internalType": "uint256",
          "name": "stakelton",
          "type": "uint256"
        },
        {
          "internalType": "bool",
          "name": "stake",
          "type": "bool"
        }
      ],
      "stateMutability": "view",
      "type": "function"
    },
    {
      "inputs": [
        {
          "internalType": "uint32",
          "name": "layerIndex",
          "type": "uint32"
        },
        {
          "internalType": "address",
          "name": "account",
          "type": "address"
        }
      ],
      "name": "numberOfPendings",
      "outputs": [
        {
          "internalType": "uint256",
          "name": "totalRequests",
          "type": "uint256"
        },
        {
          "internalType": "uint256",
          "name": "withdrawIndex",
          "type": "uint256"
        },
        {
          "internalType": "uint256",
          "name": "pendingLength",
          "type": "uint256"
        }
      ],
      "stateMutability": "view",
      "type": "function"
    },
    {
      "inputs": [
        {
          "internalType": "address",
          "name": "sender",
          "type": "address"
        },
        {
          "internalType": "address",
          "name": "spender",
          "type": "address"
        },
        {
          "internalType": "uint256",
          "name": "amount",
          "type": "uint256"
        },
        {
          "internalType": "bytes",
          "name": "data",
          "type": "bytes"
        }
      ],
      "name": "onApprove",
      "outputs": [
        {
          "internalType": "bool",
          "name": "",
          "type": "bool"
        }
      ],
      "stateMutability": "nonpayable",
      "type": "function"
    },
    {
      "inputs": [
        {
          "internalType": "uint32",
          "name": "_index",
          "type": "uint32"
        }
      ],
      "name": "operator",
      "outputs": [
        {
          "internalType": "address",
          "name": "operator_",
          "type": "address"
        }
      ],
      "stateMutability": "view",
      "type": "function"
    },
    {
      "inputs": [
        {
          "internalType": "uint32",
          "name": "",
          "type": "uint32"
        },
        {
          "internalType": "address",
          "name": "",
          "type": "address"
        }
      ],
      "name": "operators",
      "outputs": [
        {
          "internalType": "uint32",
          "name": "",
          "type": "uint32"
        }
      ],
      "stateMutability": "view",
      "type": "function"
    },
    {
      "inputs": [],
      "name": "pauseProxy",
      "outputs": [
        {
          "internalType": "bool",
          "name": "",
          "type": "bool"
        }
      ],
      "stateMutability": "view",
      "type": "function"
    },
    {
      "inputs": [
        {
          "internalType": "uint32",
          "name": "",
          "type": "uint32"
        },
        {
          "internalType": "address",
          "name": "",
          "type": "address"
        }
      ],
      "name": "pendingUnstaked",
      "outputs": [
        {
          "internalType": "uint256",
          "name": "",
          "type": "uint256"
        }
      ],
      "stateMutability": "view",
      "type": "function"
    },
    {
      "inputs": [
        {
          "internalType": "address",
          "name": "",
          "type": "address"
        }
      ],
      "name": "pendingUnstakedAccount",
      "outputs": [
        {
          "internalType": "uint256",
          "name": "",
          "type": "uint256"
        }
      ],
      "stateMutability": "view",
      "type": "function"
    },
    {
      "inputs": [
        {
          "internalType": "uint32",
          "name": "",
          "type": "uint32"
        }
      ],
      "name": "pendingUnstakedLayer2",
      "outputs": [
        {
          "internalType": "uint256",
          "name": "",
          "type": "uint256"
        }
      ],
      "stateMutability": "view",
      "type": "function"
    },
    {
      "inputs": [
        {
          "internalType": "uint256",
          "name": "",
          "type": "uint256"
        }
      ],
      "name": "proxyImplementation",
      "outputs": [
        {
          "internalType": "address",
          "name": "",
          "type": "address"
        }
      ],
      "stateMutability": "view",
      "type": "function"
    },
    {
      "inputs": [
        {
          "internalType": "address",
          "name": "account",
          "type": "address"
        }
      ],
      "name": "removeAdmin",
      "outputs": [],
      "stateMutability": "nonpayable",
      "type": "function"
    },
    {
      "inputs": [
        {
          "internalType": "bytes32",
          "name": "role",
          "type": "bytes32"
        },
        {
          "internalType": "address",
          "name": "account",
          "type": "address"
        }
      ],
      "name": "renounceRole",
      "outputs": [],
      "stateMutability": "nonpayable",
      "type": "function"
    },
    {
      "inputs": [
        {
          "internalType": "uint32",
          "name": "_index",
          "type": "uint32"
        },
        {
          "internalType": "bool",
          "name": "isCandidate",
          "type": "bool"
        }
      ],
      "name": "restake",
      "outputs": [],
      "stateMutability": "nonpayable",
      "type": "function"
    },
    {
      "inputs": [
        {
          "internalType": "uint32",
          "name": "_index",
          "type": "uint32"
        },
        {
          "internalType": "uint256",
          "name": "n",
          "type": "uint256"
        },
        {
          "internalType": "bool",
          "name": "isCandidate",
          "type": "bool"
        }
      ],
      "name": "restakeMulti",
      "outputs": [],
      "stateMutability": "nonpayable",
      "type": "function"
    },
    {
      "inputs": [
        {
          "internalType": "bytes32",
          "name": "role",
          "type": "bytes32"
        },
        {
          "internalType": "address",
          "name": "account",
          "type": "address"
        }
      ],
      "name": "revokeRole",
      "outputs": [],
      "stateMutability": "nonpayable",
      "type": "function"
    },
    {
      "inputs": [],
      "name": "seigManagerV2",
      "outputs": [
        {
          "internalType": "address",
          "name": "",
          "type": "address"
        }
      ],
      "stateMutability": "view",
      "type": "function"
    },
    {
      "inputs": [
        {
          "internalType": "bytes4",
          "name": "",
          "type": "bytes4"
        }
      ],
      "name": "selectorImplementation",
      "outputs": [
        {
          "internalType": "address",
          "name": "",
          "type": "address"
        }
      ],
      "stateMutability": "view",
      "type": "function"
    },
    {
      "inputs": [
        {
          "internalType": "uint32",
          "name": "_index",
          "type": "uint32"
        },
        {
          "internalType": "uint256",
          "name": "amount",
          "type": "uint256"
        }
      ],
      "name": "stake",
      "outputs": [],
      "stateMutability": "nonpayable",
      "type": "function"
    },
    {
      "inputs": [
        {
          "internalType": "uint256",
          "name": "",
          "type": "uint256"
        }
      ],
      "name": "stakeAccountList",
      "outputs": [
        {
          "internalType": "address",
          "name": "",
          "type": "address"
        }
      ],
      "stateMutability": "view",
      "type": "function"
    },
    {
      "inputs": [
        {
          "internalType": "bytes4",
          "name": "interfaceId",
          "type": "bytes4"
        }
      ],
      "name": "supportsInterface",
      "outputs": [
        {
          "internalType": "bool",
          "name": "",
          "type": "bool"
        }
      ],
      "stateMutability": "view",
      "type": "function"
    },
    {
      "inputs": [],
      "name": "ton",
      "outputs": [
        {
          "internalType": "address",
          "name": "",
          "type": "address"
        }
      ],
      "stateMutability": "view",
      "type": "function"
    },
    {
      "inputs": [],
      "name": "totalLayer2Deposits",
      "outputs": [
        {
          "internalType": "uint256",
          "name": "amount",
          "type": "uint256"
        }
      ],
      "stateMutability": "view",
      "type": "function"
    },
    {
      "inputs": [],
      "name": "totalStakeAccountList",
      "outputs": [
        {
          "internalType": "uint256",
          "name": "",
          "type": "uint256"
        }
      ],
      "stateMutability": "view",
      "type": "function"
    },
    {
      "inputs": [],
      "name": "totalStakedLton",
      "outputs": [
        {
          "internalType": "uint256",
          "name": "amount",
          "type": "uint256"
        }
      ],
      "stateMutability": "view",
      "type": "function"
    },
    {
      "inputs": [
        {
          "internalType": "uint256",
          "name": "snapshotId",
          "type": "uint256"
        }
      ],
      "name": "totalStakedLtonAt",
      "outputs": [
        {
          "internalType": "uint256",
          "name": "amount",
          "type": "uint256"
        }
      ],
      "stateMutability": "view",
      "type": "function"
    },
    {
      "inputs": [
        {
          "internalType": "uint256",
          "name": "snapshotId",
          "type": "uint256"
        }
      ],
      "name": "totalStakedLtonAtSnapshot",
      "outputs": [
        {
          "internalType": "bool",
          "name": "snapshotted",
          "type": "bool"
        },
        {
          "internalType": "uint256",
          "name": "amount",
          "type": "uint256"
        }
      ],
      "stateMutability": "view",
      "type": "function"
    },
    {
      "inputs": [
        {
          "internalType": "address",
          "name": "newAdmin",
          "type": "address"
        }
      ],
      "name": "transferAdmin",
      "outputs": [],
      "stateMutability": "nonpayable",
      "type": "function"
    },
    {
      "inputs": [
        {
          "internalType": "uint32",
          "name": "_index",
          "type": "uint32"
        },
        {
          "internalType": "uint256",
          "name": "lton_",
          "type": "uint256"
        }
      ],
      "name": "unstake",
      "outputs": [],
      "stateMutability": "nonpayable",
      "type": "function"
    },
    {
      "inputs": [
        {
          "internalType": "uint32",
          "name": "_index",
          "type": "uint32"
        },
        {
          "internalType": "bool",
          "name": "isCandidate",
          "type": "bool"
        }
      ],
      "name": "withdraw",
      "outputs": [],
      "stateMutability": "nonpayable",
      "type": "function"
    },
    {
      "inputs": [
        {
          "internalType": "uint32",
          "name": "",
          "type": "uint32"
        },
        {
          "internalType": "address",
          "name": "",
          "type": "address"
        }
      ],
      "name": "withdrawalRequestIndex",
      "outputs": [
        {
          "internalType": "uint256",
          "name": "",
          "type": "uint256"
        }
      ],
      "stateMutability": "view",
      "type": "function"
    },
    {
      "inputs": [
        {
          "internalType": "uint32",
          "name": "",
          "type": "uint32"
        },
        {
          "internalType": "address",
          "name": "",
          "type": "address"
        },
        {
          "internalType": "uint256",
          "name": "",
          "type": "uint256"
        }
      ],
      "name": "withdrawalRequests",
      "outputs": [
        {
          "internalType": "uint32",
          "name": "withdrawableBlockNumber",
          "type": "uint32"
        },
        {
          "internalType": "uint128",
          "name": "amount",
          "type": "uint128"
        },
        {
          "internalType": "bool",
          "name": "processed",
          "type": "bool"
        }
      ],
      "stateMutability": "view",
      "type": "function"
    }
  ],
  "bytecode": "0x60806040526006805460ff1916600117905534801561001d57600080fd5b506150f28061002d6000396000f3fe608060405234801561001057600080fd5b50600436106104065760003560e01c8063763936c71161021a578063a0b2a91311610135578063cdc76cf9116100c8578063e4f6815511610097578063f2b9ddfc1161007c578063f2b9ddfc14610b85578063f8d437ae14610b98578063fde4819714610bab57600080fd5b8063e4f6815514610b5f578063ec110d4514610b7257600080fd5b8063cdc76cf914610b13578063d07918f114610b26578063d547741f14610b39578063df2b429014610b4c57600080fd5b8063b911135f11610104578063b911135f14610aaa578063b969fbef14610ad3578063b9cab97114610adb578063cc48b94714610afb57600080fd5b8063a0b2a91314610a54578063a217fddf14610a74578063b413b37a146105d0578063b6a2f99d14610a7c57600080fd5b80638d99e1ca116101ad578063982383551161017c57806398238355146109c15780639c2f614f146109d45780639c2f7f3b146109e75780639c656e26146109fa57600080fd5b80638d99e1ca146109265780638ddd87fe1461093957806391d148541461097757806394c89b2c146109ae57600080fd5b806385b9e485116101e957806385b9e485146108a557806387dd8bd0146108b85780638afec9fc146108cb5780638c71762d146108f157600080fd5b8063763936c7146108415780637cf1587c146108545780637d211a1c1461087f5780637ec6840f1461089257600080fd5b80634ec2f04b11610325578063659ab820116102b857806370619cf91161028757806373469a7a1161026c57806373469a7a146107f457806375829def1461080757806375b238fc1461081a57600080fd5b806370619cf9146107c15780637138c792146107e157600080fd5b8063659ab8201461073c5780636818a32b1461075c5780636d1ef1031461076f57806370480275146107ae57600080fd5b8063550d01a3116102f4578063550d01a31461067b5780635e2cfe451461069e5780635f1b989e146106c957806363a8fd891461072f57600080fd5b80634ec2f04b146105d85780634f818d0c1461060257806350d2a2761461064a5780635439ad861461067357600080fd5b806324d7806c1161039d5780634273ca161161036c5780634273ca16146105a057806346bcdb49146105b35780634de131ca146105bb5780634e1a264d146105d057600080fd5b806324d7806c1461055457806329637c1c146105675780632f2ff15d1461057a57806336568abe1461058d57600080fd5b80631ed94495116103d95780631ed94495146104865780631f760d01146104bd57806322985246146104fc578063248a9ca31461053157600080fd5b806301ffc9a71461040b578063127025971461043357806316b5d5bd146104485780631785f53c14610473575b600080fd5b61041e6104193660046147dd565b610bf1565b60405190151581526020015b60405180910390f35b610446610441366004614827565b610c28565b005b60085461045b906001600160a01b031681565b6040516001600160a01b03909116815260200161042a565b610446610481366004614875565b6110ae565b610499610494366004614892565b61113b565b6040805182518152602080840151908201529181015115159082015260600161042a565b6104d06104cb366004614892565b6111ba565b6040805194855263ffffffff93841660208601529183169184019190915216606082015260800161042a565b6105237ffb5864e8ff833c3cb2d2d08505e82ff02a43554c74a35d4f5a64e8526127831181565b60405190815260200161042a565b61052361053f3660046148c0565b60009081526020819052604090206001015490565b61041e610562366004614875565b6112f8565b6105236105753660046148d9565b611338565b61044661058836600461491a565b6113c7565b61044661059b36600461491a565b6113f1565b61041e6105ae36600461493f565b61147d565b601754610523565b6105c3611631565b60405161042a91906149de565b600a54610523565b6105eb6105e6366004614a2b565b611693565b60408051921515835260208301919091520161042a565b610615610610366004614a57565b6116c1565b6040805182516001600160a01b0316815260208084015163ffffffff16908201529181015161ffff169082015260600161042a565b61045b6106583660046147dd565b6004602052600090815260409020546001600160a01b031681565b610523611765565b61041e610689366004614875565b60036020526000908152604090205460ff1681565b6105236106ac366004614892565b601360209081526000928352604080842090915290825290205481565b6105236106d7366004614892565b63ffffffff9091166000908152600f602090815260408083206001600160a01b03909416835292815290829020825160608101845281548152600182015492810183905260029091015460ff16151592019190915290565b60015461041e9060ff1681565b61074f61074a366004614a57565b6117d8565b60405161042a9190614ac4565b61052361076a3660046148d9565b611872565b61078261077d3660046148d9565b611916565b6040805163ffffffff90941684526001600160801b03909216602084015215159082015260600161042a565b6104466107bc366004614875565b611975565b6105236107cf366004614a57565b600d6020526000908152604090205481565b61041e6107ef366004614ad7565b6119ff565b60075461045b906001600160a01b031681565b610446610815366004614875565b611bd1565b6105237fdf8b4c520ffe197c5343c6f5aec59570151ef9a492f2c624fd45ddde6135ec4281565b61045b61084f366004614a57565b611d33565b610523610862366004614892565b601260209081526000928352604080842090915290825290205481565b61041e61088d366004614a57565b611df4565b6104466108a0366004614a2b565b611ebb565b61041e6108b3366004614b1f565b611f67565b6105236108c6366004614a57565b61220c565b6105236108d9366004614a57565b63ffffffff166000908152600d602052604090205490565b6109046108ff366004614892565b6122f7565b6040805193845263ffffffff928316602085015291169082015260600161042a565b610523610934366004614a57565b612434565b610523610947366004614892565b63ffffffff821660009081526013602090815260408083206001600160a01b038516845290915290205492915050565b61041e61098536600461491a565b6000918252602082815260408084206001600160a01b0393909316845291905290205460ff1690565b6105236109bc366004614892565b6124a7565b6105eb6109cf3660046148d9565b612567565b6104466109e2366004614a2b565b6125a9565b6104466109f5366004614827565b6126dd565b610a37610a08366004614892565b600f60209081526000928352604080842090915290825290208054600182015460029092015490919060ff1683565b60408051938452602084019290925215159082015260600161042a565b610523610a62366004614875565b60156020526000908152604090205481565b610523600081565b610a8f610a8a366004614892565b61275d565b6040805193845260208401929092529082015260600161042a565b61045b610ab83660046148c0565b6002602052600090815260409020546001600160a01b031681565b6105236127b8565b610523610ae9366004614a57565b60146020526000908152604090205481565b60065461045b9061010090046001600160a01b031681565b610523610b21366004614a2b565b612802565b60095461045b906001600160a01b031681565b610446610b4736600461491a565b612855565b61041e610b5a366004614bc1565b61287a565b610523610b6d3660046148c0565b612bd5565b61045b610b803660046148c0565b612bf6565b610446610b93366004614c69565b612c20565b6105eb610ba63660046148c0565b612ce4565b610bdc610bb9366004614892565b601860209081526000928352604080842090915290825290205463ffffffff1681565b60405163ffffffff909116815260200161042a565b60006001600160e01b03198216637965db0b60e01b1480610c2257506301ffc9a760e01b6001600160e01b03198316145b92915050565b60065460ff16610c6c5760405162461bcd60e51b8152600401610c63906020808252600490820152636c6f636b60e01b604082015260600190565b60405180910390fd5b6006805460ff1916905563ffffffff821660008181526011602090815260408083203380855290835281842054948452601283528184208185529092528220549092919081905b83811015610d855763ffffffff871660009081526011602090815260408083206001600160a01b03891684529091528120805483908110610cf657610cf6614cab565b600091825260209091200180549091504363ffffffff909116108015610d2557508054600160a01b900460ff16155b15610d6c57805460ff60a01b1916600160a01b17808255610d58906001600160801b036401000000009091041684614cd7565b925083610d6481614cea565b945050610d72565b50610d85565b5080610d7d81614cea565b915050610cb3565b5060008111610dd65760405162461bcd60e51b815260206004820181905260248201527f7a65726f20617661696c61626c65207769746864726177616c20616d6f756e746044820152606401610c63565b63ffffffff861660009081526012602090815260408083206001600160a01b038816845290915281208054849290610e0f908490614cd7565b909155505063ffffffff861660009081526013602090815260408083206001600160a01b038816845290915281208054839290610e4d908490614d03565b909155505063ffffffff861660009081526014602052604081208054839290610e77908490614d03565b90915550506001600160a01b03841660009081526015602052604081208054839290610ea4908490614d03565b90915550506006546040516370a0823160e01b815230600482015260009161010090046001600160a01b0316906370a0823190602401602060405180830381865afa158015610ef7573d6000803e3d6000fd5b505050506040513d601f19601f82011682018060405250810190610f1b9190614d16565b905081811015610fc6578015610f4757600654610f479061010090046001600160a01b03168683612cfb565b6007546001600160a01b031663aad3ec9686610f638486614d03565b6040516001600160e01b031960e085901b1681526001600160a01b0390921660048301526024820152604401600060405180830381600087803b158015610fa957600080fd5b505af1158015610fbd573d6000803e3d6000fd5b50505050610fe2565b600654610fe29061010090046001600160a01b03168684612cfb565b851561104257604080516000815263ffffffff891660208201526001600160a01b038716818301526060810184905290517fb791c1a058894ea979a242d29f1379dab41dcc3b829ac9136b73308ea52d58d39181900360800190a1611098565b6040805163ffffffff89168152600060208201526001600160a01b038716818301526060810184905290517fb791c1a058894ea979a242d29f1379dab41dcc3b829ac9136b73308ea52d58d39181900360800190a15b50506006805460ff191660011790555050505050565b6110b7336112f8565b61110e5760405162461bcd60e51b815260206004820152602260248201527f41636365737369626c653a2043616c6c6572206973206e6f7420616e2061646d60448201526134b760f11b6064820152608401610c63565b6111387fdf8b4c520ffe197c5343c6f5aec59570151ef9a492f2c624fd45ddde6135ec42826113f1565b50565b611161604051806060016040528060008152602001600081526020016000151581525090565b5063ffffffff9091166000908152600f602090815260408083206001600160a01b039094168352928152908290208251606081018452815481526001820154928101929092526002015460ff1615159181019190915290565b63ffffffff80831660008181526011602090815260408083206001600160a01b038716808552908352818420549484526012835281842090845290915281205490929091839182919084165b818110156112ed5763ffffffff881660009081526011602090815260408083206001600160a01b038b168452909152812080548390811061124957611249614cab565b6000918252602080832060408051606081018252939091015463ffffffff8116845264010000000081046001600160801b031692840192909252600160a01b90910460ff16151590820181905290925090036112da578363ffffffff166000036112b257805193505b60208101516112ca906001600160801b031688614cd7565b96506112d7600186614d2f565b94505b50806112e581614cea565b915050611206565b505092959194509250565b6001600160a01b03811660009081527f5cbfc8ee58ca47855df7bcf648dd304ddb6b932f9b87878bdf6318d7ec7ee5b7602052604081205460ff16610c22565b6007546000906001600160a01b0316638df40b2c611357868686611872565b846040518363ffffffff1660e01b815260040161137e929190918252602082015260400190565b602060405180830381865afa15801561139b573d6000803e3d6000fd5b505050506040513d601f19601f820116820180604052508101906113bf9190614d16565b949350505050565b6000828152602081905260409020600101546113e281612e16565b6113ec8383612e20565b505050565b6001600160a01b038116331461146f5760405162461bcd60e51b815260206004820152602f60248201527f416363657373436f6e74726f6c3a2063616e206f6e6c792072656e6f756e636560448201527f20726f6c657320666f722073656c6600000000000000000000000000000000006064820152608401610c63565b6114798282612ebe565b5050565b60065460009061010090046001600160a01b031633146114c45760405162461bcd60e51b8152602060048201526002602482015261454160f01b6044820152606401610c63565b61150b61088d600085858080601f0160208091040260200160405190810160405280939291908181526020018383808284376000920191909152509293925050612f3d9050565b6115575760405162461bcd60e51b815260206004820152601860248201527f6e6f6e2d726567697374657265642063616e64696461746500000000000000006044820152606401610c63565b600061159d600085858080601f0160208091040260200160405190810160405280939291908181526020018383808284376000920191909152509293925050612f3d9050565b905084156115c2576006546115c29061010090046001600160a01b0316883088612ffd565b60006115cd826116c1565b9050806040015161ffff16600014806115f2575080516001600160a01b038981169116145b1561160c576116076000838a89600080613121565b611623565b6116236000838a8985600001518660400151613121565b506001979650505050505050565b6060601780548060200260200160405190810160405280929190818152602001828054801561168957602002820191906000526020600020905b81546001600160a01b0316815260019091019060200180831161166b575b5050505050905090565b63ffffffff82166000908152600e6020526040812081906116b5908490613539565b915091505b9250929050565b604080516060810182526000808252602080830182905282840182905263ffffffff8516825260169052829020915163186ca86f60e21b8152909173__$d436d56fec194dfaaabaf06742f0275c03$__916361b2a1bc9161172491600401614d87565b606060405180830381865af4158015611741573d6000803e3d6000fd5b505050506040513d601f19601f82011682018060405250810190610c229190614e12565b60075460408051632a1cd6c360e11b815290516000926001600160a01b031691635439ad869160048083019260209291908290030181865afa1580156117af573d6000803e3d6000fd5b505050506040513d601f19601f820116820180604052508101906117d39190614d16565b905090565b601660205260009081526040902080546117f190614d53565b80601f016020809104026020016040519081016040528092919081815260200182805461181d90614d53565b801561186a5780601f1061183f5761010080835404028352916020019161186a565b820191906000526020600020905b81548152906001019060200180831161184d57829003601f168201915b505050505081565b63ffffffff831660009081526010602090815260408083206001600160a01b03861684529091528120819081906118aa908590613539565b915091508161190a5763ffffffff86166000908152600f602090815260408083206001600160a01b0389168452825291829020825160608101845281548152600182015492810183905260029091015460ff16151592019190915261190c565b805b9695505050505050565b6011602052826000526040600020602052816000526040600020818154811061193e57600080fd5b60009182526020909120015463ffffffff8116935064010000000081046001600160801b03169250600160a01b900460ff16905083565b61197e336112f8565b6119d55760405162461bcd60e51b815260206004820152602260248201527f41636365737369626c653a2043616c6c6572206973206e6f7420616e2061646d60448201526134b760f11b6064820152608401610c63565b6111387fdf8b4c520ffe197c5343c6f5aec59570151ef9a492f2c624fd45ddde6135ec42826113c7565b6009546000906001600160a01b03163314611a4c5760405162461bcd60e51b815260206004820152600d60248201526c232bafa1a0a62622a92fa2a92960991b6044820152606401610c63565b611a56848461365c565b600754604051636a2fb1f560e01b8152600481018490526000916001600160a01b031690636a2fb1f590602401602060405180830381865afa158015611aa0573d6000803e3d6000fd5b505050506040513d601f19601f82011682018060405250810190611ac49190614d16565b63ffffffff86166000908152600d6020526040812080549293508392909190611aee908490614cd7565b9250508190555080600a6000828254611b079190614cd7565b909155505063ffffffff85166000908152600f602090815260408083206001600160a01b03881684529091528120805490918591839190611b49908490614cd7565b9250508190555081816001016000828254611b649190614cd7565b90915550506040805188815263ffffffff881660208201526001600160a01b03871681830152606081018690526080810184905290517f8cf204c07a4ce065cdd0c90963672bd384e5479ada88179bca8eb6075c02731f9181900360a00190a15060019695505050505050565b611bda336112f8565b611c315760405162461bcd60e51b815260206004820152602260248201527f41636365737369626c653a2043616c6c6572206973206e6f7420616e2061646d60448201526134b760f11b6064820152608401610c63565b6001600160a01b038116611c875760405162461bcd60e51b815260206004820152601860248201527f41636365737369626c653a207a65726f206164647265737300000000000000006044820152606401610c63565b6001600160a01b0381163303611cdf5760405162461bcd60e51b815260206004820152601660248201527f41636365737369626c653a2073616d652061646d696e000000000000000000006044820152606401610c63565b611d097fdf8b4c520ffe197c5343c6f5aec59570151ef9a492f2c624fd45ddde6135ec42826113c7565b6111387fdf8b4c520ffe197c5343c6f5aec59570151ef9a492f2c624fd45ddde6135ec42336113f1565b63ffffffff811660009081526016602052604081208054829190611d5690614d53565b80601f0160208091040260200160405190810160405280929190818152602001828054611d8290614d53565b8015611dcf5780601f10611da457610100808354040283529160200191611dcf565b820191906000526020600020905b815481529060010190602001808311611db257829003601f168201915b50505050509050601781511115611dee57611deb81600061370a565b91505b50919050565b600854604051635d170f8f60e01b815263ffffffff831660048201526000916001600160a01b031690635d170f8f90602401602060405180830381865afa158015611e43573d6000803e3d6000fd5b505050506040513d601f19601f82011682018060405250810190611e679190614e8b565b611eb35760405162461bcd60e51b815260206004820152601460248201527f6e6f6e2d72656769737465726564206c617965720000000000000000000000006044820152606401610c63565b506001919050565b611ec482611df4565b611f105760405162461bcd60e51b815260206004820152601860248201527f6e6f6e2d726567697374657265642063616e64696461746500000000000000006044820152606401610c63565b6000611f1b836116c1565b9050806040015161ffff1660001480611f3d575080516001600160a01b031633145b15611f51576113ec600084846000806137ca565b6113ec60008484846000015185604001516137ca565b60065460009060ff16611fa55760405162461bcd60e51b8152600401610c63906020808252600490820152636c6f636b60e01b604082015260600190565b6006805460ff191690556009546001600160a01b03163314611ff95760405162461bcd60e51b815260206004820152600d60248201526c232bafa1a0a62622a92fa2a92960991b6044820152606401610c63565b8161200486866124a7565b10156120525760405162461bcd60e51b815260206004820152601960248201527f6c697175696469747920697320696e73756666696369656e74000000000000006044820152606401610c63565b61205c858561365c565b6006546040516370a0823160e01b815230600482015260009161010090046001600160a01b0316906370a0823190602401602060405180830381865afa1580156120aa573d6000803e3d6000fd5b505050506040513d601f19601f820116820180604052508101906120ce9190614d16565b9050828110156121795780156120fa576006546120fa9061010090046001600160a01b03168583612cfb565b6007546001600160a01b031663aad3ec96856121168487614d03565b6040516001600160e01b031960e085901b1681526001600160a01b0390921660048301526024820152604401600060405180830381600087803b15801561215c57600080fd5b505af1158015612170573d6000803e3d6000fd5b50505050612195565b6006546121959061010090046001600160a01b03168585612cfb565b6040805188815263ffffffff881660208201526001600160a01b0387811682840152861660608201526080810185905290517f77fbf71434da34ef2aa8382e2b751b6b2de7bd18d96a07ff7f4dae7dae9237619181900360a00190a160019150506006805460ff1916600117905595945050505050565b63ffffffff81166000908152601660205260408120805482919061222f90614d53565b80601f016020809104026020016040519081016040528092919081815260200182805461225b90614d53565b80156122a85780601f1061227d576101008083540402835291602001916122a8565b820191906000526020600020905b81548152906001019060200180831161228b57829003601f168201915b505050505090506122c660006018836137f59092919063ffffffff16565b60006040516020016122d9929190614ea8565b60405160208183030381529060405280519060200120915050919050565b63ffffffff80831660008181526011602090815260408083206001600160a01b038716808552908352818420549484526012835281842090845290915281205490929091839183165b8181101561242b5763ffffffff871660009081526011602090815260408083206001600160a01b038a168452909152812080548390811061238357612383614cab565b600091825260209182902060408051606081018252929091015463ffffffff811680845264010000000082046001600160801b031694840194909452600160a01b900460ff161515908201529150431180156123e157506040810151155b156124125760208101516123fe906001600160801b031687614cd7565b955061240b600185614d2f565b9350612418565b5061242b565b508061242381614cea565b915050612340565b50509250925092565b6008546040516346ccf0e560e11b815263ffffffff831660048201526000916001600160a01b031690638d99e1ca90602401602060405180830381865afa158015612483573d6000803e3d6000fd5b505050506040513d601f19601f82011682018060405250810190610c229190614d16565b60075463ffffffff83166000908152600f602090815260408083206001600160a01b038681168552908352818420825160608101845281548152600182015494810185905260029091015460ff16151590830152905163cdf6800960e01b815260048101929092529192919091169063cdf6800990602401602060405180830381865afa15801561253c573d6000803e3d6000fd5b505050506040513d601f19601f820116820180604052508101906125609190614d16565b9392505050565b63ffffffff831660009081526010602090815260408083206001600160a01b03861684529091528120819061259d908490613539565b91509150935093915050565b600954604051630265991f60e61b81526001600482015263ffffffff841660248201523360448201526000916001600160a01b03169063996647c090606401602060405180830381865afa158015612605573d6000803e3d6000fd5b505050506040513d601f19601f820116820180604052508101906126299190614d16565b905061263483611d33565b6001600160a01b031633036126d0576113ec60008484600860009054906101000a90046001600160a01b03166001600160a01b031663a4dd8b7d6040518163ffffffff1660e01b8152600401602060405180830381865afa15801561269d573d6000803e3d6000fd5b505050506040513d601f19601f820116820180604052508101906126c19190614d16565b6126cb9086614cd7565b613958565b6113ec6000848484613958565b63ffffffff82166000908152601260209081526040808320338452909152902054811561274e5761271360008433846001613e75565b6113ec5760405162461bcd60e51b815260206004820152600c60248201526b534c5f455f52455354414b4560a01b6044820152606401610c63565b61271383600033846001613e75565b63ffffffff821660008181526011602090815260408083206001600160a01b0386168085529083528184205494845260128352818420908452909152812054908183106127b1576127ae8284614d03565b90505b9250925092565b6008546040805163b969fbef60e01b815290516000926001600160a01b03169163b969fbef9160048083019260209291908290030181865afa1580156117af573d6000803e3d6000fd5b63ffffffff82166000908152600e6020526040812081908190612826908590613539565b915091508161284a5763ffffffff85166000908152600d602052604090205461284c565b805b95945050505050565b60008281526020819052604090206001015461287081612e16565b6113ec8383612ebe565b6008546000906001600160a01b031633146128d75760405162461bcd60e51b815260206004820152601160248201527f6e6f74204c61796572324d616e616765720000000000000000000000000000006044820152606401610c63565b63ffffffff8316600090815260166020526040902080546128f790614d53565b1590506129465760405162461bcd60e51b815260206004820152600f60248201527f616c7265616479206372656174656400000000000000000000000000000000006044820152606401610c63565b60398251116129975760405162461bcd60e51b815260206004820152600b60248201527f77726f6e67205f696e666f0000000000000000000000000000000000000000006044820152606401610c63565b60405163186ca86f60e21b815260009073__$d436d56fec194dfaaabaf06742f0275c03$__906361b2a1bc906129d1908690600401614ac4565b606060405180830381865af41580156129ee573d6000803e3d6000fd5b505050506040513d601f19601f82011682018060405250810190612a129190614e12565b60208082015163ffffffff908116600090815260188352604080822085516001600160a01b0316835290935291909120549192501615612a945760405162461bcd60e51b815260206004820152600e60248201527f616c7265616420657869737465640000000000000000000000000000000000006044820152606401610c63565b61271061ffff16816040015161ffff1610612af15760405162461bcd60e51b815260206004820152600e60248201527f636f6d6d697373696f6e206572720000000000000000000000000000000000006044820152606401610c63565b6000612afe84601a614345565b9050612b0d846000601a6137f5565b604051602001612b1d9190614ef2565b60408051601f1981840301815291815263ffffffff8716600090815260166020522090612b4a9082614f54565b5060208281015163ffffffff908116600090815260188352604080822086516001600160a01b0316835290935291909120805463ffffffff19169187169190911790558015612bca57600854600654612bb6916001600160a01b03610100909204821691163084612ffd565b612bca600086846000015184600080613121565b506001949350505050565b6000806000612be584600b613539565b915091508161256057600a546113bf565b60178181548110612c0657600080fd5b6000918252602090912001546001600160a01b0316905081565b63ffffffff831660009081526012602090815260408083203384529091529020548115612c9557612c55600085338487613e75565b612c905760405162461bcd60e51b815260206004820152600c60248201526b534c5f455f52455354414b4560a01b6044820152606401610c63565b612cde565b612ca3846000338487613e75565b612cde5760405162461bcd60e51b815260206004820152600c60248201526b534c5f455f52455354414b4560a01b6044820152606401610c63565b50505050565b600080612cf283600b613539565b91509150915091565b604080516001600160a01b038481166024830152604480830185905283518084039091018152606490920183526020820180516001600160e01b031663a9059cbb60e01b1790529151600092839290871691612d579190614ef2565b6000604051808303816000865af19150503d8060008114612d94576040519150601f19603f3d011682016040523d82523d6000602084013e612d99565b606091505b5091509150818015612dc3575080511580612dc3575080806020019051810190612dc39190614e8b565b612e0f5760405162461bcd60e51b815260206004820152600f60248201527f5452414e534645525f4641494c454400000000000000000000000000000000006044820152606401610c63565b5050505050565b6111388133614405565b6000828152602081815260408083206001600160a01b038516845290915290205460ff16611479576000828152602081815260408083206001600160a01b03851684529091529020805460ff19166001179055612e7a3390565b6001600160a01b0316816001600160a01b0316837f2f8788117e7eff1d82e926ec794901d17c78024a50270940304540a733656f0d60405160405180910390a45050565b6000828152602081815260408083206001600160a01b038516845290915290205460ff1615611479576000828152602081815260408083206001600160a01b0385168085529252808320805460ff1916905551339285917ff6391f5c32d9c69d2a47ea670b442974b53935d1edc7fd64eb21e047a839171b9190a45050565b600081612f4b816004614cd7565b1015612f995760405162461bcd60e51b815260206004820152601160248201527f746f55696e7433325f6f766572666c6f770000000000000000000000000000006044820152606401610c63565b612fa4826004614cd7565b83511015612ff45760405162461bcd60e51b815260206004820152601460248201527f746f55696e7433325f6f75744f66426f756e64730000000000000000000000006044820152606401610c63565b50016004015190565b604080516001600160a01b0385811660248301528481166044830152606480830185905283518084039091018152608490920183526020820180516001600160e01b03166323b872dd60e01b17905291516000928392908816916130619190614ef2565b6000604051808303816000865af19150503d806000811461309e576040519150601f19603f3d011682016040523d82523d6000602084013e6130a3565b606091505b50915091508180156130cd5750805115806130cd5750808060200190518101906130cd9190614e8b565b6131195760405162461bcd60e51b815260206004820152601460248201527f5452414e534645525f46524f4d5f4641494c45440000000000000000000000006044820152606401610c63565b505050505050565b60065460ff1661315c5760405162461bcd60e51b8152600401610c63906020808252600490820152636c6f636b60e01b604082015260600190565b6006805460ff1916905582600081900361319d5760405162461bcd60e51b81526020600482015260026024820152615a3160f01b6044820152606401610c63565b8663ffffffff8716156131ad5750855b6131b7818761365c565b600754604051636a2fb1f560e01b8152600481018790526000916001600160a01b031690636a2fb1f590602401602060405180830381865afa158015613201573d6000803e3d6000fd5b505050506040513d601f19601f820116820180604052508101906132259190614d16565b63ffffffff83166000908152600d602052604081208054929350839290919061324f908490614cd7565b9250508190555080600a60008282546132689190614cd7565b909155505063ffffffff82166000908152600f602090815260408083206001600160a01b038b1684529091529020600281015460ff1661330a57600281018054600160ff1990911681179091556017805491820181556000527fc624b66cc0138b8fabc209247f72d758e1cf3343756d543badbf24212bed8c1501805473ffffffffffffffffffffffffffffffffffffffff19166001600160a01b038a161790555b600061ffff86161580159061332757506001600160a01b03871615155b801561333857506127108661ffff16105b1561347b5761271061334e61ffff881685615014565b613358919061502b565b90506133648184614d03565b60075460405163cdf6800960e01b8152600481018390529194506000916001600160a01b039091169063cdf6800990602401602060405180830381865afa1580156133b3573d6000803e3d6000fd5b505050506040513d601f19601f820116820180604052508101906133d79190614d16565b9050808360000160008282546133ed9190614cd7565b92505081905550838360010160008282546134089190614cd7565b909155505063ffffffff85166000908152600f602090815260408083206001600160a01b038c1684529091529020613440828b614d03565b8160000160008282546134539190614cd7565b925050819055508281600101600082825461346e9190614cd7565b909155506134b092505050565b8782600001600082825461348f9190614cd7565b92505081905550828260010160008282546134aa9190614cd7565b90915550505b6040805163ffffffff8d811682528c1660208201526001600160a01b038b811682840152606082018b905260808201869052891660a082015261ffff881660c082015290517f223892d535b445ab69f1e7c25378714abfb5d43c3f0811678cfb07975759c1dd9181900360e00190a150506006805460ff19166001179055505050505050505050565b600080613544611765565b8411156135935760405162461bcd60e51b815260206004820152601860248201527f536e617073686f743a206e6f6e6578697374656e7420696400000000000000006044820152606401610c63565b8254158015906135cc5750825483906135ae90600190614d03565b815481106135be576135be614cab565b906000526020600020015484115b1561360a5782546000906001808601916135e69190614d03565b815481106135f6576135f6614cab565b9060005260206000200154915091506116ba565b60006136168486614478565b8454909150811061362e5760008092509250506116ba565b600184600101828154811061364557613645614cab565b906000526020600020015492509250509250929050565b61366f600b61366a600a5490565b614588565b63ffffffff82166000908152600e60209081526040808320600d9092529091205461369a9190614588565b63ffffffff821660008181526010602090815260408083206001600160a01b038616808552908352818420948452600f8352818420908452825291829020825160608101845281548152600182015492810183905260029091015460ff1615159201919091526114799190614588565b600081613718816014614cd7565b10156137665760405162461bcd60e51b815260206004820152601260248201527f746f416464726573735f6f766572666c6f7700000000000000000000000000006044820152606401610c63565b613771826014614cd7565b835110156137c15760405162461bcd60e51b815260206004820152601560248201527f746f416464726573735f6f75744f66426f756e647300000000000000000000006044820152606401610c63565b50016014015190565b6006546137e79061010090046001600160a01b0316333086612ffd565b612e0f858533868686613121565b60608161380381601f614cd7565b10156138425760405162461bcd60e51b815260206004820152600e60248201526d736c6963655f6f766572666c6f7760901b6044820152606401610c63565b8261384d8382614cd7565b101561388c5760405162461bcd60e51b815260206004820152600e60248201526d736c6963655f6f766572666c6f7760901b6044820152606401610c63565b6138968284614cd7565b845110156138e65760405162461bcd60e51b815260206004820152601160248201527f736c6963655f6f75744f66426f756e64730000000000000000000000000000006044820152606401610c63565b606082158015613905576040519150600082526020820160405261394f565b6040519150601f8416801560200281840101858101878315602002848b0101015b8183101561393e578051835260209283019201613926565b5050858452601f01601f1916604052505b50949350505050565b60065460ff166139935760405162461bcd60e51b8152600401610c63906020808252600490820152636c6f636b60e01b604082015260600190565b6006805460ff191690558160008190036139d45760405162461bcd60e51b81526020600482015260026024820152615a3160f01b6044820152606401610c63565b8463ffffffff8516156139e45750835b336139ef828261365c565b60075460405163cdf6800960e01b8152600481018790526000916001600160a01b03169063cdf6800990602401602060405180830381865afa158015613a39573d6000803e3d6000fd5b505050506040513d601f19601f82011682018060405250810190613a5d9190614d16565b63ffffffff84166000908152600f602090815260408083206001600160a01b038716845290915290209091508515613b5e576001810154600754604051636a2fb1f560e01b8152600481018990526001600160a01b0390911690636a2fb1f590602401602060405180830381865afa158015613add573d6000803e3d6000fd5b505050506040513d601f19601f82011682018060405250810190613b019190614d16565b613b0b9089614cd7565b1115613b595760405162461bcd60e51b815260206004820152600d60248201527f756e7374616b655f6572725f31000000000000000000000000000000000000006044820152606401610c63565b613bb2565b8060010154871115613bb25760405162461bcd60e51b815260206004820152600d60248201527f756e7374616b655f6572725f32000000000000000000000000000000000000006044820152606401610c63565b86816001016000828254613bc69190614d03565b90915550508054821115613bdd5760008155613bf7565b81816000016000828254613bf19190614d03565b90915550505b63ffffffff84166000908152600d602052604081208054899290613c1c908490614d03565b9250508190555086600a6000828254613c359190614d03565b909155505060085460408051636577b27360e11b815290516000926001600160a01b03169163caef64e69160048083019260209291908290030181865afa158015613c84573d6000803e3d6000fd5b505050506040513d601f19601f82011682018060405250810190613ca89190614d16565b63ffffffff861660009081526011602090815260408083206001600160a01b03891684529091529081902081516060810190925291925080613cea8443614cd7565b63ffffffff90811682526001600160801b0380881660208085019190915260006040948501819052865460018101885596815281812086519701805487840151978701511515600160a01b0260ff60a01b19989095166401000000000273ffffffffffffffffffffffffffffffffffffffff199091169886169890981797909717959095169190911790945588168252601383528082206001600160a01b03881683529092529081208054859290613da3908490614cd7565b909155505063ffffffff851660009081526014602052604081208054859290613dcd908490614cd7565b90915550506001600160a01b03841660009081526015602052604081208054859290613dfa908490614cd7565b90915550506040805163ffffffff8c811682528b1660208201526001600160a01b0386168183015260608101859052608081018a905290517f201778b9e426c04a92e6d1bf5a4d1705c4a30568ae25eef5fa5231092af295259181900360a00190a150506006805460ff191660011790555050505050505050565b60065460009060ff16613eb35760405162461bcd60e51b8152600401610c63906020808252600490820152636c6f636b60e01b604082015260600190565b6006805460ff191690558563ffffffff861615613ecd5750845b613ed7818661365c565b63ffffffff811660009081526011602090815260408083206001600160a01b038916845290915281205480613f3b5760405162461bcd60e51b815260206004820152600a6024820152696e6f20756e7374616b6560b01b6044820152606401610c63565b84613f468783614d03565b1015613f945760405162461bcd60e51b815260206004820152601860248201527f6e2065786365656473206e756d206f662070656e64696e6700000000000000006044820152606401610c63565b6000613fa08688614cd7565b90505b808710156140965763ffffffff841660009081526011602090815260408083206001600160a01b038c1684529091528120805489908110613fe657613fe6614cab565b6000918252602090912001805490915064010000000081046001600160801b031690600160a01b900460ff161561405f5760405162461bcd60e51b815260206004820152601260248201527f616c7265616479207769746864726177616c00000000000000000000000000006044820152606401610c63565b80156140725761406f8186614cd7565b94505b50805460ff60a01b1916600160a01b1790558661408e81614cea565b975050613fa3565b600083116140e65760405162461bcd60e51b815260206004820152601760248201527f6e6f2076616c69642072657374616b6520616d6f756e740000000000000000006044820152606401610c63565b600754604051636a2fb1f560e01b8152600481018590526000916001600160a01b031690636a2fb1f590602401602060405180830381865afa158015614130573d6000803e3d6000fd5b505050506040513d601f19601f820116820180604052508101906141549190614d16565b63ffffffff86166000908152600f602090815260408083206001600160a01b038e168452909152812080549293509186918391614192908490614cd7565b92505081905550818160010160008282546141ad9190614cd7565b909155505063ffffffff86166000908152600d6020526040812080548492906141d7908490614cd7565b9250508190555081600a60008282546141f09190614cd7565b909155505063ffffffff861660009081526013602090815260408083206001600160a01b038e1684529091528120805487929061422e908490614d03565b909155505063ffffffff861660009081526014602052604081208054879290614258908490614d03565b90915550506001600160a01b038a1660009081526015602052604081208054879290614285908490614d03565b909155505063ffffffff861660009081526012602090815260408083206001600160a01b038e168452909152812080548a92906142c3908490614cd7565b90915550506040805163ffffffff8e811682528d1660208201526001600160a01b038c1681830152606081018790526080810184905290517f8106ff2b1b597b91194fe4d8ede5c73f76baaad464c7020d87b22ea5a716157f9181900360a00190a1600196505050505050506006805460ff1916600117905595945050505050565b600081614353816020614cd7565b10156143a15760405162461bcd60e51b815260206004820152601260248201527f746f55696e743235365f6f766572666c6f7700000000000000000000000000006044820152606401610c63565b6143ac826020614cd7565b835110156143fc5760405162461bcd60e51b815260206004820152601560248201527f746f55696e743235365f6f75744f66426f756e647300000000000000000000006044820152606401610c63565b50016020015190565b6000828152602081815260408083206001600160a01b038516845290915290205460ff1661147957614436816145dd565b6144418360206145ef565b60405160200161445292919061504d565b60408051601f198184030181529082905262461bcd60e51b8252610c6391600401614ac4565b8154600090810361448b57506000610c22565b8254839061449b90600190614d03565b815481106144ab576144ab614cab565b906000526020600020015482106144d15782546144ca90600190614d03565b9050610c22565b826000815481106144e4576144e4614cab565b90600052602060002001548210156144fe57506000610c22565b8254600090819061451190600190614d03565b90505b81811115614580576000600261452a8484614cd7565b614535906001614cd7565b61453f919061502b565b90508486828154811061455457614554614cab565b90600052602060002001541161456c5780925061457a565b614577600182614d03565b91505b50614514565b509392505050565b6000614592611765565b835490915015806145aa5750806145a884614798565b105b156113ec578254600180820185556000858152602080822090930193909355938401805494850181558252902090910155565b6060610c226001600160a01b03831660145b606060006145fe836002615014565b614609906002614cd7565b67ffffffffffffffff81111561462157614621614b7a565b6040519080825280601f01601f19166020018201604052801561464b576020820181803683370190505b509050600360fc1b8160008151811061466657614666614cab565b60200101906001600160f81b031916908160001a905350600f60fb1b8160018151811061469557614695614cab565b60200101906001600160f81b031916908160001a90535060006146b9846002615014565b6146c4906001614cd7565b90505b6001811115614749577f303132333435363738396162636465660000000000000000000000000000000085600f166010811061470557614705614cab565b1a60f81b82828151811061471b5761471b614cab565b60200101906001600160f81b031916908160001a90535060049490941c93614742816150ce565b90506146c7565b5083156125605760405162461bcd60e51b815260206004820181905260248201527f537472696e67733a20686578206c656e67746820696e73756666696369656e746044820152606401610c63565b805460009081036147ab57506000919050565b815482906147bb90600190614d03565b815481106147cb576147cb614cab565b90600052602060002001549050919050565b6000602082840312156147ef57600080fd5b81356001600160e01b03198116811461256057600080fd5b63ffffffff8116811461113857600080fd5b801515811461113857600080fd5b6000806040838503121561483a57600080fd5b823561484581614807565b9150602083013561485581614819565b809150509250929050565b6001600160a01b038116811461113857600080fd5b60006020828403121561488757600080fd5b813561256081614860565b600080604083850312156148a557600080fd5b82356148b081614807565b9150602083013561485581614860565b6000602082840312156148d257600080fd5b5035919050565b6000806000606084860312156148ee57600080fd5b83356148f981614807565b9250602084013561490981614860565b929592945050506040919091013590565b6000806040838503121561492d57600080fd5b82359150602083013561485581614860565b60008060008060006080868803121561495757600080fd5b853561496281614860565b9450602086013561497281614860565b935060408601359250606086013567ffffffffffffffff8082111561499657600080fd5b818801915088601f8301126149aa57600080fd5b8135818111156149b957600080fd5b8960208285010111156149cb57600080fd5b9699959850939650602001949392505050565b6020808252825182820181905260009190848201906040850190845b81811015614a1f5783516001600160a01b0316835292840192918401916001016149fa565b50909695505050505050565b60008060408385031215614a3e57600080fd5b8235614a4981614807565b946020939093013593505050565b600060208284031215614a6957600080fd5b813561256081614807565b60005b83811015614a8f578181015183820152602001614a77565b50506000910152565b60008151808452614ab0816020860160208601614a74565b601f01601f19169290920160200192915050565b6020815260006125606020830184614a98565b60008060008060808587031215614aed57600080fd5b843593506020850135614aff81614807565b92506040850135614b0f81614860565b9396929550929360600135925050565b600080600080600060a08688031215614b3757600080fd5b853594506020860135614b4981614807565b93506040860135614b5981614860565b92506060860135614b6981614860565b949793965091946080013592915050565b634e487b7160e01b600052604160045260246000fd5b604051601f8201601f1916810167ffffffffffffffff81118282101715614bb957614bb9614b7a565b604052919050565b60008060408385031215614bd457600080fd5b8235614bdf81614807565b915060208381013567ffffffffffffffff80821115614bfd57600080fd5b818601915086601f830112614c1157600080fd5b813581811115614c2357614c23614b7a565b614c35601f8201601f19168501614b90565b91508082528784828501011115614c4b57600080fd5b80848401858401376000848284010152508093505050509250929050565b600080600060608486031215614c7e57600080fd5b8335614c8981614807565b9250602084013591506040840135614ca081614819565b809150509250925092565b634e487b7160e01b600052603260045260246000fd5b634e487b7160e01b600052601160045260246000fd5b80820180821115610c2257610c22614cc1565b600060018201614cfc57614cfc614cc1565b5060010190565b81810381811115610c2257610c22614cc1565b600060208284031215614d2857600080fd5b5051919050565b63ffffffff818116838216019080821115614d4c57614d4c614cc1565b5092915050565b600181811c90821680614d6757607f821691505b602082108103611dee57634e487b7160e01b600052602260045260246000fd5b6000602080835260008454614d9b81614d53565b80848701526040600180841660008114614dbc5760018114614dd657614e04565b60ff1985168984015283151560051b890183019550614e04565b896000528660002060005b85811015614dfc5781548b8201860152908301908801614de1565b8a0184019650505b509398975050505050505050565b600060608284031215614e2457600080fd5b6040516060810181811067ffffffffffffffff82111715614e4757614e47614b7a565b6040528251614e5581614860565b81526020830151614e6581614807565b6020820152604083015161ffff81168114614e7f57600080fd5b60408201529392505050565b600060208284031215614e9d57600080fd5b815161256081614819565b60008351614eba818460208801614a74565b60f09390931b7fffff000000000000000000000000000000000000000000000000000000000000169190920190815260020192915050565b60008251614f04818460208701614a74565b9190910192915050565b601f8211156113ec57600081815260208120601f850160051c81016020861015614f355750805b601f850160051c820191505b8181101561311957828155600101614f41565b815167ffffffffffffffff811115614f6e57614f6e614b7a565b614f8281614f7c8454614d53565b84614f0e565b602080601f831160018114614fb75760008415614f9f5750858301515b600019600386901b1c1916600185901b178555613119565b600085815260208120601f198616915b82811015614fe657888601518255948401946001909101908401614fc7565b50858210156150045787850151600019600388901b60f8161c191681555b5050505050600190811b01905550565b8082028115828204841417610c2257610c22614cc1565b60008261504857634e487b7160e01b600052601260045260246000fd5b500490565b7f416363657373436f6e74726f6c3a206163636f756e7420000000000000000000815260008351615085816017850160208801614a74565b7f206973206d697373696e6720726f6c652000000000000000000000000000000060179184019182015283516150c2816028840160208801614a74565b01602801949350505050565b6000816150dd576150dd614cc1565b50600019019056fea164736f6c6343000812000a",
  "linkReferences": {
    "contracts/libraries/LibOperator.sol": {
      "LibOperator": [
        {
          "length": 20,
          "start": 5931
        },
        {
          "length": 20,
          "start": 10710
        }
      ]
    }
  },
  "deployedLinkReferences": {
    "contracts/libraries/LibOperator.sol": {
      "LibOperator": [
        {
          "length": 20,
          "start": 5886
        },
        {
          "length": 20,
          "start": 10665
        }
      ]
    }
  }
}