{
  "_format": "hh-sol-artifact-1",
  "contractName": "Layer2ManagerInitialize",
  "sourceName": "contracts/fixInitialize/Layer2ManagerInitialize.sol",
  "abi": [
    {
      "inputs": [],
      "stateMutability": "nonpayable",
      "type": "constructor"
    },
    {
      "anonymous": false,
      "inputs": [
        {
          "indexed": true,
          "internalType": "bytes32",
          "name": "role",
          "type": "bytes32"
        },
        {
          "indexed": true,
          "internalType": "bytes32",
          "name": "previousAdminRole",
          "type": "bytes32"
        },
        {
          "indexed": true,
          "internalType": "bytes32",
          "name": "newAdminRole",
          "type": "bytes32"
        }
      ],
      "name": "RoleAdminChanged",
      "type": "event"
    },
    {
      "anonymous": false,
      "inputs": [
        {
          "indexed": true,
          "internalType": "bytes32",
          "name": "role",
          "type": "bytes32"
        },
        {
          "indexed": true,
          "internalType": "address",
          "name": "account",
          "type": "address"
        },
        {
          "indexed": true,
          "internalType": "address",
          "name": "sender",
          "type": "address"
        }
      ],
      "name": "RoleGranted",
      "type": "event"
    },
    {
      "anonymous": false,
      "inputs": [
        {
          "indexed": true,
          "internalType": "bytes32",
          "name": "role",
          "type": "bytes32"
        },
        {
          "indexed": true,
          "internalType": "address",
          "name": "account",
          "type": "address"
        },
        {
          "indexed": true,
          "internalType": "address",
          "name": "sender",
          "type": "address"
        }
      ],
      "name": "RoleRevoked",
      "type": "event"
    },
    {
      "inputs": [],
      "name": "ADMIN_ROLE",
      "outputs": [
        {
          "internalType": "bytes32",
          "name": "",
          "type": "bytes32"
        }
      ],
      "stateMutability": "view",
      "type": "function"
    },
    {
      "inputs": [],
      "name": "DEFAULT_ADMIN_ROLE",
      "outputs": [
        {
          "internalType": "bytes32",
          "name": "",
          "type": "bytes32"
        }
      ],
      "stateMutability": "view",
      "type": "function"
    },
    {
      "inputs": [],
      "name": "POLICY_ROLE",
      "outputs": [
        {
          "internalType": "bytes32",
          "name": "",
          "type": "bytes32"
        }
      ],
      "stateMutability": "view",
      "type": "function"
    },
    {
      "inputs": [
        {
          "internalType": "address",
          "name": "account",
          "type": "address"
        }
      ],
      "name": "addAdmin",
      "outputs": [],
      "stateMutability": "nonpayable",
      "type": "function"
    },
    {
      "inputs": [
        {
          "internalType": "address",
          "name": "",
          "type": "address"
        }
      ],
      "name": "aliveImplementation",
      "outputs": [
        {
          "internalType": "bool",
          "name": "",
          "type": "bool"
        }
      ],
      "stateMutability": "view",
      "type": "function"
    },
    {
      "inputs": [],
      "name": "candidate",
      "outputs": [
        {
          "internalType": "address",
          "name": "",
          "type": "address"
        }
      ],
      "stateMutability": "view",
      "type": "function"
    },
    {
      "inputs": [
        {
          "internalType": "uint32",
          "name": "",
          "type": "uint32"
        }
      ],
      "name": "candidateNames",
      "outputs": [
        {
          "internalType": "bytes32",
          "name": "",
          "type": "bytes32"
        }
      ],
      "stateMutability": "view",
      "type": "function"
    },
    {
      "inputs": [
        {
          "internalType": "uint256",
          "name": "",
          "type": "uint256"
        }
      ],
      "name": "candidatesIndexes",
      "outputs": [
        {
          "internalType": "uint32",
          "name": "",
          "type": "uint32"
        }
      ],
      "stateMutability": "view",
      "type": "function"
    },
    {
      "inputs": [],
      "name": "delayBlocksForWithdraw",
      "outputs": [
        {
          "internalType": "uint256",
          "name": "",
          "type": "uint256"
        }
      ],
      "stateMutability": "view",
      "type": "function"
    },
    {
      "inputs": [
        {
          "internalType": "address",
          "name": "_ton",
          "type": "address"
        },
        {
          "internalType": "address",
          "name": "_seigManagerV2",
          "type": "address"
        },
        {
          "internalType": "address",
          "name": "_optimismL2Operator",
          "type": "address"
        },
        {
          "internalType": "address",
          "name": "_candidate",
          "type": "address"
        },
        {
          "internalType": "uint256",
          "name": "_minimumDepositForL2Operator",
          "type": "uint256"
        },
        {
          "internalType": "uint256",
          "name": "_minimumDepositForCandidate",
          "type": "uint256"
        },
        {
          "internalType": "uint32",
          "name": "_delayBlocksForWithdraw",
          "type": "uint32"
        }
      ],
      "name": "fixInitialize",
      "outputs": [],
      "stateMutability": "nonpayable",
      "type": "function"
    },
    {
      "inputs": [
        {
          "internalType": "bytes32",
          "name": "role",
          "type": "bytes32"
        }
      ],
      "name": "getRoleAdmin",
      "outputs": [
        {
          "internalType": "bytes32",
          "name": "",
          "type": "bytes32"
        }
      ],
      "stateMutability": "view",
      "type": "function"
    },
    {
      "inputs": [
        {
          "internalType": "bytes32",
          "name": "role",
          "type": "bytes32"
        },
        {
          "internalType": "address",
          "name": "account",
          "type": "address"
        }
      ],
      "name": "grantRole",
      "outputs": [],
      "stateMutability": "nonpayable",
      "type": "function"
    },
    {
      "inputs": [
        {
          "internalType": "bytes32",
          "name": "role",
          "type": "bytes32"
        },
        {
          "internalType": "address",
          "name": "account",
          "type": "address"
        }
      ],
      "name": "hasRole",
      "outputs": [
        {
          "internalType": "bool",
          "name": "",
          "type": "bool"
        }
      ],
      "stateMutability": "view",
      "type": "function"
    },
    {
      "inputs": [
        {
          "internalType": "uint32",
          "name": "",
          "type": "uint32"
        }
      ],
      "name": "holdings",
      "outputs": [
        {
          "internalType": "uint256",
          "name": "securityDeposit",
          "type": "uint256"
        },
        {
          "internalType": "uint256",
          "name": "seigs",
          "type": "uint256"
        }
      ],
      "stateMutability": "view",
      "type": "function"
    },
    {
      "inputs": [],
      "name": "indexCandidates",
      "outputs": [
        {
          "internalType": "uint32",
          "name": "",
          "type": "uint32"
        }
      ],
      "stateMutability": "view",
      "type": "function"
    },
    {
      "inputs": [],
      "name": "indexOperators",
      "outputs": [
        {
          "internalType": "uint32",
          "name": "",
          "type": "uint32"
        }
      ],
      "stateMutability": "view",
      "type": "function"
    },
    {
      "inputs": [
        {
          "internalType": "address",
          "name": "account",
          "type": "address"
        }
      ],
      "name": "isAdmin",
      "outputs": [
        {
          "internalType": "bool",
          "name": "",
          "type": "bool"
        }
      ],
      "stateMutability": "view",
      "type": "function"
    },
    {
      "inputs": [
        {
          "internalType": "bytes32",
          "name": "",
          "type": "bytes32"
        }
      ],
      "name": "layerKeys",
      "outputs": [
        {
          "internalType": "bool",
          "name": "",
          "type": "bool"
        }
      ],
      "stateMutability": "view",
      "type": "function"
    },
    {
      "inputs": [],
      "name": "maxLayer2Count",
      "outputs": [
        {
          "internalType": "uint256",
          "name": "",
          "type": "uint256"
        }
      ],
      "stateMutability": "view",
      "type": "function"
    },
    {
      "inputs": [],
      "name": "minimumDepositForCandidate",
      "outputs": [
        {
          "internalType": "uint256",
          "name": "",
          "type": "uint256"
        }
      ],
      "stateMutability": "view",
      "type": "function"
    },
    {
      "inputs": [],
      "name": "minimumDepositForL2Operator",
      "outputs": [
        {
          "internalType": "uint256",
          "name": "",
          "type": "uint256"
        }
      ],
      "stateMutability": "view",
      "type": "function"
    },
    {
      "inputs": [],
      "name": "optimismL2Operator",
      "outputs": [
        {
          "internalType": "address",
          "name": "",
          "type": "address"
        }
      ],
      "stateMutability": "view",
      "type": "function"
    },
    {
      "inputs": [
        {
          "internalType": "uint256",
          "name": "",
          "type": "uint256"
        }
      ],
      "name": "optimismL2OperatorIndexes",
      "outputs": [
        {
          "internalType": "uint32",
          "name": "",
          "type": "uint32"
        }
      ],
      "stateMutability": "view",
      "type": "function"
    },
    {
      "inputs": [
        {
          "internalType": "uint32",
          "name": "",
          "type": "uint32"
        }
      ],
      "name": "optimismL2OperatorNames",
      "outputs": [
        {
          "internalType": "bytes32",
          "name": "",
          "type": "bytes32"
        }
      ],
      "stateMutability": "view",
      "type": "function"
    },
    {
      "inputs": [],
      "name": "pauseProxy",
      "outputs": [
        {
          "internalType": "bool",
          "name": "",
          "type": "bool"
        }
      ],
      "stateMutability": "view",
      "type": "function"
    },
    {
      "inputs": [
        {
          "internalType": "uint256",
          "name": "",
          "type": "uint256"
        }
      ],
      "name": "proxyImplementation",
      "outputs": [
        {
          "internalType": "address",
          "name": "",
          "type": "address"
        }
      ],
      "stateMutability": "view",
      "type": "function"
    },
    {
      "inputs": [],
      "name": "ratioSecurityDepositOfTvl",
      "outputs": [
        {
          "internalType": "uint16",
          "name": "",
          "type": "uint16"
        }
      ],
      "stateMutability": "view",
      "type": "function"
    },
    {
      "inputs": [
        {
          "internalType": "address",
          "name": "account",
          "type": "address"
        }
      ],
      "name": "removeAdmin",
      "outputs": [],
      "stateMutability": "nonpayable",
      "type": "function"
    },
    {
      "inputs": [
        {
          "internalType": "bytes32",
          "name": "role",
          "type": "bytes32"
        },
        {
          "internalType": "address",
          "name": "account",
          "type": "address"
        }
      ],
      "name": "renounceRole",
      "outputs": [],
      "stateMutability": "nonpayable",
      "type": "function"
    },
    {
      "inputs": [
        {
          "internalType": "bytes32",
          "name": "role",
          "type": "bytes32"
        },
        {
          "internalType": "address",
          "name": "account",
          "type": "address"
        }
      ],
      "name": "revokeRole",
      "outputs": [],
      "stateMutability": "nonpayable",
      "type": "function"
    },
    {
      "inputs": [],
      "name": "seigManagerV2",
      "outputs": [
        {
          "internalType": "address",
          "name": "",
          "type": "address"
        }
      ],
      "stateMutability": "view",
      "type": "function"
    },
    {
      "inputs": [
        {
          "internalType": "bytes4",
          "name": "",
          "type": "bytes4"
        }
      ],
      "name": "selectorImplementation",
      "outputs": [
        {
          "internalType": "address",
          "name": "",
          "type": "address"
        }
      ],
      "stateMutability": "view",
      "type": "function"
    },
    {
      "inputs": [
        {
          "internalType": "bytes4",
          "name": "interfaceId",
          "type": "bytes4"
        }
      ],
      "name": "supportsInterface",
      "outputs": [
        {
          "internalType": "bool",
          "name": "",
          "type": "bool"
        }
      ],
      "stateMutability": "view",
      "type": "function"
    },
    {
      "inputs": [],
      "name": "ton",
      "outputs": [
        {
          "internalType": "contract IERC20",
          "name": "",
          "type": "address"
        }
      ],
      "stateMutability": "view",
      "type": "function"
    },
    {
      "inputs": [],
      "name": "totalSecurityDeposit",
      "outputs": [
        {
          "internalType": "uint256",
          "name": "",
          "type": "uint256"
        }
      ],
      "stateMutability": "view",
      "type": "function"
    },
    {
      "inputs": [],
      "name": "totalSeigs",
      "outputs": [
        {
          "internalType": "uint256",
          "name": "",
          "type": "uint256"
        }
      ],
      "stateMutability": "view",
      "type": "function"
    },
    {
      "inputs": [
        {
          "internalType": "address",
          "name": "newAdmin",
          "type": "address"
        }
      ],
      "name": "transferAdmin",
      "outputs": [],
      "stateMutability": "nonpayable",
      "type": "function"
    }
  ],
  "bytecode": "0x60806040526015805460ff60501b19166a010000000000000000000017905534801561002a57600080fd5b506112798061003a6000396000f3fe608060405234801561001057600080fd5b50600436106102775760003560e01c80636c8381f811610160578063b911135f116100d8578063d48ddf041161008c578063e0ef2a7f11610071578063e0ef2a7f146105fe578063e257569f14610621578063ec558b161461063457600080fd5b8063d48ddf04146105cb578063d547741f146105eb57600080fd5b8063caef64e6116100bd578063caef64e6146105a6578063cc48b947146105af578063d37c6d69146105c257600080fd5b8063b911135f14610550578063c14241b91461057957600080fd5b806375b238fc1161012f5780639e7ea842116101145780639e7ea8421461051f578063a217fddf1461053f578063a4dd8b7d1461054757600080fd5b806375b238fc146104c157806391d14854146104e857600080fd5b80636c8381f814610475578063704802751461048857806373469a7a1461049b57806375829def146104ae57600080fd5b80633bd0c19f116101f3578063550d01a3116101c25780635b1f335f116101a75780635b1f335f1461044f57806363a8fd891461045857806366f0d6af1461046557600080fd5b8063550d01a31461041457806357bc1df01461043757600080fd5b80633bd0c19f1461038f578063499ad9da146103b75780634d4a5f2b146103c057806350d2a276146103d357600080fd5b8063229852461161024a57806324d7806c1161022f57806324d7806c146103565780632f2ff15d1461036957806336568abe1461037c57600080fd5b8063229852461461030c578063248a9ca31461033357600080fd5b806301ffc9a71461027c57806303b90d1a146102a457806304196138146102bb5780631785f53c146102f7575b600080fd5b61028f61028a366004610fc4565b610647565b60405190151581526020015b60405180910390f35b6102ad60095481565b60405190815260200161029b565b6102e26102c9366004611007565b6012602052600090815260409020805460019091015482565b6040805192835260208301919091520161029b565b61030a610305366004611039565b61067e565b005b6102ad7ffb5864e8ff833c3cb2d2d08505e82ff02a43554c74a35d4f5a64e8526127831181565b6102ad610341366004611054565b60009081526020819052604090206001015490565b61028f610364366004611039565b610710565b61030a61037736600461106d565b610750565b61030a61038a36600461106d565b61077a565b6103a261039d366004611054565b610806565b60405163ffffffff909116815260200161029b565b6102ad600e5481565b61030a6103ce366004611099565b610840565b6103fc6103e1366004610fc4565b6004602052600090815260409020546001600160a01b031681565b6040516001600160a01b03909116815260200161029b565b61028f610422366004611039565b60036020526000908152604090205460ff1681565b6015546103a290640100000000900463ffffffff1681565b6102ad600d5481565b60015461028f9060ff1681565b6015546103a29063ffffffff1681565b6008546103fc906001600160a01b031681565b61030a610496366004611039565b610a47565b6006546103fc906001600160a01b031681565b61030a6104bc366004611039565b610ad1565b6102ad7fdf8b4c520ffe197c5343c6f5aec59570151ef9a492f2c624fd45ddde6135ec4281565b61028f6104f636600461106d565b6000918252602082815260408084206001600160a01b0393909316845291905290205460ff1690565b6102ad61052d366004611007565b60106020526000908152604090205481565b6102ad600081565b6102ad600a5481565b6103fc61055e366004611054565b6002602052600090815260409020546001600160a01b031681565b6015546105939068010000000000000000900461ffff1681565b60405161ffff909116815260200161029b565b6102ad600b5481565b6005546103fc906001600160a01b031681565b6102ad600c5481565b6102ad6105d9366004611007565b60116020526000908152604090205481565b61030a6105f936600461106d565b610c33565b61028f61060c366004611054565b60136020526000908152604090205460ff1681565b6103a261062f366004611054565b610c58565b6007546103fc906001600160a01b031681565b60006001600160e01b03198216637965db0b60e01b148061067857506301ffc9a760e01b6001600160e01b03198316145b92915050565b61068733610710565b6106e35760405162461bcd60e51b815260206004820152602260248201527f41636365737369626c653a2043616c6c6572206973206e6f7420616e2061646d60448201526134b760f11b60648201526084015b60405180910390fd5b61070d7fdf8b4c520ffe197c5343c6f5aec59570151ef9a492f2c624fd45ddde6135ec428261077a565b50565b6001600160a01b03811660009081527f5cbfc8ee58ca47855df7bcf648dd304ddb6b932f9b87878bdf6318d7ec7ee5b7602052604081205460ff16610678565b60008281526020819052604090206001015461076b81610c68565b6107758383610c72565b505050565b6001600160a01b03811633146107f85760405162461bcd60e51b815260206004820152602f60248201527f416363657373436f6e74726f6c3a2063616e206f6e6c792072656e6f756e636560448201527f20726f6c657320666f722073656c66000000000000000000000000000000000060648201526084016106da565b6108028282610d10565b5050565b6014818154811061081657600080fd5b9060005260206000209060089182820401919006600402915054906101000a900463ffffffff1681565b61084933610710565b6108a05760405162461bcd60e51b815260206004820152602260248201527f41636365737369626c653a2043616c6c6572206973206e6f7420616e2061646d60448201526134b760f11b60648201526084016106da565b866001600160a01b0381166108dc5760405162461bcd60e51b81526020600482015260026024820152612d1960f11b60448201526064016106da565b866001600160a01b0381166109185760405162461bcd60e51b81526020600482015260026024820152612d1960f11b60448201526064016106da565b866001600160a01b0381166109545760405162461bcd60e51b81526020600482015260026024820152612d1960f11b60448201526064016106da565b866001600160a01b0381166109905760405162461bcd60e51b81526020600482015260026024820152612d1960f11b60448201526064016106da565b8463ffffffff16806000036109cc5760405162461bcd60e51b81526020600482015260026024820152615a3160f01b60448201526064016106da565b50506005805473ffffffffffffffffffffffffffffffffffffffff199081166001600160a01b039c8d161782556006805482169b8d169b909b17909a55600780548b16998c16999099179098555050600880549097169490971693909317909455600955600a9290925563ffffffff909116600b55600c5550565b610a5033610710565b610aa75760405162461bcd60e51b815260206004820152602260248201527f41636365737369626c653a2043616c6c6572206973206e6f7420616e2061646d60448201526134b760f11b60648201526084016106da565b61070d7fdf8b4c520ffe197c5343c6f5aec59570151ef9a492f2c624fd45ddde6135ec4282610750565b610ada33610710565b610b315760405162461bcd60e51b815260206004820152602260248201527f41636365737369626c653a2043616c6c6572206973206e6f7420616e2061646d60448201526134b760f11b60648201526084016106da565b6001600160a01b038116610b875760405162461bcd60e51b815260206004820152601860248201527f41636365737369626c653a207a65726f2061646472657373000000000000000060448201526064016106da565b6001600160a01b0381163303610bdf5760405162461bcd60e51b815260206004820152601660248201527f41636365737369626c653a2073616d652061646d696e0000000000000000000060448201526064016106da565b610c097fdf8b4c520ffe197c5343c6f5aec59570151ef9a492f2c624fd45ddde6135ec4282610750565b61070d7fdf8b4c520ffe197c5343c6f5aec59570151ef9a492f2c624fd45ddde6135ec423361077a565b600082815260208190526040902060010154610c4e81610c68565b6107758383610d10565b600f818154811061081657600080fd5b61070d8133610d8f565b6000828152602081815260408083206001600160a01b038516845290915290205460ff16610802576000828152602081815260408083206001600160a01b03851684529091529020805460ff19166001179055610ccc3390565b6001600160a01b0316816001600160a01b0316837f2f8788117e7eff1d82e926ec794901d17c78024a50270940304540a733656f0d60405160405180910390a45050565b6000828152602081815260408083206001600160a01b038516845290915290205460ff1615610802576000828152602081815260408083206001600160a01b0385168085529252808320805460ff1916905551339285917ff6391f5c32d9c69d2a47ea670b442974b53935d1edc7fd64eb21e047a839171b9190a45050565b6000828152602081815260408083206001600160a01b038516845290915290205460ff1661080257610dc081610e02565b610dcb836020610e14565b604051602001610ddc929190611135565b60408051601f198184030181529082905262461bcd60e51b82526106da916004016111b6565b60606106786001600160a01b03831660145b60606000610e238360026111ff565b610e2e906002611216565b67ffffffffffffffff811115610e4657610e46611229565b6040519080825280601f01601f191660200182016040528015610e70576020820181803683370190505b509050600360fc1b81600081518110610e8b57610e8b61123f565b60200101906001600160f81b031916908160001a905350600f60fb1b81600181518110610eba57610eba61123f565b60200101906001600160f81b031916908160001a9053506000610ede8460026111ff565b610ee9906001611216565b90505b6001811115610f6e577f303132333435363738396162636465660000000000000000000000000000000085600f1660108110610f2a57610f2a61123f565b1a60f81b828281518110610f4057610f4061123f565b60200101906001600160f81b031916908160001a90535060049490941c93610f6781611255565b9050610eec565b508315610fbd5760405162461bcd60e51b815260206004820181905260248201527f537472696e67733a20686578206c656e67746820696e73756666696369656e7460448201526064016106da565b9392505050565b600060208284031215610fd657600080fd5b81356001600160e01b031981168114610fbd57600080fd5b803563ffffffff8116811461100257600080fd5b919050565b60006020828403121561101957600080fd5b610fbd82610fee565b80356001600160a01b038116811461100257600080fd5b60006020828403121561104b57600080fd5b610fbd82611022565b60006020828403121561106657600080fd5b5035919050565b6000806040838503121561108057600080fd5b8235915061109060208401611022565b90509250929050565b600080600080600080600060e0888a0312156110b457600080fd5b6110bd88611022565b96506110cb60208901611022565b95506110d960408901611022565b94506110e760608901611022565b93506080880135925060a0880135915061110360c08901610fee565b905092959891949750929550565b60005b8381101561112c578181015183820152602001611114565b50506000910152565b7f416363657373436f6e74726f6c3a206163636f756e742000000000000000000081526000835161116d816017850160208801611111565b7f206973206d697373696e6720726f6c652000000000000000000000000000000060179184019182015283516111aa816028840160208801611111565b01602801949350505050565b60208152600082518060208401526111d5816040850160208701611111565b601f01601f19169190910160400192915050565b634e487b7160e01b600052601160045260246000fd5b8082028115828204841417610678576106786111e9565b80820180821115610678576106786111e9565b634e487b7160e01b600052604160045260246000fd5b634e487b7160e01b600052603260045260246000fd5b600081611264576112646111e9565b50600019019056fea164736f6c6343000812000a",
  "linkReferences": {},
  "deployedLinkReferences": {}
}