{
  "_format": "hh-sol-artifact-1",
  "contractName": "BondStorage",
  "sourceName": "contracts/storages/BondStorage.sol",
  "abi": [
    {
      "inputs": [],
      "name": "layer2Manager",
      "outputs": [
        {
          "internalType": "address",
          "name": "",
          "type": "address"
        }
      ],
      "stateMutability": "view",
      "type": "function"
    },
    {
      "inputs": [
        {
          "internalType": "uint32",
          "name": "",
          "type": "uint32"
        }
      ],
      "name": "layerInfo",
      "outputs": [
        {
          "internalType": "bytes",
          "name": "",
          "type": "bytes"
        }
      ],
      "stateMutability": "view",
      "type": "function"
    },
    {
      "inputs": [
        {
          "internalType": "uint32",
          "name": "",
          "type": "uint32"
        }
      ],
      "name": "layerStakedLton",
      "outputs": [
        {
          "internalType": "uint256",
          "name": "",
          "type": "uint256"
        }
      ],
      "stateMutability": "view",
      "type": "function"
    },
    {
      "inputs": [
        {
          "internalType": "uint32",
          "name": "",
          "type": "uint32"
        },
        {
          "internalType": "address",
          "name": "",
          "type": "address"
        }
      ],
      "name": "layerStakes",
      "outputs": [
        {
          "internalType": "uint256",
          "name": "stakePrincipal",
          "type": "uint256"
        },
        {
          "internalType": "uint256",
          "name": "bondPrincipal",
          "type": "uint256"
        },
        {
          "internalType": "uint256",
          "name": "stakelton",
          "type": "uint256"
        },
        {
          "internalType": "uint256",
          "name": "bondlton",
          "type": "uint256"
        },
        {
          "internalType": "bool",
          "name": "stake",
          "type": "bool"
        },
        {
          "internalType": "uint16",
          "name": "fwFee",
          "type": "uint16"
        }
      ],
      "stateMutability": "view",
      "type": "function"
    },
    {
      "inputs": [
        {
          "internalType": "uint32",
          "name": "",
          "type": "uint32"
        },
        {
          "internalType": "address",
          "name": "",
          "type": "address"
        }
      ],
      "name": "pendingUnstaked",
      "outputs": [
        {
          "internalType": "uint256",
          "name": "",
          "type": "uint256"
        }
      ],
      "stateMutability": "view",
      "type": "function"
    },
    {
      "inputs": [
        {
          "internalType": "address",
          "name": "",
          "type": "address"
        }
      ],
      "name": "pendingUnstakedAccount",
      "outputs": [
        {
          "internalType": "uint256",
          "name": "",
          "type": "uint256"
        }
      ],
      "stateMutability": "view",
      "type": "function"
    },
    {
      "inputs": [
        {
          "internalType": "uint32",
          "name": "",
          "type": "uint32"
        }
      ],
      "name": "pendingUnstakedLayer2",
      "outputs": [
        {
          "internalType": "uint256",
          "name": "",
          "type": "uint256"
        }
      ],
      "stateMutability": "view",
      "type": "function"
    },
    {
      "inputs": [],
      "name": "seigManagerV2",
      "outputs": [
        {
          "internalType": "address",
          "name": "",
          "type": "address"
        }
      ],
      "stateMutability": "view",
      "type": "function"
    },
    {
      "inputs": [
        {
          "internalType": "uint256",
          "name": "",
          "type": "uint256"
        }
      ],
      "name": "stakeAccountList",
      "outputs": [
        {
          "internalType": "address",
          "name": "",
          "type": "address"
        }
      ],
      "stateMutability": "view",
      "type": "function"
    },
    {
      "inputs": [],
      "name": "ton",
      "outputs": [
        {
          "internalType": "address",
          "name": "",
          "type": "address"
        }
      ],
      "stateMutability": "view",
      "type": "function"
    },
    {
      "inputs": [],
      "name": "totalStakedLton",
      "outputs": [
        {
          "internalType": "uint256",
          "name": "",
          "type": "uint256"
        }
      ],
      "stateMutability": "view",
      "type": "function"
    },
    {
      "inputs": [
        {
          "internalType": "uint32",
          "name": "",
          "type": "uint32"
        },
        {
          "internalType": "address",
          "name": "",
          "type": "address"
        }
      ],
      "name": "withdrawalRequestIndex",
      "outputs": [
        {
          "internalType": "uint256",
          "name": "",
          "type": "uint256"
        }
      ],
      "stateMutability": "view",
      "type": "function"
    },
    {
      "inputs": [
        {
          "internalType": "uint32",
          "name": "",
          "type": "uint32"
        },
        {
          "internalType": "address",
          "name": "",
          "type": "address"
        },
        {
          "internalType": "uint256",
          "name": "",
          "type": "uint256"
        }
      ],
      "name": "withdrawalRequests",
      "outputs": [
        {
          "internalType": "uint32",
          "name": "withdrawableBlockNumber",
          "type": "uint32"
        },
        {
          "internalType": "uint128",
          "name": "amount",
          "type": "uint128"
        },
        {
          "internalType": "bool",
          "name": "processed",
          "type": "bool"
        }
      ],
      "stateMutability": "view",
      "type": "function"
    }
  ],
  "bytecode": "0x60806040526001805460ff19168117905534801561001c57600080fd5b506105d78061002c6000396000f3fe608060405234801561001057600080fd5b50600436106100df5760003560e01c806373469a7a1161008c578063a0b2a91311610066578063a0b2a913146102a5578063b9cab971146102c5578063cc48b947146102e5578063ec110d45146102fd57600080fd5b806373469a7a146101de5780637cf1587c146101f15780639c656e261461021c57600080fd5b8063659ab820116100bd578063659ab820146101565780636d1ef1031461017657806370619cf9146101be57600080fd5b806316b5d5bd146100e45780634e1a264d146101145780635e2cfe451461012b575b600080fd5b6003546100f7906001600160a01b031681565b6040516001600160a01b0390911681526020015b60405180910390f35b61011d60045481565b60405190815260200161010b565b61011d61013936600461047d565b600960209081526000928352604080842090915290825290205481565b6101696101643660046104b0565b610310565b60405161010b91906104d2565b610189610184366004610520565b6103aa565b6040805163ffffffff90941684526fffffffffffffffffffffffffffffffff909216602084015215159082015260600161010b565b61011d6101cc3660046104b0565b60056020526000908152604090205481565b6002546100f7906001600160a01b031681565b61011d6101ff36600461047d565b600860209081526000928352604080842090915290825290205481565b61027261022a36600461047d565b6006602090815260009283526040808420909152908252902080546001820154600283015460038401546004909401549293919290919060ff811690610100900461ffff1686565b6040805196875260208701959095529385019290925260608401521515608083015261ffff1660a082015260c00161010b565b61011d6102b336600461055c565b600b6020526000908152604090205481565b61011d6102d33660046104b0565b600a6020526000908152604090205481565b6001546100f79061010090046001600160a01b031681565b6100f761030b366004610577565b610423565b600c602052600090815260409020805461032990610590565b80601f016020809104026020016040519081016040528092919081815260200182805461035590610590565b80156103a25780601f10610377576101008083540402835291602001916103a2565b820191906000526020600020905b81548152906001019060200180831161038557829003601f168201915b505050505081565b600760205282600052604060002060205281600052604060002081815481106103d257600080fd5b60009182526020909120015463ffffffff8116935064010000000081046fffffffffffffffffffffffffffffffff16925074010000000000000000000000000000000000000000900460ff16905083565b600d818154811061043357600080fd5b6000918252602090912001546001600160a01b0316905081565b803563ffffffff8116811461046157600080fd5b919050565b80356001600160a01b038116811461046157600080fd5b6000806040838503121561049057600080fd5b6104998361044d565b91506104a760208401610466565b90509250929050565b6000602082840312156104c257600080fd5b6104cb8261044d565b9392505050565b600060208083528351808285015260005b818110156104ff578581018301518582016040015282016104e3565b506000604082860101526040601f19601f8301168501019250505092915050565b60008060006060848603121561053557600080fd5b61053e8461044d565b925061054c60208501610466565b9150604084013590509250925092565b60006020828403121561056e57600080fd5b6104cb82610466565b60006020828403121561058957600080fd5b5035919050565b600181811c908216806105a457607f821691505b6020821081036105c457634e487b7160e01b600052602260045260246000fd5b5091905056fea164736f6c6343000812000a",
  "linkReferences": {},
  "deployedLinkReferences": {}
}