{
  "_format": "hh-sol-artifact-1",
  "contractName": "FwReceipt",
  "sourceName": "contracts/FwReceipt.sol",
  "abi": [
    {
      "inputs": [],
      "stateMutability": "nonpayable",
      "type": "constructor"
    },
    {
      "anonymous": false,
      "inputs": [
        {
          "indexed": false,
          "internalType": "bytes32",
          "name": "key",
          "type": "bytes32"
        },
        {
          "indexed": false,
          "internalType": "address",
          "name": "caller",
          "type": "address"
        }
      ],
      "name": "CanceledRequest",
      "type": "event"
    },
    {
      "anonymous": false,
      "inputs": [
        {
          "indexed": false,
          "internalType": "bytes32",
          "name": "key",
          "type": "bytes32"
        },
        {
          "indexed": false,
          "internalType": "address",
          "name": "from",
          "type": "address"
        },
        {
          "indexed": false,
          "internalType": "address",
          "name": "to",
          "type": "address"
        },
        {
          "indexed": false,
          "internalType": "uint256",
          "name": "providedAmount",
          "type": "uint256"
        },
        {
          "indexed": false,
          "internalType": "uint256",
          "name": "feeAmount",
          "type": "uint256"
        },
        {
          "indexed": false,
          "internalType": "bool",
          "name": "isCandidate",
          "type": "bool"
        },
        {
          "indexed": false,
          "internalType": "uint32",
          "name": "indexNo",
          "type": "uint32"
        }
      ],
      "name": "FinalizedFastWithdrawal",
      "type": "event"
    },
    {
      "anonymous": false,
      "inputs": [
        {
          "indexed": false,
          "internalType": "bytes32",
          "name": "key",
          "type": "bytes32"
        },
        {
          "indexed": false,
          "internalType": "address",
          "name": "from",
          "type": "address"
        },
        {
          "indexed": false,
          "internalType": "address",
          "name": "to",
          "type": "address"
        },
        {
          "indexed": false,
          "internalType": "uint256",
          "name": "amount",
          "type": "uint256"
        },
        {
          "indexed": false,
          "internalType": "uint8",
          "name": "status",
          "type": "uint8"
        }
      ],
      "name": "NormalWithdrawal",
      "type": "event"
    },
    {
      "anonymous": false,
      "inputs": [
        {
          "indexed": false,
          "internalType": "bytes32",
          "name": "key",
          "type": "bytes32"
        },
        {
          "indexed": false,
          "internalType": "address",
          "name": "provider",
          "type": "address"
        },
        {
          "indexed": false,
          "internalType": "uint256",
          "name": "provideAmount",
          "type": "uint256"
        },
        {
          "indexed": false,
          "internalType": "uint256",
          "name": "feeAmount",
          "type": "uint256"
        },
        {
          "indexed": false,
          "internalType": "bool",
          "name": "isCandidate",
          "type": "bool"
        },
        {
          "indexed": false,
          "internalType": "uint32",
          "name": "indexNo",
          "type": "uint32"
        }
      ],
      "name": "ProvidedLiquidity",
      "type": "event"
    },
    {
      "anonymous": false,
      "inputs": [
        {
          "indexed": true,
          "internalType": "bytes32",
          "name": "role",
          "type": "bytes32"
        },
        {
          "indexed": true,
          "internalType": "bytes32",
          "name": "previousAdminRole",
          "type": "bytes32"
        },
        {
          "indexed": true,
          "internalType": "bytes32",
          "name": "newAdminRole",
          "type": "bytes32"
        }
      ],
      "name": "RoleAdminChanged",
      "type": "event"
    },
    {
      "anonymous": false,
      "inputs": [
        {
          "indexed": true,
          "internalType": "bytes32",
          "name": "role",
          "type": "bytes32"
        },
        {
          "indexed": true,
          "internalType": "address",
          "name": "account",
          "type": "address"
        },
        {
          "indexed": true,
          "internalType": "address",
          "name": "sender",
          "type": "address"
        }
      ],
      "name": "RoleGranted",
      "type": "event"
    },
    {
      "anonymous": false,
      "inputs": [
        {
          "indexed": true,
          "internalType": "bytes32",
          "name": "role",
          "type": "bytes32"
        },
        {
          "indexed": true,
          "internalType": "address",
          "name": "account",
          "type": "address"
        },
        {
          "indexed": true,
          "internalType": "address",
          "name": "sender",
          "type": "address"
        }
      ],
      "name": "RoleRevoked",
      "type": "event"
    },
    {
      "inputs": [],
      "name": "ADMIN_ROLE",
      "outputs": [
        {
          "internalType": "bytes32",
          "name": "",
          "type": "bytes32"
        }
      ],
      "stateMutability": "view",
      "type": "function"
    },
    {
      "inputs": [],
      "name": "DEFAULT_ADMIN_ROLE",
      "outputs": [
        {
          "internalType": "bytes32",
          "name": "",
          "type": "bytes32"
        }
      ],
      "stateMutability": "view",
      "type": "function"
    },
    {
      "inputs": [],
      "name": "POLICY_ROLE",
      "outputs": [
        {
          "internalType": "bytes32",
          "name": "",
          "type": "bytes32"
        }
      ],
      "stateMutability": "view",
      "type": "function"
    },
    {
      "inputs": [
        {
          "internalType": "address",
          "name": "account",
          "type": "address"
        }
      ],
      "name": "addAdmin",
      "outputs": [],
      "stateMutability": "nonpayable",
      "type": "function"
    },
    {
      "inputs": [
        {
          "internalType": "address",
          "name": "",
          "type": "address"
        }
      ],
      "name": "aliveImplementation",
      "outputs": [
        {
          "internalType": "bool",
          "name": "",
          "type": "bool"
        }
      ],
      "stateMutability": "view",
      "type": "function"
    },
    {
      "inputs": [
        {
          "internalType": "bool",
          "name": "isCandidate",
          "type": "bool"
        },
        {
          "internalType": "uint32",
          "name": "layerIndex",
          "type": "uint32"
        },
        {
          "internalType": "address",
          "name": "account",
          "type": "address"
        }
      ],
      "name": "availableLiquidity",
      "outputs": [
        {
          "internalType": "uint256",
          "name": "amount",
          "type": "uint256"
        }
      ],
      "stateMutability": "view",
      "type": "function"
    },
    {
      "inputs": [
        {
          "internalType": "address",
          "name": "requestor",
          "type": "address"
        },
        {
          "internalType": "uint256",
          "name": "requestAmount",
          "type": "uint256"
        },
        {
          "internalType": "uint32",
          "name": "deadline",
          "type": "uint32"
        },
        {
          "internalType": "uint16",
          "name": "feeRate",
          "type": "uint16"
        },
        {
          "internalType": "uint32",
          "name": "layerIndex",
          "type": "uint32"
        },
        {
          "internalType": "uint256",
          "name": "messageNonce",
          "type": "uint256"
        },
        {
          "internalType": "bytes32",
          "name": "hashMessage",
          "type": "bytes32"
        }
      ],
      "name": "cancelRequest",
      "outputs": [],
      "stateMutability": "nonpayable",
      "type": "function"
    },
    {
      "inputs": [],
      "name": "candidate",
      "outputs": [
        {
          "internalType": "address",
          "name": "",
          "type": "address"
        }
      ],
      "stateMutability": "view",
      "type": "function"
    },
    {
      "inputs": [
        {
          "internalType": "bool",
          "name": "isCandidate",
          "type": "bool"
        },
        {
          "internalType": "uint32",
          "name": "layerIndex",
          "type": "uint32"
        },
        {
          "internalType": "address",
          "name": "account",
          "type": "address"
        }
      ],
      "name": "debtInStaked",
      "outputs": [
        {
          "internalType": "uint256",
          "name": "",
          "type": "uint256"
        }
      ],
      "stateMutability": "view",
      "type": "function"
    },
    {
      "inputs": [
        {
          "internalType": "address",
          "name": "requestor",
          "type": "address"
        },
        {
          "internalType": "uint256",
          "name": "requestAmount",
          "type": "uint256"
        },
        {
          "internalType": "uint32",
          "name": "deadline",
          "type": "uint32"
        },
        {
          "internalType": "uint16",
          "name": "feeRate",
          "type": "uint16"
        },
        {
          "internalType": "uint32",
          "name": "layerIndex",
          "type": "uint32"
        },
        {
          "internalType": "uint256",
          "name": "messageNonce",
          "type": "uint256"
        },
        {
          "internalType": "bytes32",
          "name": "hashMessage",
          "type": "bytes32"
        }
      ],
      "name": "finalizeFastWithdraw",
      "outputs": [
        {
          "internalType": "uint8",
          "name": "",
          "type": "uint8"
        }
      ],
      "stateMutability": "nonpayable",
      "type": "function"
    },
    {
      "inputs": [
        {
          "internalType": "bytes32",
          "name": "role",
          "type": "bytes32"
        }
      ],
      "name": "getRoleAdmin",
      "outputs": [
        {
          "internalType": "bytes32",
          "name": "",
          "type": "bytes32"
        }
      ],
      "stateMutability": "view",
      "type": "function"
    },
    {
      "inputs": [
        {
          "internalType": "bytes32",
          "name": "role",
          "type": "bytes32"
        },
        {
          "internalType": "address",
          "name": "account",
          "type": "address"
        }
      ],
      "name": "grantRole",
      "outputs": [],
      "stateMutability": "nonpayable",
      "type": "function"
    },
    {
      "inputs": [
        {
          "internalType": "bytes32",
          "name": "role",
          "type": "bytes32"
        },
        {
          "internalType": "address",
          "name": "account",
          "type": "address"
        }
      ],
      "name": "hasRole",
      "outputs": [
        {
          "internalType": "bool",
          "name": "",
          "type": "bool"
        }
      ],
      "stateMutability": "view",
      "type": "function"
    },
    {
      "inputs": [
        {
          "internalType": "address",
          "name": "account",
          "type": "address"
        },
        {
          "internalType": "bytes32",
          "name": "txIndex",
          "type": "bytes32"
        }
      ],
      "name": "includedTxsOfProvider",
      "outputs": [
        {
          "internalType": "bool",
          "name": "included",
          "type": "bool"
        }
      ],
      "stateMutability": "view",
      "type": "function"
    },
    {
      "inputs": [
        {
          "internalType": "address",
          "name": "account",
          "type": "address"
        }
      ],
      "name": "isAdmin",
      "outputs": [
        {
          "internalType": "bool",
          "name": "",
          "type": "bool"
        }
      ],
      "stateMutability": "view",
      "type": "function"
    },
    {
      "inputs": [
        {
          "internalType": "bytes32",
          "name": "",
          "type": "bytes32"
        }
      ],
      "name": "messages",
      "outputs": [
        {
          "internalType": "uint8",
          "name": "status",
          "type": "uint8"
        },
        {
          "internalType": "bytes",
          "name": "data",
          "type": "bytes"
        },
        {
          "internalType": "bytes",
          "name": "liquidities",
          "type": "bytes"
        }
      ],
      "stateMutability": "view",
      "type": "function"
    },
    {
      "inputs": [],
      "name": "optimismL2Operator",
      "outputs": [
        {
          "internalType": "address",
          "name": "",
          "type": "address"
        }
      ],
      "stateMutability": "view",
      "type": "function"
    },
    {
      "inputs": [],
      "name": "pauseProxy",
      "outputs": [
        {
          "internalType": "bool",
          "name": "",
          "type": "bool"
        }
      ],
      "stateMutability": "view",
      "type": "function"
    },
    {
      "inputs": [
        {
          "internalType": "address",
          "name": "requestor",
          "type": "address"
        },
        {
          "internalType": "uint256",
          "name": "requestAmount",
          "type": "uint256"
        },
        {
          "internalType": "uint256",
          "name": "provideAmount",
          "type": "uint256"
        },
        {
          "internalType": "uint32",
          "name": "deadline",
          "type": "uint32"
        },
        {
          "internalType": "bool",
          "name": "isCandidate",
          "type": "bool"
        },
        {
          "internalType": "uint32",
          "name": "indexNo",
          "type": "uint32"
        },
        {
          "internalType": "uint16",
          "name": "feeRate",
          "type": "uint16"
        },
        {
          "internalType": "uint32",
          "name": "layerIndex",
          "type": "uint32"
        },
        {
          "internalType": "uint256",
          "name": "messageNonce",
          "type": "uint256"
        },
        {
          "internalType": "bytes32",
          "name": "hashMessage",
          "type": "bytes32"
        }
      ],
      "name": "provideLiquidity",
      "outputs": [],
      "stateMutability": "nonpayable",
      "type": "function"
    },
    {
      "inputs": [
        {
          "internalType": "uint256",
          "name": "",
          "type": "uint256"
        }
      ],
      "name": "proxyImplementation",
      "outputs": [
        {
          "internalType": "address",
          "name": "",
          "type": "address"
        }
      ],
      "stateMutability": "view",
      "type": "function"
    },
    {
      "inputs": [
        {
          "internalType": "address",
          "name": "account",
          "type": "address"
        }
      ],
      "name": "removeAdmin",
      "outputs": [],
      "stateMutability": "nonpayable",
      "type": "function"
    },
    {
      "inputs": [
        {
          "internalType": "bytes32",
          "name": "role",
          "type": "bytes32"
        },
        {
          "internalType": "address",
          "name": "account",
          "type": "address"
        }
      ],
      "name": "renounceRole",
      "outputs": [],
      "stateMutability": "nonpayable",
      "type": "function"
    },
    {
      "inputs": [
        {
          "internalType": "bytes32",
          "name": "role",
          "type": "bytes32"
        },
        {
          "internalType": "address",
          "name": "account",
          "type": "address"
        }
      ],
      "name": "revokeRole",
      "outputs": [],
      "stateMutability": "nonpayable",
      "type": "function"
    },
    {
      "inputs": [],
      "name": "seigManagerV2",
      "outputs": [
        {
          "internalType": "address",
          "name": "",
          "type": "address"
        }
      ],
      "stateMutability": "view",
      "type": "function"
    },
    {
      "inputs": [
        {
          "internalType": "bytes4",
          "name": "",
          "type": "bytes4"
        }
      ],
      "name": "selectorImplementation",
      "outputs": [
        {
          "internalType": "address",
          "name": "",
          "type": "address"
        }
      ],
      "stateMutability": "view",
      "type": "function"
    },
    {
      "inputs": [
        {
          "internalType": "address",
          "name": "_candidate",
          "type": "address"
        }
      ],
      "name": "setCandidate",
      "outputs": [],
      "stateMutability": "nonpayable",
      "type": "function"
    },
    {
      "inputs": [
        {
          "internalType": "address",
          "name": "_optimismL2Operator",
          "type": "address"
        }
      ],
      "name": "setOptimismL2Operator",
      "outputs": [],
      "stateMutability": "nonpayable",
      "type": "function"
    },
    {
      "inputs": [
        {
          "internalType": "bytes4",
          "name": "interfaceId",
          "type": "bytes4"
        }
      ],
      "name": "supportsInterface",
      "outputs": [
        {
          "internalType": "bool",
          "name": "",
          "type": "bool"
        }
      ],
      "stateMutability": "view",
      "type": "function"
    },
    {
      "inputs": [],
      "name": "ton",
      "outputs": [
        {
          "internalType": "address",
          "name": "",
          "type": "address"
        }
      ],
      "stateMutability": "view",
      "type": "function"
    },
    {
      "inputs": [
        {
          "internalType": "address",
          "name": "newAdmin",
          "type": "address"
        }
      ],
      "name": "transferAdmin",
      "outputs": [],
      "stateMutability": "nonpayable",
      "type": "function"
    },
    {
      "inputs": [
        {
          "internalType": "address",
          "name": "requestor",
          "type": "address"
        },
        {
          "internalType": "uint256",
          "name": "amount",
          "type": "uint256"
        },
        {
          "internalType": "uint16",
          "name": "feeRate",
          "type": "uint16"
        },
        {
          "internalType": "uint32",
          "name": "deadline",
          "type": "uint32"
        },
        {
          "internalType": "uint32",
          "name": "layerIndex",
          "type": "uint32"
        },
        {
          "internalType": "uint256",
          "name": "messageNonce",
          "type": "uint256"
        },
        {
          "internalType": "bytes32",
          "name": "hashMessage",
          "type": "bytes32"
        }
      ],
      "name": "validateHashMessage",
      "outputs": [
        {
          "internalType": "bool",
          "name": "",
          "type": "bool"
        }
      ],
      "stateMutability": "view",
      "type": "function"
    }
  ],
  "bytecode": "0x6080604052600d805460ff1916600117905534801561001d57600080fd5b5061335d8061002d6000396000f3fe608060405234801561001057600080fd5b50600436106101e55760003560e01c806363a8fd891161010f578063996647c0116100a2578063cc48b94711610071578063cc48b947146104d0578063d547741f146104e3578063decbcf16146104f6578063ec558b161461050957600080fd5b8063996647c014610479578063a217fddf1461048c578063b25a59eb14610494578063b911135f146104a757600080fd5b806375829def116100de57806375829def146103f557806375b238fc146104085780637b064e501461042f57806391d148541461044257600080fd5b806363a8fd89146103af5780636c8381f8146103bc57806370480275146103cf57806373469a7a146103e257600080fd5b806324d7806c1161018757806335d59b6b1161015657806335d59b6b1461032557806336568abe1461033857806350d2a2761461034b578063550d01a31461038c57600080fd5b806324d7806c146102ca5780632bbd59ca146102dd5780632cdac231146102ff5780632f2ff15d1461031257600080fd5b806307d072f3116101c357806307d072f31461024c5780631785f53c1461025f5780632298524614610272578063248a9ca3146102a757600080fd5b806301ffc9a7146101ea57806307880b7f1461021257806307a35aa814610227575b600080fd5b6101fd6101f836600461291a565b61051c565b60405190151581526020015b60405180910390f35b610225610220366004612959565b610553565b005b61023a610235366004612998565b61066a565b60405160ff9091168152602001610209565b6101fd61025a366004612a12565b610de3565b61022561026d366004612959565b610e68565b6102997ffb5864e8ff833c3cb2d2d08505e82ff02a43554c74a35d4f5a64e8526127831181565b604051908152602001610209565b6102996102b5366004612a3e565b60009081526020819052604090206001015490565b6101fd6102d8366004612959565b610ef5565b6102f06102eb366004612a3e565b610f35565b60405161020993929190612aa7565b61029961030d366004612aed565b61106c565b610225610320366004612b38565b61124f565b610225610333366004612998565b611279565b610225610346366004612b38565b611493565b61037461035936600461291a565b6004602052600090815260409020546001600160a01b031681565b6040516001600160a01b039091168152602001610209565b6101fd61039a366004612959565b60036020526000908152604090205460ff1681565b6001546101fd9060ff1681565b600854610374906001600160a01b031681565b6102256103dd366004612959565b61151f565b600654610374906001600160a01b031681565b610225610403366004612959565b6115a9565b6102997fdf8b4c520ffe197c5343c6f5aec59570151ef9a492f2c624fd45ddde6135ec4281565b61022561043d366004612b68565b61170b565b6101fd610450366004612b38565b6000918252602082815260408084206001600160a01b0393909316845291905290205460ff1690565b610299610487366004612aed565b612021565b610299600081565b6102256104a2366004612959565b612089565b6103746104b5366004612a3e565b6002602052600090815260409020546001600160a01b031681565b600554610374906001600160a01b031681565b6102256104f1366004612b38565b61219b565b6101fd610504366004612c14565b6121c0565b600754610374906001600160a01b031681565b60006001600160e01b03198216637965db0b60e01b148061054d57506301ffc9a760e01b6001600160e01b03198316145b92915050565b61055c33610ef5565b6105b85760405162461bcd60e51b815260206004820152602260248201527f41636365737369626c653a2043616c6c6572206973206e6f7420616e2061646d60448201526134b760f11b60648201526084015b60405180910390fd5b806001600160a01b0381166105f45760405162461bcd60e51b81526020600482015260026024820152612d1960f11b60448201526064016105af565b6008546001600160a01b0380841691160361063a5760405162461bcd60e51b81526004016105af9060208082526004908201526373616d6560e01b604082015260600190565b506008805473ffffffffffffffffffffffffffffffffffffffff19166001600160a01b0392909216919091179055565b60008615801590610680575063ffffffff841615155b6106b15760405162461bcd60e51b81526020600482015260026024820152615a3160f01b60448201526064016105af565b6106c0888887898888886121c0565b61070c5760405162461bcd60e51b815260206004820152601860248201527f6661696c2076616c6964617465486173684d657373616765000000000000000060448201526064016105af565b6000828152600960205260409020805460ff166107ab5760035b815460ff191660ff9190911617815560055461074c906001600160a01b03168a8a61235d565b8054604080518581526001600160a01b038c166020820181905281830152606081018b905260ff9092166080830152517f19c6577342d24d2798f29ce119c454f6de124fedaef6f05e15de3999eac43c829181900360a00190a1610dd3565b805460ff16600019016107bf576004610726565b805460ff1660011901610d8b5760008160010180546107dd90612c61565b90501180156107fb57508060020180546107f690612c61565b151590505b15610d43576040516331a043c560e11b815260009073__$1d82f85943f8f15120c320215629c38f60$__90636340878a9061083d906002860190600401612c9b565b600060405180830381865af415801561085a573d6000803e3d6000fd5b505050506040513d6000823e601f3d908101601f191682016040526108829190810190612d96565b80519091506000808c8c825b85811015610c2d5760008782815181106108aa576108aa612e93565b6020026020010151905060006127108f61ffff1683602001516108cd9190612ebf565b6108d79190612ed6565b82602001516108e69190612ef8565b905060008183602001516108fa9190612ef8565b905060008360400151610a1e576020840151610916908a612f0b565b84516001600160a01b03166000908152600a60209081526040808320606089015163ffffffff16845290915281208054929b508592909190610959908490612ef8565b92505081905550600760009054906101000a90046001600160a01b03166001600160a01b0316637138c7928f86606001518760000151866040518563ffffffff1660e01b81526004016109d4949392919093845263ffffffff9290921660208401526001600160a01b03166040830152606082015260800190565b6020604051808303816000875af11580156109f3573d6000803e3d6000fd5b505050506040513d601f19601f82011682018060405250810190610a179190612f1e565b9050610b31565b6020840151610a2d9089612f0b565b84516001600160a01b03166000908152600b60209081526040808320606089015163ffffffff16845290915281208054929a508592909190610a70908490612ef8565b92505081905550600860009054906101000a90046001600160a01b03166001600160a01b0316637138c7928f86606001518760000151866040518563ffffffff1660e01b8152600401610aeb949392919093845263ffffffff9290921660208401526001600160a01b03166040830152606082015260800190565b6020604051808303816000875af1158015610b0a573d6000803e3d6000fd5b505050506040513d601f19601f82011682018060405250810190610b2e9190612f1e565b90505b8351610b3d908f612478565b80610b8a5760405162461bcd60e51b815260206004820152600c60248201527f6661696c2066775374616b65000000000000000000000000000000000000000060448201526064016105af565b7f1c30258b666f76dc2a85ce035521826ae594487234ab6e46f28bf6be74181ceb8e856000015189868689604001518a60600151604051610c0e97969594939291909687526001600160a01b0395861660208801529390941660408601526060850191909152608084015290151560a083015263ffffffff1660c082015260e00190565b60405180910390a1505050508080610c2590612f3b565b91505061088e565b50865460ff191660051787558315610c5c57600754600554610c5c916001600160a01b0391821691168661235d565b8215610c7f57600854600554610c7f916001600160a01b0391821691168561235d565b80610c8a8486612f0b565b1015610d3857610cbb82610c9e8587612f0b565b610ca89084612ef8565b6005546001600160a01b0316919061235d565b7f1c30258b666f76dc2a85ce035521826ae594487234ab6e46f28bf6be74181ceb898380610ce98789612f0b565b610cf39086612ef8565b604080519485526001600160a01b0393841660208601529190921690830152606082015260006080820181905260a0820181905260c082015260e00160405180910390a15b505050505050610dd3565b60405162461bcd60e51b815260206004820152600d60248201527f57524f4e475f4d4553534147450000000000000000000000000000000000000060448201526064016105af565b60405162461bcd60e51b815260206004820152601160248201527f414c52454144595f50524f43455353454400000000000000000000000000000060448201526064016105af565b5460ff1698975050505050505050565b6001600160a01b0382166000908152600c6020526040812054815b81811015610e60576001600160a01b0385166000908152600c60205260409020805485919083908110610e3357610e33612e93565b906000526020600020015403610e4e5760019250505061054d565b80610e5881612f3b565b915050610dfe565b505092915050565b610e7133610ef5565b610ec85760405162461bcd60e51b815260206004820152602260248201527f41636365737369626c653a2043616c6c6572206973206e6f7420616e2061646d60448201526134b760f11b60648201526084016105af565b610ef27fdf8b4c520ffe197c5343c6f5aec59570151ef9a492f2c624fd45ddde6135ec4282611493565b50565b6001600160a01b03811660009081527f5cbfc8ee58ca47855df7bcf648dd304ddb6b932f9b87878bdf6318d7ec7ee5b7602052604081205460ff1661054d565b6009602052600090815260409020805460018201805460ff9092169291610f5b90612c61565b80601f0160208091040260200160405190810160405280929190818152602001828054610f8790612c61565b8015610fd45780601f10610fa957610100808354040283529160200191610fd4565b820191906000526020600020905b815481529060010190602001808311610fb757829003601f168201915b505050505090806002018054610fe990612c61565b80601f016020809104026020016040519081016040528092919081815260200182805461101590612c61565b80156110625780601f1061103757610100808354040283529160200191611062565b820191906000526020600020905b81548152906001019060200180831161104557829003601f168201915b5050505050905083565b600083156111605760085460405163253226cb60e21b815263ffffffff851660048201526001600160a01b03848116602483015260009216906394c89b2c90604401602060405180830381865afa1580156110cb573d6000803e3d6000fd5b505050506040513d601f19601f820116820180604052508101906110ef9190612f54565b6001600160a01b0384166000908152600b6020908152604080832063ffffffff8916845290915290205490915081111561115a576001600160a01b0383166000908152600b6020908152604080832063ffffffff881684529091529020546111579082612ef8565b91505b50611248565b60075460405163253226cb60e21b815263ffffffff851660048201526001600160a01b03848116602483015260009216906394c89b2c90604401602060405180830381865afa1580156111b7573d6000803e3d6000fd5b505050506040513d601f19601f820116820180604052508101906111db9190612f54565b6001600160a01b0384166000908152600a6020908152604080832063ffffffff89168452909152902054909150811115611246576001600160a01b0383166000908152600a6020908152604080832063ffffffff881684529091529020546112439082612ef8565b91505b505b9392505050565b60008281526020819052604090206001015461126a816125c5565b61127483836125cf565b505050565b611288878786888787876121c0565b6112d45760405162461bcd60e51b815260206004820152601860248201527f6661696c2076616c6964617465486173684d657373616765000000000000000060448201526064016105af565b8463ffffffff1642106113195760405162461bcd60e51b815260206004820152600d60248201526c7061737420646561646c696e6560981b60448201526064016105af565b6000818152600960205260409020805460ff161561136d5760405162461bcd60e51b8152602060048201526011602482015270185b1c9958591e481c1c9bd8d95cdcd959607a1b60448201526064016105af565b6001600160a01b03881633146113c55760405162461bcd60e51b815260206004820152601860248201527f63616c6c6572206973206e6f7420726571756573746f722e000000000000000060448201526064016105af565b805460ff19166001178155604051606089901b6bffffffffffffffffffffffff191660208201526034810188905260e087811b6001600160e01b0319908116605484015260f088901b6001600160f01b03191660588401529086901b16605a820152605e8101849052607e016040516020818303038152906040528160010190816114509190612fbb565b50604080518381523360208201527ffd8c3de20bde66d66a4502cdaa697d4dabbe703d3e14ab23e40b68c1a03a6810910160405180910390a15050505050505050565b6001600160a01b03811633146115115760405162461bcd60e51b815260206004820152602f60248201527f416363657373436f6e74726f6c3a2063616e206f6e6c792072656e6f756e636560448201527f20726f6c657320666f722073656c66000000000000000000000000000000000060648201526084016105af565b61151b828261266d565b5050565b61152833610ef5565b61157f5760405162461bcd60e51b815260206004820152602260248201527f41636365737369626c653a2043616c6c6572206973206e6f7420616e2061646d60448201526134b760f11b60648201526084016105af565b610ef27fdf8b4c520ffe197c5343c6f5aec59570151ef9a492f2c624fd45ddde6135ec428261124f565b6115b233610ef5565b6116095760405162461bcd60e51b815260206004820152602260248201527f41636365737369626c653a2043616c6c6572206973206e6f7420616e2061646d60448201526134b760f11b60648201526084016105af565b6001600160a01b03811661165f5760405162461bcd60e51b815260206004820152601860248201527f41636365737369626c653a207a65726f2061646472657373000000000000000060448201526064016105af565b6001600160a01b03811633036116b75760405162461bcd60e51b815260206004820152601660248201527f41636365737369626c653a2073616d652061646d696e0000000000000000000060448201526064016105af565b6116e17fdf8b4c520ffe197c5343c6f5aec59570151ef9a492f2c624fd45ddde6135ec428261124f565b610ef27fdf8b4c520ffe197c5343c6f5aec59570151ef9a492f2c624fd45ddde6135ec4233611493565b87806000036117415760405162461bcd60e51b81526020600482015260026024820152615a3160f01b60448201526064016105af565b6117508b8b878b8888886121c0565b61179c5760405162461bcd60e51b815260206004820152601860248201527f6661696c2076616c6964617465486173684d657373616765000000000000000060448201526064016105af565b8763ffffffff1642106117e15760405162461bcd60e51b815260206004820152600d60248201526c7061737420646561646c696e6560981b60448201526064016105af565b8661183a578563ffffffff168463ffffffff16146118355760405162461bcd60e51b815260206004820152601160248201527034ba1034b9903737ba1039b0b6b290261960791b60448201526064016105af565b611904565b6008546040516313e0634360e21b815263ffffffff881660048201526000916001600160a01b031690634f818d0c90602401606060405180830381865afa158015611889573d6000803e3d6000fd5b505050506040513d601f19601f820116820180604052508101906118ad919061307b565b90508463ffffffff16816020015163ffffffff16146119025760405162461bcd60e51b815260206004820152601160248201527034ba1034b9903737ba1039b0b6b290261960791b60448201526064016105af565b505b6000828152600960205260409020336001600160a01b038d16036119905760405162461bcd60e51b815260206004820152602e60248201527f5468652072657175657374657220616e642070726f76696465722063616e6e6f60448201527f74206265207468652073616d652e00000000000000000000000000000000000060648201526084016105af565b6001810180548d916000916119a490612c61565b9050600003611a8257825460ff16156119f35760405162461bcd60e51b8152602060048201526011602482015270185b1c9958591e481c1c9bd8d95cdcd959607a1b60448201526064016105af565b6040516bffffffffffffffffffffffff19606084901b166020820152603481018e90526001600160e01b031960e08d811b821660548401526001600160f01b031960f08c901b16605884015289901b16605a820152605e8101879052607e01604051602081830303815290604052836001019081611a719190612fbb565b50825460ff19166002178355611ba1565b825460ff16600214611aca5760405162461bcd60e51b8152602060048201526011602482015270185b1c9958591e481c1c9bd8d95cdcd959607a1b60448201526064016105af565b6040516348cbe2af60e01b815273__$1d82f85943f8f15120c320215629c38f60$__906348cbe2af90611b04906002870190600401612c9b565b602060405180830381865af4158015611b21573d6000803e3d6000fd5b505050506040513d601f19601f82011682018060405250810190611b459190612f54565b611b4f908e612ef8565b905060008111611ba15760405162461bcd60e51b815260206004820152600f60248201527f7a65726f206c656674416d6f756e74000000000000000000000000000000000060448201526064016105af565b8b6000829003611baf578d91505b80821015611bff5760405162461bcd60e51b815260206004820152601a60248201527f6c656674416d6f756e7420697320696e73756666696369656e7400000000000060448201526064016105af565b8a8a6000612710611c1461ffff8e1686612ebf565b611c1e9190612ed6565b90506000611c2c8286612ef8565b9050611c3984843361106c565b811115611c885760405162461bcd60e51b815260206004820152601a60248201527f6c697175696469747920697320696e73756666696369656e742e00000000000060448201526064016105af565b8315611da5576008546040516385b9e48560e01b8152600481018c905263ffffffff851660248201523360448201526001600160a01b03898116606483015260848201849052909116906385b9e4859060a4016020604051808303816000875af1158015611cfa573d6000803e3d6000fd5b505050506040513d601f19601f82011682018060405250810190611d1e9190612f1e565b611d6a5760405162461bcd60e51b815260206004820152601760248201527f6661696c2066617374576974686472617743616c696d2000000000000000000060448201526064016105af565b336000908152600b6020908152604080832063ffffffff8716845290915281208054839290611d9a908490612f0b565b90915550611eb79050565b6007546040516385b9e48560e01b8152600481018c905263ffffffff851660248201523360448201526001600160a01b03898116606483015260848201849052909116906385b9e4859060a4016020604051808303816000875af1158015611e11573d6000803e3d6000fd5b505050506040513d601f19601f82011682018060405250810190611e359190612f1e565b611e815760405162461bcd60e51b815260206004820152601760248201527f6661696c2066617374576974686472617743616c696d2000000000000000000060448201526064016105af565b336000908152600a6020908152604080832063ffffffff8716845290915281208054839290611eb1908490612f0b565b90915550505b604080516080810182523381526020810187815286151582840190815263ffffffff8781166060850190815294516369aed7b760e11b815293516001600160a01b031660048501529151602484015251151560448301529151909116606482015273__$1d82f85943f8f15120c320215629c38f60$__9063d35daf6e90608401600060405180830381865af4158015611f54573d6000803e3d6000fd5b505050506040513d6000823e601f3d908101601f19168201604052611f7c91908101906130ed565b6002890190611f8b9082612fbb565b50336000818152600c602090815260408083208054600181018255908452928290209092018d905581518d815290810192909252810182905260608101839052841515608082015263ffffffff841660a08201527f6f74cd4afbbc228cc261f91b7441a9c47fea6305241baadd9c0dbd81c3eff2f69060c00160405180910390a150505050505050505050505050505050505050565b6000831561205957506001600160a01b0381166000908152600b6020908152604080832063ffffffff86168452909152902054611248565b506001600160a01b0381166000908152600a6020908152604080832063ffffffff86168452909152902054611248565b61209233610ef5565b6120e95760405162461bcd60e51b815260206004820152602260248201527f41636365737369626c653a2043616c6c6572206973206e6f7420616e2061646d60448201526134b760f11b60648201526084016105af565b806001600160a01b0381166121255760405162461bcd60e51b81526020600482015260026024820152612d1960f11b60448201526064016105af565b6007546001600160a01b0380841691160361216b5760405162461bcd60e51b81526004016105af9060208082526004908201526373616d6560e01b604082015260600190565b506007805473ffffffffffffffffffffffffffffffffffffffff19166001600160a01b0392909216919091179055565b6000828152602081905260409020600101546121b6816125c5565b611274838361266d565b600754604051638c6f1b3960e01b815263ffffffff8516600482015260009182916001600160a01b0390911690638c6f1b3990602401608060405180830381865afa158015612213573d6000803e3d6000fd5b505050506040513d601f19601f820116820180604052508101906122379190613181565b60055460608201516040516001600160f01b031960f08c901b1660208201526001600160e01b031960e08b811b821660228401528a901b16602682015292935060009263a9f9e67560e01b926001600160a01b031691908d9030908e90602a0160408051601f19818403018152908290526122b99695949392916024016131e8565b604051602081830303815290604052906001600160e01b0319166020820180516001600160e01b0383818316178352505050509050600063cbd4ece960e01b8360200151846040015184896040516024016123179493929190613236565b60408051601f198184030181529190526020810180516001600160e01b03166001600160e01b031990931692909217825251902085149350505050979650505050505050565b604080516001600160a01b038481166024830152604480830185905283518084039091018152606490920183526020820180516001600160e01b031663a9059cbb60e01b17905291516000928392908716916123b99190613273565b6000604051808303816000865af19150503d80600081146123f6576040519150601f19603f3d011682016040523d82523d6000602084013e6123fb565b606091505b50915091508180156124255750805115806124255750808060200190518101906124259190612f1e565b6124715760405162461bcd60e51b815260206004820152600f60248201527f5452414e534645525f4641494c4544000000000000000000000000000000000060448201526064016105af565b5050505050565b6001600160a01b0382166000908152600c6020526040812054905b818110156125bf576001600160a01b0384166000908152600c602052604090208054849190839081106124c8576124c8612e93565b9060005260206000200154036125ad576124e3600183612ef8565b81101561256b576001600160a01b0384166000908152600c6020526040902061250d600184612ef8565b8154811061251d5761251d612e93565b9060005260206000200154600c6000866001600160a01b03166001600160a01b03168152602001908152602001600020828154811061255e5761255e612e93565b6000918252602090912001555b6001600160a01b0384166000908152600c602052604090208054806125925761259261328f565b600190038181906000526020600020016000905590556125bf565b806125b781612f3b565b915050612493565b50505050565b610ef281336126ec565b6000828152602081815260408083206001600160a01b038516845290915290205460ff1661151b576000828152602081815260408083206001600160a01b03851684529091529020805460ff191660011790556126293390565b6001600160a01b0316816001600160a01b0316837f2f8788117e7eff1d82e926ec794901d17c78024a50270940304540a733656f0d60405160405180910390a45050565b6000828152602081815260408083206001600160a01b038516845290915290205460ff161561151b576000828152602081815260408083206001600160a01b0385168085529252808320805460ff1916905551339285917ff6391f5c32d9c69d2a47ea670b442974b53935d1edc7fd64eb21e047a839171b9190a45050565b6000828152602081815260408083206001600160a01b038516845290915290205460ff1661151b5761271d8161275f565b612728836020612771565b6040516020016127399291906132a5565b60408051601f198184030181529082905262461bcd60e51b82526105af91600401613326565b606061054d6001600160a01b03831660145b60606000612780836002612ebf565b61278b906002612f0b565b67ffffffffffffffff8111156127a3576127a3612d26565b6040519080825280601f01601f1916602001820160405280156127cd576020820181803683370190505b509050600360fc1b816000815181106127e8576127e8612e93565b60200101906001600160f81b031916908160001a905350600f60fb1b8160018151811061281757612817612e93565b60200101906001600160f81b031916908160001a905350600061283b846002612ebf565b612846906001612f0b565b90505b60018111156128cb577f303132333435363738396162636465660000000000000000000000000000000085600f166010811061288757612887612e93565b1a60f81b82828151811061289d5761289d612e93565b60200101906001600160f81b031916908160001a90535060049490941c936128c481613339565b9050612849565b5083156112485760405162461bcd60e51b815260206004820181905260248201527f537472696e67733a20686578206c656e67746820696e73756666696369656e7460448201526064016105af565b60006020828403121561292c57600080fd5b81356001600160e01b03198116811461124857600080fd5b6001600160a01b0381168114610ef257600080fd5b60006020828403121561296b57600080fd5b813561124881612944565b63ffffffff81168114610ef257600080fd5b61ffff81168114610ef257600080fd5b600080600080600080600060e0888a0312156129b357600080fd5b87356129be81612944565b96506020880135955060408801356129d581612976565b945060608801356129e581612988565b935060808801356129f581612976565b9699959850939692959460a0840135945060c09093013592915050565b60008060408385031215612a2557600080fd5b8235612a3081612944565b946020939093013593505050565b600060208284031215612a5057600080fd5b5035919050565b60005b83811015612a72578181015183820152602001612a5a565b50506000910152565b60008151808452612a93816020860160208601612a57565b601f01601f19169290920160200192915050565b60ff84168152606060208201526000612ac36060830185612a7b565b8281036040840152612ad58185612a7b565b9695505050505050565b8015158114610ef257600080fd5b600080600060608486031215612b0257600080fd5b8335612b0d81612adf565b92506020840135612b1d81612976565b91506040840135612b2d81612944565b809150509250925092565b60008060408385031215612b4b57600080fd5b823591506020830135612b5d81612944565b809150509250929050565b6000806000806000806000806000806101408b8d031215612b8857600080fd5b8a35612b9381612944565b995060208b0135985060408b0135975060608b0135612bb181612976565b965060808b0135612bc181612adf565b955060a08b0135612bd181612976565b945060c08b0135612be181612988565b935060e08b0135612bf181612976565b809350506101008b013591506101208b013590509295989b9194979a5092959850565b600080600080600080600060e0888a031215612c2f57600080fd5b8735612c3a81612944565b9650602088013595506040880135612c5181612988565b945060608801356129e581612976565b600181811c90821680612c7557607f821691505b602082108103612c9557634e487b7160e01b600052602260045260246000fd5b50919050565b6000602080835260008454612caf81612c61565b80848701526040600180841660008114612cd05760018114612cea57612d18565b60ff1985168984015283151560051b890183019550612d18565b896000528660002060005b85811015612d105781548b8201860152908301908801612cf5565b8a0184019650505b509398975050505050505050565b634e487b7160e01b600052604160045260246000fd5b6040516080810167ffffffffffffffff81118282101715612d5f57612d5f612d26565b60405290565b604051601f8201601f1916810167ffffffffffffffff81118282101715612d8e57612d8e612d26565b604052919050565b60006020808385031215612da957600080fd5b825167ffffffffffffffff80821115612dc157600080fd5b818501915085601f830112612dd557600080fd5b815181811115612de757612de7612d26565b612df5848260051b01612d65565b818152848101925060079190911b830184019087821115612e1557600080fd5b928401925b81841015612e885760808489031215612e335760008081fd5b612e3b612d3c565b8451612e4681612944565b81528486015186820152604080860151612e5f81612adf565b90820152606085810151612e7281612976565b9082015283526080939093019291840191612e1a565b979650505050505050565b634e487b7160e01b600052603260045260246000fd5b634e487b7160e01b600052601160045260246000fd5b808202811582820484141761054d5761054d612ea9565b600082612ef357634e487b7160e01b600052601260045260246000fd5b500490565b8181038181111561054d5761054d612ea9565b8082018082111561054d5761054d612ea9565b600060208284031215612f3057600080fd5b815161124881612adf565b600060018201612f4d57612f4d612ea9565b5060010190565b600060208284031215612f6657600080fd5b5051919050565b601f82111561127457600081815260208120601f850160051c81016020861015612f945750805b601f850160051c820191505b81811015612fb357828155600101612fa0565b505050505050565b815167ffffffffffffffff811115612fd557612fd5612d26565b612fe981612fe38454612c61565b84612f6d565b602080601f83116001811461301e57600084156130065750858301515b600019600386901b1c1916600185901b178555612fb3565b600085815260208120601f198616915b8281101561304d5788860151825594840194600190910190840161302e565b508582101561306b5787850151600019600388901b60f8161c191681555b5050505050600190811b01905550565b60006060828403121561308d57600080fd5b6040516060810181811067ffffffffffffffff821117156130b0576130b0612d26565b60405282516130be81612944565b815260208301516130ce81612976565b602082015260408301516130e181612988565b60408201529392505050565b6000602082840312156130ff57600080fd5b815167ffffffffffffffff8082111561311757600080fd5b818401915084601f83011261312b57600080fd5b81518181111561313d5761313d612d26565b613150601f8201601f1916602001612d65565b915080825285602082850101111561316757600080fd5b613178816020840160208601612a57565b50949350505050565b60006080828403121561319357600080fd5b61319b612d3c565b82516131a681612944565b815260208301516131b681612944565b602082015260408301516131c981612944565b604082015260608301516131dc81612944565b60608201529392505050565b60006001600160a01b0380891683528088166020840152808716604084015280861660608401525083608083015260c060a083015261322a60c0830184612a7b565b98975050505050505050565b60006001600160a01b038087168352808616602084015250608060408301526132626080830185612a7b565b905082606083015295945050505050565b60008251613285818460208701612a57565b9190910192915050565b634e487b7160e01b600052603160045260246000fd5b7f416363657373436f6e74726f6c3a206163636f756e74200000000000000000008152600083516132dd816017850160208801612a57565b7f206973206d697373696e6720726f6c6520000000000000000000000000000000601791840191820152835161331a816028840160208801612a57565b01602801949350505050565b6020815260006112486020830184612a7b565b60008161334857613348612ea9565b50600019019056fea164736f6c6343000812000a",
  "linkReferences": {
    "contracts/libraries/LibFastWithdraw.sol": {
      "LibFastWithdraw": [
        {
          "length": 20,
          "start": 2111
        },
        {
          "length": 20,
          "start": 6918
        },
        {
          "length": 20,
          "start": 8007
        }
      ]
    }
  },
  "deployedLinkReferences": {
    "contracts/libraries/LibFastWithdraw.sol": {
      "LibFastWithdraw": [
        {
          "length": 20,
          "start": 2066
        },
        {
          "length": 20,
          "start": 6873
        },
        {
          "length": 20,
          "start": 7962
        }
      ]
    }
  }
}