{
  "_format": "hh-sol-artifact-1",
  "contractName": "FwReceipt",
  "sourceName": "contracts/FwReceipt.sol",
  "abi": [
    {
      "inputs": [],
      "stateMutability": "nonpayable",
      "type": "constructor"
    },
    {
      "anonymous": false,
      "inputs": [
        {
          "indexed": false,
          "internalType": "bytes32",
          "name": "key",
          "type": "bytes32"
        },
        {
          "indexed": false,
          "internalType": "address",
          "name": "caller",
          "type": "address"
        }
      ],
      "name": "CanceledRequest",
      "type": "event"
    },
    {
      "anonymous": false,
      "inputs": [
        {
          "indexed": false,
          "internalType": "bytes32",
          "name": "key",
          "type": "bytes32"
        },
        {
          "indexed": false,
          "internalType": "address",
          "name": "from",
          "type": "address"
        },
        {
          "indexed": false,
          "internalType": "address",
          "name": "to",
          "type": "address"
        },
        {
          "indexed": false,
          "internalType": "uint256",
          "name": "providedAmount",
          "type": "uint256"
        },
        {
          "indexed": false,
          "internalType": "uint256",
          "name": "feeAmount",
          "type": "uint256"
        },
        {
          "indexed": false,
          "internalType": "bool",
          "name": "isCandidate",
          "type": "bool"
        },
        {
          "indexed": false,
          "internalType": "uint32",
          "name": "indexNo",
          "type": "uint32"
        }
      ],
      "name": "FinalizedFastWithdrawal",
      "type": "event"
    },
    {
      "anonymous": false,
      "inputs": [
        {
          "indexed": false,
          "internalType": "bytes32",
          "name": "key",
          "type": "bytes32"
        },
        {
          "indexed": false,
          "internalType": "address",
          "name": "from",
          "type": "address"
        },
        {
          "indexed": false,
          "internalType": "address",
          "name": "to",
          "type": "address"
        },
        {
          "indexed": false,
          "internalType": "uint256",
          "name": "amount",
          "type": "uint256"
        },
        {
          "indexed": false,
          "internalType": "uint8",
          "name": "status",
          "type": "uint8"
        }
      ],
      "name": "NormalWithdrawal",
      "type": "event"
    },
    {
      "anonymous": false,
      "inputs": [
        {
          "indexed": false,
          "internalType": "bytes32",
          "name": "key",
          "type": "bytes32"
        },
        {
          "indexed": false,
          "internalType": "address",
          "name": "provider",
          "type": "address"
        },
        {
          "indexed": false,
          "internalType": "uint256",
          "name": "provideAmount",
          "type": "uint256"
        },
        {
          "indexed": false,
          "internalType": "uint256",
          "name": "feeAmount",
          "type": "uint256"
        },
        {
          "indexed": false,
          "internalType": "bool",
          "name": "isCandidate",
          "type": "bool"
        },
        {
          "indexed": false,
          "internalType": "uint32",
          "name": "indexNo",
          "type": "uint32"
        }
      ],
      "name": "ProvidedLiquidity",
      "type": "event"
    },
    {
      "anonymous": false,
      "inputs": [
        {
          "indexed": true,
          "internalType": "bytes32",
          "name": "role",
          "type": "bytes32"
        },
        {
          "indexed": true,
          "internalType": "bytes32",
          "name": "previousAdminRole",
          "type": "bytes32"
        },
        {
          "indexed": true,
          "internalType": "bytes32",
          "name": "newAdminRole",
          "type": "bytes32"
        }
      ],
      "name": "RoleAdminChanged",
      "type": "event"
    },
    {
      "anonymous": false,
      "inputs": [
        {
          "indexed": true,
          "internalType": "bytes32",
          "name": "role",
          "type": "bytes32"
        },
        {
          "indexed": true,
          "internalType": "address",
          "name": "account",
          "type": "address"
        },
        {
          "indexed": true,
          "internalType": "address",
          "name": "sender",
          "type": "address"
        }
      ],
      "name": "RoleGranted",
      "type": "event"
    },
    {
      "anonymous": false,
      "inputs": [
        {
          "indexed": true,
          "internalType": "bytes32",
          "name": "role",
          "type": "bytes32"
        },
        {
          "indexed": true,
          "internalType": "address",
          "name": "account",
          "type": "address"
        },
        {
          "indexed": true,
          "internalType": "address",
          "name": "sender",
          "type": "address"
        }
      ],
      "name": "RoleRevoked",
      "type": "event"
    },
    {
      "inputs": [],
      "name": "ADMIN_ROLE",
      "outputs": [
        {
          "internalType": "bytes32",
          "name": "",
          "type": "bytes32"
        }
      ],
      "stateMutability": "view",
      "type": "function"
    },
    {
      "inputs": [],
      "name": "DEFAULT_ADMIN_ROLE",
      "outputs": [
        {
          "internalType": "bytes32",
          "name": "",
          "type": "bytes32"
        }
      ],
      "stateMutability": "view",
      "type": "function"
    },
    {
      "inputs": [],
      "name": "POLICY_ROLE",
      "outputs": [
        {
          "internalType": "bytes32",
          "name": "",
          "type": "bytes32"
        }
      ],
      "stateMutability": "view",
      "type": "function"
    },
    {
      "inputs": [
        {
          "internalType": "address",
          "name": "account",
          "type": "address"
        }
      ],
      "name": "addAdmin",
      "outputs": [],
      "stateMutability": "nonpayable",
      "type": "function"
    },
    {
      "inputs": [
        {
          "internalType": "address",
          "name": "",
          "type": "address"
        }
      ],
      "name": "aliveImplementation",
      "outputs": [
        {
          "internalType": "bool",
          "name": "",
          "type": "bool"
        }
      ],
      "stateMutability": "view",
      "type": "function"
    },
    {
      "inputs": [
        {
          "internalType": "bool",
          "name": "isCandidate",
          "type": "bool"
        },
        {
          "internalType": "uint32",
          "name": "layerIndex",
          "type": "uint32"
        },
        {
          "internalType": "address",
          "name": "account",
          "type": "address"
        }
      ],
      "name": "availableLiquidity",
      "outputs": [
        {
          "internalType": "uint256",
          "name": "amount",
          "type": "uint256"
        }
      ],
      "stateMutability": "view",
      "type": "function"
    },
    {
      "inputs": [
        {
          "internalType": "address",
          "name": "requestor",
          "type": "address"
        },
        {
          "internalType": "uint256",
          "name": "requestAmount",
          "type": "uint256"
        },
        {
          "internalType": "uint32",
          "name": "deadline",
          "type": "uint32"
        },
        {
          "internalType": "uint16",
          "name": "feeRate",
          "type": "uint16"
        },
        {
          "internalType": "uint32",
          "name": "layerIndex",
          "type": "uint32"
        },
        {
          "internalType": "uint256",
          "name": "messageNonce",
          "type": "uint256"
        },
        {
          "internalType": "bytes32",
          "name": "hashMessage",
          "type": "bytes32"
        }
      ],
      "name": "cancelRequest",
      "outputs": [],
      "stateMutability": "nonpayable",
      "type": "function"
    },
    {
      "inputs": [],
      "name": "candidate",
      "outputs": [
        {
          "internalType": "address",
          "name": "",
          "type": "address"
        }
      ],
      "stateMutability": "view",
      "type": "function"
    },
    {
      "inputs": [
        {
          "internalType": "bool",
          "name": "isCandidate",
          "type": "bool"
        },
        {
          "internalType": "uint32",
          "name": "layerIndex",
          "type": "uint32"
        },
        {
          "internalType": "address",
          "name": "account",
          "type": "address"
        }
      ],
      "name": "debtInStaked",
      "outputs": [
        {
          "internalType": "uint256",
          "name": "",
          "type": "uint256"
        }
      ],
      "stateMutability": "view",
      "type": "function"
    },
    {
      "inputs": [
        {
          "internalType": "address",
          "name": "requestor",
          "type": "address"
        },
        {
          "internalType": "uint256",
          "name": "requestAmount",
          "type": "uint256"
        },
        {
          "internalType": "uint32",
          "name": "deadline",
          "type": "uint32"
        },
        {
          "internalType": "uint16",
          "name": "feeRate",
          "type": "uint16"
        },
        {
          "internalType": "uint32",
          "name": "layerIndex",
          "type": "uint32"
        },
        {
          "internalType": "uint256",
          "name": "messageNonce",
          "type": "uint256"
        },
        {
          "internalType": "bytes32",
          "name": "hashMessage",
          "type": "bytes32"
        }
      ],
      "name": "finalizeFastWithdraw",
      "outputs": [
        {
          "internalType": "uint8",
          "name": "",
          "type": "uint8"
        }
      ],
      "stateMutability": "nonpayable",
      "type": "function"
    },
    {
      "inputs": [
        {
          "internalType": "bytes32",
          "name": "role",
          "type": "bytes32"
        }
      ],
      "name": "getRoleAdmin",
      "outputs": [
        {
          "internalType": "bytes32",
          "name": "",
          "type": "bytes32"
        }
      ],
      "stateMutability": "view",
      "type": "function"
    },
    {
      "inputs": [
        {
          "internalType": "bytes32",
          "name": "role",
          "type": "bytes32"
        },
        {
          "internalType": "address",
          "name": "account",
          "type": "address"
        }
      ],
      "name": "grantRole",
      "outputs": [],
      "stateMutability": "nonpayable",
      "type": "function"
    },
    {
      "inputs": [
        {
          "internalType": "bytes32",
          "name": "role",
          "type": "bytes32"
        },
        {
          "internalType": "address",
          "name": "account",
          "type": "address"
        }
      ],
      "name": "hasRole",
      "outputs": [
        {
          "internalType": "bool",
          "name": "",
          "type": "bool"
        }
      ],
      "stateMutability": "view",
      "type": "function"
    },
    {
      "inputs": [
        {
          "internalType": "address",
          "name": "account",
          "type": "address"
        },
        {
          "internalType": "bytes32",
          "name": "txIndex",
          "type": "bytes32"
        }
      ],
      "name": "includedTxsOfProvider",
      "outputs": [
        {
          "internalType": "bool",
          "name": "included",
          "type": "bool"
        }
      ],
      "stateMutability": "view",
      "type": "function"
    },
    {
      "inputs": [
        {
          "internalType": "address",
          "name": "account",
          "type": "address"
        }
      ],
      "name": "isAdmin",
      "outputs": [
        {
          "internalType": "bool",
          "name": "",
          "type": "bool"
        }
      ],
      "stateMutability": "view",
      "type": "function"
    },
    {
      "inputs": [],
      "name": "l1CrossDomainMessenger",
      "outputs": [
        {
          "internalType": "address",
          "name": "",
          "type": "address"
        }
      ],
      "stateMutability": "view",
      "type": "function"
    },
    {
      "inputs": [
        {
          "internalType": "bytes32",
          "name": "",
          "type": "bytes32"
        }
      ],
      "name": "messages",
      "outputs": [
        {
          "internalType": "uint8",
          "name": "status",
          "type": "uint8"
        },
        {
          "internalType": "bytes",
          "name": "data",
          "type": "bytes"
        },
        {
          "internalType": "bytes",
          "name": "liquidities",
          "type": "bytes"
        }
      ],
      "stateMutability": "view",
      "type": "function"
    },
    {
      "inputs": [],
      "name": "optimismSequencer",
      "outputs": [
        {
          "internalType": "address",
          "name": "",
          "type": "address"
        }
      ],
      "stateMutability": "view",
      "type": "function"
    },
    {
      "inputs": [],
      "name": "pauseProxy",
      "outputs": [
        {
          "internalType": "bool",
          "name": "",
          "type": "bool"
        }
      ],
      "stateMutability": "view",
      "type": "function"
    },
    {
      "inputs": [
        {
          "internalType": "address",
          "name": "requestor",
          "type": "address"
        },
        {
          "internalType": "uint256",
          "name": "requestAmount",
          "type": "uint256"
        },
        {
          "internalType": "uint256",
          "name": "provideAmount",
          "type": "uint256"
        },
        {
          "internalType": "uint32",
          "name": "deadline",
          "type": "uint32"
        },
        {
          "internalType": "bool",
          "name": "isCandidate",
          "type": "bool"
        },
        {
          "internalType": "uint32",
          "name": "indexNo",
          "type": "uint32"
        },
        {
          "internalType": "uint16",
          "name": "feeRate",
          "type": "uint16"
        },
        {
          "internalType": "uint32",
          "name": "layerIndex",
          "type": "uint32"
        },
        {
          "internalType": "uint256",
          "name": "messageNonce",
          "type": "uint256"
        },
        {
          "internalType": "bytes32",
          "name": "hashMessage",
          "type": "bytes32"
        }
      ],
      "name": "provideLiquidity",
      "outputs": [],
      "stateMutability": "nonpayable",
      "type": "function"
    },
    {
      "inputs": [
        {
          "internalType": "uint256",
          "name": "",
          "type": "uint256"
        }
      ],
      "name": "proxyImplementation",
      "outputs": [
        {
          "internalType": "address",
          "name": "",
          "type": "address"
        }
      ],
      "stateMutability": "view",
      "type": "function"
    },
    {
      "inputs": [
        {
          "internalType": "address",
          "name": "account",
          "type": "address"
        }
      ],
      "name": "removeAdmin",
      "outputs": [],
      "stateMutability": "nonpayable",
      "type": "function"
    },
    {
      "inputs": [
        {
          "internalType": "bytes32",
          "name": "role",
          "type": "bytes32"
        },
        {
          "internalType": "address",
          "name": "account",
          "type": "address"
        }
      ],
      "name": "renounceRole",
      "outputs": [],
      "stateMutability": "nonpayable",
      "type": "function"
    },
    {
      "inputs": [
        {
          "internalType": "bytes32",
          "name": "role",
          "type": "bytes32"
        },
        {
          "internalType": "address",
          "name": "account",
          "type": "address"
        }
      ],
      "name": "revokeRole",
      "outputs": [],
      "stateMutability": "nonpayable",
      "type": "function"
    },
    {
      "inputs": [],
      "name": "seigManagerV2",
      "outputs": [
        {
          "internalType": "address",
          "name": "",
          "type": "address"
        }
      ],
      "stateMutability": "view",
      "type": "function"
    },
    {
      "inputs": [
        {
          "internalType": "bytes4",
          "name": "",
          "type": "bytes4"
        }
      ],
      "name": "selectorImplementation",
      "outputs": [
        {
          "internalType": "address",
          "name": "",
          "type": "address"
        }
      ],
      "stateMutability": "view",
      "type": "function"
    },
    {
      "inputs": [
        {
          "internalType": "address",
          "name": "_candidate",
          "type": "address"
        }
      ],
      "name": "setCandidate",
      "outputs": [],
      "stateMutability": "nonpayable",
      "type": "function"
    },
    {
      "inputs": [
        {
          "internalType": "address",
          "name": "_optimismSequencer",
          "type": "address"
        }
      ],
      "name": "setOptimismSequencer",
      "outputs": [],
      "stateMutability": "nonpayable",
      "type": "function"
    },
    {
      "inputs": [
        {
          "internalType": "bytes4",
          "name": "interfaceId",
          "type": "bytes4"
        }
      ],
      "name": "supportsInterface",
      "outputs": [
        {
          "internalType": "bool",
          "name": "",
          "type": "bool"
        }
      ],
      "stateMutability": "view",
      "type": "function"
    },
    {
      "inputs": [
        {
          "internalType": "address",
          "name": "newAdmin",
          "type": "address"
        }
      ],
      "name": "transferAdmin",
      "outputs": [],
      "stateMutability": "nonpayable",
      "type": "function"
    },
    {
      "inputs": [
        {
          "internalType": "address",
          "name": "requestor",
          "type": "address"
        },
        {
          "internalType": "uint256",
          "name": "amount",
          "type": "uint256"
        },
        {
          "internalType": "uint16",
          "name": "feeRate",
          "type": "uint16"
        },
        {
          "internalType": "uint32",
          "name": "deadline",
          "type": "uint32"
        },
        {
          "internalType": "uint32",
          "name": "layerIndex",
          "type": "uint32"
        },
        {
          "internalType": "uint256",
          "name": "messageNonce",
          "type": "uint256"
        },
        {
          "internalType": "bytes32",
          "name": "hashMessage",
          "type": "bytes32"
        }
      ],
      "name": "validateHashMessage",
      "outputs": [
        {
          "internalType": "bool",
          "name": "",
          "type": "bool"
        }
      ],
      "stateMutability": "view",
      "type": "function"
    },
    {
      "inputs": [],
      "name": "wton",
      "outputs": [
        {
          "internalType": "address",
          "name": "",
          "type": "address"
        }
      ],
      "stateMutability": "view",
      "type": "function"
    }
  ],
  "bytecode": "0x6080604052600e805460ff1916600117905534801561001d57600080fd5b5061337b8061002d6000396000f3fe608060405234801561001057600080fd5b50600436106101f05760003560e01c80636c8381f81161010f57806391d14854116100a2578063b911135f11610071578063b911135f146104d8578063d547741f14610501578063da0dc13514610514578063decbcf161461052757600080fd5b806391d1485414610473578063996647c0146104aa578063a217fddf146104bd578063a7119869146104c557600080fd5b806375829def116100de57806375829def1461041357806375b238fc146104265780637b064e501461044d5780638d62d9491461046057600080fd5b80636c8381f8146103c757806370480275146103da57806373469a7a146103ed578063749e09771461040057600080fd5b80632bbd59ca1161018757806336568abe1161015657806336568abe1461034357806350d2a27614610356578063550d01a31461039757806363a8fd89146103ba57600080fd5b80632bbd59ca146102e85780632cdac2311461030a5780632f2ff15d1461031d57806335d59b6b1461033057600080fd5b80631785f53c116101c35780631785f53c1461026a578063229852461461027d578063248a9ca3146102b257806324d7806c146102d557600080fd5b806301ffc9a7146101f557806307880b7f1461021d57806307a35aa81461023257806307d072f314610257575b600080fd5b610208610203366004612938565b61053a565b60405190151581526020015b60405180910390f35b61023061022b366004612977565b610571565b005b6102456102403660046129b6565b610688565b60405160ff9091168152602001610214565b610208610265366004612a30565b610e01565b610230610278366004612977565b610e86565b6102a47ffb5864e8ff833c3cb2d2d08505e82ff02a43554c74a35d4f5a64e8526127831181565b604051908152602001610214565b6102a46102c0366004612a5c565b60009081526020819052604090206001015490565b6102086102e3366004612977565b610f13565b6102fb6102f6366004612a5c565b610f53565b60405161021493929190612ac5565b6102a4610318366004612b0b565b61108a565b61023061032b366004612b56565b61126d565b61023061033e3660046129b6565b611297565b610230610351366004612b56565b6114b1565b61037f610364366004612938565b6004602052600090815260409020546001600160a01b031681565b6040516001600160a01b039091168152602001610214565b6102086103a5366004612977565b60036020526000908152604090205460ff1681565b6001546102089060ff1681565b60095461037f906001600160a01b031681565b6102306103e8366004612977565b61153d565b60075461037f906001600160a01b031681565b61023061040e366004612977565b6115c7565b610230610421366004612977565b6116d9565b6102a47fdf8b4c520ffe197c5343c6f5aec59570151ef9a492f2c624fd45ddde6135ec4281565b61023061045b366004612b86565b61183b565b60055461037f906001600160a01b031681565b610208610481366004612b56565b6000918252602082815260408084206001600160a01b0393909316845291905290205460ff1690565b6102a46104b8366004612b0b565b612151565b6102a4600081565b60065461037f906001600160a01b031681565b61037f6104e6366004612a5c565b6002602052600090815260409020546001600160a01b031681565b61023061050f366004612b56565b6121b9565b60085461037f906001600160a01b031681565b610208610535366004612c32565b6121de565b60006001600160e01b03198216637965db0b60e01b148061056b57506301ffc9a760e01b6001600160e01b03198316145b92915050565b61057a33610f13565b6105d65760405162461bcd60e51b815260206004820152602260248201527f41636365737369626c653a2043616c6c6572206973206e6f7420616e2061646d60448201526134b760f11b60648201526084015b60405180910390fd5b806001600160a01b0381166106125760405162461bcd60e51b81526020600482015260026024820152612d1960f11b60448201526064016105cd565b6009546001600160a01b038084169116036106585760405162461bcd60e51b81526004016105cd9060208082526004908201526373616d6560e01b604082015260600190565b506009805473ffffffffffffffffffffffffffffffffffffffff19166001600160a01b0392909216919091179055565b6000861580159061069e575063ffffffff841615155b6106cf5760405162461bcd60e51b81526020600482015260026024820152615a3160f01b60448201526064016105cd565b6106de888887898888886121de565b61072a5760405162461bcd60e51b815260206004820152601860248201527f6661696c2076616c6964617465486173684d657373616765000000000000000060448201526064016105cd565b6000828152600a60205260409020805460ff166107c95760035b815460ff191660ff9190911617815560055461076a906001600160a01b03168a8a61237b565b8054604080518581526001600160a01b038c166020820181905281830152606081018b905260ff9092166080830152517f19c6577342d24d2798f29ce119c454f6de124fedaef6f05e15de3999eac43c829181900360a00190a1610df1565b805460ff16600019016107dd576004610744565b805460ff1660011901610da95760008160010180546107fb90612c7f565b9050118015610819575080600201805461081490612c7f565b151590505b15610d61576040516331a043c560e11b815260009073__$1d82f85943f8f15120c320215629c38f60$__90636340878a9061085b906002860190600401612cb9565b600060405180830381865af4158015610878573d6000803e3d6000fd5b505050506040513d6000823e601f3d908101601f191682016040526108a09190810190612db4565b80519091506000808c8c825b85811015610c4b5760008782815181106108c8576108c8612eb1565b6020026020010151905060006127108f61ffff1683602001516108eb9190612edd565b6108f59190612ef4565b82602001516109049190612f16565b905060008183602001516109189190612f16565b905060008360400151610a3c576020840151610934908a612f29565b84516001600160a01b03166000908152600b60209081526040808320606089015163ffffffff16845290915281208054929b508592909190610977908490612f16565b92505081905550600860009054906101000a90046001600160a01b03166001600160a01b0316637138c7928f86606001518760000151866040518563ffffffff1660e01b81526004016109f2949392919093845263ffffffff9290921660208401526001600160a01b03166040830152606082015260800190565b6020604051808303816000875af1158015610a11573d6000803e3d6000fd5b505050506040513d601f19601f82011682018060405250810190610a359190612f3c565b9050610b4f565b6020840151610a4b9089612f29565b84516001600160a01b03166000908152600c60209081526040808320606089015163ffffffff16845290915281208054929a508592909190610a8e908490612f16565b92505081905550600960009054906101000a90046001600160a01b03166001600160a01b0316637138c7928f86606001518760000151866040518563ffffffff1660e01b8152600401610b09949392919093845263ffffffff9290921660208401526001600160a01b03166040830152606082015260800190565b6020604051808303816000875af1158015610b28573d6000803e3d6000fd5b505050506040513d601f19601f82011682018060405250810190610b4c9190612f3c565b90505b8351610b5b908f612496565b80610ba85760405162461bcd60e51b815260206004820152600c60248201527f6661696c2066775374616b65000000000000000000000000000000000000000060448201526064016105cd565b7f1c30258b666f76dc2a85ce035521826ae594487234ab6e46f28bf6be74181ceb8e856000015189868689604001518a60600151604051610c2c97969594939291909687526001600160a01b0395861660208801529390941660408601526060850191909152608084015290151560a083015263ffffffff1660c082015260e00190565b60405180910390a1505050508080610c4390612f59565b9150506108ac565b50865460ff191660051787558315610c7a57600854600554610c7a916001600160a01b0391821691168661237b565b8215610c9d57600954600554610c9d916001600160a01b0391821691168561237b565b80610ca88486612f29565b1015610d5657610cd982610cbc8587612f29565b610cc69084612f16565b6005546001600160a01b0316919061237b565b7f1c30258b666f76dc2a85ce035521826ae594487234ab6e46f28bf6be74181ceb898380610d078789612f29565b610d119086612f16565b604080519485526001600160a01b0393841660208601529190921690830152606082015260006080820181905260a0820181905260c082015260e00160405180910390a15b505050505050610df1565b60405162461bcd60e51b815260206004820152600d60248201527f57524f4e475f4d4553534147450000000000000000000000000000000000000060448201526064016105cd565b60405162461bcd60e51b815260206004820152601160248201527f414c52454144595f50524f43455353454400000000000000000000000000000060448201526064016105cd565b5460ff1698975050505050505050565b6001600160a01b0382166000908152600d6020526040812054815b81811015610e7e576001600160a01b0385166000908152600d60205260409020805485919083908110610e5157610e51612eb1565b906000526020600020015403610e6c5760019250505061056b565b80610e7681612f59565b915050610e1c565b505092915050565b610e8f33610f13565b610ee65760405162461bcd60e51b815260206004820152602260248201527f41636365737369626c653a2043616c6c6572206973206e6f7420616e2061646d60448201526134b760f11b60648201526084016105cd565b610f107fdf8b4c520ffe197c5343c6f5aec59570151ef9a492f2c624fd45ddde6135ec42826114b1565b50565b6001600160a01b03811660009081527f5cbfc8ee58ca47855df7bcf648dd304ddb6b932f9b87878bdf6318d7ec7ee5b7602052604081205460ff1661056b565b600a602052600090815260409020805460018201805460ff9092169291610f7990612c7f565b80601f0160208091040260200160405190810160405280929190818152602001828054610fa590612c7f565b8015610ff25780601f10610fc757610100808354040283529160200191610ff2565b820191906000526020600020905b815481529060010190602001808311610fd557829003601f168201915b50505050509080600201805461100790612c7f565b80601f016020809104026020016040519081016040528092919081815260200182805461103390612c7f565b80156110805780601f1061105557610100808354040283529160200191611080565b820191906000526020600020905b81548152906001019060200180831161106357829003601f168201915b5050505050905083565b6000831561117e5760095460405163253226cb60e21b815263ffffffff851660048201526001600160a01b03848116602483015260009216906394c89b2c90604401602060405180830381865afa1580156110e9573d6000803e3d6000fd5b505050506040513d601f19601f8201168201806040525081019061110d9190612f72565b6001600160a01b0384166000908152600c6020908152604080832063ffffffff89168452909152902054909150811115611178576001600160a01b0383166000908152600c6020908152604080832063ffffffff881684529091529020546111759082612f16565b91505b50611266565b60085460405163253226cb60e21b815263ffffffff851660048201526001600160a01b03848116602483015260009216906394c89b2c90604401602060405180830381865afa1580156111d5573d6000803e3d6000fd5b505050506040513d601f19601f820116820180604052508101906111f99190612f72565b6001600160a01b0384166000908152600b6020908152604080832063ffffffff89168452909152902054909150811115611264576001600160a01b0383166000908152600b6020908152604080832063ffffffff881684529091529020546112619082612f16565b91505b505b9392505050565b600082815260208190526040902060010154611288816125e3565b61129283836125ed565b505050565b6112a6878786888787876121de565b6112f25760405162461bcd60e51b815260206004820152601860248201527f6661696c2076616c6964617465486173684d657373616765000000000000000060448201526064016105cd565b8463ffffffff1642106113375760405162461bcd60e51b815260206004820152600d60248201526c7061737420646561646c696e6560981b60448201526064016105cd565b6000818152600a60205260409020805460ff161561138b5760405162461bcd60e51b8152602060048201526011602482015270185b1c9958591e481c1c9bd8d95cdcd959607a1b60448201526064016105cd565b6001600160a01b03881633146113e35760405162461bcd60e51b815260206004820152601860248201527f63616c6c6572206973206e6f7420726571756573746f722e000000000000000060448201526064016105cd565b805460ff19166001178155604051606089901b6bffffffffffffffffffffffff191660208201526034810188905260e087811b6001600160e01b0319908116605484015260f088901b6001600160f01b03191660588401529086901b16605a820152605e8101849052607e0160405160208183030381529060405281600101908161146e9190612fd9565b50604080518381523360208201527ffd8c3de20bde66d66a4502cdaa697d4dabbe703d3e14ab23e40b68c1a03a6810910160405180910390a15050505050505050565b6001600160a01b038116331461152f5760405162461bcd60e51b815260206004820152602f60248201527f416363657373436f6e74726f6c3a2063616e206f6e6c792072656e6f756e636560448201527f20726f6c657320666f722073656c66000000000000000000000000000000000060648201526084016105cd565b611539828261268b565b5050565b61154633610f13565b61159d5760405162461bcd60e51b815260206004820152602260248201527f41636365737369626c653a2043616c6c6572206973206e6f7420616e2061646d60448201526134b760f11b60648201526084016105cd565b610f107fdf8b4c520ffe197c5343c6f5aec59570151ef9a492f2c624fd45ddde6135ec428261126d565b6115d033610f13565b6116275760405162461bcd60e51b815260206004820152602260248201527f41636365737369626c653a2043616c6c6572206973206e6f7420616e2061646d60448201526134b760f11b60648201526084016105cd565b806001600160a01b0381166116635760405162461bcd60e51b81526020600482015260026024820152612d1960f11b60448201526064016105cd565b6008546001600160a01b038084169116036116a95760405162461bcd60e51b81526004016105cd9060208082526004908201526373616d6560e01b604082015260600190565b506008805473ffffffffffffffffffffffffffffffffffffffff19166001600160a01b0392909216919091179055565b6116e233610f13565b6117395760405162461bcd60e51b815260206004820152602260248201527f41636365737369626c653a2043616c6c6572206973206e6f7420616e2061646d60448201526134b760f11b60648201526084016105cd565b6001600160a01b03811661178f5760405162461bcd60e51b815260206004820152601860248201527f41636365737369626c653a207a65726f2061646472657373000000000000000060448201526064016105cd565b6001600160a01b03811633036117e75760405162461bcd60e51b815260206004820152601660248201527f41636365737369626c653a2073616d652061646d696e0000000000000000000060448201526064016105cd565b6118117fdf8b4c520ffe197c5343c6f5aec59570151ef9a492f2c624fd45ddde6135ec428261126d565b610f107fdf8b4c520ffe197c5343c6f5aec59570151ef9a492f2c624fd45ddde6135ec42336114b1565b87806000036118715760405162461bcd60e51b81526020600482015260026024820152615a3160f01b60448201526064016105cd565b6118808b8b878b8888886121de565b6118cc5760405162461bcd60e51b815260206004820152601860248201527f6661696c2076616c6964617465486173684d657373616765000000000000000060448201526064016105cd565b8763ffffffff1642106119115760405162461bcd60e51b815260206004820152600d60248201526c7061737420646561646c696e6560981b60448201526064016105cd565b8661196a578563ffffffff168463ffffffff16146119655760405162461bcd60e51b815260206004820152601160248201527034ba1034b9903737ba1039b0b6b290261960791b60448201526064016105cd565b611a34565b6009546040516313e0634360e21b815263ffffffff881660048201526000916001600160a01b031690634f818d0c90602401606060405180830381865afa1580156119b9573d6000803e3d6000fd5b505050506040513d601f19601f820116820180604052508101906119dd9190613099565b90508463ffffffff16816020015163ffffffff1614611a325760405162461bcd60e51b815260206004820152601160248201527034ba1034b9903737ba1039b0b6b290261960791b60448201526064016105cd565b505b6000828152600a60205260409020336001600160a01b038d1603611ac05760405162461bcd60e51b815260206004820152602e60248201527f5468652072657175657374657220616e642070726f76696465722063616e6e6f60448201527f74206265207468652073616d652e00000000000000000000000000000000000060648201526084016105cd565b6001810180548d91600091611ad490612c7f565b9050600003611bb257825460ff1615611b235760405162461bcd60e51b8152602060048201526011602482015270185b1c9958591e481c1c9bd8d95cdcd959607a1b60448201526064016105cd565b6040516bffffffffffffffffffffffff19606084901b166020820152603481018e90526001600160e01b031960e08d811b821660548401526001600160f01b031960f08c901b16605884015289901b16605a820152605e8101879052607e01604051602081830303815290604052836001019081611ba19190612fd9565b50825460ff19166002178355611cd1565b825460ff16600214611bfa5760405162461bcd60e51b8152602060048201526011602482015270185b1c9958591e481c1c9bd8d95cdcd959607a1b60448201526064016105cd565b6040516348cbe2af60e01b815273__$1d82f85943f8f15120c320215629c38f60$__906348cbe2af90611c34906002870190600401612cb9565b602060405180830381865af4158015611c51573d6000803e3d6000fd5b505050506040513d601f19601f82011682018060405250810190611c759190612f72565b611c7f908e612f16565b905060008111611cd15760405162461bcd60e51b815260206004820152600f60248201527f7a65726f206c656674416d6f756e74000000000000000000000000000000000060448201526064016105cd565b8b6000829003611cdf578d91505b80821015611d2f5760405162461bcd60e51b815260206004820152601a60248201527f6c656674416d6f756e7420697320696e73756666696369656e7400000000000060448201526064016105cd565b8a8a6000612710611d4461ffff8e1686612edd565b611d4e9190612ef4565b90506000611d5c8286612f16565b9050611d6984843361108a565b811115611db85760405162461bcd60e51b815260206004820152601a60248201527f6c697175696469747920697320696e73756666696369656e742e00000000000060448201526064016105cd565b8315611ed5576009546040516385b9e48560e01b8152600481018c905263ffffffff851660248201523360448201526001600160a01b03898116606483015260848201849052909116906385b9e4859060a4016020604051808303816000875af1158015611e2a573d6000803e3d6000fd5b505050506040513d601f19601f82011682018060405250810190611e4e9190612f3c565b611e9a5760405162461bcd60e51b815260206004820152601760248201527f6661696c2066617374576974686472617743616c696d2000000000000000000060448201526064016105cd565b336000908152600c6020908152604080832063ffffffff8716845290915281208054839290611eca908490612f29565b90915550611fe79050565b6008546040516385b9e48560e01b8152600481018c905263ffffffff851660248201523360448201526001600160a01b03898116606483015260848201849052909116906385b9e4859060a4016020604051808303816000875af1158015611f41573d6000803e3d6000fd5b505050506040513d601f19601f82011682018060405250810190611f659190612f3c565b611fb15760405162461bcd60e51b815260206004820152601760248201527f6661696c2066617374576974686472617743616c696d2000000000000000000060448201526064016105cd565b336000908152600b6020908152604080832063ffffffff8716845290915281208054839290611fe1908490612f29565b90915550505b604080516080810182523381526020810187815286151582840190815263ffffffff8781166060850190815294516369aed7b760e11b815293516001600160a01b031660048501529151602484015251151560448301529151909116606482015273__$1d82f85943f8f15120c320215629c38f60$__9063d35daf6e90608401600060405180830381865af4158015612084573d6000803e3d6000fd5b505050506040513d6000823e601f3d908101601f191682016040526120ac919081019061310b565b60028901906120bb9082612fd9565b50336000818152600d602090815260408083208054600181018255908452928290209092018d905581518d815290810192909252810182905260608101839052841515608082015263ffffffff841660a08201527f6f74cd4afbbc228cc261f91b7441a9c47fea6305241baadd9c0dbd81c3eff2f69060c00160405180910390a150505050505050505050505050505050505050565b6000831561218957506001600160a01b0381166000908152600c6020908152604080832063ffffffff86168452909152902054611266565b506001600160a01b0381166000908152600b6020908152604080832063ffffffff86168452909152902054611266565b6000828152602081905260409020600101546121d4816125e3565b611292838361268b565b600854604051638c6f1b3960e01b815263ffffffff8516600482015260009182916001600160a01b0390911690638c6f1b3990602401608060405180830381865afa158015612231573d6000803e3d6000fd5b505050506040513d601f19601f82011682018060405250810190612255919061319f565b60055460608201516040516001600160f01b031960f08c901b1660208201526001600160e01b031960e08b811b821660228401528a901b16602682015292935060009263a9f9e67560e01b926001600160a01b031691908d9030908e90602a0160408051601f19818403018152908290526122d7969594939291602401613206565b604051602081830303815290604052906001600160e01b0319166020820180516001600160e01b0383818316178352505050509050600063cbd4ece960e01b8360200151846040015184896040516024016123359493929190613254565b60408051601f198184030181529190526020810180516001600160e01b03166001600160e01b031990931692909217825251902085149350505050979650505050505050565b604080516001600160a01b038481166024830152604480830185905283518084039091018152606490920183526020820180516001600160e01b031663a9059cbb60e01b17905291516000928392908716916123d79190613291565b6000604051808303816000865af19150503d8060008114612414576040519150601f19603f3d011682016040523d82523d6000602084013e612419565b606091505b50915091508180156124435750805115806124435750808060200190518101906124439190612f3c565b61248f5760405162461bcd60e51b815260206004820152600f60248201527f5452414e534645525f4641494c4544000000000000000000000000000000000060448201526064016105cd565b5050505050565b6001600160a01b0382166000908152600d6020526040812054905b818110156125dd576001600160a01b0384166000908152600d602052604090208054849190839081106124e6576124e6612eb1565b9060005260206000200154036125cb57612501600183612f16565b811015612589576001600160a01b0384166000908152600d6020526040902061252b600184612f16565b8154811061253b5761253b612eb1565b9060005260206000200154600d6000866001600160a01b03166001600160a01b03168152602001908152602001600020828154811061257c5761257c612eb1565b6000918252602090912001555b6001600160a01b0384166000908152600d602052604090208054806125b0576125b06132ad565b600190038181906000526020600020016000905590556125dd565b806125d581612f59565b9150506124b1565b50505050565b610f10813361270a565b6000828152602081815260408083206001600160a01b038516845290915290205460ff16611539576000828152602081815260408083206001600160a01b03851684529091529020805460ff191660011790556126473390565b6001600160a01b0316816001600160a01b0316837f2f8788117e7eff1d82e926ec794901d17c78024a50270940304540a733656f0d60405160405180910390a45050565b6000828152602081815260408083206001600160a01b038516845290915290205460ff1615611539576000828152602081815260408083206001600160a01b0385168085529252808320805460ff1916905551339285917ff6391f5c32d9c69d2a47ea670b442974b53935d1edc7fd64eb21e047a839171b9190a45050565b6000828152602081815260408083206001600160a01b038516845290915290205460ff166115395761273b8161277d565b61274683602061278f565b6040516020016127579291906132c3565b60408051601f198184030181529082905262461bcd60e51b82526105cd91600401613344565b606061056b6001600160a01b03831660145b6060600061279e836002612edd565b6127a9906002612f29565b67ffffffffffffffff8111156127c1576127c1612d44565b6040519080825280601f01601f1916602001820160405280156127eb576020820181803683370190505b509050600360fc1b8160008151811061280657612806612eb1565b60200101906001600160f81b031916908160001a905350600f60fb1b8160018151811061283557612835612eb1565b60200101906001600160f81b031916908160001a9053506000612859846002612edd565b612864906001612f29565b90505b60018111156128e9577f303132333435363738396162636465660000000000000000000000000000000085600f16601081106128a5576128a5612eb1565b1a60f81b8282815181106128bb576128bb612eb1565b60200101906001600160f81b031916908160001a90535060049490941c936128e281613357565b9050612867565b5083156112665760405162461bcd60e51b815260206004820181905260248201527f537472696e67733a20686578206c656e67746820696e73756666696369656e7460448201526064016105cd565b60006020828403121561294a57600080fd5b81356001600160e01b03198116811461126657600080fd5b6001600160a01b0381168114610f1057600080fd5b60006020828403121561298957600080fd5b813561126681612962565b63ffffffff81168114610f1057600080fd5b61ffff81168114610f1057600080fd5b600080600080600080600060e0888a0312156129d157600080fd5b87356129dc81612962565b96506020880135955060408801356129f381612994565b94506060880135612a03816129a6565b93506080880135612a1381612994565b9699959850939692959460a0840135945060c09093013592915050565b60008060408385031215612a4357600080fd5b8235612a4e81612962565b946020939093013593505050565b600060208284031215612a6e57600080fd5b5035919050565b60005b83811015612a90578181015183820152602001612a78565b50506000910152565b60008151808452612ab1816020860160208601612a75565b601f01601f19169290920160200192915050565b60ff84168152606060208201526000612ae16060830185612a99565b8281036040840152612af38185612a99565b9695505050505050565b8015158114610f1057600080fd5b600080600060608486031215612b2057600080fd5b8335612b2b81612afd565b92506020840135612b3b81612994565b91506040840135612b4b81612962565b809150509250925092565b60008060408385031215612b6957600080fd5b823591506020830135612b7b81612962565b809150509250929050565b6000806000806000806000806000806101408b8d031215612ba657600080fd5b8a35612bb181612962565b995060208b0135985060408b0135975060608b0135612bcf81612994565b965060808b0135612bdf81612afd565b955060a08b0135612bef81612994565b945060c08b0135612bff816129a6565b935060e08b0135612c0f81612994565b809350506101008b013591506101208b013590509295989b9194979a5092959850565b600080600080600080600060e0888a031215612c4d57600080fd5b8735612c5881612962565b9650602088013595506040880135612c6f816129a6565b94506060880135612a0381612994565b600181811c90821680612c9357607f821691505b602082108103612cb357634e487b7160e01b600052602260045260246000fd5b50919050565b6000602080835260008454612ccd81612c7f565b80848701526040600180841660008114612cee5760018114612d0857612d36565b60ff1985168984015283151560051b890183019550612d36565b896000528660002060005b85811015612d2e5781548b8201860152908301908801612d13565b8a0184019650505b509398975050505050505050565b634e487b7160e01b600052604160045260246000fd5b6040516080810167ffffffffffffffff81118282101715612d7d57612d7d612d44565b60405290565b604051601f8201601f1916810167ffffffffffffffff81118282101715612dac57612dac612d44565b604052919050565b60006020808385031215612dc757600080fd5b825167ffffffffffffffff80821115612ddf57600080fd5b818501915085601f830112612df357600080fd5b815181811115612e0557612e05612d44565b612e13848260051b01612d83565b818152848101925060079190911b830184019087821115612e3357600080fd5b928401925b81841015612ea65760808489031215612e515760008081fd5b612e59612d5a565b8451612e6481612962565b81528486015186820152604080860151612e7d81612afd565b90820152606085810151612e9081612994565b9082015283526080939093019291840191612e38565b979650505050505050565b634e487b7160e01b600052603260045260246000fd5b634e487b7160e01b600052601160045260246000fd5b808202811582820484141761056b5761056b612ec7565b600082612f1157634e487b7160e01b600052601260045260246000fd5b500490565b8181038181111561056b5761056b612ec7565b8082018082111561056b5761056b612ec7565b600060208284031215612f4e57600080fd5b815161126681612afd565b600060018201612f6b57612f6b612ec7565b5060010190565b600060208284031215612f8457600080fd5b5051919050565b601f82111561129257600081815260208120601f850160051c81016020861015612fb25750805b601f850160051c820191505b81811015612fd157828155600101612fbe565b505050505050565b815167ffffffffffffffff811115612ff357612ff3612d44565b613007816130018454612c7f565b84612f8b565b602080601f83116001811461303c57600084156130245750858301515b600019600386901b1c1916600185901b178555612fd1565b600085815260208120601f198616915b8281101561306b5788860151825594840194600190910190840161304c565b50858210156130895787850151600019600388901b60f8161c191681555b5050505050600190811b01905550565b6000606082840312156130ab57600080fd5b6040516060810181811067ffffffffffffffff821117156130ce576130ce612d44565b60405282516130dc81612962565b815260208301516130ec81612994565b602082015260408301516130ff816129a6565b60408201529392505050565b60006020828403121561311d57600080fd5b815167ffffffffffffffff8082111561313557600080fd5b818401915084601f83011261314957600080fd5b81518181111561315b5761315b612d44565b61316e601f8201601f1916602001612d83565b915080825285602082850101111561318557600080fd5b613196816020840160208601612a75565b50949350505050565b6000608082840312156131b157600080fd5b6131b9612d5a565b82516131c481612962565b815260208301516131d481612962565b602082015260408301516131e781612962565b604082015260608301516131fa81612962565b60608201529392505050565b60006001600160a01b0380891683528088166020840152808716604084015280861660608401525083608083015260c060a083015261324860c0830184612a99565b98975050505050505050565b60006001600160a01b038087168352808616602084015250608060408301526132806080830185612a99565b905082606083015295945050505050565b600082516132a3818460208701612a75565b9190910192915050565b634e487b7160e01b600052603160045260246000fd5b7f416363657373436f6e74726f6c3a206163636f756e74200000000000000000008152600083516132fb816017850160208801612a75565b7f206973206d697373696e6720726f6c65200000000000000000000000000000006017918401918201528351613338816028840160208801612a75565b01602801949350505050565b6020815260006112666020830184612a99565b60008161336657613366612ec7565b50600019019056fea164736f6c6343000812000a",
  "linkReferences": {
    "contracts/libraries/LibFastWithdraw.sol": {
      "LibFastWithdraw": [
        {
          "length": 20,
          "start": 2141
        },
        {
          "length": 20,
          "start": 7222
        },
        {
          "length": 20,
          "start": 8311
        }
      ]
    }
  },
  "deployedLinkReferences": {
    "contracts/libraries/LibFastWithdraw.sol": {
      "LibFastWithdraw": [
        {
          "length": 20,
          "start": 2096
        },
        {
          "length": 20,
          "start": 7177
        },
        {
          "length": 20,
          "start": 8266
        }
      ]
    }
  }
}