{
  "_format": "hh-sol-artifact-1",
  "contractName": "FwReceipt",
  "sourceName": "contracts/FwReceipt.sol",
  "abi": [
    {
      "inputs": [],
      "stateMutability": "nonpayable",
      "type": "constructor"
    },
    {
      "anonymous": false,
      "inputs": [
        {
          "indexed": false,
          "internalType": "bytes32",
          "name": "key",
          "type": "bytes32"
        },
        {
          "indexed": false,
          "internalType": "address",
          "name": "caller",
          "type": "address"
        }
      ],
      "name": "CanceledRequest",
      "type": "event"
    },
    {
      "anonymous": false,
      "inputs": [
        {
          "indexed": false,
          "internalType": "bytes",
          "name": "message",
          "type": "bytes"
        },
        {
          "indexed": false,
          "internalType": "address",
          "name": "from",
          "type": "address"
        },
        {
          "indexed": false,
          "internalType": "address",
          "name": "to",
          "type": "address"
        },
        {
          "indexed": false,
          "internalType": "uint256",
          "name": "providedAmount",
          "type": "uint256"
        },
        {
          "indexed": false,
          "internalType": "uint256",
          "name": "feeAmount",
          "type": "uint256"
        },
        {
          "indexed": false,
          "internalType": "uint8",
          "name": "status",
          "type": "uint8"
        }
      ],
      "name": "FailFinishFastWithdrawal",
      "type": "event"
    },
    {
      "anonymous": false,
      "inputs": [
        {
          "indexed": false,
          "internalType": "bytes",
          "name": "message",
          "type": "bytes"
        },
        {
          "indexed": false,
          "internalType": "address",
          "name": "from",
          "type": "address"
        },
        {
          "indexed": false,
          "internalType": "address",
          "name": "to",
          "type": "address"
        },
        {
          "indexed": false,
          "internalType": "uint256",
          "name": "providedAmount",
          "type": "uint256"
        },
        {
          "indexed": false,
          "internalType": "uint256",
          "name": "feeAmount",
          "type": "uint256"
        },
        {
          "indexed": false,
          "internalType": "uint8",
          "name": "status",
          "type": "uint8"
        }
      ],
      "name": "FinalizedFastWithdrawal",
      "type": "event"
    },
    {
      "anonymous": false,
      "inputs": [
        {
          "indexed": false,
          "internalType": "bytes",
          "name": "message",
          "type": "bytes"
        },
        {
          "indexed": false,
          "internalType": "uint256",
          "name": "amount",
          "type": "uint256"
        },
        {
          "indexed": false,
          "internalType": "uint8",
          "name": "status",
          "type": "uint8"
        }
      ],
      "name": "InvalidMessageFastWithdrawal",
      "type": "event"
    },
    {
      "anonymous": false,
      "inputs": [
        {
          "indexed": false,
          "internalType": "bytes",
          "name": "message",
          "type": "bytes"
        },
        {
          "indexed": false,
          "internalType": "address",
          "name": "from",
          "type": "address"
        },
        {
          "indexed": false,
          "internalType": "address",
          "name": "to",
          "type": "address"
        },
        {
          "indexed": false,
          "internalType": "uint256",
          "name": "amount",
          "type": "uint256"
        },
        {
          "indexed": false,
          "internalType": "uint8",
          "name": "status",
          "type": "uint8"
        }
      ],
      "name": "NormalWithdrawal",
      "type": "event"
    },
    {
      "anonymous": false,
      "inputs": [
        {
          "indexed": false,
          "internalType": "bytes32",
          "name": "key",
          "type": "bytes32"
        },
        {
          "indexed": false,
          "internalType": "bytes",
          "name": "message",
          "type": "bytes"
        },
        {
          "indexed": false,
          "internalType": "uint256",
          "name": "provideAmount",
          "type": "uint256"
        },
        {
          "indexed": false,
          "internalType": "uint256",
          "name": "feeAmount",
          "type": "uint256"
        }
      ],
      "name": "ProvidedLiquidity",
      "type": "event"
    },
    {
      "anonymous": false,
      "inputs": [
        {
          "indexed": true,
          "internalType": "bytes32",
          "name": "role",
          "type": "bytes32"
        },
        {
          "indexed": true,
          "internalType": "bytes32",
          "name": "previousAdminRole",
          "type": "bytes32"
        },
        {
          "indexed": true,
          "internalType": "bytes32",
          "name": "newAdminRole",
          "type": "bytes32"
        }
      ],
      "name": "RoleAdminChanged",
      "type": "event"
    },
    {
      "anonymous": false,
      "inputs": [
        {
          "indexed": true,
          "internalType": "bytes32",
          "name": "role",
          "type": "bytes32"
        },
        {
          "indexed": true,
          "internalType": "address",
          "name": "account",
          "type": "address"
        },
        {
          "indexed": true,
          "internalType": "address",
          "name": "sender",
          "type": "address"
        }
      ],
      "name": "RoleGranted",
      "type": "event"
    },
    {
      "anonymous": false,
      "inputs": [
        {
          "indexed": true,
          "internalType": "bytes32",
          "name": "role",
          "type": "bytes32"
        },
        {
          "indexed": true,
          "internalType": "address",
          "name": "account",
          "type": "address"
        },
        {
          "indexed": true,
          "internalType": "address",
          "name": "sender",
          "type": "address"
        }
      ],
      "name": "RoleRevoked",
      "type": "event"
    },
    {
      "inputs": [],
      "name": "ADMIN_ROLE",
      "outputs": [
        {
          "internalType": "bytes32",
          "name": "",
          "type": "bytes32"
        }
      ],
      "stateMutability": "view",
      "type": "function"
    },
    {
      "inputs": [],
      "name": "DEFAULT_ADMIN_ROLE",
      "outputs": [
        {
          "internalType": "bytes32",
          "name": "",
          "type": "bytes32"
        }
      ],
      "stateMutability": "view",
      "type": "function"
    },
    {
      "inputs": [],
      "name": "POLICY_ROLE",
      "outputs": [
        {
          "internalType": "bytes32",
          "name": "",
          "type": "bytes32"
        }
      ],
      "stateMutability": "view",
      "type": "function"
    },
    {
      "inputs": [
        {
          "internalType": "address",
          "name": "account",
          "type": "address"
        }
      ],
      "name": "addAdmin",
      "outputs": [],
      "stateMutability": "nonpayable",
      "type": "function"
    },
    {
      "inputs": [
        {
          "internalType": "address",
          "name": "",
          "type": "address"
        }
      ],
      "name": "aliveImplementation",
      "outputs": [
        {
          "internalType": "bool",
          "name": "",
          "type": "bool"
        }
      ],
      "stateMutability": "view",
      "type": "function"
    },
    {
      "inputs": [
        {
          "internalType": "uint32",
          "name": "layerIndex",
          "type": "uint32"
        },
        {
          "internalType": "address",
          "name": "account",
          "type": "address"
        }
      ],
      "name": "availableLiquidity",
      "outputs": [
        {
          "internalType": "uint256",
          "name": "amount",
          "type": "uint256"
        }
      ],
      "stateMutability": "view",
      "type": "function"
    },
    {
      "inputs": [
        {
          "internalType": "bytes",
          "name": "_l2Messages",
          "type": "bytes"
        }
      ],
      "name": "cancelRequest",
      "outputs": [],
      "stateMutability": "nonpayable",
      "type": "function"
    },
    {
      "inputs": [
        {
          "internalType": "address",
          "name": "account",
          "type": "address"
        },
        {
          "internalType": "uint32",
          "name": "layerIndex",
          "type": "uint32"
        }
      ],
      "name": "debtForFastWithdraw",
      "outputs": [
        {
          "internalType": "uint256",
          "name": "",
          "type": "uint256"
        }
      ],
      "stateMutability": "view",
      "type": "function"
    },
    {
      "inputs": [
        {
          "internalType": "bytes",
          "name": "_l2Messages",
          "type": "bytes"
        },
        {
          "internalType": "uint256",
          "name": "amount",
          "type": "uint256"
        }
      ],
      "name": "finalizeFastWithdraw",
      "outputs": [
        {
          "internalType": "uint8",
          "name": "status_",
          "type": "uint8"
        }
      ],
      "stateMutability": "nonpayable",
      "type": "function"
    },
    {
      "inputs": [
        {
          "internalType": "bytes32",
          "name": "role",
          "type": "bytes32"
        }
      ],
      "name": "getRoleAdmin",
      "outputs": [
        {
          "internalType": "bytes32",
          "name": "",
          "type": "bytes32"
        }
      ],
      "stateMutability": "view",
      "type": "function"
    },
    {
      "inputs": [
        {
          "internalType": "bytes32",
          "name": "role",
          "type": "bytes32"
        },
        {
          "internalType": "address",
          "name": "account",
          "type": "address"
        }
      ],
      "name": "grantRole",
      "outputs": [],
      "stateMutability": "nonpayable",
      "type": "function"
    },
    {
      "inputs": [
        {
          "internalType": "bytes32",
          "name": "role",
          "type": "bytes32"
        },
        {
          "internalType": "address",
          "name": "account",
          "type": "address"
        }
      ],
      "name": "hasRole",
      "outputs": [
        {
          "internalType": "bool",
          "name": "",
          "type": "bool"
        }
      ],
      "stateMutability": "view",
      "type": "function"
    },
    {
      "inputs": [
        {
          "internalType": "address",
          "name": "account",
          "type": "address"
        },
        {
          "internalType": "bytes32",
          "name": "txIndex",
          "type": "bytes32"
        }
      ],
      "name": "includedTxsOfProvider",
      "outputs": [
        {
          "internalType": "bool",
          "name": "included",
          "type": "bool"
        }
      ],
      "stateMutability": "view",
      "type": "function"
    },
    {
      "inputs": [
        {
          "internalType": "address",
          "name": "account",
          "type": "address"
        }
      ],
      "name": "isAdmin",
      "outputs": [
        {
          "internalType": "bool",
          "name": "",
          "type": "bool"
        }
      ],
      "stateMutability": "view",
      "type": "function"
    },
    {
      "inputs": [
        {
          "internalType": "bytes32",
          "name": "",
          "type": "bytes32"
        }
      ],
      "name": "messages",
      "outputs": [
        {
          "internalType": "uint8",
          "name": "status",
          "type": "uint8"
        },
        {
          "internalType": "address",
          "name": "provider",
          "type": "address"
        },
        {
          "internalType": "bytes",
          "name": "data",
          "type": "bytes"
        }
      ],
      "stateMutability": "view",
      "type": "function"
    },
    {
      "inputs": [],
      "name": "optimismSequencer",
      "outputs": [
        {
          "internalType": "address",
          "name": "",
          "type": "address"
        }
      ],
      "stateMutability": "view",
      "type": "function"
    },
    {
      "inputs": [],
      "name": "pauseProxy",
      "outputs": [
        {
          "internalType": "bool",
          "name": "",
          "type": "bool"
        }
      ],
      "stateMutability": "view",
      "type": "function"
    },
    {
      "inputs": [
        {
          "internalType": "bytes",
          "name": "_l2Messages",
          "type": "bytes"
        }
      ],
      "name": "provideLiquidity",
      "outputs": [],
      "stateMutability": "nonpayable",
      "type": "function"
    },
    {
      "inputs": [
        {
          "internalType": "uint256",
          "name": "",
          "type": "uint256"
        }
      ],
      "name": "proxyImplementation",
      "outputs": [
        {
          "internalType": "address",
          "name": "",
          "type": "address"
        }
      ],
      "stateMutability": "view",
      "type": "function"
    },
    {
      "inputs": [],
      "name": "receiptNo",
      "outputs": [
        {
          "internalType": "uint256",
          "name": "",
          "type": "uint256"
        }
      ],
      "stateMutability": "view",
      "type": "function"
    },
    {
      "inputs": [
        {
          "internalType": "address",
          "name": "account",
          "type": "address"
        }
      ],
      "name": "removeAdmin",
      "outputs": [],
      "stateMutability": "nonpayable",
      "type": "function"
    },
    {
      "inputs": [
        {
          "internalType": "bytes32",
          "name": "role",
          "type": "bytes32"
        },
        {
          "internalType": "address",
          "name": "account",
          "type": "address"
        }
      ],
      "name": "renounceRole",
      "outputs": [],
      "stateMutability": "nonpayable",
      "type": "function"
    },
    {
      "inputs": [
        {
          "internalType": "bytes32",
          "name": "role",
          "type": "bytes32"
        },
        {
          "internalType": "address",
          "name": "account",
          "type": "address"
        }
      ],
      "name": "revokeRole",
      "outputs": [],
      "stateMutability": "nonpayable",
      "type": "function"
    },
    {
      "inputs": [
        {
          "internalType": "bytes4",
          "name": "",
          "type": "bytes4"
        }
      ],
      "name": "selectorImplementation",
      "outputs": [
        {
          "internalType": "address",
          "name": "",
          "type": "address"
        }
      ],
      "stateMutability": "view",
      "type": "function"
    },
    {
      "inputs": [
        {
          "internalType": "address",
          "name": "_optimismSequencer",
          "type": "address"
        }
      ],
      "name": "setOptimismSequencer",
      "outputs": [],
      "stateMutability": "nonpayable",
      "type": "function"
    },
    {
      "inputs": [
        {
          "internalType": "bytes4",
          "name": "interfaceId",
          "type": "bytes4"
        }
      ],
      "name": "supportsInterface",
      "outputs": [
        {
          "internalType": "bool",
          "name": "",
          "type": "bool"
        }
      ],
      "stateMutability": "view",
      "type": "function"
    },
    {
      "inputs": [],
      "name": "ton",
      "outputs": [
        {
          "internalType": "address",
          "name": "",
          "type": "address"
        }
      ],
      "stateMutability": "view",
      "type": "function"
    },
    {
      "inputs": [
        {
          "internalType": "address",
          "name": "newAdmin",
          "type": "address"
        }
      ],
      "name": "transferAdmin",
      "outputs": [],
      "stateMutability": "nonpayable",
      "type": "function"
    }
  ],
  "bytecode": "0x608060405234801561001057600080fd5b506125bd806100206000396000f3fe608060405234801561001057600080fd5b50600436106101c45760003560e01c806356ef72c1116100f957806391d1485411610097578063bc5060d111610071578063bc5060d11461046c578063cc48b947146104aa578063d547741f146104bd578063da0dc135146104d057600080fd5b806391d1485414610404578063a217fddf1461043b578063b911135f1461044357600080fd5b806370480275116100d357806370480275146103a4578063749e0977146103b757806375829def146103ca57806375b238fc146103dd57600080fd5b806356ef72c11461037b5780635c475a2f1461038e57806363a8fd891461039757600080fd5b80632f2ff15d116101665780633fb23df0116101405780633fb23df0146102df578063509d74bd1461030457806350d2a27614610317578063550d01a31461035857600080fd5b80632f2ff15d146102a65780633262b1b5146102b957806336568abe146102cc57600080fd5b806322985246116101a25780632298524614610219578063248a9ca31461024e57806324d7806c146102715780632bbd59ca1461028457600080fd5b806301ffc9a7146101c957806307d072f3146101f15780631785f53c14610204575b600080fd5b6101dc6101d7366004611d30565b6104e3565b60405190151581526020015b60405180910390f35b6101dc6101ff366004611d6f565b61051a565b610217610212366004611d9b565b61059f565b005b6102407ffb5864e8ff833c3cb2d2d08505e82ff02a43554c74a35d4f5a64e8526127831181565b6040519081526020016101e8565b61024061025c366004611db8565b60009081526020819052604090206001015490565b6101dc61027f366004611d9b565b610631565b610297610292366004611db8565b610671565b6040516101e893929190611e21565b6102176102b4366004611e55565b61072a565b6102406102c7366004611e97565b610754565b6102176102da366004611e55565b610844565b6102f26102ed366004611f0c565b6108d0565b60405160ff90911681526020016101e8565b610217610312366004611fa6565b610df1565b610340610325366004611d30565b6004602052600090815260409020546001600160a01b031681565b6040516001600160a01b0390911681526020016101e8565b6101dc610366366004611d9b565b60036020526000908152604090205460ff1681565b610217610389366004611fa6565b611280565b61024060075481565b6001546101dc9060ff1681565b6102176103b2366004611d9b565b611434565b6102176103c5366004611d9b565b6114be565b6102176103d8366004611d9b565b6115d0565b6102407fdf8b4c520ffe197c5343c6f5aec59570151ef9a492f2c624fd45ddde6135ec4281565b6101dc610412366004611e55565b6000918252602082815260408084206001600160a01b0393909316845291905290205460ff1690565b610240600081565b610340610451366004611db8565b6002602052600090815260409020546001600160a01b031681565b61024061047a366004612018565b6001600160a01b038216600090815260096020908152604080832063ffffffff8516845290915290205492915050565b600554610340906001600160a01b031681565b6102176104cb366004611e55565b611732565b600654610340906001600160a01b031681565b60006001600160e01b03198216637965db0b60e01b148061051457506301ffc9a760e01b6001600160e01b03198316145b92915050565b6001600160a01b0382166000908152600a6020526040812054815b81811015610597576001600160a01b0385166000908152600a6020526040902080548591908390811061056a5761056a612046565b90600052602060002001540361058557600192505050610514565b8061058f81612072565b915050610535565b505092915050565b6105a833610631565b6106045760405162461bcd60e51b815260206004820152602260248201527f41636365737369626c653a2043616c6c6572206973206e6f7420616e2061646d60448201526134b760f11b60648201526084015b60405180910390fd5b61062e7fdf8b4c520ffe197c5343c6f5aec59570151ef9a492f2c624fd45ddde6135ec4282610844565b50565b6001600160a01b03811660009081527f5cbfc8ee58ca47855df7bcf648dd304ddb6b932f9b87878bdf6318d7ec7ee5b7602052604081205460ff16610514565b6008602052600090815260409020805460018201805460ff8316936101009093046001600160a01b03169291906106a79061208b565b80601f01602080910402602001604051908101604052809291908181526020018280546106d39061208b565b80156107205780601f106106f557610100808354040283529160200191610720565b820191906000526020600020905b81548152906001019060200180831161070357829003601f168201915b5050505050905083565b60008281526020819052604090206001015461074581611757565b61074f8383611761565b505050565b60065460405163253226cb60e21b815263ffffffff841660048201526001600160a01b03838116602483015260009283929116906394c89b2c90604401602060405180830381865afa1580156107ae573d6000803e3d6000fd5b505050506040513d601f19601f820116820180604052508101906107d291906120c5565b6001600160a01b038416600090815260096020908152604080832063ffffffff8916845290915290205490915081111561083d576001600160a01b038316600090815260096020908152604080832063ffffffff8816845290915290205461083a90826120de565b91505b5092915050565b6001600160a01b03811633146108c25760405162461bcd60e51b815260206004820152602f60248201527f416363657373436f6e74726f6c3a2063616e206f6e6c792072656e6f756e636560448201527f20726f6c657320666f722073656c66000000000000000000000000000000000060648201526084016105fb565b6108cc82826117ff565b5050565b815160208084019190912060008181526008909252604080832090516314d9186f60e21b8152839073__$1d82f85943f8f15120c320215629c38f60$__9063536461bc906109229089906004016120f1565b60a060405180830381865af415801561093f573d6000803e3d6000fd5b505050506040513d601f19601f820116820180604052508101906109639190612104565b9050600093503315801590610a01575060065460808201516040516315151b3d60e31b815263ffffffff90911660048201526001600160a01b039091169063a8a8d9e890602401602060405180830381865afa1580156109c7573d6000803e3d6000fd5b505050506040513d601f19601f820116820180604052508101906109eb919061219a565b6001600160a01b0316336001600160a01b031614155b15610a4b5760065b93507fa67ceab1ddbbae6617280dc78d734b3b846ae7cc99a3fb9ab132f8f1b391fc21868686604051610a3e939291906121b7565b60405180910390a1610de8565b84600003610a5a576007610a09565b80516001600160a01b0316610a70576008610a09565b815460ff16610ad85760035b508154815160055460ff9092169550610a9f916001600160a01b0316908761187e565b80516040517f1cceae6c8ce1b5b932353f71d50369d671cab6519948210b961eed75153649fa91610a3e9189919081908a908a906121e3565b815460ff1660001901610aec576004610a7c565b815460ff1660011901610da85781600101604051610b0a9190612226565b604051809103902083148015610b235750806020015185145b8015610b3d5750815461010090046001600160a01b031615155b15610da1576000612710826040015161ffff168360200151610b5f919061229c565b610b6991906122b3565b8260200151610b7891906120de565b6006546080840151855460208601519394506000936001600160a01b03938416936360254e33939261010090041690610bb29087906120de565b6040516001600160e01b031960e086901b16815263ffffffff9390931660048401526001600160a01b03909116602483015260448201526064016020604051808303816000875af1158015610c0b573d6000803e3d6000fd5b505050506040513d601f19601f82011682018060405250810190610c2f91906122d5565b90508015610d2f57835461010081046001600160a01b03166000908152600960209081526040808320608088015163ffffffff1684529091528120805460ff90931698508492909190610c839084906120de565b90915550508354610ca29061010090046001600160a01b0316866119ae565b600654600554610cbf916001600160a01b0391821691168961187e565b7f7433b108c88768db0c92794db2c4f4cb11913e33edf61645865d04bf318d43f2888560000160019054906101000a90046001600160a01b0316856000015185868860200151610d0f91906120de565b8b604051610d22969594939291906122f7565b60405180910390a1610d9a565b600a8454845160208601519298507fa51ead5c9690d13fd51e3a4bf30951d9fc1c54e067e46e97450238903cc16df8928b9261010090046001600160a01b031691908690610d7e9082906120de565b8b604051610d91969594939291906122f7565b60405180910390a15b5050610de8565b6009610a09565b600b93507fa67ceab1ddbbae6617280dc78d734b3b846ae7cc99a3fb9ab132f8f1b391fc21868686604051610ddf939291906121b7565b60405180910390a15b50505092915050565b60008282604051610e03929190612342565b6040805191829003909120600081815260086020529190912080549192509060ff16158015610e405750806001018054610e3c9061208b565b1590505b610e8c5760405162461bcd60e51b815260206004820152601060248201527f616c72656164792070726f76696465640000000000000000000000000000000060448201526064016105fb565b6040516314d9186f60e21b815260009073__$1d82f85943f8f15120c320215629c38f60$__9063536461bc90610ec8908890889060040161237b565b60a060405180830381865af4158015610ee5573d6000803e3d6000fd5b505050506040513d601f19601f82011682018060405250810190610f099190612104565b80519091506001600160a01b031615801590610f2f575080516001600160a01b03163314155b610f7b5760405162461bcd60e51b815260206004820152600f60248201527f77726f6e6720726571756573746f72000000000000000000000000000000000060448201526064016105fb565b806060015163ffffffff164210610fd45760405162461bcd60e51b815260206004820152600d60248201527f7061737420646561646c696e650000000000000000000000000000000000000060448201526064016105fb565b6000612710826040015161ffff168360200151610ff1919061229c565b610ffb91906122b3565b9050600081836020015161100f91906120de565b9050600081116110615760405162461bcd60e51b815260206004820152601260248201527f7a65726f20617070726f7665416d6f756e74000000000000000000000000000060448201526064016105fb565b61106f836080015133610754565b8111156110be5760405162461bcd60e51b815260206004820152601a60248201527f6c697175696469747920697320696e73756666696369656e742e00000000000060448201526064016105fb565b60065460808401518451604051633e1ab40b60e11b815263ffffffff90921660048301523360248301526001600160a01b0390811660448301526064820184905290911690637c356816906084016020604051808303816000875af115801561112b573d6000803e3d6000fd5b505050506040513d601f19601f8201168201806040525081019061114f91906122d5565b61119b5760405162461bcd60e51b815260206004820152601760248201527f6661696c2066617374576974686472617743616c696d2000000000000000000060448201526064016105fb565b835460ff19166002178455600184016111b58789836123e5565b50835474ffffffffffffffffffffffffffffffffffffffff0019163361010081029190911785556000908152600960209081526040808320608087015163ffffffff1684529091528120805483929061120f9084906124a5565b9091555050336000908152600a6020908152604080832080546001810182559084529190922001869055517f9097d9f5066d0d25ebca5e4884cf377071f0ec9715de54de978bc8b91ab3d8b39061126f9087908a908a90869088906124b8565b60405180910390a150505050505050565b60008282604051611292929190612342565b6040805191829003909120600081815260086020529190912080549192509060ff16156113015760405162461bcd60e51b815260206004820152601160248201527f616c72656164792070726f63657373656400000000000000000000000000000060448201526064016105fb565b6040516314d9186f60e21b815260009073__$1d82f85943f8f15120c320215629c38f60$__9063536461bc9061133d908890889060040161237b565b60a060405180830381865af415801561135a573d6000803e3d6000fd5b505050506040513d601f19601f8201168201806040525081019061137e9190612104565b80519091506001600160a01b031633146113da5760405162461bcd60e51b815260206004820152601860248201527f63616c6c6572206973206e6f7420726571756573746f722e000000000000000060448201526064016105fb565b815460ff19166001908117835582016113f48587836123e5565b50604080518481523360208201527ffd8c3de20bde66d66a4502cdaa697d4dabbe703d3e14ab23e40b68c1a03a6810910160405180910390a15050505050565b61143d33610631565b6114945760405162461bcd60e51b815260206004820152602260248201527f41636365737369626c653a2043616c6c6572206973206e6f7420616e2061646d60448201526134b760f11b60648201526084016105fb565b61062e7fdf8b4c520ffe197c5343c6f5aec59570151ef9a492f2c624fd45ddde6135ec428261072a565b6114c733610631565b61151e5760405162461bcd60e51b815260206004820152602260248201527f41636365737369626c653a2043616c6c6572206973206e6f7420616e2061646d60448201526134b760f11b60648201526084016105fb565b806001600160a01b03811661155a5760405162461bcd60e51b81526020600482015260026024820152612d1960f11b60448201526064016105fb565b6006546001600160a01b038084169116036115a05760405162461bcd60e51b81526004016105fb9060208082526004908201526373616d6560e01b604082015260600190565b506006805473ffffffffffffffffffffffffffffffffffffffff19166001600160a01b0392909216919091179055565b6115d933610631565b6116305760405162461bcd60e51b815260206004820152602260248201527f41636365737369626c653a2043616c6c6572206973206e6f7420616e2061646d60448201526134b760f11b60648201526084016105fb565b6001600160a01b0381166116865760405162461bcd60e51b815260206004820152601860248201527f41636365737369626c653a207a65726f2061646472657373000000000000000060448201526064016105fb565b6001600160a01b03811633036116de5760405162461bcd60e51b815260206004820152601660248201527f41636365737369626c653a2073616d652061646d696e0000000000000000000060448201526064016105fb565b6117087fdf8b4c520ffe197c5343c6f5aec59570151ef9a492f2c624fd45ddde6135ec428261072a565b61062e7fdf8b4c520ffe197c5343c6f5aec59570151ef9a492f2c624fd45ddde6135ec4233610844565b60008281526020819052604090206001015461174d81611757565b61074f83836117ff565b61062e8133611afb565b6000828152602081815260408083206001600160a01b038516845290915290205460ff166108cc576000828152602081815260408083206001600160a01b03851684529091529020805460ff191660011790556117bb3390565b6001600160a01b0316816001600160a01b0316837f2f8788117e7eff1d82e926ec794901d17c78024a50270940304540a733656f0d60405160405180910390a45050565b6000828152602081815260408083206001600160a01b038516845290915290205460ff16156108cc576000828152602081815260408083206001600160a01b0385168085529252808320805460ff1916905551339285917ff6391f5c32d9c69d2a47ea670b442974b53935d1edc7fd64eb21e047a839171b9190a45050565b604080516001600160a01b038481166024830152604480830185905283518084039091018152606490920183526020820180517bffffffffffffffffffffffffffffffffffffffffffffffffffffffff1663a9059cbb60e01b17905291516000928392908716916118ef91906124e6565b6000604051808303816000865af19150503d806000811461192c576040519150601f19603f3d011682016040523d82523d6000602084013e611931565b606091505b509150915081801561195b57508051158061195b57508080602001905181019061195b91906122d5565b6119a75760405162461bcd60e51b815260206004820152600f60248201527f5452414e534645525f4641494c4544000000000000000000000000000000000060448201526064016105fb565b5050505050565b6001600160a01b0382166000908152600a6020526040812054905b81811015611af5576001600160a01b0384166000908152600a602052604090208054849190839081106119fe576119fe612046565b906000526020600020015403611ae357611a196001836120de565b811015611aa1576001600160a01b0384166000908152600a60205260409020611a436001846120de565b81548110611a5357611a53612046565b9060005260206000200154600a6000866001600160a01b03166001600160a01b031681526020019081526020016000208281548110611a9457611a94612046565b6000918252602090912001555b6001600160a01b0384166000908152600a60205260409020805480611ac857611ac8612502565b60019003818190600052602060002001600090559055611af5565b80611aed81612072565b9150506119c9565b50505050565b6000828152602081815260408083206001600160a01b038516845290915290205460ff166108cc57611b2c81611b6e565b611b37836020611b80565b604051602001611b48929190612518565b60408051601f198184030181529082905262461bcd60e51b82526105fb916004016120f1565b60606105146001600160a01b03831660145b60606000611b8f83600261229c565b611b9a9060026124a5565b67ffffffffffffffff811115611bb257611bb2611ec5565b6040519080825280601f01601f191660200182016040528015611bdc576020820181803683370190505b509050600360fc1b81600081518110611bf757611bf7612046565b60200101906001600160f81b031916908160001a905350600f60fb1b81600181518110611c2657611c26612046565b60200101906001600160f81b031916908160001a9053506000611c4a84600261229c565b611c559060016124a5565b90505b6001811115611cda577f303132333435363738396162636465660000000000000000000000000000000085600f1660108110611c9657611c96612046565b1a60f81b828281518110611cac57611cac612046565b60200101906001600160f81b031916908160001a90535060049490941c93611cd381612599565b9050611c58565b508315611d295760405162461bcd60e51b815260206004820181905260248201527f537472696e67733a20686578206c656e67746820696e73756666696369656e7460448201526064016105fb565b9392505050565b600060208284031215611d4257600080fd5b81356001600160e01b031981168114611d2957600080fd5b6001600160a01b038116811461062e57600080fd5b60008060408385031215611d8257600080fd5b8235611d8d81611d5a565b946020939093013593505050565b600060208284031215611dad57600080fd5b8135611d2981611d5a565b600060208284031215611dca57600080fd5b5035919050565b60005b83811015611dec578181015183820152602001611dd4565b50506000910152565b60008151808452611e0d816020860160208601611dd1565b601f01601f19169290920160200192915050565b60ff841681526001600160a01b0383166020820152606060408201526000611e4c6060830184611df5565b95945050505050565b60008060408385031215611e6857600080fd5b823591506020830135611e7a81611d5a565b809150509250929050565b63ffffffff8116811461062e57600080fd5b60008060408385031215611eaa57600080fd5b8235611eb581611e85565b91506020830135611e7a81611d5a565b634e487b7160e01b600052604160045260246000fd5b604051601f8201601f1916810167ffffffffffffffff81118282101715611f0457611f04611ec5565b604052919050565b60008060408385031215611f1f57600080fd5b823567ffffffffffffffff80821115611f3757600080fd5b818501915085601f830112611f4b57600080fd5b8135602082821115611f5f57611f5f611ec5565b611f71601f8301601f19168201611edb565b92508183528781838601011115611f8757600080fd5b8181850182850137600091830181019190915290969401359450505050565b60008060208385031215611fb957600080fd5b823567ffffffffffffffff80821115611fd157600080fd5b818501915085601f830112611fe557600080fd5b813581811115611ff457600080fd5b86602082850101111561200657600080fd5b60209290920196919550909350505050565b6000806040838503121561202b57600080fd5b823561203681611d5a565b91506020830135611e7a81611e85565b634e487b7160e01b600052603260045260246000fd5b634e487b7160e01b600052601160045260246000fd5b6000600182016120845761208461205c565b5060010190565b600181811c9082168061209f57607f821691505b6020821081036120bf57634e487b7160e01b600052602260045260246000fd5b50919050565b6000602082840312156120d757600080fd5b5051919050565b818103818111156105145761051461205c565b602081526000611d296020830184611df5565b600060a0828403121561211657600080fd5b60405160a0810181811067ffffffffffffffff8211171561213957612139611ec5565b604052825161214781611d5a565b815260208381015190820152604083015161ffff8116811461216857600080fd5b6040820152606083015161217b81611e85565b6060820152608083015161218e81611e85565b60808201529392505050565b6000602082840312156121ac57600080fd5b8151611d2981611d5a565b6060815260006121ca6060830186611df5565b905083602083015260ff83166040830152949350505050565b60a0815260006121f660a0830188611df5565b6001600160a01b039687166020840152949095166040820152606081019290925260ff1660809091015292915050565b60008083546122348161208b565b6001828116801561224c576001811461226157612290565b60ff1984168752821515830287019450612290565b8760005260208060002060005b858110156122875781548a82015290840190820161226e565b50505082870194505b50929695505050505050565b80820281158282048414176105145761051461205c565b6000826122d057634e487b7160e01b600052601260045260246000fd5b500490565b6000602082840312156122e757600080fd5b81518015158114611d2957600080fd5b60c08152600061230a60c0830189611df5565b6001600160a01b0397881660208401529590961660408201526060810193909352608083019190915260ff1660a09091015292915050565b8183823760009101908152919050565b81835281816020850137506000828201602090810191909152601f909101601f19169091010190565b60208152600061238f602083018486612352565b949350505050565b601f82111561074f57600081815260208120601f850160051c810160208610156123be5750805b601f850160051c820191505b818110156123dd578281556001016123ca565b505050505050565b67ffffffffffffffff8311156123fd576123fd611ec5565b6124118361240b835461208b565b83612397565b6000601f841160018114612445576000851561242d5750838201355b600019600387901b1c1916600186901b1783556119a7565b600083815260209020601f19861690835b828110156124765786850135825560209485019460019092019101612456565b50868210156124935760001960f88860031b161c19848701351681555b505060018560011b0183555050505050565b808201808211156105145761051461205c565b8581526080602082015260006124d2608083018688612352565b604083019490945250606001529392505050565b600082516124f8818460208701611dd1565b9190910192915050565b634e487b7160e01b600052603160045260246000fd5b7f416363657373436f6e74726f6c3a206163636f756e7420000000000000000000815260008351612550816017850160208801611dd1565b7f206973206d697373696e6720726f6c6520000000000000000000000000000000601791840191820152835161258d816028840160208801611dd1565b01602801949350505050565b6000816125a8576125a861205c565b50600019019056fea164736f6c6343000812000a",
  "linkReferences": {
    "contracts/libraries/LibFastWithdraw.sol": {
      "LibFastWithdraw": [
        {
          "length": 20,
          "start": 2330
        },
        {
          "length": 20,
          "start": 3774
        },
        {
          "length": 20,
          "start": 4915
        }
      ]
    }
  },
  "deployedLinkReferences": {
    "contracts/libraries/LibFastWithdraw.sol": {
      "LibFastWithdraw": [
        {
          "length": 20,
          "start": 2298
        },
        {
          "length": 20,
          "start": 3742
        },
        {
          "length": 20,
          "start": 4883
        }
      ]
    }
  }
}