{
  "_format": "hh-sol-artifact-1",
  "contractName": "FwReceipt",
  "sourceName": "contracts/FwReceipt.sol",
  "abi": [
    {
      "inputs": [],
      "stateMutability": "nonpayable",
      "type": "constructor"
    },
    {
      "anonymous": false,
      "inputs": [
        {
          "indexed": false,
          "internalType": "bytes32",
          "name": "key",
          "type": "bytes32"
        },
        {
          "indexed": false,
          "internalType": "address",
          "name": "caller",
          "type": "address"
        }
      ],
      "name": "CanceledRequest",
      "type": "event"
    },
    {
      "anonymous": false,
      "inputs": [
        {
          "indexed": false,
          "internalType": "bytes32",
          "name": "key",
          "type": "bytes32"
        },
        {
          "indexed": false,
          "internalType": "address",
          "name": "from",
          "type": "address"
        },
        {
          "indexed": false,
          "internalType": "address",
          "name": "to",
          "type": "address"
        },
        {
          "indexed": false,
          "internalType": "uint256",
          "name": "providedAmount",
          "type": "uint256"
        },
        {
          "indexed": false,
          "internalType": "uint256",
          "name": "feeAmount",
          "type": "uint256"
        },
        {
          "indexed": false,
          "internalType": "bool",
          "name": "isCandidate",
          "type": "bool"
        },
        {
          "indexed": false,
          "internalType": "uint32",
          "name": "indexNo",
          "type": "uint32"
        }
      ],
      "name": "FinalizedFastWithdrawal",
      "type": "event"
    },
    {
      "anonymous": false,
      "inputs": [
        {
          "indexed": false,
          "internalType": "bytes32",
          "name": "key",
          "type": "bytes32"
        },
        {
          "indexed": false,
          "internalType": "address",
          "name": "from",
          "type": "address"
        },
        {
          "indexed": false,
          "internalType": "address",
          "name": "to",
          "type": "address"
        },
        {
          "indexed": false,
          "internalType": "uint256",
          "name": "amount",
          "type": "uint256"
        },
        {
          "indexed": false,
          "internalType": "uint8",
          "name": "status",
          "type": "uint8"
        }
      ],
      "name": "NormalWithdrawal",
      "type": "event"
    },
    {
      "anonymous": false,
      "inputs": [
        {
          "indexed": false,
          "internalType": "bytes32",
          "name": "key",
          "type": "bytes32"
        },
        {
          "indexed": false,
          "internalType": "address",
          "name": "provider",
          "type": "address"
        },
        {
          "indexed": false,
          "internalType": "uint256",
          "name": "provideAmount",
          "type": "uint256"
        },
        {
          "indexed": false,
          "internalType": "uint256",
          "name": "feeAmount",
          "type": "uint256"
        },
        {
          "indexed": false,
          "internalType": "bool",
          "name": "isCandidate",
          "type": "bool"
        },
        {
          "indexed": false,
          "internalType": "uint32",
          "name": "indexNo",
          "type": "uint32"
        }
      ],
      "name": "ProvidedLiquidity",
      "type": "event"
    },
    {
      "anonymous": false,
      "inputs": [
        {
          "indexed": true,
          "internalType": "bytes32",
          "name": "role",
          "type": "bytes32"
        },
        {
          "indexed": true,
          "internalType": "bytes32",
          "name": "previousAdminRole",
          "type": "bytes32"
        },
        {
          "indexed": true,
          "internalType": "bytes32",
          "name": "newAdminRole",
          "type": "bytes32"
        }
      ],
      "name": "RoleAdminChanged",
      "type": "event"
    },
    {
      "anonymous": false,
      "inputs": [
        {
          "indexed": true,
          "internalType": "bytes32",
          "name": "role",
          "type": "bytes32"
        },
        {
          "indexed": true,
          "internalType": "address",
          "name": "account",
          "type": "address"
        },
        {
          "indexed": true,
          "internalType": "address",
          "name": "sender",
          "type": "address"
        }
      ],
      "name": "RoleGranted",
      "type": "event"
    },
    {
      "anonymous": false,
      "inputs": [
        {
          "indexed": true,
          "internalType": "bytes32",
          "name": "role",
          "type": "bytes32"
        },
        {
          "indexed": true,
          "internalType": "address",
          "name": "account",
          "type": "address"
        },
        {
          "indexed": true,
          "internalType": "address",
          "name": "sender",
          "type": "address"
        }
      ],
      "name": "RoleRevoked",
      "type": "event"
    },
    {
      "inputs": [],
      "name": "ADMIN_ROLE",
      "outputs": [
        {
          "internalType": "bytes32",
          "name": "",
          "type": "bytes32"
        }
      ],
      "stateMutability": "view",
      "type": "function"
    },
    {
      "inputs": [],
      "name": "DEFAULT_ADMIN_ROLE",
      "outputs": [
        {
          "internalType": "bytes32",
          "name": "",
          "type": "bytes32"
        }
      ],
      "stateMutability": "view",
      "type": "function"
    },
    {
      "inputs": [],
      "name": "POLICY_ROLE",
      "outputs": [
        {
          "internalType": "bytes32",
          "name": "",
          "type": "bytes32"
        }
      ],
      "stateMutability": "view",
      "type": "function"
    },
    {
      "inputs": [
        {
          "internalType": "address",
          "name": "account",
          "type": "address"
        }
      ],
      "name": "addAdmin",
      "outputs": [],
      "stateMutability": "nonpayable",
      "type": "function"
    },
    {
      "inputs": [
        {
          "internalType": "address",
          "name": "",
          "type": "address"
        }
      ],
      "name": "aliveImplementation",
      "outputs": [
        {
          "internalType": "bool",
          "name": "",
          "type": "bool"
        }
      ],
      "stateMutability": "view",
      "type": "function"
    },
    {
      "inputs": [
        {
          "internalType": "bool",
          "name": "isCandidate",
          "type": "bool"
        },
        {
          "internalType": "uint32",
          "name": "layerIndex",
          "type": "uint32"
        },
        {
          "internalType": "address",
          "name": "account",
          "type": "address"
        }
      ],
      "name": "availableLiquidity",
      "outputs": [
        {
          "internalType": "uint256",
          "name": "amount",
          "type": "uint256"
        }
      ],
      "stateMutability": "view",
      "type": "function"
    },
    {
      "inputs": [
        {
          "internalType": "address",
          "name": "requestor",
          "type": "address"
        },
        {
          "internalType": "uint256",
          "name": "requestAmount",
          "type": "uint256"
        },
        {
          "internalType": "uint32",
          "name": "deadline",
          "type": "uint32"
        },
        {
          "internalType": "uint16",
          "name": "feeRate",
          "type": "uint16"
        },
        {
          "internalType": "uint32",
          "name": "layerIndex",
          "type": "uint32"
        },
        {
          "internalType": "uint256",
          "name": "messageNonce",
          "type": "uint256"
        },
        {
          "internalType": "bytes32",
          "name": "hashMessage",
          "type": "bytes32"
        }
      ],
      "name": "cancelRequest",
      "outputs": [],
      "stateMutability": "nonpayable",
      "type": "function"
    },
    {
      "inputs": [],
      "name": "candidate",
      "outputs": [
        {
          "internalType": "address",
          "name": "",
          "type": "address"
        }
      ],
      "stateMutability": "view",
      "type": "function"
    },
    {
      "inputs": [
        {
          "internalType": "bool",
          "name": "isCandidate",
          "type": "bool"
        },
        {
          "internalType": "uint32",
          "name": "layerIndex",
          "type": "uint32"
        },
        {
          "internalType": "address",
          "name": "account",
          "type": "address"
        }
      ],
      "name": "debtInStaked",
      "outputs": [
        {
          "internalType": "uint256",
          "name": "",
          "type": "uint256"
        }
      ],
      "stateMutability": "view",
      "type": "function"
    },
    {
      "inputs": [
        {
          "internalType": "address",
          "name": "requestor",
          "type": "address"
        },
        {
          "internalType": "uint256",
          "name": "requestAmount",
          "type": "uint256"
        },
        {
          "internalType": "uint32",
          "name": "deadline",
          "type": "uint32"
        },
        {
          "internalType": "uint16",
          "name": "feeRate",
          "type": "uint16"
        },
        {
          "internalType": "uint32",
          "name": "layerIndex",
          "type": "uint32"
        },
        {
          "internalType": "uint256",
          "name": "messageNonce",
          "type": "uint256"
        },
        {
          "internalType": "bytes32",
          "name": "hashMessage",
          "type": "bytes32"
        }
      ],
      "name": "finalizeFastWithdraw",
      "outputs": [
        {
          "internalType": "uint8",
          "name": "",
          "type": "uint8"
        }
      ],
      "stateMutability": "nonpayable",
      "type": "function"
    },
    {
      "inputs": [
        {
          "internalType": "bytes32",
          "name": "role",
          "type": "bytes32"
        }
      ],
      "name": "getRoleAdmin",
      "outputs": [
        {
          "internalType": "bytes32",
          "name": "",
          "type": "bytes32"
        }
      ],
      "stateMutability": "view",
      "type": "function"
    },
    {
      "inputs": [
        {
          "internalType": "bytes32",
          "name": "role",
          "type": "bytes32"
        },
        {
          "internalType": "address",
          "name": "account",
          "type": "address"
        }
      ],
      "name": "grantRole",
      "outputs": [],
      "stateMutability": "nonpayable",
      "type": "function"
    },
    {
      "inputs": [
        {
          "internalType": "bytes32",
          "name": "role",
          "type": "bytes32"
        },
        {
          "internalType": "address",
          "name": "account",
          "type": "address"
        }
      ],
      "name": "hasRole",
      "outputs": [
        {
          "internalType": "bool",
          "name": "",
          "type": "bool"
        }
      ],
      "stateMutability": "view",
      "type": "function"
    },
    {
      "inputs": [
        {
          "internalType": "address",
          "name": "account",
          "type": "address"
        },
        {
          "internalType": "bytes32",
          "name": "txIndex",
          "type": "bytes32"
        }
      ],
      "name": "includedTxsOfProvider",
      "outputs": [
        {
          "internalType": "bool",
          "name": "included",
          "type": "bool"
        }
      ],
      "stateMutability": "view",
      "type": "function"
    },
    {
      "inputs": [
        {
          "internalType": "address",
          "name": "account",
          "type": "address"
        }
      ],
      "name": "isAdmin",
      "outputs": [
        {
          "internalType": "bool",
          "name": "",
          "type": "bool"
        }
      ],
      "stateMutability": "view",
      "type": "function"
    },
    {
      "inputs": [],
      "name": "l1CrossDomainMessenger",
      "outputs": [
        {
          "internalType": "address",
          "name": "",
          "type": "address"
        }
      ],
      "stateMutability": "view",
      "type": "function"
    },
    {
      "inputs": [
        {
          "internalType": "bytes32",
          "name": "",
          "type": "bytes32"
        }
      ],
      "name": "messages",
      "outputs": [
        {
          "internalType": "uint8",
          "name": "status",
          "type": "uint8"
        },
        {
          "internalType": "bytes",
          "name": "data",
          "type": "bytes"
        },
        {
          "internalType": "bytes",
          "name": "liquidities",
          "type": "bytes"
        }
      ],
      "stateMutability": "view",
      "type": "function"
    },
    {
      "inputs": [],
      "name": "optimismSequencer",
      "outputs": [
        {
          "internalType": "address",
          "name": "",
          "type": "address"
        }
      ],
      "stateMutability": "view",
      "type": "function"
    },
    {
      "inputs": [],
      "name": "pauseProxy",
      "outputs": [
        {
          "internalType": "bool",
          "name": "",
          "type": "bool"
        }
      ],
      "stateMutability": "view",
      "type": "function"
    },
    {
      "inputs": [
        {
          "internalType": "address",
          "name": "requestor",
          "type": "address"
        },
        {
          "internalType": "uint256",
          "name": "requestAmount",
          "type": "uint256"
        },
        {
          "internalType": "uint256",
          "name": "provideAmount",
          "type": "uint256"
        },
        {
          "internalType": "uint32",
          "name": "deadline",
          "type": "uint32"
        },
        {
          "internalType": "bool",
          "name": "isCandidate",
          "type": "bool"
        },
        {
          "internalType": "uint32",
          "name": "indexNo",
          "type": "uint32"
        },
        {
          "internalType": "uint16",
          "name": "feeRate",
          "type": "uint16"
        },
        {
          "internalType": "uint32",
          "name": "layerIndex",
          "type": "uint32"
        },
        {
          "internalType": "uint256",
          "name": "messageNonce",
          "type": "uint256"
        },
        {
          "internalType": "bytes32",
          "name": "hashMessage",
          "type": "bytes32"
        }
      ],
      "name": "provideLiquidity",
      "outputs": [],
      "stateMutability": "nonpayable",
      "type": "function"
    },
    {
      "inputs": [
        {
          "internalType": "uint256",
          "name": "",
          "type": "uint256"
        }
      ],
      "name": "proxyImplementation",
      "outputs": [
        {
          "internalType": "address",
          "name": "",
          "type": "address"
        }
      ],
      "stateMutability": "view",
      "type": "function"
    },
    {
      "inputs": [],
      "name": "receiptNo",
      "outputs": [
        {
          "internalType": "uint256",
          "name": "",
          "type": "uint256"
        }
      ],
      "stateMutability": "view",
      "type": "function"
    },
    {
      "inputs": [
        {
          "internalType": "address",
          "name": "account",
          "type": "address"
        }
      ],
      "name": "removeAdmin",
      "outputs": [],
      "stateMutability": "nonpayable",
      "type": "function"
    },
    {
      "inputs": [
        {
          "internalType": "bytes32",
          "name": "role",
          "type": "bytes32"
        },
        {
          "internalType": "address",
          "name": "account",
          "type": "address"
        }
      ],
      "name": "renounceRole",
      "outputs": [],
      "stateMutability": "nonpayable",
      "type": "function"
    },
    {
      "inputs": [
        {
          "internalType": "bytes32",
          "name": "role",
          "type": "bytes32"
        },
        {
          "internalType": "address",
          "name": "account",
          "type": "address"
        }
      ],
      "name": "revokeRole",
      "outputs": [],
      "stateMutability": "nonpayable",
      "type": "function"
    },
    {
      "inputs": [],
      "name": "seigManagerV2",
      "outputs": [
        {
          "internalType": "address",
          "name": "",
          "type": "address"
        }
      ],
      "stateMutability": "view",
      "type": "function"
    },
    {
      "inputs": [
        {
          "internalType": "bytes4",
          "name": "",
          "type": "bytes4"
        }
      ],
      "name": "selectorImplementation",
      "outputs": [
        {
          "internalType": "address",
          "name": "",
          "type": "address"
        }
      ],
      "stateMutability": "view",
      "type": "function"
    },
    {
      "inputs": [
        {
          "internalType": "address",
          "name": "_candidate",
          "type": "address"
        }
      ],
      "name": "setCandidate",
      "outputs": [],
      "stateMutability": "nonpayable",
      "type": "function"
    },
    {
      "inputs": [
        {
          "internalType": "address",
          "name": "_optimismSequencer",
          "type": "address"
        }
      ],
      "name": "setOptimismSequencer",
      "outputs": [],
      "stateMutability": "nonpayable",
      "type": "function"
    },
    {
      "inputs": [
        {
          "internalType": "bytes4",
          "name": "interfaceId",
          "type": "bytes4"
        }
      ],
      "name": "supportsInterface",
      "outputs": [
        {
          "internalType": "bool",
          "name": "",
          "type": "bool"
        }
      ],
      "stateMutability": "view",
      "type": "function"
    },
    {
      "inputs": [],
      "name": "ton",
      "outputs": [
        {
          "internalType": "address",
          "name": "",
          "type": "address"
        }
      ],
      "stateMutability": "view",
      "type": "function"
    },
    {
      "inputs": [
        {
          "internalType": "address",
          "name": "newAdmin",
          "type": "address"
        }
      ],
      "name": "transferAdmin",
      "outputs": [],
      "stateMutability": "nonpayable",
      "type": "function"
    },
    {
      "inputs": [
        {
          "internalType": "address",
          "name": "requestor",
          "type": "address"
        },
        {
          "internalType": "uint256",
          "name": "amount",
          "type": "uint256"
        },
        {
          "internalType": "uint16",
          "name": "feeRate",
          "type": "uint16"
        },
        {
          "internalType": "uint32",
          "name": "deadline",
          "type": "uint32"
        },
        {
          "internalType": "uint32",
          "name": "layerIndex",
          "type": "uint32"
        },
        {
          "internalType": "uint256",
          "name": "messageNonce",
          "type": "uint256"
        },
        {
          "internalType": "bytes32",
          "name": "hashMessage",
          "type": "bytes32"
        }
      ],
      "name": "validateHashMessage",
      "outputs": [
        {
          "internalType": "bool",
          "name": "",
          "type": "bool"
        }
      ],
      "stateMutability": "view",
      "type": "function"
    }
  ],
  "bytecode": "0x6080604052600f805460ff1916600117905534801561001d57600080fd5b5061339f8061002d6000396000f3fe608060405234801561001057600080fd5b506004361061020b5760003560e01c806363a8fd891161012a57806391d14854116100bd578063b911135f1161008c578063d547741f11610071578063d547741f14610525578063da0dc13514610538578063decbcf161461054b57600080fd5b8063b911135f146104e9578063cc48b9471461051257600080fd5b806391d1485414610484578063996647c0146104bb578063a217fddf146104ce578063a7119869146104d657600080fd5b8063749e0977116100f9578063749e09771461042457806375829def1461043757806375b238fc1461044a5780637b064e501461047157600080fd5b806363a8fd89146103de5780636c8381f8146103eb57806370480275146103fe57806373469a7a1461041157600080fd5b80632bbd59ca116101a257806336568abe1161017157806336568abe1461035e57806350d2a27614610371578063550d01a3146103b25780635c475a2f146103d557600080fd5b80632bbd59ca146103035780632cdac231146103255780632f2ff15d1461033857806335d59b6b1461034b57600080fd5b80631785f53c116101de5780631785f53c146102855780632298524614610298578063248a9ca3146102cd57806324d7806c146102f057600080fd5b806301ffc9a71461021057806307880b7f1461023857806307a35aa81461024d57806307d072f314610272575b600080fd5b61022361021e36600461295c565b61055e565b60405190151581526020015b60405180910390f35b61024b61024636600461299b565b610595565b005b61026061025b3660046129da565b6106ac565b60405160ff909116815260200161022f565b610223610280366004612a54565b610e25565b61024b61029336600461299b565b610eaa565b6102bf7ffb5864e8ff833c3cb2d2d08505e82ff02a43554c74a35d4f5a64e8526127831181565b60405190815260200161022f565b6102bf6102db366004612a80565b60009081526020819052604090206001015490565b6102236102fe36600461299b565b610f37565b610316610311366004612a80565b610f77565b60405161022f93929190612ae9565b6102bf610333366004612b2f565b6110ae565b61024b610346366004612b7a565b611291565b61024b6103593660046129da565b6112bb565b61024b61036c366004612b7a565b6114d5565b61039a61037f36600461295c565b6004602052600090815260409020546001600160a01b031681565b6040516001600160a01b03909116815260200161022f565b6102236103c036600461299b565b60036020526000908152604090205460ff1681565b6102bf600a5481565b6001546102239060ff1681565b60095461039a906001600160a01b031681565b61024b61040c36600461299b565b611561565b60075461039a906001600160a01b031681565b61024b61043236600461299b565b6115eb565b61024b61044536600461299b565b6116fd565b6102bf7fdf8b4c520ffe197c5343c6f5aec59570151ef9a492f2c624fd45ddde6135ec4281565b61024b61047f366004612baa565b61185f565b610223610492366004612b7a565b6000918252602082815260408084206001600160a01b0393909316845291905290205460ff1690565b6102bf6104c9366004612b2f565b612175565b6102bf600081565b60065461039a906001600160a01b031681565b61039a6104f7366004612a80565b6002602052600090815260409020546001600160a01b031681565b60055461039a906001600160a01b031681565b61024b610533366004612b7a565b6121dd565b60085461039a906001600160a01b031681565b610223610559366004612c56565b612202565b60006001600160e01b03198216637965db0b60e01b148061058f57506301ffc9a760e01b6001600160e01b03198316145b92915050565b61059e33610f37565b6105fa5760405162461bcd60e51b815260206004820152602260248201527f41636365737369626c653a2043616c6c6572206973206e6f7420616e2061646d60448201526134b760f11b60648201526084015b60405180910390fd5b806001600160a01b0381166106365760405162461bcd60e51b81526020600482015260026024820152612d1960f11b60448201526064016105f1565b6009546001600160a01b0380841691160361067c5760405162461bcd60e51b81526004016105f19060208082526004908201526373616d6560e01b604082015260600190565b506009805473ffffffffffffffffffffffffffffffffffffffff19166001600160a01b0392909216919091179055565b600086158015906106c2575063ffffffff841615155b6106f35760405162461bcd60e51b81526020600482015260026024820152615a3160f01b60448201526064016105f1565b61070288888789888888612202565b61074e5760405162461bcd60e51b815260206004820152601860248201527f6661696c2076616c6964617465486173684d657373616765000000000000000060448201526064016105f1565b6000828152600b60205260409020805460ff166107ed5760035b815460ff191660ff9190911617815560055461078e906001600160a01b03168a8a61239f565b8054604080518581526001600160a01b038c166020820181905281830152606081018b905260ff9092166080830152517f19c6577342d24d2798f29ce119c454f6de124fedaef6f05e15de3999eac43c829181900360a00190a1610e15565b805460ff1660001901610801576004610768565b805460ff1660011901610dcd57600081600101805461081f90612ca3565b905011801561083d575080600201805461083890612ca3565b151590505b15610d85576040516331a043c560e11b815260009073__$1d82f85943f8f15120c320215629c38f60$__90636340878a9061087f906002860190600401612cdd565b600060405180830381865af415801561089c573d6000803e3d6000fd5b505050506040513d6000823e601f3d908101601f191682016040526108c49190810190612dd8565b80519091506000808c8c825b85811015610c6f5760008782815181106108ec576108ec612ed5565b6020026020010151905060006127108f61ffff16836020015161090f9190612f01565b6109199190612f18565b82602001516109289190612f3a565b9050600081836020015161093c9190612f3a565b905060008360400151610a60576020840151610958908a612f4d565b84516001600160a01b03166000908152600c60209081526040808320606089015163ffffffff16845290915281208054929b50859290919061099b908490612f3a565b92505081905550600860009054906101000a90046001600160a01b03166001600160a01b0316637138c7928f86606001518760000151866040518563ffffffff1660e01b8152600401610a16949392919093845263ffffffff9290921660208401526001600160a01b03166040830152606082015260800190565b6020604051808303816000875af1158015610a35573d6000803e3d6000fd5b505050506040513d601f19601f82011682018060405250810190610a599190612f60565b9050610b73565b6020840151610a6f9089612f4d565b84516001600160a01b03166000908152600d60209081526040808320606089015163ffffffff16845290915281208054929a508592909190610ab2908490612f3a565b92505081905550600960009054906101000a90046001600160a01b03166001600160a01b0316637138c7928f86606001518760000151866040518563ffffffff1660e01b8152600401610b2d949392919093845263ffffffff9290921660208401526001600160a01b03166040830152606082015260800190565b6020604051808303816000875af1158015610b4c573d6000803e3d6000fd5b505050506040513d601f19601f82011682018060405250810190610b709190612f60565b90505b8351610b7f908f6124ba565b80610bcc5760405162461bcd60e51b815260206004820152600c60248201527f6661696c2066775374616b65000000000000000000000000000000000000000060448201526064016105f1565b7f1c30258b666f76dc2a85ce035521826ae594487234ab6e46f28bf6be74181ceb8e856000015189868689604001518a60600151604051610c5097969594939291909687526001600160a01b0395861660208801529390941660408601526060850191909152608084015290151560a083015263ffffffff1660c082015260e00190565b60405180910390a1505050508080610c6790612f7d565b9150506108d0565b50865460ff191660051787558315610c9e57600854600554610c9e916001600160a01b0391821691168661239f565b8215610cc157600954600554610cc1916001600160a01b0391821691168561239f565b80610ccc8486612f4d565b1015610d7a57610cfd82610ce08587612f4d565b610cea9084612f3a565b6005546001600160a01b0316919061239f565b7f1c30258b666f76dc2a85ce035521826ae594487234ab6e46f28bf6be74181ceb898380610d2b8789612f4d565b610d359086612f3a565b604080519485526001600160a01b0393841660208601529190921690830152606082015260006080820181905260a0820181905260c082015260e00160405180910390a15b505050505050610e15565b60405162461bcd60e51b815260206004820152600d60248201527f57524f4e475f4d4553534147450000000000000000000000000000000000000060448201526064016105f1565b60405162461bcd60e51b815260206004820152601160248201527f414c52454144595f50524f43455353454400000000000000000000000000000060448201526064016105f1565b5460ff1698975050505050505050565b6001600160a01b0382166000908152600e6020526040812054815b81811015610ea2576001600160a01b0385166000908152600e60205260409020805485919083908110610e7557610e75612ed5565b906000526020600020015403610e905760019250505061058f565b80610e9a81612f7d565b915050610e40565b505092915050565b610eb333610f37565b610f0a5760405162461bcd60e51b815260206004820152602260248201527f41636365737369626c653a2043616c6c6572206973206e6f7420616e2061646d60448201526134b760f11b60648201526084016105f1565b610f347fdf8b4c520ffe197c5343c6f5aec59570151ef9a492f2c624fd45ddde6135ec42826114d5565b50565b6001600160a01b03811660009081527f5cbfc8ee58ca47855df7bcf648dd304ddb6b932f9b87878bdf6318d7ec7ee5b7602052604081205460ff1661058f565b600b602052600090815260409020805460018201805460ff9092169291610f9d90612ca3565b80601f0160208091040260200160405190810160405280929190818152602001828054610fc990612ca3565b80156110165780601f10610feb57610100808354040283529160200191611016565b820191906000526020600020905b815481529060010190602001808311610ff957829003601f168201915b50505050509080600201805461102b90612ca3565b80601f016020809104026020016040519081016040528092919081815260200182805461105790612ca3565b80156110a45780601f10611079576101008083540402835291602001916110a4565b820191906000526020600020905b81548152906001019060200180831161108757829003601f168201915b5050505050905083565b600083156111a25760095460405163253226cb60e21b815263ffffffff851660048201526001600160a01b03848116602483015260009216906394c89b2c90604401602060405180830381865afa15801561110d573d6000803e3d6000fd5b505050506040513d601f19601f820116820180604052508101906111319190612f96565b6001600160a01b0384166000908152600d6020908152604080832063ffffffff8916845290915290205490915081111561119c576001600160a01b0383166000908152600d6020908152604080832063ffffffff881684529091529020546111999082612f3a565b91505b5061128a565b60085460405163253226cb60e21b815263ffffffff851660048201526001600160a01b03848116602483015260009216906394c89b2c90604401602060405180830381865afa1580156111f9573d6000803e3d6000fd5b505050506040513d601f19601f8201168201806040525081019061121d9190612f96565b6001600160a01b0384166000908152600c6020908152604080832063ffffffff89168452909152902054909150811115611288576001600160a01b0383166000908152600c6020908152604080832063ffffffff881684529091529020546112859082612f3a565b91505b505b9392505050565b6000828152602081905260409020600101546112ac81612607565b6112b68383612611565b505050565b6112ca87878688878787612202565b6113165760405162461bcd60e51b815260206004820152601860248201527f6661696c2076616c6964617465486173684d657373616765000000000000000060448201526064016105f1565b8463ffffffff16421061135b5760405162461bcd60e51b815260206004820152600d60248201526c7061737420646561646c696e6560981b60448201526064016105f1565b6000818152600b60205260409020805460ff16156113af5760405162461bcd60e51b8152602060048201526011602482015270185b1c9958591e481c1c9bd8d95cdcd959607a1b60448201526064016105f1565b6001600160a01b03881633146114075760405162461bcd60e51b815260206004820152601860248201527f63616c6c6572206973206e6f7420726571756573746f722e000000000000000060448201526064016105f1565b805460ff19166001178155604051606089901b6bffffffffffffffffffffffff191660208201526034810188905260e087811b6001600160e01b0319908116605484015260f088901b6001600160f01b03191660588401529086901b16605a820152605e8101849052607e016040516020818303038152906040528160010190816114929190612ffd565b50604080518381523360208201527ffd8c3de20bde66d66a4502cdaa697d4dabbe703d3e14ab23e40b68c1a03a6810910160405180910390a15050505050505050565b6001600160a01b03811633146115535760405162461bcd60e51b815260206004820152602f60248201527f416363657373436f6e74726f6c3a2063616e206f6e6c792072656e6f756e636560448201527f20726f6c657320666f722073656c66000000000000000000000000000000000060648201526084016105f1565b61155d82826126af565b5050565b61156a33610f37565b6115c15760405162461bcd60e51b815260206004820152602260248201527f41636365737369626c653a2043616c6c6572206973206e6f7420616e2061646d60448201526134b760f11b60648201526084016105f1565b610f347fdf8b4c520ffe197c5343c6f5aec59570151ef9a492f2c624fd45ddde6135ec4282611291565b6115f433610f37565b61164b5760405162461bcd60e51b815260206004820152602260248201527f41636365737369626c653a2043616c6c6572206973206e6f7420616e2061646d60448201526134b760f11b60648201526084016105f1565b806001600160a01b0381166116875760405162461bcd60e51b81526020600482015260026024820152612d1960f11b60448201526064016105f1565b6008546001600160a01b038084169116036116cd5760405162461bcd60e51b81526004016105f19060208082526004908201526373616d6560e01b604082015260600190565b506008805473ffffffffffffffffffffffffffffffffffffffff19166001600160a01b0392909216919091179055565b61170633610f37565b61175d5760405162461bcd60e51b815260206004820152602260248201527f41636365737369626c653a2043616c6c6572206973206e6f7420616e2061646d60448201526134b760f11b60648201526084016105f1565b6001600160a01b0381166117b35760405162461bcd60e51b815260206004820152601860248201527f41636365737369626c653a207a65726f2061646472657373000000000000000060448201526064016105f1565b6001600160a01b038116330361180b5760405162461bcd60e51b815260206004820152601660248201527f41636365737369626c653a2073616d652061646d696e0000000000000000000060448201526064016105f1565b6118357fdf8b4c520ffe197c5343c6f5aec59570151ef9a492f2c624fd45ddde6135ec4282611291565b610f347fdf8b4c520ffe197c5343c6f5aec59570151ef9a492f2c624fd45ddde6135ec42336114d5565b87806000036118955760405162461bcd60e51b81526020600482015260026024820152615a3160f01b60448201526064016105f1565b6118a48b8b878b888888612202565b6118f05760405162461bcd60e51b815260206004820152601860248201527f6661696c2076616c6964617465486173684d657373616765000000000000000060448201526064016105f1565b8763ffffffff1642106119355760405162461bcd60e51b815260206004820152600d60248201526c7061737420646561646c696e6560981b60448201526064016105f1565b8661198e578563ffffffff168463ffffffff16146119895760405162461bcd60e51b815260206004820152601160248201527034ba1034b9903737ba1039b0b6b290261960791b60448201526064016105f1565b611a58565b6009546040516313e0634360e21b815263ffffffff881660048201526000916001600160a01b031690634f818d0c90602401606060405180830381865afa1580156119dd573d6000803e3d6000fd5b505050506040513d601f19601f82011682018060405250810190611a0191906130bd565b90508463ffffffff16816020015163ffffffff1614611a565760405162461bcd60e51b815260206004820152601160248201527034ba1034b9903737ba1039b0b6b290261960791b60448201526064016105f1565b505b6000828152600b60205260409020336001600160a01b038d1603611ae45760405162461bcd60e51b815260206004820152602e60248201527f5468652072657175657374657220616e642070726f76696465722063616e6e6f60448201527f74206265207468652073616d652e00000000000000000000000000000000000060648201526084016105f1565b6001810180548d91600091611af890612ca3565b9050600003611bd657825460ff1615611b475760405162461bcd60e51b8152602060048201526011602482015270185b1c9958591e481c1c9bd8d95cdcd959607a1b60448201526064016105f1565b6040516bffffffffffffffffffffffff19606084901b166020820152603481018e90526001600160e01b031960e08d811b821660548401526001600160f01b031960f08c901b16605884015289901b16605a820152605e8101879052607e01604051602081830303815290604052836001019081611bc59190612ffd565b50825460ff19166002178355611cf5565b825460ff16600214611c1e5760405162461bcd60e51b8152602060048201526011602482015270185b1c9958591e481c1c9bd8d95cdcd959607a1b60448201526064016105f1565b6040516348cbe2af60e01b815273__$1d82f85943f8f15120c320215629c38f60$__906348cbe2af90611c58906002870190600401612cdd565b602060405180830381865af4158015611c75573d6000803e3d6000fd5b505050506040513d601f19601f82011682018060405250810190611c999190612f96565b611ca3908e612f3a565b905060008111611cf55760405162461bcd60e51b815260206004820152600f60248201527f7a65726f206c656674416d6f756e74000000000000000000000000000000000060448201526064016105f1565b8b6000829003611d03578d91505b80821015611d535760405162461bcd60e51b815260206004820152601a60248201527f6c656674416d6f756e7420697320696e73756666696369656e7400000000000060448201526064016105f1565b8a8a6000612710611d6861ffff8e1686612f01565b611d729190612f18565b90506000611d808286612f3a565b9050611d8d8484336110ae565b811115611ddc5760405162461bcd60e51b815260206004820152601a60248201527f6c697175696469747920697320696e73756666696369656e742e00000000000060448201526064016105f1565b8315611ef9576009546040516385b9e48560e01b8152600481018c905263ffffffff851660248201523360448201526001600160a01b03898116606483015260848201849052909116906385b9e4859060a4016020604051808303816000875af1158015611e4e573d6000803e3d6000fd5b505050506040513d601f19601f82011682018060405250810190611e729190612f60565b611ebe5760405162461bcd60e51b815260206004820152601760248201527f6661696c2066617374576974686472617743616c696d2000000000000000000060448201526064016105f1565b336000908152600d6020908152604080832063ffffffff8716845290915281208054839290611eee908490612f4d565b9091555061200b9050565b6008546040516385b9e48560e01b8152600481018c905263ffffffff851660248201523360448201526001600160a01b03898116606483015260848201849052909116906385b9e4859060a4016020604051808303816000875af1158015611f65573d6000803e3d6000fd5b505050506040513d601f19601f82011682018060405250810190611f899190612f60565b611fd55760405162461bcd60e51b815260206004820152601760248201527f6661696c2066617374576974686472617743616c696d2000000000000000000060448201526064016105f1565b336000908152600c6020908152604080832063ffffffff8716845290915281208054839290612005908490612f4d565b90915550505b604080516080810182523381526020810187815286151582840190815263ffffffff8781166060850190815294516369aed7b760e11b815293516001600160a01b031660048501529151602484015251151560448301529151909116606482015273__$1d82f85943f8f15120c320215629c38f60$__9063d35daf6e90608401600060405180830381865af41580156120a8573d6000803e3d6000fd5b505050506040513d6000823e601f3d908101601f191682016040526120d0919081019061312f565b60028901906120df9082612ffd565b50336000818152600e602090815260408083208054600181018255908452928290209092018d905581518d815290810192909252810182905260608101839052841515608082015263ffffffff841660a08201527f6f74cd4afbbc228cc261f91b7441a9c47fea6305241baadd9c0dbd81c3eff2f69060c00160405180910390a150505050505050505050505050505050505050565b600083156121ad57506001600160a01b0381166000908152600d6020908152604080832063ffffffff8616845290915290205461128a565b506001600160a01b0381166000908152600c6020908152604080832063ffffffff8616845290915290205461128a565b6000828152602081905260409020600101546121f881612607565b6112b683836126af565b600854604051638c6f1b3960e01b815263ffffffff8516600482015260009182916001600160a01b0390911690638c6f1b3990602401608060405180830381865afa158015612255573d6000803e3d6000fd5b505050506040513d601f19601f8201168201806040525081019061227991906131c3565b60055460608201516040516001600160f01b031960f08c901b1660208201526001600160e01b031960e08b811b821660228401528a901b16602682015292935060009263a9f9e67560e01b926001600160a01b031691908d9030908e90602a0160408051601f19818403018152908290526122fb96959493929160240161322a565b604051602081830303815290604052906001600160e01b0319166020820180516001600160e01b0383818316178352505050509050600063cbd4ece960e01b8360200151846040015184896040516024016123599493929190613278565b60408051601f198184030181529190526020810180516001600160e01b03166001600160e01b031990931692909217825251902085149350505050979650505050505050565b604080516001600160a01b038481166024830152604480830185905283518084039091018152606490920183526020820180516001600160e01b031663a9059cbb60e01b17905291516000928392908716916123fb91906132b5565b6000604051808303816000865af19150503d8060008114612438576040519150601f19603f3d011682016040523d82523d6000602084013e61243d565b606091505b50915091508180156124675750805115806124675750808060200190518101906124679190612f60565b6124b35760405162461bcd60e51b815260206004820152600f60248201527f5452414e534645525f4641494c4544000000000000000000000000000000000060448201526064016105f1565b5050505050565b6001600160a01b0382166000908152600e6020526040812054905b81811015612601576001600160a01b0384166000908152600e6020526040902080548491908390811061250a5761250a612ed5565b9060005260206000200154036125ef57612525600183612f3a565b8110156125ad576001600160a01b0384166000908152600e6020526040902061254f600184612f3a565b8154811061255f5761255f612ed5565b9060005260206000200154600e6000866001600160a01b03166001600160a01b0316815260200190815260200160002082815481106125a0576125a0612ed5565b6000918252602090912001555b6001600160a01b0384166000908152600e602052604090208054806125d4576125d46132d1565b60019003818190600052602060002001600090559055612601565b806125f981612f7d565b9150506124d5565b50505050565b610f34813361272e565b6000828152602081815260408083206001600160a01b038516845290915290205460ff1661155d576000828152602081815260408083206001600160a01b03851684529091529020805460ff1916600117905561266b3390565b6001600160a01b0316816001600160a01b0316837f2f8788117e7eff1d82e926ec794901d17c78024a50270940304540a733656f0d60405160405180910390a45050565b6000828152602081815260408083206001600160a01b038516845290915290205460ff161561155d576000828152602081815260408083206001600160a01b0385168085529252808320805460ff1916905551339285917ff6391f5c32d9c69d2a47ea670b442974b53935d1edc7fd64eb21e047a839171b9190a45050565b6000828152602081815260408083206001600160a01b038516845290915290205460ff1661155d5761275f816127a1565b61276a8360206127b3565b60405160200161277b9291906132e7565b60408051601f198184030181529082905262461bcd60e51b82526105f191600401613368565b606061058f6001600160a01b03831660145b606060006127c2836002612f01565b6127cd906002612f4d565b67ffffffffffffffff8111156127e5576127e5612d68565b6040519080825280601f01601f19166020018201604052801561280f576020820181803683370190505b509050600360fc1b8160008151811061282a5761282a612ed5565b60200101906001600160f81b031916908160001a905350600f60fb1b8160018151811061285957612859612ed5565b60200101906001600160f81b031916908160001a905350600061287d846002612f01565b612888906001612f4d565b90505b600181111561290d577f303132333435363738396162636465660000000000000000000000000000000085600f16601081106128c9576128c9612ed5565b1a60f81b8282815181106128df576128df612ed5565b60200101906001600160f81b031916908160001a90535060049490941c936129068161337b565b905061288b565b50831561128a5760405162461bcd60e51b815260206004820181905260248201527f537472696e67733a20686578206c656e67746820696e73756666696369656e7460448201526064016105f1565b60006020828403121561296e57600080fd5b81356001600160e01b03198116811461128a57600080fd5b6001600160a01b0381168114610f3457600080fd5b6000602082840312156129ad57600080fd5b813561128a81612986565b63ffffffff81168114610f3457600080fd5b61ffff81168114610f3457600080fd5b600080600080600080600060e0888a0312156129f557600080fd5b8735612a0081612986565b9650602088013595506040880135612a17816129b8565b94506060880135612a27816129ca565b93506080880135612a37816129b8565b9699959850939692959460a0840135945060c09093013592915050565b60008060408385031215612a6757600080fd5b8235612a7281612986565b946020939093013593505050565b600060208284031215612a9257600080fd5b5035919050565b60005b83811015612ab4578181015183820152602001612a9c565b50506000910152565b60008151808452612ad5816020860160208601612a99565b601f01601f19169290920160200192915050565b60ff84168152606060208201526000612b056060830185612abd565b8281036040840152612b178185612abd565b9695505050505050565b8015158114610f3457600080fd5b600080600060608486031215612b4457600080fd5b8335612b4f81612b21565b92506020840135612b5f816129b8565b91506040840135612b6f81612986565b809150509250925092565b60008060408385031215612b8d57600080fd5b823591506020830135612b9f81612986565b809150509250929050565b6000806000806000806000806000806101408b8d031215612bca57600080fd5b8a35612bd581612986565b995060208b0135985060408b0135975060608b0135612bf3816129b8565b965060808b0135612c0381612b21565b955060a08b0135612c13816129b8565b945060c08b0135612c23816129ca565b935060e08b0135612c33816129b8565b809350506101008b013591506101208b013590509295989b9194979a5092959850565b600080600080600080600060e0888a031215612c7157600080fd5b8735612c7c81612986565b9650602088013595506040880135612c93816129ca565b94506060880135612a27816129b8565b600181811c90821680612cb757607f821691505b602082108103612cd757634e487b7160e01b600052602260045260246000fd5b50919050565b6000602080835260008454612cf181612ca3565b80848701526040600180841660008114612d125760018114612d2c57612d5a565b60ff1985168984015283151560051b890183019550612d5a565b896000528660002060005b85811015612d525781548b8201860152908301908801612d37565b8a0184019650505b509398975050505050505050565b634e487b7160e01b600052604160045260246000fd5b6040516080810167ffffffffffffffff81118282101715612da157612da1612d68565b60405290565b604051601f8201601f1916810167ffffffffffffffff81118282101715612dd057612dd0612d68565b604052919050565b60006020808385031215612deb57600080fd5b825167ffffffffffffffff80821115612e0357600080fd5b818501915085601f830112612e1757600080fd5b815181811115612e2957612e29612d68565b612e37848260051b01612da7565b818152848101925060079190911b830184019087821115612e5757600080fd5b928401925b81841015612eca5760808489031215612e755760008081fd5b612e7d612d7e565b8451612e8881612986565b81528486015186820152604080860151612ea181612b21565b90820152606085810151612eb4816129b8565b9082015283526080939093019291840191612e5c565b979650505050505050565b634e487b7160e01b600052603260045260246000fd5b634e487b7160e01b600052601160045260246000fd5b808202811582820484141761058f5761058f612eeb565b600082612f3557634e487b7160e01b600052601260045260246000fd5b500490565b8181038181111561058f5761058f612eeb565b8082018082111561058f5761058f612eeb565b600060208284031215612f7257600080fd5b815161128a81612b21565b600060018201612f8f57612f8f612eeb565b5060010190565b600060208284031215612fa857600080fd5b5051919050565b601f8211156112b657600081815260208120601f850160051c81016020861015612fd65750805b601f850160051c820191505b81811015612ff557828155600101612fe2565b505050505050565b815167ffffffffffffffff81111561301757613017612d68565b61302b816130258454612ca3565b84612faf565b602080601f83116001811461306057600084156130485750858301515b600019600386901b1c1916600185901b178555612ff5565b600085815260208120601f198616915b8281101561308f57888601518255948401946001909101908401613070565b50858210156130ad5787850151600019600388901b60f8161c191681555b5050505050600190811b01905550565b6000606082840312156130cf57600080fd5b6040516060810181811067ffffffffffffffff821117156130f2576130f2612d68565b604052825161310081612986565b81526020830151613110816129b8565b60208201526040830151613123816129ca565b60408201529392505050565b60006020828403121561314157600080fd5b815167ffffffffffffffff8082111561315957600080fd5b818401915084601f83011261316d57600080fd5b81518181111561317f5761317f612d68565b613192601f8201601f1916602001612da7565b91508082528560208285010111156131a957600080fd5b6131ba816020840160208601612a99565b50949350505050565b6000608082840312156131d557600080fd5b6131dd612d7e565b82516131e881612986565b815260208301516131f881612986565b6020820152604083015161320b81612986565b6040820152606083015161321e81612986565b60608201529392505050565b60006001600160a01b0380891683528088166020840152808716604084015280861660608401525083608083015260c060a083015261326c60c0830184612abd565b98975050505050505050565b60006001600160a01b038087168352808616602084015250608060408301526132a46080830185612abd565b905082606083015295945050505050565b600082516132c7818460208701612a99565b9190910192915050565b634e487b7160e01b600052603160045260246000fd5b7f416363657373436f6e74726f6c3a206163636f756e742000000000000000000081526000835161331f816017850160208801612a99565b7f206973206d697373696e6720726f6c6520000000000000000000000000000000601791840191820152835161335c816028840160208801612a99565b01602801949350505050565b60208152600061128a6020830184612abd565b60008161338a5761338a612eeb565b50600019019056fea164736f6c6343000812000a",
  "linkReferences": {
    "contracts/libraries/LibFastWithdraw.sol": {
      "LibFastWithdraw": [
        {
          "length": 20,
          "start": 2177
        },
        {
          "length": 20,
          "start": 7258
        },
        {
          "length": 20,
          "start": 8347
        }
      ]
    }
  },
  "deployedLinkReferences": {
    "contracts/libraries/LibFastWithdraw.sol": {
      "LibFastWithdraw": [
        {
          "length": 20,
          "start": 2132
        },
        {
          "length": 20,
          "start": 7213
        },
        {
          "length": 20,
          "start": 8302
        }
      ]
    }
  }
}