{
  "_format": "hh-sol-artifact-1",
  "contractName": "FwReceipt",
  "sourceName": "contracts/FwReceipt.sol",
  "abi": [
    {
      "inputs": [],
      "stateMutability": "nonpayable",
      "type": "constructor"
    },
    {
      "anonymous": false,
      "inputs": [
        {
          "indexed": false,
          "internalType": "bytes32",
          "name": "key",
          "type": "bytes32"
        },
        {
          "indexed": false,
          "internalType": "uint8",
          "name": "status",
          "type": "uint8"
        }
      ],
      "name": "AlreadyProcessed",
      "type": "event"
    },
    {
      "anonymous": false,
      "inputs": [
        {
          "indexed": false,
          "internalType": "bytes32",
          "name": "key",
          "type": "bytes32"
        },
        {
          "indexed": false,
          "internalType": "address",
          "name": "caller",
          "type": "address"
        }
      ],
      "name": "CanceledRequest",
      "type": "event"
    },
    {
      "anonymous": false,
      "inputs": [
        {
          "indexed": false,
          "internalType": "bytes32",
          "name": "key",
          "type": "bytes32"
        },
        {
          "indexed": false,
          "internalType": "address",
          "name": "from",
          "type": "address"
        },
        {
          "indexed": false,
          "internalType": "address",
          "name": "to",
          "type": "address"
        },
        {
          "indexed": false,
          "internalType": "uint256",
          "name": "providedAmount",
          "type": "uint256"
        },
        {
          "indexed": false,
          "internalType": "uint256",
          "name": "feeAmount",
          "type": "uint256"
        },
        {
          "indexed": false,
          "internalType": "bool",
          "name": "isCandidate",
          "type": "bool"
        },
        {
          "indexed": false,
          "internalType": "uint32",
          "name": "indexNo",
          "type": "uint32"
        }
      ],
      "name": "FinalizedFastWithdrawal",
      "type": "event"
    },
    {
      "anonymous": false,
      "inputs": [
        {
          "indexed": false,
          "internalType": "bytes32",
          "name": "key",
          "type": "bytes32"
        },
        {
          "indexed": false,
          "internalType": "uint8",
          "name": "status",
          "type": "uint8"
        }
      ],
      "name": "InvalidMessageFastWithdrawal",
      "type": "event"
    },
    {
      "anonymous": false,
      "inputs": [
        {
          "indexed": false,
          "internalType": "bytes32",
          "name": "key",
          "type": "bytes32"
        },
        {
          "indexed": false,
          "internalType": "address",
          "name": "from",
          "type": "address"
        },
        {
          "indexed": false,
          "internalType": "address",
          "name": "to",
          "type": "address"
        },
        {
          "indexed": false,
          "internalType": "uint256",
          "name": "amount",
          "type": "uint256"
        },
        {
          "indexed": false,
          "internalType": "uint8",
          "name": "status",
          "type": "uint8"
        }
      ],
      "name": "NormalWithdrawal",
      "type": "event"
    },
    {
      "anonymous": false,
      "inputs": [
        {
          "indexed": false,
          "internalType": "bytes32",
          "name": "key",
          "type": "bytes32"
        },
        {
          "indexed": false,
          "internalType": "address",
          "name": "provider",
          "type": "address"
        },
        {
          "indexed": false,
          "internalType": "uint256",
          "name": "provideAmount",
          "type": "uint256"
        },
        {
          "indexed": false,
          "internalType": "uint256",
          "name": "feeAmount",
          "type": "uint256"
        },
        {
          "indexed": false,
          "internalType": "bool",
          "name": "isCandidate",
          "type": "bool"
        },
        {
          "indexed": false,
          "internalType": "uint32",
          "name": "indexNo",
          "type": "uint32"
        }
      ],
      "name": "ProvidedLiquidity",
      "type": "event"
    },
    {
      "anonymous": false,
      "inputs": [
        {
          "indexed": true,
          "internalType": "bytes32",
          "name": "role",
          "type": "bytes32"
        },
        {
          "indexed": true,
          "internalType": "bytes32",
          "name": "previousAdminRole",
          "type": "bytes32"
        },
        {
          "indexed": true,
          "internalType": "bytes32",
          "name": "newAdminRole",
          "type": "bytes32"
        }
      ],
      "name": "RoleAdminChanged",
      "type": "event"
    },
    {
      "anonymous": false,
      "inputs": [
        {
          "indexed": true,
          "internalType": "bytes32",
          "name": "role",
          "type": "bytes32"
        },
        {
          "indexed": true,
          "internalType": "address",
          "name": "account",
          "type": "address"
        },
        {
          "indexed": true,
          "internalType": "address",
          "name": "sender",
          "type": "address"
        }
      ],
      "name": "RoleGranted",
      "type": "event"
    },
    {
      "anonymous": false,
      "inputs": [
        {
          "indexed": true,
          "internalType": "bytes32",
          "name": "role",
          "type": "bytes32"
        },
        {
          "indexed": true,
          "internalType": "address",
          "name": "account",
          "type": "address"
        },
        {
          "indexed": true,
          "internalType": "address",
          "name": "sender",
          "type": "address"
        }
      ],
      "name": "RoleRevoked",
      "type": "event"
    },
    {
      "inputs": [],
      "name": "ADMIN_ROLE",
      "outputs": [
        {
          "internalType": "bytes32",
          "name": "",
          "type": "bytes32"
        }
      ],
      "stateMutability": "view",
      "type": "function"
    },
    {
      "inputs": [],
      "name": "DEFAULT_ADMIN_ROLE",
      "outputs": [
        {
          "internalType": "bytes32",
          "name": "",
          "type": "bytes32"
        }
      ],
      "stateMutability": "view",
      "type": "function"
    },
    {
      "inputs": [],
      "name": "POLICY_ROLE",
      "outputs": [
        {
          "internalType": "bytes32",
          "name": "",
          "type": "bytes32"
        }
      ],
      "stateMutability": "view",
      "type": "function"
    },
    {
      "inputs": [
        {
          "internalType": "address",
          "name": "account",
          "type": "address"
        }
      ],
      "name": "addAdmin",
      "outputs": [],
      "stateMutability": "nonpayable",
      "type": "function"
    },
    {
      "inputs": [
        {
          "internalType": "address",
          "name": "",
          "type": "address"
        }
      ],
      "name": "aliveImplementation",
      "outputs": [
        {
          "internalType": "bool",
          "name": "",
          "type": "bool"
        }
      ],
      "stateMutability": "view",
      "type": "function"
    },
    {
      "inputs": [
        {
          "internalType": "bool",
          "name": "isCandidate",
          "type": "bool"
        },
        {
          "internalType": "uint32",
          "name": "layerIndex",
          "type": "uint32"
        },
        {
          "internalType": "address",
          "name": "account",
          "type": "address"
        }
      ],
      "name": "availableLiquidity",
      "outputs": [
        {
          "internalType": "uint256",
          "name": "amount",
          "type": "uint256"
        }
      ],
      "stateMutability": "view",
      "type": "function"
    },
    {
      "inputs": [
        {
          "internalType": "bytes",
          "name": "_l2Messages",
          "type": "bytes"
        }
      ],
      "name": "cancelRequest",
      "outputs": [],
      "stateMutability": "nonpayable",
      "type": "function"
    },
    {
      "inputs": [],
      "name": "candidate",
      "outputs": [
        {
          "internalType": "address",
          "name": "",
          "type": "address"
        }
      ],
      "stateMutability": "view",
      "type": "function"
    },
    {
      "inputs": [
        {
          "internalType": "bool",
          "name": "isCandidate",
          "type": "bool"
        },
        {
          "internalType": "uint32",
          "name": "layerIndex",
          "type": "uint32"
        },
        {
          "internalType": "address",
          "name": "account",
          "type": "address"
        }
      ],
      "name": "debtInStaked",
      "outputs": [
        {
          "internalType": "uint256",
          "name": "",
          "type": "uint256"
        }
      ],
      "stateMutability": "view",
      "type": "function"
    },
    {
      "inputs": [
        {
          "internalType": "bytes",
          "name": "_l2Messages",
          "type": "bytes"
        }
      ],
      "name": "finalizeFastWithdraw",
      "outputs": [
        {
          "internalType": "uint8",
          "name": "",
          "type": "uint8"
        }
      ],
      "stateMutability": "nonpayable",
      "type": "function"
    },
    {
      "inputs": [
        {
          "internalType": "uint8",
          "name": "ver",
          "type": "uint8"
        },
        {
          "internalType": "address",
          "name": "l2ton",
          "type": "address"
        },
        {
          "internalType": "address",
          "name": "requestor",
          "type": "address"
        },
        {
          "internalType": "uint256",
          "name": "amount",
          "type": "uint256"
        },
        {
          "internalType": "bytes",
          "name": "_l2Messages",
          "type": "bytes"
        }
      ],
      "name": "getKey",
      "outputs": [
        {
          "internalType": "bytes32",
          "name": "",
          "type": "bytes32"
        }
      ],
      "stateMutability": "view",
      "type": "function"
    },
    {
      "inputs": [
        {
          "internalType": "bytes32",
          "name": "role",
          "type": "bytes32"
        }
      ],
      "name": "getRoleAdmin",
      "outputs": [
        {
          "internalType": "bytes32",
          "name": "",
          "type": "bytes32"
        }
      ],
      "stateMutability": "view",
      "type": "function"
    },
    {
      "inputs": [
        {
          "internalType": "bytes32",
          "name": "role",
          "type": "bytes32"
        },
        {
          "internalType": "address",
          "name": "account",
          "type": "address"
        }
      ],
      "name": "grantRole",
      "outputs": [],
      "stateMutability": "nonpayable",
      "type": "function"
    },
    {
      "inputs": [
        {
          "internalType": "bytes32",
          "name": "role",
          "type": "bytes32"
        },
        {
          "internalType": "address",
          "name": "account",
          "type": "address"
        }
      ],
      "name": "hasRole",
      "outputs": [
        {
          "internalType": "bool",
          "name": "",
          "type": "bool"
        }
      ],
      "stateMutability": "view",
      "type": "function"
    },
    {
      "inputs": [
        {
          "internalType": "address",
          "name": "account",
          "type": "address"
        },
        {
          "internalType": "bytes32",
          "name": "txIndex",
          "type": "bytes32"
        }
      ],
      "name": "includedTxsOfProvider",
      "outputs": [
        {
          "internalType": "bool",
          "name": "included",
          "type": "bool"
        }
      ],
      "stateMutability": "view",
      "type": "function"
    },
    {
      "inputs": [
        {
          "internalType": "address",
          "name": "account",
          "type": "address"
        }
      ],
      "name": "isAdmin",
      "outputs": [
        {
          "internalType": "bool",
          "name": "",
          "type": "bool"
        }
      ],
      "stateMutability": "view",
      "type": "function"
    },
    {
      "inputs": [],
      "name": "l1CrossDomainMessenger",
      "outputs": [
        {
          "internalType": "address",
          "name": "",
          "type": "address"
        }
      ],
      "stateMutability": "view",
      "type": "function"
    },
    {
      "inputs": [
        {
          "internalType": "bytes32",
          "name": "",
          "type": "bytes32"
        }
      ],
      "name": "messages",
      "outputs": [
        {
          "internalType": "uint8",
          "name": "status",
          "type": "uint8"
        },
        {
          "internalType": "bytes",
          "name": "data",
          "type": "bytes"
        },
        {
          "internalType": "bytes",
          "name": "liquidities",
          "type": "bytes"
        }
      ],
      "stateMutability": "view",
      "type": "function"
    },
    {
      "inputs": [],
      "name": "optimismSequencer",
      "outputs": [
        {
          "internalType": "address",
          "name": "",
          "type": "address"
        }
      ],
      "stateMutability": "view",
      "type": "function"
    },
    {
      "inputs": [],
      "name": "pauseProxy",
      "outputs": [
        {
          "internalType": "bool",
          "name": "",
          "type": "bool"
        }
      ],
      "stateMutability": "view",
      "type": "function"
    },
    {
      "inputs": [
        {
          "internalType": "bool",
          "name": "isCandidate",
          "type": "bool"
        },
        {
          "internalType": "uint32",
          "name": "indexNo",
          "type": "uint32"
        },
        {
          "internalType": "bytes",
          "name": "_l2Messages",
          "type": "bytes"
        }
      ],
      "name": "provideLiquidity",
      "outputs": [],
      "stateMutability": "nonpayable",
      "type": "function"
    },
    {
      "inputs": [
        {
          "internalType": "uint256",
          "name": "",
          "type": "uint256"
        }
      ],
      "name": "proxyImplementation",
      "outputs": [
        {
          "internalType": "address",
          "name": "",
          "type": "address"
        }
      ],
      "stateMutability": "view",
      "type": "function"
    },
    {
      "inputs": [],
      "name": "receiptNo",
      "outputs": [
        {
          "internalType": "uint256",
          "name": "",
          "type": "uint256"
        }
      ],
      "stateMutability": "view",
      "type": "function"
    },
    {
      "inputs": [
        {
          "internalType": "address",
          "name": "account",
          "type": "address"
        }
      ],
      "name": "removeAdmin",
      "outputs": [],
      "stateMutability": "nonpayable",
      "type": "function"
    },
    {
      "inputs": [
        {
          "internalType": "bytes32",
          "name": "role",
          "type": "bytes32"
        },
        {
          "internalType": "address",
          "name": "account",
          "type": "address"
        }
      ],
      "name": "renounceRole",
      "outputs": [],
      "stateMutability": "nonpayable",
      "type": "function"
    },
    {
      "inputs": [
        {
          "internalType": "bytes32",
          "name": "role",
          "type": "bytes32"
        },
        {
          "internalType": "address",
          "name": "account",
          "type": "address"
        }
      ],
      "name": "revokeRole",
      "outputs": [],
      "stateMutability": "nonpayable",
      "type": "function"
    },
    {
      "inputs": [],
      "name": "seigManagerV2",
      "outputs": [
        {
          "internalType": "address",
          "name": "",
          "type": "address"
        }
      ],
      "stateMutability": "view",
      "type": "function"
    },
    {
      "inputs": [
        {
          "internalType": "bytes4",
          "name": "",
          "type": "bytes4"
        }
      ],
      "name": "selectorImplementation",
      "outputs": [
        {
          "internalType": "address",
          "name": "",
          "type": "address"
        }
      ],
      "stateMutability": "view",
      "type": "function"
    },
    {
      "inputs": [
        {
          "internalType": "address",
          "name": "_candidate",
          "type": "address"
        }
      ],
      "name": "setCandidate",
      "outputs": [],
      "stateMutability": "nonpayable",
      "type": "function"
    },
    {
      "inputs": [
        {
          "internalType": "address",
          "name": "_optimismSequencer",
          "type": "address"
        }
      ],
      "name": "setOptimismSequencer",
      "outputs": [],
      "stateMutability": "nonpayable",
      "type": "function"
    },
    {
      "inputs": [
        {
          "internalType": "bytes4",
          "name": "interfaceId",
          "type": "bytes4"
        }
      ],
      "name": "supportsInterface",
      "outputs": [
        {
          "internalType": "bool",
          "name": "",
          "type": "bool"
        }
      ],
      "stateMutability": "view",
      "type": "function"
    },
    {
      "inputs": [],
      "name": "ton",
      "outputs": [
        {
          "internalType": "address",
          "name": "",
          "type": "address"
        }
      ],
      "stateMutability": "view",
      "type": "function"
    },
    {
      "inputs": [
        {
          "internalType": "address",
          "name": "newAdmin",
          "type": "address"
        }
      ],
      "name": "transferAdmin",
      "outputs": [],
      "stateMutability": "nonpayable",
      "type": "function"
    }
  ],
  "bytecode": "0x6080604052600f805460ff1916600117905534801561001d57600080fd5b506139578061002d6000396000f3fe608060405234801561001057600080fd5b506004361061020b5760003560e01c80636ab4c0551161012a578063996647c0116100bd578063cc48b9471161008c578063da0dc13511610071578063da0dc13514610513578063ed1e963114610526578063f8f904ea1461054b57600080fd5b8063cc48b947146104ed578063d547741f1461050057600080fd5b8063996647c014610496578063a217fddf146104a9578063a7119869146104b1578063b911135f146104c457600080fd5b8063749e0977116100f9578063749e09771461041257806375829def1461042557806375b238fc1461043857806391d148541461045f57600080fd5b80636ab4c055146103c65780636c8381f8146103d957806370480275146103ec57806373469a7a146103ff57600080fd5b80632cdac231116101a2578063550d01a311610171578063550d01a31461037a57806356ef72c11461039d5780635c475a2f146103b057806363a8fd89146103b957600080fd5b80632cdac231146103005780632f2ff15d1461031357806336568abe1461032657806350d2a2761461033957600080fd5b806322985246116101de5780632298524614610273578063248a9ca3146102a857806324d7806c146102cb5780632bbd59ca146102de57600080fd5b806301ffc9a71461021057806307880b7f1461023857806307d072f31461024d5780631785f53c14610260575b600080fd5b61022361021e366004612b94565b61055e565b60405190151581526020015b60405180910390f35b61024b610246366004612bd3565b610595565b005b61022361025b366004612bf0565b6106ac565b61024b61026e366004612bd3565b610731565b61029a7ffb5864e8ff833c3cb2d2d08505e82ff02a43554c74a35d4f5a64e8526127831181565b60405190815260200161022f565b61029a6102b6366004612c1c565b60009081526020819052604090206001015490565b6102236102d9366004612bd3565b6107be565b6102f16102ec366004612c1c565b6107fe565b60405161022f93929190612c85565b61029a61030e366004612cdd565b610935565b61024b610321366004612d28565b610b18565b61024b610334366004612d28565b610b42565b610362610347366004612b94565b6004602052600090815260409020546001600160a01b031681565b6040516001600160a01b03909116815260200161022f565b610223610388366004612bd3565b60036020526000908152604090205460ff1681565b61024b6103ab366004612da1565b610bce565b61029a600a5481565b6001546102239060ff1681565b61029a6103d4366004612f04565b610eb5565b600954610362906001600160a01b031681565b61024b6103fa366004612bd3565b610f77565b600754610362906001600160a01b031681565b61024b610420366004612bd3565b611001565b61024b610433366004612bd3565b611113565b61029a7fdf8b4c520ffe197c5343c6f5aec59570151ef9a492f2c624fd45ddde6135ec4281565b61022361046d366004612d28565b6000918252602082815260408084206001600160a01b0393909316845291905290205460ff1690565b61029a6104a4366004612cdd565b611275565b61029a600081565b600654610362906001600160a01b031681565b6103626104d2366004612c1c565b6002602052600090815260409020546001600160a01b031681565b600554610362906001600160a01b031681565b61024b61050e366004612d28565b6112dd565b600854610362906001600160a01b031681565b610539610534366004612f83565b611302565b60405160ff909116815260200161022f565b61024b610559366004612fc0565b61132d565b60006001600160e01b03198216637965db0b60e01b148061058f57506301ffc9a760e01b6001600160e01b03198316145b92915050565b61059e336107be565b6105fa5760405162461bcd60e51b815260206004820152602260248201527f41636365737369626c653a2043616c6c6572206973206e6f7420616e2061646d60448201526134b760f11b60648201526084015b60405180910390fd5b806001600160a01b0381166106365760405162461bcd60e51b81526020600482015260026024820152612d1960f11b60448201526064016105f1565b6009546001600160a01b0380841691160361067c5760405162461bcd60e51b81526004016105f19060208082526004908201526373616d6560e01b604082015260600190565b506009805473ffffffffffffffffffffffffffffffffffffffff19166001600160a01b0392909216919091179055565b6001600160a01b0382166000908152600e6020526040812054815b81811015610729576001600160a01b0385166000908152600e602052604090208054859190839081106106fc576106fc613025565b9060005260206000200154036107175760019250505061058f565b8061072181613051565b9150506106c7565b505092915050565b61073a336107be565b6107915760405162461bcd60e51b815260206004820152602260248201527f41636365737369626c653a2043616c6c6572206973206e6f7420616e2061646d60448201526134b760f11b60648201526084016105f1565b6107bb7fdf8b4c520ffe197c5343c6f5aec59570151ef9a492f2c624fd45ddde6135ec4282610b42565b50565b6001600160a01b03811660009081527f5cbfc8ee58ca47855df7bcf648dd304ddb6b932f9b87878bdf6318d7ec7ee5b7602052604081205460ff1661058f565b600b602052600090815260409020805460018201805460ff90921692916108249061306a565b80601f01602080910402602001604051908101604052809291908181526020018280546108509061306a565b801561089d5780601f106108725761010080835404028352916020019161089d565b820191906000526020600020905b81548152906001019060200180831161088057829003601f168201915b5050505050908060020180546108b29061306a565b80601f01602080910402602001604051908101604052809291908181526020018280546108de9061306a565b801561092b5780601f106109005761010080835404028352916020019161092b565b820191906000526020600020905b81548152906001019060200180831161090e57829003601f168201915b5050505050905083565b60008315610a295760095460405163253226cb60e21b815263ffffffff851660048201526001600160a01b03848116602483015260009216906394c89b2c90604401602060405180830381865afa158015610994573d6000803e3d6000fd5b505050506040513d601f19601f820116820180604052508101906109b891906130a4565b6001600160a01b0384166000908152600d6020908152604080832063ffffffff89168452909152902054909150811115610a23576001600160a01b0383166000908152600d6020908152604080832063ffffffff88168452909152902054610a2090826130bd565b91505b50610b11565b60085460405163253226cb60e21b815263ffffffff851660048201526001600160a01b03848116602483015260009216906394c89b2c90604401602060405180830381865afa158015610a80573d6000803e3d6000fd5b505050506040513d601f19601f82011682018060405250810190610aa491906130a4565b6001600160a01b0384166000908152600c6020908152604080832063ffffffff89168452909152902054909150811115610b0f576001600160a01b0383166000908152600c6020908152604080832063ffffffff88168452909152902054610b0c90826130bd565b91505b505b9392505050565b600082815260208190526040902060010154610b3381611bc4565b610b3d8383611bce565b505050565b6001600160a01b0381163314610bc05760405162461bcd60e51b815260206004820152602f60248201527f416363657373436f6e74726f6c3a2063616e206f6e6c792072656e6f756e636560448201527f20726f6c657320666f722073656c66000000000000000000000000000000000060648201526084016105f1565b610bca8282611c6c565b5050565b60008073__$1d82f85943f8f15120c320215629c38f60$__636fa792b585856040518363ffffffff1660e01b8152600401610c0a9291906130d0565b61012060405180830381865af4158015610c28573d6000803e3d6000fd5b505050506040513d601f19601f82011682018060405250810190610c4c919061312c565b915091508160ff16600014610ca35760405162461bcd60e51b815260206004820152601c60248201527f496e76616c69644d657373616765466173745769746864726177616c0000000060448201526064016105f1565b60608101516001600160a01b03163014610cf15760405162461bcd60e51b815260206004820152600f60248201526e1ddc9bdb99c8199dd49958d95a5c1d608a1b60448201526064016105f1565b60055481516001600160a01b03908116911614610d405760405162461bcd60e51b815260206004820152600d60248201526c24ba1034b9903737ba103a37b760991b60448201526064016105f1565b8060c0015163ffffffff164210610d895760405162461bcd60e51b815260206004820152600d60248201526c7061737420646561646c696e6560981b60448201526064016105f1565b60008484604051610d9b9291906131f7565b60408051918290039091206000818152600b6020529190912080549192509060ff1615610dfe5760405162461bcd60e51b8152602060048201526011602482015270185b1c9958591e481c1c9bd8d95cdcd959607a1b60448201526064016105f1565b60408301516001600160a01b03163314610e5a5760405162461bcd60e51b815260206004820152601860248201527f63616c6c6572206973206e6f7420726571756573746f722e000000000000000060448201526064016105f1565b805460ff1916600190811782558101610e74868883613255565b50604080518381523360208201527ffd8c3de20bde66d66a4502cdaa697d4dabbe703d3e14ab23e40b68c1a03a6810910160405180910390a1505050505050565b60055460405160009163a9f9e67560e01b916001600160a01b0390911690879087903090889063ed1e963160e01b90610ef2908a90602401613315565b60408051601f198184030181529181526020820180516001600160e01b03166001600160e01b0319909416939093179092529051610f3896959493929190602401613328565b60408051601f198184030181529190526020810180516001600160e01b03166001600160e01b0319909316929092178252519020905095945050505050565b610f80336107be565b610fd75760405162461bcd60e51b815260206004820152602260248201527f41636365737369626c653a2043616c6c6572206973206e6f7420616e2061646d60448201526134b760f11b60648201526084016105f1565b6107bb7fdf8b4c520ffe197c5343c6f5aec59570151ef9a492f2c624fd45ddde6135ec4282610b18565b61100a336107be565b6110615760405162461bcd60e51b815260206004820152602260248201527f41636365737369626c653a2043616c6c6572206973206e6f7420616e2061646d60448201526134b760f11b60648201526084016105f1565b806001600160a01b03811661109d5760405162461bcd60e51b81526020600482015260026024820152612d1960f11b60448201526064016105f1565b6008546001600160a01b038084169116036110e35760405162461bcd60e51b81526004016105f19060208082526004908201526373616d6560e01b604082015260600190565b506008805473ffffffffffffffffffffffffffffffffffffffff19166001600160a01b0392909216919091179055565b61111c336107be565b6111735760405162461bcd60e51b815260206004820152602260248201527f41636365737369626c653a2043616c6c6572206973206e6f7420616e2061646d60448201526134b760f11b60648201526084016105f1565b6001600160a01b0381166111c95760405162461bcd60e51b815260206004820152601860248201527f41636365737369626c653a207a65726f2061646472657373000000000000000060448201526064016105f1565b6001600160a01b03811633036112215760405162461bcd60e51b815260206004820152601660248201527f41636365737369626c653a2073616d652061646d696e0000000000000000000060448201526064016105f1565b61124b7fdf8b4c520ffe197c5343c6f5aec59570151ef9a492f2c624fd45ddde6135ec4282610b18565b6107bb7fdf8b4c520ffe197c5343c6f5aec59570151ef9a492f2c624fd45ddde6135ec4233610b42565b600083156112ad57506001600160a01b0381166000908152600d6020908152604080832063ffffffff86168452909152902054610b11565b506001600160a01b0381166000908152600c6020908152604080832063ffffffff86168452909152902054610b11565b6000828152602081905260409020600101546112f881611bc4565b610b3d8383611c6c565b600060018251111561132657600182015160ff811661132457610b1183611ceb565b505b601261058f565b600f5460ff166113685760405162461bcd60e51b81526004016105f1906020808252600490820152636c6f636b60e01b604082015260600190565b600f805460ff19169055604051636fa792b560e01b8152600090819073__$1d82f85943f8f15120c320215629c38f60$__90636fa792b5906113b090879087906004016130d0565b61012060405180830381865af41580156113ce573d6000803e3d6000fd5b505050506040513d601f19601f820116820180604052508101906113f2919061312c565b915091508160ff166000146114098360ff16612679565b6040516020016114199190613376565b604051602081830303815290604052906114465760405162461bcd60e51b81526004016105f19190613315565b5060608101516001600160a01b031630146114955760405162461bcd60e51b815260206004820152600f60248201526e1ddc9bdb99c8199dd49958d95a5c1d608a1b60448201526064016105f1565b60055481516001600160a01b039081169116146114e45760405162461bcd60e51b815260206004820152600d60248201526c24ba1034b9903737ba103a37b760991b60448201526064016105f1565b8060c0015163ffffffff16421061152d5760405162461bcd60e51b815260206004820152600d60248201526c7061737420646561646c696e6560981b60448201526064016105f1565b6000848460405161153f9291906131f7565b60408051918290039091206000818152600b60205282902091840151909250336001600160a01b03909116036115dd5760405162461bcd60e51b815260206004820152602e60248201527f5468652072657175657374657220616e642070726f76696465722063616e6e6f60448201527f74206265207468652073616d652e00000000000000000000000000000000000060648201526084016105f1565b8761163a578663ffffffff168360e0015163ffffffff16146116355760405162461bcd60e51b815260206004820152601160248201527034ba1034b9903737ba1039b0b6b290261960791b60448201526064016105f1565b611704565b6009546040516313e0634360e21b815263ffffffff891660048201526000916001600160a01b031690634f818d0c90602401606060405180830381865afa158015611689573d6000803e3d6000fd5b505050506040513d601f19601f820116820180604052508101906116ad91906133bb565b90508763ffffffff16816020015163ffffffff16146117025760405162461bcd60e51b815260206004820152601160248201527034ba1034b9903737ba1039b0b6b290261960791b60448201526064016105f1565b505b805460ff1615801561172457508060010180546117209061306a565b1590505b6117645760405162461bcd60e51b8152602060048201526011602482015270185b1c9958591e481c1c9bd8d95cdcd959607a1b60448201526064016105f1565b60006127108460a0015161ffff168560800151611781919061342b565b61178b9190613442565b9050600081856080015161179f91906130bd565b9050600081116117f15760405162461bcd60e51b815260206004820152601260248201527f7a65726f20617070726f7665416d6f756e74000000000000000000000000000060448201526064016105f1565b6117fc8a8a33610935565b81111561184b5760405162461bcd60e51b815260206004820152601a60248201527f6c697175696469747920697320696e73756666696369656e742e00000000000060448201526064016105f1565b60008a15611920576009546040878101519051633e1ab40b60e11b815263ffffffff8d1660048201523360248201526001600160a01b03918216604482015260648101859052911690637c356816906084016020604051808303816000875af11580156118bc573d6000803e3d6000fd5b505050506040513d601f19601f820116820180604052508101906118e09190613464565b336000908152600d6020908152604080832063ffffffff8f168452909152812080549293508492909190611915908490613481565b909155506119e89050565b6008546040878101519051633e1ab40b60e11b815263ffffffff8d1660048201523360248201526001600160a01b03918216604482015260648101859052911690637c356816906084016020604051808303816000875af1158015611989573d6000803e3d6000fd5b505050506040513d601f19601f820116820180604052508101906119ad9190613464565b336000908152600c6020908152604080832063ffffffff8f1684529091528120805492935084929091906119e2908490613481565b90915550505b80611a355760405162461bcd60e51b815260206004820152601760248201527f6661696c2066617374576974686472617743616c696d2000000000000000000060448201526064016105f1565b60408051868152336020820152908101839052606081018490528b1515608082015263ffffffff8b1660a08201527f6f74cd4afbbc228cc261f91b7441a9c47fea6305241baadd9c0dbd81c3eff2f69060c00160405180910390a1835460ff1916600217845560018401611aaa898b83613255565b506040805160808082018352338252880151602082019081528d151582840190815263ffffffff8e81166060850190815294516369aed7b760e11b815293516001600160a01b031660048501529151602484015251151560448301529151909116606482015273__$1d82f85943f8f15120c320215629c38f60$__9063d35daf6e90608401600060405180830381865af4158015611b4c573d6000803e3d6000fd5b505050506040513d6000823e601f3d908101601f19168201604052611b749190810190613494565b6002850190611b83908261350b565b5050336000908152600e6020908152604082208054600181810183559184529190922001949094555050600f805460ff191690921790915550505050505050565b6107bb8133612690565b6000828152602081815260408083206001600160a01b038516845290915290205460ff16610bca576000828152602081815260408083206001600160a01b03851684529091529020805460ff19166001179055611c283390565b6001600160a01b0316816001600160a01b0316837f2f8788117e7eff1d82e926ec794901d17c78024a50270940304540a733656f0d60405160405180910390a45050565b6000828152602081815260408083206001600160a01b038516845290915290205460ff1615610bca576000828152602081815260408083206001600160a01b0385168085529252808320805460ff1916905551339285917ff6391f5c32d9c69d2a47ea670b442974b53935d1edc7fd64eb21e047a839171b9190a45050565b600f5460009060ff16611d295760405162461bcd60e51b81526004016105f1906020808252600490820152636c6f636b60e01b604082015260600190565b600f805460ff1916905560405160009063ed1e963160e01b90611d50908590602401613315565b604051602081830303815290604052906001600160e01b0319166020820180516001600160e01b0383818316178352505050509050600080600080600080600073__$1d82f85943f8f15120c320215629c38f60$__63597bd1198b6040518263ffffffff1660e01b8152600401611dc79190613315565b61012060405180830381865af4158015611de5573d6000803e3d6000fd5b505050506040513d601f19601f82011682018060405250810190611e0991906135cb565b98505097509750975097509750509650306001600160a01b0316846001600160a01b031614611e6c5760405162461bcd60e51b815260206004820152600f60248201526e1ddc9bdb99c8199dd49958d95a5c1d608a1b60448201526064016105f1565b600063a9f9e67560e01b600560009054906101000a90046001600160a01b0316888830888e604051602401611ea696959493929190613328565b60408051601f198184030181529181526020820180516001600160e01b03166001600160e01b03199094169390931783528151909220600654925163b1b1b20960e01b8152919350916001600160a01b03169063b1b1b20990611f1190849060040190815260200190565b602060405180830381865afa158015611f2e573d6000803e3d6000fd5b505050506040513d601f19601f82011682018060405250810190611f529190613464565b611f9e5760405162461bcd60e51b815260206004820152601e60248201527f4974206973206e6f74207375636365737366756c206d657373616765732e000060448201526064016105f1565b60ff891615611ff4576040805182815260ff8b1660208201527f9917208a6b03f856ac1caee91385c1cb15d80e186686acd0a3b0274ad20a7196910160405180910390a1889a5050505050505050505050612667565b6000818152600b60205260409020805460ff1661209b5760035b815460ff191660ff919091169081178255600554909a50612039906001600160a01b03168988612703565b604080518381526001600160a01b038a1660208201819052918101919091526060810187905260ff8b1660808201527f19c6577342d24d2798f29ce119c454f6de124fedaef6f05e15de3999eac43c829060a0015b60405180910390a1612659565b805460ff16600019016120af57600461200e565b805460ff166001190161261b57806001016040516120cd9190613682565b6040518091039020821480156120f257508060020180546120ed9061306a565b151590505b156125e1576040516331a043c560e11b815260009073__$1d82f85943f8f15120c320215629c38f60$__90636340878a906121349060028601906004016136f8565b600060405180830381865af4158015612151573d6000803e3d6000fd5b505050506040513d6000823e601f3d908101601f191682016040526121799190810190613783565b80519091506000808b815b848110156124c75760008682815181106121a0576121a0613025565b6020026020010151905060006127108d61ffff1683602001516121c3919061342b565b6121cd9190613442565b82602001516121dc91906130bd565b905060008183602001516121f091906130bd565b9050600083604001516122e657602084015161220c9089613481565b84516001600160a01b03166000908152600c60209081526040808320606089015163ffffffff16845290915281208054929a50859290919061224f9084906130bd565b9091555050600854606085015185516040516360254e3360e01b815263ffffffff90921660048301526001600160a01b03908116602483015260448201859052909116906360254e33906064016020604051808303816000875af11580156122bb573d6000803e3d6000fd5b505050506040513d601f19601f820116820180604052508101906122df9190613464565b90506123cb565b60208401516122f59088613481565b84516001600160a01b03166000908152600d60209081526040808320606089015163ffffffff1684529091528120805492995085929091906123389084906130bd565b9091555050600954606085015185516040516360254e3360e01b815263ffffffff90921660048301526001600160a01b03908116602483015260448201859052909116906360254e33906064016020604051808303816000875af11580156123a4573d6000803e3d6000fd5b505050506040513d601f19601f820116820180604052508101906123c89190613464565b90505b83516123d7908d61281e565b806124245760405162461bcd60e51b815260206004820152600c60248201527f6661696c2066775374616b65000000000000000000000000000000000000000060448201526064016105f1565b7f1c30258b666f76dc2a85ce035521826ae594487234ab6e46f28bf6be74181ceb8c856000015188868689604001518a606001516040516124a897969594939291909687526001600160a01b0395861660208801529390941660408601526060850191909152608084015290151560a083015263ffffffff1660c082015260e00190565b60405180910390a15050505080806124bf90613051565b915050612184565b50855460ff1916600590811787559e5082156124fa576008546005546124fa916001600160a01b03918216911685612703565b811561251d5760095460055461251d916001600160a01b03918216911684612703565b8a6125288385613481565b10156125d7576125598d61253c8486613481565b612546908e6130bd565b6005546001600160a01b03169190612703565b7f1c30258b666f76dc2a85ce035521826ae594487234ab6e46f28bf6be74181ceb878e806125878688613481565b8f61259291906130bd565b604080519485526001600160a01b0393841660208601529190921690830152606082015260006080820181905260a0820181905260c082015260e00160405180910390a15b5050505050612659565b60408051838152600d602082018190529b507f9917208a6b03f856ac1caee91385c1cb15d80e186686acd0a3b0274ad20a7196910161208e565b60408051838152600f602082018190529b507fad16c72aaa795afba41d2d33663538cbb0ed61d2db0d5c7808a105f6b0066e10910160405180910390a15b509799505050505050505050505b600f805460ff19166001179055919050565b606061058f826126888461296b565b6001016129d5565b6000828152602081815260408083206001600160a01b038516845290915290205460ff16610bca576126c181612b7e565b6126cc8360206129d5565b6040516020016126dd929190613880565b60408051601f198184030181529082905262461bcd60e51b82526105f191600401613315565b604080516001600160a01b038481166024830152604480830185905283518084039091018152606490920183526020820180516001600160e01b031663a9059cbb60e01b179052915160009283929087169161275f9190613901565b6000604051808303816000865af19150503d806000811461279c576040519150601f19603f3d011682016040523d82523d6000602084013e6127a1565b606091505b50915091508180156127cb5750805115806127cb5750808060200190518101906127cb9190613464565b6128175760405162461bcd60e51b815260206004820152600f60248201527f5452414e534645525f4641494c4544000000000000000000000000000000000060448201526064016105f1565b5050505050565b6001600160a01b0382166000908152600e6020526040812054905b81811015612965576001600160a01b0384166000908152600e6020526040902080548491908390811061286e5761286e613025565b906000526020600020015403612953576128896001836130bd565b811015612911576001600160a01b0384166000908152600e602052604090206128b36001846130bd565b815481106128c3576128c3613025565b9060005260206000200154600e6000866001600160a01b03166001600160a01b03168152602001908152602001600020828154811061290457612904613025565b6000918252602090912001555b6001600160a01b0384166000908152600e602052604090208054806129385761293861391d565b60019003818190600052602060002001600090559055612965565b8061295d81613051565b915050612839565b50505050565b600080608083901c156129835760809290921c916010015b604083901c156129985760409290921c916008015b602083901c156129ad5760209290921c916004015b601083901c156129c25760109290921c916002015b600883901c1561058f5760010192915050565b606060006129e483600261342b565b6129ef906002613481565b67ffffffffffffffff811115612a0757612a07612df2565b6040519080825280601f01601f191660200182016040528015612a31576020820181803683370190505b509050600360fc1b81600081518110612a4c57612a4c613025565b60200101906001600160f81b031916908160001a905350600f60fb1b81600181518110612a7b57612a7b613025565b60200101906001600160f81b031916908160001a9053506000612a9f84600261342b565b612aaa906001613481565b90505b6001811115612b2f577f303132333435363738396162636465660000000000000000000000000000000085600f1660108110612aeb57612aeb613025565b1a60f81b828281518110612b0157612b01613025565b60200101906001600160f81b031916908160001a90535060049490941c93612b2881613933565b9050612aad565b508315610b115760405162461bcd60e51b815260206004820181905260248201527f537472696e67733a20686578206c656e67746820696e73756666696369656e7460448201526064016105f1565b606061058f6001600160a01b03831660146129d5565b600060208284031215612ba657600080fd5b81356001600160e01b031981168114610b1157600080fd5b6001600160a01b03811681146107bb57600080fd5b600060208284031215612be557600080fd5b8135610b1181612bbe565b60008060408385031215612c0357600080fd5b8235612c0e81612bbe565b946020939093013593505050565b600060208284031215612c2e57600080fd5b5035919050565b60005b83811015612c50578181015183820152602001612c38565b50506000910152565b60008151808452612c71816020860160208601612c35565b601f01601f19169290920160200192915050565b60ff84168152606060208201526000612ca16060830185612c59565b8281036040840152612cb38185612c59565b9695505050505050565b80151581146107bb57600080fd5b63ffffffff811681146107bb57600080fd5b600080600060608486031215612cf257600080fd5b8335612cfd81612cbd565b92506020840135612d0d81612ccb565b91506040840135612d1d81612bbe565b809150509250925092565b60008060408385031215612d3b57600080fd5b823591506020830135612d4d81612bbe565b809150509250929050565b60008083601f840112612d6a57600080fd5b50813567ffffffffffffffff811115612d8257600080fd5b602083019150836020828501011115612d9a57600080fd5b9250929050565b60008060208385031215612db457600080fd5b823567ffffffffffffffff811115612dcb57600080fd5b612dd785828601612d58565b90969095509350505050565b60ff811681146107bb57600080fd5b634e487b7160e01b600052604160045260246000fd5b604051610100810167ffffffffffffffff81118282101715612e2c57612e2c612df2565b60405290565b6040516080810167ffffffffffffffff81118282101715612e2c57612e2c612df2565b604051601f8201601f1916810167ffffffffffffffff81118282101715612e7e57612e7e612df2565b604052919050565b600067ffffffffffffffff821115612ea057612ea0612df2565b50601f01601f191660200190565b600082601f830112612ebf57600080fd5b8135612ed2612ecd82612e86565b612e55565b818152846020838601011115612ee757600080fd5b816020850160208301376000918101602001919091529392505050565b600080600080600060a08688031215612f1c57600080fd5b8535612f2781612de3565b94506020860135612f3781612bbe565b93506040860135612f4781612bbe565b925060608601359150608086013567ffffffffffffffff811115612f6a57600080fd5b612f7688828901612eae565b9150509295509295909350565b600060208284031215612f9557600080fd5b813567ffffffffffffffff811115612fac57600080fd5b612fb884828501612eae565b949350505050565b60008060008060608587031215612fd657600080fd5b8435612fe181612cbd565b93506020850135612ff181612ccb565b9250604085013567ffffffffffffffff81111561300d57600080fd5b61301987828801612d58565b95989497509550505050565b634e487b7160e01b600052603260045260246000fd5b634e487b7160e01b600052601160045260246000fd5b6000600182016130635761306361303b565b5060010190565b600181811c9082168061307e57607f821691505b60208210810361309e57634e487b7160e01b600052602260045260246000fd5b50919050565b6000602082840312156130b657600080fd5b5051919050565b8181038181111561058f5761058f61303b565b60208152816020820152818360408301376000818301604090810191909152601f909201601f19160101919050565b805161310a81612bbe565b919050565b805161ffff8116811461310a57600080fd5b805161310a81612ccb565b60008082840361012081121561314157600080fd5b835161314c81612de3565b9250610100601f19820181131561316257600080fd5b61316a612e08565b9150602085015161317a81612bbe565b8252613188604086016130ff565b6020830152613199606086016130ff565b60408301526131aa608086016130ff565b606083015260a085015160808301526131c560c0860161310f565b60a08301526131d660e08601613121565b60c08301526131e6818601613121565b60e083015250809150509250929050565b8183823760009101908152919050565b601f821115610b3d57600081815260208120601f850160051c8101602086101561322e5750805b601f850160051c820191505b8181101561324d5782815560010161323a565b505050505050565b67ffffffffffffffff83111561326d5761326d612df2565b6132818361327b835461306a565b83613207565b6000601f8411600181146132b5576000851561329d5750838201355b600019600387901b1c1916600186901b178355612817565b600083815260209020601f19861690835b828110156132e657868501358255602094850194600190920191016132c6565b50868210156133035760001960f88860031b161c19848701351681555b505060018560011b0183555050505050565b602081526000610b116020830184612c59565b60006001600160a01b0380891683528088166020840152808716604084015280861660608401525083608083015260c060a083015261336a60c0830184612c59565b98975050505050505050565b7f496e76616c69644d657373616765466173745769746864726177616c3a0000008152600082516133ae81601d850160208701612c35565b91909101601d0192915050565b6000606082840312156133cd57600080fd5b6040516060810181811067ffffffffffffffff821117156133f0576133f0612df2565b60405282516133fe81612bbe565b8152602083015161340e81612ccb565b602082015261341f6040840161310f565b60408201529392505050565b808202811582820484141761058f5761058f61303b565b60008261345f57634e487b7160e01b600052601260045260246000fd5b500490565b60006020828403121561347657600080fd5b8151610b1181612cbd565b8082018082111561058f5761058f61303b565b6000602082840312156134a657600080fd5b815167ffffffffffffffff8111156134bd57600080fd5b8201601f810184136134ce57600080fd5b80516134dc612ecd82612e86565b8181528560208385010111156134f157600080fd5b613502826020830160208601612c35565b95945050505050565b815167ffffffffffffffff81111561352557613525612df2565b61353981613533845461306a565b84613207565b602080601f83116001811461356e57600084156135565750858301515b600019600386901b1c1916600185901b17855561324d565b600085815260208120601f198616915b8281101561359d5788860151825594840194600190910190840161357e565b50858210156135bb5787850151600019600388901b60f8161c191681555b5050505050600190811b01905550565b60008060008060008060008060006101208a8c0312156135ea57600080fd5b89516135f581612de3565b60208b015190995061360681612de3565b60408b015190985061361781612bbe565b60608b015190975061362881612bbe565b60808b015190965061363981612bbe565b60a08b0151909550935061364f60c08b0161310f565b925060e08a015161365f81612ccb565b6101008b015190925061367181612ccb565b809150509295985092959850929598565b60008083546136908161306a565b600182811680156136a857600181146136bd576136ec565b60ff19841687528215158302870194506136ec565b8760005260208060002060005b858110156136e35781548a8201529084019082016136ca565b50505082870194505b50929695505050505050565b600060208083526000845461370c8161306a565b8084870152604060018084166000811461372d576001811461374757613775565b60ff1985168984015283151560051b890183019550613775565b896000528660002060005b8581101561376d5781548b8201860152908301908801613752565b8a0184019650505b509398975050505050505050565b6000602080838503121561379657600080fd5b825167ffffffffffffffff808211156137ae57600080fd5b818501915085601f8301126137c257600080fd5b8151818111156137d4576137d4612df2565b6137e2848260051b01612e55565b818152848101925060079190911b83018401908782111561380257600080fd5b928401925b8184101561387557608084890312156138205760008081fd5b613828612e32565b845161383381612bbe565b8152848601518682015260408086015161384c81612cbd565b9082015260608581015161385f81612ccb565b9082015283526080939093019291840191613807565b979650505050505050565b7f416363657373436f6e74726f6c3a206163636f756e74200000000000000000008152600083516138b8816017850160208801612c35565b7f206973206d697373696e6720726f6c652000000000000000000000000000000060179184019182015283516138f5816028840160208801612c35565b01602801949350505050565b60008251613913818460208701612c35565b9190910192915050565b634e487b7160e01b600052603160045260246000fd5b6000816139425761394261303b565b50600019019056fea164736f6c6343000812000a",
  "linkReferences": {
    "contracts/libraries/LibFastWithdraw.sol": {
      "LibFastWithdraw": [
        {
          "length": 20,
          "start": 3072
        },
        {
          "length": 20,
          "start": 5043
        },
        {
          "length": 20,
          "start": 6975
        },
        {
          "length": 20,
          "start": 7615
        },
        {
          "length": 20,
          "start": 8502
        }
      ]
    }
  },
  "deployedLinkReferences": {
    "contracts/libraries/LibFastWithdraw.sol": {
      "LibFastWithdraw": [
        {
          "length": 20,
          "start": 3027
        },
        {
          "length": 20,
          "start": 4998
        },
        {
          "length": 20,
          "start": 6930
        },
        {
          "length": 20,
          "start": 7570
        },
        {
          "length": 20,
          "start": 8457
        }
      ]
    }
  }
}