{
  "_format": "hh-sol-artifact-1",
  "contractName": "CandidateInitialize",
  "sourceName": "contracts/fixInitialize/CandidateInitialize.sol",
  "abi": [
    {
      "inputs": [],
      "stateMutability": "nonpayable",
      "type": "constructor"
    },
    {
      "anonymous": false,
      "inputs": [
        {
          "indexed": true,
          "internalType": "bytes32",
          "name": "role",
          "type": "bytes32"
        },
        {
          "indexed": true,
          "internalType": "bytes32",
          "name": "previousAdminRole",
          "type": "bytes32"
        },
        {
          "indexed": true,
          "internalType": "bytes32",
          "name": "newAdminRole",
          "type": "bytes32"
        }
      ],
      "name": "RoleAdminChanged",
      "type": "event"
    },
    {
      "anonymous": false,
      "inputs": [
        {
          "indexed": true,
          "internalType": "bytes32",
          "name": "role",
          "type": "bytes32"
        },
        {
          "indexed": true,
          "internalType": "address",
          "name": "account",
          "type": "address"
        },
        {
          "indexed": true,
          "internalType": "address",
          "name": "sender",
          "type": "address"
        }
      ],
      "name": "RoleGranted",
      "type": "event"
    },
    {
      "anonymous": false,
      "inputs": [
        {
          "indexed": true,
          "internalType": "bytes32",
          "name": "role",
          "type": "bytes32"
        },
        {
          "indexed": true,
          "internalType": "address",
          "name": "account",
          "type": "address"
        },
        {
          "indexed": true,
          "internalType": "address",
          "name": "sender",
          "type": "address"
        }
      ],
      "name": "RoleRevoked",
      "type": "event"
    },
    {
      "inputs": [],
      "name": "ADMIN_ROLE",
      "outputs": [
        {
          "internalType": "bytes32",
          "name": "",
          "type": "bytes32"
        }
      ],
      "stateMutability": "view",
      "type": "function"
    },
    {
      "inputs": [],
      "name": "DEFAULT_ADMIN_ROLE",
      "outputs": [
        {
          "internalType": "bytes32",
          "name": "",
          "type": "bytes32"
        }
      ],
      "stateMutability": "view",
      "type": "function"
    },
    {
      "inputs": [],
      "name": "POLICY_ROLE",
      "outputs": [
        {
          "internalType": "bytes32",
          "name": "",
          "type": "bytes32"
        }
      ],
      "stateMutability": "view",
      "type": "function"
    },
    {
      "inputs": [
        {
          "internalType": "address",
          "name": "account",
          "type": "address"
        }
      ],
      "name": "addAdmin",
      "outputs": [],
      "stateMutability": "nonpayable",
      "type": "function"
    },
    {
      "inputs": [
        {
          "internalType": "address",
          "name": "",
          "type": "address"
        }
      ],
      "name": "aliveImplementation",
      "outputs": [
        {
          "internalType": "bool",
          "name": "",
          "type": "bool"
        }
      ],
      "stateMutability": "view",
      "type": "function"
    },
    {
      "inputs": [
        {
          "internalType": "address",
          "name": "_ton",
          "type": "address"
        },
        {
          "internalType": "address",
          "name": "_seigManagerV2",
          "type": "address"
        },
        {
          "internalType": "address",
          "name": "_layer2Manager",
          "type": "address"
        },
        {
          "internalType": "address",
          "name": "_fwReceipt",
          "type": "address"
        }
      ],
      "name": "fixInitialize",
      "outputs": [],
      "stateMutability": "nonpayable",
      "type": "function"
    },
    {
      "inputs": [],
      "name": "fwReceipt",
      "outputs": [
        {
          "internalType": "address",
          "name": "",
          "type": "address"
        }
      ],
      "stateMutability": "view",
      "type": "function"
    },
    {
      "inputs": [
        {
          "internalType": "bytes32",
          "name": "role",
          "type": "bytes32"
        }
      ],
      "name": "getRoleAdmin",
      "outputs": [
        {
          "internalType": "bytes32",
          "name": "",
          "type": "bytes32"
        }
      ],
      "stateMutability": "view",
      "type": "function"
    },
    {
      "inputs": [
        {
          "internalType": "bytes32",
          "name": "role",
          "type": "bytes32"
        },
        {
          "internalType": "address",
          "name": "account",
          "type": "address"
        }
      ],
      "name": "grantRole",
      "outputs": [],
      "stateMutability": "nonpayable",
      "type": "function"
    },
    {
      "inputs": [
        {
          "internalType": "bytes32",
          "name": "role",
          "type": "bytes32"
        },
        {
          "internalType": "address",
          "name": "account",
          "type": "address"
        }
      ],
      "name": "hasRole",
      "outputs": [
        {
          "internalType": "bool",
          "name": "",
          "type": "bool"
        }
      ],
      "stateMutability": "view",
      "type": "function"
    },
    {
      "inputs": [
        {
          "internalType": "address",
          "name": "account",
          "type": "address"
        }
      ],
      "name": "isAdmin",
      "outputs": [
        {
          "internalType": "bool",
          "name": "",
          "type": "bool"
        }
      ],
      "stateMutability": "view",
      "type": "function"
    },
    {
      "inputs": [],
      "name": "layer2Manager",
      "outputs": [
        {
          "internalType": "address",
          "name": "",
          "type": "address"
        }
      ],
      "stateMutability": "view",
      "type": "function"
    },
    {
      "inputs": [
        {
          "internalType": "uint32",
          "name": "",
          "type": "uint32"
        }
      ],
      "name": "layerInfo",
      "outputs": [
        {
          "internalType": "bytes",
          "name": "",
          "type": "bytes"
        }
      ],
      "stateMutability": "view",
      "type": "function"
    },
    {
      "inputs": [
        {
          "internalType": "uint32",
          "name": "",
          "type": "uint32"
        }
      ],
      "name": "layerStakedLton",
      "outputs": [
        {
          "internalType": "uint256",
          "name": "",
          "type": "uint256"
        }
      ],
      "stateMutability": "view",
      "type": "function"
    },
    {
      "inputs": [
        {
          "internalType": "uint32",
          "name": "",
          "type": "uint32"
        },
        {
          "internalType": "address",
          "name": "",
          "type": "address"
        }
      ],
      "name": "layerStakes",
      "outputs": [
        {
          "internalType": "uint256",
          "name": "stakePrincipal",
          "type": "uint256"
        },
        {
          "internalType": "uint256",
          "name": "stakelton",
          "type": "uint256"
        },
        {
          "internalType": "bool",
          "name": "stake",
          "type": "bool"
        }
      ],
      "stateMutability": "view",
      "type": "function"
    },
    {
      "inputs": [
        {
          "internalType": "uint32",
          "name": "",
          "type": "uint32"
        },
        {
          "internalType": "address",
          "name": "",
          "type": "address"
        }
      ],
      "name": "operators",
      "outputs": [
        {
          "internalType": "uint32",
          "name": "",
          "type": "uint32"
        }
      ],
      "stateMutability": "view",
      "type": "function"
    },
    {
      "inputs": [],
      "name": "pauseProxy",
      "outputs": [
        {
          "internalType": "bool",
          "name": "",
          "type": "bool"
        }
      ],
      "stateMutability": "view",
      "type": "function"
    },
    {
      "inputs": [
        {
          "internalType": "uint32",
          "name": "",
          "type": "uint32"
        },
        {
          "internalType": "address",
          "name": "",
          "type": "address"
        }
      ],
      "name": "pendingUnstaked",
      "outputs": [
        {
          "internalType": "uint256",
          "name": "",
          "type": "uint256"
        }
      ],
      "stateMutability": "view",
      "type": "function"
    },
    {
      "inputs": [
        {
          "internalType": "address",
          "name": "",
          "type": "address"
        }
      ],
      "name": "pendingUnstakedAccount",
      "outputs": [
        {
          "internalType": "uint256",
          "name": "",
          "type": "uint256"
        }
      ],
      "stateMutability": "view",
      "type": "function"
    },
    {
      "inputs": [
        {
          "internalType": "uint32",
          "name": "",
          "type": "uint32"
        }
      ],
      "name": "pendingUnstakedLayer2",
      "outputs": [
        {
          "internalType": "uint256",
          "name": "",
          "type": "uint256"
        }
      ],
      "stateMutability": "view",
      "type": "function"
    },
    {
      "inputs": [
        {
          "internalType": "uint256",
          "name": "",
          "type": "uint256"
        }
      ],
      "name": "proxyImplementation",
      "outputs": [
        {
          "internalType": "address",
          "name": "",
          "type": "address"
        }
      ],
      "stateMutability": "view",
      "type": "function"
    },
    {
      "inputs": [
        {
          "internalType": "address",
          "name": "account",
          "type": "address"
        }
      ],
      "name": "removeAdmin",
      "outputs": [],
      "stateMutability": "nonpayable",
      "type": "function"
    },
    {
      "inputs": [
        {
          "internalType": "bytes32",
          "name": "role",
          "type": "bytes32"
        },
        {
          "internalType": "address",
          "name": "account",
          "type": "address"
        }
      ],
      "name": "renounceRole",
      "outputs": [],
      "stateMutability": "nonpayable",
      "type": "function"
    },
    {
      "inputs": [
        {
          "internalType": "bytes32",
          "name": "role",
          "type": "bytes32"
        },
        {
          "internalType": "address",
          "name": "account",
          "type": "address"
        }
      ],
      "name": "revokeRole",
      "outputs": [],
      "stateMutability": "nonpayable",
      "type": "function"
    },
    {
      "inputs": [],
      "name": "seigManagerV2",
      "outputs": [
        {
          "internalType": "address",
          "name": "",
          "type": "address"
        }
      ],
      "stateMutability": "view",
      "type": "function"
    },
    {
      "inputs": [
        {
          "internalType": "bytes4",
          "name": "",
          "type": "bytes4"
        }
      ],
      "name": "selectorImplementation",
      "outputs": [
        {
          "internalType": "address",
          "name": "",
          "type": "address"
        }
      ],
      "stateMutability": "view",
      "type": "function"
    },
    {
      "inputs": [
        {
          "internalType": "uint256",
          "name": "",
          "type": "uint256"
        }
      ],
      "name": "stakeAccountList",
      "outputs": [
        {
          "internalType": "address",
          "name": "",
          "type": "address"
        }
      ],
      "stateMutability": "view",
      "type": "function"
    },
    {
      "inputs": [
        {
          "internalType": "bytes4",
          "name": "interfaceId",
          "type": "bytes4"
        }
      ],
      "name": "supportsInterface",
      "outputs": [
        {
          "internalType": "bool",
          "name": "",
          "type": "bool"
        }
      ],
      "stateMutability": "view",
      "type": "function"
    },
    {
      "inputs": [],
      "name": "ton",
      "outputs": [
        {
          "internalType": "address",
          "name": "",
          "type": "address"
        }
      ],
      "stateMutability": "view",
      "type": "function"
    },
    {
      "inputs": [
        {
          "internalType": "address",
          "name": "newAdmin",
          "type": "address"
        }
      ],
      "name": "transferAdmin",
      "outputs": [],
      "stateMutability": "nonpayable",
      "type": "function"
    },
    {
      "inputs": [
        {
          "internalType": "uint32",
          "name": "",
          "type": "uint32"
        },
        {
          "internalType": "address",
          "name": "",
          "type": "address"
        }
      ],
      "name": "withdrawalRequestIndex",
      "outputs": [
        {
          "internalType": "uint256",
          "name": "",
          "type": "uint256"
        }
      ],
      "stateMutability": "view",
      "type": "function"
    },
    {
      "inputs": [
        {
          "internalType": "uint32",
          "name": "",
          "type": "uint32"
        },
        {
          "internalType": "address",
          "name": "",
          "type": "address"
        },
        {
          "internalType": "uint256",
          "name": "",
          "type": "uint256"
        }
      ],
      "name": "withdrawalRequests",
      "outputs": [
        {
          "internalType": "uint32",
          "name": "withdrawableBlockNumber",
          "type": "uint32"
        },
        {
          "internalType": "uint128",
          "name": "amount",
          "type": "uint128"
        },
        {
          "internalType": "bool",
          "name": "processed",
          "type": "bool"
        }
      ],
      "stateMutability": "view",
      "type": "function"
    }
  ],
  "bytecode": "0x60806040526006805460ff1916600117905534801561001d57600080fd5b506113a28061002d6000396000f3fe608060405234801561001057600080fd5b50600436106101f05760003560e01c806373469a7a1161010f578063b911135f116100a2578063d547741f11610071578063d547741f146105b2578063e2513174146105c5578063ec110d45146105d8578063fde48197146105eb57600080fd5b8063b911135f1461053e578063b9cab97114610567578063cc48b94714610587578063d07918f11461059f57600080fd5b806391d14854116100de57806391d14854146104855780639c656e26146104bc578063a0b2a91314610516578063a217fddf1461053657600080fd5b806373469a7a1461040d57806375829def1461042057806375b238fc146104335780637cf1587c1461045a57600080fd5b806350d2a27611610187578063659ab82011610156578063659ab820146103725780636d1ef1031461039257806370480275146103da57806370619cf9146103ed57600080fd5b806350d2a276146102ee578063550d01a3146103175780635e2cfe451461033a57806363a8fd891461036557600080fd5b8063248a9ca3116101c3578063248a9ca31461029257806324d7806c146102b55780632f2ff15d146102c857806336568abe146102db57600080fd5b806301ffc9a7146101f557806316b5d5bd1461021d5780631785f53c14610248578063229852461461025d575b600080fd5b610208610203366004611065565b610631565b60405190151581526020015b60405180910390f35b600854610230906001600160a01b031681565b6040516001600160a01b039091168152602001610214565b61025b6102563660046110ab565b610668565b005b6102847ffb5864e8ff833c3cb2d2d08505e82ff02a43554c74a35d4f5a64e8526127831181565b604051908152602001610214565b6102846102a03660046110c6565b60009081526020819052604090206001015490565b6102086102c33660046110ab565b6106fa565b61025b6102d63660046110df565b61073a565b61025b6102e93660046110df565b610764565b6102306102fc366004611065565b6004602052600090815260409020546001600160a01b031681565b6102086103253660046110ab565b60036020526000908152604090205460ff1681565b61028461034836600461111f565b601360209081526000928352604080842090915290825290205481565b6001546102089060ff1681565b610385610380366004611149565b6107f0565b60405161021491906111b4565b6103a56103a03660046111c7565b61088a565b6040805163ffffffff90941684526fffffffffffffffffffffffffffffffff9092166020840152151590820152606001610214565b61025b6103e83660046110ab565b610903565b6102846103fb366004611149565b600d6020526000908152604090205481565b600754610230906001600160a01b031681565b61025b61042e3660046110ab565b61098d565b6102847fdf8b4c520ffe197c5343c6f5aec59570151ef9a492f2c624fd45ddde6135ec4281565b61028461046836600461111f565b601260209081526000928352604080842090915290825290205481565b6102086104933660046110df565b6000918252602082815260408084206001600160a01b0393909316845291905290205460ff1690565b6104f96104ca36600461111f565b600f60209081526000928352604080842090915290825290208054600182015460029092015490919060ff1683565b604080519384526020840192909252151590820152606001610214565b6102846105243660046110ab565b60156020526000908152604090205481565b610284600081565b61023061054c3660046110c6565b6002602052600090815260409020546001600160a01b031681565b610284610575366004611149565b60146020526000908152604090205481565b6006546102309061010090046001600160a01b031681565b600954610230906001600160a01b031681565b61025b6105c03660046110df565b610aef565b61025b6105d3366004611203565b610b14565b6102306105e63660046110c6565b610cdf565b61061c6105f936600461111f565b601860209081526000928352604080842090915290825290205463ffffffff1681565b60405163ffffffff9091168152602001610214565b60006001600160e01b03198216637965db0b60e01b148061066257506301ffc9a760e01b6001600160e01b03198316145b92915050565b610671336106fa565b6106cd5760405162461bcd60e51b815260206004820152602260248201527f41636365737369626c653a2043616c6c6572206973206e6f7420616e2061646d60448201526134b760f11b60648201526084015b60405180910390fd5b6106f77fdf8b4c520ffe197c5343c6f5aec59570151ef9a492f2c624fd45ddde6135ec4282610764565b50565b6001600160a01b03811660009081527f5cbfc8ee58ca47855df7bcf648dd304ddb6b932f9b87878bdf6318d7ec7ee5b7602052604081205460ff16610662565b60008281526020819052604090206001015461075581610d09565b61075f8383610d13565b505050565b6001600160a01b03811633146107e25760405162461bcd60e51b815260206004820152602f60248201527f416363657373436f6e74726f6c3a2063616e206f6e6c792072656e6f756e636560448201527f20726f6c657320666f722073656c66000000000000000000000000000000000060648201526084016106c4565b6107ec8282610db1565b5050565b6016602052600090815260409020805461080990611257565b80601f016020809104026020016040519081016040528092919081815260200182805461083590611257565b80156108825780601f1061085757610100808354040283529160200191610882565b820191906000526020600020905b81548152906001019060200180831161086557829003601f168201915b505050505081565b601160205282600052604060002060205281600052604060002081815481106108b257600080fd5b60009182526020909120015463ffffffff8116935064010000000081046fffffffffffffffffffffffffffffffff16925074010000000000000000000000000000000000000000900460ff16905083565b61090c336106fa565b6109635760405162461bcd60e51b815260206004820152602260248201527f41636365737369626c653a2043616c6c6572206973206e6f7420616e2061646d60448201526134b760f11b60648201526084016106c4565b6106f77fdf8b4c520ffe197c5343c6f5aec59570151ef9a492f2c624fd45ddde6135ec428261073a565b610996336106fa565b6109ed5760405162461bcd60e51b815260206004820152602260248201527f41636365737369626c653a2043616c6c6572206973206e6f7420616e2061646d60448201526134b760f11b60648201526084016106c4565b6001600160a01b038116610a435760405162461bcd60e51b815260206004820152601860248201527f41636365737369626c653a207a65726f2061646472657373000000000000000060448201526064016106c4565b6001600160a01b0381163303610a9b5760405162461bcd60e51b815260206004820152601660248201527f41636365737369626c653a2073616d652061646d696e0000000000000000000060448201526064016106c4565b610ac57fdf8b4c520ffe197c5343c6f5aec59570151ef9a492f2c624fd45ddde6135ec428261073a565b6106f77fdf8b4c520ffe197c5343c6f5aec59570151ef9a492f2c624fd45ddde6135ec4233610764565b600082815260208190526040902060010154610b0a81610d09565b61075f8383610db1565b610b1d336106fa565b610b745760405162461bcd60e51b815260206004820152602260248201527f41636365737369626c653a2043616c6c6572206973206e6f7420616e2061646d60448201526134b760f11b60648201526084016106c4565b836001600160a01b038116610bb05760405162461bcd60e51b81526020600482015260026024820152612d1960f11b60448201526064016106c4565b836001600160a01b038116610bec5760405162461bcd60e51b81526020600482015260026024820152612d1960f11b60448201526064016106c4565b836001600160a01b038116610c285760405162461bcd60e51b81526020600482015260026024820152612d1960f11b60448201526064016106c4565b836001600160a01b038116610c645760405162461bcd60e51b81526020600482015260026024820152612d1960f11b60448201526064016106c4565b50506007805473ffffffffffffffffffffffffffffffffffffffff199081166001600160a01b03978816179091556006805474ffffffffffffffffffffffffffffffffffffffff0019166101009888169890980297909717909655505060088054851692841692909217909155600980549093169116179055565b60178181548110610cef57600080fd5b6000918252602090912001546001600160a01b0316905081565b6106f78133610e30565b6000828152602081815260408083206001600160a01b038516845290915290205460ff166107ec576000828152602081815260408083206001600160a01b03851684529091529020805460ff19166001179055610d6d3390565b6001600160a01b0316816001600160a01b0316837f2f8788117e7eff1d82e926ec794901d17c78024a50270940304540a733656f0d60405160405180910390a45050565b6000828152602081815260408083206001600160a01b038516845290915290205460ff16156107ec576000828152602081815260408083206001600160a01b0385168085529252808320805460ff1916905551339285917ff6391f5c32d9c69d2a47ea670b442974b53935d1edc7fd64eb21e047a839171b9190a45050565b6000828152602081815260408083206001600160a01b038516845290915290205460ff166107ec57610e6181610ea3565b610e6c836020610eb5565b604051602001610e7d929190611291565b60408051601f198184030181529082905262461bcd60e51b82526106c4916004016111b4565b60606106626001600160a01b03831660145b60606000610ec4836002611328565b610ecf90600261133f565b67ffffffffffffffff811115610ee757610ee7611352565b6040519080825280601f01601f191660200182016040528015610f11576020820181803683370190505b509050600360fc1b81600081518110610f2c57610f2c611368565b60200101906001600160f81b031916908160001a905350600f60fb1b81600181518110610f5b57610f5b611368565b60200101906001600160f81b031916908160001a9053506000610f7f846002611328565b610f8a90600161133f565b90505b600181111561100f577f303132333435363738396162636465660000000000000000000000000000000085600f1660108110610fcb57610fcb611368565b1a60f81b828281518110610fe157610fe1611368565b60200101906001600160f81b031916908160001a90535060049490941c936110088161137e565b9050610f8d565b50831561105e5760405162461bcd60e51b815260206004820181905260248201527f537472696e67733a20686578206c656e67746820696e73756666696369656e7460448201526064016106c4565b9392505050565b60006020828403121561107757600080fd5b81356001600160e01b03198116811461105e57600080fd5b80356001600160a01b03811681146110a657600080fd5b919050565b6000602082840312156110bd57600080fd5b61105e8261108f565b6000602082840312156110d857600080fd5b5035919050565b600080604083850312156110f257600080fd5b823591506111026020840161108f565b90509250929050565b803563ffffffff811681146110a657600080fd5b6000806040838503121561113257600080fd5b61113b8361110b565b91506111026020840161108f565b60006020828403121561115b57600080fd5b61105e8261110b565b60005b8381101561117f578181015183820152602001611167565b50506000910152565b600081518084526111a0816020860160208601611164565b601f01601f19169290920160200192915050565b60208152600061105e6020830184611188565b6000806000606084860312156111dc57600080fd5b6111e58461110b565b92506111f36020850161108f565b9150604084013590509250925092565b6000806000806080858703121561121957600080fd5b6112228561108f565b93506112306020860161108f565b925061123e6040860161108f565b915061124c6060860161108f565b905092959194509250565b600181811c9082168061126b57607f821691505b60208210810361128b57634e487b7160e01b600052602260045260246000fd5b50919050565b7f416363657373436f6e74726f6c3a206163636f756e74200000000000000000008152600083516112c9816017850160208801611164565b7f206973206d697373696e6720726f6c65200000000000000000000000000000006017918401918201528351611306816028840160208801611164565b01602801949350505050565b634e487b7160e01b600052601160045260246000fd5b808202811582820484141761066257610662611312565b8082018082111561066257610662611312565b634e487b7160e01b600052604160045260246000fd5b634e487b7160e01b600052603260045260246000fd5b60008161138d5761138d611312565b50600019019056fea164736f6c6343000812000a",
  "linkReferences": {},
  "deployedLinkReferences": {}
}