{
  "_format": "hh-sol-artifact-1",
  "contractName": "SeigManagerV2Storage",
  "sourceName": "contracts/storages/SeigManagerV2Storage.sol",
  "abi": [
    {
      "inputs": [],
      "name": "candidate",
      "outputs": [
        {
          "internalType": "address",
          "name": "",
          "type": "address"
        }
      ],
      "stateMutability": "view",
      "type": "function"
    },
    {
      "inputs": [],
      "name": "dao",
      "outputs": [
        {
          "internalType": "address",
          "name": "",
          "type": "address"
        }
      ],
      "stateMutability": "view",
      "type": "function"
    },
    {
      "inputs": [],
      "name": "lastSeigBlock",
      "outputs": [
        {
          "internalType": "uint256",
          "name": "",
          "type": "uint256"
        }
      ],
      "stateMutability": "view",
      "type": "function"
    },
    {
      "inputs": [],
      "name": "layer2Manager",
      "outputs": [
        {
          "internalType": "address",
          "name": "",
          "type": "address"
        }
      ],
      "stateMutability": "view",
      "type": "function"
    },
    {
      "inputs": [],
      "name": "minimumBlocksForUpdateSeig",
      "outputs": [
        {
          "internalType": "uint32",
          "name": "",
          "type": "uint32"
        }
      ],
      "stateMutability": "view",
      "type": "function"
    },
    {
      "inputs": [],
      "name": "optimismSequencer",
      "outputs": [
        {
          "internalType": "address",
          "name": "",
          "type": "address"
        }
      ],
      "stateMutability": "view",
      "type": "function"
    },
    {
      "inputs": [],
      "name": "ratesDao",
      "outputs": [
        {
          "internalType": "uint16",
          "name": "",
          "type": "uint16"
        }
      ],
      "stateMutability": "view",
      "type": "function"
    },
    {
      "inputs": [],
      "name": "ratesStosHolders",
      "outputs": [
        {
          "internalType": "uint16",
          "name": "",
          "type": "uint16"
        }
      ],
      "stateMutability": "view",
      "type": "function"
    },
    {
      "inputs": [],
      "name": "ratesTonStakers",
      "outputs": [
        {
          "internalType": "uint16",
          "name": "",
          "type": "uint16"
        }
      ],
      "stateMutability": "view",
      "type": "function"
    },
    {
      "inputs": [],
      "name": "ratesUnits",
      "outputs": [
        {
          "internalType": "uint16",
          "name": "",
          "type": "uint16"
        }
      ],
      "stateMutability": "view",
      "type": "function"
    },
    {
      "inputs": [],
      "name": "seigManagerV1",
      "outputs": [
        {
          "internalType": "address",
          "name": "",
          "type": "address"
        }
      ],
      "stateMutability": "view",
      "type": "function"
    },
    {
      "inputs": [],
      "name": "seigPerBlock",
      "outputs": [
        {
          "internalType": "uint256",
          "name": "",
          "type": "uint256"
        }
      ],
      "stateMutability": "view",
      "type": "function"
    },
    {
      "inputs": [
        {
          "internalType": "uint256",
          "name": "",
          "type": "uint256"
        }
      ],
      "name": "snapshotTime",
      "outputs": [
        {
          "internalType": "uint32",
          "name": "",
          "type": "uint32"
        }
      ],
      "stateMutability": "view",
      "type": "function"
    },
    {
      "inputs": [],
      "name": "startBlock",
      "outputs": [
        {
          "internalType": "uint256",
          "name": "",
          "type": "uint256"
        }
      ],
      "stateMutability": "view",
      "type": "function"
    },
    {
      "inputs": [],
      "name": "stosDistribute",
      "outputs": [
        {
          "internalType": "address",
          "name": "",
          "type": "address"
        }
      ],
      "stateMutability": "view",
      "type": "function"
    },
    {
      "inputs": [],
      "name": "ton",
      "outputs": [
        {
          "internalType": "contract IERC20",
          "name": "",
          "type": "address"
        }
      ],
      "stateMutability": "view",
      "type": "function"
    },
    {
      "inputs": [],
      "name": "tot",
      "outputs": [
        {
          "internalType": "address",
          "name": "",
          "type": "address"
        }
      ],
      "stateMutability": "view",
      "type": "function"
    },
    {
      "inputs": [],
      "name": "wton",
      "outputs": [
        {
          "internalType": "address",
          "name": "",
          "type": "address"
        }
      ],
      "stateMutability": "view",
      "type": "function"
    }
  ],
  "bytecode": "0x6080604052600c805460ff60601b19166c0100000000000000000000000017905534801561002c57600080fd5b506103338061003c6000396000f3fe608060405234801561001057600080fd5b50600436106101365760003560e01c80636c8381f8116100b2578063cc48b94711610081578063f1ae4e9f11610066578063f1ae4e9f146102a9578063f35c89e8146102b7578063fb7d324d146102c057600080fd5b8063cc48b94714610283578063da0dc1351461029657600080fd5b80636c8381f8146102325780638b95087b146102455780638d62d9491461025d578063a16d6aa71461027057600080fd5b80634162169f116101095780634ab6b462116100ee5780634ab6b462146101fa5780635f40a3491461021657806363a3a2f51461021f57600080fd5b80634162169f146101d057806348cd4cb1146101e357600080fd5b806316b5d5bd1461013b5780631dc0f9bb1461016b578063247e55451461019357806325dea4b0146101ba575b600080fd5b60065461014e906001600160a01b031681565b6040516001600160a01b0390911681526020015b60405180910390f35b61017e61017936600461030d565b6102d3565b60405163ffffffff9091168152602001610162565b600c546101a79062010000900461ffff1681565b60405161ffff9091168152602001610162565b600c546101a790640100000000900461ffff1681565b60025461014e906001600160a01b031681565b6101ec600b5481565b604051908152602001610162565b600c5461017e9068010000000000000000900463ffffffff1681565b6101ec60095481565b60045461014e906001600160a01b031681565b60085461014e906001600160a01b031681565b600c546101a7906601000000000000900461ffff1681565b60015461014e906001600160a01b031681565b60055461014e906001600160a01b031681565b60005461014e906001600160a01b031681565b60075461014e906001600160a01b031681565b600c546101a79061ffff1681565b6101ec600a5481565b60035461014e906001600160a01b031681565b601181815481106102e357600080fd5b9060005260206000209060089182820401919006600402915054906101000a900463ffffffff1681565b60006020828403121561031f57600080fd5b503591905056fea164736f6c6343000812000a",
  "linkReferences": {},
  "deployedLinkReferences": {}
}