{
  "_format": "hh-sol-artifact-1",
  "contractName": "SeigManagerV2Storage",
  "sourceName": "contracts/storages/SeigManagerV2Storage.sol",
  "abi": [
    {
      "inputs": [],
      "name": "candidate",
      "outputs": [
        {
          "internalType": "address",
          "name": "",
          "type": "address"
        }
      ],
      "stateMutability": "view",
      "type": "function"
    },
    {
      "inputs": [],
      "name": "dao",
      "outputs": [
        {
          "internalType": "address",
          "name": "",
          "type": "address"
        }
      ],
      "stateMutability": "view",
      "type": "function"
    },
    {
      "inputs": [],
      "name": "indexLton",
      "outputs": [
        {
          "internalType": "uint256",
          "name": "",
          "type": "uint256"
        }
      ],
      "stateMutability": "view",
      "type": "function"
    },
    {
      "inputs": [],
      "name": "lastSeigBlock",
      "outputs": [
        {
          "internalType": "uint256",
          "name": "",
          "type": "uint256"
        }
      ],
      "stateMutability": "view",
      "type": "function"
    },
    {
      "inputs": [],
      "name": "layer2Manager",
      "outputs": [
        {
          "internalType": "address",
          "name": "",
          "type": "address"
        }
      ],
      "stateMutability": "view",
      "type": "function"
    },
    {
      "inputs": [],
      "name": "minimumBlocksForUpdateSeig",
      "outputs": [
        {
          "internalType": "uint32",
          "name": "",
          "type": "uint32"
        }
      ],
      "stateMutability": "view",
      "type": "function"
    },
    {
      "inputs": [],
      "name": "optimismSequencer",
      "outputs": [
        {
          "internalType": "address",
          "name": "",
          "type": "address"
        }
      ],
      "stateMutability": "view",
      "type": "function"
    },
    {
      "inputs": [],
      "name": "ratesDao",
      "outputs": [
        {
          "internalType": "uint16",
          "name": "",
          "type": "uint16"
        }
      ],
      "stateMutability": "view",
      "type": "function"
    },
    {
      "inputs": [],
      "name": "ratesStosHolders",
      "outputs": [
        {
          "internalType": "uint16",
          "name": "",
          "type": "uint16"
        }
      ],
      "stateMutability": "view",
      "type": "function"
    },
    {
      "inputs": [],
      "name": "ratesTonStakers",
      "outputs": [
        {
          "internalType": "uint16",
          "name": "",
          "type": "uint16"
        }
      ],
      "stateMutability": "view",
      "type": "function"
    },
    {
      "inputs": [],
      "name": "ratesUnits",
      "outputs": [
        {
          "internalType": "uint16",
          "name": "",
          "type": "uint16"
        }
      ],
      "stateMutability": "view",
      "type": "function"
    },
    {
      "inputs": [],
      "name": "seigManagerV1",
      "outputs": [
        {
          "internalType": "address",
          "name": "",
          "type": "address"
        }
      ],
      "stateMutability": "view",
      "type": "function"
    },
    {
      "inputs": [],
      "name": "seigPerBlock",
      "outputs": [
        {
          "internalType": "uint256",
          "name": "",
          "type": "uint256"
        }
      ],
      "stateMutability": "view",
      "type": "function"
    },
    {
      "inputs": [],
      "name": "startBlock",
      "outputs": [
        {
          "internalType": "uint256",
          "name": "",
          "type": "uint256"
        }
      ],
      "stateMutability": "view",
      "type": "function"
    },
    {
      "inputs": [],
      "name": "stosDistribute",
      "outputs": [
        {
          "internalType": "address",
          "name": "",
          "type": "address"
        }
      ],
      "stateMutability": "view",
      "type": "function"
    },
    {
      "inputs": [],
      "name": "ton",
      "outputs": [
        {
          "internalType": "contract IERC20",
          "name": "",
          "type": "address"
        }
      ],
      "stateMutability": "view",
      "type": "function"
    },
    {
      "inputs": [],
      "name": "tot",
      "outputs": [
        {
          "internalType": "address",
          "name": "",
          "type": "address"
        }
      ],
      "stateMutability": "view",
      "type": "function"
    },
    {
      "inputs": [],
      "name": "wton",
      "outputs": [
        {
          "internalType": "address",
          "name": "",
          "type": "address"
        }
      ],
      "stateMutability": "view",
      "type": "function"
    }
  ],
  "bytecode": "0x6080604052600d805460ff60601b19166c0100000000000000000000000017905534801561002c57600080fd5b506102d68061003c6000396000f3fe608060405234801561001057600080fd5b50600436106101365760003560e01c80636c8381f8116100b2578063cc48b94711610081578063f1ae4e9f11610066578063f1ae4e9f1461029f578063f35c89e8146102ad578063fb7d324d146102b657600080fd5b8063cc48b94714610279578063da0dc1351461028c57600080fd5b80636c8381f8146102285780638b95087b1461023b5780638d62d94914610253578063a16d6aa71461026657600080fd5b806348cd4cb111610109578063558e4376116100ee578063558e4376146102035780635f40a3491461020c57806363a3a2f51461021557600080fd5b806348cd4cb1146101bb5780634ab6b462146101d257600080fd5b806316b5d5bd1461013b578063247e55451461016b57806325dea4b0146101925780634162169f146101a8575b600080fd5b60065461014e906001600160a01b031681565b6040516001600160a01b0390911681526020015b60405180910390f35b600d5461017f9062010000900461ffff1681565b60405161ffff9091168152602001610162565b600d5461017f90640100000000900461ffff1681565b60025461014e906001600160a01b031681565b6101c4600b5481565b604051908152602001610162565b600d546101ee9068010000000000000000900463ffffffff1681565b60405163ffffffff9091168152602001610162565b6101c4600c5481565b6101c460095481565b60045461014e906001600160a01b031681565b60085461014e906001600160a01b031681565b600d5461017f906601000000000000900461ffff1681565b60015461014e906001600160a01b031681565b60055461014e906001600160a01b031681565b60005461014e906001600160a01b031681565b60075461014e906001600160a01b031681565b600d5461017f9061ffff1681565b6101c4600a5481565b60035461014e906001600160a01b03168156fea164736f6c6343000812000a",
  "linkReferences": {},
  "deployedLinkReferences": {}
}