{
  "_format": "hh-sol-artifact-1",
  "contractName": "SeigManagerV2Storage",
  "sourceName": "contracts/storages/SeigManagerV2Storage.sol",
  "abi": [
    {
      "inputs": [],
      "name": "candidate",
      "outputs": [
        {
          "internalType": "address",
          "name": "",
          "type": "address"
        }
      ],
      "stateMutability": "view",
      "type": "function"
    },
    {
      "inputs": [],
      "name": "claimedSeigsOfIndexLton",
      "outputs": [
        {
          "internalType": "uint256",
          "name": "",
          "type": "uint256"
        }
      ],
      "stateMutability": "view",
      "type": "function"
    },
    {
      "inputs": [],
      "name": "claimedSeigsOfOperators",
      "outputs": [
        {
          "internalType": "uint256",
          "name": "",
          "type": "uint256"
        }
      ],
      "stateMutability": "view",
      "type": "function"
    },
    {
      "inputs": [],
      "name": "cumulativeSeigsOfIndexLton",
      "outputs": [
        {
          "internalType": "uint256",
          "name": "",
          "type": "uint256"
        }
      ],
      "stateMutability": "view",
      "type": "function"
    },
    {
      "inputs": [],
      "name": "cumulativeSeigsOfOperators",
      "outputs": [
        {
          "internalType": "uint256",
          "name": "",
          "type": "uint256"
        }
      ],
      "stateMutability": "view",
      "type": "function"
    },
    {
      "inputs": [],
      "name": "dao",
      "outputs": [
        {
          "internalType": "address",
          "name": "",
          "type": "address"
        }
      ],
      "stateMutability": "view",
      "type": "function"
    },
    {
      "inputs": [],
      "name": "lastSeigBlock",
      "outputs": [
        {
          "internalType": "uint256",
          "name": "",
          "type": "uint256"
        }
      ],
      "stateMutability": "view",
      "type": "function"
    },
    {
      "inputs": [],
      "name": "layer2Manager",
      "outputs": [
        {
          "internalType": "address",
          "name": "",
          "type": "address"
        }
      ],
      "stateMutability": "view",
      "type": "function"
    },
    {
      "inputs": [],
      "name": "minimumBlocksForUpdateSeig",
      "outputs": [
        {
          "internalType": "uint32",
          "name": "",
          "type": "uint32"
        }
      ],
      "stateMutability": "view",
      "type": "function"
    },
    {
      "inputs": [],
      "name": "optimismL2Operator",
      "outputs": [
        {
          "internalType": "address",
          "name": "",
          "type": "address"
        }
      ],
      "stateMutability": "view",
      "type": "function"
    },
    {
      "inputs": [],
      "name": "seigManagerV1",
      "outputs": [
        {
          "internalType": "address",
          "name": "",
          "type": "address"
        }
      ],
      "stateMutability": "view",
      "type": "function"
    },
    {
      "inputs": [],
      "name": "seigPerBlock",
      "outputs": [
        {
          "internalType": "uint256",
          "name": "",
          "type": "uint256"
        }
      ],
      "stateMutability": "view",
      "type": "function"
    },
    {
      "inputs": [
        {
          "internalType": "uint256",
          "name": "",
          "type": "uint256"
        }
      ],
      "name": "snapshotTime",
      "outputs": [
        {
          "internalType": "uint32",
          "name": "",
          "type": "uint32"
        }
      ],
      "stateMutability": "view",
      "type": "function"
    },
    {
      "inputs": [],
      "name": "startBlock",
      "outputs": [
        {
          "internalType": "uint256",
          "name": "",
          "type": "uint256"
        }
      ],
      "stateMutability": "view",
      "type": "function"
    },
    {
      "inputs": [],
      "name": "ton",
      "outputs": [
        {
          "internalType": "contract IERC20",
          "name": "",
          "type": "address"
        }
      ],
      "stateMutability": "view",
      "type": "function"
    },
    {
      "inputs": [],
      "name": "tot",
      "outputs": [
        {
          "internalType": "address",
          "name": "",
          "type": "address"
        }
      ],
      "stateMutability": "view",
      "type": "function"
    },
    {
      "inputs": [],
      "name": "wton",
      "outputs": [
        {
          "internalType": "address",
          "name": "",
          "type": "address"
        }
      ],
      "stateMutability": "view",
      "type": "function"
    }
  ],
  "bytecode": "0x60806040526010805460ff1916600117905534801561001d57600080fd5b506102ba8061002d6000396000f3fe608060405234801561001057600080fd5b506004361061011b5760003560e01c806363a3a2f5116100b2578063a16d6aa711610081578063ec558b1611610066578063ec558b1614610235578063f2854fc414610248578063f35c89e81461025157600080fd5b8063a16d6aa71461020f578063cc48b9471461022257600080fd5b806363a3a2f5146101cd5780636c8381f8146101e05780636fab0d4f146101f35780638d62d949146101fc57600080fd5b80634ab6b462116100ee5780634ab6b462146101a25780635c7f252c146101b25780635f40a349146101bb5780636342661b146101c457600080fd5b806316b5d5bd146101205780631dc0f9bb146101505780634162169f1461017857806348cd4cb11461018b575b600080fd5b600554610133906001600160a01b031681565b6040516001600160a01b0390911681526020015b60405180910390f35b61016361015e366004610294565b61025a565b60405163ffffffff9091168152602001610147565b600254610133906001600160a01b031681565b610194600a5481565b604051908152602001610147565b600b546101639063ffffffff1681565b610194600d5481565b61019460085481565b610194600c5481565b600354610133906001600160a01b031681565b600754610133906001600160a01b031681565b610194600e5481565b600154610133906001600160a01b031681565b600454610133906001600160a01b031681565b600054610133906001600160a01b031681565b600654610133906001600160a01b031681565b610194600f5481565b61019460095481565b6015818154811061026a57600080fd5b9060005260206000209060089182820401919006600402915054906101000a900463ffffffff1681565b6000602082840312156102a657600080fd5b503591905056fea164736f6c6343000812000a",
  "linkReferences": {},
  "deployedLinkReferences": {}
}