{
  "_format": "hh-sol-artifact-1",
  "contractName": "OptimismL2Operator",
  "sourceName": "contracts/OptimismL2Operator.sol",
  "abi": [
    {
      "inputs": [],
      "stateMutability": "nonpayable",
      "type": "constructor"
    },
    {
      "anonymous": false,
      "inputs": [
        {
          "indexed": false,
          "internalType": "bytes32",
          "name": "hashMessage",
          "type": "bytes32"
        },
        {
          "indexed": false,
          "internalType": "uint32",
          "name": "layerIndex",
          "type": "uint32"
        },
        {
          "indexed": false,
          "internalType": "address",
          "name": "from",
          "type": "address"
        },
        {
          "indexed": false,
          "internalType": "address",
          "name": "to",
          "type": "address"
        },
        {
          "indexed": false,
          "internalType": "uint256",
          "name": "amount",
          "type": "uint256"
        }
      ],
      "name": "FastWithdrawalClaim",
      "type": "event"
    },
    {
      "anonymous": false,
      "inputs": [
        {
          "indexed": false,
          "internalType": "bytes32",
          "name": "hashMessage",
          "type": "bytes32"
        },
        {
          "indexed": false,
          "internalType": "uint32",
          "name": "layerIndex",
          "type": "uint32"
        },
        {
          "indexed": false,
          "internalType": "address",
          "name": "staker",
          "type": "address"
        },
        {
          "indexed": false,
          "internalType": "uint256",
          "name": "amount",
          "type": "uint256"
        },
        {
          "indexed": false,
          "internalType": "uint256",
          "name": "lton",
          "type": "uint256"
        }
      ],
      "name": "FastWithdrawalStaked",
      "type": "event"
    },
    {
      "anonymous": false,
      "inputs": [
        {
          "indexed": false,
          "internalType": "uint32",
          "name": "operatorIndex",
          "type": "uint32"
        },
        {
          "indexed": false,
          "internalType": "uint32",
          "name": "candidateIndex",
          "type": "uint32"
        },
        {
          "indexed": false,
          "internalType": "address",
          "name": "sender",
          "type": "address"
        },
        {
          "indexed": false,
          "internalType": "uint256",
          "name": "amount",
          "type": "uint256"
        },
        {
          "indexed": false,
          "internalType": "uint256",
          "name": "lton",
          "type": "uint256"
        }
      ],
      "name": "Restaked",
      "type": "event"
    },
    {
      "anonymous": false,
      "inputs": [
        {
          "indexed": true,
          "internalType": "bytes32",
          "name": "role",
          "type": "bytes32"
        },
        {
          "indexed": true,
          "internalType": "bytes32",
          "name": "previousAdminRole",
          "type": "bytes32"
        },
        {
          "indexed": true,
          "internalType": "bytes32",
          "name": "newAdminRole",
          "type": "bytes32"
        }
      ],
      "name": "RoleAdminChanged",
      "type": "event"
    },
    {
      "anonymous": false,
      "inputs": [
        {
          "indexed": true,
          "internalType": "bytes32",
          "name": "role",
          "type": "bytes32"
        },
        {
          "indexed": true,
          "internalType": "address",
          "name": "account",
          "type": "address"
        },
        {
          "indexed": true,
          "internalType": "address",
          "name": "sender",
          "type": "address"
        }
      ],
      "name": "RoleGranted",
      "type": "event"
    },
    {
      "anonymous": false,
      "inputs": [
        {
          "indexed": true,
          "internalType": "bytes32",
          "name": "role",
          "type": "bytes32"
        },
        {
          "indexed": true,
          "internalType": "address",
          "name": "account",
          "type": "address"
        },
        {
          "indexed": true,
          "internalType": "address",
          "name": "sender",
          "type": "address"
        }
      ],
      "name": "RoleRevoked",
      "type": "event"
    },
    {
      "anonymous": false,
      "inputs": [
        {
          "indexed": false,
          "internalType": "uint32",
          "name": "operatorIndex",
          "type": "uint32"
        },
        {
          "indexed": false,
          "internalType": "uint32",
          "name": "candidateIndex",
          "type": "uint32"
        },
        {
          "indexed": false,
          "internalType": "address",
          "name": "sender",
          "type": "address"
        },
        {
          "indexed": false,
          "internalType": "uint256",
          "name": "amount",
          "type": "uint256"
        },
        {
          "indexed": false,
          "internalType": "uint256",
          "name": "lton",
          "type": "uint256"
        },
        {
          "indexed": false,
          "internalType": "address",
          "name": "commissionTo",
          "type": "address"
        },
        {
          "indexed": false,
          "internalType": "uint256",
          "name": "commissionLton",
          "type": "uint256"
        }
      ],
      "name": "Staked",
      "type": "event"
    },
    {
      "anonymous": false,
      "inputs": [
        {
          "indexed": false,
          "internalType": "uint32",
          "name": "operatorIndex",
          "type": "uint32"
        },
        {
          "indexed": false,
          "internalType": "uint32",
          "name": "candidateIndex",
          "type": "uint32"
        },
        {
          "indexed": false,
          "internalType": "address",
          "name": "sender",
          "type": "address"
        },
        {
          "indexed": false,
          "internalType": "uint256",
          "name": "amount",
          "type": "uint256"
        },
        {
          "indexed": false,
          "internalType": "uint256",
          "name": "lton",
          "type": "uint256"
        }
      ],
      "name": "Unstaked",
      "type": "event"
    },
    {
      "anonymous": false,
      "inputs": [
        {
          "indexed": false,
          "internalType": "uint32",
          "name": "operatorIndex",
          "type": "uint32"
        },
        {
          "indexed": false,
          "internalType": "uint32",
          "name": "candidateIndex",
          "type": "uint32"
        },
        {
          "indexed": false,
          "internalType": "address",
          "name": "sender",
          "type": "address"
        },
        {
          "indexed": false,
          "internalType": "uint256",
          "name": "amount",
          "type": "uint256"
        }
      ],
      "name": "Withdrawal",
      "type": "event"
    },
    {
      "inputs": [],
      "name": "ADMIN_ROLE",
      "outputs": [
        {
          "internalType": "bytes32",
          "name": "",
          "type": "bytes32"
        }
      ],
      "stateMutability": "view",
      "type": "function"
    },
    {
      "inputs": [],
      "name": "DEFAULT_ADMIN_ROLE",
      "outputs": [
        {
          "internalType": "bytes32",
          "name": "",
          "type": "bytes32"
        }
      ],
      "stateMutability": "view",
      "type": "function"
    },
    {
      "inputs": [
        {
          "internalType": "address",
          "name": "addressManager",
          "type": "address"
        }
      ],
      "name": "L1CrossDomainMessenger",
      "outputs": [
        {
          "internalType": "address",
          "name": "account_",
          "type": "address"
        }
      ],
      "stateMutability": "view",
      "type": "function"
    },
    {
      "inputs": [
        {
          "internalType": "address",
          "name": "addressManager",
          "type": "address"
        }
      ],
      "name": "L1StandardBridge",
      "outputs": [
        {
          "internalType": "address",
          "name": "account_",
          "type": "address"
        }
      ],
      "stateMutability": "view",
      "type": "function"
    },
    {
      "inputs": [],
      "name": "POLICY_ROLE",
      "outputs": [
        {
          "internalType": "bytes32",
          "name": "",
          "type": "bytes32"
        }
      ],
      "stateMutability": "view",
      "type": "function"
    },
    {
      "inputs": [
        {
          "internalType": "address",
          "name": "account",
          "type": "address"
        }
      ],
      "name": "addAdmin",
      "outputs": [],
      "stateMutability": "nonpayable",
      "type": "function"
    },
    {
      "inputs": [
        {
          "internalType": "address",
          "name": "",
          "type": "address"
        }
      ],
      "name": "aliveImplementation",
      "outputs": [
        {
          "internalType": "bool",
          "name": "",
          "type": "bool"
        }
      ],
      "stateMutability": "view",
      "type": "function"
    },
    {
      "inputs": [
        {
          "internalType": "uint32",
          "name": "layerIndex",
          "type": "uint32"
        },
        {
          "internalType": "address",
          "name": "account",
          "type": "address"
        }
      ],
      "name": "amountOfPendings",
      "outputs": [
        {
          "internalType": "uint256",
          "name": "amount",
          "type": "uint256"
        },
        {
          "internalType": "uint32",
          "name": "startIndex",
          "type": "uint32"
        },
        {
          "internalType": "uint32",
          "name": "len",
          "type": "uint32"
        },
        {
          "internalType": "uint32",
          "name": "nextWithdrawableBlockNumber",
          "type": "uint32"
        }
      ],
      "stateMutability": "view",
      "type": "function"
    },
    {
      "inputs": [
        {
          "internalType": "uint32",
          "name": "_index",
          "type": "uint32"
        },
        {
          "internalType": "address",
          "name": "account",
          "type": "address"
        }
      ],
      "name": "availableWithdraw",
      "outputs": [
        {
          "internalType": "uint256",
          "name": "amount",
          "type": "uint256"
        },
        {
          "internalType": "uint32",
          "name": "startIndex",
          "type": "uint32"
        },
        {
          "internalType": "uint32",
          "name": "len",
          "type": "uint32"
        }
      ],
      "stateMutability": "view",
      "type": "function"
    },
    {
      "inputs": [
        {
          "internalType": "uint32",
          "name": "_index",
          "type": "uint32"
        },
        {
          "internalType": "address",
          "name": "account",
          "type": "address"
        }
      ],
      "name": "balanceOf",
      "outputs": [
        {
          "internalType": "uint256",
          "name": "amount",
          "type": "uint256"
        }
      ],
      "stateMutability": "view",
      "type": "function"
    },
    {
      "inputs": [
        {
          "internalType": "uint32",
          "name": "_index",
          "type": "uint32"
        },
        {
          "internalType": "address",
          "name": "account",
          "type": "address"
        },
        {
          "internalType": "uint256",
          "name": "snapshotId",
          "type": "uint256"
        }
      ],
      "name": "balanceOfAt",
      "outputs": [
        {
          "internalType": "uint256",
          "name": "amount",
          "type": "uint256"
        }
      ],
      "stateMutability": "view",
      "type": "function"
    },
    {
      "inputs": [
        {
          "internalType": "uint32",
          "name": "_index",
          "type": "uint32"
        },
        {
          "internalType": "address",
          "name": "account",
          "type": "address"
        }
      ],
      "name": "balanceOfLton",
      "outputs": [
        {
          "internalType": "uint256",
          "name": "amount",
          "type": "uint256"
        }
      ],
      "stateMutability": "view",
      "type": "function"
    },
    {
      "inputs": [
        {
          "internalType": "uint32",
          "name": "_index",
          "type": "uint32"
        }
      ],
      "name": "balanceOfLton",
      "outputs": [
        {
          "internalType": "uint256",
          "name": "amount",
          "type": "uint256"
        }
      ],
      "stateMutability": "view",
      "type": "function"
    },
    {
      "inputs": [
        {
          "internalType": "uint32",
          "name": "_index",
          "type": "uint32"
        },
        {
          "internalType": "address",
          "name": "account",
          "type": "address"
        },
        {
          "internalType": "uint256",
          "name": "snapshotId",
          "type": "uint256"
        }
      ],
      "name": "balanceOfLtonAt",
      "outputs": [
        {
          "internalType": "uint256",
          "name": "amount",
          "type": "uint256"
        }
      ],
      "stateMutability": "view",
      "type": "function"
    },
    {
      "inputs": [
        {
          "internalType": "uint32",
          "name": "_index",
          "type": "uint32"
        },
        {
          "internalType": "uint256",
          "name": "snapshotId",
          "type": "uint256"
        }
      ],
      "name": "balanceOfLtonAt",
      "outputs": [
        {
          "internalType": "uint256",
          "name": "amount",
          "type": "uint256"
        }
      ],
      "stateMutability": "view",
      "type": "function"
    },
    {
      "inputs": [
        {
          "internalType": "uint32",
          "name": "_index",
          "type": "uint32"
        },
        {
          "internalType": "uint256",
          "name": "snapshotId",
          "type": "uint256"
        }
      ],
      "name": "balanceOfLtonAtSnapshot",
      "outputs": [
        {
          "internalType": "bool",
          "name": "snapshotted",
          "type": "bool"
        },
        {
          "internalType": "uint256",
          "name": "amount",
          "type": "uint256"
        }
      ],
      "stateMutability": "view",
      "type": "function"
    },
    {
      "inputs": [
        {
          "internalType": "uint32",
          "name": "_index",
          "type": "uint32"
        },
        {
          "internalType": "address",
          "name": "account",
          "type": "address"
        },
        {
          "internalType": "uint256",
          "name": "snapshotId",
          "type": "uint256"
        }
      ],
      "name": "balanceOfLtonAtSnapshot",
      "outputs": [
        {
          "internalType": "bool",
          "name": "snapshotted",
          "type": "bool"
        },
        {
          "internalType": "uint256",
          "name": "amount",
          "type": "uint256"
        }
      ],
      "stateMutability": "view",
      "type": "function"
    },
    {
      "inputs": [
        {
          "internalType": "uint32",
          "name": "_index",
          "type": "uint32"
        }
      ],
      "name": "bridges",
      "outputs": [
        {
          "internalType": "address",
          "name": "",
          "type": "address"
        },
        {
          "internalType": "address",
          "name": "",
          "type": "address"
        }
      ],
      "stateMutability": "view",
      "type": "function"
    },
    {
      "inputs": [
        {
          "internalType": "uint32",
          "name": "_index",
          "type": "uint32"
        },
        {
          "internalType": "bytes",
          "name": "_layerInfo",
          "type": "bytes"
        }
      ],
      "name": "create",
      "outputs": [
        {
          "internalType": "bool",
          "name": "",
          "type": "bool"
        }
      ],
      "stateMutability": "nonpayable",
      "type": "function"
    },
    {
      "inputs": [
        {
          "internalType": "uint32",
          "name": "_index",
          "type": "uint32"
        }
      ],
      "name": "existedIndex",
      "outputs": [
        {
          "internalType": "bool",
          "name": "",
          "type": "bool"
        }
      ],
      "stateMutability": "view",
      "type": "function"
    },
    {
      "inputs": [
        {
          "internalType": "bytes32",
          "name": "hashMessage",
          "type": "bytes32"
        },
        {
          "internalType": "uint32",
          "name": "layerIndex",
          "type": "uint32"
        },
        {
          "internalType": "address",
          "name": "from",
          "type": "address"
        },
        {
          "internalType": "address",
          "name": "to",
          "type": "address"
        },
        {
          "internalType": "uint256",
          "name": "amount",
          "type": "uint256"
        }
      ],
      "name": "fastWithdrawClaim",
      "outputs": [
        {
          "internalType": "bool",
          "name": "",
          "type": "bool"
        }
      ],
      "stateMutability": "nonpayable",
      "type": "function"
    },
    {
      "inputs": [
        {
          "internalType": "bytes32",
          "name": "hashMessage",
          "type": "bytes32"
        },
        {
          "internalType": "uint32",
          "name": "layerIndex",
          "type": "uint32"
        },
        {
          "internalType": "address",
          "name": "staker",
          "type": "address"
        },
        {
          "internalType": "uint256",
          "name": "_amount",
          "type": "uint256"
        }
      ],
      "name": "fastWithdrawStake",
      "outputs": [
        {
          "internalType": "bool",
          "name": "",
          "type": "bool"
        }
      ],
      "stateMutability": "nonpayable",
      "type": "function"
    },
    {
      "inputs": [],
      "name": "fwReceipt",
      "outputs": [
        {
          "internalType": "address",
          "name": "",
          "type": "address"
        }
      ],
      "stateMutability": "view",
      "type": "function"
    },
    {
      "inputs": [],
      "name": "getCurrentSnapshotId",
      "outputs": [
        {
          "internalType": "uint256",
          "name": "",
          "type": "uint256"
        }
      ],
      "stateMutability": "view",
      "type": "function"
    },
    {
      "inputs": [
        {
          "internalType": "uint32",
          "name": "_index",
          "type": "uint32"
        }
      ],
      "name": "getLayerInfo",
      "outputs": [
        {
          "components": [
            {
              "internalType": "address",
              "name": "addressManager",
              "type": "address"
            },
            {
              "internalType": "address",
              "name": "l1Bridge",
              "type": "address"
            },
            {
              "internalType": "address",
              "name": "l2Bridge",
              "type": "address"
            },
            {
              "internalType": "address",
              "name": "l2ton",
              "type": "address"
            }
          ],
          "internalType": "struct LibOptimism.Info",
          "name": "_layerInfo",
          "type": "tuple"
        }
      ],
      "stateMutability": "view",
      "type": "function"
    },
    {
      "inputs": [
        {
          "internalType": "uint32",
          "name": "_index",
          "type": "uint32"
        }
      ],
      "name": "getLayerKey",
      "outputs": [
        {
          "internalType": "bytes32",
          "name": "layerKey_",
          "type": "bytes32"
        }
      ],
      "stateMutability": "view",
      "type": "function"
    },
    {
      "inputs": [
        {
          "internalType": "uint32",
          "name": "_index",
          "type": "uint32"
        },
        {
          "internalType": "address",
          "name": "account",
          "type": "address"
        }
      ],
      "name": "getLayerStakes",
      "outputs": [
        {
          "components": [
            {
              "internalType": "uint256",
              "name": "stakePrincipal",
              "type": "uint256"
            },
            {
              "internalType": "uint256",
              "name": "stakelton",
              "type": "uint256"
            },
            {
              "internalType": "bool",
              "name": "stake",
              "type": "bool"
            }
          ],
          "internalType": "struct LibStake.StakeInfo",
          "name": "info",
          "type": "tuple"
        }
      ],
      "stateMutability": "view",
      "type": "function"
    },
    {
      "inputs": [
        {
          "internalType": "uint32",
          "name": "_index",
          "type": "uint32"
        },
        {
          "internalType": "address",
          "name": "account",
          "type": "address"
        }
      ],
      "name": "getPendingUnstakedAmount",
      "outputs": [
        {
          "internalType": "uint256",
          "name": "",
          "type": "uint256"
        }
      ],
      "stateMutability": "view",
      "type": "function"
    },
    {
      "inputs": [
        {
          "internalType": "bytes32",
          "name": "role",
          "type": "bytes32"
        }
      ],
      "name": "getRoleAdmin",
      "outputs": [
        {
          "internalType": "bytes32",
          "name": "",
          "type": "bytes32"
        }
      ],
      "stateMutability": "view",
      "type": "function"
    },
    {
      "inputs": [],
      "name": "getStakeAccountList",
      "outputs": [
        {
          "internalType": "address[]",
          "name": "",
          "type": "address[]"
        }
      ],
      "stateMutability": "view",
      "type": "function"
    },
    {
      "inputs": [],
      "name": "getTotalLton",
      "outputs": [
        {
          "internalType": "uint256",
          "name": "",
          "type": "uint256"
        }
      ],
      "stateMutability": "view",
      "type": "function"
    },
    {
      "inputs": [
        {
          "internalType": "uint32",
          "name": "_index",
          "type": "uint32"
        }
      ],
      "name": "getTvl",
      "outputs": [
        {
          "internalType": "uint256",
          "name": "amount",
          "type": "uint256"
        }
      ],
      "stateMutability": "view",
      "type": "function"
    },
    {
      "inputs": [
        {
          "internalType": "address",
          "name": "l1Bridge",
          "type": "address"
        },
        {
          "internalType": "address",
          "name": "l2ton",
          "type": "address"
        }
      ],
      "name": "getTvl",
      "outputs": [
        {
          "internalType": "uint256",
          "name": "amount",
          "type": "uint256"
        }
      ],
      "stateMutability": "view",
      "type": "function"
    },
    {
      "inputs": [
        {
          "internalType": "bytes32",
          "name": "role",
          "type": "bytes32"
        },
        {
          "internalType": "address",
          "name": "account",
          "type": "address"
        }
      ],
      "name": "grantRole",
      "outputs": [],
      "stateMutability": "nonpayable",
      "type": "function"
    },
    {
      "inputs": [
        {
          "internalType": "bytes32",
          "name": "role",
          "type": "bytes32"
        },
        {
          "internalType": "address",
          "name": "account",
          "type": "address"
        }
      ],
      "name": "hasRole",
      "outputs": [
        {
          "internalType": "bool",
          "name": "",
          "type": "bool"
        }
      ],
      "stateMutability": "view",
      "type": "function"
    },
    {
      "inputs": [
        {
          "internalType": "address",
          "name": "account",
          "type": "address"
        }
      ],
      "name": "isAdmin",
      "outputs": [
        {
          "internalType": "bool",
          "name": "",
          "type": "bool"
        }
      ],
      "stateMutability": "view",
      "type": "function"
    },
    {
      "inputs": [
        {
          "internalType": "uint32",
          "name": "_index",
          "type": "uint32"
        }
      ],
      "name": "layer2Deposits",
      "outputs": [
        {
          "internalType": "uint256",
          "name": "amount",
          "type": "uint256"
        }
      ],
      "stateMutability": "view",
      "type": "function"
    },
    {
      "inputs": [],
      "name": "layer2Manager",
      "outputs": [
        {
          "internalType": "address",
          "name": "",
          "type": "address"
        }
      ],
      "stateMutability": "view",
      "type": "function"
    },
    {
      "inputs": [
        {
          "internalType": "uint32",
          "name": "",
          "type": "uint32"
        }
      ],
      "name": "layerInfo",
      "outputs": [
        {
          "internalType": "bytes",
          "name": "",
          "type": "bytes"
        }
      ],
      "stateMutability": "view",
      "type": "function"
    },
    {
      "inputs": [
        {
          "internalType": "uint32",
          "name": "",
          "type": "uint32"
        }
      ],
      "name": "layerStakedLton",
      "outputs": [
        {
          "internalType": "uint256",
          "name": "",
          "type": "uint256"
        }
      ],
      "stateMutability": "view",
      "type": "function"
    },
    {
      "inputs": [
        {
          "internalType": "uint32",
          "name": "",
          "type": "uint32"
        },
        {
          "internalType": "address",
          "name": "",
          "type": "address"
        }
      ],
      "name": "layerStakes",
      "outputs": [
        {
          "internalType": "uint256",
          "name": "stakePrincipal",
          "type": "uint256"
        },
        {
          "internalType": "uint256",
          "name": "stakelton",
          "type": "uint256"
        },
        {
          "internalType": "bool",
          "name": "stake",
          "type": "bool"
        }
      ],
      "stateMutability": "view",
      "type": "function"
    },
    {
      "inputs": [
        {
          "internalType": "uint32",
          "name": "layerIndex",
          "type": "uint32"
        },
        {
          "internalType": "address",
          "name": "account",
          "type": "address"
        }
      ],
      "name": "numberOfPendings",
      "outputs": [
        {
          "internalType": "uint256",
          "name": "totalRequests",
          "type": "uint256"
        },
        {
          "internalType": "uint256",
          "name": "withdrawIndex",
          "type": "uint256"
        },
        {
          "internalType": "uint256",
          "name": "pendingLength",
          "type": "uint256"
        }
      ],
      "stateMutability": "view",
      "type": "function"
    },
    {
      "inputs": [
        {
          "internalType": "address",
          "name": "sender",
          "type": "address"
        },
        {
          "internalType": "address",
          "name": "spender",
          "type": "address"
        },
        {
          "internalType": "uint256",
          "name": "amount",
          "type": "uint256"
        },
        {
          "internalType": "bytes",
          "name": "data",
          "type": "bytes"
        }
      ],
      "name": "onApprove",
      "outputs": [
        {
          "internalType": "bool",
          "name": "",
          "type": "bool"
        }
      ],
      "stateMutability": "nonpayable",
      "type": "function"
    },
    {
      "inputs": [
        {
          "internalType": "uint32",
          "name": "_index",
          "type": "uint32"
        }
      ],
      "name": "operator",
      "outputs": [
        {
          "internalType": "address",
          "name": "operator_",
          "type": "address"
        }
      ],
      "stateMutability": "view",
      "type": "function"
    },
    {
      "inputs": [
        {
          "internalType": "address",
          "name": "addressManager",
          "type": "address"
        }
      ],
      "name": "operator",
      "outputs": [
        {
          "internalType": "address",
          "name": "operator_",
          "type": "address"
        }
      ],
      "stateMutability": "view",
      "type": "function"
    },
    {
      "inputs": [],
      "name": "pauseProxy",
      "outputs": [
        {
          "internalType": "bool",
          "name": "",
          "type": "bool"
        }
      ],
      "stateMutability": "view",
      "type": "function"
    },
    {
      "inputs": [
        {
          "internalType": "uint32",
          "name": "",
          "type": "uint32"
        },
        {
          "internalType": "address",
          "name": "",
          "type": "address"
        }
      ],
      "name": "pendingUnstaked",
      "outputs": [
        {
          "internalType": "uint256",
          "name": "",
          "type": "uint256"
        }
      ],
      "stateMutability": "view",
      "type": "function"
    },
    {
      "inputs": [
        {
          "internalType": "address",
          "name": "",
          "type": "address"
        }
      ],
      "name": "pendingUnstakedAccount",
      "outputs": [
        {
          "internalType": "uint256",
          "name": "",
          "type": "uint256"
        }
      ],
      "stateMutability": "view",
      "type": "function"
    },
    {
      "inputs": [
        {
          "internalType": "uint32",
          "name": "",
          "type": "uint32"
        }
      ],
      "name": "pendingUnstakedLayer2",
      "outputs": [
        {
          "internalType": "uint256",
          "name": "",
          "type": "uint256"
        }
      ],
      "stateMutability": "view",
      "type": "function"
    },
    {
      "inputs": [
        {
          "internalType": "uint256",
          "name": "",
          "type": "uint256"
        }
      ],
      "name": "proxyImplementation",
      "outputs": [
        {
          "internalType": "address",
          "name": "",
          "type": "address"
        }
      ],
      "stateMutability": "view",
      "type": "function"
    },
    {
      "inputs": [
        {
          "internalType": "address",
          "name": "account",
          "type": "address"
        }
      ],
      "name": "removeAdmin",
      "outputs": [],
      "stateMutability": "nonpayable",
      "type": "function"
    },
    {
      "inputs": [
        {
          "internalType": "bytes32",
          "name": "role",
          "type": "bytes32"
        },
        {
          "internalType": "address",
          "name": "account",
          "type": "address"
        }
      ],
      "name": "renounceRole",
      "outputs": [],
      "stateMutability": "nonpayable",
      "type": "function"
    },
    {
      "inputs": [
        {
          "internalType": "uint32",
          "name": "_index",
          "type": "uint32"
        },
        {
          "internalType": "bool",
          "name": "isCandidate",
          "type": "bool"
        }
      ],
      "name": "restake",
      "outputs": [],
      "stateMutability": "nonpayable",
      "type": "function"
    },
    {
      "inputs": [
        {
          "internalType": "uint32",
          "name": "_index",
          "type": "uint32"
        },
        {
          "internalType": "uint256",
          "name": "n",
          "type": "uint256"
        },
        {
          "internalType": "bool",
          "name": "isCandidate",
          "type": "bool"
        }
      ],
      "name": "restakeMulti",
      "outputs": [],
      "stateMutability": "nonpayable",
      "type": "function"
    },
    {
      "inputs": [
        {
          "internalType": "bytes32",
          "name": "role",
          "type": "bytes32"
        },
        {
          "internalType": "address",
          "name": "account",
          "type": "address"
        }
      ],
      "name": "revokeRole",
      "outputs": [],
      "stateMutability": "nonpayable",
      "type": "function"
    },
    {
      "inputs": [],
      "name": "seigManagerV2",
      "outputs": [
        {
          "internalType": "address",
          "name": "",
          "type": "address"
        }
      ],
      "stateMutability": "view",
      "type": "function"
    },
    {
      "inputs": [
        {
          "internalType": "bytes4",
          "name": "",
          "type": "bytes4"
        }
      ],
      "name": "selectorImplementation",
      "outputs": [
        {
          "internalType": "address",
          "name": "",
          "type": "address"
        }
      ],
      "stateMutability": "view",
      "type": "function"
    },
    {
      "inputs": [
        {
          "internalType": "uint32",
          "name": "_index",
          "type": "uint32"
        },
        {
          "internalType": "uint256",
          "name": "amount",
          "type": "uint256"
        }
      ],
      "name": "stake",
      "outputs": [],
      "stateMutability": "nonpayable",
      "type": "function"
    },
    {
      "inputs": [
        {
          "internalType": "uint256",
          "name": "",
          "type": "uint256"
        }
      ],
      "name": "stakeAccountList",
      "outputs": [
        {
          "internalType": "address",
          "name": "",
          "type": "address"
        }
      ],
      "stateMutability": "view",
      "type": "function"
    },
    {
      "inputs": [
        {
          "internalType": "bytes4",
          "name": "interfaceId",
          "type": "bytes4"
        }
      ],
      "name": "supportsInterface",
      "outputs": [
        {
          "internalType": "bool",
          "name": "",
          "type": "bool"
        }
      ],
      "stateMutability": "view",
      "type": "function"
    },
    {
      "inputs": [],
      "name": "ton",
      "outputs": [
        {
          "internalType": "address",
          "name": "",
          "type": "address"
        }
      ],
      "stateMutability": "view",
      "type": "function"
    },
    {
      "inputs": [],
      "name": "totalLayer2Deposits",
      "outputs": [
        {
          "internalType": "uint256",
          "name": "amount",
          "type": "uint256"
        }
      ],
      "stateMutability": "view",
      "type": "function"
    },
    {
      "inputs": [],
      "name": "totalStakeAccountList",
      "outputs": [
        {
          "internalType": "uint256",
          "name": "",
          "type": "uint256"
        }
      ],
      "stateMutability": "view",
      "type": "function"
    },
    {
      "inputs": [],
      "name": "totalStakedLton",
      "outputs": [
        {
          "internalType": "uint256",
          "name": "amount",
          "type": "uint256"
        }
      ],
      "stateMutability": "view",
      "type": "function"
    },
    {
      "inputs": [
        {
          "internalType": "uint256",
          "name": "snapshotId",
          "type": "uint256"
        }
      ],
      "name": "totalStakedLtonAt",
      "outputs": [
        {
          "internalType": "uint256",
          "name": "amount",
          "type": "uint256"
        }
      ],
      "stateMutability": "view",
      "type": "function"
    },
    {
      "inputs": [
        {
          "internalType": "uint256",
          "name": "snapshotId",
          "type": "uint256"
        }
      ],
      "name": "totalStakedLtonAtSnapshot",
      "outputs": [
        {
          "internalType": "bool",
          "name": "snapshotted",
          "type": "bool"
        },
        {
          "internalType": "uint256",
          "name": "amount",
          "type": "uint256"
        }
      ],
      "stateMutability": "view",
      "type": "function"
    },
    {
      "inputs": [
        {
          "internalType": "address",
          "name": "newAdmin",
          "type": "address"
        }
      ],
      "name": "transferAdmin",
      "outputs": [],
      "stateMutability": "nonpayable",
      "type": "function"
    },
    {
      "inputs": [
        {
          "internalType": "uint32",
          "name": "_index",
          "type": "uint32"
        },
        {
          "internalType": "uint256",
          "name": "lton_",
          "type": "uint256"
        }
      ],
      "name": "unstake",
      "outputs": [],
      "stateMutability": "nonpayable",
      "type": "function"
    },
    {
      "inputs": [
        {
          "internalType": "uint32",
          "name": "_index",
          "type": "uint32"
        },
        {
          "internalType": "bool",
          "name": "isCandidate",
          "type": "bool"
        }
      ],
      "name": "withdraw",
      "outputs": [],
      "stateMutability": "nonpayable",
      "type": "function"
    },
    {
      "inputs": [
        {
          "internalType": "uint32",
          "name": "",
          "type": "uint32"
        },
        {
          "internalType": "address",
          "name": "",
          "type": "address"
        }
      ],
      "name": "withdrawalRequestIndex",
      "outputs": [
        {
          "internalType": "uint256",
          "name": "",
          "type": "uint256"
        }
      ],
      "stateMutability": "view",
      "type": "function"
    },
    {
      "inputs": [
        {
          "internalType": "uint32",
          "name": "",
          "type": "uint32"
        },
        {
          "internalType": "address",
          "name": "",
          "type": "address"
        },
        {
          "internalType": "uint256",
          "name": "",
          "type": "uint256"
        }
      ],
      "name": "withdrawalRequests",
      "outputs": [
        {
          "internalType": "uint32",
          "name": "withdrawableBlockNumber",
          "type": "uint32"
        },
        {
          "internalType": "uint128",
          "name": "amount",
          "type": "uint128"
        },
        {
          "internalType": "bool",
          "name": "processed",
          "type": "bool"
        }
      ],
      "stateMutability": "view",
      "type": "function"
    }
  ],
  "bytecode": "0x60806040526006805460ff1916600117905534801561001d57600080fd5b506150ed8061002d6000396000f3fe608060405234801561001057600080fd5b506004361061048d5760003560e01c8063763936c71161026b578063a217fddf11610150578063cdc76cf9116100c8578063e4f6815511610097578063edcc21771161007c578063edcc217714610c99578063f2b9ddfc14610cac578063f8d437ae14610cbf57600080fd5b8063e4f6815514610c73578063ec110d4514610c8657600080fd5b8063cdc76cf914610c27578063d07918f114610c3a578063d547741f14610c4d578063df2b429014610c6057600080fd5b8063b6a2f99d1161011f578063b969fbef11610104578063b969fbef14610be7578063b9cab97114610bef578063cc48b94714610c0f57600080fd5b8063b6a2f99d14610b90578063b911135f14610bbe57600080fd5b8063a217fddf14610b62578063a2dc9e0214610b6a578063a4c735ef14610b7d578063b413b37a146106b057600080fd5b80638ddd87fe116101e35780639a307391116101b25780639c2f7f3b116101975780639c2f7f3b14610ad55780639c656e2614610ae8578063a0b2a91314610b4257600080fd5b80639a30739114610aaf5780639c2f614f14610ac257600080fd5b80638ddd87fe14610a1457806391d1485414610a5257806394c89b2c14610a895780639823835514610a9c57600080fd5b806385b9e4851161023a5780638c6f1b391161021f5780638c6f1b39146109765780638c71762d146109cc5780638d99e1ca14610a0157600080fd5b806385b9e4851461093d5780638afec9fc1461095057600080fd5b8063763936c7146108d95780637cf1587c146108ec5780637d211a1c146109175780637ec6840f1461092a57600080fd5b80634de131ca11610391578063659ab8201161030957806370619cf9116102d857806373469a7a116102bd57806373469a7a1461088c57806375829def1461089f57806375b238fc146108b257600080fd5b806370619cf9146108595780637138c7921461087957600080fd5b8063659ab820146107d45780636818a32b146107f45780636d1ef10314610807578063704802751461084657600080fd5b80635439ad86116103605780635e2cfe45116103455780635e2cfe45146107365780635f1b989e1461076157806363a8fd89146107c757600080fd5b80635439ad861461070b578063550d01a31461071357600080fd5b80634de131ca1461069b5780634e1a264d146106b05780634ec2f04b146106b857806350d2a276146106e257600080fd5b806322985246116104245780632f2ff15d116103f357806341e5dbe8116103d857806341e5dbe81461066d5780634273ca161461068057806346bcdb491461069357600080fd5b80632f2ff15d1461064757806336568abe1461065a57600080fd5b806322985246146105d7578063248a9ca3146105fe57806324d7806c1461062157806329637c1c1461063457600080fd5b806316b5d5bd1161046057806316b5d5bd146105235780631785f53c1461054e5780631ed94495146105615780631f760d011461059857600080fd5b80630116cc651461049257806301ffc9a7146104b85780630b8931cb146104db578063127025971461050e575b600080fd5b6104a56104a0366004614789565b610cd2565b6040519081526020015b60405180910390f35b6104cb6104c63660046147a4565b610d03565b60405190151581526020016104af565b6104ee6104e9366004614789565b610d3a565b604080516001600160a01b039384168152929091166020830152016104af565b61052161051c3660046147dc565b610de0565b005b600854610536906001600160a01b031681565b6040516001600160a01b0390911681526020016104af565b61052161055c366004614828565b611266565b61057461056f366004614845565b6112f3565b604080518251815260208084015190820152918101511515908201526060016104af565b6105ab6105a6366004614845565b611372565b6040805194855263ffffffff9384166020860152918316918401919091521660608201526080016104af565b6104a57ffb5864e8ff833c3cb2d2d08505e82ff02a43554c74a35d4f5a64e8526127831181565b6104a561060c366004614871565b60009081526020819052604090206001015490565b6104cb61062f366004614828565b6114b0565b6104a561064236600461488a565b6114f0565b6105216106553660046148c9565b61157f565b6105216106683660046148c9565b6115a9565b6104a561067b366004614789565b611635565b6104cb61068e3660046148ee565b61170e565b6017546104a5565b6106a3611867565b6040516104af919061498d565b600a546104a5565b6106cb6106c63660046149da565b6118c9565b6040805192151583526020830191909152016104af565b6105366106f03660046147a4565b6004602052600090815260409020546001600160a01b031681565b6104a56118f7565b6104cb610721366004614828565b60036020526000908152604090205460ff1681565b6104a5610744366004614845565b601360209081526000928352604080842090915290825290205481565b6104a561076f366004614845565b63ffffffff9091166000908152600f602090815260408083206001600160a01b03909416835292815290829020825160608101845281548152600182015492810183905260029091015460ff16151592019190915290565b6001546104cb9060ff1681565b6107e76107e2366004614789565b61196a565b6040516104af9190614a54565b6104a561080236600461488a565b611a04565b61081a61081536600461488a565b611aa8565b6040805163ffffffff90941684526001600160801b0390921660208401521515908201526060016104af565b610521610854366004614828565b611b07565b6104a5610867366004614789565b600d6020526000908152604090205481565b6104cb610887366004614a67565b611b91565b600754610536906001600160a01b031681565b6105216108ad366004614828565b611d63565b6104a57fdf8b4c520ffe197c5343c6f5aec59570151ef9a492f2c624fd45ddde6135ec4281565b6105366108e7366004614789565b611ec5565b6104a56108fa366004614845565b601260209081526000928352604080842090915290825290205481565b6104cb610925366004614789565b612085565b6105216109383660046149da565b612143565b6104cb61094b366004614aad565b612289565b6104a561095e366004614789565b63ffffffff166000908152600d602052604090205490565b610989610984366004614789565b61252e565b6040516104af919081516001600160a01b039081168252602080840151821690830152604080840151821690830152606092830151169181019190915260800190565b6109df6109da366004614845565b6125d9565b6040805193845263ffffffff92831660208501529116908201526060016104af565b6104a5610a0f366004614789565b612716565b6104a5610a22366004614845565b63ffffffff821660009081526013602090815260408083206001600160a01b038516845290915290205492915050565b6104cb610a603660046148c9565b6000918252602082815260408084206001600160a01b0393909316845291905290205460ff1690565b6104a5610a97366004614845565b612789565b6106cb610aaa36600461488a565b612849565b610536610abd366004614828565b61288b565b610521610ad03660046149da565b612962565b610521610ae33660046147dc565b6129ee565b610b25610af6366004614845565b600f60209081526000928352604080842090915290825290208054600182015460029092015490919060ff1683565b6040805193845260208401929092521515908201526060016104af565b6104a5610b50366004614828565b60156020526000908152604090205481565b6104a5600081565b610536610b78366004614828565b612a6e565b610536610b8b366004614828565b612ae0565b610ba3610b9e366004614845565b612b3d565b604080519384526020840192909252908201526060016104af565b610536610bcc366004614871565b6002602052600090815260409020546001600160a01b031681565b6104a5612b98565b6104a5610bfd366004614789565b60146020526000908152604090205481565b6006546105369061010090046001600160a01b031681565b6104a5610c353660046149da565b612be2565b600954610536906001600160a01b031681565b610521610c5b3660046148c9565b612c35565b6104cb610c6e366004614b4d565b612c5a565b6104a5610c81366004614871565b612da0565b610536610c94366004614871565b612dc1565b6104a5610ca7366004614bf3565b612deb565b610521610cba366004614c11565b612e9e565b6106cb610ccd366004614871565b612f62565b63ffffffff81166000908152601660205260408082209051610cf49190614c85565b60405180910390209050919050565b60006001600160e01b03198216637965db0b60e01b1480610d3457506301ffc9a760e01b6001600160e01b03198316145b92915050565b63ffffffff8116600090815260166020526040808220905163186ca86f60e21b81528291829173__$35081dc60fc26376aafbbba403b8b17c43$__916361b2a1bc91610d899190600401614cfb565b608060405180830381865af4158015610da6573d6000803e3d6000fd5b505050506040513d601f19601f82011682018060405250810190610dca9190614d86565b9050806020015181604001519250925050915091565b60065460ff16610e245760405162461bcd60e51b8152600401610e1b906020808252600490820152636c6f636b60e01b604082015260600190565b60405180910390fd5b6006805460ff1916905563ffffffff821660008181526011602090815260408083203380855290835281842054948452601283528184208185529092528220549092919081905b83811015610f3d5763ffffffff871660009081526011602090815260408083206001600160a01b03891684529091528120805483908110610eae57610eae614e0b565b600091825260209091200180549091504363ffffffff909116108015610edd57508054600160a01b900460ff16155b15610f2457805460ff60a01b1916600160a01b17808255610f10906001600160801b036401000000009091041684614e37565b925083610f1c81614e4a565b945050610f2a565b50610f3d565b5080610f3581614e4a565b915050610e6b565b5060008111610f8e5760405162461bcd60e51b815260206004820181905260248201527f7a65726f20617661696c61626c65207769746864726177616c20616d6f756e746044820152606401610e1b565b63ffffffff861660009081526012602090815260408083206001600160a01b038816845290915281208054849290610fc7908490614e37565b909155505063ffffffff861660009081526013602090815260408083206001600160a01b038816845290915281208054839290611005908490614e63565b909155505063ffffffff86166000908152601460205260408120805483929061102f908490614e63565b90915550506001600160a01b0384166000908152601560205260408120805483929061105c908490614e63565b90915550506006546040516370a0823160e01b815230600482015260009161010090046001600160a01b0316906370a0823190602401602060405180830381865afa1580156110af573d6000803e3d6000fd5b505050506040513d601f19601f820116820180604052508101906110d39190614e76565b90508181101561117e5780156110ff576006546110ff9061010090046001600160a01b03168683612f79565b6007546001600160a01b031663e7d9456c8661111b8486614e63565b6040516001600160e01b031960e085901b1681526001600160a01b0390921660048301526024820152604401600060405180830381600087803b15801561116157600080fd5b505af1158015611175573d6000803e3d6000fd5b5050505061119a565b60065461119a9061010090046001600160a01b03168684612f79565b85156111fa57604080516000815263ffffffff891660208201526001600160a01b038716818301526060810184905290517fb791c1a058894ea979a242d29f1379dab41dcc3b829ac9136b73308ea52d58d39181900360800190a1611250565b6040805163ffffffff89168152600060208201526001600160a01b038716818301526060810184905290517fb791c1a058894ea979a242d29f1379dab41dcc3b829ac9136b73308ea52d58d39181900360800190a15b50506006805460ff191660011790555050505050565b61126f336114b0565b6112c65760405162461bcd60e51b815260206004820152602260248201527f41636365737369626c653a2043616c6c6572206973206e6f7420616e2061646d60448201526134b760f11b6064820152608401610e1b565b6112f07fdf8b4c520ffe197c5343c6f5aec59570151ef9a492f2c624fd45ddde6135ec42826115a9565b50565b611319604051806060016040528060008152602001600081526020016000151581525090565b5063ffffffff9091166000908152600f602090815260408083206001600160a01b039094168352928152908290208251606081018452815481526001820154928101929092526002015460ff1615159181019190915290565b63ffffffff80831660008181526011602090815260408083206001600160a01b038716808552908352818420549484526012835281842090845290915281205490929091839182919084165b818110156114a55763ffffffff881660009081526011602090815260408083206001600160a01b038b168452909152812080548390811061140157611401614e0b565b6000918252602080832060408051606081018252939091015463ffffffff8116845264010000000081046001600160801b031692840192909252600160a01b90910460ff1615159082018190529092509003611492578363ffffffff1660000361146a57805193505b6020810151611482906001600160801b031688614e37565b965061148f600186614e8f565b94505b508061149d81614e4a565b9150506113be565b505092959194509250565b6001600160a01b03811660009081527f5cbfc8ee58ca47855df7bcf648dd304ddb6b932f9b87878bdf6318d7ec7ee5b7602052604081205460ff16610d34565b6007546000906001600160a01b0316638df40b2c61150f868686611a04565b846040518363ffffffff1660e01b8152600401611536929190918252602082015260400190565b602060405180830381865afa158015611553573d6000803e3d6000fd5b505050506040513d601f19601f820116820180604052508101906115779190614e76565b949350505050565b60008281526020819052604090206001015461159a81613094565b6115a4838361309e565b505050565b6001600160a01b03811633146116275760405162461bcd60e51b815260206004820152602f60248201527f416363657373436f6e74726f6c3a2063616e206f6e6c792072656e6f756e636560448201527f20726f6c657320666f722073656c6600000000000000000000000000000000006064820152608401610e1b565b611631828261313c565b5050565b6000806116418361252e565b90506116508160000151612a6e565b60065460608301516040516347b00fb360e11b81526001600160a01b03610100909304831660048201529082166024820152911690638f601f6690604401602060405180830381865afa9250505080156116c7575060408051601f3d908101601f191682019092526116c491810190614e76565b60015b611705573d8080156116f5576040519150601f19603f3d011682016040523d82523d6000602084013e6116fa565b606091505b506000925050611708565b91505b50919050565b60065460009061010090046001600160a01b031633146117555760405162461bcd60e51b8152602060048201526002602482015261454160f01b6044820152606401610e1b565b61179c610925600085858080601f01602080910402602001604051908101604052809392919081815260200183838082843760009201919091525092939250506131bb9050565b6117df5760405162461bcd60e51b81526020600482015260146024820152733737b716b932b3b4b9ba32b932b2103630bcb2b960611b6044820152606401610e1b565b6000611825600085858080601f01602080910402602001604051908101604052809392919081815260200183838082843760009201919091525092939250506131bb9050565b9050841561184a5760065461184a9061010090046001600160a01b031688308861327b565b61185a816000898860008061339f565b5060019695505050505050565b606060178054806020026020016040519081016040528092919081815260200182805480156118bf57602002820191906000526020600020905b81546001600160a01b031681526001909101906020018083116118a1575b5050505050905090565b63ffffffff82166000908152600e6020526040812081906118eb9084906137b4565b915091505b9250929050565b60075460408051632a1cd6c360e11b815290516000926001600160a01b031691635439ad869160048083019260209291908290030181865afa158015611941573d6000803e3d6000fd5b505050506040513d601f19601f820116820180604052508101906119659190614e76565b905090565b6016602052600090815260409020805461198390614c51565b80601f01602080910402602001604051908101604052809291908181526020018280546119af90614c51565b80156119fc5780601f106119d1576101008083540402835291602001916119fc565b820191906000526020600020905b8154815290600101906020018083116119df57829003601f168201915b505050505081565b63ffffffff831660009081526010602090815260408083206001600160a01b0386168452909152812081908190611a3c9085906137b4565b9150915081611a9c5763ffffffff86166000908152600f602090815260408083206001600160a01b0389168452825291829020825160608101845281548152600182015492810183905260029091015460ff161515920191909152611a9e565b805b9695505050505050565b60116020528260005260406000206020528160005260406000208181548110611ad057600080fd5b60009182526020909120015463ffffffff8116935064010000000081046001600160801b03169250600160a01b900460ff16905083565b611b10336114b0565b611b675760405162461bcd60e51b815260206004820152602260248201527f41636365737369626c653a2043616c6c6572206973206e6f7420616e2061646d60448201526134b760f11b6064820152608401610e1b565b6112f07fdf8b4c520ffe197c5343c6f5aec59570151ef9a492f2c624fd45ddde6135ec428261157f565b6009546000906001600160a01b03163314611bde5760405162461bcd60e51b815260206004820152600d60248201526c232bafa1a0a62622a92fa2a92960991b6044820152606401610e1b565b611be884846138d7565b600754604051636a2fb1f560e01b8152600481018490526000916001600160a01b031690636a2fb1f590602401602060405180830381865afa158015611c32573d6000803e3d6000fd5b505050506040513d601f19601f82011682018060405250810190611c569190614e76565b63ffffffff86166000908152600d6020526040812080549293508392909190611c80908490614e37565b9250508190555080600a6000828254611c999190614e37565b909155505063ffffffff85166000908152600f602090815260408083206001600160a01b03881684529091528120805490918591839190611cdb908490614e37565b9250508190555081816001016000828254611cf69190614e37565b90915550506040805188815263ffffffff881660208201526001600160a01b03871681830152606081018690526080810184905290517f8cf204c07a4ce065cdd0c90963672bd384e5479ada88179bca8eb6075c02731f9181900360a00190a15060019695505050505050565b611d6c336114b0565b611dc35760405162461bcd60e51b815260206004820152602260248201527f41636365737369626c653a2043616c6c6572206973206e6f7420616e2061646d60448201526134b760f11b6064820152608401610e1b565b6001600160a01b038116611e195760405162461bcd60e51b815260206004820152601860248201527f41636365737369626c653a207a65726f206164647265737300000000000000006044820152606401610e1b565b6001600160a01b0381163303611e715760405162461bcd60e51b815260206004820152601660248201527f41636365737369626c653a2073616d652061646d696e000000000000000000006044820152606401610e1b565b611e9b7fdf8b4c520ffe197c5343c6f5aec59570151ef9a492f2c624fd45ddde6135ec428261157f565b6112f07fdf8b4c520ffe197c5343c6f5aec59570151ef9a492f2c624fd45ddde6135ec42336115a9565b63ffffffff811660009081526016602052604080822090516379a0c08760e11b8152829173__$35081dc60fc26376aafbbba403b8b17c43$__9163f341810e91611f1191600401614cfb565b602060405180830381865af4158015611f2e573d6000803e3d6000fd5b505050506040513d601f19601f82011682018060405250810190611f529190614eb3565b90506001600160a01b038116611f6b5750600092915050565b63ffffffff83166000908152601660205260409081902090516379a0c08760e11b815273__$35081dc60fc26376aafbbba403b8b17c43$__9163f341810e91611fb79190600401614cfb565b602060405180830381865af4158015611fd4573d6000803e3d6000fd5b505050506040513d601f19601f82011682018060405250810190611ff89190614eb3565b60405163bf40fac160e01b815260206004820152601560248201527f4f564d5f544f4e5374616b696e674d616e61676572000000000000000000000060448201526001600160a01b03919091169063bf40fac190606401602060405180830381865afa9250505080156116c7575060408051601f3d908101601f191682019092526116c491810190614eb3565b60085460405163370f791d60e11b815263ffffffff831660048201526000916001600160a01b031690636e1ef23a90602401602060405180830381865afa1580156120d4573d6000803e3d6000fd5b505050506040513d601f19601f820116820180604052508101906120f89190614ed0565b61213b5760405162461bcd60e51b81526020600482015260146024820152733737b716b932b3b4b9ba32b932b2103630bcb2b960611b6044820152606401610e1b565b506001919050565b61214c82612085565b61218f5760405162461bcd60e51b81526020600482015260146024820152733737b716b932b3b4b9ba32b932b2103630bcb2b960611b6044820152606401610e1b565b600654604051636eb1769f60e11b81523360048201523060248201526101009091046001600160a01b03169063dd62ed3e90604401602060405180830381865afa1580156121e1573d6000803e3d6000fd5b505050506040513d601f19601f820116820180604052508101906122059190614e76565b81101561227a5760405162461bcd60e51b815260206004820152603360248201527f616c6c6f77616e636520616c6c6f77616e636520697320696e7375666669636960448201527f656e7420697320696e73756666696369656e74000000000000000000000000006064820152608401610e1b565b61163182600083600080613985565b60065460009060ff166122c75760405162461bcd60e51b8152600401610e1b906020808252600490820152636c6f636b60e01b604082015260600190565b6006805460ff191690556009546001600160a01b0316331461231b5760405162461bcd60e51b815260206004820152600d60248201526c232bafa1a0a62622a92fa2a92960991b6044820152606401610e1b565b816123268686612789565b10156123745760405162461bcd60e51b815260206004820152601960248201527f6c697175696469747920697320696e73756666696369656e74000000000000006044820152606401610e1b565b61237e85856138d7565b6006546040516370a0823160e01b815230600482015260009161010090046001600160a01b0316906370a0823190602401602060405180830381865afa1580156123cc573d6000803e3d6000fd5b505050506040513d601f19601f820116820180604052508101906123f09190614e76565b90508281101561249b57801561241c5760065461241c9061010090046001600160a01b03168583612f79565b6007546001600160a01b031663e7d9456c856124388487614e63565b6040516001600160e01b031960e085901b1681526001600160a01b0390921660048301526024820152604401600060405180830381600087803b15801561247e57600080fd5b505af1158015612492573d6000803e3d6000fd5b505050506124b7565b6006546124b79061010090046001600160a01b03168585612f79565b6040805188815263ffffffff881660208201526001600160a01b0387811682840152861660608201526080810185905290517f77fbf71434da34ef2aa8382e2b751b6b2de7bd18d96a07ff7f4dae7dae9237619181900360a00190a160019150506006805460ff1916600117905595945050505050565b60408051608081018252600080825260208083018290528284018290526060830182905263ffffffff8516825260169052829020915163186ca86f60e21b8152909173__$35081dc60fc26376aafbbba403b8b17c43$__916361b2a1bc9161259891600401614cfb565b608060405180830381865af41580156125b5573d6000803e3d6000fd5b505050506040513d601f19601f82011682018060405250810190610d349190614d86565b63ffffffff80831660008181526011602090815260408083206001600160a01b038716808552908352818420549484526012835281842090845290915281205490929091839183165b8181101561270d5763ffffffff871660009081526011602090815260408083206001600160a01b038a168452909152812080548390811061266557612665614e0b565b600091825260209182902060408051606081018252929091015463ffffffff811680845264010000000082046001600160801b031694840194909452600160a01b900460ff161515908201529150431180156126c357506040810151155b156126f45760208101516126e0906001600160801b031687614e37565b95506126ed600185614e8f565b93506126fa565b5061270d565b508061270581614e4a565b915050612622565b50509250925092565b6008546040516346ccf0e560e11b815263ffffffff831660048201526000916001600160a01b031690638d99e1ca90602401602060405180830381865afa158015612765573d6000803e3d6000fd5b505050506040513d601f19601f82011682018060405250810190610d349190614e76565b60075463ffffffff83166000908152600f602090815260408083206001600160a01b038681168552908352818420825160608101845281548152600182015494810185905260029091015460ff16151590830152905163cdf6800960e01b815260048101929092529192919091169063cdf6800990602401602060405180830381865afa15801561281e573d6000803e3d6000fd5b505050506040513d601f19601f820116820180604052508101906128429190614e76565b9392505050565b63ffffffff831660009081526010602090815260408083206001600160a01b03861684529091528120819061287f9084906137b4565b91509150935093915050565b60405163bf40fac160e01b815260206004820152601560248201527f4f564d5f544f4e5374616b696e674d616e61676572000000000000000000000060448201526000906001600160a01b0383169063bf40fac1906064015b602060405180830381865afa92505050801561291d575060408051601f3d908101601f1916820190925261291a91810190614eb3565b60015b61295a573d80801561294b576040519150601f19603f3d011682016040523d82523d6000602084013e612950565b606091505b5060009392505050565b90505b919050565b600954604051630265991f60e61b815260006004820181905263ffffffff8516602483015233604483015261163192859285916001600160a01b03169063996647c090606401602060405180830381865afa1580156129c5573d6000803e3d6000fd5b505050506040513d601f19601f820116820180604052508101906129e99190614e76565b6139b0565b63ffffffff821660009081526012602090815260408083203384529091529020548115612a5f57612a2460008433846001613ecd565b6115a45760405162461bcd60e51b815260206004820152600c60248201526b534c5f455f52455354414b4560a01b6044820152606401610e1b565b612a2483600033846001613ecd565b60006001600160a01b038216612a8657506000919050565b60405163bf40fac160e01b815260206004820152601b60248201527f50726f78795f5f4f564d5f4c315374616e64617264427269646765000000000060448201526001600160a01b0383169063bf40fac1906064016128e4565b60405163bf40fac160e01b815260206004820152601a60248201527f4f564d5f4c3143726f7373446f6d61696e4d657373656e67657200000000000060448201526000906001600160a01b0383169063bf40fac1906064016128e4565b63ffffffff821660008181526011602090815260408083206001600160a01b038616808552908352818420549484526012835281842090845290915281205490818310612b9157612b8e8284614e63565b90505b9250925092565b6008546040805163b969fbef60e01b815290516000926001600160a01b03169163b969fbef9160048083019260209291908290030181865afa158015611941573d6000803e3d6000fd5b63ffffffff82166000908152600e6020526040812081908190612c069085906137b4565b9150915081612c2a5763ffffffff85166000908152600d6020526040902054612c2c565b805b95945050505050565b600082815260208190526040902060010154612c5081613094565b6115a4838361313c565b6008546000906001600160a01b03163314612cb75760405162461bcd60e51b815260206004820152601160248201527f6e6f74204c61796572324d616e616765720000000000000000000000000000006044820152606401610e1b565b8151605014612d085760405162461bcd60e51b815260206004820152600f60248201527f77726f6e67206c61796572496e666f00000000000000000000000000000000006044820152606401610e1b565b63ffffffff831660009081526016602052604090208054612d2890614c51565b159050612d775760405162461bcd60e51b815260206004820152600f60248201527f616c7265616479206372656174656400000000000000000000000000000000006044820152606401610e1b565b63ffffffff83166000908152601660205260409020612d968382614f33565b5060019392505050565b6000806000612db084600b6137b4565b915091508161170557600a54611577565b60178181548110612dd157600080fd5b6000918252602090912001546001600160a01b0316905081565b6006546040516347b00fb360e11b81526001600160a01b03610100909204821660048201528282166024820152600091841690638f601f6690604401602060405180830381865afa925050508015612e60575060408051601f3d908101601f19168201909252612e5d91810190614e76565b60015b612842573d808015612e8e576040519150601f19603f3d011682016040523d82523d6000602084013e612e93565b606091505b506000915050610d34565b63ffffffff831660009081526012602090815260408083203384529091529020548115612f1357612ed3600085338487613ecd565b612f0e5760405162461bcd60e51b815260206004820152600c60248201526b534c5f455f52455354414b4560a01b6044820152606401610e1b565b612f5c565b612f21846000338487613ecd565b612f5c5760405162461bcd60e51b815260206004820152600c60248201526b534c5f455f52455354414b4560a01b6044820152606401610e1b565b50505050565b600080612f7083600b6137b4565b91509150915091565b604080516001600160a01b038481166024830152604480830185905283518084039091018152606490920183526020820180516001600160e01b031663a9059cbb60e01b1790529151600092839290871691612fd59190614ff3565b6000604051808303816000865af19150503d8060008114613012576040519150601f19603f3d011682016040523d82523d6000602084013e613017565b606091505b50915091508180156130415750805115806130415750808060200190518101906130419190614ed0565b61308d5760405162461bcd60e51b815260206004820152600f60248201527f5452414e534645525f4641494c454400000000000000000000000000000000006044820152606401610e1b565b5050505050565b6112f0813361439d565b6000828152602081815260408083206001600160a01b038516845290915290205460ff16611631576000828152602081815260408083206001600160a01b03851684529091529020805460ff191660011790556130f83390565b6001600160a01b0316816001600160a01b0316837f2f8788117e7eff1d82e926ec794901d17c78024a50270940304540a733656f0d60405160405180910390a45050565b6000828152602081815260408083206001600160a01b038516845290915290205460ff1615611631576000828152602081815260408083206001600160a01b0385168085529252808320805460ff1916905551339285917ff6391f5c32d9c69d2a47ea670b442974b53935d1edc7fd64eb21e047a839171b9190a45050565b6000816131c9816004614e37565b10156132175760405162461bcd60e51b815260206004820152601160248201527f746f55696e7433325f6f766572666c6f770000000000000000000000000000006044820152606401610e1b565b613222826004614e37565b835110156132725760405162461bcd60e51b815260206004820152601460248201527f746f55696e7433325f6f75744f66426f756e64730000000000000000000000006044820152606401610e1b565b50016004015190565b604080516001600160a01b0385811660248301528481166044830152606480830185905283518084039091018152608490920183526020820180516001600160e01b03166323b872dd60e01b17905291516000928392908816916132df9190614ff3565b6000604051808303816000865af19150503d806000811461331c576040519150601f19603f3d011682016040523d82523d6000602084013e613321565b606091505b509150915081801561334b57508051158061334b57508080602001905181019061334b9190614ed0565b6133975760405162461bcd60e51b815260206004820152601460248201527f5452414e534645525f46524f4d5f4641494c45440000000000000000000000006044820152606401610e1b565b505050505050565b60065460ff166133da5760405162461bcd60e51b8152600401610e1b906020808252600490820152636c6f636b60e01b604082015260600190565b6006805460ff1916905582600081900361341b5760405162461bcd60e51b81526020600482015260026024820152615a3160f01b6044820152606401610e1b565b8663ffffffff87161561342b5750855b61343581876138d7565b600754604051636a2fb1f560e01b8152600481018790526000916001600160a01b031690636a2fb1f590602401602060405180830381865afa15801561347f573d6000803e3d6000fd5b505050506040513d601f19601f820116820180604052508101906134a39190614e76565b63ffffffff83166000908152600d60205260408120805492935083929091906134cd908490614e37565b9250508190555080600a60008282546134e69190614e37565b909155505063ffffffff82166000908152600f602090815260408083206001600160a01b038b1684529091529020600281015460ff1661358857600281018054600160ff1990911681179091556017805491820181556000527fc624b66cc0138b8fabc209247f72d758e1cf3343756d543badbf24212bed8c1501805473ffffffffffffffffffffffffffffffffffffffff19166001600160a01b038a161790555b600061ffff8616158015906135a557506001600160a01b03871615155b80156135b657506127108661ffff16105b156136f9576127106135cc61ffff88168561500f565b6135d69190615026565b90506135e28184614e63565b60075460405163cdf6800960e01b8152600481018390529194506000916001600160a01b039091169063cdf6800990602401602060405180830381865afa158015613631573d6000803e3d6000fd5b505050506040513d601f19601f820116820180604052508101906136559190614e76565b90508083600001600082825461366b9190614e37565b92505081905550838360010160008282546136869190614e37565b909155505063ffffffff85166000908152600f602090815260408083206001600160a01b038c16845290915290206136be828b614e63565b8160000160008282546136d19190614e37565b92505081905550828160010160008282546136ec9190614e37565b9091555061372e92505050565b8782600001600082825461370d9190614e37565b92505081905550828260010160008282546137289190614e37565b90915550505b6040805163ffffffff8d811682528c1660208201526001600160a01b038b811682840152606082018b905260808201869052891660a082015260c0810183905290517f927470b6d7513b8823f6edf25bfa0c3728c09ee0a83039a78ea0b073ea8fcd0b9181900360e00190a150506006805460ff19166001179055505050505050505050565b6000806137bf6118f7565b84111561380e5760405162461bcd60e51b815260206004820152601860248201527f536e617073686f743a206e6f6e6578697374656e7420696400000000000000006044820152606401610e1b565b82541580159061384757508254839061382990600190614e63565b8154811061383957613839614e0b565b906000526020600020015484115b156138855782546000906001808601916138619190614e63565b8154811061387157613871614e0b565b9060005260206000200154915091506118f0565b60006138918486614410565b845490915081106138a95760008092509250506118f0565b60018460010182815481106138c0576138c0614e0b565b906000526020600020015492509250509250929050565b6138ea600b6138e5600a5490565b614520565b63ffffffff82166000908152600e60209081526040808320600d909252909120546139159190614520565b63ffffffff821660008181526010602090815260408083206001600160a01b038616808552908352818420948452600f8352818420908452825291829020825160608101845281548152600182015492810183905260029091015460ff1615159201919091526116319190614520565b6006546139a29061010090046001600160a01b031633308661327b565b61308d85853386868661339f565b60065460ff166139eb5760405162461bcd60e51b8152600401610e1b906020808252600490820152636c6f636b60e01b604082015260600190565b6006805460ff19169055816000819003613a2c5760405162461bcd60e51b81526020600482015260026024820152615a3160f01b6044820152606401610e1b565b8463ffffffff851615613a3c5750835b33613a4782826138d7565b60075460405163cdf6800960e01b8152600481018790526000916001600160a01b03169063cdf6800990602401602060405180830381865afa158015613a91573d6000803e3d6000fd5b505050506040513d601f19601f82011682018060405250810190613ab59190614e76565b63ffffffff84166000908152600f602090815260408083206001600160a01b038716845290915290209091508515613bb6576001810154600754604051636a2fb1f560e01b8152600481018990526001600160a01b0390911690636a2fb1f590602401602060405180830381865afa158015613b35573d6000803e3d6000fd5b505050506040513d601f19601f82011682018060405250810190613b599190614e76565b613b639089614e37565b1115613bb15760405162461bcd60e51b815260206004820152600d60248201527f756e7374616b655f6572725f31000000000000000000000000000000000000006044820152606401610e1b565b613c0a565b8060010154871115613c0a5760405162461bcd60e51b815260206004820152600d60248201527f756e7374616b655f6572725f32000000000000000000000000000000000000006044820152606401610e1b565b86816001016000828254613c1e9190614e63565b90915550508054821115613c355760008155613c4f565b81816000016000828254613c499190614e63565b90915550505b63ffffffff84166000908152600d602052604081208054899290613c74908490614e63565b9250508190555086600a6000828254613c8d9190614e63565b909155505060085460408051636577b27360e11b815290516000926001600160a01b03169163caef64e69160048083019260209291908290030181865afa158015613cdc573d6000803e3d6000fd5b505050506040513d601f19601f82011682018060405250810190613d009190614e76565b63ffffffff861660009081526011602090815260408083206001600160a01b03891684529091529081902081516060810190925291925080613d428443614e37565b63ffffffff90811682526001600160801b0380881660208085019190915260006040948501819052865460018101885596815281812086519701805487840151978701511515600160a01b0260ff60a01b19989095166401000000000273ffffffffffffffffffffffffffffffffffffffff199091169886169890981797909717959095169190911790945588168252601383528082206001600160a01b03881683529092529081208054859290613dfb908490614e37565b909155505063ffffffff851660009081526014602052604081208054859290613e25908490614e37565b90915550506001600160a01b03841660009081526015602052604081208054859290613e52908490614e37565b90915550506040805163ffffffff8c811682528b1660208201526001600160a01b0386168183015260608101859052608081018a905290517f201778b9e426c04a92e6d1bf5a4d1705c4a30568ae25eef5fa5231092af295259181900360a00190a150506006805460ff191660011790555050505050505050565b60065460009060ff16613f0b5760405162461bcd60e51b8152600401610e1b906020808252600490820152636c6f636b60e01b604082015260600190565b6006805460ff191690558563ffffffff861615613f255750845b613f2f81866138d7565b63ffffffff811660009081526011602090815260408083206001600160a01b038916845290915281205480613f935760405162461bcd60e51b815260206004820152600a6024820152696e6f20756e7374616b6560b01b6044820152606401610e1b565b84613f9e8783614e63565b1015613fec5760405162461bcd60e51b815260206004820152601860248201527f6e2065786365656473206e756d206f662070656e64696e6700000000000000006044820152606401610e1b565b6000613ff88688614e37565b90505b808710156140ee5763ffffffff841660009081526011602090815260408083206001600160a01b038c168452909152812080548990811061403e5761403e614e0b565b6000918252602090912001805490915064010000000081046001600160801b031690600160a01b900460ff16156140b75760405162461bcd60e51b815260206004820152601260248201527f616c7265616479207769746864726177616c00000000000000000000000000006044820152606401610e1b565b80156140ca576140c78186614e37565b94505b50805460ff60a01b1916600160a01b179055866140e681614e4a565b975050613ffb565b6000831161413e5760405162461bcd60e51b815260206004820152601760248201527f6e6f2076616c69642072657374616b6520616d6f756e740000000000000000006044820152606401610e1b565b600754604051636a2fb1f560e01b8152600481018590526000916001600160a01b031690636a2fb1f590602401602060405180830381865afa158015614188573d6000803e3d6000fd5b505050506040513d601f19601f820116820180604052508101906141ac9190614e76565b63ffffffff86166000908152600f602090815260408083206001600160a01b038e1684529091528120805492935091869183916141ea908490614e37565b92505081905550818160010160008282546142059190614e37565b909155505063ffffffff86166000908152600d60205260408120805484929061422f908490614e37565b9250508190555081600a60008282546142489190614e37565b909155505063ffffffff861660009081526013602090815260408083206001600160a01b038e16845290915281208054879290614286908490614e63565b909155505063ffffffff8616600090815260146020526040812080548792906142b0908490614e63565b90915550506001600160a01b038a16600090815260156020526040812080548792906142dd908490614e63565b909155505063ffffffff861660009081526012602090815260408083206001600160a01b038e168452909152812080548a929061431b908490614e37565b90915550506040805163ffffffff8e811682528d1660208201526001600160a01b038c1681830152606081018790526080810184905290517f8106ff2b1b597b91194fe4d8ede5c73f76baaad464c7020d87b22ea5a716157f9181900360a00190a1600196505050505050506006805460ff1916600117905595945050505050565b6000828152602081815260408083206001600160a01b038516845290915290205460ff16611631576143ce81614575565b6143d9836020614587565b6040516020016143ea929190615048565b60408051601f198184030181529082905262461bcd60e51b8252610e1b91600401614a54565b8154600090810361442357506000610d34565b8254839061443390600190614e63565b8154811061444357614443614e0b565b9060005260206000200154821061446957825461446290600190614e63565b9050610d34565b8260008154811061447c5761447c614e0b565b906000526020600020015482101561449657506000610d34565b825460009081906144a990600190614e63565b90505b8181111561451857600060026144c28484614e37565b6144cd906001614e37565b6144d79190615026565b9050848682815481106144ec576144ec614e0b565b90600052602060002001541161450457809250614512565b61450f600182614e63565b91505b506144ac565b509392505050565b600061452a6118f7565b8354909150158061454257508061454084614730565b105b156115a4578254600180820185556000858152602080822090930193909355938401805494850181558252902090910155565b6060610d346001600160a01b03831660145b6060600061459683600261500f565b6145a1906002614e37565b67ffffffffffffffff8111156145b9576145b9614b06565b6040519080825280601f01601f1916602001820160405280156145e3576020820181803683370190505b509050600360fc1b816000815181106145fe576145fe614e0b565b60200101906001600160f81b031916908160001a905350600f60fb1b8160018151811061462d5761462d614e0b565b60200101906001600160f81b031916908160001a905350600061465184600261500f565b61465c906001614e37565b90505b60018111156146e1577f303132333435363738396162636465660000000000000000000000000000000085600f166010811061469d5761469d614e0b565b1a60f81b8282815181106146b3576146b3614e0b565b60200101906001600160f81b031916908160001a90535060049490941c936146da816150c9565b905061465f565b5083156128425760405162461bcd60e51b815260206004820181905260248201527f537472696e67733a20686578206c656e67746820696e73756666696369656e746044820152606401610e1b565b8054600090810361474357506000919050565b8154829061475390600190614e63565b8154811061476357614763614e0b565b90600052602060002001549050919050565b803563ffffffff8116811461295d57600080fd5b60006020828403121561479b57600080fd5b61284282614775565b6000602082840312156147b657600080fd5b81356001600160e01b03198116811461284257600080fd5b80151581146112f057600080fd5b600080604083850312156147ef57600080fd5b6147f883614775565b91506020830135614808816147ce565b809150509250929050565b6001600160a01b03811681146112f057600080fd5b60006020828403121561483a57600080fd5b813561284281614813565b6000806040838503121561485857600080fd5b61486183614775565b9150602083013561480881614813565b60006020828403121561488357600080fd5b5035919050565b60008060006060848603121561489f57600080fd5b6148a884614775565b925060208401356148b881614813565b929592945050506040919091013590565b600080604083850312156148dc57600080fd5b82359150602083013561480881614813565b60008060008060006080868803121561490657600080fd5b853561491181614813565b9450602086013561492181614813565b935060408601359250606086013567ffffffffffffffff8082111561494557600080fd5b818801915088601f83011261495957600080fd5b81358181111561496857600080fd5b89602082850101111561497a57600080fd5b9699959850939650602001949392505050565b6020808252825182820181905260009190848201906040850190845b818110156149ce5783516001600160a01b0316835292840192918401916001016149a9565b50909695505050505050565b600080604083850312156149ed57600080fd5b6149f683614775565b946020939093013593505050565b60005b83811015614a1f578181015183820152602001614a07565b50506000910152565b60008151808452614a40816020860160208601614a04565b601f01601f19169290920160200192915050565b6020815260006128426020830184614a28565b60008060008060808587031215614a7d57600080fd5b84359350614a8d60208601614775565b92506040850135614a9d81614813565b9396929550929360600135925050565b600080600080600060a08688031215614ac557600080fd5b85359450614ad560208701614775565b93506040860135614ae581614813565b92506060860135614af581614813565b949793965091946080013592915050565b634e487b7160e01b600052604160045260246000fd5b604051601f8201601f1916810167ffffffffffffffff81118282101715614b4557614b45614b06565b604052919050565b60008060408385031215614b6057600080fd5b614b6983614775565b915060208084013567ffffffffffffffff80821115614b8757600080fd5b818601915086601f830112614b9b57600080fd5b813581811115614bad57614bad614b06565b614bbf601f8201601f19168501614b1c565b91508082528784828501011115614bd557600080fd5b80848401858401376000848284010152508093505050509250929050565b60008060408385031215614c0657600080fd5b823561486181614813565b600080600060608486031215614c2657600080fd5b614c2f84614775565b9250602084013591506040840135614c46816147ce565b809150509250925092565b600181811c90821680614c6557607f821691505b60208210810361170857634e487b7160e01b600052602260045260246000fd5b6000808354614c9381614c51565b60018281168015614cab5760018114614cc057614cef565b60ff1984168752821515830287019450614cef565b8760005260208060002060005b85811015614ce65781548a820152908401908201614ccd565b50505082870194505b50929695505050505050565b6000602080835260008454614d0f81614c51565b80848701526040600180841660008114614d305760018114614d4a57614d78565b60ff1985168984015283151560051b890183019550614d78565b896000528660002060005b85811015614d705781548b8201860152908301908801614d55565b8a0184019650505b509398975050505050505050565b600060808284031215614d9857600080fd5b6040516080810181811067ffffffffffffffff82111715614dbb57614dbb614b06565b6040528251614dc981614813565b81526020830151614dd981614813565b60208201526040830151614dec81614813565b60408201526060830151614dff81614813565b60608201529392505050565b634e487b7160e01b600052603260045260246000fd5b634e487b7160e01b600052601160045260246000fd5b80820180821115610d3457610d34614e21565b600060018201614e5c57614e5c614e21565b5060010190565b81810381811115610d3457610d34614e21565b600060208284031215614e8857600080fd5b5051919050565b63ffffffff818116838216019080821115614eac57614eac614e21565b5092915050565b600060208284031215614ec557600080fd5b815161284281614813565b600060208284031215614ee257600080fd5b8151612842816147ce565b601f8211156115a457600081815260208120601f850160051c81016020861015614f145750805b601f850160051c820191505b8181101561339757828155600101614f20565b815167ffffffffffffffff811115614f4d57614f4d614b06565b614f6181614f5b8454614c51565b84614eed565b602080601f831160018114614f965760008415614f7e5750858301515b600019600386901b1c1916600185901b178555613397565b600085815260208120601f198616915b82811015614fc557888601518255948401946001909101908401614fa6565b5085821015614fe35787850151600019600388901b60f8161c191681555b5050505050600190811b01905550565b60008251615005818460208701614a04565b9190910192915050565b8082028115828204841417610d3457610d34614e21565b60008261504357634e487b7160e01b600052601260045260246000fd5b500490565b7f416363657373436f6e74726f6c3a206163636f756e7420000000000000000000815260008351615080816017850160208801614a04565b7f206973206d697373696e6720726f6c652000000000000000000000000000000060179184019182015283516150bd816028840160208801614a04565b01602801949350505050565b6000816150d8576150d8614e21565b50600019019056fea164736f6c6343000812000a",
  "linkReferences": {
    "contracts/libraries/LibOptimism.sol": {
      "LibOptimism": [
        {
          "length": 20,
          "start": 3471
        },
        {
          "length": 20,
          "start": 7960
        },
        {
          "length": 20,
          "start": 8125
        },
        {
          "length": 20,
          "start": 9631
        }
      ]
    }
  },
  "deployedLinkReferences": {
    "contracts/libraries/LibOptimism.sol": {
      "LibOptimism": [
        {
          "length": 20,
          "start": 3426
        },
        {
          "length": 20,
          "start": 7915
        },
        {
          "length": 20,
          "start": 8080
        },
        {
          "length": 20,
          "start": 9586
        }
      ]
    }
  }
}